{
  "abi": [
    {
      "inputs": [],
      "name": "EmptyPartialSignatures",
      "type": "error"
    },
    {
      "inputs": [
        {
          "internalType": "uint256",
          "name": "groupIndex",
          "type": "uint256"
        }
      ],
      "name": "GroupNotExist",
      "type": "error"
    },
    {
      "inputs": [],
      "name": "IncorrectCommitment",
      "type": "error"
    },
    {
      "inputs": [],
      "name": "InsufficientBalanceWhenFulfill",
      "type": "error"
    },
    {
      "inputs": [],
      "name": "InsufficientBalanceWhenRequest",
      "type": "error"
    },
    {
      "inputs": [
        {
          "internalType": "int256",
          "name": "arpaWei",
          "type": "int256"
        }
      ],
      "name": "InvalidArpaWeiPrice",
      "type": "error"
    },
    {
      "inputs": [
        {
          "internalType": "uint64",
          "name": "subId",
          "type": "uint64"
        },
        {
          "internalType": "address",
          "name": "consumer",
          "type": "address"
        }
      ],
      "name": "InvalidConsumer",
      "type": "error"
    },
    {
      "inputs": [],
      "name": "InvalidPartialSignatureFormat",
      "type": "error"
    },
    {
      "inputs": [],
      "name": "InvalidPartialSignatures",
      "type": "error"
    },
    {
      "inputs": [],
      "name": "InvalidRequestByEOA",
      "type": "error"
    },
    {
      "inputs": [
        {
          "internalType": "uint16",
          "name": "have",
          "type": "uint16"
        },
        {
          "internalType": "uint16",
          "name": "min",
          "type": "uint16"
        },
        {
          "internalType": "uint16",
          "name": "max",
          "type": "uint16"
        }
      ],
      "name": "InvalidRequestConfirmations",
      "type": "error"
    },
    {
      "inputs": [],
      "name": "InvalidSignature",
      "type": "error"
    },
    {
      "inputs": [],
      "name": "InvalidSignatureFormat",
      "type": "error"
    },
    {
      "inputs": [],
      "name": "InvalidSubscription",
      "type": "error"
    },
    {
      "inputs": [
        {
          "internalType": "address",
          "name": "owner",
          "type": "address"
        }
      ],
      "name": "MustBeSubOwner",
      "type": "error"
    },
    {
      "inputs": [],
      "name": "NoAvailableGroups",
      "type": "error"
    },
    {
      "inputs": [],
      "name": "NoCorrespondingRequest",
      "type": "error"
    },
    {
      "inputs": [],
      "name": "NotFromCommitter",
      "type": "error"
    },
    {
      "inputs": [],
      "name": "PaymentTooLarge",
      "type": "error"
    },
    {
      "inputs": [],
      "name": "Reentrant",
      "type": "error"
    },
    {
      "inputs": [],
      "name": "TaskStillExclusive",
      "type": "error"
    },
    {
      "inputs": [],
      "name": "TaskStillWithinRequestConfirmations",
      "type": "error"
    },
    {
      "inputs": [],
      "name": "TooManyConsumers",
      "type": "error"
    },
    {
      "anonymous": false,
      "inputs": [
        {
          "indexed": false,
          "internalType": "uint16",
          "name": "minimumRequestConfirmations",
          "type": "uint16"
        },
        {
          "indexed": false,
          "internalType": "uint32",
          "name": "maxGasLimit",
          "type": "uint32"
        },
        {
          "indexed": false,
          "internalType": "uint32",
          "name": "stalenessSeconds",
          "type": "uint32"
        },
        {
          "indexed": false,
          "internalType": "uint32",
          "name": "gasAfterPaymentCalculation",
          "type": "uint32"
        },
        {
          "indexed": false,
          "internalType": "uint32",
          "name": "gasExceptCallback",
          "type": "uint32"
        },
        {
          "indexed": false,
          "internalType": "int256",
          "name": "fallbackWeiPerUnitArpa",
          "type": "int256"
        },
        {
          "indexed": false,
          "internalType": "uint256",
          "name": "signatureTaskExclusiveWindow",
          "type": "uint256"
        },
        {
          "indexed": false,
          "internalType": "uint256",
          "name": "rewardPerSignature",
          "type": "uint256"
        },
        {
          "indexed": false,
          "internalType": "uint256",
          "name": "committerRewardPerSignature",
          "type": "uint256"
        },
        {
          "components": [
            {
              "internalType": "uint32",
              "name": "fulfillmentFlatFeeArpaPPMTier1",
              "type": "uint32"
            },
            {
              "internalType": "uint32",
              "name": "fulfillmentFlatFeeArpaPPMTier2",
              "type": "uint32"
            },
            {
              "internalType": "uint32",
              "name": "fulfillmentFlatFeeArpaPPMTier3",
              "type": "uint32"
            },
            {
              "internalType": "uint32",
              "name": "fulfillmentFlatFeeArpaPPMTier4",
              "type": "uint32"
            },
            {
              "internalType": "uint32",
              "name": "fulfillmentFlatFeeArpaPPMTier5",
              "type": "uint32"
            },
            {
              "internalType": "uint24",
              "name": "reqsForTier2",
              "type": "uint24"
            },
            {
              "internalType": "uint24",
              "name": "reqsForTier3",
              "type": "uint24"
            },
            {
              "internalType": "uint24",
              "name": "reqsForTier4",
              "type": "uint24"
            },
            {
              "internalType": "uint24",
              "name": "reqsForTier5",
              "type": "uint24"
            }
          ],
          "indexed": false,
          "internalType": "struct IAdapterOwner.FeeConfig",
          "name": "feeConfig",
          "type": "tuple"
        }
      ],
      "name": "AdapterConfigSet",
      "type": "event"
    },
    {
      "anonymous": false,
      "inputs": [
        {
          "indexed": false,
          "internalType": "address",
          "name": "previousAdmin",
          "type": "address"
        },
        {
          "indexed": false,
          "internalType": "address",
          "name": "newAdmin",
          "type": "address"
        }
      ],
      "name": "AdminChanged",
      "type": "event"
    },
    {
      "anonymous": false,
      "inputs": [
        {
          "indexed": true,
          "internalType": "address",
          "name": "beacon",
          "type": "address"
        }
      ],
      "name": "BeaconUpgraded",
      "type": "event"
    },
    {
      "anonymous": false,
      "inputs": [
        {
          "indexed": false,
          "internalType": "uint8",
          "name": "version",
          "type": "uint8"
        }
      ],
      "name": "Initialized",
      "type": "event"
    },
    {
      "anonymous": false,
      "inputs": [
        {
          "indexed": true,
          "internalType": "address",
          "name": "previousOwner",
          "type": "address"
        },
        {
          "indexed": true,
          "internalType": "address",
          "name": "newOwner",
          "type": "address"
        }
      ],
      "name": "OwnershipTransferred",
      "type": "event"
    },
    {
      "anonymous": false,
      "inputs": [
        {
          "indexed": true,
          "internalType": "bytes32",
          "name": "requestId",
          "type": "bytes32"
        },
        {
          "indexed": true,
          "internalType": "uint64",
          "name": "subId",
          "type": "uint64"
        },
        {
          "indexed": true,
          "internalType": "uint256",
          "name": "groupIndex",
          "type": "uint256"
        },
        {
          "indexed": false,
          "internalType": "enum IRequestTypeBase.RequestType",
          "name": "requestType",
          "type": "uint8"
        },
        {
          "indexed": false,
          "internalType": "bytes",
          "name": "params",
          "type": "bytes"
        },
        {
          "indexed": false,
          "internalType": "address",
          "name": "sender",
          "type": "address"
        },
        {
          "indexed": false,
          "internalType": "uint256",
          "name": "seed",
          "type": "uint256"
        },
        {
          "indexed": false,
          "internalType": "uint16",
          "name": "requestConfirmations",
          "type": "uint16"
        },
        {
          "indexed": false,
          "internalType": "uint256",
          "name": "callbackGasLimit",
          "type": "uint256"
        },
        {
          "indexed": false,
          "internalType": "uint256",
          "name": "callbackMaxGasPrice",
          "type": "uint256"
        },
        {
          "indexed": false,
          "internalType": "uint96",
          "name": "estimatedPayment",
          "type": "uint96"
        }
      ],
      "name": "RandomnessRequest",
      "type": "event"
    },
    {
      "anonymous": false,
      "inputs": [
        {
          "indexed": true,
          "internalType": "bytes32",
          "name": "requestId",
          "type": "bytes32"
        },
        {
          "indexed": true,
          "internalType": "uint256",
          "name": "groupIndex",
          "type": "uint256"
        },
        {
          "indexed": true,
          "internalType": "address",
          "name": "committer",
          "type": "address"
        },
        {
          "indexed": false,
          "internalType": "address[]",
          "name": "participantMembers",
          "type": "address[]"
        },
        {
          "indexed": false,
          "internalType": "uint256",
          "name": "randommness",
          "type": "uint256"
        },
        {
          "indexed": false,
          "internalType": "uint256",
          "name": "payment",
          "type": "uint256"
        },
        {
          "indexed": false,
          "internalType": "bool",
          "name": "success",
          "type": "bool"
        }
      ],
      "name": "RandomnessRequestResult",
      "type": "event"
    },
    {
      "anonymous": false,
      "inputs": [
        {
          "indexed": true,
          "internalType": "uint64",
          "name": "subId",
          "type": "uint64"
        },
        {
          "indexed": false,
          "internalType": "address",
          "name": "consumer",
          "type": "address"
        }
      ],
      "name": "SubscriptionConsumerAdded",
      "type": "event"
    },
    {
      "anonymous": false,
      "inputs": [
        {
          "indexed": true,
          "internalType": "uint64",
          "name": "subId",
          "type": "uint64"
        },
        {
          "indexed": false,
          "internalType": "address",
          "name": "owner",
          "type": "address"
        }
      ],
      "name": "SubscriptionCreated",
      "type": "event"
    },
    {
      "anonymous": false,
      "inputs": [
        {
          "indexed": true,
          "internalType": "uint64",
          "name": "subId",
          "type": "uint64"
        },
        {
          "indexed": false,
          "internalType": "uint256",
          "name": "oldBalance",
          "type": "uint256"
        },
        {
          "indexed": false,
          "internalType": "uint256",
          "name": "newBalance",
          "type": "uint256"
        }
      ],
      "name": "SubscriptionFunded",
      "type": "event"
    },
    {
      "anonymous": false,
      "inputs": [
        {
          "indexed": true,
          "internalType": "address",
          "name": "implementation",
          "type": "address"
        }
      ],
      "name": "Upgraded",
      "type": "event"
    },
    {
      "inputs": [],
      "name": "MAX_CONSUMERS",
      "outputs": [
        {
          "internalType": "uint16",
          "name": "",
          "type": "uint16"
        }
      ],
      "stateMutability": "view",
      "type": "function"
    },
    {
      "inputs": [],
      "name": "MAX_REQUEST_CONFIRMATIONS",
      "outputs": [
        {
          "internalType": "uint16",
          "name": "",
          "type": "uint16"
        }
      ],
      "stateMutability": "view",
      "type": "function"
    },
    {
      "inputs": [
        {
          "internalType": "uint64",
          "name": "subId",
          "type": "uint64"
        },
        {
          "internalType": "address",
          "name": "consumer",
          "type": "address"
        }
      ],
      "name": "addConsumer",
      "outputs": [],
      "stateMutability": "nonpayable",
      "type": "function"
    },
    {
      "inputs": [],
      "name": "createSubscription",
      "outputs": [
        {
          "internalType": "uint64",
          "name": "",
          "type": "uint64"
        }
      ],
      "stateMutability": "nonpayable",
      "type": "function"
    },
    {
      "inputs": [
        {
          "internalType": "uint256",
          "name": "callbackGasLimit",
          "type": "uint256"
        },
        {
          "internalType": "uint256",
          "name": "gasExceptCallback",
          "type": "uint256"
        },
        {
          "internalType": "uint32",
          "name": "fulfillmentFlatFeeArpaPPM",
          "type": "uint32"
        },
        {
          "internalType": "uint256",
          "name": "weiPerUnitGas",
          "type": "uint256"
        }
      ],
      "name": "estimatePaymentAmount",
      "outputs": [
        {
          "internalType": "uint96",
          "name": "",
          "type": "uint96"
        }
      ],
      "stateMutability": "view",
      "type": "function"
    },
    {
      "inputs": [
        {
          "internalType": "uint256",
          "name": "groupIndex",
          "type": "uint256"
        },
        {
          "internalType": "bytes32",
          "name": "requestId",
          "type": "bytes32"
        },
        {
          "internalType": "uint256",
          "name": "signature",
          "type": "uint256"
        },
        {
          "components": [
            {
              "internalType": "uint64",
              "name": "subId",
              "type": "uint64"
            },
            {
              "internalType": "uint256",
              "name": "groupIndex",
              "type": "uint256"
            },
            {
              "internalType": "enum IRequestTypeBase.RequestType",
              "name": "requestType",
              "type": "uint8"
            },
            {
              "internalType": "bytes",
              "name": "params",
              "type": "bytes"
            },
            {
              "internalType": "address",
              "name": "callbackContract",
              "type": "address"
            },
            {
              "internalType": "uint256",
              "name": "seed",
              "type": "uint256"
            },
            {
              "internalType": "uint16",
              "name": "requestConfirmations",
              "type": "uint16"
            },
            {
              "internalType": "uint256",
              "name": "callbackGasLimit",
              "type": "uint256"
            },
            {
              "internalType": "uint256",
              "name": "callbackMaxGasPrice",
              "type": "uint256"
            },
            {
              "internalType": "uint256",
              "name": "blockNum",
              "type": "uint256"
            }
          ],
          "internalType": "struct IAdapter.RequestDetail",
          "name": "requestDetail",
          "type": "tuple"
        },
        {
          "components": [
            {
              "internalType": "uint256",
              "name": "index",
              "type": "uint256"
            },
            {
              "internalType": "uint256",
              "name": "partialSignature",
              "type": "uint256"
            }
          ],
          "internalType": "struct IAdapter.PartialSignature[]",
          "name": "partialSignatures",
          "type": "tuple[]"
        }
      ],
      "name": "fulfillRandomness",
      "outputs": [],
      "stateMutability": "nonpayable",
      "type": "function"
    },
    {
      "inputs": [
        {
          "internalType": "uint64",
          "name": "subId",
          "type": "uint64"
        },
        {
          "internalType": "uint256",
          "name": "amount",
          "type": "uint256"
        }
      ],
      "name": "fundSubscription",
      "outputs": [],
      "stateMutability": "nonpayable",
      "type": "function"
    },
    {
      "inputs": [
        {
          "internalType": "uint64",
          "name": "reqCount",
          "type": "uint64"
        }
      ],
      "name": "getFeeTier",
      "outputs": [
        {
          "internalType": "uint32",
          "name": "",
          "type": "uint32"
        }
      ],
      "stateMutability": "view",
      "type": "function"
    },
    {
      "inputs": [],
      "name": "getLastRandomness",
      "outputs": [
        {
          "internalType": "uint256",
          "name": "",
          "type": "uint256"
        }
      ],
      "stateMutability": "view",
      "type": "function"
    },
    {
      "inputs": [
        {
          "internalType": "address",
          "name": "consumer",
          "type": "address"
        }
      ],
      "name": "getLastSubscription",
      "outputs": [
        {
          "internalType": "uint64",
          "name": "",
          "type": "uint64"
        }
      ],
      "stateMutability": "view",
      "type": "function"
    },
    {
      "inputs": [
        {
          "internalType": "bytes32",
          "name": "requestId",
          "type": "bytes32"
        }
      ],
      "name": "getPendingRequestCommitment",
      "outputs": [
        {
          "internalType": "bytes32",
          "name": "",
          "type": "bytes32"
        }
      ],
      "stateMutability": "view",
      "type": "function"
    },
    {
      "inputs": [],
      "name": "getRandomnessCount",
      "outputs": [
        {
          "internalType": "uint256",
          "name": "",
          "type": "uint256"
        }
      ],
      "stateMutability": "view",
      "type": "function"
    },
    {
      "inputs": [
        {
          "internalType": "uint64",
          "name": "subId",
          "type": "uint64"
        }
      ],
      "name": "getSubscription",
      "outputs": [
        {
          "internalType": "uint96",
          "name": "balance",
          "type": "uint96"
        },
        {
          "internalType": "uint96",
          "name": "inflightCost",
          "type": "uint96"
        },
        {
          "internalType": "uint64",
          "name": "reqCount",
          "type": "uint64"
        },
        {
          "internalType": "address",
          "name": "owner",
          "type": "address"
        },
        {
          "internalType": "address[]",
          "name": "consumers",
          "type": "address[]"
        }
      ],
      "stateMutability": "view",
      "type": "function"
    },
    {
      "inputs": [
        {
          "internalType": "address",
          "name": "controller",
          "type": "address"
        },
        {
          "internalType": "address",
          "name": "arpa",
          "type": "address"
        },
        {
          "internalType": "address",
          "name": "arpaEthFeed",
          "type": "address"
        }
      ],
      "name": "initialize",
      "outputs": [],
      "stateMutability": "nonpayable",
      "type": "function"
    },
    {
      "inputs": [],
      "name": "owner",
      "outputs": [
        {
          "internalType": "address",
          "name": "",
          "type": "address"
        }
      ],
      "stateMutability": "view",
      "type": "function"
    },
    {
      "inputs": [],
      "name": "proxiableUUID",
      "outputs": [
        {
          "internalType": "bytes32",
          "name": "",
          "type": "bytes32"
        }
      ],
      "stateMutability": "view",
      "type": "function"
    },
    {
      "inputs": [],
      "name": "renounceOwnership",
      "outputs": [],
      "stateMutability": "nonpayable",
      "type": "function"
    },
    {
      "inputs": [
        {
          "components": [
            {
              "internalType": "enum IRequestTypeBase.RequestType",
              "name": "requestType",
              "type": "uint8"
            },
            {
              "internalType": "bytes",
              "name": "params",
              "type": "bytes"
            },
            {
              "internalType": "uint64",
              "name": "subId",
              "type": "uint64"
            },
            {
              "internalType": "uint256",
              "name": "seed",
              "type": "uint256"
            },
            {
              "internalType": "uint16",
              "name": "requestConfirmations",
              "type": "uint16"
            },
            {
              "internalType": "uint256",
              "name": "callbackGasLimit",
              "type": "uint256"
            },
            {
              "internalType": "uint256",
              "name": "callbackMaxGasPrice",
              "type": "uint256"
            }
          ],
          "internalType": "struct IAdapter.RandomnessRequestParams",
          "name": "p",
          "type": "tuple"
        }
      ],
      "name": "requestRandomness",
      "outputs": [
        {
          "internalType": "bytes32",
          "name": "",
          "type": "bytes32"
        }
      ],
      "stateMutability": "nonpayable",
      "type": "function"
    },
    {
      "inputs": [
        {
          "internalType": "uint16",
          "name": "minimumRequestConfirmations",
          "type": "uint16"
        },
        {
          "internalType": "uint32",
          "name": "maxGasLimit",
          "type": "uint32"
        },
        {
          "internalType": "uint32",
          "name": "stalenessSeconds",
          "type": "uint32"
        },
        {
          "internalType": "uint32",
          "name": "gasAfterPaymentCalculation",
          "type": "uint32"
        },
        {
          "internalType": "uint32",
          "name": "gasExceptCallback",
          "type": "uint32"
        },
        {
          "internalType": "int256",
          "name": "fallbackWeiPerUnitArpa",
          "type": "int256"
        },
        {
          "internalType": "uint256",
          "name": "signatureTaskExclusiveWindow",
          "type": "uint256"
        },
        {
          "internalType": "uint256",
          "name": "rewardPerSignature",
          "type": "uint256"
        },
        {
          "internalType": "uint256",
          "name": "committerRewardPerSignature",
          "type": "uint256"
        },
        {
          "components": [
            {
              "internalType": "uint32",
              "name": "fulfillmentFlatFeeArpaPPMTier1",
              "type": "uint32"
            },
            {
              "internalType": "uint32",
              "name": "fulfillmentFlatFeeArpaPPMTier2",
              "type": "uint32"
            },
            {
              "internalType": "uint32",
              "name": "fulfillmentFlatFeeArpaPPMTier3",
              "type": "uint32"
            },
            {
              "internalType": "uint32",
              "name": "fulfillmentFlatFeeArpaPPMTier4",
              "type": "uint32"
            },
            {
              "internalType": "uint32",
              "name": "fulfillmentFlatFeeArpaPPMTier5",
              "type": "uint32"
            },
            {
              "internalType": "uint24",
              "name": "reqsForTier2",
              "type": "uint24"
            },
            {
              "internalType": "uint24",
              "name": "reqsForTier3",
              "type": "uint24"
            },
            {
              "internalType": "uint24",
              "name": "reqsForTier4",
              "type": "uint24"
            },
            {
              "internalType": "uint24",
              "name": "reqsForTier5",
              "type": "uint24"
            }
          ],
          "internalType": "struct IAdapterOwner.FeeConfig",
          "name": "feeConfig",
          "type": "tuple"
        }
      ],
      "name": "setAdapterConfig",
      "outputs": [],
      "stateMutability": "nonpayable",
      "type": "function"
    },
    {
      "inputs": [
        {
          "internalType": "address",
          "name": "newOwner",
          "type": "address"
        }
      ],
      "name": "transferOwnership",
      "outputs": [],
      "stateMutability": "nonpayable",
      "type": "function"
    },
    {
      "inputs": [
        {
          "internalType": "address",
          "name": "newImplementation",
          "type": "address"
        }
      ],
      "name": "upgradeTo",
      "outputs": [],
      "stateMutability": "nonpayable",
      "type": "function"
    },
    {
      "inputs": [
        {
          "internalType": "address",
          "name": "newImplementation",
          "type": "address"
        },
        {
          "internalType": "bytes",
          "name": "data",
          "type": "bytes"
        }
      ],
      "name": "upgradeToAndCall",
      "outputs": [],
      "stateMutability": "payable",
      "type": "function"
    }
  ],
  "bytecode": {
    "object": "0x60a06040523060805234801561001457600080fd5b50608051614ab261004c600039600081816107f101528181610831015281816108d00152818161091001526109a30152614ab26000f3fe6080604052600436106101355760003560e01c806380a13ee9116100ab578063c0c53b8b1161006f578063c0c53b8b14610368578063cc36c1e814610388578063d2f9f9a7146103c0578063dd281928146103f5578063f2fde38b14610415578063fb0882fc1461043557600080fd5b806380a13ee9146102c55780638da5cb5b146102e5578063a21a23e41461030d578063a47c769614610322578063a4c343f21461035357600080fd5b806352d1902d116100fd57806352d1902d146101f7578063636021741461020c57806364d51a2a14610221578063715018a6146102365780637341c10c1461024b57806376a911bc1461026b57600080fd5b80630f8d22791461013a5780631565034c1461015c57806315c48b841461019c5780633659cfe6146101c45780634f1ef286146101e4575b600080fd5b34801561014657600080fd5b5061015a61015536600461366d565b610455565b005b34801561016857600080fd5b506101896101773660046137c7565b600090815260d6602052604090205490565b6040519081526020015b60405180910390f35b3480156101a857600080fd5b506101b160c881565b60405161ffff9091168152602001610193565b3480156101d057600080fd5b5061015a6101df366004613800565b6107e7565b61015a6101f236600461388c565b6108c6565b34801561020357600080fd5b50610189610996565b34801561021857600080fd5b5060ce54610189565b34801561022d57600080fd5b506101b1606481565b34801561024257600080fd5b5061015a610a49565b34801561025757600080fd5b5061015a6102663660046138f2565b610a5d565b34801561027757600080fd5b506102ad610286366004613800565b6001600160a01b0316600090815260d760205260409020600101546001600160401b031690565b6040516001600160401b039091168152602001610193565b3480156102d157600080fd5b5061015a6102e0366004613929565b610c20565b3480156102f157600080fd5b506097546040516001600160a01b039091168152602001610193565b34801561031957600080fd5b506102ad611293565b34801561032e57600080fd5b5061034261033d3660046139e7565b61136c565b604051610193959493929190613a46565b34801561035f57600080fd5b5060cd54610189565b34801561037457600080fd5b5061015a610383366004613a90565b611471565b34801561039457600080fd5b506103a86103a3366004613adb565b6115c1565b6040516001600160601b039091168152602001610193565b3480156103cc57600080fd5b506103e06103db3660046139e7565b611658565b60405163ffffffff9091168152602001610193565b34801561040157600080fd5b5061015a610410366004613b1a565b6117d5565b34801561042157600080fd5b5061015a610430366004613800565b61190b565b34801561044157600080fd5b50610189610450366004613b53565b611981565b61045d611d8b565b60c861ffff8b16111561049c5760405163539c34bb60e11b815261ffff8b1660048201819052602482015260c860448201526064015b60405180910390fd5b600085136104c0576040516309d2037f60e01b815260048101869052602401610493565b6040518061014001604052808b61ffff1681526020018a63ffffffff1681526020016000151581526020018681526020018963ffffffff1681526020018863ffffffff1681526020018763ffffffff1681526020018581526020018481526020018381525060cf60008201518160000160006101000a81548161ffff021916908361ffff16021790555060208201518160000160026101000a81548163ffffffff021916908363ffffffff16021790555060408201518160000160066101000a81548160ff0219169083151502179055506060820151816001015560808201518160020160006101000a81548163ffffffff021916908363ffffffff16021790555060a08201518160020160046101000a81548163ffffffff021916908363ffffffff16021790555060c08201518160020160086101000a81548163ffffffff021916908363ffffffff16021790555060e08201518160030155610100820151816004015561012082015181600501559050508060d560008201518160000160006101000a81548163ffffffff021916908363ffffffff16021790555060208201518160000160046101000a81548163ffffffff021916908363ffffffff16021790555060408201518160000160086101000a81548163ffffffff021916908363ffffffff160217905550606082015181600001600c6101000a81548163ffffffff021916908363ffffffff16021790555060808201518160000160106101000a81548163ffffffff021916908363ffffffff16021790555060a08201518160000160146101000a81548162ffffff021916908362ffffff16021790555060c08201518160000160176101000a81548162ffffff021916908362ffffff16021790555060e082015181600001601a6101000a81548162ffffff021916908362ffffff16021790555061010082015181600001601d6101000a81548162ffffff021916908362ffffff1602179055509050507fd0b13daf7583541073d4924096b201ccca6cdd72c0d10c63ce4067310691a68d8a8a8a8a8a8a8a8a8a60d56040516107d39a99989796959493929190613c13565b60405180910390a150505050505050505050565b6001600160a01b037f000000000000000000000000000000000000000000000000000000000000000016300361082f5760405162461bcd60e51b815260040161049390613d1e565b7f00000000000000000000000000000000000000000000000000000000000000006001600160a01b0316610878600080516020614a36833981519152546001600160a01b031690565b6001600160a01b03161461089e5760405162461bcd60e51b815260040161049390613d6a565b6108a781611de5565b604080516000808252602082019092526108c391839190611ded565b50565b6001600160a01b037f000000000000000000000000000000000000000000000000000000000000000016300361090e5760405162461bcd60e51b815260040161049390613d1e565b7f00000000000000000000000000000000000000000000000000000000000000006001600160a01b0316610957600080516020614a36833981519152546001600160a01b031690565b6001600160a01b03161461097d5760405162461bcd60e51b815260040161049390613d6a565b61098682611de5565b61099282826001611ded565b5050565b6000306001600160a01b037f00000000000000000000000000000000000000000000000000000000000000001614610a365760405162461bcd60e51b815260206004820152603860248201527f555550535570677261646561626c653a206d757374206e6f742062652063616c60448201527f6c6564207468726f7567682064656c656761746563616c6c00000000000000006064820152608401610493565b50600080516020614a3683398151915290565b610a51611d8b565b610a5b6000611f5d565b565b6001600160401b038216600090815260d8602052604090205482906001600160a01b031680610a9f57604051630fb532db60e11b815260040160405180910390fd5b336001600160a01b03821614610ad357604051636c51fda960e11b81526001600160a01b0382166004820152602401610493565b60cf54600160301b900460ff1615610afe5760405163769dd35360e11b815260040160405180910390fd5b6001600160401b038416600090815260d8602052604090206002015460631901610b3b576040516305a48e0f60e01b815260040160405180910390fd5b6001600160a01b038316600090815260d7602090815260408083206001600160401b0380891685529252822054169003610c1a576001600160a01b038316600081815260d7602090815260408083206001600160401b0389168085528184528285208054600167ffffffffffffffff1991821681179092559281018054909316821790925560d88452828520600201805492830181558552938390200180546001600160a01b031916851790555192835290917f43dc749a04ac8fb825cbd514f7c0e13f13bc6f2ee66043b76629d51776cff8e0910160405180910390a25b50505050565b60cf54600160301b900460ff1615610c4b5760405163769dd35360e11b815260040160405180910390fd5b60005a600087815260d66020526040812054919250819003610c8057604051631b44092560e11b815260040160405180910390fd5b86610c8e60208701876139e7565b6020870135610ca36060890160408a01613db6565b610cb060608a018a613dd1565b610cc060a08c0160808d01613800565b60a08c0135610cd560e08e0160c08f01613e1e565b8d60e001358e61010001358f6101200135604051602001610d019c9b9a99989796959493929190613e71565b604051602081830303815290604052805190602001208114610d365760405163354a450b60e21b815260040160405180910390fd5b610d4660e0860160c08701613e1e565b610d599061ffff16610120870135613f26565b431015610d795760405163619a4abd60e01b815260040160405180910390fd5b84602001358814158015610d9e575060d254610d9a90610120870135613f26565b4311155b15610dbc576040516378373bbd60e11b815260040160405180910390fd5b60cb60009054906101000a90046001600160a01b03166001600160a01b03166306545a936040518163ffffffff1660e01b8152600401602060405180830381865afa158015610e0f573d6000803e3d6000fd5b505050506040513d601f19601f82011682018060405250810190610e339190613f39565b8810610e5557604051637f6efcb560e11b815260048101899052602401610493565b6000610ebf898760a001358861012001358a8989808060200260200160405190810160405280939291908181526020016000905b82821015610eb557610ea660408302860136819003810190613f52565b81526020019060010190610e89565b5050505050611faf565b600089815260d66020908152604080832083905580518083018c9052815180820384018152908201909152805191012060ce8054939450909260019290610f07908490613f26565b909155505060cd81905560cb546040516379ef840160e11b8152600481018390526001600160a01b039091169063f3df080290602401600060405180830381600087803b158015610f5757600080fd5b505af1158015610f6b573d6000803e3d6000fd5b505050506000610f858a838a610f8090613f84565b61269a565b9050600060d881610f9960208c018c6139e7565b6001600160401b0390811682526020808301939093526040909101600090812060050154909116925060019160d89190610fd5908d018d6139e7565b6001600160401b039081168252602082019290925260400160009081206005018054909261100591859116614043565b92506101000a8154816001600160401b0302191690836001600160401b03160217905550600061105a8760cf60020160049054906101000a900463ffffffff1663ffffffff1661105485611658565b3a61292f565b90506001600160601b03811660d8600061107760208e018e6139e7565b6001600160401b031681526020810191909152604001600020600301546001600160601b031610156110bc5760405163964d765f60e01b815260040160405180910390fd5b60d860006110cd60208d018d6139e7565b6001600160401b03168152602080820192909252604090810160009081208f82526004018352908120546001600160601b03169160d89190611111908e018e6139e7565b6001600160401b0316815260208101919091526040016000206003018054600c9061114d908490600160601b90046001600160601b031661406a565b92506101000a8154816001600160601b0302191690836001600160601b0316021790555060d860008b600001602081019061118891906139e7565b6001600160401b03168152602080820192909252604090810160009081208f8252600401835290812080546bffffffffffffffffffffffff19169055829160d891906111d6908e018e6139e7565b6001600160401b0316815260208101919091526040016000908120600301805490919061120d9084906001600160601b031661406a565b92506101000a8154816001600160601b0302191690836001600160601b0316021790555061123b85826129f9565b336001600160a01b03168d8d7f3906e08a201a4e2adcb0eb0dd26aff575c3b843a406b07919612f6acc070350f8888868960405161127c949392919061408a565b60405180910390a450505050505050505050505050565b60cf54600090600160301b900460ff16156112c15760405163769dd35360e11b815260040160405180910390fd5b60d980546001600160401b03169060006112da836140c4565b82546101009290920a6001600160401b0381810219909316918316021790915560d980548216600090815260d860209081526040918290208054336001600160a01b0319909116811790915592549151928352921692507f464722b4166576d3dcbba877b999bc35cf911f4eaf434b7eba68fa113951d0bf910160405180910390a25060d9546001600160401b031690565b6001600160401b038116600090815260d860205260408120548190819081906060906001600160a01b03166113b457604051630fb532db60e11b815260040160405180910390fd5b6001600160401b03808716600090815260d86020908152604091829020600381015460058201548254600290930180548651818702810187019097528087526001600160601b0380851698600160601b909504169692909316946001600160a01b03909416939092839183018282801561145757602002820191906000526020600020905b81546001600160a01b03168152600190910190602001808311611439575b505050505090509450945094509450945091939590929450565b600054610100900460ff16158080156114915750600054600160ff909116105b806114ab5750303b1580156114ab575060005460ff166001145b61150e5760405162461bcd60e51b815260206004820152602e60248201527f496e697469616c697a61626c653a20636f6e747261637420697320616c72656160448201526d191e481a5b9a5d1a585b1a5e995960921b6064820152608401610493565b6000805460ff191660011790558015611531576000805461ff0019166101001790555b60cb80546001600160a01b038087166001600160a01b03199283161790925560c9805486841690831617905560ca805492851692909116919091179055611576612b30565b8015610c1a576000805461ff0019169055604051600181527f7f26b83ff96e1f2b6a682f133852f6798a09c465da95921460cefb38474024989060200160405180910390a150505050565b6000806115cc612b5f565b9050600081136115f2576040516309d2037f60e01b815260048101829052602401610493565b6000816115ff8888613f26565b61161186670de0b6b3a76400006140ea565b61161b91906140ea565b6116259190614117565b9050600061163e63ffffffff871664e8d4a510006140ea565b905061164a8183613f26565b93505050505b949350505050565b604080516101208101825260d55463ffffffff8082168352640100000000820481166020840152600160401b8204811693830193909352600160601b810483166060830152600160801b8104909216608082015262ffffff600160a01b8304811660a08301819052600160b81b8404821660c0840152600160d01b8404821660e0840152600160e81b909304166101008201526000916001600160401b03841611611704575192915050565b826001600160401b03168160a0015162ffffff1610801561173757508060c0015162ffffff16836001600160401b031611155b15611746576020015192915050565b826001600160401b03168160c0015162ffffff1610801561177957508060e0015162ffffff16836001600160401b031611155b15611788576040015192915050565b826001600160401b03168160e0015162ffffff161080156117bc575080610100015162ffffff16836001600160401b031611155b156117cb576060015192915050565b6080015192915050565b60cf54600160301b900460ff16156118005760405163769dd35360e11b815260040160405180910390fd5b6001600160401b038216600090815260d860205260409020546001600160a01b031661183f57604051630fb532db60e11b815260040160405180910390fd5b60cb5460c95461185e916001600160a01b039182169133911684612c14565b6001600160401b038216600090815260d86020526040812060030180546001600160601b031691839190611892838561412b565b92506101000a8154816001600160601b0302191690836001600160601b03160217905550826001600160401b03167fd39ec07f4e209f627a4c427971473820dc129761ba28de8906bd56f57101d4f88284846118ee9190613f26565b6040805192835260208301919091520160405180910390a2505050565b611913611d8b565b6001600160a01b0381166119785760405162461bcd60e51b815260206004820152602660248201527f4f776e61626c653a206e6577206f776e657220697320746865207a65726f206160448201526564647265737360d01b6064820152608401610493565b6108c381611f5d565b60cf54600090600160301b900460ff16156119af5760405163769dd35360e11b815260040160405180910390fd5b3233036119cf57604051638a3150e760e01b815260040160405180910390fd5b6040808301516001600160401b0316600090815260d860205220546001600160a01b0316611a1057604051630fb532db60e11b815260040160405180910390fd5b33600090815260d760209081526040808320858201516001600160401b0390811685529252822054169003611a6f576040808301519051637800cff360e11b81526001600160401b039091166004820152336024820152604401610493565b6000611a79612c6e565b60cc81905560608481015133600081815260d760208181526040808420818c0180516001600160401b0390811687528285528387205484518087019a909a528985018990528116898b01528351808a03909a018a526080909801835288519884019890982095855292825295518516835252928320805494955090936001939192611b0691859116614043565b92506101000a8154816001600160401b0302191690836001600160401b031602179055506000611b3582612dd1565b60a086015160d1546040808901516001600160401b03908116600090815260d8602052918220600501549495509093611b919392600160401b900463ffffffff1691611b87916103db91166001614043565b8960c001516115c1565b604080880180516001600160401b03908116600090815260d86020528381206003908101549351909216815292909220909101549192506001600160601b0380841692611be892600160601b90048216911661406a565b6001600160601b03161015611c105760405163444a5eaf60e11b815260040160405180910390fd5b6040868101516001600160401b0316600090815260d8602052206003018054829190600c90611c50908490600160601b90046001600160601b031661412b565b82546101009290920a6001600160601b03818102199093169183160217909155604088810180516001600160401b0316600090815260d8602090815283822088835260040181529083902080546bffffffffffffffffffffffff191694871694909417909355518951838b015160808c015160a08d015160c08e01519551611cea98508a9795968d9633948e94909390929143910161419b565b6040516020818303038152906040528051906020012060d66000848152602001908152602001600020819055508386604001516001600160401b0316837f036a62c41f2563a94bf5c38878fc4c796f2eff1c0869997e87541a2d37da50d189600001518a6020015133898d608001518e60a001518f60c001518b604051611d7898979695949392919061421d565b60405180910390a450925050505b919050565b6097546001600160a01b03163314610a5b5760405162461bcd60e51b815260206004820181905260248201527f4f776e61626c653a2063616c6c6572206973206e6f7420746865206f776e65726044820152606401610493565b6108c3611d8b565b7f4910fdfa16fed3260ed0e7147f7cc6da11a60208b5b9406d12a635614ffd91435460ff1615611e2557611e2083612e03565b505050565b826001600160a01b03166352d1902d6040518163ffffffff1660e01b8152600401602060405180830381865afa925050508015611e7f575060408051601f3d908101601f19168201909252611e7c91810190613f39565b60015b611ee25760405162461bcd60e51b815260206004820152602e60248201527f45524331393637557067726164653a206e657720696d706c656d656e7461746960448201526d6f6e206973206e6f74205555505360901b6064820152608401610493565b600080516020614a368339815191528114611f515760405162461bcd60e51b815260206004820152602960248201527f45524331393637557067726164653a20756e737570706f727465642070726f786044820152681a58589b195555525160ba1b6064820152608401610493565b50611e20838383612e9f565b609780546001600160a01b038381166001600160a01b0319831681179093556040519116919082907f8be0079c531659141344cd1fd0a4f28419497f9722a3daafe3b4186f6b6457e090600090a35050565b60405162f577a560e81b81526004810183905260609073__$34d23ddaee48904c6c566425acbfa0fc0e$__9063f577a50090602401602060405180830381865af4158015612001573d6000803e3d6000fd5b505050506040513d601f19601f820116820180604052508101906120259190614297565b61204257604051638529df1f60e01b815260040160405180910390fd5b815160000361206457604051638bdcc37560e01b815260040160405180910390fd5b60cb546040516333ad819560e21b8152600481018890526000916001600160a01b03169063ceb6065490602401600060405180830381865afa1580156120ae573d6000803e3d6000fd5b505050506040513d6000823e601f3d908101601f191682016040526120d69190810190614575565b90506120e68160a0015133612ec4565b6121035760405163d9ce719d60e01b815260040160405180910390fd5b60408051602081018890528082018790528151808203830181526060820192839052633033cc5160e01b90925260009073__$34d23ddaee48904c6c566425acbfa0fc0e$__90633033cc519061215d90859060640161467a565b6040805180830381865af4158015612179573d6000803e3d6000fd5b505050506040513d601f19601f8201168201806040525081019061219d919061468d565b905073__$34d23ddaee48904c6c566425acbfa0fc0e$__63ebbdac9173__$34d23ddaee48904c6c566425acbfa0fc0e$__6313bc64ee896040518263ffffffff1660e01b81526004016121f291815260200190565b6040805180830381865af415801561220e573d6000803e3d6000fd5b505050506040513d601f19601f82011682018060405250810190612232919061468d565b856101000151846040518463ffffffff1660e01b815260040161225793929190614733565b602060405180830381865af4158015612274573d6000803e3d6000fd5b505050506040513d601f19601f820116820180604052508101906122989190614297565b6122b557604051638baa579f60e01b815260040160405180910390fd5b600085516001600160401b038111156122d0576122d0613562565b60405190808252806020026020018201604052801561230957816020015b6122f66134f7565b8152602001906001900390816122ee5790505b509050600086516001600160401b0381111561232757612327613562565b60405190808252806020026020018201604052801561236057816020015b61234d613515565b8152602001906001900390816123455790505b50905086516001600160401b0381111561237c5761237c613562565b6040519080825280602002602001820160405280156123a5578160200160208202803683370190505b50955060005b87518110156125f25773__$34d23ddaee48904c6c566425acbfa0fc0e$__63f577a5008983815181106123e0576123e061475c565b6020026020010151602001516040518263ffffffff1660e01b815260040161240a91815260200190565b602060405180830381865af4158015612427573d6000803e3d6000fd5b505050506040513d601f19601f8201168201806040525081019061244b9190614297565b61246857604051636b849b7d60e11b815260040160405180910390fd5b73__$34d23ddaee48904c6c566425acbfa0fc0e$__6313bc64ee8983815181106124945761249461475c565b6020026020010151602001516040518263ffffffff1660e01b81526004016124be91815260200190565b6040805180830381865af41580156124da573d6000803e3d6000fd5b505050506040513d601f19601f820116820180604052508101906124fe919061468d565b8382815181106125105761251061475c565b602002602001018190525085608001518882815181106125325761253261475c565b6020026020010151600001518151811061254e5761254e61475c565b60200260200101516020015182828151811061256c5761256c61475c565b6020026020010181905250856080015188828151811061258e5761258e61475c565b602002602001015160000151815181106125aa576125aa61475c565b6020026020010151600001518782815181106125c8576125c861475c565b6001600160a01b0390921660209283029190910190910152806125ea81614772565b9150506123ab565b50604051630d6870d760e21b815273__$34d23ddaee48904c6c566425acbfa0fc0e$__906335a1c35c9061262e9085908590889060040161478b565b602060405180830381865af415801561264b573d6000803e3d6000fd5b505050506040513d601f19601f8201168201806040525081019061266f9190614297565b61268c57604051639c2d1c6d60e01b815260040160405180910390fd5b505050505095945050505050565b600080606081846040015160028111156126b6576126b6613e39565b036127005750604080516024810187905260448082018790528251808303909101815260649091019091526020810180516001600160e01b03166394985ddd60e01b1790526128ea565b60018460400151600281111561271857612718613e39565b0361284b57600084606001518060200190518101906127379190614821565b905060008163ffffffff166001600160401b0381111561275957612759613562565b604051908082528060200260200182016040528015612782578160200160208202803683370190505b50905060005b8263ffffffff168110156127f25760408051602081018a90529081018290526060016040516020818303038152906040528051906020012060001c8282815181106127d5576127d561475c565b6020908102919091010152806127ea81614772565b915050612788565b506040516375bf929b60e01b9061280f908a90849060240161483e565b60408051601f198184030181529190526020810180516001600160e01b03166001600160e01b03199093169290921790915292506128ea915050565b60028460400151600281111561286357612863613e39565b036128ea57600084606001518060200190518101906128829190614821565b905060006128968263ffffffff1688612f2b565b9050639e5836f660e01b88826040516024016128b392919061483e565b60408051601f198184030181529190526020810180516001600160e01b03166001600160e01b031990931692909217909152925050505b60cf805466ff0000000000001916600160301b17905560e08401516080850151612915919083613086565b60cf805466ff000000000000191690559695505050505050565b60008061293a612b5f565b905060008113612960576040516309d2037f60e01b815260048101829052602401610493565b6000815a61296e8989613f26565b612978919061487f565b61298a86670de0b6b3a76400006140ea565b61299491906140ea565b61299e9190614117565b905060006129b763ffffffff871664e8d4a510006140ea565b90506129cf816b04d8c55aefb8c05b5c00000061487f565b8211156129ef5760405163e80fa38160e01b815260040160405180910390fd5b61164a8183613f26565b604080516001808252818301909252600091602080830190803683370190505090503381600081518110612a2f57612a2f61475c565b6001600160a01b03928316602091820292909201015260cb5460d454604051630316977160e61b8152919092169163c5a5dc4091612a71918591600401614892565b600060405180830381600087803b158015612a8b57600080fd5b505af1158015612a9f573d6000803e3d6000fd5b505060cb5485516001600160a01b03909116925063c5a5dc4091508590612acf906001600160601b038716614117565b60d354612adc9190613f26565b6040518363ffffffff1660e01b8152600401612af9929190614892565b600060405180830381600087803b158015612b1357600080fd5b505af1158015612b27573d6000803e3d6000fd5b50505050505050565b600054610100900460ff16612b575760405162461bcd60e51b8152600401610493906148b4565b610a5b6130d2565b60d15460ca5460408051633fabe5a360e21b8152905160009363ffffffff169283151592859283926001600160a01b03169163feaf968c9160048083019260a09291908290030181865afa158015612bbb573d6000803e3d6000fd5b505050506040513d601f19601f82011682018060405250810190612bdf9190614919565b509450909250849150508015612c035750612bfa824261487f565b8463ffffffff16105b15611650575060d054949350505050565b604080516001600160a01b0385811660248301528416604482015260648082018490528251808303909101815260849091019091526020810180516001600160e01b03166323b872dd60e01b179052610c1a908590613102565b60008060cb60009054906101000a90046001600160a01b03166001600160a01b031663b330a0fd6040518163ffffffff1660e01b8152600401600060405180830381865afa158015612cc4573d6000803e3d6000fd5b505050506040513d6000823e601f3d908101601f19168201604052612cec9190810190614969565b90508051600003612d1057604051636905ab6760e01b815260040160405180910390fd5b60cb54604080516306545a9360e01b815290516000926001600160a01b0316916306545a939160048083019260209291908290030181865afa158015612d5a573d6000803e3d6000fd5b505050506040513d601f19601f82011682018060405250810190612d7e9190613f39565b905060008160cc546001612d929190613f26565b612d9c91906149ee565b90505b612da983826131d4565b612dca5781612db9826001613f26565b612dc391906149ee565b9050612d9f565b9392505050565b600081604051602001612de691815260200190565b604051602081830303815290604052805190602001209050919050565b6001600160a01b0381163b612e705760405162461bcd60e51b815260206004820152602d60248201527f455243313936373a206e657720696d706c656d656e746174696f6e206973206e60448201526c1bdd08184818dbdb9d1c9858dd609a1b6064820152608401610493565b600080516020614a3683398151915280546001600160a01b0319166001600160a01b0392909216919091179055565b612ea88361321d565b600082511180612eb55750805b15611e2057610c1a838361325d565b6000805b8351811015612f1f57826001600160a01b0316848281518110612eed57612eed61475c565b60200260200101516001600160a01b031603612f0d576001915050612f25565b80612f1781614772565b915050612ec8565b50600090505b92915050565b60606000836001600160401b03811115612f4757612f47613562565b604051908082528060200260200182016040528015612f70578160200160208202803683370190505b50905060005b84811015612fae5780828281518110612f9157612f9161475c565b602090810291909101015280612fa681614772565b915050612f76565b5080516000805b6000612fc084614a02565b935083111561307b57612fd383876149ee565b915085604051602001612fe891815260200190565b6040516020818303038152906040528051906020012060001c95508383815181106130155761301561475c565b602002602001015190508382815181106130315761303161475c565b602002602001015184848151811061304b5761304b61475c565b6020026020010181815250508084838151811061306a5761306a61475c565b602002602001018181525050612fb5565b509195945050505050565b60005a61138881101561309857600080fd5b6113888103905084604082048203116130b057600080fd5b50823b6130bc57600080fd5b60008083516020850160008789f1949350505050565b600054610100900460ff166130f95760405162461bcd60e51b8152600401610493906148b4565b610a5b33611f5d565b6000613157826040518060400160405280602081526020017f5361666545524332303a206c6f772d6c6576656c2063616c6c206661696c6564815250856001600160a01b03166133519092919063ffffffff16565b805190915015611e2057808060200190518101906131759190614297565b611e205760405162461bcd60e51b815260206004820152602a60248201527f5361666545524332303a204552433230206f7065726174696f6e20646964206e6044820152691bdd081cdd58d8d9595960b21b6064820152608401610493565b6000805b8351811015612f1f57828482815181106131f4576131f461475c565b60200260200101510361320b576001915050612f25565b8061321581614772565b9150506131d8565b61322681612e03565b6040516001600160a01b038216907fbc7cd75a20ee27fd9adebab32041f755214dbc6bffa90cc0225b39da2e5c2d3b90600090a250565b60606001600160a01b0383163b6132c55760405162461bcd60e51b815260206004820152602660248201527f416464726573733a2064656c65676174652063616c6c20746f206e6f6e2d636f6044820152651b9d1c9858dd60d21b6064820152608401610493565b600080846001600160a01b0316846040516132e09190614a19565b600060405180830381855af49150503d806000811461331b576040519150601f19603f3d011682016040523d82523d6000602084013e613320565b606091505b50915091506133488282604051806060016040528060278152602001614a5660279139613360565b95945050505050565b60606116508484600085613379565b6060831561336f575081612dca565b612dca8383613454565b6060824710156133da5760405162461bcd60e51b815260206004820152602660248201527f416464726573733a20696e73756666696369656e742062616c616e636520666f6044820152651c8818d85b1b60d21b6064820152608401610493565b600080866001600160a01b031685876040516133f69190614a19565b60006040518083038185875af1925050503d8060008114613433576040519150601f19603f3d011682016040523d82523d6000602084013e613438565b606091505b50915091506134498783838761347e565b979650505050505050565b8151156134645781518083602001fd5b8060405162461bcd60e51b8152600401610493919061467a565b606083156134ed5782516000036134e6576001600160a01b0385163b6134e65760405162461bcd60e51b815260206004820152601d60248201527f416464726573733a2063616c6c20746f206e6f6e2d636f6e74726163740000006044820152606401610493565b5081611650565b6116508383613454565b60405180604001604052806002906020820280368337509192915050565b60405180608001604052806004906020820280368337509192915050565b803561ffff81168114611d8657600080fd5b63ffffffff811681146108c357600080fd5b8035611d8681613545565b634e487b7160e01b600052604160045260246000fd5b60405161012081016001600160401b038111828210171561359b5761359b613562565b60405290565b60405160e081016001600160401b038111828210171561359b5761359b613562565b604080519081016001600160401b038111828210171561359b5761359b613562565b60405161014081016001600160401b038111828210171561359b5761359b613562565b604051606081016001600160401b038111828210171561359b5761359b613562565b604051601f8201601f191681016001600160401b038111828210171561365257613652613562565b604052919050565b803562ffffff81168114611d8657600080fd5b6000806000806000806000806000808a8c0361024081121561368e57600080fd5b6136978c613533565b9a5060208c01356136a781613545565b995060408c01356136b781613545565b985060608c01356136c781613545565b975060808c01356136d781613545565b965060a08c0135955060c08c0135945060e08c01359350610100808d0135935061012061011f19830181131561370c57600080fd5b613714613578565b9250613721818f01613557565b8352506137316101408e01613557565b60208301526137436101608e01613557565b60408301526137556101808e01613557565b60608301526137676101a08e01613557565b60808301526137796101c08e0161365a565b60a083015261378b6101e08e0161365a565b60c083015261379d6102008e0161365a565b60e08301526137af6102208e0161365a565b8183015250809150509295989b9194979a5092959850565b6000602082840312156137d957600080fd5b5035919050565b6001600160a01b03811681146108c357600080fd5b8035611d86816137e0565b60006020828403121561381257600080fd5b8135612dca816137e0565b600082601f83011261382e57600080fd5b81356001600160401b0381111561384757613847613562565b61385a601f8201601f191660200161362a565b81815284602083860101111561386f57600080fd5b816020850160208301376000918101602001919091529392505050565b6000806040838503121561389f57600080fd5b82356138aa816137e0565b915060208301356001600160401b038111156138c557600080fd5b6138d18582860161381d565b9150509250929050565b80356001600160401b0381168114611d8657600080fd5b6000806040838503121561390557600080fd5b61390e836138db565b9150602083013561391e816137e0565b809150509250929050565b60008060008060008060a0878903121561394257600080fd5b86359550602087013594506040870135935060608701356001600160401b038082111561396e57600080fd5b90880190610140828b03121561398357600080fd5b9093506080880135908082111561399957600080fd5b818901915089601f8301126139ad57600080fd5b8135818111156139bc57600080fd5b8a60208260061b85010111156139d157600080fd5b6020830194508093505050509295509295509295565b6000602082840312156139f957600080fd5b612dca826138db565b600081518084526020808501945080840160005b83811015613a3b5781516001600160a01b031687529582019590820190600101613a16565b509495945050505050565b6001600160601b038681168252851660208201526001600160401b03841660408201526001600160a01b038316606082015260a06080820181905260009061344990830184613a02565b600080600060608486031215613aa557600080fd5b8335613ab0816137e0565b92506020840135613ac0816137e0565b91506040840135613ad0816137e0565b809150509250925092565b60008060008060808587031215613af157600080fd5b84359350602085013592506040850135613b0a81613545565b9396929550929360600135925050565b60008060408385031215613b2d57600080fd5b613b36836138db565b946020939093013593505050565b803560038110611d8657600080fd5b600060208284031215613b6557600080fd5b81356001600160401b0380821115613b7c57600080fd5b9083019060e08286031215613b9057600080fd5b613b986135a1565b613ba183613b44565b8152602083013582811115613bb557600080fd5b613bc18782860161381d565b602083015250613bd3604084016138db565b604082015260608301356060820152613bee60808401613533565b608082015260a083013560a082015260c083013560c082015280935050505092915050565b60006102408201905061ffff8c16825263ffffffff808c166020840152808b166040840152808a16606084015280891660808401528760a08401528660c08401528560e0840152846101008401528354613c78610120850183831663ffffffff169052565b613c906101408501838360201c1663ffffffff169052565b613ca86101608501838360401c1663ffffffff169052565b613cc06101808501838360601c1663ffffffff169052565b613cd86101a08501838360801c1663ffffffff169052565b62ffffff60a082901c81166101c086015260b882901c81166101e086015260d082901c1661020085015260e81c610220909301929092529b9a5050505050505050505050565b6020808252602c908201527f46756e6374696f6e206d7573742062652063616c6c6564207468726f7567682060408201526b19195b1959d85d1958d85b1b60a21b606082015260800190565b6020808252602c908201527f46756e6374696f6e206d7573742062652063616c6c6564207468726f7567682060408201526b6163746976652070726f787960a01b606082015260800190565b600060208284031215613dc857600080fd5b612dca82613b44565b6000808335601e19843603018112613de857600080fd5b8301803591506001600160401b03821115613e0257600080fd5b602001915036819003821315613e1757600080fd5b9250929050565b600060208284031215613e3057600080fd5b612dca82613533565b634e487b7160e01b600052602160045260246000fd5b60038110613e6d57634e487b7160e01b600052602160045260246000fd5b9052565b60006101608e83526001600160401b038e1660208401528c6040840152613e9b606084018d613e4f565b806080840152898184015250610180898b8285013760008a84018201526001600160a01b03891660a0840152601f19601f8b011683010190508660c0830152613eea60e083018761ffff169052565b8461010083015283610120830152826101408301529d9c50505050505050505050505050565b634e487b7160e01b600052601160045260246000fd5b80820180821115612f2557612f25613f10565b600060208284031215613f4b57600080fd5b5051919050565b600060408284031215613f6457600080fd5b613f6c6135c3565b82358152602083013560208201528091505092915050565b60006101408236031215613f9757600080fd5b613f9f6135e5565b613fa8836138db565b815260208301356020820152613fc060408401613b44565b604082015260608301356001600160401b03811115613fde57600080fd5b613fea3682860161381d565b606083015250613ffc608084016137f5565b608082015260a083013560a082015261401760c08401613533565b60c082015260e08381013590820152610100808401359082015261012092830135928101929092525090565b6001600160401b0381811683821601908082111561406357614063613f10565b5092915050565b6001600160601b0382811682821603908082111561406357614063613f10565b60808152600061409d6080830187613a02565b6020830195909552506001600160601b039290921660408301521515606090910152919050565b60006001600160401b038083168181036140e0576140e0613f10565b6001019392505050565b8082028115828204841417612f2557612f25613f10565b634e487b7160e01b600052601260045260246000fd5b60008261412657614126614101565b500490565b6001600160601b0381811683821601908082111561406357614063613f10565b60005b8381101561416657818101518382015260200161414e565b50506000910152565b6000815180845261418781602086016020860161414b565b601f01601f19169290920160200192915050565b60006101608d83526001600160401b038d1660208401528b60408401526141c5606084018c613e4f565b8060808401526141d78184018b61416f565b6001600160a01b039990991660a0840152505060c081019590955261ffff9390931660e08501526101008401919091526101208301526101409091015295945050505050565b600061010061422c838c613e4f565b80602084015261423e8184018b61416f565b6001600160a01b039990991660408401525050606081019590955261ffff93909316608085015260a084019190915260c08301526001600160601b031660e09091015292915050565b80518015158114611d8657600080fd5b6000602082840312156142a957600080fd5b612dca82614287565b60006001600160401b038211156142cb576142cb613562565b5060051b60200190565b600082601f8301126142e657600080fd5b604051608081018181106001600160401b038211171561430857614308613562565b60405280608084018581111561431d57600080fd5b845b8181101561307b57805183526020928301920161431f565b600082601f83011261434857600080fd5b8151602061435d614358836142b2565b61362a565b82815260a0928302850182019282820191908785111561437c57600080fd5b8387015b858110156143ca5781818a0312156143985760008081fd5b6143a06135c3565b81516143ab816137e0565b81526143b98a8388016142d5565b818701528452928401928101614380565b5090979650505050505050565b600082601f8301126143e857600080fd5b815160206143f8614358836142b2565b82815260059290921b8401810191818101908684111561441757600080fd5b8286015b8481101561443b57805161442e816137e0565b835291830191830161441b565b509695505050505050565b600082601f83011261445757600080fd5b81516020614467614358836142b2565b82815260059290921b8401810191818101908684111561448657600080fd5b8286015b8481101561443b5780516001600160401b03808211156144a957600080fd5b908801906040601f19838c0381018213156144c357600080fd5b6144cb6135c3565b88850151848111156144dc57600080fd5b6144ea8e8b838901016143d7565b82525082850151848111156144fe57600080fd5b949094019360c0858e03830112156145165760008081fd5b61451e613608565b91508885015182526145328d8487016142d5565b8983015260c0850151848111156145495760008081fd5b6145578e8b838901016143d7565b9383019390935280890191909152865250505091830191830161448a565b60006020828403121561458757600080fd5b81516001600160401b038082111561459e57600080fd5b9083019061018082860312156145b357600080fd5b6145bb613578565b825181526020830151602082015260408301516040820152606083015160608201526080830151828111156145ef57600080fd5b6145fb87828601614337565b60808301525060a08301518281111561461357600080fd5b61461f878286016143d7565b60a08301525060c08301518281111561463757600080fd5b61464387828601614446565b60c08301525061465560e08401614287565b60e0820152610100915061466b868385016142d5565b91810191909152949350505050565b602081526000612dca602083018461416f565b60006040828403121561469f57600080fd5b82601f8301126146ae57600080fd5b6146b66135c3565b8060408401858111156146c857600080fd5b845b818110156146e25780518452602093840193016146ca565b509095945050505050565b8060005b6002811015610c1a5781518452602093840193909101906001016146f1565b8060005b6004811015610c1a578151845260209384019390910190600101614714565b610100810161474282866146ed565b61474f6040830185614710565b61165060c08301846146ed565b634e487b7160e01b600052603260045260246000fd5b60006001820161478457614784613f10565b5060010190565b608080825284518282018190526000919060209060a0850190828901855b828110156147cf576147bc8483516146ed565b60409390930192908401906001016147a9565b5050508481038286015286518082528783019183019060005b8181101561480b576147fb838551614710565b92840192918501916001016147e8565b50508094505050505061165060408301846146ed565b60006020828403121561483357600080fd5b8151612dca81613545565b6000604082018483526020604081850152818551808452606086019150828701935060005b818110156143ca57845183529383019391830191600101614863565b81810381811115612f2557612f25613f10565b6040815260006148a56040830185613a02565b90508260208301529392505050565b6020808252602b908201527f496e697469616c697a61626c653a20636f6e7472616374206973206e6f74206960408201526a6e697469616c697a696e6760a81b606082015260800190565b805169ffffffffffffffffffff81168114611d8657600080fd5b600080600080600060a0868803121561493157600080fd5b61493a866148ff565b945060208601519350604086015192506060860151915061495d608087016148ff565b90509295509295909350565b6000602080838503121561497c57600080fd5b82516001600160401b0381111561499257600080fd5b8301601f810185136149a357600080fd5b80516149b1614358826142b2565b81815260059190911b820183019083810190878311156149d057600080fd5b928401925b82841015613449578351825292840192908401906149d5565b6000826149fd576149fd614101565b500690565b600081614a1157614a11613f10565b506000190190565b60008251614a2b81846020870161414b565b919091019291505056fe360894a13ba1a3210667c828492db98dca3e2076cc3735a920a3ca505d382bbc416464726573733a206c6f772d6c6576656c2064656c65676174652063616c6c206661696c6564a26469706673582212202ef48eb64b40df78337568ca7f96ef199ec6b5222dd42051ae9b4dcad580884f64736f6c63430008130033",
    "linkReferences": {
      "src/libraries/BLS.sol": {
        "BLS": [
          {
            "start": 8211,
            "length": 20
          },
          {
            "start": 8577,
            "length": 20
          },
          {
            "start": 8685,
            "length": 20
          },
          {
            "start": 8711,
            "length": 20
          },
          {
            "start": 9218,
            "length": 20
          },
          {
            "start": 9398,
            "length": 20
          },
          {
            "start": 9806,
            "length": 20
          }
        ]
      }
    }
  },
  "methodIdentifiers": {
    "MAX_CONSUMERS()": "64d51a2a",
    "MAX_REQUEST_CONFIRMATIONS()": "15c48b84",
    "addConsumer(uint64,address)": "7341c10c",
    "createSubscription()": "a21a23e4",
    "estimatePaymentAmount(uint256,uint256,uint32,uint256)": "cc36c1e8",
    "fulfillRandomness(uint256,bytes32,uint256,(uint64,uint256,uint8,bytes,address,uint256,uint16,uint256,uint256,uint256),(uint256,uint256)[])": "80a13ee9",
    "fundSubscription(uint64,uint256)": "dd281928",
    "getFeeTier(uint64)": "d2f9f9a7",
    "getLastRandomness()": "a4c343f2",
    "getLastSubscription(address)": "76a911bc",
    "getPendingRequestCommitment(bytes32)": "1565034c",
    "getRandomnessCount()": "63602174",
    "getSubscription(uint64)": "a47c7696",
    "initialize(address,address,address)": "c0c53b8b",
    "owner()": "8da5cb5b",
    "proxiableUUID()": "52d1902d",
    "renounceOwnership()": "715018a6",
    "requestRandomness((uint8,bytes,uint64,uint256,uint16,uint256,uint256))": "fb0882fc",
    "setAdapterConfig(uint16,uint32,uint32,uint32,uint32,int256,uint256,uint256,uint256,(uint32,uint32,uint32,uint32,uint32,uint24,uint24,uint24,uint24))": "0f8d2279",
    "transferOwnership(address)": "f2fde38b",
    "upgradeTo(address)": "3659cfe6",
    "upgradeToAndCall(address,bytes)": "4f1ef286"
  },
  "id": 62
}