{
  "abi": [
    {
      "inputs": [
        {
          "internalType": "address",
          "name": "arpa",
          "type": "address"
        },
        {
          "internalType": "address",
          "name": "arpaEthFeed",
          "type": "address"
        }
      ],
      "stateMutability": "nonpayable",
      "type": "constructor"
    },
    {
      "inputs": [],
      "name": "EmptyPartialSignatures",
      "type": "error"
    },
    {
      "inputs": [],
      "name": "InsufficientBalanceWhenFulfill",
      "type": "error"
    },
    {
      "inputs": [],
      "name": "InsufficientBalanceWhenRequest",
      "type": "error"
    },
    {
      "inputs": [
        {
          "internalType": "int256",
          "name": "arpaWei",
          "type": "int256"
        }
      ],
      "name": "InvalidArpaWeiPrice",
      "type": "error"
    },
    {
      "inputs": [
        {
          "internalType": "uint64",
          "name": "subId",
          "type": "uint64"
        },
        {
          "internalType": "address",
          "name": "consumer",
          "type": "address"
        }
      ],
      "name": "InvalidConsumer",
      "type": "error"
    },
    {
      "inputs": [],
      "name": "InvalidPartialPublicKey",
      "type": "error"
    },
    {
      "inputs": [],
      "name": "InvalidPartialSignatureFormat",
      "type": "error"
    },
    {
      "inputs": [],
      "name": "InvalidPartialSignatures",
      "type": "error"
    },
    {
      "inputs": [],
      "name": "InvalidPublicKey",
      "type": "error"
    },
    {
      "inputs": [
        {
          "internalType": "string",
          "name": "message",
          "type": "string"
        }
      ],
      "name": "InvalidRequestByEOA",
      "type": "error"
    },
    {
      "inputs": [
        {
          "internalType": "uint16",
          "name": "have",
          "type": "uint16"
        },
        {
          "internalType": "uint16",
          "name": "min",
          "type": "uint16"
        },
        {
          "internalType": "uint16",
          "name": "max",
          "type": "uint16"
        }
      ],
      "name": "InvalidRequestConfirmations",
      "type": "error"
    },
    {
      "inputs": [],
      "name": "InvalidSignature",
      "type": "error"
    },
    {
      "inputs": [],
      "name": "InvalidSignatureFormat",
      "type": "error"
    },
    {
      "inputs": [],
      "name": "InvalidSubscription",
      "type": "error"
    },
    {
      "inputs": [
        {
          "internalType": "address",
          "name": "owner",
          "type": "address"
        }
      ],
      "name": "MustBeSubOwner",
      "type": "error"
    },
    {
      "inputs": [],
      "name": "MustNotBeInfinity",
      "type": "error"
    },
    {
      "inputs": [],
      "name": "NoAvailableGroups",
      "type": "error"
    },
    {
      "inputs": [],
      "name": "NoCorrespondingRequest",
      "type": "error"
    },
    {
      "inputs": [],
      "name": "NotFromCommitter",
      "type": "error"
    },
    {
      "inputs": [],
      "name": "PaymentTooLarge",
      "type": "error"
    },
    {
      "inputs": [],
      "name": "Reentrant",
      "type": "error"
    },
    {
      "inputs": [],
      "name": "TaskStillExclusive",
      "type": "error"
    },
    {
      "inputs": [],
      "name": "TooManyConsumers",
      "type": "error"
    },
    {
      "anonymous": false,
      "inputs": [
        {
          "indexed": false,
          "internalType": "uint16",
          "name": "minimumRequestConfirmations",
          "type": "uint16"
        },
        {
          "indexed": false,
          "internalType": "uint32",
          "name": "maxGasLimit",
          "type": "uint32"
        },
        {
          "indexed": false,
          "internalType": "uint32",
          "name": "stalenessSeconds",
          "type": "uint32"
        },
        {
          "indexed": false,
          "internalType": "uint32",
          "name": "gasAfterPaymentCalculation",
          "type": "uint32"
        },
        {
          "indexed": false,
          "internalType": "uint32",
          "name": "gasExceptCallback",
          "type": "uint32"
        },
        {
          "indexed": false,
          "internalType": "int256",
          "name": "fallbackWeiPerUnitArpa",
          "type": "int256"
        },
        {
          "indexed": false,
          "internalType": "uint256",
          "name": "signatureTaskExclusiveWindow",
          "type": "uint256"
        },
        {
          "indexed": false,
          "internalType": "uint256",
          "name": "rewardPerSignature",
          "type": "uint256"
        },
        {
          "indexed": false,
          "internalType": "uint256",
          "name": "committerRewardPerSignature",
          "type": "uint256"
        },
        {
          "components": [
            {
              "internalType": "uint32",
              "name": "fulfillmentFlatFeeArpaPPMTier1",
              "type": "uint32"
            },
            {
              "internalType": "uint32",
              "name": "fulfillmentFlatFeeArpaPPMTier2",
              "type": "uint32"
            },
            {
              "internalType": "uint32",
              "name": "fulfillmentFlatFeeArpaPPMTier3",
              "type": "uint32"
            },
            {
              "internalType": "uint32",
              "name": "fulfillmentFlatFeeArpaPPMTier4",
              "type": "uint32"
            },
            {
              "internalType": "uint32",
              "name": "fulfillmentFlatFeeArpaPPMTier5",
              "type": "uint32"
            },
            {
              "internalType": "uint24",
              "name": "reqsForTier2",
              "type": "uint24"
            },
            {
              "internalType": "uint24",
              "name": "reqsForTier3",
              "type": "uint24"
            },
            {
              "internalType": "uint24",
              "name": "reqsForTier4",
              "type": "uint24"
            },
            {
              "internalType": "uint24",
              "name": "reqsForTier5",
              "type": "uint24"
            }
          ],
          "indexed": false,
          "internalType": "struct Adapter.FeeConfig",
          "name": "feeConfig",
          "type": "tuple"
        }
      ],
      "name": "AdapterConfigSet",
      "type": "event"
    },
    {
      "anonymous": false,
      "inputs": [
        {
          "indexed": true,
          "internalType": "address",
          "name": "previousOwner",
          "type": "address"
        },
        {
          "indexed": true,
          "internalType": "address",
          "name": "newOwner",
          "type": "address"
        }
      ],
      "name": "OwnershipTransferred",
      "type": "event"
    },
    {
      "anonymous": false,
      "inputs": [
        {
          "indexed": true,
          "internalType": "uint256",
          "name": "groupIndex",
          "type": "uint256"
        },
        {
          "indexed": false,
          "internalType": "bytes32",
          "name": "requestId",
          "type": "bytes32"
        },
        {
          "indexed": false,
          "internalType": "address",
          "name": "sender",
          "type": "address"
        },
        {
          "indexed": false,
          "internalType": "uint64",
          "name": "subId",
          "type": "uint64"
        },
        {
          "indexed": false,
          "internalType": "uint256",
          "name": "seed",
          "type": "uint256"
        },
        {
          "indexed": false,
          "internalType": "uint16",
          "name": "requestConfirmations",
          "type": "uint16"
        },
        {
          "indexed": false,
          "internalType": "uint256",
          "name": "callbackGasLimit",
          "type": "uint256"
        },
        {
          "indexed": false,
          "internalType": "uint256",
          "name": "callbackMaxGasPrice",
          "type": "uint256"
        }
      ],
      "name": "RandomnessRequest",
      "type": "event"
    },
    {
      "anonymous": false,
      "inputs": [
        {
          "indexed": false,
          "internalType": "bytes32",
          "name": "requestId",
          "type": "bytes32"
        },
        {
          "indexed": false,
          "internalType": "uint256",
          "name": "output",
          "type": "uint256"
        },
        {
          "indexed": false,
          "internalType": "uint256",
          "name": "payment",
          "type": "uint256"
        },
        {
          "indexed": false,
          "internalType": "bool",
          "name": "success",
          "type": "bool"
        }
      ],
      "name": "RandomnessRequestResult",
      "type": "event"
    },
    {
      "anonymous": false,
      "inputs": [
        {
          "indexed": true,
          "internalType": "uint64",
          "name": "subId",
          "type": "uint64"
        },
        {
          "indexed": false,
          "internalType": "address",
          "name": "consumer",
          "type": "address"
        }
      ],
      "name": "SubscriptionConsumerAdded",
      "type": "event"
    },
    {
      "anonymous": false,
      "inputs": [
        {
          "indexed": true,
          "internalType": "uint64",
          "name": "subId",
          "type": "uint64"
        },
        {
          "indexed": false,
          "internalType": "address",
          "name": "owner",
          "type": "address"
        }
      ],
      "name": "SubscriptionCreated",
      "type": "event"
    },
    {
      "anonymous": false,
      "inputs": [
        {
          "indexed": true,
          "internalType": "uint64",
          "name": "subId",
          "type": "uint64"
        },
        {
          "indexed": false,
          "internalType": "uint256",
          "name": "oldBalance",
          "type": "uint256"
        },
        {
          "indexed": false,
          "internalType": "uint256",
          "name": "newBalance",
          "type": "uint256"
        }
      ],
      "name": "SubscriptionFunded",
      "type": "event"
    },
    {
      "inputs": [],
      "name": "ARPA",
      "outputs": [
        {
          "internalType": "contract IERC20",
          "name": "",
          "type": "address"
        }
      ],
      "stateMutability": "view",
      "type": "function"
    },
    {
      "inputs": [],
      "name": "ARPA_ETH_FEED",
      "outputs": [
        {
          "internalType": "contract AggregatorV3Interface",
          "name": "",
          "type": "address"
        }
      ],
      "stateMutability": "view",
      "type": "function"
    },
    {
      "inputs": [],
      "name": "MAX_CONSUMERS",
      "outputs": [
        {
          "internalType": "uint16",
          "name": "",
          "type": "uint16"
        }
      ],
      "stateMutability": "view",
      "type": "function"
    },
    {
      "inputs": [],
      "name": "MAX_REQUEST_CONFIRMATIONS",
      "outputs": [
        {
          "internalType": "uint16",
          "name": "",
          "type": "uint16"
        }
      ],
      "stateMutability": "view",
      "type": "function"
    },
    {
      "inputs": [
        {
          "internalType": "uint64",
          "name": "subId",
          "type": "uint64"
        },
        {
          "internalType": "address",
          "name": "consumer",
          "type": "address"
        }
      ],
      "name": "addConsumer",
      "outputs": [],
      "stateMutability": "nonpayable",
      "type": "function"
    },
    {
      "inputs": [
        {
          "internalType": "uint256",
          "name": "startGas",
          "type": "uint256"
        },
        {
          "internalType": "uint256",
          "name": "gasAfterPaymentCalculation",
          "type": "uint256"
        },
        {
          "internalType": "uint32",
          "name": "fulfillmentFlatFeeArpaPPM",
          "type": "uint32"
        },
        {
          "internalType": "uint256",
          "name": "weiPerUnitGas",
          "type": "uint256"
        }
      ],
      "name": "calculatePaymentAmount",
      "outputs": [
        {
          "internalType": "uint96",
          "name": "",
          "type": "uint96"
        }
      ],
      "stateMutability": "view",
      "type": "function"
    },
    {
      "inputs": [],
      "name": "createSubscription",
      "outputs": [
        {
          "internalType": "uint64",
          "name": "",
          "type": "uint64"
        }
      ],
      "stateMutability": "nonpayable",
      "type": "function"
    },
    {
      "inputs": [
        {
          "internalType": "uint256",
          "name": "callbackGasLimit",
          "type": "uint256"
        },
        {
          "internalType": "uint256",
          "name": "gasExceptCallback",
          "type": "uint256"
        },
        {
          "internalType": "uint32",
          "name": "fulfillmentFlatFeeArpaPPM",
          "type": "uint32"
        },
        {
          "internalType": "uint256",
          "name": "weiPerUnitGas",
          "type": "uint256"
        }
      ],
      "name": "estimatePaymentAmount",
      "outputs": [
        {
          "internalType": "uint96",
          "name": "",
          "type": "uint96"
        }
      ],
      "stateMutability": "view",
      "type": "function"
    },
    {
      "inputs": [
        {
          "internalType": "uint256",
          "name": "groupIndex",
          "type": "uint256"
        },
        {
          "internalType": "bytes32",
          "name": "requestId",
          "type": "bytes32"
        },
        {
          "internalType": "uint256",
          "name": "signature",
          "type": "uint256"
        },
        {
          "components": [
            {
              "internalType": "uint256",
              "name": "index",
              "type": "uint256"
            },
            {
              "internalType": "uint256",
              "name": "partialSignature",
              "type": "uint256"
            }
          ],
          "internalType": "struct IAdapter.PartialSignature[]",
          "name": "partialSignatures",
          "type": "tuple[]"
        }
      ],
      "name": "fulfillRandomness",
      "outputs": [],
      "stateMutability": "nonpayable",
      "type": "function"
    },
    {
      "inputs": [
        {
          "internalType": "uint64",
          "name": "subId",
          "type": "uint64"
        },
        {
          "internalType": "uint256",
          "name": "amount",
          "type": "uint256"
        }
      ],
      "name": "fundSubscription",
      "outputs": [],
      "stateMutability": "nonpayable",
      "type": "function"
    },
    {
      "inputs": [
        {
          "internalType": "uint64",
          "name": "reqCount",
          "type": "uint64"
        }
      ],
      "name": "getFeeTier",
      "outputs": [
        {
          "internalType": "uint32",
          "name": "",
          "type": "uint32"
        }
      ],
      "stateMutability": "view",
      "type": "function"
    },
    {
      "inputs": [
        {
          "internalType": "uint256",
          "name": "groupIndex",
          "type": "uint256"
        }
      ],
      "name": "getGroup",
      "outputs": [
        {
          "components": [
            {
              "internalType": "uint256",
              "name": "index",
              "type": "uint256"
            },
            {
              "internalType": "uint256",
              "name": "epoch",
              "type": "uint256"
            },
            {
              "internalType": "uint256",
              "name": "size",
              "type": "uint256"
            },
            {
              "internalType": "uint256",
              "name": "threshold",
              "type": "uint256"
            },
            {
              "components": [
                {
                  "internalType": "address",
                  "name": "nodeIdAddress",
                  "type": "address"
                },
                {
                  "internalType": "uint256[4]",
                  "name": "partialPublicKey",
                  "type": "uint256[4]"
                }
              ],
              "internalType": "struct Adapter.Member[]",
              "name": "members",
              "type": "tuple[]"
            },
            {
              "internalType": "address[]",
              "name": "committers",
              "type": "address[]"
            },
            {
              "components": [
                {
                  "internalType": "address[]",
                  "name": "nodeIdAddress",
                  "type": "address[]"
                },
                {
                  "components": [
                    {
                      "internalType": "uint256",
                      "name": "groupEpoch",
                      "type": "uint256"
                    },
                    {
                      "internalType": "uint256[4]",
                      "name": "publicKey",
                      "type": "uint256[4]"
                    },
                    {
                      "internalType": "address[]",
                      "name": "disqualifiedNodes",
                      "type": "address[]"
                    }
                  ],
                  "internalType": "struct Adapter.CommitResult",
                  "name": "commitResult",
                  "type": "tuple"
                }
              ],
              "internalType": "struct Adapter.CommitCache[]",
              "name": "commitCacheList",
              "type": "tuple[]"
            },
            {
              "internalType": "bool",
              "name": "isStrictlyMajorityConsensusReached",
              "type": "bool"
            },
            {
              "internalType": "uint256[4]",
              "name": "publicKey",
              "type": "uint256[4]"
            }
          ],
          "internalType": "struct Adapter.Group",
          "name": "",
          "type": "tuple"
        }
      ],
      "stateMutability": "view",
      "type": "function"
    },
    {
      "inputs": [
        {
          "internalType": "address",
          "name": "consumer",
          "type": "address"
        }
      ],
      "name": "getLastSubscription",
      "outputs": [
        {
          "internalType": "uint64",
          "name": "",
          "type": "uint64"
        }
      ],
      "stateMutability": "view",
      "type": "function"
    },
    {
      "inputs": [
        {
          "internalType": "bytes32",
          "name": "requestId",
          "type": "bytes32"
        }
      ],
      "name": "getPendingRequest",
      "outputs": [
        {
          "components": [
            {
              "internalType": "address",
              "name": "callbackContract",
              "type": "address"
            },
            {
              "internalType": "enum IRequestTypeBase.RequestType",
              "name": "requestType",
              "type": "uint8"
            },
            {
              "internalType": "bytes",
              "name": "params",
              "type": "bytes"
            },
            {
              "internalType": "uint64",
              "name": "subId",
              "type": "uint64"
            },
            {
              "internalType": "uint256",
              "name": "seed",
              "type": "uint256"
            },
            {
              "internalType": "uint256",
              "name": "groupIndex",
              "type": "uint256"
            },
            {
              "internalType": "uint256",
              "name": "blockNum",
              "type": "uint256"
            },
            {
              "internalType": "uint16",
              "name": "requestConfirmations",
              "type": "uint16"
            },
            {
              "internalType": "uint256",
              "name": "callbackGasLimit",
              "type": "uint256"
            },
            {
              "internalType": "uint256",
              "name": "callbackMaxGasPrice",
              "type": "uint256"
            }
          ],
          "internalType": "struct Adapter.Callback",
          "name": "",
          "type": "tuple"
        }
      ],
      "stateMutability": "view",
      "type": "function"
    },
    {
      "inputs": [
        {
          "internalType": "uint64",
          "name": "subId",
          "type": "uint64"
        }
      ],
      "name": "getSubscription",
      "outputs": [
        {
          "internalType": "uint96",
          "name": "balance",
          "type": "uint96"
        },
        {
          "internalType": "uint96",
          "name": "inflightCost",
          "type": "uint96"
        },
        {
          "internalType": "uint64",
          "name": "reqCount",
          "type": "uint64"
        },
        {
          "internalType": "address",
          "name": "owner",
          "type": "address"
        },
        {
          "internalType": "address[]",
          "name": "consumers",
          "type": "address[]"
        }
      ],
      "stateMutability": "view",
      "type": "function"
    },
    {
      "inputs": [],
      "name": "groupCount",
      "outputs": [
        {
          "internalType": "uint256",
          "name": "",
          "type": "uint256"
        }
      ],
      "stateMutability": "view",
      "type": "function"
    },
    {
      "inputs": [
        {
          "internalType": "uint256",
          "name": "",
          "type": "uint256"
        }
      ],
      "name": "groups",
      "outputs": [
        {
          "internalType": "uint256",
          "name": "index",
          "type": "uint256"
        },
        {
          "internalType": "uint256",
          "name": "epoch",
          "type": "uint256"
        },
        {
          "internalType": "uint256",
          "name": "size",
          "type": "uint256"
        },
        {
          "internalType": "uint256",
          "name": "threshold",
          "type": "uint256"
        },
        {
          "internalType": "bool",
          "name": "isStrictlyMajorityConsensusReached",
          "type": "bool"
        }
      ],
      "stateMutability": "view",
      "type": "function"
    },
    {
      "inputs": [],
      "name": "lastAssignedGroupIndex",
      "outputs": [
        {
          "internalType": "uint256",
          "name": "",
          "type": "uint256"
        }
      ],
      "stateMutability": "view",
      "type": "function"
    },
    {
      "inputs": [],
      "name": "lastOutput",
      "outputs": [
        {
          "internalType": "uint256",
          "name": "",
          "type": "uint256"
        }
      ],
      "stateMutability": "view",
      "type": "function"
    },
    {
      "inputs": [],
      "name": "owner",
      "outputs": [
        {
          "internalType": "address",
          "name": "",
          "type": "address"
        }
      ],
      "stateMutability": "view",
      "type": "function"
    },
    {
      "inputs": [],
      "name": "renounceOwnership",
      "outputs": [],
      "stateMutability": "nonpayable",
      "type": "function"
    },
    {
      "inputs": [
        {
          "components": [
            {
              "internalType": "enum IRequestTypeBase.RequestType",
              "name": "requestType",
              "type": "uint8"
            },
            {
              "internalType": "bytes",
              "name": "params",
              "type": "bytes"
            },
            {
              "internalType": "uint64",
              "name": "subId",
              "type": "uint64"
            },
            {
              "internalType": "uint256",
              "name": "seed",
              "type": "uint256"
            },
            {
              "internalType": "uint16",
              "name": "requestConfirmations",
              "type": "uint16"
            },
            {
              "internalType": "uint256",
              "name": "callbackGasLimit",
              "type": "uint256"
            },
            {
              "internalType": "uint256",
              "name": "callbackMaxGasPrice",
              "type": "uint256"
            }
          ],
          "internalType": "struct IAdapter.RandomnessRequestParams",
          "name": "p",
          "type": "tuple"
        }
      ],
      "name": "requestRandomness",
      "outputs": [
        {
          "internalType": "bytes32",
          "name": "",
          "type": "bytes32"
        }
      ],
      "stateMutability": "nonpayable",
      "type": "function"
    },
    {
      "inputs": [
        {
          "internalType": "address",
          "name": "",
          "type": "address"
        }
      ],
      "name": "rewards",
      "outputs": [
        {
          "internalType": "uint256",
          "name": "",
          "type": "uint256"
        }
      ],
      "stateMutability": "view",
      "type": "function"
    },
    {
      "inputs": [
        {
          "internalType": "bytes32",
          "name": "",
          "type": "bytes32"
        }
      ],
      "name": "s_callbacks",
      "outputs": [
        {
          "internalType": "address",
          "name": "callbackContract",
          "type": "address"
        },
        {
          "internalType": "enum IRequestTypeBase.RequestType",
          "name": "requestType",
          "type": "uint8"
        },
        {
          "internalType": "bytes",
          "name": "params",
          "type": "bytes"
        },
        {
          "internalType": "uint64",
          "name": "subId",
          "type": "uint64"
        },
        {
          "internalType": "uint256",
          "name": "seed",
          "type": "uint256"
        },
        {
          "internalType": "uint256",
          "name": "groupIndex",
          "type": "uint256"
        },
        {
          "internalType": "uint256",
          "name": "blockNum",
          "type": "uint256"
        },
        {
          "internalType": "uint16",
          "name": "requestConfirmations",
          "type": "uint16"
        },
        {
          "internalType": "uint256",
          "name": "callbackGasLimit",
          "type": "uint256"
        },
        {
          "internalType": "uint256",
          "name": "callbackMaxGasPrice",
          "type": "uint256"
        }
      ],
      "stateMutability": "view",
      "type": "function"
    },
    {
      "inputs": [
        {
          "internalType": "uint16",
          "name": "minimumRequestConfirmations",
          "type": "uint16"
        },
        {
          "internalType": "uint32",
          "name": "maxGasLimit",
          "type": "uint32"
        },
        {
          "internalType": "uint32",
          "name": "stalenessSeconds",
          "type": "uint32"
        },
        {
          "internalType": "uint32",
          "name": "gasAfterPaymentCalculation",
          "type": "uint32"
        },
        {
          "internalType": "uint32",
          "name": "gasExceptCallback",
          "type": "uint32"
        },
        {
          "internalType": "int256",
          "name": "fallbackWeiPerUnitArpa",
          "type": "int256"
        },
        {
          "internalType": "uint256",
          "name": "signatureTaskExclusiveWindow",
          "type": "uint256"
        },
        {
          "internalType": "uint256",
          "name": "rewardPerSignature",
          "type": "uint256"
        },
        {
          "internalType": "uint256",
          "name": "committerRewardPerSignature",
          "type": "uint256"
        },
        {
          "components": [
            {
              "internalType": "uint32",
              "name": "fulfillmentFlatFeeArpaPPMTier1",
              "type": "uint32"
            },
            {
              "internalType": "uint32",
              "name": "fulfillmentFlatFeeArpaPPMTier2",
              "type": "uint32"
            },
            {
              "internalType": "uint32",
              "name": "fulfillmentFlatFeeArpaPPMTier3",
              "type": "uint32"
            },
            {
              "internalType": "uint32",
              "name": "fulfillmentFlatFeeArpaPPMTier4",
              "type": "uint32"
            },
            {
              "internalType": "uint32",
              "name": "fulfillmentFlatFeeArpaPPMTier5",
              "type": "uint32"
            },
            {
              "internalType": "uint24",
              "name": "reqsForTier2",
              "type": "uint24"
            },
            {
              "internalType": "uint24",
              "name": "reqsForTier3",
              "type": "uint24"
            },
            {
              "internalType": "uint24",
              "name": "reqsForTier4",
              "type": "uint24"
            },
            {
              "internalType": "uint24",
              "name": "reqsForTier5",
              "type": "uint24"
            }
          ],
          "internalType": "struct Adapter.FeeConfig",
          "name": "feeConfig",
          "type": "tuple"
        }
      ],
      "name": "setAdapterConfig",
      "outputs": [],
      "stateMutability": "nonpayable",
      "type": "function"
    },
    {
      "inputs": [
        {
          "internalType": "address",
          "name": "newOwner",
          "type": "address"
        }
      ],
      "name": "transferOwnership",
      "outputs": [],
      "stateMutability": "nonpayable",
      "type": "function"
    },
    {
      "inputs": [],
      "name": "validGroupIndices",
      "outputs": [
        {
          "internalType": "uint256[]",
          "name": "",
          "type": "uint256[]"
        }
      ],
      "stateMutability": "view",
      "type": "function"
    }
  ],
  "bytecode": {
    "object": "0x60c06040526722222222222222226006553480156200001d57600080fd5b5060405162009fcd38038062009fcd833981810160405281019062000043919062000209565b6200006362000057620000d360201b60201c565b620000db60201b60201c565b8173ffffffffffffffffffffffffffffffffffffffff1660808173ffffffffffffffffffffffffffffffffffffffff16815250508073ffffffffffffffffffffffffffffffffffffffff1660a08173ffffffffffffffffffffffffffffffffffffffff1681525050505062000250565b600033905090565b60008060009054906101000a900473ffffffffffffffffffffffffffffffffffffffff169050816000806101000a81548173ffffffffffffffffffffffffffffffffffffffff021916908373ffffffffffffffffffffffffffffffffffffffff1602179055508173ffffffffffffffffffffffffffffffffffffffff168173ffffffffffffffffffffffffffffffffffffffff167f8be0079c531659141344cd1fd0a4f28419497f9722a3daafe3b4186f6b6457e060405160405180910390a35050565b600080fd5b600073ffffffffffffffffffffffffffffffffffffffff82169050919050565b6000620001d182620001a4565b9050919050565b620001e381620001c4565b8114620001ef57600080fd5b50565b6000815190506200020381620001d8565b92915050565b600080604083850312156200022357620002226200019f565b5b60006200023385828601620001f2565b92505060206200024685828601620001f2565b9150509250929050565b60805160a051619d496200028460003960008181612a0f015261498501526000818161100b0152612db40152619d496000f3fe608060405234801561001057600080fd5b50600436106101a95760003560e01c80638da5cb5b116100f9578063cc36c1e811610097578063d2f9f9a711610071578063d2f9f9a7146104f9578063dd28192814610529578063f2fde38b14610545578063fb0882fc14610561576101a9565b8063cc36c1e81461047b578063ceb60654146104ab578063d164e28d146104db576101a9565b806397228a7e116100d357806397228a7e146103db5780639ea3b84e146103f9578063a21a23e414610429578063a47c769614610447576101a9565b80638da5cb5b1461036b5780638f23b3261461038957806396324bd4146103a7576101a9565b806362d14450116101665780637341c10c116101405780637341c10c146102d357806376a911bc146102ef57806386dd2e9e1461031f57806388b12d551461033b576101a9565b806362d144501461028d57806364d51a2a146102ab578063715018a6146102c9576101a9565b80630700037d146101ae5780630b919eef146101de5780630f8d2279146101fc57806315c48b8414610218578063253870ff146102365780634d61542414610254575b600080fd5b6101c860048036038101906101c391906174fe565b610591565b6040516101d59190617544565b60405180910390f35b6101e66105a9565b6040516101f39190617544565b60405180910390f35b610216600480360381019061021191906177e8565b6105af565b005b61022061096c565b60405161022d91906178d6565b60405180910390f35b61023e610971565b60405161024b91906179af565b60405180910390f35b61026e60048036038101906102699190617a07565b610ede565b6040516102849a99989796959493929190617b65565b60405180910390f35b610295611009565b6040516102a29190617c67565b60405180910390f35b6102b361102d565b6040516102c091906178d6565b60405180910390f35b6102d1611032565b005b6102ed60048036038101906102e89190617cae565b611046565b005b610309600480360381019061030491906174fe565b61147a565b6040516103169190617cee565b60405180910390f35b61033960048036038101906103349190617e26565b6114da565b005b61035560048036038101906103509190617a07565b611db1565b6040516103629190618009565b60405180910390f35b610373611f86565b604051610380919061802b565b60405180910390f35b610391611faf565b60405161039e9190617544565b60405180910390f35b6103c160048036038101906103bc9190618046565b611fb5565b6040516103d295949392919061808e565b60405180910390f35b6103e3611ff8565b6040516103f09190617544565b60405180910390f35b610413600480360381019061040e91906180e1565b611ffe565b604051610420919061816f565b60405180910390f35b610431612119565b60405161043e9190617cee565b60405180910390f35b610461600480360381019061045c919061818a565b6122a5565b604051610472959493929190618266565b60405180910390f35b610495600480360381019061049091906180e1565b612532565b6040516104a2919061816f565b60405180910390f35b6104c560048036038101906104c09190618046565b6125f1565b6040516104d291906186c9565b60405180910390f35b6104e3612a0d565b6040516104f0919061870c565b60405180910390f35b610513600480360381019061050e919061818a565b612a31565b6040516105209190618736565b60405180910390f35b610543600480360381019061053e9190618751565b612cb2565b005b61055f600480360381019061055a91906174fe565b612f21565b005b61057b6004803603810190610576919061893b565b612fa4565b6040516105889190618993565b60405180910390f35b60046020528060005260406000206000915090505481565b60055481565b6105b76137a7565b60c861ffff168a61ffff16111561060a57898a60c86040517fa7386976000000000000000000000000000000000000000000000000000000008152600401610601939291906189ae565b60405180910390fd5b6000851361064f57846040517f09d2037f00000000000000000000000000000000000000000000000000000000815260040161064691906189f4565b60405180910390fd5b6040518061012001604052808b61ffff1681526020018a63ffffffff1681526020016000151581526020018963ffffffff1681526020018863ffffffff1681526020018763ffffffff16815260200185815260200184815260200183815250600860008201518160000160006101000a81548161ffff021916908361ffff16021790555060208201518160000160026101000a81548163ffffffff021916908363ffffffff16021790555060408201518160000160066101000a81548160ff02191690831515021790555060608201518160000160076101000a81548163ffffffff021916908363ffffffff160217905550608082015181600001600b6101000a81548163ffffffff021916908363ffffffff16021790555060a082015181600001600f6101000a81548163ffffffff021916908363ffffffff16021790555060c0820151816001015560e08201518160020155610100820151816003015590505080600c60008201518160000160006101000a81548163ffffffff021916908363ffffffff16021790555060208201518160000160046101000a81548163ffffffff021916908363ffffffff16021790555060408201518160000160086101000a81548163ffffffff021916908363ffffffff160217905550606082015181600001600c6101000a81548163ffffffff021916908363ffffffff16021790555060808201518160000160106101000a81548163ffffffff021916908363ffffffff16021790555060a08201518160000160146101000a81548162ffffff021916908362ffffff16021790555060c08201518160000160176101000a81548162ffffff021916908362ffffff16021790555060e082015181600001601a6101000a81548162ffffff021916908362ffffff16021790555061010082015181600001601d6101000a81548162ffffff021916908362ffffff160217905550905050846007819055507fd0b13daf7583541073d4924096b201ccca6cdd72c0d10c63ce4067310691a68d8a8a8a8a8a8a8a8a8a600c6040516109589a99989796959493929190618c8e565b60405180910390a150505050505050505050565b60c881565b6060600060025467ffffffffffffffff8111156109915761099061764d565b5b6040519080825280602002602001820160405280156109bf5781602001602082028036833780820191505090505b5090506000805b600254811015610e2e57600060036000838152602001908152602001600020604051806101200160405290816000820154815260200160018201548152602001600282015481526020016003820154815260200160048201805480602002602001604051908101604052809291908181526020016000905b82821015610b0b57838290600052602060002090600502016040518060400160405290816000820160009054906101000a900473ffffffffffffffffffffffffffffffffffffffff1673ffffffffffffffffffffffffffffffffffffffff1673ffffffffffffffffffffffffffffffffffffffff16815260200160018201600480602002604051908101604052809291908260048015610af3576020028201915b815481526020019060010190808311610adf575b50505050508152505081526020019060010190610a3e565b50505050815260200160058201805480602002602001604051908101604052809291908181526020018280548015610b9857602002820191906000526020600020905b8160009054906101000a900473ffffffffffffffffffffffffffffffffffffffff1673ffffffffffffffffffffffffffffffffffffffff1681526020019060010190808311610b4e575b5050505050815260200160068201805480602002602001604051908101604052809291908181526020016000905b82821015610d77578382906000526020600020906007020160405180604001604052908160008201805480602002602001604051908101604052809291908181526020018280548015610c6e57602002820191906000526020600020905b8160009054906101000a900473ffffffffffffffffffffffffffffffffffffffff1673ffffffffffffffffffffffffffffffffffffffff1681526020019060010190808311610c24575b50505050508152602001600182016040518060600160405290816000820154815260200160018201600480602002604051908101604052809291908260048015610ccd576020028201915b815481526020019060010190808311610cb9575b5050505050815260200160058201805480602002602001604051908101604052809291908181526020018280548015610d5b57602002820191906000526020600020905b8160009054906101000a900473ffffffffffffffffffffffffffffffffffffffff1673ffffffffffffffffffffffffffffffffffffffff1681526020019060010190808311610d11575b5050505050815250508152505081526020019060010190610bc6565b5050505081526020016007820160009054906101000a900460ff1615151515815260200160088201600480602002604051908101604052809291908260048015610dd6576020028201915b815481526020019060010190808311610dc2575b50505050508152505090508060e0015115610e1a5781848481518110610dff57610dfe618d2a565b5b6020026020010181815250508280610e1690618d88565b9350505b508080610e2690618d88565b9150506109c6565b5060008167ffffffffffffffff811115610e4b57610e4a61764d565b5b604051908082528060200260200182016040528015610e795781602001602082028036833780820191505090505b50905060005b82811015610ed457838181518110610e9a57610e99618d2a565b5b6020026020010151828281518110610eb557610eb4618d2a565b5b6020026020010181815250508080610ecc90618d88565b915050610e7f565b5080935050505090565b600d6020528060005260406000206000915090508060000160009054906101000a900473ffffffffffffffffffffffffffffffffffffffff16908060000160149054906101000a900460ff1690806001018054610f3a90618dff565b80601f0160208091040260200160405190810160405280929190818152602001828054610f6690618dff565b8015610fb35780601f10610f8857610100808354040283529160200191610fb3565b820191906000526020600020905b815481529060010190602001808311610f9657829003601f168201915b5050505050908060020160009054906101000a900467ffffffffffffffff16908060030154908060040154908060050154908060060160009054906101000a900461ffff1690806007015490806008015490508a565b7f000000000000000000000000000000000000000000000000000000000000000081565b606481565b61103a6137a7565b6110446000613825565b565b816000600f60008367ffffffffffffffff1667ffffffffffffffff16815260200190815260200160002060000160009054906101000a900473ffffffffffffffffffffffffffffffffffffffff169050600073ffffffffffffffffffffffffffffffffffffffff168173ffffffffffffffffffffffffffffffffffffffff16036110fc576040517f1f6a65b600000000000000000000000000000000000000000000000000000000815260040160405180910390fd5b8073ffffffffffffffffffffffffffffffffffffffff163373ffffffffffffffffffffffffffffffffffffffff161461116c57806040517fd8a3fb52000000000000000000000000000000000000000000000000000000008152600401611163919061802b565b60405180910390fd5b600860000160069054906101000a900460ff16156111b6576040517fed3ba6a600000000000000000000000000000000000000000000000000000000815260040160405180910390fd5b606461ffff16600f60008667ffffffffffffffff1667ffffffffffffffff1681526020019081526020016000206002018054905003611221576040517f05a48e0f00000000000000000000000000000000000000000000000000000000815260040160405180910390fd5b6000600e60008573ffffffffffffffffffffffffffffffffffffffff1673ffffffffffffffffffffffffffffffffffffffff16815260200190815260200160002060000160008667ffffffffffffffff1667ffffffffffffffff16815260200190815260200160002060009054906101000a900467ffffffffffffffff1667ffffffffffffffff1603611474576001600e60008573ffffffffffffffffffffffffffffffffffffffff1673ffffffffffffffffffffffffffffffffffffffff16815260200190815260200160002060000160008667ffffffffffffffff1667ffffffffffffffff16815260200190815260200160002060006101000a81548167ffffffffffffffff021916908367ffffffffffffffff16021790555083600e60008573ffffffffffffffffffffffffffffffffffffffff1673ffffffffffffffffffffffffffffffffffffffff16815260200190815260200160002060010160006101000a81548167ffffffffffffffff021916908367ffffffffffffffff160217905550600f60008567ffffffffffffffff1667ffffffffffffffff168152602001908152602001600020600201839080600181540180825580915050600190039060005260206000200160009091909190916101000a81548173ffffffffffffffffffffffffffffffffffffffff021916908373ffffffffffffffffffffffffffffffffffffffff1602179055508367ffffffffffffffff167f43dc749a04ac8fb825cbd514f7c0e13f13bc6f2ee66043b76629d51776cff8e08460405161146b919061802b565b60405180910390a25b50505050565b6000600e60008373ffffffffffffffffffffffffffffffffffffffff1673ffffffffffffffffffffffffffffffffffffffff16815260200190815260200160002060010160009054906101000a900467ffffffffffffffff169050919050565b60005a90506000600d6000868152602001908152602001600020604051806101400160405290816000820160009054906101000a900473ffffffffffffffffffffffffffffffffffffffff1673ffffffffffffffffffffffffffffffffffffffff1673ffffffffffffffffffffffffffffffffffffffff1681526020016000820160149054906101000a900460ff16600281111561157b5761157a617a43565b5b600281111561158d5761158c617a43565b5b81526020016001820180546115a190618dff565b80601f01602080910402602001604051908101604052809291908181526020018280546115cd90618dff565b801561161a5780601f106115ef5761010080835404028352916020019161161a565b820191906000526020600020905b8154815290600101906020018083116115fd57829003601f168201915b505050505081526020016002820160009054906101000a900467ffffffffffffffff1667ffffffffffffffff1667ffffffffffffffff1681526020016003820154815260200160048201548152602001600582015481526020016006820160009054906101000a900461ffff1661ffff1661ffff16815260200160078201548152602001600882015481525050905060008160800151036116e7576040517f3688124a00000000000000000000000000000000000000000000000000000000815260040160405180910390fd5b8060e0015161ffff168160c001516116ff9190618e30565b431015611741576040517f08c379a000000000000000000000000000000000000000000000000000000000815260040161173890618ee3565b60405180910390fd5b8060a00151861415801561176957506008600101548160c001516117659190618e30565b4311155b156117a0576040517ff06e777a00000000000000000000000000000000000000000000000000000000815260040160405180910390fd5b60025486106117e4576040517f08c379a00000000000000000000000000000000000000000000000000000000081526004016117db90618f4f565b60405180910390fd5b6117ed846138e9565b611823576040517f8529df1f00000000000000000000000000000000000000000000000000000000815260040160405180910390fd5b600083510361185e576040517f8bdcc37500000000000000000000000000000000000000000000000000000000815260040160405180910390fd5b6000600360008881526020019081526020016000209050611907816005018054806020026020016040519081016040528092919081815260200182805480156118fc57602002820191906000526020600020905b8160009054906101000a900473ffffffffffffffffffffffffffffffffffffffff1673ffffffffffffffffffffffffffffffffffffffff16815260200190600101908083116118b2575b505050505033613966565b61193d576040517fd9ce719d00000000000000000000000000000000000000000000000000000000815260040160405180910390fd5b600082608001518360c0015160405160200161195a929190618f90565b60405160208183030381529060405290506000611976826139ed565b90506119ca61198488613a55565b846008016004806020026040519081016040528092919082600480156119bf576020028201915b8154815260200190600101908083116119ab575b505050505083613b74565b611a00576040517f8baa579f00000000000000000000000000000000000000000000000000000000815260040160405180910390fd5b6000865167ffffffffffffffff811115611a1d57611a1c61764d565b5b604051908082528060200260200182016040528015611a5657816020015b611a436172ca565b815260200190600190039081611a3b5790505b5090506000875167ffffffffffffffff811115611a7657611a7561764d565b5b604051908082528060200260200182016040528015611aaf57816020015b611a9c6172ec565b815260200190600190039081611a945790505b5090506000885167ffffffffffffffff811115611acf57611ace61764d565b5b604051908082528060200260200182016040528015611afd5781602001602082028036833780820191505090505b50905060005b8951811015611d1357611b338a8281518110611b2257611b21618d2a565b5b6020026020010151602001516138e9565b611b69576040517fd70936fa00000000000000000000000000000000000000000000000000000000815260040160405180910390fd5b611b908a8281518110611b7f57611b7e618d2a565b5b602002602001015160200151613a55565b848281518110611ba357611ba2618d2a565b5b6020026020010181905250866004018a8281518110611bc557611bc4618d2a565b5b60200260200101516000015181548110611be257611be1618d2a565b5b9060005260206000209060050201600101600480602002604051908101604052809291908260048015611c2a576020028201915b815481526020019060010190808311611c16575b5050505050838281518110611c4257611c41618d2a565b5b6020026020010181905250866004018a8281518110611c6457611c63618d2a565b5b60200260200101516000015181548110611c8157611c80618d2a565b5b906000526020600020906005020160000160009054906101000a900473ffffffffffffffffffffffffffffffffffffffff16828281518110611cc657611cc5618d2a565b5b602002602001019073ffffffffffffffffffffffffffffffffffffffff16908173ffffffffffffffffffffffffffffffffffffffff16815250508080611d0b90618d88565b915050611b03565b50611d1f838386613d9b565b611d55576040517f9c2d1c6d00000000000000000000000000000000000000000000000000000000815260040160405180910390fd5b60008a604051602001611d689190617544565b6040516020818303038152906040528051906020012060001c905080600681905550611d978c828f8c8c614041565b5050611da282614865565b50505050505050505050505050565b611db961730e565b600d6000838152602001908152602001600020604051806101400160405290816000820160009054906101000a900473ffffffffffffffffffffffffffffffffffffffff1673ffffffffffffffffffffffffffffffffffffffff1673ffffffffffffffffffffffffffffffffffffffff1681526020016000820160149054906101000a900460ff166002811115611e5357611e52617a43565b5b6002811115611e6557611e64617a43565b5b8152602001600182018054611e7990618dff565b80601f0160208091040260200160405190810160405280929190818152602001828054611ea590618dff565b8015611ef25780601f10611ec757610100808354040283529160200191611ef2565b820191906000526020600020905b815481529060010190602001808311611ed557829003601f168201915b505050505081526020016002820160009054906101000a900467ffffffffffffffff1667ffffffffffffffff1667ffffffffffffffff1681526020016003820154815260200160048201548152602001600582015481526020016006820160009054906101000a900461ffff1661ffff1661ffff168152602001600782015481526020016008820154815250509050919050565b60008060009054906101000a900473ffffffffffffffffffffffffffffffffffffffff16905090565b60025481565b60036020528060005260406000206000915090508060000154908060010154908060020154908060030154908060070160009054906101000a900460ff16905085565b60065481565b600080612009614958565b90506000811361205057806040517f09d2037f00000000000000000000000000000000000000000000000000000000815260040161204791906189f4565b60405180910390fd5b6000815a88886120609190618e30565b61206a9190618fbc565b85670de0b6b3a764000061207e9190618ff0565b6120889190618ff0565b6120929190619079565b905060008563ffffffff1664e8d4a510006120ad9190618ff0565b9050806b04d8c55aefb8c05b5c0000006120c79190618fbc565b821115612100576040517fe80fa38100000000000000000000000000000000000000000000000000000000815260040160405180910390fd5b808261210c9190618e30565b9350505050949350505050565b6000600860000160069054906101000a900460ff1615612165576040517fed3ba6a600000000000000000000000000000000000000000000000000000000815260040160405180910390fd5b6010600081819054906101000a900467ffffffffffffffff168092919061218b906190aa565b91906101000a81548167ffffffffffffffff021916908367ffffffffffffffff1602179055505033600f6000601060009054906101000a900467ffffffffffffffff1667ffffffffffffffff1667ffffffffffffffff16815260200190815260200160002060000160006101000a81548173ffffffffffffffffffffffffffffffffffffffff021916908373ffffffffffffffffffffffffffffffffffffffff160217905550601060009054906101000a900467ffffffffffffffff1667ffffffffffffffff167f464722b4166576d3dcbba877b999bc35cf911f4eaf434b7eba68fa113951d0bf33604051612281919061802b565b60405180910390a2601060009054906101000a900467ffffffffffffffff16905090565b6000806000806060600073ffffffffffffffffffffffffffffffffffffffff16600f60008867ffffffffffffffff1667ffffffffffffffff16815260200190815260200160002060000160009054906101000a900473ffffffffffffffffffffffffffffffffffffffff1673ffffffffffffffffffffffffffffffffffffffff160361235d576040517f1f6a65b600000000000000000000000000000000000000000000000000000000815260040160405180910390fd5b600f60008767ffffffffffffffff1667ffffffffffffffff16815260200190815260200160002060030160009054906101000a90046bffffffffffffffffffffffff16600f60008867ffffffffffffffff1667ffffffffffffffff168152602001908152602001600020600301600c9054906101000a90046bffffffffffffffffffffffff16600f60008967ffffffffffffffff1667ffffffffffffffff16815260200190815260200160002060050160009054906101000a900467ffffffffffffffff16600f60008a67ffffffffffffffff1667ffffffffffffffff16815260200190815260200160002060000160009054906101000a900473ffffffffffffffffffffffffffffffffffffffff16600f60008b67ffffffffffffffff1667ffffffffffffffff1681526020019081526020016000206002018080548060200260200160405190810160405280929190818152602001828054801561251857602002820191906000526020600020905b8160009054906101000a900473ffffffffffffffffffffffffffffffffffffffff1673ffffffffffffffffffffffffffffffffffffffff16815260200190600101908083116124ce575b505050505090509450945094509450945091939590929450565b60008061253d614958565b90506000811361258457806040517f09d2037f00000000000000000000000000000000000000000000000000000000815260040161257b91906189f4565b60405180910390fd5b60008187876125939190618e30565b85670de0b6b3a76400006125a79190618ff0565b6125b19190618ff0565b6125bb9190619079565b905060008563ffffffff1664e8d4a510006125d69190618ff0565b905080826125e49190618e30565b9350505050949350505050565b6125f9617397565b60036000838152602001908152602001600020604051806101200160405290816000820154815260200160018201548152602001600282015481526020016003820154815260200160048201805480602002602001604051908101604052809291908181526020016000905b8282101561273257838290600052602060002090600502016040518060400160405290816000820160009054906101000a900473ffffffffffffffffffffffffffffffffffffffff1673ffffffffffffffffffffffffffffffffffffffff1673ffffffffffffffffffffffffffffffffffffffff1681526020016001820160048060200260405190810160405280929190826004801561271a576020028201915b815481526020019060010190808311612706575b50505050508152505081526020019060010190612665565b505050508152602001600582018054806020026020016040519081016040528092919081815260200182805480156127bf57602002820191906000526020600020905b8160009054906101000a900473ffffffffffffffffffffffffffffffffffffffff1673ffffffffffffffffffffffffffffffffffffffff1681526020019060010190808311612775575b5050505050815260200160068201805480602002602001604051908101604052809291908181526020016000905b8282101561299e57838290600052602060002090600702016040518060400160405290816000820180548060200260200160405190810160405280929190818152602001828054801561289557602002820191906000526020600020905b8160009054906101000a900473ffffffffffffffffffffffffffffffffffffffff1673ffffffffffffffffffffffffffffffffffffffff168152602001906001019080831161284b575b505050505081526020016001820160405180606001604052908160008201548152602001600182016004806020026040519081016040528092919082600480156128f4576020028201915b8154815260200190600101908083116128e0575b505050505081526020016005820180548060200260200160405190810160405280929190818152602001828054801561298257602002820191906000526020600020905b8160009054906101000a900473ffffffffffffffffffffffffffffffffffffffff1673ffffffffffffffffffffffffffffffffffffffff1681526020019060010190808311612938575b50505050508152505081525050815260200190600101906127ed565b5050505081526020016007820160009054906101000a900460ff16151515158152602001600882016004806020026040519081016040528092919082600480156129fd576020028201915b8154815260200190600101908083116129e9575b5050505050815250509050919050565b7f000000000000000000000000000000000000000000000000000000000000000081565b600080600c604051806101200160405290816000820160009054906101000a900463ffffffff1663ffffffff1663ffffffff1681526020016000820160049054906101000a900463ffffffff1663ffffffff1663ffffffff1681526020016000820160089054906101000a900463ffffffff1663ffffffff1663ffffffff16815260200160008201600c9054906101000a900463ffffffff1663ffffffff1663ffffffff1681526020016000820160109054906101000a900463ffffffff1663ffffffff1663ffffffff1681526020016000820160149054906101000a900462ffffff1662ffffff1662ffffff1681526020016000820160179054906101000a900462ffffff1662ffffff1662ffffff16815260200160008201601a9054906101000a900462ffffff1662ffffff1662ffffff16815260200160008201601d9054906101000a900462ffffff1662ffffff1662ffffff168152505090508267ffffffffffffffff16600011158015612bbc57508060a0015162ffffff168367ffffffffffffffff1611155b15612bce578060000151915050612cad565b8267ffffffffffffffff168160a0015162ffffff16108015612c0357508060c0015162ffffff168367ffffffffffffffff1611155b15612c15578060200151915050612cad565b8267ffffffffffffffff168160c0015162ffffff16108015612c4a57508060e0015162ffffff168367ffffffffffffffff1611155b15612c5c578060400151915050612cad565b8267ffffffffffffffff168160e0015162ffffff16108015612c92575080610100015162ffffff168367ffffffffffffffff1611155b15612ca4578060600151915050612cad565b80608001519150505b919050565b600860000160069054906101000a900460ff1615612cfc576040517fed3ba6a600000000000000000000000000000000000000000000000000000000815260040160405180910390fd5b600073ffffffffffffffffffffffffffffffffffffffff16600f60008467ffffffffffffffff1667ffffffffffffffff16815260200190815260200160002060000160009054906101000a900473ffffffffffffffffffffffffffffffffffffffff1673ffffffffffffffffffffffffffffffffffffffff1603612dac576040517f1f6a65b600000000000000000000000000000000000000000000000000000000815260040160405180910390fd5b612df93330837f000000000000000000000000000000000000000000000000000000000000000073ffffffffffffffffffffffffffffffffffffffff16614a55909392919063ffffffff16565b6000600f60008467ffffffffffffffff1667ffffffffffffffff16815260200190815260200160002060030160009054906101000a90046bffffffffffffffffffffffff166bffffffffffffffffffffffff16905081600f60008567ffffffffffffffff1667ffffffffffffffff16815260200190815260200160002060030160008282829054906101000a90046bffffffffffffffffffffffff16612e9f91906190da565b92506101000a8154816bffffffffffffffffffffffff02191690836bffffffffffffffffffffffff1602179055508267ffffffffffffffff167fd39ec07f4e209f627a4c427971473820dc129761ba28de8906bd56f57101d4f8828484612f069190618e30565b604051612f1492919061911c565b60405180910390a2505050565b612f296137a7565b600073ffffffffffffffffffffffffffffffffffffffff168173ffffffffffffffffffffffffffffffffffffffff1603612f98576040517f08c379a0000000000000000000000000000000000000000000000000000000008152600401612f8f906191b7565b60405180910390fd5b612fa181613825565b50565b60003273ffffffffffffffffffffffffffffffffffffffff163373ffffffffffffffffffffffffffffffffffffffff1603613014576040517fc26368fd00000000000000000000000000000000000000000000000000000000815260040161300b9061926f565b60405180910390fd5b600073ffffffffffffffffffffffffffffffffffffffff16600f6000846040015167ffffffffffffffff1667ffffffffffffffff16815260200190815260200160002060000160009054906101000a900473ffffffffffffffffffffffffffffffffffffffff1673ffffffffffffffffffffffffffffffffffffffff16036130c8576040517f1f6a65b600000000000000000000000000000000000000000000000000000000815260040160405180910390fd5b6000600e60003373ffffffffffffffffffffffffffffffffffffffff1673ffffffffffffffffffffffffffffffffffffffff1681526020019081526020016000206000016000846040015167ffffffffffffffff1667ffffffffffffffff16815260200190815260200160002060009054906101000a900467ffffffffffffffff16905060008167ffffffffffffffff16036131a1578260400151336040517ff0019fe600000000000000000000000000000000000000000000000000000000815260040161319892919061928f565b60405180910390fd5b60006131ab614ade565b9050806005819055506000600e60003373ffffffffffffffffffffffffffffffffffffffff1673ffffffffffffffffffffffffffffffffffffffff1681526020019081526020016000206000016000866040015167ffffffffffffffff1667ffffffffffffffff16815260200190815260200160002060009054906101000a900467ffffffffffffffff16905060006132538660600151338467ffffffffffffffff16614b7e565b90506001600e60003373ffffffffffffffffffffffffffffffffffffffff1673ffffffffffffffffffffffffffffffffffffffff1681526020019081526020016000206000016000886040015167ffffffffffffffff1667ffffffffffffffff16815260200190815260200160002060008282829054906101000a900467ffffffffffffffff166132e491906192b8565b92506101000a81548167ffffffffffffffff021916908367ffffffffffffffff160217905550600061331582614bb7565b90506000600f6000896040015167ffffffffffffffff1667ffffffffffffffff16815260200190815260200160002060050160009054906101000a900467ffffffffffffffff16905060006133a38960a001516008600001600f9054906101000a900463ffffffff1663ffffffff1661339960018661339491906192b8565b612a31565b8c60c00151612532565b9050806bffffffffffffffffffffffff16600f60008b6040015167ffffffffffffffff1667ffffffffffffffff168152602001908152602001600020600301600c9054906101000a90046bffffffffffffffffffffffff16600f60008c6040015167ffffffffffffffff1667ffffffffffffffff16815260200190815260200160002060030160009054906101000a90046bffffffffffffffffffffffff1661344c91906192f6565b6bffffffffffffffffffffffff161015613492576040517f8894bd5e00000000000000000000000000000000000000000000000000000000815260040160405180910390fd5b80600f60008b6040015167ffffffffffffffff1667ffffffffffffffff168152602001908152602001600020600301600c8282829054906101000a90046bffffffffffffffffffffffff166134e791906190da565b92506101000a8154816bffffffffffffffffffffffff02191690836bffffffffffffffffffffffff16021790555080600f60008b6040015167ffffffffffffffff1667ffffffffffffffff168152602001908152602001600020600401600085815260200190815260200160002060006101000a8154816bffffffffffffffffffffffff02191690836bffffffffffffffffffffffff160217905550600073ffffffffffffffffffffffffffffffffffffffff16600d600085815260200190815260200160002060000160009054906101000a900473ffffffffffffffffffffffffffffffffffffffff1673ffffffffffffffffffffffffffffffffffffffff16146135f6576135f561932a565b5b6000600d60008581526020019081526020016000209050338160000160006101000a81548173ffffffffffffffffffffffffffffffffffffffff021916908373ffffffffffffffffffffffffffffffffffffffff16021790555089600001518160000160146101000a81548160ff0219169083600281111561367b5761367a617a43565b5b0217905550896020015181600101908161369591906194fb565b5089604001518160020160006101000a81548167ffffffffffffffff021916908367ffffffffffffffff16021790555084816003018190555086816004018190555043816005018190555089608001518160060160006101000a81548161ffff021916908361ffff1602179055508960a0015181600701819055508960c001518160080181905550867fa214dda13f90e3098f56c612a31d381b2fac7b48853bf49937773c47174dfe4785338460020160009054906101000a900467ffffffffffffffff1685600301548660060160009054906101000a900461ffff168760070154886008015460405161378f97969594939291906195cd565b60405180910390a28398505050505050505050919050565b6137af614be7565b73ffffffffffffffffffffffffffffffffffffffff166137cd611f86565b73ffffffffffffffffffffffffffffffffffffffff1614613823576040517f08c379a000000000000000000000000000000000000000000000000000000000815260040161381a90619688565b60405180910390fd5b565b60008060009054906101000a900473ffffffffffffffffffffffffffffffffffffffff169050816000806101000a81548173ffffffffffffffffffffffffffffffffffffffff021916908373ffffffffffffffffffffffffffffffffffffffff1602179055508173ffffffffffffffffffffffffffffffffffffffff168173ffffffffffffffffffffffffffffffffffffffff167f8be0079c531659141344cd1fd0a4f28419497f9722a3daafe3b4186f6b6457e060405160405180910390a35050565b6000807f3fffffffffffffffffffffffffffffffffffffffffffffffffffffffffffffff831690507f30644e72e131a029b85045b68181585d97816a916871ca8d3c208c16d87cfd478110613942576000915050613961565b60008103613954576000915050613961565b61395d81614bef565b9150505b919050565b600080600090505b83518110156139e1578273ffffffffffffffffffffffffffffffffffffffff168482815181106139a1576139a0618d2a565b5b602002602001015173ffffffffffffffffffffffffffffffffffffffff16036139ce5760019150506139e7565b80806139d990618d88565b91505061396e565b50600090505b92915050565b6139f56172ca565b600080838051906020012090505b600115613a4e57613a1381614cea565b809350819450505081613a4e5780604051602001613a3191906196c9565b604051602081830303815290604052805190602001209050613a03565b5050919050565b613a5d6172ca565b60007f3fffffffffffffffffffffffffffffffffffffffffffffffffffffffffffffff83169050600060fe84901c9050600180821603613ac9576040517f53f4c77c00000000000000000000000000000000000000000000000000000000815260040160405180910390fd5b6000613ad483614de8565b5080915050600160027f30644e72e131a029b85045b68181585d97816a916871ca8d3c208c16d87cfd47613b089190619079565b8211613b15576000613b18565b60015b60ff16600184901c1803613b5557807f30644e72e131a029b85045b68181585d97816a916871ca8d3c208c16d87cfd47613b529190618fbc565b90505b6040518060400160405280848152602001828152509350505050919050565b60008060405180610180016040528086600060028110613b9757613b96618d2a565b5b6020020151815260200186600160028110613bb557613bb4618d2a565b5b602002015181526020017f198e9393920d483a7260bfb731fb5d25f1aa493335a9e71297e485b7aef312c281526020017f1800deef121f1e76426a00665e5c4479674322d4f75edadd46debd5cd992f6ed81526020017f275dc4a288d1afb3cbb1ac09187524c7db36395df7be3b99e673b13a075a65ec81526020017f1d9befcd05a5323e6da4d435f3b617cdb3af83285c2df711ef39c01571827f9d815260200184600060028110613c6b57613c6a618d2a565b5b6020020151815260200184600160028110613c8957613c88618d2a565b5b6020020151815260200185600160048110613ca757613ca6618d2a565b5b6020020151815260200185600060048110613cc557613cc4618d2a565b5b6020020151815260200185600360048110613ce357613ce2618d2a565b5b6020020151815260200185600260048110613d0157613d00618d2a565b5b60200201518152509050613d136173eb565b60006020826101808560086107d05a03fa90508060008103613d3157fe5b5080613d72576040517f08c379a0000000000000000000000000000000000000000000000000000000008152600401613d699061970a565b60405180910390fd5b600082600060018110613d8857613d87618d2a565b5b6020020151141593505050509392505050565b6000613da56172ca565b613dad6172ec565b60005b8651811015613e1857613ddd83888381518110613dd057613dcf618d2a565b5b6020026020010151614e9d565b9250613e0382878381518110613df657613df5618d2a565b5b6020026020010151614fa9565b91508080613e1090618d88565b915050613db0565b50600060405180610180016040528084600060028110613e3b57613e3a618d2a565b5b6020020151815260200184600160028110613e5957613e58618d2a565b5b602002015181526020017f198e9393920d483a7260bfb731fb5d25f1aa493335a9e71297e485b7aef312c281526020017f1800deef121f1e76426a00665e5c4479674322d4f75edadd46debd5cd992f6ed81526020017f275dc4a288d1afb3cbb1ac09187524c7db36395df7be3b99e673b13a075a65ec81526020017f1d9befcd05a5323e6da4d435f3b617cdb3af83285c2df711ef39c01571827f9d815260200186600060028110613f0f57613f0e618d2a565b5b6020020151815260200186600160028110613f2d57613f2c618d2a565b5b6020020151815260200183600160048110613f4b57613f4a618d2a565b5b6020020151815260200183600060048110613f6957613f68618d2a565b5b6020020151815260200183600360048110613f8757613f86618d2a565b5b6020020151815260200183600260048110613fa557613fa4618d2a565b5b60200201518152509050613fb76173eb565b60006020826101808560086107d05a03fa90508060008103613fd557fe5b5080614016576040517f08c379a000000000000000000000000000000000000000000000000000000000815260040161400d9061970a565b60405180910390fd5b60008260006001811061402c5761402b618d2a565b5b60200201511415955050505050509392505050565b600080600060606000600281111561405c5761405b617a43565b5b8560200151600281111561407357614072617a43565b5b036140f7576394985ddd60e01b898960405160240161409392919061972a565b604051602081830303815290604052907bffffffffffffffffffffffffffffffffffffffffffffffffffffffff19166020820180517bffffffffffffffffffffffffffffffffffffffffffffffffffffffff83818316178352505050509050614365565b6001600281111561410b5761410a617a43565b5b8560200151600281111561412257614121617a43565b5b0361428757600085604001518060200190518101906141419190619768565b905060008163ffffffff1667ffffffffffffffff8111156141655761416461764d565b5b6040519080825280602002602001820160405280156141935781602001602082028036833780820191505090505b50905060005b8263ffffffff16811015614205578a816040516020016141ba92919061911c565b6040516020818303038152906040528051906020012060001c8282815181106141e6576141e5618d2a565b5b60200260200101818152505080806141fd90618d88565b915050614199565b506375bf929b60e01b8b82604051602401614221929190619795565b604051602081830303815290604052907bffffffffffffffffffffffffffffffffffffffffffffffffffffffff19166020820180517bffffffffffffffffffffffffffffffffffffffffffffffffffffffff838183161783525050505092505050614364565b60028081111561429a57614299617a43565b5b856020015160028111156142b1576142b0617a43565b5b0361436357600085604001518060200190518101906142d09190619768565b905060006142e48263ffffffff168b6150bc565b9050639e5836f660e01b8b82604051602401614301929190619795565b604051602081830303815290604052907bffffffffffffffffffffffffffffffffffffffffffffffffffffffff19166020820180517bffffffffffffffffffffffffffffffffffffffffffffffffffffffff8381831617835250505050925050505b5b5b600d60008a8152602001908152602001600020600080820160006101000a81549073ffffffffffffffffffffffffffffffffffffffff02191690556000820160146101000a81549060ff02191690556001820160006143c4919061740d565b6002820160006101000a81549067ffffffffffffffff02191690556003820160009055600482016000905560058201600090556006820160006101000a81549061ffff02191690556007820160009055600882016000905550506001600860000160066101000a81548160ff02191690831515021790555061445085610100015186600001518361522c565b92506000600860000160066101000a81548160ff0219169083151502179055506000600f6000876060015167ffffffffffffffff1667ffffffffffffffff16815260200190815260200160002060050160009054906101000a900467ffffffffffffffff1690506001600f6000886060015167ffffffffffffffff1667ffffffffffffffff16815260200190815260200160002060050160008282829054906101000a900467ffffffffffffffff1661450991906192b8565b92506101000a81548167ffffffffffffffff021916908367ffffffffffffffff16021790555061455e876008600001600b9054906101000a900463ffffffff1663ffffffff1661455884612a31565b3a611ffe565b9450846bffffffffffffffffffffffff16600f6000886060015167ffffffffffffffff1667ffffffffffffffff16815260200190815260200160002060030160009054906101000a90046bffffffffffffffffffffffff166bffffffffffffffffffffffff1610156145fc576040517f964d765f00000000000000000000000000000000000000000000000000000000815260040160405180910390fd5b600f6000876060015167ffffffffffffffff1667ffffffffffffffff16815260200190815260200160002060040160008b815260200190815260200160002060009054906101000a90046bffffffffffffffffffffffff16600f6000886060015167ffffffffffffffff1667ffffffffffffffff168152602001908152602001600020600301600c8282829054906101000a90046bffffffffffffffffffffffff166146a891906192f6565b92506101000a8154816bffffffffffffffffffffffff02191690836bffffffffffffffffffffffff160217905550600f6000876060015167ffffffffffffffff1667ffffffffffffffff16815260200190815260200160002060040160008b815260200190815260200160002060006101000a8154906bffffffffffffffffffffffff021916905584600f6000886060015167ffffffffffffffff1667ffffffffffffffff16815260200190815260200160002060030160008282829054906101000a90046bffffffffffffffffffffffff1661478591906192f6565b92506101000a8154816bffffffffffffffffffffffff02191690836bffffffffffffffffffffffff16021790555084601160008a815260200190815260200160002060008282829054906101000a90046bffffffffffffffffffffffff166147ed91906190da565b92506101000a8154816bffffffffffffffffffffffff02191690836bffffffffffffffffffffffff1602179055507ff57e21eb5ebe86bb8ba5bd69b50e9e472325fc67fb2ea4cae3b32be1472899398a8a878760405161485094939291906197f6565b60405180910390a15050509550959350505050565b600860030154600460003373ffffffffffffffffffffffffffffffffffffffff1673ffffffffffffffffffffffffffffffffffffffff16815260200190815260200160002060008282546148b99190618e30565b9250508190555060005b815181101561495457600860020154600460008484815181106148e9576148e8618d2a565b5b602002602001015173ffffffffffffffffffffffffffffffffffffffff1673ffffffffffffffffffffffffffffffffffffffff168152602001908152602001600020600082825461493a9190618e30565b92505081905550808061494c90618d88565b9150506148c3565b5050565b600080600860000160079054906101000a900463ffffffff1690506000808263ffffffff161190506000807f000000000000000000000000000000000000000000000000000000000000000073ffffffffffffffffffffffffffffffffffffffff1663feaf968c6040518163ffffffff1660e01b815260040160a060405180830381865afa1580156149ee573d6000803e3d6000fd5b505050506040513d601f19601f82011682018060405250810190614a1291906198a7565b9091929350909150508093508192505050828015614a4057508142614a379190618fbc565b8463ffffffff16105b15614a4b5760075490505b8094505050505090565b614ad8846323b872dd60e01b858585604051602401614a7693929190619922565b604051602081830303815290604052907bffffffffffffffffffffffffffffffffffffffffffffffffffffffff19166020820180517bffffffffffffffffffffffffffffffffffffffffffffffffffffffff8381831617835250505050615279565b50505050565b600080614ae9610971565b90506000815103614b26576040517f6905ab6700000000000000000000000000000000000000000000000000000000815260040160405180910390fd5b60006002546001600554614b3a9190618e30565b614b449190619959565b90505b614b518282615340565b614b7657600254600182614b659190618e30565b614b6f9190619959565b9050614b47565b809250505090565b6000838383604051602001614b959392919061998a565b6040516020818303038152906040528051906020012060001c90509392505050565b600081604051602001614bca91906199c1565b604051602081830303815290604052805190602001209050919050565b600033905090565b600080827f30644e72e131a029b85045b68181585d97816a916871ca8d3c208c16d87cfd478182097f30644e72e131a029b85045b68181585d97816a916871ca8d3c208c16d87cfd4782820990507f30644e72e131a029b85045b68181585d97816a916871ca8d3c208c16d87cfd4760038208905060405160208152602080820152602060408201528160608201527f183227397098d014dc2822db40c0ac2ecbc0b548b438e5469e10460b6c3e7ea360808201527f30644e72e131a029b85045b68181585d97816a916871ca8d3c208c16d87cfd4760a082015260208160c08360056107d05a03fa93508051600114945050505050919050565b614cf26172ca565b60008060007f30644e72e131a029b85045b68181585d97816a916871ca8d3c208c16d87cfd478560001c614d269190619959565b9050614d3181614de8565b80945081935050508215614de1578084600060028110614d5457614d53618d2a565b5b60200201818152505060027f30644e72e131a029b85045b68181585d97816a916871ca8d3c208c16d87cfd47614d8a9190619079565b8211614d965781614dc3565b817f30644e72e131a029b85045b68181585d97816a916871ca8d3c208c16d87cfd47614dc29190618fbc565b5b84600160028110614dd757614dd6618d2a565b5b6020020181815250505b5050915091565b60008060007f30644e72e131a029b85045b68181585d97816a916871ca8d3c208c16d87cfd4780614e1c57614e1b61904a565b5b84850990507f30644e72e131a029b85045b68181585d97816a916871ca8d3c208c16d87cfd4780614e5057614e4f61904a565b5b84820990507f30644e72e131a029b85045b68181585d97816a916871ca8d3c208c16d87cfd4780614e8457614e8361904a565b5b600382089050614e938161539b565b9250925050915091565b614ea56172ca565b614ead6172ec565b83600060028110614ec157614ec0618d2a565b5b602002015181600060048110614eda57614ed9618d2a565b5b60200201818152505083600160028110614ef757614ef6618d2a565b5b602002015181600160048110614f1057614f0f618d2a565b5b60200201818152505082600060028110614f2d57614f2c618d2a565b5b602002015181600260048110614f4657614f45618d2a565b5b60200201818152505082600160028110614f6357614f62618d2a565b5b602002015181600360048110614f7c57614f7b618d2a565b5b602002018181525050600060608360c08460066107d05a03fa905080614fa157600080fd5b505092915050565b614fb16172ec565b60008060008061508787600060048110614fce57614fcd618d2a565b5b602002015188600160048110614fe757614fe6618d2a565b5b60200201518960026004811061500057614fff618d2a565b5b60200201518a60036004811061501957615018618d2a565b5b60200201518a60006004811061503257615031618d2a565b5b60200201518b60016004811061504b5761504a618d2a565b5b60200201518c60026004811061506457615063618d2a565b5b60200201518d60036004811061507d5761507c618d2a565b5b6020020151615489565b935093509350935060405180608001604052808581526020018481526020018381526020018281525094505050505092915050565b606060008367ffffffffffffffff8111156150da576150d961764d565b5b6040519080825280602002602001820160405280156151085781602001602082028036833780820191505090505b50905060005b84811015615149578082828151811061512a57615129618d2a565b5b602002602001018181525050808061514190618d88565b91505061510e565b506000815190506000805b600083615160906199dc565b935083111561521f5782866151759190619959565b9150856040516020016151889190617544565b6040516020818303038152906040528051906020012060001c95508383815181106151b6576151b5618d2a565b5b602002602001015190508382815181106151d3576151d2618d2a565b5b60200260200101518484815181106151ee576151ed618d2a565b5b6020026020010181815250508084838151811061520e5761520d618d2a565b5b602002602001018181525050615154565b8394505050505092915050565b60005a61138881101561523e57600080fd5b61138881039050846040820482031161525657600080fd5b833b61526157600080fd5b6000808451602086016000888af19150509392505050565b60006152db826040518060400160405280602081526020017f5361666545524332303a206c6f772d6c6576656c2063616c6c206661696c65648152508573ffffffffffffffffffffffffffffffffffffffff166156c99092919063ffffffff16565b905060008151111561533b57808060200190518101906152fb9190619a31565b61533a576040517f08c379a000000000000000000000000000000000000000000000000000000000815260040161533190619ad0565b60405180910390fd5b5b505050565b600080600090505b835181101561538f578284828151811061536557615364618d2a565b5b60200260200101510361537c576001915050615395565b808061538790618d88565b915050615348565b50600090505b92915050565b600080600060405160208152602080820152602060408201528460608201527f0c19139cb84c680a6e14116da060561765e05aa45a1c72a34f082305b61f3f5260808201527f30644e72e131a029b85045b68181585d97816a916871ca8d3c208c16d87cfd4760a082015260208160c08360056107d05a03fa9150805193507f30644e72e131a029b85045b68181585d97816a916871ca8d3c208c16d87cfd47848509851492505080615483576040517f08c379a000000000000000000000000000000000000000000000000000000000815260040161547a90619b3c565b60405180910390fd5b50915091565b60008060008060008c14801561549f575060008b145b80156154ab575060008a145b80156154b75750600089145b15615513576000881480156154cc5750600087145b80156154d85750600086145b80156154e45750600085145b615502576154f4888888886156e1565b6155015761550061932a565b5b5b8787878793509350935093506156ba565b6000881480156155235750600087145b801561552f5750600086145b801561553b5750600085145b1561556a5761554c8c8c8c8c6156e1565b6155595761555861932a565b5b8b8b8b8b93509350935093506156ba565b6155768c8c8c8c6156e1565b6155835761558261932a565b5b61558f888888886156e1565b61559c5761559b61932a565b5b60006040518060c001604052808e81526020018d81526020018c81526020018b8152602001600181526020016000815250905060006040518060c001604052808b81526020018a81526020018981526020018881526020016001815260200160008152509050600061560e83836157aa565b90506156ae8160006006811061562757615626618d2a565b5b6020020151826001600681106156405761563f618d2a565b5b60200201518360026006811061565957615658618d2a565b5b60200201518460036006811061567257615671618d2a565b5b60200201518560046006811061568b5761568a618d2a565b5b6020020151866005600681106156a4576156a3618d2a565b5b6020020151616b38565b96509650965096505050505b98509850985098945050505050565b60606156d88484600085616b8a565b90509392505050565b60008060008060006156f587878989616c57565b809450819550505061570989898b8b616c57565b809250819350505061571d82828b8b616c57565b809250819350505061573184848484616d88565b809450819550505061578484847f2b149d40ceb8aaae81be18991be06ac3b5b4c5e559dbefa33267e6dc24a138e57e9713b03af0fed4cd2cafadeed8fdf4a74fa084e52d1852e4a2bd0685c315d2616d88565b809450819550505060008414801561579c5750600083145b945050505050949350505050565b6157b261744d565b6000836004600681106157c8576157c7618d2a565b5b60200201511480156157f257506000836005600681106157eb576157ea618d2a565b5b6020020151145b15615940578160006006811061580b5761580a618d2a565b5b60200201518260016006811061582457615823618d2a565b5b60200201518360026006811061583d5761583c618d2a565b5b60200201518460036006811061585657615855618d2a565b5b60200201518560046006811061586f5761586e618d2a565b5b60200201518660056006811061588857615887618d2a565b5b6020020151866000600681106158a1576158a0618d2a565b5b60200201876001600681106158b9576158b8618d2a565b5b60200201886002600681106158d1576158d0618d2a565b5b60200201896003600681106158e9576158e8618d2a565b5b602002018a60046006811061590157615900618d2a565b5b602002018b60056006811061591957615918618d2a565b5b60200201868152508681525086815250868152508681525086815250505050505050616b32565b60008260046006811061595657615955618d2a565b5b6020020151148015615980575060008260056006811061597957615978618d2a565b5b6020020151145b15615ace578260006006811061599957615998618d2a565b5b6020020151836001600681106159b2576159b1618d2a565b5b6020020151846002600681106159cb576159ca618d2a565b5b6020020151856003600681106159e4576159e3618d2a565b5b6020020151866004600681106159fd576159fc618d2a565b5b602002015187600560068110615a1657615a15618d2a565b5b602002015186600060068110615a2f57615a2e618d2a565b5b6020020187600160068110615a4757615a46618d2a565b5b6020020188600260068110615a5f57615a5e618d2a565b5b6020020189600360068110615a7757615a76618d2a565b5b602002018a600460068110615a8f57615a8e618d2a565b5b602002018b600560068110615aa757615aa6618d2a565b5b60200201868152508681525086815250868152508681525086815250505050505050616b32565b615b3a82600260068110615ae557615ae4618d2a565b5b602002015183600360068110615afe57615afd618d2a565b5b602002015185600460068110615b1757615b16618d2a565b5b602002015186600560068110615b3057615b2f618d2a565b5b6020020151616c57565b83600260068110615b4e57615b4d618d2a565b5b6020020184600360068110615b6657615b65618d2a565b5b6020020182815250828152505050615be083600260068110615b8b57615b8a618d2a565b5b602002015184600360068110615ba457615ba3618d2a565b5b602002015184600460068110615bbd57615bbc618d2a565b5b602002015185600560068110615bd657615bd5618d2a565b5b6020020151616c57565b82600260068110615bf457615bf3618d2a565b5b6020020183600360068110615c0c57615c0b618d2a565b5b6020020182815250828152505050615c8682600060068110615c3157615c30618d2a565b5b602002015183600160068110615c4a57615c49618d2a565b5b602002015185600460068110615c6357615c62618d2a565b5b602002015186600560068110615c7c57615c7b618d2a565b5b6020020151616c57565b83600060068110615c9a57615c99618d2a565b5b6020020184600160068110615cb257615cb1618d2a565b5b6020020182815250828152505050615d2c83600060068110615cd757615cd6618d2a565b5b602002015184600160068110615cf057615cef618d2a565b5b602002015184600460068110615d0957615d08618d2a565b5b602002015185600560068110615d2257615d21618d2a565b5b6020020151616c57565b82600460068110615d4057615d3f618d2a565b5b6020020183600560068110615d5857615d57618d2a565b5b602002018281525082815250505080600460068110615d7a57615d79618d2a565b5b602002015182600060068110615d9357615d92618d2a565b5b6020020151148015615dd4575080600560068110615db457615db3618d2a565b5b602002015182600160068110615dcd57615dcc618d2a565b5b6020020151145b1561605b5780600260068110615ded57615dec618d2a565b5b602002015182600260068110615e0657615e05618d2a565b5b6020020151148015615e47575080600360068110615e2757615e26618d2a565b5b602002015182600360068110615e4057615e3f618d2a565b5b6020020151145b15615f9d57615eea83600060068110615e6357615e62618d2a565b5b602002015184600160068110615e7c57615e7b618d2a565b5b602002015185600260068110615e9557615e94618d2a565b5b602002015186600360068110615eae57615ead618d2a565b5b602002015187600460068110615ec757615ec6618d2a565b5b602002015188600560068110615ee057615edf618d2a565b5b6020020151616dee565b86600060068110615efe57615efd618d2a565b5b6020020187600160068110615f1657615f15618d2a565b5b6020020188600260068110615f2e57615f2d618d2a565b5b6020020189600360068110615f4657615f45618d2a565b5b602002018a600460068110615f5e57615f5d618d2a565b5b602002018b600560068110615f7657615f75618d2a565b5b60200201868152508681525086815250868152508681525086815250505050505050616b32565b600160006001600080600086600060068110615fbc57615fbb618d2a565b5b6020020187600160068110615fd457615fd3618d2a565b5b6020020188600260068110615fec57615feb618d2a565b5b602002018960036006811061600457616003618d2a565b5b602002018a60046006811061601c5761601b618d2a565b5b602002018b60056006811061603457616033618d2a565b5b60200201868152508681525086815250868152508681525086815250505050505050616b32565b6160c78360046006811061607257616071618d2a565b5b60200201518460056006811061608b5761608a618d2a565b5b6020020151846004600681106160a4576160a3618d2a565b5b6020020151856005600681106160bd576160bc618d2a565b5b6020020151616c57565b836004600681106160db576160da618d2a565b5b60200201846005600681106160f3576160f2618d2a565b5b602002018281525082815250505061616d8260026006811061611857616117618d2a565b5b60200201518360036006811061613157616130618d2a565b5b60200201518360026006811061614a57616149618d2a565b5b60200201518460036006811061616357616162618d2a565b5b6020020151616d88565b8460006006811061618157616180618d2a565b5b602002018560016006811061619957616198618d2a565b5b6020020182815250828152505050616213826000600681106161be576161bd618d2a565b5b6020020151836001600681106161d7576161d6618d2a565b5b6020020151836004600681106161f0576161ef618d2a565b5b60200201518460056006811061620957616208618d2a565b5b6020020151616d88565b8460026006811061622757616226618d2a565b5b602002018560036006811061623f5761623e618d2a565b5b60200201828152508281525050506162b98360026006811061626457616263618d2a565b5b60200201518460036006811061627d5761627c618d2a565b5b60200201518560026006811061629657616295618d2a565b5b6020020151866003600681106162af576162ae618d2a565b5b6020020151616c57565b846004600681106162cd576162cc618d2a565b5b60200201856005600681106162e5576162e4618d2a565b5b602002018281525082815250505061635f8360046006811061630a57616309618d2a565b5b60200201518460056006811061632357616322618d2a565b5b60200201518360046006811061633c5761633b618d2a565b5b60200201518460056006811061635557616354618d2a565b5b6020020151616c57565b8360026006811061637357616372618d2a565b5b602002018460036006811061638b5761638a618d2a565b5b6020020182815250828152505050616405836004600681106163b0576163af618d2a565b5b6020020151846005600681106163c9576163c8618d2a565b5b6020020151856002600681106163e2576163e1618d2a565b5b6020020151866003600681106163fb576163fa618d2a565b5b6020020151616c57565b8460046006811061641957616418618d2a565b5b602002018560056006811061643157616430618d2a565b5b60200201828152508281525050506164ab8360046006811061645657616455618d2a565b5b60200201518460056006811061646f5761646e618d2a565b5b60200201518460046006811061648857616487618d2a565b5b6020020151856005600681106164a1576164a0618d2a565b5b6020020151616c57565b826004600681106164bf576164be618d2a565b5b60200201836005600681106164d7576164d6618d2a565b5b6020020182815250828152505050616551836000600681106164fc576164fb618d2a565b5b60200201518460016006811061651557616514618d2a565b5b60200201518560006006811061652e5761652d618d2a565b5b60200201518660016006811061654757616546618d2a565b5b6020020151616c57565b8360006006811061656557616564618d2a565b5b602002018460016006811061657d5761657c618d2a565b5b60200201828152508281525050506165f7826000600681106165a2576165a1618d2a565b5b6020020151836001600681106165bb576165ba618d2a565b5b6020020151846004600681106165d4576165d3618d2a565b5b6020020151856005600681106165ed576165ec618d2a565b5b6020020151616c57565b8360006006811061660b5761660a618d2a565b5b602002018460016006811061662357616622618d2a565b5b602002018281525082815250505061669d8260006006811061664857616647618d2a565b5b60200201518360016006811061666157616660618d2a565b5b60200201518560046006811061667a57616679618d2a565b5b60200201518660056006811061669357616692618d2a565b5b6020020151616d88565b836000600681106166b1576166b0618d2a565b5b60200201846001600681106166c9576166c8618d2a565b5b6020020182815250828152505050616713826002600681106166ee576166ed618d2a565b5b60200201518360036006811061670757616706618d2a565b5b60200201516002616f96565b8360046006811061672757616726618d2a565b5b602002018460056006811061673f5761673e618d2a565b5b60200201828152508281525050506167b98260006006811061676457616763618d2a565b5b60200201518360016006811061677d5761677c618d2a565b5b60200201518460046006811061679657616795618d2a565b5b6020020151856005600681106167af576167ae618d2a565b5b6020020151616d88565b836000600681106167cd576167cc618d2a565b5b60200201846001600681106167e5576167e4618d2a565b5b602002018281525082815250505061685f8360026006811061680a57616809618d2a565b5b60200201518460036006811061682357616822618d2a565b5b60200201518460006006811061683c5761683b618d2a565b5b60200201518560016006811061685557616854618d2a565b5b6020020151616c57565b8260006006811061687357616872618d2a565b5b602002018360016006811061688b5761688a618d2a565b5b6020020182815250828152505050616905826002600681106168b0576168af618d2a565b5b6020020151836003600681106168c9576168c8618d2a565b5b6020020151846000600681106168e2576168e1618d2a565b5b6020020151856001600681106168fb576168fa618d2a565b5b6020020151616d88565b8460026006811061691957616918618d2a565b5b602002018560036006811061693157616930618d2a565b5b60200201828152508281525050506169ab8360006006811061695657616955618d2a565b5b60200201518460016006811061696f5761696e618d2a565b5b60200201518560026006811061698857616987618d2a565b5b6020020151866003600681106169a1576169a0618d2a565b5b6020020151616c57565b846002600681106169bf576169be618d2a565b5b60200201856003600681106169d7576169d6618d2a565b5b6020020182815250828152505050616a51836004600681106169fc576169fb618d2a565b5b602002015184600560068110616a1557616a14618d2a565b5b602002015183600260068110616a2e57616a2d618d2a565b5b602002015184600360068110616a4757616a46618d2a565b5b6020020151616c57565b84600060068110616a6557616a64618d2a565b5b6020020185600160068110616a7d57616a7c618d2a565b5b6020020182815250828152505050616af783600260068110616aa257616aa1618d2a565b5b602002015184600360068110616abb57616aba618d2a565b5b602002015185600060068110616ad457616ad3618d2a565b5b602002015186600160068110616aed57616aec618d2a565b5b6020020151616d88565b82600260068110616b0b57616b0a618d2a565b5b6020020183600360068110616b2357616b22618d2a565b5b60200201828152508281525050505b92915050565b600080600080600080616b4b8888617009565b8092508193505050616b5f8c8c8484616c57565b8096508197505050616b738a8a8484616c57565b809450819550505050509650965096509692505050565b606082471015616bcf576040517f08c379a0000000000000000000000000000000000000000000000000000000008152600401616bc690619bce565b60405180910390fd5b6000808673ffffffffffffffffffffffffffffffffffffffff168587604051616bf89190619c2a565b60006040518083038185875af1925050503d8060008114616c35576040519150601f19603f3d011682016040523d82523d6000602084013e616c3a565b606091505b5091509150616c4b87838387617168565b92505050949350505050565b600080616ce77f30644e72e131a029b85045b68181585d97816a916871ca8d3c208c16d87cfd4780616c8c57616c8b61904a565b5b8588097f30644e72e131a029b85045b68181585d97816a916871ca8d3c208c16d87cfd4780616cbe57616cbd61904a565b5b8588097f30644e72e131a029b85045b68181585d97816a916871ca8d3c208c16d87cfd476171dd565b7f30644e72e131a029b85045b68181585d97816a916871ca8d3c208c16d87cfd4780616d1657616d1561904a565b5b7f30644e72e131a029b85045b68181585d97816a916871ca8d3c208c16d87cfd4780616d4557616d4461904a565b5b8688097f30644e72e131a029b85045b68181585d97816a916871ca8d3c208c16d87cfd4780616d7757616d7661904a565b5b868a09089150915094509492505050565b600080616db686857f30644e72e131a029b85045b68181585d97816a916871ca8d3c208c16d87cfd476171dd565b616de186857f30644e72e131a029b85045b68181585d97816a916871ca8d3c208c16d87cfd476171dd565b9150915094509492505050565b600080600080600080616e038c8c6003616f96565b8096508197505050616e1786868e8e616c57565b8096508197505050616e2b8a8a8a8a616c57565b8098508199505050616e3f8c8c8c8c616c57565b8094508195505050616e5384848a8a616c57565b8094508195505050616e6786868888616c57565b809c50819d505050616e7b84846008616f96565b8092508193505050616e8f8c8c8484616d88565b809c50819d505050616ea388888a8a616c57565b8092508193505050616eb784846004616f96565b8094508195505050616ecb84848e8e616d88565b8094508195505050616edf84848888616c57565b8094508195505050616ef38a8a6008616f96565b8096508197505050616f0786868c8c616c57565b8096508197505050616f1b86868484616c57565b8096508197505050616f2f84848888616d88565b8094508195505050616f438c8c6002616f96565b8096508197505050616f5786868a8a616c57565b8096508197505050616f6b88888484616c57565b8092508193505050616f7f82826008616f96565b809250819350505096509650965096509650969050565b6000807f30644e72e131a029b85045b68181585d97816a916871ca8d3c208c16d87cfd4780616fc857616fc761904a565b5b8386097f30644e72e131a029b85045b68181585d97816a916871ca8d3c208c16d87cfd4780616ffa57616ff961904a565b5b84860991509150935093915050565b60008060006170cb7f30644e72e131a029b85045b68181585d97816a916871ca8d3c208c16d87cfd47806170405761703f61904a565b5b7f30644e72e131a029b85045b68181585d97816a916871ca8d3c208c16d87cfd478061706f5761706e61904a565b5b8788097f30644e72e131a029b85045b68181585d97816a916871ca8d3c208c16d87cfd47806170a1576170a061904a565b5b878809087f30644e72e131a029b85045b68181585d97816a916871ca8d3c208c16d87cfd47617205565b90507f30644e72e131a029b85045b68181585d97816a916871ca8d3c208c16d87cfd47806170fc576170fb61904a565b5b8186097f30644e72e131a029b85045b68181585d97816a916871ca8d3c208c16d87cfd478061712e5761712d61904a565b5b8286097f30644e72e131a029b85045b68181585d97816a916871ca8d3c208c16d87cfd4761715c9190618fbc565b92509250509250929050565b606083156171ca5760008351036171c25761718285617257565b6171c1576040517f08c379a00000000000000000000000000000000000000000000000000000000081526004016171b890619c8d565b60405180910390fd5b5b8290506171d5565b6171d4838361727a565b5b949350505050565b600081806171ee576171ed61904a565b5b83836171fa9190618fbc565b850890509392505050565b60008060405160208152602080820152602060408201528460608201526002840360808201528360a082015260208160c08360056107d05a03fa915080519250508061725057600080fd5b5092915050565b6000808273ffffffffffffffffffffffffffffffffffffffff163b119050919050565b60008251111561728d5781518083602001fd5b806040517f08c379a00000000000000000000000000000000000000000000000000000000081526004016172c19190619cf1565b60405180910390fd5b6040518060400160405280600290602082028036833780820191505090505090565b6040518060800160405280600490602082028036833780820191505090505090565b604051806101400160405280600073ffffffffffffffffffffffffffffffffffffffff1681526020016000600281111561734b5761734a617a43565b5b815260200160608152602001600067ffffffffffffffff168152602001600081526020016000815260200160008152602001600061ffff16815260200160008152602001600081525090565b604051806101200160405280600081526020016000815260200160008152602001600081526020016060815260200160608152602001606081526020016000151581526020016173e56172ec565b81525090565b6040518060200160405280600190602082028036833780820191505090505090565b50805461741990618dff565b6000825580601f1061742b575061744a565b601f016020900490600052602060002090810190617449919061746f565b5b50565b6040518060c00160405280600690602082028036833780820191505090505090565b5b80821115617488576000816000905550600101617470565b5090565b6000604051905090565b600080fd5b600080fd5b600073ffffffffffffffffffffffffffffffffffffffff82169050919050565b60006174cb826174a0565b9050919050565b6174db816174c0565b81146174e657600080fd5b50565b6000813590506174f8816174d2565b92915050565b60006020828403121561751457617513617496565b5b6000617522848285016174e9565b91505092915050565b6000819050919050565b61753e8161752b565b82525050565b60006020820190506175596000830184617535565b92915050565b600061ffff82169050919050565b6175768161755f565b811461758157600080fd5b50565b6000813590506175938161756d565b92915050565b600063ffffffff82169050919050565b6175b281617599565b81146175bd57600080fd5b50565b6000813590506175cf816175a9565b92915050565b6000819050919050565b6175e8816175d5565b81146175f357600080fd5b50565b600081359050617605816175df565b92915050565b6176148161752b565b811461761f57600080fd5b50565b6000813590506176318161760b565b92915050565b600080fd5b6000601f19601f8301169050919050565b7f4e487b7100000000000000000000000000000000000000000000000000000000600052604160045260246000fd5b6176858261763c565b810181811067ffffffffffffffff821117156176a4576176a361764d565b5b80604052505050565b60006176b761748c565b90506176c3828261767c565b919050565b600080fd5b600062ffffff82169050919050565b6176e5816176cd565b81146176f057600080fd5b50565b600081359050617702816176dc565b92915050565b6000610120828403121561771f5761771e617637565b5b61772a6101206176ad565b9050600061773a848285016175c0565b600083015250602061774e848285016175c0565b6020830152506040617762848285016175c0565b6040830152506060617776848285016175c0565b606083015250608061778a848285016175c0565b60808301525060a061779e848285016176f3565b60a08301525060c06177b2848285016176f3565b60c08301525060e06177c6848285016176f3565b60e0830152506101006177db848285016176f3565b6101008301525092915050565b6000806000806000806000806000806102408b8d03121561780c5761780b617496565b5b600061781a8d828e01617584565b9a5050602061782b8d828e016175c0565b995050604061783c8d828e016175c0565b985050606061784d8d828e016175c0565b975050608061785e8d828e016175c0565b96505060a061786f8d828e016175f6565b95505060c06178808d828e01617622565b94505060e06178918d828e01617622565b9350506101006178a38d828e01617622565b9250506101206178b58d828e01617708565b9150509295989b9194979a5092959850565b6178d08161755f565b82525050565b60006020820190506178eb60008301846178c7565b92915050565b600081519050919050565b600082825260208201905092915050565b6000819050602082019050919050565b6179268161752b565b82525050565b6000617938838361791d565b60208301905092915050565b6000602082019050919050565b600061795c826178f1565b61796681856178fc565b93506179718361790d565b8060005b838110156179a2578151617989888261792c565b975061799483617944565b925050600181019050617975565b5085935050505092915050565b600060208201905081810360008301526179c98184617951565b905092915050565b6000819050919050565b6179e4816179d1565b81146179ef57600080fd5b50565b600081359050617a01816179db565b92915050565b600060208284031215617a1d57617a1c617496565b5b6000617a2b848285016179f2565b91505092915050565b617a3d816174c0565b82525050565b7f4e487b7100000000000000000000000000000000000000000000000000000000600052602160045260246000fd5b60038110617a8357617a82617a43565b5b50565b6000819050617a9482617a72565b919050565b6000617aa482617a86565b9050919050565b617ab481617a99565b82525050565b600081519050919050565b600082825260208201905092915050565b60005b83811015617af4578082015181840152602081019050617ad9565b83811115617b03576000848401525b50505050565b6000617b1482617aba565b617b1e8185617ac5565b9350617b2e818560208601617ad6565b617b378161763c565b840191505092915050565b600067ffffffffffffffff82169050919050565b617b5f81617b42565b82525050565b600061014082019050617b7b600083018d617a34565b617b88602083018c617aab565b8181036040830152617b9a818b617b09565b9050617ba9606083018a617b56565b617bb66080830189617535565b617bc360a0830188617535565b617bd060c0830187617535565b617bdd60e08301866178c7565b617beb610100830185617535565b617bf9610120830184617535565b9b9a5050505050505050505050565b6000819050919050565b6000617c2d617c28617c23846174a0565b617c08565b6174a0565b9050919050565b6000617c3f82617c12565b9050919050565b6000617c5182617c34565b9050919050565b617c6181617c46565b82525050565b6000602082019050617c7c6000830184617c58565b92915050565b617c8b81617b42565b8114617c9657600080fd5b50565b600081359050617ca881617c82565b92915050565b60008060408385031215617cc557617cc4617496565b5b6000617cd385828601617c99565b9250506020617ce4858286016174e9565b9150509250929050565b6000602082019050617d036000830184617b56565b92915050565b600080fd5b600067ffffffffffffffff821115617d2957617d2861764d565b5b602082029050602081019050919050565b600080fd5b600060408284031215617d5557617d54617637565b5b617d5f60406176ad565b90506000617d6f84828501617622565b6000830152506020617d8384828501617622565b60208301525092915050565b6000617da2617d9d84617d0e565b6176ad565b90508083825260208201905060408402830185811115617dc557617dc4617d3a565b5b835b81811015617dee5780617dda8882617d3f565b845260208401935050604081019050617dc7565b5050509392505050565b600082601f830112617e0d57617e0c617d09565b5b8135617e1d848260208601617d8f565b91505092915050565b60008060008060808587031215617e4057617e3f617496565b5b6000617e4e87828801617622565b9450506020617e5f878288016179f2565b9350506040617e7087828801617622565b925050606085013567ffffffffffffffff811115617e9157617e9061749b565b5b617e9d87828801617df8565b91505092959194509250565b617eb2816174c0565b82525050565b617ec181617a99565b82525050565b600082825260208201905092915050565b6000617ee382617aba565b617eed8185617ec7565b9350617efd818560208601617ad6565b617f068161763c565b840191505092915050565b617f1a81617b42565b82525050565b617f298161755f565b82525050565b600061014083016000830151617f486000860182617ea9565b506020830151617f5b6020860182617eb8565b5060408301518482036040860152617f738282617ed8565b9150506060830151617f886060860182617f11565b506080830151617f9b608086018261791d565b5060a0830151617fae60a086018261791d565b5060c0830151617fc160c086018261791d565b5060e0830151617fd460e0860182617f20565b50610100830151617fe961010086018261791d565b50610120830151617ffe61012086018261791d565b508091505092915050565b600060208201905081810360008301526180238184617f2f565b905092915050565b60006020820190506180406000830184617a34565b92915050565b60006020828403121561805c5761805b617496565b5b600061806a84828501617622565b91505092915050565b60008115159050919050565b61808881618073565b82525050565b600060a0820190506180a36000830188617535565b6180b06020830187617535565b6180bd6040830186617535565b6180ca6060830185617535565b6180d7608083018461807f565b9695505050505050565b600080600080608085870312156180fb576180fa617496565b5b600061810987828801617622565b945050602061811a87828801617622565b935050604061812b878288016175c0565b925050606061813c87828801617622565b91505092959194509250565b60006bffffffffffffffffffffffff82169050919050565b61816981618148565b82525050565b60006020820190506181846000830184618160565b92915050565b6000602082840312156181a05761819f617496565b5b60006181ae84828501617c99565b91505092915050565b600081519050919050565b600082825260208201905092915050565b6000819050602082019050919050565b60006181ef8383617ea9565b60208301905092915050565b6000602082019050919050565b6000618213826181b7565b61821d81856181c2565b9350618228836181d3565b8060005b8381101561825957815161824088826181e3565b975061824b836181fb565b92505060018101905061822c565b5085935050505092915050565b600060a08201905061827b6000830188618160565b6182886020830187618160565b6182956040830186617b56565b6182a26060830185617a34565b81810360808301526182b48184618208565b90509695505050505050565b600081519050919050565b600082825260208201905092915050565b6000819050602082019050919050565b600060049050919050565b600081905092915050565b6000819050919050565b6000602082019050919050565b618322816182ec565b61832c81846182f7565b925061833782618302565b8060005b8381101561836857815161834f878261792c565b965061835a8361830c565b92505060018101905061833b565b505050505050565b60a0820160008201516183866000850182617ea9565b5060208201516183996020850182618319565b50505050565b60006183ab8383618370565b60a08301905092915050565b6000602082019050919050565b60006183cf826182c0565b6183d981856182cb565b93506183e4836182dc565b8060005b838110156184155781516183fc888261839f565b9750618407836183b7565b9250506001810190506183e8565b5085935050505092915050565b600082825260208201905092915050565b600061843e826181b7565b6184488185618422565b9350618453836181d3565b8060005b8381101561848457815161846b88826181e3565b9750618476836181fb565b925050600181019050618457565b5085935050505092915050565b600081519050919050565b600082825260208201905092915050565b6000819050602082019050919050565b600060c0830160008301516184d5600086018261791d565b5060208301516184e86020860182618319565b50604083015184820360a08601526185008282618433565b9150508091505092915050565b6000604083016000830151848203600086015261852a8282618433565b9150506020830151848203602086015261854482826184bd565b9150508091505092915050565b600061855d838361850d565b905092915050565b6000602082019050919050565b600061857d82618491565b618587818561849c565b935083602082028501618599856184ad565b8060005b858110156185d557848403895281516185b68582618551565b94506185c183618565565b925060208a0199505060018101905061859d565b50829750879550505050505092915050565b6185f081618073565b82525050565b60006101808301600083015161860f600086018261791d565b506020830151618622602086018261791d565b506040830151618635604086018261791d565b506060830151618648606086018261791d565b506080830151848203608086015261866082826183c4565b91505060a083015184820360a086015261867a8282618433565b91505060c083015184820360c08601526186948282618572565b91505060e08301516186a960e08601826185e7565b506101008301516186be610100860182618319565b508091505092915050565b600060208201905081810360008301526186e381846185f6565b905092915050565b60006186f682617c34565b9050919050565b618706816186eb565b82525050565b600060208201905061872160008301846186fd565b92915050565b61873081617599565b82525050565b600060208201905061874b6000830184618727565b92915050565b6000806040838503121561876857618767617496565b5b600061877685828601617c99565b925050602061878785828601617622565b9150509250929050565b6003811061879e57600080fd5b50565b6000813590506187b081618791565b92915050565b600080fd5b600067ffffffffffffffff8211156187d6576187d561764d565b5b6187df8261763c565b9050602081019050919050565b82818337600083830152505050565b600061880e618809846187bb565b6176ad565b90508281526020810184848401111561882a576188296187b6565b5b6188358482856187ec565b509392505050565b600082601f83011261885257618851617d09565b5b81356188628482602086016187fb565b91505092915050565b600060e0828403121561888157618880617637565b5b61888b60e06176ad565b9050600061889b848285016187a1565b600083015250602082013567ffffffffffffffff8111156188bf576188be6176c8565b5b6188cb8482850161883d565b60208301525060406188df84828501617c99565b60408301525060606188f384828501617622565b606083015250608061890784828501617584565b60808301525060a061891b84828501617622565b60a08301525060c061892f84828501617622565b60c08301525092915050565b60006020828403121561895157618950617496565b5b600082013567ffffffffffffffff81111561896f5761896e61749b565b5b61897b8482850161886b565b91505092915050565b61898d816179d1565b82525050565b60006020820190506189a86000830184618984565b92915050565b60006060820190506189c360008301866178c7565b6189d060208301856178c7565b6189dd60408301846178c7565b949350505050565b6189ee816175d5565b82525050565b6000602082019050618a0960008301846189e5565b92915050565b60008160001c9050919050565b600063ffffffff82169050919050565b6000618a3f618a3a83618a0f565b618a1c565b9050919050565b618a4f81617599565b82525050565b60008160201c9050919050565b6000618a75618a7083618a55565b618a1c565b9050919050565b60008160401c9050919050565b6000618a9c618a9783618a7c565b618a1c565b9050919050565b60008160601c9050919050565b6000618ac3618abe83618aa3565b618a1c565b9050919050565b60008160801c9050919050565b6000618aea618ae583618aca565b618a1c565b9050919050565b60008160a01c9050919050565b600062ffffff82169050919050565b6000618b20618b1b83618af1565b618afe565b9050919050565b618b30816176cd565b82525050565b60008160b81c9050919050565b6000618b56618b5183618b36565b618afe565b9050919050565b60008160d01c9050919050565b6000618b7d618b7883618b5d565b618afe565b9050919050565b60008160e81c9050919050565b6000618ba4618b9f83618b84565b618afe565b9050919050565b61012082016000808301549050618bc181618a2c565b618bce6000860182618a46565b50618bd881618a62565b618be56020860182618a46565b50618bef81618a89565b618bfc6040860182618a46565b50618c0681618ab0565b618c136060860182618a46565b50618c1d81618ad7565b618c2a6080860182618a46565b50618c3481618b0d565b618c4160a0860182618b27565b50618c4b81618b43565b618c5860c0860182618b27565b50618c6281618b6a565b618c6f60e0860182618b27565b50618c7981618b91565b618c87610100860182618b27565b5050505050565b600061024082019050618ca4600083018d6178c7565b618cb1602083018c618727565b618cbe604083018b618727565b618ccb606083018a618727565b618cd86080830189618727565b618ce560a08301886189e5565b618cf260c0830187617535565b618cff60e0830186617535565b618d0d610100830185617535565b618d1b610120830184618bab565b9b9a5050505050505050505050565b7f4e487b7100000000000000000000000000000000000000000000000000000000600052603260045260246000fd5b7f4e487b7100000000000000000000000000000000000000000000000000000000600052601160045260246000fd5b6000618d938261752b565b91507fffffffffffffffffffffffffffffffffffffffffffffffffffffffffffffffff8203618dc557618dc4618d59565b5b600182019050919050565b7f4e487b7100000000000000000000000000000000000000000000000000000000600052602260045260246000fd5b60006002820490506001821680618e1757607f821691505b602082108103618e2a57618e29618dd0565b5b50919050565b6000618e3b8261752b565b9150618e468361752b565b9250827fffffffffffffffffffffffffffffffffffffffffffffffffffffffffffffffff03821115618e7b57618e7a618d59565b5b828201905092915050565b600082825260208201905092915050565b7f546f6f206561726c7920746f2066756c66696c6c000000000000000000000000600082015250565b6000618ecd601483618e86565b9150618ed882618e97565b602082019050919050565b60006020820190508181036000830152618efc81618ec0565b9050919050565b7f47726f757020646f6573206e6f74206578697374000000000000000000000000600082015250565b6000618f39601483618e86565b9150618f4482618f03565b602082019050919050565b60006020820190508181036000830152618f6881618f2c565b9050919050565b6000819050919050565b618f8a618f858261752b565b618f6f565b82525050565b6000618f9c8285618f79565b602082019150618fac8284618f79565b6020820191508190509392505050565b6000618fc78261752b565b9150618fd28361752b565b925082821015618fe557618fe4618d59565b5b828203905092915050565b6000618ffb8261752b565b91506190068361752b565b9250817fffffffffffffffffffffffffffffffffffffffffffffffffffffffffffffffff048311821515161561903f5761903e618d59565b5b828202905092915050565b7f4e487b7100000000000000000000000000000000000000000000000000000000600052601260045260246000fd5b60006190848261752b565b915061908f8361752b565b92508261909f5761909e61904a565b5b828204905092915050565b60006190b582617b42565b915067ffffffffffffffff82036190cf576190ce618d59565b5b600182019050919050565b60006190e582618148565b91506190f083618148565b9250826bffffffffffffffffffffffff0382111561911157619110618d59565b5b828201905092915050565b60006040820190506191316000830185617535565b61913e6020830184617535565b9392505050565b7f4f776e61626c653a206e6577206f776e657220697320746865207a65726f206160008201527f6464726573730000000000000000000000000000000000000000000000000000602082015250565b60006191a1602683618e86565b91506191ac82619145565b604082019050919050565b600060208201905081810360008301526191d081619194565b9050919050565b7f506c65617365207265717565737420627920657874656e64696e672047656e6560008201527f72616c52616e6463617374436f6e73756d65724261736520736f20746861742060208201527f77652063616e2063616c6c6261636b20776974682072616e646f6d6e6573732e604082015250565b6000619259606083618e86565b9150619264826191d7565b606082019050919050565b600060208201905081810360008301526192888161924c565b9050919050565b60006040820190506192a46000830185617b56565b6192b16020830184617a34565b9392505050565b60006192c382617b42565b91506192ce83617b42565b92508267ffffffffffffffff038211156192eb576192ea618d59565b5b828201905092915050565b600061930182618148565b915061930c83618148565b92508282101561931f5761931e618d59565b5b828203905092915050565b7f4e487b7100000000000000000000000000000000000000000000000000000000600052600160045260246000fd5b60008190508160005260206000209050919050565b60006020601f8301049050919050565b600082821b905092915050565b6000600883026193bb7fffffffffffffffffffffffffffffffffffffffffffffffffffffffffffffffff8261937e565b6193c5868361937e565b95508019841693508086168417925050509392505050565b60006193f86193f36193ee8461752b565b617c08565b61752b565b9050919050565b6000819050919050565b619412836193dd565b61942661941e826193ff565b84845461938b565b825550505050565b600090565b61943b61942e565b619446818484619409565b505050565b5b8181101561946a5761945f600082619433565b60018101905061944c565b5050565b601f8211156194af5761948081619359565b6194898461936e565b81016020851015619498578190505b6194ac6194a48561936e565b83018261944b565b50505b505050565b600082821c905092915050565b60006194d2600019846008026194b4565b1980831691505092915050565b60006194eb83836194c1565b9150826002028217905092915050565b61950482617aba565b67ffffffffffffffff81111561951d5761951c61764d565b5b6195278254618dff565b61953282828561946e565b600060209050601f8311600181146195655760008415619553578287015190505b61955d85826194df565b8655506195c5565b601f19841661957386619359565b60005b8281101561959b57848901518255600182019150602085019450602081019050619576565b868310156195b857848901516195b4601f8916826194c1565b8355505b6001600288020188555050505b505050505050565b600060e0820190506195e2600083018a618984565b6195ef6020830189617a34565b6195fc6040830188617b56565b6196096060830187617535565b61961660808301866178c7565b61962360a0830185617535565b61963060c0830184617535565b98975050505050505050565b7f4f776e61626c653a2063616c6c6572206973206e6f7420746865206f776e6572600082015250565b6000619672602083618e86565b915061967d8261963c565b602082019050919050565b600060208201905081810360008301526196a181619665565b9050919050565b6000819050919050565b6196c36196be826179d1565b6196a8565b82525050565b60006196d582846196b2565b60208201915081905092915050565b50565b60006196f4600083618e86565b91506196ff826196e4565b600082019050919050565b60006020820190508181036000830152619723816196e7565b9050919050565b600060408201905061973f6000830185618984565b61974c6020830184617535565b9392505050565b600081519050619762816175a9565b92915050565b60006020828403121561977e5761977d617496565b5b600061978c84828501619753565b91505092915050565b60006040820190506197aa6000830185618984565b81810360208301526197bc8184617951565b90509392505050565b60006197e06197db6197d684618148565b617c08565b61752b565b9050919050565b6197f0816197c5565b82525050565b600060808201905061980b6000830187618984565b6198186020830186617535565b61982560408301856197e7565b619832606083018461807f565b95945050505050565b600069ffffffffffffffffffff82169050919050565b61985a8161983b565b811461986557600080fd5b50565b60008151905061987781619851565b92915050565b60008151905061988c816175df565b92915050565b6000815190506198a18161760b565b92915050565b600080600080600060a086880312156198c3576198c2617496565b5b60006198d188828901619868565b95505060206198e28882890161987d565b94505060406198f388828901619892565b935050606061990488828901619892565b925050608061991588828901619868565b9150509295509295909350565b60006060820190506199376000830186617a34565b6199446020830185617a34565b6199516040830184617535565b949350505050565b60006199648261752b565b915061996f8361752b565b92508261997f5761997e61904a565b5b828206905092915050565b600060608201905061999f6000830186617535565b6199ac6020830185617a34565b6199b96040830184617535565b949350505050565b60006199cd8284618f79565b60208201915081905092915050565b60006199e78261752b565b9150600082036199fa576199f9618d59565b5b600182039050919050565b619a0e81618073565b8114619a1957600080fd5b50565b600081519050619a2b81619a05565b92915050565b600060208284031215619a4757619a46617496565b5b6000619a5584828501619a1c565b91505092915050565b7f5361666545524332303a204552433230206f7065726174696f6e20646964206e60008201527f6f74207375636365656400000000000000000000000000000000000000000000602082015250565b6000619aba602a83618e86565b9150619ac582619a5e565b604082019050919050565b60006020820190508181036000830152619ae981619aad565b9050919050565b7f424c533a2073717274206d6f646578702063616c6c206661696c656400000000600082015250565b6000619b26601c83618e86565b9150619b3182619af0565b602082019050919050565b60006020820190508181036000830152619b5581619b19565b9050919050565b7f416464726573733a20696e73756666696369656e742062616c616e636520666f60008201527f722063616c6c0000000000000000000000000000000000000000000000000000602082015250565b6000619bb8602683618e86565b9150619bc382619b5c565b604082019050919050565b60006020820190508181036000830152619be781619bab565b9050919050565b600081905092915050565b6000619c0482617aba565b619c0e8185619bee565b9350619c1e818560208601617ad6565b80840191505092915050565b6000619c368284619bf9565b915081905092915050565b7f416464726573733a2063616c6c20746f206e6f6e2d636f6e7472616374000000600082015250565b6000619c77601d83618e86565b9150619c8282619c41565b602082019050919050565b60006020820190508181036000830152619ca681619c6a565b9050919050565b600081519050919050565b6000619cc382619cad565b619ccd8185618e86565b9350619cdd818560208601617ad6565b619ce68161763c565b840191505092915050565b60006020820190508181036000830152619d0b8184619cb8565b90509291505056fea2646970667358221220a539c1245216339dd433931f9ae170a44a7e3ab1c1ab4283f39a2c1c63a6086b64736f6c634300080f0033",
    "linkReferences": {}
  },
  "methodIdentifiers": {
    "ARPA()": "62d14450",
    "ARPA_ETH_FEED()": "d164e28d",
    "MAX_CONSUMERS()": "64d51a2a",
    "MAX_REQUEST_CONFIRMATIONS()": "15c48b84",
    "addConsumer(uint64,address)": "7341c10c",
    "calculatePaymentAmount(uint256,uint256,uint32,uint256)": "9ea3b84e",
    "createSubscription()": "a21a23e4",
    "estimatePaymentAmount(uint256,uint256,uint32,uint256)": "cc36c1e8",
    "fulfillRandomness(uint256,bytes32,uint256,(uint256,uint256)[])": "86dd2e9e",
    "fundSubscription(uint64,uint256)": "dd281928",
    "getFeeTier(uint64)": "d2f9f9a7",
    "getGroup(uint256)": "ceb60654",
    "getLastSubscription(address)": "76a911bc",
    "getPendingRequest(bytes32)": "88b12d55",
    "getSubscription(uint64)": "a47c7696",
    "groupCount()": "8f23b326",
    "groups(uint256)": "96324bd4",
    "lastAssignedGroupIndex()": "0b919eef",
    "lastOutput()": "97228a7e",
    "owner()": "8da5cb5b",
    "renounceOwnership()": "715018a6",
    "requestRandomness((uint8,bytes,uint64,uint256,uint16,uint256,uint256))": "fb0882fc",
    "rewards(address)": "0700037d",
    "s_callbacks(bytes32)": "4d615424",
    "setAdapterConfig(uint16,uint32,uint32,uint32,uint32,int256,uint256,uint256,uint256,(uint32,uint32,uint32,uint32,uint32,uint24,uint24,uint24,uint24))": "0f8d2279",
    "transferOwnership(address)": "f2fde38b",
    "validGroupIndices()": "253870ff"
  },
  "id": 31
}