{
  "abi": [
    {
      "inputs": [
        {
          "internalType": "address",
          "name": "arpa",
          "type": "address"
        },
        {
          "internalType": "address",
          "name": "arpaEthFeed",
          "type": "address"
        }
      ],
      "stateMutability": "nonpayable",
      "type": "constructor"
    },
    {
      "inputs": [],
      "name": "EmptyPartialSignatures",
      "type": "error"
    },
    {
      "inputs": [],
      "name": "InsufficientBalanceWhenFulfill",
      "type": "error"
    },
    {
      "inputs": [],
      "name": "InsufficientBalanceWhenRequest",
      "type": "error"
    },
    {
      "inputs": [
        {
          "internalType": "int256",
          "name": "arpaWei",
          "type": "int256"
        }
      ],
      "name": "InvalidArpaWeiPrice",
      "type": "error"
    },
    {
      "inputs": [
        {
          "internalType": "uint64",
          "name": "subId",
          "type": "uint64"
        },
        {
          "internalType": "address",
          "name": "consumer",
          "type": "address"
        }
      ],
      "name": "InvalidConsumer",
      "type": "error"
    },
    {
      "inputs": [],
      "name": "InvalidPartialPublicKey",
      "type": "error"
    },
    {
      "inputs": [],
      "name": "InvalidPartialSignatureFormat",
      "type": "error"
    },
    {
      "inputs": [],
      "name": "InvalidPartialSignatures",
      "type": "error"
    },
    {
      "inputs": [],
      "name": "InvalidPublicKey",
      "type": "error"
    },
    {
      "inputs": [
        {
          "internalType": "string",
          "name": "message",
          "type": "string"
        }
      ],
      "name": "InvalidRequestByEOA",
      "type": "error"
    },
    {
      "inputs": [
        {
          "internalType": "uint16",
          "name": "have",
          "type": "uint16"
        },
        {
          "internalType": "uint16",
          "name": "min",
          "type": "uint16"
        },
        {
          "internalType": "uint16",
          "name": "max",
          "type": "uint16"
        }
      ],
      "name": "InvalidRequestConfirmations",
      "type": "error"
    },
    {
      "inputs": [],
      "name": "InvalidSignature",
      "type": "error"
    },
    {
      "inputs": [],
      "name": "InvalidSignatureFormat",
      "type": "error"
    },
    {
      "inputs": [],
      "name": "InvalidSubscription",
      "type": "error"
    },
    {
      "inputs": [
        {
          "internalType": "address",
          "name": "owner",
          "type": "address"
        }
      ],
      "name": "MustBeSubOwner",
      "type": "error"
    },
    {
      "inputs": [],
      "name": "MustNotBeInfinity",
      "type": "error"
    },
    {
      "inputs": [],
      "name": "NoAvailableGroups",
      "type": "error"
    },
    {
      "inputs": [],
      "name": "NoCorrespondingRequest",
      "type": "error"
    },
    {
      "inputs": [],
      "name": "NotFromCommitter",
      "type": "error"
    },
    {
      "inputs": [],
      "name": "PaymentTooLarge",
      "type": "error"
    },
    {
      "inputs": [],
      "name": "Reentrant",
      "type": "error"
    },
    {
      "inputs": [],
      "name": "TaskStillExclusive",
      "type": "error"
    },
    {
      "inputs": [],
      "name": "TooManyConsumers",
      "type": "error"
    },
    {
      "anonymous": false,
      "inputs": [
        {
          "indexed": false,
          "internalType": "uint16",
          "name": "minimumRequestConfirmations",
          "type": "uint16"
        },
        {
          "indexed": false,
          "internalType": "uint32",
          "name": "maxGasLimit",
          "type": "uint32"
        },
        {
          "indexed": false,
          "internalType": "uint32",
          "name": "stalenessSeconds",
          "type": "uint32"
        },
        {
          "indexed": false,
          "internalType": "uint32",
          "name": "gasAfterPaymentCalculation",
          "type": "uint32"
        },
        {
          "indexed": false,
          "internalType": "uint32",
          "name": "gasExceptCallback",
          "type": "uint32"
        },
        {
          "indexed": false,
          "internalType": "int256",
          "name": "fallbackWeiPerUnitArpa",
          "type": "int256"
        },
        {
          "components": [
            {
              "internalType": "uint32",
              "name": "fulfillmentFlatFeeArpaPPMTier1",
              "type": "uint32"
            },
            {
              "internalType": "uint32",
              "name": "fulfillmentFlatFeeArpaPPMTier2",
              "type": "uint32"
            },
            {
              "internalType": "uint32",
              "name": "fulfillmentFlatFeeArpaPPMTier3",
              "type": "uint32"
            },
            {
              "internalType": "uint32",
              "name": "fulfillmentFlatFeeArpaPPMTier4",
              "type": "uint32"
            },
            {
              "internalType": "uint32",
              "name": "fulfillmentFlatFeeArpaPPMTier5",
              "type": "uint32"
            },
            {
              "internalType": "uint24",
              "name": "reqsForTier2",
              "type": "uint24"
            },
            {
              "internalType": "uint24",
              "name": "reqsForTier3",
              "type": "uint24"
            },
            {
              "internalType": "uint24",
              "name": "reqsForTier4",
              "type": "uint24"
            },
            {
              "internalType": "uint24",
              "name": "reqsForTier5",
              "type": "uint24"
            }
          ],
          "indexed": false,
          "internalType": "struct Adapter.FeeConfig",
          "name": "feeConfig",
          "type": "tuple"
        }
      ],
      "name": "ConfigSet",
      "type": "event"
    },
    {
      "anonymous": false,
      "inputs": [
        {
          "indexed": true,
          "internalType": "address",
          "name": "previousOwner",
          "type": "address"
        },
        {
          "indexed": true,
          "internalType": "address",
          "name": "newOwner",
          "type": "address"
        }
      ],
      "name": "OwnershipTransferred",
      "type": "event"
    },
    {
      "anonymous": false,
      "inputs": [
        {
          "indexed": true,
          "internalType": "uint256",
          "name": "groupIndex",
          "type": "uint256"
        },
        {
          "indexed": false,
          "internalType": "bytes32",
          "name": "requestId",
          "type": "bytes32"
        },
        {
          "indexed": false,
          "internalType": "address",
          "name": "sender",
          "type": "address"
        },
        {
          "indexed": false,
          "internalType": "uint64",
          "name": "subId",
          "type": "uint64"
        },
        {
          "indexed": false,
          "internalType": "uint256",
          "name": "seed",
          "type": "uint256"
        },
        {
          "indexed": false,
          "internalType": "uint16",
          "name": "requestConfirmations",
          "type": "uint16"
        },
        {
          "indexed": false,
          "internalType": "uint256",
          "name": "callbackGasLimit",
          "type": "uint256"
        },
        {
          "indexed": false,
          "internalType": "uint256",
          "name": "callbackMaxGasPrice",
          "type": "uint256"
        }
      ],
      "name": "RandomnessRequest",
      "type": "event"
    },
    {
      "anonymous": false,
      "inputs": [
        {
          "indexed": false,
          "internalType": "bytes32",
          "name": "requestId",
          "type": "bytes32"
        },
        {
          "indexed": false,
          "internalType": "uint256",
          "name": "output",
          "type": "uint256"
        },
        {
          "indexed": false,
          "internalType": "uint256",
          "name": "payment",
          "type": "uint256"
        },
        {
          "indexed": false,
          "internalType": "bool",
          "name": "success",
          "type": "bool"
        }
      ],
      "name": "RandomnessRequestFulfilled",
      "type": "event"
    },
    {
      "anonymous": false,
      "inputs": [
        {
          "indexed": true,
          "internalType": "uint64",
          "name": "subId",
          "type": "uint64"
        },
        {
          "indexed": false,
          "internalType": "address",
          "name": "consumer",
          "type": "address"
        }
      ],
      "name": "SubscriptionConsumerAdded",
      "type": "event"
    },
    {
      "anonymous": false,
      "inputs": [
        {
          "indexed": true,
          "internalType": "uint64",
          "name": "subId",
          "type": "uint64"
        },
        {
          "indexed": false,
          "internalType": "address",
          "name": "owner",
          "type": "address"
        }
      ],
      "name": "SubscriptionCreated",
      "type": "event"
    },
    {
      "anonymous": false,
      "inputs": [
        {
          "indexed": true,
          "internalType": "uint64",
          "name": "subId",
          "type": "uint64"
        },
        {
          "indexed": false,
          "internalType": "uint256",
          "name": "oldBalance",
          "type": "uint256"
        },
        {
          "indexed": false,
          "internalType": "uint256",
          "name": "newBalance",
          "type": "uint256"
        }
      ],
      "name": "SubscriptionFunded",
      "type": "event"
    },
    {
      "inputs": [],
      "name": "ARPA",
      "outputs": [
        {
          "internalType": "contract IERC20",
          "name": "",
          "type": "address"
        }
      ],
      "stateMutability": "view",
      "type": "function"
    },
    {
      "inputs": [],
      "name": "ARPA_ETH_FEED",
      "outputs": [
        {
          "internalType": "contract AggregatorV3Interface",
          "name": "",
          "type": "address"
        }
      ],
      "stateMutability": "view",
      "type": "function"
    },
    {
      "inputs": [],
      "name": "COMMITTER_REWARD_PER_SIGNATURE",
      "outputs": [
        {
          "internalType": "uint256",
          "name": "",
          "type": "uint256"
        }
      ],
      "stateMutability": "view",
      "type": "function"
    },
    {
      "inputs": [],
      "name": "MAX_CONSUMERS",
      "outputs": [
        {
          "internalType": "uint16",
          "name": "",
          "type": "uint16"
        }
      ],
      "stateMutability": "view",
      "type": "function"
    },
    {
      "inputs": [],
      "name": "MAX_REQUEST_CONFIRMATIONS",
      "outputs": [
        {
          "internalType": "uint16",
          "name": "",
          "type": "uint16"
        }
      ],
      "stateMutability": "view",
      "type": "function"
    },
    {
      "inputs": [],
      "name": "REWARD_PER_SIGNATURE",
      "outputs": [
        {
          "internalType": "uint256",
          "name": "",
          "type": "uint256"
        }
      ],
      "stateMutability": "view",
      "type": "function"
    },
    {
      "inputs": [],
      "name": "SIGNATURE_TASK_EXCLUSIVE_WINDOW",
      "outputs": [
        {
          "internalType": "uint256",
          "name": "",
          "type": "uint256"
        }
      ],
      "stateMutability": "view",
      "type": "function"
    },
    {
      "inputs": [
        {
          "internalType": "uint64",
          "name": "subId",
          "type": "uint64"
        },
        {
          "internalType": "address",
          "name": "consumer",
          "type": "address"
        }
      ],
      "name": "addConsumer",
      "outputs": [],
      "stateMutability": "nonpayable",
      "type": "function"
    },
    {
      "inputs": [
        {
          "internalType": "uint256",
          "name": "startGas",
          "type": "uint256"
        },
        {
          "internalType": "uint256",
          "name": "gasAfterPaymentCalculation",
          "type": "uint256"
        },
        {
          "internalType": "uint32",
          "name": "fulfillmentFlatFeeArpaPPM",
          "type": "uint32"
        },
        {
          "internalType": "uint256",
          "name": "weiPerUnitGas",
          "type": "uint256"
        }
      ],
      "name": "calculatePaymentAmount",
      "outputs": [
        {
          "internalType": "uint96",
          "name": "",
          "type": "uint96"
        }
      ],
      "stateMutability": "view",
      "type": "function"
    },
    {
      "inputs": [],
      "name": "createSubscription",
      "outputs": [
        {
          "internalType": "uint64",
          "name": "",
          "type": "uint64"
        }
      ],
      "stateMutability": "nonpayable",
      "type": "function"
    },
    {
      "inputs": [
        {
          "internalType": "uint256",
          "name": "callbackGasLimit",
          "type": "uint256"
        },
        {
          "internalType": "uint256",
          "name": "gasExceptCallback",
          "type": "uint256"
        },
        {
          "internalType": "uint32",
          "name": "fulfillmentFlatFeeArpaPPM",
          "type": "uint32"
        },
        {
          "internalType": "uint256",
          "name": "weiPerUnitGas",
          "type": "uint256"
        }
      ],
      "name": "estimatePaymentAmount",
      "outputs": [
        {
          "internalType": "uint96",
          "name": "",
          "type": "uint96"
        }
      ],
      "stateMutability": "view",
      "type": "function"
    },
    {
      "inputs": [
        {
          "internalType": "uint256",
          "name": "groupIndex",
          "type": "uint256"
        },
        {
          "internalType": "bytes32",
          "name": "requestId",
          "type": "bytes32"
        },
        {
          "internalType": "uint256",
          "name": "signature",
          "type": "uint256"
        },
        {
          "components": [
            {
              "internalType": "uint256",
              "name": "index",
              "type": "uint256"
            },
            {
              "internalType": "uint256",
              "name": "partialSignature",
              "type": "uint256"
            }
          ],
          "internalType": "struct IAdapter.PartialSignature[]",
          "name": "partialSignatures",
          "type": "tuple[]"
        }
      ],
      "name": "fulfillRandomness",
      "outputs": [],
      "stateMutability": "nonpayable",
      "type": "function"
    },
    {
      "inputs": [
        {
          "internalType": "uint64",
          "name": "subId",
          "type": "uint64"
        },
        {
          "internalType": "uint256",
          "name": "amount",
          "type": "uint256"
        }
      ],
      "name": "fundSubscription",
      "outputs": [],
      "stateMutability": "nonpayable",
      "type": "function"
    },
    {
      "inputs": [
        {
          "internalType": "uint64",
          "name": "reqCount",
          "type": "uint64"
        }
      ],
      "name": "getFeeTier",
      "outputs": [
        {
          "internalType": "uint32",
          "name": "",
          "type": "uint32"
        }
      ],
      "stateMutability": "view",
      "type": "function"
    },
    {
      "inputs": [
        {
          "internalType": "uint256",
          "name": "groupIndex",
          "type": "uint256"
        }
      ],
      "name": "getGroup",
      "outputs": [
        {
          "components": [
            {
              "internalType": "uint256",
              "name": "index",
              "type": "uint256"
            },
            {
              "internalType": "uint256",
              "name": "epoch",
              "type": "uint256"
            },
            {
              "internalType": "uint256",
              "name": "size",
              "type": "uint256"
            },
            {
              "internalType": "uint256",
              "name": "threshold",
              "type": "uint256"
            },
            {
              "components": [
                {
                  "internalType": "address",
                  "name": "nodeIdAddress",
                  "type": "address"
                },
                {
                  "internalType": "uint256[4]",
                  "name": "partialPublicKey",
                  "type": "uint256[4]"
                }
              ],
              "internalType": "struct Adapter.Member[]",
              "name": "members",
              "type": "tuple[]"
            },
            {
              "internalType": "address[]",
              "name": "committers",
              "type": "address[]"
            },
            {
              "components": [
                {
                  "internalType": "address[]",
                  "name": "nodeIdAddress",
                  "type": "address[]"
                },
                {
                  "components": [
                    {
                      "internalType": "uint256",
                      "name": "groupEpoch",
                      "type": "uint256"
                    },
                    {
                      "internalType": "uint256[4]",
                      "name": "publicKey",
                      "type": "uint256[4]"
                    },
                    {
                      "internalType": "address[]",
                      "name": "disqualifiedNodes",
                      "type": "address[]"
                    }
                  ],
                  "internalType": "struct Adapter.CommitResult",
                  "name": "commitResult",
                  "type": "tuple"
                }
              ],
              "internalType": "struct Adapter.CommitCache[]",
              "name": "commitCacheList",
              "type": "tuple[]"
            },
            {
              "internalType": "bool",
              "name": "isStrictlyMajorityConsensusReached",
              "type": "bool"
            },
            {
              "internalType": "uint256[4]",
              "name": "publicKey",
              "type": "uint256[4]"
            }
          ],
          "internalType": "struct Adapter.Group",
          "name": "",
          "type": "tuple"
        }
      ],
      "stateMutability": "view",
      "type": "function"
    },
    {
      "inputs": [
        {
          "internalType": "address",
          "name": "consumer",
          "type": "address"
        }
      ],
      "name": "getLastSubscription",
      "outputs": [
        {
          "internalType": "uint64",
          "name": "",
          "type": "uint64"
        }
      ],
      "stateMutability": "view",
      "type": "function"
    },
    {
      "inputs": [
        {
          "internalType": "bytes32",
          "name": "requestId",
          "type": "bytes32"
        }
      ],
      "name": "getPendingRequest",
      "outputs": [
        {
          "components": [
            {
              "internalType": "address",
              "name": "callbackContract",
              "type": "address"
            },
            {
              "internalType": "enum IRequestTypeBase.RequestType",
              "name": "requestType",
              "type": "uint8"
            },
            {
              "internalType": "bytes",
              "name": "params",
              "type": "bytes"
            },
            {
              "internalType": "uint64",
              "name": "subId",
              "type": "uint64"
            },
            {
              "internalType": "uint256",
              "name": "seed",
              "type": "uint256"
            },
            {
              "internalType": "uint256",
              "name": "groupIndex",
              "type": "uint256"
            },
            {
              "internalType": "uint256",
              "name": "blockNum",
              "type": "uint256"
            },
            {
              "internalType": "uint16",
              "name": "requestConfirmations",
              "type": "uint16"
            },
            {
              "internalType": "uint256",
              "name": "callbackGasLimit",
              "type": "uint256"
            },
            {
              "internalType": "uint256",
              "name": "callbackMaxGasPrice",
              "type": "uint256"
            }
          ],
          "internalType": "struct Adapter.Callback",
          "name": "",
          "type": "tuple"
        }
      ],
      "stateMutability": "view",
      "type": "function"
    },
    {
      "inputs": [
        {
          "internalType": "uint64",
          "name": "subId",
          "type": "uint64"
        }
      ],
      "name": "getSubscription",
      "outputs": [
        {
          "internalType": "uint96",
          "name": "balance",
          "type": "uint96"
        },
        {
          "internalType": "uint96",
          "name": "inflightCost",
          "type": "uint96"
        },
        {
          "internalType": "uint64",
          "name": "reqCount",
          "type": "uint64"
        },
        {
          "internalType": "address",
          "name": "owner",
          "type": "address"
        },
        {
          "internalType": "address[]",
          "name": "consumers",
          "type": "address[]"
        }
      ],
      "stateMutability": "view",
      "type": "function"
    },
    {
      "inputs": [],
      "name": "groupCount",
      "outputs": [
        {
          "internalType": "uint256",
          "name": "",
          "type": "uint256"
        }
      ],
      "stateMutability": "view",
      "type": "function"
    },
    {
      "inputs": [
        {
          "internalType": "uint256",
          "name": "",
          "type": "uint256"
        }
      ],
      "name": "groups",
      "outputs": [
        {
          "internalType": "uint256",
          "name": "index",
          "type": "uint256"
        },
        {
          "internalType": "uint256",
          "name": "epoch",
          "type": "uint256"
        },
        {
          "internalType": "uint256",
          "name": "size",
          "type": "uint256"
        },
        {
          "internalType": "uint256",
          "name": "threshold",
          "type": "uint256"
        },
        {
          "internalType": "bool",
          "name": "isStrictlyMajorityConsensusReached",
          "type": "bool"
        }
      ],
      "stateMutability": "view",
      "type": "function"
    },
    {
      "inputs": [],
      "name": "lastAssignedGroupIndex",
      "outputs": [
        {
          "internalType": "uint256",
          "name": "",
          "type": "uint256"
        }
      ],
      "stateMutability": "view",
      "type": "function"
    },
    {
      "inputs": [],
      "name": "lastOutput",
      "outputs": [
        {
          "internalType": "uint256",
          "name": "",
          "type": "uint256"
        }
      ],
      "stateMutability": "view",
      "type": "function"
    },
    {
      "inputs": [],
      "name": "owner",
      "outputs": [
        {
          "internalType": "address",
          "name": "",
          "type": "address"
        }
      ],
      "stateMutability": "view",
      "type": "function"
    },
    {
      "inputs": [],
      "name": "renounceOwnership",
      "outputs": [],
      "stateMutability": "nonpayable",
      "type": "function"
    },
    {
      "inputs": [
        {
          "components": [
            {
              "internalType": "enum IRequestTypeBase.RequestType",
              "name": "requestType",
              "type": "uint8"
            },
            {
              "internalType": "bytes",
              "name": "params",
              "type": "bytes"
            },
            {
              "internalType": "uint64",
              "name": "subId",
              "type": "uint64"
            },
            {
              "internalType": "uint256",
              "name": "seed",
              "type": "uint256"
            },
            {
              "internalType": "uint16",
              "name": "requestConfirmations",
              "type": "uint16"
            },
            {
              "internalType": "uint256",
              "name": "callbackGasLimit",
              "type": "uint256"
            },
            {
              "internalType": "uint256",
              "name": "callbackMaxGasPrice",
              "type": "uint256"
            }
          ],
          "internalType": "struct IAdapter.RequestRandomnessParams",
          "name": "p",
          "type": "tuple"
        }
      ],
      "name": "requestRandomness",
      "outputs": [
        {
          "internalType": "bytes32",
          "name": "",
          "type": "bytes32"
        }
      ],
      "stateMutability": "nonpayable",
      "type": "function"
    },
    {
      "inputs": [
        {
          "internalType": "address",
          "name": "",
          "type": "address"
        }
      ],
      "name": "rewards",
      "outputs": [
        {
          "internalType": "uint256",
          "name": "",
          "type": "uint256"
        }
      ],
      "stateMutability": "view",
      "type": "function"
    },
    {
      "inputs": [
        {
          "internalType": "bytes32",
          "name": "",
          "type": "bytes32"
        }
      ],
      "name": "s_callbacks",
      "outputs": [
        {
          "internalType": "address",
          "name": "callbackContract",
          "type": "address"
        },
        {
          "internalType": "enum IRequestTypeBase.RequestType",
          "name": "requestType",
          "type": "uint8"
        },
        {
          "internalType": "bytes",
          "name": "params",
          "type": "bytes"
        },
        {
          "internalType": "uint64",
          "name": "subId",
          "type": "uint64"
        },
        {
          "internalType": "uint256",
          "name": "seed",
          "type": "uint256"
        },
        {
          "internalType": "uint256",
          "name": "groupIndex",
          "type": "uint256"
        },
        {
          "internalType": "uint256",
          "name": "blockNum",
          "type": "uint256"
        },
        {
          "internalType": "uint16",
          "name": "requestConfirmations",
          "type": "uint16"
        },
        {
          "internalType": "uint256",
          "name": "callbackGasLimit",
          "type": "uint256"
        },
        {
          "internalType": "uint256",
          "name": "callbackMaxGasPrice",
          "type": "uint256"
        }
      ],
      "stateMutability": "view",
      "type": "function"
    },
    {
      "inputs": [
        {
          "internalType": "uint16",
          "name": "minimumRequestConfirmations",
          "type": "uint16"
        },
        {
          "internalType": "uint32",
          "name": "maxGasLimit",
          "type": "uint32"
        },
        {
          "internalType": "uint32",
          "name": "stalenessSeconds",
          "type": "uint32"
        },
        {
          "internalType": "uint32",
          "name": "gasAfterPaymentCalculation",
          "type": "uint32"
        },
        {
          "internalType": "uint32",
          "name": "gasExceptCallback",
          "type": "uint32"
        },
        {
          "internalType": "int256",
          "name": "fallbackWeiPerUnitArpa",
          "type": "int256"
        },
        {
          "components": [
            {
              "internalType": "uint32",
              "name": "fulfillmentFlatFeeArpaPPMTier1",
              "type": "uint32"
            },
            {
              "internalType": "uint32",
              "name": "fulfillmentFlatFeeArpaPPMTier2",
              "type": "uint32"
            },
            {
              "internalType": "uint32",
              "name": "fulfillmentFlatFeeArpaPPMTier3",
              "type": "uint32"
            },
            {
              "internalType": "uint32",
              "name": "fulfillmentFlatFeeArpaPPMTier4",
              "type": "uint32"
            },
            {
              "internalType": "uint32",
              "name": "fulfillmentFlatFeeArpaPPMTier5",
              "type": "uint32"
            },
            {
              "internalType": "uint24",
              "name": "reqsForTier2",
              "type": "uint24"
            },
            {
              "internalType": "uint24",
              "name": "reqsForTier3",
              "type": "uint24"
            },
            {
              "internalType": "uint24",
              "name": "reqsForTier4",
              "type": "uint24"
            },
            {
              "internalType": "uint24",
              "name": "reqsForTier5",
              "type": "uint24"
            }
          ],
          "internalType": "struct Adapter.FeeConfig",
          "name": "feeConfig",
          "type": "tuple"
        }
      ],
      "name": "setConfig",
      "outputs": [],
      "stateMutability": "nonpayable",
      "type": "function"
    },
    {
      "inputs": [
        {
          "internalType": "address",
          "name": "newOwner",
          "type": "address"
        }
      ],
      "name": "transferOwnership",
      "outputs": [],
      "stateMutability": "nonpayable",
      "type": "function"
    },
    {
      "inputs": [],
      "name": "validGroupIndices",
      "outputs": [
        {
          "internalType": "uint256[]",
          "name": "",
          "type": "uint256[]"
        }
      ],
      "stateMutability": "view",
      "type": "function"
    }
  ],
  "bytecode": {
    "object": "0x60c06040526722222222222222226006553480156200001d57600080fd5b5060405162009fb838038062009fb8833981810160405281019062000043919062000209565b6200006362000057620000d360201b60201c565b620000db60201b60201c565b8173ffffffffffffffffffffffffffffffffffffffff1660808173ffffffffffffffffffffffffffffffffffffffff16815250508073ffffffffffffffffffffffffffffffffffffffff1660a08173ffffffffffffffffffffffffffffffffffffffff1681525050505062000250565b600033905090565b60008060009054906101000a900473ffffffffffffffffffffffffffffffffffffffff169050816000806101000a81548173ffffffffffffffffffffffffffffffffffffffff021916908373ffffffffffffffffffffffffffffffffffffffff1602179055508173ffffffffffffffffffffffffffffffffffffffff168173ffffffffffffffffffffffffffffffffffffffff167f8be0079c531659141344cd1fd0a4f28419497f9722a3daafe3b4186f6b6457e060405160405180910390a35050565b600080fd5b600073ffffffffffffffffffffffffffffffffffffffff82169050919050565b6000620001d182620001a4565b9050919050565b620001e381620001c4565b8114620001ef57600080fd5b50565b6000815190506200020381620001d8565b92915050565b600080604083850312156200022357620002226200019f565b5b60006200023385828601620001f2565b92505060206200024685828601620001f2565b9150509250929050565b60805160a051619d346200028460003960008181612a6501526149d801526000818161105b0152612e0a0152619d346000f3fe608060405234801561001057600080fd5b50600436106101da5760003560e01c806396324bd411610104578063cc36c1e8116100a2578063dd28192811610071578063dd28192814610596578063e0b72cfd146105b2578063f2fde38b146105d0578063fb0882fc146105ec576101da565b8063cc36c1e8146104e8578063ceb6065414610518578063d164e28d14610548578063d2f9f9a714610566576101da565b8063a21a23e4116100de578063a21a23e41461045a578063a47c769614610478578063bcee30e5146104ac578063c24f03da146104ca576101da565b806396324bd4146103d857806397228a7e1461040c5780639ea3b84e1461042a576101da565b806364d51a2a1161017c57806386dd2e9e1161014b57806386dd2e9e1461035057806388b12d551461036c5780638da5cb5b1461039c5780638f23b326146103ba576101da565b806364d51a2a146102dc578063715018a6146102fa5780637341c10c1461030457806376a911bc14610320576101da565b8063253870ff116101b8578063253870ff1461024b5780632d0354ec146102695780634d6154241461028557806362d14450146102be576101da565b80630700037d146101df5780630b919eef1461020f57806315c48b841461022d575b600080fd5b6101f960048036038101906101f49190617551565b61061c565b6040516102069190617597565b60405180910390f35b610217610634565b6040516102249190617597565b60405180910390f35b61023561063a565b60405161024291906175cf565b60405180910390f35b61025361063f565b60405161026091906176a8565b60405180910390f35b610283600480360381019061027e9190617919565b610bac565b005b61029f600480360381019061029a91906179f2565b610f2e565b6040516102b59a99989796959493929190617b50565b60405180910390f35b6102c6611059565b6040516102d39190617c52565b60405180910390f35b6102e461107d565b6040516102f191906175cf565b60405180910390f35b610302611082565b005b61031e60048036038101906103199190617c99565b611096565b005b61033a60048036038101906103359190617551565b6114ca565b6040516103479190617cd9565b60405180910390f35b61036a60048036038101906103659190617e3d565b61152a565b005b610386600480360381019061038191906179f2565b611dfd565b6040516103939190618020565b60405180910390f35b6103a4611fd2565b6040516103b19190618042565b60405180910390f35b6103c2611ffb565b6040516103cf9190617597565b60405180910390f35b6103f260048036038101906103ed919061805d565b612001565b6040516104039594939291906180a5565b60405180910390f35b610414612044565b6040516104219190617597565b60405180910390f35b610444600480360381019061043f91906180f8565b61204a565b6040516104519190618186565b60405180910390f35b610462612165565b60405161046f9190617cd9565b60405180910390f35b610492600480360381019061048d91906181a1565b6122f1565b6040516104a395949392919061827d565b60405180910390f35b6104b461257e565b6040516104c19190617597565b60405180910390f35b6104d2612583565b6040516104df9190617597565b60405180910390f35b61050260048036038101906104fd91906180f8565b612588565b60405161050f9190618186565b60405180910390f35b610532600480360381019061052d919061805d565b612647565b60405161053f91906186e0565b60405180910390f35b610550612a63565b60405161055d9190618723565b60405180910390f35b610580600480360381019061057b91906181a1565b612a87565b60405161058d919061874d565b60405180910390f35b6105b060048036038101906105ab9190618768565b612d08565b005b6105ba612f77565b6040516105c79190617597565b60405180910390f35b6105ea60048036038101906105e59190617551565b612f7c565b005b61060660048036038101906106019190618952565b612fff565b60405161061391906189aa565b60405180910390f35b60046020528060005260406000206000915090505481565b60055481565b60c881565b6060600060025467ffffffffffffffff81111561065f5761065e61777e565b5b60405190808252806020026020018201604052801561068d5781602001602082028036833780820191505090505b5090506000805b600254811015610afc57600060036000838152602001908152602001600020604051806101200160405290816000820154815260200160018201548152602001600282015481526020016003820154815260200160048201805480602002602001604051908101604052809291908181526020016000905b828210156107d957838290600052602060002090600502016040518060400160405290816000820160009054906101000a900473ffffffffffffffffffffffffffffffffffffffff1673ffffffffffffffffffffffffffffffffffffffff1673ffffffffffffffffffffffffffffffffffffffff168152602001600182016004806020026040519081016040528092919082600480156107c1576020028201915b8154815260200190600101908083116107ad575b5050505050815250508152602001906001019061070c565b5050505081526020016005820180548060200260200160405190810160405280929190818152602001828054801561086657602002820191906000526020600020905b8160009054906101000a900473ffffffffffffffffffffffffffffffffffffffff1673ffffffffffffffffffffffffffffffffffffffff168152602001906001019080831161081c575b5050505050815260200160068201805480602002602001604051908101604052809291908181526020016000905b82821015610a4557838290600052602060002090600702016040518060400160405290816000820180548060200260200160405190810160405280929190818152602001828054801561093c57602002820191906000526020600020905b8160009054906101000a900473ffffffffffffffffffffffffffffffffffffffff1673ffffffffffffffffffffffffffffffffffffffff16815260200190600101908083116108f2575b5050505050815260200160018201604051806060016040529081600082015481526020016001820160048060200260405190810160405280929190826004801561099b576020028201915b815481526020019060010190808311610987575b5050505050815260200160058201805480602002602001604051908101604052809291908181526020018280548015610a2957602002820191906000526020600020905b8160009054906101000a900473ffffffffffffffffffffffffffffffffffffffff1673ffffffffffffffffffffffffffffffffffffffff16815260200190600101908083116109df575b5050505050815250508152505081526020019060010190610894565b5050505081526020016007820160009054906101000a900460ff1615151515815260200160088201600480602002604051908101604052809291908260048015610aa4576020028201915b815481526020019060010190808311610a90575b50505050508152505090508060e0015115610ae85781848481518110610acd57610acc6189c5565b5b6020026020010181815250508280610ae490618a23565b9350505b508080610af490618a23565b915050610694565b5060008167ffffffffffffffff811115610b1957610b1861777e565b5b604051908082528060200260200182016040528015610b475781602001602082028036833780820191505090505b50905060005b82811015610ba257838181518110610b6857610b676189c5565b5b6020026020010151828281518110610b8357610b826189c5565b5b6020026020010181815250508080610b9a90618a23565b915050610b4d565b5080935050505090565b610bb4613802565b60c861ffff168761ffff161115610c0757868760c86040517fa7386976000000000000000000000000000000000000000000000000000000008152600401610bfe93929190618a6b565b60405180910390fd5b60008213610c4c57816040517f09d2037f000000000000000000000000000000000000000000000000000000008152600401610c439190618ab1565b60405180910390fd5b6040518060c001604052808861ffff1681526020018763ffffffff1681526020016000151581526020018663ffffffff1681526020018563ffffffff1681526020018463ffffffff16815250600860008201518160000160006101000a81548161ffff021916908361ffff16021790555060208201518160000160026101000a81548163ffffffff021916908363ffffffff16021790555060408201518160000160066101000a81548160ff02191690831515021790555060608201518160000160076101000a81548163ffffffff021916908363ffffffff160217905550608082015181600001600b6101000a81548163ffffffff021916908363ffffffff16021790555060a082015181600001600f6101000a81548163ffffffff021916908363ffffffff16021790555090505080600960008201518160000160006101000a81548163ffffffff021916908363ffffffff16021790555060208201518160000160046101000a81548163ffffffff021916908363ffffffff16021790555060408201518160000160086101000a81548163ffffffff021916908363ffffffff160217905550606082015181600001600c6101000a81548163ffffffff021916908363ffffffff16021790555060808201518160000160106101000a81548163ffffffff021916908363ffffffff16021790555060a08201518160000160146101000a81548162ffffff021916908362ffffff16021790555060c08201518160000160176101000a81548162ffffff021916908362ffffff16021790555060e082015181600001601a6101000a81548162ffffff021916908362ffffff16021790555061010082015181600001601d6101000a81548162ffffff021916908362ffffff160217905550905050816007819055507fa07515c322bd28ab957a698d96560ad628e53a3fb4d16a3d5756c6cf411942a28787878787876009604051610f1d9796959493929190618d4b565b60405180910390a150505050505050565b600a6020528060005260406000206000915090508060000160009054906101000a900473ffffffffffffffffffffffffffffffffffffffff16908060000160149054906101000a900460ff1690806001018054610f8a90618dea565b80601f0160208091040260200160405190810160405280929190818152602001828054610fb690618dea565b80156110035780601f10610fd857610100808354040283529160200191611003565b820191906000526020600020905b815481529060010190602001808311610fe657829003601f168201915b5050505050908060020160009054906101000a900467ffffffffffffffff16908060030154908060040154908060050154908060060160009054906101000a900461ffff1690806007015490806008015490508a565b7f000000000000000000000000000000000000000000000000000000000000000081565b606481565b61108a613802565b6110946000613880565b565b816000600c60008367ffffffffffffffff1667ffffffffffffffff16815260200190815260200160002060000160009054906101000a900473ffffffffffffffffffffffffffffffffffffffff169050600073ffffffffffffffffffffffffffffffffffffffff168173ffffffffffffffffffffffffffffffffffffffff160361114c576040517f1f6a65b600000000000000000000000000000000000000000000000000000000815260040160405180910390fd5b8073ffffffffffffffffffffffffffffffffffffffff163373ffffffffffffffffffffffffffffffffffffffff16146111bc57806040517fd8a3fb520000000000000000000000000000000000000000000000000000000081526004016111b39190618042565b60405180910390fd5b600860000160069054906101000a900460ff1615611206576040517fed3ba6a600000000000000000000000000000000000000000000000000000000815260040160405180910390fd5b606461ffff16600c60008667ffffffffffffffff1667ffffffffffffffff1681526020019081526020016000206002018054905003611271576040517f05a48e0f00000000000000000000000000000000000000000000000000000000815260040160405180910390fd5b6000600b60008573ffffffffffffffffffffffffffffffffffffffff1673ffffffffffffffffffffffffffffffffffffffff16815260200190815260200160002060000160008667ffffffffffffffff1667ffffffffffffffff16815260200190815260200160002060009054906101000a900467ffffffffffffffff1667ffffffffffffffff16036114c4576001600b60008573ffffffffffffffffffffffffffffffffffffffff1673ffffffffffffffffffffffffffffffffffffffff16815260200190815260200160002060000160008667ffffffffffffffff1667ffffffffffffffff16815260200190815260200160002060006101000a81548167ffffffffffffffff021916908367ffffffffffffffff16021790555083600b60008573ffffffffffffffffffffffffffffffffffffffff1673ffffffffffffffffffffffffffffffffffffffff16815260200190815260200160002060010160006101000a81548167ffffffffffffffff021916908367ffffffffffffffff160217905550600c60008567ffffffffffffffff1667ffffffffffffffff168152602001908152602001600020600201839080600181540180825580915050600190039060005260206000200160009091909190916101000a81548173ffffffffffffffffffffffffffffffffffffffff021916908373ffffffffffffffffffffffffffffffffffffffff1602179055508367ffffffffffffffff167f43dc749a04ac8fb825cbd514f7c0e13f13bc6f2ee66043b76629d51776cff8e0846040516114bb9190618042565b60405180910390a25b50505050565b6000600b60008373ffffffffffffffffffffffffffffffffffffffff1673ffffffffffffffffffffffffffffffffffffffff16815260200190815260200160002060010160009054906101000a900467ffffffffffffffff169050919050565b60005a90506000600a6000868152602001908152602001600020604051806101400160405290816000820160009054906101000a900473ffffffffffffffffffffffffffffffffffffffff1673ffffffffffffffffffffffffffffffffffffffff1673ffffffffffffffffffffffffffffffffffffffff1681526020016000820160149054906101000a900460ff1660028111156115cb576115ca617a2e565b5b60028111156115dd576115dc617a2e565b5b81526020016001820180546115f190618dea565b80601f016020809104026020016040519081016040528092919081815260200182805461161d90618dea565b801561166a5780601f1061163f5761010080835404028352916020019161166a565b820191906000526020600020905b81548152906001019060200180831161164d57829003601f168201915b505050505081526020016002820160009054906101000a900467ffffffffffffffff1667ffffffffffffffff1667ffffffffffffffff1681526020016003820154815260200160048201548152602001600582015481526020016006820160009054906101000a900461ffff1661ffff1661ffff1681526020016007820154815260200160088201548152505090506000816080015103611737576040517f3688124a00000000000000000000000000000000000000000000000000000000815260040160405180910390fd5b8060e0015161ffff168160c0015161174f9190618e1b565b431015611791576040517f08c379a000000000000000000000000000000000000000000000000000000000815260040161178890618ece565b60405180910390fd5b8060a0015186141580156117b55750600a8160c001516117b19190618e1b565b4311155b156117ec576040517ff06e777a00000000000000000000000000000000000000000000000000000000815260040160405180910390fd5b6002548610611830576040517f08c379a000000000000000000000000000000000000000000000000000000000815260040161182790618f3a565b60405180910390fd5b61183984613944565b61186f576040517f8529df1f00000000000000000000000000000000000000000000000000000000815260040160405180910390fd5b60008351036118aa576040517f8bdcc37500000000000000000000000000000000000000000000000000000000815260040160405180910390fd5b60006003600088815260200190815260200160002090506119538160050180548060200260200160405190810160405280929190818152602001828054801561194857602002820191906000526020600020905b8160009054906101000a900473ffffffffffffffffffffffffffffffffffffffff1673ffffffffffffffffffffffffffffffffffffffff16815260200190600101908083116118fe575b5050505050336139c1565b611989576040517fd9ce719d00000000000000000000000000000000000000000000000000000000815260040160405180910390fd5b600082608001518360c001516040516020016119a6929190618f7b565b604051602081830303815290604052905060006119c282613a48565b9050611a166119d088613ab0565b84600801600480602002604051908101604052809291908260048015611a0b576020028201915b8154815260200190600101908083116119f7575b505050505083613bcf565b611a4c576040517f8baa579f00000000000000000000000000000000000000000000000000000000815260040160405180910390fd5b6000865167ffffffffffffffff811115611a6957611a6861777e565b5b604051908082528060200260200182016040528015611aa257816020015b611a8f61731d565b815260200190600190039081611a875790505b5090506000875167ffffffffffffffff811115611ac257611ac161777e565b5b604051908082528060200260200182016040528015611afb57816020015b611ae861733f565b815260200190600190039081611ae05790505b5090506000885167ffffffffffffffff811115611b1b57611b1a61777e565b5b604051908082528060200260200182016040528015611b495781602001602082028036833780820191505090505b50905060005b8951811015611d5f57611b7f8a8281518110611b6e57611b6d6189c5565b5b602002602001015160200151613944565b611bb5576040517fd70936fa00000000000000000000000000000000000000000000000000000000815260040160405180910390fd5b611bdc8a8281518110611bcb57611bca6189c5565b5b602002602001015160200151613ab0565b848281518110611bef57611bee6189c5565b5b6020026020010181905250866004018a8281518110611c1157611c106189c5565b5b60200260200101516000015181548110611c2e57611c2d6189c5565b5b9060005260206000209060050201600101600480602002604051908101604052809291908260048015611c76576020028201915b815481526020019060010190808311611c62575b5050505050838281518110611c8e57611c8d6189c5565b5b6020026020010181905250866004018a8281518110611cb057611caf6189c5565b5b60200260200101516000015181548110611ccd57611ccc6189c5565b5b906000526020600020906005020160000160009054906101000a900473ffffffffffffffffffffffffffffffffffffffff16828281518110611d1257611d116189c5565b5b602002602001019073ffffffffffffffffffffffffffffffffffffffff16908173ffffffffffffffffffffffffffffffffffffffff16815250508080611d5790618a23565b915050611b4f565b50611d6b838386613df6565b611da1576040517f9c2d1c6d00000000000000000000000000000000000000000000000000000000815260040160405180910390fd5b60008a604051602001611db49190617597565b6040516020818303038152906040528051906020012060001c905080600681905550611de38c828f8c8c61409c565b5050611dee826148c0565b50505050505050505050505050565b611e05617361565b600a6000838152602001908152602001600020604051806101400160405290816000820160009054906101000a900473ffffffffffffffffffffffffffffffffffffffff1673ffffffffffffffffffffffffffffffffffffffff1673ffffffffffffffffffffffffffffffffffffffff1681526020016000820160149054906101000a900460ff166002811115611e9f57611e9e617a2e565b5b6002811115611eb157611eb0617a2e565b5b8152602001600182018054611ec590618dea565b80601f0160208091040260200160405190810160405280929190818152602001828054611ef190618dea565b8015611f3e5780601f10611f1357610100808354040283529160200191611f3e565b820191906000526020600020905b815481529060010190602001808311611f2157829003601f168201915b505050505081526020016002820160009054906101000a900467ffffffffffffffff1667ffffffffffffffff1667ffffffffffffffff1681526020016003820154815260200160048201548152602001600582015481526020016006820160009054906101000a900461ffff1661ffff1661ffff168152602001600782015481526020016008820154815250509050919050565b60008060009054906101000a900473ffffffffffffffffffffffffffffffffffffffff16905090565b60025481565b60036020528060005260406000206000915090508060000154908060010154908060020154908060030154908060070160009054906101000a900460ff16905085565b60065481565b6000806120556149ab565b90506000811361209c57806040517f09d2037f0000000000000000000000000000000000000000000000000000000081526004016120939190618ab1565b60405180910390fd5b6000815a88886120ac9190618e1b565b6120b69190618fa7565b85670de0b6b3a76400006120ca9190618fdb565b6120d49190618fdb565b6120de9190619064565b905060008563ffffffff1664e8d4a510006120f99190618fdb565b9050806b04d8c55aefb8c05b5c0000006121139190618fa7565b82111561214c576040517fe80fa38100000000000000000000000000000000000000000000000000000000815260040160405180910390fd5b80826121589190618e1b565b9350505050949350505050565b6000600860000160069054906101000a900460ff16156121b1576040517fed3ba6a600000000000000000000000000000000000000000000000000000000815260040160405180910390fd5b600d600081819054906101000a900467ffffffffffffffff16809291906121d790619095565b91906101000a81548167ffffffffffffffff021916908367ffffffffffffffff1602179055505033600c6000600d60009054906101000a900467ffffffffffffffff1667ffffffffffffffff1667ffffffffffffffff16815260200190815260200160002060000160006101000a81548173ffffffffffffffffffffffffffffffffffffffff021916908373ffffffffffffffffffffffffffffffffffffffff160217905550600d60009054906101000a900467ffffffffffffffff1667ffffffffffffffff167f464722b4166576d3dcbba877b999bc35cf911f4eaf434b7eba68fa113951d0bf336040516122cd9190618042565b60405180910390a2600d60009054906101000a900467ffffffffffffffff16905090565b6000806000806060600073ffffffffffffffffffffffffffffffffffffffff16600c60008867ffffffffffffffff1667ffffffffffffffff16815260200190815260200160002060000160009054906101000a900473ffffffffffffffffffffffffffffffffffffffff1673ffffffffffffffffffffffffffffffffffffffff16036123a9576040517f1f6a65b600000000000000000000000000000000000000000000000000000000815260040160405180910390fd5b600c60008767ffffffffffffffff1667ffffffffffffffff16815260200190815260200160002060030160009054906101000a90046bffffffffffffffffffffffff16600c60008867ffffffffffffffff1667ffffffffffffffff168152602001908152602001600020600301600c9054906101000a90046bffffffffffffffffffffffff16600c60008967ffffffffffffffff1667ffffffffffffffff16815260200190815260200160002060050160009054906101000a900467ffffffffffffffff16600c60008a67ffffffffffffffff1667ffffffffffffffff16815260200190815260200160002060000160009054906101000a900473ffffffffffffffffffffffffffffffffffffffff16600c60008b67ffffffffffffffff1667ffffffffffffffff1681526020019081526020016000206002018080548060200260200160405190810160405280929190818152602001828054801561256457602002820191906000526020600020905b8160009054906101000a900473ffffffffffffffffffffffffffffffffffffffff1673ffffffffffffffffffffffffffffffffffffffff168152602001906001019080831161251a575b505050505090509450945094509450945091939590929450565b603281565b606481565b6000806125936149ab565b9050600081136125da57806040517f09d2037f0000000000000000000000000000000000000000000000000000000081526004016125d19190618ab1565b60405180910390fd5b60008187876125e99190618e1b565b85670de0b6b3a76400006125fd9190618fdb565b6126079190618fdb565b6126119190619064565b905060008563ffffffff1664e8d4a5100061262c9190618fdb565b9050808261263a9190618e1b565b9350505050949350505050565b61264f6173ea565b60036000838152602001908152602001600020604051806101200160405290816000820154815260200160018201548152602001600282015481526020016003820154815260200160048201805480602002602001604051908101604052809291908181526020016000905b8282101561278857838290600052602060002090600502016040518060400160405290816000820160009054906101000a900473ffffffffffffffffffffffffffffffffffffffff1673ffffffffffffffffffffffffffffffffffffffff1673ffffffffffffffffffffffffffffffffffffffff16815260200160018201600480602002604051908101604052809291908260048015612770576020028201915b81548152602001906001019080831161275c575b505050505081525050815260200190600101906126bb565b5050505081526020016005820180548060200260200160405190810160405280929190818152602001828054801561281557602002820191906000526020600020905b8160009054906101000a900473ffffffffffffffffffffffffffffffffffffffff1673ffffffffffffffffffffffffffffffffffffffff16815260200190600101908083116127cb575b5050505050815260200160068201805480602002602001604051908101604052809291908181526020016000905b828210156129f45783829060005260206000209060070201604051806040016040529081600082018054806020026020016040519081016040528092919081815260200182805480156128eb57602002820191906000526020600020905b8160009054906101000a900473ffffffffffffffffffffffffffffffffffffffff1673ffffffffffffffffffffffffffffffffffffffff16815260200190600101908083116128a1575b5050505050815260200160018201604051806060016040529081600082015481526020016001820160048060200260405190810160405280929190826004801561294a576020028201915b815481526020019060010190808311612936575b50505050508152602001600582018054806020026020016040519081016040528092919081815260200182805480156129d857602002820191906000526020600020905b8160009054906101000a900473ffffffffffffffffffffffffffffffffffffffff1673ffffffffffffffffffffffffffffffffffffffff168152602001906001019080831161298e575b5050505050815250508152505081526020019060010190612843565b5050505081526020016007820160009054906101000a900460ff1615151515815260200160088201600480602002604051908101604052809291908260048015612a53576020028201915b815481526020019060010190808311612a3f575b5050505050815250509050919050565b7f000000000000000000000000000000000000000000000000000000000000000081565b6000806009604051806101200160405290816000820160009054906101000a900463ffffffff1663ffffffff1663ffffffff1681526020016000820160049054906101000a900463ffffffff1663ffffffff1663ffffffff1681526020016000820160089054906101000a900463ffffffff1663ffffffff1663ffffffff16815260200160008201600c9054906101000a900463ffffffff1663ffffffff1663ffffffff1681526020016000820160109054906101000a900463ffffffff1663ffffffff1663ffffffff1681526020016000820160149054906101000a900462ffffff1662ffffff1662ffffff1681526020016000820160179054906101000a900462ffffff1662ffffff1662ffffff16815260200160008201601a9054906101000a900462ffffff1662ffffff1662ffffff16815260200160008201601d9054906101000a900462ffffff1662ffffff1662ffffff168152505090508267ffffffffffffffff16600011158015612c1257508060a0015162ffffff168367ffffffffffffffff1611155b15612c24578060000151915050612d03565b8267ffffffffffffffff168160a0015162ffffff16108015612c5957508060c0015162ffffff168367ffffffffffffffff1611155b15612c6b578060200151915050612d03565b8267ffffffffffffffff168160c0015162ffffff16108015612ca057508060e0015162ffffff168367ffffffffffffffff1611155b15612cb2578060400151915050612d03565b8267ffffffffffffffff168160e0015162ffffff16108015612ce8575080610100015162ffffff168367ffffffffffffffff1611155b15612cfa578060600151915050612d03565b80608001519150505b919050565b600860000160069054906101000a900460ff1615612d52576040517fed3ba6a600000000000000000000000000000000000000000000000000000000815260040160405180910390fd5b600073ffffffffffffffffffffffffffffffffffffffff16600c60008467ffffffffffffffff1667ffffffffffffffff16815260200190815260200160002060000160009054906101000a900473ffffffffffffffffffffffffffffffffffffffff1673ffffffffffffffffffffffffffffffffffffffff1603612e02576040517f1f6a65b600000000000000000000000000000000000000000000000000000000815260040160405180910390fd5b612e4f3330837f000000000000000000000000000000000000000000000000000000000000000073ffffffffffffffffffffffffffffffffffffffff16614aa8909392919063ffffffff16565b6000600c60008467ffffffffffffffff1667ffffffffffffffff16815260200190815260200160002060030160009054906101000a90046bffffffffffffffffffffffff166bffffffffffffffffffffffff16905081600c60008567ffffffffffffffff1667ffffffffffffffff16815260200190815260200160002060030160008282829054906101000a90046bffffffffffffffffffffffff16612ef591906190c5565b92506101000a8154816bffffffffffffffffffffffff02191690836bffffffffffffffffffffffff1602179055508267ffffffffffffffff167fd39ec07f4e209f627a4c427971473820dc129761ba28de8906bd56f57101d4f8828484612f5c9190618e1b565b604051612f6a929190619107565b60405180910390a2505050565b600a81565b612f84613802565b600073ffffffffffffffffffffffffffffffffffffffff168173ffffffffffffffffffffffffffffffffffffffff1603612ff3576040517f08c379a0000000000000000000000000000000000000000000000000000000008152600401612fea906191a2565b60405180910390fd5b612ffc81613880565b50565b60003273ffffffffffffffffffffffffffffffffffffffff163373ffffffffffffffffffffffffffffffffffffffff160361306f576040517fc26368fd0000000000000000000000000000000000000000000000000000000081526004016130669061925a565b60405180910390fd5b600073ffffffffffffffffffffffffffffffffffffffff16600c6000846040015167ffffffffffffffff1667ffffffffffffffff16815260200190815260200160002060000160009054906101000a900473ffffffffffffffffffffffffffffffffffffffff1673ffffffffffffffffffffffffffffffffffffffff1603613123576040517f1f6a65b600000000000000000000000000000000000000000000000000000000815260040160405180910390fd5b6000600b60003373ffffffffffffffffffffffffffffffffffffffff1673ffffffffffffffffffffffffffffffffffffffff1681526020019081526020016000206000016000846040015167ffffffffffffffff1667ffffffffffffffff16815260200190815260200160002060009054906101000a900467ffffffffffffffff16905060008167ffffffffffffffff16036131fc578260400151336040517ff0019fe60000000000000000000000000000000000000000000000000000000081526004016131f392919061927a565b60405180910390fd5b6000613206614b31565b9050806005819055506000600b60003373ffffffffffffffffffffffffffffffffffffffff1673ffffffffffffffffffffffffffffffffffffffff1681526020019081526020016000206000016000866040015167ffffffffffffffff1667ffffffffffffffff16815260200190815260200160002060009054906101000a900467ffffffffffffffff16905060006132ae8660600151338467ffffffffffffffff16614bd1565b90506001600b60003373ffffffffffffffffffffffffffffffffffffffff1673ffffffffffffffffffffffffffffffffffffffff1681526020019081526020016000206000016000886040015167ffffffffffffffff1667ffffffffffffffff16815260200190815260200160002060008282829054906101000a900467ffffffffffffffff1661333f91906192a3565b92506101000a81548167ffffffffffffffff021916908367ffffffffffffffff160217905550600061337082614c0a565b90506000600c6000896040015167ffffffffffffffff1667ffffffffffffffff16815260200190815260200160002060050160009054906101000a900467ffffffffffffffff16905060006133fe8960a001516008600001600f9054906101000a900463ffffffff1663ffffffff166133f46001866133ef91906192a3565b612a87565b8c60c00151612588565b9050806bffffffffffffffffffffffff16600c60008b6040015167ffffffffffffffff1667ffffffffffffffff168152602001908152602001600020600301600c9054906101000a90046bffffffffffffffffffffffff16600c60008c6040015167ffffffffffffffff1667ffffffffffffffff16815260200190815260200160002060030160009054906101000a90046bffffffffffffffffffffffff166134a791906192e1565b6bffffffffffffffffffffffff1610156134ed576040517f8894bd5e00000000000000000000000000000000000000000000000000000000815260040160405180910390fd5b80600c60008b6040015167ffffffffffffffff1667ffffffffffffffff168152602001908152602001600020600301600c8282829054906101000a90046bffffffffffffffffffffffff1661354291906190c5565b92506101000a8154816bffffffffffffffffffffffff02191690836bffffffffffffffffffffffff16021790555080600c60008b6040015167ffffffffffffffff1667ffffffffffffffff168152602001908152602001600020600401600085815260200190815260200160002060006101000a8154816bffffffffffffffffffffffff02191690836bffffffffffffffffffffffff160217905550600073ffffffffffffffffffffffffffffffffffffffff16600a600085815260200190815260200160002060000160009054906101000a900473ffffffffffffffffffffffffffffffffffffffff1673ffffffffffffffffffffffffffffffffffffffff161461365157613650619315565b5b6000600a60008581526020019081526020016000209050338160000160006101000a81548173ffffffffffffffffffffffffffffffffffffffff021916908373ffffffffffffffffffffffffffffffffffffffff16021790555089600001518160000160146101000a81548160ff021916908360028111156136d6576136d5617a2e565b5b021790555089602001518160010190816136f091906194e6565b5089604001518160020160006101000a81548167ffffffffffffffff021916908367ffffffffffffffff16021790555084816003018190555086816004018190555043816005018190555089608001518160060160006101000a81548161ffff021916908361ffff1602179055508960a0015181600701819055508960c001518160080181905550867fa214dda13f90e3098f56c612a31d381b2fac7b48853bf49937773c47174dfe4785338460020160009054906101000a900467ffffffffffffffff1685600301548660060160009054906101000a900461ffff16876007015488600801546040516137ea97969594939291906195b8565b60405180910390a28398505050505050505050919050565b61380a614c3a565b73ffffffffffffffffffffffffffffffffffffffff16613828611fd2565b73ffffffffffffffffffffffffffffffffffffffff161461387e576040517f08c379a000000000000000000000000000000000000000000000000000000000815260040161387590619673565b60405180910390fd5b565b60008060009054906101000a900473ffffffffffffffffffffffffffffffffffffffff169050816000806101000a81548173ffffffffffffffffffffffffffffffffffffffff021916908373ffffffffffffffffffffffffffffffffffffffff1602179055508173ffffffffffffffffffffffffffffffffffffffff168173ffffffffffffffffffffffffffffffffffffffff167f8be0079c531659141344cd1fd0a4f28419497f9722a3daafe3b4186f6b6457e060405160405180910390a35050565b6000807f3fffffffffffffffffffffffffffffffffffffffffffffffffffffffffffffff831690507f30644e72e131a029b85045b68181585d97816a916871ca8d3c208c16d87cfd47811061399d5760009150506139bc565b600081036139af5760009150506139bc565b6139b881614c42565b9150505b919050565b600080600090505b8351811015613a3c578273ffffffffffffffffffffffffffffffffffffffff168482815181106139fc576139fb6189c5565b5b602002602001015173ffffffffffffffffffffffffffffffffffffffff1603613a29576001915050613a42565b8080613a3490618a23565b9150506139c9565b50600090505b92915050565b613a5061731d565b600080838051906020012090505b600115613aa957613a6e81614d3d565b809350819450505081613aa95780604051602001613a8c91906196b4565b604051602081830303815290604052805190602001209050613a5e565b5050919050565b613ab861731d565b60007f3fffffffffffffffffffffffffffffffffffffffffffffffffffffffffffffff83169050600060fe84901c9050600180821603613b24576040517f53f4c77c00000000000000000000000000000000000000000000000000000000815260040160405180910390fd5b6000613b2f83614e3b565b5080915050600160027f30644e72e131a029b85045b68181585d97816a916871ca8d3c208c16d87cfd47613b639190619064565b8211613b70576000613b73565b60015b60ff16600184901c1803613bb057807f30644e72e131a029b85045b68181585d97816a916871ca8d3c208c16d87cfd47613bad9190618fa7565b90505b6040518060400160405280848152602001828152509350505050919050565b60008060405180610180016040528086600060028110613bf257613bf16189c5565b5b6020020151815260200186600160028110613c1057613c0f6189c5565b5b602002015181526020017f198e9393920d483a7260bfb731fb5d25f1aa493335a9e71297e485b7aef312c281526020017f1800deef121f1e76426a00665e5c4479674322d4f75edadd46debd5cd992f6ed81526020017f275dc4a288d1afb3cbb1ac09187524c7db36395df7be3b99e673b13a075a65ec81526020017f1d9befcd05a5323e6da4d435f3b617cdb3af83285c2df711ef39c01571827f9d815260200184600060028110613cc657613cc56189c5565b5b6020020151815260200184600160028110613ce457613ce36189c5565b5b6020020151815260200185600160048110613d0257613d016189c5565b5b6020020151815260200185600060048110613d2057613d1f6189c5565b5b6020020151815260200185600360048110613d3e57613d3d6189c5565b5b6020020151815260200185600260048110613d5c57613d5b6189c5565b5b60200201518152509050613d6e61743e565b60006020826101808560086107d05a03fa90508060008103613d8c57fe5b5080613dcd576040517f08c379a0000000000000000000000000000000000000000000000000000000008152600401613dc4906196f5565b60405180910390fd5b600082600060018110613de357613de26189c5565b5b6020020151141593505050509392505050565b6000613e0061731d565b613e0861733f565b60005b8651811015613e7357613e3883888381518110613e2b57613e2a6189c5565b5b6020026020010151614ef0565b9250613e5e82878381518110613e5157613e506189c5565b5b6020026020010151614ffc565b91508080613e6b90618a23565b915050613e0b565b50600060405180610180016040528084600060028110613e9657613e956189c5565b5b6020020151815260200184600160028110613eb457613eb36189c5565b5b602002015181526020017f198e9393920d483a7260bfb731fb5d25f1aa493335a9e71297e485b7aef312c281526020017f1800deef121f1e76426a00665e5c4479674322d4f75edadd46debd5cd992f6ed81526020017f275dc4a288d1afb3cbb1ac09187524c7db36395df7be3b99e673b13a075a65ec81526020017f1d9befcd05a5323e6da4d435f3b617cdb3af83285c2df711ef39c01571827f9d815260200186600060028110613f6a57613f696189c5565b5b6020020151815260200186600160028110613f8857613f876189c5565b5b6020020151815260200183600160048110613fa657613fa56189c5565b5b6020020151815260200183600060048110613fc457613fc36189c5565b5b6020020151815260200183600360048110613fe257613fe16189c5565b5b602002015181526020018360026004811061400057613fff6189c5565b5b6020020151815250905061401261743e565b60006020826101808560086107d05a03fa9050806000810361403057fe5b5080614071576040517f08c379a0000000000000000000000000000000000000000000000000000000008152600401614068906196f5565b60405180910390fd5b600082600060018110614087576140866189c5565b5b60200201511415955050505050509392505050565b60008060006060600060028111156140b7576140b6617a2e565b5b856020015160028111156140ce576140cd617a2e565b5b03614152576394985ddd60e01b89896040516024016140ee929190619715565b604051602081830303815290604052907bffffffffffffffffffffffffffffffffffffffffffffffffffffffff19166020820180517bffffffffffffffffffffffffffffffffffffffffffffffffffffffff838183161783525050505090506143c0565b6001600281111561416657614165617a2e565b5b8560200151600281111561417d5761417c617a2e565b5b036142e2576000856040015180602001905181019061419c9190619753565b905060008163ffffffff1667ffffffffffffffff8111156141c0576141bf61777e565b5b6040519080825280602002602001820160405280156141ee5781602001602082028036833780820191505090505b50905060005b8263ffffffff16811015614260578a81604051602001614215929190619107565b6040516020818303038152906040528051906020012060001c828281518110614241576142406189c5565b5b602002602001018181525050808061425890618a23565b9150506141f4565b506375bf929b60e01b8b8260405160240161427c929190619780565b604051602081830303815290604052907bffffffffffffffffffffffffffffffffffffffffffffffffffffffff19166020820180517bffffffffffffffffffffffffffffffffffffffffffffffffffffffff8381831617835250505050925050506143bf565b6002808111156142f5576142f4617a2e565b5b8560200151600281111561430c5761430b617a2e565b5b036143be576000856040015180602001905181019061432b9190619753565b9050600061433f8263ffffffff168b61510f565b9050639e5836f660e01b8b8260405160240161435c929190619780565b604051602081830303815290604052907bffffffffffffffffffffffffffffffffffffffffffffffffffffffff19166020820180517bffffffffffffffffffffffffffffffffffffffffffffffffffffffff8381831617835250505050925050505b5b5b600a60008a8152602001908152602001600020600080820160006101000a81549073ffffffffffffffffffffffffffffffffffffffff02191690556000820160146101000a81549060ff021916905560018201600061441f9190617460565b6002820160006101000a81549067ffffffffffffffff02191690556003820160009055600482016000905560058201600090556006820160006101000a81549061ffff02191690556007820160009055600882016000905550506001600860000160066101000a81548160ff0219169083151502179055506144ab85610100015186600001518361527f565b92506000600860000160066101000a81548160ff0219169083151502179055506000600c6000876060015167ffffffffffffffff1667ffffffffffffffff16815260200190815260200160002060050160009054906101000a900467ffffffffffffffff1690506001600c6000886060015167ffffffffffffffff1667ffffffffffffffff16815260200190815260200160002060050160008282829054906101000a900467ffffffffffffffff1661456491906192a3565b92506101000a81548167ffffffffffffffff021916908367ffffffffffffffff1602179055506145b9876008600001600b9054906101000a900463ffffffff1663ffffffff166145b384612a87565b3a61204a565b9450846bffffffffffffffffffffffff16600c6000886060015167ffffffffffffffff1667ffffffffffffffff16815260200190815260200160002060030160009054906101000a90046bffffffffffffffffffffffff166bffffffffffffffffffffffff161015614657576040517f964d765f00000000000000000000000000000000000000000000000000000000815260040160405180910390fd5b600c6000876060015167ffffffffffffffff1667ffffffffffffffff16815260200190815260200160002060040160008b815260200190815260200160002060009054906101000a90046bffffffffffffffffffffffff16600c6000886060015167ffffffffffffffff1667ffffffffffffffff168152602001908152602001600020600301600c8282829054906101000a90046bffffffffffffffffffffffff1661470391906192e1565b92506101000a8154816bffffffffffffffffffffffff02191690836bffffffffffffffffffffffff160217905550600c6000876060015167ffffffffffffffff1667ffffffffffffffff16815260200190815260200160002060040160008b815260200190815260200160002060006101000a8154906bffffffffffffffffffffffff021916905584600c6000886060015167ffffffffffffffff1667ffffffffffffffff16815260200190815260200160002060030160008282829054906101000a90046bffffffffffffffffffffffff166147e091906192e1565b92506101000a8154816bffffffffffffffffffffffff02191690836bffffffffffffffffffffffff16021790555084600e60008a815260200190815260200160002060008282829054906101000a90046bffffffffffffffffffffffff1661484891906190c5565b92506101000a8154816bffffffffffffffffffffffff02191690836bffffffffffffffffffffffff1602179055507fd88a4a5eabb4a3393105ffff9b66be266f127818a80fae1b049c0acfdbf95e6f8a8a87876040516148ab94939291906197e1565b60405180910390a15050509550959350505050565b6064600460003373ffffffffffffffffffffffffffffffffffffffff1673ffffffffffffffffffffffffffffffffffffffff16815260200190815260200160002060008282546149109190618e1b565b9250508190555060005b81518110156149a75760326004600084848151811061493c5761493b6189c5565b5b602002602001015173ffffffffffffffffffffffffffffffffffffffff1673ffffffffffffffffffffffffffffffffffffffff168152602001908152602001600020600082825461498d9190618e1b565b92505081905550808061499f90618a23565b91505061491a565b5050565b600080600860000160079054906101000a900463ffffffff1690506000808263ffffffff161190506000807f000000000000000000000000000000000000000000000000000000000000000073ffffffffffffffffffffffffffffffffffffffff1663feaf968c6040518163ffffffff1660e01b815260040160a060405180830381865afa158015614a41573d6000803e3d6000fd5b505050506040513d601f19601f82011682018060405250810190614a659190619892565b9091929350909150508093508192505050828015614a9357508142614a8a9190618fa7565b8463ffffffff16105b15614a9e5760075490505b8094505050505090565b614b2b846323b872dd60e01b858585604051602401614ac99392919061990d565b604051602081830303815290604052907bffffffffffffffffffffffffffffffffffffffffffffffffffffffff19166020820180517bffffffffffffffffffffffffffffffffffffffffffffffffffffffff83818316178352505050506152cc565b50505050565b600080614b3c61063f565b90506000815103614b79576040517f6905ab6700000000000000000000000000000000000000000000000000000000815260040160405180910390fd5b60006002546001600554614b8d9190618e1b565b614b979190619944565b90505b614ba48282615393565b614bc957600254600182614bb89190618e1b565b614bc29190619944565b9050614b9a565b809250505090565b6000838383604051602001614be893929190619975565b6040516020818303038152906040528051906020012060001c90509392505050565b600081604051602001614c1d91906199ac565b604051602081830303815290604052805190602001209050919050565b600033905090565b600080827f30644e72e131a029b85045b68181585d97816a916871ca8d3c208c16d87cfd478182097f30644e72e131a029b85045b68181585d97816a916871ca8d3c208c16d87cfd4782820990507f30644e72e131a029b85045b68181585d97816a916871ca8d3c208c16d87cfd4760038208905060405160208152602080820152602060408201528160608201527f183227397098d014dc2822db40c0ac2ecbc0b548b438e5469e10460b6c3e7ea360808201527f30644e72e131a029b85045b68181585d97816a916871ca8d3c208c16d87cfd4760a082015260208160c08360056107d05a03fa93508051600114945050505050919050565b614d4561731d565b60008060007f30644e72e131a029b85045b68181585d97816a916871ca8d3c208c16d87cfd478560001c614d799190619944565b9050614d8481614e3b565b80945081935050508215614e34578084600060028110614da757614da66189c5565b5b60200201818152505060027f30644e72e131a029b85045b68181585d97816a916871ca8d3c208c16d87cfd47614ddd9190619064565b8211614de95781614e16565b817f30644e72e131a029b85045b68181585d97816a916871ca8d3c208c16d87cfd47614e159190618fa7565b5b84600160028110614e2a57614e296189c5565b5b6020020181815250505b5050915091565b60008060007f30644e72e131a029b85045b68181585d97816a916871ca8d3c208c16d87cfd4780614e6f57614e6e619035565b5b84850990507f30644e72e131a029b85045b68181585d97816a916871ca8d3c208c16d87cfd4780614ea357614ea2619035565b5b84820990507f30644e72e131a029b85045b68181585d97816a916871ca8d3c208c16d87cfd4780614ed757614ed6619035565b5b600382089050614ee6816153ee565b9250925050915091565b614ef861731d565b614f0061733f565b83600060028110614f1457614f136189c5565b5b602002015181600060048110614f2d57614f2c6189c5565b5b60200201818152505083600160028110614f4a57614f496189c5565b5b602002015181600160048110614f6357614f626189c5565b5b60200201818152505082600060028110614f8057614f7f6189c5565b5b602002015181600260048110614f9957614f986189c5565b5b60200201818152505082600160028110614fb657614fb56189c5565b5b602002015181600360048110614fcf57614fce6189c5565b5b602002018181525050600060608360c08460066107d05a03fa905080614ff457600080fd5b505092915050565b61500461733f565b6000806000806150da87600060048110615021576150206189c5565b5b60200201518860016004811061503a576150396189c5565b5b602002015189600260048110615053576150526189c5565b5b60200201518a60036004811061506c5761506b6189c5565b5b60200201518a600060048110615085576150846189c5565b5b60200201518b60016004811061509e5761509d6189c5565b5b60200201518c6002600481106150b7576150b66189c5565b5b60200201518d6003600481106150d0576150cf6189c5565b5b60200201516154dc565b935093509350935060405180608001604052808581526020018481526020018381526020018281525094505050505092915050565b606060008367ffffffffffffffff81111561512d5761512c61777e565b5b60405190808252806020026020018201604052801561515b5781602001602082028036833780820191505090505b50905060005b8481101561519c578082828151811061517d5761517c6189c5565b5b602002602001018181525050808061519490618a23565b915050615161565b506000815190506000805b6000836151b3906199c7565b93508311156152725782866151c89190619944565b9150856040516020016151db9190617597565b6040516020818303038152906040528051906020012060001c9550838381518110615209576152086189c5565b5b60200260200101519050838281518110615226576152256189c5565b5b6020026020010151848481518110615241576152406189c5565b5b60200260200101818152505080848381518110615261576152606189c5565b5b6020026020010181815250506151a7565b8394505050505092915050565b60005a61138881101561529157600080fd5b6113888103905084604082048203116152a957600080fd5b833b6152b457600080fd5b6000808451602086016000888af19150509392505050565b600061532e826040518060400160405280602081526020017f5361666545524332303a206c6f772d6c6576656c2063616c6c206661696c65648152508573ffffffffffffffffffffffffffffffffffffffff1661571c9092919063ffffffff16565b905060008151111561538e578080602001905181019061534e9190619a1c565b61538d576040517f08c379a000000000000000000000000000000000000000000000000000000000815260040161538490619abb565b60405180910390fd5b5b505050565b600080600090505b83518110156153e257828482815181106153b8576153b76189c5565b5b6020026020010151036153cf5760019150506153e8565b80806153da90618a23565b91505061539b565b50600090505b92915050565b600080600060405160208152602080820152602060408201528460608201527f0c19139cb84c680a6e14116da060561765e05aa45a1c72a34f082305b61f3f5260808201527f30644e72e131a029b85045b68181585d97816a916871ca8d3c208c16d87cfd4760a082015260208160c08360056107d05a03fa9150805193507f30644e72e131a029b85045b68181585d97816a916871ca8d3c208c16d87cfd478485098514925050806154d6576040517f08c379a00000000000000000000000000000000000000000000000000000000081526004016154cd90619b27565b60405180910390fd5b50915091565b60008060008060008c1480156154f2575060008b145b80156154fe575060008a145b801561550a5750600089145b156155665760008814801561551f5750600087145b801561552b5750600086145b80156155375750600085145b6155555761554788888888615734565b61555457615553619315565b5b5b87878787935093509350935061570d565b6000881480156155765750600087145b80156155825750600086145b801561558e5750600085145b156155bd5761559f8c8c8c8c615734565b6155ac576155ab619315565b5b8b8b8b8b935093509350935061570d565b6155c98c8c8c8c615734565b6155d6576155d5619315565b5b6155e288888888615734565b6155ef576155ee619315565b5b60006040518060c001604052808e81526020018d81526020018c81526020018b8152602001600181526020016000815250905060006040518060c001604052808b81526020018a81526020018981526020018881526020016001815260200160008152509050600061566183836157fd565b90506157018160006006811061567a576156796189c5565b5b602002015182600160068110615693576156926189c5565b5b6020020151836002600681106156ac576156ab6189c5565b5b6020020151846003600681106156c5576156c46189c5565b5b6020020151856004600681106156de576156dd6189c5565b5b6020020151866005600681106156f7576156f66189c5565b5b6020020151616b8b565b96509650965096505050505b98509850985098945050505050565b606061572b8484600085616bdd565b90509392505050565b600080600080600061574887878989616caa565b809450819550505061575c89898b8b616caa565b809250819350505061577082828b8b616caa565b809250819350505061578484848484616ddb565b80945081955050506157d784847f2b149d40ceb8aaae81be18991be06ac3b5b4c5e559dbefa33267e6dc24a138e57e9713b03af0fed4cd2cafadeed8fdf4a74fa084e52d1852e4a2bd0685c315d2616ddb565b80945081955050506000841480156157ef5750600083145b945050505050949350505050565b6158056174a0565b60008360046006811061581b5761581a6189c5565b5b6020020151148015615845575060008360056006811061583e5761583d6189c5565b5b6020020151145b15615993578160006006811061585e5761585d6189c5565b5b602002015182600160068110615877576158766189c5565b5b6020020151836002600681106158905761588f6189c5565b5b6020020151846003600681106158a9576158a86189c5565b5b6020020151856004600681106158c2576158c16189c5565b5b6020020151866005600681106158db576158da6189c5565b5b6020020151866000600681106158f4576158f36189c5565b5b602002018760016006811061590c5761590b6189c5565b5b6020020188600260068110615924576159236189c5565b5b602002018960036006811061593c5761593b6189c5565b5b602002018a600460068110615954576159536189c5565b5b602002018b60056006811061596c5761596b6189c5565b5b60200201868152508681525086815250868152508681525086815250505050505050616b85565b6000826004600681106159a9576159a86189c5565b5b60200201511480156159d357506000826005600681106159cc576159cb6189c5565b5b6020020151145b15615b2157826000600681106159ec576159eb6189c5565b5b602002015183600160068110615a0557615a046189c5565b5b602002015184600260068110615a1e57615a1d6189c5565b5b602002015185600360068110615a3757615a366189c5565b5b602002015186600460068110615a5057615a4f6189c5565b5b602002015187600560068110615a6957615a686189c5565b5b602002015186600060068110615a8257615a816189c5565b5b6020020187600160068110615a9a57615a996189c5565b5b6020020188600260068110615ab257615ab16189c5565b5b6020020189600360068110615aca57615ac96189c5565b5b602002018a600460068110615ae257615ae16189c5565b5b602002018b600560068110615afa57615af96189c5565b5b60200201868152508681525086815250868152508681525086815250505050505050616b85565b615b8d82600260068110615b3857615b376189c5565b5b602002015183600360068110615b5157615b506189c5565b5b602002015185600460068110615b6a57615b696189c5565b5b602002015186600560068110615b8357615b826189c5565b5b6020020151616caa565b83600260068110615ba157615ba06189c5565b5b6020020184600360068110615bb957615bb86189c5565b5b6020020182815250828152505050615c3383600260068110615bde57615bdd6189c5565b5b602002015184600360068110615bf757615bf66189c5565b5b602002015184600460068110615c1057615c0f6189c5565b5b602002015185600560068110615c2957615c286189c5565b5b6020020151616caa565b82600260068110615c4757615c466189c5565b5b6020020183600360068110615c5f57615c5e6189c5565b5b6020020182815250828152505050615cd982600060068110615c8457615c836189c5565b5b602002015183600160068110615c9d57615c9c6189c5565b5b602002015185600460068110615cb657615cb56189c5565b5b602002015186600560068110615ccf57615cce6189c5565b5b6020020151616caa565b83600060068110615ced57615cec6189c5565b5b6020020184600160068110615d0557615d046189c5565b5b6020020182815250828152505050615d7f83600060068110615d2a57615d296189c5565b5b602002015184600160068110615d4357615d426189c5565b5b602002015184600460068110615d5c57615d5b6189c5565b5b602002015185600560068110615d7557615d746189c5565b5b6020020151616caa565b82600460068110615d9357615d926189c5565b5b6020020183600560068110615dab57615daa6189c5565b5b602002018281525082815250505080600460068110615dcd57615dcc6189c5565b5b602002015182600060068110615de657615de56189c5565b5b6020020151148015615e27575080600560068110615e0757615e066189c5565b5b602002015182600160068110615e2057615e1f6189c5565b5b6020020151145b156160ae5780600260068110615e4057615e3f6189c5565b5b602002015182600260068110615e5957615e586189c5565b5b6020020151148015615e9a575080600360068110615e7a57615e796189c5565b5b602002015182600360068110615e9357615e926189c5565b5b6020020151145b15615ff057615f3d83600060068110615eb657615eb56189c5565b5b602002015184600160068110615ecf57615ece6189c5565b5b602002015185600260068110615ee857615ee76189c5565b5b602002015186600360068110615f0157615f006189c5565b5b602002015187600460068110615f1a57615f196189c5565b5b602002015188600560068110615f3357615f326189c5565b5b6020020151616e41565b86600060068110615f5157615f506189c5565b5b6020020187600160068110615f6957615f686189c5565b5b6020020188600260068110615f8157615f806189c5565b5b6020020189600360068110615f9957615f986189c5565b5b602002018a600460068110615fb157615fb06189c5565b5b602002018b600560068110615fc957615fc86189c5565b5b60200201868152508681525086815250868152508681525086815250505050505050616b85565b60016000600160008060008660006006811061600f5761600e6189c5565b5b6020020187600160068110616027576160266189c5565b5b602002018860026006811061603f5761603e6189c5565b5b6020020189600360068110616057576160566189c5565b5b602002018a60046006811061606f5761606e6189c5565b5b602002018b600560068110616087576160866189c5565b5b60200201868152508681525086815250868152508681525086815250505050505050616b85565b61611a836004600681106160c5576160c46189c5565b5b6020020151846005600681106160de576160dd6189c5565b5b6020020151846004600681106160f7576160f66189c5565b5b6020020151856005600681106161105761610f6189c5565b5b6020020151616caa565b8360046006811061612e5761612d6189c5565b5b6020020184600560068110616146576161456189c5565b5b60200201828152508281525050506161c08260026006811061616b5761616a6189c5565b5b602002015183600360068110616184576161836189c5565b5b60200201518360026006811061619d5761619c6189c5565b5b6020020151846003600681106161b6576161b56189c5565b5b6020020151616ddb565b846000600681106161d4576161d36189c5565b5b60200201856001600681106161ec576161eb6189c5565b5b602002018281525082815250505061626682600060068110616211576162106189c5565b5b60200201518360016006811061622a576162296189c5565b5b602002015183600460068110616243576162426189c5565b5b60200201518460056006811061625c5761625b6189c5565b5b6020020151616ddb565b8460026006811061627a576162796189c5565b5b6020020185600360068110616292576162916189c5565b5b602002018281525082815250505061630c836002600681106162b7576162b66189c5565b5b6020020151846003600681106162d0576162cf6189c5565b5b6020020151856002600681106162e9576162e86189c5565b5b602002015186600360068110616302576163016189c5565b5b6020020151616caa565b846004600681106163205761631f6189c5565b5b6020020185600560068110616338576163376189c5565b5b60200201828152508281525050506163b28360046006811061635d5761635c6189c5565b5b602002015184600560068110616376576163756189c5565b5b60200201518360046006811061638f5761638e6189c5565b5b6020020151846005600681106163a8576163a76189c5565b5b6020020151616caa565b836002600681106163c6576163c56189c5565b5b60200201846003600681106163de576163dd6189c5565b5b602002018281525082815250505061645883600460068110616403576164026189c5565b5b60200201518460056006811061641c5761641b6189c5565b5b602002015185600260068110616435576164346189c5565b5b60200201518660036006811061644e5761644d6189c5565b5b6020020151616caa565b8460046006811061646c5761646b6189c5565b5b6020020185600560068110616484576164836189c5565b5b60200201828152508281525050506164fe836004600681106164a9576164a86189c5565b5b6020020151846005600681106164c2576164c16189c5565b5b6020020151846004600681106164db576164da6189c5565b5b6020020151856005600681106164f4576164f36189c5565b5b6020020151616caa565b82600460068110616512576165116189c5565b5b602002018360056006811061652a576165296189c5565b5b60200201828152508281525050506165a48360006006811061654f5761654e6189c5565b5b602002015184600160068110616568576165676189c5565b5b602002015185600060068110616581576165806189c5565b5b60200201518660016006811061659a576165996189c5565b5b6020020151616caa565b836000600681106165b8576165b76189c5565b5b60200201846001600681106165d0576165cf6189c5565b5b602002018281525082815250505061664a826000600681106165f5576165f46189c5565b5b60200201518360016006811061660e5761660d6189c5565b5b602002015184600460068110616627576166266189c5565b5b6020020151856005600681106166405761663f6189c5565b5b6020020151616caa565b8360006006811061665e5761665d6189c5565b5b6020020184600160068110616676576166756189c5565b5b60200201828152508281525050506166f08260006006811061669b5761669a6189c5565b5b6020020151836001600681106166b4576166b36189c5565b5b6020020151856004600681106166cd576166cc6189c5565b5b6020020151866005600681106166e6576166e56189c5565b5b6020020151616ddb565b83600060068110616704576167036189c5565b5b602002018460016006811061671c5761671b6189c5565b5b602002018281525082815250505061676682600260068110616741576167406189c5565b5b60200201518360036006811061675a576167596189c5565b5b60200201516002616fe9565b8360046006811061677a576167796189c5565b5b6020020184600560068110616792576167916189c5565b5b602002018281525082815250505061680c826000600681106167b7576167b66189c5565b5b6020020151836001600681106167d0576167cf6189c5565b5b6020020151846004600681106167e9576167e86189c5565b5b602002015185600560068110616802576168016189c5565b5b6020020151616ddb565b836000600681106168205761681f6189c5565b5b6020020184600160068110616838576168376189c5565b5b60200201828152508281525050506168b28360026006811061685d5761685c6189c5565b5b602002015184600360068110616876576168756189c5565b5b60200201518460006006811061688f5761688e6189c5565b5b6020020151856001600681106168a8576168a76189c5565b5b6020020151616caa565b826000600681106168c6576168c56189c5565b5b60200201836001600681106168de576168dd6189c5565b5b602002018281525082815250505061695882600260068110616903576169026189c5565b5b60200201518360036006811061691c5761691b6189c5565b5b602002015184600060068110616935576169346189c5565b5b60200201518560016006811061694e5761694d6189c5565b5b6020020151616ddb565b8460026006811061696c5761696b6189c5565b5b6020020185600360068110616984576169836189c5565b5b60200201828152508281525050506169fe836000600681106169a9576169a86189c5565b5b6020020151846001600681106169c2576169c16189c5565b5b6020020151856002600681106169db576169da6189c5565b5b6020020151866003600681106169f4576169f36189c5565b5b6020020151616caa565b84600260068110616a1257616a116189c5565b5b6020020185600360068110616a2a57616a296189c5565b5b6020020182815250828152505050616aa483600460068110616a4f57616a4e6189c5565b5b602002015184600560068110616a6857616a676189c5565b5b602002015183600260068110616a8157616a806189c5565b5b602002015184600360068110616a9a57616a996189c5565b5b6020020151616caa565b84600060068110616ab857616ab76189c5565b5b6020020185600160068110616ad057616acf6189c5565b5b6020020182815250828152505050616b4a83600260068110616af557616af46189c5565b5b602002015184600360068110616b0e57616b0d6189c5565b5b602002015185600060068110616b2757616b266189c5565b5b602002015186600160068110616b4057616b3f6189c5565b5b6020020151616ddb565b82600260068110616b5e57616b5d6189c5565b5b6020020183600360068110616b7657616b756189c5565b5b60200201828152508281525050505b92915050565b600080600080600080616b9e888861705c565b8092508193505050616bb28c8c8484616caa565b8096508197505050616bc68a8a8484616caa565b809450819550505050509650965096509692505050565b606082471015616c22576040517f08c379a0000000000000000000000000000000000000000000000000000000008152600401616c1990619bb9565b60405180910390fd5b6000808673ffffffffffffffffffffffffffffffffffffffff168587604051616c4b9190619c15565b60006040518083038185875af1925050503d8060008114616c88576040519150601f19603f3d011682016040523d82523d6000602084013e616c8d565b606091505b5091509150616c9e878383876171bb565b92505050949350505050565b600080616d3a7f30644e72e131a029b85045b68181585d97816a916871ca8d3c208c16d87cfd4780616cdf57616cde619035565b5b8588097f30644e72e131a029b85045b68181585d97816a916871ca8d3c208c16d87cfd4780616d1157616d10619035565b5b8588097f30644e72e131a029b85045b68181585d97816a916871ca8d3c208c16d87cfd47617230565b7f30644e72e131a029b85045b68181585d97816a916871ca8d3c208c16d87cfd4780616d6957616d68619035565b5b7f30644e72e131a029b85045b68181585d97816a916871ca8d3c208c16d87cfd4780616d9857616d97619035565b5b8688097f30644e72e131a029b85045b68181585d97816a916871ca8d3c208c16d87cfd4780616dca57616dc9619035565b5b868a09089150915094509492505050565b600080616e0986857f30644e72e131a029b85045b68181585d97816a916871ca8d3c208c16d87cfd47617230565b616e3486857f30644e72e131a029b85045b68181585d97816a916871ca8d3c208c16d87cfd47617230565b9150915094509492505050565b600080600080600080616e568c8c6003616fe9565b8096508197505050616e6a86868e8e616caa565b8096508197505050616e7e8a8a8a8a616caa565b8098508199505050616e928c8c8c8c616caa565b8094508195505050616ea684848a8a616caa565b8094508195505050616eba86868888616caa565b809c50819d505050616ece84846008616fe9565b8092508193505050616ee28c8c8484616ddb565b809c50819d505050616ef688888a8a616caa565b8092508193505050616f0a84846004616fe9565b8094508195505050616f1e84848e8e616ddb565b8094508195505050616f3284848888616caa565b8094508195505050616f468a8a6008616fe9565b8096508197505050616f5a86868c8c616caa565b8096508197505050616f6e86868484616caa565b8096508197505050616f8284848888616ddb565b8094508195505050616f968c8c6002616fe9565b8096508197505050616faa86868a8a616caa565b8096508197505050616fbe88888484616caa565b8092508193505050616fd282826008616fe9565b809250819350505096509650965096509650969050565b6000807f30644e72e131a029b85045b68181585d97816a916871ca8d3c208c16d87cfd478061701b5761701a619035565b5b8386097f30644e72e131a029b85045b68181585d97816a916871ca8d3c208c16d87cfd478061704d5761704c619035565b5b84860991509150935093915050565b600080600061711e7f30644e72e131a029b85045b68181585d97816a916871ca8d3c208c16d87cfd478061709357617092619035565b5b7f30644e72e131a029b85045b68181585d97816a916871ca8d3c208c16d87cfd47806170c2576170c1619035565b5b8788097f30644e72e131a029b85045b68181585d97816a916871ca8d3c208c16d87cfd47806170f4576170f3619035565b5b878809087f30644e72e131a029b85045b68181585d97816a916871ca8d3c208c16d87cfd47617258565b90507f30644e72e131a029b85045b68181585d97816a916871ca8d3c208c16d87cfd478061714f5761714e619035565b5b8186097f30644e72e131a029b85045b68181585d97816a916871ca8d3c208c16d87cfd478061718157617180619035565b5b8286097f30644e72e131a029b85045b68181585d97816a916871ca8d3c208c16d87cfd476171af9190618fa7565b92509250509250929050565b6060831561721d576000835103617215576171d5856172aa565b617214576040517f08c379a000000000000000000000000000000000000000000000000000000000815260040161720b90619c78565b60405180910390fd5b5b829050617228565b61722783836172cd565b5b949350505050565b6000818061724157617240619035565b5b838361724d9190618fa7565b850890509392505050565b60008060405160208152602080820152602060408201528460608201526002840360808201528360a082015260208160c08360056107d05a03fa91508051925050806172a357600080fd5b5092915050565b6000808273ffffffffffffffffffffffffffffffffffffffff163b119050919050565b6000825111156172e05781518083602001fd5b806040517f08c379a00000000000000000000000000000000000000000000000000000000081526004016173149190619cdc565b60405180910390fd5b6040518060400160405280600290602082028036833780820191505090505090565b6040518060800160405280600490602082028036833780820191505090505090565b604051806101400160405280600073ffffffffffffffffffffffffffffffffffffffff1681526020016000600281111561739e5761739d617a2e565b5b815260200160608152602001600067ffffffffffffffff168152602001600081526020016000815260200160008152602001600061ffff16815260200160008152602001600081525090565b6040518061012001604052806000815260200160008152602001600081526020016000815260200160608152602001606081526020016060815260200160001515815260200161743861733f565b81525090565b6040518060200160405280600190602082028036833780820191505090505090565b50805461746c90618dea565b6000825580601f1061747e575061749d565b601f01602090049060005260206000209081019061749c91906174c2565b5b50565b6040518060c00160405280600690602082028036833780820191505090505090565b5b808211156174db5760008160009055506001016174c3565b5090565b6000604051905090565b600080fd5b600080fd5b600073ffffffffffffffffffffffffffffffffffffffff82169050919050565b600061751e826174f3565b9050919050565b61752e81617513565b811461753957600080fd5b50565b60008135905061754b81617525565b92915050565b600060208284031215617567576175666174e9565b5b60006175758482850161753c565b91505092915050565b6000819050919050565b6175918161757e565b82525050565b60006020820190506175ac6000830184617588565b92915050565b600061ffff82169050919050565b6175c9816175b2565b82525050565b60006020820190506175e460008301846175c0565b92915050565b600081519050919050565b600082825260208201905092915050565b6000819050602082019050919050565b61761f8161757e565b82525050565b60006176318383617616565b60208301905092915050565b6000602082019050919050565b6000617655826175ea565b61765f81856175f5565b935061766a83617606565b8060005b8381101561769b5781516176828882617625565b975061768d8361763d565b92505060018101905061766e565b5085935050505092915050565b600060208201905081810360008301526176c2818461764a565b905092915050565b6176d3816175b2565b81146176de57600080fd5b50565b6000813590506176f0816176ca565b92915050565b600063ffffffff82169050919050565b61770f816176f6565b811461771a57600080fd5b50565b60008135905061772c81617706565b92915050565b6000819050919050565b61774581617732565b811461775057600080fd5b50565b6000813590506177628161773c565b92915050565b600080fd5b6000601f19601f8301169050919050565b7f4e487b7100000000000000000000000000000000000000000000000000000000600052604160045260246000fd5b6177b68261776d565b810181811067ffffffffffffffff821117156177d5576177d461777e565b5b80604052505050565b60006177e86174df565b90506177f482826177ad565b919050565b600080fd5b600062ffffff82169050919050565b617816816177fe565b811461782157600080fd5b50565b6000813590506178338161780d565b92915050565b600061012082840312156178505761784f617768565b5b61785b6101206177de565b9050600061786b8482850161771d565b600083015250602061787f8482850161771d565b60208301525060406178938482850161771d565b60408301525060606178a78482850161771d565b60608301525060806178bb8482850161771d565b60808301525060a06178cf84828501617824565b60a08301525060c06178e384828501617824565b60c08301525060e06178f784828501617824565b60e08301525061010061790c84828501617824565b6101008301525092915050565b60008060008060008060006101e0888a031215617939576179386174e9565b5b60006179478a828b016176e1565b97505060206179588a828b0161771d565b96505060406179698a828b0161771d565b955050606061797a8a828b0161771d565b945050608061798b8a828b0161771d565b93505060a061799c8a828b01617753565b92505060c06179ad8a828b01617839565b91505092959891949750929550565b6000819050919050565b6179cf816179bc565b81146179da57600080fd5b50565b6000813590506179ec816179c6565b92915050565b600060208284031215617a0857617a076174e9565b5b6000617a16848285016179dd565b91505092915050565b617a2881617513565b82525050565b7f4e487b7100000000000000000000000000000000000000000000000000000000600052602160045260246000fd5b60038110617a6e57617a6d617a2e565b5b50565b6000819050617a7f82617a5d565b919050565b6000617a8f82617a71565b9050919050565b617a9f81617a84565b82525050565b600081519050919050565b600082825260208201905092915050565b60005b83811015617adf578082015181840152602081019050617ac4565b83811115617aee576000848401525b50505050565b6000617aff82617aa5565b617b098185617ab0565b9350617b19818560208601617ac1565b617b228161776d565b840191505092915050565b600067ffffffffffffffff82169050919050565b617b4a81617b2d565b82525050565b600061014082019050617b66600083018d617a1f565b617b73602083018c617a96565b8181036040830152617b85818b617af4565b9050617b94606083018a617b41565b617ba16080830189617588565b617bae60a0830188617588565b617bbb60c0830187617588565b617bc860e08301866175c0565b617bd6610100830185617588565b617be4610120830184617588565b9b9a5050505050505050505050565b6000819050919050565b6000617c18617c13617c0e846174f3565b617bf3565b6174f3565b9050919050565b6000617c2a82617bfd565b9050919050565b6000617c3c82617c1f565b9050919050565b617c4c81617c31565b82525050565b6000602082019050617c676000830184617c43565b92915050565b617c7681617b2d565b8114617c8157600080fd5b50565b600081359050617c9381617c6d565b92915050565b60008060408385031215617cb057617caf6174e9565b5b6000617cbe85828601617c84565b9250506020617ccf8582860161753c565b9150509250929050565b6000602082019050617cee6000830184617b41565b92915050565b617cfd8161757e565b8114617d0857600080fd5b50565b600081359050617d1a81617cf4565b92915050565b600080fd5b600067ffffffffffffffff821115617d4057617d3f61777e565b5b602082029050602081019050919050565b600080fd5b600060408284031215617d6c57617d6b617768565b5b617d7660406177de565b90506000617d8684828501617d0b565b6000830152506020617d9a84828501617d0b565b60208301525092915050565b6000617db9617db484617d25565b6177de565b90508083825260208201905060408402830185811115617ddc57617ddb617d51565b5b835b81811015617e055780617df18882617d56565b845260208401935050604081019050617dde565b5050509392505050565b600082601f830112617e2457617e23617d20565b5b8135617e34848260208601617da6565b91505092915050565b60008060008060808587031215617e5757617e566174e9565b5b6000617e6587828801617d0b565b9450506020617e76878288016179dd565b9350506040617e8787828801617d0b565b925050606085013567ffffffffffffffff811115617ea857617ea76174ee565b5b617eb487828801617e0f565b91505092959194509250565b617ec981617513565b82525050565b617ed881617a84565b82525050565b600082825260208201905092915050565b6000617efa82617aa5565b617f048185617ede565b9350617f14818560208601617ac1565b617f1d8161776d565b840191505092915050565b617f3181617b2d565b82525050565b617f40816175b2565b82525050565b600061014083016000830151617f5f6000860182617ec0565b506020830151617f726020860182617ecf565b5060408301518482036040860152617f8a8282617eef565b9150506060830151617f9f6060860182617f28565b506080830151617fb26080860182617616565b5060a0830151617fc560a0860182617616565b5060c0830151617fd860c0860182617616565b5060e0830151617feb60e0860182617f37565b50610100830151618000610100860182617616565b50610120830151618015610120860182617616565b508091505092915050565b6000602082019050818103600083015261803a8184617f46565b905092915050565b60006020820190506180576000830184617a1f565b92915050565b600060208284031215618073576180726174e9565b5b600061808184828501617d0b565b91505092915050565b60008115159050919050565b61809f8161808a565b82525050565b600060a0820190506180ba6000830188617588565b6180c76020830187617588565b6180d46040830186617588565b6180e16060830185617588565b6180ee6080830184618096565b9695505050505050565b60008060008060808587031215618112576181116174e9565b5b600061812087828801617d0b565b945050602061813187828801617d0b565b93505060406181428782880161771d565b925050606061815387828801617d0b565b91505092959194509250565b60006bffffffffffffffffffffffff82169050919050565b6181808161815f565b82525050565b600060208201905061819b6000830184618177565b92915050565b6000602082840312156181b7576181b66174e9565b5b60006181c584828501617c84565b91505092915050565b600081519050919050565b600082825260208201905092915050565b6000819050602082019050919050565b60006182068383617ec0565b60208301905092915050565b6000602082019050919050565b600061822a826181ce565b61823481856181d9565b935061823f836181ea565b8060005b8381101561827057815161825788826181fa565b975061826283618212565b925050600181019050618243565b5085935050505092915050565b600060a0820190506182926000830188618177565b61829f6020830187618177565b6182ac6040830186617b41565b6182b96060830185617a1f565b81810360808301526182cb818461821f565b90509695505050505050565b600081519050919050565b600082825260208201905092915050565b6000819050602082019050919050565b600060049050919050565b600081905092915050565b6000819050919050565b6000602082019050919050565b61833981618303565b618343818461830e565b925061834e82618319565b8060005b8381101561837f5781516183668782617625565b965061837183618323565b925050600181019050618352565b505050505050565b60a08201600082015161839d6000850182617ec0565b5060208201516183b06020850182618330565b50505050565b60006183c28383618387565b60a08301905092915050565b6000602082019050919050565b60006183e6826182d7565b6183f081856182e2565b93506183fb836182f3565b8060005b8381101561842c57815161841388826183b6565b975061841e836183ce565b9250506001810190506183ff565b5085935050505092915050565b600082825260208201905092915050565b6000618455826181ce565b61845f8185618439565b935061846a836181ea565b8060005b8381101561849b57815161848288826181fa565b975061848d83618212565b92505060018101905061846e565b5085935050505092915050565b600081519050919050565b600082825260208201905092915050565b6000819050602082019050919050565b600060c0830160008301516184ec6000860182617616565b5060208301516184ff6020860182618330565b50604083015184820360a0860152618517828261844a565b9150508091505092915050565b60006040830160008301518482036000860152618541828261844a565b9150506020830151848203602086015261855b82826184d4565b9150508091505092915050565b60006185748383618524565b905092915050565b6000602082019050919050565b6000618594826184a8565b61859e81856184b3565b9350836020820285016185b0856184c4565b8060005b858110156185ec57848403895281516185cd8582618568565b94506185d88361857c565b925060208a019950506001810190506185b4565b50829750879550505050505092915050565b6186078161808a565b82525050565b6000610180830160008301516186266000860182617616565b5060208301516186396020860182617616565b50604083015161864c6040860182617616565b50606083015161865f6060860182617616565b506080830151848203608086015261867782826183db565b91505060a083015184820360a0860152618691828261844a565b91505060c083015184820360c08601526186ab8282618589565b91505060e08301516186c060e08601826185fe565b506101008301516186d5610100860182618330565b508091505092915050565b600060208201905081810360008301526186fa818461860d565b905092915050565b600061870d82617c1f565b9050919050565b61871d81618702565b82525050565b60006020820190506187386000830184618714565b92915050565b618747816176f6565b82525050565b6000602082019050618762600083018461873e565b92915050565b6000806040838503121561877f5761877e6174e9565b5b600061878d85828601617c84565b925050602061879e85828601617d0b565b9150509250929050565b600381106187b557600080fd5b50565b6000813590506187c7816187a8565b92915050565b600080fd5b600067ffffffffffffffff8211156187ed576187ec61777e565b5b6187f68261776d565b9050602081019050919050565b82818337600083830152505050565b6000618825618820846187d2565b6177de565b905082815260208101848484011115618841576188406187cd565b5b61884c848285618803565b509392505050565b600082601f83011261886957618868617d20565b5b8135618879848260208601618812565b91505092915050565b600060e0828403121561889857618897617768565b5b6188a260e06177de565b905060006188b2848285016187b8565b600083015250602082013567ffffffffffffffff8111156188d6576188d56177f9565b5b6188e284828501618854565b60208301525060406188f684828501617c84565b604083015250606061890a84828501617d0b565b606083015250608061891e848285016176e1565b60808301525060a061893284828501617d0b565b60a08301525060c061894684828501617d0b565b60c08301525092915050565b600060208284031215618968576189676174e9565b5b600082013567ffffffffffffffff811115618986576189856174ee565b5b61899284828501618882565b91505092915050565b6189a4816179bc565b82525050565b60006020820190506189bf600083018461899b565b92915050565b7f4e487b7100000000000000000000000000000000000000000000000000000000600052603260045260246000fd5b7f4e487b7100000000000000000000000000000000000000000000000000000000600052601160045260246000fd5b6000618a2e8261757e565b91507fffffffffffffffffffffffffffffffffffffffffffffffffffffffffffffffff8203618a6057618a5f6189f4565b5b600182019050919050565b6000606082019050618a8060008301866175c0565b618a8d60208301856175c0565b618a9a60408301846175c0565b949350505050565b618aab81617732565b82525050565b6000602082019050618ac66000830184618aa2565b92915050565b60008160001c9050919050565b600063ffffffff82169050919050565b6000618afc618af783618acc565b618ad9565b9050919050565b618b0c816176f6565b82525050565b60008160201c9050919050565b6000618b32618b2d83618b12565b618ad9565b9050919050565b60008160401c9050919050565b6000618b59618b5483618b39565b618ad9565b9050919050565b60008160601c9050919050565b6000618b80618b7b83618b60565b618ad9565b9050919050565b60008160801c9050919050565b6000618ba7618ba283618b87565b618ad9565b9050919050565b60008160a01c9050919050565b600062ffffff82169050919050565b6000618bdd618bd883618bae565b618bbb565b9050919050565b618bed816177fe565b82525050565b60008160b81c9050919050565b6000618c13618c0e83618bf3565b618bbb565b9050919050565b60008160d01c9050919050565b6000618c3a618c3583618c1a565b618bbb565b9050919050565b60008160e81c9050919050565b6000618c61618c5c83618c41565b618bbb565b9050919050565b61012082016000808301549050618c7e81618ae9565b618c8b6000860182618b03565b50618c9581618b1f565b618ca26020860182618b03565b50618cac81618b46565b618cb96040860182618b03565b50618cc381618b6d565b618cd06060860182618b03565b50618cda81618b94565b618ce76080860182618b03565b50618cf181618bca565b618cfe60a0860182618be4565b50618d0881618c00565b618d1560c0860182618be4565b50618d1f81618c27565b618d2c60e0860182618be4565b50618d3681618c4e565b618d44610100860182618be4565b5050505050565b60006101e082019050618d61600083018a6175c0565b618d6e602083018961873e565b618d7b604083018861873e565b618d88606083018761873e565b618d95608083018661873e565b618da260a0830185618aa2565b618daf60c0830184618c68565b98975050505050505050565b7f4e487b7100000000000000000000000000000000000000000000000000000000600052602260045260246000fd5b60006002820490506001821680618e0257607f821691505b602082108103618e1557618e14618dbb565b5b50919050565b6000618e268261757e565b9150618e318361757e565b9250827fffffffffffffffffffffffffffffffffffffffffffffffffffffffffffffffff03821115618e6657618e656189f4565b5b828201905092915050565b600082825260208201905092915050565b7f546f6f206561726c7920746f2066756c66696c6c000000000000000000000000600082015250565b6000618eb8601483618e71565b9150618ec382618e82565b602082019050919050565b60006020820190508181036000830152618ee781618eab565b9050919050565b7f47726f757020646f6573206e6f74206578697374000000000000000000000000600082015250565b6000618f24601483618e71565b9150618f2f82618eee565b602082019050919050565b60006020820190508181036000830152618f5381618f17565b9050919050565b6000819050919050565b618f75618f708261757e565b618f5a565b82525050565b6000618f878285618f64565b602082019150618f978284618f64565b6020820191508190509392505050565b6000618fb28261757e565b9150618fbd8361757e565b925082821015618fd057618fcf6189f4565b5b828203905092915050565b6000618fe68261757e565b9150618ff18361757e565b9250817fffffffffffffffffffffffffffffffffffffffffffffffffffffffffffffffff048311821515161561902a576190296189f4565b5b828202905092915050565b7f4e487b7100000000000000000000000000000000000000000000000000000000600052601260045260246000fd5b600061906f8261757e565b915061907a8361757e565b92508261908a57619089619035565b5b828204905092915050565b60006190a082617b2d565b915067ffffffffffffffff82036190ba576190b96189f4565b5b600182019050919050565b60006190d08261815f565b91506190db8361815f565b9250826bffffffffffffffffffffffff038211156190fc576190fb6189f4565b5b828201905092915050565b600060408201905061911c6000830185617588565b6191296020830184617588565b9392505050565b7f4f776e61626c653a206e6577206f776e657220697320746865207a65726f206160008201527f6464726573730000000000000000000000000000000000000000000000000000602082015250565b600061918c602683618e71565b915061919782619130565b604082019050919050565b600060208201905081810360008301526191bb8161917f565b9050919050565b7f506c65617365207265717565737420627920657874656e64696e672047656e6560008201527f72616c52616e6463617374436f6e73756d65724261736520736f20746861742060208201527f77652063616e2063616c6c6261636b20776974682072616e646f6d6e6573732e604082015250565b6000619244606083618e71565b915061924f826191c2565b606082019050919050565b6000602082019050818103600083015261927381619237565b9050919050565b600060408201905061928f6000830185617b41565b61929c6020830184617a1f565b9392505050565b60006192ae82617b2d565b91506192b983617b2d565b92508267ffffffffffffffff038211156192d6576192d56189f4565b5b828201905092915050565b60006192ec8261815f565b91506192f78361815f565b92508282101561930a576193096189f4565b5b828203905092915050565b7f4e487b7100000000000000000000000000000000000000000000000000000000600052600160045260246000fd5b60008190508160005260206000209050919050565b60006020601f8301049050919050565b600082821b905092915050565b6000600883026193a67fffffffffffffffffffffffffffffffffffffffffffffffffffffffffffffffff82619369565b6193b08683619369565b95508019841693508086168417925050509392505050565b60006193e36193de6193d98461757e565b617bf3565b61757e565b9050919050565b6000819050919050565b6193fd836193c8565b619411619409826193ea565b848454619376565b825550505050565b600090565b619426619419565b6194318184846193f4565b505050565b5b818110156194555761944a60008261941e565b600181019050619437565b5050565b601f82111561949a5761946b81619344565b61947484619359565b81016020851015619483578190505b61949761948f85619359565b830182619436565b50505b505050565b600082821c905092915050565b60006194bd6000198460080261949f565b1980831691505092915050565b60006194d683836194ac565b9150826002028217905092915050565b6194ef82617aa5565b67ffffffffffffffff8111156195085761950761777e565b5b6195128254618dea565b61951d828285619459565b600060209050601f831160018114619550576000841561953e578287015190505b61954885826194ca565b8655506195b0565b601f19841661955e86619344565b60005b8281101561958657848901518255600182019150602085019450602081019050619561565b868310156195a3578489015161959f601f8916826194ac565b8355505b6001600288020188555050505b505050505050565b600060e0820190506195cd600083018a61899b565b6195da6020830189617a1f565b6195e76040830188617b41565b6195f46060830187617588565b61960160808301866175c0565b61960e60a0830185617588565b61961b60c0830184617588565b98975050505050505050565b7f4f776e61626c653a2063616c6c6572206973206e6f7420746865206f776e6572600082015250565b600061965d602083618e71565b915061966882619627565b602082019050919050565b6000602082019050818103600083015261968c81619650565b9050919050565b6000819050919050565b6196ae6196a9826179bc565b619693565b82525050565b60006196c0828461969d565b60208201915081905092915050565b50565b60006196df600083618e71565b91506196ea826196cf565b600082019050919050565b6000602082019050818103600083015261970e816196d2565b9050919050565b600060408201905061972a600083018561899b565b6197376020830184617588565b9392505050565b60008151905061974d81617706565b92915050565b600060208284031215619769576197686174e9565b5b60006197778482850161973e565b91505092915050565b6000604082019050619795600083018561899b565b81810360208301526197a7818461764a565b90509392505050565b60006197cb6197c66197c18461815f565b617bf3565b61757e565b9050919050565b6197db816197b0565b82525050565b60006080820190506197f6600083018761899b565b6198036020830186617588565b61981060408301856197d2565b61981d6060830184618096565b95945050505050565b600069ffffffffffffffffffff82169050919050565b61984581619826565b811461985057600080fd5b50565b6000815190506198628161983c565b92915050565b6000815190506198778161773c565b92915050565b60008151905061988c81617cf4565b92915050565b600080600080600060a086880312156198ae576198ad6174e9565b5b60006198bc88828901619853565b95505060206198cd88828901619868565b94505060406198de8882890161987d565b93505060606198ef8882890161987d565b925050608061990088828901619853565b9150509295509295909350565b60006060820190506199226000830186617a1f565b61992f6020830185617a1f565b61993c6040830184617588565b949350505050565b600061994f8261757e565b915061995a8361757e565b92508261996a57619969619035565b5b828206905092915050565b600060608201905061998a6000830186617588565b6199976020830185617a1f565b6199a46040830184617588565b949350505050565b60006199b88284618f64565b60208201915081905092915050565b60006199d28261757e565b9150600082036199e5576199e46189f4565b5b600182039050919050565b6199f98161808a565b8114619a0457600080fd5b50565b600081519050619a16816199f0565b92915050565b600060208284031215619a3257619a316174e9565b5b6000619a4084828501619a07565b91505092915050565b7f5361666545524332303a204552433230206f7065726174696f6e20646964206e60008201527f6f74207375636365656400000000000000000000000000000000000000000000602082015250565b6000619aa5602a83618e71565b9150619ab082619a49565b604082019050919050565b60006020820190508181036000830152619ad481619a98565b9050919050565b7f424c533a2073717274206d6f646578702063616c6c206661696c656400000000600082015250565b6000619b11601c83618e71565b9150619b1c82619adb565b602082019050919050565b60006020820190508181036000830152619b4081619b04565b9050919050565b7f416464726573733a20696e73756666696369656e742062616c616e636520666f60008201527f722063616c6c0000000000000000000000000000000000000000000000000000602082015250565b6000619ba3602683618e71565b9150619bae82619b47565b604082019050919050565b60006020820190508181036000830152619bd281619b96565b9050919050565b600081905092915050565b6000619bef82617aa5565b619bf98185619bd9565b9350619c09818560208601617ac1565b80840191505092915050565b6000619c218284619be4565b915081905092915050565b7f416464726573733a2063616c6c20746f206e6f6e2d636f6e7472616374000000600082015250565b6000619c62601d83618e71565b9150619c6d82619c2c565b602082019050919050565b60006020820190508181036000830152619c9181619c55565b9050919050565b600081519050919050565b6000619cae82619c98565b619cb88185618e71565b9350619cc8818560208601617ac1565b619cd18161776d565b840191505092915050565b60006020820190508181036000830152619cf68184619ca3565b90509291505056fea2646970667358221220956d2b8f131dffec306f7ba35c795ab9fcfb6c6b11a54a9f0b13a29142f0a25864736f6c634300080f0033",
    "linkReferences": {}
  },
  "methodIdentifiers": {
    "ARPA()": "62d14450",
    "ARPA_ETH_FEED()": "d164e28d",
    "COMMITTER_REWARD_PER_SIGNATURE()": "c24f03da",
    "MAX_CONSUMERS()": "64d51a2a",
    "MAX_REQUEST_CONFIRMATIONS()": "15c48b84",
    "REWARD_PER_SIGNATURE()": "bcee30e5",
    "SIGNATURE_TASK_EXCLUSIVE_WINDOW()": "e0b72cfd",
    "addConsumer(uint64,address)": "7341c10c",
    "calculatePaymentAmount(uint256,uint256,uint32,uint256)": "9ea3b84e",
    "createSubscription()": "a21a23e4",
    "estimatePaymentAmount(uint256,uint256,uint32,uint256)": "cc36c1e8",
    "fulfillRandomness(uint256,bytes32,uint256,(uint256,uint256)[])": "86dd2e9e",
    "fundSubscription(uint64,uint256)": "dd281928",
    "getFeeTier(uint64)": "d2f9f9a7",
    "getGroup(uint256)": "ceb60654",
    "getLastSubscription(address)": "76a911bc",
    "getPendingRequest(bytes32)": "88b12d55",
    "getSubscription(uint64)": "a47c7696",
    "groupCount()": "8f23b326",
    "groups(uint256)": "96324bd4",
    "lastAssignedGroupIndex()": "0b919eef",
    "lastOutput()": "97228a7e",
    "owner()": "8da5cb5b",
    "renounceOwnership()": "715018a6",
    "requestRandomness((uint8,bytes,uint64,uint256,uint16,uint256,uint256))": "fb0882fc",
    "rewards(address)": "0700037d",
    "s_callbacks(bytes32)": "4d615424",
    "setConfig(uint16,uint32,uint32,uint32,uint32,int256,(uint32,uint32,uint32,uint32,uint32,uint24,uint24,uint24,uint24))": "2d0354ec",
    "transferOwnership(address)": "f2fde38b",
    "validGroupIndices()": "253870ff"
  },
  "id": 31
}