{
  "abi": [
    {
      "inputs": [
        {
          "internalType": "address",
          "name": "controller",
          "type": "address"
        },
        {
          "internalType": "address",
          "name": "arpa",
          "type": "address"
        },
        {
          "internalType": "address",
          "name": "arpaEthFeed",
          "type": "address"
        }
      ],
      "stateMutability": "nonpayable",
      "type": "constructor"
    },
    {
      "inputs": [],
      "name": "EmptyPartialSignatures",
      "type": "error"
    },
    {
      "inputs": [
        {
          "internalType": "uint256",
          "name": "groupIndex",
          "type": "uint256"
        }
      ],
      "name": "GroupNotExist",
      "type": "error"
    },
    {
      "inputs": [],
      "name": "InsufficientBalanceWhenFulfill",
      "type": "error"
    },
    {
      "inputs": [],
      "name": "InsufficientBalanceWhenRequest",
      "type": "error"
    },
    {
      "inputs": [
        {
          "internalType": "int256",
          "name": "arpaWei",
          "type": "int256"
        }
      ],
      "name": "InvalidArpaWeiPrice",
      "type": "error"
    },
    {
      "inputs": [
        {
          "internalType": "uint64",
          "name": "subId",
          "type": "uint64"
        },
        {
          "internalType": "address",
          "name": "consumer",
          "type": "address"
        }
      ],
      "name": "InvalidConsumer",
      "type": "error"
    },
    {
      "inputs": [],
      "name": "InvalidPartialSignatureFormat",
      "type": "error"
    },
    {
      "inputs": [],
      "name": "InvalidPartialSignatures",
      "type": "error"
    },
    {
      "inputs": [],
      "name": "InvalidRequestByEOA",
      "type": "error"
    },
    {
      "inputs": [
        {
          "internalType": "uint16",
          "name": "have",
          "type": "uint16"
        },
        {
          "internalType": "uint16",
          "name": "min",
          "type": "uint16"
        },
        {
          "internalType": "uint16",
          "name": "max",
          "type": "uint16"
        }
      ],
      "name": "InvalidRequestConfirmations",
      "type": "error"
    },
    {
      "inputs": [],
      "name": "InvalidSignature",
      "type": "error"
    },
    {
      "inputs": [],
      "name": "InvalidSignatureFormat",
      "type": "error"
    },
    {
      "inputs": [],
      "name": "InvalidSubscription",
      "type": "error"
    },
    {
      "inputs": [
        {
          "internalType": "address",
          "name": "owner",
          "type": "address"
        }
      ],
      "name": "MustBeSubOwner",
      "type": "error"
    },
    {
      "inputs": [],
      "name": "NoAvailableGroups",
      "type": "error"
    },
    {
      "inputs": [],
      "name": "NoCorrespondingRequest",
      "type": "error"
    },
    {
      "inputs": [],
      "name": "NotFromCommitter",
      "type": "error"
    },
    {
      "inputs": [],
      "name": "PaymentTooLarge",
      "type": "error"
    },
    {
      "inputs": [],
      "name": "Reentrant",
      "type": "error"
    },
    {
      "inputs": [],
      "name": "TaskStillExclusive",
      "type": "error"
    },
    {
      "inputs": [],
      "name": "TaskStillWithinRequestConfirmations",
      "type": "error"
    },
    {
      "inputs": [],
      "name": "TooManyConsumers",
      "type": "error"
    },
    {
      "anonymous": false,
      "inputs": [
        {
          "indexed": false,
          "internalType": "uint16",
          "name": "minimumRequestConfirmations",
          "type": "uint16"
        },
        {
          "indexed": false,
          "internalType": "uint32",
          "name": "maxGasLimit",
          "type": "uint32"
        },
        {
          "indexed": false,
          "internalType": "uint32",
          "name": "stalenessSeconds",
          "type": "uint32"
        },
        {
          "indexed": false,
          "internalType": "uint32",
          "name": "gasAfterPaymentCalculation",
          "type": "uint32"
        },
        {
          "indexed": false,
          "internalType": "uint32",
          "name": "gasExceptCallback",
          "type": "uint32"
        },
        {
          "indexed": false,
          "internalType": "int256",
          "name": "fallbackWeiPerUnitArpa",
          "type": "int256"
        },
        {
          "indexed": false,
          "internalType": "uint256",
          "name": "signatureTaskExclusiveWindow",
          "type": "uint256"
        },
        {
          "indexed": false,
          "internalType": "uint256",
          "name": "rewardPerSignature",
          "type": "uint256"
        },
        {
          "indexed": false,
          "internalType": "uint256",
          "name": "committerRewardPerSignature",
          "type": "uint256"
        },
        {
          "components": [
            {
              "internalType": "uint32",
              "name": "fulfillmentFlatFeeArpaPPMTier1",
              "type": "uint32"
            },
            {
              "internalType": "uint32",
              "name": "fulfillmentFlatFeeArpaPPMTier2",
              "type": "uint32"
            },
            {
              "internalType": "uint32",
              "name": "fulfillmentFlatFeeArpaPPMTier3",
              "type": "uint32"
            },
            {
              "internalType": "uint32",
              "name": "fulfillmentFlatFeeArpaPPMTier4",
              "type": "uint32"
            },
            {
              "internalType": "uint32",
              "name": "fulfillmentFlatFeeArpaPPMTier5",
              "type": "uint32"
            },
            {
              "internalType": "uint24",
              "name": "reqsForTier2",
              "type": "uint24"
            },
            {
              "internalType": "uint24",
              "name": "reqsForTier3",
              "type": "uint24"
            },
            {
              "internalType": "uint24",
              "name": "reqsForTier4",
              "type": "uint24"
            },
            {
              "internalType": "uint24",
              "name": "reqsForTier5",
              "type": "uint24"
            }
          ],
          "indexed": false,
          "internalType": "struct IAdapterOwner.FeeConfig",
          "name": "feeConfig",
          "type": "tuple"
        }
      ],
      "name": "AdapterConfigSet",
      "type": "event"
    },
    {
      "anonymous": false,
      "inputs": [
        {
          "indexed": true,
          "internalType": "address",
          "name": "previousOwner",
          "type": "address"
        },
        {
          "indexed": true,
          "internalType": "address",
          "name": "newOwner",
          "type": "address"
        }
      ],
      "name": "OwnershipTransferred",
      "type": "event"
    },
    {
      "anonymous": false,
      "inputs": [
        {
          "indexed": true,
          "internalType": "bytes32",
          "name": "requestId",
          "type": "bytes32"
        },
        {
          "indexed": true,
          "internalType": "uint64",
          "name": "subId",
          "type": "uint64"
        },
        {
          "indexed": true,
          "internalType": "uint256",
          "name": "groupIndex",
          "type": "uint256"
        },
        {
          "indexed": false,
          "internalType": "address",
          "name": "sender",
          "type": "address"
        },
        {
          "indexed": false,
          "internalType": "uint256",
          "name": "seed",
          "type": "uint256"
        },
        {
          "indexed": false,
          "internalType": "uint16",
          "name": "requestConfirmations",
          "type": "uint16"
        },
        {
          "indexed": false,
          "internalType": "uint256",
          "name": "callbackGasLimit",
          "type": "uint256"
        },
        {
          "indexed": false,
          "internalType": "uint256",
          "name": "callbackMaxGasPrice",
          "type": "uint256"
        }
      ],
      "name": "RandomnessRequest",
      "type": "event"
    },
    {
      "anonymous": false,
      "inputs": [
        {
          "indexed": true,
          "internalType": "bytes32",
          "name": "requestId",
          "type": "bytes32"
        },
        {
          "indexed": true,
          "internalType": "uint256",
          "name": "groupIndex",
          "type": "uint256"
        },
        {
          "indexed": false,
          "internalType": "uint256",
          "name": "randommness",
          "type": "uint256"
        },
        {
          "indexed": false,
          "internalType": "uint256",
          "name": "payment",
          "type": "uint256"
        },
        {
          "indexed": false,
          "internalType": "bool",
          "name": "success",
          "type": "bool"
        }
      ],
      "name": "RandomnessRequestResult",
      "type": "event"
    },
    {
      "anonymous": false,
      "inputs": [
        {
          "indexed": true,
          "internalType": "uint64",
          "name": "subId",
          "type": "uint64"
        },
        {
          "indexed": false,
          "internalType": "address",
          "name": "consumer",
          "type": "address"
        }
      ],
      "name": "SubscriptionConsumerAdded",
      "type": "event"
    },
    {
      "anonymous": false,
      "inputs": [
        {
          "indexed": true,
          "internalType": "uint64",
          "name": "subId",
          "type": "uint64"
        },
        {
          "indexed": false,
          "internalType": "address",
          "name": "owner",
          "type": "address"
        }
      ],
      "name": "SubscriptionCreated",
      "type": "event"
    },
    {
      "anonymous": false,
      "inputs": [
        {
          "indexed": true,
          "internalType": "uint64",
          "name": "subId",
          "type": "uint64"
        },
        {
          "indexed": false,
          "internalType": "uint256",
          "name": "oldBalance",
          "type": "uint256"
        },
        {
          "indexed": false,
          "internalType": "uint256",
          "name": "newBalance",
          "type": "uint256"
        }
      ],
      "name": "SubscriptionFunded",
      "type": "event"
    },
    {
      "inputs": [],
      "name": "MAX_CONSUMERS",
      "outputs": [
        {
          "internalType": "uint16",
          "name": "",
          "type": "uint16"
        }
      ],
      "stateMutability": "view",
      "type": "function"
    },
    {
      "inputs": [],
      "name": "MAX_REQUEST_CONFIRMATIONS",
      "outputs": [
        {
          "internalType": "uint16",
          "name": "",
          "type": "uint16"
        }
      ],
      "stateMutability": "view",
      "type": "function"
    },
    {
      "inputs": [
        {
          "internalType": "uint64",
          "name": "subId",
          "type": "uint64"
        },
        {
          "internalType": "address",
          "name": "consumer",
          "type": "address"
        }
      ],
      "name": "addConsumer",
      "outputs": [],
      "stateMutability": "nonpayable",
      "type": "function"
    },
    {
      "inputs": [],
      "name": "createSubscription",
      "outputs": [
        {
          "internalType": "uint64",
          "name": "",
          "type": "uint64"
        }
      ],
      "stateMutability": "nonpayable",
      "type": "function"
    },
    {
      "inputs": [
        {
          "internalType": "uint256",
          "name": "callbackGasLimit",
          "type": "uint256"
        },
        {
          "internalType": "uint256",
          "name": "gasExceptCallback",
          "type": "uint256"
        },
        {
          "internalType": "uint32",
          "name": "fulfillmentFlatFeeArpaPPM",
          "type": "uint32"
        },
        {
          "internalType": "uint256",
          "name": "weiPerUnitGas",
          "type": "uint256"
        }
      ],
      "name": "estimatePaymentAmount",
      "outputs": [
        {
          "internalType": "uint96",
          "name": "",
          "type": "uint96"
        }
      ],
      "stateMutability": "view",
      "type": "function"
    },
    {
      "inputs": [
        {
          "internalType": "uint256",
          "name": "groupIndex",
          "type": "uint256"
        },
        {
          "internalType": "bytes32",
          "name": "requestId",
          "type": "bytes32"
        },
        {
          "internalType": "uint256",
          "name": "signature",
          "type": "uint256"
        },
        {
          "components": [
            {
              "internalType": "uint256",
              "name": "index",
              "type": "uint256"
            },
            {
              "internalType": "uint256",
              "name": "partialSignature",
              "type": "uint256"
            }
          ],
          "internalType": "struct IAdapter.PartialSignature[]",
          "name": "partialSignatures",
          "type": "tuple[]"
        }
      ],
      "name": "fulfillRandomness",
      "outputs": [],
      "stateMutability": "nonpayable",
      "type": "function"
    },
    {
      "inputs": [
        {
          "internalType": "uint64",
          "name": "subId",
          "type": "uint64"
        },
        {
          "internalType": "uint256",
          "name": "amount",
          "type": "uint256"
        }
      ],
      "name": "fundSubscription",
      "outputs": [],
      "stateMutability": "nonpayable",
      "type": "function"
    },
    {
      "inputs": [
        {
          "internalType": "uint64",
          "name": "reqCount",
          "type": "uint64"
        }
      ],
      "name": "getFeeTier",
      "outputs": [
        {
          "internalType": "uint32",
          "name": "",
          "type": "uint32"
        }
      ],
      "stateMutability": "view",
      "type": "function"
    },
    {
      "inputs": [],
      "name": "getLastRandomness",
      "outputs": [
        {
          "internalType": "uint256",
          "name": "",
          "type": "uint256"
        }
      ],
      "stateMutability": "view",
      "type": "function"
    },
    {
      "inputs": [
        {
          "internalType": "address",
          "name": "consumer",
          "type": "address"
        }
      ],
      "name": "getLastSubscription",
      "outputs": [
        {
          "internalType": "uint64",
          "name": "",
          "type": "uint64"
        }
      ],
      "stateMutability": "view",
      "type": "function"
    },
    {
      "inputs": [
        {
          "internalType": "bytes32",
          "name": "requestId",
          "type": "bytes32"
        }
      ],
      "name": "getPendingRequest",
      "outputs": [
        {
          "components": [
            {
              "internalType": "address",
              "name": "callbackContract",
              "type": "address"
            },
            {
              "internalType": "enum IRequestTypeBase.RequestType",
              "name": "requestType",
              "type": "uint8"
            },
            {
              "internalType": "bytes",
              "name": "params",
              "type": "bytes"
            },
            {
              "internalType": "uint64",
              "name": "subId",
              "type": "uint64"
            },
            {
              "internalType": "uint256",
              "name": "seed",
              "type": "uint256"
            },
            {
              "internalType": "uint256",
              "name": "groupIndex",
              "type": "uint256"
            },
            {
              "internalType": "uint256",
              "name": "blockNum",
              "type": "uint256"
            },
            {
              "internalType": "uint16",
              "name": "requestConfirmations",
              "type": "uint16"
            },
            {
              "internalType": "uint256",
              "name": "callbackGasLimit",
              "type": "uint256"
            },
            {
              "internalType": "uint256",
              "name": "callbackMaxGasPrice",
              "type": "uint256"
            }
          ],
          "internalType": "struct IAdapter.Callback",
          "name": "",
          "type": "tuple"
        }
      ],
      "stateMutability": "view",
      "type": "function"
    },
    {
      "inputs": [
        {
          "internalType": "uint64",
          "name": "subId",
          "type": "uint64"
        }
      ],
      "name": "getSubscription",
      "outputs": [
        {
          "internalType": "uint96",
          "name": "balance",
          "type": "uint96"
        },
        {
          "internalType": "uint96",
          "name": "inflightCost",
          "type": "uint96"
        },
        {
          "internalType": "uint64",
          "name": "reqCount",
          "type": "uint64"
        },
        {
          "internalType": "address",
          "name": "owner",
          "type": "address"
        },
        {
          "internalType": "address[]",
          "name": "consumers",
          "type": "address[]"
        }
      ],
      "stateMutability": "view",
      "type": "function"
    },
    {
      "inputs": [],
      "name": "owner",
      "outputs": [
        {
          "internalType": "address",
          "name": "",
          "type": "address"
        }
      ],
      "stateMutability": "view",
      "type": "function"
    },
    {
      "inputs": [],
      "name": "renounceOwnership",
      "outputs": [],
      "stateMutability": "nonpayable",
      "type": "function"
    },
    {
      "inputs": [
        {
          "components": [
            {
              "internalType": "enum IRequestTypeBase.RequestType",
              "name": "requestType",
              "type": "uint8"
            },
            {
              "internalType": "bytes",
              "name": "params",
              "type": "bytes"
            },
            {
              "internalType": "uint64",
              "name": "subId",
              "type": "uint64"
            },
            {
              "internalType": "uint256",
              "name": "seed",
              "type": "uint256"
            },
            {
              "internalType": "uint16",
              "name": "requestConfirmations",
              "type": "uint16"
            },
            {
              "internalType": "uint256",
              "name": "callbackGasLimit",
              "type": "uint256"
            },
            {
              "internalType": "uint256",
              "name": "callbackMaxGasPrice",
              "type": "uint256"
            }
          ],
          "internalType": "struct IAdapter.RandomnessRequestParams",
          "name": "p",
          "type": "tuple"
        }
      ],
      "name": "requestRandomness",
      "outputs": [
        {
          "internalType": "bytes32",
          "name": "",
          "type": "bytes32"
        }
      ],
      "stateMutability": "nonpayable",
      "type": "function"
    },
    {
      "inputs": [
        {
          "internalType": "uint16",
          "name": "minimumRequestConfirmations",
          "type": "uint16"
        },
        {
          "internalType": "uint32",
          "name": "maxGasLimit",
          "type": "uint32"
        },
        {
          "internalType": "uint32",
          "name": "stalenessSeconds",
          "type": "uint32"
        },
        {
          "internalType": "uint32",
          "name": "gasAfterPaymentCalculation",
          "type": "uint32"
        },
        {
          "internalType": "uint32",
          "name": "gasExceptCallback",
          "type": "uint32"
        },
        {
          "internalType": "int256",
          "name": "fallbackWeiPerUnitArpa",
          "type": "int256"
        },
        {
          "internalType": "uint256",
          "name": "signatureTaskExclusiveWindow",
          "type": "uint256"
        },
        {
          "internalType": "uint256",
          "name": "rewardPerSignature",
          "type": "uint256"
        },
        {
          "internalType": "uint256",
          "name": "committerRewardPerSignature",
          "type": "uint256"
        },
        {
          "components": [
            {
              "internalType": "uint32",
              "name": "fulfillmentFlatFeeArpaPPMTier1",
              "type": "uint32"
            },
            {
              "internalType": "uint32",
              "name": "fulfillmentFlatFeeArpaPPMTier2",
              "type": "uint32"
            },
            {
              "internalType": "uint32",
              "name": "fulfillmentFlatFeeArpaPPMTier3",
              "type": "uint32"
            },
            {
              "internalType": "uint32",
              "name": "fulfillmentFlatFeeArpaPPMTier4",
              "type": "uint32"
            },
            {
              "internalType": "uint32",
              "name": "fulfillmentFlatFeeArpaPPMTier5",
              "type": "uint32"
            },
            {
              "internalType": "uint24",
              "name": "reqsForTier2",
              "type": "uint24"
            },
            {
              "internalType": "uint24",
              "name": "reqsForTier3",
              "type": "uint24"
            },
            {
              "internalType": "uint24",
              "name": "reqsForTier4",
              "type": "uint24"
            },
            {
              "internalType": "uint24",
              "name": "reqsForTier5",
              "type": "uint24"
            }
          ],
          "internalType": "struct IAdapterOwner.FeeConfig",
          "name": "feeConfig",
          "type": "tuple"
        }
      ],
      "name": "setAdapterConfig",
      "outputs": [],
      "stateMutability": "nonpayable",
      "type": "function"
    },
    {
      "inputs": [
        {
          "internalType": "address",
          "name": "newOwner",
          "type": "address"
        }
      ],
      "name": "transferOwnership",
      "outputs": [],
      "stateMutability": "nonpayable",
      "type": "function"
    }
  ],
  "bytecode": {
    "object": "0x60c06040523480156200001157600080fd5b506040516200420d3803806200420d8339810160408190526200003491620000d8565b6200003f336200006b565b600180546001600160a01b0319166001600160a01b039485161790559082166080521660a05262000122565b600080546001600160a01b038381166001600160a01b0319831681178455604051919092169283917f8be0079c531659141344cd1fd0a4f28419497f9722a3daafe3b4186f6b6457e09190a35050565b80516001600160a01b0381168114620000d357600080fd5b919050565b600080600060608486031215620000ee57600080fd5b620000f984620000bb565b92506200010960208501620000bb565b91506200011960408501620000bb565b90509250925092565b60805160a0516140c56200014860003960006127030152600061146a01526140c56000f3fe608060405234801561001057600080fd5b506004361061010b5760003560e01c80638da5cb5b116100a2578063cc36c1e811610071578063cc36c1e814610241578063d2f9f9a71461026c578063dd28192814610294578063f2fde38b146102a7578063fb0882fc146102ba57600080fd5b80638da5cb5b146101e8578063a21a23e414610203578063a47c76961461020b578063a4c343f21461022f57600080fd5b80637341c10c116100de5780637341c10c1461015557806376a911bc1461016857806386dd2e9e146101b557806388b12d55146101c857600080fd5b80630f8d22791461011057806315c48b841461012557806364d51a2a14610145578063715018a61461014d575b600080fd5b61012361011e366004612f88565b6102cd565b005b61012d60c881565b60405161ffff90911681526020015b60405180910390f35b61012d606481565b61012361065f565b61012361016336600461310e565b610673565b61019d610176366004613145565b6001600160a01b03166000908152600c60205260409020600101546001600160401b031690565b6040516001600160401b03909116815260200161013c565b6101236101c3366004613185565b610836565b6101db6101d636600461325b565b610e4e565b60405161013c91906132fc565b6000546040516001600160a01b03909116815260200161013c565b61019d610ffd565b61021e6102193660046133b6565b6110d6565b60405161013c9594939291906133d1565b6003545b60405190815260200161013c565b61025461024f366004613457565b6111db565b6040516001600160601b03909116815260200161013c565b61027f61027a3660046133b6565b611272565b60405163ffffffff909116815260200161013c565b6101236102a2366004613496565b6113ef565b6101236102b5366004613145565b611542565b6102336102c836600461353e565b6115bb565b6102d5611a36565b60c861ffff8b1611156103145760405163539c34bb60e11b815261ffff8b1660048201819052602482015260c860448201526064015b60405180910390fd5b60008513610338576040516309d2037f60e01b81526004810186905260240161030b565b6040518061014001604052808b61ffff1681526020018a63ffffffff1681526020016000151581526020018681526020018963ffffffff1681526020018863ffffffff1681526020018763ffffffff16815260200185815260200184815260200183815250600460008201518160000160006101000a81548161ffff021916908361ffff16021790555060208201518160000160026101000a81548163ffffffff021916908363ffffffff16021790555060408201518160000160066101000a81548160ff0219169083151502179055506060820151816001015560808201518160020160006101000a81548163ffffffff021916908363ffffffff16021790555060a08201518160020160046101000a81548163ffffffff021916908363ffffffff16021790555060c08201518160020160086101000a81548163ffffffff021916908363ffffffff16021790555060e082015181600301556101008201518160040155610120820151816005015590505080600a60008201518160000160006101000a81548163ffffffff021916908363ffffffff16021790555060208201518160000160046101000a81548163ffffffff021916908363ffffffff16021790555060408201518160000160086101000a81548163ffffffff021916908363ffffffff160217905550606082015181600001600c6101000a81548163ffffffff021916908363ffffffff16021790555060808201518160000160106101000a81548163ffffffff021916908363ffffffff16021790555060a08201518160000160146101000a81548162ffffff021916908362ffffff16021790555060c08201518160000160176101000a81548162ffffff021916908362ffffff16021790555060e082015181600001601a6101000a81548162ffffff021916908362ffffff16021790555061010082015181600001601d6101000a81548162ffffff021916908362ffffff1602179055509050507fd0b13daf7583541073d4924096b201ccca6cdd72c0d10c63ce4067310691a68d8a8a8a8a8a8a8a8a8a600a60405161064b9a999897969594939291906135fe565b60405180910390a150505050505050505050565b610667611a36565b6106716000611a90565b565b6001600160401b0382166000908152600d602052604090205482906001600160a01b0316806106b557604051630fb532db60e11b815260040160405180910390fd5b336001600160a01b038216146106e957604051636c51fda960e11b81526001600160a01b038216600482015260240161030b565b600454600160301b900460ff16156107145760405163769dd35360e11b815260040160405180910390fd5b6001600160401b0384166000908152600d602052604090206002015460631901610751576040516305a48e0f60e01b815260040160405180910390fd5b6001600160a01b0383166000908152600c602090815260408083206001600160401b0380891685529252822054169003610830576001600160a01b0383166000818152600c602090815260408083206001600160401b0389168085528184528285208054600167ffffffffffffffff19918216811790925592810180549093168217909255600d8452828520600201805492830181558552938390200180546001600160a01b031916851790555192835290917f43dc749a04ac8fb825cbd514f7c0e13f13bc6f2ee66043b76629d51776cff8e0910160405180910390a25b50505050565b60005a6000858152600b602090815260408083208151610140810190925280546001600160a01b03811683529495509293909291830190600160a01b900460ff16600281111561088857610888613274565b600281111561089957610899613274565b81526020016001820180546108ad90613709565b80601f01602080910402602001604051908101604052809291908181526020018280546108d990613709565b80156109265780601f106108fb57610100808354040283529160200191610926565b820191906000526020600020905b81548152906001019060200180831161090957829003601f168201915b505050918352505060028201546001600160401b0316602082015260038201546040820152600482015460608201526005820154608080830191909152600683015461ffff1660a0830152600783015460c083015260089092015460e0909101528101519091506000036109ad57604051631b44092560e11b815260040160405180910390fd5b8060e0015161ffff168160c001516109c59190613759565b4310156109e55760405163619a4abd60e01b815260040160405180910390fd5b8060a001518614158015610a0a575060075460c0820151610a069190613759565b4311155b15610a28576040516378373bbd60e11b815260040160405180910390fd5b600160009054906101000a90046001600160a01b03166001600160a01b03166306545a936040518163ffffffff1660e01b8152600401602060405180830381865afa158015610a7b573d6000803e3d6000fd5b505050506040513d601f19601f82011682018060405250810190610a9f919061376c565b8610610ac157604051637f6efcb560e11b81526004810187905260240161030b565b6000610ad88783608001518460c001518888611ae0565b9050600085604051602001610aef91815260200190565b60408051808303601f1901815290829052805160209091012060038190556001546379ef840160e11b8352600483018290529092506001600160a01b03169063f3df080290602401600060405180830381600087803b158015610b5157600080fd5b505af1158015610b65573d6000803e3d6000fd5b505050506000610b768883866121cb565b6060850180516001600160401b039081166000908152600d60205260408082206005908101549451841683529082200180549495509282169360019392610bbf91859116613785565b92506101000a8154816001600160401b0302191690836001600160401b031602179055506000610c1487600460020160049054906101000a900463ffffffff1663ffffffff16610c0e85611272565b3a6124cc565b60608701516001600160401b03166000908152600d60205260409020600301549091506001600160601b0380831691161015610c635760405163964d765f60e01b815260040160405180910390fd5b600d600087606001516001600160401b03166001600160401b0316815260200190815260200160002060040160008b815260200190815260200160002060009054906101000a90046001600160601b0316600d600088606001516001600160401b03166001600160401b03168152602001908152602001600020600301600c8282829054906101000a90046001600160601b0316610d0191906137ac565b92506101000a8154816001600160601b0302191690836001600160601b03160217905550600d600087606001516001600160401b03166001600160401b0316815260200190815260200160002060040160008b815260200190815260200160002060006101000a8154906001600160601b03021916905580600d600088606001516001600160401b03166001600160401b0316815260200190815260200160002060030160008282829054906101000a90046001600160601b0316610dc691906137ac565b92506101000a8154816001600160601b0302191690836001600160601b03160217905550610df48582612596565b604080518581526001600160601b03831660208201528415158183015290518c918c917f73c327f997a8c00aae77152164dd844e2a5137fb78e1c410eb2734e2915305bb9181900360600190a35050505050505050505050565b610eb26040805161014081019091526000808252602082019081526020016060815260200160006001600160401b03168152602001600081526020016000815260200160008152602001600061ffff16815260200160008152602001600081525090565b6000828152600b60209081526040918290208251610140810190935280546001600160a01b03811684529091830190600160a01b900460ff166002811115610efc57610efc613274565b6002811115610f0d57610f0d613274565b8152602001600182018054610f2190613709565b80601f0160208091040260200160405190810160405280929190818152602001828054610f4d90613709565b8015610f9a5780601f10610f6f57610100808354040283529160200191610f9a565b820191906000526020600020905b815481529060010190602001808311610f7d57829003601f168201915b505050918352505060028201546001600160401b03166020820152600382015460408201526004820154606082015260058201546080820152600682015461ffff1660a0820152600782015460c082015260089091015460e09091015292915050565b600454600090600160301b900460ff161561102b5760405163769dd35360e11b815260040160405180910390fd5b600e80546001600160401b0316906000611044836137cc565b82546101009290920a6001600160401b03818102199093169183160217909155600e805482166000908152600d60209081526040918290208054336001600160a01b0319909116811790915592549151928352921692507f464722b4166576d3dcbba877b999bc35cf911f4eaf434b7eba68fa113951d0bf910160405180910390a250600e546001600160401b031690565b6001600160401b0381166000908152600d60205260408120548190819081906060906001600160a01b031661111e57604051630fb532db60e11b815260040160405180910390fd5b6001600160401b038087166000908152600d6020908152604091829020600381015460058201548254600290930180548651818702810187019097528087526001600160601b0380851698600160601b909504169692909316946001600160a01b0390941693909283918301828280156111c157602002820191906000526020600020905b81546001600160a01b031681526001909101906020018083116111a3575b505050505090509450945094509450945091939590929450565b6000806111e66126d4565b90506000811361120c576040516309d2037f60e01b81526004810182905260240161030b565b6000816112198888613759565b61122b86670de0b6b3a76400006137f2565b61123591906137f2565b61123f919061381f565b9050600061125863ffffffff871664e8d4a510006137f2565b90506112648183613759565b93505050505b949350505050565b6040805161012081018252600a5463ffffffff8082168352640100000000820481166020840152600160401b8204811693830193909352600160601b810483166060830152600160801b8104909216608082015262ffffff600160a01b8304811660a08301819052600160b81b8404821660c0840152600160d01b8404821660e0840152600160e81b909304166101008201526000916001600160401b0384161161131e575192915050565b826001600160401b03168160a0015162ffffff1610801561135157508060c0015162ffffff16836001600160401b031611155b15611360576020015192915050565b826001600160401b03168160c0015162ffffff1610801561139357508060e0015162ffffff16836001600160401b031611155b156113a2576040015192915050565b826001600160401b03168160e0015162ffffff161080156113d6575080610100015162ffffff16836001600160401b031611155b156113e5576060015192915050565b6080015192915050565b600454600160301b900460ff161561141a5760405163769dd35360e11b815260040160405180910390fd5b6001600160401b0382166000908152600d60205260409020546001600160a01b031661145957604051630fb532db60e11b815260040160405180910390fd5b600154611495906001600160a01b037f0000000000000000000000000000000000000000000000000000000000000000811691339116846127a7565b6001600160401b0382166000908152600d6020526040812060030180546001600160601b0316918391906114c98385613833565b92506101000a8154816001600160601b0302191690836001600160601b03160217905550826001600160401b03167fd39ec07f4e209f627a4c427971473820dc129761ba28de8906bd56f57101d4f88284846115259190613759565b6040805192835260208301919091520160405180910390a2505050565b61154a611a36565b6001600160a01b0381166115af5760405162461bcd60e51b815260206004820152602660248201527f4f776e61626c653a206e6577206f776e657220697320746865207a65726f206160448201526564647265737360d01b606482015260840161030b565b6115b881611a90565b50565b60003233036115dd57604051638a3150e760e01b815260040160405180910390fd5b6040808301516001600160401b03166000908152600d60205220546001600160a01b031661161e57604051630fb532db60e11b815260040160405180910390fd5b336000908152600c60209081526040808320858201516001600160401b0390811685529252822054169081900361167f576040808401519051637800cff360e11b81526001600160401b03909116600482015233602482015260440161030b565b6000611689612801565b6002819055336000818152600c602081815260408084208a820180516001600160401b039081168752828552838720546060808f01518651808901919091528087018b9052918316828201819052865180840390920182526080909201865280519087012098885295855290518116865292528320805495965091946001939161171591859116613785565b92506101000a8154816001600160401b0302191690836001600160401b03160217905550600061174482612964565b6040888101516001600160401b039081166000908152600d6020529182206005015460a08b015160065494955091169261179e9190600160401b900463ffffffff1661179461027a866001613785565b8c60c001516111db565b6040808b0180516001600160401b039081166000908152600d6020528381206003908101549351909216815292909220909101549192506001600160601b03808416926117f592600160601b9004821691166137ac565b6001600160601b0316101561181d5760405163444a5eaf60e11b815260040160405180910390fd5b6040898101516001600160401b03166000908152600d602052206003018054829190600c9061185d908490600160601b90046001600160601b0316613833565b82546101009290920a6001600160601b0381810219909316918316021790915560408b8101516001600160401b03166000908152600d6020908152828220888352600401815282822080546bffffffffffffffffffffffff191694871694909417909355600b9092529020546001600160a01b03161590506118e1576118e1613853565b6000838152600b6020526040902080546001600160a01b031981163390811783558b5191839160ff60a01b19166001600160a81b031990911617600160a01b83600281111561193257611932613274565b021790555060208a0151600182019061194b90826138b7565b506040808b01516002830180546001600160401b0390921667ffffffffffffffff1990921682179055600383018790556004830189905543600584015560808c015160068401805461ffff90921661ffff199092168217905560a08d01516007850181905560c08e01516008860181905593518b9489937fc34e651b9916b621d71a15c7c50665210ec7bdfbef86902ed267b80265c06a0693611a209333938e9392916001600160a01b03959095168552602085019390935261ffff9190911660408401526060830152608082015260a00190565b60405180910390a4509198975050505050505050565b6000546001600160a01b031633146106715760405162461bcd60e51b815260206004820181905260248201527f4f776e61626c653a2063616c6c6572206973206e6f7420746865206f776e6572604482015260640161030b565b600080546001600160a01b038381166001600160a01b0319831681178455604051919092169283917f8be0079c531659141344cd1fd0a4f28419497f9722a3daafe3b4186f6b6457e09190a35050565b60405162f577a560e81b81526004810183905260609073__$34d23ddaee48904c6c566425acbfa0fc0e$__9063f577a50090602401602060405180830381865af4158015611b32573d6000803e3d6000fd5b505050506040513d601f19601f82011682018060405250810190611b569190613986565b611b7357604051638529df1f60e01b815260040160405180910390fd5b8151600003611b9557604051638bdcc37560e01b815260040160405180910390fd5b6001546040516333ad819560e21b8152600481018890526000916001600160a01b03169063ceb6065490602401600060405180830381865afa158015611bdf573d6000803e3d6000fd5b505050506040513d6000823e601f3d908101601f19168201604052611c079190810190613c3c565b9050611c178160a0015133612996565b611c345760405163d9ce719d60e01b815260040160405180910390fd5b60408051602081018890528082018790528151808203830181526060820192839052633033cc5160e01b90925260009073__$34d23ddaee48904c6c566425acbfa0fc0e$__90633033cc5190611c8e908590606401613d41565b6040805180830381865af4158015611caa573d6000803e3d6000fd5b505050506040513d601f19601f82011682018060405250810190611cce9190613d54565b905073__$34d23ddaee48904c6c566425acbfa0fc0e$__63ebbdac9173__$34d23ddaee48904c6c566425acbfa0fc0e$__6313bc64ee896040518263ffffffff1660e01b8152600401611d2391815260200190565b6040805180830381865af4158015611d3f573d6000803e3d6000fd5b505050506040513d601f19601f82011682018060405250810190611d639190613d54565b856101000151846040518463ffffffff1660e01b8152600401611d8893929190613dfa565b602060405180830381865af4158015611da5573d6000803e3d6000fd5b505050506040513d601f19601f82011682018060405250810190611dc99190613986565b611de657604051638baa579f60e01b815260040160405180910390fd5b600085516001600160401b03811115611e0157611e01612ea0565b604051908082528060200260200182016040528015611e3a57816020015b611e27612de2565b815260200190600190039081611e1f5790505b509050600086516001600160401b03811115611e5857611e58612ea0565b604051908082528060200260200182016040528015611e9157816020015b611e7e612e00565b815260200190600190039081611e765790505b50905086516001600160401b03811115611ead57611ead612ea0565b604051908082528060200260200182016040528015611ed6578160200160208202803683370190505b50955060005b87518110156121235773__$34d23ddaee48904c6c566425acbfa0fc0e$__63f577a500898381518110611f1157611f11613e23565b6020026020010151602001516040518263ffffffff1660e01b8152600401611f3b91815260200190565b602060405180830381865af4158015611f58573d6000803e3d6000fd5b505050506040513d601f19601f82011682018060405250810190611f7c9190613986565b611f9957604051636b849b7d60e11b815260040160405180910390fd5b73__$34d23ddaee48904c6c566425acbfa0fc0e$__6313bc64ee898381518110611fc557611fc5613e23565b6020026020010151602001516040518263ffffffff1660e01b8152600401611fef91815260200190565b6040805180830381865af415801561200b573d6000803e3d6000fd5b505050506040513d601f19601f8201168201806040525081019061202f9190613d54565b83828151811061204157612041613e23565b6020026020010181905250856080015188828151811061206357612063613e23565b6020026020010151600001518151811061207f5761207f613e23565b60200260200101516020015182828151811061209d5761209d613e23565b602002602001018190525085608001518882815181106120bf576120bf613e23565b602002602001015160000151815181106120db576120db613e23565b6020026020010151600001518782815181106120f9576120f9613e23565b6001600160a01b03909216602092830291909101909101528061211b81613e39565b915050611edc565b50604051630d6870d760e21b815273__$34d23ddaee48904c6c566425acbfa0fc0e$__906335a1c35c9061215f90859085908890600401613e52565b602060405180830381865af415801561217c573d6000803e3d6000fd5b505050506040513d601f19601f820116820180604052508101906121a09190613986565b6121bd57604051639c2d1c6d60e01b815260040160405180910390fd5b505050505095945050505050565b600080606081846020015160028111156121e7576121e7613274565b036122315750604080516024810187905260448082018790528251808303909101815260649091019091526020810180516001600160e01b03166394985ddd60e01b17905261241b565b60018460200151600281111561224957612249613274565b0361237c57600084604001518060200190518101906122689190613ee8565b905060008163ffffffff166001600160401b0381111561228a5761228a612ea0565b6040519080825280602002602001820160405280156122b3578160200160208202803683370190505b50905060005b8263ffffffff168110156123235760408051602081018a90529081018290526060016040516020818303038152906040528051906020012060001c82828151811061230657612306613e23565b60209081029190910101528061231b81613e39565b9150506122b9565b506040516375bf929b60e01b90612340908a908490602401613f05565b60408051601f198184030181529190526020810180516001600160e01b03166001600160e01b031990931692909217909152925061241b915050565b60028460200151600281111561239457612394613274565b0361241b57600084604001518060200190518101906123b39190613ee8565b905060006123c78263ffffffff16886129fd565b9050639e5836f660e01b88826040516024016123e4929190613f05565b60408051601f198184030181529190526020810180516001600160e01b03166001600160e01b031990931692909217909152925050505b6000868152600b6020526040812080546001600160a81b0319168155906124456001830182612e1e565b5060028101805467ffffffffffffffff1916905560006003820181905560048083018290556005830182905560068301805461ffff1916905560078301829055600890920155805466ff0000000000001916600160301b17905561010084015184516124b2919083612b58565b6004805466ff000000000000191690559695505050505050565b6000806124d76126d4565b9050600081136124fd576040516309d2037f60e01b81526004810182905260240161030b565b6000815a61250b8989613759565b6125159190613f46565b61252786670de0b6b3a76400006137f2565b61253191906137f2565b61253b919061381f565b9050600061255463ffffffff871664e8d4a510006137f2565b905061256c816b04d8c55aefb8c05b5c000000613f46565b82111561258c5760405163e80fa38160e01b815260040160405180910390fd5b6112648183613759565b6001546009546040516309feb8f560e41b815233600482015260248101919091526001600160a01b0390911690639feb8f5090604401600060405180830381600087803b1580156125e657600080fd5b505af11580156125fa573d6000803e3d6000fd5b5050505060005b82518110156126cf5760015483516001600160a01b0390911690639feb8f509085908490811061263357612633613e23565b60200260200101518551856001600160601b0316612651919061381f565b60085461265e9190613759565b6040516001600160e01b031960e085901b1681526001600160a01b0390921660048301526024820152604401600060405180830381600087803b1580156126a457600080fd5b505af11580156126b8573d6000803e3d6000fd5b5050505080806126c790613e39565b915050612601565b505050565b60065460408051633fabe5a360e21b8152905160009263ffffffff169182151591849182916001600160a01b037f0000000000000000000000000000000000000000000000000000000000000000169163feaf968c9160048281019260a09291908290030181865afa15801561274e573d6000803e3d6000fd5b505050506040513d601f19601f820116820180604052508101906127729190613f73565b509450909250849150508015612796575061278d8242613f46565b8463ffffffff16105b1561126a5750600554949350505050565b604080516001600160a01b0385811660248301528416604482015260648082018490528251808303909101815260849091019091526020810180516001600160e01b03166323b872dd60e01b179052610830908590612ba4565b600080600160009054906101000a90046001600160a01b03166001600160a01b031663b330a0fd6040518163ffffffff1660e01b8152600401600060405180830381865afa158015612857573d6000803e3d6000fd5b505050506040513d6000823e601f3d908101601f1916820160405261287f9190810190613fc3565b905080516000036128a357604051636905ab6760e01b815260040160405180910390fd5b600154604080516306545a9360e01b815290516000926001600160a01b0316916306545a939160048083019260209291908290030181865afa1580156128ed573d6000803e3d6000fd5b505050506040513d601f19601f82011682018060405250810190612911919061376c565b905060008160025460016129259190613759565b61292f9190614048565b90505b61293c8382612c76565b61295d578161294c826001613759565b6129569190614048565b9050612932565b9392505050565b60008160405160200161297991815260200190565b604051602081830303815290604052805190602001209050919050565b6000805b83518110156129f157826001600160a01b03168482815181106129bf576129bf613e23565b60200260200101516001600160a01b0316036129df5760019150506129f7565b806129e981613e39565b91505061299a565b50600090505b92915050565b60606000836001600160401b03811115612a1957612a19612ea0565b604051908082528060200260200182016040528015612a42578160200160208202803683370190505b50905060005b84811015612a805780828281518110612a6357612a63613e23565b602090810291909101015280612a7881613e39565b915050612a48565b5080516000805b6000612a928461405c565b9350831115612b4d57612aa58387614048565b915085604051602001612aba91815260200190565b6040516020818303038152906040528051906020012060001c9550838381518110612ae757612ae7613e23565b60200260200101519050838281518110612b0357612b03613e23565b6020026020010151848481518110612b1d57612b1d613e23565b60200260200101818152505080848381518110612b3c57612b3c613e23565b602002602001018181525050612a87565b509195945050505050565b60005a611388811015612b6a57600080fd5b611388810390508460408204820311612b8257600080fd5b50823b612b8e57600080fd5b60008083516020850160008789f1949350505050565b6000612bf9826040518060400160405280602081526020017f5361666545524332303a206c6f772d6c6576656c2063616c6c206661696c6564815250856001600160a01b0316612cbf9092919063ffffffff16565b8051909150156126cf5780806020019051810190612c179190613986565b6126cf5760405162461bcd60e51b815260206004820152602a60248201527f5361666545524332303a204552433230206f7065726174696f6e20646964206e6044820152691bdd081cdd58d8d9595960b21b606482015260840161030b565b6000805b83518110156129f15782848281518110612c9657612c96613e23565b602002602001015103612cad5760019150506129f7565b80612cb781613e39565b915050612c7a565b606061126a848460008585600080866001600160a01b03168587604051612ce69190614073565b60006040518083038185875af1925050503d8060008114612d23576040519150601f19603f3d011682016040523d82523d6000602084013e612d28565b606091505b5091509150612d3987838387612d44565b979650505050505050565b60608315612db3578251600003612dac576001600160a01b0385163b612dac5760405162461bcd60e51b815260206004820152601d60248201527f416464726573733a2063616c6c20746f206e6f6e2d636f6e7472616374000000604482015260640161030b565b508161126a565b61126a8383815115612dc85781518083602001fd5b8060405162461bcd60e51b815260040161030b9190613d41565b60405180604001604052806002906020820280368337509192915050565b60405180608001604052806004906020820280368337509192915050565b508054612e2a90613709565b6000825580601f10612e3a575050565b601f0160209004906000526020600020908101906115b891905b80821115612e685760008155600101612e54565b5090565b803561ffff81168114612e7e57600080fd5b919050565b63ffffffff811681146115b857600080fd5b8035612e7e81612e83565b634e487b7160e01b600052604160045260246000fd5b60405161012081016001600160401b0381118282101715612ed957612ed9612ea0565b60405290565b604080519081016001600160401b0381118282101715612ed957612ed9612ea0565b60405160e081016001600160401b0381118282101715612ed957612ed9612ea0565b604051606081016001600160401b0381118282101715612ed957612ed9612ea0565b604051601f8201601f191681016001600160401b0381118282101715612f6d57612f6d612ea0565b604052919050565b803562ffffff81168114612e7e57600080fd5b6000806000806000806000806000808a8c03610240811215612fa957600080fd5b612fb28c612e6c565b9a5060208c0135612fc281612e83565b995060408c0135612fd281612e83565b985060608c0135612fe281612e83565b975060808c0135612ff281612e83565b965060a08c0135955060c08c0135945060e08c01359350610100808d0135935061012061011f19830181131561302757600080fd5b61302f612eb6565b925061303c818f01612e95565b83525061304c6101408e01612e95565b602083015261305e6101608e01612e95565b60408301526130706101808e01612e95565b60608301526130826101a08e01612e95565b60808301526130946101c08e01612f75565b60a08301526130a66101e08e01612f75565b60c08301526130b86102008e01612f75565b60e08301526130ca6102208e01612f75565b8183015250809150509295989b9194979a5092959850565b80356001600160401b0381168114612e7e57600080fd5b6001600160a01b03811681146115b857600080fd5b6000806040838503121561312157600080fd5b61312a836130e2565b9150602083013561313a816130f9565b809150509250929050565b60006020828403121561315757600080fd5b813561295d816130f9565b60006001600160401b0382111561317b5761317b612ea0565b5060051b60200190565b6000806000806080858703121561319b57600080fd5b843593506020808601359350604080870135935060608701356001600160401b038111156131c857600080fd5b8701601f810189136131d957600080fd5b80356131ec6131e782613162565b612f45565b81815260069190911b8201840190848101908b83111561320b57600080fd5b928501925b8284101561324b5784848d0312156132285760008081fd5b613230612edf565b84358152868501358782015282529284019290850190613210565b989b979a50959850505050505050565b60006020828403121561326d57600080fd5b5035919050565b634e487b7160e01b600052602160045260246000fd5b600381106132a857634e487b7160e01b600052602160045260246000fd5b9052565b60005b838110156132c75781810151838201526020016132af565b50506000910152565b600081518084526132e88160208601602086016132ac565b601f01601f19169290920160200192915050565b602081526133166020820183516001600160a01b03169052565b6000602083015161332a604084018261328a565b5060408301516101408060608501526133476101608501836132d0565b9150606085015161336360808601826001600160401b03169052565b50608085015160a085015260a085015160c085015260c085015160e085015260e08501516101006133998187018361ffff169052565b860151610120868101919091529095015193019290925250919050565b6000602082840312156133c857600080fd5b61295d826130e2565b6001600160601b03868116825285166020808301919091526001600160401b03851660408301526001600160a01b03848116606084015260a0608084018190528451908401819052600092858101929160c0860190855b81811015613446578551851683529483019491830191600101613428565b50909b9a5050505050505050505050565b6000806000806080858703121561346d57600080fd5b8435935060208501359250604085013561348681612e83565b9396929550929360600135925050565b600080604083850312156134a957600080fd5b6134b2836130e2565b946020939093013593505050565b803560038110612e7e57600080fd5b600082601f8301126134e057600080fd5b81356001600160401b038111156134f9576134f9612ea0565b61350c601f8201601f1916602001612f45565b81815284602083860101111561352157600080fd5b816020850160208301376000918101602001919091529392505050565b60006020828403121561355057600080fd5b81356001600160401b038082111561356757600080fd5b9083019060e0828603121561357b57600080fd5b613583612f01565b61358c836134c0565b81526020830135828111156135a057600080fd5b6135ac878286016134cf565b6020830152506135be604084016130e2565b6040820152606083013560608201526135d960808401612e6c565b608082015260a083013560a082015260c083013560c082015280935050505092915050565b60006102408201905061ffff8c16825263ffffffff808c166020840152808b166040840152808a16606084015280891660808401528760a08401528660c08401528560e0840152846101008401528354613663610120850183831663ffffffff169052565b61367b6101408501838360201c1663ffffffff169052565b6136936101608501838360401c1663ffffffff169052565b6136ab6101808501838360601c1663ffffffff169052565b6136c36101a08501838360801c1663ffffffff169052565b62ffffff60a082901c81166101c086015260b882901c81166101e086015260d082901c1661020085015260e81c610220909301929092529b9a5050505050505050505050565b600181811c9082168061371d57607f821691505b60208210810361373d57634e487b7160e01b600052602260045260246000fd5b50919050565b634e487b7160e01b600052601160045260246000fd5b808201808211156129f7576129f7613743565b60006020828403121561377e57600080fd5b5051919050565b6001600160401b038181168382160190808211156137a5576137a5613743565b5092915050565b6001600160601b038281168282160390808211156137a5576137a5613743565b60006001600160401b038083168181036137e8576137e8613743565b6001019392505050565b80820281158282048414176129f7576129f7613743565b634e487b7160e01b600052601260045260246000fd5b60008261382e5761382e613809565b500490565b6001600160601b038181168382160190808211156137a5576137a5613743565b634e487b7160e01b600052600160045260246000fd5b601f8211156126cf57600081815260208120601f850160051c810160208610156138905750805b601f850160051c820191505b818110156138af5782815560010161389c565b505050505050565b81516001600160401b038111156138d0576138d0612ea0565b6138e4816138de8454613709565b84613869565b602080601f83116001811461391957600084156139015750858301515b600019600386901b1c1916600185901b1785556138af565b600085815260208120601f198616915b8281101561394857888601518255948401946001909101908401613929565b50858210156139665787850151600019600388901b60f8161c191681555b5050505050600190811b01905550565b80518015158114612e7e57600080fd5b60006020828403121561399857600080fd5b61295d82613976565b600082601f8301126139b257600080fd5b604051608081018181106001600160401b03821117156139d4576139d4612ea0565b6040528060808401858111156139e957600080fd5b845b81811015612b4d5780518352602092830192016139eb565b600082601f830112613a1457600080fd5b81516020613a246131e783613162565b82815260a09283028501820192828201919087851115613a4357600080fd5b8387015b85811015613a915781818a031215613a5f5760008081fd5b613a67612edf565b8151613a72816130f9565b8152613a808a8388016139a1565b818701528452928401928101613a47565b5090979650505050505050565b600082601f830112613aaf57600080fd5b81516020613abf6131e783613162565b82815260059290921b84018101918181019086841115613ade57600080fd5b8286015b84811015613b02578051613af5816130f9565b8352918301918301613ae2565b509695505050505050565b600082601f830112613b1e57600080fd5b81516020613b2e6131e783613162565b82815260059290921b84018101918181019086841115613b4d57600080fd5b8286015b84811015613b025780516001600160401b0380821115613b7057600080fd5b908801906040601f19838c038101821315613b8a57600080fd5b613b92612edf565b8885015184811115613ba357600080fd5b613bb18e8b83890101613a9e565b8252508285015184811115613bc557600080fd5b949094019360c0858e0383011215613bdd5760008081fd5b613be5612f23565b9150888501518252613bf98d8487016139a1565b8983015260c085015184811115613c105760008081fd5b613c1e8e8b83890101613a9e565b93830193909352808901919091528652505050918301918301613b51565b600060208284031215613c4e57600080fd5b81516001600160401b0380821115613c6557600080fd5b908301906101808286031215613c7a57600080fd5b613c82612eb6565b82518152602083015160208201526040830151604082015260608301516060820152608083015182811115613cb657600080fd5b613cc287828601613a03565b60808301525060a083015182811115613cda57600080fd5b613ce687828601613a9e565b60a08301525060c083015182811115613cfe57600080fd5b613d0a87828601613b0d565b60c083015250613d1c60e08401613976565b60e08201526101009150613d32868385016139a1565b91810191909152949350505050565b60208152600061295d60208301846132d0565b600060408284031215613d6657600080fd5b82601f830112613d7557600080fd5b613d7d612edf565b806040840185811115613d8f57600080fd5b845b81811015613da9578051845260209384019301613d91565b509095945050505050565b8060005b6002811015610830578151845260209384019390910190600101613db8565b8060005b6004811015610830578151845260209384019390910190600101613ddb565b6101008101613e098286613db4565b613e166040830185613dd7565b61126a60c0830184613db4565b634e487b7160e01b600052603260045260246000fd5b600060018201613e4b57613e4b613743565b5060010190565b608080825284518282018190526000919060209060a0850190828901855b82811015613e9657613e83848351613db4565b6040939093019290840190600101613e70565b5050508481038286015286518082528783019183019060005b81811015613ed257613ec2838551613dd7565b9284019291850191600101613eaf565b50508094505050505061126a6040830184613db4565b600060208284031215613efa57600080fd5b815161295d81612e83565b6000604082018483526020604081850152818551808452606086019150828701935060005b81811015613a9157845183529383019391830191600101613f2a565b818103818111156129f7576129f7613743565b805169ffffffffffffffffffff81168114612e7e57600080fd5b600080600080600060a08688031215613f8b57600080fd5b613f9486613f59565b9450602086015193506040860151925060608601519150613fb760808701613f59565b90509295509295909350565b60006020808385031215613fd657600080fd5b82516001600160401b03811115613fec57600080fd5b8301601f81018513613ffd57600080fd5b805161400b6131e782613162565b81815260059190911b8201830190838101908783111561402a57600080fd5b928401925b82841015612d395783518252928401929084019061402f565b60008261405757614057613809565b500690565b60008161406b5761406b613743565b506000190190565b600082516140858184602087016132ac565b919091019291505056fea2646970667358221220e2c82ec41bc2e239c3efe2de5d944c68d0d8a76077ade337a23b2bbf98beaf7464736f6c63430008130033",
    "linkReferences": {
      "src/libraries/BLS.sol": {
        "BLS": [
          {
            "start": 7232,
            "length": 20
          },
          {
            "start": 7598,
            "length": 20
          },
          {
            "start": 7706,
            "length": 20
          },
          {
            "start": 7732,
            "length": 20
          },
          {
            "start": 8239,
            "length": 20
          },
          {
            "start": 8419,
            "length": 20
          },
          {
            "start": 8827,
            "length": 20
          }
        ]
      }
    }
  },
  "methodIdentifiers": {
    "MAX_CONSUMERS()": "64d51a2a",
    "MAX_REQUEST_CONFIRMATIONS()": "15c48b84",
    "addConsumer(uint64,address)": "7341c10c",
    "createSubscription()": "a21a23e4",
    "estimatePaymentAmount(uint256,uint256,uint32,uint256)": "cc36c1e8",
    "fulfillRandomness(uint256,bytes32,uint256,(uint256,uint256)[])": "86dd2e9e",
    "fundSubscription(uint64,uint256)": "dd281928",
    "getFeeTier(uint64)": "d2f9f9a7",
    "getLastRandomness()": "a4c343f2",
    "getLastSubscription(address)": "76a911bc",
    "getPendingRequest(bytes32)": "88b12d55",
    "getSubscription(uint64)": "a47c7696",
    "owner()": "8da5cb5b",
    "renounceOwnership()": "715018a6",
    "requestRandomness((uint8,bytes,uint64,uint256,uint16,uint256,uint256))": "fb0882fc",
    "setAdapterConfig(uint16,uint32,uint32,uint32,uint32,int256,uint256,uint256,uint256,(uint32,uint32,uint32,uint32,uint32,uint24,uint24,uint24,uint24))": "0f8d2279",
    "transferOwnership(address)": "f2fde38b"
  },
  "id": 47
}