{
  "abi": [
    {
      "inputs": [],
      "name": "AtLeastOneRequestIsRequired",
      "type": "error"
    },
    {
      "inputs": [],
      "name": "EmptyPartialSignatures",
      "type": "error"
    },
    {
      "inputs": [
        {
          "internalType": "uint256",
          "name": "groupIndex",
          "type": "uint256"
        }
      ],
      "name": "GroupNotExist",
      "type": "error"
    },
    {
      "inputs": [],
      "name": "IncorrectCommitment",
      "type": "error"
    },
    {
      "inputs": [],
      "name": "InsufficientBalanceWhenFulfill",
      "type": "error"
    },
    {
      "inputs": [],
      "name": "InsufficientBalanceWhenRequest",
      "type": "error"
    },
    {
      "inputs": [
        {
          "internalType": "uint64",
          "name": "subId",
          "type": "uint64"
        },
        {
          "internalType": "address",
          "name": "consumer",
          "type": "address"
        }
      ],
      "name": "InvalidConsumer",
      "type": "error"
    },
    {
      "inputs": [],
      "name": "InvalidPartialSignatureFormat",
      "type": "error"
    },
    {
      "inputs": [],
      "name": "InvalidPartialSignatures",
      "type": "error"
    },
    {
      "inputs": [],
      "name": "InvalidRequestByEOA",
      "type": "error"
    },
    {
      "inputs": [
        {
          "internalType": "uint16",
          "name": "have",
          "type": "uint16"
        },
        {
          "internalType": "uint16",
          "name": "min",
          "type": "uint16"
        },
        {
          "internalType": "uint16",
          "name": "max",
          "type": "uint16"
        }
      ],
      "name": "InvalidRequestConfirmations",
      "type": "error"
    },
    {
      "inputs": [],
      "name": "InvalidSignature",
      "type": "error"
    },
    {
      "inputs": [],
      "name": "InvalidSignatureFormat",
      "type": "error"
    },
    {
      "inputs": [],
      "name": "InvalidSubscription",
      "type": "error"
    },
    {
      "inputs": [
        {
          "internalType": "address",
          "name": "owner",
          "type": "address"
        }
      ],
      "name": "MustBeSubOwner",
      "type": "error"
    },
    {
      "inputs": [],
      "name": "NoAvailableGroups",
      "type": "error"
    },
    {
      "inputs": [],
      "name": "NoCorrespondingRequest",
      "type": "error"
    },
    {
      "inputs": [],
      "name": "NotFromCommitter",
      "type": "error"
    },
    {
      "inputs": [],
      "name": "PaymentTooLarge",
      "type": "error"
    },
    {
      "inputs": [],
      "name": "PendingRequestExists",
      "type": "error"
    },
    {
      "inputs": [],
      "name": "Reentrant",
      "type": "error"
    },
    {
      "inputs": [],
      "name": "ReferralPromotionDisabled",
      "type": "error"
    },
    {
      "inputs": [],
      "name": "SenderNotController",
      "type": "error"
    },
    {
      "inputs": [],
      "name": "SubscriptionAlreadyHasReferral",
      "type": "error"
    },
    {
      "inputs": [],
      "name": "TaskStillExclusive",
      "type": "error"
    },
    {
      "inputs": [],
      "name": "TaskStillWithinRequestConfirmations",
      "type": "error"
    },
    {
      "inputs": [],
      "name": "TooManyConsumers",
      "type": "error"
    },
    {
      "anonymous": false,
      "inputs": [
        {
          "indexed": false,
          "internalType": "uint16",
          "name": "minimumRequestConfirmations",
          "type": "uint16"
        },
        {
          "indexed": false,
          "internalType": "uint32",
          "name": "maxGasLimit",
          "type": "uint32"
        },
        {
          "indexed": false,
          "internalType": "uint32",
          "name": "gasAfterPaymentCalculation",
          "type": "uint32"
        },
        {
          "indexed": false,
          "internalType": "uint32",
          "name": "gasExceptCallback",
          "type": "uint32"
        },
        {
          "indexed": false,
          "internalType": "uint256",
          "name": "signatureTaskExclusiveWindow",
          "type": "uint256"
        },
        {
          "indexed": false,
          "internalType": "uint256",
          "name": "rewardPerSignature",
          "type": "uint256"
        },
        {
          "indexed": false,
          "internalType": "uint256",
          "name": "committerRewardPerSignature",
          "type": "uint256"
        }
      ],
      "name": "AdapterConfigSet",
      "type": "event"
    },
    {
      "anonymous": false,
      "inputs": [
        {
          "indexed": false,
          "internalType": "address",
          "name": "previousAdmin",
          "type": "address"
        },
        {
          "indexed": false,
          "internalType": "address",
          "name": "newAdmin",
          "type": "address"
        }
      ],
      "name": "AdminChanged",
      "type": "event"
    },
    {
      "anonymous": false,
      "inputs": [
        {
          "indexed": true,
          "internalType": "address",
          "name": "beacon",
          "type": "address"
        }
      ],
      "name": "BeaconUpgraded",
      "type": "event"
    },
    {
      "anonymous": false,
      "inputs": [
        {
          "components": [
            {
              "internalType": "uint32",
              "name": "fulfillmentFlatFeeEthPPMTier1",
              "type": "uint32"
            },
            {
              "internalType": "uint32",
              "name": "fulfillmentFlatFeeEthPPMTier2",
              "type": "uint32"
            },
            {
              "internalType": "uint32",
              "name": "fulfillmentFlatFeeEthPPMTier3",
              "type": "uint32"
            },
            {
              "internalType": "uint32",
              "name": "fulfillmentFlatFeeEthPPMTier4",
              "type": "uint32"
            },
            {
              "internalType": "uint32",
              "name": "fulfillmentFlatFeeEthPPMTier5",
              "type": "uint32"
            },
            {
              "internalType": "uint24",
              "name": "reqsForTier2",
              "type": "uint24"
            },
            {
              "internalType": "uint24",
              "name": "reqsForTier3",
              "type": "uint24"
            },
            {
              "internalType": "uint24",
              "name": "reqsForTier4",
              "type": "uint24"
            },
            {
              "internalType": "uint24",
              "name": "reqsForTier5",
              "type": "uint24"
            }
          ],
          "indexed": false,
          "internalType": "struct IAdapterOwner.FeeConfig",
          "name": "flatFeeConfig",
          "type": "tuple"
        },
        {
          "indexed": false,
          "internalType": "uint16",
          "name": "flatFeePromotionGlobalPercentage",
          "type": "uint16"
        },
        {
          "indexed": false,
          "internalType": "bool",
          "name": "isFlatFeePromotionEnabledPermanently",
          "type": "bool"
        },
        {
          "indexed": false,
          "internalType": "uint256",
          "name": "flatFeePromotionStartTimestamp",
          "type": "uint256"
        },
        {
          "indexed": false,
          "internalType": "uint256",
          "name": "flatFeePromotionEndTimestamp",
          "type": "uint256"
        }
      ],
      "name": "FlatFeeConfigSet",
      "type": "event"
    },
    {
      "anonymous": false,
      "inputs": [
        {
          "indexed": false,
          "internalType": "uint8",
          "name": "version",
          "type": "uint8"
        }
      ],
      "name": "Initialized",
      "type": "event"
    },
    {
      "anonymous": false,
      "inputs": [
        {
          "indexed": true,
          "internalType": "address",
          "name": "previousOwner",
          "type": "address"
        },
        {
          "indexed": true,
          "internalType": "address",
          "name": "newOwner",
          "type": "address"
        }
      ],
      "name": "OwnershipTransferred",
      "type": "event"
    },
    {
      "anonymous": false,
      "inputs": [
        {
          "indexed": true,
          "internalType": "bytes32",
          "name": "requestId",
          "type": "bytes32"
        },
        {
          "indexed": true,
          "internalType": "uint64",
          "name": "subId",
          "type": "uint64"
        },
        {
          "indexed": true,
          "internalType": "uint256",
          "name": "groupIndex",
          "type": "uint256"
        },
        {
          "indexed": false,
          "internalType": "enum IRequestTypeBase.RequestType",
          "name": "requestType",
          "type": "uint8"
        },
        {
          "indexed": false,
          "internalType": "bytes",
          "name": "params",
          "type": "bytes"
        },
        {
          "indexed": false,
          "internalType": "address",
          "name": "sender",
          "type": "address"
        },
        {
          "indexed": false,
          "internalType": "uint256",
          "name": "seed",
          "type": "uint256"
        },
        {
          "indexed": false,
          "internalType": "uint16",
          "name": "requestConfirmations",
          "type": "uint16"
        },
        {
          "indexed": false,
          "internalType": "uint256",
          "name": "callbackGasLimit",
          "type": "uint256"
        },
        {
          "indexed": false,
          "internalType": "uint256",
          "name": "callbackMaxGasPrice",
          "type": "uint256"
        },
        {
          "indexed": false,
          "internalType": "uint256",
          "name": "estimatedPayment",
          "type": "uint256"
        }
      ],
      "name": "RandomnessRequest",
      "type": "event"
    },
    {
      "anonymous": false,
      "inputs": [
        {
          "indexed": true,
          "internalType": "bytes32",
          "name": "requestId",
          "type": "bytes32"
        },
        {
          "indexed": true,
          "internalType": "uint256",
          "name": "groupIndex",
          "type": "uint256"
        },
        {
          "indexed": true,
          "internalType": "address",
          "name": "committer",
          "type": "address"
        },
        {
          "indexed": false,
          "internalType": "address[]",
          "name": "participantMembers",
          "type": "address[]"
        },
        {
          "indexed": false,
          "internalType": "uint256",
          "name": "randommness",
          "type": "uint256"
        },
        {
          "indexed": false,
          "internalType": "uint256",
          "name": "payment",
          "type": "uint256"
        },
        {
          "indexed": false,
          "internalType": "bool",
          "name": "success",
          "type": "bool"
        }
      ],
      "name": "RandomnessRequestResult",
      "type": "event"
    },
    {
      "anonymous": false,
      "inputs": [
        {
          "indexed": false,
          "internalType": "bool",
          "name": "isReferralEnabled",
          "type": "bool"
        },
        {
          "indexed": false,
          "internalType": "uint16",
          "name": "freeRequestCountForReferrer",
          "type": "uint16"
        },
        {
          "indexed": false,
          "internalType": "uint16",
          "name": "freeRequestCountForReferee",
          "type": "uint16"
        }
      ],
      "name": "ReferralConfigSet",
      "type": "event"
    },
    {
      "anonymous": false,
      "inputs": [
        {
          "indexed": true,
          "internalType": "uint64",
          "name": "subId",
          "type": "uint64"
        },
        {
          "indexed": false,
          "internalType": "address",
          "name": "to",
          "type": "address"
        },
        {
          "indexed": false,
          "internalType": "uint256",
          "name": "amount",
          "type": "uint256"
        }
      ],
      "name": "SubscriptionCanceled",
      "type": "event"
    },
    {
      "anonymous": false,
      "inputs": [
        {
          "indexed": true,
          "internalType": "uint64",
          "name": "subId",
          "type": "uint64"
        },
        {
          "indexed": false,
          "internalType": "address",
          "name": "consumer",
          "type": "address"
        }
      ],
      "name": "SubscriptionConsumerAdded",
      "type": "event"
    },
    {
      "anonymous": false,
      "inputs": [
        {
          "indexed": true,
          "internalType": "uint64",
          "name": "subId",
          "type": "uint64"
        },
        {
          "indexed": false,
          "internalType": "address",
          "name": "consumer",
          "type": "address"
        }
      ],
      "name": "SubscriptionConsumerRemoved",
      "type": "event"
    },
    {
      "anonymous": false,
      "inputs": [
        {
          "indexed": true,
          "internalType": "uint64",
          "name": "subId",
          "type": "uint64"
        },
        {
          "indexed": true,
          "internalType": "address",
          "name": "owner",
          "type": "address"
        }
      ],
      "name": "SubscriptionCreated",
      "type": "event"
    },
    {
      "anonymous": false,
      "inputs": [
        {
          "indexed": true,
          "internalType": "uint64",
          "name": "subId",
          "type": "uint64"
        },
        {
          "indexed": false,
          "internalType": "uint256",
          "name": "oldBalance",
          "type": "uint256"
        },
        {
          "indexed": false,
          "internalType": "uint256",
          "name": "newBalance",
          "type": "uint256"
        }
      ],
      "name": "SubscriptionFunded",
      "type": "event"
    },
    {
      "anonymous": false,
      "inputs": [
        {
          "indexed": true,
          "internalType": "uint64",
          "name": "subId",
          "type": "uint64"
        },
        {
          "indexed": true,
          "internalType": "uint64",
          "name": "referralSubId",
          "type": "uint64"
        }
      ],
      "name": "SubscriptionReferralSet",
      "type": "event"
    },
    {
      "anonymous": false,
      "inputs": [
        {
          "indexed": true,
          "internalType": "address",
          "name": "implementation",
          "type": "address"
        }
      ],
      "name": "Upgraded",
      "type": "event"
    },
    {
      "inputs": [],
      "name": "DEFAULT_MINIMUM_THRESHOLD",
      "outputs": [
        {
          "internalType": "uint256",
          "name": "",
          "type": "uint256"
        }
      ],
      "stateMutability": "view",
      "type": "function"
    },
    {
      "inputs": [],
      "name": "MAX_CONSUMERS",
      "outputs": [
        {
          "internalType": "uint16",
          "name": "",
          "type": "uint16"
        }
      ],
      "stateMutability": "view",
      "type": "function"
    },
    {
      "inputs": [],
      "name": "MAX_REQUEST_CONFIRMATIONS",
      "outputs": [
        {
          "internalType": "uint16",
          "name": "",
          "type": "uint16"
        }
      ],
      "stateMutability": "view",
      "type": "function"
    },
    {
      "inputs": [],
      "name": "RANDOMNESS_REWARD_GAS",
      "outputs": [
        {
          "internalType": "uint256",
          "name": "",
          "type": "uint256"
        }
      ],
      "stateMutability": "view",
      "type": "function"
    },
    {
      "inputs": [],
      "name": "VERIFICATION_GAS_OVER_MINIMUM_THRESHOLD",
      "outputs": [
        {
          "internalType": "uint256",
          "name": "",
          "type": "uint256"
        }
      ],
      "stateMutability": "view",
      "type": "function"
    },
    {
      "inputs": [
        {
          "internalType": "uint64",
          "name": "subId",
          "type": "uint64"
        },
        {
          "internalType": "address",
          "name": "consumer",
          "type": "address"
        }
      ],
      "name": "addConsumer",
      "outputs": [],
      "stateMutability": "nonpayable",
      "type": "function"
    },
    {
      "inputs": [
        {
          "internalType": "uint64",
          "name": "subId",
          "type": "uint64"
        },
        {
          "internalType": "address",
          "name": "to",
          "type": "address"
        }
      ],
      "name": "cancelSubscription",
      "outputs": [],
      "stateMutability": "nonpayable",
      "type": "function"
    },
    {
      "inputs": [],
      "name": "createSubscription",
      "outputs": [
        {
          "internalType": "uint64",
          "name": "",
          "type": "uint64"
        }
      ],
      "stateMutability": "nonpayable",
      "type": "function"
    },
    {
      "inputs": [
        {
          "internalType": "uint256",
          "name": "callbackGasLimit",
          "type": "uint256"
        },
        {
          "internalType": "uint256",
          "name": "gasExceptCallback",
          "type": "uint256"
        },
        {
          "internalType": "uint32",
          "name": "fulfillmentFlatFeeEthPPM",
          "type": "uint32"
        },
        {
          "internalType": "uint256",
          "name": "weiPerUnitGas",
          "type": "uint256"
        }
      ],
      "name": "estimatePaymentAmountInETH",
      "outputs": [
        {
          "internalType": "uint256",
          "name": "",
          "type": "uint256"
        }
      ],
      "stateMutability": "pure",
      "type": "function"
    },
    {
      "inputs": [
        {
          "internalType": "uint256",
          "name": "groupIndex",
          "type": "uint256"
        },
        {
          "internalType": "bytes32",
          "name": "requestId",
          "type": "bytes32"
        },
        {
          "internalType": "uint256",
          "name": "signature",
          "type": "uint256"
        },
        {
          "components": [
            {
              "internalType": "uint64",
              "name": "subId",
              "type": "uint64"
            },
            {
              "internalType": "uint256",
              "name": "groupIndex",
              "type": "uint256"
            },
            {
              "internalType": "enum IRequestTypeBase.RequestType",
              "name": "requestType",
              "type": "uint8"
            },
            {
              "internalType": "bytes",
              "name": "params",
              "type": "bytes"
            },
            {
              "internalType": "address",
              "name": "callbackContract",
              "type": "address"
            },
            {
              "internalType": "uint256",
              "name": "seed",
              "type": "uint256"
            },
            {
              "internalType": "uint16",
              "name": "requestConfirmations",
              "type": "uint16"
            },
            {
              "internalType": "uint256",
              "name": "callbackGasLimit",
              "type": "uint256"
            },
            {
              "internalType": "uint256",
              "name": "callbackMaxGasPrice",
              "type": "uint256"
            },
            {
              "internalType": "uint256",
              "name": "blockNum",
              "type": "uint256"
            }
          ],
          "internalType": "struct IAdapter.RequestDetail",
          "name": "requestDetail",
          "type": "tuple"
        },
        {
          "components": [
            {
              "internalType": "uint256",
              "name": "index",
              "type": "uint256"
            },
            {
              "internalType": "uint256",
              "name": "partialSignature",
              "type": "uint256"
            }
          ],
          "internalType": "struct IAdapter.PartialSignature[]",
          "name": "partialSignatures",
          "type": "tuple[]"
        }
      ],
      "name": "fulfillRandomness",
      "outputs": [],
      "stateMutability": "nonpayable",
      "type": "function"
    },
    {
      "inputs": [
        {
          "internalType": "uint64",
          "name": "subId",
          "type": "uint64"
        }
      ],
      "name": "fundSubscription",
      "outputs": [],
      "stateMutability": "payable",
      "type": "function"
    },
    {
      "inputs": [
        {
          "internalType": "uint64",
          "name": "reqCount",
          "type": "uint64"
        }
      ],
      "name": "getFeeTier",
      "outputs": [
        {
          "internalType": "uint32",
          "name": "",
          "type": "uint32"
        }
      ],
      "stateMutability": "view",
      "type": "function"
    },
    {
      "inputs": [],
      "name": "getLastRandomness",
      "outputs": [
        {
          "internalType": "uint256",
          "name": "",
          "type": "uint256"
        }
      ],
      "stateMutability": "view",
      "type": "function"
    },
    {
      "inputs": [
        {
          "internalType": "address",
          "name": "consumer",
          "type": "address"
        }
      ],
      "name": "getLastSubscription",
      "outputs": [
        {
          "internalType": "uint64",
          "name": "",
          "type": "uint64"
        }
      ],
      "stateMutability": "view",
      "type": "function"
    },
    {
      "inputs": [
        {
          "internalType": "bytes32",
          "name": "requestId",
          "type": "bytes32"
        }
      ],
      "name": "getPendingRequestCommitment",
      "outputs": [
        {
          "internalType": "bytes32",
          "name": "",
          "type": "bytes32"
        }
      ],
      "stateMutability": "view",
      "type": "function"
    },
    {
      "inputs": [],
      "name": "getRandomnessCount",
      "outputs": [
        {
          "internalType": "uint256",
          "name": "",
          "type": "uint256"
        }
      ],
      "stateMutability": "view",
      "type": "function"
    },
    {
      "inputs": [
        {
          "internalType": "uint64",
          "name": "subId",
          "type": "uint64"
        }
      ],
      "name": "getSubscription",
      "outputs": [
        {
          "internalType": "uint256",
          "name": "balance",
          "type": "uint256"
        },
        {
          "internalType": "uint256",
          "name": "inflightCost",
          "type": "uint256"
        },
        {
          "internalType": "uint64",
          "name": "reqCount",
          "type": "uint64"
        },
        {
          "internalType": "address",
          "name": "owner",
          "type": "address"
        },
        {
          "internalType": "address[]",
          "name": "consumers",
          "type": "address[]"
        }
      ],
      "stateMutability": "view",
      "type": "function"
    },
    {
      "inputs": [
        {
          "internalType": "address",
          "name": "controller",
          "type": "address"
        }
      ],
      "name": "initialize",
      "outputs": [],
      "stateMutability": "nonpayable",
      "type": "function"
    },
    {
      "inputs": [
        {
          "internalType": "address",
          "name": "recipient",
          "type": "address"
        },
        {
          "internalType": "uint256",
          "name": "ethAmount",
          "type": "uint256"
        }
      ],
      "name": "nodeWithdrawETH",
      "outputs": [],
      "stateMutability": "nonpayable",
      "type": "function"
    },
    {
      "inputs": [],
      "name": "owner",
      "outputs": [
        {
          "internalType": "address",
          "name": "",
          "type": "address"
        }
      ],
      "stateMutability": "view",
      "type": "function"
    },
    {
      "inputs": [
        {
          "internalType": "uint64",
          "name": "subId",
          "type": "uint64"
        }
      ],
      "name": "ownerCancelSubscription",
      "outputs": [],
      "stateMutability": "nonpayable",
      "type": "function"
    },
    {
      "inputs": [],
      "name": "proxiableUUID",
      "outputs": [
        {
          "internalType": "bytes32",
          "name": "",
          "type": "bytes32"
        }
      ],
      "stateMutability": "view",
      "type": "function"
    },
    {
      "inputs": [
        {
          "internalType": "uint64",
          "name": "subId",
          "type": "uint64"
        },
        {
          "internalType": "address",
          "name": "consumer",
          "type": "address"
        }
      ],
      "name": "removeConsumer",
      "outputs": [],
      "stateMutability": "nonpayable",
      "type": "function"
    },
    {
      "inputs": [],
      "name": "renounceOwnership",
      "outputs": [],
      "stateMutability": "nonpayable",
      "type": "function"
    },
    {
      "inputs": [
        {
          "components": [
            {
              "internalType": "enum IRequestTypeBase.RequestType",
              "name": "requestType",
              "type": "uint8"
            },
            {
              "internalType": "bytes",
              "name": "params",
              "type": "bytes"
            },
            {
              "internalType": "uint64",
              "name": "subId",
              "type": "uint64"
            },
            {
              "internalType": "uint256",
              "name": "seed",
              "type": "uint256"
            },
            {
              "internalType": "uint16",
              "name": "requestConfirmations",
              "type": "uint16"
            },
            {
              "internalType": "uint256",
              "name": "callbackGasLimit",
              "type": "uint256"
            },
            {
              "internalType": "uint256",
              "name": "callbackMaxGasPrice",
              "type": "uint256"
            }
          ],
          "internalType": "struct IAdapter.RandomnessRequestParams",
          "name": "params",
          "type": "tuple"
        }
      ],
      "name": "requestRandomness",
      "outputs": [
        {
          "internalType": "bytes32",
          "name": "",
          "type": "bytes32"
        }
      ],
      "stateMutability": "nonpayable",
      "type": "function"
    },
    {
      "inputs": [
        {
          "internalType": "uint16",
          "name": "minimumRequestConfirmations",
          "type": "uint16"
        },
        {
          "internalType": "uint32",
          "name": "maxGasLimit",
          "type": "uint32"
        },
        {
          "internalType": "uint32",
          "name": "gasAfterPaymentCalculation",
          "type": "uint32"
        },
        {
          "internalType": "uint32",
          "name": "gasExceptCallback",
          "type": "uint32"
        },
        {
          "internalType": "uint256",
          "name": "signatureTaskExclusiveWindow",
          "type": "uint256"
        },
        {
          "internalType": "uint256",
          "name": "rewardPerSignature",
          "type": "uint256"
        },
        {
          "internalType": "uint256",
          "name": "committerRewardPerSignature",
          "type": "uint256"
        }
      ],
      "name": "setAdapterConfig",
      "outputs": [],
      "stateMutability": "nonpayable",
      "type": "function"
    },
    {
      "inputs": [
        {
          "components": [
            {
              "internalType": "uint32",
              "name": "fulfillmentFlatFeeEthPPMTier1",
              "type": "uint32"
            },
            {
              "internalType": "uint32",
              "name": "fulfillmentFlatFeeEthPPMTier2",
              "type": "uint32"
            },
            {
              "internalType": "uint32",
              "name": "fulfillmentFlatFeeEthPPMTier3",
              "type": "uint32"
            },
            {
              "internalType": "uint32",
              "name": "fulfillmentFlatFeeEthPPMTier4",
              "type": "uint32"
            },
            {
              "internalType": "uint32",
              "name": "fulfillmentFlatFeeEthPPMTier5",
              "type": "uint32"
            },
            {
              "internalType": "uint24",
              "name": "reqsForTier2",
              "type": "uint24"
            },
            {
              "internalType": "uint24",
              "name": "reqsForTier3",
              "type": "uint24"
            },
            {
              "internalType": "uint24",
              "name": "reqsForTier4",
              "type": "uint24"
            },
            {
              "internalType": "uint24",
              "name": "reqsForTier5",
              "type": "uint24"
            }
          ],
          "internalType": "struct IAdapterOwner.FeeConfig",
          "name": "flatFeeConfig",
          "type": "tuple"
        },
        {
          "internalType": "uint16",
          "name": "flatFeePromotionGlobalPercentage",
          "type": "uint16"
        },
        {
          "internalType": "bool",
          "name": "isFlatFeePromotionEnabledPermanently",
          "type": "bool"
        },
        {
          "internalType": "uint256",
          "name": "flatFeePromotionStartTimestamp",
          "type": "uint256"
        },
        {
          "internalType": "uint256",
          "name": "flatFeePromotionEndTimestamp",
          "type": "uint256"
        }
      ],
      "name": "setFlatFeeConfig",
      "outputs": [],
      "stateMutability": "nonpayable",
      "type": "function"
    },
    {
      "inputs": [
        {
          "internalType": "uint64[]",
          "name": "subIds",
          "type": "uint64[]"
        },
        {
          "internalType": "uint64[]",
          "name": "freeRequestCounts",
          "type": "uint64[]"
        }
      ],
      "name": "setFreeRequestCount",
      "outputs": [],
      "stateMutability": "nonpayable",
      "type": "function"
    },
    {
      "inputs": [
        {
          "internalType": "uint64",
          "name": "subId",
          "type": "uint64"
        },
        {
          "internalType": "uint64",
          "name": "referralSubId",
          "type": "uint64"
        }
      ],
      "name": "setReferral",
      "outputs": [],
      "stateMutability": "nonpayable",
      "type": "function"
    },
    {
      "inputs": [
        {
          "internalType": "bool",
          "name": "isReferralEnabled",
          "type": "bool"
        },
        {
          "internalType": "uint16",
          "name": "freeRequestCountForReferrer",
          "type": "uint16"
        },
        {
          "internalType": "uint16",
          "name": "freeRequestCountForReferee",
          "type": "uint16"
        }
      ],
      "name": "setReferralConfig",
      "outputs": [],
      "stateMutability": "nonpayable",
      "type": "function"
    },
    {
      "inputs": [
        {
          "internalType": "address",
          "name": "newOwner",
          "type": "address"
        }
      ],
      "name": "transferOwnership",
      "outputs": [],
      "stateMutability": "nonpayable",
      "type": "function"
    },
    {
      "inputs": [
        {
          "internalType": "address",
          "name": "newImplementation",
          "type": "address"
        }
      ],
      "name": "upgradeTo",
      "outputs": [],
      "stateMutability": "nonpayable",
      "type": "function"
    },
    {
      "inputs": [
        {
          "internalType": "address",
          "name": "newImplementation",
          "type": "address"
        },
        {
          "internalType": "bytes",
          "name": "data",
          "type": "bytes"
        }
      ],
      "name": "upgradeToAndCall",
      "outputs": [],
      "stateMutability": "payable",
      "type": "function"
    }
  ],
  "bytecode": {
    "object": "0x60a06040523060805234801561001457600080fd5b5060805161543861004c6000396000818161082001528181610860015281816108fc0152818161093c01526109cf01526154386000f3fe6080604052600436106101ee5760003560e01c8063877d38bb1161010d578063aa81d59a116100a0578063dfaba7941161006f578063dfaba79414610597578063f2fde38b146105aa578063f362ca61146105ca578063f4cc97fc146105ea578063fb0882fc1461060a57600080fd5b8063aa81d59a1461050d578063c4d66de814610522578063d2f9f9a714610542578063d7ae1d301461057757600080fd5b8063a21a23e4116100dc578063a21a23e414610492578063a47c7696146104a7578063a4c343f2146104d8578063a5d89a3b146104ed57600080fd5b8063877d38bb146104145780638da5cb5b1461042a578063931d9204146104525780639f87fad71461047257600080fd5b806363602174116101855780637341c10c116101545780637341c10c1461036457806376a911bc1461038457806380a13ee9146103de5780638166d459146103fe57600080fd5b8063636021741461030557806364d51a2a1461031a578063715018a61461032f57806371b7ca051461034457600080fd5b806315c48b84116101c157806315c48b84146102955780633659cfe6146102bd5780634f1ef286146102dd57806352d1902d146102f057600080fd5b806302bcc5b6146101f3578063056e5ede146102155780630ad98f6a146102355780631565034c14610255575b600080fd5b3480156101ff57600080fd5b5061021361020e366004613e1f565b61062a565b005b34801561022157600080fd5b50610213610230366004613fc7565b6106a1565b34801561024157600080fd5b5061021361025036600461404a565b61074c565b34801561026157600080fd5b50610282610270366004614076565b600090815260d1602052604090205490565b6040519081526020015b60405180910390f35b3480156102a157600080fd5b506102aa60c881565b60405161ffff909116815260200161028c565b3480156102c957600080fd5b506102136102d836600461408f565b610816565b6102136102eb36600461411b565b6108f2565b3480156102fc57600080fd5b506102826109c2565b34801561031157600080fd5b5060cc54610282565b34801561032657600080fd5b506102aa606481565b34801561033b57600080fd5b50610213610a75565b34801561035057600080fd5b5061021361035f36600461418f565b610a89565b34801561037057600080fd5b5061021361037f366004614204565b610bd5565b34801561039057600080fd5b506103c661039f36600461408f565b6001600160a01b0316600090815260d260205260409020600101546001600160401b031690565b6040516001600160401b03909116815260200161028c565b3480156103ea57600080fd5b506102136103f936600461423b565b610d99565b34801561040a57600080fd5b5061028261232881565b34801561042057600080fd5b5061028261c35081565b34801561043657600080fd5b506097546040516001600160a01b03909116815260200161028c565b34801561045e57600080fd5b5061021361046d3660046142f9565b611199565b34801561047e57600080fd5b5061021361048d366004614204565b611428565b34801561049e57600080fd5b506103c661175e565b3480156104b357600080fd5b506104c76104c2366004613e1f565b611857565b60405161028c959493929190614370565b3480156104e457600080fd5b5060cb54610282565b3480156104f957600080fd5b506102826105083660046143ac565b611952565b34801561051957600080fd5b50610282600381565b34801561052e57600080fd5b5061021361053d36600461408f565b611996565b34801561054e57600080fd5b5061056261055d366004613e1f565b611ac2565b60405163ffffffff909116815260200161028c565b34801561058357600080fd5b50610213610592366004614204565b611c3f565b6102136105a5366004613e1f565b611d24565b3480156105b657600080fd5b506102136105c536600461408f565b611e10565b3480156105d657600080fd5b506102136105e5366004614404565b611e86565b3480156105f657600080fd5b5061021361060536600461445c565b611f20565b34801561061657600080fd5b5061028261062536600461455e565b61215a565b610632612486565b6001600160401b038116600090815260d360205260409020546001600160a01b031661067157604051630fb532db60e11b815260040160405180910390fd5b6001600160401b038116600090815260d3602052604090205461069e9082906001600160a01b03166124e0565b50565b6106a9612486565b60005b8251811015610747578181815181106106c7576106c7614598565b602002602001015160d360008584815181106106e5576106e5614598565b60200260200101516001600160401b03166001600160401b0316815260200190815260200160002060060160086101000a8154816001600160401b0302191690836001600160401b03160217905550808061073f906145c4565b9150506106ac565b505050565b60c9546001600160a01b0316331461077757604051630f5caa3360e41b815260040160405180910390fd5b6000826001600160a01b03168260405160006040518083038185875af1925050503d80600081146107c4576040519150601f19603f3d011682016040523d82523d6000602084013e6107c9565b606091505b50509050806107475760405162461bcd60e51b81526020600482015260146024820152732330b4b632b2103a379039b2b7321022ba3432b960611b60448201526064015b60405180910390fd5b6001600160a01b037f000000000000000000000000000000000000000000000000000000000000000016300361085e5760405162461bcd60e51b815260040161080d906145dd565b7f00000000000000000000000000000000000000000000000000000000000000006001600160a01b03166108a76000805160206153bc833981519152546001600160a01b031690565b6001600160a01b0316146108cd5760405162461bcd60e51b815260040161080d90614629565b6108d681612650565b6040805160008082526020820190925261069e91839190612658565b6001600160a01b037f000000000000000000000000000000000000000000000000000000000000000016300361093a5760405162461bcd60e51b815260040161080d906145dd565b7f00000000000000000000000000000000000000000000000000000000000000006001600160a01b03166109836000805160206153bc833981519152546001600160a01b031690565b6001600160a01b0316146109a95760405162461bcd60e51b815260040161080d90614629565b6109b282612650565b6109be82826001612658565b5050565b6000306001600160a01b037f00000000000000000000000000000000000000000000000000000000000000001614610a625760405162461bcd60e51b815260206004820152603860248201527f555550535570677261646561626c653a206d757374206e6f742062652063616c60448201527f6c6564207468726f7567682064656c656761746563616c6c0000000000000000606482015260840161080d565b506000805160206153bc83398151915290565b610a7d612486565b610a8760006127c3565b565b610a91612486565b60c861ffff88161115610acb5760405163539c34bb60e11b815261ffff881660048201819052602482015260c8604482015260640161080d565b604080516101008101825261ffff891680825263ffffffff89811660208085018290526000858701528a83166060808701829052938b16608080880182905260a08089018d905260c0808a018d905260e0998a018c905260cd805465ffffffffffff19168a17620100008902176effffffffffffffffff0000000000001916600160381b870263ffffffff60581b191617600160581b860217905560ce8e905560cf8d905560d08c90558a519889529488019590955297860191909152928401929092529382018790529281018590529182018390527fefeb3292465cf72a302efdd83695ad560a2828353a1e018844e9abd19a642037910160405180910390a150505050505050565b6001600160401b038216600090815260d3602052604090205482906001600160a01b031680610c1757604051630fb532db60e11b815260040160405180910390fd5b336001600160a01b03821614610c4b57604051636c51fda960e11b81526001600160a01b038216600482015260240161080d565b60cd54600160301b900460ff1615610c765760405163769dd35360e11b815260040160405180910390fd5b6001600160401b038416600090815260d3602052604090206002015460631901610cb3576040516305a48e0f60e01b815260040160405180910390fd5b6001600160a01b038316600090815260d2602090815260408083206001600160401b0380891685529252822054169003610d93576001600160a01b038316600081815260d2602090815260408083206001600160401b0389168085528184528285208054600167ffffffffffffffff1991821681179092559281018054909316821790925560d38452828520600201805492830181558552938390200180546001600160a01b031916851790555192835290917f43dc749a04ac8fb825cbd514f7c0e13f13bc6f2ee66043b76629d51776cff8e091015b60405180910390a25b50505050565b60cd54600160301b900460ff1615610dc45760405163769dd35360e11b815260040160405180910390fd5b60005a600087815260d16020526040812054919250819003610df957604051631b44092560e11b815260040160405180910390fd5b86610e076020870187613e1f565b6020870135610e1c6060890160408a01614684565b610e2960608a018a61469f565b610e3960a08c0160808d0161408f565b60a08c0135610e4e60e08e0160c08f016146ec565b8d60e001358e61010001358f6101200135604051602001610e7a9c9b9a9998979695949392919061473f565b604051602081830303815290604052805190602001208114610eaf5760405163354a450b60e21b815260040160405180910390fd5b610ebf60e0860160c087016146ec565b610ed29061ffff166101208701356147de565b431015610ef25760405163619a4abd60e01b815260040160405180910390fd5b84602001358814158015610f17575060ce54610f13906101208701356147de565b4311155b15610f35576040516378373bbd60e11b815260040160405180910390fd5b60c960009054906101000a90046001600160a01b03166001600160a01b03166306545a936040518163ffffffff1660e01b8152600401602060405180830381865afa158015610f88573d6000803e3d6000fd5b505050506040513d601f19601f82011682018060405250810190610fac91906147f1565b8810610fce57604051637f6efcb560e11b81526004810189905260240161080d565b6000611038898760a001358861012001358a8989808060200260200160405190810160405280939291908181526020016000905b8282101561102e5761101f6040830286013681900381019061480a565b81526020019060010190611002565b5050505050612815565b600089815260d16020908152604080832083905580518083018c9052815180820384018152908201909152805191012060cc80549394509092600192906110809084906147de565b909155505060cb81905560c9546040516379ef840160e11b8152600481018390526001600160a01b039091169063f3df080290602401600060405180830381600087803b1580156110d057600080fd5b505af11580156110e4573d6000803e3d6000fd5b5050505060006110fe8a838a6110f99061483c565b612f00565b9050600061113660d38261111560208d018d613e1f565b6001600160401b0316815260208101919091526040016000208c8989613195565b905061114284826133f1565b336001600160a01b03168c8c7f3906e08a201a4e2adcb0eb0dd26aff575c3b843a406b07919612f6acc070350f8787868860405161118394939291906148fb565b60405180910390a4505050505050505050505050565b6001600160401b038216600090815260d3602052604090205482906001600160a01b0316806111db57604051630fb532db60e11b815260040160405180910390fd5b336001600160a01b0382161461120f57604051636c51fda960e11b81526001600160a01b038216600482015260240161080d565b60cd54600160301b900460ff161561123a5760405163769dd35360e11b815260040160405180910390fd5b60d55460ff1661125d57604051636dac270160e01b815260040160405180910390fd5b6001600160401b03808516600090815260d36020526040902060060154600160801b900416156112a05760405163cae26ee160e01b815260040160405180910390fd5b6001600160401b03808516600090815260d360205260409020600601541615806112e557506001600160401b03808416600090815260d3602052604090206006015416155b156113035760405163a760a23760e01b815260040160405180910390fd5b60d5546001600160401b03848116600090815260d360205260409020600601805461010090930461ffff16929091600891611347918591600160401b90041661492c565b82546101009290920a6001600160401b0381810219909316918316021790915560d554868216600090815260d3602052604090206006018054630100000090920461ffff169350916008916113a5918591600160401b90041661492c565b82546101009290920a6001600160401b03818102199093169183160217909155858116600081815260d36020526040808220600601805467ffffffffffffffff60801b1916600160801b958a169586021790555192935090917fb661d46b53034f62a6c7d50df2a5e055fab98889aaf62f8c618e457edd96c6889190a350505050565b6001600160401b038216600090815260d3602052604090205482906001600160a01b03168061146a57604051630fb532db60e11b815260040160405180910390fd5b336001600160a01b0382161461149e57604051636c51fda960e11b81526001600160a01b038216600482015260240161080d565b60cd54600160301b900460ff16156114c95760405163769dd35360e11b815260040160405180910390fd5b6001600160401b038416600090815260d360205260409020600401541561150357604051631685ecdd60e31b815260040160405180910390fd5b6001600160401b038416600090815260d3602090815260408083206002018054825181850281018501909352808352919290919083018282801561157057602002820191906000526020600020905b81546001600160a01b03168152600190910190602001808311611552575b5050505050905080516000036115b357604051637800cff360e11b81526001600160401b03861660048201526001600160a01b038516602482015260440161080d565b60005b815181101561172a57846001600160a01b03168282815181106115db576115db614598565b60200260200101516001600160a01b0316036117185781600183516116009190614953565b8151811061161057611610614598565b602002602001015160d36000886001600160401b03166001600160401b03168152602001908152602001600020600201828154811061165157611651614598565b600091825260208083209190910180546001600160a01b0319166001600160a01b0394909416939093179092556001600160401b038816815260d3909152604090206002018054806116a5576116a5614966565b6000828152602090819020600019908301810180546001600160a01b03191690559091019091556040516001600160a01b03871681526001600160401b038816917f182bff9831466789164ca77075fffd84916d35a8180ba73c27e45634549b445b910160405180910390a25050610d93565b80611722816145c4565b9150506115b6565b50604051637800cff360e11b81526001600160401b03861660048201526001600160a01b038516602482015260440161080d565b60cd54600090600160301b900460ff161561178c5760405163769dd35360e11b815260040160405180910390fd5b60d480546001600160401b03169060006117a58361497c565b82546001600160401b039182166101009390930a92830292820219169190911790915560d480548216600090815260d3602052604080822080546001600160a01b0319163390811790915583548516835281832060060180546fffffffffffffffff00000000000000001916600160401b17905592549051929450909216917f464722b4166576d3dcbba877b999bc35cf911f4eaf434b7eba68fa113951d0bf91a35060d4546001600160401b031690565b6001600160401b038116600090815260d360205260408120548190819081906060906001600160a01b031661189f57604051630fb532db60e11b815260040160405180910390fd5b6001600160401b03808716600090815260d360209081526040918290206003810154600482015460068301548354600290940180548751818802810188019098528088529397929691909216946001600160a01b03909416939192909183919083018282801561193857602002820191906000526020600020905b81546001600160a01b0316815260019091019060200180831161191a575b505050505090509450945094509450945091939590929450565b60008061195f86866147de565b61196990846149a2565b905061198063ffffffff851664e8d4a510006149a2565b61198a90826147de565b9150505b949350505050565b600054610100900460ff16158080156119b65750600054600160ff909116105b806119d05750303b1580156119d0575060005460ff166001145b611a335760405162461bcd60e51b815260206004820152602e60248201527f496e697469616c697a61626c653a20636f6e747261637420697320616c72656160448201526d191e481a5b9a5d1a585b1a5e995960921b606482015260840161080d565b6000805460ff191660011790558015611a56576000805461ff0019166101001790555b60c980546001600160a01b0319166001600160a01b038416179055611a7961350b565b80156109be576000805461ff0019169055604051600181527f7f26b83ff96e1f2b6a682f133852f6798a09c465da95921460cefb38474024989060200160405180910390a15050565b604080516101208101825260d65463ffffffff8082168352640100000000820481166020840152600160401b8204811693830193909352600160601b810483166060830152600160801b8104909216608082015262ffffff600160a01b8304811660a08301819052600160b81b8404821660c0840152600160d01b8404821660e0840152600160e81b909304166101008201526000916001600160401b03841611611b6e575192915050565b826001600160401b03168160a0015162ffffff16108015611ba157508060c0015162ffffff16836001600160401b031611155b15611bb0576020015192915050565b826001600160401b03168160c0015162ffffff16108015611be357508060e0015162ffffff16836001600160401b031611155b15611bf2576040015192915050565b826001600160401b03168160e0015162ffffff16108015611c26575080610100015162ffffff16836001600160401b031611155b15611c35576060015192915050565b6080015192915050565b6001600160401b038216600090815260d3602052604090205482906001600160a01b031680611c8157604051630fb532db60e11b815260040160405180910390fd5b336001600160a01b03821614611cb557604051636c51fda960e11b81526001600160a01b038216600482015260240161080d565b60cd54600160301b900460ff1615611ce05760405163769dd35360e11b815260040160405180910390fd5b6001600160401b038416600090815260d3602052604090206004015415611d1a57604051631685ecdd60e31b815260040160405180910390fd5b610d9384846124e0565b60cd54600160301b900460ff1615611d4f5760405163769dd35360e11b815260040160405180910390fd5b6001600160401b038116600090815260d360205260409020546001600160a01b0316611d8e57604051630fb532db60e11b815260040160405180910390fd5b6001600160401b038116600090815260d360205260408120600301805491349190611db983856147de565b90915550506001600160401b0382167fd39ec07f4e209f627a4c427971473820dc129761ba28de8906bd56f57101d4f882611df434826147de565b6040805192835260208301919091520160405180910390a25050565b611e18612486565b6001600160a01b038116611e7d5760405162461bcd60e51b815260206004820152602660248201527f4f776e61626c653a206e6577206f776e657220697320746865207a65726f206160448201526564647265737360d01b606482015260840161080d565b61069e816127c3565b611e8e612486565b604080516060808201835285151580835261ffff868116602080860182905291871694860185905260d5805462ffffff191662ffff001985161761010083021764ffff000000191663010000008702179055855192835290820152928301919091527faf8d657c268b3f943977d5288bfb2306420bcb17b7ef17397cffa5d2f4891643910160405180910390a1505050565b611f28612486565b6040518060a001604052808681526020018561ffff16815260200184151581526020018381526020018281525060d660008201518160000160008201518160000160006101000a81548163ffffffff021916908363ffffffff16021790555060208201518160000160046101000a81548163ffffffff021916908363ffffffff16021790555060408201518160000160086101000a81548163ffffffff021916908363ffffffff160217905550606082015181600001600c6101000a81548163ffffffff021916908363ffffffff16021790555060808201518160000160106101000a81548163ffffffff021916908363ffffffff16021790555060a08201518160000160146101000a81548162ffffff021916908362ffffff16021790555060c08201518160000160176101000a81548162ffffff021916908362ffffff16021790555060e082015181600001601a6101000a81548162ffffff021916908362ffffff16021790555061010082015181600001601d6101000a81548162ffffff021916908362ffffff160217905550505060208201518160010160006101000a81548161ffff021916908361ffff16021790555060408201518160010160026101000a81548160ff02191690831515021790555060608201518160020155608082015181600301559050507f1851d8853c0ab5ed26d95d456344506f759953621e7c115677f2244696b8ba97858585858560405161214b9594939291906149b9565b60405180910390a15050505050565b60cd54600090600160301b900460ff16156121885760405163769dd35360e11b815260040160405180910390fd5b600061219383614a7b565b90503233036121b557604051638a3150e760e01b815260040160405180910390fd5b6040808201516001600160401b0316600090815260d36020522080546001600160a01b03166121f757604051630fb532db60e11b815260040160405180910390fd5b33600090815260d260209081526040808320858201516001600160401b0390811685529252822054169003612256576040808301519051637800cff360e11b81526001600160401b03909116600482015233602482015260440161080d565b61225e61353a565b60ca5560608281015133600081815260d260208181526040808420818a0180516001600160401b0390811687528285528387205484518087019a909a528985018990528116898b01528351808a03909a018a52608090980183528851988401989098209585529282529551851683525292832080549193600193919290916122e89185911661492c565b92506101000a8154816001600160401b0302191690836001600160401b0316021790555060006123178261369d565b60c95460ca5460405163f49e0ba960e01b81529293506000926001600160a01b039092169163f49e0ba9916123529160040190815260200190565b6040805180830381865afa15801561236e573d6000803e3d6000fd5b505050506040513d601f19601f820116820180604052508101906123929190614b14565b91505060006123ac8584848960a001518a60c001516136cf565b60408088015160ca5489516020808c015160808d015160a08e015160c08f015197519899506123e9988c98939433948f9493929091439101614b88565b60408051601f198184030181528282528051602091820120600087815260d183528390205560ca54918901518951918a015160808b015160a08c015160c08d015195966001600160401b03909416958a957faaad58c38ef807572cd4eaaade608b276b45d120d264c7818b6b9ddbcf7f39d095612470959194919333938f93928d90614c0a565b60405180910390a450909450505050505b919050565b6097546001600160a01b03163314610a875760405162461bcd60e51b815260206004820181905260248201527f4f776e61626c653a2063616c6c6572206973206e6f7420746865206f776e6572604482015260640161080d565b60cd54600160301b900460ff161561250b5760405163769dd35360e11b815260040160405180910390fd5b6001600160401b038216600090815260d360205260408120600381015481546001600160a01b031990811683556001830180549091169055916125516002830182613d95565b50600060038201819055600482018190556006820181905560079091018190556040516001600160a01b0384169083908381818185875af1925050503d80600081146125b9576040519150601f19603f3d011682016040523d82523d6000602084013e6125be565b606091505b50509050806126065760405162461bcd60e51b81526020600482015260146024820152732330b4b632b2103a379039b2b7321022ba3432b960611b604482015260640161080d565b604080516001600160a01b0385168152602081018490526001600160401b038616917fe8ed5b475a5b5987aa9165e8731bb78043f39eee32ec5a1169a89e27fcd498159101610d8a565b61069e612486565b7f4910fdfa16fed3260ed0e7147f7cc6da11a60208b5b9406d12a635614ffd91435460ff161561268b5761074783613854565b826001600160a01b03166352d1902d6040518163ffffffff1660e01b8152600401602060405180830381865afa9250505080156126e5575060408051601f3d908101601f191682019092526126e2918101906147f1565b60015b6127485760405162461bcd60e51b815260206004820152602e60248201527f45524331393637557067726164653a206e657720696d706c656d656e7461746960448201526d6f6e206973206e6f74205555505360901b606482015260840161080d565b6000805160206153bc83398151915281146127b75760405162461bcd60e51b815260206004820152602960248201527f45524331393637557067726164653a20756e737570706f727465642070726f786044820152681a58589b195555525160ba1b606482015260840161080d565b506107478383836138f0565b609780546001600160a01b038381166001600160a01b0319831681179093556040519116919082907f8be0079c531659141344cd1fd0a4f28419497f9722a3daafe3b4186f6b6457e090600090a35050565b60405162f577a560e81b81526004810183905260609073__$34d23ddaee48904c6c566425acbfa0fc0e$__9063f577a50090602401602060405180830381865af4158015612867573d6000803e3d6000fd5b505050506040513d601f19601f8201168201806040525081019061288b9190614c76565b6128a857604051638529df1f60e01b815260040160405180910390fd5b81516000036128ca57604051638bdcc37560e01b815260040160405180910390fd5b60c9546040516333ad819560e21b8152600481018890526000916001600160a01b03169063ceb6065490602401600060405180830381865afa158015612914573d6000803e3d6000fd5b505050506040513d6000823e601f3d908101601f1916820160405261293c9190810190614f23565b905061294c8160a0015133613915565b6129695760405163d9ce719d60e01b815260040160405180910390fd5b60408051602081018890528082018790528151808203830181526060820192839052633033cc5160e01b90925260009073__$34d23ddaee48904c6c566425acbfa0fc0e$__90633033cc51906129c3908590606401615028565b6040805180830381865af41580156129df573d6000803e3d6000fd5b505050506040513d601f19601f82011682018060405250810190612a03919061503b565b905073__$34d23ddaee48904c6c566425acbfa0fc0e$__63ebbdac9173__$34d23ddaee48904c6c566425acbfa0fc0e$__6313bc64ee896040518263ffffffff1660e01b8152600401612a5891815260200190565b6040805180830381865af4158015612a74573d6000803e3d6000fd5b505050506040513d601f19601f82011682018060405250810190612a98919061503b565b856101000151846040518463ffffffff1660e01b8152600401612abd939291906150e1565b602060405180830381865af4158015612ada573d6000803e3d6000fd5b505050506040513d601f19601f82011682018060405250810190612afe9190614c76565b612b1b57604051638baa579f60e01b815260040160405180910390fd5b600085516001600160401b03811115612b3657612b36613e3a565b604051908082528060200260200182016040528015612b6f57816020015b612b5c613db3565b815260200190600190039081612b545790505b509050600086516001600160401b03811115612b8d57612b8d613e3a565b604051908082528060200260200182016040528015612bc657816020015b612bb3613dd1565b815260200190600190039081612bab5790505b50905086516001600160401b03811115612be257612be2613e3a565b604051908082528060200260200182016040528015612c0b578160200160208202803683370190505b50955060005b8751811015612e585773__$34d23ddaee48904c6c566425acbfa0fc0e$__63f577a500898381518110612c4657612c46614598565b6020026020010151602001516040518263ffffffff1660e01b8152600401612c7091815260200190565b602060405180830381865af4158015612c8d573d6000803e3d6000fd5b505050506040513d601f19601f82011682018060405250810190612cb19190614c76565b612cce57604051636b849b7d60e11b815260040160405180910390fd5b73__$34d23ddaee48904c6c566425acbfa0fc0e$__6313bc64ee898381518110612cfa57612cfa614598565b6020026020010151602001516040518263ffffffff1660e01b8152600401612d2491815260200190565b6040805180830381865af4158015612d40573d6000803e3d6000fd5b505050506040513d601f19601f82011682018060405250810190612d64919061503b565b838281518110612d7657612d76614598565b60200260200101819052508560800151888281518110612d9857612d98614598565b60200260200101516000015181518110612db457612db4614598565b602002602001015160200151828281518110612dd257612dd2614598565b60200260200101819052508560800151888281518110612df457612df4614598565b60200260200101516000015181518110612e1057612e10614598565b602002602001015160000151878281518110612e2e57612e2e614598565b6001600160a01b039092166020928302919091019091015280612e50816145c4565b915050612c11565b50604051630d6870d760e21b815273__$34d23ddaee48904c6c566425acbfa0fc0e$__906335a1c35c90612e949085908590889060040161510a565b602060405180830381865af4158015612eb1573d6000803e3d6000fd5b505050506040513d601f19601f82011682018060405250810190612ed59190614c76565b612ef257604051639c2d1c6d60e01b815260040160405180910390fd5b505050505095945050505050565b60008060608184604001516002811115612f1c57612f1c614707565b03612f665750604080516024810187905260448082018790528251808303909101815260649091019091526020810180516001600160e01b03166394985ddd60e01b179052613150565b600184604001516002811115612f7e57612f7e614707565b036130b15760008460600151806020019051810190612f9d91906151a0565b905060008163ffffffff166001600160401b03811115612fbf57612fbf613e3a565b604051908082528060200260200182016040528015612fe8578160200160208202803683370190505b50905060005b8263ffffffff168110156130585760408051602081018a90529081018290526060016040516020818303038152906040528051906020012060001c82828151811061303b5761303b614598565b602090810291909101015280613050816145c4565b915050612fee565b506040516375bf929b60e01b90613075908a9084906024016151bd565b60408051601f198184030181529190526020810180516001600160e01b03166001600160e01b0319909316929092179091529250613150915050565b6002846040015160028111156130c9576130c9614707565b0361315057600084606001518060200190518101906130e891906151a0565b905060006130fc8263ffffffff168861397c565b9050639e5836f660e01b88826040516024016131199291906151bd565b60408051601f198184030181529190526020810180516001600160e01b03166001600160e01b031990931692909217909152925050505b60cd805466ff0000000000001916600160301b17905560e0840151608085015161317b919083613ad7565b60cd805466ff000000000000191690559695505050505050565b60068401805460009160019183906131b79084906001600160401b031661492c565b92506101000a8154816001600160401b0302191690836001600160401b03160217905550600060d660010160029054906101000a900460ff1615613209575060068501546001600160401b0316613292565b60d854421080159061321d575060d9544211155b156132925760d85460078701541061327b5760018660060160188282829054906101000a90046001600160401b0316613256919061492c565b92506101000a8154816001600160401b0302191690836001600160401b031602179055505b506006850154600160c01b90046001600160401b03165b4260078701556006860154600160401b90046001600160401b0316158015906133015760018760060160088282829054906101000a90046001600160401b03166132dc91906151fe565b92506101000a8154816001600160401b0302191690836001600160401b031602179055505b600061336785613313886123286149a2565b60cd5461332d9190600160381b900463ffffffff166147de565b8461335e5760d75460649061ffff1661334588611ac2565b61334f919061521e565b613359919061525c565b613361565b60005b3a613b23565b9050808860030154101561338e5760405163964d765f60e01b815260040160405180910390fd5b600087815260058901602052604081205460048a018054919290916133b4908490614953565b9091555050600087815260058901602052604081208190556003890180548392906133e0908490614953565b909155509098975050505050505050565b60408051600180825281830190925260009160208083019080368337019050509050338160008151811061342757613427614598565b6001600160a01b03928316602091820292909201015260c95460d05460405163914eb34d60e01b8152919092169163914eb34d9161346c91859187919060040161527f565b600060405180830381600087803b15801561348657600080fd5b505af115801561349a573d6000803e3d6000fd5b505060c95460cf5460405163914eb34d60e01b81526001600160a01b03909216935063914eb34d92506134d491879160009160040161527f565b600060405180830381600087803b1580156134ee57600080fd5b505af1158015613502573d6000803e3d6000fd5b50505050505050565b600054610100900460ff166135325760405162461bcd60e51b815260040161080d906152a4565b610a87613baa565b60008060c960009054906101000a90046001600160a01b03166001600160a01b031663b330a0fd6040518163ffffffff1660e01b8152600401600060405180830381865afa158015613590573d6000803e3d6000fd5b505050506040513d6000823e601f3d908101601f191682016040526135b891908101906152ef565b905080516000036135dc57604051636905ab6760e01b815260040160405180910390fd5b60c954604080516306545a9360e01b815290516000926001600160a01b0316916306545a939160048083019260209291908290030181865afa158015613626573d6000803e3d6000fd5b505050506040513d601f19601f8201168201806040525081019061364a91906147f1565b905060008160ca54600161365e91906147de565b6136689190615374565b90505b6136758382613bda565b61369657816136858260016147de565b61368f9190615374565b905061366b565b9392505050565b6000816040516020016136b291815260200190565b604051602081830303815290604052805190602001209050919050565b60d754600090819062010000900460ff16156136f9575060068601546001600160401b031661374b565b60d854421080159061370d575060d9544211155b1561374b5760d854600788015410156137285750600161374b565b600687015461374890600160c01b90046001600160401b0316600161492c565b90505b60006137e68561375c600389614953565b6137689061c3506149a2565b613774896123286149a2565b60cd5461378e9190600160581b900463ffffffff166147de565b61379891906147de565b60068b0154600160401b90046001600160401b03166137dd5760d75460649061ffff166137c487611ac2565b6137ce919061521e565b6137d8919061525c565b6137e0565b60005b87611952565b905080886004015489600301546137fd9190614953565b101561381c5760405163444a5eaf60e11b815260040160405180910390fd5b8088600401600082825461383091906147de565b90915550506000878152600589016020526040902081905591505095945050505050565b6001600160a01b0381163b6138c15760405162461bcd60e51b815260206004820152602d60248201527f455243313936373a206e657720696d706c656d656e746174696f6e206973206e60448201526c1bdd08184818dbdb9d1c9858dd609a1b606482015260840161080d565b6000805160206153bc83398151915280546001600160a01b0319166001600160a01b0392909216919091179055565b6138f983613c23565b6000825111806139065750805b1561074757610d938383613c63565b6000805b835181101561397057826001600160a01b031684828151811061393e5761393e614598565b60200260200101516001600160a01b03160361395e576001915050613976565b80613968816145c4565b915050613919565b50600090505b92915050565b60606000836001600160401b0381111561399857613998613e3a565b6040519080825280602002602001820160405280156139c1578160200160208202803683370190505b50905060005b848110156139ff57808282815181106139e2576139e2614598565b6020908102919091010152806139f7816145c4565b9150506139c7565b5080516000805b6000613a1184615388565b9350831115613acc57613a248387615374565b915085604051602001613a3991815260200190565b6040516020818303038152906040528051906020012060001c9550838381518110613a6657613a66614598565b60200260200101519050838281518110613a8257613a82614598565b6020026020010151848481518110613a9c57613a9c614598565b60200260200101818152505080848381518110613abb57613abb614598565b602002602001018181525050613a06565b509195945050505050565b60005a611388811015613ae957600080fd5b611388810390508460408204820311613b0157600080fd5b50823b613b0d57600080fd5b60008083516020850160008789f1949350505050565b6000805a613b3187876147de565b613b3b9190614953565b613b4590846149a2565b90506000613b5e63ffffffff861664e8d4a510006149a2565b9050613b75816a6342fd08f00f6378000000614953565b821115613b955760405163e80fa38160e01b815260040160405180910390fd5b613b9f81836147de565b979650505050505050565b600054610100900460ff16613bd15760405162461bcd60e51b815260040161080d906152a4565b610a87336127c3565b6000805b83518110156139705782848281518110613bfa57613bfa614598565b602002602001015103613c11576001915050613976565b80613c1b816145c4565b915050613bde565b613c2c81613854565b6040516001600160a01b038216907fbc7cd75a20ee27fd9adebab32041f755214dbc6bffa90cc0225b39da2e5c2d3b90600090a250565b60606001600160a01b0383163b613ccb5760405162461bcd60e51b815260206004820152602660248201527f416464726573733a2064656c65676174652063616c6c20746f206e6f6e2d636f6044820152651b9d1c9858dd60d21b606482015260840161080d565b600080846001600160a01b031684604051613ce6919061539f565b600060405180830381855af49150503d8060008114613d21576040519150601f19603f3d011682016040523d82523d6000602084013e613d26565b606091505b5091509150613d4e82826040518060600160405280602781526020016153dc60279139613d57565b95945050505050565b60608315613d66575081613696565b6136968383815115613d7b5781518083602001fd5b8060405162461bcd60e51b815260040161080d9190615028565b508054600082559060005260206000209081019061069e9190613def565b60405180604001604052806002906020820280368337509192915050565b60405180608001604052806004906020820280368337509192915050565b5b80821115613e045760008155600101613df0565b5090565b80356001600160401b038116811461248157600080fd5b600060208284031215613e3157600080fd5b61369682613e08565b634e487b7160e01b600052604160045260246000fd5b60405161012081016001600160401b0381118282101715613e7357613e73613e3a565b60405290565b604080519081016001600160401b0381118282101715613e7357613e73613e3a565b60405161014081016001600160401b0381118282101715613e7357613e73613e3a565b60405160e081016001600160401b0381118282101715613e7357613e73613e3a565b604051606081016001600160401b0381118282101715613e7357613e73613e3a565b604051601f8201601f191681016001600160401b0381118282101715613f2a57613f2a613e3a565b604052919050565b60006001600160401b03821115613f4b57613f4b613e3a565b5060051b60200190565b600082601f830112613f6657600080fd5b81356020613f7b613f7683613f32565b613f02565b82815260059290921b84018101918181019086841115613f9a57600080fd5b8286015b84811015613fbc57613faf81613e08565b8352918301918301613f9e565b509695505050505050565b60008060408385031215613fda57600080fd5b82356001600160401b0380821115613ff157600080fd5b613ffd86838701613f55565b9350602085013591508082111561401357600080fd5b5061402085828601613f55565b9150509250929050565b6001600160a01b038116811461069e57600080fd5b80356124818161402a565b6000806040838503121561405d57600080fd5b82356140688161402a565b946020939093013593505050565b60006020828403121561408857600080fd5b5035919050565b6000602082840312156140a157600080fd5b81356136968161402a565b600082601f8301126140bd57600080fd5b81356001600160401b038111156140d6576140d6613e3a565b6140e9601f8201601f1916602001613f02565b8181528460208386010111156140fe57600080fd5b816020850160208301376000918101602001919091529392505050565b6000806040838503121561412e57600080fd5b82356141398161402a565b915060208301356001600160401b0381111561415457600080fd5b614020858286016140ac565b803561ffff8116811461248157600080fd5b63ffffffff8116811461069e57600080fd5b803561248181614172565b600080600080600080600060e0888a0312156141aa57600080fd5b6141b388614160565b965060208801356141c381614172565b955060408801356141d381614172565b945060608801356141e381614172565b9699959850939660808101359560a0820135955060c0909101359350915050565b6000806040838503121561421757600080fd5b61422083613e08565b915060208301356142308161402a565b809150509250929050565b60008060008060008060a0878903121561425457600080fd5b86359550602087013594506040870135935060608701356001600160401b038082111561428057600080fd5b90880190610140828b03121561429557600080fd5b909350608088013590808211156142ab57600080fd5b818901915089601f8301126142bf57600080fd5b8135818111156142ce57600080fd5b8a60208260061b85010111156142e357600080fd5b6020830194508093505050509295509295509295565b6000806040838503121561430c57600080fd5b61431583613e08565b915061432360208401613e08565b90509250929050565b600081518084526020808501945080840160005b838110156143655781516001600160a01b031687529582019590820190600101614340565b509495945050505050565b8581528460208201526001600160401b038416604082015260018060a01b038316606082015260a060808201526000613b9f60a083018461432c565b600080600080608085870312156143c257600080fd5b843593506020850135925060408501356143db81614172565b9396929550929360600135925050565b801515811461069e57600080fd5b8035612481816143eb565b60008060006060848603121561441957600080fd5b8335614424816143eb565b925061443260208501614160565b915061444060408501614160565b90509250925092565b803562ffffff8116811461248157600080fd5b60008060008060008587036101a081121561447657600080fd5b6101208082121561448657600080fd5b61448e613e50565b915061449988614184565b82526144a760208901614184565b60208301526144b860408901614184565b60408301526144c960608901614184565b60608301526144da60808901614184565b60808301526144eb60a08901614449565b60a08301526144fc60c08901614449565b60c083015261450d60e08901614449565b60e0830152610100614520818a01614449565b8184015250819650614533818901614160565b9550505061454461014087016143f9565b949793965093946101608101359450610180013592915050565b60006020828403121561457057600080fd5b81356001600160401b0381111561458657600080fd5b820160e0818503121561369657600080fd5b634e487b7160e01b600052603260045260246000fd5b634e487b7160e01b600052601160045260246000fd5b6000600182016145d6576145d66145ae565b5060010190565b6020808252602c908201527f46756e6374696f6e206d7573742062652063616c6c6564207468726f7567682060408201526b19195b1959d85d1958d85b1b60a21b606082015260800190565b6020808252602c908201527f46756e6374696f6e206d7573742062652063616c6c6564207468726f7567682060408201526b6163746976652070726f787960a01b606082015260800190565b80356003811061248157600080fd5b60006020828403121561469657600080fd5b61369682614675565b6000808335601e198436030181126146b657600080fd5b8301803591506001600160401b038211156146d057600080fd5b6020019150368190038213156146e557600080fd5b9250929050565b6000602082840312156146fe57600080fd5b61369682614160565b634e487b7160e01b600052602160045260246000fd5b6003811061473b57634e487b7160e01b600052602160045260246000fd5b9052565b60006101608e83526001600160401b038e1660208401528c6040840152614769606084018d61471d565b806080840152898184015250610180898b8285013760008a84018201526001600160a01b03891660a0840152601f19601f8b011683010190508660c08301526147b860e083018761ffff169052565b8461010083015283610120830152826101408301529d9c50505050505050505050505050565b80820180821115613976576139766145ae565b60006020828403121561480357600080fd5b5051919050565b60006040828403121561481c57600080fd5b614824613e79565b82358152602083013560208201528091505092915050565b6000610140823603121561484f57600080fd5b614857613e9b565b61486083613e08565b81526020830135602082015261487860408401614675565b604082015260608301356001600160401b0381111561489657600080fd5b6148a2368286016140ac565b6060830152506148b46080840161403f565b608082015260a083013560a08201526148cf60c08401614160565b60c082015260e08381013590820152610100808401359082015261012092830135928101929092525090565b60808152600061490e608083018761432c565b60208301959095525060408101929092521515606090910152919050565b6001600160401b0381811683821601908082111561494c5761494c6145ae565b5092915050565b81810381811115613976576139766145ae565b634e487b7160e01b600052603160045260246000fd5b60006001600160401b03808316818103614998576149986145ae565b6001019392505050565b8082028115828204841417613976576139766145ae565b855163ffffffff9081168252602080880151821690830152604080880151821690830152606080880151821690830152608080880151918216908301526101a08201905060a0870151614a1360a084018262ffffff169052565b5060c0870151614a2a60c084018262ffffff169052565b5060e0870151614a4160e084018262ffffff169052565b506101009687015162ffffff169682019690965261ffff949094166101208501529115156101408401526101608301526101809091015290565b600060e08236031215614a8d57600080fd5b614a95613ebe565b614a9e83614675565b815260208301356001600160401b03811115614ab957600080fd5b614ac5368286016140ac565b602083015250614ad760408401613e08565b604082015260608301356060820152614af260808401614160565b608082015260a083013560a082015260c083013560c082015280915050919050565b60008060408385031215614b2757600080fd5b505080516020909101519092909150565b60005b83811015614b53578181015183820152602001614b3b565b50506000910152565b60008151808452614b74816020860160208601614b38565b601f01601f19169290920160200192915050565b60006101608d83526001600160401b038d1660208401528b6040840152614bb2606084018c61471d565b806080840152614bc48184018b614b5c565b6001600160a01b039990991660a0840152505060c081019590955261ffff9390931660e08501526101008401919091526101208301526101409091015295945050505050565b6000610100614c19838c61471d565b806020840152614c2b8184018b614b5c565b6001600160a01b039990991660408401525050606081019590955261ffff93909316608085015260a084019190915260c083015260e09091015292915050565b8051612481816143eb565b600060208284031215614c8857600080fd5b8151613696816143eb565b600082601f830112614ca457600080fd5b604051608081018181106001600160401b0382111715614cc657614cc6613e3a565b604052806080840185811115614cdb57600080fd5b845b81811015613acc578051835260209283019201614cdd565b600082601f830112614d0657600080fd5b81516020614d16613f7683613f32565b82815260a09283028501820192828201919087851115614d3557600080fd5b8387015b85811015614d835781818a031215614d515760008081fd5b614d59613e79565b8151614d648161402a565b8152614d728a838801614c93565b818701528452928401928101614d39565b5090979650505050505050565b600082601f830112614da157600080fd5b81516020614db1613f7683613f32565b82815260059290921b84018101918181019086841115614dd057600080fd5b8286015b84811015613fbc578051614de78161402a565b8352918301918301614dd4565b600082601f830112614e0557600080fd5b81516020614e15613f7683613f32565b82815260059290921b84018101918181019086841115614e3457600080fd5b8286015b84811015613fbc5780516001600160401b0380821115614e5757600080fd5b908801906040601f19838c038101821315614e7157600080fd5b614e79613e79565b8885015184811115614e8a57600080fd5b614e988e8b83890101614d90565b8252508285015184811115614eac57600080fd5b949094019360c0858e0383011215614ec45760008081fd5b614ecc613ee0565b9150888501518252614ee08d848701614c93565b8983015260c085015184811115614ef75760008081fd5b614f058e8b83890101614d90565b93830193909352808901919091528652505050918301918301614e38565b600060208284031215614f3557600080fd5b81516001600160401b0380821115614f4c57600080fd5b908301906101808286031215614f6157600080fd5b614f69613e50565b82518152602083015160208201526040830151604082015260608301516060820152608083015182811115614f9d57600080fd5b614fa987828601614cf5565b60808301525060a083015182811115614fc157600080fd5b614fcd87828601614d90565b60a08301525060c083015182811115614fe557600080fd5b614ff187828601614df4565b60c08301525061500360e08401614c6b565b60e0820152610100915061501986838501614c93565b91810191909152949350505050565b6020815260006136966020830184614b5c565b60006040828403121561504d57600080fd5b82601f83011261505c57600080fd5b615064613e79565b80604084018581111561507657600080fd5b845b81811015615090578051845260209384019301615078565b509095945050505050565b8060005b6002811015610d9357815184526020938401939091019060010161509f565b8060005b6004811015610d935781518452602093840193909101906001016150c2565b61010081016150f0828661509b565b6150fd60408301856150be565b61198e60c083018461509b565b608080825284518282018190526000919060209060a0850190828901855b8281101561514e5761513b84835161509b565b6040939093019290840190600101615128565b5050508481038286015286518082528783019183019060005b8181101561518a5761517a8385516150be565b9284019291850191600101615167565b50508094505050505061198e604083018461509b565b6000602082840312156151b257600080fd5b815161369681614172565b6000604082018483526020604081850152818551808452606086019150828701935060005b81811015614d83578451835293830193918301916001016151e2565b6001600160401b0382811682821603908082111561494c5761494c6145ae565b63ffffffff81811683821602808216919082811461523e5761523e6145ae565b505092915050565b634e487b7160e01b600052601260045260246000fd5b600063ffffffff8084168061527357615273615246565b92169190910492915050565b606081526000615292606083018661432c565b60208301949094525060400152919050565b6020808252602b908201527f496e697469616c697a61626c653a20636f6e7472616374206973206e6f74206960408201526a6e697469616c697a696e6760a81b606082015260800190565b6000602080838503121561530257600080fd5b82516001600160401b0381111561531857600080fd5b8301601f8101851361532957600080fd5b8051615337613f7682613f32565b81815260059190911b8201830190838101908783111561535657600080fd5b928401925b82841015613b9f5783518252928401929084019061535b565b60008261538357615383615246565b500690565b600081615397576153976145ae565b506000190190565b600082516153b1818460208701614b38565b919091019291505056fe360894a13ba1a3210667c828492db98dca3e2076cc3735a920a3ca505d382bbc416464726573733a206c6f772d6c6576656c2064656c65676174652063616c6c206661696c6564a2646970667358221220ff509922960b5052e7db4f625ae7728a695eea581229327c860fe0593ad7eaf564736f6c63430008130033",
    "linkReferences": {
      "src/libraries/BLS.sol": {
        "BLS": [
          {
            "start": 10361,
            "length": 20
          },
          {
            "start": 10727,
            "length": 20
          },
          {
            "start": 10835,
            "length": 20
          },
          {
            "start": 10861,
            "length": 20
          },
          {
            "start": 11368,
            "length": 20
          },
          {
            "start": 11548,
            "length": 20
          },
          {
            "start": 11956,
            "length": 20
          }
        ]
      }
    }
  },
  "methodIdentifiers": {
    "DEFAULT_MINIMUM_THRESHOLD()": "aa81d59a",
    "MAX_CONSUMERS()": "64d51a2a",
    "MAX_REQUEST_CONFIRMATIONS()": "15c48b84",
    "RANDOMNESS_REWARD_GAS()": "8166d459",
    "VERIFICATION_GAS_OVER_MINIMUM_THRESHOLD()": "877d38bb",
    "addConsumer(uint64,address)": "7341c10c",
    "cancelSubscription(uint64,address)": "d7ae1d30",
    "createSubscription()": "a21a23e4",
    "estimatePaymentAmountInETH(uint256,uint256,uint32,uint256)": "a5d89a3b",
    "fulfillRandomness(uint256,bytes32,uint256,(uint64,uint256,uint8,bytes,address,uint256,uint16,uint256,uint256,uint256),(uint256,uint256)[])": "80a13ee9",
    "fundSubscription(uint64)": "dfaba794",
    "getFeeTier(uint64)": "d2f9f9a7",
    "getLastRandomness()": "a4c343f2",
    "getLastSubscription(address)": "76a911bc",
    "getPendingRequestCommitment(bytes32)": "1565034c",
    "getRandomnessCount()": "63602174",
    "getSubscription(uint64)": "a47c7696",
    "initialize(address)": "c4d66de8",
    "nodeWithdrawETH(address,uint256)": "0ad98f6a",
    "owner()": "8da5cb5b",
    "ownerCancelSubscription(uint64)": "02bcc5b6",
    "proxiableUUID()": "52d1902d",
    "removeConsumer(uint64,address)": "9f87fad7",
    "renounceOwnership()": "715018a6",
    "requestRandomness((uint8,bytes,uint64,uint256,uint16,uint256,uint256))": "fb0882fc",
    "setAdapterConfig(uint16,uint32,uint32,uint32,uint256,uint256,uint256)": "71b7ca05",
    "setFlatFeeConfig((uint32,uint32,uint32,uint32,uint32,uint24,uint24,uint24,uint24),uint16,bool,uint256,uint256)": "f4cc97fc",
    "setFreeRequestCount(uint64[],uint64[])": "056e5ede",
    "setReferral(uint64,uint64)": "931d9204",
    "setReferralConfig(bool,uint16,uint16)": "f362ca61",
    "transferOwnership(address)": "f2fde38b",
    "upgradeTo(address)": "3659cfe6",
    "upgradeToAndCall(address,bytes)": "4f1ef286"
  },
  "id": 62
}