{
  "abi": [
    {
      "inputs": [
        {
          "internalType": "address",
          "name": "arpa",
          "type": "address"
        },
        {
          "internalType": "address",
          "name": "arpaEthFeed",
          "type": "address"
        }
      ],
      "stateMutability": "nonpayable",
      "type": "constructor"
    },
    {
      "inputs": [],
      "name": "InsufficientBalanceWhenFulfill",
      "type": "error"
    },
    {
      "inputs": [],
      "name": "InsufficientBalanceWhenRequest",
      "type": "error"
    },
    {
      "inputs": [
        {
          "internalType": "int256",
          "name": "arpaWei",
          "type": "int256"
        }
      ],
      "name": "InvalidArpaWeiPrice",
      "type": "error"
    },
    {
      "inputs": [
        {
          "internalType": "uint64",
          "name": "subId",
          "type": "uint64"
        },
        {
          "internalType": "address",
          "name": "consumer",
          "type": "address"
        }
      ],
      "name": "InvalidConsumer",
      "type": "error"
    },
    {
      "inputs": [
        {
          "internalType": "string",
          "name": "message",
          "type": "string"
        }
      ],
      "name": "InvalidRequestByEOA",
      "type": "error"
    },
    {
      "inputs": [
        {
          "internalType": "uint16",
          "name": "have",
          "type": "uint16"
        },
        {
          "internalType": "uint16",
          "name": "min",
          "type": "uint16"
        },
        {
          "internalType": "uint16",
          "name": "max",
          "type": "uint16"
        }
      ],
      "name": "InvalidRequestConfirmations",
      "type": "error"
    },
    {
      "inputs": [],
      "name": "InvalidSignature",
      "type": "error"
    },
    {
      "inputs": [],
      "name": "InvalidSignatureFormat",
      "type": "error"
    },
    {
      "inputs": [],
      "name": "InvalidSubscription",
      "type": "error"
    },
    {
      "inputs": [
        {
          "internalType": "address",
          "name": "owner",
          "type": "address"
        }
      ],
      "name": "MustBeSubOwner",
      "type": "error"
    },
    {
      "inputs": [],
      "name": "MustNotBeInfinity",
      "type": "error"
    },
    {
      "inputs": [],
      "name": "NoAvailableGroups",
      "type": "error"
    },
    {
      "inputs": [],
      "name": "NoCorrespondingRequest",
      "type": "error"
    },
    {
      "inputs": [],
      "name": "NotFromCommitter",
      "type": "error"
    },
    {
      "inputs": [],
      "name": "PaymentTooLarge",
      "type": "error"
    },
    {
      "inputs": [],
      "name": "Reentrant",
      "type": "error"
    },
    {
      "inputs": [],
      "name": "TaskStillExclusive",
      "type": "error"
    },
    {
      "inputs": [],
      "name": "TooManyConsumers",
      "type": "error"
    },
    {
      "anonymous": false,
      "inputs": [
        {
          "indexed": false,
          "internalType": "uint16",
          "name": "minimumRequestConfirmations",
          "type": "uint16"
        },
        {
          "indexed": false,
          "internalType": "uint32",
          "name": "maxGasLimit",
          "type": "uint32"
        },
        {
          "indexed": false,
          "internalType": "uint32",
          "name": "stalenessSeconds",
          "type": "uint32"
        },
        {
          "indexed": false,
          "internalType": "uint32",
          "name": "gasAfterPaymentCalculation",
          "type": "uint32"
        },
        {
          "indexed": false,
          "internalType": "uint32",
          "name": "gasExceptCallback",
          "type": "uint32"
        },
        {
          "indexed": false,
          "internalType": "int256",
          "name": "fallbackWeiPerUnitArpa",
          "type": "int256"
        },
        {
          "components": [
            {
              "internalType": "uint32",
              "name": "fulfillmentFlatFeeArpaPPMTier1",
              "type": "uint32"
            },
            {
              "internalType": "uint32",
              "name": "fulfillmentFlatFeeArpaPPMTier2",
              "type": "uint32"
            },
            {
              "internalType": "uint32",
              "name": "fulfillmentFlatFeeArpaPPMTier3",
              "type": "uint32"
            },
            {
              "internalType": "uint32",
              "name": "fulfillmentFlatFeeArpaPPMTier4",
              "type": "uint32"
            },
            {
              "internalType": "uint32",
              "name": "fulfillmentFlatFeeArpaPPMTier5",
              "type": "uint32"
            },
            {
              "internalType": "uint24",
              "name": "reqsForTier2",
              "type": "uint24"
            },
            {
              "internalType": "uint24",
              "name": "reqsForTier3",
              "type": "uint24"
            },
            {
              "internalType": "uint24",
              "name": "reqsForTier4",
              "type": "uint24"
            },
            {
              "internalType": "uint24",
              "name": "reqsForTier5",
              "type": "uint24"
            }
          ],
          "indexed": false,
          "internalType": "struct Adapter.FeeConfig",
          "name": "feeConfig",
          "type": "tuple"
        }
      ],
      "name": "ConfigSet",
      "type": "event"
    },
    {
      "anonymous": false,
      "inputs": [
        {
          "indexed": true,
          "internalType": "address",
          "name": "previousOwner",
          "type": "address"
        },
        {
          "indexed": true,
          "internalType": "address",
          "name": "newOwner",
          "type": "address"
        }
      ],
      "name": "OwnershipTransferred",
      "type": "event"
    },
    {
      "anonymous": false,
      "inputs": [
        {
          "indexed": true,
          "internalType": "uint256",
          "name": "groupIndex",
          "type": "uint256"
        },
        {
          "indexed": false,
          "internalType": "bytes32",
          "name": "requestId",
          "type": "bytes32"
        },
        {
          "indexed": false,
          "internalType": "address",
          "name": "sender",
          "type": "address"
        },
        {
          "indexed": false,
          "internalType": "uint64",
          "name": "subId",
          "type": "uint64"
        },
        {
          "indexed": false,
          "internalType": "uint256",
          "name": "seed",
          "type": "uint256"
        },
        {
          "indexed": false,
          "internalType": "uint16",
          "name": "requestConfirmations",
          "type": "uint16"
        },
        {
          "indexed": false,
          "internalType": "uint256",
          "name": "callbackGasLimit",
          "type": "uint256"
        },
        {
          "indexed": false,
          "internalType": "uint256",
          "name": "callbackMaxGasPrice",
          "type": "uint256"
        }
      ],
      "name": "RandomnessRequest",
      "type": "event"
    },
    {
      "anonymous": false,
      "inputs": [
        {
          "indexed": false,
          "internalType": "bytes32",
          "name": "requestId",
          "type": "bytes32"
        },
        {
          "indexed": false,
          "internalType": "uint256",
          "name": "output",
          "type": "uint256"
        },
        {
          "indexed": false,
          "internalType": "uint256",
          "name": "payment",
          "type": "uint256"
        },
        {
          "indexed": false,
          "internalType": "bool",
          "name": "success",
          "type": "bool"
        }
      ],
      "name": "RandomnessRequestFulfilled",
      "type": "event"
    },
    {
      "anonymous": false,
      "inputs": [
        {
          "indexed": true,
          "internalType": "uint64",
          "name": "subId",
          "type": "uint64"
        },
        {
          "indexed": false,
          "internalType": "address",
          "name": "consumer",
          "type": "address"
        }
      ],
      "name": "SubscriptionConsumerAdded",
      "type": "event"
    },
    {
      "anonymous": false,
      "inputs": [
        {
          "indexed": true,
          "internalType": "uint64",
          "name": "subId",
          "type": "uint64"
        },
        {
          "indexed": false,
          "internalType": "address",
          "name": "owner",
          "type": "address"
        }
      ],
      "name": "SubscriptionCreated",
      "type": "event"
    },
    {
      "anonymous": false,
      "inputs": [
        {
          "indexed": true,
          "internalType": "uint64",
          "name": "subId",
          "type": "uint64"
        },
        {
          "indexed": false,
          "internalType": "uint256",
          "name": "oldBalance",
          "type": "uint256"
        },
        {
          "indexed": false,
          "internalType": "uint256",
          "name": "newBalance",
          "type": "uint256"
        }
      ],
      "name": "SubscriptionFunded",
      "type": "event"
    },
    {
      "inputs": [],
      "name": "ARPA",
      "outputs": [
        {
          "internalType": "contract IERC20",
          "name": "",
          "type": "address"
        }
      ],
      "stateMutability": "view",
      "type": "function"
    },
    {
      "inputs": [],
      "name": "ARPA_ETH_FEED",
      "outputs": [
        {
          "internalType": "contract AggregatorV3Interface",
          "name": "",
          "type": "address"
        }
      ],
      "stateMutability": "view",
      "type": "function"
    },
    {
      "inputs": [],
      "name": "COMMITTER_REWARD_PER_SIGNATURE",
      "outputs": [
        {
          "internalType": "uint256",
          "name": "",
          "type": "uint256"
        }
      ],
      "stateMutability": "view",
      "type": "function"
    },
    {
      "inputs": [],
      "name": "MAX_CONSUMERS",
      "outputs": [
        {
          "internalType": "uint16",
          "name": "",
          "type": "uint16"
        }
      ],
      "stateMutability": "view",
      "type": "function"
    },
    {
      "inputs": [],
      "name": "MAX_REQUEST_CONFIRMATIONS",
      "outputs": [
        {
          "internalType": "uint16",
          "name": "",
          "type": "uint16"
        }
      ],
      "stateMutability": "view",
      "type": "function"
    },
    {
      "inputs": [],
      "name": "REWARD_PER_SIGNATURE",
      "outputs": [
        {
          "internalType": "uint256",
          "name": "",
          "type": "uint256"
        }
      ],
      "stateMutability": "view",
      "type": "function"
    },
    {
      "inputs": [],
      "name": "SIGNATURE_TASK_EXCLUSIVE_WINDOW",
      "outputs": [
        {
          "internalType": "uint256",
          "name": "",
          "type": "uint256"
        }
      ],
      "stateMutability": "view",
      "type": "function"
    },
    {
      "inputs": [
        {
          "internalType": "uint64",
          "name": "subId",
          "type": "uint64"
        },
        {
          "internalType": "address",
          "name": "consumer",
          "type": "address"
        }
      ],
      "name": "addConsumer",
      "outputs": [],
      "stateMutability": "nonpayable",
      "type": "function"
    },
    {
      "inputs": [
        {
          "internalType": "uint256",
          "name": "startGas",
          "type": "uint256"
        },
        {
          "internalType": "uint256",
          "name": "gasAfterPaymentCalculation",
          "type": "uint256"
        },
        {
          "internalType": "uint32",
          "name": "fulfillmentFlatFeeArpaPPM",
          "type": "uint32"
        },
        {
          "internalType": "uint256",
          "name": "weiPerUnitGas",
          "type": "uint256"
        }
      ],
      "name": "calculatePaymentAmount",
      "outputs": [
        {
          "internalType": "uint96",
          "name": "",
          "type": "uint96"
        }
      ],
      "stateMutability": "view",
      "type": "function"
    },
    {
      "inputs": [],
      "name": "createSubscription",
      "outputs": [
        {
          "internalType": "uint64",
          "name": "",
          "type": "uint64"
        }
      ],
      "stateMutability": "nonpayable",
      "type": "function"
    },
    {
      "inputs": [
        {
          "internalType": "uint256",
          "name": "callbackGasLimit",
          "type": "uint256"
        },
        {
          "internalType": "uint256",
          "name": "gasExceptCallback",
          "type": "uint256"
        },
        {
          "internalType": "uint32",
          "name": "fulfillmentFlatFeeArpaPPM",
          "type": "uint32"
        },
        {
          "internalType": "uint256",
          "name": "weiPerUnitGas",
          "type": "uint256"
        }
      ],
      "name": "estimatePaymentAmount",
      "outputs": [
        {
          "internalType": "uint96",
          "name": "",
          "type": "uint96"
        }
      ],
      "stateMutability": "view",
      "type": "function"
    },
    {
      "inputs": [
        {
          "internalType": "uint256",
          "name": "groupIndex",
          "type": "uint256"
        },
        {
          "internalType": "bytes32",
          "name": "requestId",
          "type": "bytes32"
        },
        {
          "internalType": "uint256",
          "name": "signature",
          "type": "uint256"
        },
        {
          "components": [
            {
              "internalType": "address",
              "name": "nodeAddress",
              "type": "address"
            },
            {
              "internalType": "uint256",
              "name": "partialSignature",
              "type": "uint256"
            }
          ],
          "internalType": "struct IAdapter.PartialSignature[]",
          "name": "partialSignatures",
          "type": "tuple[]"
        }
      ],
      "name": "fulfillRandomness",
      "outputs": [],
      "stateMutability": "nonpayable",
      "type": "function"
    },
    {
      "inputs": [
        {
          "internalType": "uint64",
          "name": "subId",
          "type": "uint64"
        },
        {
          "internalType": "uint256",
          "name": "amount",
          "type": "uint256"
        }
      ],
      "name": "fundSubscription",
      "outputs": [],
      "stateMutability": "nonpayable",
      "type": "function"
    },
    {
      "inputs": [
        {
          "internalType": "uint64",
          "name": "reqCount",
          "type": "uint64"
        }
      ],
      "name": "getFeeTier",
      "outputs": [
        {
          "internalType": "uint32",
          "name": "",
          "type": "uint32"
        }
      ],
      "stateMutability": "view",
      "type": "function"
    },
    {
      "inputs": [
        {
          "internalType": "uint256",
          "name": "groupIndex",
          "type": "uint256"
        }
      ],
      "name": "getGroup",
      "outputs": [
        {
          "components": [
            {
              "internalType": "uint256",
              "name": "index",
              "type": "uint256"
            },
            {
              "internalType": "uint256",
              "name": "epoch",
              "type": "uint256"
            },
            {
              "internalType": "uint256",
              "name": "size",
              "type": "uint256"
            },
            {
              "internalType": "uint256",
              "name": "threshold",
              "type": "uint256"
            },
            {
              "components": [
                {
                  "internalType": "address",
                  "name": "nodeIdAddress",
                  "type": "address"
                },
                {
                  "internalType": "bytes",
                  "name": "partialPublicKey",
                  "type": "bytes"
                }
              ],
              "internalType": "struct Adapter.Member[]",
              "name": "members",
              "type": "tuple[]"
            },
            {
              "internalType": "address[]",
              "name": "committers",
              "type": "address[]"
            },
            {
              "components": [
                {
                  "internalType": "address[]",
                  "name": "nodeIdAddress",
                  "type": "address[]"
                },
                {
                  "components": [
                    {
                      "internalType": "uint256",
                      "name": "groupEpoch",
                      "type": "uint256"
                    },
                    {
                      "internalType": "bytes",
                      "name": "publicKey",
                      "type": "bytes"
                    },
                    {
                      "internalType": "address[]",
                      "name": "disqualifiedNodes",
                      "type": "address[]"
                    }
                  ],
                  "internalType": "struct Adapter.CommitResult",
                  "name": "commitResult",
                  "type": "tuple"
                }
              ],
              "internalType": "struct Adapter.CommitCache[]",
              "name": "commitCacheList",
              "type": "tuple[]"
            },
            {
              "internalType": "bool",
              "name": "isStrictlyMajorityConsensusReached",
              "type": "bool"
            },
            {
              "internalType": "bytes",
              "name": "publicKey",
              "type": "bytes"
            }
          ],
          "internalType": "struct Adapter.Group",
          "name": "",
          "type": "tuple"
        }
      ],
      "stateMutability": "view",
      "type": "function"
    },
    {
      "inputs": [
        {
          "internalType": "address",
          "name": "consumer",
          "type": "address"
        }
      ],
      "name": "getLastSubscription",
      "outputs": [
        {
          "internalType": "uint64",
          "name": "",
          "type": "uint64"
        }
      ],
      "stateMutability": "view",
      "type": "function"
    },
    {
      "inputs": [
        {
          "internalType": "bytes32",
          "name": "requestId",
          "type": "bytes32"
        }
      ],
      "name": "getPendingRequest",
      "outputs": [
        {
          "components": [
            {
              "internalType": "address",
              "name": "callbackContract",
              "type": "address"
            },
            {
              "internalType": "enum IRequestTypeBase.RequestType",
              "name": "requestType",
              "type": "uint8"
            },
            {
              "internalType": "bytes",
              "name": "params",
              "type": "bytes"
            },
            {
              "internalType": "uint64",
              "name": "subId",
              "type": "uint64"
            },
            {
              "internalType": "uint256",
              "name": "seed",
              "type": "uint256"
            },
            {
              "internalType": "uint256",
              "name": "blockNum",
              "type": "uint256"
            },
            {
              "internalType": "uint16",
              "name": "requestConfirmations",
              "type": "uint16"
            },
            {
              "internalType": "uint256",
              "name": "callbackGasLimit",
              "type": "uint256"
            },
            {
              "internalType": "uint256",
              "name": "callbackMaxGasPrice",
              "type": "uint256"
            }
          ],
          "internalType": "struct Adapter.Callback",
          "name": "",
          "type": "tuple"
        }
      ],
      "stateMutability": "view",
      "type": "function"
    },
    {
      "inputs": [
        {
          "internalType": "uint64",
          "name": "subId",
          "type": "uint64"
        }
      ],
      "name": "getSubscription",
      "outputs": [
        {
          "internalType": "uint96",
          "name": "balance",
          "type": "uint96"
        },
        {
          "internalType": "uint96",
          "name": "inflightCost",
          "type": "uint96"
        },
        {
          "internalType": "uint64",
          "name": "reqCount",
          "type": "uint64"
        },
        {
          "internalType": "address",
          "name": "owner",
          "type": "address"
        },
        {
          "internalType": "address[]",
          "name": "consumers",
          "type": "address[]"
        }
      ],
      "stateMutability": "view",
      "type": "function"
    },
    {
      "inputs": [],
      "name": "groupCount",
      "outputs": [
        {
          "internalType": "uint256",
          "name": "",
          "type": "uint256"
        }
      ],
      "stateMutability": "view",
      "type": "function"
    },
    {
      "inputs": [
        {
          "internalType": "uint256",
          "name": "",
          "type": "uint256"
        }
      ],
      "name": "groups",
      "outputs": [
        {
          "internalType": "uint256",
          "name": "index",
          "type": "uint256"
        },
        {
          "internalType": "uint256",
          "name": "epoch",
          "type": "uint256"
        },
        {
          "internalType": "uint256",
          "name": "size",
          "type": "uint256"
        },
        {
          "internalType": "uint256",
          "name": "threshold",
          "type": "uint256"
        },
        {
          "internalType": "bool",
          "name": "isStrictlyMajorityConsensusReached",
          "type": "bool"
        },
        {
          "internalType": "bytes",
          "name": "publicKey",
          "type": "bytes"
        }
      ],
      "stateMutability": "view",
      "type": "function"
    },
    {
      "inputs": [],
      "name": "lastAssignedGroupIndex",
      "outputs": [
        {
          "internalType": "uint256",
          "name": "",
          "type": "uint256"
        }
      ],
      "stateMutability": "view",
      "type": "function"
    },
    {
      "inputs": [],
      "name": "lastOutput",
      "outputs": [
        {
          "internalType": "uint256",
          "name": "",
          "type": "uint256"
        }
      ],
      "stateMutability": "view",
      "type": "function"
    },
    {
      "inputs": [],
      "name": "owner",
      "outputs": [
        {
          "internalType": "address",
          "name": "",
          "type": "address"
        }
      ],
      "stateMutability": "view",
      "type": "function"
    },
    {
      "inputs": [],
      "name": "renounceOwnership",
      "outputs": [],
      "stateMutability": "nonpayable",
      "type": "function"
    },
    {
      "inputs": [
        {
          "components": [
            {
              "internalType": "enum IRequestTypeBase.RequestType",
              "name": "requestType",
              "type": "uint8"
            },
            {
              "internalType": "bytes",
              "name": "params",
              "type": "bytes"
            },
            {
              "internalType": "uint64",
              "name": "subId",
              "type": "uint64"
            },
            {
              "internalType": "uint256",
              "name": "seed",
              "type": "uint256"
            },
            {
              "internalType": "uint16",
              "name": "requestConfirmations",
              "type": "uint16"
            },
            {
              "internalType": "uint256",
              "name": "callbackGasLimit",
              "type": "uint256"
            },
            {
              "internalType": "uint256",
              "name": "callbackMaxGasPrice",
              "type": "uint256"
            }
          ],
          "internalType": "struct IAdapter.RequestRandomnessParams",
          "name": "p",
          "type": "tuple"
        }
      ],
      "name": "requestRandomness",
      "outputs": [
        {
          "internalType": "bytes32",
          "name": "",
          "type": "bytes32"
        }
      ],
      "stateMutability": "nonpayable",
      "type": "function"
    },
    {
      "inputs": [
        {
          "internalType": "address",
          "name": "",
          "type": "address"
        }
      ],
      "name": "rewards",
      "outputs": [
        {
          "internalType": "uint256",
          "name": "",
          "type": "uint256"
        }
      ],
      "stateMutability": "view",
      "type": "function"
    },
    {
      "inputs": [
        {
          "internalType": "bytes32",
          "name": "",
          "type": "bytes32"
        }
      ],
      "name": "s_callbacks",
      "outputs": [
        {
          "internalType": "address",
          "name": "callbackContract",
          "type": "address"
        },
        {
          "internalType": "enum IRequestTypeBase.RequestType",
          "name": "requestType",
          "type": "uint8"
        },
        {
          "internalType": "bytes",
          "name": "params",
          "type": "bytes"
        },
        {
          "internalType": "uint64",
          "name": "subId",
          "type": "uint64"
        },
        {
          "internalType": "uint256",
          "name": "seed",
          "type": "uint256"
        },
        {
          "internalType": "uint256",
          "name": "blockNum",
          "type": "uint256"
        },
        {
          "internalType": "uint16",
          "name": "requestConfirmations",
          "type": "uint16"
        },
        {
          "internalType": "uint256",
          "name": "callbackGasLimit",
          "type": "uint256"
        },
        {
          "internalType": "uint256",
          "name": "callbackMaxGasPrice",
          "type": "uint256"
        }
      ],
      "stateMutability": "view",
      "type": "function"
    },
    {
      "inputs": [
        {
          "internalType": "uint16",
          "name": "minimumRequestConfirmations",
          "type": "uint16"
        },
        {
          "internalType": "uint32",
          "name": "maxGasLimit",
          "type": "uint32"
        },
        {
          "internalType": "uint32",
          "name": "stalenessSeconds",
          "type": "uint32"
        },
        {
          "internalType": "uint32",
          "name": "gasAfterPaymentCalculation",
          "type": "uint32"
        },
        {
          "internalType": "uint32",
          "name": "gasExceptCallback",
          "type": "uint32"
        },
        {
          "internalType": "int256",
          "name": "fallbackWeiPerUnitArpa",
          "type": "int256"
        },
        {
          "components": [
            {
              "internalType": "uint32",
              "name": "fulfillmentFlatFeeArpaPPMTier1",
              "type": "uint32"
            },
            {
              "internalType": "uint32",
              "name": "fulfillmentFlatFeeArpaPPMTier2",
              "type": "uint32"
            },
            {
              "internalType": "uint32",
              "name": "fulfillmentFlatFeeArpaPPMTier3",
              "type": "uint32"
            },
            {
              "internalType": "uint32",
              "name": "fulfillmentFlatFeeArpaPPMTier4",
              "type": "uint32"
            },
            {
              "internalType": "uint32",
              "name": "fulfillmentFlatFeeArpaPPMTier5",
              "type": "uint32"
            },
            {
              "internalType": "uint24",
              "name": "reqsForTier2",
              "type": "uint24"
            },
            {
              "internalType": "uint24",
              "name": "reqsForTier3",
              "type": "uint24"
            },
            {
              "internalType": "uint24",
              "name": "reqsForTier4",
              "type": "uint24"
            },
            {
              "internalType": "uint24",
              "name": "reqsForTier5",
              "type": "uint24"
            }
          ],
          "internalType": "struct Adapter.FeeConfig",
          "name": "feeConfig",
          "type": "tuple"
        }
      ],
      "name": "setConfig",
      "outputs": [],
      "stateMutability": "nonpayable",
      "type": "function"
    },
    {
      "inputs": [
        {
          "internalType": "address",
          "name": "newOwner",
          "type": "address"
        }
      ],
      "name": "transferOwnership",
      "outputs": [],
      "stateMutability": "nonpayable",
      "type": "function"
    },
    {
      "inputs": [],
      "name": "validGroupIndices",
      "outputs": [
        {
          "internalType": "uint256[]",
          "name": "",
          "type": "uint256[]"
        }
      ],
      "stateMutability": "view",
      "type": "function"
    }
  ],
  "bytecode": {
    "object": "0x60c06040526722222222222222226005553480156200001d57600080fd5b5060405162007ead38038062007ead833981810160405281019062000043919062000209565b6200006362000057620000d360201b60201c565b620000db60201b60201c565b8173ffffffffffffffffffffffffffffffffffffffff1660808173ffffffffffffffffffffffffffffffffffffffff16815250508073ffffffffffffffffffffffffffffffffffffffff1660a08173ffffffffffffffffffffffffffffffffffffffff1681525050505062000250565b600033905090565b60008060009054906101000a900473ffffffffffffffffffffffffffffffffffffffff169050816000806101000a81548173ffffffffffffffffffffffffffffffffffffffff021916908373ffffffffffffffffffffffffffffffffffffffff1602179055508173ffffffffffffffffffffffffffffffffffffffff168173ffffffffffffffffffffffffffffffffffffffff167f8be0079c531659141344cd1fd0a4f28419497f9722a3daafe3b4186f6b6457e060405160405180910390a35050565b600080fd5b600073ffffffffffffffffffffffffffffffffffffffff82169050919050565b6000620001d182620001a4565b9050919050565b620001e381620001c4565b8114620001ef57600080fd5b50565b6000815190506200020381620001d8565b92915050565b600080604083850312156200022357620002226200019f565b5b60006200023385828601620001f2565b92505060206200024685828601620001f2565b9150509250929050565b60805160a051617c296200028460003960008181612a32015261393501526000818161113c0152612dd70152617c296000f3fe608060405234801561001057600080fd5b50600436106101da5760003560e01c806397228a7e11610104578063cc36c1e8116100a2578063dd28192811610071578063dd28192814610596578063e0b72cfd146105b2578063f2fde38b146105d0578063fb0882fc146105ec576101da565b8063cc36c1e8146104e8578063ceb6065414610518578063d164e28d14610548578063d2f9f9a714610566576101da565b8063a47c7696116100de578063a47c76961461045c578063bcee30e514610490578063c24f03da146104ae578063c61eb7b4146104cc576101da565b806397228a7e146103f05780639ea3b84e1461040e578063a21a23e41461043e576101da565b806364d51a2a1161017c57806388b12d551161014b57806388b12d551461034f5780638da5cb5b1461037f5780638f23b3261461039d57806396324bd4146103bb576101da565b806364d51a2a146102db578063715018a6146102f95780637341c10c1461030357806376a911bc1461031f576101da565b8063253870ff116101b8578063253870ff1461024b5780632d0354ec146102695780634d6154241461028557806362d14450146102bd576101da565b80630700037d146101df5780630b919eef1461020f57806315c48b841461022d575b600080fd5b6101f960048036038101906101f4919061543e565b61061c565b6040516102069190615484565b60405180910390f35b610217610634565b6040516102249190615484565b60405180910390f35b61023561063a565b60405161024291906154bc565b60405180910390f35b61025361063f565b6040516102609190615595565b60405180910390f35b610283600480360381019061027e9190615806565b610c93565b005b61029f600480360381019061029a91906158df565b611015565b6040516102b499989796959493929190615a3d565b60405180910390f35b6102c561113a565b6040516102d29190615b30565b60405180910390f35b6102e361115e565b6040516102f091906154bc565b60405180910390f35b610301611163565b005b61031d60048036038101906103189190615b77565b611177565b005b6103396004803603810190610334919061543e565b6115ab565b6040516103469190615bb7565b60405180910390f35b610369600480360381019061036491906158df565b61160b565b6040516103769190615d1d565b60405180910390f35b6103876117d6565b6040516103949190615d3f565b60405180910390f35b6103a56117ff565b6040516103b29190615484565b60405180910390f35b6103d560048036038101906103d09190615d86565b611805565b6040516103e796959493929190615dce565b60405180910390f35b6103f86118d6565b6040516104059190615484565b60405180910390f35b61042860048036038101906104239190615e36565b6118dc565b6040516104359190615ec4565b60405180910390f35b6104466119f7565b6040516104539190615bb7565b60405180910390f35b61047660048036038101906104719190615edf565b611b83565b604051610487959493929190615fbb565b60405180910390f35b610498611e10565b6040516104a59190615484565b60405180910390f35b6104b6611e15565b6040516104c39190615484565b60405180910390f35b6104e660048036038101906104e19190616132565b611e1a565b005b61050260048036038101906104fd9190615e36565b61246e565b60405161050f9190615ec4565b60405180910390f35b610532600480360381019061052d9190615d86565b61252d565b60405161053f9190616569565b60405180910390f35b610550612a30565b60405161055d91906165ac565b60405180910390f35b610580600480360381019061057b9190615edf565b612a54565b60405161058d91906165d6565b60405180910390f35b6105b060048036038101906105ab91906165f1565b612cd5565b005b6105ba612f44565b6040516105c79190615484565b60405180910390f35b6105ea60048036038101906105e5919061543e565b612f49565b005b610606600480360381019061060191906167db565b612fcc565b6040516106139190616833565b60405180910390f35b60036020528060005260406000206000915090505481565b60045481565b60c881565b6060600060015467ffffffffffffffff81111561065f5761065e61566b565b5b60405190808252806020026020018201604052801561068d5781602001602082028036833780820191505090505b5090506000805b600154811015610be357600060026000838152602001908152602001600020604051806101200160405290816000820154815260200160018201548152602001600282015481526020016003820154815260200160048201805480602002602001604051908101604052809291908181526020016000905b8282101561082657838290600052602060002090600202016040518060400160405290816000820160009054906101000a900473ffffffffffffffffffffffffffffffffffffffff1673ffffffffffffffffffffffffffffffffffffffff1673ffffffffffffffffffffffffffffffffffffffff1681526020016001820180546107959061687d565b80601f01602080910402602001604051908101604052809291908181526020018280546107c19061687d565b801561080e5780601f106107e35761010080835404028352916020019161080e565b820191906000526020600020905b8154815290600101906020018083116107f157829003601f168201915b5050505050815250508152602001906001019061070c565b505050508152602001600582018054806020026020016040519081016040528092919081815260200182805480156108b357602002820191906000526020600020905b8160009054906101000a900473ffffffffffffffffffffffffffffffffffffffff1673ffffffffffffffffffffffffffffffffffffffff1681526020019060010190808311610869575b5050505050815260200160068201805480602002602001604051908101604052809291908181526020016000905b82821015610adf57838290600052602060002090600402016040518060400160405290816000820180548060200260200160405190810160405280929190818152602001828054801561098957602002820191906000526020600020905b8160009054906101000a900473ffffffffffffffffffffffffffffffffffffffff1673ffffffffffffffffffffffffffffffffffffffff168152602001906001019080831161093f575b5050505050815260200160018201604051806060016040529081600082015481526020016001820180546109bc9061687d565b80601f01602080910402602001604051908101604052809291908181526020018280546109e89061687d565b8015610a355780601f10610a0a57610100808354040283529160200191610a35565b820191906000526020600020905b815481529060010190602001808311610a1857829003601f168201915b5050505050815260200160028201805480602002602001604051908101604052809291908181526020018280548015610ac357602002820191906000526020600020905b8160009054906101000a900473ffffffffffffffffffffffffffffffffffffffff1673ffffffffffffffffffffffffffffffffffffffff1681526020019060010190808311610a79575b50505050508152505081525050815260200190600101906108e1565b5050505081526020016007820160009054906101000a900460ff16151515158152602001600882018054610b129061687d565b80601f0160208091040260200160405190810160405280929190818152602001828054610b3e9061687d565b8015610b8b5780601f10610b6057610100808354040283529160200191610b8b565b820191906000526020600020905b815481529060010190602001808311610b6e57829003601f168201915b50505050508152505090508060e0015115610bcf5781848481518110610bb457610bb36168ae565b5b6020026020010181815250508280610bcb9061690c565b9350505b508080610bdb9061690c565b915050610694565b5060008167ffffffffffffffff811115610c0057610bff61566b565b5b604051908082528060200260200182016040528015610c2e5781602001602082028036833780820191505090505b50905060005b82811015610c8957838181518110610c4f57610c4e6168ae565b5b6020026020010151828281518110610c6a57610c696168ae565b5b6020026020010181815250508080610c819061690c565b915050610c34565b5080935050505090565b610c9b6137c6565b60c861ffff168761ffff161115610cee57868760c86040517fa7386976000000000000000000000000000000000000000000000000000000008152600401610ce593929190616954565b60405180910390fd5b60008213610d3357816040517f09d2037f000000000000000000000000000000000000000000000000000000008152600401610d2a919061699a565b60405180910390fd5b6040518060c001604052808861ffff1681526020018763ffffffff1681526020016000151581526020018663ffffffff1681526020018563ffffffff1681526020018463ffffffff16815250600760008201518160000160006101000a81548161ffff021916908361ffff16021790555060208201518160000160026101000a81548163ffffffff021916908363ffffffff16021790555060408201518160000160066101000a81548160ff02191690831515021790555060608201518160000160076101000a81548163ffffffff021916908363ffffffff160217905550608082015181600001600b6101000a81548163ffffffff021916908363ffffffff16021790555060a082015181600001600f6101000a81548163ffffffff021916908363ffffffff16021790555090505080600860008201518160000160006101000a81548163ffffffff021916908363ffffffff16021790555060208201518160000160046101000a81548163ffffffff021916908363ffffffff16021790555060408201518160000160086101000a81548163ffffffff021916908363ffffffff160217905550606082015181600001600c6101000a81548163ffffffff021916908363ffffffff16021790555060808201518160000160106101000a81548163ffffffff021916908363ffffffff16021790555060a08201518160000160146101000a81548162ffffff021916908362ffffff16021790555060c08201518160000160176101000a81548162ffffff021916908362ffffff16021790555060e082015181600001601a6101000a81548162ffffff021916908362ffffff16021790555061010082015181600001601d6101000a81548162ffffff021916908362ffffff160217905550905050816006819055507fa07515c322bd28ab957a698d96560ad628e53a3fb4d16a3d5756c6cf411942a287878787878760086040516110049796959493929190616c34565b60405180910390a150505050505050565b60096020528060005260406000206000915090508060000160009054906101000a900473ffffffffffffffffffffffffffffffffffffffff16908060000160149054906101000a900460ff16908060010180546110719061687d565b80601f016020809104026020016040519081016040528092919081815260200182805461109d9061687d565b80156110ea5780601f106110bf576101008083540402835291602001916110ea565b820191906000526020600020905b8154815290600101906020018083116110cd57829003601f168201915b5050505050908060020160009054906101000a900467ffffffffffffffff16908060030154908060040154908060050160009054906101000a900461ffff16908060060154908060070154905089565b7f000000000000000000000000000000000000000000000000000000000000000081565b606481565b61116b6137c6565b6111756000613844565b565b816000600b60008367ffffffffffffffff1667ffffffffffffffff16815260200190815260200160002060000160009054906101000a900473ffffffffffffffffffffffffffffffffffffffff169050600073ffffffffffffffffffffffffffffffffffffffff168173ffffffffffffffffffffffffffffffffffffffff160361122d576040517f1f6a65b600000000000000000000000000000000000000000000000000000000815260040160405180910390fd5b8073ffffffffffffffffffffffffffffffffffffffff163373ffffffffffffffffffffffffffffffffffffffff161461129d57806040517fd8a3fb520000000000000000000000000000000000000000000000000000000081526004016112949190615d3f565b60405180910390fd5b600760000160069054906101000a900460ff16156112e7576040517fed3ba6a600000000000000000000000000000000000000000000000000000000815260040160405180910390fd5b606461ffff16600b60008667ffffffffffffffff1667ffffffffffffffff1681526020019081526020016000206002018054905003611352576040517f05a48e0f00000000000000000000000000000000000000000000000000000000815260040160405180910390fd5b6000600a60008573ffffffffffffffffffffffffffffffffffffffff1673ffffffffffffffffffffffffffffffffffffffff16815260200190815260200160002060000160008667ffffffffffffffff1667ffffffffffffffff16815260200190815260200160002060009054906101000a900467ffffffffffffffff1667ffffffffffffffff16036115a5576001600a60008573ffffffffffffffffffffffffffffffffffffffff1673ffffffffffffffffffffffffffffffffffffffff16815260200190815260200160002060000160008667ffffffffffffffff1667ffffffffffffffff16815260200190815260200160002060006101000a81548167ffffffffffffffff021916908367ffffffffffffffff16021790555083600a60008573ffffffffffffffffffffffffffffffffffffffff1673ffffffffffffffffffffffffffffffffffffffff16815260200190815260200160002060010160006101000a81548167ffffffffffffffff021916908367ffffffffffffffff160217905550600b60008567ffffffffffffffff1667ffffffffffffffff168152602001908152602001600020600201839080600181540180825580915050600190039060005260206000200160009091909190916101000a81548173ffffffffffffffffffffffffffffffffffffffff021916908373ffffffffffffffffffffffffffffffffffffffff1602179055508367ffffffffffffffff167f43dc749a04ac8fb825cbd514f7c0e13f13bc6f2ee66043b76629d51776cff8e08460405161159c9190615d3f565b60405180910390a25b50505050565b6000600a60008373ffffffffffffffffffffffffffffffffffffffff1673ffffffffffffffffffffffffffffffffffffffff16815260200190815260200160002060010160009054906101000a900467ffffffffffffffff169050919050565b611613615239565b60096000838152602001908152602001600020604051806101200160405290816000820160009054906101000a900473ffffffffffffffffffffffffffffffffffffffff1673ffffffffffffffffffffffffffffffffffffffff1673ffffffffffffffffffffffffffffffffffffffff1681526020016000820160149054906101000a900460ff1660028111156116ad576116ac61591b565b5b60028111156116bf576116be61591b565b5b81526020016001820180546116d39061687d565b80601f01602080910402602001604051908101604052809291908181526020018280546116ff9061687d565b801561174c5780601f106117215761010080835404028352916020019161174c565b820191906000526020600020905b81548152906001019060200180831161172f57829003601f168201915b505050505081526020016002820160009054906101000a900467ffffffffffffffff1667ffffffffffffffff1667ffffffffffffffff16815260200160038201548152602001600482015481526020016005820160009054906101000a900461ffff1661ffff1661ffff168152602001600682015481526020016007820154815250509050919050565b60008060009054906101000a900473ffffffffffffffffffffffffffffffffffffffff16905090565b60015481565b60026020528060005260406000206000915090508060000154908060010154908060020154908060030154908060070160009054906101000a900460ff16908060080180546118539061687d565b80601f016020809104026020016040519081016040528092919081815260200182805461187f9061687d565b80156118cc5780601f106118a1576101008083540402835291602001916118cc565b820191906000526020600020905b8154815290600101906020018083116118af57829003601f168201915b5050505050905086565b60055481565b6000806118e7613908565b90506000811361192e57806040517f09d2037f000000000000000000000000000000000000000000000000000000008152600401611925919061699a565b60405180910390fd5b6000815a888861193e9190616ca4565b6119489190616cfa565b85670de0b6b3a764000061195c9190616d2e565b6119669190616d2e565b6119709190616db7565b905060008563ffffffff1664e8d4a5100061198b9190616d2e565b9050806b033b2e3c9fd0803ce80000006119a59190616cfa565b8211156119de576040517fe80fa38100000000000000000000000000000000000000000000000000000000815260040160405180910390fd5b80826119ea9190616ca4565b9350505050949350505050565b6000600760000160069054906101000a900460ff1615611a43576040517fed3ba6a600000000000000000000000000000000000000000000000000000000815260040160405180910390fd5b600c600081819054906101000a900467ffffffffffffffff1680929190611a6990616de8565b91906101000a81548167ffffffffffffffff021916908367ffffffffffffffff1602179055505033600b6000600c60009054906101000a900467ffffffffffffffff1667ffffffffffffffff1667ffffffffffffffff16815260200190815260200160002060000160006101000a81548173ffffffffffffffffffffffffffffffffffffffff021916908373ffffffffffffffffffffffffffffffffffffffff160217905550600c60009054906101000a900467ffffffffffffffff1667ffffffffffffffff167f464722b4166576d3dcbba877b999bc35cf911f4eaf434b7eba68fa113951d0bf33604051611b5f9190615d3f565b60405180910390a2600c60009054906101000a900467ffffffffffffffff16905090565b6000806000806060600073ffffffffffffffffffffffffffffffffffffffff16600b60008867ffffffffffffffff1667ffffffffffffffff16815260200190815260200160002060000160009054906101000a900473ffffffffffffffffffffffffffffffffffffffff1673ffffffffffffffffffffffffffffffffffffffff1603611c3b576040517f1f6a65b600000000000000000000000000000000000000000000000000000000815260040160405180910390fd5b600b60008767ffffffffffffffff1667ffffffffffffffff16815260200190815260200160002060030160009054906101000a90046bffffffffffffffffffffffff16600b60008867ffffffffffffffff1667ffffffffffffffff168152602001908152602001600020600301600c9054906101000a90046bffffffffffffffffffffffff16600b60008967ffffffffffffffff1667ffffffffffffffff16815260200190815260200160002060050160009054906101000a900467ffffffffffffffff16600b60008a67ffffffffffffffff1667ffffffffffffffff16815260200190815260200160002060000160009054906101000a900473ffffffffffffffffffffffffffffffffffffffff16600b60008b67ffffffffffffffff1667ffffffffffffffff16815260200190815260200160002060020180805480602002602001604051908101604052809291908181526020018280548015611df657602002820191906000526020600020905b8160009054906101000a900473ffffffffffffffffffffffffffffffffffffffff1673ffffffffffffffffffffffffffffffffffffffff1681526020019060010190808311611dac575b505050505090509450945094509450945091939590929450565b603281565b606481565b60005a9050600060096000868152602001908152602001600020604051806101200160405290816000820160009054906101000a900473ffffffffffffffffffffffffffffffffffffffff1673ffffffffffffffffffffffffffffffffffffffff1673ffffffffffffffffffffffffffffffffffffffff1681526020016000820160149054906101000a900460ff166002811115611ebb57611eba61591b565b5b6002811115611ecd57611ecc61591b565b5b8152602001600182018054611ee19061687d565b80601f0160208091040260200160405190810160405280929190818152602001828054611f0d9061687d565b8015611f5a5780601f10611f2f57610100808354040283529160200191611f5a565b820191906000526020600020905b815481529060010190602001808311611f3d57829003601f168201915b505050505081526020016002820160009054906101000a900467ffffffffffffffff1667ffffffffffffffff1667ffffffffffffffff16815260200160038201548152602001600482015481526020016005820160009054906101000a900461ffff1661ffff1661ffff168152602001600682015481526020016007820154815250509050600081608001510361201d576040517f3688124a00000000000000000000000000000000000000000000000000000000815260040160405180910390fd5b8060c0015161ffff168160a001516120359190616ca4565b431015612077576040517f08c379a000000000000000000000000000000000000000000000000000000000815260040161206e90616e75565b60405180910390fd5b600a8160a001516120889190616ca4565b43116120c0576040517ff06e777a00000000000000000000000000000000000000000000000000000000815260040160405180910390fd5b6001548610612104576040517f08c379a00000000000000000000000000000000000000000000000000000000081526004016120fb90616ee1565b60405180910390fd5b61210d84613a05565b612143576040517f8529df1f00000000000000000000000000000000000000000000000000000000815260040160405180910390fd5b60006002600088815260200190815260200160002090506121ec816005018054806020026020016040519081016040528092919081815260200182805480156121e157602002820191906000526020600020905b8160009054906101000a900473ffffffffffffffffffffffffffffffffffffffff1673ffffffffffffffffffffffffffffffffffffffff1681526020019060010190808311612197575b505050505033613a82565b612222576040517fd9ce719d00000000000000000000000000000000000000000000000000000000815260040160405180910390fd5b600082608001518360a0015160405160200161223f929190616f22565b6040516020818303038152906040529050600061225b82613b09565b905061230461226988613b71565b6122fe85600801805461227b9061687d565b80601f01602080910402602001604051908101604052809291908181526020018280546122a79061687d565b80156122f45780601f106122c9576101008083540402835291602001916122f4565b820191906000526020600020905b8154815290600101906020018083116122d757829003601f168201915b5050505050613c90565b83613d2a565b61233a576040517f8baa579f00000000000000000000000000000000000000000000000000000000815260040160405180910390fd5b6000865167ffffffffffffffff8111156123575761235661566b565b5b6040519080825280602002602001820160405280156123855781602001602082028036833780820191505090505b50905060005b8751811015612413578781815181106123a7576123a66168ae565b5b6020026020010151600001518282815181106123c6576123c56168ae565b5b602002602001019073ffffffffffffffffffffffffffffffffffffffff16908173ffffffffffffffffffffffffffffffffffffffff1681525050808061240b9061690c565b91505061238b565b506000886040516020016124279190615484565b6040516020818303038152906040528051906020012060001c9050806005819055506124568a828d8a8a613f51565b50506124618261476c565b5050505050505050505050565b600080612479613908565b9050600081136124c057806040517f09d2037f0000000000000000000000000000000000000000000000000000000081526004016124b7919061699a565b60405180910390fd5b60008187876124cf9190616ca4565b85670de0b6b3a76400006124e39190616d2e565b6124ed9190616d2e565b6124f79190616db7565b905060008563ffffffff1664e8d4a510006125129190616d2e565b905080826125209190616ca4565b9350505050949350505050565b6125356152bb565b60026000838152602001908152602001600020604051806101200160405290816000820154815260200160018201548152602001600282015481526020016003820154815260200160048201805480602002602001604051908101604052809291908181526020016000905b828210156126bb57838290600052602060002090600202016040518060400160405290816000820160009054906101000a900473ffffffffffffffffffffffffffffffffffffffff1673ffffffffffffffffffffffffffffffffffffffff1673ffffffffffffffffffffffffffffffffffffffff16815260200160018201805461262a9061687d565b80601f01602080910402602001604051908101604052809291908181526020018280546126569061687d565b80156126a35780601f10612678576101008083540402835291602001916126a3565b820191906000526020600020905b81548152906001019060200180831161268657829003601f168201915b505050505081525050815260200190600101906125a1565b5050505081526020016005820180548060200260200160405190810160405280929190818152602001828054801561274857602002820191906000526020600020905b8160009054906101000a900473ffffffffffffffffffffffffffffffffffffffff1673ffffffffffffffffffffffffffffffffffffffff16815260200190600101908083116126fe575b5050505050815260200160068201805480602002602001604051908101604052809291908181526020016000905b8282101561297457838290600052602060002090600402016040518060400160405290816000820180548060200260200160405190810160405280929190818152602001828054801561281e57602002820191906000526020600020905b8160009054906101000a900473ffffffffffffffffffffffffffffffffffffffff1673ffffffffffffffffffffffffffffffffffffffff16815260200190600101908083116127d4575b5050505050815260200160018201604051806060016040529081600082015481526020016001820180546128519061687d565b80601f016020809104026020016040519081016040528092919081815260200182805461287d9061687d565b80156128ca5780601f1061289f576101008083540402835291602001916128ca565b820191906000526020600020905b8154815290600101906020018083116128ad57829003601f168201915b505050505081526020016002820180548060200260200160405190810160405280929190818152602001828054801561295857602002820191906000526020600020905b8160009054906101000a900473ffffffffffffffffffffffffffffffffffffffff1673ffffffffffffffffffffffffffffffffffffffff168152602001906001019080831161290e575b5050505050815250508152505081526020019060010190612776565b5050505081526020016007820160009054906101000a900460ff161515151581526020016008820180546129a79061687d565b80601f01602080910402602001604051908101604052809291908181526020018280546129d39061687d565b8015612a205780601f106129f557610100808354040283529160200191612a20565b820191906000526020600020905b815481529060010190602001808311612a0357829003601f168201915b5050505050815250509050919050565b7f000000000000000000000000000000000000000000000000000000000000000081565b6000806008604051806101200160405290816000820160009054906101000a900463ffffffff1663ffffffff1663ffffffff1681526020016000820160049054906101000a900463ffffffff1663ffffffff1663ffffffff1681526020016000820160089054906101000a900463ffffffff1663ffffffff1663ffffffff16815260200160008201600c9054906101000a900463ffffffff1663ffffffff1663ffffffff1681526020016000820160109054906101000a900463ffffffff1663ffffffff1663ffffffff1681526020016000820160149054906101000a900462ffffff1662ffffff1662ffffff1681526020016000820160179054906101000a900462ffffff1662ffffff1662ffffff16815260200160008201601a9054906101000a900462ffffff1662ffffff1662ffffff16815260200160008201601d9054906101000a900462ffffff1662ffffff1662ffffff168152505090508267ffffffffffffffff16600011158015612bdf57508060a0015162ffffff168367ffffffffffffffff1611155b15612bf1578060000151915050612cd0565b8267ffffffffffffffff168160a0015162ffffff16108015612c2657508060c0015162ffffff168367ffffffffffffffff1611155b15612c38578060200151915050612cd0565b8267ffffffffffffffff168160c0015162ffffff16108015612c6d57508060e0015162ffffff168367ffffffffffffffff1611155b15612c7f578060400151915050612cd0565b8267ffffffffffffffff168160e0015162ffffff16108015612cb5575080610100015162ffffff168367ffffffffffffffff1611155b15612cc7578060600151915050612cd0565b80608001519150505b919050565b600760000160069054906101000a900460ff1615612d1f576040517fed3ba6a600000000000000000000000000000000000000000000000000000000815260040160405180910390fd5b600073ffffffffffffffffffffffffffffffffffffffff16600b60008467ffffffffffffffff1667ffffffffffffffff16815260200190815260200160002060000160009054906101000a900473ffffffffffffffffffffffffffffffffffffffff1673ffffffffffffffffffffffffffffffffffffffff1603612dcf576040517f1f6a65b600000000000000000000000000000000000000000000000000000000815260040160405180910390fd5b612e1c3330837f000000000000000000000000000000000000000000000000000000000000000073ffffffffffffffffffffffffffffffffffffffff16614857909392919063ffffffff16565b6000600b60008467ffffffffffffffff1667ffffffffffffffff16815260200190815260200160002060030160009054906101000a90046bffffffffffffffffffffffff166bffffffffffffffffffffffff16905081600b60008567ffffffffffffffff1667ffffffffffffffff16815260200190815260200160002060030160008282829054906101000a90046bffffffffffffffffffffffff16612ec29190616f4e565b92506101000a8154816bffffffffffffffffffffffff02191690836bffffffffffffffffffffffff1602179055508267ffffffffffffffff167fd39ec07f4e209f627a4c427971473820dc129761ba28de8906bd56f57101d4f8828484612f299190616ca4565b604051612f37929190616f90565b60405180910390a2505050565b600a81565b612f516137c6565b600073ffffffffffffffffffffffffffffffffffffffff168173ffffffffffffffffffffffffffffffffffffffff1603612fc0576040517f08c379a0000000000000000000000000000000000000000000000000000000008152600401612fb79061702b565b60405180910390fd5b612fc981613844565b50565b60003273ffffffffffffffffffffffffffffffffffffffff163373ffffffffffffffffffffffffffffffffffffffff160361303c576040517fc26368fd000000000000000000000000000000000000000000000000000000008152600401613033906170e3565b60405180910390fd5b600073ffffffffffffffffffffffffffffffffffffffff16600b6000846040015167ffffffffffffffff1667ffffffffffffffff16815260200190815260200160002060000160009054906101000a900473ffffffffffffffffffffffffffffffffffffffff1673ffffffffffffffffffffffffffffffffffffffff16036130f0576040517f1f6a65b600000000000000000000000000000000000000000000000000000000815260040160405180910390fd5b6000600a60003373ffffffffffffffffffffffffffffffffffffffff1673ffffffffffffffffffffffffffffffffffffffff1681526020019081526020016000206000016000846040015167ffffffffffffffff1667ffffffffffffffff16815260200190815260200160002060009054906101000a900467ffffffffffffffff16905060008167ffffffffffffffff16036131c9578260400151336040517ff0019fe60000000000000000000000000000000000000000000000000000000081526004016131c0929190617103565b60405180910390fd5b60006131d36148e0565b9050806004819055506000600a60003373ffffffffffffffffffffffffffffffffffffffff1673ffffffffffffffffffffffffffffffffffffffff1681526020019081526020016000206000016000866040015167ffffffffffffffff1667ffffffffffffffff16815260200190815260200160002060009054906101000a900467ffffffffffffffff169050600061327b8660600151338467ffffffffffffffff16614980565b90506001600a60003373ffffffffffffffffffffffffffffffffffffffff1673ffffffffffffffffffffffffffffffffffffffff1681526020019081526020016000206000016000886040015167ffffffffffffffff1667ffffffffffffffff16815260200190815260200160002060008282829054906101000a900467ffffffffffffffff1661330c919061712c565b92506101000a81548167ffffffffffffffff021916908367ffffffffffffffff160217905550600061333d826149b9565b90506000600b6000896040015167ffffffffffffffff1667ffffffffffffffff16815260200190815260200160002060050160009054906101000a900467ffffffffffffffff16905060006133cb8960a001516007600001600f9054906101000a900463ffffffff1663ffffffff166133c16001866133bc919061712c565b612a54565b8c60c0015161246e565b9050806bffffffffffffffffffffffff16600b60008b6040015167ffffffffffffffff1667ffffffffffffffff168152602001908152602001600020600301600c9054906101000a90046bffffffffffffffffffffffff16600b60008c6040015167ffffffffffffffff1667ffffffffffffffff16815260200190815260200160002060030160009054906101000a90046bffffffffffffffffffffffff16613474919061716a565b6bffffffffffffffffffffffff1610156134ba576040517f8894bd5e00000000000000000000000000000000000000000000000000000000815260040160405180910390fd5b80600b60008b6040015167ffffffffffffffff1667ffffffffffffffff168152602001908152602001600020600301600c8282829054906101000a90046bffffffffffffffffffffffff1661350f9190616f4e565b92506101000a8154816bffffffffffffffffffffffff02191690836bffffffffffffffffffffffff16021790555080600b60008b6040015167ffffffffffffffff1667ffffffffffffffff168152602001908152602001600020600401600085815260200190815260200160002060006101000a8154816bffffffffffffffffffffffff02191690836bffffffffffffffffffffffff160217905550600073ffffffffffffffffffffffffffffffffffffffff166009600085815260200190815260200160002060000160009054906101000a900473ffffffffffffffffffffffffffffffffffffffff1673ffffffffffffffffffffffffffffffffffffffff161461361e5761361d61719e565b5b6000600960008581526020019081526020016000209050338160000160006101000a81548173ffffffffffffffffffffffffffffffffffffffff021916908373ffffffffffffffffffffffffffffffffffffffff16021790555089600001518160000160146101000a81548160ff021916908360028111156136a3576136a261591b565b5b021790555089602001518160010190816136bd919061736f565b5089604001518160020160006101000a81548167ffffffffffffffff021916908367ffffffffffffffff16021790555084816003018190555043816004018190555089608001518160050160006101000a81548161ffff021916908361ffff1602179055508960a0015181600601819055508960c001518160070181905550867fa214dda13f90e3098f56c612a31d381b2fac7b48853bf49937773c47174dfe4785338460020160009054906101000a900467ffffffffffffffff1685600301548660050160009054906101000a900461ffff16876006015488600701546040516137ae9796959493929190617441565b60405180910390a28398505050505050505050919050565b6137ce6149e9565b73ffffffffffffffffffffffffffffffffffffffff166137ec6117d6565b73ffffffffffffffffffffffffffffffffffffffff1614613842576040517f08c379a0000000000000000000000000000000000000000000000000000000008152600401613839906174fc565b60405180910390fd5b565b60008060009054906101000a900473ffffffffffffffffffffffffffffffffffffffff169050816000806101000a81548173ffffffffffffffffffffffffffffffffffffffff021916908373ffffffffffffffffffffffffffffffffffffffff1602179055508173ffffffffffffffffffffffffffffffffffffffff168173ffffffffffffffffffffffffffffffffffffffff167f8be0079c531659141344cd1fd0a4f28419497f9722a3daafe3b4186f6b6457e060405160405180910390a35050565b600080600760000160079054906101000a900463ffffffff1690506000808263ffffffff161190506000807f000000000000000000000000000000000000000000000000000000000000000073ffffffffffffffffffffffffffffffffffffffff1663feaf968c6040518163ffffffff1660e01b815260040160a060405180830381865afa15801561399e573d6000803e3d6000fd5b505050506040513d601f19601f820116820180604052508101906139c29190617588565b90919293509091505080935081925050508280156139f0575081426139e79190616cfa565b8463ffffffff16105b156139fb5760065490505b8094505050505090565b6000807f3fffffffffffffffffffffffffffffffffffffffffffffffffffffffffffffff831690507f30644e72e131a029b85045b68181585d97816a916871ca8d3c208c16d87cfd478110613a5e576000915050613a7d565b60008103613a70576000915050613a7d565b613a79816149f1565b9150505b919050565b600080600090505b8351811015613afd578273ffffffffffffffffffffffffffffffffffffffff16848281518110613abd57613abc6168ae565b5b602002602001015173ffffffffffffffffffffffffffffffffffffffff1603613aea576001915050613b03565b8080613af59061690c565b915050613a8a565b50600090505b92915050565b613b11615309565b600080838051906020012090505b600115613b6a57613b2f81614aec565b809350819450505081613b6a5780604051602001613b4d9190617624565b604051602081830303815290604052805190602001209050613b1f565b5050919050565b613b79615309565b60007f3fffffffffffffffffffffffffffffffffffffffffffffffffffffffffffffff83169050600060fe84901c9050600180821603613be5576040517f53f4c77c00000000000000000000000000000000000000000000000000000000815260040160405180910390fd5b6000613bf083614bea565b5080915050600160027f30644e72e131a029b85045b68181585d97816a916871ca8d3c208c16d87cfd47613c249190616db7565b8211613c31576000613c34565b60015b60ff16600184901c1803613c7157807f30644e72e131a029b85045b68181585d97816a916871ca8d3c208c16d87cfd47613c6e9190616cfa565b90505b6040518060400160405280848152602001828152509350505050919050565b613c9861532b565b6080825114613cdc576040517f08c379a0000000000000000000000000000000000000000000000000000000008152600401613cd39061768b565b60405180910390fd5b60008060008060208601519350604086015192506060860151915060808601519050604051806080016040528085815260200184815260200183815260200182815250945050505050919050565b60008060405180610180016040528086600060028110613d4d57613d4c6168ae565b5b6020020151815260200186600160028110613d6b57613d6a6168ae565b5b602002015181526020017f198e9393920d483a7260bfb731fb5d25f1aa493335a9e71297e485b7aef312c281526020017f1800deef121f1e76426a00665e5c4479674322d4f75edadd46debd5cd992f6ed81526020017f275dc4a288d1afb3cbb1ac09187524c7db36395df7be3b99e673b13a075a65ec81526020017f1d9befcd05a5323e6da4d435f3b617cdb3af83285c2df711ef39c01571827f9d815260200184600060028110613e2157613e206168ae565b5b6020020151815260200184600160028110613e3f57613e3e6168ae565b5b6020020151815260200185600160048110613e5d57613e5c6168ae565b5b6020020151815260200185600060048110613e7b57613e7a6168ae565b5b6020020151815260200185600360048110613e9957613e986168ae565b5b6020020151815260200185600260048110613eb757613eb66168ae565b5b60200201518152509050613ec961534d565b60006020826101808560086107d05a03fa90508060008103613ee757fe5b5080613f28576040517f08c379a0000000000000000000000000000000000000000000000000000000008152600401613f1f906176d1565b60405180910390fd5b600082600060018110613f3e57613f3d6168ae565b5b6020020151141593505050509392505050565b6000806000606060006002811115613f6c57613f6b61591b565b5b85602001516002811115613f8357613f8261591b565b5b03614007576394985ddd60e01b8989604051602401613fa39291906176f1565b604051602081830303815290604052907bffffffffffffffffffffffffffffffffffffffffffffffffffffffff19166020820180517bffffffffffffffffffffffffffffffffffffffffffffffffffffffff83818316178352505050509050614275565b6001600281111561401b5761401a61591b565b5b856020015160028111156140325761403161591b565b5b036141975760008560400151806020019051810190614051919061772f565b905060008163ffffffff1667ffffffffffffffff8111156140755761407461566b565b5b6040519080825280602002602001820160405280156140a35781602001602082028036833780820191505090505b50905060005b8263ffffffff16811015614115578a816040516020016140ca929190616f90565b6040516020818303038152906040528051906020012060001c8282815181106140f6576140f56168ae565b5b602002602001018181525050808061410d9061690c565b9150506140a9565b506375bf929b60e01b8b8260405160240161413192919061775c565b604051602081830303815290604052907bffffffffffffffffffffffffffffffffffffffffffffffffffffffff19166020820180517bffffffffffffffffffffffffffffffffffffffffffffffffffffffff838183161783525050505092505050614274565b6002808111156141aa576141a961591b565b5b856020015160028111156141c1576141c061591b565b5b0361427357600085604001518060200190518101906141e0919061772f565b905060006141f48263ffffffff168b614c9f565b9050639e5836f660e01b8b8260405160240161421192919061775c565b604051602081830303815290604052907bffffffffffffffffffffffffffffffffffffffffffffffffffffffff19166020820180517bffffffffffffffffffffffffffffffffffffffffffffffffffffffff8381831617835250505050925050505b5b5b600960008a8152602001908152602001600020600080820160006101000a81549073ffffffffffffffffffffffffffffffffffffffff02191690556000820160146101000a81549060ff02191690556001820160006142d4919061536f565b6002820160006101000a81549067ffffffffffffffff0219169055600382016000905560048201600090556005820160006101000a81549061ffff02191690556006820160009055600782016000905550506001600760000160066101000a81548160ff0219169083151502179055506143578560e00151866000015183614e0f565b92506000600760000160066101000a81548160ff0219169083151502179055506000600b6000876060015167ffffffffffffffff1667ffffffffffffffff16815260200190815260200160002060050160009054906101000a900467ffffffffffffffff1690506001600b6000886060015167ffffffffffffffff1667ffffffffffffffff16815260200190815260200160002060050160008282829054906101000a900467ffffffffffffffff16614410919061712c565b92506101000a81548167ffffffffffffffff021916908367ffffffffffffffff160217905550614465876007600001600b9054906101000a900463ffffffff1663ffffffff1661445f84612a54565b3a6118dc565b9450846bffffffffffffffffffffffff16600b6000886060015167ffffffffffffffff1667ffffffffffffffff16815260200190815260200160002060030160009054906101000a90046bffffffffffffffffffffffff166bffffffffffffffffffffffff161015614503576040517f964d765f00000000000000000000000000000000000000000000000000000000815260040160405180910390fd5b600b6000876060015167ffffffffffffffff1667ffffffffffffffff16815260200190815260200160002060040160008b815260200190815260200160002060009054906101000a90046bffffffffffffffffffffffff16600b6000886060015167ffffffffffffffff1667ffffffffffffffff168152602001908152602001600020600301600c8282829054906101000a90046bffffffffffffffffffffffff166145af919061716a565b92506101000a8154816bffffffffffffffffffffffff02191690836bffffffffffffffffffffffff160217905550600b6000876060015167ffffffffffffffff1667ffffffffffffffff16815260200190815260200160002060040160008b815260200190815260200160002060006101000a8154906bffffffffffffffffffffffff021916905584600b6000886060015167ffffffffffffffff1667ffffffffffffffff16815260200190815260200160002060030160008282829054906101000a90046bffffffffffffffffffffffff1661468c919061716a565b92506101000a8154816bffffffffffffffffffffffff02191690836bffffffffffffffffffffffff16021790555084600d60008a815260200190815260200160002060008282829054906101000a90046bffffffffffffffffffffffff166146f49190616f4e565b92506101000a8154816bffffffffffffffffffffffff02191690836bffffffffffffffffffffffff1602179055507fd88a4a5eabb4a3393105ffff9b66be266f127818a80fae1b049c0acfdbf95e6f8a8a878760405161475794939291906177bd565b60405180910390a15050509550959350505050565b6064600360003373ffffffffffffffffffffffffffffffffffffffff1673ffffffffffffffffffffffffffffffffffffffff16815260200190815260200160002060008282546147bc9190616ca4565b9250508190555060005b8151811015614853576032600360008484815181106147e8576147e76168ae565b5b602002602001015173ffffffffffffffffffffffffffffffffffffffff1673ffffffffffffffffffffffffffffffffffffffff16815260200190815260200160002060008282546148399190616ca4565b92505081905550808061484b9061690c565b9150506147c6565b5050565b6148da846323b872dd60e01b85858560405160240161487893929190617802565b604051602081830303815290604052907bffffffffffffffffffffffffffffffffffffffffffffffffffffffff19166020820180517bffffffffffffffffffffffffffffffffffffffffffffffffffffffff8381831617835250505050614e5c565b50505050565b6000806148eb61063f565b90506000815103614928576040517f6905ab6700000000000000000000000000000000000000000000000000000000815260040160405180910390fd5b6000600154600160045461493c9190616ca4565b6149469190617839565b90505b6149538282614f23565b614978576001546001826149679190616ca4565b6149719190617839565b9050614949565b809250505090565b60008383836040516020016149979392919061786a565b6040516020818303038152906040528051906020012060001c90509392505050565b6000816040516020016149cc91906178a1565b604051602081830303815290604052805190602001209050919050565b600033905090565b600080827f30644e72e131a029b85045b68181585d97816a916871ca8d3c208c16d87cfd478182097f30644e72e131a029b85045b68181585d97816a916871ca8d3c208c16d87cfd4782820990507f30644e72e131a029b85045b68181585d97816a916871ca8d3c208c16d87cfd4760038208905060405160208152602080820152602060408201528160608201527f183227397098d014dc2822db40c0ac2ecbc0b548b438e5469e10460b6c3e7ea360808201527f30644e72e131a029b85045b68181585d97816a916871ca8d3c208c16d87cfd4760a082015260208160c08360056107d05a03fa93508051600114945050505050919050565b614af4615309565b60008060007f30644e72e131a029b85045b68181585d97816a916871ca8d3c208c16d87cfd478560001c614b289190617839565b9050614b3381614bea565b80945081935050508215614be3578084600060028110614b5657614b556168ae565b5b60200201818152505060027f30644e72e131a029b85045b68181585d97816a916871ca8d3c208c16d87cfd47614b8c9190616db7565b8211614b985781614bc5565b817f30644e72e131a029b85045b68181585d97816a916871ca8d3c208c16d87cfd47614bc49190616cfa565b5b84600160028110614bd957614bd86168ae565b5b6020020181815250505b5050915091565b60008060007f30644e72e131a029b85045b68181585d97816a916871ca8d3c208c16d87cfd4780614c1e57614c1d616d88565b5b84850990507f30644e72e131a029b85045b68181585d97816a916871ca8d3c208c16d87cfd4780614c5257614c51616d88565b5b84820990507f30644e72e131a029b85045b68181585d97816a916871ca8d3c208c16d87cfd4780614c8657614c85616d88565b5b600382089050614c9581614f7e565b9250925050915091565b606060008367ffffffffffffffff811115614cbd57614cbc61566b565b5b604051908082528060200260200182016040528015614ceb5781602001602082028036833780820191505090505b50905060005b84811015614d2c5780828281518110614d0d57614d0c6168ae565b5b6020026020010181815250508080614d249061690c565b915050614cf1565b506000815190506000805b600083614d43906178bc565b9350831115614e02578286614d589190617839565b915085604051602001614d6b9190615484565b6040516020818303038152906040528051906020012060001c9550838381518110614d9957614d986168ae565b5b60200260200101519050838281518110614db657614db56168ae565b5b6020026020010151848481518110614dd157614dd06168ae565b5b60200260200101818152505080848381518110614df157614df06168ae565b5b602002602001018181525050614d37565b8394505050505092915050565b60005a611388811015614e2157600080fd5b611388810390508460408204820311614e3957600080fd5b833b614e4457600080fd5b6000808451602086016000888af19150509392505050565b6000614ebe826040518060400160405280602081526020017f5361666545524332303a206c6f772d6c6576656c2063616c6c206661696c65648152508573ffffffffffffffffffffffffffffffffffffffff1661506c9092919063ffffffff16565b9050600081511115614f1e5780806020019051810190614ede9190617911565b614f1d576040517f08c379a0000000000000000000000000000000000000000000000000000000008152600401614f14906179b0565b60405180910390fd5b5b505050565b600080600090505b8351811015614f725782848281518110614f4857614f476168ae565b5b602002602001015103614f5f576001915050614f78565b8080614f6a9061690c565b915050614f2b565b50600090505b92915050565b600080600060405160208152602080820152602060408201528460608201527f0c19139cb84c680a6e14116da060561765e05aa45a1c72a34f082305b61f3f5260808201527f30644e72e131a029b85045b68181585d97816a916871ca8d3c208c16d87cfd4760a082015260208160c08360056107d05a03fa9150805193507f30644e72e131a029b85045b68181585d97816a916871ca8d3c208c16d87cfd47848509851492505080615066576040517f08c379a000000000000000000000000000000000000000000000000000000000815260040161505d90617a1c565b60405180910390fd5b50915091565b606061507b8484600085615084565b90509392505050565b6060824710156150c9576040517f08c379a00000000000000000000000000000000000000000000000000000000081526004016150c090617aae565b60405180910390fd5b6000808673ffffffffffffffffffffffffffffffffffffffff1685876040516150f29190617b0a565b60006040518083038185875af1925050503d806000811461512f576040519150601f19603f3d011682016040523d82523d6000602084013e615134565b606091505b509150915061514587838387615151565b92505050949350505050565b606083156151b35760008351036151ab5761516b856151c6565b6151aa576040517f08c379a00000000000000000000000000000000000000000000000000000000081526004016151a190617b6d565b60405180910390fd5b5b8290506151be565b6151bd83836151e9565b5b949350505050565b6000808273ffffffffffffffffffffffffffffffffffffffff163b119050919050565b6000825111156151fc5781518083602001fd5b806040517f08c379a00000000000000000000000000000000000000000000000000000000081526004016152309190617bd1565b60405180910390fd5b604051806101200160405280600073ffffffffffffffffffffffffffffffffffffffff168152602001600060028111156152765761527561591b565b5b815260200160608152602001600067ffffffffffffffff1681526020016000815260200160008152602001600061ffff16815260200160008152602001600081525090565b60405180610120016040528060008152602001600081526020016000815260200160008152602001606081526020016060815260200160608152602001600015158152602001606081525090565b6040518060400160405280600290602082028036833780820191505090505090565b6040518060800160405280600490602082028036833780820191505090505090565b6040518060200160405280600190602082028036833780820191505090505090565b50805461537b9061687d565b6000825580601f1061538d57506153ac565b601f0160209004906000526020600020908101906153ab91906153af565b5b50565b5b808211156153c85760008160009055506001016153b0565b5090565b6000604051905090565b600080fd5b600080fd5b600073ffffffffffffffffffffffffffffffffffffffff82169050919050565b600061540b826153e0565b9050919050565b61541b81615400565b811461542657600080fd5b50565b60008135905061543881615412565b92915050565b600060208284031215615454576154536153d6565b5b600061546284828501615429565b91505092915050565b6000819050919050565b61547e8161546b565b82525050565b60006020820190506154996000830184615475565b92915050565b600061ffff82169050919050565b6154b68161549f565b82525050565b60006020820190506154d160008301846154ad565b92915050565b600081519050919050565b600082825260208201905092915050565b6000819050602082019050919050565b61550c8161546b565b82525050565b600061551e8383615503565b60208301905092915050565b6000602082019050919050565b6000615542826154d7565b61554c81856154e2565b9350615557836154f3565b8060005b8381101561558857815161556f8882615512565b975061557a8361552a565b92505060018101905061555b565b5085935050505092915050565b600060208201905081810360008301526155af8184615537565b905092915050565b6155c08161549f565b81146155cb57600080fd5b50565b6000813590506155dd816155b7565b92915050565b600063ffffffff82169050919050565b6155fc816155e3565b811461560757600080fd5b50565b600081359050615619816155f3565b92915050565b6000819050919050565b6156328161561f565b811461563d57600080fd5b50565b60008135905061564f81615629565b92915050565b600080fd5b6000601f19601f8301169050919050565b7f4e487b7100000000000000000000000000000000000000000000000000000000600052604160045260246000fd5b6156a38261565a565b810181811067ffffffffffffffff821117156156c2576156c161566b565b5b80604052505050565b60006156d56153cc565b90506156e1828261569a565b919050565b600080fd5b600062ffffff82169050919050565b615703816156eb565b811461570e57600080fd5b50565b600081359050615720816156fa565b92915050565b6000610120828403121561573d5761573c615655565b5b6157486101206156cb565b905060006157588482850161560a565b600083015250602061576c8482850161560a565b60208301525060406157808482850161560a565b60408301525060606157948482850161560a565b60608301525060806157a88482850161560a565b60808301525060a06157bc84828501615711565b60a08301525060c06157d084828501615711565b60c08301525060e06157e484828501615711565b60e0830152506101006157f984828501615711565b6101008301525092915050565b60008060008060008060006101e0888a031215615826576158256153d6565b5b60006158348a828b016155ce565b97505060206158458a828b0161560a565b96505060406158568a828b0161560a565b95505060606158678a828b0161560a565b94505060806158788a828b0161560a565b93505060a06158898a828b01615640565b92505060c061589a8a828b01615726565b91505092959891949750929550565b6000819050919050565b6158bc816158a9565b81146158c757600080fd5b50565b6000813590506158d9816158b3565b92915050565b6000602082840312156158f5576158f46153d6565b5b6000615903848285016158ca565b91505092915050565b61591581615400565b82525050565b7f4e487b7100000000000000000000000000000000000000000000000000000000600052602160045260246000fd5b6003811061595b5761595a61591b565b5b50565b600081905061596c8261594a565b919050565b600061597c8261595e565b9050919050565b61598c81615971565b82525050565b600081519050919050565b600082825260208201905092915050565b60005b838110156159cc5780820151818401526020810190506159b1565b838111156159db576000848401525b50505050565b60006159ec82615992565b6159f6818561599d565b9350615a068185602086016159ae565b615a0f8161565a565b840191505092915050565b600067ffffffffffffffff82169050919050565b615a3781615a1a565b82525050565b600061012082019050615a53600083018c61590c565b615a60602083018b615983565b8181036040830152615a72818a6159e1565b9050615a816060830189615a2e565b615a8e6080830188615475565b615a9b60a0830187615475565b615aa860c08301866154ad565b615ab560e0830185615475565b615ac3610100830184615475565b9a9950505050505050505050565b6000819050919050565b6000615af6615af1615aec846153e0565b615ad1565b6153e0565b9050919050565b6000615b0882615adb565b9050919050565b6000615b1a82615afd565b9050919050565b615b2a81615b0f565b82525050565b6000602082019050615b456000830184615b21565b92915050565b615b5481615a1a565b8114615b5f57600080fd5b50565b600081359050615b7181615b4b565b92915050565b60008060408385031215615b8e57615b8d6153d6565b5b6000615b9c85828601615b62565b9250506020615bad85828601615429565b9150509250929050565b6000602082019050615bcc6000830184615a2e565b92915050565b615bdb81615400565b82525050565b615bea81615971565b82525050565b600082825260208201905092915050565b6000615c0c82615992565b615c168185615bf0565b9350615c268185602086016159ae565b615c2f8161565a565b840191505092915050565b615c4381615a1a565b82525050565b615c528161549f565b82525050565b600061012083016000830151615c716000860182615bd2565b506020830151615c846020860182615be1565b5060408301518482036040860152615c9c8282615c01565b9150506060830151615cb16060860182615c3a565b506080830151615cc46080860182615503565b5060a0830151615cd760a0860182615503565b5060c0830151615cea60c0860182615c49565b5060e0830151615cfd60e0860182615503565b50610100830151615d12610100860182615503565b508091505092915050565b60006020820190508181036000830152615d378184615c58565b905092915050565b6000602082019050615d54600083018461590c565b92915050565b615d638161546b565b8114615d6e57600080fd5b50565b600081359050615d8081615d5a565b92915050565b600060208284031215615d9c57615d9b6153d6565b5b6000615daa84828501615d71565b91505092915050565b60008115159050919050565b615dc881615db3565b82525050565b600060c082019050615de36000830189615475565b615df06020830188615475565b615dfd6040830187615475565b615e0a6060830186615475565b615e176080830185615dbf565b81810360a0830152615e2981846159e1565b9050979650505050505050565b60008060008060808587031215615e5057615e4f6153d6565b5b6000615e5e87828801615d71565b9450506020615e6f87828801615d71565b9350506040615e808782880161560a565b9250506060615e9187828801615d71565b91505092959194509250565b60006bffffffffffffffffffffffff82169050919050565b615ebe81615e9d565b82525050565b6000602082019050615ed96000830184615eb5565b92915050565b600060208284031215615ef557615ef46153d6565b5b6000615f0384828501615b62565b91505092915050565b600081519050919050565b600082825260208201905092915050565b6000819050602082019050919050565b6000615f448383615bd2565b60208301905092915050565b6000602082019050919050565b6000615f6882615f0c565b615f728185615f17565b9350615f7d83615f28565b8060005b83811015615fae578151615f958882615f38565b9750615fa083615f50565b925050600181019050615f81565b5085935050505092915050565b600060a082019050615fd06000830188615eb5565b615fdd6020830187615eb5565b615fea6040830186615a2e565b615ff7606083018561590c565b81810360808301526160098184615f5d565b90509695505050505050565b600080fd5b600067ffffffffffffffff8211156160355761603461566b565b5b602082029050602081019050919050565b600080fd5b60006040828403121561606157616060615655565b5b61606b60406156cb565b9050600061607b84828501615429565b600083015250602061608f84828501615d71565b60208301525092915050565b60006160ae6160a98461601a565b6156cb565b905080838252602082019050604084028301858111156160d1576160d0616046565b5b835b818110156160fa57806160e6888261604b565b8452602084019350506040810190506160d3565b5050509392505050565b600082601f83011261611957616118616015565b5b813561612984826020860161609b565b91505092915050565b6000806000806080858703121561614c5761614b6153d6565b5b600061615a87828801615d71565b945050602061616b878288016158ca565b935050604061617c87828801615d71565b925050606085013567ffffffffffffffff81111561619d5761619c6153db565b5b6161a987828801616104565b91505092959194509250565b600081519050919050565b600082825260208201905092915050565b6000819050602082019050919050565b60006040830160008301516161f96000860182615bd2565b50602083015184820360208601526162118282615c01565b9150508091505092915050565b600061622a83836161e1565b905092915050565b6000602082019050919050565b600061624a826161b5565b61625481856161c0565b935083602082028501616266856161d1565b8060005b858110156162a25784840389528151616283858261621e565b945061628e83616232565b925060208a0199505060018101905061626a565b50829750879550505050505092915050565b600082825260208201905092915050565b60006162d082615f0c565b6162da81856162b4565b93506162e583615f28565b8060005b838110156163165781516162fd8882615f38565b975061630883615f50565b9250506001810190506162e9565b5085935050505092915050565b600081519050919050565b600082825260208201905092915050565b6000819050602082019050919050565b60006060830160008301516163676000860182615503565b506020830151848203602086015261637f8282615c01565b9150506040830151848203604086015261639982826162c5565b9150508091505092915050565b600060408301600083015184820360008601526163c382826162c5565b915050602083015184820360208601526163dd828261634f565b9150508091505092915050565b60006163f683836163a6565b905092915050565b6000602082019050919050565b600061641682616323565b616420818561632e565b9350836020820285016164328561633f565b8060005b8581101561646e578484038952815161644f85826163ea565b945061645a836163fe565b925060208a01995050600181019050616436565b50829750879550505050505092915050565b61648981615db3565b82525050565b6000610120830160008301516164a86000860182615503565b5060208301516164bb6020860182615503565b5060408301516164ce6040860182615503565b5060608301516164e16060860182615503565b50608083015184820360808601526164f9828261623f565b91505060a083015184820360a086015261651382826162c5565b91505060c083015184820360c086015261652d828261640b565b91505060e083015161654260e0860182616480565b5061010083015184820361010086015261655c8282615c01565b9150508091505092915050565b60006020820190508181036000830152616583818461648f565b905092915050565b600061659682615afd565b9050919050565b6165a68161658b565b82525050565b60006020820190506165c1600083018461659d565b92915050565b6165d0816155e3565b82525050565b60006020820190506165eb60008301846165c7565b92915050565b60008060408385031215616608576166076153d6565b5b600061661685828601615b62565b925050602061662785828601615d71565b9150509250929050565b6003811061663e57600080fd5b50565b60008135905061665081616631565b92915050565b600080fd5b600067ffffffffffffffff8211156166765761667561566b565b5b61667f8261565a565b9050602081019050919050565b82818337600083830152505050565b60006166ae6166a98461665b565b6156cb565b9050828152602081018484840111156166ca576166c9616656565b5b6166d584828561668c565b509392505050565b600082601f8301126166f2576166f1616015565b5b813561670284826020860161669b565b91505092915050565b600060e0828403121561672157616720615655565b5b61672b60e06156cb565b9050600061673b84828501616641565b600083015250602082013567ffffffffffffffff81111561675f5761675e6156e6565b5b61676b848285016166dd565b602083015250604061677f84828501615b62565b604083015250606061679384828501615d71565b60608301525060806167a7848285016155ce565b60808301525060a06167bb84828501615d71565b60a08301525060c06167cf84828501615d71565b60c08301525092915050565b6000602082840312156167f1576167f06153d6565b5b600082013567ffffffffffffffff81111561680f5761680e6153db565b5b61681b8482850161670b565b91505092915050565b61682d816158a9565b82525050565b60006020820190506168486000830184616824565b92915050565b7f4e487b7100000000000000000000000000000000000000000000000000000000600052602260045260246000fd5b6000600282049050600182168061689557607f821691505b6020821081036168a8576168a761684e565b5b50919050565b7f4e487b7100000000000000000000000000000000000000000000000000000000600052603260045260246000fd5b7f4e487b7100000000000000000000000000000000000000000000000000000000600052601160045260246000fd5b60006169178261546b565b91507fffffffffffffffffffffffffffffffffffffffffffffffffffffffffffffffff8203616949576169486168dd565b5b600182019050919050565b600060608201905061696960008301866154ad565b61697660208301856154ad565b61698360408301846154ad565b949350505050565b6169948161561f565b82525050565b60006020820190506169af600083018461698b565b92915050565b60008160001c9050919050565b600063ffffffff82169050919050565b60006169e56169e0836169b5565b6169c2565b9050919050565b6169f5816155e3565b82525050565b60008160201c9050919050565b6000616a1b616a16836169fb565b6169c2565b9050919050565b60008160401c9050919050565b6000616a42616a3d83616a22565b6169c2565b9050919050565b60008160601c9050919050565b6000616a69616a6483616a49565b6169c2565b9050919050565b60008160801c9050919050565b6000616a90616a8b83616a70565b6169c2565b9050919050565b60008160a01c9050919050565b600062ffffff82169050919050565b6000616ac6616ac183616a97565b616aa4565b9050919050565b616ad6816156eb565b82525050565b60008160b81c9050919050565b6000616afc616af783616adc565b616aa4565b9050919050565b60008160d01c9050919050565b6000616b23616b1e83616b03565b616aa4565b9050919050565b60008160e81c9050919050565b6000616b4a616b4583616b2a565b616aa4565b9050919050565b61012082016000808301549050616b67816169d2565b616b7460008601826169ec565b50616b7e81616a08565b616b8b60208601826169ec565b50616b9581616a2f565b616ba260408601826169ec565b50616bac81616a56565b616bb960608601826169ec565b50616bc381616a7d565b616bd060808601826169ec565b50616bda81616ab3565b616be760a0860182616acd565b50616bf181616ae9565b616bfe60c0860182616acd565b50616c0881616b10565b616c1560e0860182616acd565b50616c1f81616b37565b616c2d610100860182616acd565b5050505050565b60006101e082019050616c4a600083018a6154ad565b616c5760208301896165c7565b616c6460408301886165c7565b616c7160608301876165c7565b616c7e60808301866165c7565b616c8b60a083018561698b565b616c9860c0830184616b51565b98975050505050505050565b6000616caf8261546b565b9150616cba8361546b565b9250827fffffffffffffffffffffffffffffffffffffffffffffffffffffffffffffffff03821115616cef57616cee6168dd565b5b828201905092915050565b6000616d058261546b565b9150616d108361546b565b925082821015616d2357616d226168dd565b5b828203905092915050565b6000616d398261546b565b9150616d448361546b565b9250817fffffffffffffffffffffffffffffffffffffffffffffffffffffffffffffffff0483118215151615616d7d57616d7c6168dd565b5b828202905092915050565b7f4e487b7100000000000000000000000000000000000000000000000000000000600052601260045260246000fd5b6000616dc28261546b565b9150616dcd8361546b565b925082616ddd57616ddc616d88565b5b828204905092915050565b6000616df382615a1a565b915067ffffffffffffffff8203616e0d57616e0c6168dd565b5b600182019050919050565b600082825260208201905092915050565b7f546f6f206561726c7920746f2066756c66696c6c000000000000000000000000600082015250565b6000616e5f601483616e18565b9150616e6a82616e29565b602082019050919050565b60006020820190508181036000830152616e8e81616e52565b9050919050565b7f47726f757020646f6573206e6f74206578697374000000000000000000000000600082015250565b6000616ecb601483616e18565b9150616ed682616e95565b602082019050919050565b60006020820190508181036000830152616efa81616ebe565b9050919050565b6000819050919050565b616f1c616f178261546b565b616f01565b82525050565b6000616f2e8285616f0b565b602082019150616f3e8284616f0b565b6020820191508190509392505050565b6000616f5982615e9d565b9150616f6483615e9d565b9250826bffffffffffffffffffffffff03821115616f8557616f846168dd565b5b828201905092915050565b6000604082019050616fa56000830185615475565b616fb26020830184615475565b9392505050565b7f4f776e61626c653a206e6577206f776e657220697320746865207a65726f206160008201527f6464726573730000000000000000000000000000000000000000000000000000602082015250565b6000617015602683616e18565b915061702082616fb9565b604082019050919050565b6000602082019050818103600083015261704481617008565b9050919050565b7f506c65617365207265717565737420627920657874656e64696e672047656e6560008201527f72616c52616e6463617374436f6e73756d65724261736520736f20746861742060208201527f77652063616e2063616c6c6261636b20776974682072616e646f6d6e6573732e604082015250565b60006170cd606083616e18565b91506170d88261704b565b606082019050919050565b600060208201905081810360008301526170fc816170c0565b9050919050565b60006040820190506171186000830185615a2e565b617125602083018461590c565b9392505050565b600061713782615a1a565b915061714283615a1a565b92508267ffffffffffffffff0382111561715f5761715e6168dd565b5b828201905092915050565b600061717582615e9d565b915061718083615e9d565b925082821015617193576171926168dd565b5b828203905092915050565b7f4e487b7100000000000000000000000000000000000000000000000000000000600052600160045260246000fd5b60008190508160005260206000209050919050565b60006020601f8301049050919050565b600082821b905092915050565b60006008830261722f7fffffffffffffffffffffffffffffffffffffffffffffffffffffffffffffffff826171f2565b61723986836171f2565b95508019841693508086168417925050509392505050565b600061726c6172676172628461546b565b615ad1565b61546b565b9050919050565b6000819050919050565b61728683617251565b61729a61729282617273565b8484546171ff565b825550505050565b600090565b6172af6172a2565b6172ba81848461727d565b505050565b5b818110156172de576172d36000826172a7565b6001810190506172c0565b5050565b601f821115617323576172f4816171cd565b6172fd846171e2565b8101602085101561730c578190505b617320617318856171e2565b8301826172bf565b50505b505050565b600082821c905092915050565b600061734660001984600802617328565b1980831691505092915050565b600061735f8383617335565b9150826002028217905092915050565b61737882615992565b67ffffffffffffffff8111156173915761739061566b565b5b61739b825461687d565b6173a68282856172e2565b600060209050601f8311600181146173d957600084156173c7578287015190505b6173d18582617353565b865550617439565b601f1984166173e7866171cd565b60005b8281101561740f578489015182556001820191506020850194506020810190506173ea565b8683101561742c5784890151617428601f891682617335565b8355505b6001600288020188555050505b505050505050565b600060e082019050617456600083018a616824565b617463602083018961590c565b6174706040830188615a2e565b61747d6060830187615475565b61748a60808301866154ad565b61749760a0830185615475565b6174a460c0830184615475565b98975050505050505050565b7f4f776e61626c653a2063616c6c6572206973206e6f7420746865206f776e6572600082015250565b60006174e6602083616e18565b91506174f1826174b0565b602082019050919050565b60006020820190508181036000830152617515816174d9565b9050919050565b600069ffffffffffffffffffff82169050919050565b61753b8161751c565b811461754657600080fd5b50565b60008151905061755881617532565b92915050565b60008151905061756d81615629565b92915050565b60008151905061758281615d5a565b92915050565b600080600080600060a086880312156175a4576175a36153d6565b5b60006175b288828901617549565b95505060206175c38882890161755e565b94505060406175d488828901617573565b93505060606175e588828901617573565b92505060806175f688828901617549565b9150509295509295909350565b6000819050919050565b61761e617619826158a9565b617603565b82525050565b6000617630828461760d565b60208201915081905092915050565b7f696e76616c696420656e636f64696e6700000000000000000000000000000000600082015250565b6000617675601083616e18565b91506176808261763f565b602082019050919050565b600060208201905081810360008301526176a481617668565b9050919050565b50565b60006176bb600083616e18565b91506176c6826176ab565b600082019050919050565b600060208201905081810360008301526176ea816176ae565b9050919050565b60006040820190506177066000830185616824565b6177136020830184615475565b9392505050565b600081519050617729816155f3565b92915050565b600060208284031215617745576177446153d6565b5b60006177538482850161771a565b91505092915050565b60006040820190506177716000830185616824565b81810360208301526177838184615537565b90509392505050565b60006177a76177a261779d84615e9d565b615ad1565b61546b565b9050919050565b6177b78161778c565b82525050565b60006080820190506177d26000830187616824565b6177df6020830186615475565b6177ec60408301856177ae565b6177f96060830184615dbf565b95945050505050565b6000606082019050617817600083018661590c565b617824602083018561590c565b6178316040830184615475565b949350505050565b60006178448261546b565b915061784f8361546b565b92508261785f5761785e616d88565b5b828206905092915050565b600060608201905061787f6000830186615475565b61788c602083018561590c565b6178996040830184615475565b949350505050565b60006178ad8284616f0b565b60208201915081905092915050565b60006178c78261546b565b9150600082036178da576178d96168dd565b5b600182039050919050565b6178ee81615db3565b81146178f957600080fd5b50565b60008151905061790b816178e5565b92915050565b600060208284031215617927576179266153d6565b5b6000617935848285016178fc565b91505092915050565b7f5361666545524332303a204552433230206f7065726174696f6e20646964206e60008201527f6f74207375636365656400000000000000000000000000000000000000000000602082015250565b600061799a602a83616e18565b91506179a58261793e565b604082019050919050565b600060208201905081810360008301526179c98161798d565b9050919050565b7f424c533a2073717274206d6f646578702063616c6c206661696c656400000000600082015250565b6000617a06601c83616e18565b9150617a11826179d0565b602082019050919050565b60006020820190508181036000830152617a35816179f9565b9050919050565b7f416464726573733a20696e73756666696369656e742062616c616e636520666f60008201527f722063616c6c0000000000000000000000000000000000000000000000000000602082015250565b6000617a98602683616e18565b9150617aa382617a3c565b604082019050919050565b60006020820190508181036000830152617ac781617a8b565b9050919050565b600081905092915050565b6000617ae482615992565b617aee8185617ace565b9350617afe8185602086016159ae565b80840191505092915050565b6000617b168284617ad9565b915081905092915050565b7f416464726573733a2063616c6c20746f206e6f6e2d636f6e7472616374000000600082015250565b6000617b57601d83616e18565b9150617b6282617b21565b602082019050919050565b60006020820190508181036000830152617b8681617b4a565b9050919050565b600081519050919050565b6000617ba382617b8d565b617bad8185616e18565b9350617bbd8185602086016159ae565b617bc68161565a565b840191505092915050565b60006020820190508181036000830152617beb8184617b98565b90509291505056fea2646970667358221220abcb232a3d021d693f1c45f129dc2eee5308903e7ccb447f34e3d43a83a87b9064736f6c634300080f0033",
    "linkReferences": {}
  },
  "methodIdentifiers": {
    "ARPA()": "62d14450",
    "ARPA_ETH_FEED()": "d164e28d",
    "COMMITTER_REWARD_PER_SIGNATURE()": "c24f03da",
    "MAX_CONSUMERS()": "64d51a2a",
    "MAX_REQUEST_CONFIRMATIONS()": "15c48b84",
    "REWARD_PER_SIGNATURE()": "bcee30e5",
    "SIGNATURE_TASK_EXCLUSIVE_WINDOW()": "e0b72cfd",
    "addConsumer(uint64,address)": "7341c10c",
    "calculatePaymentAmount(uint256,uint256,uint32,uint256)": "9ea3b84e",
    "createSubscription()": "a21a23e4",
    "estimatePaymentAmount(uint256,uint256,uint32,uint256)": "cc36c1e8",
    "fulfillRandomness(uint256,bytes32,uint256,(address,uint256)[])": "c61eb7b4",
    "fundSubscription(uint64,uint256)": "dd281928",
    "getFeeTier(uint64)": "d2f9f9a7",
    "getGroup(uint256)": "ceb60654",
    "getLastSubscription(address)": "76a911bc",
    "getPendingRequest(bytes32)": "88b12d55",
    "getSubscription(uint64)": "a47c7696",
    "groupCount()": "8f23b326",
    "groups(uint256)": "96324bd4",
    "lastAssignedGroupIndex()": "0b919eef",
    "lastOutput()": "97228a7e",
    "owner()": "8da5cb5b",
    "renounceOwnership()": "715018a6",
    "requestRandomness((uint8,bytes,uint64,uint256,uint16,uint256,uint256))": "fb0882fc",
    "rewards(address)": "0700037d",
    "s_callbacks(bytes32)": "4d615424",
    "setConfig(uint16,uint32,uint32,uint32,uint32,int256,(uint32,uint32,uint32,uint32,uint32,uint24,uint24,uint24,uint24))": "2d0354ec",
    "transferOwnership(address)": "f2fde38b",
    "validGroupIndices()": "253870ff"
  },
  "id": 16
}