{
  "abi": [
    {
      "inputs": [
        {
          "internalType": "uint256",
          "name": "groupIndex",
          "type": "uint256"
        }
      ],
      "name": "CoordinatorNotFound",
      "type": "error"
    },
    {
      "inputs": [
        {
          "internalType": "uint256",
          "name": "groupIndex",
          "type": "uint256"
        }
      ],
      "name": "DkgNotInProgress",
      "type": "error"
    },
    {
      "inputs": [
        {
          "internalType": "uint256",
          "name": "groupIndex",
          "type": "uint256"
        },
        {
          "internalType": "int8",
          "name": "phase",
          "type": "int8"
        }
      ],
      "name": "DkgStillInProgress",
      "type": "error"
    },
    {
      "inputs": [
        {
          "internalType": "uint256",
          "name": "groupIndex",
          "type": "uint256"
        },
        {
          "internalType": "uint256",
          "name": "inputGroupEpoch",
          "type": "uint256"
        },
        {
          "internalType": "uint256",
          "name": "currentGroupEpoch",
          "type": "uint256"
        }
      ],
      "name": "EpochMismatch",
      "type": "error"
    },
    {
      "inputs": [
        {
          "internalType": "uint256",
          "name": "groupIndex",
          "type": "uint256"
        }
      ],
      "name": "GroupNotExist",
      "type": "error"
    },
    {
      "inputs": [],
      "name": "InvalidPartialPublicKey",
      "type": "error"
    },
    {
      "inputs": [],
      "name": "InvalidPublicKey",
      "type": "error"
    },
    {
      "inputs": [],
      "name": "InvalidZeroAddress",
      "type": "error"
    },
    {
      "inputs": [],
      "name": "NodeAlreadyActive",
      "type": "error"
    },
    {
      "inputs": [],
      "name": "NodeAlreadyRegistered",
      "type": "error"
    },
    {
      "inputs": [
        {
          "internalType": "uint256",
          "name": "groupIndex",
          "type": "uint256"
        },
        {
          "internalType": "address",
          "name": "nodeIdAddress",
          "type": "address"
        }
      ],
      "name": "NodeNotInGroup",
      "type": "error"
    },
    {
      "inputs": [],
      "name": "NodeNotRegistered",
      "type": "error"
    },
    {
      "inputs": [
        {
          "internalType": "uint256",
          "name": "pendingUntilBlock",
          "type": "uint256"
        }
      ],
      "name": "NodeStillPending",
      "type": "error"
    },
    {
      "inputs": [
        {
          "internalType": "uint256",
          "name": "groupIndex",
          "type": "uint256"
        },
        {
          "internalType": "address",
          "name": "nodeIdAddress",
          "type": "address"
        }
      ],
      "name": "PartialKeyAlreadyRegistered",
      "type": "error"
    },
    {
      "inputs": [],
      "name": "SenderNotAdapter",
      "type": "error"
    },
    {
      "anonymous": false,
      "inputs": [
        {
          "indexed": false,
          "internalType": "address",
          "name": "stakingContractAddress",
          "type": "address"
        },
        {
          "indexed": false,
          "internalType": "address",
          "name": "adapterContractAddress",
          "type": "address"
        },
        {
          "indexed": false,
          "internalType": "uint256",
          "name": "nodeStakingAmount",
          "type": "uint256"
        },
        {
          "indexed": false,
          "internalType": "uint256",
          "name": "disqualifiedNodePenaltyAmount",
          "type": "uint256"
        },
        {
          "indexed": false,
          "internalType": "uint256",
          "name": "defaultNumberOfCommitters",
          "type": "uint256"
        },
        {
          "indexed": false,
          "internalType": "uint256",
          "name": "defaultDkgPhaseDuration",
          "type": "uint256"
        },
        {
          "indexed": false,
          "internalType": "uint256",
          "name": "groupMaxCapacity",
          "type": "uint256"
        },
        {
          "indexed": false,
          "internalType": "uint256",
          "name": "idealNumberOfGroups",
          "type": "uint256"
        },
        {
          "indexed": false,
          "internalType": "uint256",
          "name": "pendingBlockAfterQuit",
          "type": "uint256"
        },
        {
          "indexed": false,
          "internalType": "uint256",
          "name": "dkgPostProcessReward",
          "type": "uint256"
        }
      ],
      "name": "ControllerConfigSet",
      "type": "event"
    },
    {
      "anonymous": false,
      "inputs": [
        {
          "indexed": true,
          "internalType": "address",
          "name": "nodeAddress",
          "type": "address"
        },
        {
          "indexed": false,
          "internalType": "bytes",
          "name": "dkgPublicKey",
          "type": "bytes"
        }
      ],
      "name": "DkgPublicKeyChanged",
      "type": "event"
    },
    {
      "anonymous": false,
      "inputs": [
        {
          "indexed": true,
          "internalType": "uint256",
          "name": "globalEpoch",
          "type": "uint256"
        },
        {
          "indexed": true,
          "internalType": "uint256",
          "name": "groupIndex",
          "type": "uint256"
        },
        {
          "indexed": true,
          "internalType": "uint256",
          "name": "groupEpoch",
          "type": "uint256"
        },
        {
          "indexed": false,
          "internalType": "uint256",
          "name": "size",
          "type": "uint256"
        },
        {
          "indexed": false,
          "internalType": "uint256",
          "name": "threshold",
          "type": "uint256"
        },
        {
          "indexed": false,
          "internalType": "address[]",
          "name": "members",
          "type": "address[]"
        },
        {
          "indexed": false,
          "internalType": "uint256",
          "name": "assignmentBlockHeight",
          "type": "uint256"
        },
        {
          "indexed": false,
          "internalType": "address",
          "name": "coordinatorAddress",
          "type": "address"
        }
      ],
      "name": "DkgTask",
      "type": "event"
    },
    {
      "anonymous": false,
      "inputs": [
        {
          "indexed": false,
          "internalType": "uint8",
          "name": "version",
          "type": "uint8"
        }
      ],
      "name": "Initialized",
      "type": "event"
    },
    {
      "anonymous": false,
      "inputs": [
        {
          "indexed": true,
          "internalType": "address",
          "name": "nodeAddress",
          "type": "address"
        },
        {
          "indexed": false,
          "internalType": "uint256",
          "name": "groupIndex",
          "type": "uint256"
        }
      ],
      "name": "NodeActivated",
      "type": "event"
    },
    {
      "anonymous": false,
      "inputs": [
        {
          "indexed": true,
          "internalType": "address",
          "name": "nodeAddress",
          "type": "address"
        }
      ],
      "name": "NodeQuit",
      "type": "event"
    },
    {
      "anonymous": false,
      "inputs": [
        {
          "indexed": true,
          "internalType": "address",
          "name": "nodeAddress",
          "type": "address"
        },
        {
          "indexed": false,
          "internalType": "bytes",
          "name": "dkgPublicKey",
          "type": "bytes"
        },
        {
          "indexed": false,
          "internalType": "uint256",
          "name": "groupIndex",
          "type": "uint256"
        }
      ],
      "name": "NodeRegistered",
      "type": "event"
    },
    {
      "anonymous": false,
      "inputs": [
        {
          "indexed": true,
          "internalType": "address",
          "name": "nodeAddress",
          "type": "address"
        },
        {
          "indexed": false,
          "internalType": "uint256",
          "name": "ethAmount",
          "type": "uint256"
        },
        {
          "indexed": false,
          "internalType": "uint256",
          "name": "arpaAmount",
          "type": "uint256"
        }
      ],
      "name": "NodeRewarded",
      "type": "event"
    },
    {
      "anonymous": false,
      "inputs": [
        {
          "indexed": true,
          "internalType": "address",
          "name": "nodeIdAddress",
          "type": "address"
        },
        {
          "indexed": false,
          "internalType": "uint256",
          "name": "stakingRewardPenalty",
          "type": "uint256"
        },
        {
          "indexed": false,
          "internalType": "uint256",
          "name": "pendingBlock",
          "type": "uint256"
        }
      ],
      "name": "NodeSlashed",
      "type": "event"
    },
    {
      "anonymous": false,
      "inputs": [
        {
          "indexed": true,
          "internalType": "address",
          "name": "previousOwner",
          "type": "address"
        },
        {
          "indexed": true,
          "internalType": "address",
          "name": "newOwner",
          "type": "address"
        }
      ],
      "name": "OwnershipTransferred",
      "type": "event"
    },
    {
      "inputs": [
        {
          "internalType": "address[]",
          "name": "nodes",
          "type": "address[]"
        },
        {
          "internalType": "uint256",
          "name": "ethAmount",
          "type": "uint256"
        },
        {
          "internalType": "uint256",
          "name": "arpaAmount",
          "type": "uint256"
        }
      ],
      "name": "addReward",
      "outputs": [],
      "stateMutability": "nonpayable",
      "type": "function"
    },
    {
      "inputs": [
        {
          "internalType": "bytes",
          "name": "dkgPublicKey",
          "type": "bytes"
        }
      ],
      "name": "changeDkgPublicKey",
      "outputs": [],
      "stateMutability": "nonpayable",
      "type": "function"
    },
    {
      "inputs": [
        {
          "components": [
            {
              "internalType": "uint256",
              "name": "groupIndex",
              "type": "uint256"
            },
            {
              "internalType": "uint256",
              "name": "groupEpoch",
              "type": "uint256"
            },
            {
              "internalType": "bytes",
              "name": "publicKey",
              "type": "bytes"
            },
            {
              "internalType": "bytes",
              "name": "partialPublicKey",
              "type": "bytes"
            },
            {
              "internalType": "address[]",
              "name": "disqualifiedNodes",
              "type": "address[]"
            }
          ],
          "internalType": "struct IController.CommitDkgParams",
          "name": "params",
          "type": "tuple"
        }
      ],
      "name": "commitDkg",
      "outputs": [],
      "stateMutability": "nonpayable",
      "type": "function"
    },
    {
      "inputs": [
        {
          "internalType": "address",
          "name": "nodeAddress",
          "type": "address"
        }
      ],
      "name": "getBelongingGroup",
      "outputs": [
        {
          "internalType": "int256",
          "name": "",
          "type": "int256"
        },
        {
          "internalType": "int256",
          "name": "",
          "type": "int256"
        }
      ],
      "stateMutability": "view",
      "type": "function"
    },
    {
      "inputs": [],
      "name": "getControllerConfig",
      "outputs": [
        {
          "internalType": "address",
          "name": "stakingContractAddress",
          "type": "address"
        },
        {
          "internalType": "address",
          "name": "adapterContractAddress",
          "type": "address"
        },
        {
          "internalType": "uint256",
          "name": "nodeStakingAmount",
          "type": "uint256"
        },
        {
          "internalType": "uint256",
          "name": "disqualifiedNodePenaltyAmount",
          "type": "uint256"
        },
        {
          "internalType": "uint256",
          "name": "defaultNumberOfCommitters",
          "type": "uint256"
        },
        {
          "internalType": "uint256",
          "name": "defaultDkgPhaseDuration",
          "type": "uint256"
        },
        {
          "internalType": "uint256",
          "name": "groupMaxCapacity",
          "type": "uint256"
        },
        {
          "internalType": "uint256",
          "name": "idealNumberOfGroups",
          "type": "uint256"
        },
        {
          "internalType": "uint256",
          "name": "pendingBlockAfterQuit",
          "type": "uint256"
        },
        {
          "internalType": "uint256",
          "name": "dkgPostProcessReward",
          "type": "uint256"
        }
      ],
      "stateMutability": "view",
      "type": "function"
    },
    {
      "inputs": [
        {
          "internalType": "uint256",
          "name": "groupIndex",
          "type": "uint256"
        }
      ],
      "name": "getCoordinator",
      "outputs": [
        {
          "internalType": "address",
          "name": "",
          "type": "address"
        }
      ],
      "stateMutability": "view",
      "type": "function"
    },
    {
      "inputs": [
        {
          "internalType": "uint256",
          "name": "groupIndex",
          "type": "uint256"
        }
      ],
      "name": "getGroup",
      "outputs": [
        {
          "components": [
            {
              "internalType": "uint256",
              "name": "index",
              "type": "uint256"
            },
            {
              "internalType": "uint256",
              "name": "epoch",
              "type": "uint256"
            },
            {
              "internalType": "uint256",
              "name": "size",
              "type": "uint256"
            },
            {
              "internalType": "uint256",
              "name": "threshold",
              "type": "uint256"
            },
            {
              "components": [
                {
                  "internalType": "address",
                  "name": "nodeIdAddress",
                  "type": "address"
                },
                {
                  "internalType": "uint256[4]",
                  "name": "partialPublicKey",
                  "type": "uint256[4]"
                }
              ],
              "internalType": "struct IController.Member[]",
              "name": "members",
              "type": "tuple[]"
            },
            {
              "internalType": "address[]",
              "name": "committers",
              "type": "address[]"
            },
            {
              "components": [
                {
                  "internalType": "address[]",
                  "name": "nodeIdAddress",
                  "type": "address[]"
                },
                {
                  "components": [
                    {
                      "internalType": "uint256",
                      "name": "groupEpoch",
                      "type": "uint256"
                    },
                    {
                      "internalType": "uint256[4]",
                      "name": "publicKey",
                      "type": "uint256[4]"
                    },
                    {
                      "internalType": "address[]",
                      "name": "disqualifiedNodes",
                      "type": "address[]"
                    }
                  ],
                  "internalType": "struct IController.CommitResult",
                  "name": "commitResult",
                  "type": "tuple"
                }
              ],
              "internalType": "struct IController.CommitCache[]",
              "name": "commitCacheList",
              "type": "tuple[]"
            },
            {
              "internalType": "bool",
              "name": "isStrictlyMajorityConsensusReached",
              "type": "bool"
            },
            {
              "internalType": "uint256[4]",
              "name": "publicKey",
              "type": "uint256[4]"
            }
          ],
          "internalType": "struct IController.Group",
          "name": "",
          "type": "tuple"
        }
      ],
      "stateMutability": "view",
      "type": "function"
    },
    {
      "inputs": [],
      "name": "getGroupCount",
      "outputs": [
        {
          "internalType": "uint256",
          "name": "",
          "type": "uint256"
        }
      ],
      "stateMutability": "view",
      "type": "function"
    },
    {
      "inputs": [],
      "name": "getGroupEpoch",
      "outputs": [
        {
          "internalType": "uint256",
          "name": "",
          "type": "uint256"
        }
      ],
      "stateMutability": "view",
      "type": "function"
    },
    {
      "inputs": [
        {
          "internalType": "uint256",
          "name": "groupIndex",
          "type": "uint256"
        }
      ],
      "name": "getGroupThreshold",
      "outputs": [
        {
          "internalType": "uint256",
          "name": "",
          "type": "uint256"
        },
        {
          "internalType": "uint256",
          "name": "",
          "type": "uint256"
        }
      ],
      "stateMutability": "view",
      "type": "function"
    },
    {
      "inputs": [],
      "name": "getLastOutput",
      "outputs": [
        {
          "internalType": "uint256",
          "name": "",
          "type": "uint256"
        }
      ],
      "stateMutability": "view",
      "type": "function"
    },
    {
      "inputs": [
        {
          "internalType": "uint256",
          "name": "groupIndex",
          "type": "uint256"
        },
        {
          "internalType": "uint256",
          "name": "memberIndex",
          "type": "uint256"
        }
      ],
      "name": "getMember",
      "outputs": [
        {
          "components": [
            {
              "internalType": "address",
              "name": "nodeIdAddress",
              "type": "address"
            },
            {
              "internalType": "uint256[4]",
              "name": "partialPublicKey",
              "type": "uint256[4]"
            }
          ],
          "internalType": "struct IController.Member",
          "name": "",
          "type": "tuple"
        }
      ],
      "stateMutability": "view",
      "type": "function"
    },
    {
      "inputs": [
        {
          "internalType": "address",
          "name": "nodeAddress",
          "type": "address"
        }
      ],
      "name": "getNode",
      "outputs": [
        {
          "components": [
            {
              "internalType": "address",
              "name": "idAddress",
              "type": "address"
            },
            {
              "internalType": "bytes",
              "name": "dkgPublicKey",
              "type": "bytes"
            },
            {
              "internalType": "bool",
              "name": "state",
              "type": "bool"
            },
            {
              "internalType": "uint256",
              "name": "pendingUntilBlock",
              "type": "uint256"
            }
          ],
          "internalType": "struct IController.Node",
          "name": "",
          "type": "tuple"
        }
      ],
      "stateMutability": "view",
      "type": "function"
    },
    {
      "inputs": [
        {
          "internalType": "address",
          "name": "nodeAddress",
          "type": "address"
        }
      ],
      "name": "getNodeWithdrawableTokens",
      "outputs": [
        {
          "internalType": "uint256",
          "name": "",
          "type": "uint256"
        },
        {
          "internalType": "uint256",
          "name": "",
          "type": "uint256"
        }
      ],
      "stateMutability": "view",
      "type": "function"
    },
    {
      "inputs": [],
      "name": "getValidGroupIndices",
      "outputs": [
        {
          "internalType": "uint256[]",
          "name": "",
          "type": "uint256[]"
        }
      ],
      "stateMutability": "view",
      "type": "function"
    },
    {
      "inputs": [
        {
          "internalType": "address",
          "name": "arpa",
          "type": "address"
        },
        {
          "internalType": "uint256",
          "name": "lastOutput",
          "type": "uint256"
        }
      ],
      "name": "initialize",
      "outputs": [],
      "stateMutability": "nonpayable",
      "type": "function"
    },
    {
      "inputs": [
        {
          "internalType": "uint256",
          "name": "groupIndex",
          "type": "uint256"
        },
        {
          "internalType": "address",
          "name": "nodeIdAddress",
          "type": "address"
        }
      ],
      "name": "isPartialKeyRegistered",
      "outputs": [
        {
          "internalType": "bool",
          "name": "",
          "type": "bool"
        }
      ],
      "stateMutability": "view",
      "type": "function"
    },
    {
      "inputs": [],
      "name": "nodeActivate",
      "outputs": [],
      "stateMutability": "nonpayable",
      "type": "function"
    },
    {
      "inputs": [],
      "name": "nodeQuit",
      "outputs": [],
      "stateMutability": "nonpayable",
      "type": "function"
    },
    {
      "inputs": [
        {
          "internalType": "bytes",
          "name": "dkgPublicKey",
          "type": "bytes"
        }
      ],
      "name": "nodeRegister",
      "outputs": [],
      "stateMutability": "nonpayable",
      "type": "function"
    },
    {
      "inputs": [
        {
          "internalType": "address",
          "name": "recipient",
          "type": "address"
        }
      ],
      "name": "nodeWithdraw",
      "outputs": [],
      "stateMutability": "nonpayable",
      "type": "function"
    },
    {
      "inputs": [],
      "name": "owner",
      "outputs": [
        {
          "internalType": "address",
          "name": "",
          "type": "address"
        }
      ],
      "stateMutability": "view",
      "type": "function"
    },
    {
      "inputs": [
        {
          "internalType": "uint256",
          "name": "groupIndex",
          "type": "uint256"
        },
        {
          "internalType": "uint256",
          "name": "groupEpoch",
          "type": "uint256"
        }
      ],
      "name": "postProcessDkg",
      "outputs": [],
      "stateMutability": "nonpayable",
      "type": "function"
    },
    {
      "inputs": [],
      "name": "renounceOwnership",
      "outputs": [],
      "stateMutability": "nonpayable",
      "type": "function"
    },
    {
      "inputs": [
        {
          "internalType": "address",
          "name": "stakingContractAddress",
          "type": "address"
        },
        {
          "internalType": "address",
          "name": "adapterContractAddress",
          "type": "address"
        },
        {
          "internalType": "uint256",
          "name": "nodeStakingAmount",
          "type": "uint256"
        },
        {
          "internalType": "uint256",
          "name": "disqualifiedNodePenaltyAmount",
          "type": "uint256"
        },
        {
          "internalType": "uint256",
          "name": "defaultNumberOfCommitters",
          "type": "uint256"
        },
        {
          "internalType": "uint256",
          "name": "defaultDkgPhaseDuration",
          "type": "uint256"
        },
        {
          "internalType": "uint256",
          "name": "groupMaxCapacity",
          "type": "uint256"
        },
        {
          "internalType": "uint256",
          "name": "idealNumberOfGroups",
          "type": "uint256"
        },
        {
          "internalType": "uint256",
          "name": "pendingBlockAfterQuit",
          "type": "uint256"
        },
        {
          "internalType": "uint256",
          "name": "dkgPostProcessReward",
          "type": "uint256"
        }
      ],
      "name": "setControllerConfig",
      "outputs": [],
      "stateMutability": "nonpayable",
      "type": "function"
    },
    {
      "inputs": [
        {
          "internalType": "uint256",
          "name": "lastOutput",
          "type": "uint256"
        }
      ],
      "name": "setLastOutput",
      "outputs": [],
      "stateMutability": "nonpayable",
      "type": "function"
    },
    {
      "inputs": [
        {
          "internalType": "address",
          "name": "newOwner",
          "type": "address"
        }
      ],
      "name": "transferOwnership",
      "outputs": [],
      "stateMutability": "nonpayable",
      "type": "function"
    }
  ],
  "bytecode": {
    "object": "0x608060405234801561001057600080fd5b50615ff6806100206000396000f3fe60806040523480156200001157600080fd5b5060043610620001dd5760003560e01c80638da5cb5b116200010d578063ceb6065411620000a3578063e37eb96c116200007a578063e37eb96c146200048e578063f2fde38b14620004a5578063f3df080214620004bc578063f49e0ba914620004d357600080fd5b8063ceb6065414620003dd578063d11b8e681462000403578063e275cde6146200047757600080fd5b80639d20904811620000e45780639d209048146200035f578063b330a0fd1462000385578063c2db900b146200039e578063cd6dc68714620003c657600080fd5b80638da5cb5b146200032c578063914eb34d146200033e5780639a075bc3146200035557600080fd5b80634d79a8931162000183578063715018a6116200015a578063715018a614620002f85780637a2af56e14620003025780637ee49cfd146200030c57806380110e4e146200031557600080fd5b80634d79a89314620002b25780634ecea80d14620002d857806351a2b9a014620002ef57600080fd5b80632ff9e52011620001b85780632ff9e520146200023f5780633b6c00b0146200025657806342424d6f146200026d57600080fd5b806306545a9314620001e25780630bf9c5c614620001f9578063227d0f461462000212575b600080fd5b6072545b6040519081526020015b60405180910390f35b620002106200020a36600462003aa3565b62000501565b005b620002296200022336600462003adc565b62000999565b60408051928352602083019190915201620001f0565b620002106200025036600462003b03565b62000a42565b620002296200026736600462003adc565b62000bcf565b620002996200027e36600462003b86565b6000908152607060205260409020546001600160a01b031690565b6040516001600160a01b039091168152602001620001f0565b620002c9620002c336600462003aa3565b62000c59565b604051620001f0919062003be6565b62000210620002e936600462003adc565b62000cf6565b607754620001e6565b6200021062000e26565b6200021062000e3e565b607154620001e6565b620002106200032636600462003bf6565b62000ff1565b6033546001600160a01b031662000299565b620002106200034f36600462003d88565b62001336565b62000210620014a7565b620003766200037036600462003adc565b62001751565b604051620001f0919062003e2e565b6200038f62001875565b604051620001f0919062003e81565b620003b5620003af36600462003ec7565b620018f8565b6040519015158152602001620001f0565b62000210620003d736600462003efa565b62001cc4565b620003f4620003ee36600462003b86565b62001e0e565b604051620001f0919062004056565b606554606654606754606854607654606954607554607454606a54606b54604080516001600160a01b039b8c1681529a90991660208b0152978901969096526060880194909452608087019290925260a086015260c085015260e084015261010083015261012082015261014001620001f0565b620002106200048836600462003bf6565b6200212c565b620002106200049f3660046200418b565b620022fe565b62000210620004b636600462003adc565b62002ada565b62000210620004cd36600462003b86565b62002b59565b62000229620004e436600462003b86565b600090815260736020526040902060038101546002909101549091565b60725482106200052c57604051637f6efcb560e11b8152600481018390526024015b60405180910390fd5b6040516358914d0360e01b8152607160048201526024810183905233604482015273__$99f6e31d9157e72684c1fb13c20fb01510$__906358914d0390606401602060405180830381865af41580156200058a573d6000803e3d6000fd5b505050506040513d601f19601f82011682018060405250810190620005b0919062004262565b19620005d95760405163eb51f5f960e01b81526004810183905233602482015260440162000523565b6000828152607360205260409020600181015482146200062457600181015460405163048b63c360e11b81526004810185905260248101849052604481019190915260640162000523565b6000838152607060205260409020546001600160a01b03166200065e57604051635291bbcf60e01b81526004810184905260240162000523565b60008381526070602090815260409182902054825163221f951160e01b815292516001600160a01b0390911692839263221f9511926004808401938290030181865afa158015620006b3573d6000803e3d6000fd5b505050506040513d601f19601f82011682018060405250810190620006d991906200427c565b60000b60001914620007715783816001600160a01b031663221f95116040518163ffffffff1660e01b8152600401602060405180830381865afa15801562000725573d6000803e3d6000fd5b505050506040513d601f19601f820116820180604052508101906200074b91906200427c565b60405163f7c06f9160e01b8152600481019290925260000b602482015260440162000523565b806001600160a01b0316639cb8a26a6040518163ffffffff1660e01b8152600401600060405180830381600087803b158015620007ad57600080fd5b505af1158015620007c2573d6000803e3d6000fd5b505050600085815260706020526040902080546001600160a01b031916905550600782015460ff166200092457607754604051630295316d60e51b815260716004820152602481018690526044810191909152600090819073__$99f6e31d9157e72684c1fb13c20fb01510$__906352a62da090606401600060405180830381865af415801562000857573d6000803e3d6000fd5b505050506040513d6000823e601f3d908101601f1916820160405262000881919081019062004370565b9150915060005b8251811015620008d657620008c1838281518110620008ab57620008ab620043db565b6020026020010151606560030154600062002b8a565b80620008cd8162004407565b91505062000888565b5060005b815181101562000920576200090b828281518110620008fd57620008fd620043db565b602002602001015162002c47565b80620009178162004407565b915050620008da565b5050505b606b54336000908152606f6020526040812080549091906200094890849062004423565b9091555050606b5460405133917f8353a804115421789f3ab2eeb3f5215943906ce12100c91d40fc865caf742b6f916200098b9160008252602082015260400190565b60405180910390a250505050565b6001600160a01b0381166000908152606e6020526040812054819015620009e7576001600160a01b0383166000908152606e6020526040902054620009e19060019062004439565b620009ea565b60005b6001600160a01b0384166000908152606f60205260409020541562000a36576001600160a01b0384166000908152606f602052604090205462000a309060019062004439565b62000a39565b60005b91509150915091565b62000a4c620032ba565b6040805160e0810182526001600160a01b038c8116808352908c16602083018190528284018c9052606083018b90526080830189905260a0830186905260c0909201849052606580546001600160a01b03199081169092179055606680549091169091179055606789905560688890556069869055606a839055606b829055516301a79f6360e71b81526071600482015260248101849052604481018590526064810187905273__$99f6e31d9157e72684c1fb13c20fb01510$__9063d3cfb1809060840160006040518083038186803b15801562000b2a57600080fd5b505af415801562000b3f573d6000803e3d6000fd5b5050604080516001600160a01b03808f1682528d1660208201529081018b9052606081018a90526080810189905260a0810188905260c0810187905260e08101869052610100810185905261012081018490527f3202ca2a288846b65f27bc3e13c1e38aaf2e4356b80b963d67aea8a822645e1f925061014001905060405180910390a150505050505050505050565b60405163787c576760e01b8152607160048201526001600160a01b0382166024820152600090819073__$99f6e31d9157e72684c1fb13c20fb01510$__9063787c5767906044016040805180830381865af415801562000c33573d6000803e3d6000fd5b505050506040513d601f19601f8201168201806040525081019062000a3991906200444f565b62000c63620038af565b600083815260736020526040902060040180548390811062000c895762000c89620043db565b6000918252602091829020604080518082018252600590930290910180546001600160a01b0316835281516080810190925291928301906001830160048282826020028201915b81548152602001906001019080831162000cd05750505050508152505090505b92915050565b6001600160a01b03811662000d1e5760405163f6b2911f60e01b815260040160405180910390fd5b336000908152606e6020908152604080832054606f90925290912054600181111562000d8057336000908152606f6020526040902060019081905562000d8090849062000d6c908462004439565b606c546001600160a01b0316919062003316565b600182111562000e2157336000908152606e602052604090206001908190556066546001600160a01b031690630ad98f6a90859062000dc0908662004439565b6040516001600160e01b031960e085901b1681526001600160a01b0390921660048301526024820152604401600060405180830381600087803b15801562000e0757600080fd5b505af115801562000e1c573d6000803e3d6000fd5b505050505b505050565b62000e30620032ba565b62000e3c60006200337f565b565b336000818152606d60205260409020805490916001600160a01b039091161462000e7a576040516229eaad60e31b815260040160405180910390fd5b60775460405163a6ae8a8160e01b815260716004820152336024820152604481019190915260009073__$99f6e31d9157e72684c1fb13c20fb01510$__9063a6ae8a8190606401600060405180830381865af415801562000edf573d6000803e3d6000fd5b505050506040513d6000823e601f3d908101601f1916820160405262000f09919081019062004474565b905060005b815181101562000f465762000f31828281518110620008fd57620008fd620043db565b8062000f3d8162004407565b91505062000f0e565b5062000f5833606560050154620033d1565b606554606754604051637eee288d60e01b815233600482015260248101919091526001600160a01b0390911690637eee288d90604401600060405180830381600087803b15801562000fa957600080fd5b505af115801562000fbe573d6000803e3d6000fd5b50506040513392507f68577adbb6b0647e21353ff032be5797d9fa0879ce7e05fe617e40368441f97d9150600090a25050565b336000908152606d60205260409020546001600160a01b0316156200102957604051630eb0d31360e11b815260040160405180910390fd5b6040516316f6db8160e01b815260009073__$34d23ddaee48904c6c566425acbfa0fc0e$__906316f6db8190620010679086908690600401620044d6565b608060405180830381865af415801562001085573d6000803e3d6000fd5b505050506040513d601f19601f82011682018060405250810190620010ab9190620044ec565b604051636fda2c7960e01b815290915073__$34d23ddaee48904c6c566425acbfa0fc0e$__90636fda2c7990620010e790849060040162004572565b602060405180830381865af415801562001105573d6000803e3d6000fd5b505050506040513d601f19601f820116820180604052508101906200112b919062004598565b620011495760405163145a1fdd60e31b815260040160405180910390fd5b60655460675460405163282d3fdf60e01b815233600482015260248101919091526001600160a01b039091169063282d3fdf90604401600060405180830381600087803b1580156200119a57600080fd5b505af1158015620011af573d6000803e3d6000fd5b5050336000818152606d6020526040902080546001600160a01b031916909117815591505060018101620011e58486836200463c565b5060028101805460ff19166001908117909155336000818152606e60209081526040808320859055606f909152808220939093556077549251629bf68360e11b81526071600482015260248101929092526044820192909252819073__$99f6e31d9157e72684c1fb13c20fb01510$__90630137ed0690606401600060405180830381865af41580156200127d573d6000803e3d6000fd5b505050506040513d6000823e601f3d908101601f19168201604052620012a791908101906200470a565b9150915060005b8151811015620012e657620012d1828281518110620008fd57620008fd620043db565b80620012dd8162004407565b915050620012ae565b50336001600160a01b03167fd4ec586f4f9f417f99e20fe821fbaa10a10a4b95f8712a0c57c6d8ed970e98bd87878560405162001326939291906200474b565b60405180910390a2505050505050565b6066546001600160a01b03163314620013625760405163469666c560e01b815260040160405180910390fd5b60005b8351811015620014a15782606e6000868481518110620013895762001389620043db565b60200260200101516001600160a01b03166001600160a01b031681526020019081526020016000206000828254620013c2919062004423565b9250508190555081606f6000868481518110620013e357620013e3620043db565b60200260200101516001600160a01b03166001600160a01b0316815260200190815260200160002060008282546200141c919062004423565b92505081905550838181518110620014385762001438620043db565b60200260200101516001600160a01b03167f8353a804115421789f3ab2eeb3f5215943906ce12100c91d40fc865caf742b6f848460405162001484929190918252602082015260400190565b60405180910390a280620014988162004407565b91505062001365565b50505050565b336000818152606d60205260409020805490916001600160a01b0390911614620014e3576040516229eaad60e31b815260040160405180910390fd5b600281015460ff16156200150a576040516324a228bb60e21b815260040160405180910390fd5b4381600301541115620015395780600301546040516363525acb60e11b81526004016200052391815260200190565b60655460405163929ec53760e01b81523360048201526000916001600160a01b03169063929ec53790602401602060405180830381865afa15801562001583573d6000803e3d6000fd5b505050506040513d601f19601f82011682018060405250810190620015a9919062004262565b6067549091508110156200163f576065546067546001600160a01b039091169063282d3fdf903390620015de90859062004439565b6040516001600160e01b031960e085901b1681526001600160a01b0390921660048301526024820152604401600060405180830381600087803b1580156200162557600080fd5b505af11580156200163a573d6000803e3d6000fd5b505050505b60028201805460ff19166001179055607754604051629bf68360e11b8152607160048201523360248201526044810191909152600090819073__$99f6e31d9157e72684c1fb13c20fb01510$__90630137ed0690606401600060405180830381865af4158015620016b4573d6000803e3d6000fd5b505050506040513d6000823e601f3d908101601f19168201604052620016de91908101906200470a565b9150915060005b81518110156200171d5762001708828281518110620008fd57620008fd620043db565b80620017148162004407565b915050620016e5565b5060405182815233907ffc97cd9154b40031874ef09a9436a4b60052e4dcf40f21b1258be265fac4a397906020016200098b565b62001788604051806080016040528060006001600160a01b0316815260200160608152602001600015158152602001600081525090565b6001600160a01b038083166000908152606d60209081526040918290208251608081019093528054909316825260018301805492939291840191620017cd90620045b6565b80601f0160208091040260200160405190810160405280929190818152602001828054620017fb90620045b6565b80156200184c5780601f1062001820576101008083540402835291602001916200184c565b820191906000526020600020905b8154815290600101906020018083116200182e57829003601f168201915b5050509183525050600282015460ff161515602082015260039091015460409091015292915050565b604051631c2da66560e31b81526071600482015260609073__$99f6e31d9157e72684c1fb13c20fb01510$__9063e16d332890602401600060405180830381865af4158015620018c9573d6000803e3d6000fd5b505050506040513d6000823e601f3d908101601f19168201604052620018f3919081019062004474565b905090565b6000828152607360209081526040808320815161012081018352815481526001820154818501526002820154818401526003820154606082015260048201805484518187028101870190955280855286959294608086019390929190879084015b82821015620019d55760008481526020908190206040805180820182526005860290920180546001600160a01b0316835281516080810190925291928301906001830160048282826020028201915b815481526020019060010190808311620019a8575050505050815250508152602001906001019062001959565b5050505081526020016005820180548060200260200160405190810160405280929190818152602001828054801562001a3857602002820191906000526020600020905b81546001600160a01b0316815260019091019060200180831162001a19575b5050505050815260200160068201805480602002602001604051908101604052809291908181526020016000905b8282101562001bb657838290600052602060002090600702016040518060400160405290816000820180548060200260200160405190810160405280929190818152602001828054801562001ae557602002820191906000526020600020905b81546001600160a01b0316815260019091019060200180831162001ac6575b50505091835250506040805160608101825260018401805482528251608081019384905260209485019492939192840191600287019060049082845b81548152602001906001019080831162001b2157505050505081526020016005820180548060200260200160405190810160405280929190818152602001828054801562001b9957602002820191906000526020600020905b81546001600160a01b0316815260019091019060200180831162001b7a575b505050505081525050815250508152602001906001019062001a66565b50505090825250600782015460ff1615156020820152604080516080810182529101906008830160048282826020028201915b81548152602001906001019080831162001be957505050505081525050905060005b81608001515181101562001cb957836001600160a01b03168260800151828151811062001c3c5762001c3c620043db565b6020026020010151600001516001600160a01b03160362001ca4578160800151818151811062001c705762001c70620043db565b60200260200101516020015160006004811062001c915762001c91620043db565b6020020151600014159250505062000cf0565b8062001cb08162004407565b91505062001c0b565b506000949350505050565b600054610100900460ff161580801562001ce55750600054600160ff909116105b8062001d015750303b15801562001d01575060005460ff166001145b62001d755760405162461bcd60e51b815260206004820152602e60248201527f496e697469616c697a61626c653a20636f6e747261637420697320616c72656160448201527f647920696e697469616c697a6564000000000000000000000000000000000000606482015260840162000523565b6000805460ff19166001179055801562001d99576000805461ff0019166101001790555b606c80546001600160a01b0319166001600160a01b038516179055607782905562001dc362003469565b801562000e21576000805461ff0019169055604051600181527f7f26b83ff96e1f2b6a682f133852f6798a09c465da95921460cefb38474024989060200160405180910390a1505050565b62001e18620038d9565b60008281526073602090815260408083208151610120810183528154815260018201548185015260028201548184015260038201546060820152600482018054845181870281018701909552808552919592946080870194939192919084015b8282101562001ef45760008481526020908190206040805180820182526005860290920180546001600160a01b0316835281516080810190925291928301906001830160048282826020028201915b81548152602001906001019080831162001ec7575050505050815250508152602001906001019062001e78565b5050505081526020016005820180548060200260200160405190810160405280929190818152602001828054801562001f5757602002820191906000526020600020905b81546001600160a01b0316815260019091019060200180831162001f38575b5050505050815260200160068201805480602002602001604051908101604052809291908181526020016000905b82821015620020d55783829060005260206000209060070201604051806040016040529081600082018054806020026020016040519081016040528092919081815260200182805480156200200457602002820191906000526020600020905b81546001600160a01b0316815260019091019060200180831162001fe5575b50505091835250506040805160608101825260018401805482528251608081019384905260209485019492939192840191600287019060049082845b81548152602001906001019080831162002040575050505050815260200160058201805480602002602001604051908101604052809291908181526020018280548015620020b857602002820191906000526020600020905b81546001600160a01b0316815260019091019060200180831162002099575b505050505081525050815250508152602001906001019062001f85565b50505090825250600782015460ff1615156020820152604080516080810182529101906008830160048282826020028201915b81548152602001906001019080831162002108575050505050815250509050919050565b336000818152606d60205260409020805490916001600160a01b039091161462002168576040516229eaad60e31b815260040160405180910390fd5b600281015460ff16156200218f576040516324a228bb60e21b815260040160405180910390fd5b6040516316f6db8160e01b815260009073__$34d23ddaee48904c6c566425acbfa0fc0e$__906316f6db8190620021cd9087908790600401620044d6565b608060405180830381865af4158015620021eb573d6000803e3d6000fd5b505050506040513d601f19601f82011682018060405250810190620022119190620044ec565b604051636fda2c7960e01b815290915073__$34d23ddaee48904c6c566425acbfa0fc0e$__90636fda2c79906200224d90849060040162004572565b602060405180830381865af41580156200226b573d6000803e3d6000fd5b505050506040513d601f19601f8201168201806040525081019062002291919062004598565b620022af5760405163145a1fdd60e31b815260040160405180910390fd5b60018201620022c08486836200463c565b50336001600160a01b03167f4a327ac4843af7a9586b5a2a2c312bd17289ae1d70da32855ed539fe39f86a5085856040516200098b929190620044d6565b60725481511062002329578051604051637f6efcb560e11b8152600481019190915260240162000523565b80516000908152607060205260409020546001600160a01b031662002368578051604051635291bbcf60e01b8152600481019190915260240162000523565b805160009081526070602090815260409182902054825163221f951160e01b815292516001600160a01b0390911692839263221f9511926004808401938290030181865afa158015620023bf573d6000803e3d6000fd5b505050506040513d601f19601f82011682018060405250810190620023e591906200427c565b60000b196200240e5781516040516343609fe160e01b8152600481019190915260240162000523565b81516000908152607360209081526040909120600181015491840151909114620024695782516020840151600183015460405163048b63c360e11b815260048101939093526024830191909152604482015260640162000523565b82516040516358914d0360e01b815260716004820152602481019190915233604482015273__$99f6e31d9157e72684c1fb13c20fb01510$__906358914d0390606401602060405180830381865af4158015620024ca573d6000803e3d6000fd5b505050506040513d601f19601f82011682018060405250810190620024f0919062004262565b196200251c57825160405163eb51f5f960e01b8152600481019190915233602482015260440162000523565b82516200252a9033620018f8565b156200255657825160405163173ca10960e31b8152600481019190915233602482015260440162000523565b60608301516040516316f6db8160e01b815260009173__$34d23ddaee48904c6c566425acbfa0fc0e$__916316f6db8191620025959160040162004771565b608060405180830381865af4158015620025b3573d6000803e3d6000fd5b505050506040513d601f19601f82011682018060405250810190620025d99190620044ec565b604051636fda2c7960e01b815290915073__$34d23ddaee48904c6c566425acbfa0fc0e$__90636fda2c79906200261590849060040162004572565b602060405180830381865af415801562002633573d6000803e3d6000fd5b505050506040513d601f19601f8201168201806040525081019062002659919062004598565b6200267757604051631886185760e01b815260040160405180910390fd5b60408085015190516316f6db8160e01b815260009173__$34d23ddaee48904c6c566425acbfa0fc0e$__916316f6db8191620026b69160040162004771565b608060405180830381865af4158015620026d4573d6000803e3d6000fd5b505050506040513d601f19601f82011682018060405250810190620026fa9190620044ec565b604051636fda2c7960e01b815290915073__$34d23ddaee48904c6c566425acbfa0fc0e$__90636fda2c79906200273690849060040162004572565b602060405180830381865af415801562002754573d6000803e3d6000fd5b505050506040513d601f19601f820116820180604052508101906200277a919062004598565b620027985760405163145a1fdd60e31b815260040160405180910390fd5b604080516060810182526020808801518252810183905260808701518183015286519151636aba6eeb60e11b8152909173__$99f6e31d9157e72684c1fb13c20fb01510$__9163d574ddd691620027f89160719190869060040162004786565b602060405180830381865af415801562002816573d6000803e3d6000fd5b505050506040513d601f19601f820116820180604052508101906200283c919062004598565b6200292357604080516001818301818152608083019093526000928291606083016020803683375050508152602001839052805180519192503391600090620028895762002889620043db565b6001600160a01b03909216602092830291909101820152600686018054600181018255600091825290829020835180518594600790940290920192620028d59284929091019062003929565b5060208281015180516001840190815591810151909190620028fe906002850190600462003993565b50604082015180516200291c91600584019160209091019062003929565b5050505050505b85516040516358914d0360e01b815260716004808301919091526024820192909252336044820152849186019073__$99f6e31d9157e72684c1fb13c20fb01510$__906358914d0390606401602060405180830381865af41580156200298d573d6000803e3d6000fd5b505050506040513d601f19601f82011682018060405250810190620029b3919062004262565b81548110620029c657620029c6620043db565b9060005260206000209060050201600101906004620029e792919062003993565b50600784015460ff1662002ad257855160775460405163449cf2fd60e11b81526071600482015260248101929092526044820152600090819073__$99f6e31d9157e72684c1fb13c20fb01510$__90638939e5fa90606401600060405180830381865af415801562002a5d573d6000803e3d6000fd5b505050506040513d6000823e601f3d908101601f1916820160405262002a87919081019062004811565b91509150811562002acf5760005b815181101562002acd5762002ab8828281518110620008ab57620008ab620043db565b8062002ac48162004407565b91505062002a95565b505b50505b505050505050565b62002ae4620032ba565b6001600160a01b03811662002b4b5760405162461bcd60e51b815260206004820152602660248201527f4f776e61626c653a206e6577206f776e657220697320746865207a65726f206160448201526564647265737360d01b606482015260840162000523565b62002b56816200337f565b50565b6066546001600160a01b0316331462002b855760405163469666c560e01b815260040160405180910390fd5b607755565b606554604051638899fdeb60e01b81526001600160a01b0385811660048301526024820185905290911690638899fdeb90604401600060405180830381600087803b15801562002bd957600080fd5b505af115801562002bee573d6000803e3d6000fd5b5050505062002bfe8382620033d1565b60408051838152602081018390526001600160a01b038516917fa8d720d0a0a2e7c96bf9eb87433901ebb6331356c8f3283b2568de34478703cc910160405180910390a2505050565b62002c54607182620034e0565b60008181526073602090815260408083208151610120810183528154815260018201548185015260028201548184015260038201546060820152600482018054845181870281018701909552808552919492936080860193909290879084015b8282101562002d305760008481526020908190206040805180820182526005860290920180546001600160a01b0316835281516080810190925291928301906001830160048282826020028201915b81548152602001906001019080831162002d03575050505050815250508152602001906001019062002cb4565b5050505081526020016005820180548060200260200160405190810160405280929190818152602001828054801562002d9357602002820191906000526020600020905b81546001600160a01b0316815260019091019060200180831162002d74575b5050505050815260200160068201805480602002602001604051908101604052809291908181526020016000905b8282101562002f1157838290600052602060002090600702016040518060400160405290816000820180548060200260200160405190810160405280929190818152602001828054801562002e4057602002820191906000526020600020905b81546001600160a01b0316815260019091019060200180831162002e21575b50505091835250506040805160608101825260018401805482528251608081019384905260209485019492939192840191600287019060049082845b81548152602001906001019080831162002e7c57505050505081526020016005820180548060200260200160405190810160405280929190818152602001828054801562002ef457602002820191906000526020600020905b81546001600160a01b0316815260019091019060200180831162002ed5575b505050505081525050815250508152602001906001019062002dc1565b50505090825250600782015460ff1615156020820152604080516080810182529101906008830160048282826020028201915b81548152602001906001019080831162002f445750505050508152505090506000816060015160656004015460405162002f7e90620039c4565b9182526020820152604001604051809103906000f08015801562002fa6573d6000803e3d6000fd5b5060008481526070602052604080822080546001600160a01b0319166001600160a01b0385161790558401519192509067ffffffffffffffff81111562002ff15762002ff162003c6d565b6040519080825280602002602001820160405280156200301b578160200160208202803683370190505b5090506000836040015167ffffffffffffffff81111562003040576200304062003c6d565b6040519080825280602002602001820160405280156200307557816020015b60608152602001906001900390816200305f5790505b50905060005b8460400151811015620031f55784608001518181518110620030a157620030a1620043db565b602002602001015160000151838281518110620030c257620030c2620043db565b60200260200101906001600160a01b031690816001600160a01b031681525050606d600086608001518381518110620030ff57620030ff620043db565b6020026020010151600001516001600160a01b03166001600160a01b0316815260200190815260200160002060010180546200313b90620045b6565b80601f01602080910402602001604051908101604052809291908181526020018280546200316990620045b6565b8015620031ba5780601f106200318e57610100808354040283529160200191620031ba565b820191906000526020600020905b8154815290600101906020018083116200319c57829003601f168201915b5050505050828281518110620031d457620031d4620043db565b60200260200101819052508080620031ec9062004407565b9150506200307b565b506040516337f8d5ff60e01b81526001600160a01b038416906337f8d5ff906200322690859085906004016200485b565b600060405180830381600087803b1580156200324157600080fd5b505af115801562003256573d6000803e3d6000fd5b50505050836020015184600001516071600001547fbbd25d64683f157b2e3544d3d6430e14102db1e49592cf4dcaf827e2ded517ee8760400151886060015187438a604051620032ab959493929190620048d3565b60405180910390a45050505050565b6033546001600160a01b0316331462000e3c5760405162461bcd60e51b815260206004820181905260248201527f4f776e61626c653a2063616c6c6572206973206e6f7420746865206f776e6572604482015260640162000523565b604080516001600160a01b038416602482015260448082018490528251808303909101815260649091019091526020810180517bffffffffffffffffffffffffffffffffffffffffffffffffffffffff1663a9059cbb60e01b17905262000e21908490620035bb565b603380546001600160a01b038381166001600160a01b0319831681179093556040519116919082907f8be0079c531659141344cd1fd0a4f28419497f9722a3daafe3b4186f6b6457e090600090a35050565b6001600160a01b0382166000908152606d6020526040902060028101805460ff191690556003015443908110156200343c576001600160a01b0383166000908152606d6020526040812060030180548492906200343090849062004423565b9091555062000e219050565b62003448828262004423565b6001600160a01b0384166000908152606d6020526040902060030155505050565b600054610100900460ff16620034d65760405162461bcd60e51b815260206004820152602b60248201527f496e697469616c697a61626c653a20636f6e7472616374206973206e6f74206960448201526a6e697469616c697a696e6760a81b606482015260840162000523565b62000e3c62003694565b8154826000620034f08362004407565b9091555050600081815260028301602052604081206001810180549192620035188362004407565b909155505060078101805460ff1916905562003539600582016000620039d2565b62003549600682016000620039f2565b60005b6004820154811015620014a157816004018181548110620035715762003571620043db565b90600052602060002090600502016001016000620035a691905060008155600101600081556001016000815560010160009055565b80620035b28162004407565b9150506200354c565b600062003612826040518060400160405280602081526020017f5361666545524332303a206c6f772d6c6576656c2063616c6c206661696c6564815250856001600160a01b03166200370c9092919063ffffffff16565b80519091501562000e21578080602001905181019062003633919062004598565b62000e215760405162461bcd60e51b815260206004820152602a60248201527f5361666545524332303a204552433230206f7065726174696f6e20646964206e6044820152691bdd081cdd58d8d9595960b21b606482015260840162000523565b600054610100900460ff16620037015760405162461bcd60e51b815260206004820152602b60248201527f496e697469616c697a61626c653a20636f6e7472616374206973206e6f74206960448201526a6e697469616c697a696e6760a81b606482015260840162000523565b62000e3c336200337f565b60606200371d848460008562003725565b949350505050565b606082471015620037885760405162461bcd60e51b815260206004820152602660248201527f416464726573733a20696e73756666696369656e742062616c616e636520666f6044820152651c8818d85b1b60d21b606482015260840162000523565b600080866001600160a01b03168587604051620037a6919062004915565b60006040518083038185875af1925050503d8060008114620037e5576040519150601f19603f3d011682016040523d82523d6000602084013e620037ea565b606091505b5091509150620037fd8783838762003808565b979650505050505050565b606083156200387c57825160000362003874576001600160a01b0385163b620038745760405162461bcd60e51b815260206004820152601d60248201527f416464726573733a2063616c6c20746f206e6f6e2d636f6e7472616374000000604482015260640162000523565b50816200371d565b6200371d8383815115620038935781518083602001fd5b8060405162461bcd60e51b815260040162000523919062004771565b604051806040016040528060006001600160a01b03168152602001620038d462003a15565b905290565b60405180610120016040528060008152602001600081526020016000815260200160008152602001606081526020016060815260200160608152602001600015158152602001620038d462003a15565b82805482825590600052602060002090810192821562003981579160200282015b828111156200398157825182546001600160a01b0319166001600160a01b039091161782556020909201916001909101906200394a565b506200398f92915062003a33565b5090565b826004810192821562003981579160200282015b8281111562003981578251825591602001919060010190620039a7565b61168d806200493483390190565b508054600082559060005260206000209081019062002b56919062003a33565b508054600082556007029060005260206000209081019062002b56919062003a4a565b60405180608001604052806004906020820280368337509192915050565b5b808211156200398f576000815560010162003a34565b808211156200398f57600062003a618282620039d2565b600060018301818155600284018290556003840182905560048401829055600584018290559062003a97600583016000620039d2565b50505060070162003a4a565b6000806040838503121562003ab757600080fd5b50508035926020909101359150565b6001600160a01b038116811462002b5657600080fd5b60006020828403121562003aef57600080fd5b813562003afc8162003ac6565b9392505050565b6000806000806000806000806000806101408b8d03121562003b2457600080fd5b8a3562003b318162003ac6565b995060208b013562003b438162003ac6565b999c999b505050506040880135976060810135976080820135975060a0820135965060c0820135955060e082013594506101008201359350610120909101359150565b60006020828403121562003b9957600080fd5b5035919050565b8060005b6004811015620014a157815184526020938401939091019060010162003ba4565b6001600160a01b038151168252602081015162000e21602084018262003ba0565b60a0810162000cf0828462003bc5565b6000806020838503121562003c0a57600080fd5b823567ffffffffffffffff8082111562003c2357600080fd5b818501915085601f83011262003c3857600080fd5b81358181111562003c4857600080fd5b86602082850101111562003c5b57600080fd5b60209290920196919550909350505050565b634e487b7160e01b600052604160045260246000fd5b60405160a0810167ffffffffffffffff8111828210171562003ca95762003ca962003c6d565b60405290565b604051601f8201601f1916810167ffffffffffffffff8111828210171562003cdb5762003cdb62003c6d565b604052919050565b600067ffffffffffffffff82111562003d005762003d0062003c6d565b5060051b60200190565b600082601f83011262003d1c57600080fd5b8135602062003d3562003d2f8362003ce3565b62003caf565b82815260059290921b8401810191818101908684111562003d5557600080fd5b8286015b8481101562003d7d57803562003d6f8162003ac6565b835291830191830162003d59565b509695505050505050565b60008060006060848603121562003d9e57600080fd5b833567ffffffffffffffff81111562003db657600080fd5b62003dc48682870162003d0a565b9660208601359650604090950135949350505050565b60005b8381101562003df757818101518382015260200162003ddd565b50506000910152565b6000815180845262003e1a81602086016020860162003dda565b601f01601f19169290920160200192915050565b602081526001600160a01b038251166020820152600060208301516080604084015262003e5f60a084018262003e00565b9050604084015115156060840152606084015160808401528091505092915050565b6020808252825182820181905260009190848201906040850190845b8181101562003ebb5783518352928401929184019160010162003e9d565b50909695505050505050565b6000806040838503121562003edb57600080fd5b82359150602083013562003eef8162003ac6565b809150509250929050565b6000806040838503121562003f0e57600080fd5b823562003f1b8162003ac6565b946020939093013593505050565b600081518084526020808501945080840160005b8381101562003f675762003f5387835162003bc5565b60a096909601959082019060010162003f3d565b509495945050505050565b600081518084526020808501945080840160005b8381101562003f675781516001600160a01b03168752958201959082019060010162003f86565b600081518084526020808501808196508360051b8101915082860160005b858110156200404957828403895281516040815181875262003ff08288018262003f72565b90508783015192508681038888015260c08351825288840151620040178a84018262003ba0565b508284015193508060a0830152620040328183018562003f72565b9c89019c9750505092860192505060010162003fcb565b5091979650505050505050565b60208152815160208201526020820151604082015260408201516060820152606082015160808201526000608083015161018060a08401526200409e6101a084018262003f29565b905060a0840151601f19808584030160c0860152620040be838362003f72565b925060c08601519150808584030160e086015250620040de828262003fad565b91505060e0840151610100620040f78186018315159052565b85015190506200410c61012085018262003ba0565b509392505050565b600082601f8301126200412657600080fd5b813567ffffffffffffffff81111562004143576200414362003c6d565b62004158601f8201601f191660200162003caf565b8181528460208386010111156200416e57600080fd5b816020850160208301376000918101602001919091529392505050565b6000602082840312156200419e57600080fd5b813567ffffffffffffffff80821115620041b757600080fd5b9083019060a08286031215620041cc57600080fd5b620041d662003c83565b8235815260208301356020820152604083013582811115620041f757600080fd5b620042058782860162004114565b6040830152506060830135828111156200421e57600080fd5b6200422c8782860162004114565b6060830152506080830135828111156200424557600080fd5b620042538782860162003d0a565b60808301525095945050505050565b6000602082840312156200427557600080fd5b5051919050565b6000602082840312156200428f57600080fd5b81518060000b811462003afc57600080fd5b600082601f830112620042b357600080fd5b81516020620042c662003d2f8362003ce3565b82815260059290921b84018101918181019086841115620042e657600080fd5b8286015b8481101562003d7d578051620043008162003ac6565b8352918301918301620042ea565b600082601f8301126200432057600080fd5b815160206200433362003d2f8362003ce3565b82815260059290921b840181019181810190868411156200435357600080fd5b8286015b8481101562003d7d578051835291830191830162004357565b600080604083850312156200438457600080fd5b825167ffffffffffffffff808211156200439d57600080fd5b620043ab86838701620042a1565b93506020850151915080821115620043c257600080fd5b50620043d1858286016200430e565b9150509250929050565b634e487b7160e01b600052603260045260246000fd5b634e487b7160e01b600052601160045260246000fd5b6000600182016200441c576200441c620043f1565b5060010190565b8082018082111562000cf05762000cf0620043f1565b8181038181111562000cf05762000cf0620043f1565b600080604083850312156200446357600080fd5b505080516020909101519092909150565b6000602082840312156200448757600080fd5b815167ffffffffffffffff8111156200449f57600080fd5b6200371d848285016200430e565b81835281816020850137506000828201602090810191909152601f909101601f19169091010190565b6020815260006200371d602083018486620044ad565b600060808284031215620044ff57600080fd5b82601f8301126200450f57600080fd5b6040516080810181811067ffffffffffffffff8211171562004535576200453562003c6d565b6040528060808401858111156200454b57600080fd5b845b81811015620045675780518352602092830192016200454d565b509195945050505050565b6080810162000cf0828462003ba0565b805180151581146200459357600080fd5b919050565b600060208284031215620045ab57600080fd5b62003afc8262004582565b600181811c90821680620045cb57607f821691505b602082108103620045ec57634e487b7160e01b600052602260045260246000fd5b50919050565b601f82111562000e2157600081815260208120601f850160051c810160208610156200461b5750805b601f850160051c820191505b8181101562002ad25782815560010162004627565b67ffffffffffffffff83111562004657576200465762003c6d565b6200466f83620046688354620045b6565b83620045f2565b6000601f841160018114620046a657600085156200468d5750838201355b600019600387901b1c1916600186901b17835562004703565b600083815260209020601f19861690835b82811015620046d95786850135825560209485019460019092019101620046b7565b5086821015620046f75760001960f88860031b161c19848701351681555b505060018560011b0183555b5050505050565b600080604083850312156200471e57600080fd5b82519150602083015167ffffffffffffffff8111156200473d57600080fd5b620043d1858286016200430e565b60408152600062004761604083018587620044ad565b9050826020830152949350505050565b60208152600062003afc602083018462003e00565b8381526000602084818401526060604084015261012083018451606085015281850151620047b8608086018262003ba0565b50604085015160c06101008601528051918290528201906000906101408601905b80831015620048045783516001600160a01b03168252928401926001929092019190840190620047d9565b5098975050505050505050565b600080604083850312156200482557600080fd5b620048308362004582565b9150602083015167ffffffffffffffff8111156200484d57600080fd5b620043d185828601620042a1565b60408152600062004870604083018562003f72565b6020838203818501528185518084528284019150828160051b85010183880160005b83811015620048c457601f19878403018552620048b183835162003e00565b9486019492509085019060010162004892565b50909998505050505050505050565b85815284602082015260a060408201526000620048f460a083018662003f72565b90508360608301526001600160a01b03831660808301529695505050505050565b600082516200492981846020870162003dda565b919091019291505056fe60c0604052600060065534801561001557600080fd5b5060405161168d38038061168d8339810160408190526100349161009b565b61003d3361004b565b60a0919091526080526100bf565b600080546001600160a01b038381166001600160a01b0319831681178455604051919092169283917f8be0079c531659141344cd1fd0a4f28419497f9722a3daafe3b4186f6b6457e09190a35050565b600080604083850312156100ae57600080fd5b505080516020909101519092909150565b60805160a05161157161011c6000396000818161027f0152610775015260008181610243015281816103aa015281816103dc015281816104150152818161044e015281816108a80152818161094b01526109ff01526115716000f3fe608060405234801561001057600080fd5b506004361061012c5760003560e01c80638da5cb5b116100ad578063cc5ef00911610071578063cc5ef009146102a1578063cd5e3837146102a9578063ce7c2ac2146102bc578063d73fe0aa146102cf578063f2fde38b146102d757600080fd5b80638da5cb5b146102255780639cb8a26a14610236578063ac5553ce1461023e578063b0ef817914610265578063c27040241461027a57600080fd5b80634e3874a0116100f45780634e3874a0146101cc5780635aa68ac0146101e2578063670d14b2146101f7578063715018a61461020a5780637fd283461461021257600080fd5b80630ea6564814610131578063221f95111461015a57806335c1d3491461017557806337f8d5ff146101a057806348cd4cb1146101b5575b600080fd5b61014461013f366004611081565b6102ea565b60405161015191906110f7565b60405180910390f35b610162610384565b60405160009190910b8152602001610151565b61018861018336600461110a565b61048b565b6040516001600160a01b039091168152602001610151565b6101b36101ae36600461116f565b6104b5565b005b6101be60065481565b604051908152602001610151565b6101d4610617565b604051610151929190611233565b6101ea61079c565b6040516101519190611254565b610144610205366004611081565b6107fe565b6101b3610817565b6101b36102203660046112a1565b61082b565b6000546001600160a01b0316610188565b6101b3610afb565b6101be7f000000000000000000000000000000000000000000000000000000000000000081565b61026d610b11565b6040516101519190611313565b6101be7f000000000000000000000000000000000000000000000000000000000000000081565b61026d610c6f565b6101446102b7366004611081565b610dc7565b6101446102ca366004611081565b610de0565b61026d610df9565b6101b36102e5366004611081565b610f51565b6003602052600090815260409020805461030390611326565b80601f016020809104026020016040519081016040528092919081815260200182805461032f90611326565b801561037c5780601f106103515761010080835404028352916020019161037c565b820191906000526020600020905b81548152906001019060200180831161035f57829003601f168201915b505050505081565b60006006546000036103965750600090565b6000600654436103a69190611370565b90507f000000000000000000000000000000000000000000000000000000000000000081116103d757600191505090565b6104027f00000000000000000000000000000000000000000000000000000000000000006002611389565b811161041057600291505090565b61043b7f00000000000000000000000000000000000000000000000000000000000000006003611389565b811161044957600391505090565b6104747f00000000000000000000000000000000000000000000000000000000000000006004611389565b811161048257600491505090565b60001991505090565b6005818154811061049b57600080fd5b6000918252602090912001546001600160a01b0316905081565b6006541561050a5760405162461bcd60e51b815260206004820152601760248201527f444b472068617320616c7265616479207374617274656400000000000000000060448201526064015b60405180910390fd5b610512610fca565b60005b8381101561060c576005858583818110610531576105316113a0565b90506020020160208101906105469190611081565b815460018101835560009283526020909220909101805473ffffffffffffffffffffffffffffffffffffffff19166001600160a01b03909216919091179055828282818110610597576105976113a0565b90506020028101906105a991906113b6565b600160008888868181106105bf576105bf6113a0565b90506020020160208101906105d49190611081565b6001600160a01b031681526020810191909152604001600020916105f9919083611461565b508061060481611522565b915050610515565b505043600655505050565b60006060600060058054905067ffffffffffffffff81111561063b5761063b6113fd565b60405190808252806020026020018201604052801561066e57816020015b60608152602001906001900390816106595790505b50905060005b600554811015610772576001600060058381548110610695576106956113a0565b60009182526020808320909101546001600160a01b03168352820192909252604001902080546106c490611326565b80601f01602080910402602001604051908101604052809291908181526020018280546106f090611326565b801561073d5780601f106107125761010080835404028352916020019161073d565b820191906000526020600020905b81548152906001019060200180831161072057829003601f168201915b5050505050828281518110610754576107546113a0565b6020026020010181905250808061076a90611522565b915050610674565b507f0000000000000000000000000000000000000000000000000000000000000000939092509050565b606060058054806020026020016040519081016040528092919081815260200182805480156107f457602002820191906000526020600020905b81546001600160a01b031681526001909101906020018083116107d6575b5050505050905090565b6001602052600090815260409020805461030390611326565b61081f610fca565b6108296000611024565b565b336000908152600160205260408120805461084590611326565b9050116108945760405162461bcd60e51b815260206004820152601b60248201527f796f7520617265206e6f7420612067726f7570206d656d6265722100000000006044820152606401610501565b6000600654436108a49190611370565b90507f000000000000000000000000000000000000000000000000000000000000000081116109465733600090815260026020526040902080546108e790611326565b1590506109265760405162461bcd60e51b815260206004820152600d60248201526c1cda185c9948195e1a5cdd1959609a1b6044820152606401610501565b336000908152600260205260409020610940838583611461565b50505050565b6109717f00000000000000000000000000000000000000000000000000000000000000006002611389565b81116109fa57336000908152600360205260409020805461099190611326565b1590506109e05760405162461bcd60e51b815260206004820152601060248201527f726573706f6e73652065786973746564000000000000000000000000000000006044820152606401610501565b336000908152600360205260409020610940838583611461565b610a257f00000000000000000000000000000000000000000000000000000000000000006003611389565b8111610aae573360009081526004602052604090208054610a4590611326565b159050610a945760405162461bcd60e51b815260206004820152601560248201527f6a757374696669636174696f6e206578697374656400000000000000000000006044820152606401610501565b336000908152600460205260409020610940838583611461565b60405162461bcd60e51b815260206004820152601560248201527f444b47205075626c6973682068617320656e64656400000000000000000000006044820152606401610501565b505050565b610b03610fca565b6000546001600160a01b0316ff5b60055460609060009067ffffffffffffffff811115610b3257610b326113fd565b604051908082528060200260200182016040528015610b6557816020015b6060815260200190600190039081610b505790505b50905060005b600554811015610c69576004600060058381548110610b8c57610b8c6113a0565b60009182526020808320909101546001600160a01b0316835282019290925260400190208054610bbb90611326565b80601f0160208091040260200160405190810160405280929190818152602001828054610be790611326565b8015610c345780601f10610c0957610100808354040283529160200191610c34565b820191906000526020600020905b815481529060010190602001808311610c1757829003601f168201915b5050505050828281518110610c4b57610c4b6113a0565b60200260200101819052508080610c6190611522565b915050610b6b565b50919050565b60055460609060009067ffffffffffffffff811115610c9057610c906113fd565b604051908082528060200260200182016040528015610cc357816020015b6060815260200190600190039081610cae5790505b50905060005b600554811015610c69576003600060058381548110610cea57610cea6113a0565b60009182526020808320909101546001600160a01b0316835282019290925260400190208054610d1990611326565b80601f0160208091040260200160405190810160405280929190818152602001828054610d4590611326565b8015610d925780601f10610d6757610100808354040283529160200191610d92565b820191906000526020600020905b815481529060010190602001808311610d7557829003601f168201915b5050505050828281518110610da957610da96113a0565b60200260200101819052508080610dbf90611522565b915050610cc9565b6004602052600090815260409020805461030390611326565b6002602052600090815260409020805461030390611326565b60055460609060009067ffffffffffffffff811115610e1a57610e1a6113fd565b604051908082528060200260200182016040528015610e4d57816020015b6060815260200190600190039081610e385790505b50905060005b600554811015610c69576002600060058381548110610e7457610e746113a0565b60009182526020808320909101546001600160a01b0316835282019290925260400190208054610ea390611326565b80601f0160208091040260200160405190810160405280929190818152602001828054610ecf90611326565b8015610f1c5780601f10610ef157610100808354040283529160200191610f1c565b820191906000526020600020905b815481529060010190602001808311610eff57829003601f168201915b5050505050828281518110610f3357610f336113a0565b60200260200101819052508080610f4990611522565b915050610e53565b610f59610fca565b6001600160a01b038116610fbe5760405162461bcd60e51b815260206004820152602660248201527f4f776e61626c653a206e6577206f776e657220697320746865207a65726f206160448201526564647265737360d01b6064820152608401610501565b610fc781611024565b50565b6000546001600160a01b031633146108295760405162461bcd60e51b815260206004820181905260248201527f4f776e61626c653a2063616c6c6572206973206e6f7420746865206f776e65726044820152606401610501565b600080546001600160a01b0383811673ffffffffffffffffffffffffffffffffffffffff19831681178455604051919092169283917f8be0079c531659141344cd1fd0a4f28419497f9722a3daafe3b4186f6b6457e09190a35050565b60006020828403121561109357600080fd5b81356001600160a01b03811681146110aa57600080fd5b9392505050565b6000815180845260005b818110156110d7576020818501810151868301820152016110bb565b506000602082860101526020601f19601f83011685010191505092915050565b6020815260006110aa60208301846110b1565b60006020828403121561111c57600080fd5b5035919050565b60008083601f84011261113557600080fd5b50813567ffffffffffffffff81111561114d57600080fd5b6020830191508360208260051b850101111561116857600080fd5b9250929050565b6000806000806040858703121561118557600080fd5b843567ffffffffffffffff8082111561119d57600080fd5b6111a988838901611123565b909650945060208701359150808211156111c257600080fd5b506111cf87828801611123565b95989497509550505050565b600082825180855260208086019550808260051b84010181860160005b8481101561122657601f198684030189526112148383516110b1565b988401989250908301906001016111f8565b5090979650505050505050565b82815260406020820152600061124c60408301846111db565b949350505050565b6020808252825182820181905260009190848201906040850190845b818110156112955783516001600160a01b031683529284019291840191600101611270565b50909695505050505050565b600080602083850312156112b457600080fd5b823567ffffffffffffffff808211156112cc57600080fd5b818501915085601f8301126112e057600080fd5b8135818111156112ef57600080fd5b86602082850101111561130157600080fd5b60209290920196919550909350505050565b6020815260006110aa60208301846111db565b600181811c9082168061133a57607f821691505b602082108103610c6957634e487b7160e01b600052602260045260246000fd5b634e487b7160e01b600052601160045260246000fd5b818103818111156113835761138361135a565b92915050565b80820281158282048414176113835761138361135a565b634e487b7160e01b600052603260045260246000fd5b6000808335601e198436030181126113cd57600080fd5b83018035915067ffffffffffffffff8211156113e857600080fd5b60200191503681900382131561116857600080fd5b634e487b7160e01b600052604160045260246000fd5b601f821115610af657600081815260208120601f850160051c8101602086101561143a5750805b601f850160051c820191505b8181101561145957828155600101611446565b505050505050565b67ffffffffffffffff831115611479576114796113fd565b61148d836114878354611326565b83611413565b6000601f8411600181146114c157600085156114a95750838201355b600019600387901b1c1916600186901b17835561151b565b600083815260209020601f19861690835b828110156114f257868501358255602094850194600190920191016114d2565b508682101561150f5760001960f88860031b161c19848701351681555b505060018560011b0183555b5050505050565b6000600182016115345761153461135a565b506001019056fea2646970667358221220f3e6e3e93788ae67c1eaf31cb805370313ba096ed5aa792e2b15c335a3903e5a64736f6c63430008120033a264697066735822122064834cc65cc7bb413eb26cc467907e91260cb1f115b9f9d637d29faa6c1470f064736f6c63430008120033",
    "linkReferences": {
      "src/libraries/BLS.sol": {
        "BLS": [
          {
            "start": 4187,
            "length": 20
          },
          {
            "start": 4317,
            "length": 20
          },
          {
            "start": 8641,
            "length": 20
          },
          {
            "start": 8771,
            "length": 20
          },
          {
            "start": 9613,
            "length": 20
          },
          {
            "start": 9739,
            "length": 20
          },
          {
            "start": 9902,
            "length": 20
          },
          {
            "start": 10028,
            "length": 20
          }
        ]
      },
      "src/libraries/GroupLib.sol": {
        "GroupLib": [
          {
            "start": 1391,
            "length": 20
          },
          {
            "start": 2108,
            "length": 20
          },
          {
            "start": 2836,
            "length": 20
          },
          {
            "start": 3097,
            "length": 20
          },
          {
            "start": 3780,
            "length": 20
          },
          {
            "start": 4706,
            "length": 20
          },
          {
            "start": 5785,
            "length": 20
          },
          {
            "start": 6318,
            "length": 20
          },
          {
            "start": 9391,
            "length": 20
          },
          {
            "start": 10218,
            "length": 20
          },
          {
            "start": 10610,
            "length": 20
          },
          {
            "start": 10818,
            "length": 20
          }
        ]
      }
    }
  },
  "methodIdentifiers": {
    "addReward(address[],uint256,uint256)": "914eb34d",
    "changeDkgPublicKey(bytes)": "e275cde6",
    "commitDkg((uint256,uint256,bytes,bytes,address[]))": "e37eb96c",
    "getBelongingGroup(address)": "3b6c00b0",
    "getControllerConfig()": "d11b8e68",
    "getCoordinator(uint256)": "42424d6f",
    "getGroup(uint256)": "ceb60654",
    "getGroupCount()": "06545a93",
    "getGroupEpoch()": "7ee49cfd",
    "getGroupThreshold(uint256)": "f49e0ba9",
    "getLastOutput()": "51a2b9a0",
    "getMember(uint256,uint256)": "4d79a893",
    "getNode(address)": "9d209048",
    "getNodeWithdrawableTokens(address)": "227d0f46",
    "getValidGroupIndices()": "b330a0fd",
    "initialize(address,uint256)": "cd6dc687",
    "isPartialKeyRegistered(uint256,address)": "c2db900b",
    "nodeActivate()": "9a075bc3",
    "nodeQuit()": "7a2af56e",
    "nodeRegister(bytes)": "80110e4e",
    "nodeWithdraw(address)": "4ecea80d",
    "owner()": "8da5cb5b",
    "postProcessDkg(uint256,uint256)": "0bf9c5c6",
    "renounceOwnership()": "715018a6",
    "setControllerConfig(address,address,uint256,uint256,uint256,uint256,uint256,uint256,uint256,uint256)": "2ff9e520",
    "setLastOutput(uint256)": "f3df0802",
    "transferOwnership(address)": "f2fde38b"
  },
  "id": 63
}