{
  "abi": [
    {
      "inputs": [
        {
          "internalType": "address",
          "name": "arpa",
          "type": "address"
        },
        {
          "internalType": "uint256",
          "name": "lastOutput",
          "type": "uint256"
        }
      ],
      "stateMutability": "nonpayable",
      "type": "constructor"
    },
    {
      "inputs": [
        {
          "internalType": "uint256",
          "name": "groupIndex",
          "type": "uint256"
        }
      ],
      "name": "CoordinatorNotFound",
      "type": "error"
    },
    {
      "inputs": [
        {
          "internalType": "uint256",
          "name": "groupIndex",
          "type": "uint256"
        }
      ],
      "name": "DkgNotInProgress",
      "type": "error"
    },
    {
      "inputs": [
        {
          "internalType": "uint256",
          "name": "groupIndex",
          "type": "uint256"
        },
        {
          "internalType": "int8",
          "name": "phase",
          "type": "int8"
        }
      ],
      "name": "DkgStillInProgress",
      "type": "error"
    },
    {
      "inputs": [
        {
          "internalType": "uint256",
          "name": "groupIndex",
          "type": "uint256"
        },
        {
          "internalType": "uint256",
          "name": "inputGroupEpoch",
          "type": "uint256"
        },
        {
          "internalType": "uint256",
          "name": "currentGroupEpoch",
          "type": "uint256"
        }
      ],
      "name": "EpochMismatch",
      "type": "error"
    },
    {
      "inputs": [
        {
          "internalType": "uint256",
          "name": "groupIndex",
          "type": "uint256"
        }
      ],
      "name": "GroupNotExist",
      "type": "error"
    },
    {
      "inputs": [],
      "name": "InsufficientBalance",
      "type": "error"
    },
    {
      "inputs": [],
      "name": "InvalidPartialPublicKey",
      "type": "error"
    },
    {
      "inputs": [],
      "name": "InvalidPublicKey",
      "type": "error"
    },
    {
      "inputs": [],
      "name": "NodeAlreadyActive",
      "type": "error"
    },
    {
      "inputs": [],
      "name": "NodeAlreadyRegistered",
      "type": "error"
    },
    {
      "inputs": [
        {
          "internalType": "uint256",
          "name": "groupIndex",
          "type": "uint256"
        },
        {
          "internalType": "address",
          "name": "nodeIdAddress",
          "type": "address"
        }
      ],
      "name": "NodeNotInGroup",
      "type": "error"
    },
    {
      "inputs": [],
      "name": "NodeNotRegistered",
      "type": "error"
    },
    {
      "inputs": [
        {
          "internalType": "uint256",
          "name": "pendingUntilBlock",
          "type": "uint256"
        }
      ],
      "name": "NodeStillPending",
      "type": "error"
    },
    {
      "inputs": [
        {
          "internalType": "uint256",
          "name": "groupIndex",
          "type": "uint256"
        },
        {
          "internalType": "address",
          "name": "nodeIdAddress",
          "type": "address"
        }
      ],
      "name": "PartialKeyAlreadyRegistered",
      "type": "error"
    },
    {
      "inputs": [],
      "name": "SenderNotAdapter",
      "type": "error"
    },
    {
      "anonymous": false,
      "inputs": [
        {
          "indexed": false,
          "internalType": "address",
          "name": "stakingContractAddress",
          "type": "address"
        },
        {
          "indexed": false,
          "internalType": "address",
          "name": "adapterContractAddress",
          "type": "address"
        },
        {
          "indexed": false,
          "internalType": "uint256",
          "name": "nodeStakingAmount",
          "type": "uint256"
        },
        {
          "indexed": false,
          "internalType": "uint256",
          "name": "disqualifiedNodePenaltyAmount",
          "type": "uint256"
        },
        {
          "indexed": false,
          "internalType": "uint256",
          "name": "defaultNumberOfCommitters",
          "type": "uint256"
        },
        {
          "indexed": false,
          "internalType": "uint256",
          "name": "defaultDkgPhaseDuration",
          "type": "uint256"
        },
        {
          "indexed": false,
          "internalType": "uint256",
          "name": "groupMaxCapacity",
          "type": "uint256"
        },
        {
          "indexed": false,
          "internalType": "uint256",
          "name": "idealNumberOfGroups",
          "type": "uint256"
        },
        {
          "indexed": false,
          "internalType": "uint256",
          "name": "pendingBlockAfterQuit",
          "type": "uint256"
        },
        {
          "indexed": false,
          "internalType": "uint256",
          "name": "dkgPostProcessReward",
          "type": "uint256"
        }
      ],
      "name": "ControllerConfigSet",
      "type": "event"
    },
    {
      "anonymous": false,
      "inputs": [
        {
          "indexed": true,
          "internalType": "uint256",
          "name": "globalEpoch",
          "type": "uint256"
        },
        {
          "indexed": true,
          "internalType": "uint256",
          "name": "groupIndex",
          "type": "uint256"
        },
        {
          "indexed": true,
          "internalType": "uint256",
          "name": "groupEpoch",
          "type": "uint256"
        },
        {
          "indexed": false,
          "internalType": "uint256",
          "name": "size",
          "type": "uint256"
        },
        {
          "indexed": false,
          "internalType": "uint256",
          "name": "threshold",
          "type": "uint256"
        },
        {
          "indexed": false,
          "internalType": "address[]",
          "name": "members",
          "type": "address[]"
        },
        {
          "indexed": false,
          "internalType": "uint256",
          "name": "assignmentBlockHeight",
          "type": "uint256"
        },
        {
          "indexed": false,
          "internalType": "address",
          "name": "coordinatorAddress",
          "type": "address"
        }
      ],
      "name": "DkgTask",
      "type": "event"
    },
    {
      "anonymous": false,
      "inputs": [
        {
          "indexed": true,
          "internalType": "address",
          "name": "nodeAddress",
          "type": "address"
        },
        {
          "indexed": false,
          "internalType": "uint256",
          "name": "groupIndex",
          "type": "uint256"
        }
      ],
      "name": "NodeActivated",
      "type": "event"
    },
    {
      "anonymous": false,
      "inputs": [
        {
          "indexed": true,
          "internalType": "address",
          "name": "nodeAddress",
          "type": "address"
        }
      ],
      "name": "NodeQuit",
      "type": "event"
    },
    {
      "anonymous": false,
      "inputs": [
        {
          "indexed": true,
          "internalType": "address",
          "name": "nodeAddress",
          "type": "address"
        },
        {
          "indexed": false,
          "internalType": "bytes",
          "name": "dkgPublicKey",
          "type": "bytes"
        },
        {
          "indexed": false,
          "internalType": "uint256",
          "name": "groupIndex",
          "type": "uint256"
        }
      ],
      "name": "NodeRegistered",
      "type": "event"
    },
    {
      "anonymous": false,
      "inputs": [
        {
          "indexed": true,
          "internalType": "address",
          "name": "nodeAddress",
          "type": "address"
        },
        {
          "indexed": false,
          "internalType": "uint256",
          "name": "amount",
          "type": "uint256"
        }
      ],
      "name": "NodeRewarded",
      "type": "event"
    },
    {
      "anonymous": false,
      "inputs": [
        {
          "indexed": true,
          "internalType": "address",
          "name": "nodeIdAddress",
          "type": "address"
        },
        {
          "indexed": false,
          "internalType": "uint256",
          "name": "stakingRewardPenalty",
          "type": "uint256"
        },
        {
          "indexed": false,
          "internalType": "uint256",
          "name": "pendingBlock",
          "type": "uint256"
        }
      ],
      "name": "NodeSlashed",
      "type": "event"
    },
    {
      "anonymous": false,
      "inputs": [
        {
          "indexed": true,
          "internalType": "address",
          "name": "previousOwner",
          "type": "address"
        },
        {
          "indexed": true,
          "internalType": "address",
          "name": "newOwner",
          "type": "address"
        }
      ],
      "name": "OwnershipTransferred",
      "type": "event"
    },
    {
      "inputs": [
        {
          "internalType": "address",
          "name": "nodeAddress",
          "type": "address"
        },
        {
          "internalType": "uint256",
          "name": "amount",
          "type": "uint256"
        }
      ],
      "name": "addReward",
      "outputs": [],
      "stateMutability": "nonpayable",
      "type": "function"
    },
    {
      "inputs": [
        {
          "internalType": "address",
          "name": "recipient",
          "type": "address"
        },
        {
          "internalType": "uint256",
          "name": "amount",
          "type": "uint256"
        }
      ],
      "name": "claimReward",
      "outputs": [],
      "stateMutability": "nonpayable",
      "type": "function"
    },
    {
      "inputs": [
        {
          "components": [
            {
              "internalType": "uint256",
              "name": "groupIndex",
              "type": "uint256"
            },
            {
              "internalType": "uint256",
              "name": "groupEpoch",
              "type": "uint256"
            },
            {
              "internalType": "bytes",
              "name": "publicKey",
              "type": "bytes"
            },
            {
              "internalType": "bytes",
              "name": "partialPublicKey",
              "type": "bytes"
            },
            {
              "internalType": "address[]",
              "name": "disqualifiedNodes",
              "type": "address[]"
            }
          ],
          "internalType": "struct IController.CommitDkgParams",
          "name": "params",
          "type": "tuple"
        }
      ],
      "name": "commitDkg",
      "outputs": [],
      "stateMutability": "nonpayable",
      "type": "function"
    },
    {
      "inputs": [
        {
          "internalType": "uint256",
          "name": "groupIndex",
          "type": "uint256"
        }
      ],
      "name": "getCoordinator",
      "outputs": [
        {
          "internalType": "address",
          "name": "",
          "type": "address"
        }
      ],
      "stateMutability": "view",
      "type": "function"
    },
    {
      "inputs": [
        {
          "internalType": "uint256",
          "name": "groupIndex",
          "type": "uint256"
        }
      ],
      "name": "getGroup",
      "outputs": [
        {
          "components": [
            {
              "internalType": "uint256",
              "name": "index",
              "type": "uint256"
            },
            {
              "internalType": "uint256",
              "name": "epoch",
              "type": "uint256"
            },
            {
              "internalType": "uint256",
              "name": "size",
              "type": "uint256"
            },
            {
              "internalType": "uint256",
              "name": "threshold",
              "type": "uint256"
            },
            {
              "components": [
                {
                  "internalType": "address",
                  "name": "nodeIdAddress",
                  "type": "address"
                },
                {
                  "internalType": "uint256[4]",
                  "name": "partialPublicKey",
                  "type": "uint256[4]"
                }
              ],
              "internalType": "struct IController.Member[]",
              "name": "members",
              "type": "tuple[]"
            },
            {
              "internalType": "address[]",
              "name": "committers",
              "type": "address[]"
            },
            {
              "components": [
                {
                  "internalType": "address[]",
                  "name": "nodeIdAddress",
                  "type": "address[]"
                },
                {
                  "components": [
                    {
                      "internalType": "uint256",
                      "name": "groupEpoch",
                      "type": "uint256"
                    },
                    {
                      "internalType": "uint256[4]",
                      "name": "publicKey",
                      "type": "uint256[4]"
                    },
                    {
                      "internalType": "address[]",
                      "name": "disqualifiedNodes",
                      "type": "address[]"
                    }
                  ],
                  "internalType": "struct IController.CommitResult",
                  "name": "commitResult",
                  "type": "tuple"
                }
              ],
              "internalType": "struct IController.CommitCache[]",
              "name": "commitCacheList",
              "type": "tuple[]"
            },
            {
              "internalType": "bool",
              "name": "isStrictlyMajorityConsensusReached",
              "type": "bool"
            },
            {
              "internalType": "uint256[4]",
              "name": "publicKey",
              "type": "uint256[4]"
            }
          ],
          "internalType": "struct IController.Group",
          "name": "",
          "type": "tuple"
        }
      ],
      "stateMutability": "view",
      "type": "function"
    },
    {
      "inputs": [],
      "name": "getGroupCount",
      "outputs": [
        {
          "internalType": "uint256",
          "name": "",
          "type": "uint256"
        }
      ],
      "stateMutability": "view",
      "type": "function"
    },
    {
      "inputs": [],
      "name": "getLastOutput",
      "outputs": [
        {
          "internalType": "uint256",
          "name": "",
          "type": "uint256"
        }
      ],
      "stateMutability": "view",
      "type": "function"
    },
    {
      "inputs": [
        {
          "internalType": "uint256",
          "name": "groupIndex",
          "type": "uint256"
        },
        {
          "internalType": "uint256",
          "name": "memberIndex",
          "type": "uint256"
        }
      ],
      "name": "getMember",
      "outputs": [
        {
          "components": [
            {
              "internalType": "address",
              "name": "nodeIdAddress",
              "type": "address"
            },
            {
              "internalType": "uint256[4]",
              "name": "partialPublicKey",
              "type": "uint256[4]"
            }
          ],
          "internalType": "struct IController.Member",
          "name": "",
          "type": "tuple"
        }
      ],
      "stateMutability": "view",
      "type": "function"
    },
    {
      "inputs": [
        {
          "internalType": "address",
          "name": "nodeAddress",
          "type": "address"
        }
      ],
      "name": "getNode",
      "outputs": [
        {
          "components": [
            {
              "internalType": "address",
              "name": "idAddress",
              "type": "address"
            },
            {
              "internalType": "bytes",
              "name": "dkgPublicKey",
              "type": "bytes"
            },
            {
              "internalType": "bool",
              "name": "state",
              "type": "bool"
            },
            {
              "internalType": "uint256",
              "name": "pendingUntilBlock",
              "type": "uint256"
            }
          ],
          "internalType": "struct IController.Node",
          "name": "",
          "type": "tuple"
        }
      ],
      "stateMutability": "view",
      "type": "function"
    },
    {
      "inputs": [
        {
          "internalType": "address",
          "name": "nodeAddress",
          "type": "address"
        }
      ],
      "name": "getNodeReward",
      "outputs": [
        {
          "internalType": "uint256",
          "name": "",
          "type": "uint256"
        }
      ],
      "stateMutability": "view",
      "type": "function"
    },
    {
      "inputs": [],
      "name": "getValidGroupIndices",
      "outputs": [
        {
          "internalType": "uint256[]",
          "name": "",
          "type": "uint256[]"
        }
      ],
      "stateMutability": "view",
      "type": "function"
    },
    {
      "inputs": [
        {
          "internalType": "uint256",
          "name": "groupIndex",
          "type": "uint256"
        },
        {
          "internalType": "address",
          "name": "nodeIdAddress",
          "type": "address"
        }
      ],
      "name": "isPartialKeyRegistered",
      "outputs": [
        {
          "internalType": "bool",
          "name": "",
          "type": "bool"
        }
      ],
      "stateMutability": "view",
      "type": "function"
    },
    {
      "inputs": [],
      "name": "nodeActivate",
      "outputs": [],
      "stateMutability": "nonpayable",
      "type": "function"
    },
    {
      "inputs": [],
      "name": "nodeQuit",
      "outputs": [],
      "stateMutability": "nonpayable",
      "type": "function"
    },
    {
      "inputs": [
        {
          "internalType": "bytes",
          "name": "dkgPublicKey",
          "type": "bytes"
        }
      ],
      "name": "nodeRegister",
      "outputs": [],
      "stateMutability": "nonpayable",
      "type": "function"
    },
    {
      "inputs": [],
      "name": "owner",
      "outputs": [
        {
          "internalType": "address",
          "name": "",
          "type": "address"
        }
      ],
      "stateMutability": "view",
      "type": "function"
    },
    {
      "inputs": [
        {
          "internalType": "uint256",
          "name": "groupIndex",
          "type": "uint256"
        },
        {
          "internalType": "uint256",
          "name": "groupEpoch",
          "type": "uint256"
        }
      ],
      "name": "postProcessDkg",
      "outputs": [],
      "stateMutability": "nonpayable",
      "type": "function"
    },
    {
      "inputs": [],
      "name": "renounceOwnership",
      "outputs": [],
      "stateMutability": "nonpayable",
      "type": "function"
    },
    {
      "inputs": [
        {
          "internalType": "address",
          "name": "stakingContractAddress",
          "type": "address"
        },
        {
          "internalType": "address",
          "name": "adapterContractAddress",
          "type": "address"
        },
        {
          "internalType": "uint256",
          "name": "nodeStakingAmount",
          "type": "uint256"
        },
        {
          "internalType": "uint256",
          "name": "disqualifiedNodePenaltyAmount",
          "type": "uint256"
        },
        {
          "internalType": "uint256",
          "name": "defaultNumberOfCommitters",
          "type": "uint256"
        },
        {
          "internalType": "uint256",
          "name": "defaultDkgPhaseDuration",
          "type": "uint256"
        },
        {
          "internalType": "uint256",
          "name": "groupMaxCapacity",
          "type": "uint256"
        },
        {
          "internalType": "uint256",
          "name": "idealNumberOfGroups",
          "type": "uint256"
        },
        {
          "internalType": "uint256",
          "name": "pendingBlockAfterQuit",
          "type": "uint256"
        },
        {
          "internalType": "uint256",
          "name": "dkgPostProcessReward",
          "type": "uint256"
        }
      ],
      "name": "setControllerConfig",
      "outputs": [],
      "stateMutability": "nonpayable",
      "type": "function"
    },
    {
      "inputs": [
        {
          "internalType": "uint256",
          "name": "lastOutput",
          "type": "uint256"
        }
      ],
      "name": "setLastOutput",
      "outputs": [],
      "stateMutability": "nonpayable",
      "type": "function"
    },
    {
      "inputs": [
        {
          "internalType": "address",
          "name": "newOwner",
          "type": "address"
        }
      ],
      "name": "transferOwnership",
      "outputs": [],
      "stateMutability": "nonpayable",
      "type": "function"
    }
  ],
  "bytecode": {
    "object": "0x60a06040523480156200001157600080fd5b5060405162005837380380620058378339810160408190526200003491620000a6565b6200003f3362000056565b6001600160a01b03909116608052601155620000e2565b600080546001600160a01b038381166001600160a01b0319831681178455604051919092169283917f8be0079c531659141344cd1fd0a4f28419497f9722a3daafe3b4186f6b6457e09190a35050565b60008060408385031215620000ba57600080fd5b82516001600160a01b0381168114620000d257600080fd5b6020939093015192949293505050565b608051615739620000fe600039600061087e01526157396000f3fe60806040523480156200001157600080fd5b5060043610620001515760003560e01c80638da5cb5b11620000c7578063b83dd5f01162000086578063b83dd5f014620002c5578063c2db900b14620002f1578063ceb606541462000319578063e37eb96c146200033f578063f2fde38b1462000356578063f3df0802146200036d57600080fd5b80638da5cb5b14620002535780639a075bc314620002655780639d209048146200026f5780639feb8f501462000295578063b330a0fd14620002ac57600080fd5b80634d79a89311620001145780634d79a89314620001f957806351a2b9a0146200021f578063715018a614620002285780637a2af56e146200023257806380110e4e146200023c57600080fd5b806306545a9314620001565780630bf9c5c6146200016d578063174e31c414620001865780632ff9e520146200019d57806342424d6f14620001b4575b600080fd5b600c545b6040519081526020015b60405180910390f35b620001846200017e36600462003245565b62000384565b005b62000184620001973660046200327e565b6200080f565b62000184620001ae366004620032ad565b620008aa565b620001e0620001c536600462003330565b6000908152600a60205260409020546001600160a01b031690565b6040516001600160a01b03909116815260200162000164565b620002106200020a36600462003245565b62000a3a565b60405162000164919062003391565b6011546200015a565b6200018462000ad7565b6200018462000aef565b620001846200024d366004620033a1565b62000ca2565b6000546001600160a01b0316620001e0565b6200018462000fc5565b620002866200028036600462003417565b6200126f565b60405162000164919062003492565b62000184620002a63660046200327e565b62001393565b620002b662001430565b604051620001649190620034e4565b6200015a620002d636600462003417565b6001600160a01b031660009081526009602052604090205490565b62000308620003023660046200352a565b620014b3565b604051901515815260200162000164565b620003306200032a36600462003330565b6200187f565b6040516200016491906200368a565b6200018462000350366004620038d6565b62001b9d565b620001846200036736600462003417565b62002379565b620001846200037e36600462003330565b620023f8565b600c548210620003af57604051637f6efcb560e11b8152600481018390526024015b60405180910390fd5b6040516358914d0360e01b8152600b60048201526024810183905233604482015273__$99f6e31d9157e72684c1fb13c20fb01510$__906358914d0390606401602060405180830381865af41580156200040d573d6000803e3d6000fd5b505050506040513d601f19601f82011682018060405250810190620004339190620039ac565b196200045c5760405163eb51f5f960e01b815260048101839052336024820152604401620003a6565b6000828152600d6020526040902060018101548214620004a757600181015460405163048b63c360e11b815260048101859052602481018490526044810191909152606401620003a6565b6000838152600a60205260409020546001600160a01b0316620004e157604051635291bbcf60e01b815260048101849052602401620003a6565b6000838152600a602090815260409182902054825163221f951160e01b815292516001600160a01b0390911692839263221f9511926004808401938290030181865afa15801562000536573d6000803e3d6000fd5b505050506040513d601f19601f820116820180604052508101906200055c9190620039c6565b60000b60001914620005f45783816001600160a01b031663221f95116040518163ffffffff1660e01b8152600401602060405180830381865afa158015620005a8573d6000803e3d6000fd5b505050506040513d601f19601f82011682018060405250810190620005ce9190620039c6565b60405163f7c06f9160e01b8152600481019290925260000b6024820152604401620003a6565b806001600160a01b0316639cb8a26a6040518163ffffffff1660e01b8152600401600060405180830381600087803b1580156200063057600080fd5b505af115801562000645573d6000803e3d6000fd5b5050506000858152600a6020526040902080546001600160a01b031916905550600782015460ff16620007a757601154604051630295316d60e51b8152600b6004820152602481018690526044810191909152600090819073__$99f6e31d9157e72684c1fb13c20fb01510$__906352a62da090606401600060405180830381865af4158015620006da573d6000803e3d6000fd5b505050506040513d6000823e601f3d908101601f1916820160405262000704919081019062003aba565b9150915060005b82518110156200075957620007448382815181106200072e576200072e62003b24565b6020026020010151600160030154600062002429565b80620007508162003b50565b9150506200070b565b5060005b8151811015620007a3576200078e82828151811062000780576200078062003b24565b6020026020010151620024e6565b806200079a8162003b50565b9150506200075d565b5050505b6007543360009081526009602052604081208054909190620007cb90849062003b6c565b909155505060075460405190815233907f4ea3e03797614006774acce32832fbaa20d9d69de554df367f4bb8a98b92e742906020015b60405180910390a250505050565b336000908152600960205260409020548111156200084057604051631e9acf1760e31b815260040160405180910390fd5b6001600160a01b038216600090815260096020526040812080548392906200086a90849062003b82565b90915550620008a690506001600160a01b037f000000000000000000000000000000000000000000000000000000000000000016838362002b57565b5050565b620008b462002bb0565b6040805160e0810182526001600160a01b038c8116808352908c16602083018190528284018c9052606083018b90526080830189905260a0830186905260c0909201849052600180546001600160a01b031990811690921790556002805490911690911790556003899055600488815560058790556006849055600783905590516301a79f6360e71b8152600b9181019190915260248101849052604481018590526064810187905273__$99f6e31d9157e72684c1fb13c20fb01510$__9063d3cfb1809060840160006040518083038186803b1580156200099557600080fd5b505af4158015620009aa573d6000803e3d6000fd5b5050604080516001600160a01b03808f1682528d1660208201529081018b9052606081018a90526080810189905260a0810188905260c0810187905260e08101869052610100810185905261012081018490527f3202ca2a288846b65f27bc3e13c1e38aaf2e4356b80b963d67aea8a822645e1f925061014001905060405180910390a150505050505050505050565b62000a4462003051565b6000838152600d6020526040902060040180548390811062000a6a5762000a6a62003b24565b6000918252602091829020604080518082018252600590930290910180546001600160a01b0316835281516080810190925291928301906001830160048282826020028201915b81548152602001906001019080831162000ab15750505050508152505090505b92915050565b62000ae162002bb0565b62000aed600062002c0c565b565b336000818152600860205260409020805490916001600160a01b039091161462000b2b576040516229eaad60e31b815260040160405180910390fd5b60115460405163a6ae8a8160e01b8152600b6004820152336024820152604481019190915260009073__$99f6e31d9157e72684c1fb13c20fb01510$__9063a6ae8a8190606401600060405180830381865af415801562000b90573d6000803e3d6000fd5b505050506040513d6000823e601f3d908101601f1916820160405262000bba919081019062003b98565b905060005b815181101562000bf75762000be282828151811062000780576200078062003b24565b8062000bee8162003b50565b91505062000bbf565b5062000c093360016005015462002c5c565b600154600354604051637eee288d60e01b815233600482015260248101919091526001600160a01b0390911690637eee288d90604401600060405180830381600087803b15801562000c5a57600080fd5b505af115801562000c6f573d6000803e3d6000fd5b50506040513392507f68577adbb6b0647e21353ff032be5797d9fa0879ce7e05fe617e40368441f97d9150600090a25050565b336000908152600860205260409020546001600160a01b03161562000cda57604051630eb0d31360e11b815260040160405180910390fd5b6040516316f6db8160e01b815260009073__$34d23ddaee48904c6c566425acbfa0fc0e$__906316f6db819062000d18908690869060040162003bf9565b608060405180830381865af415801562000d36573d6000803e3d6000fd5b505050506040513d601f19601f8201168201806040525081019062000d5c919062003c0f565b604051636fda2c7960e01b815290915073__$34d23ddaee48904c6c566425acbfa0fc0e$__90636fda2c799062000d9890849060040162003c94565b602060405180830381865af415801562000db6573d6000803e3d6000fd5b505050506040513d601f19601f8201168201806040525081019062000ddc919062003cba565b62000dfa5760405163145a1fdd60e31b815260040160405180910390fd5b60015460035460405163282d3fdf60e01b815233600482015260248101919091526001600160a01b039091169063282d3fdf90604401600060405180830381600087803b15801562000e4b57600080fd5b505af115801562000e60573d6000803e3d6000fd5b505033600081815260086020526040902080546001600160a01b03191690911781559150506001810162000e9684868362003d5e565b5060028101805460ff19166001179055601154604051629bf68360e11b8152600b60048201523360248201526044810191909152600090819073__$99f6e31d9157e72684c1fb13c20fb01510$__90630137ed0690606401600060405180830381865af415801562000f0c573d6000803e3d6000fd5b505050506040513d6000823e601f3d908101601f1916820160405262000f36919081019062003e2b565b9150915060005b815181101562000f755762000f6082828151811062000780576200078062003b24565b8062000f6c8162003b50565b91505062000f3d565b50336001600160a01b03167fd4ec586f4f9f417f99e20fe821fbaa10a10a4b95f8712a0c57c6d8ed970e98bd87878560405162000fb59392919062003e6b565b60405180910390a2505050505050565b336000818152600860205260409020805490916001600160a01b039091161462001001576040516229eaad60e31b815260040160405180910390fd5b600281015460ff161562001028576040516324a228bb60e21b815260040160405180910390fd5b4381600301541115620010575780600301546040516363525acb60e11b8152600401620003a691815260200190565b60015460405163929ec53760e01b81523360048201526000916001600160a01b03169063929ec53790602401602060405180830381865afa158015620010a1573d6000803e3d6000fd5b505050506040513d601f19601f82011682018060405250810190620010c79190620039ac565b6003549091508110156200115d576001546003546001600160a01b039091169063282d3fdf903390620010fc90859062003b82565b6040516001600160e01b031960e085901b1681526001600160a01b0390921660048301526024820152604401600060405180830381600087803b1580156200114357600080fd5b505af115801562001158573d6000803e3d6000fd5b505050505b60028201805460ff19166001179055601154604051629bf68360e11b8152600b60048201523360248201526044810191909152600090819073__$99f6e31d9157e72684c1fb13c20fb01510$__90630137ed0690606401600060405180830381865af4158015620011d2573d6000803e3d6000fd5b505050506040513d6000823e601f3d908101601f19168201604052620011fc919081019062003e2b565b9150915060005b81518110156200123b576200122682828151811062000780576200078062003b24565b80620012328162003b50565b91505062001203565b5060405182815233907ffc97cd9154b40031874ef09a9436a4b60052e4dcf40f21b1258be265fac4a3979060200162000801565b620012a6604051806080016040528060006001600160a01b0316815260200160608152602001600015158152602001600081525090565b6001600160a01b038083166000908152600860209081526040918290208251608081019093528054909316825260018301805492939291840191620012eb9062003cd8565b80601f0160208091040260200160405190810160405280929190818152602001828054620013199062003cd8565b80156200136a5780601f106200133e576101008083540402835291602001916200136a565b820191906000526020600020905b8154815290600101906020018083116200134c57829003601f168201915b5050509183525050600282015460ff161515602082015260039091015460409091015292915050565b6002546001600160a01b03163314620013bf5760405163469666c560e01b815260040160405180910390fd5b6001600160a01b03821660009081526009602052604081208054839290620013e990849062003b6c565b90915550506040518181526001600160a01b038316907f4ea3e03797614006774acce32832fbaa20d9d69de554df367f4bb8a98b92e7429060200160405180910390a25050565b604051631c2da66560e31b8152600b600482015260609073__$99f6e31d9157e72684c1fb13c20fb01510$__9063e16d332890602401600060405180830381865af415801562001484573d6000803e3d6000fd5b505050506040513d6000823e601f3d908101601f19168201604052620014ae919081019062003b98565b905090565b6000828152600d60209081526040808320815161012081018352815481526001820154818501526002820154818401526003820154606082015260048201805484518187028101870190955280855286959294608086019390929190879084015b82821015620015905760008481526020908190206040805180820182526005860290920180546001600160a01b0316835281516080810190925291928301906001830160048282826020028201915b81548152602001906001019080831162001563575050505050815250508152602001906001019062001514565b50505050815260200160058201805480602002602001604051908101604052809291908181526020018280548015620015f357602002820191906000526020600020905b81546001600160a01b03168152600190910190602001808311620015d4575b5050505050815260200160068201805480602002602001604051908101604052809291908181526020016000905b8282101562001771578382906000526020600020906007020160405180604001604052908160008201805480602002602001604051908101604052809291908181526020018280548015620016a057602002820191906000526020600020905b81546001600160a01b0316815260019091019060200180831162001681575b50505091835250506040805160608101825260018401805482528251608081019384905260209485019492939192840191600287019060049082845b815481526020019060010190808311620016dc5750505050508152602001600582018054806020026020016040519081016040528092919081815260200182805480156200175457602002820191906000526020600020905b81546001600160a01b0316815260019091019060200180831162001735575b505050505081525050815250508152602001906001019062001621565b50505090825250600782015460ff1615156020820152604080516080810182529101906008830160048282826020028201915b815481526020019060010190808311620017a457505050505081525050905060005b8160800151518110156200187457836001600160a01b031682608001518281518110620017f757620017f762003b24565b6020026020010151600001516001600160a01b0316036200185f57816080015181815181106200182b576200182b62003b24565b6020026020010151602001516000600481106200184c576200184c62003b24565b6020020151600014159250505062000ad1565b806200186b8162003b50565b915050620017c6565b506000949350505050565b620018896200307b565b6000828152600d602090815260408083208151610120810183528154815260018201548185015260028201548184015260038201546060820152600482018054845181870281018701909552808552919592946080870194939192919084015b82821015620019655760008481526020908190206040805180820182526005860290920180546001600160a01b0316835281516080810190925291928301906001830160048282826020028201915b815481526020019060010190808311620019385750505050508152505081526020019060010190620018e9565b50505050815260200160058201805480602002602001604051908101604052809291908181526020018280548015620019c857602002820191906000526020600020905b81546001600160a01b03168152600190910190602001808311620019a9575b5050505050815260200160068201805480602002602001604051908101604052809291908181526020016000905b8282101562001b4657838290600052602060002090600702016040518060400160405290816000820180548060200260200160405190810160405280929190818152602001828054801562001a7557602002820191906000526020600020905b81546001600160a01b0316815260019091019060200180831162001a56575b50505091835250506040805160608101825260018401805482528251608081019384905260209485019492939192840191600287019060049082845b81548152602001906001019080831162001ab157505050505081526020016005820180548060200260200160405190810160405280929190818152602001828054801562001b2957602002820191906000526020600020905b81546001600160a01b0316815260019091019060200180831162001b0a575b5050505050815250508152505081526020019060010190620019f6565b50505090825250600782015460ff1615156020820152604080516080810182529101906008830160048282826020028201915b81548152602001906001019080831162001b79575050505050815250509050919050565b600c5481511062001bc8578051604051637f6efcb560e11b81526004810191909152602401620003a6565b80516000908152600a60205260409020546001600160a01b031662001c07578051604051635291bbcf60e01b81526004810191909152602401620003a6565b80516000908152600a602090815260409182902054825163221f951160e01b815292516001600160a01b0390911692839263221f9511926004808401938290030181865afa15801562001c5e573d6000803e3d6000fd5b505050506040513d601f19601f8201168201806040525081019062001c849190620039c6565b60000b1962001cad5781516040516343609fe160e01b81526004810191909152602401620003a6565b81516000908152600d6020908152604090912060018101549184015190911462001d085782516020840151600183015460405163048b63c360e11b8152600481019390935260248301919091526044820152606401620003a6565b82516040516358914d0360e01b8152600b6004820152602481019190915233604482015273__$99f6e31d9157e72684c1fb13c20fb01510$__906358914d0390606401602060405180830381865af415801562001d69573d6000803e3d6000fd5b505050506040513d601f19601f8201168201806040525081019062001d8f9190620039ac565b1962001dbb57825160405163eb51f5f960e01b81526004810191909152336024820152604401620003a6565b825162001dc99033620014b3565b1562001df557825160405163173ca10960e31b81526004810191909152336024820152604401620003a6565b60608301516040516316f6db8160e01b815260009173__$34d23ddaee48904c6c566425acbfa0fc0e$__916316f6db819162001e349160040162003e91565b608060405180830381865af415801562001e52573d6000803e3d6000fd5b505050506040513d601f19601f8201168201806040525081019062001e78919062003c0f565b604051636fda2c7960e01b815290915073__$34d23ddaee48904c6c566425acbfa0fc0e$__90636fda2c799062001eb490849060040162003c94565b602060405180830381865af415801562001ed2573d6000803e3d6000fd5b505050506040513d601f19601f8201168201806040525081019062001ef8919062003cba565b62001f1657604051631886185760e01b815260040160405180910390fd5b60408085015190516316f6db8160e01b815260009173__$34d23ddaee48904c6c566425acbfa0fc0e$__916316f6db819162001f559160040162003e91565b608060405180830381865af415801562001f73573d6000803e3d6000fd5b505050506040513d601f19601f8201168201806040525081019062001f99919062003c0f565b604051636fda2c7960e01b815290915073__$34d23ddaee48904c6c566425acbfa0fc0e$__90636fda2c799062001fd590849060040162003c94565b602060405180830381865af415801562001ff3573d6000803e3d6000fd5b505050506040513d601f19601f8201168201806040525081019062002019919062003cba565b620020375760405163145a1fdd60e31b815260040160405180910390fd5b604080516060810182526020808801518252810183905260808701518183015286519151636aba6eeb60e11b8152909173__$99f6e31d9157e72684c1fb13c20fb01510$__9163d574ddd6916200209791600b9190869060040162003ea6565b602060405180830381865af4158015620020b5573d6000803e3d6000fd5b505050506040513d601f19601f82011682018060405250810190620020db919062003cba565b620021c25760408051600181830181815260808301909352600092829160608301602080368337505050815260200183905280518051919250339160009062002128576200212862003b24565b6001600160a01b039092166020928302919091018201526006860180546001810182556000918252908290208351805185946007909402909201926200217492849290910190620030cb565b50602082810151805160018401908155918101519091906200219d906002850190600462003135565b5060408201518051620021bb916005840191602090910190620030cb565b5050505050505b85516040516358914d0360e01b8152600b6004808301919091526024820192909252336044820152849186019073__$99f6e31d9157e72684c1fb13c20fb01510$__906358914d0390606401602060405180830381865af41580156200222c573d6000803e3d6000fd5b505050506040513d601f19601f82011682018060405250810190620022529190620039ac565b8154811062002265576200226562003b24565b90600052602060002090600502016001019060046200228692919062003135565b50600784015460ff166200237157855160115460405163449cf2fd60e11b8152600b600482015260248101929092526044820152600090819073__$99f6e31d9157e72684c1fb13c20fb01510$__90638939e5fa90606401600060405180830381865af4158015620022fc573d6000803e3d6000fd5b505050506040513d6000823e601f3d908101601f1916820160405262002326919081019062003f31565b9150915081156200236e5760005b81518110156200236c57620023578282815181106200072e576200072e62003b24565b80620023638162003b50565b91505062002334565b505b50505b505050505050565b6200238362002bb0565b6001600160a01b038116620023ea5760405162461bcd60e51b815260206004820152602660248201527f4f776e61626c653a206e6577206f776e657220697320746865207a65726f206160448201526564647265737360d01b6064820152608401620003a6565b620023f58162002c0c565b50565b6002546001600160a01b03163314620024245760405163469666c560e01b815260040160405180910390fd5b601155565b600154604051638899fdeb60e01b81526001600160a01b0385811660048301526024820185905290911690638899fdeb90604401600060405180830381600087803b1580156200247857600080fd5b505af11580156200248d573d6000803e3d6000fd5b505050506200249d838262002c5c565b60408051838152602081018390526001600160a01b038516917fa8d720d0a0a2e7c96bf9eb87433901ebb6331356c8f3283b2568de34478703cc910160405180910390a2505050565b620024f3600b8262002cf4565b6000818152600d602090815260408083208151610120810183528154815260018201548185015260028201548184015260038201546060820152600482018054845181870281018701909552808552919492936080860193909290879084015b82821015620025cf5760008481526020908190206040805180820182526005860290920180546001600160a01b0316835281516080810190925291928301906001830160048282826020028201915b815481526020019060010190808311620025a2575050505050815250508152602001906001019062002553565b505050508152602001600582018054806020026020016040519081016040528092919081815260200182805480156200263257602002820191906000526020600020905b81546001600160a01b0316815260019091019060200180831162002613575b5050505050815260200160068201805480602002602001604051908101604052809291908181526020016000905b82821015620027b0578382906000526020600020906007020160405180604001604052908160008201805480602002602001604051908101604052809291908181526020018280548015620026df57602002820191906000526020600020905b81546001600160a01b03168152600190910190602001808311620026c0575b50505091835250506040805160608101825260018401805482528251608081019384905260209485019492939192840191600287019060049082845b8154815260200190600101908083116200271b5750505050508152602001600582018054806020026020016040519081016040528092919081815260200182805480156200279357602002820191906000526020600020905b81546001600160a01b0316815260019091019060200180831162002774575b505050505081525050815250508152602001906001019062002660565b50505090825250600782015460ff1615156020820152604080516080810182529101906008830160048282826020028201915b815481526020019060010190808311620027e3575050505050815250509050600081606001516001600401546040516200281d9062003166565b9182526020820152604001604051809103906000f08015801562002845573d6000803e3d6000fd5b506000848152600a602052604080822080546001600160a01b0319166001600160a01b038516179055840151919250906001600160401b038111156200288f576200288f62003748565b604051908082528060200260200182016040528015620028b9578160200160208202803683370190505b509050600083604001516001600160401b03811115620028dd57620028dd62003748565b6040519080825280602002602001820160405280156200291257816020015b6060815260200190600190039081620028fc5790505b50905060005b846040015181101562002a9257846080015181815181106200293e576200293e62003b24565b6020026020010151600001518382815181106200295f576200295f62003b24565b60200260200101906001600160a01b031690816001600160a01b03168152505060086000866080015183815181106200299c576200299c62003b24565b6020026020010151600001516001600160a01b03166001600160a01b031681526020019081526020016000206001018054620029d89062003cd8565b80601f016020809104026020016040519081016040528092919081815260200182805462002a069062003cd8565b801562002a575780601f1062002a2b5761010080835404028352916020019162002a57565b820191906000526020600020905b81548152906001019060200180831162002a3957829003601f168201915b505050505082828151811062002a715762002a7162003b24565b6020026020010181905250808062002a899062003b50565b91505062002918565b506040516337f8d5ff60e01b81526001600160a01b038416906337f8d5ff9062002ac3908590859060040162003f7a565b600060405180830381600087803b15801562002ade57600080fd5b505af115801562002af3573d6000803e3d6000fd5b5050505083602001518460000151600b600001547fbbd25d64683f157b2e3544d3d6430e14102db1e49592cf4dcaf827e2ded517ee8760400151886060015187438a60405162002b4895949392919062003ff2565b60405180910390a45050505050565b604080516001600160a01b038416602482015260448082018490528251808303909101815260649091019091526020810180516001600160e01b031663a9059cbb60e01b17905262002bab90849062002dd5565b505050565b6000546001600160a01b0316331462000aed5760405162461bcd60e51b815260206004820181905260248201527f4f776e61626c653a2063616c6c6572206973206e6f7420746865206f776e65726044820152606401620003a6565b600080546001600160a01b038381166001600160a01b0319831681178455604051919092169283917f8be0079c531659141344cd1fd0a4f28419497f9722a3daafe3b4186f6b6457e09190a35050565b6001600160a01b038216600090815260086020526040902060028101805460ff1916905560030154439081101562002cc7576001600160a01b0383166000908152600860205260408120600301805484929062002cbb90849062003b6c565b9091555062002bab9050565b62002cd3828262003b6c565b6001600160a01b038416600090815260086020526040902060030155505050565b815482600062002d048362003b50565b909155505060008181526002830160205260408120600181018054919262002d2c8362003b50565b909155505060078101805460ff1916905562002d4d60058201600062003174565b62002d5d60068201600062003194565b60005b600482015481101562002dcf5781600401818154811062002d855762002d8562003b24565b9060005260206000209060050201600101600062002dba91905060008155600101600081556001016000815560010160009055565b8062002dc68162003b50565b91505062002d60565b50505050565b600062002e2c826040518060400160405280602081526020017f5361666545524332303a206c6f772d6c6576656c2063616c6c206661696c6564815250856001600160a01b031662002eae9092919063ffffffff16565b80519091501562002bab578080602001905181019062002e4d919062003cba565b62002bab5760405162461bcd60e51b815260206004820152602a60248201527f5361666545524332303a204552433230206f7065726174696f6e20646964206e6044820152691bdd081cdd58d8d9595960b21b6064820152608401620003a6565b606062002ebf848460008562002ec7565b949350505050565b60608247101562002f2a5760405162461bcd60e51b815260206004820152602660248201527f416464726573733a20696e73756666696369656e742062616c616e636520666f6044820152651c8818d85b1b60d21b6064820152608401620003a6565b600080866001600160a01b0316858760405162002f48919062004035565b60006040518083038185875af1925050503d806000811462002f87576040519150601f19603f3d011682016040523d82523d6000602084013e62002f8c565b606091505b509150915062002f9f8783838762002faa565b979650505050505050565b606083156200301e57825160000362003016576001600160a01b0385163b620030165760405162461bcd60e51b815260206004820152601d60248201527f416464726573733a2063616c6c20746f206e6f6e2d636f6e74726163740000006044820152606401620003a6565b508162002ebf565b62002ebf8383815115620030355781518083602001fd5b8060405162461bcd60e51b8152600401620003a6919062003e91565b604051806040016040528060006001600160a01b0316815260200162003076620031b7565b905290565b6040518061012001604052806000815260200160008152602001600081526020016000815260200160608152602001606081526020016060815260200160001515815260200162003076620031b7565b82805482825590600052602060002090810192821562003123579160200282015b828111156200312357825182546001600160a01b0319166001600160a01b03909116178255602090920191600190910190620030ec565b5062003131929150620031d5565b5090565b826004810192821562003123579160200282015b828111156200312357825182559160200191906001019062003149565b6116b0806200405483390190565b5080546000825590600052602060002090810190620023f59190620031d5565b5080546000825560070290600052602060002090810190620023f59190620031ec565b60405180608001604052806004906020820280368337509192915050565b5b80821115620031315760008155600101620031d6565b808211156200313157600062003203828262003174565b60006001830181815560028401829055600384018290556004840182905560058401829055906200323960058301600062003174565b505050600701620031ec565b600080604083850312156200325957600080fd5b50508035926020909101359150565b6001600160a01b0381168114620023f557600080fd5b600080604083850312156200329257600080fd5b82356200329f8162003268565b946020939093013593505050565b6000806000806000806000806000806101408b8d031215620032ce57600080fd5b8a35620032db8162003268565b995060208b0135620032ed8162003268565b999c999b505050506040880135976060810135976080820135975060a0820135965060c0820135955060e082013594506101008201359350610120909101359150565b6000602082840312156200334357600080fd5b5035919050565b8060005b600481101562002dcf5781518452602093840193909101906001016200334e565b80516001600160a01b031682526020808201519062002bab908401826200334a565b60a0810162000ad182846200336f565b60008060208385031215620033b557600080fd5b82356001600160401b0380821115620033cd57600080fd5b818501915085601f830112620033e257600080fd5b813581811115620033f257600080fd5b8660208285010111156200340557600080fd5b60209290920196919550909350505050565b6000602082840312156200342a57600080fd5b8135620034378162003268565b9392505050565b60005b838110156200345b57818101518382015260200162003441565b50506000910152565b600081518084526200347e8160208601602086016200343e565b601f01601f19169290920160200192915050565b602080825282516001600160a01b03168282015282015160806040830152600090620034c260a084018262003464565b9050604084015115156060840152606084015160808401528091505092915050565b6020808252825182820181905260009190848201906040850190845b818110156200351e5783518352928401929184019160010162003500565b50909695505050505050565b600080604083850312156200353e57600080fd5b823591506020830135620035528162003268565b809150509250929050565b600081518084526020808501945080840160005b838110156200359b57620035878783516200336f565b60a096909601959082019060010162003571565b509495945050505050565b600081518084526020808501945080840160005b838110156200359b5781516001600160a01b031687529582019590820190600101620035ba565b600081518084526020808501808196508360051b8101915082860160005b858110156200367d5782840389528151604081518187526200362482880182620035a6565b90508783015192508681038888015260c083518252888401516200364b8a8401826200334a565b508284015193508060a08301526200366681830185620035a6565b9c89019c97505050928601925050600101620035ff565b5091979650505050505050565b60208152815160208201526020820151604082015260408201516060820152606082015160808201526000608083015161018060a0840152620036d26101a08401826200355d565b905060a0840151601f19808584030160c0860152620036f28383620035a6565b925060c08601519150808584030160e086015250620037128282620035e1565b91505060e08401516101006200372b8186018315159052565b8501519050620037406101208501826200334a565b509392505050565b634e487b7160e01b600052604160045260246000fd5b60405160a081016001600160401b038111828210171562003783576200378362003748565b60405290565b604051601f8201601f191681016001600160401b0381118282101715620037b457620037b462003748565b604052919050565b600082601f830112620037ce57600080fd5b81356001600160401b03811115620037ea57620037ea62003748565b620037ff601f8201601f191660200162003789565b8181528460208386010111156200381557600080fd5b816020850160208301376000918101602001919091529392505050565b60006001600160401b038211156200384e576200384e62003748565b5060051b60200190565b600082601f8301126200386a57600080fd5b81356020620038836200387d8362003832565b62003789565b82815260059290921b84018101918181019086841115620038a357600080fd5b8286015b84811015620038cb578035620038bd8162003268565b8352918301918301620038a7565b509695505050505050565b600060208284031215620038e957600080fd5b81356001600160401b03808211156200390157600080fd5b9083019060a082860312156200391657600080fd5b620039206200375e565b82358152602083013560208201526040830135828111156200394157600080fd5b6200394f87828601620037bc565b6040830152506060830135828111156200396857600080fd5b6200397687828601620037bc565b6060830152506080830135828111156200398f57600080fd5b6200399d8782860162003858565b60808301525095945050505050565b600060208284031215620039bf57600080fd5b5051919050565b600060208284031215620039d957600080fd5b81518060000b81146200343757600080fd5b600082601f830112620039fd57600080fd5b8151602062003a106200387d8362003832565b82815260059290921b8401810191818101908684111562003a3057600080fd5b8286015b84811015620038cb57805162003a4a8162003268565b835291830191830162003a34565b600082601f83011262003a6a57600080fd5b8151602062003a7d6200387d8362003832565b82815260059290921b8401810191818101908684111562003a9d57600080fd5b8286015b84811015620038cb578051835291830191830162003aa1565b6000806040838503121562003ace57600080fd5b82516001600160401b038082111562003ae657600080fd5b62003af486838701620039eb565b9350602085015191508082111562003b0b57600080fd5b5062003b1a8582860162003a58565b9150509250929050565b634e487b7160e01b600052603260045260246000fd5b634e487b7160e01b600052601160045260246000fd5b60006001820162003b655762003b6562003b3a565b5060010190565b8082018082111562000ad15762000ad162003b3a565b8181038181111562000ad15762000ad162003b3a565b60006020828403121562003bab57600080fd5b81516001600160401b0381111562003bc257600080fd5b62002ebf8482850162003a58565b81835281816020850137506000828201602090810191909152601f909101601f19169091010190565b60208152600062002ebf60208301848662003bd0565b60006080828403121562003c2257600080fd5b82601f83011262003c3257600080fd5b604051608081018181106001600160401b038211171562003c575762003c5762003748565b60405280608084018581111562003c6d57600080fd5b845b8181101562003c8957805183526020928301920162003c6f565b509195945050505050565b6080810162000ad182846200334a565b8051801515811462003cb557600080fd5b919050565b60006020828403121562003ccd57600080fd5b620034378262003ca4565b600181811c9082168062003ced57607f821691505b60208210810362003d0e57634e487b7160e01b600052602260045260246000fd5b50919050565b601f82111562002bab57600081815260208120601f850160051c8101602086101562003d3d5750805b601f850160051c820191505b81811015620023715782815560010162003d49565b6001600160401b0383111562003d785762003d7862003748565b62003d908362003d89835462003cd8565b8362003d14565b6000601f84116001811462003dc7576000851562003dae5750838201355b600019600387901b1c1916600186901b17835562003e24565b600083815260209020601f19861690835b8281101562003dfa578685013582556020948501946001909201910162003dd8565b508682101562003e185760001960f88860031b161c19848701351681555b505060018560011b0183555b5050505050565b6000806040838503121562003e3f57600080fd5b8251915060208301516001600160401b0381111562003e5d57600080fd5b62003b1a8582860162003a58565b60408152600062003e8160408301858762003bd0565b9050826020830152949350505050565b60208152600062003437602083018462003464565b838152600060208481840152606060408401526101208301845160608501528185015162003ed860808601826200334a565b50604085015160c06101008601528051918290528201906000906101408601905b8083101562003f245783516001600160a01b0316825292840192600192909201919084019062003ef9565b5098975050505050505050565b6000806040838503121562003f4557600080fd5b62003f508362003ca4565b915060208301516001600160401b0381111562003f6c57600080fd5b62003b1a85828601620039eb565b60408152600062003f8f6040830185620035a6565b6020838203818501528185518084528284019150828160051b85010183880160005b8381101562003fe357601f1987840301855262003fd083835162003464565b9486019492509085019060010162003fb1565b50909998505050505050505050565b85815284602082015260a0604082015260006200401360a0830186620035a6565b6060830194909452506001600160a01b03919091166080909101529392505050565b60008251620040498184602087016200343e565b919091019291505056fe60c0604052600060065534801561001557600080fd5b506040516116b03803806116b08339810160408190526100349161009b565b61003d3361004b565b60a0919091526080526100bf565b600080546001600160a01b038381166001600160a01b0319831681178455604051919092169283917f8be0079c531659141344cd1fd0a4f28419497f9722a3daafe3b4186f6b6457e09190a35050565b600080604083850312156100ae57600080fd5b505080516020909101519092909150565b60805160a05161159461011c6000396000818161023e01526107680152600081816101d1015281816103aa015281816103dc015281816104150152818161044e0152818161089b0152818161095d0152610a2301526115946000f3fe608060405234801561001057600080fd5b506004361061012c5760003560e01c8063785ffb37116100ad578063cc5ef00911610071578063cc5ef009146102a1578063cd5e3837146102a9578063ce7c2ac2146102bc578063d73fe0aa146102cf578063f2fde38b146102d757600080fd5b8063785ffb37146102395780637fd28346146102605780638da5cb5b146102735780639cb8a26a14610284578063b0ef81791461028c57600080fd5b80634ae2b849116100f45780634ae2b849146101cc5780634e3874a0146101f35780635aa68ac014610209578063670d14b21461021e578063715018a61461023157600080fd5b80630ea6564814610131578063221f95111461015a57806335c1d3491461017557806337f8d5ff146101a057806348cd4cb1146101b5575b600080fd5b61014461013f3660046110a7565b6102ea565b604051610151919061111d565b60405180910390f35b610162610384565b60405160009190910b8152602001610151565b610188610183366004611130565b61048b565b6040516001600160a01b039091168152602001610151565b6101b36101ae366004611195565b6104b5565b005b6101be60065481565b604051908152602001610151565b6101be7f000000000000000000000000000000000000000000000000000000000000000081565b6101fb61060a565b604051610151929190611256565b61021161078f565b6040516101519190611277565b61014461022c3660046110a7565b6107f1565b6101b361080a565b6101be7f000000000000000000000000000000000000000000000000000000000000000081565b6101b361026e3660046112c4565b61081e565b6000546001600160a01b0316610188565b6101b3610b2e565b610294610b44565b6040516101519190611336565b610294610ca2565b6101446102b73660046110a7565b610dfa565b6101446102ca3660046110a7565b610e13565b610294610e2c565b6101b36102e53660046110a7565b610f84565b6003602052600090815260409020805461030390611349565b80601f016020809104026020016040519081016040528092919081815260200182805461032f90611349565b801561037c5780601f106103515761010080835404028352916020019161037c565b820191906000526020600020905b81548152906001019060200180831161035f57829003601f168201915b505050505081565b60006006546000036103965750600090565b6000600654436103a69190611393565b90507f000000000000000000000000000000000000000000000000000000000000000081116103d757600191505090565b6104027f000000000000000000000000000000000000000000000000000000000000000060026113ac565b811161041057600291505090565b61043b7f000000000000000000000000000000000000000000000000000000000000000060036113ac565b811161044957600391505090565b6104747f000000000000000000000000000000000000000000000000000000000000000060046113ac565b811161048257600491505090565b60001991505090565b6005818154811061049b57600080fd5b6000918252602090912001546001600160a01b0316905081565b6006541561050a5760405162461bcd60e51b815260206004820152601760248201527f444b472068617320616c7265616479207374617274656400000000000000000060448201526064015b60405180910390fd5b610512610ffd565b60005b838110156105ff576005858583818110610531576105316113c3565b905060200201602081019061054691906110a7565b81546001810183556000928352602090922090910180546001600160a01b0319166001600160a01b0390921691909117905582828281811061058a5761058a6113c3565b905060200281019061059c91906113d9565b600160008888868181106105b2576105b26113c3565b90506020020160208101906105c791906110a7565b6001600160a01b031681526020810191909152604001600020916105ec919083611484565b50806105f781611545565b915050610515565b505043600655505050565b60006060600060058054905067ffffffffffffffff81111561062e5761062e611420565b60405190808252806020026020018201604052801561066157816020015b606081526020019060019003908161064c5790505b50905060005b600554811015610765576001600060058381548110610688576106886113c3565b60009182526020808320909101546001600160a01b03168352820192909252604001902080546106b790611349565b80601f01602080910402602001604051908101604052809291908181526020018280546106e390611349565b80156107305780601f1061070557610100808354040283529160200191610730565b820191906000526020600020905b81548152906001019060200180831161071357829003601f168201915b5050505050828281518110610747576107476113c3565b6020026020010181905250808061075d90611545565b915050610667565b507f0000000000000000000000000000000000000000000000000000000000000000939092509050565b606060058054806020026020016040519081016040528092919081815260200182805480156107e757602002820191906000526020600020905b81546001600160a01b031681526001909101906020018083116107c9575b5050505050905090565b6001602052600090815260409020805461030390611349565b610812610ffd565b61081c6000611057565b565b336000908152600160205260408120805461083890611349565b9050116108875760405162461bcd60e51b815260206004820152601b60248201527f796f7520617265206e6f7420612067726f7570206d656d6265722100000000006044820152606401610501565b6000600654436108979190611393565b90507f000000000000000000000000000000000000000000000000000000000000000081116109585733600090815260026020526040902080546108da90611349565b1590506109385760405162461bcd60e51b815260206004820152602660248201527f796f75206861766520616c7265616479207075626c697368656420796f75722060448201526573686172657360d01b6064820152608401610501565b336000908152600260205260409020610952838583611484565b50505050565b6109837f000000000000000000000000000000000000000000000000000000000000000060026113ac565b8111610a1e5733600090815260036020526040902080546109a390611349565b159050610a045760405162461bcd60e51b815260206004820152602960248201527f796f75206861766520616c7265616479207075626c697368656420796f757220604482015268726573706f6e73657360b81b6064820152608401610501565b336000908152600360205260409020610952838583611484565b610a497f000000000000000000000000000000000000000000000000000000000000000060036113ac565b8111610ae9573360009081526004602052604090208054610a6990611349565b159050610acf5760405162461bcd60e51b815260206004820152602e60248201527f796f75206861766520616c7265616479207075626c697368656420796f75722060448201526d6a757374696669636174696f6e7360901b6064820152608401610501565b336000908152600460205260409020610952838583611484565b60405162461bcd60e51b81526020600482015260156024820152741112d1c8141d589b1a5cda081a185cc8195b991959605a1b6044820152606401610501565b505050565b610b36610ffd565b6000546001600160a01b0316ff5b60055460609060009067ffffffffffffffff811115610b6557610b65611420565b604051908082528060200260200182016040528015610b9857816020015b6060815260200190600190039081610b835790505b50905060005b600554811015610c9c576004600060058381548110610bbf57610bbf6113c3565b60009182526020808320909101546001600160a01b0316835282019290925260400190208054610bee90611349565b80601f0160208091040260200160405190810160405280929190818152602001828054610c1a90611349565b8015610c675780601f10610c3c57610100808354040283529160200191610c67565b820191906000526020600020905b815481529060010190602001808311610c4a57829003601f168201915b5050505050828281518110610c7e57610c7e6113c3565b60200260200101819052508080610c9490611545565b915050610b9e565b50919050565b60055460609060009067ffffffffffffffff811115610cc357610cc3611420565b604051908082528060200260200182016040528015610cf657816020015b6060815260200190600190039081610ce15790505b50905060005b600554811015610c9c576003600060058381548110610d1d57610d1d6113c3565b60009182526020808320909101546001600160a01b0316835282019290925260400190208054610d4c90611349565b80601f0160208091040260200160405190810160405280929190818152602001828054610d7890611349565b8015610dc55780601f10610d9a57610100808354040283529160200191610dc5565b820191906000526020600020905b815481529060010190602001808311610da857829003601f168201915b5050505050828281518110610ddc57610ddc6113c3565b60200260200101819052508080610df290611545565b915050610cfc565b6004602052600090815260409020805461030390611349565b6002602052600090815260409020805461030390611349565b60055460609060009067ffffffffffffffff811115610e4d57610e4d611420565b604051908082528060200260200182016040528015610e8057816020015b6060815260200190600190039081610e6b5790505b50905060005b600554811015610c9c576002600060058381548110610ea757610ea76113c3565b60009182526020808320909101546001600160a01b0316835282019290925260400190208054610ed690611349565b80601f0160208091040260200160405190810160405280929190818152602001828054610f0290611349565b8015610f4f5780601f10610f2457610100808354040283529160200191610f4f565b820191906000526020600020905b815481529060010190602001808311610f3257829003601f168201915b5050505050828281518110610f6657610f666113c3565b60200260200101819052508080610f7c90611545565b915050610e86565b610f8c610ffd565b6001600160a01b038116610ff15760405162461bcd60e51b815260206004820152602660248201527f4f776e61626c653a206e6577206f776e657220697320746865207a65726f206160448201526564647265737360d01b6064820152608401610501565b610ffa81611057565b50565b6000546001600160a01b0316331461081c5760405162461bcd60e51b815260206004820181905260248201527f4f776e61626c653a2063616c6c6572206973206e6f7420746865206f776e65726044820152606401610501565b600080546001600160a01b038381166001600160a01b0319831681178455604051919092169283917f8be0079c531659141344cd1fd0a4f28419497f9722a3daafe3b4186f6b6457e09190a35050565b6000602082840312156110b957600080fd5b81356001600160a01b03811681146110d057600080fd5b9392505050565b6000815180845260005b818110156110fd576020818501810151868301820152016110e1565b506000602082860101526020601f19601f83011685010191505092915050565b6020815260006110d060208301846110d7565b60006020828403121561114257600080fd5b5035919050565b60008083601f84011261115b57600080fd5b50813567ffffffffffffffff81111561117357600080fd5b6020830191508360208260051b850101111561118e57600080fd5b9250929050565b600080600080604085870312156111ab57600080fd5b843567ffffffffffffffff808211156111c357600080fd5b6111cf88838901611149565b909650945060208701359150808211156111e857600080fd5b506111f587828801611149565b95989497509550505050565b600081518084526020808501808196508360051b8101915082860160005b858110156112495782840389526112378483516110d7565b9885019893509084019060010161121f565b5091979650505050505050565b82815260406020820152600061126f6040830184611201565b949350505050565b6020808252825182820181905260009190848201906040850190845b818110156112b85783516001600160a01b031683529284019291840191600101611293565b50909695505050505050565b600080602083850312156112d757600080fd5b823567ffffffffffffffff808211156112ef57600080fd5b818501915085601f83011261130357600080fd5b81358181111561131257600080fd5b86602082850101111561132457600080fd5b60209290920196919550909350505050565b6020815260006110d06020830184611201565b600181811c9082168061135d57607f821691505b602082108103610c9c57634e487b7160e01b600052602260045260246000fd5b634e487b7160e01b600052601160045260246000fd5b818103818111156113a6576113a661137d565b92915050565b80820281158282048414176113a6576113a661137d565b634e487b7160e01b600052603260045260246000fd5b6000808335601e198436030181126113f057600080fd5b83018035915067ffffffffffffffff82111561140b57600080fd5b60200191503681900382131561118e57600080fd5b634e487b7160e01b600052604160045260246000fd5b601f821115610b2957600081815260208120601f850160051c8101602086101561145d5750805b601f850160051c820191505b8181101561147c57828155600101611469565b505050505050565b67ffffffffffffffff83111561149c5761149c611420565b6114b0836114aa8354611349565b83611436565b6000601f8411600181146114e457600085156114cc5750838201355b600019600387901b1c1916600186901b17835561153e565b600083815260209020601f19861690835b8281101561151557868501358255602094850194600190920191016114f5565b50868210156115325760001960f88860031b161c19848701351681555b505060018560011b0183555b5050505050565b6000600182016115575761155761137d565b506001019056fea26469706673582212208fce2b614424bd1061455b02824969011a78c2f518fd530581efe186d7871ab564736f6c63430008130033a264697066735822122097dca2f0376d2ed52f1c36ea6464cd208998901dcd76677b31017af97951aa1a64736f6c63430008130033",
    "linkReferences": {
      "src/libraries/BLS.sol": {
        "BLS": [
          {
            "start": 3562,
            "length": 20
          },
          {
            "start": 3692,
            "length": 20
          },
          {
            "start": 7946,
            "length": 20
          },
          {
            "start": 8072,
            "length": 20
          },
          {
            "start": 8235,
            "length": 20
          },
          {
            "start": 8361,
            "length": 20
          }
        ]
      },
      "src/libraries/GroupLib.sol": {
        "GroupLib": [
          {
            "start": 1232,
            "length": 20
          },
          {
            "start": 1949,
            "length": 20
          },
          {
            "start": 2653,
            "length": 20
          },
          {
            "start": 3155,
            "length": 20
          },
          {
            "start": 4047,
            "length": 20
          },
          {
            "start": 4757,
            "length": 20
          },
          {
            "start": 5447,
            "length": 20
          },
          {
            "start": 7724,
            "length": 20
          },
          {
            "start": 8551,
            "length": 20
          },
          {
            "start": 8943,
            "length": 20
          },
          {
            "start": 9151,
            "length": 20
          }
        ]
      }
    }
  },
  "methodIdentifiers": {
    "addReward(address,uint256)": "9feb8f50",
    "claimReward(address,uint256)": "174e31c4",
    "commitDkg((uint256,uint256,bytes,bytes,address[]))": "e37eb96c",
    "getCoordinator(uint256)": "42424d6f",
    "getGroup(uint256)": "ceb60654",
    "getGroupCount()": "06545a93",
    "getLastOutput()": "51a2b9a0",
    "getMember(uint256,uint256)": "4d79a893",
    "getNode(address)": "9d209048",
    "getNodeReward(address)": "b83dd5f0",
    "getValidGroupIndices()": "b330a0fd",
    "isPartialKeyRegistered(uint256,address)": "c2db900b",
    "nodeActivate()": "9a075bc3",
    "nodeQuit()": "7a2af56e",
    "nodeRegister(bytes)": "80110e4e",
    "owner()": "8da5cb5b",
    "postProcessDkg(uint256,uint256)": "0bf9c5c6",
    "renounceOwnership()": "715018a6",
    "setControllerConfig(address,address,uint256,uint256,uint256,uint256,uint256,uint256,uint256,uint256)": "2ff9e520",
    "setLastOutput(uint256)": "f3df0802",
    "transferOwnership(address)": "f2fde38b"
  },
  "id": 48
}