{
  "abi": [
    {
      "inputs": [
        {
          "internalType": "address",
          "name": "arpa",
          "type": "address"
        },
        {
          "internalType": "address",
          "name": "arpaEthFeed",
          "type": "address"
        }
      ],
      "stateMutability": "nonpayable",
      "type": "constructor"
    },
    {
      "inputs": [],
      "name": "EmptyPartialSignatures",
      "type": "error"
    },
    {
      "inputs": [],
      "name": "InsufficientBalanceWhenFulfill",
      "type": "error"
    },
    {
      "inputs": [],
      "name": "InsufficientBalanceWhenRequest",
      "type": "error"
    },
    {
      "inputs": [
        {
          "internalType": "int256",
          "name": "arpaWei",
          "type": "int256"
        }
      ],
      "name": "InvalidArpaWeiPrice",
      "type": "error"
    },
    {
      "inputs": [
        {
          "internalType": "uint64",
          "name": "subId",
          "type": "uint64"
        },
        {
          "internalType": "address",
          "name": "consumer",
          "type": "address"
        }
      ],
      "name": "InvalidConsumer",
      "type": "error"
    },
    {
      "inputs": [],
      "name": "InvalidPartialPublicKey",
      "type": "error"
    },
    {
      "inputs": [],
      "name": "InvalidPartialSignatureFormat",
      "type": "error"
    },
    {
      "inputs": [],
      "name": "InvalidPartialSignatures",
      "type": "error"
    },
    {
      "inputs": [],
      "name": "InvalidPublicKey",
      "type": "error"
    },
    {
      "inputs": [],
      "name": "InvalidPublicKeyEncoding",
      "type": "error"
    },
    {
      "inputs": [
        {
          "internalType": "string",
          "name": "message",
          "type": "string"
        }
      ],
      "name": "InvalidRequestByEOA",
      "type": "error"
    },
    {
      "inputs": [
        {
          "internalType": "uint16",
          "name": "have",
          "type": "uint16"
        },
        {
          "internalType": "uint16",
          "name": "min",
          "type": "uint16"
        },
        {
          "internalType": "uint16",
          "name": "max",
          "type": "uint16"
        }
      ],
      "name": "InvalidRequestConfirmations",
      "type": "error"
    },
    {
      "inputs": [],
      "name": "InvalidSignature",
      "type": "error"
    },
    {
      "inputs": [],
      "name": "InvalidSignatureFormat",
      "type": "error"
    },
    {
      "inputs": [],
      "name": "InvalidSubscription",
      "type": "error"
    },
    {
      "inputs": [
        {
          "internalType": "address",
          "name": "owner",
          "type": "address"
        }
      ],
      "name": "MustBeSubOwner",
      "type": "error"
    },
    {
      "inputs": [],
      "name": "MustNotBeInfinity",
      "type": "error"
    },
    {
      "inputs": [],
      "name": "NoAvailableGroups",
      "type": "error"
    },
    {
      "inputs": [],
      "name": "NoCorrespondingRequest",
      "type": "error"
    },
    {
      "inputs": [],
      "name": "NotFromCommitter",
      "type": "error"
    },
    {
      "inputs": [],
      "name": "PaymentTooLarge",
      "type": "error"
    },
    {
      "inputs": [],
      "name": "Reentrant",
      "type": "error"
    },
    {
      "inputs": [],
      "name": "TaskStillExclusive",
      "type": "error"
    },
    {
      "inputs": [],
      "name": "TooManyConsumers",
      "type": "error"
    },
    {
      "anonymous": false,
      "inputs": [
        {
          "indexed": false,
          "internalType": "uint16",
          "name": "minimumRequestConfirmations",
          "type": "uint16"
        },
        {
          "indexed": false,
          "internalType": "uint32",
          "name": "maxGasLimit",
          "type": "uint32"
        },
        {
          "indexed": false,
          "internalType": "uint32",
          "name": "stalenessSeconds",
          "type": "uint32"
        },
        {
          "indexed": false,
          "internalType": "uint32",
          "name": "gasAfterPaymentCalculation",
          "type": "uint32"
        },
        {
          "indexed": false,
          "internalType": "uint32",
          "name": "gasExceptCallback",
          "type": "uint32"
        },
        {
          "indexed": false,
          "internalType": "int256",
          "name": "fallbackWeiPerUnitArpa",
          "type": "int256"
        },
        {
          "components": [
            {
              "internalType": "uint32",
              "name": "fulfillmentFlatFeeArpaPPMTier1",
              "type": "uint32"
            },
            {
              "internalType": "uint32",
              "name": "fulfillmentFlatFeeArpaPPMTier2",
              "type": "uint32"
            },
            {
              "internalType": "uint32",
              "name": "fulfillmentFlatFeeArpaPPMTier3",
              "type": "uint32"
            },
            {
              "internalType": "uint32",
              "name": "fulfillmentFlatFeeArpaPPMTier4",
              "type": "uint32"
            },
            {
              "internalType": "uint32",
              "name": "fulfillmentFlatFeeArpaPPMTier5",
              "type": "uint32"
            },
            {
              "internalType": "uint24",
              "name": "reqsForTier2",
              "type": "uint24"
            },
            {
              "internalType": "uint24",
              "name": "reqsForTier3",
              "type": "uint24"
            },
            {
              "internalType": "uint24",
              "name": "reqsForTier4",
              "type": "uint24"
            },
            {
              "internalType": "uint24",
              "name": "reqsForTier5",
              "type": "uint24"
            }
          ],
          "indexed": false,
          "internalType": "struct Adapter.FeeConfig",
          "name": "feeConfig",
          "type": "tuple"
        }
      ],
      "name": "ConfigSet",
      "type": "event"
    },
    {
      "anonymous": false,
      "inputs": [
        {
          "indexed": false,
          "internalType": "uint256",
          "name": "_groupIndex",
          "type": "uint256"
        },
        {
          "indexed": false,
          "internalType": "uint256",
          "name": "_epoch",
          "type": "uint256"
        },
        {
          "indexed": false,
          "internalType": "uint256",
          "name": "_size",
          "type": "uint256"
        },
        {
          "indexed": false,
          "internalType": "uint256",
          "name": "_threshold",
          "type": "uint256"
        },
        {
          "indexed": false,
          "internalType": "address[]",
          "name": "_members",
          "type": "address[]"
        },
        {
          "indexed": false,
          "internalType": "uint256",
          "name": "_assignmentBlockHeight",
          "type": "uint256"
        },
        {
          "indexed": false,
          "internalType": "address",
          "name": "_coordinatorAddress",
          "type": "address"
        }
      ],
      "name": "DkgTask",
      "type": "event"
    },
    {
      "anonymous": false,
      "inputs": [
        {
          "indexed": true,
          "internalType": "address",
          "name": "previousOwner",
          "type": "address"
        },
        {
          "indexed": true,
          "internalType": "address",
          "name": "newOwner",
          "type": "address"
        }
      ],
      "name": "OwnershipTransferred",
      "type": "event"
    },
    {
      "anonymous": false,
      "inputs": [
        {
          "indexed": true,
          "internalType": "uint256",
          "name": "groupIndex",
          "type": "uint256"
        },
        {
          "indexed": false,
          "internalType": "bytes32",
          "name": "requestId",
          "type": "bytes32"
        },
        {
          "indexed": false,
          "internalType": "address",
          "name": "sender",
          "type": "address"
        },
        {
          "indexed": false,
          "internalType": "uint64",
          "name": "subId",
          "type": "uint64"
        },
        {
          "indexed": false,
          "internalType": "uint256",
          "name": "seed",
          "type": "uint256"
        },
        {
          "indexed": false,
          "internalType": "uint16",
          "name": "requestConfirmations",
          "type": "uint16"
        },
        {
          "indexed": false,
          "internalType": "uint256",
          "name": "callbackGasLimit",
          "type": "uint256"
        },
        {
          "indexed": false,
          "internalType": "uint256",
          "name": "callbackMaxGasPrice",
          "type": "uint256"
        }
      ],
      "name": "RandomnessRequest",
      "type": "event"
    },
    {
      "anonymous": false,
      "inputs": [
        {
          "indexed": false,
          "internalType": "bytes32",
          "name": "requestId",
          "type": "bytes32"
        },
        {
          "indexed": false,
          "internalType": "uint256",
          "name": "output",
          "type": "uint256"
        },
        {
          "indexed": false,
          "internalType": "uint256",
          "name": "payment",
          "type": "uint256"
        },
        {
          "indexed": false,
          "internalType": "bool",
          "name": "success",
          "type": "bool"
        }
      ],
      "name": "RandomnessRequestFulfilled",
      "type": "event"
    },
    {
      "anonymous": false,
      "inputs": [
        {
          "indexed": true,
          "internalType": "uint64",
          "name": "subId",
          "type": "uint64"
        },
        {
          "indexed": false,
          "internalType": "address",
          "name": "consumer",
          "type": "address"
        }
      ],
      "name": "SubscriptionConsumerAdded",
      "type": "event"
    },
    {
      "anonymous": false,
      "inputs": [
        {
          "indexed": true,
          "internalType": "uint64",
          "name": "subId",
          "type": "uint64"
        },
        {
          "indexed": false,
          "internalType": "address",
          "name": "owner",
          "type": "address"
        }
      ],
      "name": "SubscriptionCreated",
      "type": "event"
    },
    {
      "anonymous": false,
      "inputs": [
        {
          "indexed": true,
          "internalType": "uint64",
          "name": "subId",
          "type": "uint64"
        },
        {
          "indexed": false,
          "internalType": "uint256",
          "name": "oldBalance",
          "type": "uint256"
        },
        {
          "indexed": false,
          "internalType": "uint256",
          "name": "newBalance",
          "type": "uint256"
        }
      ],
      "name": "SubscriptionFunded",
      "type": "event"
    },
    {
      "inputs": [],
      "name": "ARPA",
      "outputs": [
        {
          "internalType": "contract IERC20",
          "name": "",
          "type": "address"
        }
      ],
      "stateMutability": "view",
      "type": "function"
    },
    {
      "inputs": [],
      "name": "ARPA_ETH_FEED",
      "outputs": [
        {
          "internalType": "contract AggregatorV3Interface",
          "name": "",
          "type": "address"
        }
      ],
      "stateMutability": "view",
      "type": "function"
    },
    {
      "inputs": [],
      "name": "COMMITTER_REWARD_PER_SIGNATURE",
      "outputs": [
        {
          "internalType": "uint256",
          "name": "",
          "type": "uint256"
        }
      ],
      "stateMutability": "view",
      "type": "function"
    },
    {
      "inputs": [],
      "name": "COORDINATOR_STATE_TRIGGER_REWARD",
      "outputs": [
        {
          "internalType": "uint256",
          "name": "",
          "type": "uint256"
        }
      ],
      "stateMutability": "view",
      "type": "function"
    },
    {
      "inputs": [],
      "name": "DEFAULT_DKG_PHASE_DURATION",
      "outputs": [
        {
          "internalType": "uint256",
          "name": "",
          "type": "uint256"
        }
      ],
      "stateMutability": "view",
      "type": "function"
    },
    {
      "inputs": [],
      "name": "DEFAULT_MINIMUM_THRESHOLD",
      "outputs": [
        {
          "internalType": "uint256",
          "name": "",
          "type": "uint256"
        }
      ],
      "stateMutability": "view",
      "type": "function"
    },
    {
      "inputs": [],
      "name": "DEFAULT_NUMBER_OF_COMMITTERS",
      "outputs": [
        {
          "internalType": "uint256",
          "name": "",
          "type": "uint256"
        }
      ],
      "stateMutability": "view",
      "type": "function"
    },
    {
      "inputs": [],
      "name": "DISQUALIFIED_NODE_PENALTY_AMOUNT",
      "outputs": [
        {
          "internalType": "uint256",
          "name": "",
          "type": "uint256"
        }
      ],
      "stateMutability": "view",
      "type": "function"
    },
    {
      "inputs": [],
      "name": "DKG_POST_PROCESS_REWARD",
      "outputs": [
        {
          "internalType": "uint256",
          "name": "",
          "type": "uint256"
        }
      ],
      "stateMutability": "view",
      "type": "function"
    },
    {
      "inputs": [],
      "name": "GROUP_MAX_CAPACITY",
      "outputs": [
        {
          "internalType": "uint256",
          "name": "",
          "type": "uint256"
        }
      ],
      "stateMutability": "view",
      "type": "function"
    },
    {
      "inputs": [],
      "name": "IDEAL_NUMBER_OF_GROUPS",
      "outputs": [
        {
          "internalType": "uint256",
          "name": "",
          "type": "uint256"
        }
      ],
      "stateMutability": "view",
      "type": "function"
    },
    {
      "inputs": [],
      "name": "MAX_CONSUMERS",
      "outputs": [
        {
          "internalType": "uint16",
          "name": "",
          "type": "uint16"
        }
      ],
      "stateMutability": "view",
      "type": "function"
    },
    {
      "inputs": [],
      "name": "MAX_REQUEST_CONFIRMATIONS",
      "outputs": [
        {
          "internalType": "uint16",
          "name": "",
          "type": "uint16"
        }
      ],
      "stateMutability": "view",
      "type": "function"
    },
    {
      "inputs": [],
      "name": "NODE_STAKING_AMOUNT",
      "outputs": [
        {
          "internalType": "uint256",
          "name": "",
          "type": "uint256"
        }
      ],
      "stateMutability": "view",
      "type": "function"
    },
    {
      "inputs": [],
      "name": "PENDING_BLOCK_AFTER_QUIT",
      "outputs": [
        {
          "internalType": "uint256",
          "name": "",
          "type": "uint256"
        }
      ],
      "stateMutability": "view",
      "type": "function"
    },
    {
      "inputs": [],
      "name": "REWARD_PER_SIGNATURE",
      "outputs": [
        {
          "internalType": "uint256",
          "name": "",
          "type": "uint256"
        }
      ],
      "stateMutability": "view",
      "type": "function"
    },
    {
      "inputs": [],
      "name": "SIGNATURE_TASK_EXCLUSIVE_WINDOW",
      "outputs": [
        {
          "internalType": "uint256",
          "name": "",
          "type": "uint256"
        }
      ],
      "stateMutability": "view",
      "type": "function"
    },
    {
      "inputs": [
        {
          "internalType": "uint64",
          "name": "subId",
          "type": "uint64"
        },
        {
          "internalType": "address",
          "name": "consumer",
          "type": "address"
        }
      ],
      "name": "addConsumer",
      "outputs": [],
      "stateMutability": "nonpayable",
      "type": "function"
    },
    {
      "inputs": [
        {
          "internalType": "uint256",
          "name": "groupIndex",
          "type": "uint256"
        }
      ],
      "name": "arrangeMembersInGroup",
      "outputs": [],
      "stateMutability": "nonpayable",
      "type": "function"
    },
    {
      "inputs": [
        {
          "internalType": "uint256",
          "name": "startGas",
          "type": "uint256"
        },
        {
          "internalType": "uint256",
          "name": "gasAfterPaymentCalculation",
          "type": "uint256"
        },
        {
          "internalType": "uint32",
          "name": "fulfillmentFlatFeeArpaPPM",
          "type": "uint32"
        },
        {
          "internalType": "uint256",
          "name": "weiPerUnitGas",
          "type": "uint256"
        }
      ],
      "name": "calculatePaymentAmount",
      "outputs": [
        {
          "internalType": "uint96",
          "name": "",
          "type": "uint96"
        }
      ],
      "stateMutability": "view",
      "type": "function"
    },
    {
      "inputs": [
        {
          "internalType": "uint256",
          "name": "seed",
          "type": "uint256"
        },
        {
          "internalType": "uint256[]",
          "name": "indices",
          "type": "uint256[]"
        },
        {
          "internalType": "uint256",
          "name": "count",
          "type": "uint256"
        }
      ],
      "name": "chooseRandomlyFromIndices",
      "outputs": [
        {
          "internalType": "uint256[]",
          "name": "",
          "type": "uint256[]"
        }
      ],
      "stateMutability": "pure",
      "type": "function"
    },
    {
      "inputs": [
        {
          "components": [
            {
              "internalType": "uint256",
              "name": "groupIndex",
              "type": "uint256"
            },
            {
              "internalType": "uint256",
              "name": "groupEpoch",
              "type": "uint256"
            },
            {
              "internalType": "bytes",
              "name": "publicKey",
              "type": "bytes"
            },
            {
              "internalType": "bytes",
              "name": "partialPublicKey",
              "type": "bytes"
            },
            {
              "internalType": "address[]",
              "name": "disqualifiedNodes",
              "type": "address[]"
            }
          ],
          "internalType": "struct Controller.CommitDkgParams",
          "name": "params",
          "type": "tuple"
        }
      ],
      "name": "commitDkg",
      "outputs": [],
      "stateMutability": "nonpayable",
      "type": "function"
    },
    {
      "inputs": [
        {
          "internalType": "uint256",
          "name": "",
          "type": "uint256"
        }
      ],
      "name": "coordinators",
      "outputs": [
        {
          "internalType": "address",
          "name": "",
          "type": "address"
        }
      ],
      "stateMutability": "view",
      "type": "function"
    },
    {
      "inputs": [],
      "name": "createSubscription",
      "outputs": [
        {
          "internalType": "uint64",
          "name": "",
          "type": "uint64"
        }
      ],
      "stateMutability": "nonpayable",
      "type": "function"
    },
    {
      "inputs": [
        {
          "internalType": "uint256",
          "name": "groupIndex",
          "type": "uint256"
        }
      ],
      "name": "emitGroupEvent",
      "outputs": [],
      "stateMutability": "nonpayable",
      "type": "function"
    },
    {
      "inputs": [
        {
          "internalType": "uint256",
          "name": "callbackGasLimit",
          "type": "uint256"
        },
        {
          "internalType": "uint256",
          "name": "gasExceptCallback",
          "type": "uint256"
        },
        {
          "internalType": "uint32",
          "name": "fulfillmentFlatFeeArpaPPM",
          "type": "uint32"
        },
        {
          "internalType": "uint256",
          "name": "weiPerUnitGas",
          "type": "uint256"
        }
      ],
      "name": "estimatePaymentAmount",
      "outputs": [
        {
          "internalType": "uint96",
          "name": "",
          "type": "uint96"
        }
      ],
      "stateMutability": "view",
      "type": "function"
    },
    {
      "inputs": [],
      "name": "findOrCreateTargetGroup",
      "outputs": [
        {
          "internalType": "uint256",
          "name": "",
          "type": "uint256"
        },
        {
          "internalType": "bool",
          "name": "",
          "type": "bool"
        }
      ],
      "stateMutability": "nonpayable",
      "type": "function"
    },
    {
      "inputs": [
        {
          "internalType": "address",
          "name": "nodeIdAddress",
          "type": "address"
        },
        {
          "internalType": "uint256",
          "name": "pendingBlock",
          "type": "uint256"
        },
        {
          "internalType": "bool",
          "name": "handleGroup",
          "type": "bool"
        }
      ],
      "name": "freezeNode",
      "outputs": [],
      "stateMutability": "nonpayable",
      "type": "function"
    },
    {
      "inputs": [
        {
          "internalType": "uint256",
          "name": "groupIndex",
          "type": "uint256"
        },
        {
          "internalType": "bytes32",
          "name": "requestId",
          "type": "bytes32"
        },
        {
          "internalType": "uint256",
          "name": "signature",
          "type": "uint256"
        },
        {
          "components": [
            {
              "internalType": "uint256",
              "name": "index",
              "type": "uint256"
            },
            {
              "internalType": "uint256",
              "name": "partialSignature",
              "type": "uint256"
            }
          ],
          "internalType": "struct IAdapter.PartialSignature[]",
          "name": "partialSignatures",
          "type": "tuple[]"
        }
      ],
      "name": "fulfillRandomness",
      "outputs": [],
      "stateMutability": "nonpayable",
      "type": "function"
    },
    {
      "inputs": [
        {
          "internalType": "uint64",
          "name": "subId",
          "type": "uint64"
        },
        {
          "internalType": "uint256",
          "name": "amount",
          "type": "uint256"
        }
      ],
      "name": "fundSubscription",
      "outputs": [],
      "stateMutability": "nonpayable",
      "type": "function"
    },
    {
      "inputs": [
        {
          "internalType": "uint256",
          "name": "groupIndex",
          "type": "uint256"
        }
      ],
      "name": "getCoordinator",
      "outputs": [
        {
          "internalType": "address",
          "name": "",
          "type": "address"
        }
      ],
      "stateMutability": "view",
      "type": "function"
    },
    {
      "inputs": [
        {
          "internalType": "uint64",
          "name": "reqCount",
          "type": "uint64"
        }
      ],
      "name": "getFeeTier",
      "outputs": [
        {
          "internalType": "uint32",
          "name": "",
          "type": "uint32"
        }
      ],
      "stateMutability": "view",
      "type": "function"
    },
    {
      "inputs": [
        {
          "internalType": "uint256",
          "name": "groupIndex",
          "type": "uint256"
        }
      ],
      "name": "getGroup",
      "outputs": [
        {
          "components": [
            {
              "internalType": "uint256",
              "name": "index",
              "type": "uint256"
            },
            {
              "internalType": "uint256",
              "name": "epoch",
              "type": "uint256"
            },
            {
              "internalType": "uint256",
              "name": "size",
              "type": "uint256"
            },
            {
              "internalType": "uint256",
              "name": "threshold",
              "type": "uint256"
            },
            {
              "components": [
                {
                  "internalType": "address",
                  "name": "nodeIdAddress",
                  "type": "address"
                },
                {
                  "internalType": "uint256[4]",
                  "name": "partialPublicKey",
                  "type": "uint256[4]"
                }
              ],
              "internalType": "struct Adapter.Member[]",
              "name": "members",
              "type": "tuple[]"
            },
            {
              "internalType": "address[]",
              "name": "committers",
              "type": "address[]"
            },
            {
              "components": [
                {
                  "internalType": "address[]",
                  "name": "nodeIdAddress",
                  "type": "address[]"
                },
                {
                  "components": [
                    {
                      "internalType": "uint256",
                      "name": "groupEpoch",
                      "type": "uint256"
                    },
                    {
                      "internalType": "uint256[4]",
                      "name": "publicKey",
                      "type": "uint256[4]"
                    },
                    {
                      "internalType": "address[]",
                      "name": "disqualifiedNodes",
                      "type": "address[]"
                    }
                  ],
                  "internalType": "struct Adapter.CommitResult",
                  "name": "commitResult",
                  "type": "tuple"
                }
              ],
              "internalType": "struct Adapter.CommitCache[]",
              "name": "commitCacheList",
              "type": "tuple[]"
            },
            {
              "internalType": "bool",
              "name": "isStrictlyMajorityConsensusReached",
              "type": "bool"
            },
            {
              "internalType": "uint256[4]",
              "name": "publicKey",
              "type": "uint256[4]"
            }
          ],
          "internalType": "struct Adapter.Group",
          "name": "",
          "type": "tuple"
        }
      ],
      "stateMutability": "view",
      "type": "function"
    },
    {
      "inputs": [
        {
          "internalType": "address",
          "name": "consumer",
          "type": "address"
        }
      ],
      "name": "getLastSubscription",
      "outputs": [
        {
          "internalType": "uint64",
          "name": "",
          "type": "uint64"
        }
      ],
      "stateMutability": "view",
      "type": "function"
    },
    {
      "inputs": [
        {
          "internalType": "uint256",
          "name": "groupIndex",
          "type": "uint256"
        },
        {
          "internalType": "uint256",
          "name": "memberIndex",
          "type": "uint256"
        }
      ],
      "name": "getMember",
      "outputs": [
        {
          "components": [
            {
              "internalType": "address",
              "name": "nodeIdAddress",
              "type": "address"
            },
            {
              "internalType": "uint256[4]",
              "name": "partialPublicKey",
              "type": "uint256[4]"
            }
          ],
          "internalType": "struct Adapter.Member",
          "name": "",
          "type": "tuple"
        }
      ],
      "stateMutability": "view",
      "type": "function"
    },
    {
      "inputs": [
        {
          "internalType": "uint256",
          "name": "groupIndex",
          "type": "uint256"
        },
        {
          "internalType": "uint256",
          "name": "memberIndex",
          "type": "uint256"
        }
      ],
      "name": "getMemberAddressByIndex",
      "outputs": [
        {
          "internalType": "address",
          "name": "nodeIdAddress",
          "type": "address"
        }
      ],
      "stateMutability": "view",
      "type": "function"
    },
    {
      "inputs": [
        {
          "internalType": "uint256",
          "name": "groupIndex",
          "type": "uint256"
        },
        {
          "internalType": "address",
          "name": "nodeIdAddress",
          "type": "address"
        }
      ],
      "name": "getMemberIndexByAddress",
      "outputs": [
        {
          "internalType": "int256",
          "name": "memberIndex",
          "type": "int256"
        }
      ],
      "stateMutability": "view",
      "type": "function"
    },
    {
      "inputs": [
        {
          "internalType": "address",
          "name": "nodeAddress",
          "type": "address"
        }
      ],
      "name": "getNode",
      "outputs": [
        {
          "components": [
            {
              "internalType": "address",
              "name": "idAddress",
              "type": "address"
            },
            {
              "internalType": "bytes",
              "name": "dkgPublicKey",
              "type": "bytes"
            },
            {
              "internalType": "bool",
              "name": "state",
              "type": "bool"
            },
            {
              "internalType": "uint256",
              "name": "pendingUntilBlock",
              "type": "uint256"
            },
            {
              "internalType": "uint256",
              "name": "staking",
              "type": "uint256"
            }
          ],
          "internalType": "struct Controller.Node",
          "name": "",
          "type": "tuple"
        }
      ],
      "stateMutability": "view",
      "type": "function"
    },
    {
      "inputs": [
        {
          "internalType": "address[]",
          "name": "nodeAddresses",
          "type": "address[]"
        },
        {
          "internalType": "address[]",
          "name": "disqualifiedNodes",
          "type": "address[]"
        }
      ],
      "name": "getNonDisqualifiedMajorityMembers",
      "outputs": [
        {
          "internalType": "address[]",
          "name": "",
          "type": "address[]"
        }
      ],
      "stateMutability": "pure",
      "type": "function"
    },
    {
      "inputs": [
        {
          "internalType": "bytes32",
          "name": "requestId",
          "type": "bytes32"
        }
      ],
      "name": "getPendingRequest",
      "outputs": [
        {
          "components": [
            {
              "internalType": "address",
              "name": "callbackContract",
              "type": "address"
            },
            {
              "internalType": "enum IRequestTypeBase.RequestType",
              "name": "requestType",
              "type": "uint8"
            },
            {
              "internalType": "bytes",
              "name": "params",
              "type": "bytes"
            },
            {
              "internalType": "uint64",
              "name": "subId",
              "type": "uint64"
            },
            {
              "internalType": "uint256",
              "name": "seed",
              "type": "uint256"
            },
            {
              "internalType": "uint256",
              "name": "groupIndex",
              "type": "uint256"
            },
            {
              "internalType": "uint256",
              "name": "blockNum",
              "type": "uint256"
            },
            {
              "internalType": "uint16",
              "name": "requestConfirmations",
              "type": "uint16"
            },
            {
              "internalType": "uint256",
              "name": "callbackGasLimit",
              "type": "uint256"
            },
            {
              "internalType": "uint256",
              "name": "callbackMaxGasPrice",
              "type": "uint256"
            }
          ],
          "internalType": "struct Adapter.Callback",
          "name": "",
          "type": "tuple"
        }
      ],
      "stateMutability": "view",
      "type": "function"
    },
    {
      "inputs": [
        {
          "internalType": "address",
          "name": "nodeAddress",
          "type": "address"
        }
      ],
      "name": "getRewards",
      "outputs": [
        {
          "internalType": "uint256",
          "name": "",
          "type": "uint256"
        }
      ],
      "stateMutability": "view",
      "type": "function"
    },
    {
      "inputs": [
        {
          "internalType": "address",
          "name": "nodeAddress",
          "type": "address"
        }
      ],
      "name": "getStakedAmount",
      "outputs": [
        {
          "internalType": "uint256",
          "name": "",
          "type": "uint256"
        }
      ],
      "stateMutability": "view",
      "type": "function"
    },
    {
      "inputs": [
        {
          "internalType": "uint64",
          "name": "subId",
          "type": "uint64"
        }
      ],
      "name": "getSubscription",
      "outputs": [
        {
          "internalType": "uint96",
          "name": "balance",
          "type": "uint96"
        },
        {
          "internalType": "uint96",
          "name": "inflightCost",
          "type": "uint96"
        },
        {
          "internalType": "uint64",
          "name": "reqCount",
          "type": "uint64"
        },
        {
          "internalType": "address",
          "name": "owner",
          "type": "address"
        },
        {
          "internalType": "address[]",
          "name": "consumers",
          "type": "address[]"
        }
      ],
      "stateMutability": "view",
      "type": "function"
    },
    {
      "inputs": [],
      "name": "groupCount",
      "outputs": [
        {
          "internalType": "uint256",
          "name": "",
          "type": "uint256"
        }
      ],
      "stateMutability": "view",
      "type": "function"
    },
    {
      "inputs": [
        {
          "internalType": "uint256",
          "name": "",
          "type": "uint256"
        }
      ],
      "name": "groups",
      "outputs": [
        {
          "internalType": "uint256",
          "name": "index",
          "type": "uint256"
        },
        {
          "internalType": "uint256",
          "name": "epoch",
          "type": "uint256"
        },
        {
          "internalType": "uint256",
          "name": "size",
          "type": "uint256"
        },
        {
          "internalType": "uint256",
          "name": "threshold",
          "type": "uint256"
        },
        {
          "internalType": "bool",
          "name": "isStrictlyMajorityConsensusReached",
          "type": "bool"
        }
      ],
      "stateMutability": "view",
      "type": "function"
    },
    {
      "inputs": [],
      "name": "lastAssignedGroupIndex",
      "outputs": [
        {
          "internalType": "uint256",
          "name": "",
          "type": "uint256"
        }
      ],
      "stateMutability": "view",
      "type": "function"
    },
    {
      "inputs": [],
      "name": "lastOutput",
      "outputs": [
        {
          "internalType": "uint256",
          "name": "",
          "type": "uint256"
        }
      ],
      "stateMutability": "view",
      "type": "function"
    },
    {
      "inputs": [
        {
          "internalType": "uint256",
          "name": "groupSize",
          "type": "uint256"
        }
      ],
      "name": "minimumThreshold",
      "outputs": [
        {
          "internalType": "uint256",
          "name": "",
          "type": "uint256"
        }
      ],
      "stateMutability": "pure",
      "type": "function"
    },
    {
      "inputs": [],
      "name": "nodeQuit",
      "outputs": [],
      "stateMutability": "nonpayable",
      "type": "function"
    },
    {
      "inputs": [
        {
          "internalType": "bytes",
          "name": "dkgPublicKey",
          "type": "bytes"
        }
      ],
      "name": "nodeRegister",
      "outputs": [],
      "stateMutability": "nonpayable",
      "type": "function"
    },
    {
      "inputs": [
        {
          "internalType": "uint256",
          "name": "stakeAmount",
          "type": "uint256"
        }
      ],
      "name": "nodeStake",
      "outputs": [],
      "stateMutability": "nonpayable",
      "type": "function"
    },
    {
      "inputs": [
        {
          "internalType": "uint256",
          "name": "unstakeAmount",
          "type": "uint256"
        }
      ],
      "name": "nodeUnstake",
      "outputs": [],
      "stateMutability": "nonpayable",
      "type": "function"
    },
    {
      "inputs": [
        {
          "internalType": "address",
          "name": "",
          "type": "address"
        }
      ],
      "name": "nodes",
      "outputs": [
        {
          "internalType": "address",
          "name": "idAddress",
          "type": "address"
        },
        {
          "internalType": "bytes",
          "name": "dkgPublicKey",
          "type": "bytes"
        },
        {
          "internalType": "bool",
          "name": "state",
          "type": "bool"
        },
        {
          "internalType": "uint256",
          "name": "pendingUntilBlock",
          "type": "uint256"
        },
        {
          "internalType": "uint256",
          "name": "staking",
          "type": "uint256"
        }
      ],
      "stateMutability": "view",
      "type": "function"
    },
    {
      "inputs": [],
      "name": "owner",
      "outputs": [
        {
          "internalType": "address",
          "name": "",
          "type": "address"
        }
      ],
      "stateMutability": "view",
      "type": "function"
    },
    {
      "inputs": [
        {
          "internalType": "uint256",
          "name": "groupIndex",
          "type": "uint256"
        },
        {
          "internalType": "address",
          "name": "nodeIdAddress",
          "type": "address"
        }
      ],
      "name": "partialKeyRegistered",
      "outputs": [
        {
          "internalType": "bool",
          "name": "",
          "type": "bool"
        }
      ],
      "stateMutability": "view",
      "type": "function"
    },
    {
      "inputs": [
        {
          "internalType": "uint256",
          "name": "groupIndex",
          "type": "uint256"
        },
        {
          "internalType": "uint256",
          "name": "groupEpoch",
          "type": "uint256"
        }
      ],
      "name": "postProcessDkg",
      "outputs": [],
      "stateMutability": "nonpayable",
      "type": "function"
    },
    {
      "inputs": [
        {
          "internalType": "uint256",
          "name": "groupAIndex",
          "type": "uint256"
        },
        {
          "internalType": "uint256",
          "name": "groupBIndex",
          "type": "uint256"
        }
      ],
      "name": "rebalanceGroup",
      "outputs": [
        {
          "internalType": "bool",
          "name": "",
          "type": "bool"
        }
      ],
      "stateMutability": "nonpayable",
      "type": "function"
    },
    {
      "inputs": [
        {
          "internalType": "address",
          "name": "nodeIdAddress",
          "type": "address"
        },
        {
          "internalType": "uint256",
          "name": "groupIndex",
          "type": "uint256"
        },
        {
          "internalType": "bool",
          "name": "emitEventInstantly",
          "type": "bool"
        }
      ],
      "name": "removeFromGroup",
      "outputs": [
        {
          "internalType": "bool",
          "name": "",
          "type": "bool"
        }
      ],
      "stateMutability": "nonpayable",
      "type": "function"
    },
    {
      "inputs": [],
      "name": "renounceOwnership",
      "outputs": [],
      "stateMutability": "nonpayable",
      "type": "function"
    },
    {
      "inputs": [
        {
          "components": [
            {
              "internalType": "enum IRequestTypeBase.RequestType",
              "name": "requestType",
              "type": "uint8"
            },
            {
              "internalType": "bytes",
              "name": "params",
              "type": "bytes"
            },
            {
              "internalType": "uint64",
              "name": "subId",
              "type": "uint64"
            },
            {
              "internalType": "uint256",
              "name": "seed",
              "type": "uint256"
            },
            {
              "internalType": "uint16",
              "name": "requestConfirmations",
              "type": "uint16"
            },
            {
              "internalType": "uint256",
              "name": "callbackGasLimit",
              "type": "uint256"
            },
            {
              "internalType": "uint256",
              "name": "callbackMaxGasPrice",
              "type": "uint256"
            }
          ],
          "internalType": "struct IAdapter.RequestRandomnessParams",
          "name": "p",
          "type": "tuple"
        }
      ],
      "name": "requestRandomness",
      "outputs": [
        {
          "internalType": "bytes32",
          "name": "",
          "type": "bytes32"
        }
      ],
      "stateMutability": "nonpayable",
      "type": "function"
    },
    {
      "inputs": [
        {
          "internalType": "address",
          "name": "",
          "type": "address"
        }
      ],
      "name": "rewards",
      "outputs": [
        {
          "internalType": "uint256",
          "name": "",
          "type": "uint256"
        }
      ],
      "stateMutability": "view",
      "type": "function"
    },
    {
      "inputs": [
        {
          "internalType": "bytes32",
          "name": "",
          "type": "bytes32"
        }
      ],
      "name": "s_callbacks",
      "outputs": [
        {
          "internalType": "address",
          "name": "callbackContract",
          "type": "address"
        },
        {
          "internalType": "enum IRequestTypeBase.RequestType",
          "name": "requestType",
          "type": "uint8"
        },
        {
          "internalType": "bytes",
          "name": "params",
          "type": "bytes"
        },
        {
          "internalType": "uint64",
          "name": "subId",
          "type": "uint64"
        },
        {
          "internalType": "uint256",
          "name": "seed",
          "type": "uint256"
        },
        {
          "internalType": "uint256",
          "name": "groupIndex",
          "type": "uint256"
        },
        {
          "internalType": "uint256",
          "name": "blockNum",
          "type": "uint256"
        },
        {
          "internalType": "uint16",
          "name": "requestConfirmations",
          "type": "uint16"
        },
        {
          "internalType": "uint256",
          "name": "callbackGasLimit",
          "type": "uint256"
        },
        {
          "internalType": "uint256",
          "name": "callbackMaxGasPrice",
          "type": "uint256"
        }
      ],
      "stateMutability": "view",
      "type": "function"
    },
    {
      "inputs": [
        {
          "internalType": "uint16",
          "name": "minimumRequestConfirmations",
          "type": "uint16"
        },
        {
          "internalType": "uint32",
          "name": "maxGasLimit",
          "type": "uint32"
        },
        {
          "internalType": "uint32",
          "name": "stalenessSeconds",
          "type": "uint32"
        },
        {
          "internalType": "uint32",
          "name": "gasAfterPaymentCalculation",
          "type": "uint32"
        },
        {
          "internalType": "uint32",
          "name": "gasExceptCallback",
          "type": "uint32"
        },
        {
          "internalType": "int256",
          "name": "fallbackWeiPerUnitArpa",
          "type": "int256"
        },
        {
          "components": [
            {
              "internalType": "uint32",
              "name": "fulfillmentFlatFeeArpaPPMTier1",
              "type": "uint32"
            },
            {
              "internalType": "uint32",
              "name": "fulfillmentFlatFeeArpaPPMTier2",
              "type": "uint32"
            },
            {
              "internalType": "uint32",
              "name": "fulfillmentFlatFeeArpaPPMTier3",
              "type": "uint32"
            },
            {
              "internalType": "uint32",
              "name": "fulfillmentFlatFeeArpaPPMTier4",
              "type": "uint32"
            },
            {
              "internalType": "uint32",
              "name": "fulfillmentFlatFeeArpaPPMTier5",
              "type": "uint32"
            },
            {
              "internalType": "uint24",
              "name": "reqsForTier2",
              "type": "uint24"
            },
            {
              "internalType": "uint24",
              "name": "reqsForTier3",
              "type": "uint24"
            },
            {
              "internalType": "uint24",
              "name": "reqsForTier4",
              "type": "uint24"
            },
            {
              "internalType": "uint24",
              "name": "reqsForTier5",
              "type": "uint24"
            }
          ],
          "internalType": "struct Adapter.FeeConfig",
          "name": "feeConfig",
          "type": "tuple"
        }
      ],
      "name": "setConfig",
      "outputs": [],
      "stateMutability": "nonpayable",
      "type": "function"
    },
    {
      "inputs": [
        {
          "internalType": "address",
          "name": "nodeIdAddress",
          "type": "address"
        },
        {
          "internalType": "uint256",
          "name": "stakingPenalty",
          "type": "uint256"
        },
        {
          "internalType": "uint256",
          "name": "pendingBlock",
          "type": "uint256"
        },
        {
          "internalType": "bool",
          "name": "handleGroup",
          "type": "bool"
        }
      ],
      "name": "slashNode",
      "outputs": [],
      "stateMutability": "nonpayable",
      "type": "function"
    },
    {
      "inputs": [
        {
          "internalType": "address",
          "name": "newOwner",
          "type": "address"
        }
      ],
      "name": "transferOwnership",
      "outputs": [],
      "stateMutability": "nonpayable",
      "type": "function"
    },
    {
      "inputs": [],
      "name": "validGroupIndices",
      "outputs": [
        {
          "internalType": "uint256[]",
          "name": "",
          "type": "uint256[]"
        }
      ],
      "stateMutability": "view",
      "type": "function"
    }
  ],
  "bytecode": {
    "object": "0x60c06040526722222222222222226006553480156200001d57600080fd5b50604051620142183803806201421883398181016040528101906200004391906200020d565b81816200006562000059620000d760201b60201c565b620000df60201b60201c565b8173ffffffffffffffffffffffffffffffffffffffff1660808173ffffffffffffffffffffffffffffffffffffffff16815250508073ffffffffffffffffffffffffffffffffffffffff1660a08173ffffffffffffffffffffffffffffffffffffffff16815250505050505062000254565b600033905090565b60008060009054906101000a900473ffffffffffffffffffffffffffffffffffffffff169050816000806101000a81548173ffffffffffffffffffffffffffffffffffffffff021916908373ffffffffffffffffffffffffffffffffffffffff1602179055508173ffffffffffffffffffffffffffffffffffffffff168173ffffffffffffffffffffffffffffffffffffffff167f8be0079c531659141344cd1fd0a4f28419497f9722a3daafe3b4186f6b6457e060405160405180910390a35050565b600080fd5b600073ffffffffffffffffffffffffffffffffffffffff82169050919050565b6000620001d582620001a8565b9050919050565b620001e781620001c8565b8114620001f357600080fd5b50565b6000815190506200020781620001dc565b92915050565b60008060408385031215620002275762000226620001a3565b5b60006200023785828601620001f6565b92505060206200024a85828601620001f6565b9150509250929050565b60805160a05162013f8e6200028a60003960008181615651015261a229015260008181612f6d0152615c10015262013f8e6000f3fe60806040523480156200001157600080fd5b5060043610620004485760003560e01c80638da5cb5b116200023d578063ceb606541162000141578063e37eb96c11620000c9578063f5d35d551162000093578063f5d35d551462000ded578063f7bbf26a1462000e0f578063fb0882fc1462000e45578063fda669331462000e7b578063fdc934991462000eb15762000448565b8063e37eb96c1462000d41578063e9914eed1462000d61578063edfcb57f1462000d97578063f2fde38b1462000dcd5762000448565b8063d87660cd116200010b578063d87660cd1462000cbf578063dd2819281462000cdf578063df5332cb1462000cff578063e0b72cfd1462000d1f5762000448565b8063ceb606541462000c0f578063cfc635d41462000c45578063d164e28d1462000c67578063d2f9f9a71462000c895762000448565b8063a47c769611620001c5578063bcee30e5116200018f578063bcee30e51462000b73578063c24f03da1462000b95578063cc2dcb401462000bb7578063cc36c1e81462000bd95762000448565b8063a47c76961462000ad5578063aa81d59a1462000b0f578063adbf2f9b1462000b31578063bb65bb761462000b515762000448565b80639d20904811620002075780639d2090481462000a255780639ea3b84e1462000a5b578063a03da9841462000a91578063a21a23e41462000ab35762000448565b80638da5cb5b14620009855780638f23b32614620009a757806396324bd414620009c957806397228a7e1462000a035762000448565b80634d6154241162000351578063715018a611620002d957806379ee54f711620002a357806379ee54f714620008cd5780637a2af56e146200090357806380110e4e146200090f57806386dd2e9e146200092f57806388b12d55146200094f5762000448565b8063715018a614620008485780637328fceb14620008545780637341c10c146200087757806376a911bc14620008975762000448565b80635f1cc005116200031b5780635f1cc00514620007ae57806362d1445014620007e457806364d51a2a14620008065780636f2afe1614620008285762000448565b80634d61542414620006e35780634d79a89314620007225780634da6a5561462000758578063507dd038146200078e5762000448565b8063253870ff11620003d55780633048a1e6116200039f5780633048a1e614620006355780633141d144146200065557806342424d6f146200068b5780634ab7352314620006c15762000448565b8063253870ff14620005875780632936ff6514620005a95780632b8a733414620005df5780632d0354ec14620006155762000448565b80630bf9c5c611620004175780630bf9c5c614620004e957806315c48b841462000509578063189a5a17146200052b5780631bfcb06114620005655762000448565b80630285f4ae146200044d57806303515454146200046f5780630700037d14620004915780630b919eef14620004c7575b600080fd5b6200045762000ee7565b6040516200046691906200d7ef565b60405180910390f35b6200047962000eec565b6040516200048891906200d7ef565b60405180910390f35b620004af6004803603810190620004a991906200d885565b62000ef1565b604051620004be91906200d7ef565b60405180910390f35b620004d162000f09565b604051620004e091906200d7ef565b60405180910390f35b6200050760048036038101906200050191906200d8e8565b62000f0f565b005b62000513620016d4565b6040516200052291906200d94e565b60405180910390f35b6200054960048036038101906200054391906200d885565b620016d9565b6040516200055c9594939291906200da3d565b60405180910390f35b6200056f620017cc565b6040516200057e91906200d7ef565b60405180910390f35b62000591620017d1565b604051620005a091906200db6f565b60405180910390f35b620005c76004803603810190620005c191906200dbc4565b62001d6a565b604051620005d691906200dc20565b60405180910390f35b620005fd6004803603810190620005f791906200dda1565b62002042565b6040516200060c91906200db6f565b60405180910390f35b6200063360048036038101906200062d91906200e00a565b6200225f565b005b6200065360048036038101906200064d91906200e0be565b620025eb565b005b6200067360048036038101906200066d91906200e0f0565b620029d5565b6040516200068291906200dc20565b60405180910390f35b620006a96004803603810190620006a391906200e0be565b62002af1565b604051620006b891906200e137565b60405180910390f35b620006cb62002b2e565b604051620006da91906200d7ef565b60405180910390f35b620007016004803603810190620006fb91906200e18f565b62002b33565b604051620007199a999897969594939291906200e266565b60405180910390f35b6200074060048036038101906200073a91906200d8e8565b62002c66565b6040516200074f91906200e3f1565b60405180910390f35b6200077660048036038101906200077091906200d885565b62002d59565b6040516200078591906200d7ef565b60405180910390f35b620007ac6004803603810190620007a691906200e0be565b62002e3f565b005b620007cc6004803603810190620007c691906200e0be565b62002f38565b604051620007db91906200e137565b60405180910390f35b620007ee62002f6b565b604051620007fd91906200e479565b60405180910390f35b6200081062002f8f565b6040516200081f91906200d94e565b60405180910390f35b6200084660048036038101906200084091906200e496565b62002f94565b005b6200085262003024565b005b6200085e6200303c565b6040516200086e9291906200e508565b60405180910390f35b6200089560048036038101906200088f91906200e566565b6200352d565b005b620008b56004803603810190620008af91906200d885565b6200396a565b604051620008c491906200e5ad565b60405180910390f35b620008eb6004803603810190620008e591906200d885565b620039ca565b604051620008fa91906200d7ef565b60405180910390f35b6200090d62003a13565b005b6200092d60048036038101906200092791906200e62e565b62003b07565b005b6200094d60048036038101906200094791906200e7b2565b62003d4f565b005b6200096d60048036038101906200096791906200e18f565b62004692565b6040516200097c91906200e9b6565b60405180910390f35b6200098f62004877565b6040516200099e91906200e137565b60405180910390f35b620009b1620048a0565b604051620009c091906200d7ef565b60405180910390f35b620009e76004803603810190620009e191906200e0be565b620048a6565b604051620009fa9594939291906200e9da565b60405180910390f35b62000a0d620048e9565b60405162000a1c91906200d7ef565b60405180910390f35b62000a43600480360381019062000a3d91906200d885565b620048ef565b60405162000a5291906200eac8565b60405180910390f35b62000a79600480360381019062000a7391906200eaec565b62004a69565b60405162000a8891906200eb87565b60405180910390f35b62000a9b62004b9a565b60405162000aaa91906200d7ef565b60405180910390f35b62000abd62004b9f565b60405162000acc91906200e5ad565b60405180910390f35b62000af3600480360381019062000aed91906200eba4565b62004d30565b60405162000b069594939291906200ec93565b60405180910390f35b62000b1962004fc0565b60405162000b2891906200d7ef565b60405180910390f35b62000b4f600480360381019062000b4991906200e0be565b62004fc5565b005b62000b5b62005136565b60405162000b6a91906200d7ef565b60405180910390f35b62000b7d6200513c565b60405162000b8c91906200d7ef565b60405180910390f35b62000b9f62005141565b60405162000bae91906200d7ef565b60405180910390f35b62000bc162005146565b60405162000bd091906200d7ef565b60405180910390f35b62000bf7600480360381019062000bf191906200eaec565b6200514b565b60405162000c0691906200eb87565b60405180910390f35b62000c2d600480360381019062000c2791906200e0be565b6200521b565b60405162000c3c91906200f0b5565b60405180910390f35b62000c4f62005649565b60405162000c5e91906200d7ef565b60405180910390f35b62000c716200564f565b60405162000c8091906200f0fe565b60405180910390f35b62000ca7600480360381019062000ca191906200eba4565b62005673565b60405162000cb691906200f12c565b60405180910390f35b62000cdd600480360381019062000cd791906200dbc4565b62005900565b005b62000cfd600480360381019062000cf791906200f149565b62005b0b565b005b62000d1d600480360381019062000d1791906200e0be565b62005d84565b005b62000d296200626c565b60405162000d3891906200d7ef565b60405180910390f35b62000d5f600480360381019062000d5991906200f426565b62006271565b005b62000d7f600480360381019062000d7991906200e0be565b62006e69565b60405162000d8e91906200d7ef565b60405180910390f35b62000db5600480360381019062000daf91906200d8e8565b62006e8f565b60405162000dc491906200e137565b60405180910390f35b62000deb600480360381019062000de591906200d885565b62006efb565b005b62000df762006f85565b60405162000e0691906200d7ef565b60405180910390f35b62000e2d600480360381019062000e2791906200e0f0565b62006f8a565b60405162000e3c91906200f488565b60405180910390f35b62000e63600480360381019062000e5d91906200f5b3565b62007080565b60405162000e7291906200f615565b60405180910390f35b62000e99600480360381019062000e9391906200d8e8565b620078a7565b60405162000ea891906200dc20565b60405180910390f35b62000ecf600480360381019062000ec991906200f632565b620082cc565b60405162000ede91906200f6b7565b60405180910390f35b606481565b600a81565b60046020528060005260406000206000915090505481565b60055481565b600254821062000f56576040517f08c379a000000000000000000000000000000000000000000000000000000000815260040162000f4d906200f73c565b60405180910390fd5b7fffffffffffffffffffffffffffffffffffffffffffffffffffffffffffffffff62000f83833362006f8a565b0362000fc6576040517f08c379a000000000000000000000000000000000000000000000000000000000815260040162000fbd906200f7d4565b60405180910390fd5b60006003600084815260200190815260200160002090508060010154821462001026576040517f08c379a00000000000000000000000000000000000000000000000000000000081526004016200101d906200f86c565b60405180910390fd5b600073ffffffffffffffffffffffffffffffffffffffff166010600085815260200190815260200160002060009054906101000a900473ffffffffffffffffffffffffffffffffffffffff1673ffffffffffffffffffffffffffffffffffffffff1603620010cb576040517f08c379a0000000000000000000000000000000000000000000000000000000008152600401620010c2906200f904565b60405180910390fd5b60006010600085815260200190815260200160002060009054906101000a900473ffffffffffffffffffffffffffffffffffffffff1690507fffffffffffffffffffffffffffffffffffffffffffffffffffffffffffffffff8173ffffffffffffffffffffffffffffffffffffffff1663221f95116040518163ffffffff1660e01b8152600401602060405180830381865afa15801562001170573d6000803e3d6000fd5b505050506040513d601f19601f820116820180604052508101906200119691906200f964565b60000b14620011dc576040517f08c379a0000000000000000000000000000000000000000000000000000000008152600401620011d3906200f9e6565b60405180910390fd5b8073ffffffffffffffffffffffffffffffffffffffff16639cb8a26a6040518163ffffffff1660e01b8152600401600060405180830381600087803b1580156200122557600080fd5b505af11580156200123a573d6000803e3d6000fd5b5050505060006010600086815260200190815260200160002060006101000a81548173ffffffffffffffffffffffffffffffffffffffff021916908373ffffffffffffffffffffffffffffffffffffffff16021790555060008260070160009054906101000a900460ff1690506000620012b48662008556565b90508162001673576000816000015151036200137b57600084600201819055506000846003018190555060005b846004018054905081101562001362576200134c8560040182815481106200130e576200130d6200fa08565b5b906000526020600020906005020160000160009054906101000a900473ffffffffffffffffffffffffffffffffffffffff166103e860008062002f94565b808062001359906200fa66565b915050620012e1565b508360040160006200137591906200d2dc565b62001672565b6000816020015160400151905080518560020160008282546200139f91906200fab3565b925050819055506000620013b7866002015462006e69565b905080600311620013c95780620013cc565b60035b866003018190555060005b8251811015620016115760005b8760040180549050811015620015fa578382815181106200140a57620014096200fa08565b5b602002602001015173ffffffffffffffffffffffffffffffffffffffff168860040182815481106200144157620014406200fa08565b5b906000526020600020906005020160000160009054906101000a900473ffffffffffffffffffffffffffffffffffffffff1673ffffffffffffffffffffffffffffffffffffffff1603620015e4578760040160018960040180549050620014a991906200fab3565b81548110620014bd57620014bc6200fa08565b5b9060005260206000209060050201886004018281548110620014e457620014e36200fa08565b5b90600052602060002090600502016000820160009054906101000a900473ffffffffffffffffffffffffffffffffffffffff168160000160006101000a81548173ffffffffffffffffffffffffffffffffffffffff021916908373ffffffffffffffffffffffffffffffffffffffff1602179055506001820181600101906004620015719291906200d302565b50905050876004018054806200158c576200158b6200faee565b5b6001900381819060005260206000209060050201600080820160006101000a81549073ffffffffffffffffffffffffffffffffffffffff0219169055600182016000620015da91906200d344565b50509055620015fa565b8080620015f1906200fa66565b915050620013e4565b50808062001608906200fa66565b915050620013d7565b5060005b825181101562001663576200164d8382815181106200163957620016386200fa08565b5b60200260200101516103e860008062002f94565b80806200165a906200fa66565b91505062001615565b506200166f88620025eb565b50505b5b6064600460003373ffffffffffffffffffffffffffffffffffffffff1673ffffffffffffffffffffffffffffffffffffffff1681526020019081526020016000206000828254620016c591906200fb1d565b92505081905550505050505050565b60c881565b600f6020528060005260406000206000915090508060000160009054906101000a900473ffffffffffffffffffffffffffffffffffffffff169080600101805462001724906200fba9565b80601f016020809104026020016040519081016040528092919081815260200182805462001752906200fba9565b8015620017a35780601f106200177757610100808354040283529160200191620017a3565b820191906000526020600020905b8154815290600101906020018083116200178557829003601f168201915b5050505050908060020160009054906101000a900460ff16908060030154908060040154905085565b606481565b6060600060025467ffffffffffffffff811115620017f457620017f36200dc42565b5b604051908082528060200260200182016040528015620018235781602001602082028036833780820191505090505b5090506000805b60025481101562001cac57600060036000838152602001908152602001600020604051806101200160405290816000820154815260200160018201548152602001600282015481526020016003820154815260200160048201805480602002602001604051908101604052809291908181526020016000905b828210156200197457838290600052602060002090600502016040518060400160405290816000820160009054906101000a900473ffffffffffffffffffffffffffffffffffffffff1673ffffffffffffffffffffffffffffffffffffffff1673ffffffffffffffffffffffffffffffffffffffff168152602001600182016004806020026040519081016040528092919082600480156200195b576020028201915b81548152602001906001019080831162001946575b50505050508152505081526020019060010190620018a3565b5050505081526020016005820180548060200260200160405190810160405280929190818152602001828054801562001a0357602002820191906000526020600020905b8160009054906101000a900473ffffffffffffffffffffffffffffffffffffffff1673ffffffffffffffffffffffffffffffffffffffff1681526020019060010190808311620019b8575b5050505050815260200160068201805480602002602001604051908101604052809291908181526020016000905b8282101562001bea57838290600052602060002090600702016040518060400160405290816000820180548060200260200160405190810160405280929190818152602001828054801562001adc57602002820191906000526020600020905b8160009054906101000a900473ffffffffffffffffffffffffffffffffffffffff1673ffffffffffffffffffffffffffffffffffffffff168152602001906001019080831162001a91575b5050505050815260200160018201604051806060016040529081600082015481526020016001820160048060200260405190810160405280929190826004801562001b3d576020028201915b81548152602001906001019080831162001b28575b505050505081526020016005820180548060200260200160405190810160405280929190818152602001828054801562001bcd57602002820191906000526020600020905b8160009054906101000a900473ffffffffffffffffffffffffffffffffffffffff1673ffffffffffffffffffffffffffffffffffffffff168152602001906001019080831162001b82575b505050505081525050815250508152602001906001019062001a31565b5050505081526020016007820160009054906101000a900460ff161515151581526020016008820160048060200260405190810160405280929190826004801562001c4b576020028201915b81548152602001906001019080831162001c36575b50505050508152505090508060e001511562001c95578184848151811062001c785762001c776200fa08565b5b602002602001018181525050828062001c91906200fa66565b9350505b50808062001ca3906200fa66565b9150506200182a565b5060008167ffffffffffffffff81111562001ccc5762001ccb6200dc42565b5b60405190808252806020026020018201604052801562001cfb5781602001602082028036833780820191505090505b50905060005b8281101562001d605783818151811062001d205762001d1f6200fa08565b5b602002602001015182828151811062001d3e5762001d3d6200fa08565b5b602002602001018181525050808062001d57906200fa66565b91505062001d01565b5080935050505090565b60008060036000858152602001908152602001600020905080600201600081548092919062001d99906200fbde565b9190505550600081600201540362001dd25780600401600062001dbd91906200d2dc565b6000816003018190555060009150506200203b565b600080600090505b826004018054905081101562001e87578673ffffffffffffffffffffffffffffffffffffffff1683600401828154811062001e1a5762001e196200fa08565b5b906000526020600020906005020160000160009054906101000a900473ffffffffffffffffffffffffffffffffffffffff1673ffffffffffffffffffffffffffffffffffffffff160362001e715780915062001e87565b808062001e7e906200fa66565b91505062001dda565b50816004016001836004018054905062001ea291906200fab3565b8154811062001eb65762001eb56200fa08565b5b906000526020600020906005020182600401828154811062001edd5762001edc6200fa08565b5b90600052602060002090600502016000820160009054906101000a900473ffffffffffffffffffffffffffffffffffffffff168160000160006101000a81548173ffffffffffffffffffffffffffffffffffffffff021916908373ffffffffffffffffffffffffffffffffffffffff160217905550600182018160010190600462001f6a9291906200d302565b509050508160040180548062001f855762001f846200faee565b5b6001900381819060005260206000209060050201600080820160006101000a81549073ffffffffffffffffffffffffffffffffffffffff021916905560018201600062001fd391906200d344565b50509055600062001fe8836002015462006e69565b90506003811162001ffb57600362001ffd565b805b83600301819055506003836002015410156200202057600193505050506200203b565b84156200203357620020328662005d84565b5b600093505050505b9392505050565b606060008267ffffffffffffffff8111156200206357620020626200dc42565b5b604051908082528060200260200182016040528015620020925781602001602082028036833780820191505090505b5090506000845167ffffffffffffffff811115620020b557620020b46200dc42565b5b604051908082528060200260200182016040528015620020e45781602001602082028036833780820191505090505b50905060005b85518110156200214a578581815181106200210a57620021096200fa08565b5b60200260200101518282815181106200212857620021276200fa08565b5b602002602001018181525050808062002141906200fa66565b915050620020ea565b5060008151905060005b8581101562002251576000828983604051602001620021759291906200fc31565b6040516020818303038152906040528051906020012060001c6200219a91906200fc90565b9050838181518110620021b257620021b16200fa08565b5b6020026020010151858381518110620021d057620021cf6200fa08565b5b60200260200101818152505083600184620021ec91906200fab3565b815181106200220057620021ff6200fa08565b5b60200260200101518482815181106200221e576200221d6200fa08565b5b602002602001018181525050828062002237906200fbde565b93505050808062002248906200fa66565b91505062002154565b508293505050509392505050565b6200226962008ab7565b60c861ffff168761ffff161115620022bf57868760c86040517fa7386976000000000000000000000000000000000000000000000000000000008152600401620022b6939291906200fcc8565b60405180910390fd5b600082136200230757816040517f09d2037f000000000000000000000000000000000000000000000000000000008152600401620022fe91906200f488565b60405180910390fd5b6040518060c001604052808861ffff1681526020018763ffffffff1681526020016000151581526020018663ffffffff1681526020018563ffffffff1681526020018463ffffffff16815250600860008201518160000160006101000a81548161ffff021916908361ffff16021790555060208201518160000160026101000a81548163ffffffff021916908363ffffffff16021790555060408201518160000160066101000a81548160ff02191690831515021790555060608201518160000160076101000a81548163ffffffff021916908363ffffffff160217905550608082015181600001600b6101000a81548163ffffffff021916908363ffffffff16021790555060a082015181600001600f6101000a81548163ffffffff021916908363ffffffff16021790555090505080600960008201518160000160006101000a81548163ffffffff021916908363ffffffff16021790555060208201518160000160046101000a81548163ffffffff021916908363ffffffff16021790555060408201518160000160086101000a81548163ffffffff021916908363ffffffff160217905550606082015181600001600c6101000a81548163ffffffff021916908363ffffffff16021790555060808201518160000160106101000a81548163ffffffff021916908363ffffffff16021790555060a08201518160000160146101000a81548162ffffff021916908362ffffff16021790555060c08201518160000160176101000a81548162ffffff021916908362ffffff16021790555060e082015181600001601a6101000a81548162ffffff021916908362ffffff16021790555061010082015181600001601d6101000a81548162ffffff021916908362ffffff160217905550905050816007819055507fa07515c322bd28ab957a698d96560ad628e53a3fb4d16a3d5756c6cf411942a28787878787876009604051620025da97969594939291906200ffd0565b60405180910390a150505050505050565b60006001600254620025fe91906200fab3565b67ffffffffffffffff8111156200261a57620026196200dc42565b5b604051908082528060200260200182016040528015620026495781602001602082028036833780820191505090505b5090506000805b600254811015620026ad578381146200269757808383815181106200267a57620026796200fa08565b5b602002602001018181525050818062002693906200fa66565b9250505b8080620026a4906200fa66565b91505062002650565b5060006001905060005b83518110156200271057620026ea848281518110620026db57620026da6200fa08565b5b602002602001015186620078a7565b15620026fa576000915062002710565b808062002707906200fa66565b915050620026b7565b508015620029cf57600060036000868152602001908152602001600020905060008160070160006101000a81548160ff0219169083151502179055506000816004018054905067ffffffffffffffff8111156200277257620027716200dc42565b5b604051908082528060200260200182016040528015620027a15781602001602082028036833780820191505090505b50905060005b82600401805490508110156200286857826004018181548110620027d057620027cf6200fa08565b5b906000526020600020906005020160000160009054906101000a900473ffffffffffffffffffffffffffffffffffffffff168282815181106200281857620028176200fa08565b5b602002602001019073ffffffffffffffffffffffffffffffffffffffff16908173ffffffffffffffffffffffffffffffffffffffff168152505080806200285f906200fa66565b915050620027a7565b50600060025467ffffffffffffffff8111156200288a57620028896200dc42565b5b604051908082528060200260200182016040528015620028b95781602001602082028036833780820191505090505b50905060005b825181101562002953576000620028d56200303c565b509050808903620028e7575062002953565b620029128483815181106200290157620029006200fa08565b5b602002602001015182600062008b3c565b60018382815181106200292a57620029296200fa08565b5b6020026020010190151590811515815250505080806200294a906200fa66565b915050620028bf565b5060005b8151811015620029ca578181815181106200297757620029766200fa08565b5b60200260200101518015620029a2575060038060008381526020019081526020016000206002015410155b15620029b457620029b38162005d84565b5b8080620029c1906200fa66565b91505062002957565b505050505b50505050565b60008060036000858152602001908152602001600020905060005b816004018054905081101562002ae4578373ffffffffffffffffffffffffffffffffffffffff1682600401828154811062002a305762002a2f6200fa08565b5b906000526020600020906005020160000160009054906101000a900473ffffffffffffffffffffffffffffffffffffffff1673ffffffffffffffffffffffffffffffffffffffff160362002ace57600082600401828154811062002a995762002a986200fa08565b5b906000526020600020906005020160010160006004811062002ac05762002abf6200fa08565b5b015414159250505062002aeb565b808062002adb906200fa66565b915050620029f0565b5060009150505b92915050565b60006010600083815260200190815260200160002060009054906101000a900473ffffffffffffffffffffffffffffffffffffffff169050919050565b600a81565b600a6020528060005260406000206000915090508060000160009054906101000a900473ffffffffffffffffffffffffffffffffffffffff16908060000160149054906101000a900460ff169080600101805462002b91906200fba9565b80601f016020809104026020016040519081016040528092919081815260200182805462002bbf906200fba9565b801562002c105780601f1062002be45761010080835404028352916020019162002c10565b820191906000526020600020905b81548152906001019060200180831162002bf257829003601f168201915b5050505050908060020160009054906101000a900467ffffffffffffffff16908060030154908060040154908060050154908060060160009054906101000a900461ffff1690806007015490806008015490508a565b62002c706200d360565b60036000848152602001908152602001600020600401828154811062002c9b5762002c9a6200fa08565b5b90600052602060002090600502016040518060400160405290816000820160009054906101000a900473ffffffffffffffffffffffffffffffffffffffff1673ffffffffffffffffffffffffffffffffffffffff1673ffffffffffffffffffffffffffffffffffffffff1681526020016001820160048060200260405190810160405280929190826004801562002d48576020028201915b81548152602001906001019080831162002d33575b505050505081525050905092915050565b600080600f60008473ffffffffffffffffffffffffffffffffffffffff1673ffffffffffffffffffffffffffffffffffffffff16815260200190815260200160002090508273ffffffffffffffffffffffffffffffffffffffff168160000160009054906101000a900473ffffffffffffffffffffffffffffffffffffffff1673ffffffffffffffffffffffffffffffffffffffff161462002e32576040517f08c379a000000000000000000000000000000000000000000000000000000000815260040162002e29906201009e565b60405180910390fd5b8060040154915050919050565b6000600f60003373ffffffffffffffffffffffffffffffffffffffff1673ffffffffffffffffffffffffffffffffffffffff16815260200190815260200160002090503373ffffffffffffffffffffffffffffffffffffffff168160000160009054906101000a900473ffffffffffffffffffffffffffffffffffffffff1673ffffffffffffffffffffffffffffffffffffffff161462002f17576040517f08c379a000000000000000000000000000000000000000000000000000000000815260040162002f0e906201009e565b60405180910390fd5b8181600401600082825462002f2d91906200fb1d565b925050819055505050565b60106020528060005260406000206000915054906101000a900473ffffffffffffffffffffffffffffffffffffffff1681565b7f000000000000000000000000000000000000000000000000000000000000000081565b606481565b6000600f60008673ffffffffffffffffffffffffffffffffffffffff1673ffffffffffffffffffffffffffffffffffffffff16815260200190815260200160002090508381600401600082825462002fed91906200fab3565b9250508190555061c35081600401541080620030095750600083115b156200301d576200301c85848462005900565b5b5050505050565b6200302e62008ab7565b6200303a600062008c9d565b565b600080600060025403620030665760006200305662008d61565b9050806000925092505062003529565b600080600a905060005b600254811015620034cb57600060036000838152602001908152602001600020604051806101200160405290816000820154815260200160018201548152602001600282015481526020016003820154815260200160048201805480602002602001604051908101604052809291908181526020016000905b82821015620031ba57838290600052602060002090600502016040518060400160405290816000820160009054906101000a900473ffffffffffffffffffffffffffffffffffffffff1673ffffffffffffffffffffffffffffffffffffffff1673ffffffffffffffffffffffffffffffffffffffff16815260200160018201600480602002604051908101604052809291908260048015620031a1576020028201915b8154815260200190600101908083116200318c575b50505050508152505081526020019060010190620030e9565b505050508152602001600582018054806020026020016040519081016040528092919081815260200182805480156200324957602002820191906000526020600020905b8160009054906101000a900473ffffffffffffffffffffffffffffffffffffffff1673ffffffffffffffffffffffffffffffffffffffff1681526020019060010190808311620031fe575b5050505050815260200160068201805480602002602001604051908101604052809291908181526020016000905b82821015620034305783829060005260206000209060070201604051806040016040529081600082018054806020026020016040519081016040528092919081815260200182805480156200332257602002820191906000526020600020905b8160009054906101000a900473ffffffffffffffffffffffffffffffffffffffff1673ffffffffffffffffffffffffffffffffffffffff1681526020019060010190808311620032d7575b5050505050815260200160018201604051806060016040529081600082015481526020016001820160048060200260405190810160405280929190826004801562003383576020028201915b8154815260200190600101908083116200336e575b50505050508152602001600582018054806020026020016040519081016040528092919081815260200182805480156200341357602002820191906000526020600020905b8160009054906101000a900473ffffffffffffffffffffffffffffffffffffffff1673ffffffffffffffffffffffffffffffffffffffff1681526020019060010190808311620033c8575b505050505081525050815250508152602001906001019062003277565b5050505081526020016007820160009054906101000a900460ff161515151581526020016008820160048060200260405190810160405280929190826004801562003491576020028201915b8154815260200190600101908083116200347c575b50505050508152505090508281604001511015620034b457806040015192508193505b508080620034c2906200fa66565b91505062003070565b506000620034d8620017d1565b519050600581108015620034ed575060025481145b80620034f95750600a82145b156200351e5760006200350b62008d61565b9050806001955095505050505062003529565b826000945094505050505b9091565b816000600c60008367ffffffffffffffff1667ffffffffffffffff16815260200190815260200160002060000160009054906101000a900473ffffffffffffffffffffffffffffffffffffffff169050600073ffffffffffffffffffffffffffffffffffffffff168173ffffffffffffffffffffffffffffffffffffffff1603620035e4576040517f1f6a65b600000000000000000000000000000000000000000000000000000000815260040160405180910390fd5b8073ffffffffffffffffffffffffffffffffffffffff163373ffffffffffffffffffffffffffffffffffffffff16146200365757806040517fd8a3fb520000000000000000000000000000000000000000000000000000000081526004016200364e91906200e137565b60405180910390fd5b600860000160069054906101000a900460ff1615620036a2576040517fed3ba6a600000000000000000000000000000000000000000000000000000000815260040160405180910390fd5b606461ffff16600c60008667ffffffffffffffff1667ffffffffffffffff16815260200190815260200160002060020180549050036200370e576040517f05a48e0f00000000000000000000000000000000000000000000000000000000815260040160405180910390fd5b6000600b60008573ffffffffffffffffffffffffffffffffffffffff1673ffffffffffffffffffffffffffffffffffffffff16815260200190815260200160002060000160008667ffffffffffffffff1667ffffffffffffffff16815260200190815260200160002060009054906101000a900467ffffffffffffffff1667ffffffffffffffff160362003964576001600b60008573ffffffffffffffffffffffffffffffffffffffff1673ffffffffffffffffffffffffffffffffffffffff16815260200190815260200160002060000160008667ffffffffffffffff1667ffffffffffffffff16815260200190815260200160002060006101000a81548167ffffffffffffffff021916908367ffffffffffffffff16021790555083600b60008573ffffffffffffffffffffffffffffffffffffffff1673ffffffffffffffffffffffffffffffffffffffff16815260200190815260200160002060010160006101000a81548167ffffffffffffffff021916908367ffffffffffffffff160217905550600c60008567ffffffffffffffff1667ffffffffffffffff168152602001908152602001600020600201839080600181540180825580915050600190039060005260206000200160009091909190916101000a81548173ffffffffffffffffffffffffffffffffffffffff021916908373ffffffffffffffffffffffffffffffffffffffff1602179055508367ffffffffffffffff167f43dc749a04ac8fb825cbd514f7c0e13f13bc6f2ee66043b76629d51776cff8e0846040516200395b91906200e137565b60405180910390a25b50505050565b6000600b60008373ffffffffffffffffffffffffffffffffffffffff1673ffffffffffffffffffffffffffffffffffffffff16815260200190815260200160002060010160009054906101000a900467ffffffffffffffff169050919050565b6000600460008373ffffffffffffffffffffffffffffffffffffffff1673ffffffffffffffffffffffffffffffffffffffff168152602001908152602001600020549050919050565b6000600f60003373ffffffffffffffffffffffffffffffffffffffff1673ffffffffffffffffffffffffffffffffffffffff16815260200190815260200160002090503373ffffffffffffffffffffffffffffffffffffffff168160000160009054906101000a900473ffffffffffffffffffffffffffffffffffffffff1673ffffffffffffffffffffffffffffffffffffffff161462003aeb576040517f08c379a000000000000000000000000000000000000000000000000000000000815260040162003ae2906201009e565b60405180910390fd5b62003afa336064600162005900565b6000816004018190555050565b600073ffffffffffffffffffffffffffffffffffffffff16600f60003373ffffffffffffffffffffffffffffffffffffffff1673ffffffffffffffffffffffffffffffffffffffff16815260200190815260200160002060000160009054906101000a900473ffffffffffffffffffffffffffffffffffffffff1673ffffffffffffffffffffffffffffffffffffffff161462003bdb576040517f08c379a000000000000000000000000000000000000000000000000000000000815260040162003bd29062010110565b60405180910390fd5b600062003c2c83838080601f016020809104026020016040519081016040528093929190818152602001838380828437600081840152601f19601f8201169050808301925050505050505062008dbf565b905062003c398162008e53565b62003c70576040517fa2d0fee800000000000000000000000000000000000000000000000000000000815260040160405180910390fd5b6000600f60003373ffffffffffffffffffffffffffffffffffffffff1673ffffffffffffffffffffffffffffffffffffffff1681526020019081526020016000209050338160000160006101000a81548173ffffffffffffffffffffffffffffffffffffffff021916908373ffffffffffffffffffffffffffffffffffffffff160217905550838382600101918262003d0b92919062010305565b5060018160020160006101000a81548160ff0219169083151502179055506000816003018190555061c350816004018190555062003d493362008f8c565b50505050565b60005a90506000600a6000868152602001908152602001600020604051806101400160405290816000820160009054906101000a900473ffffffffffffffffffffffffffffffffffffffff1673ffffffffffffffffffffffffffffffffffffffff1673ffffffffffffffffffffffffffffffffffffffff1681526020016000820160149054906101000a900460ff16600281111562003df35762003df26200e1c1565b5b600281111562003e085762003e076200e1c1565b5b815260200160018201805462003e1e906200fba9565b80601f016020809104026020016040519081016040528092919081815260200182805462003e4c906200fba9565b801562003e9d5780601f1062003e715761010080835404028352916020019162003e9d565b820191906000526020600020905b81548152906001019060200180831162003e7f57829003601f168201915b505050505081526020016002820160009054906101000a900467ffffffffffffffff1667ffffffffffffffff1667ffffffffffffffff1681526020016003820154815260200160048201548152602001600582015481526020016006820160009054906101000a900461ffff1661ffff1661ffff168152602001600782015481526020016008820154815250509050600081608001510362003f6b576040517f3688124a00000000000000000000000000000000000000000000000000000000815260040160405180910390fd5b8060e0015161ffff168160c0015162003f8591906200fb1d565b43101562003fca576040517f08c379a000000000000000000000000000000000000000000000000000000000815260040162003fc1906201043a565b60405180910390fd5b8060a00151861415801562003ff15750600a8160c0015162003fed91906200fb1d565b4311155b1562004029576040517ff06e777a00000000000000000000000000000000000000000000000000000000815260040160405180910390fd5b600254861062004070576040517f08c379a000000000000000000000000000000000000000000000000000000000815260040162004067906200f73c565b60405180910390fd5b6200407b84620090cf565b620040b2576040517f8529df1f00000000000000000000000000000000000000000000000000000000815260040160405180910390fd5b6000835103620040ee576040517f8bdcc37500000000000000000000000000000000000000000000000000000000815260040160405180910390fd5b60006003600088815260200190815260200160002090506200419b816005018054806020026020016040519081016040528092919081815260200182805480156200418f57602002820191906000526020600020905b8160009054906101000a900473ffffffffffffffffffffffffffffffffffffffff1673ffffffffffffffffffffffffffffffffffffffff168152602001906001019080831162004144575b50505050503362009152565b620041d2576040517fd9ce719d00000000000000000000000000000000000000000000000000000000815260040160405180910390fd5b600082608001518360c00151604051602001620041f19291906200fc31565b604051602081830303815290604052905060006200420f82620091e2565b905062004269620042208862009253565b846008016004806020026040519081016040528092919082600480156200425d576020028201915b81548152602001906001019080831162004248575b5050505050836200937e565b620042a0576040517f8baa579f00000000000000000000000000000000000000000000000000000000815260040160405180910390fd5b6000865167ffffffffffffffff811115620042c057620042bf6200dc42565b5b604051908082528060200260200182016040528015620042fd57816020015b620042e96200d398565b815260200190600190039081620042df5790505b5090506000875167ffffffffffffffff81111562004320576200431f6200dc42565b5b6040519080825280602002602001820160405280156200435d57816020015b620043496200d3ba565b8152602001906001900390816200433f5790505b5090506000885167ffffffffffffffff81111562004380576200437f6200dc42565b5b604051908082528060200260200182016040528015620043af5781602001602082028036833780820191505090505b50905060005b8951811015620045eb57620043eb8a8281518110620043d957620043d86200fa08565b5b602002602001015160200151620090cf565b62004422576040517fd70936fa00000000000000000000000000000000000000000000000000000000815260040160405180910390fd5b6200444e8a82815181106200443c576200443b6200fa08565b5b60200260200101516020015162009253565b8482815181106200446457620044636200fa08565b5b6020026020010181905250866004018a82815181106200448957620044886200fa08565b5b60200260200101516000015181548110620044a957620044a86200fa08565b5b9060005260206000209060050201600101600480602002604051908101604052809291908260048015620044f3576020028201915b815481526020019060010190808311620044de575b50505050508382815181106200450e576200450d6200fa08565b5b6020026020010181905250866004018a82815181106200453357620045326200fa08565b5b602002602001015160000151815481106200455357620045526200fa08565b5b906000526020600020906005020160000160009054906101000a900473ffffffffffffffffffffffffffffffffffffffff168282815181106200459b576200459a6200fa08565b5b602002602001019073ffffffffffffffffffffffffffffffffffffffff16908173ffffffffffffffffffffffffffffffffffffffff16815250508080620045e2906200fa66565b915050620043b5565b50620045f9838386620095c6565b62004630576040517f9c2d1c6d00000000000000000000000000000000000000000000000000000000815260040160405180910390fd5b60008a6040516020016200464591906200d7ef565b6040516020818303038152906040528051906020012060001c905080600681905550620046768c828f8c8c6200989f565b505062004683826200a106565b50505050505050505050505050565b6200469c6200d3dc565b600a6000838152602001908152602001600020604051806101400160405290816000820160009054906101000a900473ffffffffffffffffffffffffffffffffffffffff1673ffffffffffffffffffffffffffffffffffffffff1673ffffffffffffffffffffffffffffffffffffffff1681526020016000820160149054906101000a900460ff1660028111156200473957620047386200e1c1565b5b60028111156200474e576200474d6200e1c1565b5b815260200160018201805462004764906200fba9565b80601f016020809104026020016040519081016040528092919081815260200182805462004792906200fba9565b8015620047e35780601f10620047b757610100808354040283529160200191620047e3565b820191906000526020600020905b815481529060010190602001808311620047c557829003601f168201915b505050505081526020016002820160009054906101000a900467ffffffffffffffff1667ffffffffffffffff1667ffffffffffffffff1681526020016003820154815260200160048201548152602001600582015481526020016006820160009054906101000a900461ffff1661ffff1661ffff168152602001600782015481526020016008820154815250509050919050565b60008060009054906101000a900473ffffffffffffffffffffffffffffffffffffffff16905090565b60025481565b60036020528060005260406000206000915090508060000154908060010154908060020154908060030154908060070160009054906101000a900460ff16905085565b60065481565b620048f96200d468565b600f60008373ffffffffffffffffffffffffffffffffffffffff1673ffffffffffffffffffffffffffffffffffffffff1681526020019081526020016000206040518060a00160405290816000820160009054906101000a900473ffffffffffffffffffffffffffffffffffffffff1673ffffffffffffffffffffffffffffffffffffffff1673ffffffffffffffffffffffffffffffffffffffff168152602001600182018054620049ab906200fba9565b80601f0160208091040260200160405190810160405280929190818152602001828054620049d9906200fba9565b801562004a2a5780601f10620049fe5761010080835404028352916020019162004a2a565b820191906000526020600020905b81548152906001019060200180831162004a0c57829003601f168201915b505050505081526020016002820160009054906101000a900460ff16151515158152602001600382015481526020016004820154815250509050919050565b60008062004a766200a1fc565b90506000811362004ac057806040517f09d2037f00000000000000000000000000000000000000000000000000000000815260040162004ab791906200f488565b60405180910390fd5b6000815a888862004ad291906200fb1d565b62004ade91906200fab3565b85670de0b6b3a764000062004af491906201045c565b62004b0091906201045c565b62004b0c9190620104bd565b905060008563ffffffff1664e8d4a5100062004b2991906201045c565b9050806b04d8c55aefb8c05b5c00000062004b4591906200fab3565b82111562004b7f576040517fe80fa38100000000000000000000000000000000000000000000000000000000815260040160405180910390fd5b808262004b8d91906200fb1d565b9350505050949350505050565b600581565b6000600860000160069054906101000a900460ff161562004bec576040517fed3ba6a600000000000000000000000000000000000000000000000000000000815260040160405180910390fd5b600d600081819054906101000a900467ffffffffffffffff168092919062004c1490620104f5565b91906101000a81548167ffffffffffffffff021916908367ffffffffffffffff1602179055505033600c6000600d60009054906101000a900467ffffffffffffffff1667ffffffffffffffff1667ffffffffffffffff16815260200190815260200160002060000160006101000a81548173ffffffffffffffffffffffffffffffffffffffff021916908373ffffffffffffffffffffffffffffffffffffffff160217905550600d60009054906101000a900467ffffffffffffffff1667ffffffffffffffff167f464722b4166576d3dcbba877b999bc35cf911f4eaf434b7eba68fa113951d0bf3360405162004d0c91906200e137565b60405180910390a2600d60009054906101000a900467ffffffffffffffff16905090565b6000806000806060600073ffffffffffffffffffffffffffffffffffffffff16600c60008867ffffffffffffffff1667ffffffffffffffff16815260200190815260200160002060000160009054906101000a900473ffffffffffffffffffffffffffffffffffffffff1673ffffffffffffffffffffffffffffffffffffffff160362004de9576040517f1f6a65b600000000000000000000000000000000000000000000000000000000815260040160405180910390fd5b600c60008767ffffffffffffffff1667ffffffffffffffff16815260200190815260200160002060030160009054906101000a90046bffffffffffffffffffffffff16600c60008867ffffffffffffffff1667ffffffffffffffff168152602001908152602001600020600301600c9054906101000a90046bffffffffffffffffffffffff16600c60008967ffffffffffffffff1667ffffffffffffffff16815260200190815260200160002060050160009054906101000a900467ffffffffffffffff16600c60008a67ffffffffffffffff1667ffffffffffffffff16815260200190815260200160002060000160009054906101000a900473ffffffffffffffffffffffffffffffffffffffff16600c60008b67ffffffffffffffff1667ffffffffffffffff1681526020019081526020016000206002018080548060200260200160405190810160405280929190818152602001828054801562004fa657602002820191906000526020600020905b8160009054906101000a900473ffffffffffffffffffffffffffffffffffffffff1673ffffffffffffffffffffffffffffffffffffffff168152602001906001019080831162004f5b575b505050505090509450945094509450945091939590929450565b600381565b6000600f60003373ffffffffffffffffffffffffffffffffffffffff1673ffffffffffffffffffffffffffffffffffffffff16815260200190815260200160002090503373ffffffffffffffffffffffffffffffffffffffff168160000160009054906101000a900473ffffffffffffffffffffffffffffffffffffffff1673ffffffffffffffffffffffffffffffffffffffff16146200509d576040517f08c379a000000000000000000000000000000000000000000000000000000000815260040162005094906201009e565b60405180910390fd5b600115158160020160009054906101000a900460ff16151503620051155761c350828260040154620050d091906200fab3565b101562005114576040517f08c379a00000000000000000000000000000000000000000000000000000000081526004016200510b90620105a0565b60405180910390fd5b5b818160040160008282546200512b91906200fab3565b925050819055505050565b6103e881565b603281565b606481565b600381565b600080620051586200a1fc565b905060008113620051a257806040517f09d2037f0000000000000000000000000000000000000000000000000000000081526004016200519991906200f488565b60405180910390fd5b6000818787620051b391906200fb1d565b85670de0b6b3a7640000620051c991906201045c565b620051d591906201045c565b620051e19190620104bd565b905060008563ffffffff1664e8d4a51000620051fe91906201045c565b905080826200520e91906200fb1d565b9350505050949350505050565b620052256200d4af565b60036000838152602001908152602001600020604051806101200160405290816000820154815260200160018201548152602001600282015481526020016003820154815260200160048201805480602002602001604051908101604052809291908181526020016000905b828210156200536257838290600052602060002090600502016040518060400160405290816000820160009054906101000a900473ffffffffffffffffffffffffffffffffffffffff1673ffffffffffffffffffffffffffffffffffffffff1673ffffffffffffffffffffffffffffffffffffffff1681526020016001820160048060200260405190810160405280929190826004801562005349576020028201915b81548152602001906001019080831162005334575b5050505050815250508152602001906001019062005291565b50505050815260200160058201805480602002602001604051908101604052809291908181526020018280548015620053f157602002820191906000526020600020905b8160009054906101000a900473ffffffffffffffffffffffffffffffffffffffff1673ffffffffffffffffffffffffffffffffffffffff1681526020019060010190808311620053a6575b5050505050815260200160068201805480602002602001604051908101604052809291908181526020016000905b82821015620055d8578382906000526020600020906007020160405180604001604052908160008201805480602002602001604051908101604052809291908181526020018280548015620054ca57602002820191906000526020600020905b8160009054906101000a900473ffffffffffffffffffffffffffffffffffffffff1673ffffffffffffffffffffffffffffffffffffffff16815260200190600101908083116200547f575b505050505081526020016001820160405180606001604052908160008201548152602001600182016004806020026040519081016040528092919082600480156200552b576020028201915b81548152602001906001019080831162005516575b5050505050815260200160058201805480602002602001604051908101604052809291908181526020018280548015620055bb57602002820191906000526020600020905b8160009054906101000a900473ffffffffffffffffffffffffffffffffffffffff1673ffffffffffffffffffffffffffffffffffffffff168152602001906001019080831162005570575b50505050508152505081525050815260200190600101906200541f565b5050505081526020016007820160009054906101000a900460ff161515151581526020016008820160048060200260405190810160405280929190826004801562005639576020028201915b81548152602001906001019080831162005624575b5050505050815250509050919050565b61c35081565b7f000000000000000000000000000000000000000000000000000000000000000081565b6000806009604051806101200160405290816000820160009054906101000a900463ffffffff1663ffffffff1663ffffffff1681526020016000820160049054906101000a900463ffffffff1663ffffffff1663ffffffff1681526020016000820160089054906101000a900463ffffffff1663ffffffff1663ffffffff16815260200160008201600c9054906101000a900463ffffffff1663ffffffff1663ffffffff1681526020016000820160109054906101000a900463ffffffff1663ffffffff1663ffffffff1681526020016000820160149054906101000a900462ffffff1662ffffff1662ffffff1681526020016000820160179054906101000a900462ffffff1662ffffff1662ffffff16815260200160008201601a9054906101000a900462ffffff1662ffffff1662ffffff16815260200160008201601d9054906101000a900462ffffff1662ffffff1662ffffff168152505090508267ffffffffffffffff16600011158015620057ff57508060a0015162ffffff168367ffffffffffffffff1611155b1562005813578060000151915050620058fb565b8267ffffffffffffffff168160a0015162ffffff161080156200584957508060c0015162ffffff168367ffffffffffffffff1611155b156200585d578060200151915050620058fb565b8267ffffffffffffffff168160c0015162ffffff161080156200589357508060e0015162ffffff168367ffffffffffffffff1611155b15620058a7578060400151915050620058fb565b8267ffffffffffffffff168160e0015162ffffff16108015620058de575080610100015162ffffff168367ffffffffffffffff1611155b15620058f2578060600151915050620058fb565b80608001519150505b919050565b8015620059a4576000806000905060005b60025481101562005972577fffffffffffffffffffffffffffffffffffffffffffffffffffffffffffffffff62005949828862006f8a565b146200595c578092506001915062005972565b808062005969906200fa66565b91505062005911565b508015620059a15760006200598a8684600162001d6a565b905080156200599f576200599e83620025eb565b5b505b50505b6000600f60008573ffffffffffffffffffffffffffffffffffffffff1673ffffffffffffffffffffffffffffffffffffffff16815260200190815260200160002060020160006101000a81548160ff021916908315150217905550600043905043600f60008673ffffffffffffffffffffffffffffffffffffffff1673ffffffffffffffffffffffffffffffffffffffff16815260200190815260200160002060030154111562005ab05782600f60008673ffffffffffffffffffffffffffffffffffffffff1673ffffffffffffffffffffffffffffffffffffffff168152602001908152602001600020600301600082825462005aa391906200fb1d565b9250508190555062005b05565b828162005abe91906200fb1d565b600f60008673ffffffffffffffffffffffffffffffffffffffff1673ffffffffffffffffffffffffffffffffffffffff168152602001908152602001600020600301819055505b50505050565b600860000160069054906101000a900460ff161562005b56576040517fed3ba6a600000000000000000000000000000000000000000000000000000000815260040160405180910390fd5b600073ffffffffffffffffffffffffffffffffffffffff16600c60008467ffffffffffffffff1667ffffffffffffffff16815260200190815260200160002060000160009054906101000a900473ffffffffffffffffffffffffffffffffffffffff1673ffffffffffffffffffffffffffffffffffffffff160362005c07576040517f1f6a65b600000000000000000000000000000000000000000000000000000000815260040160405180910390fd5b62005c563330837f000000000000000000000000000000000000000000000000000000000000000073ffffffffffffffffffffffffffffffffffffffff166200a300909392919063ffffffff16565b6000600c60008467ffffffffffffffff1667ffffffffffffffff16815260200190815260200160002060030160009054906101000a90046bffffffffffffffffffffffff166bffffffffffffffffffffffff16905081600c60008567ffffffffffffffff1667ffffffffffffffff16815260200190815260200160002060030160008282829054906101000a90046bffffffffffffffffffffffff1662005cfe9190620105c2565b92506101000a8154816bffffffffffffffffffffffff02191690836bffffffffffffffffffffffff1602179055508267ffffffffffffffff167fd39ec07f4e209f627a4c427971473820dc129761ba28de8906bd56f57101d4f882848462005d6791906200fb1d565b60405162005d779291906201060b565b60405180910390a2505050565b600254811062005dcb576040517f08c379a000000000000000000000000000000000000000000000000000000000815260040162005dc2906200f73c565b60405180910390fd5b6001600081548092919062005de0906200fa66565b9190505550600060036000838152602001908152602001600020905080600101600081548092919062005e13906200fa66565b919050555060008160070160006101000a81548160ff02191690831515021790555080600501600062005e4791906200d505565b80600601600062005e5991906200d528565b60008160030154600a60405162005e70906200d54e565b62005e7d9291906201060b565b604051809103906000f08015801562005e9a573d6000803e3d6000fd5b509050806010600085815260200190815260200160002060006101000a81548173ffffffffffffffffffffffffffffffffffffffff021916908373ffffffffffffffffffffffffffffffffffffffff1602179055506000826002015467ffffffffffffffff81111562005f125762005f116200dc42565b5b60405190808252806020026020018201604052801562005f415781602001602082028036833780820191505090505b5090506000836002015467ffffffffffffffff81111562005f675762005f666200dc42565b5b60405190808252806020026020018201604052801562005f9c57816020015b606081526020019060019003908162005f865790505b50905060005b84600201548110156200619e5784600401818154811062005fc85762005fc76200fa08565b5b906000526020600020906005020160000160009054906101000a900473ffffffffffffffffffffffffffffffffffffffff1683828151811062006010576200600f6200fa08565b5b602002602001019073ffffffffffffffffffffffffffffffffffffffff16908173ffffffffffffffffffffffffffffffffffffffff1681525050600f60008660040183815481106200606757620060666200fa08565b5b906000526020600020906005020160000160009054906101000a900473ffffffffffffffffffffffffffffffffffffffff1673ffffffffffffffffffffffffffffffffffffffff1673ffffffffffffffffffffffffffffffffffffffff1681526020019081526020016000206001018054620060e3906200fba9565b80601f016020809104026020016040519081016040528092919081815260200182805462006111906200fba9565b8015620061625780601f10620061365761010080835404028352916020019162006162565b820191906000526020600020905b8154815290600101906020018083116200614457829003601f168201915b50505050508282815181106200617d576200617c6200fa08565b5b6020026020010181905250808062006195906200fa66565b91505062005fa2565b508273ffffffffffffffffffffffffffffffffffffffff166337f8d5ff83836040518363ffffffff1660e01b8152600401620061dc92919062010708565b600060405180830381600087803b158015620061f757600080fd5b505af11580156200620c573d6000803e3d6000fd5b505050507fddab7a8af4433487de9ecd992d10f1dbaffb04d57e74e8574b2ec1d0356d188c84600001548560010154866002015487600301548643896040516200625d979695949392919062010743565b60405180910390a15050505050565b600a81565b600254816000015110620062bc576040517f08c379a0000000000000000000000000000000000000000000000000000000008152600401620062b3906200f73c565b60405180910390fd5b600073ffffffffffffffffffffffffffffffffffffffff16601060008360000151815260200190815260200160002060009054906101000a900473ffffffffffffffffffffffffffffffffffffffff1673ffffffffffffffffffffffffffffffffffffffff160362006365576040517f08c379a00000000000000000000000000000000000000000000000000000000081526004016200635c906200f904565b60405180910390fd5b6000601060008360000151815260200190815260200160002060009054906101000a900473ffffffffffffffffffffffffffffffffffffffff1690507fffffffffffffffffffffffffffffffffffffffffffffffffffffffffffffffff8173ffffffffffffffffffffffffffffffffffffffff1663221f95116040518163ffffffff1660e01b8152600401602060405180830381865afa1580156200640e573d6000803e3d6000fd5b505050506040513d601f19601f820116820180604052508101906200643491906200f964565b60000b036200647a576040517f08c379a0000000000000000000000000000000000000000000000000000000008152600401620064719062010817565b60405180910390fd5b6000600360008460000151815260200190815260200160002090508060010154836020015114620064e2576040517f08c379a0000000000000000000000000000000000000000000000000000000008152600401620064d990620108af565b60405180910390fd5b7fffffffffffffffffffffffffffffffffffffffffffffffffffffffffffffffff6200651384600001513362006f8a565b0362006556576040517f08c379a00000000000000000000000000000000000000000000000000000000081526004016200654d906200f7d4565b60405180910390fd5b62006566836000015133620029d5565b15620065a9576040517f08c379a0000000000000000000000000000000000000000000000000000000008152600401620065a09062010947565b60405180910390fd5b6000620065ba846060015162008dbf565b9050620065c78162008e53565b620065fe576040517f1886185700000000000000000000000000000000000000000000000000000000815260040160405180910390fd5b60006200660f856040015162008dbf565b90506200661c8162008e53565b62006653576040517fa2d0fee800000000000000000000000000000000000000000000000000000000815260040160405180910390fd5b6000604051806060016040528087602001518152602001838152602001876080015181525090506200668a8660000151826200a38d565b620067ea5760006040518060400160405280600167ffffffffffffffff811115620066ba57620066b96200dc42565b5b604051908082528060200260200182016040528015620066e95781602001602082028036833780820191505090505b5081526020018381525090503381600001516000815181106200671157620067106200fa08565b5b602002602001019073ffffffffffffffffffffffffffffffffffffffff16908173ffffffffffffffffffffffffffffffffffffffff1681525050846006018190806001815401808255809150506001900390600052602060002090600702016000909190919091506000820151816000019080519060200190620067979291906200d55c565b5060208201518160010160008201518160000155602082015181600101906004620067c49291906200d5eb565b506040820151816005019080519060200190620067e39291906200d55c565b5050505050505b8284600401620067ff88600001513362006f8a565b815481106200681357620068126200fa08565b5b9060005260206000209060050201600101906004620068349291906200d5eb565b508360070160009054906101000a900460ff1662006e615760006200685d876000015162008556565b905060008160000151511462006e5f576000816020015160400151905060006200688c836000015183620082cc565b9050866003015481511062006e5c5760005b825181101562006ad85760005b886004018054905081101562006ac157838281518110620068d157620068d06200fa08565b5b602002602001015173ffffffffffffffffffffffffffffffffffffffff168960040182815481106200690857620069076200fa08565b5b906000526020600020906005020160000160009054906101000a900473ffffffffffffffffffffffffffffffffffffffff1673ffffffffffffffffffffffffffffffffffffffff160362006aab578860040160018a600401805490506200697091906200fab3565b815481106200698457620069836200fa08565b5b9060005260206000209060050201896004018281548110620069ab57620069aa6200fa08565b5b90600052602060002090600502016000820160009054906101000a900473ffffffffffffffffffffffffffffffffffffffff168160000160006101000a81548173ffffffffffffffffffffffffffffffffffffffff021916908373ffffffffffffffffffffffffffffffffffffffff160217905550600182018160010190600462006a389291906200d302565b509050508860040180548062006a535762006a526200faee565b5b6001900381819060005260206000209060050201600080820160006101000a81549073ffffffffffffffffffffffffffffffffffffffff021916905560018201600062006aa191906200d344565b5050905562006ac1565b808062006ab8906200fa66565b915050620068ab565b50808062006acf906200fa66565b9150506200689e565b5060018760070160006101000a81548160ff0219169083151502179055508260200151604001515187600201600082825462006b1591906200fab3565b925050819055508260200151602001518760080190600462006b399291906200d5eb565b506000815167ffffffffffffffff81111562006b5a5762006b596200dc42565b5b60405190808252806020026020018201604052801562006b895781602001602082028036833780820191505090505b50905060005b825181101562006c9d5760005b896004018054905081101562006c865783828151811062006bc25762006bc16200fa08565b5b602002602001015173ffffffffffffffffffffffffffffffffffffffff168a600401828154811062006bf95762006bf86200fa08565b5b906000526020600020906005020160000160009054906101000a900473ffffffffffffffffffffffffffffffffffffffff1673ffffffffffffffffffffffffffffffffffffffff160362006c70578083838151811062006c5e5762006c5d6200fa08565b5b60200260200101818152505062006c86565b808062006c7d906200fa66565b91505062006b9c565b50808062006c94906200fa66565b91505062006b8f565b50600062006cb060065483600362002042565b9050805167ffffffffffffffff81111562006cd05762006ccf6200dc42565b5b60405190808252806020026020018201604052801562006cff5781602001602082028036833780820191505090505b5089600501908051906020019062006d199291906200d55c565b5060005b815181101562006e06578960040182828151811062006d415762006d406200fa08565b5b60200260200101518154811062006d5d5762006d5c6200fa08565b5b906000526020600020906005020160000160009054906101000a900473ffffffffffffffffffffffffffffffffffffffff168a600501828154811062006da85762006da76200fa08565b5b9060005260206000200160006101000a81548173ffffffffffffffffffffffffffffffffffffffff021916908373ffffffffffffffffffffffffffffffffffffffff160217905550808062006dfd906200fa66565b91505062006d1d565b5060005b845181101562006e585762006e4285828151811062006e2e5762006e2d6200fa08565b5b60200260200101516103e860008062002f94565b808062006e4f906200fa66565b91505062006e0a565b5050505b50505b505b505050505050565b6000600160028362006e7c9190620104bd565b62006e8891906200fb1d565b9050919050565b60008060036000858152602001908152602001600020905080600401838154811062006ec05762006ebf6200fa08565b5b906000526020600020906005020160000160009054906101000a900473ffffffffffffffffffffffffffffffffffffffff1691505092915050565b62006f0562008ab7565b600073ffffffffffffffffffffffffffffffffffffffff168173ffffffffffffffffffffffffffffffffffffffff160362006f77576040517f08c379a000000000000000000000000000000000000000000000000000000000815260040162006f6e90620109df565b60405180910390fd5b62006f828162008c9d565b50565b606481565b60008060036000858152602001908152602001600020905060005b816004018054905081101562007054578373ffffffffffffffffffffffffffffffffffffffff1682600401828154811062006fe55762006fe46200fa08565b5b906000526020600020906005020160000160009054906101000a900473ffffffffffffffffffffffffffffffffffffffff1673ffffffffffffffffffffffffffffffffffffffff16036200703e5780925050506200707a565b80806200704b906200fa66565b91505062006fa5565b507fffffffffffffffffffffffffffffffffffffffffffffffffffffffffffffffff9150505b92915050565b60003273ffffffffffffffffffffffffffffffffffffffff163373ffffffffffffffffffffffffffffffffffffffff1603620070f3576040517fc26368fd000000000000000000000000000000000000000000000000000000008152600401620070ea9062010a9d565b60405180910390fd5b600073ffffffffffffffffffffffffffffffffffffffff16600c6000846040015167ffffffffffffffff1667ffffffffffffffff16815260200190815260200160002060000160009054906101000a900473ffffffffffffffffffffffffffffffffffffffff1673ffffffffffffffffffffffffffffffffffffffff1603620071a8576040517f1f6a65b600000000000000000000000000000000000000000000000000000000815260040160405180910390fd5b6000600b60003373ffffffffffffffffffffffffffffffffffffffff1673ffffffffffffffffffffffffffffffffffffffff1681526020019081526020016000206000016000846040015167ffffffffffffffff1667ffffffffffffffff16815260200190815260200160002060009054906101000a900467ffffffffffffffff16905060008167ffffffffffffffff160362007284578260400151336040517ff0019fe60000000000000000000000000000000000000000000000000000000081526004016200727b92919062010abf565b60405180910390fd5b6000620072906200a4ef565b9050806005819055506000600b60003373ffffffffffffffffffffffffffffffffffffffff1673ffffffffffffffffffffffffffffffffffffffff1681526020019081526020016000206000016000866040015167ffffffffffffffff1667ffffffffffffffff16815260200190815260200160002060009054906101000a900467ffffffffffffffff16905060006200733a8660600151338467ffffffffffffffff166200a59e565b90506001600b60003373ffffffffffffffffffffffffffffffffffffffff1673ffffffffffffffffffffffffffffffffffffffff1681526020019081526020016000206000016000886040015167ffffffffffffffff1667ffffffffffffffff16815260200190815260200160002060008282829054906101000a900467ffffffffffffffff16620073cd919062010aec565b92506101000a81548167ffffffffffffffff021916908367ffffffffffffffff160217905550600062007400826200a5d9565b90506000600c6000896040015167ffffffffffffffff1667ffffffffffffffff16815260200190815260200160002060050160009054906101000a900467ffffffffffffffff1690506000620074948960a001516008600001600f9054906101000a900463ffffffff1663ffffffff166200748960018662007483919062010aec565b62005673565b8c60c001516200514b565b9050806bffffffffffffffffffffffff16600c60008b6040015167ffffffffffffffff1667ffffffffffffffff168152602001908152602001600020600301600c9054906101000a90046bffffffffffffffffffffffff16600c60008c6040015167ffffffffffffffff1667ffffffffffffffff16815260200190815260200160002060030160009054906101000a90046bffffffffffffffffffffffff166200753f919062010b31565b6bffffffffffffffffffffffff16101562007586576040517f8894bd5e00000000000000000000000000000000000000000000000000000000815260040160405180910390fd5b80600c60008b6040015167ffffffffffffffff1667ffffffffffffffff168152602001908152602001600020600301600c8282829054906101000a90046bffffffffffffffffffffffff16620075dd9190620105c2565b92506101000a8154816bffffffffffffffffffffffff02191690836bffffffffffffffffffffffff16021790555080600c60008b6040015167ffffffffffffffff1667ffffffffffffffff168152602001908152602001600020600401600085815260200190815260200160002060006101000a8154816bffffffffffffffffffffffff02191690836bffffffffffffffffffffffff160217905550600073ffffffffffffffffffffffffffffffffffffffff16600a600085815260200190815260200160002060000160009054906101000a900473ffffffffffffffffffffffffffffffffffffffff1673ffffffffffffffffffffffffffffffffffffffff1614620076ef57620076ee62010b6c565b5b6000600a60008581526020019081526020016000209050338160000160006101000a81548173ffffffffffffffffffffffffffffffffffffffff021916908373ffffffffffffffffffffffffffffffffffffffff16021790555089600001518160000160146101000a81548160ff021916908360028111156200777757620077766200e1c1565b5b0217905550896020015181600101908162007793919062010b9b565b5089604001518160020160006101000a81548167ffffffffffffffff021916908367ffffffffffffffff16021790555084816003018190555086816004018190555043816005018190555089608001518160060160006101000a81548161ffff021916908361ffff1602179055508960a0015181600701819055508960c001518160080181905550867fa214dda13f90e3098f56c612a31d381b2fac7b48853bf49937773c47174dfe4785338460020160009054906101000a900467ffffffffffffffff1685600301548660060160009054906101000a900461ffff16876007015488600801546040516200788f979695949392919062010c82565b60405180910390a28398505050505050505050919050565b60008060036000858152602001908152602001600020604051806101200160405290816000820154815260200160018201548152602001600282015481526020016003820154815260200160048201805480602002602001604051908101604052809291908181526020016000905b82821015620079e757838290600052602060002090600502016040518060400160405290816000820160009054906101000a900473ffffffffffffffffffffffffffffffffffffffff1673ffffffffffffffffffffffffffffffffffffffff1673ffffffffffffffffffffffffffffffffffffffff16815260200160018201600480602002604051908101604052809291908260048015620079ce576020028201915b815481526020019060010190808311620079b9575b5050505050815250508152602001906001019062007916565b5050505081526020016005820180548060200260200160405190810160405280929190818152602001828054801562007a7657602002820191906000526020600020905b8160009054906101000a900473ffffffffffffffffffffffffffffffffffffffff1673ffffffffffffffffffffffffffffffffffffffff168152602001906001019080831162007a2b575b5050505050815260200160068201805480602002602001604051908101604052809291908181526020016000905b8282101562007c5d57838290600052602060002090600702016040518060400160405290816000820180548060200260200160405190810160405280929190818152602001828054801562007b4f57602002820191906000526020600020905b8160009054906101000a900473ffffffffffffffffffffffffffffffffffffffff1673ffffffffffffffffffffffffffffffffffffffff168152602001906001019080831162007b04575b5050505050815260200160018201604051806060016040529081600082015481526020016001820160048060200260405190810160405280929190826004801562007bb0576020028201915b81548152602001906001019080831162007b9b575b505050505081526020016005820180548060200260200160405190810160405280929190818152602001828054801562007c4057602002820191906000526020600020905b8160009054906101000a900473ffffffffffffffffffffffffffffffffffffffff1673ffffffffffffffffffffffffffffffffffffffff168152602001906001019080831162007bf5575b505050505081525050815250508152602001906001019062007aa4565b5050505081526020016007820160009054906101000a900460ff161515151581526020016008820160048060200260405190810160405280929190826004801562007cbe576020028201915b81548152602001906001019080831162007ca9575b5050505050815250509050600060036000858152602001908152602001600020604051806101200160405290816000820154815260200160018201548152602001600282015481526020016003820154815260200160048201805480602002602001604051908101604052809291908181526020016000905b8282101562007e0857838290600052602060002090600502016040518060400160405290816000820160009054906101000a900473ffffffffffffffffffffffffffffffffffffffff1673ffffffffffffffffffffffffffffffffffffffff1673ffffffffffffffffffffffffffffffffffffffff1681526020016001820160048060200260405190810160405280929190826004801562007def576020028201915b81548152602001906001019080831162007dda575b5050505050815250508152602001906001019062007d37565b5050505081526020016005820180548060200260200160405190810160405280929190818152602001828054801562007e9757602002820191906000526020600020905b8160009054906101000a900473ffffffffffffffffffffffffffffffffffffffff1673ffffffffffffffffffffffffffffffffffffffff168152602001906001019080831162007e4c575b5050505050815260200160068201805480602002602001604051908101604052809291908181526020016000905b828210156200807e57838290600052602060002090600702016040518060400160405290816000820180548060200260200160405190810160405280929190818152602001828054801562007f7057602002820191906000526020600020905b8160009054906101000a900473ffffffffffffffffffffffffffffffffffffffff1673ffffffffffffffffffffffffffffffffffffffff168152602001906001019080831162007f25575b5050505050815260200160018201604051806060016040529081600082015481526020016001820160048060200260405190810160405280929190826004801562007fd1576020028201915b81548152602001906001019080831162007fbc575b50505050508152602001600582018054806020026020016040519081016040528092919081815260200182805480156200806157602002820191906000526020600020905b8160009054906101000a900473ffffffffffffffffffffffffffffffffffffffff1673ffffffffffffffffffffffffffffffffffffffff168152602001906001019080831162008016575b505050505081525050815250508152602001906001019062007ec5565b5050505081526020016007820160009054906101000a900460ff1615151515815260200160088201600480602002604051908101604052809291908260048015620080df576020028201915b815481526020019060010190808311620080ca575b5050505050815250509050816040015181604001511115620081105780828092508193505050838580955081965050505b60006002826040015184604001516200812a91906200fb1d565b620081369190620104bd565b83604001516200814791906200fab3565b905060008114806200816a575060038184604001516200816891906200fab3565b105b156200817d5760009350505050620082c6565b600083608001515167ffffffffffffffff811115620081a157620081a06200dc42565b5b604051908082528060200260200182016040528015620081d05781602001602082028036833780820191505090505b50905060005b8460800151518110156200821d5780828281518110620081fb57620081fa6200fa08565b5b602002602001018181525050808062008214906200fa66565b915050620081d6565b5060006200822f600654838562002042565b905060005b8151811015620082a55760008282815181106200825657620082556200fa08565b5b6020026020010151905060006200826e8b8362006e8f565b90506200827e818c600062001d6a565b506200828d818b600062008b3c565b505080806200829c906200fa66565b91505062008234565b50620082b18862005d84565b620082bc8762005d84565b6001955050505050505b92915050565b60606000835167ffffffffffffffff811115620082ee57620082ed6200dc42565b5b6040519080825280602002602001820160405280156200831d5781602001602082028036833780820191505090505b5090506000805b855181101562008467576000805b8651811015620083ca578681815181106200835257620083516200fa08565b5b602002602001015173ffffffffffffffffffffffffffffffffffffffff168884815181106200838657620083856200fa08565b5b602002602001015173ffffffffffffffffffffffffffffffffffffffff1603620083b45760019150620083ca565b8080620083c1906200fa66565b91505062008332565b50806200845057868281518110620083e757620083e66200fa08565b5b60200260200101518484815181106200840557620084046200fa08565b5b602002602001019073ffffffffffffffffffffffffffffffffffffffff16908173ffffffffffffffffffffffffffffffffffffffff168152505082806200844c906200fa66565b9350505b5080806200845e906200fa66565b91505062008324565b5060008167ffffffffffffffff8111156200848757620084866200dc42565b5b604051908082528060200260200182016040528015620084b65781602001602082028036833780820191505090505b50905060005b828110156200854957838181518110620084db57620084da6200fa08565b5b6020026020010151828281518110620084f957620084f86200fa08565b5b602002602001019073ffffffffffffffffffffffffffffffffffffffff16908173ffffffffffffffffffffffffffffffffffffffff1681525050808062008540906200fa66565b915050620084bc565b5080935050505092915050565b620085606200d630565b6200856a6200d630565b600060036000858152602001908152602001600020604051806101200160405290816000820154815260200160018201548152602001600282015481526020016003820154815260200160048201805480602002602001604051908101604052809291908181526020016000905b82821015620086a957838290600052602060002090600502016040518060400160405290816000820160009054906101000a900473ffffffffffffffffffffffffffffffffffffffff1673ffffffffffffffffffffffffffffffffffffffff1673ffffffffffffffffffffffffffffffffffffffff1681526020016001820160048060200260405190810160405280929190826004801562008690576020028201915b8154815260200190600101908083116200867b575b50505050508152505081526020019060010190620085d8565b505050508152602001600582018054806020026020016040519081016040528092919081815260200182805480156200873857602002820191906000526020600020905b8160009054906101000a900473ffffffffffffffffffffffffffffffffffffffff1673ffffffffffffffffffffffffffffffffffffffff1681526020019060010190808311620086ed575b5050505050815260200160068201805480602002602001604051908101604052809291908181526020016000905b828210156200891f5783829060005260206000209060070201604051806040016040529081600082018054806020026020016040519081016040528092919081815260200182805480156200881157602002820191906000526020600020905b8160009054906101000a900473ffffffffffffffffffffffffffffffffffffffff1673ffffffffffffffffffffffffffffffffffffffff1681526020019060010190808311620087c6575b5050505050815260200160018201604051806060016040529081600082015481526020016001820160048060200260405190810160405280929190826004801562008872576020028201915b8154815260200190600101908083116200885d575b50505050508152602001600582018054806020026020016040519081016040528092919081815260200182805480156200890257602002820191906000526020600020905b8160009054906101000a900473ffffffffffffffffffffffffffffffffffffffff1673ffffffffffffffffffffffffffffffffffffffff1681526020019060010190808311620088b7575b505050505081525050815250508152602001906001019062008766565b5050505081526020016007820160009054906101000a900460ff161515151581526020016008820160048060200260405190810160405280929190826004801562008980576020028201915b8154815260200190600101908083116200896b575b505050505081525050905060008160c001515103620089a457819250505062008ab2565b60018160c001515103620089df578060c00151600081518110620089cd57620089cc6200fa08565b5b60200260200101519250505062008ab2565b60006001905060008260c0015160008151811062008a025762008a016200fa08565b5b602002602001015190506000600190505b8360c001515181101562008a965760008460c00151828151811062008a3d5762008a3c6200fa08565b5b60200260200101519050826000015151816000015151111562008a67576001935080925062008a7f565b8260000151518160000151510362008a7e57600093505b5b50808062008a8d906200fa66565b91505062008a13565b508162008aaa578394505050505062008ab2565b809450505050505b919050565b62008ac16200a60b565b73ffffffffffffffffffffffffffffffffffffffff1662008ae162004877565b73ffffffffffffffffffffffffffffffffffffffff161462008b3a576040517f08c379a000000000000000000000000000000000000000000000000000000000815260040162008b319062010d4f565b60405180910390fd5b565b600060036000848152602001908152602001600020905062008b5d6200d360565b84816000019073ffffffffffffffffffffffffffffffffffffffff16908173ffffffffffffffffffffffffffffffffffffffff16815250508160040181908060018154018082558091505060019003906000526020600020906005020160009091909190915060008201518160000160006101000a81548173ffffffffffffffffffffffffffffffffffffffff021916908373ffffffffffffffffffffffffffffffffffffffff16021790555060208201518160010190600462008c239291906200d5eb565b50505081600201600081548092919062008c3d906200fa66565b9190505550600062008c53836002015462006e69565b90506003811162008c6657600362008c68565b805b8360030181905550600383600201541015801562008c835750835b1562008c955762008c948562005d84565b5b505050505050565b60008060009054906101000a900473ffffffffffffffffffffffffffffffffffffffff169050816000806101000a81548173ffffffffffffffffffffffffffffffffffffffff021916908373ffffffffffffffffffffffffffffffffffffffff1602179055508173ffffffffffffffffffffffffffffffffffffffff168173ffffffffffffffffffffffffffffffffffffffff167f8be0079c531659141344cd1fd0a4f28419497f9722a3daafe3b4186f6b6457e060405160405180910390a35050565b60008060025490506002600081548092919062008d7e906200fa66565b919050555060006003600083815260200190815260200160002090508181600001819055506000816002018190555060038160030181905550819250505090565b62008dc96200d3ba565b608082511462008e05576040517f85a1b37e00000000000000000000000000000000000000000000000000000000815260040160405180910390fd5b60008060008060208601519350604086015192506060860151915060808601519050604051806080016040528085815260200184815260200183815260200182815250945050505050919050565b60007f30644e72e131a029b85045b68181585d97816a916871ca8d3c208c16d87cfd478260006004811062008e8d5762008e8c6200fa08565b5b602002015110158062008edb57507f30644e72e131a029b85045b68181585d97816a916871ca8d3c208c16d87cfd478260016004811062008ed35762008ed26200fa08565b5b602002015110155b8062008f6957507f30644e72e131a029b85045b68181585d97816a916871ca8d3c208c16d87cfd478260026004811062008f1a5762008f196200fa08565b5b602002015110158062008f6857507f30644e72e131a029b85045b68181585d97816a916871ca8d3c208c16d87cfd478260036004811062008f605762008f5f6200fa08565b5b602002015110155b5b1562008f79576000905062008f87565b62008f84826200a613565b90505b919050565b60008062008f996200303c565b9150915062008fab8383600162008b3c565b8015620090ca576000600160025462008fc591906200fab3565b67ffffffffffffffff81111562008fe15762008fe06200dc42565b5b604051908082528060200260200182016040528015620090105781602001602082028036833780820191505090505b5090506000805b60025481101562009074578085146200905e57808383815181106200904157620090406200fa08565b5b60200260200101818152505081806200905a906200fa66565b9250505b80806200906b906200fa66565b91505062009017565b5060005b8251811015620090c657620090ab8382815181106200909c576200909b6200fa08565b5b602002602001015186620078a7565b620090c6578080620090bd906200fa66565b91505062009078565b5050505b505050565b6000807f3fffffffffffffffffffffffffffffffffffffffffffffffffffffffffffffff831690507f30644e72e131a029b85045b68181585d97816a916871ca8d3c208c16d87cfd4781106200912a5760009150506200914d565b600081036200913e5760009150506200914d565b62009149816200a867565b9150505b919050565b600080600090505b8351811015620091d6578273ffffffffffffffffffffffffffffffffffffffff168482815181106200919157620091906200fa08565b5b602002602001015173ffffffffffffffffffffffffffffffffffffffff1603620091c0576001915050620091dc565b8080620091cd906200fa66565b9150506200915a565b50600090505b92915050565b620091ec6200d398565b600080838051906020012090505b6001156200924c576200920d816200a962565b8093508194505050816200924c57806040516020016200922e919062010d96565b604051602081830303815290604052805190602001209050620091fa565b5050919050565b6200925d6200d398565b60007f3fffffffffffffffffffffffffffffffffffffffffffffffffffffffffffffff83169050600060fe84901c9050600180821603620092ca576040517f53f4c77c00000000000000000000000000000000000000000000000000000000815260040160405180910390fd5b6000620092d7836200aa73565b5080915050600160027f30644e72e131a029b85045b68181585d97816a916871ca8d3c208c16d87cfd476200930d9190620104bd565b82116200931c5760006200931f565b60015b60ff16600184901c18036200935f57807f30644e72e131a029b85045b68181585d97816a916871ca8d3c208c16d87cfd476200935c91906200fab3565b90505b6040518060400160405280848152602001828152509350505050919050565b60008060405180610180016040528086600060028110620093a457620093a36200fa08565b5b6020020151815260200186600160028110620093c557620093c46200fa08565b5b602002015181526020017f198e9393920d483a7260bfb731fb5d25f1aa493335a9e71297e485b7aef312c281526020017f1800deef121f1e76426a00665e5c4479674322d4f75edadd46debd5cd992f6ed81526020017f275dc4a288d1afb3cbb1ac09187524c7db36395df7be3b99e673b13a075a65ec81526020017f1d9befcd05a5323e6da4d435f3b617cdb3af83285c2df711ef39c01571827f9d8152602001846000600281106200947e576200947d6200fa08565b5b60200201518152602001846001600281106200949f576200949e6200fa08565b5b6020020151815260200185600160048110620094c057620094bf6200fa08565b5b6020020151815260200185600060048110620094e157620094e06200fa08565b5b60200201518152602001856003600481106200950257620095016200fa08565b5b60200201518152602001856002600481106200952357620095226200fa08565b5b60200201518152509050620095376200d652565b60006020826101808560086107d05a03fa905080600081036200955657fe5b50806200959a576040517f08c379a0000000000000000000000000000000000000000000000000000000008152600401620095919062010ddd565b60405180910390fd5b600082600060018110620095b357620095b26200fa08565b5b6020020151141593505050509392505050565b6000620095d26200d398565b620095dc6200d3ba565b60005b8651811015620096555762009612838883815181106200960457620096036200fa08565b5b60200260200101516200ab33565b92506200963d828783815181106200962f576200962e6200fa08565b5b60200260200101516200ac5c565b915080806200964c906200fa66565b915050620095df565b506000604051806101800160405280846000600281106200967b576200967a6200fa08565b5b60200201518152602001846001600281106200969c576200969b6200fa08565b5b602002015181526020017f198e9393920d483a7260bfb731fb5d25f1aa493335a9e71297e485b7aef312c281526020017f1800deef121f1e76426a00665e5c4479674322d4f75edadd46debd5cd992f6ed81526020017f275dc4a288d1afb3cbb1ac09187524c7db36395df7be3b99e673b13a075a65ec81526020017f1d9befcd05a5323e6da4d435f3b617cdb3af83285c2df711ef39c01571827f9d8152602001866000600281106200975557620097546200fa08565b5b60200201518152602001866001600281106200977657620097756200fa08565b5b60200201518152602001836001600481106200979757620097966200fa08565b5b6020020151815260200183600060048110620097b857620097b76200fa08565b5b6020020151815260200183600360048110620097d957620097d86200fa08565b5b6020020151815260200183600260048110620097fa57620097f96200fa08565b5b602002015181525090506200980e6200d652565b60006020826101808560086107d05a03fa905080600081036200982d57fe5b508062009871576040517f08c379a0000000000000000000000000000000000000000000000000000000008152600401620098689062010ddd565b60405180910390fd5b6000826000600181106200988a57620098896200fa08565b5b60200201511415955050505050509392505050565b6000806000606060006002811115620098bd57620098bc6200e1c1565b5b85602001516002811115620098d757620098d66200e1c1565b5b036200995f576394985ddd60e01b8989604051602401620098fa92919062010dff565b604051602081830303815290604052907bffffffffffffffffffffffffffffffffffffffffffffffffffffffff19166020820180517bffffffffffffffffffffffffffffffffffffffffffffffffffffffff8381831617835250505050905062009bf3565b600160028111156200997657620099756200e1c1565b5b8560200151600281111562009990576200998f6200e1c1565b5b0362009b085760008560400151806020019051810190620099b2919062010e43565b905060008163ffffffff1667ffffffffffffffff811115620099d957620099d86200dc42565b5b60405190808252806020026020018201604052801562009a085781602001602082028036833780820191505090505b50905060005b8263ffffffff1681101562009a83578a8160405160200162009a329291906201060b565b6040516020818303038152906040528051906020012060001c82828151811062009a615762009a606200fa08565b5b602002602001018181525050808062009a7a906200fa66565b91505062009a0e565b506375bf929b60e01b8b8260405160240162009aa192919062010e75565b604051602081830303815290604052907bffffffffffffffffffffffffffffffffffffffffffffffffffffffff19166020820180517bffffffffffffffffffffffffffffffffffffffffffffffffffffffff83818316178352505050509250505062009bf2565b60028081111562009b1e5762009b1d6200e1c1565b5b8560200151600281111562009b385762009b376200e1c1565b5b0362009bf1576000856040015180602001905181019062009b5a919062010e43565b9050600062009b708263ffffffff168b6200ad8b565b9050639e5836f660e01b8b8260405160240162009b8f92919062010e75565b604051602081830303815290604052907bffffffffffffffffffffffffffffffffffffffffffffffffffffffff19166020820180517bffffffffffffffffffffffffffffffffffffffffffffffffffffffff8381831617835250505050925050505b5b5b600a60008a8152602001908152602001600020600080820160006101000a81549073ffffffffffffffffffffffffffffffffffffffff02191690556000820160146101000a81549060ff021916905560018201600062009c5491906200d674565b6002820160006101000a81549067ffffffffffffffff02191690556003820160009055600482016000905560058201600090556006820160006101000a81549061ffff02191690556007820160009055600882016000905550506001600860000160066101000a81548160ff02191690831515021790555062009ce28561010001518660000151836200af1a565b92506000600860000160066101000a81548160ff0219169083151502179055506000600c6000876060015167ffffffffffffffff1667ffffffffffffffff16815260200190815260200160002060050160009054906101000a900467ffffffffffffffff1690506001600c6000886060015167ffffffffffffffff1667ffffffffffffffff16815260200190815260200160002060050160008282829054906101000a900467ffffffffffffffff1662009d9d919062010aec565b92506101000a81548167ffffffffffffffff021916908367ffffffffffffffff16021790555062009df6876008600001600b9054906101000a900463ffffffff1663ffffffff1662009def8462005673565b3a62004a69565b9450846bffffffffffffffffffffffff16600c6000886060015167ffffffffffffffff1667ffffffffffffffff16815260200190815260200160002060030160009054906101000a90046bffffffffffffffffffffffff166bffffffffffffffffffffffff16101562009e95576040517f964d765f00000000000000000000000000000000000000000000000000000000815260040160405180910390fd5b600c6000876060015167ffffffffffffffff1667ffffffffffffffff16815260200190815260200160002060040160008b815260200190815260200160002060009054906101000a90046bffffffffffffffffffffffff16600c6000886060015167ffffffffffffffff1667ffffffffffffffff168152602001908152602001600020600301600c8282829054906101000a90046bffffffffffffffffffffffff1662009f43919062010b31565b92506101000a8154816bffffffffffffffffffffffff02191690836bffffffffffffffffffffffff160217905550600c6000876060015167ffffffffffffffff1667ffffffffffffffff16815260200190815260200160002060040160008b815260200190815260200160002060006101000a8154906bffffffffffffffffffffffff021916905584600c6000886060015167ffffffffffffffff1667ffffffffffffffff16815260200190815260200160002060030160008282829054906101000a90046bffffffffffffffffffffffff166200a022919062010b31565b92506101000a8154816bffffffffffffffffffffffff02191690836bffffffffffffffffffffffff16021790555084600e60008a815260200190815260200160002060008282829054906101000a90046bffffffffffffffffffffffff166200a08c9190620105c2565b92506101000a8154816bffffffffffffffffffffffff02191690836bffffffffffffffffffffffff1602179055507fd88a4a5eabb4a3393105ffff9b66be266f127818a80fae1b049c0acfdbf95e6f8a8a87876040516200a0f1949392919062010ee2565b60405180910390a15050509550959350505050565b6064600460003373ffffffffffffffffffffffffffffffffffffffff1673ffffffffffffffffffffffffffffffffffffffff16815260200190815260200160002060008282546200a15891906200fb1d565b9250508190555060005b81518110156200a1f8576032600460008484815181106200a188576200a1876200fa08565b5b602002602001015173ffffffffffffffffffffffffffffffffffffffff1673ffffffffffffffffffffffffffffffffffffffff16815260200190815260200160002060008282546200a1db91906200fb1d565b9250508190555080806200a1ef906200fa66565b9150506200a162565b5050565b600080600860000160079054906101000a900463ffffffff1690506000808263ffffffff161190506000807f000000000000000000000000000000000000000000000000000000000000000073ffffffffffffffffffffffffffffffffffffffff1663feaf968c6040518163ffffffff1660e01b815260040160a060405180830381865afa1580156200a293573d6000803e3d6000fd5b505050506040513d601f19601f820116820180604052508101906200a2b9919062010fa4565b90919293509091505080935081925050508280156200a2ea575081426200a2e191906200fab3565b8463ffffffff16105b156200a2f65760075490505b8094505050505090565b6200a387846323b872dd60e01b8585856040516024016200a324939291906201102c565b604051602081830303815290604052907bffffffffffffffffffffffffffffffffffffffffffffffffffffffff19166020820180517bffffffffffffffffffffffffffffffffffffffffffffffffffffffff83818316178352505050506200af6a565b50505050565b60008060036000858152602001908152602001600020905060005b81600601805490508110156200a4e657836040516020016200a3cb9190620110bf565b604051602081830303815290604052805190602001208260060182815481106200a3fa576200a3f96200fa08565b5b90600052602060002090600702016001016040516020016200a41d919062011304565b60405160208183030381529060405280519060200120036200a4d0578160060181815481106200a452576200a4516200fa08565b5b9060005260206000209060070201600001339080600181540180825580915050600190039060005260206000200160009091909190916101000a81548173ffffffffffffffffffffffffffffffffffffffff021916908373ffffffffffffffffffffffffffffffffffffffff1602179055506001925050506200a4e9565b80806200a4dd906200fa66565b9150506200a3a8565b50505b92915050565b6000806200a4fc620017d1565b905060008151036200a53a576040517f6905ab6700000000000000000000000000000000000000000000000000000000815260040160405180910390fd5b600060025460016005546200a55091906200fb1d565b6200a55c91906200fc90565b90505b6200a56b82826200b039565b6200a596576002546001826200a58291906200fb1d565b6200a58e91906200fc90565b90506200a55f565b809250505090565b60008383836040516020016200a5b79392919062011328565b6040516020818303038152906040528051906020012060001c90509392505050565b6000816040516020016200a5ee919062011365565b604051602081830303815290604052805190602001209050919050565b600033905090565b6000815160208301517f30644e72e131a029b85045b68181585d97816a916871ca8d3c208c16d87cfd478283097f30644e72e131a029b85045b68181585d97816a916871ca8d3c208c16d87cfd4782830981828301017f30644e72e131a029b85045b68181585d97816a916871ca8d3c208c16d87cfd4782838401087f30644e72e131a029b85045b68181585d97816a916871ca8d3c208c16d87cfd4786827f30644e72e131a029b85045b68181585d97816a916871ca8d3c208c16d87cfd470386010993507f30644e72e131a029b85045b68181585d97816a916871ca8d3c208c16d87cfd4785847f30644e72e131a029b85045b68181585d97816a916871ca8d3c208c16d87cfd470384010992507f30644e72e131a029b85045b68181585d97816a916871ca8d3c208c16d87cfd477f2b149d40ceb8aaae81be18991be06ac3b5b4c5e559dbefa33267e6dc24a138e5850895507f30644e72e131a029b85045b68181585d97816a916871ca8d3c208c16d87cfd477e9713b03af0fed4cd2cafadeed8fdf4a74fa084e52d1852e4a2bd0685c315d28408945060408801519350606088015192507f30644e72e131a029b85045b68181585d97816a916871ca8d3c208c16d87cfd4780847f30644e72e131a029b85045b68181585d97816a916871ca8d3c208c16d87cfd470386087f30644e72e131a029b85045b68181585d97816a916871ca8d3c208c16d87cfd478587080991507f30644e72e131a029b85045b68181585d97816a916871ca8d3c208c16d87cfd47838560011b099250828514828714169650505050505050919050565b600080827f30644e72e131a029b85045b68181585d97816a916871ca8d3c208c16d87cfd478182097f30644e72e131a029b85045b68181585d97816a916871ca8d3c208c16d87cfd4782820990507f30644e72e131a029b85045b68181585d97816a916871ca8d3c208c16d87cfd4760038208905060405160208152602080820152602060408201528160608201527f183227397098d014dc2822db40c0ac2ecbc0b548b438e5469e10460b6c3e7ea360808201527f30644e72e131a029b85045b68181585d97816a916871ca8d3c208c16d87cfd4760a082015260208160c08360056107d05a03fa93508051600114945050505050919050565b6200a96c6200d398565b60008060007f30644e72e131a029b85045b68181585d97816a916871ca8d3c208c16d87cfd478560001c6200a9a291906200fc90565b90506200a9af816200aa73565b809450819350505082156200aa6c5780846000600281106200a9d6576200a9d56200fa08565b5b60200201818152505060027f30644e72e131a029b85045b68181585d97816a916871ca8d3c208c16d87cfd476200aa0e9190620104bd565b82116200aa1c57816200aa4b565b817f30644e72e131a029b85045b68181585d97816a916871ca8d3c208c16d87cfd476200aa4a91906200fab3565b5b846001600281106200aa62576200aa616200fa08565b5b6020020181815250505b5050915091565b60008060007f30644e72e131a029b85045b68181585d97816a916871ca8d3c208c16d87cfd47806200aaaa576200aaa96200fc61565b5b84850990507f30644e72e131a029b85045b68181585d97816a916871ca8d3c208c16d87cfd47806200aae1576200aae06200fc61565b5b84820990507f30644e72e131a029b85045b68181585d97816a916871ca8d3c208c16d87cfd47806200ab18576200ab176200fc61565b5b6003820890506200ab29816200b09d565b9250925050915091565b6200ab3d6200d398565b6200ab476200d3ba565b836000600281106200ab5e576200ab5d6200fa08565b5b6020020151816000600481106200ab7a576200ab796200fa08565b5b602002018181525050836001600281106200ab9a576200ab996200fa08565b5b6020020151816001600481106200abb6576200abb56200fa08565b5b602002018181525050826000600281106200abd6576200abd56200fa08565b5b6020020151816002600481106200abf2576200abf16200fa08565b5b602002018181525050826001600281106200ac12576200ac116200fa08565b5b6020020151816003600481106200ac2e576200ac2d6200fa08565b5b602002018181525050600060608360c08460066107d05a03fa9050806200ac5457600080fd5b505092915050565b6200ac666200d3ba565b6000806000806200ad56876000600481106200ac87576200ac866200fa08565b5b6020020151886001600481106200aca3576200aca26200fa08565b5b6020020151896002600481106200acbf576200acbe6200fa08565b5b60200201518a6003600481106200acdb576200acda6200fa08565b5b60200201518a6000600481106200acf7576200acf66200fa08565b5b60200201518b6001600481106200ad13576200ad126200fa08565b5b60200201518c6002600481106200ad2f576200ad2e6200fa08565b5b60200201518d6003600481106200ad4b576200ad4a6200fa08565b5b60200201516200b18e565b935093509350935060405180608001604052808581526020018481526020018381526020018281525094505050505092915050565b606060008367ffffffffffffffff8111156200adac576200adab6200dc42565b5b6040519080825280602002602001820160405280156200addb5781602001602082028036833780820191505090505b50905060005b848110156200ae2357808282815181106200ae01576200ae006200fa08565b5b60200260200101818152505080806200ae1a906200fa66565b9150506200ade1565b506000815190506000805b6000836200ae3c906200fbde565b93508311156200af0d5782866200ae5491906200fc90565b9150856040516020016200ae6991906200d7ef565b6040516020818303038152906040528051906020012060001c95508383815181106200ae9a576200ae996200fa08565b5b602002602001015190508382815181106200aeba576200aeb96200fa08565b5b60200260200101518484815181106200aed8576200aed76200fa08565b5b602002602001018181525050808483815181106200aefb576200aefa6200fa08565b5b6020026020010181815250506200ae2e565b8394505050505092915050565b60005a6113888110156200af2d57600080fd5b6113888103905084604082048203116200af4657600080fd5b833b6200af5257600080fd5b6000808451602086016000888af19150509392505050565b60006200afce826040518060400160405280602081526020017f5361666545524332303a206c6f772d6c6576656c2063616c6c206661696c65648152508573ffffffffffffffffffffffffffffffffffffffff166200b4069092919063ffffffff16565b90506000815111156200b03457808060200190518101906200aff1919062011399565b6200b033576040517f08c379a00000000000000000000000000000000000000000000000000000000081526004016200b02a9062011441565b60405180910390fd5b5b505050565b600080600090505b83518110156200b09157828482815181106200b062576200b0616200fa08565b5b6020026020010151036200b07b5760019150506200b097565b80806200b088906200fa66565b9150506200b041565b50600090505b92915050565b600080600060405160208152602080820152602060408201528460608201527f0c19139cb84c680a6e14116da060561765e05aa45a1c72a34f082305b61f3f5260808201527f30644e72e131a029b85045b68181585d97816a916871ca8d3c208c16d87cfd4760a082015260208160c08360056107d05a03fa9150805193507f30644e72e131a029b85045b68181585d97816a916871ca8d3c208c16d87cfd478485098514925050806200b188576040517f08c379a00000000000000000000000000000000000000000000000000000000081526004016200b17f90620114b3565b60405180910390fd5b50915091565b60008060008060008c1480156200b1a5575060008b145b80156200b1b2575060008a145b80156200b1bf5750600089145b156200b226576000881480156200b1d65750600087145b80156200b1e35750600086145b80156200b1f05750600085145b6200b214576200b203888888886200b420565b6200b213576200b21262010b6c565b5b5b8787878793509350935093506200b3f7565b6000881480156200b2375750600087145b80156200b2445750600086145b80156200b2515750600085145b156200b287576200b2658c8c8c8c6200b420565b6200b275576200b27462010b6c565b5b8b8b8b8b93509350935093506200b3f7565b6200b2958c8c8c8c6200b420565b6200b2a5576200b2a462010b6c565b5b6200b2b3888888886200b420565b6200b2c3576200b2c262010b6c565b5b60006040518060c001604052808e81526020018d81526020018c81526020018b8152602001600181526020016000815250905060006040518060c001604052808b81526020018a8152602001898152602001888152602001600181526020016000815250905060006200b33783836200b4f4565b90506200b3eb816000600681106200b354576200b3536200fa08565b5b6020020151826001600681106200b370576200b36f6200fa08565b5b6020020151836002600681106200b38c576200b38b6200fa08565b5b6020020151846003600681106200b3a8576200b3a76200fa08565b5b6020020151856004600681106200b3c4576200b3c36200fa08565b5b6020020151866005600681106200b3e0576200b3df6200fa08565b5b60200201516200cad2565b96509650965096505050505b98509850985098945050505050565b60606200b41784846000856200cb2a565b90509392505050565b60008060008060006200b436878789896200cc00565b80945081955050506200b44c89898b8b6200cc00565b80925081935050506200b46282828b8b6200cc00565b80925081935050506200b478848484846200cd42565b80945081955050506200b4cd84847f2b149d40ceb8aaae81be18991be06ac3b5b4c5e559dbefa33267e6dc24a138e57e9713b03af0fed4cd2cafadeed8fdf4a74fa084e52d1852e4a2bd0685c315d26200cd42565b80945081955050506000841480156200b4e65750600083145b945050505050949350505050565b6200b4fe6200d6ba565b6000836004600681106200b517576200b5166200fa08565b5b60200201511480156200b54557506000836005600681106200b53e576200b53d6200fa08565b5b6020020151145b156200b6b957816000600681106200b562576200b5616200fa08565b5b6020020151826001600681106200b57e576200b57d6200fa08565b5b6020020151836002600681106200b59a576200b5996200fa08565b5b6020020151846003600681106200b5b6576200b5b56200fa08565b5b6020020151856004600681106200b5d2576200b5d16200fa08565b5b6020020151866005600681106200b5ee576200b5ed6200fa08565b5b6020020151866000600681106200b60a576200b6096200fa08565b5b60200201876001600681106200b625576200b6246200fa08565b5b60200201886002600681106200b640576200b63f6200fa08565b5b60200201896003600681106200b65b576200b65a6200fa08565b5b602002018a6004600681106200b676576200b6756200fa08565b5b602002018b6005600681106200b691576200b6906200fa08565b5b602002018681525086815250868152508681525086815250868152505050505050506200cacc565b6000826004600681106200b6d2576200b6d16200fa08565b5b60200201511480156200b70057506000826005600681106200b6f9576200b6f86200fa08565b5b6020020151145b156200b87457826000600681106200b71d576200b71c6200fa08565b5b6020020151836001600681106200b739576200b7386200fa08565b5b6020020151846002600681106200b755576200b7546200fa08565b5b6020020151856003600681106200b771576200b7706200fa08565b5b6020020151866004600681106200b78d576200b78c6200fa08565b5b6020020151876005600681106200b7a9576200b7a86200fa08565b5b6020020151866000600681106200b7c5576200b7c46200fa08565b5b60200201876001600681106200b7e0576200b7df6200fa08565b5b60200201886002600681106200b7fb576200b7fa6200fa08565b5b60200201896003600681106200b816576200b8156200fa08565b5b602002018a6004600681106200b831576200b8306200fa08565b5b602002018b6005600681106200b84c576200b84b6200fa08565b5b602002018681525086815250868152508681525086815250868152505050505050506200cacc565b6200b8ee826002600681106200b88f576200b88e6200fa08565b5b6020020151836003600681106200b8ab576200b8aa6200fa08565b5b6020020151856004600681106200b8c7576200b8c66200fa08565b5b6020020151866005600681106200b8e3576200b8e26200fa08565b5b60200201516200cc00565b836002600681106200b905576200b9046200fa08565b5b60200201846003600681106200b920576200b91f6200fa08565b5b60200201828152508281525050506200b9a8836002600681106200b949576200b9486200fa08565b5b6020020151846003600681106200b965576200b9646200fa08565b5b6020020151846004600681106200b981576200b9806200fa08565b5b6020020151856005600681106200b99d576200b99c6200fa08565b5b60200201516200cc00565b826002600681106200b9bf576200b9be6200fa08565b5b60200201836003600681106200b9da576200b9d96200fa08565b5b60200201828152508281525050506200ba62826000600681106200ba03576200ba026200fa08565b5b6020020151836001600681106200ba1f576200ba1e6200fa08565b5b6020020151856004600681106200ba3b576200ba3a6200fa08565b5b6020020151866005600681106200ba57576200ba566200fa08565b5b60200201516200cc00565b836000600681106200ba79576200ba786200fa08565b5b60200201846001600681106200ba94576200ba936200fa08565b5b60200201828152508281525050506200bb1c836000600681106200babd576200babc6200fa08565b5b6020020151846001600681106200bad9576200bad86200fa08565b5b6020020151846004600681106200baf5576200baf46200fa08565b5b6020020151856005600681106200bb11576200bb106200fa08565b5b60200201516200cc00565b826004600681106200bb33576200bb326200fa08565b5b60200201836005600681106200bb4e576200bb4d6200fa08565b5b6020020182815250828152505050806004600681106200bb73576200bb726200fa08565b5b6020020151826000600681106200bb8f576200bb8e6200fa08565b5b60200201511480156200bbd75750806005600681106200bbb4576200bbb36200fa08565b5b6020020151826001600681106200bbd0576200bbcf6200fa08565b5b6020020151145b156200bea757806002600681106200bbf4576200bbf36200fa08565b5b6020020151826002600681106200bc10576200bc0f6200fa08565b5b60200201511480156200bc585750806003600681106200bc35576200bc346200fa08565b5b6020020151826003600681106200bc51576200bc506200fa08565b5b6020020151145b156200bdd6576200bd10836000600681106200bc79576200bc786200fa08565b5b6020020151846001600681106200bc95576200bc946200fa08565b5b6020020151856002600681106200bcb1576200bcb06200fa08565b5b6020020151866003600681106200bccd576200bccc6200fa08565b5b6020020151876004600681106200bce9576200bce86200fa08565b5b6020020151886005600681106200bd05576200bd046200fa08565b5b60200201516200cdac565b866000600681106200bd27576200bd266200fa08565b5b60200201876001600681106200bd42576200bd416200fa08565b5b60200201886002600681106200bd5d576200bd5c6200fa08565b5b60200201896003600681106200bd78576200bd776200fa08565b5b602002018a6004600681106200bd93576200bd926200fa08565b5b602002018b6005600681106200bdae576200bdad6200fa08565b5b602002018681525086815250868152508681525086815250868152505050505050506200cacc565b6001600060016000806000866000600681106200bdf8576200bdf76200fa08565b5b60200201876001600681106200be13576200be126200fa08565b5b60200201886002600681106200be2e576200be2d6200fa08565b5b60200201896003600681106200be49576200be486200fa08565b5b602002018a6004600681106200be64576200be636200fa08565b5b602002018b6005600681106200be7f576200be7e6200fa08565b5b602002018681525086815250868152508681525086815250868152505050505050506200cacc565b6200bf21836004600681106200bec2576200bec16200fa08565b5b6020020151846005600681106200bede576200bedd6200fa08565b5b6020020151846004600681106200befa576200bef96200fa08565b5b6020020151856005600681106200bf16576200bf156200fa08565b5b60200201516200cc00565b836004600681106200bf38576200bf376200fa08565b5b60200201846005600681106200bf53576200bf526200fa08565b5b60200201828152508281525050506200bfdb826002600681106200bf7c576200bf7b6200fa08565b5b6020020151836003600681106200bf98576200bf976200fa08565b5b6020020151836002600681106200bfb4576200bfb36200fa08565b5b6020020151846003600681106200bfd0576200bfcf6200fa08565b5b60200201516200cd42565b846000600681106200bff2576200bff16200fa08565b5b60200201856001600681106200c00d576200c00c6200fa08565b5b60200201828152508281525050506200c095826000600681106200c036576200c0356200fa08565b5b6020020151836001600681106200c052576200c0516200fa08565b5b6020020151836004600681106200c06e576200c06d6200fa08565b5b6020020151846005600681106200c08a576200c0896200fa08565b5b60200201516200cd42565b846002600681106200c0ac576200c0ab6200fa08565b5b60200201856003600681106200c0c7576200c0c66200fa08565b5b60200201828152508281525050506200c14f836002600681106200c0f0576200c0ef6200fa08565b5b6020020151846003600681106200c10c576200c10b6200fa08565b5b6020020151856002600681106200c128576200c1276200fa08565b5b6020020151866003600681106200c144576200c1436200fa08565b5b60200201516200cc00565b846004600681106200c166576200c1656200fa08565b5b60200201856005600681106200c181576200c1806200fa08565b5b60200201828152508281525050506200c209836004600681106200c1aa576200c1a96200fa08565b5b6020020151846005600681106200c1c6576200c1c56200fa08565b5b6020020151836004600681106200c1e2576200c1e16200fa08565b5b6020020151846005600681106200c1fe576200c1fd6200fa08565b5b60200201516200cc00565b836002600681106200c220576200c21f6200fa08565b5b60200201846003600681106200c23b576200c23a6200fa08565b5b60200201828152508281525050506200c2c3836004600681106200c264576200c2636200fa08565b5b6020020151846005600681106200c280576200c27f6200fa08565b5b6020020151856002600681106200c29c576200c29b6200fa08565b5b6020020151866003600681106200c2b8576200c2b76200fa08565b5b60200201516200cc00565b846004600681106200c2da576200c2d96200fa08565b5b60200201856005600681106200c2f5576200c2f46200fa08565b5b60200201828152508281525050506200c37d836004600681106200c31e576200c31d6200fa08565b5b6020020151846005600681106200c33a576200c3396200fa08565b5b6020020151846004600681106200c356576200c3556200fa08565b5b6020020151856005600681106200c372576200c3716200fa08565b5b60200201516200cc00565b826004600681106200c394576200c3936200fa08565b5b60200201836005600681106200c3af576200c3ae6200fa08565b5b60200201828152508281525050506200c437836000600681106200c3d8576200c3d76200fa08565b5b6020020151846001600681106200c3f4576200c3f36200fa08565b5b6020020151856000600681106200c410576200c40f6200fa08565b5b6020020151866001600681106200c42c576200c42b6200fa08565b5b60200201516200cc00565b836000600681106200c44e576200c44d6200fa08565b5b60200201846001600681106200c469576200c4686200fa08565b5b60200201828152508281525050506200c4f1826000600681106200c492576200c4916200fa08565b5b6020020151836001600681106200c4ae576200c4ad6200fa08565b5b6020020151846004600681106200c4ca576200c4c96200fa08565b5b6020020151856005600681106200c4e6576200c4e56200fa08565b5b60200201516200cc00565b836000600681106200c508576200c5076200fa08565b5b60200201846001600681106200c523576200c5226200fa08565b5b60200201828152508281525050506200c5ab826000600681106200c54c576200c54b6200fa08565b5b6020020151836001600681106200c568576200c5676200fa08565b5b6020020151856004600681106200c584576200c5836200fa08565b5b6020020151866005600681106200c5a0576200c59f6200fa08565b5b60200201516200cd42565b836000600681106200c5c2576200c5c16200fa08565b5b60200201846001600681106200c5dd576200c5dc6200fa08565b5b60200201828152508281525050506200c62f826002600681106200c606576200c6056200fa08565b5b6020020151836003600681106200c622576200c6216200fa08565b5b602002015160026200cf7c565b836004600681106200c646576200c6456200fa08565b5b60200201846005600681106200c661576200c6606200fa08565b5b60200201828152508281525050506200c6e9826000600681106200c68a576200c6896200fa08565b5b6020020151836001600681106200c6a6576200c6a56200fa08565b5b6020020151846004600681106200c6c2576200c6c16200fa08565b5b6020020151856005600681106200c6de576200c6dd6200fa08565b5b60200201516200cd42565b836000600681106200c700576200c6ff6200fa08565b5b60200201846001600681106200c71b576200c71a6200fa08565b5b60200201828152508281525050506200c7a3836002600681106200c744576200c7436200fa08565b5b6020020151846003600681106200c760576200c75f6200fa08565b5b6020020151846000600681106200c77c576200c77b6200fa08565b5b6020020151856001600681106200c798576200c7976200fa08565b5b60200201516200cc00565b826000600681106200c7ba576200c7b96200fa08565b5b60200201836001600681106200c7d5576200c7d46200fa08565b5b60200201828152508281525050506200c85d826002600681106200c7fe576200c7fd6200fa08565b5b6020020151836003600681106200c81a576200c8196200fa08565b5b6020020151846000600681106200c836576200c8356200fa08565b5b6020020151856001600681106200c852576200c8516200fa08565b5b60200201516200cd42565b846002600681106200c874576200c8736200fa08565b5b60200201856003600681106200c88f576200c88e6200fa08565b5b60200201828152508281525050506200c917836000600681106200c8b8576200c8b76200fa08565b5b6020020151846001600681106200c8d4576200c8d36200fa08565b5b6020020151856002600681106200c8f0576200c8ef6200fa08565b5b6020020151866003600681106200c90c576200c90b6200fa08565b5b60200201516200cc00565b846002600681106200c92e576200c92d6200fa08565b5b60200201856003600681106200c949576200c9486200fa08565b5b60200201828152508281525050506200c9d1836004600681106200c972576200c9716200fa08565b5b6020020151846005600681106200c98e576200c98d6200fa08565b5b6020020151836002600681106200c9aa576200c9a96200fa08565b5b6020020151846003600681106200c9c6576200c9c56200fa08565b5b60200201516200cc00565b846000600681106200c9e8576200c9e76200fa08565b5b60200201856001600681106200ca03576200ca026200fa08565b5b60200201828152508281525050506200ca8b836002600681106200ca2c576200ca2b6200fa08565b5b6020020151846003600681106200ca48576200ca476200fa08565b5b6020020151856000600681106200ca64576200ca636200fa08565b5b6020020151866001600681106200ca80576200ca7f6200fa08565b5b60200201516200cd42565b826002600681106200caa2576200caa16200fa08565b5b60200201836003600681106200cabd576200cabc6200fa08565b5b60200201828152508281525050505b92915050565b6000806000806000806200cae788886200cff5565b80925081935050506200cafd8c8c84846200cc00565b80965081975050506200cb138a8a84846200cc00565b809450819550505050509650965096509692505050565b6060824710156200cb72576040517f08c379a00000000000000000000000000000000000000000000000000000000081526004016200cb69906201154b565b60405180910390fd5b6000808673ffffffffffffffffffffffffffffffffffffffff1685876040516200cb9d9190620115af565b60006040518083038185875af1925050503d80600081146200cbdc576040519150601f19603f3d011682016040523d82523d6000602084013e6200cbe1565b606091505b50915091506200cbf4878383876200d167565b92505050949350505050565b6000806200cc987f30644e72e131a029b85045b68181585d97816a916871ca8d3c208c16d87cfd47806200cc39576200cc386200fc61565b5b8588097f30644e72e131a029b85045b68181585d97816a916871ca8d3c208c16d87cfd47806200cc6e576200cc6d6200fc61565b5b8588097f30644e72e131a029b85045b68181585d97816a916871ca8d3c208c16d87cfd476200d1e6565b7f30644e72e131a029b85045b68181585d97816a916871ca8d3c208c16d87cfd47806200ccca576200ccc96200fc61565b5b7f30644e72e131a029b85045b68181585d97816a916871ca8d3c208c16d87cfd47806200ccfc576200ccfb6200fc61565b5b8688097f30644e72e131a029b85045b68181585d97816a916871ca8d3c208c16d87cfd47806200cd31576200cd306200fc61565b5b868a09089150915094509492505050565b6000806200cd7286857f30644e72e131a029b85045b68181585d97816a916871ca8d3c208c16d87cfd476200d1e6565b6200cd9f86857f30644e72e131a029b85045b68181585d97816a916871ca8d3c208c16d87cfd476200d1e6565b9150915094509492505050565b6000806000806000806200cdc38c8c60036200cf7c565b80965081975050506200cdd986868e8e6200cc00565b80965081975050506200cdef8a8a8a8a6200cc00565b80985081995050506200ce058c8c8c8c6200cc00565b80945081955050506200ce1b84848a8a6200cc00565b80945081955050506200ce31868688886200cc00565b809c50819d5050506200ce47848460086200cf7c565b80925081935050506200ce5d8c8c84846200cd42565b809c50819d5050506200ce7388888a8a6200cc00565b80925081935050506200ce89848460046200cf7c565b80945081955050506200ce9f84848e8e6200cd42565b80945081955050506200ceb5848488886200cc00565b80945081955050506200cecb8a8a60086200cf7c565b80965081975050506200cee186868c8c6200cc00565b80965081975050506200cef7868684846200cc00565b80965081975050506200cf0d848488886200cd42565b80945081955050506200cf238c8c60026200cf7c565b80965081975050506200cf3986868a8a6200cc00565b80965081975050506200cf4f888884846200cc00565b80925081935050506200cf65828260086200cf7c565b809250819350505096509650965096509650969050565b6000807f30644e72e131a029b85045b68181585d97816a916871ca8d3c208c16d87cfd47806200cfb1576200cfb06200fc61565b5b8386097f30644e72e131a029b85045b68181585d97816a916871ca8d3c208c16d87cfd47806200cfe6576200cfe56200fc61565b5b84860991509150935093915050565b60008060006200d0c27f30644e72e131a029b85045b68181585d97816a916871ca8d3c208c16d87cfd47806200d030576200d02f6200fc61565b5b7f30644e72e131a029b85045b68181585d97816a916871ca8d3c208c16d87cfd47806200d062576200d0616200fc61565b5b8788097f30644e72e131a029b85045b68181585d97816a916871ca8d3c208c16d87cfd47806200d097576200d0966200fc61565b5b878809087f30644e72e131a029b85045b68181585d97816a916871ca8d3c208c16d87cfd476200d213565b90507f30644e72e131a029b85045b68181585d97816a916871ca8d3c208c16d87cfd47806200d0f6576200d0f56200fc61565b5b8186097f30644e72e131a029b85045b68181585d97816a916871ca8d3c208c16d87cfd47806200d12b576200d12a6200fc61565b5b8286097f30644e72e131a029b85045b68181585d97816a916871ca8d3c208c16d87cfd476200d15b91906200fab3565b92509250509250929050565b606083156200d1d15760008351036200d1c8576200d185856200d266565b6200d1c7576040517f08c379a00000000000000000000000000000000000000000000000000000000081526004016200d1be9062011618565b60405180910390fd5b5b8290506200d1de565b6200d1dd83836200d289565b5b949350505050565b600081806200d1fa576200d1f96200fc61565b5b83836200d20891906200fab3565b850890509392505050565b60008060405160208152602080820152602060408201528460608201526002840360808201528360a082015260208160c08360056107d05a03fa91508051925050806200d25f57600080fd5b5092915050565b6000808273ffffffffffffffffffffffffffffffffffffffff163b119050919050565b6000825111156200d29d5781518083602001fd5b806040517f08c379a00000000000000000000000000000000000000000000000000000000081526004016200d2d3919062011686565b60405180910390fd5b50805460008255600502906000526020600020908101906200d2ff91906200d6dc565b50565b82600481019282156200d331579182015b828111156200d3305782548255916001019190600101906200d313565b5b5090506200d34091906200d72e565b5090565b5060008155600101600081556001016000815560010160009055565b6040518060400160405280600073ffffffffffffffffffffffffffffffffffffffff1681526020016200d3926200d3ba565b81525090565b6040518060400160405280600290602082028036833780820191505090505090565b6040518060800160405280600490602082028036833780820191505090505090565b604051806101400160405280600073ffffffffffffffffffffffffffffffffffffffff168152602001600060028111156200d41c576200d41b6200e1c1565b5b815260200160608152602001600067ffffffffffffffff168152602001600081526020016000815260200160008152602001600061ffff16815260200160008152602001600081525090565b6040518060a00160405280600073ffffffffffffffffffffffffffffffffffffffff1681526020016060815260200160001515815260200160008152602001600081525090565b604051806101200160405280600081526020016000815260200160008152602001600081526020016060815260200160608152602001606081526020016000151581526020016200d4ff6200d3ba565b81525090565b50805460008255906000526020600020908101906200d52591906200d72e565b50565b50805460008255600702906000526020600020908101906200d54b91906200d74d565b50565b6128ae80620116ab83390190565b8280548282559060005260206000209081019282156200d5d8579160200282015b828111156200d5d75782518260006101000a81548173ffffffffffffffffffffffffffffffffffffffff021916908373ffffffffffffffffffffffffffffffffffffffff160217905550916020019190600101906200d57d565b5b5090506200d5e791906200d72e565b5090565b82600481019282156200d61d579160200282015b828111156200d61c5782518255916020019190600101906200d5ff565b5b5090506200d62c91906200d72e565b5090565b6040518060400160405280606081526020016200d64c6200d7ab565b81525090565b6040518060200160405280600190602082028036833780820191505090505090565b5080546200d682906200fba9565b6000825580601f106200d69657506200d6b7565b601f0160209004906000526020600020908101906200d6b691906200d72e565b5b50565b6040518060c00160405280600690602082028036833780820191505090505090565b5b808211156200d72a57600080820160006101000a81549073ffffffffffffffffffffffffffffffffffffffff02191690556001820160006200d72091906200d344565b506005016200d6dd565b5090565b5b808211156200d7495760008160009055506001016200d72f565b5090565b5b808211156200d7a757600080820160006200d76a91906200d505565b600182016000808201600090556001820160006200d78991906200d344565b6005820160006200d79b91906200d505565b5050506007016200d74e565b5090565b6040518060600160405280600081526020016200d7c76200d3ba565b8152602001606081525090565b6000819050919050565b6200d7e9816200d7d4565b82525050565b60006020820190506200d80660008301846200d7de565b92915050565b6000604051905090565b600080fd5b600080fd5b600073ffffffffffffffffffffffffffffffffffffffff82169050919050565b60006200d84d826200d820565b9050919050565b6200d85f816200d840565b81146200d86b57600080fd5b50565b6000813590506200d87f816200d854565b92915050565b6000602082840312156200d89e576200d89d6200d816565b5b60006200d8ae848285016200d86e565b91505092915050565b6200d8c2816200d7d4565b81146200d8ce57600080fd5b50565b6000813590506200d8e2816200d8b7565b92915050565b600080604083850312156200d902576200d9016200d816565b5b60006200d912858286016200d8d1565b92505060206200d925858286016200d8d1565b9150509250929050565b600061ffff82169050919050565b6200d948816200d92f565b82525050565b60006020820190506200d96560008301846200d93d565b92915050565b6200d976816200d840565b82525050565b600081519050919050565b600082825260208201905092915050565b60005b838110156200d9b85780820151818401526020810190506200d99b565b838111156200d9c8576000848401525b50505050565b6000601f19601f8301169050919050565b60006200d9ec826200d97c565b6200d9f881856200d987565b93506200da0a8185602086016200d998565b6200da15816200d9ce565b840191505092915050565b60008115159050919050565b6200da37816200da20565b82525050565b600060a0820190506200da5460008301886200d96b565b81810360208301526200da6881876200d9df565b90506200da7960408301866200da2c565b6200da8860608301856200d7de565b6200da9760808301846200d7de565b9695505050505050565b600081519050919050565b600082825260208201905092915050565b6000819050602082019050919050565b6200dad8816200d7d4565b82525050565b60006200daec83836200dacd565b60208301905092915050565b6000602082019050919050565b60006200db12826200daa1565b6200db1e81856200daac565b93506200db2b836200dabd565b8060005b838110156200db625781516200db4688826200dade565b97506200db53836200daf8565b9250506001810190506200db2f565b5085935050505092915050565b600060208201905081810360008301526200db8b81846200db05565b905092915050565b6200db9e816200da20565b81146200dbaa57600080fd5b50565b6000813590506200dbbe816200db93565b92915050565b6000806000606084860312156200dbe0576200dbdf6200d816565b5b60006200dbf0868287016200d86e565b93505060206200dc03868287016200d8d1565b92505060406200dc16868287016200dbad565b9150509250925092565b60006020820190506200dc3760008301846200da2c565b92915050565b600080fd5b7f4e487b7100000000000000000000000000000000000000000000000000000000600052604160045260246000fd5b6200dc7c826200d9ce565b810181811067ffffffffffffffff821117156200dc9e576200dc9d6200dc42565b5b80604052505050565b60006200dcb36200d80c565b90506200dcc182826200dc71565b919050565b600067ffffffffffffffff8211156200dce4576200dce36200dc42565b5b602082029050602081019050919050565b600080fd5b60006200dd116200dd0b846200dcc6565b6200dca7565b905080838252602082019050602084028301858111156200dd37576200dd366200dcf5565b5b835b818110156200dd6457806200dd4f88826200d8d1565b8452602084019350506020810190506200dd39565b5050509392505050565b600082601f8301126200dd86576200dd856200dc3d565b5b81356200dd988482602086016200dcfa565b91505092915050565b6000806000606084860312156200ddbd576200ddbc6200d816565b5b60006200ddcd868287016200d8d1565b935050602084013567ffffffffffffffff8111156200ddf1576200ddf06200d81b565b5b6200ddff868287016200dd6e565b92505060406200de12868287016200d8d1565b9150509250925092565b6200de27816200d92f565b81146200de3357600080fd5b50565b6000813590506200de47816200de1c565b92915050565b600063ffffffff82169050919050565b6200de68816200de4d565b81146200de7457600080fd5b50565b6000813590506200de88816200de5d565b92915050565b6000819050919050565b6200dea3816200de8e565b81146200deaf57600080fd5b50565b6000813590506200dec3816200de98565b92915050565b600080fd5b600080fd5b600062ffffff82169050919050565b6200deed816200ded3565b81146200def957600080fd5b50565b6000813590506200df0d816200dee2565b92915050565b600061012082840312156200df2d576200df2c6200dec9565b5b6200df3a6101206200dca7565b905060006200df4c848285016200de77565b60008301525060206200df62848285016200de77565b60208301525060406200df78848285016200de77565b60408301525060606200df8e848285016200de77565b60608301525060806200dfa4848285016200de77565b60808301525060a06200dfba848285016200defc565b60a08301525060c06200dfd0848285016200defc565b60c08301525060e06200dfe6848285016200defc565b60e0830152506101006200dffd848285016200defc565b6101008301525092915050565b60008060008060008060006101e0888a0312156200e02d576200e02c6200d816565b5b60006200e03d8a828b016200de36565b97505060206200e0508a828b016200de77565b96505060406200e0638a828b016200de77565b95505060606200e0768a828b016200de77565b94505060806200e0898a828b016200de77565b93505060a06200e09c8a828b016200deb2565b92505060c06200e0af8a828b016200df13565b91505092959891949750929550565b6000602082840312156200e0d7576200e0d66200d816565b5b60006200e0e7848285016200d8d1565b91505092915050565b600080604083850312156200e10a576200e1096200d816565b5b60006200e11a858286016200d8d1565b92505060206200e12d858286016200d86e565b9150509250929050565b60006020820190506200e14e60008301846200d96b565b92915050565b6000819050919050565b6200e169816200e154565b81146200e17557600080fd5b50565b6000813590506200e189816200e15e565b92915050565b6000602082840312156200e1a8576200e1a76200d816565b5b60006200e1b8848285016200e178565b91505092915050565b7f4e487b7100000000000000000000000000000000000000000000000000000000600052602160045260246000fd5b600381106200e204576200e2036200e1c1565b5b50565b60008190506200e217826200e1f0565b919050565b60006200e229826200e207565b9050919050565b6200e23b816200e21c565b82525050565b600067ffffffffffffffff82169050919050565b6200e260816200e241565b82525050565b6000610140820190506200e27e600083018d6200d96b565b6200e28d602083018c6200e230565b81810360408301526200e2a1818b6200d9df565b90506200e2b2606083018a6200e255565b6200e2c160808301896200d7de565b6200e2d060a08301886200d7de565b6200e2df60c08301876200d7de565b6200e2ee60e08301866200d93d565b6200e2fe6101008301856200d7de565b6200e30e6101208301846200d7de565b9b9a5050505050505050505050565b6200e328816200d840565b82525050565b600060049050919050565b600081905092915050565b6000819050919050565b6000602082019050919050565b6200e366816200e32e565b6200e37281846200e339565b92506200e37f826200e344565b8060005b838110156200e3b65781516200e39a87826200dade565b96506200e3a7836200e34e565b9250506001810190506200e383565b505050505050565b60a0820160008201516200e3d660008501826200e31d565b5060208201516200e3eb60208501826200e35b565b50505050565b600060a0820190506200e40860008301846200e3be565b92915050565b6000819050919050565b60006200e4396200e4336200e42d846200d820565b6200e40e565b6200d820565b9050919050565b60006200e44d826200e418565b9050919050565b60006200e461826200e440565b9050919050565b6200e473816200e454565b82525050565b60006020820190506200e49060008301846200e468565b92915050565b600080600080608085870312156200e4b3576200e4b26200d816565b5b60006200e4c3878288016200d86e565b94505060206200e4d6878288016200d8d1565b93505060406200e4e9878288016200d8d1565b92505060606200e4fc878288016200dbad565b91505092959194509250565b60006040820190506200e51f60008301856200d7de565b6200e52e60208301846200da2c565b9392505050565b6200e540816200e241565b81146200e54c57600080fd5b50565b6000813590506200e560816200e535565b92915050565b600080604083850312156200e580576200e57f6200d816565b5b60006200e590858286016200e54f565b92505060206200e5a3858286016200d86e565b9150509250929050565b60006020820190506200e5c460008301846200e255565b92915050565b600080fd5b60008083601f8401126200e5e8576200e5e76200dc3d565b5b8235905067ffffffffffffffff8111156200e608576200e6076200e5ca565b5b6020830191508360018202830111156200e627576200e6266200dcf5565b5b9250929050565b600080602083850312156200e648576200e6476200d816565b5b600083013567ffffffffffffffff8111156200e669576200e6686200d81b565b5b6200e677858286016200e5cf565b92509250509250929050565b600067ffffffffffffffff8211156200e6a1576200e6a06200dc42565b5b602082029050602081019050919050565b6000604082840312156200e6cb576200e6ca6200dec9565b5b6200e6d760406200dca7565b905060006200e6e9848285016200d8d1565b60008301525060206200e6ff848285016200d8d1565b60208301525092915050565b60006200e7226200e71c846200e683565b6200dca7565b905080838252602082019050604084028301858111156200e748576200e7476200dcf5565b5b835b818110156200e77557806200e76088826200e6b2565b8452602084019350506040810190506200e74a565b5050509392505050565b600082601f8301126200e797576200e7966200dc3d565b5b81356200e7a98482602086016200e70b565b91505092915050565b600080600080608085870312156200e7cf576200e7ce6200d816565b5b60006200e7df878288016200d8d1565b94505060206200e7f2878288016200e178565b93505060406200e805878288016200d8d1565b925050606085013567ffffffffffffffff8111156200e829576200e8286200d81b565b5b6200e837878288016200e77f565b91505092959194509250565b6200e84e816200e21c565b82525050565b600082825260208201905092915050565b60006200e872826200d97c565b6200e87e81856200e854565b93506200e8908185602086016200d998565b6200e89b816200d9ce565b840191505092915050565b6200e8b1816200e241565b82525050565b6200e8c2816200d92f565b82525050565b6000610140830160008301516200e8e360008601826200e31d565b5060208301516200e8f860208601826200e843565b50604083015184820360408601526200e91282826200e865565b91505060608301516200e92960608601826200e8a6565b5060808301516200e93e60808601826200dacd565b5060a08301516200e95360a08601826200dacd565b5060c08301516200e96860c08601826200dacd565b5060e08301516200e97d60e08601826200e8b7565b506101008301516200e9946101008601826200dacd565b506101208301516200e9ab6101208601826200dacd565b508091505092915050565b600060208201905081810360008301526200e9d281846200e8c8565b905092915050565b600060a0820190506200e9f160008301886200d7de565b6200ea0060208301876200d7de565b6200ea0f60408301866200d7de565b6200ea1e60608301856200d7de565b6200ea2d60808301846200da2c565b9695505050505050565b6200ea42816200da20565b82525050565b600060a0830160008301516200ea6260008601826200e31d565b50602083015184820360208601526200ea7c82826200e865565b91505060408301516200ea9360408601826200ea37565b5060608301516200eaa860608601826200dacd565b5060808301516200eabd60808601826200dacd565b508091505092915050565b600060208201905081810360008301526200eae481846200ea48565b905092915050565b600080600080608085870312156200eb09576200eb086200d816565b5b60006200eb19878288016200d8d1565b94505060206200eb2c878288016200d8d1565b93505060406200eb3f878288016200de77565b92505060606200eb52878288016200d8d1565b91505092959194509250565b60006bffffffffffffffffffffffff82169050919050565b6200eb81816200eb5e565b82525050565b60006020820190506200eb9e60008301846200eb76565b92915050565b6000602082840312156200ebbd576200ebbc6200d816565b5b60006200ebcd848285016200e54f565b91505092915050565b600081519050919050565b600082825260208201905092915050565b6000819050602082019050919050565b60006200ec1083836200e31d565b60208301905092915050565b6000602082019050919050565b60006200ec36826200ebd6565b6200ec4281856200ebe1565b93506200ec4f836200ebf2565b8060005b838110156200ec865781516200ec6a88826200ec02565b97506200ec77836200ec1c565b9250506001810190506200ec53565b5085935050505092915050565b600060a0820190506200ecaa60008301886200eb76565b6200ecb960208301876200eb76565b6200ecc860408301866200e255565b6200ecd760608301856200d96b565b81810360808301526200eceb81846200ec29565b90509695505050505050565b600081519050919050565b600082825260208201905092915050565b6000819050602082019050919050565b60a0820160008201516200ed3b60008501826200e31d565b5060208201516200ed5060208501826200e35b565b50505050565b60006200ed6483836200ed23565b60a08301905092915050565b6000602082019050919050565b60006200ed8a826200ecf7565b6200ed9681856200ed02565b93506200eda3836200ed13565b8060005b838110156200edda5781516200edbe88826200ed56565b97506200edcb836200ed70565b9250506001810190506200eda7565b5085935050505092915050565b600082825260208201905092915050565b60006200ee05826200ebd6565b6200ee1181856200ede7565b93506200ee1e836200ebf2565b8060005b838110156200ee555781516200ee3988826200ec02565b97506200ee46836200ec1c565b9250506001810190506200ee22565b5085935050505092915050565b600081519050919050565b600082825260208201905092915050565b6000819050602082019050919050565b600060c0830160008301516200eea860008601826200dacd565b5060208301516200eebd60208601826200e35b565b50604083015184820360a08601526200eed782826200edf8565b9150508091505092915050565b600060408301600083015184820360008601526200ef0382826200edf8565b915050602083015184820360208601526200ef1f82826200ee8e565b9150508091505092915050565b60006200ef3a83836200eee4565b905092915050565b6000602082019050919050565b60006200ef5c826200ee62565b6200ef6881856200ee6d565b9350836020820285016200ef7c856200ee7e565b8060005b858110156200efbe57848403895281516200ef9c85826200ef2c565b94506200efa9836200ef42565b925060208a019950506001810190506200ef80565b50829750879550505050505092915050565b6000610180830160008301516200efeb60008601826200dacd565b5060208301516200f00060208601826200dacd565b5060408301516200f01560408601826200dacd565b5060608301516200f02a60608601826200dacd565b50608083015184820360808601526200f04482826200ed7d565b91505060a083015184820360a08601526200f06082826200edf8565b91505060c083015184820360c08601526200f07c82826200ef4f565b91505060e08301516200f09360e08601826200ea37565b506101008301516200f0aa6101008601826200e35b565b508091505092915050565b600060208201905081810360008301526200f0d181846200efd0565b905092915050565b60006200f0e6826200e440565b9050919050565b6200f0f8816200f0d9565b82525050565b60006020820190506200f11560008301846200f0ed565b92915050565b6200f126816200de4d565b82525050565b60006020820190506200f14360008301846200f11b565b92915050565b600080604083850312156200f163576200f1626200d816565b5b60006200f173858286016200e54f565b92505060206200f186858286016200d8d1565b9150509250929050565b600080fd5b600067ffffffffffffffff8211156200f1b3576200f1b26200dc42565b5b6200f1be826200d9ce565b9050602081019050919050565b82818337600083830152505050565b60006200f1f16200f1eb846200f195565b6200dca7565b9050828152602081018484840111156200f210576200f20f6200f190565b5b6200f21d8482856200f1cb565b509392505050565b600082601f8301126200f23d576200f23c6200dc3d565b5b81356200f24f8482602086016200f1da565b91505092915050565b600067ffffffffffffffff8211156200f276576200f2756200dc42565b5b602082029050602081019050919050565b60006200f29e6200f298846200f258565b6200dca7565b905080838252602082019050602084028301858111156200f2c4576200f2c36200dcf5565b5b835b818110156200f2f157806200f2dc88826200d86e565b8452602084019350506020810190506200f2c6565b5050509392505050565b600082601f8301126200f313576200f3126200dc3d565b5b81356200f3258482602086016200f287565b91505092915050565b600060a082840312156200f347576200f3466200dec9565b5b6200f35360a06200dca7565b905060006200f365848285016200d8d1565b60008301525060206200f37b848285016200d8d1565b602083015250604082013567ffffffffffffffff8111156200f3a2576200f3a16200dece565b5b6200f3b0848285016200f225565b604083015250606082013567ffffffffffffffff8111156200f3d7576200f3d66200dece565b5b6200f3e5848285016200f225565b606083015250608082013567ffffffffffffffff8111156200f40c576200f40b6200dece565b5b6200f41a848285016200f2fb565b60808301525092915050565b6000602082840312156200f43f576200f43e6200d816565b5b600082013567ffffffffffffffff8111156200f460576200f45f6200d81b565b5b6200f46e848285016200f32e565b91505092915050565b6200f482816200de8e565b82525050565b60006020820190506200f49f60008301846200f477565b92915050565b600381106200f4b357600080fd5b50565b6000813590506200f4c7816200f4a5565b92915050565b600060e082840312156200f4e6576200f4e56200dec9565b5b6200f4f260e06200dca7565b905060006200f504848285016200f4b6565b600083015250602082013567ffffffffffffffff8111156200f52b576200f52a6200dece565b5b6200f539848285016200f225565b60208301525060406200f54f848285016200e54f565b60408301525060606200f565848285016200d8d1565b60608301525060806200f57b848285016200de36565b60808301525060a06200f591848285016200d8d1565b60a08301525060c06200f5a7848285016200d8d1565b60c08301525092915050565b6000602082840312156200f5cc576200f5cb6200d816565b5b600082013567ffffffffffffffff8111156200f5ed576200f5ec6200d81b565b5b6200f5fb848285016200f4cd565b91505092915050565b6200f60f816200e154565b82525050565b60006020820190506200f62c60008301846200f604565b92915050565b600080604083850312156200f64c576200f64b6200d816565b5b600083013567ffffffffffffffff8111156200f66d576200f66c6200d81b565b5b6200f67b858286016200f2fb565b925050602083013567ffffffffffffffff8111156200f69f576200f69e6200d81b565b5b6200f6ad858286016200f2fb565b9150509250929050565b600060208201905081810360008301526200f6d381846200ec29565b905092915050565b600082825260208201905092915050565b7f47726f757020646f6573206e6f74206578697374000000000000000000000000600082015250565b60006200f7246014836200f6db565b91506200f731826200f6ec565b602082019050919050565b600060208201905081810360008301526200f757816200f715565b9050919050565b7f4e6f6465206973206e6f742061206d656d626572206f66207468652067726f7560008201527f7000000000000000000000000000000000000000000000000000000000000000602082015250565b60006200f7bc6021836200f6db565b91506200f7c9826200f75e565b604082019050919050565b600060208201905081810360008301526200f7ef816200f7ad565b9050919050565b7f43616c6c65722047726f75702065706f636820646f6573206e6f74206d61746360008201527f6820436f6e74726f6c6c65722047726f75702065706f63680000000000000000602082015250565b60006200f8546038836200f6db565b91506200f861826200f7f6565b604082019050919050565b600060208201905081810360008301526200f887816200f845565b9050919050565b7f436f6f7264696e61746f72206e6f7420666f756e6420666f722067726f75704960008201527f6e64657800000000000000000000000000000000000000000000000000000000602082015250565b60006200f8ec6024836200f6db565b91506200f8f9826200f88e565b604082019050919050565b600060208201905081810360008301526200f91f816200f8dd565b9050919050565b60008160000b9050919050565b6200f93e816200f926565b81146200f94a57600080fd5b50565b6000815190506200f95e816200f933565b92915050565b6000602082840312156200f97d576200f97c6200d816565b5b60006200f98d848285016200f94d565b91505092915050565b7f444b47207374696c6c20696e2070726f67726573730000000000000000000000600082015250565b60006200f9ce6015836200f6db565b91506200f9db826200f996565b602082019050919050565b600060208201905081810360008301526200fa01816200f9bf565b9050919050565b7f4e487b7100000000000000000000000000000000000000000000000000000000600052603260045260246000fd5b7f4e487b7100000000000000000000000000000000000000000000000000000000600052601160045260246000fd5b60006200fa73826200d7d4565b91507fffffffffffffffffffffffffffffffffffffffffffffffffffffffffffffffff82036200faa8576200faa76200fa37565b5b600182019050919050565b60006200fac0826200d7d4565b91506200facd836200d7d4565b9250828210156200fae3576200fae26200fa37565b5b828203905092915050565b7f4e487b7100000000000000000000000000000000000000000000000000000000600052603160045260246000fd5b60006200fb2a826200d7d4565b91506200fb37836200d7d4565b9250827fffffffffffffffffffffffffffffffffffffffffffffffffffffffffffffffff038211156200fb6f576200fb6e6200fa37565b5b828201905092915050565b7f4e487b7100000000000000000000000000000000000000000000000000000000600052602260045260246000fd5b600060028204905060018216806200fbc257607f821691505b6020821081036200fbd8576200fbd76200fb7a565b5b50919050565b60006200fbeb826200d7d4565b9150600082036200fc01576200fc006200fa37565b5b600182039050919050565b6000819050919050565b6200fc2b6200fc25826200d7d4565b6200fc0c565b82525050565b60006200fc3f82856200fc16565b6020820191506200fc5182846200fc16565b6020820191508190509392505050565b7f4e487b7100000000000000000000000000000000000000000000000000000000600052601260045260246000fd5b60006200fc9d826200d7d4565b91506200fcaa836200d7d4565b9250826200fcbd576200fcbc6200fc61565b5b828206905092915050565b60006060820190506200fcdf60008301866200d93d565b6200fcee60208301856200d93d565b6200fcfd60408301846200d93d565b949350505050565b60008160001c9050919050565b600063ffffffff82169050919050565b60006200fd396200fd33836200fd05565b6200fd12565b9050919050565b6200fd4b816200de4d565b82525050565b60008160201c9050919050565b60006200fd756200fd6f836200fd51565b6200fd12565b9050919050565b60008160401c9050919050565b60006200fda06200fd9a836200fd7c565b6200fd12565b9050919050565b60008160601c9050919050565b60006200fdcb6200fdc5836200fda7565b6200fd12565b9050919050565b60008160801c9050919050565b60006200fdf66200fdf0836200fdd2565b6200fd12565b9050919050565b60008160a01c9050919050565b600062ffffff82169050919050565b60006200fe306200fe2a836200fdfd565b6200fe0a565b9050919050565b6200fe42816200ded3565b82525050565b60008160b81c9050919050565b60006200fe6c6200fe66836200fe48565b6200fe0a565b9050919050565b60008160d01c9050919050565b60006200fe976200fe91836200fe73565b6200fe0a565b9050919050565b60008160e81c9050919050565b60006200fec26200febc836200fe9e565b6200fe0a565b9050919050565b610120820160008083015490506200fee1816200fd22565b6200fef060008601826200fd40565b506200fefc816200fd5e565b6200ff0b60208601826200fd40565b506200ff17816200fd89565b6200ff2660408601826200fd40565b506200ff32816200fdb4565b6200ff4160608601826200fd40565b506200ff4d816200fddf565b6200ff5c60808601826200fd40565b506200ff68816200fe19565b6200ff7760a08601826200fe37565b506200ff83816200fe55565b6200ff9260c08601826200fe37565b506200ff9e816200fe80565b6200ffad60e08601826200fe37565b506200ffb9816200feab565b6200ffc96101008601826200fe37565b5050505050565b60006101e0820190506200ffe8600083018a6200d93d565b6200fff760208301896200f11b565b6201000660408301886200f11b565b6201001560608301876200f11b565b6201002460808301866200f11b565b6201003360a08301856200f477565b6201004260c08301846200fec9565b98975050505050505050565b7f4e6f6465206e6f7420726567697374657265642e000000000000000000000000600082015250565b6000620100866014836200f6db565b915062010093826201004e565b602082019050919050565b60006020820190508181036000830152620100b98162010077565b9050919050565b7f4e6f646520697320616c72656164792072656769737465726564000000000000600082015250565b6000620100f8601a836200f6db565b91506201010582620100c0565b602082019050919050565b600060208201905081810360008301526201012b81620100e9565b9050919050565b600082905092915050565b60008190508160005260206000209050919050565b60006020601f8301049050919050565b600082821b905092915050565b600060088302620101a17fffffffffffffffffffffffffffffffffffffffffffffffffffffffffffffffff8262010162565b620101ad868362010162565b95508019841693508086168417925050509392505050565b6000620101e6620101e0620101da846200d7d4565b6200e40e565b6200d7d4565b9050919050565b6000819050919050565b6201020283620101c5565b6201021a6201021182620101ed565b8484546201016f565b825550505050565b600090565b6201023162010222565b6201023e818484620101f7565b505050565b5b8181101562010266576201025a60008262010227565b60018101905062010244565b5050565b601f821115620102b5576201027f816201013d565b6201028a8462010152565b810160208510156201029a578190505b620102b2620102a98562010152565b83018262010243565b50505b505050565b600082821c905092915050565b6000620102da60001984600802620102ba565b1980831691505092915050565b6000620102f58383620102c7565b9150826002028217905092915050565b62010311838362010132565b67ffffffffffffffff8111156201032d576201032c6200dc42565b5b6201033982546200fba9565b620103468282856201026a565b6000601f8311600181146201037a576000841562010365578287013590505b620103718582620102e7565b865550620103e1565b601f1984166201038a866201013d565b60005b82811015620103b4578489013582556001820191506020850194506020810190506201038d565b86831015620103d45784890135620103d0601f891682620102c7565b8355505b6001600288020188555050505b50505050505050565b7f546f6f206561726c7920746f2066756c66696c6c000000000000000000000000600082015250565b6000620104226014836200f6db565b91506201042f82620103ea565b602082019050919050565b60006020820190508181036000830152620104558162010413565b9050919050565b600062010469826200d7d4565b915062010476836200d7d4565b9250817fffffffffffffffffffffffffffffffffffffffffffffffffffffffffffffffff0483118215151615620104b257620104b16200fa37565b5b828202905092915050565b6000620104ca826200d7d4565b9150620104d7836200d7d4565b925082620104ea57620104e96200fc61565b5b828204905092915050565b600062010502826200e241565b915067ffffffffffffffff82036201051f576201051e6200fa37565b5b600182019050919050565b7f4e6f646520737461746520697320747275652c2063616e6e6f7420756e73746160008201527f6b652062656c6f77207374616b696e67207468726573686f6c64000000000000602082015250565b600062010588603a836200f6db565b915062010595826201052a565b604082019050919050565b60006020820190508181036000830152620105bb8162010579565b9050919050565b6000620105cf826200eb5e565b9150620105dc836200eb5e565b9250826bffffffffffffffffffffffff038211156201060057620105ff6200fa37565b5b828201905092915050565b60006040820190506201062260008301856200d7de565b6201063160208301846200d7de565b9392505050565b600081519050919050565b600082825260208201905092915050565b6000819050602082019050919050565b60006201067283836200e865565b905092915050565b6000602082019050919050565b6000620106948262010638565b620106a0818562010643565b935083602082028501620106b48562010654565b8060005b85811015620106f65784840389528151620106d4858262010664565b9450620106e1836201067a565b925060208a01995050600181019050620106b8565b50829750879550505050505092915050565b600060408201905081810360008301526201072481856200ec29565b905081810360208301526201073a818462010687565b90509392505050565b600060e0820190506201075a600083018a6200d7de565b6201076960208301896200d7de565b6201077860408301886200d7de565b6201078760608301876200d7de565b81810360808301526201079b81866200ec29565b9050620107ac60a08301856200d7de565b620107bb60c08301846200d96b565b98975050505050505050565b7f444b472068617320656e64656400000000000000000000000000000000000000600082015250565b6000620107ff600d836200f6db565b91506201080c82620107c7565b602082019050919050565b600060208201905081810360008301526201083281620107f0565b9050919050565b7f43616c6c65722047726f75702065706f636820646f6573206e6f74206d61746360008201527f6820636f6e74726f6c6c65722047726f75702065706f63680000000000000000602082015250565b6000620108976038836200f6db565b9150620108a48262010839565b604082019050919050565b60006020820190508181036000830152620108ca8162010888565b9050919050565b7f436f6d6d6974436163686520616c726561647920636f6e7461696e732050617260008201527f7469616c4b657920666f722074686973206e6f64650000000000000000000000602082015250565b60006201092f6035836200f6db565b91506201093c82620108d1565b604082019050919050565b60006020820190508181036000830152620109628162010920565b9050919050565b7f4f776e61626c653a206e6577206f776e657220697320746865207a65726f206160008201527f6464726573730000000000000000000000000000000000000000000000000000602082015250565b6000620109c76026836200f6db565b9150620109d48262010969565b604082019050919050565b60006020820190508181036000830152620109fa81620109b8565b9050919050565b7f506c65617365207265717565737420627920657874656e64696e672047656e6560008201527f72616c52616e6463617374436f6e73756d65724261736520736f20746861742060208201527f77652063616e2063616c6c6261636b20776974682072616e646f6d6e6573732e604082015250565b600062010a856060836200f6db565b915062010a928262010a01565b606082019050919050565b6000602082019050818103600083015262010ab88162010a76565b9050919050565b600060408201905062010ad660008301856200e255565b62010ae560208301846200d96b565b9392505050565b600062010af9826200e241565b915062010b06836200e241565b92508267ffffffffffffffff0382111562010b265762010b256200fa37565b5b828201905092915050565b600062010b3e826200eb5e565b915062010b4b836200eb5e565b92508282101562010b615762010b606200fa37565b5b828203905092915050565b7f4e487b7100000000000000000000000000000000000000000000000000000000600052600160045260246000fd5b62010ba6826200d97c565b67ffffffffffffffff81111562010bc25762010bc16200dc42565b5b62010bce82546200fba9565b62010bdb8282856201026a565b600060209050601f83116001811462010c13576000841562010bfe578287015190505b62010c0a8582620102e7565b86555062010c7a565b601f19841662010c23866201013d565b60005b8281101562010c4d5784890151825560018201915060208501945060208101905062010c26565b8683101562010c6d578489015162010c69601f891682620102c7565b8355505b6001600288020188555050505b505050505050565b600060e08201905062010c99600083018a6200f604565b62010ca860208301896200d96b565b62010cb760408301886200e255565b62010cc660608301876200d7de565b62010cd560808301866200d93d565b62010ce460a08301856200d7de565b62010cf360c08301846200d7de565b98975050505050505050565b7f4f776e61626c653a2063616c6c6572206973206e6f7420746865206f776e6572600082015250565b600062010d376020836200f6db565b915062010d448262010cff565b602082019050919050565b6000602082019050818103600083015262010d6a8162010d28565b9050919050565b6000819050919050565b62010d9062010d8a826200e154565b62010d71565b82525050565b600062010da4828462010d7b565b60208201915081905092915050565b50565b600062010dc56000836200f6db565b915062010dd28262010db3565b600082019050919050565b6000602082019050818103600083015262010df88162010db6565b9050919050565b600060408201905062010e1660008301856200f604565b62010e2560208301846200d7de565b9392505050565b60008151905062010e3d816200de5d565b92915050565b60006020828403121562010e5c5762010e5b6200d816565b5b600062010e6c8482850162010e2c565b91505092915050565b600060408201905062010e8c60008301856200f604565b818103602083015262010ea081846200db05565b90509392505050565b600062010eca62010ec462010ebe846200eb5e565b6200e40e565b6200d7d4565b9050919050565b62010edc8162010ea9565b82525050565b600060808201905062010ef960008301876200f604565b62010f0860208301866200d7de565b62010f17604083018562010ed1565b62010f2660608301846200da2c565b95945050505050565b600069ffffffffffffffffffff82169050919050565b62010f508162010f2f565b811462010f5c57600080fd5b50565b60008151905062010f708162010f45565b92915050565b60008151905062010f87816200de98565b92915050565b60008151905062010f9e816200d8b7565b92915050565b600080600080600060a0868803121562010fc35762010fc26200d816565b5b600062010fd38882890162010f5f565b955050602062010fe68882890162010f76565b945050604062010ff98882890162010f8d565b93505060606201100c8882890162010f8d565b92505060806201101f8882890162010f5f565b9150509295509295909350565b60006060820190506201104360008301866200d96b565b6201105260208301856200d96b565b6201106160408301846200d7de565b949350505050565b600060c0830160008301516201108360008601826200dacd565b5060208301516201109860208601826200e35b565b50604083015184820360a0860152620110b282826200edf8565b9150508091505092915050565b60006020820190508181036000830152620110db818462011069565b905092915050565b6000819050919050565b600062011104620110fe836200fd05565b620110e3565b9050919050565b600060049050919050565b6000819050919050565b60006201112e8254620110ed565b9050919050565b6000600182019050919050565b6201114d816201110b565b6201115981846200e339565b9250620111668262011116565b8060005b83811015620111a6576201117e8262011120565b6201118a87826200dade565b9650620111978362011135565b9250506001810190506201116a565b505050505050565b600081549050919050565b60008190508160005260206000209050919050565b600073ffffffffffffffffffffffffffffffffffffffff82169050919050565b600062011205620111ff836200fd05565b620111ce565b9050919050565b60006201121a8254620111ee565b9050919050565b6000600182019050919050565b60006201123b82620111ae565b6201124781856200ede7565b93506201125483620111b9565b8060005b8381101562011294576201126c826201120c565b6201127888826200ec02565b9750620112858362011221565b92505060018101905062011258565b5085935050505092915050565b600060c083016000808401549050620112ba81620110ed565b620112c960008701826200dacd565b5060018401620112dd602087018262011142565b506005840185830360a0870152620112f683826201122e565b925050819250505092915050565b60006020820190508181036000830152620113208184620112a1565b905092915050565b60006060820190506201133f60008301866200d7de565b6201134e60208301856200d96b565b6201135d60408301846200d7de565b949350505050565b60006201137382846200fc16565b60208201915081905092915050565b60008151905062011393816200db93565b92915050565b600060208284031215620113b257620113b16200d816565b5b6000620113c28482850162011382565b91505092915050565b7f5361666545524332303a204552433230206f7065726174696f6e20646964206e60008201527f6f74207375636365656400000000000000000000000000000000000000000000602082015250565b600062011429602a836200f6db565b91506201143682620113cb565b604082019050919050565b600060208201905081810360008301526201145c816201141a565b9050919050565b7f424c533a2073717274206d6f646578702063616c6c206661696c656400000000600082015250565b60006201149b601c836200f6db565b9150620114a88262011463565b602082019050919050565b60006020820190508181036000830152620114ce816201148c565b9050919050565b7f416464726573733a20696e73756666696369656e742062616c616e636520666f60008201527f722063616c6c0000000000000000000000000000000000000000000000000000602082015250565b6000620115336026836200f6db565b91506201154082620114d5565b604082019050919050565b60006020820190508181036000830152620115668162011524565b9050919050565b600081905092915050565b600062011585826200d97c565b6201159181856201156d565b9350620115a38185602086016200d998565b80840191505092915050565b6000620115bd828462011578565b915081905092915050565b7f416464726573733a2063616c6c20746f206e6f6e2d636f6e7472616374000000600082015250565b600062011600601d836200f6db565b91506201160d82620115c8565b602082019050919050565b600060208201905081810360008301526201163381620115f1565b9050919050565b600081519050919050565b600062011652826201163a565b6201165e81856200f6db565b9350620116708185602086016200d998565b6201167b816200d9ce565b840191505092915050565b60006020820190508181036000830152620116a2818462011645565b90509291505056fe60c060405260006006553480156200001657600080fd5b50604051620028ae380380620028ae83398181016040528101906200003c919062000180565b6200005c620000506200007460201b60201c565b6200007c60201b60201c565b8160a0818152505080608081815250505050620001c7565b600033905090565b60008060009054906101000a900473ffffffffffffffffffffffffffffffffffffffff169050816000806101000a81548173ffffffffffffffffffffffffffffffffffffffff021916908373ffffffffffffffffffffffffffffffffffffffff1602179055508173ffffffffffffffffffffffffffffffffffffffff168173ffffffffffffffffffffffffffffffffffffffff167f8be0079c531659141344cd1fd0a4f28419497f9722a3daafe3b4186f6b6457e060405160405180910390a35050565b600080fd5b6000819050919050565b6200015a8162000145565b81146200016657600080fd5b50565b6000815190506200017a816200014f565b92915050565b600080604083850312156200019a576200019962000140565b5b6000620001aa8582860162000169565b9250506020620001bd8582860162000169565b9150509250929050565b60805160a05161268962000225600039600081816109390152610aa601526000818161047e015281816104af015281816104ec015281816105290152818161077201528181610b6a01528181610c730152610d8801526126896000f3fe608060405234801561001057600080fd5b506004361061012c5760003560e01c8063785ffb37116100ad578063cc5ef00911610071578063cc5ef009146102fe578063cd5e38371461031c578063ce7c2ac21461034c578063d73fe0aa1461037c578063f2fde38b1461039a5761012c565b8063785ffb371461027e5780637fd283461461029c5780638da5cb5b146102b85780639cb8a26a146102d6578063b0ef8179146102e05761012c565b80634ae2b849116100f45780634ae2b849146101e95780634e3874a0146102075780635aa68ac014610226578063670d14b214610244578063715018a6146102745761012c565b80630ea6564814610131578063221f95111461016157806335c1d3491461017f57806337f8d5ff146101af57806348cd4cb1146101cb575b600080fd5b61014b6004803603810190610146919061179b565b6103b6565b6040516101589190611861565b60405180910390f35b610169610456565b604051610176919061189f565b60405180910390f35b610199600480360381019061019491906118f0565b61058c565b6040516101a6919061192c565b60405180910390f35b6101c960048036038101906101c49190611a02565b6105cb565b005b6101d361076a565b6040516101e09190611a92565b60405180910390f35b6101f1610770565b6040516101fe9190611a92565b60405180910390f35b61020f610794565b60405161021d929190611bb9565b60405180910390f35b61022e610962565b60405161023b9190611ca7565b60405180910390f35b61025e6004803603810190610259919061179b565b6109f0565b60405161026b9190611861565b60405180910390f35b61027c610a90565b005b610286610aa4565b6040516102939190611a92565b60405180910390f35b6102b660048036038101906102b19190611d1f565b610ac8565b005b6102c0610edd565b6040516102cd919061192c565b60405180910390f35b6102de610f06565b005b6102e8610f2e565b6040516102f59190611d6c565b60405180910390f35b6103066110d6565b6040516103139190611d6c565b60405180910390f35b6103366004803603810190610331919061179b565b61127e565b6040516103439190611861565b60405180910390f35b6103666004803603810190610361919061179b565b61131e565b6040516103739190611861565b60405180910390f35b6103846113be565b6040516103919190611d6c565b60405180910390f35b6103b460048036038101906103af919061179b565b611566565b005b600360205280600052604060002060009150905080546103d590611dbd565b80601f016020809104026020016040519081016040528092919081815260200182805461040190611dbd565b801561044e5780601f106104235761010080835404028352916020019161044e565b820191906000526020600020905b81548152906001019060200180831161043157829003601f168201915b505050505081565b6000806006540361046a5760009050610589565b60006006544361047a9190611e1d565b90507f000000000000000000000000000000000000000000000000000000000000000081116104ad576001915050610589565b7f000000000000000000000000000000000000000000000000000000000000000060026104da9190611e51565b81116104ea576002915050610589565b7f000000000000000000000000000000000000000000000000000000000000000060036105179190611e51565b8111610527576003915050610589565b7f000000000000000000000000000000000000000000000000000000000000000060046105549190611e51565b8111610564576004915050610589565b7fffffffffffffffffffffffffffffffffffffffffffffffffffffffffffffffff9150505b90565b6005818154811061059c57600080fd5b906000526020600020016000915054906101000a900473ffffffffffffffffffffffffffffffffffffffff1681565b600060065414610610576040517f08c379a000000000000000000000000000000000000000000000000000000000815260040161060790611f08565b60405180910390fd5b6106186115e9565b60005b8484905081101561075c57600585858381811061063b5761063a611f28565b5b9050602002016020810190610650919061179b565b9080600181540180825580915050600190039060005260206000200160009091909190916101000a81548173ffffffffffffffffffffffffffffffffffffffff021916908373ffffffffffffffffffffffffffffffffffffffff1602179055508282828181106106c3576106c2611f28565b5b90506020028101906106d59190611f66565b600160008888868181106106ec576106eb611f28565b5b9050602002016020810190610701919061179b565b73ffffffffffffffffffffffffffffffffffffffff1673ffffffffffffffffffffffffffffffffffffffff16815260200190815260200160002091826107489291906121af565b5080806107549061227f565b91505061061b565b504360068190555050505050565b60065481565b7f000000000000000000000000000000000000000000000000000000000000000081565b60006060600060058054905067ffffffffffffffff8111156107b9576107b8611fd4565b5b6040519080825280602002602001820160405280156107ec57816020015b60608152602001906001900390816107d75790505b50905060005b60058054905081101561093657600160006005838154811061081757610816611f28565b5b9060005260206000200160009054906101000a900473ffffffffffffffffffffffffffffffffffffffff1673ffffffffffffffffffffffffffffffffffffffff1673ffffffffffffffffffffffffffffffffffffffff168152602001908152602001600020805461088790611dbd565b80601f01602080910402602001604051908101604052809291908181526020018280546108b390611dbd565b80156109005780601f106108d557610100808354040283529160200191610900565b820191906000526020600020905b8154815290600101906020018083116108e357829003601f168201915b505050505082828151811061091857610917611f28565b5b6020026020010181905250808061092e9061227f565b9150506107f2565b507f00000000000000000000000000000000000000000000000000000000000000008192509250509091565b606060058054806020026020016040519081016040528092919081815260200182805480156109e657602002820191906000526020600020905b8160009054906101000a900473ffffffffffffffffffffffffffffffffffffffff1673ffffffffffffffffffffffffffffffffffffffff168152602001906001019080831161099c575b5050505050905090565b60016020528060005260406000206000915090508054610a0f90611dbd565b80601f0160208091040260200160405190810160405280929190818152602001828054610a3b90611dbd565b8015610a885780601f10610a5d57610100808354040283529160200191610a88565b820191906000526020600020905b815481529060010190602001808311610a6b57829003601f168201915b505050505081565b610a986115e9565b610aa26000611667565b565b7f000000000000000000000000000000000000000000000000000000000000000081565b6000600160003373ffffffffffffffffffffffffffffffffffffffff1673ffffffffffffffffffffffffffffffffffffffff1681526020019081526020016000208054610b1490611dbd565b905011610b56576040517f08c379a0000000000000000000000000000000000000000000000000000000008152600401610b4d90612313565b60405180910390fd5b600060065443610b669190611e1d565b90507f00000000000000000000000000000000000000000000000000000000000000008111610c71576000600260003373ffffffffffffffffffffffffffffffffffffffff1673ffffffffffffffffffffffffffffffffffffffff1681526020019081526020016000208054610bdb90611dbd565b905014610c1d576040517f08c379a0000000000000000000000000000000000000000000000000000000008152600401610c14906123a5565b60405180910390fd5b8282600260003373ffffffffffffffffffffffffffffffffffffffff1673ffffffffffffffffffffffffffffffffffffffff1681526020019081526020016000209182610c6b9291906121af565b50610ed8565b7f00000000000000000000000000000000000000000000000000000000000000006002610c9e9190611e51565b8111610d86576000600360003373ffffffffffffffffffffffffffffffffffffffff1673ffffffffffffffffffffffffffffffffffffffff1681526020019081526020016000208054610cf090611dbd565b905014610d32576040517f08c379a0000000000000000000000000000000000000000000000000000000008152600401610d2990612437565b60405180910390fd5b8282600360003373ffffffffffffffffffffffffffffffffffffffff1673ffffffffffffffffffffffffffffffffffffffff1681526020019081526020016000209182610d809291906121af565b50610ed7565b7f00000000000000000000000000000000000000000000000000000000000000006003610db39190611e51565b8111610e9b576000600460003373ffffffffffffffffffffffffffffffffffffffff1673ffffffffffffffffffffffffffffffffffffffff1681526020019081526020016000208054610e0590611dbd565b905014610e47576040517f08c379a0000000000000000000000000000000000000000000000000000000008152600401610e3e906124c9565b60405180910390fd5b8282600460003373ffffffffffffffffffffffffffffffffffffffff1673ffffffffffffffffffffffffffffffffffffffff1681526020019081526020016000209182610e959291906121af565b50610ed6565b6040517f08c379a0000000000000000000000000000000000000000000000000000000008152600401610ecd90612535565b60405180910390fd5b5b5b505050565b60008060009054906101000a900473ffffffffffffffffffffffffffffffffffffffff16905090565b610f0e6115e9565b610f16610edd565b73ffffffffffffffffffffffffffffffffffffffff16ff5b6060600060058054905067ffffffffffffffff811115610f5157610f50611fd4565b5b604051908082528060200260200182016040528015610f8457816020015b6060815260200190600190039081610f6f5790505b50905060005b6005805490508110156110ce576004600060058381548110610faf57610fae611f28565b5b9060005260206000200160009054906101000a900473ffffffffffffffffffffffffffffffffffffffff1673ffffffffffffffffffffffffffffffffffffffff1673ffffffffffffffffffffffffffffffffffffffff168152602001908152602001600020805461101f90611dbd565b80601f016020809104026020016040519081016040528092919081815260200182805461104b90611dbd565b80156110985780601f1061106d57610100808354040283529160200191611098565b820191906000526020600020905b81548152906001019060200180831161107b57829003601f168201915b50505050508282815181106110b0576110af611f28565b5b602002602001018190525080806110c69061227f565b915050610f8a565b508091505090565b6060600060058054905067ffffffffffffffff8111156110f9576110f8611fd4565b5b60405190808252806020026020018201604052801561112c57816020015b60608152602001906001900390816111175790505b50905060005b60058054905081101561127657600360006005838154811061115757611156611f28565b5b9060005260206000200160009054906101000a900473ffffffffffffffffffffffffffffffffffffffff1673ffffffffffffffffffffffffffffffffffffffff1673ffffffffffffffffffffffffffffffffffffffff16815260200190815260200160002080546111c790611dbd565b80601f01602080910402602001604051908101604052809291908181526020018280546111f390611dbd565b80156112405780601f1061121557610100808354040283529160200191611240565b820191906000526020600020905b81548152906001019060200180831161122357829003601f168201915b505050505082828151811061125857611257611f28565b5b6020026020010181905250808061126e9061227f565b915050611132565b508091505090565b6004602052806000526040600020600091509050805461129d90611dbd565b80601f01602080910402602001604051908101604052809291908181526020018280546112c990611dbd565b80156113165780601f106112eb57610100808354040283529160200191611316565b820191906000526020600020905b8154815290600101906020018083116112f957829003601f168201915b505050505081565b6002602052806000526040600020600091509050805461133d90611dbd565b80601f016020809104026020016040519081016040528092919081815260200182805461136990611dbd565b80156113b65780601f1061138b576101008083540402835291602001916113b6565b820191906000526020600020905b81548152906001019060200180831161139957829003601f168201915b505050505081565b6060600060058054905067ffffffffffffffff8111156113e1576113e0611fd4565b5b60405190808252806020026020018201604052801561141457816020015b60608152602001906001900390816113ff5790505b50905060005b60058054905081101561155e57600260006005838154811061143f5761143e611f28565b5b9060005260206000200160009054906101000a900473ffffffffffffffffffffffffffffffffffffffff1673ffffffffffffffffffffffffffffffffffffffff1673ffffffffffffffffffffffffffffffffffffffff16815260200190815260200160002080546114af90611dbd565b80601f01602080910402602001604051908101604052809291908181526020018280546114db90611dbd565b80156115285780601f106114fd57610100808354040283529160200191611528565b820191906000526020600020905b81548152906001019060200180831161150b57829003601f168201915b50505050508282815181106115405761153f611f28565b5b602002602001018190525080806115569061227f565b91505061141a565b508091505090565b61156e6115e9565b600073ffffffffffffffffffffffffffffffffffffffff168173ffffffffffffffffffffffffffffffffffffffff16036115dd576040517f08c379a00000000000000000000000000000000000000000000000000000000081526004016115d4906125c7565b60405180910390fd5b6115e681611667565b50565b6115f161172b565b73ffffffffffffffffffffffffffffffffffffffff1661160f610edd565b73ffffffffffffffffffffffffffffffffffffffff1614611665576040517f08c379a000000000000000000000000000000000000000000000000000000000815260040161165c90612633565b60405180910390fd5b565b60008060009054906101000a900473ffffffffffffffffffffffffffffffffffffffff169050816000806101000a81548173ffffffffffffffffffffffffffffffffffffffff021916908373ffffffffffffffffffffffffffffffffffffffff1602179055508173ffffffffffffffffffffffffffffffffffffffff168173ffffffffffffffffffffffffffffffffffffffff167f8be0079c531659141344cd1fd0a4f28419497f9722a3daafe3b4186f6b6457e060405160405180910390a35050565b600033905090565b600080fd5b600080fd5b600073ffffffffffffffffffffffffffffffffffffffff82169050919050565b60006117688261173d565b9050919050565b6117788161175d565b811461178357600080fd5b50565b6000813590506117958161176f565b92915050565b6000602082840312156117b1576117b0611733565b5b60006117bf84828501611786565b91505092915050565b600081519050919050565b600082825260208201905092915050565b60005b838110156118025780820151818401526020810190506117e7565b83811115611811576000848401525b50505050565b6000601f19601f8301169050919050565b6000611833826117c8565b61183d81856117d3565b935061184d8185602086016117e4565b61185681611817565b840191505092915050565b6000602082019050818103600083015261187b8184611828565b905092915050565b60008160000b9050919050565b61189981611883565b82525050565b60006020820190506118b46000830184611890565b92915050565b6000819050919050565b6118cd816118ba565b81146118d857600080fd5b50565b6000813590506118ea816118c4565b92915050565b60006020828403121561190657611905611733565b5b6000611914848285016118db565b91505092915050565b6119268161175d565b82525050565b6000602082019050611941600083018461191d565b92915050565b600080fd5b600080fd5b600080fd5b60008083601f84011261196c5761196b611947565b5b8235905067ffffffffffffffff8111156119895761198861194c565b5b6020830191508360208202830111156119a5576119a4611951565b5b9250929050565b60008083601f8401126119c2576119c1611947565b5b8235905067ffffffffffffffff8111156119df576119de61194c565b5b6020830191508360208202830111156119fb576119fa611951565b5b9250929050565b60008060008060408587031215611a1c57611a1b611733565b5b600085013567ffffffffffffffff811115611a3a57611a39611738565b5b611a4687828801611956565b9450945050602085013567ffffffffffffffff811115611a6957611a68611738565b5b611a75878288016119ac565b925092505092959194509250565b611a8c816118ba565b82525050565b6000602082019050611aa76000830184611a83565b92915050565b600081519050919050565b600082825260208201905092915050565b6000819050602082019050919050565b600082825260208201905092915050565b6000611af5826117c8565b611aff8185611ad9565b9350611b0f8185602086016117e4565b611b1881611817565b840191505092915050565b6000611b2f8383611aea565b905092915050565b6000602082019050919050565b6000611b4f82611aad565b611b598185611ab8565b935083602082028501611b6b85611ac9565b8060005b85811015611ba75784840389528151611b888582611b23565b9450611b9383611b37565b925060208a01995050600181019050611b6f565b50829750879550505050505092915050565b6000604082019050611bce6000830185611a83565b8181036020830152611be08184611b44565b90509392505050565b600081519050919050565b600082825260208201905092915050565b6000819050602082019050919050565b611c1e8161175d565b82525050565b6000611c308383611c15565b60208301905092915050565b6000602082019050919050565b6000611c5482611be9565b611c5e8185611bf4565b9350611c6983611c05565b8060005b83811015611c9a578151611c818882611c24565b9750611c8c83611c3c565b925050600181019050611c6d565b5085935050505092915050565b60006020820190508181036000830152611cc18184611c49565b905092915050565b60008083601f840112611cdf57611cde611947565b5b8235905067ffffffffffffffff811115611cfc57611cfb61194c565b5b602083019150836001820283011115611d1857611d17611951565b5b9250929050565b60008060208385031215611d3657611d35611733565b5b600083013567ffffffffffffffff811115611d5457611d53611738565b5b611d6085828601611cc9565b92509250509250929050565b60006020820190508181036000830152611d868184611b44565b905092915050565b7f4e487b7100000000000000000000000000000000000000000000000000000000600052602260045260246000fd5b60006002820490506001821680611dd557607f821691505b602082108103611de857611de7611d8e565b5b50919050565b7f4e487b7100000000000000000000000000000000000000000000000000000000600052601160045260246000fd5b6000611e28826118ba565b9150611e33836118ba565b925082821015611e4657611e45611dee565b5b828203905092915050565b6000611e5c826118ba565b9150611e67836118ba565b9250817fffffffffffffffffffffffffffffffffffffffffffffffffffffffffffffffff0483118215151615611ea057611e9f611dee565b5b828202905092915050565b600082825260208201905092915050565b7f444b472068617320616c72656164792073746172746564000000000000000000600082015250565b6000611ef2601783611eab565b9150611efd82611ebc565b602082019050919050565b60006020820190508181036000830152611f2181611ee5565b9050919050565b7f4e487b7100000000000000000000000000000000000000000000000000000000600052603260045260246000fd5b600080fd5b600080fd5b600080fd5b60008083356001602003843603038112611f8357611f82611f57565b5b80840192508235915067ffffffffffffffff821115611fa557611fa4611f5c565b5b602083019250600182023603831315611fc157611fc0611f61565b5b509250929050565b600082905092915050565b7f4e487b7100000000000000000000000000000000000000000000000000000000600052604160045260246000fd5b60008190508160005260206000209050919050565b60006020601f8301049050919050565b600082821b905092915050565b6000600883026120657fffffffffffffffffffffffffffffffffffffffffffffffffffffffffffffffff82612028565b61206f8683612028565b95508019841693508086168417925050509392505050565b6000819050919050565b60006120ac6120a76120a2846118ba565b612087565b6118ba565b9050919050565b6000819050919050565b6120c683612091565b6120da6120d2826120b3565b848454612035565b825550505050565b600090565b6120ef6120e2565b6120fa8184846120bd565b505050565b5b8181101561211e576121136000826120e7565b600181019050612100565b5050565b601f8211156121635761213481612003565b61213d84612018565b8101602085101561214c578190505b61216061215885612018565b8301826120ff565b50505b505050565b600082821c905092915050565b600061218660001984600802612168565b1980831691505092915050565b600061219f8383612175565b9150826002028217905092915050565b6121b98383611fc9565b67ffffffffffffffff8111156121d2576121d1611fd4565b5b6121dc8254611dbd565b6121e7828285612122565b6000601f8311600181146122165760008415612204578287013590505b61220e8582612193565b865550612276565b601f19841661222486612003565b60005b8281101561224c57848901358255600182019150602085019450602081019050612227565b868310156122695784890135612265601f891682612175565b8355505b6001600288020188555050505b50505050505050565b600061228a826118ba565b91507fffffffffffffffffffffffffffffffffffffffffffffffffffffffffffffffff82036122bc576122bb611dee565b5b600182019050919050565b7f796f7520617265206e6f7420612067726f7570206d656d626572210000000000600082015250565b60006122fd601b83611eab565b9150612308826122c7565b602082019050919050565b6000602082019050818103600083015261232c816122f0565b9050919050565b7f796f75206861766520616c7265616479207075626c697368656420796f75722060008201527f7368617265730000000000000000000000000000000000000000000000000000602082015250565b600061238f602683611eab565b915061239a82612333565b604082019050919050565b600060208201905081810360008301526123be81612382565b9050919050565b7f796f75206861766520616c7265616479207075626c697368656420796f75722060008201527f726573706f6e7365730000000000000000000000000000000000000000000000602082015250565b6000612421602983611eab565b915061242c826123c5565b604082019050919050565b6000602082019050818103600083015261245081612414565b9050919050565b7f796f75206861766520616c7265616479207075626c697368656420796f75722060008201527f6a757374696669636174696f6e73000000000000000000000000000000000000602082015250565b60006124b3602e83611eab565b91506124be82612457565b604082019050919050565b600060208201905081810360008301526124e2816124a6565b9050919050565b7f444b47205075626c6973682068617320656e6465640000000000000000000000600082015250565b600061251f601583611eab565b915061252a826124e9565b602082019050919050565b6000602082019050818103600083015261254e81612512565b9050919050565b7f4f776e61626c653a206e6577206f776e657220697320746865207a65726f206160008201527f6464726573730000000000000000000000000000000000000000000000000000602082015250565b60006125b1602683611eab565b91506125bc82612555565b604082019050919050565b600060208201905081810360008301526125e0816125a4565b9050919050565b7f4f776e61626c653a2063616c6c6572206973206e6f7420746865206f776e6572600082015250565b600061261d602083611eab565b9150612628826125e7565b602082019050919050565b6000602082019050818103600083015261264c81612610565b905091905056fea26469706673582212201319ec1f86289761f5b9e855b05a87a6fe7f0e558d868eadced8e8f2579acbb764736f6c634300080f0033a264697066735822122030b6b04716132ba0c3b05187d0d172f079d2871c3e87c4678dc73da102fa366264736f6c634300080f0033",
    "linkReferences": {}
  },
  "methodIdentifiers": {
    "ARPA()": "62d14450",
    "ARPA_ETH_FEED()": "d164e28d",
    "COMMITTER_REWARD_PER_SIGNATURE()": "c24f03da",
    "COORDINATOR_STATE_TRIGGER_REWARD()": "1bfcb061",
    "DEFAULT_DKG_PHASE_DURATION()": "03515454",
    "DEFAULT_MINIMUM_THRESHOLD()": "aa81d59a",
    "DEFAULT_NUMBER_OF_COMMITTERS()": "cc2dcb40",
    "DISQUALIFIED_NODE_PENALTY_AMOUNT()": "bb65bb76",
    "DKG_POST_PROCESS_REWARD()": "0285f4ae",
    "GROUP_MAX_CAPACITY()": "4ab73523",
    "IDEAL_NUMBER_OF_GROUPS()": "a03da984",
    "MAX_CONSUMERS()": "64d51a2a",
    "MAX_REQUEST_CONFIRMATIONS()": "15c48b84",
    "NODE_STAKING_AMOUNT()": "cfc635d4",
    "PENDING_BLOCK_AFTER_QUIT()": "f5d35d55",
    "REWARD_PER_SIGNATURE()": "bcee30e5",
    "SIGNATURE_TASK_EXCLUSIVE_WINDOW()": "e0b72cfd",
    "addConsumer(uint64,address)": "7341c10c",
    "arrangeMembersInGroup(uint256)": "3048a1e6",
    "calculatePaymentAmount(uint256,uint256,uint32,uint256)": "9ea3b84e",
    "chooseRandomlyFromIndices(uint256,uint256[],uint256)": "2b8a7334",
    "commitDkg((uint256,uint256,bytes,bytes,address[]))": "e37eb96c",
    "coordinators(uint256)": "5f1cc005",
    "createSubscription()": "a21a23e4",
    "emitGroupEvent(uint256)": "df5332cb",
    "estimatePaymentAmount(uint256,uint256,uint32,uint256)": "cc36c1e8",
    "findOrCreateTargetGroup()": "7328fceb",
    "freezeNode(address,uint256,bool)": "d87660cd",
    "fulfillRandomness(uint256,bytes32,uint256,(uint256,uint256)[])": "86dd2e9e",
    "fundSubscription(uint64,uint256)": "dd281928",
    "getCoordinator(uint256)": "42424d6f",
    "getFeeTier(uint64)": "d2f9f9a7",
    "getGroup(uint256)": "ceb60654",
    "getLastSubscription(address)": "76a911bc",
    "getMember(uint256,uint256)": "4d79a893",
    "getMemberAddressByIndex(uint256,uint256)": "edfcb57f",
    "getMemberIndexByAddress(uint256,address)": "f7bbf26a",
    "getNode(address)": "9d209048",
    "getNonDisqualifiedMajorityMembers(address[],address[])": "fdc93499",
    "getPendingRequest(bytes32)": "88b12d55",
    "getRewards(address)": "79ee54f7",
    "getStakedAmount(address)": "4da6a556",
    "getSubscription(uint64)": "a47c7696",
    "groupCount()": "8f23b326",
    "groups(uint256)": "96324bd4",
    "lastAssignedGroupIndex()": "0b919eef",
    "lastOutput()": "97228a7e",
    "minimumThreshold(uint256)": "e9914eed",
    "nodeQuit()": "7a2af56e",
    "nodeRegister(bytes)": "80110e4e",
    "nodeStake(uint256)": "507dd038",
    "nodeUnstake(uint256)": "adbf2f9b",
    "nodes(address)": "189a5a17",
    "owner()": "8da5cb5b",
    "partialKeyRegistered(uint256,address)": "3141d144",
    "postProcessDkg(uint256,uint256)": "0bf9c5c6",
    "rebalanceGroup(uint256,uint256)": "fda66933",
    "removeFromGroup(address,uint256,bool)": "2936ff65",
    "renounceOwnership()": "715018a6",
    "requestRandomness((uint8,bytes,uint64,uint256,uint16,uint256,uint256))": "fb0882fc",
    "rewards(address)": "0700037d",
    "s_callbacks(bytes32)": "4d615424",
    "setConfig(uint16,uint32,uint32,uint32,uint32,int256,(uint32,uint32,uint32,uint32,uint32,uint24,uint24,uint24,uint24))": "2d0354ec",
    "slashNode(address,uint256,uint256,bool)": "6f2afe16",
    "transferOwnership(address)": "f2fde38b",
    "validGroupIndices()": "253870ff"
  },
  "id": 32
}