{
  "abi": [
    {
      "inputs": [
        {
          "internalType": "uint256",
          "name": "groupIndex",
          "type": "uint256"
        }
      ],
      "name": "CoordinatorNotFound",
      "type": "error"
    },
    {
      "inputs": [
        {
          "internalType": "uint256",
          "name": "groupIndex",
          "type": "uint256"
        }
      ],
      "name": "DkgNotInProgress",
      "type": "error"
    },
    {
      "inputs": [
        {
          "internalType": "uint256",
          "name": "groupIndex",
          "type": "uint256"
        },
        {
          "internalType": "int8",
          "name": "phase",
          "type": "int8"
        }
      ],
      "name": "DkgStillInProgress",
      "type": "error"
    },
    {
      "inputs": [
        {
          "internalType": "uint256",
          "name": "groupIndex",
          "type": "uint256"
        },
        {
          "internalType": "uint256",
          "name": "inputGroupEpoch",
          "type": "uint256"
        },
        {
          "internalType": "uint256",
          "name": "currentGroupEpoch",
          "type": "uint256"
        }
      ],
      "name": "EpochMismatch",
      "type": "error"
    },
    {
      "inputs": [
        {
          "internalType": "uint256",
          "name": "groupIndex",
          "type": "uint256"
        }
      ],
      "name": "GroupNotExist",
      "type": "error"
    },
    {
      "inputs": [],
      "name": "InvalidPartialPublicKey",
      "type": "error"
    },
    {
      "inputs": [],
      "name": "InvalidPublicKey",
      "type": "error"
    },
    {
      "inputs": [],
      "name": "NodeAlreadyActive",
      "type": "error"
    },
    {
      "inputs": [],
      "name": "NodeAlreadyRegistered",
      "type": "error"
    },
    {
      "inputs": [
        {
          "internalType": "uint256",
          "name": "groupIndex",
          "type": "uint256"
        },
        {
          "internalType": "address",
          "name": "nodeIdAddress",
          "type": "address"
        }
      ],
      "name": "NodeNotInGroup",
      "type": "error"
    },
    {
      "inputs": [],
      "name": "NodeNotRegistered",
      "type": "error"
    },
    {
      "inputs": [
        {
          "internalType": "uint256",
          "name": "pendingUntilBlock",
          "type": "uint256"
        }
      ],
      "name": "NodeStillPending",
      "type": "error"
    },
    {
      "inputs": [
        {
          "internalType": "uint256",
          "name": "groupIndex",
          "type": "uint256"
        },
        {
          "internalType": "address",
          "name": "nodeIdAddress",
          "type": "address"
        }
      ],
      "name": "PartialKeyAlreadyRegistered",
      "type": "error"
    },
    {
      "inputs": [],
      "name": "SenderNotAdapter",
      "type": "error"
    },
    {
      "anonymous": false,
      "inputs": [
        {
          "indexed": false,
          "internalType": "address",
          "name": "stakingContractAddress",
          "type": "address"
        },
        {
          "indexed": false,
          "internalType": "address",
          "name": "adapterContractAddress",
          "type": "address"
        },
        {
          "indexed": false,
          "internalType": "uint256",
          "name": "nodeStakingAmount",
          "type": "uint256"
        },
        {
          "indexed": false,
          "internalType": "uint256",
          "name": "disqualifiedNodePenaltyAmount",
          "type": "uint256"
        },
        {
          "indexed": false,
          "internalType": "uint256",
          "name": "defaultNumberOfCommitters",
          "type": "uint256"
        },
        {
          "indexed": false,
          "internalType": "uint256",
          "name": "defaultDkgPhaseDuration",
          "type": "uint256"
        },
        {
          "indexed": false,
          "internalType": "uint256",
          "name": "groupMaxCapacity",
          "type": "uint256"
        },
        {
          "indexed": false,
          "internalType": "uint256",
          "name": "idealNumberOfGroups",
          "type": "uint256"
        },
        {
          "indexed": false,
          "internalType": "uint256",
          "name": "pendingBlockAfterQuit",
          "type": "uint256"
        },
        {
          "indexed": false,
          "internalType": "uint256",
          "name": "dkgPostProcessReward",
          "type": "uint256"
        }
      ],
      "name": "ControllerConfigSet",
      "type": "event"
    },
    {
      "anonymous": false,
      "inputs": [
        {
          "indexed": true,
          "internalType": "address",
          "name": "nodeAddress",
          "type": "address"
        },
        {
          "indexed": false,
          "internalType": "bytes",
          "name": "dkgPublicKey",
          "type": "bytes"
        }
      ],
      "name": "DkgPublicKeyChanged",
      "type": "event"
    },
    {
      "anonymous": false,
      "inputs": [
        {
          "indexed": true,
          "internalType": "uint256",
          "name": "globalEpoch",
          "type": "uint256"
        },
        {
          "indexed": true,
          "internalType": "uint256",
          "name": "groupIndex",
          "type": "uint256"
        },
        {
          "indexed": true,
          "internalType": "uint256",
          "name": "groupEpoch",
          "type": "uint256"
        },
        {
          "indexed": false,
          "internalType": "uint256",
          "name": "size",
          "type": "uint256"
        },
        {
          "indexed": false,
          "internalType": "uint256",
          "name": "threshold",
          "type": "uint256"
        },
        {
          "indexed": false,
          "internalType": "address[]",
          "name": "members",
          "type": "address[]"
        },
        {
          "indexed": false,
          "internalType": "uint256",
          "name": "assignmentBlockHeight",
          "type": "uint256"
        },
        {
          "indexed": false,
          "internalType": "address",
          "name": "coordinatorAddress",
          "type": "address"
        }
      ],
      "name": "DkgTask",
      "type": "event"
    },
    {
      "anonymous": false,
      "inputs": [
        {
          "indexed": false,
          "internalType": "uint8",
          "name": "version",
          "type": "uint8"
        }
      ],
      "name": "Initialized",
      "type": "event"
    },
    {
      "anonymous": false,
      "inputs": [
        {
          "indexed": true,
          "internalType": "address",
          "name": "nodeAddress",
          "type": "address"
        },
        {
          "indexed": false,
          "internalType": "uint256",
          "name": "groupIndex",
          "type": "uint256"
        }
      ],
      "name": "NodeActivated",
      "type": "event"
    },
    {
      "anonymous": false,
      "inputs": [
        {
          "indexed": true,
          "internalType": "address",
          "name": "nodeAddress",
          "type": "address"
        }
      ],
      "name": "NodeQuit",
      "type": "event"
    },
    {
      "anonymous": false,
      "inputs": [
        {
          "indexed": true,
          "internalType": "address",
          "name": "nodeAddress",
          "type": "address"
        },
        {
          "indexed": false,
          "internalType": "bytes",
          "name": "dkgPublicKey",
          "type": "bytes"
        },
        {
          "indexed": false,
          "internalType": "uint256",
          "name": "groupIndex",
          "type": "uint256"
        }
      ],
      "name": "NodeRegistered",
      "type": "event"
    },
    {
      "anonymous": false,
      "inputs": [
        {
          "indexed": true,
          "internalType": "address",
          "name": "nodeAddress",
          "type": "address"
        },
        {
          "indexed": false,
          "internalType": "uint256",
          "name": "ethAmount",
          "type": "uint256"
        },
        {
          "indexed": false,
          "internalType": "uint256",
          "name": "arpaAmount",
          "type": "uint256"
        }
      ],
      "name": "NodeRewarded",
      "type": "event"
    },
    {
      "anonymous": false,
      "inputs": [
        {
          "indexed": true,
          "internalType": "address",
          "name": "nodeIdAddress",
          "type": "address"
        },
        {
          "indexed": false,
          "internalType": "uint256",
          "name": "stakingRewardPenalty",
          "type": "uint256"
        },
        {
          "indexed": false,
          "internalType": "uint256",
          "name": "pendingBlock",
          "type": "uint256"
        }
      ],
      "name": "NodeSlashed",
      "type": "event"
    },
    {
      "anonymous": false,
      "inputs": [
        {
          "indexed": true,
          "internalType": "address",
          "name": "previousOwner",
          "type": "address"
        },
        {
          "indexed": true,
          "internalType": "address",
          "name": "newOwner",
          "type": "address"
        }
      ],
      "name": "OwnershipTransferred",
      "type": "event"
    },
    {
      "inputs": [],
      "name": "BALANCE_BASE",
      "outputs": [
        {
          "internalType": "uint16",
          "name": "",
          "type": "uint16"
        }
      ],
      "stateMutability": "view",
      "type": "function"
    },
    {
      "inputs": [
        {
          "internalType": "address[]",
          "name": "nodes",
          "type": "address[]"
        },
        {
          "internalType": "uint256",
          "name": "ethAmount",
          "type": "uint256"
        },
        {
          "internalType": "uint256",
          "name": "arpaAmount",
          "type": "uint256"
        }
      ],
      "name": "addReward",
      "outputs": [],
      "stateMutability": "nonpayable",
      "type": "function"
    },
    {
      "inputs": [
        {
          "internalType": "bytes",
          "name": "dkgPublicKey",
          "type": "bytes"
        }
      ],
      "name": "changeDkgPublicKey",
      "outputs": [],
      "stateMutability": "nonpayable",
      "type": "function"
    },
    {
      "inputs": [
        {
          "components": [
            {
              "internalType": "uint256",
              "name": "groupIndex",
              "type": "uint256"
            },
            {
              "internalType": "uint256",
              "name": "groupEpoch",
              "type": "uint256"
            },
            {
              "internalType": "bytes",
              "name": "publicKey",
              "type": "bytes"
            },
            {
              "internalType": "bytes",
              "name": "partialPublicKey",
              "type": "bytes"
            },
            {
              "internalType": "address[]",
              "name": "disqualifiedNodes",
              "type": "address[]"
            }
          ],
          "internalType": "struct IController.CommitDkgParams",
          "name": "params",
          "type": "tuple"
        }
      ],
      "name": "commitDkg",
      "outputs": [],
      "stateMutability": "nonpayable",
      "type": "function"
    },
    {
      "inputs": [
        {
          "internalType": "address",
          "name": "nodeAddress",
          "type": "address"
        }
      ],
      "name": "getBelongingGroup",
      "outputs": [
        {
          "internalType": "int256",
          "name": "",
          "type": "int256"
        },
        {
          "internalType": "int256",
          "name": "",
          "type": "int256"
        }
      ],
      "stateMutability": "view",
      "type": "function"
    },
    {
      "inputs": [
        {
          "internalType": "uint256",
          "name": "groupIndex",
          "type": "uint256"
        }
      ],
      "name": "getCoordinator",
      "outputs": [
        {
          "internalType": "address",
          "name": "",
          "type": "address"
        }
      ],
      "stateMutability": "view",
      "type": "function"
    },
    {
      "inputs": [
        {
          "internalType": "uint256",
          "name": "groupIndex",
          "type": "uint256"
        }
      ],
      "name": "getGroup",
      "outputs": [
        {
          "components": [
            {
              "internalType": "uint256",
              "name": "index",
              "type": "uint256"
            },
            {
              "internalType": "uint256",
              "name": "epoch",
              "type": "uint256"
            },
            {
              "internalType": "uint256",
              "name": "size",
              "type": "uint256"
            },
            {
              "internalType": "uint256",
              "name": "threshold",
              "type": "uint256"
            },
            {
              "components": [
                {
                  "internalType": "address",
                  "name": "nodeIdAddress",
                  "type": "address"
                },
                {
                  "internalType": "uint256[4]",
                  "name": "partialPublicKey",
                  "type": "uint256[4]"
                }
              ],
              "internalType": "struct IController.Member[]",
              "name": "members",
              "type": "tuple[]"
            },
            {
              "internalType": "address[]",
              "name": "committers",
              "type": "address[]"
            },
            {
              "components": [
                {
                  "internalType": "address[]",
                  "name": "nodeIdAddress",
                  "type": "address[]"
                },
                {
                  "components": [
                    {
                      "internalType": "uint256",
                      "name": "groupEpoch",
                      "type": "uint256"
                    },
                    {
                      "internalType": "uint256[4]",
                      "name": "publicKey",
                      "type": "uint256[4]"
                    },
                    {
                      "internalType": "address[]",
                      "name": "disqualifiedNodes",
                      "type": "address[]"
                    }
                  ],
                  "internalType": "struct IController.CommitResult",
                  "name": "commitResult",
                  "type": "tuple"
                }
              ],
              "internalType": "struct IController.CommitCache[]",
              "name": "commitCacheList",
              "type": "tuple[]"
            },
            {
              "internalType": "bool",
              "name": "isStrictlyMajorityConsensusReached",
              "type": "bool"
            },
            {
              "internalType": "uint256[4]",
              "name": "publicKey",
              "type": "uint256[4]"
            }
          ],
          "internalType": "struct IController.Group",
          "name": "",
          "type": "tuple"
        }
      ],
      "stateMutability": "view",
      "type": "function"
    },
    {
      "inputs": [],
      "name": "getGroupCount",
      "outputs": [
        {
          "internalType": "uint256",
          "name": "",
          "type": "uint256"
        }
      ],
      "stateMutability": "view",
      "type": "function"
    },
    {
      "inputs": [
        {
          "internalType": "uint256",
          "name": "groupIndex",
          "type": "uint256"
        }
      ],
      "name": "getGroupThreshold",
      "outputs": [
        {
          "internalType": "uint256",
          "name": "",
          "type": "uint256"
        },
        {
          "internalType": "uint256",
          "name": "",
          "type": "uint256"
        }
      ],
      "stateMutability": "view",
      "type": "function"
    },
    {
      "inputs": [],
      "name": "getLastOutput",
      "outputs": [
        {
          "internalType": "uint256",
          "name": "",
          "type": "uint256"
        }
      ],
      "stateMutability": "view",
      "type": "function"
    },
    {
      "inputs": [
        {
          "internalType": "uint256",
          "name": "groupIndex",
          "type": "uint256"
        },
        {
          "internalType": "uint256",
          "name": "memberIndex",
          "type": "uint256"
        }
      ],
      "name": "getMember",
      "outputs": [
        {
          "components": [
            {
              "internalType": "address",
              "name": "nodeIdAddress",
              "type": "address"
            },
            {
              "internalType": "uint256[4]",
              "name": "partialPublicKey",
              "type": "uint256[4]"
            }
          ],
          "internalType": "struct IController.Member",
          "name": "",
          "type": "tuple"
        }
      ],
      "stateMutability": "view",
      "type": "function"
    },
    {
      "inputs": [
        {
          "internalType": "address",
          "name": "nodeAddress",
          "type": "address"
        }
      ],
      "name": "getNode",
      "outputs": [
        {
          "components": [
            {
              "internalType": "address",
              "name": "idAddress",
              "type": "address"
            },
            {
              "internalType": "bytes",
              "name": "dkgPublicKey",
              "type": "bytes"
            },
            {
              "internalType": "bool",
              "name": "state",
              "type": "bool"
            },
            {
              "internalType": "uint256",
              "name": "pendingUntilBlock",
              "type": "uint256"
            }
          ],
          "internalType": "struct IController.Node",
          "name": "",
          "type": "tuple"
        }
      ],
      "stateMutability": "view",
      "type": "function"
    },
    {
      "inputs": [
        {
          "internalType": "address",
          "name": "nodeAddress",
          "type": "address"
        }
      ],
      "name": "getNodeWithdrawableTokens",
      "outputs": [
        {
          "internalType": "uint256",
          "name": "",
          "type": "uint256"
        },
        {
          "internalType": "uint256",
          "name": "",
          "type": "uint256"
        }
      ],
      "stateMutability": "view",
      "type": "function"
    },
    {
      "inputs": [],
      "name": "getValidGroupIndices",
      "outputs": [
        {
          "internalType": "uint256[]",
          "name": "",
          "type": "uint256[]"
        }
      ],
      "stateMutability": "view",
      "type": "function"
    },
    {
      "inputs": [
        {
          "internalType": "address",
          "name": "arpa",
          "type": "address"
        },
        {
          "internalType": "uint256",
          "name": "lastOutput",
          "type": "uint256"
        }
      ],
      "name": "initialize",
      "outputs": [],
      "stateMutability": "nonpayable",
      "type": "function"
    },
    {
      "inputs": [
        {
          "internalType": "uint256",
          "name": "groupIndex",
          "type": "uint256"
        },
        {
          "internalType": "address",
          "name": "nodeIdAddress",
          "type": "address"
        }
      ],
      "name": "isPartialKeyRegistered",
      "outputs": [
        {
          "internalType": "bool",
          "name": "",
          "type": "bool"
        }
      ],
      "stateMutability": "view",
      "type": "function"
    },
    {
      "inputs": [],
      "name": "nodeActivate",
      "outputs": [],
      "stateMutability": "nonpayable",
      "type": "function"
    },
    {
      "inputs": [],
      "name": "nodeQuit",
      "outputs": [],
      "stateMutability": "nonpayable",
      "type": "function"
    },
    {
      "inputs": [
        {
          "internalType": "bytes",
          "name": "dkgPublicKey",
          "type": "bytes"
        }
      ],
      "name": "nodeRegister",
      "outputs": [],
      "stateMutability": "nonpayable",
      "type": "function"
    },
    {
      "inputs": [
        {
          "internalType": "address",
          "name": "recipient",
          "type": "address"
        }
      ],
      "name": "nodeWithdraw",
      "outputs": [],
      "stateMutability": "nonpayable",
      "type": "function"
    },
    {
      "inputs": [],
      "name": "owner",
      "outputs": [
        {
          "internalType": "address",
          "name": "",
          "type": "address"
        }
      ],
      "stateMutability": "view",
      "type": "function"
    },
    {
      "inputs": [
        {
          "internalType": "uint256",
          "name": "groupIndex",
          "type": "uint256"
        },
        {
          "internalType": "uint256",
          "name": "groupEpoch",
          "type": "uint256"
        }
      ],
      "name": "postProcessDkg",
      "outputs": [],
      "stateMutability": "nonpayable",
      "type": "function"
    },
    {
      "inputs": [],
      "name": "renounceOwnership",
      "outputs": [],
      "stateMutability": "nonpayable",
      "type": "function"
    },
    {
      "inputs": [
        {
          "internalType": "address",
          "name": "stakingContractAddress",
          "type": "address"
        },
        {
          "internalType": "address",
          "name": "adapterContractAddress",
          "type": "address"
        },
        {
          "internalType": "uint256",
          "name": "nodeStakingAmount",
          "type": "uint256"
        },
        {
          "internalType": "uint256",
          "name": "disqualifiedNodePenaltyAmount",
          "type": "uint256"
        },
        {
          "internalType": "uint256",
          "name": "defaultNumberOfCommitters",
          "type": "uint256"
        },
        {
          "internalType": "uint256",
          "name": "defaultDkgPhaseDuration",
          "type": "uint256"
        },
        {
          "internalType": "uint256",
          "name": "groupMaxCapacity",
          "type": "uint256"
        },
        {
          "internalType": "uint256",
          "name": "idealNumberOfGroups",
          "type": "uint256"
        },
        {
          "internalType": "uint256",
          "name": "pendingBlockAfterQuit",
          "type": "uint256"
        },
        {
          "internalType": "uint256",
          "name": "dkgPostProcessReward",
          "type": "uint256"
        }
      ],
      "name": "setControllerConfig",
      "outputs": [],
      "stateMutability": "nonpayable",
      "type": "function"
    },
    {
      "inputs": [
        {
          "internalType": "uint256",
          "name": "lastOutput",
          "type": "uint256"
        }
      ],
      "name": "setLastOutput",
      "outputs": [],
      "stateMutability": "nonpayable",
      "type": "function"
    },
    {
      "inputs": [
        {
          "internalType": "address",
          "name": "newOwner",
          "type": "address"
        }
      ],
      "name": "transferOwnership",
      "outputs": [],
      "stateMutability": "nonpayable",
      "type": "function"
    }
  ],
  "bytecode": {
    "object": "0x608060405234801561001057600080fd5b50615e9c806100206000396000f3fe60806040523480156200001157600080fd5b5060043610620001af5760003560e01c80638da5cb5b11620000f0578063cd6dc68711620000a3578063e37eb96c116200007a578063e37eb96c1462000400578063f2fde38b1462000417578063f3df0802146200042e578063f49e0ba9146200044557600080fd5b8063cd6dc68714620003ac578063ceb6065414620003c3578063e275cde614620003e957600080fd5b80638da5cb5b1462000312578063914eb34d14620003245780639a075bc3146200033b5780639d2090481462000345578063b330a0fd146200036b578063c2db900b146200038457600080fd5b806342424d6f116200016657806351a2b9a0116200013d57806351a2b9a014620002de578063715018a614620002e75780637a2af56e14620002f157806380110e4e14620002fb57600080fd5b806342424d6f146200025c5780634d79a89314620002a15780634ecea80d14620002c757600080fd5b806306545a9314620001b45780630bf9c5c614620001cb578063227d0f4614620001e45780632ff9e520146200021157806336cbac1114620002285780633b6c00b01462000245575b600080fd5b6072545b6040519081526020015b60405180910390f35b620001e2620001dc36600462003941565b62000473565b005b620001fb620001f53660046200397a565b6200090b565b60408051928352602083019190915201620001c2565b620001e262000222366004620039a1565b620009b4565b62000231600181565b60405161ffff9091168152602001620001c2565b620001fb620002563660046200397a565b62000b41565b620002886200026d36600462003a24565b6000908152607060205260409020546001600160a01b031690565b6040516001600160a01b039091168152602001620001c2565b620002b8620002b236600462003941565b62000bcb565b604051620001c2919062003a85565b620001e2620002d83660046200397a565b62000c68565b607754620001b8565b620001e262000d70565b620001e262000d88565b620001e26200030c36600462003a95565b62000f3b565b6033546001600160a01b031662000288565b620001e26200033536600462003c23565b62001280565b620001e2620013f1565b6200035c620003563660046200397a565b6200169b565b604051620001c2919062003cc8565b62000375620017bf565b604051620001c2919062003d1a565b6200039b6200039536600462003d60565b62001842565b6040519015158152602001620001c2565b620001e2620003bd36600462003d93565b62001c0e565b620003da620003d436600462003a24565b62001d49565b604051620001c2919062003eef565b620001e2620003fa36600462003a95565b62002067565b620001e26200041136600462004023565b62002239565b620001e2620004283660046200397a565b62002a15565b620001e26200043f36600462003a24565b62002a94565b620001fb6200045636600462003a24565b600090815260736020526040902060038101546002909101549091565b60725482106200049e57604051637f6efcb560e11b8152600481018390526024015b60405180910390fd5b6040516358914d0360e01b8152607160048201526024810183905233604482015273__$99f6e31d9157e72684c1fb13c20fb01510$__906358914d0390606401602060405180830381865af4158015620004fc573d6000803e3d6000fd5b505050506040513d601f19601f82011682018060405250810190620005229190620040f9565b196200054b5760405163eb51f5f960e01b81526004810183905233602482015260440162000495565b6000828152607360205260409020600181015482146200059657600181015460405163048b63c360e11b81526004810185905260248101849052604481019190915260640162000495565b6000838152607060205260409020546001600160a01b0316620005d057604051635291bbcf60e01b81526004810184905260240162000495565b60008381526070602090815260409182902054825163221f951160e01b815292516001600160a01b0390911692839263221f9511926004808401938290030181865afa15801562000625573d6000803e3d6000fd5b505050506040513d601f19601f820116820180604052508101906200064b919062004113565b60000b60001914620006e35783816001600160a01b031663221f95116040518163ffffffff1660e01b8152600401602060405180830381865afa15801562000697573d6000803e3d6000fd5b505050506040513d601f19601f82011682018060405250810190620006bd919062004113565b60405163f7c06f9160e01b8152600481019290925260000b602482015260440162000495565b806001600160a01b0316639cb8a26a6040518163ffffffff1660e01b8152600401600060405180830381600087803b1580156200071f57600080fd5b505af115801562000734573d6000803e3d6000fd5b505050600085815260706020526040902080546001600160a01b031916905550600782015460ff166200089657607754604051630295316d60e51b815260716004820152602481018690526044810191909152600090819073__$99f6e31d9157e72684c1fb13c20fb01510$__906352a62da090606401600060405180830381865af4158015620007c9573d6000803e3d6000fd5b505050506040513d6000823e601f3d908101601f19168201604052620007f3919081019062004207565b9150915060005b82518110156200084857620008338382815181106200081d576200081d62004271565b6020026020010151606560030154600062002ac5565b806200083f816200429d565b915050620007fa565b5060005b815181101562000892576200087d8282815181106200086f576200086f62004271565b602002602001015162002b82565b8062000889816200429d565b9150506200084c565b5050505b606b54336000908152606f602052604081208054909190620008ba908490620042b9565b9091555050606b5460405133917f8353a804115421789f3ab2eeb3f5215943906ce12100c91d40fc865caf742b6f91620008fd9160008252602082015260400190565b60405180910390a250505050565b6001600160a01b0381166000908152606e602052604081205481901562000959576001600160a01b0383166000908152606e60205260409020546200095390600190620042cf565b6200095c565b60005b6001600160a01b0384166000908152606f602052604090205415620009a8576001600160a01b0384166000908152606f6020526040902054620009a290600190620042cf565b620009ab565b60005b91509150915091565b620009be620031f3565b6040805160e0810182526001600160a01b038c8116808352908c16602083018190528284018c9052606083018b90526080830189905260a0830186905260c0909201849052606580546001600160a01b03199081169092179055606680549091169091179055606789905560688890556069869055606a839055606b829055516301a79f6360e71b81526071600482015260248101849052604481018590526064810187905273__$99f6e31d9157e72684c1fb13c20fb01510$__9063d3cfb1809060840160006040518083038186803b15801562000a9c57600080fd5b505af415801562000ab1573d6000803e3d6000fd5b5050604080516001600160a01b03808f1682528d1660208201529081018b9052606081018a90526080810189905260a0810188905260c0810187905260e08101869052610100810185905261012081018490527f3202ca2a288846b65f27bc3e13c1e38aaf2e4356b80b963d67aea8a822645e1f925061014001905060405180910390a150505050505050505050565b60405163787c576760e01b8152607160048201526001600160a01b0382166024820152600090819073__$99f6e31d9157e72684c1fb13c20fb01510$__9063787c5767906044016040805180830381865af415801562000ba5573d6000803e3d6000fd5b505050506040513d601f19601f82011682018060405250810190620009ab9190620042e5565b62000bd56200374d565b600083815260736020526040902060040180548390811062000bfb5762000bfb62004271565b6000918252602091829020604080518082018252600590930290910180546001600160a01b0316835281516080810190925291928301906001830160048282826020028201915b81548152602001906001019080831162000c425750505050508152505090505b92915050565b336000908152606e6020908152604080832054606f90925290912054600182111562000d2557336000908152606e602052604090206001908190556066546001600160a01b031690630ad98f6a90859062000cc49086620042cf565b6040516001600160e01b031960e085901b1681526001600160a01b0390921660048301526024820152604401600060405180830381600087803b15801562000d0b57600080fd5b505af115801562000d20573d6000803e3d6000fd5b505050505b600181111562000d6b57336000908152606f6020526040902060019081905562000d6b90849062000d579084620042cf565b606c546001600160a01b031691906200324f565b505050565b62000d7a620031f3565b62000d866000620032a3565b565b336000818152606d60205260409020805490916001600160a01b039091161462000dc4576040516229eaad60e31b815260040160405180910390fd5b60775460405163a6ae8a8160e01b815260716004820152336024820152604481019190915260009073__$99f6e31d9157e72684c1fb13c20fb01510$__9063a6ae8a8190606401600060405180830381865af415801562000e29573d6000803e3d6000fd5b505050506040513d6000823e601f3d908101601f1916820160405262000e5391908101906200430a565b905060005b815181101562000e905762000e7b8282815181106200086f576200086f62004271565b8062000e87816200429d565b91505062000e58565b5062000ea233606560050154620032f5565b606554606754604051637eee288d60e01b815233600482015260248101919091526001600160a01b0390911690637eee288d90604401600060405180830381600087803b15801562000ef357600080fd5b505af115801562000f08573d6000803e3d6000fd5b50506040513392507f68577adbb6b0647e21353ff032be5797d9fa0879ce7e05fe617e40368441f97d9150600090a25050565b336000908152606d60205260409020546001600160a01b03161562000f7357604051630eb0d31360e11b815260040160405180910390fd5b6040516316f6db8160e01b815260009073__$34d23ddaee48904c6c566425acbfa0fc0e$__906316f6db819062000fb190869086906004016200436b565b608060405180830381865af415801562000fcf573d6000803e3d6000fd5b505050506040513d601f19601f8201168201806040525081019062000ff5919062004381565b604051636fda2c7960e01b815290915073__$34d23ddaee48904c6c566425acbfa0fc0e$__90636fda2c79906200103190849060040162004406565b602060405180830381865af41580156200104f573d6000803e3d6000fd5b505050506040513d601f19601f820116820180604052508101906200107591906200442c565b620010935760405163145a1fdd60e31b815260040160405180910390fd5b60655460675460405163282d3fdf60e01b815233600482015260248101919091526001600160a01b039091169063282d3fdf90604401600060405180830381600087803b158015620010e457600080fd5b505af1158015620010f9573d6000803e3d6000fd5b5050336000818152606d6020526040902080546001600160a01b0319169091178155915050600181016200112f848683620044d0565b5060028101805460ff19166001908117909155336000818152606e60209081526040808320859055606f909152808220939093556077549251629bf68360e11b81526071600482015260248101929092526044820192909252819073__$99f6e31d9157e72684c1fb13c20fb01510$__90630137ed0690606401600060405180830381865af4158015620011c7573d6000803e3d6000fd5b505050506040513d6000823e601f3d908101601f19168201604052620011f191908101906200459d565b9150915060005b815181101562001230576200121b8282815181106200086f576200086f62004271565b8062001227816200429d565b915050620011f8565b50336001600160a01b03167fd4ec586f4f9f417f99e20fe821fbaa10a10a4b95f8712a0c57c6d8ed970e98bd8787856040516200127093929190620045dd565b60405180910390a2505050505050565b6066546001600160a01b03163314620012ac5760405163469666c560e01b815260040160405180910390fd5b60005b8351811015620013eb5782606e6000868481518110620012d357620012d362004271565b60200260200101516001600160a01b03166001600160a01b0316815260200190815260200160002060008282546200130c9190620042b9565b9250508190555081606f60008684815181106200132d576200132d62004271565b60200260200101516001600160a01b03166001600160a01b031681526020019081526020016000206000828254620013669190620042b9565b9250508190555083818151811062001382576200138262004271565b60200260200101516001600160a01b03167f8353a804115421789f3ab2eeb3f5215943906ce12100c91d40fc865caf742b6f8484604051620013ce929190918252602082015260400190565b60405180910390a280620013e2816200429d565b915050620012af565b50505050565b336000818152606d60205260409020805490916001600160a01b03909116146200142d576040516229eaad60e31b815260040160405180910390fd5b600281015460ff161562001454576040516324a228bb60e21b815260040160405180910390fd5b4381600301541115620014835780600301546040516363525acb60e11b81526004016200049591815260200190565b60655460405163929ec53760e01b81523360048201526000916001600160a01b03169063929ec53790602401602060405180830381865afa158015620014cd573d6000803e3d6000fd5b505050506040513d601f19601f82011682018060405250810190620014f39190620040f9565b60675490915081101562001589576065546067546001600160a01b039091169063282d3fdf90339062001528908590620042cf565b6040516001600160e01b031960e085901b1681526001600160a01b0390921660048301526024820152604401600060405180830381600087803b1580156200156f57600080fd5b505af115801562001584573d6000803e3d6000fd5b505050505b60028201805460ff19166001179055607754604051629bf68360e11b8152607160048201523360248201526044810191909152600090819073__$99f6e31d9157e72684c1fb13c20fb01510$__90630137ed0690606401600060405180830381865af4158015620015fe573d6000803e3d6000fd5b505050506040513d6000823e601f3d908101601f191682016040526200162891908101906200459d565b9150915060005b81518110156200166757620016528282815181106200086f576200086f62004271565b806200165e816200429d565b9150506200162f565b5060405182815233907ffc97cd9154b40031874ef09a9436a4b60052e4dcf40f21b1258be265fac4a39790602001620008fd565b620016d2604051806080016040528060006001600160a01b0316815260200160608152602001600015158152602001600081525090565b6001600160a01b038083166000908152606d6020908152604091829020825160808101909352805490931682526001830180549293929184019162001717906200444a565b80601f016020809104026020016040519081016040528092919081815260200182805462001745906200444a565b8015620017965780601f106200176a5761010080835404028352916020019162001796565b820191906000526020600020905b8154815290600101906020018083116200177857829003601f168201915b5050509183525050600282015460ff161515602082015260039091015460409091015292915050565b604051631c2da66560e31b81526071600482015260609073__$99f6e31d9157e72684c1fb13c20fb01510$__9063e16d332890602401600060405180830381865af415801562001813573d6000803e3d6000fd5b505050506040513d6000823e601f3d908101601f191682016040526200183d91908101906200430a565b905090565b6000828152607360209081526040808320815161012081018352815481526001820154818501526002820154818401526003820154606082015260048201805484518187028101870190955280855286959294608086019390929190879084015b828210156200191f5760008481526020908190206040805180820182526005860290920180546001600160a01b0316835281516080810190925291928301906001830160048282826020028201915b815481526020019060010190808311620018f25750505050508152505081526020019060010190620018a3565b505050508152602001600582018054806020026020016040519081016040528092919081815260200182805480156200198257602002820191906000526020600020905b81546001600160a01b0316815260019091019060200180831162001963575b5050505050815260200160068201805480602002602001604051908101604052809291908181526020016000905b8282101562001b0057838290600052602060002090600702016040518060400160405290816000820180548060200260200160405190810160405280929190818152602001828054801562001a2f57602002820191906000526020600020905b81546001600160a01b0316815260019091019060200180831162001a10575b50505091835250506040805160608101825260018401805482528251608081019384905260209485019492939192840191600287019060049082845b81548152602001906001019080831162001a6b57505050505081526020016005820180548060200260200160405190810160405280929190818152602001828054801562001ae357602002820191906000526020600020905b81546001600160a01b0316815260019091019060200180831162001ac4575b5050505050815250508152505081526020019060010190620019b0565b50505090825250600782015460ff1615156020820152604080516080810182529101906008830160048282826020028201915b81548152602001906001019080831162001b3357505050505081525050905060005b81608001515181101562001c0357836001600160a01b03168260800151828151811062001b865762001b8662004271565b6020026020010151600001516001600160a01b03160362001bee578160800151818151811062001bba5762001bba62004271565b60200260200101516020015160006004811062001bdb5762001bdb62004271565b6020020151600014159250505062000c62565b8062001bfa816200429d565b91505062001b55565b506000949350505050565b600054610100900460ff161580801562001c2f5750600054600160ff909116105b8062001c4b5750303b15801562001c4b575060005460ff166001145b62001cb05760405162461bcd60e51b815260206004820152602e60248201527f496e697469616c697a61626c653a20636f6e747261637420697320616c72656160448201526d191e481a5b9a5d1a585b1a5e995960921b606482015260840162000495565b6000805460ff19166001179055801562001cd4576000805461ff0019166101001790555b606c80546001600160a01b0319166001600160a01b038516179055607782905562001cfe6200338d565b801562000d6b576000805461ff0019169055604051600181527f7f26b83ff96e1f2b6a682f133852f6798a09c465da95921460cefb38474024989060200160405180910390a1505050565b62001d5362003777565b60008281526073602090815260408083208151610120810183528154815260018201548185015260028201548184015260038201546060820152600482018054845181870281018701909552808552919592946080870194939192919084015b8282101562001e2f5760008481526020908190206040805180820182526005860290920180546001600160a01b0316835281516080810190925291928301906001830160048282826020028201915b81548152602001906001019080831162001e02575050505050815250508152602001906001019062001db3565b5050505081526020016005820180548060200260200160405190810160405280929190818152602001828054801562001e9257602002820191906000526020600020905b81546001600160a01b0316815260019091019060200180831162001e73575b5050505050815260200160068201805480602002602001604051908101604052809291908181526020016000905b828210156200201057838290600052602060002090600702016040518060400160405290816000820180548060200260200160405190810160405280929190818152602001828054801562001f3f57602002820191906000526020600020905b81546001600160a01b0316815260019091019060200180831162001f20575b50505091835250506040805160608101825260018401805482528251608081019384905260209485019492939192840191600287019060049082845b81548152602001906001019080831162001f7b57505050505081526020016005820180548060200260200160405190810160405280929190818152602001828054801562001ff357602002820191906000526020600020905b81546001600160a01b0316815260019091019060200180831162001fd4575b505050505081525050815250508152602001906001019062001ec0565b50505090825250600782015460ff1615156020820152604080516080810182529101906008830160048282826020028201915b81548152602001906001019080831162002043575050505050815250509050919050565b336000818152606d60205260409020805490916001600160a01b0390911614620020a3576040516229eaad60e31b815260040160405180910390fd5b600281015460ff1615620020ca576040516324a228bb60e21b815260040160405180910390fd5b6040516316f6db8160e01b815260009073__$34d23ddaee48904c6c566425acbfa0fc0e$__906316f6db81906200210890879087906004016200436b565b608060405180830381865af415801562002126573d6000803e3d6000fd5b505050506040513d601f19601f820116820180604052508101906200214c919062004381565b604051636fda2c7960e01b815290915073__$34d23ddaee48904c6c566425acbfa0fc0e$__90636fda2c79906200218890849060040162004406565b602060405180830381865af4158015620021a6573d6000803e3d6000fd5b505050506040513d601f19601f82011682018060405250810190620021cc91906200442c565b620021ea5760405163145a1fdd60e31b815260040160405180910390fd5b60018201620021fb848683620044d0565b50336001600160a01b03167f4a327ac4843af7a9586b5a2a2c312bd17289ae1d70da32855ed539fe39f86a508585604051620008fd9291906200436b565b60725481511062002264578051604051637f6efcb560e11b8152600481019190915260240162000495565b80516000908152607060205260409020546001600160a01b0316620022a3578051604051635291bbcf60e01b8152600481019190915260240162000495565b805160009081526070602090815260409182902054825163221f951160e01b815292516001600160a01b0390911692839263221f9511926004808401938290030181865afa158015620022fa573d6000803e3d6000fd5b505050506040513d601f19601f8201168201806040525081019062002320919062004113565b60000b19620023495781516040516343609fe160e01b8152600481019190915260240162000495565b81516000908152607360209081526040909120600181015491840151909114620023a45782516020840151600183015460405163048b63c360e11b815260048101939093526024830191909152604482015260640162000495565b82516040516358914d0360e01b815260716004820152602481019190915233604482015273__$99f6e31d9157e72684c1fb13c20fb01510$__906358914d0390606401602060405180830381865af415801562002405573d6000803e3d6000fd5b505050506040513d601f19601f820116820180604052508101906200242b9190620040f9565b196200245757825160405163eb51f5f960e01b8152600481019190915233602482015260440162000495565b825162002465903362001842565b156200249157825160405163173ca10960e31b8152600481019190915233602482015260440162000495565b60608301516040516316f6db8160e01b815260009173__$34d23ddaee48904c6c566425acbfa0fc0e$__916316f6db8191620024d09160040162004603565b608060405180830381865af4158015620024ee573d6000803e3d6000fd5b505050506040513d601f19601f8201168201806040525081019062002514919062004381565b604051636fda2c7960e01b815290915073__$34d23ddaee48904c6c566425acbfa0fc0e$__90636fda2c79906200255090849060040162004406565b602060405180830381865af41580156200256e573d6000803e3d6000fd5b505050506040513d601f19601f820116820180604052508101906200259491906200442c565b620025b257604051631886185760e01b815260040160405180910390fd5b60408085015190516316f6db8160e01b815260009173__$34d23ddaee48904c6c566425acbfa0fc0e$__916316f6db8191620025f19160040162004603565b608060405180830381865af41580156200260f573d6000803e3d6000fd5b505050506040513d601f19601f8201168201806040525081019062002635919062004381565b604051636fda2c7960e01b815290915073__$34d23ddaee48904c6c566425acbfa0fc0e$__90636fda2c79906200267190849060040162004406565b602060405180830381865af41580156200268f573d6000803e3d6000fd5b505050506040513d601f19601f82011682018060405250810190620026b591906200442c565b620026d35760405163145a1fdd60e31b815260040160405180910390fd5b604080516060810182526020808801518252810183905260808701518183015286519151636aba6eeb60e11b8152909173__$99f6e31d9157e72684c1fb13c20fb01510$__9163d574ddd691620027339160719190869060040162004618565b602060405180830381865af415801562002751573d6000803e3d6000fd5b505050506040513d601f19601f820116820180604052508101906200277791906200442c565b6200285e57604080516001818301818152608083019093526000928291606083016020803683375050508152602001839052805180519192503391600090620027c457620027c462004271565b6001600160a01b039092166020928302919091018201526006860180546001810182556000918252908290208351805185946007909402909201926200281092849290910190620037c7565b506020828101518051600184019081559181015190919062002839906002850190600462003831565b506040820151805162002857916005840191602090910190620037c7565b5050505050505b85516040516358914d0360e01b815260716004808301919091526024820192909252336044820152849186019073__$99f6e31d9157e72684c1fb13c20fb01510$__906358914d0390606401602060405180830381865af4158015620028c8573d6000803e3d6000fd5b505050506040513d601f19601f82011682018060405250810190620028ee9190620040f9565b8154811062002901576200290162004271565b90600052602060002090600502016001019060046200292292919062003831565b50600784015460ff1662002a0d57855160775460405163449cf2fd60e11b81526071600482015260248101929092526044820152600090819073__$99f6e31d9157e72684c1fb13c20fb01510$__90638939e5fa90606401600060405180830381865af415801562002998573d6000803e3d6000fd5b505050506040513d6000823e601f3d908101601f19168201604052620029c29190810190620046a3565b91509150811562002a0a5760005b815181101562002a0857620029f38282815181106200081d576200081d62004271565b80620029ff816200429d565b915050620029d0565b505b50505b505050505050565b62002a1f620031f3565b6001600160a01b03811662002a865760405162461bcd60e51b815260206004820152602660248201527f4f776e61626c653a206e6577206f776e657220697320746865207a65726f206160448201526564647265737360d01b606482015260840162000495565b62002a9181620032a3565b50565b6066546001600160a01b0316331462002ac05760405163469666c560e01b815260040160405180910390fd5b607755565b606554604051638899fdeb60e01b81526001600160a01b0385811660048301526024820185905290911690638899fdeb90604401600060405180830381600087803b15801562002b1457600080fd5b505af115801562002b29573d6000803e3d6000fd5b5050505062002b398382620032f5565b60408051838152602081018390526001600160a01b038516917fa8d720d0a0a2e7c96bf9eb87433901ebb6331356c8f3283b2568de34478703cc910160405180910390a2505050565b62002b8f607182620033c1565b60008181526073602090815260408083208151610120810183528154815260018201548185015260028201548184015260038201546060820152600482018054845181870281018701909552808552919492936080860193909290879084015b8282101562002c6b5760008481526020908190206040805180820182526005860290920180546001600160a01b0316835281516080810190925291928301906001830160048282826020028201915b81548152602001906001019080831162002c3e575050505050815250508152602001906001019062002bef565b5050505081526020016005820180548060200260200160405190810160405280929190818152602001828054801562002cce57602002820191906000526020600020905b81546001600160a01b0316815260019091019060200180831162002caf575b5050505050815260200160068201805480602002602001604051908101604052809291908181526020016000905b8282101562002e4c57838290600052602060002090600702016040518060400160405290816000820180548060200260200160405190810160405280929190818152602001828054801562002d7b57602002820191906000526020600020905b81546001600160a01b0316815260019091019060200180831162002d5c575b50505091835250506040805160608101825260018401805482528251608081019384905260209485019492939192840191600287019060049082845b81548152602001906001019080831162002db757505050505081526020016005820180548060200260200160405190810160405280929190818152602001828054801562002e2f57602002820191906000526020600020905b81546001600160a01b0316815260019091019060200180831162002e10575b505050505081525050815250508152602001906001019062002cfc565b50505090825250600782015460ff1615156020820152604080516080810182529101906008830160048282826020028201915b81548152602001906001019080831162002e7f5750505050508152505090506000816060015160656004015460405162002eb99062003862565b9182526020820152604001604051809103906000f08015801562002ee1573d6000803e3d6000fd5b5060008481526070602052604080822080546001600160a01b0319166001600160a01b038516179055840151919250906001600160401b0381111562002f2b5762002f2b62003b0b565b60405190808252806020026020018201604052801562002f55578160200160208202803683370190505b509050600083604001516001600160401b0381111562002f795762002f7962003b0b565b60405190808252806020026020018201604052801562002fae57816020015b606081526020019060019003908162002f985790505b50905060005b84604001518110156200312e578460800151818151811062002fda5762002fda62004271565b60200260200101516000015183828151811062002ffb5762002ffb62004271565b60200260200101906001600160a01b031690816001600160a01b031681525050606d60008660800151838151811062003038576200303862004271565b6020026020010151600001516001600160a01b03166001600160a01b03168152602001908152602001600020600101805462003074906200444a565b80601f0160208091040260200160405190810160405280929190818152602001828054620030a2906200444a565b8015620030f35780601f10620030c757610100808354040283529160200191620030f3565b820191906000526020600020905b815481529060010190602001808311620030d557829003601f168201915b50505050508282815181106200310d576200310d62004271565b6020026020010181905250808062003125906200429d565b91505062002fb4565b506040516337f8d5ff60e01b81526001600160a01b038416906337f8d5ff906200315f9085908590600401620046ec565b600060405180830381600087803b1580156200317a57600080fd5b505af11580156200318f573d6000803e3d6000fd5b50505050836020015184600001516071600001547fbbd25d64683f157b2e3544d3d6430e14102db1e49592cf4dcaf827e2ded517ee8760400151886060015187438a604051620031e495949392919062004764565b60405180910390a45050505050565b6033546001600160a01b0316331462000d865760405162461bcd60e51b815260206004820181905260248201527f4f776e61626c653a2063616c6c6572206973206e6f7420746865206f776e6572604482015260640162000495565b604080516001600160a01b038416602482015260448082018490528251808303909101815260649091019091526020810180516001600160e01b031663a9059cbb60e01b17905262000d6b9084906200349c565b603380546001600160a01b038381166001600160a01b0319831681179093556040519116919082907f8be0079c531659141344cd1fd0a4f28419497f9722a3daafe3b4186f6b6457e090600090a35050565b6001600160a01b0382166000908152606d6020526040902060028101805460ff1916905560030154439081101562003360576001600160a01b0383166000908152606d60205260408120600301805484929062003354908490620042b9565b9091555062000d6b9050565b6200336c8282620042b9565b6001600160a01b0384166000908152606d6020526040902060030155505050565b600054610100900460ff16620033b75760405162461bcd60e51b81526004016200049590620047a7565b62000d8662003575565b8154826000620033d1836200429d565b9091555050600081815260028301602052604081206001810180549192620033f9836200429d565b909155505060078101805460ff191690556200341a60058201600062003870565b6200342a60068201600062003890565b60005b6004820154811015620013eb5781600401818154811062003452576200345262004271565b906000526020600020906005020160010160006200348791905060008155600101600081556001016000815560010160009055565b8062003493816200429d565b9150506200342d565b6000620034f3826040518060400160405280602081526020017f5361666545524332303a206c6f772d6c6576656c2063616c6c206661696c6564815250856001600160a01b0316620035aa9092919063ffffffff16565b80519091501562000d6b57808060200190518101906200351491906200442c565b62000d6b5760405162461bcd60e51b815260206004820152602a60248201527f5361666545524332303a204552433230206f7065726174696f6e20646964206e6044820152691bdd081cdd58d8d9595960b21b606482015260840162000495565b600054610100900460ff166200359f5760405162461bcd60e51b81526004016200049590620047a7565b62000d8633620032a3565b6060620035bb8484600085620035c3565b949350505050565b606082471015620036265760405162461bcd60e51b815260206004820152602660248201527f416464726573733a20696e73756666696369656e742062616c616e636520666f6044820152651c8818d85b1b60d21b606482015260840162000495565b600080866001600160a01b03168587604051620036449190620047f2565b60006040518083038185875af1925050503d806000811462003683576040519150601f19603f3d011682016040523d82523d6000602084013e62003688565b606091505b50915091506200369b87838387620036a6565b979650505050505050565b606083156200371a57825160000362003712576001600160a01b0385163b620037125760405162461bcd60e51b815260206004820152601d60248201527f416464726573733a2063616c6c20746f206e6f6e2d636f6e7472616374000000604482015260640162000495565b5081620035bb565b620035bb8383815115620037315781518083602001fd5b8060405162461bcd60e51b815260040162000495919062004603565b604051806040016040528060006001600160a01b0316815260200162003772620038b3565b905290565b6040518061012001604052806000815260200160008152602001600081526020016000815260200160608152602001606081526020016060815260200160001515815260200162003772620038b3565b8280548282559060005260206000209081019282156200381f579160200282015b828111156200381f57825182546001600160a01b0319166001600160a01b03909116178255602090920191600190910190620037e8565b506200382d929150620038d1565b5090565b82600481019282156200381f579160200282015b828111156200381f57825182559160200191906001019062003845565b611656806200481183390190565b508054600082559060005260206000209081019062002a919190620038d1565b508054600082556007029060005260206000209081019062002a919190620038e8565b60405180608001604052806004906020820280368337509192915050565b5b808211156200382d5760008155600101620038d2565b808211156200382d576000620038ff828262003870565b60006001830181815560028401829055600384018290556004840182905560058401829055906200393560058301600062003870565b505050600701620038e8565b600080604083850312156200395557600080fd5b50508035926020909101359150565b6001600160a01b038116811462002a9157600080fd5b6000602082840312156200398d57600080fd5b81356200399a8162003964565b9392505050565b6000806000806000806000806000806101408b8d031215620039c257600080fd5b8a35620039cf8162003964565b995060208b0135620039e18162003964565b999c999b505050506040880135976060810135976080820135975060a0820135965060c0820135955060e082013594506101008201359350610120909101359150565b60006020828403121562003a3757600080fd5b5035919050565b8060005b6004811015620013eb57815184526020938401939091019060010162003a42565b80516001600160a01b031682526020808201519062000d6b9084018262003a3e565b60a0810162000c62828462003a63565b6000806020838503121562003aa957600080fd5b82356001600160401b038082111562003ac157600080fd5b818501915085601f83011262003ad657600080fd5b81358181111562003ae657600080fd5b86602082850101111562003af957600080fd5b60209290920196919550909350505050565b634e487b7160e01b600052604160045260246000fd5b60405160a081016001600160401b038111828210171562003b465762003b4662003b0b565b60405290565b604051601f8201601f191681016001600160401b038111828210171562003b775762003b7762003b0b565b604052919050565b60006001600160401b0382111562003b9b5762003b9b62003b0b565b5060051b60200190565b600082601f83011262003bb757600080fd5b8135602062003bd062003bca8362003b7f565b62003b4c565b82815260059290921b8401810191818101908684111562003bf057600080fd5b8286015b8481101562003c1857803562003c0a8162003964565b835291830191830162003bf4565b509695505050505050565b60008060006060848603121562003c3957600080fd5b83356001600160401b0381111562003c5057600080fd5b62003c5e8682870162003ba5565b9660208601359650604090950135949350505050565b60005b8381101562003c9157818101518382015260200162003c77565b50506000910152565b6000815180845262003cb481602086016020860162003c74565b601f01601f19169290920160200192915050565b602080825282516001600160a01b0316828201528201516080604083015260009062003cf860a084018262003c9a565b9050604084015115156060840152606084015160808401528091505092915050565b6020808252825182820181905260009190848201906040850190845b8181101562003d545783518352928401929184019160010162003d36565b50909695505050505050565b6000806040838503121562003d7457600080fd5b82359150602083013562003d888162003964565b809150509250929050565b6000806040838503121562003da757600080fd5b823562003db48162003964565b946020939093013593505050565b600081518084526020808501945080840160005b8381101562003e005762003dec87835162003a63565b60a096909601959082019060010162003dd6565b509495945050505050565b600081518084526020808501945080840160005b8381101562003e005781516001600160a01b03168752958201959082019060010162003e1f565b600081518084526020808501808196508360051b8101915082860160005b8581101562003ee257828403895281516040815181875262003e898288018262003e0b565b90508783015192508681038888015260c0835182528884015162003eb08a84018262003a3e565b508284015193508060a083015262003ecb8183018562003e0b565b9c89019c9750505092860192505060010162003e64565b5091979650505050505050565b60208152815160208201526020820151604082015260408201516060820152606082015160808201526000608083015161018060a084015262003f376101a084018262003dc2565b905060a0840151601f19808584030160c086015262003f57838362003e0b565b925060c08601519150808584030160e08601525062003f77828262003e46565b91505060e084015161010062003f908186018315159052565b850151905062003fa561012085018262003a3e565b509392505050565b600082601f83011262003fbf57600080fd5b81356001600160401b0381111562003fdb5762003fdb62003b0b565b62003ff0601f8201601f191660200162003b4c565b8181528460208386010111156200400657600080fd5b816020850160208301376000918101602001919091529392505050565b6000602082840312156200403657600080fd5b81356001600160401b03808211156200404e57600080fd5b9083019060a082860312156200406357600080fd5b6200406d62003b21565b82358152602083013560208201526040830135828111156200408e57600080fd5b6200409c8782860162003fad565b604083015250606083013582811115620040b557600080fd5b620040c38782860162003fad565b606083015250608083013582811115620040dc57600080fd5b620040ea8782860162003ba5565b60808301525095945050505050565b6000602082840312156200410c57600080fd5b5051919050565b6000602082840312156200412657600080fd5b81518060000b81146200399a57600080fd5b600082601f8301126200414a57600080fd5b815160206200415d62003bca8362003b7f565b82815260059290921b840181019181810190868411156200417d57600080fd5b8286015b8481101562003c18578051620041978162003964565b835291830191830162004181565b600082601f830112620041b757600080fd5b81516020620041ca62003bca8362003b7f565b82815260059290921b84018101918181019086841115620041ea57600080fd5b8286015b8481101562003c185780518352918301918301620041ee565b600080604083850312156200421b57600080fd5b82516001600160401b03808211156200423357600080fd5b620042418683870162004138565b935060208501519150808211156200425857600080fd5b506200426785828601620041a5565b9150509250929050565b634e487b7160e01b600052603260045260246000fd5b634e487b7160e01b600052601160045260246000fd5b600060018201620042b257620042b262004287565b5060010190565b8082018082111562000c625762000c6262004287565b8181038181111562000c625762000c6262004287565b60008060408385031215620042f957600080fd5b505080516020909101519092909150565b6000602082840312156200431d57600080fd5b81516001600160401b038111156200433457600080fd5b620035bb84828501620041a5565b81835281816020850137506000828201602090810191909152601f909101601f19169091010190565b602081526000620035bb60208301848662004342565b6000608082840312156200439457600080fd5b82601f830112620043a457600080fd5b604051608081018181106001600160401b0382111715620043c957620043c962003b0b565b604052806080840185811115620043df57600080fd5b845b81811015620043fb578051835260209283019201620043e1565b509195945050505050565b6080810162000c62828462003a3e565b805180151581146200442757600080fd5b919050565b6000602082840312156200443f57600080fd5b6200399a8262004416565b600181811c908216806200445f57607f821691505b6020821081036200448057634e487b7160e01b600052602260045260246000fd5b50919050565b601f82111562000d6b57600081815260208120601f850160051c81016020861015620044af5750805b601f850160051c820191505b8181101562002a0d57828155600101620044bb565b6001600160401b03831115620044ea57620044ea62003b0b565b6200450283620044fb83546200444a565b8362004486565b6000601f841160018114620045395760008515620045205750838201355b600019600387901b1c1916600186901b17835562004596565b600083815260209020601f19861690835b828110156200456c57868501358255602094850194600190920191016200454a565b50868210156200458a5760001960f88860031b161c19848701351681555b505060018560011b0183555b5050505050565b60008060408385031215620045b157600080fd5b8251915060208301516001600160401b03811115620045cf57600080fd5b6200426785828601620041a5565b604081526000620045f360408301858762004342565b9050826020830152949350505050565b6020815260006200399a602083018462003c9a565b83815260006020848184015260606040840152610120830184516060850152818501516200464a608086018262003a3e565b50604085015160c06101008601528051918290528201906000906101408601905b80831015620046965783516001600160a01b031682529284019260019290920191908401906200466b565b5098975050505050505050565b60008060408385031215620046b757600080fd5b620046c28362004416565b915060208301516001600160401b03811115620046de57600080fd5b620042678582860162004138565b60408152600062004701604083018562003e0b565b6020838203818501528185518084528284019150828160051b85010183880160005b838110156200475557601f198784030185526200474283835162003c9a565b9486019492509085019060010162004723565b50909998505050505050505050565b85815284602082015260a0604082015260006200478560a083018662003e0b565b6060830194909452506001600160a01b03919091166080909101529392505050565b6020808252602b908201527f496e697469616c697a61626c653a20636f6e7472616374206973206e6f74206960408201526a6e697469616c697a696e6760a81b606082015260800190565b600082516200480681846020870162003c74565b919091019291505056fe60c0604052600060065534801561001557600080fd5b506040516116563803806116568339810160408190526100349161009b565b61003d3361004b565b60a0919091526080526100bf565b600080546001600160a01b038381166001600160a01b0319831681178455604051919092169283917f8be0079c531659141344cd1fd0a4f28419497f9722a3daafe3b4186f6b6457e09190a35050565b600080604083850312156100ae57600080fd5b505080516020909101519092909150565b60805160a05161153a61011c6000396000818161027f0152610768015260008181610243015281816103aa015281816103dc015281816104150152818161044e0152818161089b0152818161093e01526109e5015261153a6000f3fe608060405234801561001057600080fd5b506004361061012c5760003560e01c80638da5cb5b116100ad578063cc5ef00911610071578063cc5ef009146102a1578063cd5e3837146102a9578063ce7c2ac2146102bc578063d73fe0aa146102cf578063f2fde38b146102d757600080fd5b80638da5cb5b146102255780639cb8a26a14610236578063ac5553ce1461023e578063b0ef817914610265578063c27040241461027a57600080fd5b80634e3874a0116100f45780634e3874a0146101cc5780635aa68ac0146101e2578063670d14b2146101f7578063715018a61461020a5780637fd283461461021257600080fd5b80630ea6564814610131578063221f95111461015a57806335c1d3491461017557806337f8d5ff146101a057806348cd4cb1146101b5575b600080fd5b61014461013f36600461104a565b6102ea565b60405161015191906110c0565b60405180910390f35b610162610384565b60405160009190910b8152602001610151565b6101886101833660046110d3565b61048b565b6040516001600160a01b039091168152602001610151565b6101b36101ae366004611138565b6104b5565b005b6101be60065481565b604051908152602001610151565b6101d461060a565b6040516101519291906111fc565b6101ea61078f565b604051610151919061121d565b61014461020536600461104a565b6107f1565b6101b361080a565b6101b361022036600461126a565b61081e565b6000546001600160a01b0316610188565b6101b3610ad1565b6101be7f000000000000000000000000000000000000000000000000000000000000000081565b61026d610ae7565b60405161015191906112dc565b6101be7f000000000000000000000000000000000000000000000000000000000000000081565b61026d610c45565b6101446102b736600461104a565b610d9d565b6101446102ca36600461104a565b610db6565b61026d610dcf565b6101b36102e536600461104a565b610f27565b60036020526000908152604090208054610303906112ef565b80601f016020809104026020016040519081016040528092919081815260200182805461032f906112ef565b801561037c5780601f106103515761010080835404028352916020019161037c565b820191906000526020600020905b81548152906001019060200180831161035f57829003601f168201915b505050505081565b60006006546000036103965750600090565b6000600654436103a69190611339565b90507f000000000000000000000000000000000000000000000000000000000000000081116103d757600191505090565b6104027f00000000000000000000000000000000000000000000000000000000000000006002611352565b811161041057600291505090565b61043b7f00000000000000000000000000000000000000000000000000000000000000006003611352565b811161044957600391505090565b6104747f00000000000000000000000000000000000000000000000000000000000000006004611352565b811161048257600491505090565b60001991505090565b6005818154811061049b57600080fd5b6000918252602090912001546001600160a01b0316905081565b6006541561050a5760405162461bcd60e51b815260206004820152601760248201527f444b472068617320616c7265616479207374617274656400000000000000000060448201526064015b60405180910390fd5b610512610fa0565b60005b838110156105ff57600585858381811061053157610531611369565b9050602002016020810190610546919061104a565b81546001810183556000928352602090922090910180546001600160a01b0319166001600160a01b0390921691909117905582828281811061058a5761058a611369565b905060200281019061059c919061137f565b600160008888868181106105b2576105b2611369565b90506020020160208101906105c7919061104a565b6001600160a01b031681526020810191909152604001600020916105ec91908361142a565b50806105f7816114eb565b915050610515565b505043600655505050565b60006060600060058054905067ffffffffffffffff81111561062e5761062e6113c6565b60405190808252806020026020018201604052801561066157816020015b606081526020019060019003908161064c5790505b50905060005b60055481101561076557600160006005838154811061068857610688611369565b60009182526020808320909101546001600160a01b03168352820192909252604001902080546106b7906112ef565b80601f01602080910402602001604051908101604052809291908181526020018280546106e3906112ef565b80156107305780601f1061070557610100808354040283529160200191610730565b820191906000526020600020905b81548152906001019060200180831161071357829003601f168201915b505050505082828151811061074757610747611369565b6020026020010181905250808061075d906114eb565b915050610667565b507f0000000000000000000000000000000000000000000000000000000000000000939092509050565b606060058054806020026020016040519081016040528092919081815260200182805480156107e757602002820191906000526020600020905b81546001600160a01b031681526001909101906020018083116107c9575b5050505050905090565b60016020526000908152604090208054610303906112ef565b610812610fa0565b61081c6000610ffa565b565b3360009081526001602052604081208054610838906112ef565b9050116108875760405162461bcd60e51b815260206004820152601b60248201527f796f7520617265206e6f7420612067726f7570206d656d6265722100000000006044820152606401610501565b6000600654436108979190611339565b90507f000000000000000000000000000000000000000000000000000000000000000081116109395733600090815260026020526040902080546108da906112ef565b1590506109195760405162461bcd60e51b815260206004820152600d60248201526c1cda185c9948195e1a5cdd1959609a1b6044820152606401610501565b33600090815260026020526040902061093383858361142a565b50505050565b6109647f00000000000000000000000000000000000000000000000000000000000000006002611352565b81116109e0573360009081526003602052604090208054610984906112ef565b1590506109c65760405162461bcd60e51b815260206004820152601060248201526f1c995cdc1bdb9cd948195e1a5cdd195960821b6044820152606401610501565b33600090815260036020526040902061093383858361142a565b610a0b7f00000000000000000000000000000000000000000000000000000000000000006003611352565b8111610a8c573360009081526004602052604090208054610a2b906112ef565b159050610a725760405162461bcd60e51b81526020600482015260156024820152741a9d5cdd1a599a58d85d1a5bdb88195e1a5cdd1959605a1b6044820152606401610501565b33600090815260046020526040902061093383858361142a565b60405162461bcd60e51b81526020600482015260156024820152741112d1c8141d589b1a5cda081a185cc8195b991959605a1b6044820152606401610501565b505050565b610ad9610fa0565b6000546001600160a01b0316ff5b60055460609060009067ffffffffffffffff811115610b0857610b086113c6565b604051908082528060200260200182016040528015610b3b57816020015b6060815260200190600190039081610b265790505b50905060005b600554811015610c3f576004600060058381548110610b6257610b62611369565b60009182526020808320909101546001600160a01b0316835282019290925260400190208054610b91906112ef565b80601f0160208091040260200160405190810160405280929190818152602001828054610bbd906112ef565b8015610c0a5780601f10610bdf57610100808354040283529160200191610c0a565b820191906000526020600020905b815481529060010190602001808311610bed57829003601f168201915b5050505050828281518110610c2157610c21611369565b60200260200101819052508080610c37906114eb565b915050610b41565b50919050565b60055460609060009067ffffffffffffffff811115610c6657610c666113c6565b604051908082528060200260200182016040528015610c9957816020015b6060815260200190600190039081610c845790505b50905060005b600554811015610c3f576003600060058381548110610cc057610cc0611369565b60009182526020808320909101546001600160a01b0316835282019290925260400190208054610cef906112ef565b80601f0160208091040260200160405190810160405280929190818152602001828054610d1b906112ef565b8015610d685780601f10610d3d57610100808354040283529160200191610d68565b820191906000526020600020905b815481529060010190602001808311610d4b57829003601f168201915b5050505050828281518110610d7f57610d7f611369565b60200260200101819052508080610d95906114eb565b915050610c9f565b60046020526000908152604090208054610303906112ef565b60026020526000908152604090208054610303906112ef565b60055460609060009067ffffffffffffffff811115610df057610df06113c6565b604051908082528060200260200182016040528015610e2357816020015b6060815260200190600190039081610e0e5790505b50905060005b600554811015610c3f576002600060058381548110610e4a57610e4a611369565b60009182526020808320909101546001600160a01b0316835282019290925260400190208054610e79906112ef565b80601f0160208091040260200160405190810160405280929190818152602001828054610ea5906112ef565b8015610ef25780601f10610ec757610100808354040283529160200191610ef2565b820191906000526020600020905b815481529060010190602001808311610ed557829003601f168201915b5050505050828281518110610f0957610f09611369565b60200260200101819052508080610f1f906114eb565b915050610e29565b610f2f610fa0565b6001600160a01b038116610f945760405162461bcd60e51b815260206004820152602660248201527f4f776e61626c653a206e6577206f776e657220697320746865207a65726f206160448201526564647265737360d01b6064820152608401610501565b610f9d81610ffa565b50565b6000546001600160a01b0316331461081c5760405162461bcd60e51b815260206004820181905260248201527f4f776e61626c653a2063616c6c6572206973206e6f7420746865206f776e65726044820152606401610501565b600080546001600160a01b038381166001600160a01b0319831681178455604051919092169283917f8be0079c531659141344cd1fd0a4f28419497f9722a3daafe3b4186f6b6457e09190a35050565b60006020828403121561105c57600080fd5b81356001600160a01b038116811461107357600080fd5b9392505050565b6000815180845260005b818110156110a057602081850181015186830182015201611084565b506000602082860101526020601f19601f83011685010191505092915050565b602081526000611073602083018461107a565b6000602082840312156110e557600080fd5b5035919050565b60008083601f8401126110fe57600080fd5b50813567ffffffffffffffff81111561111657600080fd5b6020830191508360208260051b850101111561113157600080fd5b9250929050565b6000806000806040858703121561114e57600080fd5b843567ffffffffffffffff8082111561116657600080fd5b611172888389016110ec565b9096509450602087013591508082111561118b57600080fd5b50611198878288016110ec565b95989497509550505050565b600082825180855260208086019550808260051b84010181860160005b848110156111ef57601f198684030189526111dd83835161107a565b988401989250908301906001016111c1565b5090979650505050505050565b82815260406020820152600061121560408301846111a4565b949350505050565b6020808252825182820181905260009190848201906040850190845b8181101561125e5783516001600160a01b031683529284019291840191600101611239565b50909695505050505050565b6000806020838503121561127d57600080fd5b823567ffffffffffffffff8082111561129557600080fd5b818501915085601f8301126112a957600080fd5b8135818111156112b857600080fd5b8660208285010111156112ca57600080fd5b60209290920196919550909350505050565b60208152600061107360208301846111a4565b600181811c9082168061130357607f821691505b602082108103610c3f57634e487b7160e01b600052602260045260246000fd5b634e487b7160e01b600052601160045260246000fd5b8181038181111561134c5761134c611323565b92915050565b808202811582820484141761134c5761134c611323565b634e487b7160e01b600052603260045260246000fd5b6000808335601e1984360301811261139657600080fd5b83018035915067ffffffffffffffff8211156113b157600080fd5b60200191503681900382131561113157600080fd5b634e487b7160e01b600052604160045260246000fd5b601f821115610acc57600081815260208120601f850160051c810160208610156114035750805b601f850160051c820191505b818110156114225782815560010161140f565b505050505050565b67ffffffffffffffff831115611442576114426113c6565b6114568361145083546112ef565b836113dc565b6000601f84116001811461148a57600085156114725750838201355b600019600387901b1c1916600186901b1783556114e4565b600083815260209020601f19861690835b828110156114bb578685013582556020948501946001909201910161149b565b50868210156114d85760001960f88860031b161c19848701351681555b505060018560011b0183555b5050505050565b6000600182016114fd576114fd611323565b506001019056fea264697066735822122005622e96b0ccf79925544c117890ba3a3c158402bafdfedff42d941ff8a7bb5a64736f6c63430008130033a2646970667358221220c7b6f88bb245a918074cc4ce5f682ed93ea91b1a5d8f99dfdc5039377e17db8064736f6c63430008130033",
    "linkReferences": {
      "src/libraries/BLS.sol": {
        "BLS": [
          {
            "start": 4005,
            "length": 20
          },
          {
            "start": 4135,
            "length": 20
          },
          {
            "start": 8444,
            "length": 20
          },
          {
            "start": 8574,
            "length": 20
          },
          {
            "start": 9416,
            "length": 20
          },
          {
            "start": 9542,
            "length": 20
          },
          {
            "start": 9705,
            "length": 20
          },
          {
            "start": 9831,
            "length": 20
          }
        ]
      },
      "src/libraries/GroupLib.sol": {
        "GroupLib": [
          {
            "start": 1249,
            "length": 20
          },
          {
            "start": 1966,
            "length": 20
          },
          {
            "start": 2694,
            "length": 20
          },
          {
            "start": 2955,
            "length": 20
          },
          {
            "start": 3598,
            "length": 20
          },
          {
            "start": 4524,
            "length": 20
          },
          {
            "start": 5603,
            "length": 20
          },
          {
            "start": 6136,
            "length": 20
          },
          {
            "start": 9194,
            "length": 20
          },
          {
            "start": 10021,
            "length": 20
          },
          {
            "start": 10413,
            "length": 20
          },
          {
            "start": 10621,
            "length": 20
          }
        ]
      }
    }
  },
  "methodIdentifiers": {
    "BALANCE_BASE()": "36cbac11",
    "addReward(address[],uint256,uint256)": "914eb34d",
    "changeDkgPublicKey(bytes)": "e275cde6",
    "commitDkg((uint256,uint256,bytes,bytes,address[]))": "e37eb96c",
    "getBelongingGroup(address)": "3b6c00b0",
    "getCoordinator(uint256)": "42424d6f",
    "getGroup(uint256)": "ceb60654",
    "getGroupCount()": "06545a93",
    "getGroupThreshold(uint256)": "f49e0ba9",
    "getLastOutput()": "51a2b9a0",
    "getMember(uint256,uint256)": "4d79a893",
    "getNode(address)": "9d209048",
    "getNodeWithdrawableTokens(address)": "227d0f46",
    "getValidGroupIndices()": "b330a0fd",
    "initialize(address,uint256)": "cd6dc687",
    "isPartialKeyRegistered(uint256,address)": "c2db900b",
    "nodeActivate()": "9a075bc3",
    "nodeQuit()": "7a2af56e",
    "nodeRegister(bytes)": "80110e4e",
    "nodeWithdraw(address)": "4ecea80d",
    "owner()": "8da5cb5b",
    "postProcessDkg(uint256,uint256)": "0bf9c5c6",
    "renounceOwnership()": "715018a6",
    "setControllerConfig(address,address,uint256,uint256,uint256,uint256,uint256,uint256,uint256,uint256)": "2ff9e520",
    "setLastOutput(uint256)": "f3df0802",
    "transferOwnership(address)": "f2fde38b"
  },
  "id": 63
}