{
  "abi": [
    {
      "inputs": [
        {
          "internalType": "address",
          "name": "arpa",
          "type": "address"
        },
        {
          "internalType": "address",
          "name": "arpaEthFeed",
          "type": "address"
        }
      ],
      "stateMutability": "nonpayable",
      "type": "constructor"
    },
    {
      "inputs": [],
      "name": "EmptyPartialSignatures",
      "type": "error"
    },
    {
      "inputs": [],
      "name": "InsufficientBalanceWhenFulfill",
      "type": "error"
    },
    {
      "inputs": [],
      "name": "InsufficientBalanceWhenRequest",
      "type": "error"
    },
    {
      "inputs": [
        {
          "internalType": "int256",
          "name": "arpaWei",
          "type": "int256"
        }
      ],
      "name": "InvalidArpaWeiPrice",
      "type": "error"
    },
    {
      "inputs": [
        {
          "internalType": "uint64",
          "name": "subId",
          "type": "uint64"
        },
        {
          "internalType": "address",
          "name": "consumer",
          "type": "address"
        }
      ],
      "name": "InvalidConsumer",
      "type": "error"
    },
    {
      "inputs": [],
      "name": "InvalidPartialPublicKey",
      "type": "error"
    },
    {
      "inputs": [],
      "name": "InvalidPartialSignatureFormat",
      "type": "error"
    },
    {
      "inputs": [],
      "name": "InvalidPartialSignatures",
      "type": "error"
    },
    {
      "inputs": [],
      "name": "InvalidPublicKey",
      "type": "error"
    },
    {
      "inputs": [],
      "name": "InvalidPublicKeyEncoding",
      "type": "error"
    },
    {
      "inputs": [
        {
          "internalType": "string",
          "name": "message",
          "type": "string"
        }
      ],
      "name": "InvalidRequestByEOA",
      "type": "error"
    },
    {
      "inputs": [
        {
          "internalType": "uint16",
          "name": "have",
          "type": "uint16"
        },
        {
          "internalType": "uint16",
          "name": "min",
          "type": "uint16"
        },
        {
          "internalType": "uint16",
          "name": "max",
          "type": "uint16"
        }
      ],
      "name": "InvalidRequestConfirmations",
      "type": "error"
    },
    {
      "inputs": [],
      "name": "InvalidSignature",
      "type": "error"
    },
    {
      "inputs": [],
      "name": "InvalidSignatureFormat",
      "type": "error"
    },
    {
      "inputs": [],
      "name": "InvalidSubscription",
      "type": "error"
    },
    {
      "inputs": [
        {
          "internalType": "address",
          "name": "owner",
          "type": "address"
        }
      ],
      "name": "MustBeSubOwner",
      "type": "error"
    },
    {
      "inputs": [],
      "name": "MustNotBeInfinity",
      "type": "error"
    },
    {
      "inputs": [],
      "name": "NoAvailableGroups",
      "type": "error"
    },
    {
      "inputs": [],
      "name": "NoCorrespondingRequest",
      "type": "error"
    },
    {
      "inputs": [],
      "name": "NotFromCommitter",
      "type": "error"
    },
    {
      "inputs": [],
      "name": "PaymentTooLarge",
      "type": "error"
    },
    {
      "inputs": [],
      "name": "Reentrant",
      "type": "error"
    },
    {
      "inputs": [],
      "name": "TaskStillExclusive",
      "type": "error"
    },
    {
      "inputs": [],
      "name": "TooManyConsumers",
      "type": "error"
    },
    {
      "anonymous": false,
      "inputs": [
        {
          "indexed": false,
          "internalType": "uint16",
          "name": "minimumRequestConfirmations",
          "type": "uint16"
        },
        {
          "indexed": false,
          "internalType": "uint32",
          "name": "maxGasLimit",
          "type": "uint32"
        },
        {
          "indexed": false,
          "internalType": "uint32",
          "name": "stalenessSeconds",
          "type": "uint32"
        },
        {
          "indexed": false,
          "internalType": "uint32",
          "name": "gasAfterPaymentCalculation",
          "type": "uint32"
        },
        {
          "indexed": false,
          "internalType": "uint32",
          "name": "gasExceptCallback",
          "type": "uint32"
        },
        {
          "indexed": false,
          "internalType": "int256",
          "name": "fallbackWeiPerUnitArpa",
          "type": "int256"
        },
        {
          "indexed": false,
          "internalType": "uint256",
          "name": "signatureTaskExclusiveWindow",
          "type": "uint256"
        },
        {
          "indexed": false,
          "internalType": "uint256",
          "name": "rewardPerSignature",
          "type": "uint256"
        },
        {
          "indexed": false,
          "internalType": "uint256",
          "name": "committerRewardPerSignature",
          "type": "uint256"
        },
        {
          "components": [
            {
              "internalType": "uint32",
              "name": "fulfillmentFlatFeeArpaPPMTier1",
              "type": "uint32"
            },
            {
              "internalType": "uint32",
              "name": "fulfillmentFlatFeeArpaPPMTier2",
              "type": "uint32"
            },
            {
              "internalType": "uint32",
              "name": "fulfillmentFlatFeeArpaPPMTier3",
              "type": "uint32"
            },
            {
              "internalType": "uint32",
              "name": "fulfillmentFlatFeeArpaPPMTier4",
              "type": "uint32"
            },
            {
              "internalType": "uint32",
              "name": "fulfillmentFlatFeeArpaPPMTier5",
              "type": "uint32"
            },
            {
              "internalType": "uint24",
              "name": "reqsForTier2",
              "type": "uint24"
            },
            {
              "internalType": "uint24",
              "name": "reqsForTier3",
              "type": "uint24"
            },
            {
              "internalType": "uint24",
              "name": "reqsForTier4",
              "type": "uint24"
            },
            {
              "internalType": "uint24",
              "name": "reqsForTier5",
              "type": "uint24"
            }
          ],
          "indexed": false,
          "internalType": "struct Adapter.FeeConfig",
          "name": "feeConfig",
          "type": "tuple"
        }
      ],
      "name": "AdapterConfigSet",
      "type": "event"
    },
    {
      "anonymous": false,
      "inputs": [
        {
          "indexed": false,
          "internalType": "uint256",
          "name": "nodeStakingAmount",
          "type": "uint256"
        },
        {
          "indexed": false,
          "internalType": "uint256",
          "name": "disqualifiedNodePenaltyAmount",
          "type": "uint256"
        },
        {
          "indexed": false,
          "internalType": "uint256",
          "name": "defaultNumberOfCommitters",
          "type": "uint256"
        },
        {
          "indexed": false,
          "internalType": "uint256",
          "name": "defaultDkgPhaseDuration",
          "type": "uint256"
        },
        {
          "indexed": false,
          "internalType": "uint256",
          "name": "groupMaxCapacity",
          "type": "uint256"
        },
        {
          "indexed": false,
          "internalType": "uint256",
          "name": "idealNumberOfGroups",
          "type": "uint256"
        },
        {
          "indexed": false,
          "internalType": "uint256",
          "name": "pendingBlockAfterQuit",
          "type": "uint256"
        },
        {
          "indexed": false,
          "internalType": "uint256",
          "name": "dkgPostProcessReward",
          "type": "uint256"
        }
      ],
      "name": "ControllerConfigSet",
      "type": "event"
    },
    {
      "anonymous": false,
      "inputs": [
        {
          "indexed": false,
          "internalType": "uint256",
          "name": "_groupIndex",
          "type": "uint256"
        },
        {
          "indexed": false,
          "internalType": "uint256",
          "name": "_epoch",
          "type": "uint256"
        },
        {
          "indexed": false,
          "internalType": "uint256",
          "name": "_size",
          "type": "uint256"
        },
        {
          "indexed": false,
          "internalType": "uint256",
          "name": "_threshold",
          "type": "uint256"
        },
        {
          "indexed": false,
          "internalType": "address[]",
          "name": "_members",
          "type": "address[]"
        },
        {
          "indexed": false,
          "internalType": "uint256",
          "name": "_assignmentBlockHeight",
          "type": "uint256"
        },
        {
          "indexed": false,
          "internalType": "address",
          "name": "_coordinatorAddress",
          "type": "address"
        }
      ],
      "name": "DkgTask",
      "type": "event"
    },
    {
      "anonymous": false,
      "inputs": [
        {
          "indexed": true,
          "internalType": "address",
          "name": "previousOwner",
          "type": "address"
        },
        {
          "indexed": true,
          "internalType": "address",
          "name": "newOwner",
          "type": "address"
        }
      ],
      "name": "OwnershipTransferred",
      "type": "event"
    },
    {
      "anonymous": false,
      "inputs": [
        {
          "indexed": true,
          "internalType": "uint256",
          "name": "groupIndex",
          "type": "uint256"
        },
        {
          "indexed": false,
          "internalType": "bytes32",
          "name": "requestId",
          "type": "bytes32"
        },
        {
          "indexed": false,
          "internalType": "address",
          "name": "sender",
          "type": "address"
        },
        {
          "indexed": false,
          "internalType": "uint64",
          "name": "subId",
          "type": "uint64"
        },
        {
          "indexed": false,
          "internalType": "uint256",
          "name": "seed",
          "type": "uint256"
        },
        {
          "indexed": false,
          "internalType": "uint16",
          "name": "requestConfirmations",
          "type": "uint16"
        },
        {
          "indexed": false,
          "internalType": "uint256",
          "name": "callbackGasLimit",
          "type": "uint256"
        },
        {
          "indexed": false,
          "internalType": "uint256",
          "name": "callbackMaxGasPrice",
          "type": "uint256"
        }
      ],
      "name": "RandomnessRequest",
      "type": "event"
    },
    {
      "anonymous": false,
      "inputs": [
        {
          "indexed": false,
          "internalType": "bytes32",
          "name": "requestId",
          "type": "bytes32"
        },
        {
          "indexed": false,
          "internalType": "uint256",
          "name": "output",
          "type": "uint256"
        },
        {
          "indexed": false,
          "internalType": "uint256",
          "name": "payment",
          "type": "uint256"
        },
        {
          "indexed": false,
          "internalType": "bool",
          "name": "success",
          "type": "bool"
        }
      ],
      "name": "RandomnessRequestResult",
      "type": "event"
    },
    {
      "anonymous": false,
      "inputs": [
        {
          "indexed": true,
          "internalType": "uint64",
          "name": "subId",
          "type": "uint64"
        },
        {
          "indexed": false,
          "internalType": "address",
          "name": "consumer",
          "type": "address"
        }
      ],
      "name": "SubscriptionConsumerAdded",
      "type": "event"
    },
    {
      "anonymous": false,
      "inputs": [
        {
          "indexed": true,
          "internalType": "uint64",
          "name": "subId",
          "type": "uint64"
        },
        {
          "indexed": false,
          "internalType": "address",
          "name": "owner",
          "type": "address"
        }
      ],
      "name": "SubscriptionCreated",
      "type": "event"
    },
    {
      "anonymous": false,
      "inputs": [
        {
          "indexed": true,
          "internalType": "uint64",
          "name": "subId",
          "type": "uint64"
        },
        {
          "indexed": false,
          "internalType": "uint256",
          "name": "oldBalance",
          "type": "uint256"
        },
        {
          "indexed": false,
          "internalType": "uint256",
          "name": "newBalance",
          "type": "uint256"
        }
      ],
      "name": "SubscriptionFunded",
      "type": "event"
    },
    {
      "inputs": [],
      "name": "ARPA",
      "outputs": [
        {
          "internalType": "contract IERC20",
          "name": "",
          "type": "address"
        }
      ],
      "stateMutability": "view",
      "type": "function"
    },
    {
      "inputs": [],
      "name": "ARPA_ETH_FEED",
      "outputs": [
        {
          "internalType": "contract AggregatorV3Interface",
          "name": "",
          "type": "address"
        }
      ],
      "stateMutability": "view",
      "type": "function"
    },
    {
      "inputs": [],
      "name": "DEFAULT_MINIMUM_THRESHOLD",
      "outputs": [
        {
          "internalType": "uint256",
          "name": "",
          "type": "uint256"
        }
      ],
      "stateMutability": "view",
      "type": "function"
    },
    {
      "inputs": [],
      "name": "MAX_CONSUMERS",
      "outputs": [
        {
          "internalType": "uint16",
          "name": "",
          "type": "uint16"
        }
      ],
      "stateMutability": "view",
      "type": "function"
    },
    {
      "inputs": [],
      "name": "MAX_REQUEST_CONFIRMATIONS",
      "outputs": [
        {
          "internalType": "uint16",
          "name": "",
          "type": "uint16"
        }
      ],
      "stateMutability": "view",
      "type": "function"
    },
    {
      "inputs": [
        {
          "internalType": "uint64",
          "name": "subId",
          "type": "uint64"
        },
        {
          "internalType": "address",
          "name": "consumer",
          "type": "address"
        }
      ],
      "name": "addConsumer",
      "outputs": [],
      "stateMutability": "nonpayable",
      "type": "function"
    },
    {
      "inputs": [
        {
          "internalType": "uint256",
          "name": "groupIndex",
          "type": "uint256"
        }
      ],
      "name": "arrangeMembersInGroup",
      "outputs": [],
      "stateMutability": "nonpayable",
      "type": "function"
    },
    {
      "inputs": [
        {
          "internalType": "uint256",
          "name": "startGas",
          "type": "uint256"
        },
        {
          "internalType": "uint256",
          "name": "gasAfterPaymentCalculation",
          "type": "uint256"
        },
        {
          "internalType": "uint32",
          "name": "fulfillmentFlatFeeArpaPPM",
          "type": "uint32"
        },
        {
          "internalType": "uint256",
          "name": "weiPerUnitGas",
          "type": "uint256"
        }
      ],
      "name": "calculatePaymentAmount",
      "outputs": [
        {
          "internalType": "uint96",
          "name": "",
          "type": "uint96"
        }
      ],
      "stateMutability": "view",
      "type": "function"
    },
    {
      "inputs": [
        {
          "components": [
            {
              "internalType": "uint256",
              "name": "groupIndex",
              "type": "uint256"
            },
            {
              "internalType": "uint256",
              "name": "groupEpoch",
              "type": "uint256"
            },
            {
              "internalType": "bytes",
              "name": "publicKey",
              "type": "bytes"
            },
            {
              "internalType": "bytes",
              "name": "partialPublicKey",
              "type": "bytes"
            },
            {
              "internalType": "address[]",
              "name": "disqualifiedNodes",
              "type": "address[]"
            }
          ],
          "internalType": "struct Controller.CommitDkgParams",
          "name": "params",
          "type": "tuple"
        }
      ],
      "name": "commitDkg",
      "outputs": [],
      "stateMutability": "nonpayable",
      "type": "function"
    },
    {
      "inputs": [
        {
          "internalType": "uint256",
          "name": "",
          "type": "uint256"
        }
      ],
      "name": "coordinators",
      "outputs": [
        {
          "internalType": "address",
          "name": "",
          "type": "address"
        }
      ],
      "stateMutability": "view",
      "type": "function"
    },
    {
      "inputs": [],
      "name": "createSubscription",
      "outputs": [
        {
          "internalType": "uint64",
          "name": "",
          "type": "uint64"
        }
      ],
      "stateMutability": "nonpayable",
      "type": "function"
    },
    {
      "inputs": [
        {
          "internalType": "uint256",
          "name": "groupIndex",
          "type": "uint256"
        }
      ],
      "name": "emitGroupEvent",
      "outputs": [],
      "stateMutability": "nonpayable",
      "type": "function"
    },
    {
      "inputs": [
        {
          "internalType": "uint256",
          "name": "callbackGasLimit",
          "type": "uint256"
        },
        {
          "internalType": "uint256",
          "name": "gasExceptCallback",
          "type": "uint256"
        },
        {
          "internalType": "uint32",
          "name": "fulfillmentFlatFeeArpaPPM",
          "type": "uint32"
        },
        {
          "internalType": "uint256",
          "name": "weiPerUnitGas",
          "type": "uint256"
        }
      ],
      "name": "estimatePaymentAmount",
      "outputs": [
        {
          "internalType": "uint96",
          "name": "",
          "type": "uint96"
        }
      ],
      "stateMutability": "view",
      "type": "function"
    },
    {
      "inputs": [],
      "name": "findOrCreateTargetGroup",
      "outputs": [
        {
          "internalType": "uint256",
          "name": "",
          "type": "uint256"
        },
        {
          "internalType": "bool",
          "name": "",
          "type": "bool"
        }
      ],
      "stateMutability": "nonpayable",
      "type": "function"
    },
    {
      "inputs": [
        {
          "internalType": "address",
          "name": "nodeIdAddress",
          "type": "address"
        },
        {
          "internalType": "uint256",
          "name": "pendingBlock",
          "type": "uint256"
        },
        {
          "internalType": "bool",
          "name": "handleGroup",
          "type": "bool"
        }
      ],
      "name": "freezeNode",
      "outputs": [],
      "stateMutability": "nonpayable",
      "type": "function"
    },
    {
      "inputs": [
        {
          "internalType": "uint256",
          "name": "groupIndex",
          "type": "uint256"
        },
        {
          "internalType": "bytes32",
          "name": "requestId",
          "type": "bytes32"
        },
        {
          "internalType": "uint256",
          "name": "signature",
          "type": "uint256"
        },
        {
          "components": [
            {
              "internalType": "uint256",
              "name": "index",
              "type": "uint256"
            },
            {
              "internalType": "uint256",
              "name": "partialSignature",
              "type": "uint256"
            }
          ],
          "internalType": "struct IAdapter.PartialSignature[]",
          "name": "partialSignatures",
          "type": "tuple[]"
        }
      ],
      "name": "fulfillRandomness",
      "outputs": [],
      "stateMutability": "nonpayable",
      "type": "function"
    },
    {
      "inputs": [
        {
          "internalType": "uint64",
          "name": "subId",
          "type": "uint64"
        },
        {
          "internalType": "uint256",
          "name": "amount",
          "type": "uint256"
        }
      ],
      "name": "fundSubscription",
      "outputs": [],
      "stateMutability": "nonpayable",
      "type": "function"
    },
    {
      "inputs": [
        {
          "internalType": "uint256",
          "name": "groupIndex",
          "type": "uint256"
        }
      ],
      "name": "getCoordinator",
      "outputs": [
        {
          "internalType": "address",
          "name": "",
          "type": "address"
        }
      ],
      "stateMutability": "view",
      "type": "function"
    },
    {
      "inputs": [
        {
          "internalType": "uint64",
          "name": "reqCount",
          "type": "uint64"
        }
      ],
      "name": "getFeeTier",
      "outputs": [
        {
          "internalType": "uint32",
          "name": "",
          "type": "uint32"
        }
      ],
      "stateMutability": "view",
      "type": "function"
    },
    {
      "inputs": [
        {
          "internalType": "uint256",
          "name": "groupIndex",
          "type": "uint256"
        }
      ],
      "name": "getGroup",
      "outputs": [
        {
          "components": [
            {
              "internalType": "uint256",
              "name": "index",
              "type": "uint256"
            },
            {
              "internalType": "uint256",
              "name": "epoch",
              "type": "uint256"
            },
            {
              "internalType": "uint256",
              "name": "size",
              "type": "uint256"
            },
            {
              "internalType": "uint256",
              "name": "threshold",
              "type": "uint256"
            },
            {
              "components": [
                {
                  "internalType": "address",
                  "name": "nodeIdAddress",
                  "type": "address"
                },
                {
                  "internalType": "uint256[4]",
                  "name": "partialPublicKey",
                  "type": "uint256[4]"
                }
              ],
              "internalType": "struct Adapter.Member[]",
              "name": "members",
              "type": "tuple[]"
            },
            {
              "internalType": "address[]",
              "name": "committers",
              "type": "address[]"
            },
            {
              "components": [
                {
                  "internalType": "address[]",
                  "name": "nodeIdAddress",
                  "type": "address[]"
                },
                {
                  "components": [
                    {
                      "internalType": "uint256",
                      "name": "groupEpoch",
                      "type": "uint256"
                    },
                    {
                      "internalType": "uint256[4]",
                      "name": "publicKey",
                      "type": "uint256[4]"
                    },
                    {
                      "internalType": "address[]",
                      "name": "disqualifiedNodes",
                      "type": "address[]"
                    }
                  ],
                  "internalType": "struct Adapter.CommitResult",
                  "name": "commitResult",
                  "type": "tuple"
                }
              ],
              "internalType": "struct Adapter.CommitCache[]",
              "name": "commitCacheList",
              "type": "tuple[]"
            },
            {
              "internalType": "bool",
              "name": "isStrictlyMajorityConsensusReached",
              "type": "bool"
            },
            {
              "internalType": "uint256[4]",
              "name": "publicKey",
              "type": "uint256[4]"
            }
          ],
          "internalType": "struct Adapter.Group",
          "name": "",
          "type": "tuple"
        }
      ],
      "stateMutability": "view",
      "type": "function"
    },
    {
      "inputs": [
        {
          "internalType": "address",
          "name": "consumer",
          "type": "address"
        }
      ],
      "name": "getLastSubscription",
      "outputs": [
        {
          "internalType": "uint64",
          "name": "",
          "type": "uint64"
        }
      ],
      "stateMutability": "view",
      "type": "function"
    },
    {
      "inputs": [
        {
          "internalType": "uint256",
          "name": "groupIndex",
          "type": "uint256"
        },
        {
          "internalType": "uint256",
          "name": "memberIndex",
          "type": "uint256"
        }
      ],
      "name": "getMember",
      "outputs": [
        {
          "components": [
            {
              "internalType": "address",
              "name": "nodeIdAddress",
              "type": "address"
            },
            {
              "internalType": "uint256[4]",
              "name": "partialPublicKey",
              "type": "uint256[4]"
            }
          ],
          "internalType": "struct Adapter.Member",
          "name": "",
          "type": "tuple"
        }
      ],
      "stateMutability": "view",
      "type": "function"
    },
    {
      "inputs": [
        {
          "internalType": "uint256",
          "name": "groupIndex",
          "type": "uint256"
        },
        {
          "internalType": "uint256",
          "name": "memberIndex",
          "type": "uint256"
        }
      ],
      "name": "getMemberAddressByIndex",
      "outputs": [
        {
          "internalType": "address",
          "name": "nodeIdAddress",
          "type": "address"
        }
      ],
      "stateMutability": "view",
      "type": "function"
    },
    {
      "inputs": [
        {
          "internalType": "uint256",
          "name": "groupIndex",
          "type": "uint256"
        },
        {
          "internalType": "address",
          "name": "nodeIdAddress",
          "type": "address"
        }
      ],
      "name": "getMemberIndexByAddress",
      "outputs": [
        {
          "internalType": "int256",
          "name": "memberIndex",
          "type": "int256"
        }
      ],
      "stateMutability": "view",
      "type": "function"
    },
    {
      "inputs": [
        {
          "internalType": "address",
          "name": "nodeAddress",
          "type": "address"
        }
      ],
      "name": "getNode",
      "outputs": [
        {
          "components": [
            {
              "internalType": "address",
              "name": "idAddress",
              "type": "address"
            },
            {
              "internalType": "bytes",
              "name": "dkgPublicKey",
              "type": "bytes"
            },
            {
              "internalType": "bool",
              "name": "state",
              "type": "bool"
            },
            {
              "internalType": "uint256",
              "name": "pendingUntilBlock",
              "type": "uint256"
            },
            {
              "internalType": "uint256",
              "name": "staking",
              "type": "uint256"
            }
          ],
          "internalType": "struct Controller.Node",
          "name": "",
          "type": "tuple"
        }
      ],
      "stateMutability": "view",
      "type": "function"
    },
    {
      "inputs": [
        {
          "internalType": "address[]",
          "name": "nodeAddresses",
          "type": "address[]"
        },
        {
          "internalType": "address[]",
          "name": "disqualifiedNodes",
          "type": "address[]"
        }
      ],
      "name": "getNonDisqualifiedMajorityMembers",
      "outputs": [
        {
          "internalType": "address[]",
          "name": "",
          "type": "address[]"
        }
      ],
      "stateMutability": "pure",
      "type": "function"
    },
    {
      "inputs": [
        {
          "internalType": "bytes32",
          "name": "requestId",
          "type": "bytes32"
        }
      ],
      "name": "getPendingRequest",
      "outputs": [
        {
          "components": [
            {
              "internalType": "address",
              "name": "callbackContract",
              "type": "address"
            },
            {
              "internalType": "enum IRequestTypeBase.RequestType",
              "name": "requestType",
              "type": "uint8"
            },
            {
              "internalType": "bytes",
              "name": "params",
              "type": "bytes"
            },
            {
              "internalType": "uint64",
              "name": "subId",
              "type": "uint64"
            },
            {
              "internalType": "uint256",
              "name": "seed",
              "type": "uint256"
            },
            {
              "internalType": "uint256",
              "name": "groupIndex",
              "type": "uint256"
            },
            {
              "internalType": "uint256",
              "name": "blockNum",
              "type": "uint256"
            },
            {
              "internalType": "uint16",
              "name": "requestConfirmations",
              "type": "uint16"
            },
            {
              "internalType": "uint256",
              "name": "callbackGasLimit",
              "type": "uint256"
            },
            {
              "internalType": "uint256",
              "name": "callbackMaxGasPrice",
              "type": "uint256"
            }
          ],
          "internalType": "struct Adapter.Callback",
          "name": "",
          "type": "tuple"
        }
      ],
      "stateMutability": "view",
      "type": "function"
    },
    {
      "inputs": [
        {
          "internalType": "address",
          "name": "nodeAddress",
          "type": "address"
        }
      ],
      "name": "getRewards",
      "outputs": [
        {
          "internalType": "uint256",
          "name": "",
          "type": "uint256"
        }
      ],
      "stateMutability": "view",
      "type": "function"
    },
    {
      "inputs": [
        {
          "internalType": "address",
          "name": "nodeAddress",
          "type": "address"
        }
      ],
      "name": "getStakedAmount",
      "outputs": [
        {
          "internalType": "uint256",
          "name": "",
          "type": "uint256"
        }
      ],
      "stateMutability": "view",
      "type": "function"
    },
    {
      "inputs": [
        {
          "internalType": "uint64",
          "name": "subId",
          "type": "uint64"
        }
      ],
      "name": "getSubscription",
      "outputs": [
        {
          "internalType": "uint96",
          "name": "balance",
          "type": "uint96"
        },
        {
          "internalType": "uint96",
          "name": "inflightCost",
          "type": "uint96"
        },
        {
          "internalType": "uint64",
          "name": "reqCount",
          "type": "uint64"
        },
        {
          "internalType": "address",
          "name": "owner",
          "type": "address"
        },
        {
          "internalType": "address[]",
          "name": "consumers",
          "type": "address[]"
        }
      ],
      "stateMutability": "view",
      "type": "function"
    },
    {
      "inputs": [],
      "name": "groupCount",
      "outputs": [
        {
          "internalType": "uint256",
          "name": "",
          "type": "uint256"
        }
      ],
      "stateMutability": "view",
      "type": "function"
    },
    {
      "inputs": [
        {
          "internalType": "uint256",
          "name": "",
          "type": "uint256"
        }
      ],
      "name": "groups",
      "outputs": [
        {
          "internalType": "uint256",
          "name": "index",
          "type": "uint256"
        },
        {
          "internalType": "uint256",
          "name": "epoch",
          "type": "uint256"
        },
        {
          "internalType": "uint256",
          "name": "size",
          "type": "uint256"
        },
        {
          "internalType": "uint256",
          "name": "threshold",
          "type": "uint256"
        },
        {
          "internalType": "bool",
          "name": "isStrictlyMajorityConsensusReached",
          "type": "bool"
        }
      ],
      "stateMutability": "view",
      "type": "function"
    },
    {
      "inputs": [],
      "name": "lastAssignedGroupIndex",
      "outputs": [
        {
          "internalType": "uint256",
          "name": "",
          "type": "uint256"
        }
      ],
      "stateMutability": "view",
      "type": "function"
    },
    {
      "inputs": [],
      "name": "lastOutput",
      "outputs": [
        {
          "internalType": "uint256",
          "name": "",
          "type": "uint256"
        }
      ],
      "stateMutability": "view",
      "type": "function"
    },
    {
      "inputs": [
        {
          "internalType": "uint256",
          "name": "groupSize",
          "type": "uint256"
        }
      ],
      "name": "minimumThreshold",
      "outputs": [
        {
          "internalType": "uint256",
          "name": "",
          "type": "uint256"
        }
      ],
      "stateMutability": "pure",
      "type": "function"
    },
    {
      "inputs": [],
      "name": "nodeQuit",
      "outputs": [],
      "stateMutability": "nonpayable",
      "type": "function"
    },
    {
      "inputs": [
        {
          "internalType": "bytes",
          "name": "dkgPublicKey",
          "type": "bytes"
        }
      ],
      "name": "nodeRegister",
      "outputs": [],
      "stateMutability": "nonpayable",
      "type": "function"
    },
    {
      "inputs": [
        {
          "internalType": "uint256",
          "name": "stakeAmount",
          "type": "uint256"
        }
      ],
      "name": "nodeStake",
      "outputs": [],
      "stateMutability": "nonpayable",
      "type": "function"
    },
    {
      "inputs": [
        {
          "internalType": "uint256",
          "name": "unstakeAmount",
          "type": "uint256"
        }
      ],
      "name": "nodeUnstake",
      "outputs": [],
      "stateMutability": "nonpayable",
      "type": "function"
    },
    {
      "inputs": [
        {
          "internalType": "address",
          "name": "",
          "type": "address"
        }
      ],
      "name": "nodes",
      "outputs": [
        {
          "internalType": "address",
          "name": "idAddress",
          "type": "address"
        },
        {
          "internalType": "bytes",
          "name": "dkgPublicKey",
          "type": "bytes"
        },
        {
          "internalType": "bool",
          "name": "state",
          "type": "bool"
        },
        {
          "internalType": "uint256",
          "name": "pendingUntilBlock",
          "type": "uint256"
        },
        {
          "internalType": "uint256",
          "name": "staking",
          "type": "uint256"
        }
      ],
      "stateMutability": "view",
      "type": "function"
    },
    {
      "inputs": [],
      "name": "owner",
      "outputs": [
        {
          "internalType": "address",
          "name": "",
          "type": "address"
        }
      ],
      "stateMutability": "view",
      "type": "function"
    },
    {
      "inputs": [
        {
          "internalType": "uint256",
          "name": "groupIndex",
          "type": "uint256"
        },
        {
          "internalType": "address",
          "name": "nodeIdAddress",
          "type": "address"
        }
      ],
      "name": "partialKeyRegistered",
      "outputs": [
        {
          "internalType": "bool",
          "name": "",
          "type": "bool"
        }
      ],
      "stateMutability": "view",
      "type": "function"
    },
    {
      "inputs": [
        {
          "internalType": "uint256",
          "name": "seed",
          "type": "uint256"
        },
        {
          "internalType": "uint256[]",
          "name": "indices",
          "type": "uint256[]"
        },
        {
          "internalType": "uint256",
          "name": "count",
          "type": "uint256"
        }
      ],
      "name": "pickRandomIndex",
      "outputs": [
        {
          "internalType": "uint256[]",
          "name": "",
          "type": "uint256[]"
        }
      ],
      "stateMutability": "pure",
      "type": "function"
    },
    {
      "inputs": [
        {
          "internalType": "uint256",
          "name": "groupIndex",
          "type": "uint256"
        },
        {
          "internalType": "uint256",
          "name": "groupEpoch",
          "type": "uint256"
        }
      ],
      "name": "postProcessDkg",
      "outputs": [],
      "stateMutability": "nonpayable",
      "type": "function"
    },
    {
      "inputs": [
        {
          "internalType": "uint256",
          "name": "groupAIndex",
          "type": "uint256"
        },
        {
          "internalType": "uint256",
          "name": "groupBIndex",
          "type": "uint256"
        }
      ],
      "name": "rebalanceGroup",
      "outputs": [
        {
          "internalType": "bool",
          "name": "",
          "type": "bool"
        }
      ],
      "stateMutability": "nonpayable",
      "type": "function"
    },
    {
      "inputs": [
        {
          "internalType": "address",
          "name": "nodeIdAddress",
          "type": "address"
        },
        {
          "internalType": "uint256",
          "name": "groupIndex",
          "type": "uint256"
        },
        {
          "internalType": "bool",
          "name": "emitEventInstantly",
          "type": "bool"
        }
      ],
      "name": "removeFromGroup",
      "outputs": [
        {
          "internalType": "bool",
          "name": "",
          "type": "bool"
        }
      ],
      "stateMutability": "nonpayable",
      "type": "function"
    },
    {
      "inputs": [],
      "name": "renounceOwnership",
      "outputs": [],
      "stateMutability": "nonpayable",
      "type": "function"
    },
    {
      "inputs": [
        {
          "components": [
            {
              "internalType": "enum IRequestTypeBase.RequestType",
              "name": "requestType",
              "type": "uint8"
            },
            {
              "internalType": "bytes",
              "name": "params",
              "type": "bytes"
            },
            {
              "internalType": "uint64",
              "name": "subId",
              "type": "uint64"
            },
            {
              "internalType": "uint256",
              "name": "seed",
              "type": "uint256"
            },
            {
              "internalType": "uint16",
              "name": "requestConfirmations",
              "type": "uint16"
            },
            {
              "internalType": "uint256",
              "name": "callbackGasLimit",
              "type": "uint256"
            },
            {
              "internalType": "uint256",
              "name": "callbackMaxGasPrice",
              "type": "uint256"
            }
          ],
          "internalType": "struct IAdapter.RandomnessRequestParams",
          "name": "p",
          "type": "tuple"
        }
      ],
      "name": "requestRandomness",
      "outputs": [
        {
          "internalType": "bytes32",
          "name": "",
          "type": "bytes32"
        }
      ],
      "stateMutability": "nonpayable",
      "type": "function"
    },
    {
      "inputs": [
        {
          "internalType": "address",
          "name": "",
          "type": "address"
        }
      ],
      "name": "rewards",
      "outputs": [
        {
          "internalType": "uint256",
          "name": "",
          "type": "uint256"
        }
      ],
      "stateMutability": "view",
      "type": "function"
    },
    {
      "inputs": [
        {
          "internalType": "bytes32",
          "name": "",
          "type": "bytes32"
        }
      ],
      "name": "s_callbacks",
      "outputs": [
        {
          "internalType": "address",
          "name": "callbackContract",
          "type": "address"
        },
        {
          "internalType": "enum IRequestTypeBase.RequestType",
          "name": "requestType",
          "type": "uint8"
        },
        {
          "internalType": "bytes",
          "name": "params",
          "type": "bytes"
        },
        {
          "internalType": "uint64",
          "name": "subId",
          "type": "uint64"
        },
        {
          "internalType": "uint256",
          "name": "seed",
          "type": "uint256"
        },
        {
          "internalType": "uint256",
          "name": "groupIndex",
          "type": "uint256"
        },
        {
          "internalType": "uint256",
          "name": "blockNum",
          "type": "uint256"
        },
        {
          "internalType": "uint16",
          "name": "requestConfirmations",
          "type": "uint16"
        },
        {
          "internalType": "uint256",
          "name": "callbackGasLimit",
          "type": "uint256"
        },
        {
          "internalType": "uint256",
          "name": "callbackMaxGasPrice",
          "type": "uint256"
        }
      ],
      "stateMutability": "view",
      "type": "function"
    },
    {
      "inputs": [
        {
          "internalType": "uint16",
          "name": "minimumRequestConfirmations",
          "type": "uint16"
        },
        {
          "internalType": "uint32",
          "name": "maxGasLimit",
          "type": "uint32"
        },
        {
          "internalType": "uint32",
          "name": "stalenessSeconds",
          "type": "uint32"
        },
        {
          "internalType": "uint32",
          "name": "gasAfterPaymentCalculation",
          "type": "uint32"
        },
        {
          "internalType": "uint32",
          "name": "gasExceptCallback",
          "type": "uint32"
        },
        {
          "internalType": "int256",
          "name": "fallbackWeiPerUnitArpa",
          "type": "int256"
        },
        {
          "internalType": "uint256",
          "name": "signatureTaskExclusiveWindow",
          "type": "uint256"
        },
        {
          "internalType": "uint256",
          "name": "rewardPerSignature",
          "type": "uint256"
        },
        {
          "internalType": "uint256",
          "name": "committerRewardPerSignature",
          "type": "uint256"
        },
        {
          "components": [
            {
              "internalType": "uint32",
              "name": "fulfillmentFlatFeeArpaPPMTier1",
              "type": "uint32"
            },
            {
              "internalType": "uint32",
              "name": "fulfillmentFlatFeeArpaPPMTier2",
              "type": "uint32"
            },
            {
              "internalType": "uint32",
              "name": "fulfillmentFlatFeeArpaPPMTier3",
              "type": "uint32"
            },
            {
              "internalType": "uint32",
              "name": "fulfillmentFlatFeeArpaPPMTier4",
              "type": "uint32"
            },
            {
              "internalType": "uint32",
              "name": "fulfillmentFlatFeeArpaPPMTier5",
              "type": "uint32"
            },
            {
              "internalType": "uint24",
              "name": "reqsForTier2",
              "type": "uint24"
            },
            {
              "internalType": "uint24",
              "name": "reqsForTier3",
              "type": "uint24"
            },
            {
              "internalType": "uint24",
              "name": "reqsForTier4",
              "type": "uint24"
            },
            {
              "internalType": "uint24",
              "name": "reqsForTier5",
              "type": "uint24"
            }
          ],
          "internalType": "struct Adapter.FeeConfig",
          "name": "feeConfig",
          "type": "tuple"
        }
      ],
      "name": "setAdapterConfig",
      "outputs": [],
      "stateMutability": "nonpayable",
      "type": "function"
    },
    {
      "inputs": [
        {
          "internalType": "uint256",
          "name": "nodeStakingAmount",
          "type": "uint256"
        },
        {
          "internalType": "uint256",
          "name": "disqualifiedNodePenaltyAmount",
          "type": "uint256"
        },
        {
          "internalType": "uint256",
          "name": "defaultNumberOfCommitters",
          "type": "uint256"
        },
        {
          "internalType": "uint256",
          "name": "defaultDkgPhaseDuration",
          "type": "uint256"
        },
        {
          "internalType": "uint256",
          "name": "groupMaxCapacity",
          "type": "uint256"
        },
        {
          "internalType": "uint256",
          "name": "idealNumberOfGroups",
          "type": "uint256"
        },
        {
          "internalType": "uint256",
          "name": "pendingBlockAfterQuit",
          "type": "uint256"
        },
        {
          "internalType": "uint256",
          "name": "dkgPostProcessReward",
          "type": "uint256"
        }
      ],
      "name": "setControllerConfig",
      "outputs": [],
      "stateMutability": "nonpayable",
      "type": "function"
    },
    {
      "inputs": [
        {
          "internalType": "address",
          "name": "nodeIdAddress",
          "type": "address"
        },
        {
          "internalType": "uint256",
          "name": "stakingPenalty",
          "type": "uint256"
        },
        {
          "internalType": "uint256",
          "name": "pendingBlock",
          "type": "uint256"
        },
        {
          "internalType": "bool",
          "name": "handleGroup",
          "type": "bool"
        }
      ],
      "name": "slashNode",
      "outputs": [],
      "stateMutability": "nonpayable",
      "type": "function"
    },
    {
      "inputs": [
        {
          "internalType": "address",
          "name": "newOwner",
          "type": "address"
        }
      ],
      "name": "transferOwnership",
      "outputs": [],
      "stateMutability": "nonpayable",
      "type": "function"
    },
    {
      "inputs": [],
      "name": "validGroupIndices",
      "outputs": [
        {
          "internalType": "uint256[]",
          "name": "",
          "type": "uint256[]"
        }
      ],
      "stateMutability": "view",
      "type": "function"
    }
  ],
  "bytecode": {
    "object": "0x60c06040526722222222222222226006553480156200001d57600080fd5b50604051620142f6380380620142f683398181016040528101906200004391906200020d565b81816200006562000059620000d760201b60201c565b620000df60201b60201c565b8173ffffffffffffffffffffffffffffffffffffffff1660808173ffffffffffffffffffffffffffffffffffffffff16815250508073ffffffffffffffffffffffffffffffffffffffff1660a08173ffffffffffffffffffffffffffffffffffffffff16815250505050505062000254565b600033905090565b60008060009054906101000a900473ffffffffffffffffffffffffffffffffffffffff169050816000806101000a81548173ffffffffffffffffffffffffffffffffffffffff021916908373ffffffffffffffffffffffffffffffffffffffff1602179055508173ffffffffffffffffffffffffffffffffffffffff168173ffffffffffffffffffffffffffffffffffffffff167f8be0079c531659141344cd1fd0a4f28419497f9722a3daafe3b4186f6b6457e060405160405180910390a35050565b600080fd5b600073ffffffffffffffffffffffffffffffffffffffff82169050919050565b6000620001d582620001a8565b9050919050565b620001e781620001c8565b8114620001f357600080fd5b50565b6000815190506200020781620001dc565b92915050565b60008060408385031215620002275762000226620001a3565b5b60006200023785828601620001f6565b92505060206200024a85828601620001f6565b9150509250929050565b60805160a0516201406c6200028a6000396000818161555b015261a13c015260008181612b730152615b1a01526201406c6000f3fe60806040523480156200001157600080fd5b5060043610620003b25760003560e01c806386dd2e9e1162000201578063ceb60654116200011d578063e9914eed11620000b1578063f7bbf26a1162000087578063f7bbf26a1462000c01578063fb0882fc1462000c37578063fda669331462000c6d578063fdc934991462000ca357620003b2565b8063e9914eed1462000b75578063edfcb57f1462000bab578063f2fde38b1462000be157620003b2565b8063d87660cd11620000f3578063d87660cd1462000af5578063dd2819281462000b15578063df5332cb1462000b35578063e37eb96c1462000b5557620003b2565b8063ceb606541462000a67578063d164e28d1462000a9d578063d2f9f9a71462000abf57620003b2565b80639d2090481162000195578063a47c7696116200016b578063a47c769614620009b5578063aa81d59a14620009ef578063adbf2f9b1462000a11578063cc36c1e81462000a3157620003b2565b80639d20904814620009275780639ea3b84e146200095d578063a21a23e4146200099357620003b2565b80638da5cb5b11620001d75780638da5cb5b14620008875780638f23b32614620008a957806396324bd414620008cb57806397228a7e146200090557620003b2565b806386dd2e9e14620007fb578063881bd9ab146200081b57806388b12d55146200085157620003b2565b80634da6a55611620002f1578063715018a6116200028557806376a911bc116200025b57806376a911bc146200076357806379ee54f714620007995780637a2af56e14620007cf57806380110e4e14620007db57620003b2565b8063715018a614620007145780637328fceb14620007205780637341c10c146200074357620003b2565b806362d1445011620002c757806362d1445014620006905780636449bcfc14620006b257806364d51a2a14620006d25780636f2afe1614620006f457620003b2565b80634da6a5561462000604578063507dd038146200063a5780635f1cc005146200065a57620003b2565b8063253870ff11620003695780633141d144116200033f5780633141d144146200052357806342424d6f14620005595780634d615424146200058f5780634d79a89314620005ce57620003b2565b8063253870ff14620004ab5780632936ff6514620004cd5780633048a1e6146200050357620003b2565b80630700037d14620003b75780630b919eef14620003ed5780630bf9c5c6146200040f5780630f8d2279146200042f57806315c48b84146200044f578063189a5a171462000471575b600080fd5b620003d56004803603810190620003cf91906200d760565b62000cd9565b604051620003e491906200d7ad565b60405180910390f35b620003f762000cf1565b6040516200040691906200d7ad565b60405180910390f35b6200042d60048036038101906200042791906200d7fb565b62000cf7565b005b6200044d60048036038101906200044791906200dad3565b620014c6565b005b620004596200188d565b6040516200046891906200dbda565b60405180910390f35b6200048f60048036038101906200048991906200d760565b62001892565b604051620004a29594939291906200dcb8565b60405180910390f35b620004b562001985565b604051620004c491906200ddea565b60405180910390f35b620004eb6004803603810190620004e591906200de3f565b62001f1e565b604051620004fa91906200de9b565b60405180910390f35b6200052160048036038101906200051b91906200deb8565b620021f6565b005b6200054160048036038101906200053b91906200deea565b620025e0565b6040516200055091906200de9b565b60405180910390f35b6200057760048036038101906200057191906200deb8565b620026fc565b6040516200058691906200df31565b60405180910390f35b620005ad6004803603810190620005a791906200df89565b62002739565b604051620005c59a999897969594939291906200e060565b60405180910390f35b620005ec6004803603810190620005e691906200d7fb565b6200286c565b604051620005fb91906200e1eb565b60405180910390f35b6200062260048036038101906200061c91906200d760565b6200295f565b6040516200063191906200d7ad565b60405180910390f35b6200065860048036038101906200065291906200deb8565b62002a45565b005b6200067860048036038101906200067291906200deb8565b62002b3e565b6040516200068791906200df31565b60405180910390f35b6200069a62002b71565b604051620006a991906200e273565b60405180910390f35b620006d06004803603810190620006ca91906200e290565b62002b95565b005b620006dc62002c7f565b604051620006eb91906200dbda565b60405180910390f35b6200071260048036038101906200070c91906200e359565b62002c84565b005b6200071e62002d17565b005b6200072a62002d2f565b6040516200073a9291906200e3cb565b60405180910390f35b6200076160048036038101906200075b91906200e429565b6200322c565b005b6200078160048036038101906200077b91906200d760565b62003669565b6040516200079091906200e470565b60405180910390f35b620007b76004803603810190620007b191906200d760565b620036c9565b604051620007c691906200d7ad565b60405180910390f35b620007d962003712565b005b620007f96004803603810190620007f391906200e4fb565b6200380a565b005b6200081960048036038101906200081391906200e67f565b62003a55565b005b6200083960048036038101906200083391906200e7e6565b6200439c565b6040516200084891906200ddea565b60405180910390f35b6200086f60048036038101906200086991906200df89565b620045b9565b6040516200087e91906200e9d4565b60405180910390f35b620008916200479e565b604051620008a091906200df31565b60405180910390f35b620008b3620047c7565b604051620008c291906200d7ad565b60405180910390f35b620008e96004803603810190620008e391906200deb8565b620047cd565b604051620008fc9594939291906200e9f8565b60405180910390f35b6200090f62004810565b6040516200091e91906200d7ad565b60405180910390f35b6200094560048036038101906200093f91906200d760565b62004816565b6040516200095491906200eae6565b60405180910390f35b6200097b60048036038101906200097591906200eb0a565b62004990565b6040516200098a91906200eba5565b60405180910390f35b6200099d62004ac1565b604051620009ac91906200e470565b60405180910390f35b620009d36004803603810190620009cd91906200ebc2565b62004c52565b604051620009e69594939291906200ecb1565b60405180910390f35b620009f962004ee2565b60405162000a0891906200d7ad565b60405180910390f35b62000a2f600480360381019062000a2991906200deb8565b62004ee7565b005b62000a4f600480360381019062000a4991906200eb0a565b6200505b565b60405162000a5e91906200eba5565b60405180910390f35b62000a85600480360381019062000a7f91906200deb8565b6200512b565b60405162000a9491906200f0d3565b60405180910390f35b62000aa762005559565b60405162000ab691906200f11c565b60405180910390f35b62000add600480360381019062000ad791906200ebc2565b6200557d565b60405162000aec91906200f14a565b60405180910390f35b62000b13600480360381019062000b0d91906200de3f565b6200580a565b005b62000b33600480360381019062000b2d91906200f167565b62005a15565b005b62000b53600480360381019062000b4d91906200deb8565b62005c8e565b005b62000b73600480360381019062000b6d91906200f444565b6200617a565b005b62000b93600480360381019062000b8d91906200deb8565b62006d79565b60405162000ba291906200d7ad565b60405180910390f35b62000bc9600480360381019062000bc391906200d7fb565b62006d9f565b60405162000bd891906200df31565b60405180910390f35b62000bff600480360381019062000bf991906200d760565b62006e0b565b005b62000c1f600480360381019062000c1991906200deea565b62006e95565b60405162000c2e91906200f4a6565b60405180910390f35b62000c55600480360381019062000c4f91906200f5d1565b62006f8b565b60405162000c6491906200f633565b60405180910390f35b62000c8b600480360381019062000c8591906200d7fb565b620077b2565b60405162000c9a91906200de9b565b60405180910390f35b62000cc1600480360381019062000cbb91906200f650565b620081d7565b60405162000cd091906200f6d5565b60405180910390f35b60046020528060005260406000206000915090505481565b60055481565b600254821062000d3e576040517f08c379a000000000000000000000000000000000000000000000000000000000815260040162000d35906200f75a565b60405180910390fd5b7fffffffffffffffffffffffffffffffffffffffffffffffffffffffffffffffff62000d6b833362006e95565b0362000dae576040517f08c379a000000000000000000000000000000000000000000000000000000000815260040162000da5906200f7f2565b60405180910390fd5b60006003600084815260200190815260200160002090508060010154821462000e0e576040517f08c379a000000000000000000000000000000000000000000000000000000000815260040162000e05906200f88a565b60405180910390fd5b600073ffffffffffffffffffffffffffffffffffffffff16601b600085815260200190815260200160002060009054906101000a900473ffffffffffffffffffffffffffffffffffffffff1673ffffffffffffffffffffffffffffffffffffffff160362000eb3576040517f08c379a000000000000000000000000000000000000000000000000000000000815260040162000eaa906200f922565b60405180910390fd5b6000601b600085815260200190815260200160002060009054906101000a900473ffffffffffffffffffffffffffffffffffffffff1690507fffffffffffffffffffffffffffffffffffffffffffffffffffffffffffffffff8173ffffffffffffffffffffffffffffffffffffffff1663221f95116040518163ffffffff1660e01b8152600401602060405180830381865afa15801562000f58573d6000803e3d6000fd5b505050506040513d601f19601f8201168201806040525081019062000f7e91906200f982565b60000b1462000fc4576040517f08c379a000000000000000000000000000000000000000000000000000000000815260040162000fbb906200fa04565b60405180910390fd5b8073ffffffffffffffffffffffffffffffffffffffff16639cb8a26a6040518163ffffffff1660e01b8152600401600060405180830381600087803b1580156200100d57600080fd5b505af115801562001022573d6000803e3d6000fd5b505050506000601b600086815260200190815260200160002060006101000a81548173ffffffffffffffffffffffffffffffffffffffff021916908373ffffffffffffffffffffffffffffffffffffffff16021790555060008260070160009054906101000a900460ff16905060006200109c8662008461565b90508162001461576000816000015151036200116657600084600201819055506000846003018190555060005b84600401805490508110156200114d5762001137856004018281548110620010f657620010f56200fa26565b5b906000526020600020906005020160000160009054906101000a900473ffffffffffffffffffffffffffffffffffffffff1660126001015460008062002c84565b808062001144906200fa84565b915050620010c9565b508360040160006200116091906200d1ef565b62001460565b6000816020015160400151905080518560020160008282546200118a91906200fad1565b925050819055506000620011a2866002015462006d79565b905080600311620011b45780620011b7565b60035b866003018190555060005b8251811015620013fc5760005b8760040180549050811015620013e557838281518110620011f557620011f46200fa26565b5b602002602001015173ffffffffffffffffffffffffffffffffffffffff168860040182815481106200122c576200122b6200fa26565b5b906000526020600020906005020160000160009054906101000a900473ffffffffffffffffffffffffffffffffffffffff1673ffffffffffffffffffffffffffffffffffffffff1603620013cf5787600401600189600401805490506200129491906200fad1565b81548110620012a857620012a76200fa26565b5b9060005260206000209060050201886004018281548110620012cf57620012ce6200fa26565b5b90600052602060002090600502016000820160009054906101000a900473ffffffffffffffffffffffffffffffffffffffff168160000160006101000a81548173ffffffffffffffffffffffffffffffffffffffff021916908373ffffffffffffffffffffffffffffffffffffffff16021790555060018201816001019060046200135c9291906200d215565b50905050876004018054806200137757620013766200fb0c565b5b6001900381819060005260206000209060050201600080820160006101000a81549073ffffffffffffffffffffffffffffffffffffffff0219169055600182016000620013c591906200d257565b50509055620013e5565b8080620013dc906200fa84565b915050620011cf565b508080620013f3906200fa84565b915050620011c2565b5060005b825181101562001451576200143b8382815181106200142457620014236200fa26565b5b602002602001015160126001015460008062002c84565b808062001448906200fa84565b91505062001400565b506200145d88620021f6565b50505b5b601260070154600460003373ffffffffffffffffffffffffffffffffffffffff1673ffffffffffffffffffffffffffffffffffffffff1681526020019081526020016000206000828254620014b791906200fb3b565b92505081905550505050505050565b620014d0620089c2565b60c861ffff168a61ffff1611156200152657898a60c86040517fa73869760000000000000000000000000000000000000000000000000000000081526004016200151d939291906200fb98565b60405180910390fd5b600085136200156e57846040517f09d2037f0000000000000000000000000000000000000000000000000000000081526004016200156591906200f4a6565b60405180910390fd5b6040518061012001604052808b61ffff1681526020018a63ffffffff1681526020016000151581526020018963ffffffff1681526020018863ffffffff1681526020018763ffffffff16815260200185815260200184815260200183815250600860008201518160000160006101000a81548161ffff021916908361ffff16021790555060208201518160000160026101000a81548163ffffffff021916908363ffffffff16021790555060408201518160000160066101000a81548160ff02191690831515021790555060608201518160000160076101000a81548163ffffffff021916908363ffffffff160217905550608082015181600001600b6101000a81548163ffffffff021916908363ffffffff16021790555060a082015181600001600f6101000a81548163ffffffff021916908363ffffffff16021790555060c0820151816001015560e08201518160020155610100820151816003015590505080600c60008201518160000160006101000a81548163ffffffff021916908363ffffffff16021790555060208201518160000160046101000a81548163ffffffff021916908363ffffffff16021790555060408201518160000160086101000a81548163ffffffff021916908363ffffffff160217905550606082015181600001600c6101000a81548163ffffffff021916908363ffffffff16021790555060808201518160000160106101000a81548163ffffffff021916908363ffffffff16021790555060a08201518160000160146101000a81548162ffffff021916908362ffffff16021790555060c08201518160000160176101000a81548162ffffff021916908362ffffff16021790555060e082015181600001601a6101000a81548162ffffff021916908362ffffff16021790555061010082015181600001601d6101000a81548162ffffff021916908362ffffff160217905550905050846007819055507fd0b13daf7583541073d4924096b201ccca6cdd72c0d10c63ce4067310691a68d8a8a8a8a8a8a8a8a8a600c604051620018799a999897969594939291906200fea0565b60405180910390a150505050505050505050565b60c881565b601a6020528060005260406000206000915090508060000160009054906101000a900473ffffffffffffffffffffffffffffffffffffffff1690806001018054620018dd906200ff7f565b80601f01602080910402602001604051908101604052809291908181526020018280546200190b906200ff7f565b80156200195c5780601f1062001930576101008083540402835291602001916200195c565b820191906000526020600020905b8154815290600101906020018083116200193e57829003601f168201915b5050505050908060020160009054906101000a900460ff16908060030154908060040154905085565b6060600060025467ffffffffffffffff811115620019a857620019a76200d913565b5b604051908082528060200260200182016040528015620019d75781602001602082028036833780820191505090505b5090506000805b60025481101562001e6057600060036000838152602001908152602001600020604051806101200160405290816000820154815260200160018201548152602001600282015481526020016003820154815260200160048201805480602002602001604051908101604052809291908181526020016000905b8282101562001b2857838290600052602060002090600502016040518060400160405290816000820160009054906101000a900473ffffffffffffffffffffffffffffffffffffffff1673ffffffffffffffffffffffffffffffffffffffff1673ffffffffffffffffffffffffffffffffffffffff1681526020016001820160048060200260405190810160405280929190826004801562001b0f576020028201915b81548152602001906001019080831162001afa575b5050505050815250508152602001906001019062001a57565b5050505081526020016005820180548060200260200160405190810160405280929190818152602001828054801562001bb757602002820191906000526020600020905b8160009054906101000a900473ffffffffffffffffffffffffffffffffffffffff1673ffffffffffffffffffffffffffffffffffffffff168152602001906001019080831162001b6c575b5050505050815260200160068201805480602002602001604051908101604052809291908181526020016000905b8282101562001d9e57838290600052602060002090600702016040518060400160405290816000820180548060200260200160405190810160405280929190818152602001828054801562001c9057602002820191906000526020600020905b8160009054906101000a900473ffffffffffffffffffffffffffffffffffffffff1673ffffffffffffffffffffffffffffffffffffffff168152602001906001019080831162001c45575b5050505050815260200160018201604051806060016040529081600082015481526020016001820160048060200260405190810160405280929190826004801562001cf1576020028201915b81548152602001906001019080831162001cdc575b505050505081526020016005820180548060200260200160405190810160405280929190818152602001828054801562001d8157602002820191906000526020600020905b8160009054906101000a900473ffffffffffffffffffffffffffffffffffffffff1673ffffffffffffffffffffffffffffffffffffffff168152602001906001019080831162001d36575b505050505081525050815250508152602001906001019062001be5565b5050505081526020016007820160009054906101000a900460ff161515151581526020016008820160048060200260405190810160405280929190826004801562001dff576020028201915b81548152602001906001019080831162001dea575b50505050508152505090508060e001511562001e49578184848151811062001e2c5762001e2b6200fa26565b5b602002602001018181525050828062001e45906200fa84565b9350505b50808062001e57906200fa84565b915050620019de565b5060008167ffffffffffffffff81111562001e805762001e7f6200d913565b5b60405190808252806020026020018201604052801562001eaf5781602001602082028036833780820191505090505b50905060005b8281101562001f145783818151811062001ed45762001ed36200fa26565b5b602002602001015182828151811062001ef25762001ef16200fa26565b5b602002602001018181525050808062001f0b906200fa84565b91505062001eb5565b5080935050505090565b60008060036000858152602001908152602001600020905080600201600081548092919062001f4d906200ffb4565b9190505550600081600201540362001f865780600401600062001f7191906200d1ef565b600081600301819055506000915050620021ef565b600080600090505b82600401805490508110156200203b578673ffffffffffffffffffffffffffffffffffffffff1683600401828154811062001fce5762001fcd6200fa26565b5b906000526020600020906005020160000160009054906101000a900473ffffffffffffffffffffffffffffffffffffffff1673ffffffffffffffffffffffffffffffffffffffff160362002025578091506200203b565b808062002032906200fa84565b91505062001f8e565b5081600401600183600401805490506200205691906200fad1565b815481106200206a57620020696200fa26565b5b90600052602060002090600502018260040182815481106200209157620020906200fa26565b5b90600052602060002090600502016000820160009054906101000a900473ffffffffffffffffffffffffffffffffffffffff168160000160006101000a81548173ffffffffffffffffffffffffffffffffffffffff021916908373ffffffffffffffffffffffffffffffffffffffff16021790555060018201816001019060046200211e9291906200d215565b50905050816004018054806200213957620021386200fb0c565b5b6001900381819060005260206000209060050201600080820160006101000a81549073ffffffffffffffffffffffffffffffffffffffff02191690556001820160006200218791906200d257565b5050905560006200219c836002015462006d79565b905060038111620021af576003620021b1565b805b8360030181905550600383600201541015620021d45760019350505050620021ef565b8415620021e757620021e68662005c8e565b5b600093505050505b9392505050565b600060016002546200220991906200fad1565b67ffffffffffffffff8111156200222557620022246200d913565b5b604051908082528060200260200182016040528015620022545781602001602082028036833780820191505090505b5090506000805b600254811015620022b857838114620022a257808383815181106200228557620022846200fa26565b5b60200260200101818152505081806200229e906200fa84565b9250505b8080620022af906200fa84565b9150506200225b565b5060006001905060005b83518110156200231b57620022f5848281518110620022e657620022e56200fa26565b5b602002602001015186620077b2565b156200230557600091506200231b565b808062002312906200fa84565b915050620022c2565b508015620025da57600060036000868152602001908152602001600020905060008160070160006101000a81548160ff0219169083151502179055506000816004018054905067ffffffffffffffff8111156200237d576200237c6200d913565b5b604051908082528060200260200182016040528015620023ac5781602001602082028036833780820191505090505b50905060005b82600401805490508110156200247357826004018181548110620023db57620023da6200fa26565b5b906000526020600020906005020160000160009054906101000a900473ffffffffffffffffffffffffffffffffffffffff168282815181106200242357620024226200fa26565b5b602002602001019073ffffffffffffffffffffffffffffffffffffffff16908173ffffffffffffffffffffffffffffffffffffffff168152505080806200246a906200fa84565b915050620023b2565b50600060025467ffffffffffffffff8111156200249557620024946200d913565b5b604051908082528060200260200182016040528015620024c45781602001602082028036833780820191505090505b50905060005b82518110156200255e576000620024e062002d2f565b509050808903620024f257506200255e565b6200251d8483815181106200250c576200250b6200fa26565b5b602002602001015182600062008a47565b60018382815181106200253557620025346200fa26565b5b60200260200101901515908115158152505050808062002555906200fa84565b915050620024ca565b5060005b8151811015620025d5578181815181106200258257620025816200fa26565b5b60200260200101518015620025ad575060038060008381526020019081526020016000206002015410155b15620025bf57620025be8162005c8e565b5b8080620025cc906200fa84565b91505062002562565b505050505b50505050565b60008060036000858152602001908152602001600020905060005b8160040180549050811015620026ef578373ffffffffffffffffffffffffffffffffffffffff168260040182815481106200263b576200263a6200fa26565b5b906000526020600020906005020160000160009054906101000a900473ffffffffffffffffffffffffffffffffffffffff1673ffffffffffffffffffffffffffffffffffffffff1603620026d9576000826004018281548110620026a457620026a36200fa26565b5b9060005260206000209060050201600101600060048110620026cb57620026ca6200fa26565b5b0154141592505050620026f6565b8080620026e6906200fa84565b915050620025fb565b5060009150505b92915050565b6000601b600083815260200190815260200160002060009054906101000a900473ffffffffffffffffffffffffffffffffffffffff169050919050565b600d6020528060005260406000206000915090508060000160009054906101000a900473ffffffffffffffffffffffffffffffffffffffff16908060000160149054906101000a900460ff169080600101805462002797906200ff7f565b80601f0160208091040260200160405190810160405280929190818152602001828054620027c5906200ff7f565b8015620028165780601f10620027ea5761010080835404028352916020019162002816565b820191906000526020600020905b815481529060010190602001808311620027f857829003601f168201915b5050505050908060020160009054906101000a900467ffffffffffffffff16908060030154908060040154908060050154908060060160009054906101000a900461ffff1690806007015490806008015490508a565b620028766200d273565b600360008481526020019081526020016000206004018281548110620028a157620028a06200fa26565b5b90600052602060002090600502016040518060400160405290816000820160009054906101000a900473ffffffffffffffffffffffffffffffffffffffff1673ffffffffffffffffffffffffffffffffffffffff1673ffffffffffffffffffffffffffffffffffffffff168152602001600182016004806020026040519081016040528092919082600480156200294e576020028201915b81548152602001906001019080831162002939575b505050505081525050905092915050565b600080601a60008473ffffffffffffffffffffffffffffffffffffffff1673ffffffffffffffffffffffffffffffffffffffff16815260200190815260200160002090508273ffffffffffffffffffffffffffffffffffffffff168160000160009054906101000a900473ffffffffffffffffffffffffffffffffffffffff1673ffffffffffffffffffffffffffffffffffffffff161462002a38576040517f08c379a000000000000000000000000000000000000000000000000000000000815260040162002a2f9062010032565b60405180910390fd5b8060040154915050919050565b6000601a60003373ffffffffffffffffffffffffffffffffffffffff1673ffffffffffffffffffffffffffffffffffffffff16815260200190815260200160002090503373ffffffffffffffffffffffffffffffffffffffff168160000160009054906101000a900473ffffffffffffffffffffffffffffffffffffffff1673ffffffffffffffffffffffffffffffffffffffff161462002b1d576040517f08c379a000000000000000000000000000000000000000000000000000000000815260040162002b149062010032565b60405180910390fd5b8181600401600082825462002b3391906200fb3b565b925050819055505050565b601b6020528060005260406000206000915054906101000a900473ffffffffffffffffffffffffffffffffffffffff1681565b7f000000000000000000000000000000000000000000000000000000000000000081565b62002b9f620089c2565b604051806101000160405280898152602001888152602001878152602001868152602001858152602001848152602001838152602001828152506012600082015181600001556020820151816001015560408201518160020155606082015181600301556080820151816004015560a0820151816005015560c0820151816006015560e082015181600701559050507fb326503eb0bcef604d90ea68d5d2dcd2c4fc06d51be760848f323e2c40a14627888888888888888860405162002c6d98979695949392919062010054565b60405180910390a15050505050505050565b606481565b6000601a60008673ffffffffffffffffffffffffffffffffffffffff1673ffffffffffffffffffffffffffffffffffffffff16815260200190815260200160002090508381600401600082825462002cdd91906200fad1565b925050819055506012600001548160040154108062002cfc5750600083115b1562002d105762002d0f8584846200580a565b5b5050505050565b62002d21620089c2565b62002d2d600062008ba8565b565b60008060006002540362002d5957600062002d4962008c6c565b9050806000925092505062003228565b600080601260040154905060005b600254811015620031c257600060036000838152602001908152602001600020604051806101200160405290816000820154815260200160018201548152602001600282015481526020016003820154815260200160048201805480602002602001604051908101604052809291908181526020016000905b8282101562002eb157838290600052602060002090600502016040518060400160405290816000820160009054906101000a900473ffffffffffffffffffffffffffffffffffffffff1673ffffffffffffffffffffffffffffffffffffffff1673ffffffffffffffffffffffffffffffffffffffff1681526020016001820160048060200260405190810160405280929190826004801562002e98576020028201915b81548152602001906001019080831162002e83575b5050505050815250508152602001906001019062002de0565b5050505081526020016005820180548060200260200160405190810160405280929190818152602001828054801562002f4057602002820191906000526020600020905b8160009054906101000a900473ffffffffffffffffffffffffffffffffffffffff1673ffffffffffffffffffffffffffffffffffffffff168152602001906001019080831162002ef5575b5050505050815260200160068201805480602002602001604051908101604052809291908181526020016000905b82821015620031275783829060005260206000209060070201604051806040016040529081600082018054806020026020016040519081016040528092919081815260200182805480156200301957602002820191906000526020600020905b8160009054906101000a900473ffffffffffffffffffffffffffffffffffffffff1673ffffffffffffffffffffffffffffffffffffffff168152602001906001019080831162002fce575b505050505081526020016001820160405180606001604052908160008201548152602001600182016004806020026040519081016040528092919082600480156200307a576020028201915b81548152602001906001019080831162003065575b50505050508152602001600582018054806020026020016040519081016040528092919081815260200182805480156200310a57602002820191906000526020600020905b8160009054906101000a900473ffffffffffffffffffffffffffffffffffffffff1673ffffffffffffffffffffffffffffffffffffffff1681526020019060010190808311620030bf575b505050505081525050815250508152602001906001019062002f6e565b5050505081526020016007820160009054906101000a900460ff161515151581526020016008820160048060200260405190810160405280929190826004801562003188576020028201915b81548152602001906001019080831162003173575b50505050508152505090508281604001511015620031ab57806040015192508193505b508080620031b9906200fa84565b91505062002d67565b506000620031cf62001985565b51905060126005015481108015620031e8575060025481145b80620031f8575060126004015482145b156200321d5760006200320a62008c6c565b9050806001955095505050505062003228565b826000945094505050505b9091565b816000600f60008367ffffffffffffffff1667ffffffffffffffff16815260200190815260200160002060000160009054906101000a900473ffffffffffffffffffffffffffffffffffffffff169050600073ffffffffffffffffffffffffffffffffffffffff168173ffffffffffffffffffffffffffffffffffffffff1603620032e3576040517f1f6a65b600000000000000000000000000000000000000000000000000000000815260040160405180910390fd5b8073ffffffffffffffffffffffffffffffffffffffff163373ffffffffffffffffffffffffffffffffffffffff16146200335657806040517fd8a3fb520000000000000000000000000000000000000000000000000000000081526004016200334d91906200df31565b60405180910390fd5b600860000160069054906101000a900460ff1615620033a1576040517fed3ba6a600000000000000000000000000000000000000000000000000000000815260040160405180910390fd5b606461ffff16600f60008667ffffffffffffffff1667ffffffffffffffff16815260200190815260200160002060020180549050036200340d576040517f05a48e0f00000000000000000000000000000000000000000000000000000000815260040160405180910390fd5b6000600e60008573ffffffffffffffffffffffffffffffffffffffff1673ffffffffffffffffffffffffffffffffffffffff16815260200190815260200160002060000160008667ffffffffffffffff1667ffffffffffffffff16815260200190815260200160002060009054906101000a900467ffffffffffffffff1667ffffffffffffffff160362003663576001600e60008573ffffffffffffffffffffffffffffffffffffffff1673ffffffffffffffffffffffffffffffffffffffff16815260200190815260200160002060000160008667ffffffffffffffff1667ffffffffffffffff16815260200190815260200160002060006101000a81548167ffffffffffffffff021916908367ffffffffffffffff16021790555083600e60008573ffffffffffffffffffffffffffffffffffffffff1673ffffffffffffffffffffffffffffffffffffffff16815260200190815260200160002060010160006101000a81548167ffffffffffffffff021916908367ffffffffffffffff160217905550600f60008567ffffffffffffffff1667ffffffffffffffff168152602001908152602001600020600201839080600181540180825580915050600190039060005260206000200160009091909190916101000a81548173ffffffffffffffffffffffffffffffffffffffff021916908373ffffffffffffffffffffffffffffffffffffffff1602179055508367ffffffffffffffff167f43dc749a04ac8fb825cbd514f7c0e13f13bc6f2ee66043b76629d51776cff8e0846040516200365a91906200df31565b60405180910390a25b50505050565b6000600e60008373ffffffffffffffffffffffffffffffffffffffff1673ffffffffffffffffffffffffffffffffffffffff16815260200190815260200160002060010160009054906101000a900467ffffffffffffffff169050919050565b6000600460008373ffffffffffffffffffffffffffffffffffffffff1673ffffffffffffffffffffffffffffffffffffffff168152602001908152602001600020549050919050565b6000601a60003373ffffffffffffffffffffffffffffffffffffffff1673ffffffffffffffffffffffffffffffffffffffff16815260200190815260200160002090503373ffffffffffffffffffffffffffffffffffffffff168160000160009054906101000a900473ffffffffffffffffffffffffffffffffffffffff1673ffffffffffffffffffffffffffffffffffffffff1614620037ea576040517f08c379a0000000000000000000000000000000000000000000000000000000008152600401620037e19062010032565b60405180910390fd5b620037fd3360126006015460016200580a565b6000816004018190555050565b600073ffffffffffffffffffffffffffffffffffffffff16601a60003373ffffffffffffffffffffffffffffffffffffffff1673ffffffffffffffffffffffffffffffffffffffff16815260200190815260200160002060000160009054906101000a900473ffffffffffffffffffffffffffffffffffffffff1673ffffffffffffffffffffffffffffffffffffffff1614620038de576040517f08c379a0000000000000000000000000000000000000000000000000000000008152600401620038d59062010132565b60405180910390fd5b60006200392f83838080601f016020809104026020016040519081016040528093929190818152602001838380828437600081840152601f19601f8201169050808301925050505050505062008cca565b90506200393c8162008d5e565b62003973576040517fa2d0fee800000000000000000000000000000000000000000000000000000000815260040160405180910390fd5b6000601a60003373ffffffffffffffffffffffffffffffffffffffff1673ffffffffffffffffffffffffffffffffffffffff1681526020019081526020016000209050338160000160006101000a81548173ffffffffffffffffffffffffffffffffffffffff021916908373ffffffffffffffffffffffffffffffffffffffff160217905550838382600101918262003a0e92919062010327565b5060018160020160006101000a81548160ff02191690831515021790555060008160030181905550601260000154816004018190555062003a4f3362008e97565b50505050565b60005a90506000600d6000868152602001908152602001600020604051806101400160405290816000820160009054906101000a900473ffffffffffffffffffffffffffffffffffffffff1673ffffffffffffffffffffffffffffffffffffffff1673ffffffffffffffffffffffffffffffffffffffff1681526020016000820160149054906101000a900460ff16600281111562003af95762003af86200dfbb565b5b600281111562003b0e5762003b0d6200dfbb565b5b815260200160018201805462003b24906200ff7f565b80601f016020809104026020016040519081016040528092919081815260200182805462003b52906200ff7f565b801562003ba35780601f1062003b775761010080835404028352916020019162003ba3565b820191906000526020600020905b81548152906001019060200180831162003b8557829003601f168201915b505050505081526020016002820160009054906101000a900467ffffffffffffffff1667ffffffffffffffff1667ffffffffffffffff1681526020016003820154815260200160048201548152602001600582015481526020016006820160009054906101000a900461ffff1661ffff1661ffff168152602001600782015481526020016008820154815250509050600081608001510362003c71576040517f3688124a00000000000000000000000000000000000000000000000000000000815260040160405180910390fd5b8060e0015161ffff168160c0015162003c8b91906200fb3b565b43101562003cd0576040517f08c379a000000000000000000000000000000000000000000000000000000000815260040162003cc7906201045c565b60405180910390fd5b8060a00151861415801562003cfb57506008600101548160c0015162003cf791906200fb3b565b4311155b1562003d33576040517ff06e777a00000000000000000000000000000000000000000000000000000000815260040160405180910390fd5b600254861062003d7a576040517f08c379a000000000000000000000000000000000000000000000000000000000815260040162003d71906200f75a565b60405180910390fd5b62003d858462008fda565b62003dbc576040517f8529df1f00000000000000000000000000000000000000000000000000000000815260040160405180910390fd5b600083510362003df8576040517f8bdcc37500000000000000000000000000000000000000000000000000000000815260040160405180910390fd5b600060036000888152602001908152602001600020905062003ea58160050180548060200260200160405190810160405280929190818152602001828054801562003e9957602002820191906000526020600020905b8160009054906101000a900473ffffffffffffffffffffffffffffffffffffffff1673ffffffffffffffffffffffffffffffffffffffff168152602001906001019080831162003e4e575b5050505050336200905d565b62003edc576040517fd9ce719d00000000000000000000000000000000000000000000000000000000815260040160405180910390fd5b600082608001518360c0015160405160200162003efb929190620104a3565b6040516020818303038152906040529050600062003f1982620090ed565b905062003f7362003f2a886200915e565b8460080160048060200260405190810160405280929190826004801562003f67576020028201915b81548152602001906001019080831162003f52575b50505050508362009289565b62003faa576040517f8baa579f00000000000000000000000000000000000000000000000000000000815260040160405180910390fd5b6000865167ffffffffffffffff81111562003fca5762003fc96200d913565b5b6040519080825280602002602001820160405280156200400757816020015b62003ff36200d2ab565b81526020019060019003908162003fe95790505b5090506000875167ffffffffffffffff8111156200402a57620040296200d913565b5b6040519080825280602002602001820160405280156200406757816020015b620040536200d2cd565b815260200190600190039081620040495790505b5090506000885167ffffffffffffffff8111156200408a57620040896200d913565b5b604051908082528060200260200182016040528015620040b95781602001602082028036833780820191505090505b50905060005b8951811015620042f557620040f58a8281518110620040e357620040e26200fa26565b5b60200260200101516020015162008fda565b6200412c576040517fd70936fa00000000000000000000000000000000000000000000000000000000815260040160405180910390fd5b620041588a82815181106200414657620041456200fa26565b5b6020026020010151602001516200915e565b8482815181106200416e576200416d6200fa26565b5b6020026020010181905250866004018a82815181106200419357620041926200fa26565b5b60200260200101516000015181548110620041b357620041b26200fa26565b5b9060005260206000209060050201600101600480602002604051908101604052809291908260048015620041fd576020028201915b815481526020019060010190808311620041e8575b50505050508382815181106200421857620042176200fa26565b5b6020026020010181905250866004018a82815181106200423d576200423c6200fa26565b5b602002602001015160000151815481106200425d576200425c6200fa26565b5b906000526020600020906005020160000160009054906101000a900473ffffffffffffffffffffffffffffffffffffffff16828281518110620042a557620042a46200fa26565b5b602002602001019073ffffffffffffffffffffffffffffffffffffffff16908173ffffffffffffffffffffffffffffffffffffffff16815250508080620042ec906200fa84565b915050620040bf565b5062004303838386620094d1565b6200433a576040517f9c2d1c6d00000000000000000000000000000000000000000000000000000000815260040160405180910390fd5b60008a6040516020016200434f91906200d7ad565b6040516020818303038152906040528051906020012060001c905080600681905550620043808c828f8c8c620097aa565b50506200438d826200a011565b50505050505050505050505050565b606060008267ffffffffffffffff811115620043bd57620043bc6200d913565b5b604051908082528060200260200182016040528015620043ec5781602001602082028036833780820191505090505b5090506000845167ffffffffffffffff8111156200440f576200440e6200d913565b5b6040519080825280602002602001820160405280156200443e5781602001602082028036833780820191505090505b50905060005b8551811015620044a4578581815181106200446457620044636200fa26565b5b60200260200101518282815181106200448257620044816200fa26565b5b60200260200101818152505080806200449b906200fa84565b91505062004444565b5060008151905060005b85811015620045ab576000828983604051602001620044cf929190620104a3565b6040516020818303038152906040528051906020012060001c620044f4919062010502565b90508381815181106200450c576200450b6200fa26565b5b60200260200101518583815181106200452a57620045296200fa26565b5b602002602001018181525050836001846200454691906200fad1565b815181106200455a57620045596200fa26565b5b60200260200101518482815181106200457857620045776200fa26565b5b602002602001018181525050828062004591906200ffb4565b935050508080620045a2906200fa84565b915050620044ae565b508293505050509392505050565b620045c36200d2ef565b600d6000838152602001908152602001600020604051806101400160405290816000820160009054906101000a900473ffffffffffffffffffffffffffffffffffffffff1673ffffffffffffffffffffffffffffffffffffffff1673ffffffffffffffffffffffffffffffffffffffff1681526020016000820160149054906101000a900460ff16600281111562004660576200465f6200dfbb565b5b60028111156200467557620046746200dfbb565b5b81526020016001820180546200468b906200ff7f565b80601f0160208091040260200160405190810160405280929190818152602001828054620046b9906200ff7f565b80156200470a5780601f10620046de576101008083540402835291602001916200470a565b820191906000526020600020905b815481529060010190602001808311620046ec57829003601f168201915b505050505081526020016002820160009054906101000a900467ffffffffffffffff1667ffffffffffffffff1667ffffffffffffffff1681526020016003820154815260200160048201548152602001600582015481526020016006820160009054906101000a900461ffff1661ffff1661ffff168152602001600782015481526020016008820154815250509050919050565b60008060009054906101000a900473ffffffffffffffffffffffffffffffffffffffff16905090565b60025481565b60036020528060005260406000206000915090508060000154908060010154908060020154908060030154908060070160009054906101000a900460ff16905085565b60065481565b620048206200d37b565b601a60008373ffffffffffffffffffffffffffffffffffffffff1673ffffffffffffffffffffffffffffffffffffffff1681526020019081526020016000206040518060a00160405290816000820160009054906101000a900473ffffffffffffffffffffffffffffffffffffffff1673ffffffffffffffffffffffffffffffffffffffff1673ffffffffffffffffffffffffffffffffffffffff168152602001600182018054620048d2906200ff7f565b80601f016020809104026020016040519081016040528092919081815260200182805462004900906200ff7f565b8015620049515780601f10620049255761010080835404028352916020019162004951565b820191906000526020600020905b8154815290600101906020018083116200493357829003601f168201915b505050505081526020016002820160009054906101000a900460ff16151515158152602001600382015481526020016004820154815250509050919050565b6000806200499d6200a10f565b905060008113620049e757806040517f09d2037f000000000000000000000000000000000000000000000000000000008152600401620049de91906200f4a6565b60405180910390fd5b6000815a8888620049f991906200fb3b565b62004a0591906200fad1565b85670de0b6b3a764000062004a1b91906201053a565b62004a2791906201053a565b62004a3391906201059b565b905060008563ffffffff1664e8d4a5100062004a5091906201053a565b9050806b04d8c55aefb8c05b5c00000062004a6c91906200fad1565b82111562004aa6576040517fe80fa38100000000000000000000000000000000000000000000000000000000815260040160405180910390fd5b808262004ab491906200fb3b565b9350505050949350505050565b6000600860000160069054906101000a900460ff161562004b0e576040517fed3ba6a600000000000000000000000000000000000000000000000000000000815260040160405180910390fd5b6010600081819054906101000a900467ffffffffffffffff168092919062004b3690620105d3565b91906101000a81548167ffffffffffffffff021916908367ffffffffffffffff1602179055505033600f6000601060009054906101000a900467ffffffffffffffff1667ffffffffffffffff1667ffffffffffffffff16815260200190815260200160002060000160006101000a81548173ffffffffffffffffffffffffffffffffffffffff021916908373ffffffffffffffffffffffffffffffffffffffff160217905550601060009054906101000a900467ffffffffffffffff1667ffffffffffffffff167f464722b4166576d3dcbba877b999bc35cf911f4eaf434b7eba68fa113951d0bf3360405162004c2e91906200df31565b60405180910390a2601060009054906101000a900467ffffffffffffffff16905090565b6000806000806060600073ffffffffffffffffffffffffffffffffffffffff16600f60008867ffffffffffffffff1667ffffffffffffffff16815260200190815260200160002060000160009054906101000a900473ffffffffffffffffffffffffffffffffffffffff1673ffffffffffffffffffffffffffffffffffffffff160362004d0b576040517f1f6a65b600000000000000000000000000000000000000000000000000000000815260040160405180910390fd5b600f60008767ffffffffffffffff1667ffffffffffffffff16815260200190815260200160002060030160009054906101000a90046bffffffffffffffffffffffff16600f60008867ffffffffffffffff1667ffffffffffffffff168152602001908152602001600020600301600c9054906101000a90046bffffffffffffffffffffffff16600f60008967ffffffffffffffff1667ffffffffffffffff16815260200190815260200160002060050160009054906101000a900467ffffffffffffffff16600f60008a67ffffffffffffffff1667ffffffffffffffff16815260200190815260200160002060000160009054906101000a900473ffffffffffffffffffffffffffffffffffffffff16600f60008b67ffffffffffffffff1667ffffffffffffffff1681526020019081526020016000206002018080548060200260200160405190810160405280929190818152602001828054801562004ec857602002820191906000526020600020905b8160009054906101000a900473ffffffffffffffffffffffffffffffffffffffff1673ffffffffffffffffffffffffffffffffffffffff168152602001906001019080831162004e7d575b505050505090509450945094509450945091939590929450565b600381565b6000601a60003373ffffffffffffffffffffffffffffffffffffffff1673ffffffffffffffffffffffffffffffffffffffff16815260200190815260200160002090503373ffffffffffffffffffffffffffffffffffffffff168160000160009054906101000a900473ffffffffffffffffffffffffffffffffffffffff1673ffffffffffffffffffffffffffffffffffffffff161462004fbf576040517f08c379a000000000000000000000000000000000000000000000000000000000815260040162004fb69062010032565b60405180910390fd5b600115158160020160009054906101000a900460ff161515036200503a5760126000015482826004015462004ff591906200fad1565b101562005039576040517f08c379a000000000000000000000000000000000000000000000000000000000815260040162005030906201067e565b60405180910390fd5b5b818160040160008282546200505091906200fad1565b925050819055505050565b600080620050686200a10f565b905060008113620050b257806040517f09d2037f000000000000000000000000000000000000000000000000000000008152600401620050a991906200f4a6565b60405180910390fd5b6000818787620050c391906200fb3b565b85670de0b6b3a7640000620050d991906201053a565b620050e591906201053a565b620050f191906201059b565b905060008563ffffffff1664e8d4a510006200510e91906201053a565b905080826200511e91906200fb3b565b9350505050949350505050565b620051356200d3c2565b60036000838152602001908152602001600020604051806101200160405290816000820154815260200160018201548152602001600282015481526020016003820154815260200160048201805480602002602001604051908101604052809291908181526020016000905b828210156200527257838290600052602060002090600502016040518060400160405290816000820160009054906101000a900473ffffffffffffffffffffffffffffffffffffffff1673ffffffffffffffffffffffffffffffffffffffff1673ffffffffffffffffffffffffffffffffffffffff1681526020016001820160048060200260405190810160405280929190826004801562005259576020028201915b81548152602001906001019080831162005244575b50505050508152505081526020019060010190620051a1565b505050508152602001600582018054806020026020016040519081016040528092919081815260200182805480156200530157602002820191906000526020600020905b8160009054906101000a900473ffffffffffffffffffffffffffffffffffffffff1673ffffffffffffffffffffffffffffffffffffffff1681526020019060010190808311620052b6575b5050505050815260200160068201805480602002602001604051908101604052809291908181526020016000905b82821015620054e8578382906000526020600020906007020160405180604001604052908160008201805480602002602001604051908101604052809291908181526020018280548015620053da57602002820191906000526020600020905b8160009054906101000a900473ffffffffffffffffffffffffffffffffffffffff1673ffffffffffffffffffffffffffffffffffffffff16815260200190600101908083116200538f575b505050505081526020016001820160405180606001604052908160008201548152602001600182016004806020026040519081016040528092919082600480156200543b576020028201915b81548152602001906001019080831162005426575b5050505050815260200160058201805480602002602001604051908101604052809291908181526020018280548015620054cb57602002820191906000526020600020905b8160009054906101000a900473ffffffffffffffffffffffffffffffffffffffff1673ffffffffffffffffffffffffffffffffffffffff168152602001906001019080831162005480575b50505050508152505081525050815260200190600101906200532f565b5050505081526020016007820160009054906101000a900460ff161515151581526020016008820160048060200260405190810160405280929190826004801562005549576020028201915b81548152602001906001019080831162005534575b5050505050815250509050919050565b7f000000000000000000000000000000000000000000000000000000000000000081565b600080600c604051806101200160405290816000820160009054906101000a900463ffffffff1663ffffffff1663ffffffff1681526020016000820160049054906101000a900463ffffffff1663ffffffff1663ffffffff1681526020016000820160089054906101000a900463ffffffff1663ffffffff1663ffffffff16815260200160008201600c9054906101000a900463ffffffff1663ffffffff1663ffffffff1681526020016000820160109054906101000a900463ffffffff1663ffffffff1663ffffffff1681526020016000820160149054906101000a900462ffffff1662ffffff1662ffffff1681526020016000820160179054906101000a900462ffffff1662ffffff1662ffffff16815260200160008201601a9054906101000a900462ffffff1662ffffff1662ffffff16815260200160008201601d9054906101000a900462ffffff1662ffffff1662ffffff168152505090508267ffffffffffffffff166000111580156200570957508060a0015162ffffff168367ffffffffffffffff1611155b156200571d57806000015191505062005805565b8267ffffffffffffffff168160a0015162ffffff161080156200575357508060c0015162ffffff168367ffffffffffffffff1611155b156200576757806020015191505062005805565b8267ffffffffffffffff168160c0015162ffffff161080156200579d57508060e0015162ffffff168367ffffffffffffffff1611155b15620057b157806040015191505062005805565b8267ffffffffffffffff168160e0015162ffffff16108015620057e8575080610100015162ffffff168367ffffffffffffffff1611155b15620057fc57806060015191505062005805565b80608001519150505b919050565b8015620058ae576000806000905060005b6002548110156200587c577fffffffffffffffffffffffffffffffffffffffffffffffffffffffffffffffff62005853828862006e95565b146200586657809250600191506200587c565b808062005873906200fa84565b9150506200581b565b508015620058ab576000620058948684600162001f1e565b90508015620058a957620058a883620021f6565b5b505b50505b6000601a60008573ffffffffffffffffffffffffffffffffffffffff1673ffffffffffffffffffffffffffffffffffffffff16815260200190815260200160002060020160006101000a81548160ff021916908315150217905550600043905043601a60008673ffffffffffffffffffffffffffffffffffffffff1673ffffffffffffffffffffffffffffffffffffffff168152602001908152602001600020600301541115620059ba5782601a60008673ffffffffffffffffffffffffffffffffffffffff1673ffffffffffffffffffffffffffffffffffffffff1681526020019081526020016000206003016000828254620059ad91906200fb3b565b9250508190555062005a0f565b8281620059c891906200fb3b565b601a60008673ffffffffffffffffffffffffffffffffffffffff1673ffffffffffffffffffffffffffffffffffffffff168152602001908152602001600020600301819055505b50505050565b600860000160069054906101000a900460ff161562005a60576040517fed3ba6a600000000000000000000000000000000000000000000000000000000815260040160405180910390fd5b600073ffffffffffffffffffffffffffffffffffffffff16600f60008467ffffffffffffffff1667ffffffffffffffff16815260200190815260200160002060000160009054906101000a900473ffffffffffffffffffffffffffffffffffffffff1673ffffffffffffffffffffffffffffffffffffffff160362005b11576040517f1f6a65b600000000000000000000000000000000000000000000000000000000815260040160405180910390fd5b62005b603330837f000000000000000000000000000000000000000000000000000000000000000073ffffffffffffffffffffffffffffffffffffffff166200a213909392919063ffffffff16565b6000600f60008467ffffffffffffffff1667ffffffffffffffff16815260200190815260200160002060030160009054906101000a90046bffffffffffffffffffffffff166bffffffffffffffffffffffff16905081600f60008567ffffffffffffffff1667ffffffffffffffff16815260200190815260200160002060030160008282829054906101000a90046bffffffffffffffffffffffff1662005c089190620106a0565b92506101000a8154816bffffffffffffffffffffffff02191690836bffffffffffffffffffffffff1602179055508267ffffffffffffffff167fd39ec07f4e209f627a4c427971473820dc129761ba28de8906bd56f57101d4f882848462005c7191906200fb3b565b60405162005c81929190620106e9565b60405180910390a2505050565b600254811062005cd5576040517f08c379a000000000000000000000000000000000000000000000000000000000815260040162005ccc906200f75a565b60405180910390fd5b6001600081548092919062005cea906200fa84565b9190505550600060036000838152602001908152602001600020905080600101600081548092919062005d1d906200fa84565b919050555060008160070160006101000a81548160ff02191690831515021790555080600501600062005d5191906200d418565b80600601600062005d6391906200d43b565b6000816003015460126003015460405162005d7e906200d461565b62005d8b929190620106e9565b604051809103906000f08015801562005da8573d6000803e3d6000fd5b50905080601b600085815260200190815260200160002060006101000a81548173ffffffffffffffffffffffffffffffffffffffff021916908373ffffffffffffffffffffffffffffffffffffffff1602179055506000826002015467ffffffffffffffff81111562005e205762005e1f6200d913565b5b60405190808252806020026020018201604052801562005e4f5781602001602082028036833780820191505090505b5090506000836002015467ffffffffffffffff81111562005e755762005e746200d913565b5b60405190808252806020026020018201604052801562005eaa57816020015b606081526020019060019003908162005e945790505b50905060005b8460020154811015620060ac5784600401818154811062005ed65762005ed56200fa26565b5b906000526020600020906005020160000160009054906101000a900473ffffffffffffffffffffffffffffffffffffffff1683828151811062005f1e5762005f1d6200fa26565b5b602002602001019073ffffffffffffffffffffffffffffffffffffffff16908173ffffffffffffffffffffffffffffffffffffffff1681525050601a600086600401838154811062005f755762005f746200fa26565b5b906000526020600020906005020160000160009054906101000a900473ffffffffffffffffffffffffffffffffffffffff1673ffffffffffffffffffffffffffffffffffffffff1673ffffffffffffffffffffffffffffffffffffffff168152602001908152602001600020600101805462005ff1906200ff7f565b80601f01602080910402602001604051908101604052809291908181526020018280546200601f906200ff7f565b8015620060705780601f10620060445761010080835404028352916020019162006070565b820191906000526020600020905b8154815290600101906020018083116200605257829003601f168201915b50505050508282815181106200608b576200608a6200fa26565b5b60200260200101819052508080620060a3906200fa84565b91505062005eb0565b508273ffffffffffffffffffffffffffffffffffffffff166337f8d5ff83836040518363ffffffff1660e01b8152600401620060ea929190620107e6565b600060405180830381600087803b1580156200610557600080fd5b505af11580156200611a573d6000803e3d6000fd5b505050507fddab7a8af4433487de9ecd992d10f1dbaffb04d57e74e8574b2ec1d0356d188c84600001548560010154866002015487600301548643896040516200616b979695949392919062010821565b60405180910390a15050505050565b600254816000015110620061c5576040517f08c379a0000000000000000000000000000000000000000000000000000000008152600401620061bc906200f75a565b60405180910390fd5b600073ffffffffffffffffffffffffffffffffffffffff16601b60008360000151815260200190815260200160002060009054906101000a900473ffffffffffffffffffffffffffffffffffffffff1673ffffffffffffffffffffffffffffffffffffffff16036200626e576040517f08c379a000000000000000000000000000000000000000000000000000000000815260040162006265906200f922565b60405180910390fd5b6000601b60008360000151815260200190815260200160002060009054906101000a900473ffffffffffffffffffffffffffffffffffffffff1690507fffffffffffffffffffffffffffffffffffffffffffffffffffffffffffffffff8173ffffffffffffffffffffffffffffffffffffffff1663221f95116040518163ffffffff1660e01b8152600401602060405180830381865afa15801562006317573d6000803e3d6000fd5b505050506040513d601f19601f820116820180604052508101906200633d91906200f982565b60000b0362006383576040517f08c379a00000000000000000000000000000000000000000000000000000000081526004016200637a90620108f5565b60405180910390fd5b6000600360008460000151815260200190815260200160002090508060010154836020015114620063eb576040517f08c379a0000000000000000000000000000000000000000000000000000000008152600401620063e2906201098d565b60405180910390fd5b7fffffffffffffffffffffffffffffffffffffffffffffffffffffffffffffffff6200641c84600001513362006e95565b036200645f576040517f08c379a000000000000000000000000000000000000000000000000000000000815260040162006456906200f7f2565b60405180910390fd5b6200646f836000015133620025e0565b15620064b2576040517f08c379a0000000000000000000000000000000000000000000000000000000008152600401620064a99062010a25565b60405180910390fd5b6000620064c3846060015162008cca565b9050620064d08162008d5e565b62006507576040517f1886185700000000000000000000000000000000000000000000000000000000815260040160405180910390fd5b600062006518856040015162008cca565b9050620065258162008d5e565b6200655c576040517fa2d0fee800000000000000000000000000000000000000000000000000000000815260040160405180910390fd5b600060405180606001604052808760200151815260200183815260200187608001518152509050620065938660000151826200a2a0565b620066f35760006040518060400160405280600167ffffffffffffffff811115620065c357620065c26200d913565b5b604051908082528060200260200182016040528015620065f25781602001602082028036833780820191505090505b5081526020018381525090503381600001516000815181106200661a57620066196200fa26565b5b602002602001019073ffffffffffffffffffffffffffffffffffffffff16908173ffffffffffffffffffffffffffffffffffffffff1681525050846006018190806001815401808255809150506001900390600052602060002090600702016000909190919091506000820151816000019080519060200190620066a09291906200d46f565b5060208201518160010160008201518160000155602082015181600101906004620066cd9291906200d4fe565b506040820151816005019080519060200190620066ec9291906200d46f565b5050505050505b82846004016200670888600001513362006e95565b815481106200671c576200671b6200fa26565b5b90600052602060002090600502016001019060046200673d9291906200d4fe565b508360070160009054906101000a900460ff1662006d7157600062006766876000015162008461565b905060008160000151511462006d6f5760008160200151604001519050600062006795836000015183620081d7565b9050866003015481511062006d6c5760005b8251811015620069e15760005b8860040180549050811015620069ca57838281518110620067da57620067d96200fa26565b5b602002602001015173ffffffffffffffffffffffffffffffffffffffff168960040182815481106200681157620068106200fa26565b5b906000526020600020906005020160000160009054906101000a900473ffffffffffffffffffffffffffffffffffffffff1673ffffffffffffffffffffffffffffffffffffffff1603620069b4578860040160018a600401805490506200687991906200fad1565b815481106200688d576200688c6200fa26565b5b9060005260206000209060050201896004018281548110620068b457620068b36200fa26565b5b90600052602060002090600502016000820160009054906101000a900473ffffffffffffffffffffffffffffffffffffffff168160000160006101000a81548173ffffffffffffffffffffffffffffffffffffffff021916908373ffffffffffffffffffffffffffffffffffffffff1602179055506001820181600101906004620069419291906200d215565b50905050886004018054806200695c576200695b6200fb0c565b5b6001900381819060005260206000209060050201600080820160006101000a81549073ffffffffffffffffffffffffffffffffffffffff0219169055600182016000620069aa91906200d257565b50509055620069ca565b8080620069c1906200fa84565b915050620067b4565b508080620069d8906200fa84565b915050620067a7565b5060018760070160006101000a81548160ff0219169083151502179055508260200151604001515187600201600082825462006a1e91906200fad1565b925050819055508260200151602001518760080190600462006a429291906200d4fe565b506000815167ffffffffffffffff81111562006a635762006a626200d913565b5b60405190808252806020026020018201604052801562006a925781602001602082028036833780820191505090505b50905060005b825181101562006ba65760005b896004018054905081101562006b8f5783828151811062006acb5762006aca6200fa26565b5b602002602001015173ffffffffffffffffffffffffffffffffffffffff168a600401828154811062006b025762006b016200fa26565b5b906000526020600020906005020160000160009054906101000a900473ffffffffffffffffffffffffffffffffffffffff1673ffffffffffffffffffffffffffffffffffffffff160362006b79578083838151811062006b675762006b666200fa26565b5b60200260200101818152505062006b8f565b808062006b86906200fa84565b91505062006aa5565b50808062006b9d906200fa84565b91505062006a98565b50600062006bbd600654836012600201546200439c565b9050805167ffffffffffffffff81111562006bdd5762006bdc6200d913565b5b60405190808252806020026020018201604052801562006c0c5781602001602082028036833780820191505090505b5089600501908051906020019062006c269291906200d46f565b5060005b815181101562006d13578960040182828151811062006c4e5762006c4d6200fa26565b5b60200260200101518154811062006c6a5762006c696200fa26565b5b906000526020600020906005020160000160009054906101000a900473ffffffffffffffffffffffffffffffffffffffff168a600501828154811062006cb55762006cb46200fa26565b5b9060005260206000200160006101000a81548173ffffffffffffffffffffffffffffffffffffffff021916908373ffffffffffffffffffffffffffffffffffffffff160217905550808062006d0a906200fa84565b91505062006c2a565b5060005b845181101562006d685762006d5285828151811062006d3b5762006d3a6200fa26565b5b602002602001015160126001015460008062002c84565b808062006d5f906200fa84565b91505062006d17565b5050505b50505b505b505050505050565b6000600160028362006d8c91906201059b565b62006d9891906200fb3b565b9050919050565b60008060036000858152602001908152602001600020905080600401838154811062006dd05762006dcf6200fa26565b5b906000526020600020906005020160000160009054906101000a900473ffffffffffffffffffffffffffffffffffffffff1691505092915050565b62006e15620089c2565b600073ffffffffffffffffffffffffffffffffffffffff168173ffffffffffffffffffffffffffffffffffffffff160362006e87576040517f08c379a000000000000000000000000000000000000000000000000000000000815260040162006e7e9062010abd565b60405180910390fd5b62006e928162008ba8565b50565b60008060036000858152602001908152602001600020905060005b816004018054905081101562006f5f578373ffffffffffffffffffffffffffffffffffffffff1682600401828154811062006ef05762006eef6200fa26565b5b906000526020600020906005020160000160009054906101000a900473ffffffffffffffffffffffffffffffffffffffff1673ffffffffffffffffffffffffffffffffffffffff160362006f4957809250505062006f85565b808062006f56906200fa84565b91505062006eb0565b507fffffffffffffffffffffffffffffffffffffffffffffffffffffffffffffffff9150505b92915050565b60003273ffffffffffffffffffffffffffffffffffffffff163373ffffffffffffffffffffffffffffffffffffffff160362006ffe576040517fc26368fd00000000000000000000000000000000000000000000000000000000815260040162006ff59062010b7b565b60405180910390fd5b600073ffffffffffffffffffffffffffffffffffffffff16600f6000846040015167ffffffffffffffff1667ffffffffffffffff16815260200190815260200160002060000160009054906101000a900473ffffffffffffffffffffffffffffffffffffffff1673ffffffffffffffffffffffffffffffffffffffff1603620070b3576040517f1f6a65b600000000000000000000000000000000000000000000000000000000815260040160405180910390fd5b6000600e60003373ffffffffffffffffffffffffffffffffffffffff1673ffffffffffffffffffffffffffffffffffffffff1681526020019081526020016000206000016000846040015167ffffffffffffffff1667ffffffffffffffff16815260200190815260200160002060009054906101000a900467ffffffffffffffff16905060008167ffffffffffffffff16036200718f578260400151336040517ff0019fe60000000000000000000000000000000000000000000000000000000081526004016200718692919062010b9d565b60405180910390fd5b60006200719b6200a402565b9050806005819055506000600e60003373ffffffffffffffffffffffffffffffffffffffff1673ffffffffffffffffffffffffffffffffffffffff1681526020019081526020016000206000016000866040015167ffffffffffffffff1667ffffffffffffffff16815260200190815260200160002060009054906101000a900467ffffffffffffffff1690506000620072458660600151338467ffffffffffffffff166200a4b1565b90506001600e60003373ffffffffffffffffffffffffffffffffffffffff1673ffffffffffffffffffffffffffffffffffffffff1681526020019081526020016000206000016000886040015167ffffffffffffffff1667ffffffffffffffff16815260200190815260200160002060008282829054906101000a900467ffffffffffffffff16620072d8919062010bca565b92506101000a81548167ffffffffffffffff021916908367ffffffffffffffff16021790555060006200730b826200a4ec565b90506000600f6000896040015167ffffffffffffffff1667ffffffffffffffff16815260200190815260200160002060050160009054906101000a900467ffffffffffffffff16905060006200739f8960a001516008600001600f9054906101000a900463ffffffff1663ffffffff16620073946001866200738e919062010bca565b6200557d565b8c60c001516200505b565b9050806bffffffffffffffffffffffff16600f60008b6040015167ffffffffffffffff1667ffffffffffffffff168152602001908152602001600020600301600c9054906101000a90046bffffffffffffffffffffffff16600f60008c6040015167ffffffffffffffff1667ffffffffffffffff16815260200190815260200160002060030160009054906101000a90046bffffffffffffffffffffffff166200744a919062010c0f565b6bffffffffffffffffffffffff16101562007491576040517f8894bd5e00000000000000000000000000000000000000000000000000000000815260040160405180910390fd5b80600f60008b6040015167ffffffffffffffff1667ffffffffffffffff168152602001908152602001600020600301600c8282829054906101000a90046bffffffffffffffffffffffff16620074e89190620106a0565b92506101000a8154816bffffffffffffffffffffffff02191690836bffffffffffffffffffffffff16021790555080600f60008b6040015167ffffffffffffffff1667ffffffffffffffff168152602001908152602001600020600401600085815260200190815260200160002060006101000a8154816bffffffffffffffffffffffff02191690836bffffffffffffffffffffffff160217905550600073ffffffffffffffffffffffffffffffffffffffff16600d600085815260200190815260200160002060000160009054906101000a900473ffffffffffffffffffffffffffffffffffffffff1673ffffffffffffffffffffffffffffffffffffffff1614620075fa57620075f962010c4a565b5b6000600d60008581526020019081526020016000209050338160000160006101000a81548173ffffffffffffffffffffffffffffffffffffffff021916908373ffffffffffffffffffffffffffffffffffffffff16021790555089600001518160000160146101000a81548160ff021916908360028111156200768257620076816200dfbb565b5b021790555089602001518160010190816200769e919062010c79565b5089604001518160020160006101000a81548167ffffffffffffffff021916908367ffffffffffffffff16021790555084816003018190555086816004018190555043816005018190555089608001518160060160006101000a81548161ffff021916908361ffff1602179055508960a0015181600701819055508960c001518160080181905550867fa214dda13f90e3098f56c612a31d381b2fac7b48853bf49937773c47174dfe4785338460020160009054906101000a900467ffffffffffffffff1685600301548660060160009054906101000a900461ffff16876007015488600801546040516200779a979695949392919062010d60565b60405180910390a28398505050505050505050919050565b60008060036000858152602001908152602001600020604051806101200160405290816000820154815260200160018201548152602001600282015481526020016003820154815260200160048201805480602002602001604051908101604052809291908181526020016000905b82821015620078f257838290600052602060002090600502016040518060400160405290816000820160009054906101000a900473ffffffffffffffffffffffffffffffffffffffff1673ffffffffffffffffffffffffffffffffffffffff1673ffffffffffffffffffffffffffffffffffffffff16815260200160018201600480602002604051908101604052809291908260048015620078d9576020028201915b815481526020019060010190808311620078c4575b5050505050815250508152602001906001019062007821565b505050508152602001600582018054806020026020016040519081016040528092919081815260200182805480156200798157602002820191906000526020600020905b8160009054906101000a900473ffffffffffffffffffffffffffffffffffffffff1673ffffffffffffffffffffffffffffffffffffffff168152602001906001019080831162007936575b5050505050815260200160068201805480602002602001604051908101604052809291908181526020016000905b8282101562007b6857838290600052602060002090600702016040518060400160405290816000820180548060200260200160405190810160405280929190818152602001828054801562007a5a57602002820191906000526020600020905b8160009054906101000a900473ffffffffffffffffffffffffffffffffffffffff1673ffffffffffffffffffffffffffffffffffffffff168152602001906001019080831162007a0f575b5050505050815260200160018201604051806060016040529081600082015481526020016001820160048060200260405190810160405280929190826004801562007abb576020028201915b81548152602001906001019080831162007aa6575b505050505081526020016005820180548060200260200160405190810160405280929190818152602001828054801562007b4b57602002820191906000526020600020905b8160009054906101000a900473ffffffffffffffffffffffffffffffffffffffff1673ffffffffffffffffffffffffffffffffffffffff168152602001906001019080831162007b00575b5050505050815250508152505081526020019060010190620079af565b5050505081526020016007820160009054906101000a900460ff161515151581526020016008820160048060200260405190810160405280929190826004801562007bc9576020028201915b81548152602001906001019080831162007bb4575b5050505050815250509050600060036000858152602001908152602001600020604051806101200160405290816000820154815260200160018201548152602001600282015481526020016003820154815260200160048201805480602002602001604051908101604052809291908181526020016000905b8282101562007d1357838290600052602060002090600502016040518060400160405290816000820160009054906101000a900473ffffffffffffffffffffffffffffffffffffffff1673ffffffffffffffffffffffffffffffffffffffff1673ffffffffffffffffffffffffffffffffffffffff1681526020016001820160048060200260405190810160405280929190826004801562007cfa576020028201915b81548152602001906001019080831162007ce5575b5050505050815250508152602001906001019062007c42565b5050505081526020016005820180548060200260200160405190810160405280929190818152602001828054801562007da257602002820191906000526020600020905b8160009054906101000a900473ffffffffffffffffffffffffffffffffffffffff1673ffffffffffffffffffffffffffffffffffffffff168152602001906001019080831162007d57575b5050505050815260200160068201805480602002602001604051908101604052809291908181526020016000905b8282101562007f8957838290600052602060002090600702016040518060400160405290816000820180548060200260200160405190810160405280929190818152602001828054801562007e7b57602002820191906000526020600020905b8160009054906101000a900473ffffffffffffffffffffffffffffffffffffffff1673ffffffffffffffffffffffffffffffffffffffff168152602001906001019080831162007e30575b5050505050815260200160018201604051806060016040529081600082015481526020016001820160048060200260405190810160405280929190826004801562007edc576020028201915b81548152602001906001019080831162007ec7575b505050505081526020016005820180548060200260200160405190810160405280929190818152602001828054801562007f6c57602002820191906000526020600020905b8160009054906101000a900473ffffffffffffffffffffffffffffffffffffffff1673ffffffffffffffffffffffffffffffffffffffff168152602001906001019080831162007f21575b505050505081525050815250508152602001906001019062007dd0565b5050505081526020016007820160009054906101000a900460ff161515151581526020016008820160048060200260405190810160405280929190826004801562007fea576020028201915b81548152602001906001019080831162007fd5575b50505050508152505090508160400151816040015111156200801b5780828092508193505050838580955081965050505b60006002826040015184604001516200803591906200fb3b565b6200804191906201059b565b83604001516200805291906200fad1565b9050600081148062008075575060038184604001516200807391906200fad1565b105b15620080885760009350505050620081d1565b600083608001515167ffffffffffffffff811115620080ac57620080ab6200d913565b5b604051908082528060200260200182016040528015620080db5781602001602082028036833780820191505090505b50905060005b8460800151518110156200812857808282815181106200810657620081056200fa26565b5b60200260200101818152505080806200811f906200fa84565b915050620080e1565b5060006200813a60065483856200439c565b905060005b8151811015620081b05760008282815181106200816157620081606200fa26565b5b602002602001015190506000620081798b8362006d9f565b905062008189818c600062001f1e565b5062008198818b600062008a47565b50508080620081a7906200fa84565b9150506200813f565b50620081bc8862005c8e565b620081c78762005c8e565b6001955050505050505b92915050565b60606000835167ffffffffffffffff811115620081f957620081f86200d913565b5b604051908082528060200260200182016040528015620082285781602001602082028036833780820191505090505b5090506000805b855181101562008372576000805b8651811015620082d5578681815181106200825d576200825c6200fa26565b5b602002602001015173ffffffffffffffffffffffffffffffffffffffff168884815181106200829157620082906200fa26565b5b602002602001015173ffffffffffffffffffffffffffffffffffffffff1603620082bf5760019150620082d5565b8080620082cc906200fa84565b9150506200823d565b50806200835b57868281518110620082f257620082f16200fa26565b5b602002602001015184848151811062008310576200830f6200fa26565b5b602002602001019073ffffffffffffffffffffffffffffffffffffffff16908173ffffffffffffffffffffffffffffffffffffffff1681525050828062008357906200fa84565b9350505b50808062008369906200fa84565b9150506200822f565b5060008167ffffffffffffffff8111156200839257620083916200d913565b5b604051908082528060200260200182016040528015620083c15781602001602082028036833780820191505090505b50905060005b828110156200845457838181518110620083e657620083e56200fa26565b5b60200260200101518282815181106200840457620084036200fa26565b5b602002602001019073ffffffffffffffffffffffffffffffffffffffff16908173ffffffffffffffffffffffffffffffffffffffff168152505080806200844b906200fa84565b915050620083c7565b5080935050505092915050565b6200846b6200d543565b620084756200d543565b600060036000858152602001908152602001600020604051806101200160405290816000820154815260200160018201548152602001600282015481526020016003820154815260200160048201805480602002602001604051908101604052809291908181526020016000905b82821015620085b457838290600052602060002090600502016040518060400160405290816000820160009054906101000a900473ffffffffffffffffffffffffffffffffffffffff1673ffffffffffffffffffffffffffffffffffffffff1673ffffffffffffffffffffffffffffffffffffffff168152602001600182016004806020026040519081016040528092919082600480156200859b576020028201915b81548152602001906001019080831162008586575b50505050508152505081526020019060010190620084e3565b505050508152602001600582018054806020026020016040519081016040528092919081815260200182805480156200864357602002820191906000526020600020905b8160009054906101000a900473ffffffffffffffffffffffffffffffffffffffff1673ffffffffffffffffffffffffffffffffffffffff1681526020019060010190808311620085f8575b5050505050815260200160068201805480602002602001604051908101604052809291908181526020016000905b828210156200882a5783829060005260206000209060070201604051806040016040529081600082018054806020026020016040519081016040528092919081815260200182805480156200871c57602002820191906000526020600020905b8160009054906101000a900473ffffffffffffffffffffffffffffffffffffffff1673ffffffffffffffffffffffffffffffffffffffff1681526020019060010190808311620086d1575b505050505081526020016001820160405180606001604052908160008201548152602001600182016004806020026040519081016040528092919082600480156200877d576020028201915b81548152602001906001019080831162008768575b50505050508152602001600582018054806020026020016040519081016040528092919081815260200182805480156200880d57602002820191906000526020600020905b8160009054906101000a900473ffffffffffffffffffffffffffffffffffffffff1673ffffffffffffffffffffffffffffffffffffffff1681526020019060010190808311620087c2575b505050505081525050815250508152602001906001019062008671565b5050505081526020016007820160009054906101000a900460ff16151515158152602001600882016004806020026040519081016040528092919082600480156200888b576020028201915b81548152602001906001019080831162008876575b505050505081525050905060008160c001515103620088af578192505050620089bd565b60018160c001515103620088ea578060c00151600081518110620088d857620088d76200fa26565b5b602002602001015192505050620089bd565b60006001905060008260c001516000815181106200890d576200890c6200fa26565b5b602002602001015190506000600190505b8360c0015151811015620089a15760008460c0015182815181106200894857620089476200fa26565b5b6020026020010151905082600001515181600001515111156200897257600193508092506200898a565b826000015151816000015151036200898957600093505b5b50808062008998906200fa84565b9150506200891e565b5081620089b55783945050505050620089bd565b809450505050505b919050565b620089cc6200a51e565b73ffffffffffffffffffffffffffffffffffffffff16620089ec6200479e565b73ffffffffffffffffffffffffffffffffffffffff161462008a45576040517f08c379a000000000000000000000000000000000000000000000000000000000815260040162008a3c9062010e2d565b60405180910390fd5b565b600060036000848152602001908152602001600020905062008a686200d273565b84816000019073ffffffffffffffffffffffffffffffffffffffff16908173ffffffffffffffffffffffffffffffffffffffff16815250508160040181908060018154018082558091505060019003906000526020600020906005020160009091909190915060008201518160000160006101000a81548173ffffffffffffffffffffffffffffffffffffffff021916908373ffffffffffffffffffffffffffffffffffffffff16021790555060208201518160010190600462008b2e9291906200d4fe565b50505081600201600081548092919062008b48906200fa84565b9190505550600062008b5e836002015462006d79565b90506003811162008b7157600362008b73565b805b8360030181905550600383600201541015801562008b8e5750835b1562008ba05762008b9f8562005c8e565b5b505050505050565b60008060009054906101000a900473ffffffffffffffffffffffffffffffffffffffff169050816000806101000a81548173ffffffffffffffffffffffffffffffffffffffff021916908373ffffffffffffffffffffffffffffffffffffffff1602179055508173ffffffffffffffffffffffffffffffffffffffff168173ffffffffffffffffffffffffffffffffffffffff167f8be0079c531659141344cd1fd0a4f28419497f9722a3daafe3b4186f6b6457e060405160405180910390a35050565b60008060025490506002600081548092919062008c89906200fa84565b919050555060006003600083815260200190815260200160002090508181600001819055506000816002018190555060038160030181905550819250505090565b62008cd46200d2cd565b608082511462008d10576040517f85a1b37e00000000000000000000000000000000000000000000000000000000815260040160405180910390fd5b60008060008060208601519350604086015192506060860151915060808601519050604051806080016040528085815260200184815260200183815260200182815250945050505050919050565b60007f30644e72e131a029b85045b68181585d97816a916871ca8d3c208c16d87cfd478260006004811062008d985762008d976200fa26565b5b602002015110158062008de657507f30644e72e131a029b85045b68181585d97816a916871ca8d3c208c16d87cfd478260016004811062008dde5762008ddd6200fa26565b5b602002015110155b8062008e7457507f30644e72e131a029b85045b68181585d97816a916871ca8d3c208c16d87cfd478260026004811062008e255762008e246200fa26565b5b602002015110158062008e7357507f30644e72e131a029b85045b68181585d97816a916871ca8d3c208c16d87cfd478260036004811062008e6b5762008e6a6200fa26565b5b602002015110155b5b1562008e84576000905062008e92565b62008e8f826200a526565b90505b919050565b60008062008ea462002d2f565b9150915062008eb68383600162008a47565b801562008fd5576000600160025462008ed091906200fad1565b67ffffffffffffffff81111562008eec5762008eeb6200d913565b5b60405190808252806020026020018201604052801562008f1b5781602001602082028036833780820191505090505b5090506000805b60025481101562008f7f5780851462008f69578083838151811062008f4c5762008f4b6200fa26565b5b602002602001018181525050818062008f65906200fa84565b9250505b808062008f76906200fa84565b91505062008f22565b5060005b825181101562008fd15762008fb683828151811062008fa75762008fa66200fa26565b5b602002602001015186620077b2565b62008fd157808062008fc8906200fa84565b91505062008f83565b5050505b505050565b6000807f3fffffffffffffffffffffffffffffffffffffffffffffffffffffffffffffff831690507f30644e72e131a029b85045b68181585d97816a916871ca8d3c208c16d87cfd4781106200903557600091505062009058565b600081036200904957600091505062009058565b62009054816200a77a565b9150505b919050565b600080600090505b8351811015620090e1578273ffffffffffffffffffffffffffffffffffffffff168482815181106200909c576200909b6200fa26565b5b602002602001015173ffffffffffffffffffffffffffffffffffffffff1603620090cb576001915050620090e7565b8080620090d8906200fa84565b91505062009065565b50600090505b92915050565b620090f76200d2ab565b600080838051906020012090505b600115620091575762009118816200a875565b80935081945050508162009157578060405160200162009139919062010e74565b60405160208183030381529060405280519060200120905062009105565b5050919050565b620091686200d2ab565b60007f3fffffffffffffffffffffffffffffffffffffffffffffffffffffffffffffff83169050600060fe84901c9050600180821603620091d5576040517f53f4c77c00000000000000000000000000000000000000000000000000000000815260040160405180910390fd5b6000620091e2836200a986565b5080915050600160027f30644e72e131a029b85045b68181585d97816a916871ca8d3c208c16d87cfd476200921891906201059b565b8211620092275760006200922a565b60015b60ff16600184901c18036200926a57807f30644e72e131a029b85045b68181585d97816a916871ca8d3c208c16d87cfd476200926791906200fad1565b90505b6040518060400160405280848152602001828152509350505050919050565b60008060405180610180016040528086600060028110620092af57620092ae6200fa26565b5b6020020151815260200186600160028110620092d057620092cf6200fa26565b5b602002015181526020017f198e9393920d483a7260bfb731fb5d25f1aa493335a9e71297e485b7aef312c281526020017f1800deef121f1e76426a00665e5c4479674322d4f75edadd46debd5cd992f6ed81526020017f275dc4a288d1afb3cbb1ac09187524c7db36395df7be3b99e673b13a075a65ec81526020017f1d9befcd05a5323e6da4d435f3b617cdb3af83285c2df711ef39c01571827f9d8152602001846000600281106200938957620093886200fa26565b5b6020020151815260200184600160028110620093aa57620093a96200fa26565b5b6020020151815260200185600160048110620093cb57620093ca6200fa26565b5b6020020151815260200185600060048110620093ec57620093eb6200fa26565b5b60200201518152602001856003600481106200940d576200940c6200fa26565b5b60200201518152602001856002600481106200942e576200942d6200fa26565b5b60200201518152509050620094426200d565565b60006020826101808560086107d05a03fa905080600081036200946157fe5b5080620094a5576040517f08c379a00000000000000000000000000000000000000000000000000000000081526004016200949c9062010ebb565b60405180910390fd5b600082600060018110620094be57620094bd6200fa26565b5b6020020151141593505050509392505050565b6000620094dd6200d2ab565b620094e76200d2cd565b60005b865181101562009560576200951d838883815181106200950f576200950e6200fa26565b5b60200260200101516200aa46565b925062009548828783815181106200953a57620095396200fa26565b5b60200260200101516200ab6f565b9150808062009557906200fa84565b915050620094ea565b506000604051806101800160405280846000600281106200958657620095856200fa26565b5b6020020151815260200184600160028110620095a757620095a66200fa26565b5b602002015181526020017f198e9393920d483a7260bfb731fb5d25f1aa493335a9e71297e485b7aef312c281526020017f1800deef121f1e76426a00665e5c4479674322d4f75edadd46debd5cd992f6ed81526020017f275dc4a288d1afb3cbb1ac09187524c7db36395df7be3b99e673b13a075a65ec81526020017f1d9befcd05a5323e6da4d435f3b617cdb3af83285c2df711ef39c01571827f9d81526020018660006002811062009660576200965f6200fa26565b5b60200201518152602001866001600281106200968157620096806200fa26565b5b6020020151815260200183600160048110620096a257620096a16200fa26565b5b6020020151815260200183600060048110620096c357620096c26200fa26565b5b6020020151815260200183600360048110620096e457620096e36200fa26565b5b60200201518152602001836002600481106200970557620097046200fa26565b5b60200201518152509050620097196200d565565b60006020826101808560086107d05a03fa905080600081036200973857fe5b50806200977c576040517f08c379a0000000000000000000000000000000000000000000000000000000008152600401620097739062010ebb565b60405180910390fd5b6000826000600181106200979557620097946200fa26565b5b60200201511415955050505050509392505050565b6000806000606060006002811115620097c857620097c76200dfbb565b5b85602001516002811115620097e257620097e16200dfbb565b5b036200986a576394985ddd60e01b89896040516024016200980592919062010edd565b604051602081830303815290604052907bffffffffffffffffffffffffffffffffffffffffffffffffffffffff19166020820180517bffffffffffffffffffffffffffffffffffffffffffffffffffffffff8381831617835250505050905062009afe565b600160028111156200988157620098806200dfbb565b5b856020015160028111156200989b576200989a6200dfbb565b5b0362009a135760008560400151806020019051810190620098bd919062010f21565b905060008163ffffffff1667ffffffffffffffff811115620098e457620098e36200d913565b5b604051908082528060200260200182016040528015620099135781602001602082028036833780820191505090505b50905060005b8263ffffffff168110156200998e578a816040516020016200993d929190620106e9565b6040516020818303038152906040528051906020012060001c8282815181106200996c576200996b6200fa26565b5b602002602001018181525050808062009985906200fa84565b91505062009919565b506375bf929b60e01b8b82604051602401620099ac92919062010f53565b604051602081830303815290604052907bffffffffffffffffffffffffffffffffffffffffffffffffffffffff19166020820180517bffffffffffffffffffffffffffffffffffffffffffffffffffffffff83818316178352505050509250505062009afd565b60028081111562009a295762009a286200dfbb565b5b8560200151600281111562009a435762009a426200dfbb565b5b0362009afc576000856040015180602001905181019062009a65919062010f21565b9050600062009a7b8263ffffffff168b6200ac9e565b9050639e5836f660e01b8b8260405160240162009a9a92919062010f53565b604051602081830303815290604052907bffffffffffffffffffffffffffffffffffffffffffffffffffffffff19166020820180517bffffffffffffffffffffffffffffffffffffffffffffffffffffffff8381831617835250505050925050505b5b5b600d60008a8152602001908152602001600020600080820160006101000a81549073ffffffffffffffffffffffffffffffffffffffff02191690556000820160146101000a81549060ff021916905560018201600062009b5f91906200d587565b6002820160006101000a81549067ffffffffffffffff02191690556003820160009055600482016000905560058201600090556006820160006101000a81549061ffff02191690556007820160009055600882016000905550506001600860000160066101000a81548160ff02191690831515021790555062009bed8561010001518660000151836200ae2d565b92506000600860000160066101000a81548160ff0219169083151502179055506000600f6000876060015167ffffffffffffffff1667ffffffffffffffff16815260200190815260200160002060050160009054906101000a900467ffffffffffffffff1690506001600f6000886060015167ffffffffffffffff1667ffffffffffffffff16815260200190815260200160002060050160008282829054906101000a900467ffffffffffffffff1662009ca8919062010bca565b92506101000a81548167ffffffffffffffff021916908367ffffffffffffffff16021790555062009d01876008600001600b9054906101000a900463ffffffff1663ffffffff1662009cfa846200557d565b3a62004990565b9450846bffffffffffffffffffffffff16600f6000886060015167ffffffffffffffff1667ffffffffffffffff16815260200190815260200160002060030160009054906101000a90046bffffffffffffffffffffffff166bffffffffffffffffffffffff16101562009da0576040517f964d765f00000000000000000000000000000000000000000000000000000000815260040160405180910390fd5b600f6000876060015167ffffffffffffffff1667ffffffffffffffff16815260200190815260200160002060040160008b815260200190815260200160002060009054906101000a90046bffffffffffffffffffffffff16600f6000886060015167ffffffffffffffff1667ffffffffffffffff168152602001908152602001600020600301600c8282829054906101000a90046bffffffffffffffffffffffff1662009e4e919062010c0f565b92506101000a8154816bffffffffffffffffffffffff02191690836bffffffffffffffffffffffff160217905550600f6000876060015167ffffffffffffffff1667ffffffffffffffff16815260200190815260200160002060040160008b815260200190815260200160002060006101000a8154906bffffffffffffffffffffffff021916905584600f6000886060015167ffffffffffffffff1667ffffffffffffffff16815260200190815260200160002060030160008282829054906101000a90046bffffffffffffffffffffffff1662009f2d919062010c0f565b92506101000a8154816bffffffffffffffffffffffff02191690836bffffffffffffffffffffffff16021790555084601160008a815260200190815260200160002060008282829054906101000a90046bffffffffffffffffffffffff1662009f979190620106a0565b92506101000a8154816bffffffffffffffffffffffff02191690836bffffffffffffffffffffffff1602179055507ff57e21eb5ebe86bb8ba5bd69b50e9e472325fc67fb2ea4cae3b32be1472899398a8a878760405162009ffc949392919062010fc0565b60405180910390a15050509550959350505050565b600860030154600460003373ffffffffffffffffffffffffffffffffffffffff1673ffffffffffffffffffffffffffffffffffffffff16815260200190815260200160002060008282546200a06791906200fb3b565b9250508190555060005b81518110156200a10b57600860020154600460008484815181106200a09b576200a09a6200fa26565b5b602002602001015173ffffffffffffffffffffffffffffffffffffffff1673ffffffffffffffffffffffffffffffffffffffff16815260200190815260200160002060008282546200a0ee91906200fb3b565b9250508190555080806200a102906200fa84565b9150506200a071565b5050565b600080600860000160079054906101000a900463ffffffff1690506000808263ffffffff161190506000807f000000000000000000000000000000000000000000000000000000000000000073ffffffffffffffffffffffffffffffffffffffff1663feaf968c6040518163ffffffff1660e01b815260040160a060405180830381865afa1580156200a1a6573d6000803e3d6000fd5b505050506040513d601f19601f820116820180604052508101906200a1cc919062011082565b90919293509091505080935081925050508280156200a1fd575081426200a1f491906200fad1565b8463ffffffff16105b156200a2095760075490505b8094505050505090565b6200a29a846323b872dd60e01b8585856040516024016200a237939291906201110a565b604051602081830303815290604052907bffffffffffffffffffffffffffffffffffffffffffffffffffffffff19166020820180517bffffffffffffffffffffffffffffffffffffffffffffffffffffffff83818316178352505050506200ae7d565b50505050565b60008060036000858152602001908152602001600020905060005b81600601805490508110156200a3f957836040516020016200a2de91906201119d565b604051602081830303815290604052805190602001208260060182815481106200a30d576200a30c6200fa26565b5b90600052602060002090600702016001016040516020016200a3309190620113e2565b60405160208183030381529060405280519060200120036200a3e3578160060181815481106200a365576200a3646200fa26565b5b9060005260206000209060070201600001339080600181540180825580915050600190039060005260206000200160009091909190916101000a81548173ffffffffffffffffffffffffffffffffffffffff021916908373ffffffffffffffffffffffffffffffffffffffff1602179055506001925050506200a3fc565b80806200a3f0906200fa84565b9150506200a2bb565b50505b92915050565b6000806200a40f62001985565b905060008151036200a44d576040517f6905ab6700000000000000000000000000000000000000000000000000000000815260040160405180910390fd5b600060025460016005546200a46391906200fb3b565b6200a46f919062010502565b90505b6200a47e82826200af4c565b6200a4a9576002546001826200a49591906200fb3b565b6200a4a1919062010502565b90506200a472565b809250505090565b60008383836040516020016200a4ca9392919062011406565b6040516020818303038152906040528051906020012060001c90509392505050565b6000816040516020016200a501919062011443565b604051602081830303815290604052805190602001209050919050565b600033905090565b6000815160208301517f30644e72e131a029b85045b68181585d97816a916871ca8d3c208c16d87cfd478283097f30644e72e131a029b85045b68181585d97816a916871ca8d3c208c16d87cfd4782830981828301017f30644e72e131a029b85045b68181585d97816a916871ca8d3c208c16d87cfd4782838401087f30644e72e131a029b85045b68181585d97816a916871ca8d3c208c16d87cfd4786827f30644e72e131a029b85045b68181585d97816a916871ca8d3c208c16d87cfd470386010993507f30644e72e131a029b85045b68181585d97816a916871ca8d3c208c16d87cfd4785847f30644e72e131a029b85045b68181585d97816a916871ca8d3c208c16d87cfd470384010992507f30644e72e131a029b85045b68181585d97816a916871ca8d3c208c16d87cfd477f2b149d40ceb8aaae81be18991be06ac3b5b4c5e559dbefa33267e6dc24a138e5850895507f30644e72e131a029b85045b68181585d97816a916871ca8d3c208c16d87cfd477e9713b03af0fed4cd2cafadeed8fdf4a74fa084e52d1852e4a2bd0685c315d28408945060408801519350606088015192507f30644e72e131a029b85045b68181585d97816a916871ca8d3c208c16d87cfd4780847f30644e72e131a029b85045b68181585d97816a916871ca8d3c208c16d87cfd470386087f30644e72e131a029b85045b68181585d97816a916871ca8d3c208c16d87cfd478587080991507f30644e72e131a029b85045b68181585d97816a916871ca8d3c208c16d87cfd47838560011b099250828514828714169650505050505050919050565b600080827f30644e72e131a029b85045b68181585d97816a916871ca8d3c208c16d87cfd478182097f30644e72e131a029b85045b68181585d97816a916871ca8d3c208c16d87cfd4782820990507f30644e72e131a029b85045b68181585d97816a916871ca8d3c208c16d87cfd4760038208905060405160208152602080820152602060408201528160608201527f183227397098d014dc2822db40c0ac2ecbc0b548b438e5469e10460b6c3e7ea360808201527f30644e72e131a029b85045b68181585d97816a916871ca8d3c208c16d87cfd4760a082015260208160c08360056107d05a03fa93508051600114945050505050919050565b6200a87f6200d2ab565b60008060007f30644e72e131a029b85045b68181585d97816a916871ca8d3c208c16d87cfd478560001c6200a8b5919062010502565b90506200a8c2816200a986565b809450819350505082156200a97f5780846000600281106200a8e9576200a8e86200fa26565b5b60200201818152505060027f30644e72e131a029b85045b68181585d97816a916871ca8d3c208c16d87cfd476200a92191906201059b565b82116200a92f57816200a95e565b817f30644e72e131a029b85045b68181585d97816a916871ca8d3c208c16d87cfd476200a95d91906200fad1565b5b846001600281106200a975576200a9746200fa26565b5b6020020181815250505b5050915091565b60008060007f30644e72e131a029b85045b68181585d97816a916871ca8d3c208c16d87cfd47806200a9bd576200a9bc620104d3565b5b84850990507f30644e72e131a029b85045b68181585d97816a916871ca8d3c208c16d87cfd47806200a9f4576200a9f3620104d3565b5b84820990507f30644e72e131a029b85045b68181585d97816a916871ca8d3c208c16d87cfd47806200aa2b576200aa2a620104d3565b5b6003820890506200aa3c816200afb0565b9250925050915091565b6200aa506200d2ab565b6200aa5a6200d2cd565b836000600281106200aa71576200aa706200fa26565b5b6020020151816000600481106200aa8d576200aa8c6200fa26565b5b602002018181525050836001600281106200aaad576200aaac6200fa26565b5b6020020151816001600481106200aac9576200aac86200fa26565b5b602002018181525050826000600281106200aae9576200aae86200fa26565b5b6020020151816002600481106200ab05576200ab046200fa26565b5b602002018181525050826001600281106200ab25576200ab246200fa26565b5b6020020151816003600481106200ab41576200ab406200fa26565b5b602002018181525050600060608360c08460066107d05a03fa9050806200ab6757600080fd5b505092915050565b6200ab796200d2cd565b6000806000806200ac69876000600481106200ab9a576200ab996200fa26565b5b6020020151886001600481106200abb6576200abb56200fa26565b5b6020020151896002600481106200abd2576200abd16200fa26565b5b60200201518a6003600481106200abee576200abed6200fa26565b5b60200201518a6000600481106200ac0a576200ac096200fa26565b5b60200201518b6001600481106200ac26576200ac256200fa26565b5b60200201518c6002600481106200ac42576200ac416200fa26565b5b60200201518d6003600481106200ac5e576200ac5d6200fa26565b5b60200201516200b0a1565b935093509350935060405180608001604052808581526020018481526020018381526020018281525094505050505092915050565b606060008367ffffffffffffffff8111156200acbf576200acbe6200d913565b5b6040519080825280602002602001820160405280156200acee5781602001602082028036833780820191505090505b50905060005b848110156200ad3657808282815181106200ad14576200ad136200fa26565b5b60200260200101818152505080806200ad2d906200fa84565b9150506200acf4565b506000815190506000805b6000836200ad4f906200ffb4565b93508311156200ae205782866200ad67919062010502565b9150856040516020016200ad7c91906200d7ad565b6040516020818303038152906040528051906020012060001c95508383815181106200adad576200adac6200fa26565b5b602002602001015190508382815181106200adcd576200adcc6200fa26565b5b60200260200101518484815181106200adeb576200adea6200fa26565b5b602002602001018181525050808483815181106200ae0e576200ae0d6200fa26565b5b6020026020010181815250506200ad41565b8394505050505092915050565b60005a6113888110156200ae4057600080fd5b6113888103905084604082048203116200ae5957600080fd5b833b6200ae6557600080fd5b6000808451602086016000888af19150509392505050565b60006200aee1826040518060400160405280602081526020017f5361666545524332303a206c6f772d6c6576656c2063616c6c206661696c65648152508573ffffffffffffffffffffffffffffffffffffffff166200b3199092919063ffffffff16565b90506000815111156200af4757808060200190518101906200af04919062011477565b6200af46576040517f08c379a00000000000000000000000000000000000000000000000000000000081526004016200af3d906201151f565b60405180910390fd5b5b505050565b600080600090505b83518110156200afa457828482815181106200af75576200af746200fa26565b5b6020026020010151036200af8e5760019150506200afaa565b80806200af9b906200fa84565b9150506200af54565b50600090505b92915050565b600080600060405160208152602080820152602060408201528460608201527f0c19139cb84c680a6e14116da060561765e05aa45a1c72a34f082305b61f3f5260808201527f30644e72e131a029b85045b68181585d97816a916871ca8d3c208c16d87cfd4760a082015260208160c08360056107d05a03fa9150805193507f30644e72e131a029b85045b68181585d97816a916871ca8d3c208c16d87cfd478485098514925050806200b09b576040517f08c379a00000000000000000000000000000000000000000000000000000000081526004016200b0929062011591565b60405180910390fd5b50915091565b60008060008060008c1480156200b0b8575060008b145b80156200b0c5575060008a145b80156200b0d25750600089145b156200b139576000881480156200b0e95750600087145b80156200b0f65750600086145b80156200b1035750600085145b6200b127576200b116888888886200b333565b6200b126576200b12562010c4a565b5b5b8787878793509350935093506200b30a565b6000881480156200b14a5750600087145b80156200b1575750600086145b80156200b1645750600085145b156200b19a576200b1788c8c8c8c6200b333565b6200b188576200b18762010c4a565b5b8b8b8b8b93509350935093506200b30a565b6200b1a88c8c8c8c6200b333565b6200b1b8576200b1b762010c4a565b5b6200b1c6888888886200b333565b6200b1d6576200b1d562010c4a565b5b60006040518060c001604052808e81526020018d81526020018c81526020018b8152602001600181526020016000815250905060006040518060c001604052808b81526020018a8152602001898152602001888152602001600181526020016000815250905060006200b24a83836200b407565b90506200b2fe816000600681106200b267576200b2666200fa26565b5b6020020151826001600681106200b283576200b2826200fa26565b5b6020020151836002600681106200b29f576200b29e6200fa26565b5b6020020151846003600681106200b2bb576200b2ba6200fa26565b5b6020020151856004600681106200b2d7576200b2d66200fa26565b5b6020020151866005600681106200b2f3576200b2f26200fa26565b5b60200201516200c9e5565b96509650965096505050505b98509850985098945050505050565b60606200b32a84846000856200ca3d565b90509392505050565b60008060008060006200b349878789896200cb13565b80945081955050506200b35f89898b8b6200cb13565b80925081935050506200b37582828b8b6200cb13565b80925081935050506200b38b848484846200cc55565b80945081955050506200b3e084847f2b149d40ceb8aaae81be18991be06ac3b5b4c5e559dbefa33267e6dc24a138e57e9713b03af0fed4cd2cafadeed8fdf4a74fa084e52d1852e4a2bd0685c315d26200cc55565b80945081955050506000841480156200b3f95750600083145b945050505050949350505050565b6200b4116200d5cd565b6000836004600681106200b42a576200b4296200fa26565b5b60200201511480156200b45857506000836005600681106200b451576200b4506200fa26565b5b6020020151145b156200b5cc57816000600681106200b475576200b4746200fa26565b5b6020020151826001600681106200b491576200b4906200fa26565b5b6020020151836002600681106200b4ad576200b4ac6200fa26565b5b6020020151846003600681106200b4c9576200b4c86200fa26565b5b6020020151856004600681106200b4e5576200b4e46200fa26565b5b6020020151866005600681106200b501576200b5006200fa26565b5b6020020151866000600681106200b51d576200b51c6200fa26565b5b60200201876001600681106200b538576200b5376200fa26565b5b60200201886002600681106200b553576200b5526200fa26565b5b60200201896003600681106200b56e576200b56d6200fa26565b5b602002018a6004600681106200b589576200b5886200fa26565b5b602002018b6005600681106200b5a4576200b5a36200fa26565b5b602002018681525086815250868152508681525086815250868152505050505050506200c9df565b6000826004600681106200b5e5576200b5e46200fa26565b5b60200201511480156200b61357506000826005600681106200b60c576200b60b6200fa26565b5b6020020151145b156200b78757826000600681106200b630576200b62f6200fa26565b5b6020020151836001600681106200b64c576200b64b6200fa26565b5b6020020151846002600681106200b668576200b6676200fa26565b5b6020020151856003600681106200b684576200b6836200fa26565b5b6020020151866004600681106200b6a0576200b69f6200fa26565b5b6020020151876005600681106200b6bc576200b6bb6200fa26565b5b6020020151866000600681106200b6d8576200b6d76200fa26565b5b60200201876001600681106200b6f3576200b6f26200fa26565b5b60200201886002600681106200b70e576200b70d6200fa26565b5b60200201896003600681106200b729576200b7286200fa26565b5b602002018a6004600681106200b744576200b7436200fa26565b5b602002018b6005600681106200b75f576200b75e6200fa26565b5b602002018681525086815250868152508681525086815250868152505050505050506200c9df565b6200b801826002600681106200b7a2576200b7a16200fa26565b5b6020020151836003600681106200b7be576200b7bd6200fa26565b5b6020020151856004600681106200b7da576200b7d96200fa26565b5b6020020151866005600681106200b7f6576200b7f56200fa26565b5b60200201516200cb13565b836002600681106200b818576200b8176200fa26565b5b60200201846003600681106200b833576200b8326200fa26565b5b60200201828152508281525050506200b8bb836002600681106200b85c576200b85b6200fa26565b5b6020020151846003600681106200b878576200b8776200fa26565b5b6020020151846004600681106200b894576200b8936200fa26565b5b6020020151856005600681106200b8b0576200b8af6200fa26565b5b60200201516200cb13565b826002600681106200b8d2576200b8d16200fa26565b5b60200201836003600681106200b8ed576200b8ec6200fa26565b5b60200201828152508281525050506200b975826000600681106200b916576200b9156200fa26565b5b6020020151836001600681106200b932576200b9316200fa26565b5b6020020151856004600681106200b94e576200b94d6200fa26565b5b6020020151866005600681106200b96a576200b9696200fa26565b5b60200201516200cb13565b836000600681106200b98c576200b98b6200fa26565b5b60200201846001600681106200b9a7576200b9a66200fa26565b5b60200201828152508281525050506200ba2f836000600681106200b9d0576200b9cf6200fa26565b5b6020020151846001600681106200b9ec576200b9eb6200fa26565b5b6020020151846004600681106200ba08576200ba076200fa26565b5b6020020151856005600681106200ba24576200ba236200fa26565b5b60200201516200cb13565b826004600681106200ba46576200ba456200fa26565b5b60200201836005600681106200ba61576200ba606200fa26565b5b6020020182815250828152505050806004600681106200ba86576200ba856200fa26565b5b6020020151826000600681106200baa2576200baa16200fa26565b5b60200201511480156200baea5750806005600681106200bac7576200bac66200fa26565b5b6020020151826001600681106200bae3576200bae26200fa26565b5b6020020151145b156200bdba57806002600681106200bb07576200bb066200fa26565b5b6020020151826002600681106200bb23576200bb226200fa26565b5b60200201511480156200bb6b5750806003600681106200bb48576200bb476200fa26565b5b6020020151826003600681106200bb64576200bb636200fa26565b5b6020020151145b156200bce9576200bc23836000600681106200bb8c576200bb8b6200fa26565b5b6020020151846001600681106200bba8576200bba76200fa26565b5b6020020151856002600681106200bbc4576200bbc36200fa26565b5b6020020151866003600681106200bbe0576200bbdf6200fa26565b5b6020020151876004600681106200bbfc576200bbfb6200fa26565b5b6020020151886005600681106200bc18576200bc176200fa26565b5b60200201516200ccbf565b866000600681106200bc3a576200bc396200fa26565b5b60200201876001600681106200bc55576200bc546200fa26565b5b60200201886002600681106200bc70576200bc6f6200fa26565b5b60200201896003600681106200bc8b576200bc8a6200fa26565b5b602002018a6004600681106200bca6576200bca56200fa26565b5b602002018b6005600681106200bcc1576200bcc06200fa26565b5b602002018681525086815250868152508681525086815250868152505050505050506200c9df565b6001600060016000806000866000600681106200bd0b576200bd0a6200fa26565b5b60200201876001600681106200bd26576200bd256200fa26565b5b60200201886002600681106200bd41576200bd406200fa26565b5b60200201896003600681106200bd5c576200bd5b6200fa26565b5b602002018a6004600681106200bd77576200bd766200fa26565b5b602002018b6005600681106200bd92576200bd916200fa26565b5b602002018681525086815250868152508681525086815250868152505050505050506200c9df565b6200be34836004600681106200bdd5576200bdd46200fa26565b5b6020020151846005600681106200bdf1576200bdf06200fa26565b5b6020020151846004600681106200be0d576200be0c6200fa26565b5b6020020151856005600681106200be29576200be286200fa26565b5b60200201516200cb13565b836004600681106200be4b576200be4a6200fa26565b5b60200201846005600681106200be66576200be656200fa26565b5b60200201828152508281525050506200beee826002600681106200be8f576200be8e6200fa26565b5b6020020151836003600681106200beab576200beaa6200fa26565b5b6020020151836002600681106200bec7576200bec66200fa26565b5b6020020151846003600681106200bee3576200bee26200fa26565b5b60200201516200cc55565b846000600681106200bf05576200bf046200fa26565b5b60200201856001600681106200bf20576200bf1f6200fa26565b5b60200201828152508281525050506200bfa8826000600681106200bf49576200bf486200fa26565b5b6020020151836001600681106200bf65576200bf646200fa26565b5b6020020151836004600681106200bf81576200bf806200fa26565b5b6020020151846005600681106200bf9d576200bf9c6200fa26565b5b60200201516200cc55565b846002600681106200bfbf576200bfbe6200fa26565b5b60200201856003600681106200bfda576200bfd96200fa26565b5b60200201828152508281525050506200c062836002600681106200c003576200c0026200fa26565b5b6020020151846003600681106200c01f576200c01e6200fa26565b5b6020020151856002600681106200c03b576200c03a6200fa26565b5b6020020151866003600681106200c057576200c0566200fa26565b5b60200201516200cb13565b846004600681106200c079576200c0786200fa26565b5b60200201856005600681106200c094576200c0936200fa26565b5b60200201828152508281525050506200c11c836004600681106200c0bd576200c0bc6200fa26565b5b6020020151846005600681106200c0d9576200c0d86200fa26565b5b6020020151836004600681106200c0f5576200c0f46200fa26565b5b6020020151846005600681106200c111576200c1106200fa26565b5b60200201516200cb13565b836002600681106200c133576200c1326200fa26565b5b60200201846003600681106200c14e576200c14d6200fa26565b5b60200201828152508281525050506200c1d6836004600681106200c177576200c1766200fa26565b5b6020020151846005600681106200c193576200c1926200fa26565b5b6020020151856002600681106200c1af576200c1ae6200fa26565b5b6020020151866003600681106200c1cb576200c1ca6200fa26565b5b60200201516200cb13565b846004600681106200c1ed576200c1ec6200fa26565b5b60200201856005600681106200c208576200c2076200fa26565b5b60200201828152508281525050506200c290836004600681106200c231576200c2306200fa26565b5b6020020151846005600681106200c24d576200c24c6200fa26565b5b6020020151846004600681106200c269576200c2686200fa26565b5b6020020151856005600681106200c285576200c2846200fa26565b5b60200201516200cb13565b826004600681106200c2a7576200c2a66200fa26565b5b60200201836005600681106200c2c2576200c2c16200fa26565b5b60200201828152508281525050506200c34a836000600681106200c2eb576200c2ea6200fa26565b5b6020020151846001600681106200c307576200c3066200fa26565b5b6020020151856000600681106200c323576200c3226200fa26565b5b6020020151866001600681106200c33f576200c33e6200fa26565b5b60200201516200cb13565b836000600681106200c361576200c3606200fa26565b5b60200201846001600681106200c37c576200c37b6200fa26565b5b60200201828152508281525050506200c404826000600681106200c3a5576200c3a46200fa26565b5b6020020151836001600681106200c3c1576200c3c06200fa26565b5b6020020151846004600681106200c3dd576200c3dc6200fa26565b5b6020020151856005600681106200c3f9576200c3f86200fa26565b5b60200201516200cb13565b836000600681106200c41b576200c41a6200fa26565b5b60200201846001600681106200c436576200c4356200fa26565b5b60200201828152508281525050506200c4be826000600681106200c45f576200c45e6200fa26565b5b6020020151836001600681106200c47b576200c47a6200fa26565b5b6020020151856004600681106200c497576200c4966200fa26565b5b6020020151866005600681106200c4b3576200c4b26200fa26565b5b60200201516200cc55565b836000600681106200c4d5576200c4d46200fa26565b5b60200201846001600681106200c4f0576200c4ef6200fa26565b5b60200201828152508281525050506200c542826002600681106200c519576200c5186200fa26565b5b6020020151836003600681106200c535576200c5346200fa26565b5b602002015160026200ce8f565b836004600681106200c559576200c5586200fa26565b5b60200201846005600681106200c574576200c5736200fa26565b5b60200201828152508281525050506200c5fc826000600681106200c59d576200c59c6200fa26565b5b6020020151836001600681106200c5b9576200c5b86200fa26565b5b6020020151846004600681106200c5d5576200c5d46200fa26565b5b6020020151856005600681106200c5f1576200c5f06200fa26565b5b60200201516200cc55565b836000600681106200c613576200c6126200fa26565b5b60200201846001600681106200c62e576200c62d6200fa26565b5b60200201828152508281525050506200c6b6836002600681106200c657576200c6566200fa26565b5b6020020151846003600681106200c673576200c6726200fa26565b5b6020020151846000600681106200c68f576200c68e6200fa26565b5b6020020151856001600681106200c6ab576200c6aa6200fa26565b5b60200201516200cb13565b826000600681106200c6cd576200c6cc6200fa26565b5b60200201836001600681106200c6e8576200c6e76200fa26565b5b60200201828152508281525050506200c770826002600681106200c711576200c7106200fa26565b5b6020020151836003600681106200c72d576200c72c6200fa26565b5b6020020151846000600681106200c749576200c7486200fa26565b5b6020020151856001600681106200c765576200c7646200fa26565b5b60200201516200cc55565b846002600681106200c787576200c7866200fa26565b5b60200201856003600681106200c7a2576200c7a16200fa26565b5b60200201828152508281525050506200c82a836000600681106200c7cb576200c7ca6200fa26565b5b6020020151846001600681106200c7e7576200c7e66200fa26565b5b6020020151856002600681106200c803576200c8026200fa26565b5b6020020151866003600681106200c81f576200c81e6200fa26565b5b60200201516200cb13565b846002600681106200c841576200c8406200fa26565b5b60200201856003600681106200c85c576200c85b6200fa26565b5b60200201828152508281525050506200c8e4836004600681106200c885576200c8846200fa26565b5b6020020151846005600681106200c8a1576200c8a06200fa26565b5b6020020151836002600681106200c8bd576200c8bc6200fa26565b5b6020020151846003600681106200c8d9576200c8d86200fa26565b5b60200201516200cb13565b846000600681106200c8fb576200c8fa6200fa26565b5b60200201856001600681106200c916576200c9156200fa26565b5b60200201828152508281525050506200c99e836002600681106200c93f576200c93e6200fa26565b5b6020020151846003600681106200c95b576200c95a6200fa26565b5b6020020151856000600681106200c977576200c9766200fa26565b5b6020020151866001600681106200c993576200c9926200fa26565b5b60200201516200cc55565b826002600681106200c9b5576200c9b46200fa26565b5b60200201836003600681106200c9d0576200c9cf6200fa26565b5b60200201828152508281525050505b92915050565b6000806000806000806200c9fa88886200cf08565b80925081935050506200ca108c8c84846200cb13565b80965081975050506200ca268a8a84846200cb13565b809450819550505050509650965096509692505050565b6060824710156200ca85576040517f08c379a00000000000000000000000000000000000000000000000000000000081526004016200ca7c9062011629565b60405180910390fd5b6000808673ffffffffffffffffffffffffffffffffffffffff1685876040516200cab091906201168d565b60006040518083038185875af1925050503d80600081146200caef576040519150601f19603f3d011682016040523d82523d6000602084013e6200caf4565b606091505b50915091506200cb07878383876200d07a565b92505050949350505050565b6000806200cbab7f30644e72e131a029b85045b68181585d97816a916871ca8d3c208c16d87cfd47806200cb4c576200cb4b620104d3565b5b8588097f30644e72e131a029b85045b68181585d97816a916871ca8d3c208c16d87cfd47806200cb81576200cb80620104d3565b5b8588097f30644e72e131a029b85045b68181585d97816a916871ca8d3c208c16d87cfd476200d0f9565b7f30644e72e131a029b85045b68181585d97816a916871ca8d3c208c16d87cfd47806200cbdd576200cbdc620104d3565b5b7f30644e72e131a029b85045b68181585d97816a916871ca8d3c208c16d87cfd47806200cc0f576200cc0e620104d3565b5b8688097f30644e72e131a029b85045b68181585d97816a916871ca8d3c208c16d87cfd47806200cc44576200cc43620104d3565b5b868a09089150915094509492505050565b6000806200cc8586857f30644e72e131a029b85045b68181585d97816a916871ca8d3c208c16d87cfd476200d0f9565b6200ccb286857f30644e72e131a029b85045b68181585d97816a916871ca8d3c208c16d87cfd476200d0f9565b9150915094509492505050565b6000806000806000806200ccd68c8c60036200ce8f565b80965081975050506200ccec86868e8e6200cb13565b80965081975050506200cd028a8a8a8a6200cb13565b80985081995050506200cd188c8c8c8c6200cb13565b80945081955050506200cd2e84848a8a6200cb13565b80945081955050506200cd44868688886200cb13565b809c50819d5050506200cd5a848460086200ce8f565b80925081935050506200cd708c8c84846200cc55565b809c50819d5050506200cd8688888a8a6200cb13565b80925081935050506200cd9c848460046200ce8f565b80945081955050506200cdb284848e8e6200cc55565b80945081955050506200cdc8848488886200cb13565b80945081955050506200cdde8a8a60086200ce8f565b80965081975050506200cdf486868c8c6200cb13565b80965081975050506200ce0a868684846200cb13565b80965081975050506200ce20848488886200cc55565b80945081955050506200ce368c8c60026200ce8f565b80965081975050506200ce4c86868a8a6200cb13565b80965081975050506200ce62888884846200cb13565b80925081935050506200ce78828260086200ce8f565b809250819350505096509650965096509650969050565b6000807f30644e72e131a029b85045b68181585d97816a916871ca8d3c208c16d87cfd47806200cec4576200cec3620104d3565b5b8386097f30644e72e131a029b85045b68181585d97816a916871ca8d3c208c16d87cfd47806200cef9576200cef8620104d3565b5b84860991509150935093915050565b60008060006200cfd57f30644e72e131a029b85045b68181585d97816a916871ca8d3c208c16d87cfd47806200cf43576200cf42620104d3565b5b7f30644e72e131a029b85045b68181585d97816a916871ca8d3c208c16d87cfd47806200cf75576200cf74620104d3565b5b8788097f30644e72e131a029b85045b68181585d97816a916871ca8d3c208c16d87cfd47806200cfaa576200cfa9620104d3565b5b878809087f30644e72e131a029b85045b68181585d97816a916871ca8d3c208c16d87cfd476200d126565b90507f30644e72e131a029b85045b68181585d97816a916871ca8d3c208c16d87cfd47806200d009576200d008620104d3565b5b8186097f30644e72e131a029b85045b68181585d97816a916871ca8d3c208c16d87cfd47806200d03e576200d03d620104d3565b5b8286097f30644e72e131a029b85045b68181585d97816a916871ca8d3c208c16d87cfd476200d06e91906200fad1565b92509250509250929050565b606083156200d0e45760008351036200d0db576200d098856200d179565b6200d0da576040517f08c379a00000000000000000000000000000000000000000000000000000000081526004016200d0d190620116f6565b60405180910390fd5b5b8290506200d0f1565b6200d0f083836200d19c565b5b949350505050565b600081806200d10d576200d10c620104d3565b5b83836200d11b91906200fad1565b850890509392505050565b60008060405160208152602080820152602060408201528460608201526002840360808201528360a082015260208160c08360056107d05a03fa91508051925050806200d17257600080fd5b5092915050565b6000808273ffffffffffffffffffffffffffffffffffffffff163b119050919050565b6000825111156200d1b05781518083602001fd5b806040517f08c379a00000000000000000000000000000000000000000000000000000000081526004016200d1e6919062011764565b60405180910390fd5b50805460008255600502906000526020600020908101906200d21291906200d5ef565b50565b82600481019282156200d244579182015b828111156200d2435782548255916001019190600101906200d226565b5b5090506200d25391906200d641565b5090565b5060008155600101600081556001016000815560010160009055565b6040518060400160405280600073ffffffffffffffffffffffffffffffffffffffff1681526020016200d2a56200d2cd565b81525090565b6040518060400160405280600290602082028036833780820191505090505090565b6040518060800160405280600490602082028036833780820191505090505090565b604051806101400160405280600073ffffffffffffffffffffffffffffffffffffffff168152602001600060028111156200d32f576200d32e6200dfbb565b5b815260200160608152602001600067ffffffffffffffff168152602001600081526020016000815260200160008152602001600061ffff16815260200160008152602001600081525090565b6040518060a00160405280600073ffffffffffffffffffffffffffffffffffffffff1681526020016060815260200160001515815260200160008152602001600081525090565b604051806101200160405280600081526020016000815260200160008152602001600081526020016060815260200160608152602001606081526020016000151581526020016200d4126200d2cd565b81525090565b50805460008255906000526020600020908101906200d43891906200d641565b50565b50805460008255600702906000526020600020908101906200d45e91906200d660565b50565b6128ae806201178983390190565b8280548282559060005260206000209081019282156200d4eb579160200282015b828111156200d4ea5782518260006101000a81548173ffffffffffffffffffffffffffffffffffffffff021916908373ffffffffffffffffffffffffffffffffffffffff160217905550916020019190600101906200d490565b5b5090506200d4fa91906200d641565b5090565b82600481019282156200d530579160200282015b828111156200d52f5782518255916020019190600101906200d512565b5b5090506200d53f91906200d641565b5090565b6040518060400160405280606081526020016200d55f6200d6be565b81525090565b6040518060200160405280600190602082028036833780820191505090505090565b5080546200d595906200ff7f565b6000825580601f106200d5a957506200d5ca565b601f0160209004906000526020600020908101906200d5c991906200d641565b5b50565b6040518060c00160405280600690602082028036833780820191505090505090565b5b808211156200d63d57600080820160006101000a81549073ffffffffffffffffffffffffffffffffffffffff02191690556001820160006200d63391906200d257565b506005016200d5f0565b5090565b5b808211156200d65c5760008160009055506001016200d642565b5090565b5b808211156200d6ba57600080820160006200d67d91906200d418565b600182016000808201600090556001820160006200d69c91906200d257565b6005820160006200d6ae91906200d418565b5050506007016200d661565b5090565b6040518060600160405280600081526020016200d6da6200d2cd565b8152602001606081525090565b6000604051905090565b600080fd5b600080fd5b600073ffffffffffffffffffffffffffffffffffffffff82169050919050565b60006200d728826200d6fb565b9050919050565b6200d73a816200d71b565b81146200d74657600080fd5b50565b6000813590506200d75a816200d72f565b92915050565b6000602082840312156200d779576200d7786200d6f1565b5b60006200d789848285016200d749565b91505092915050565b6000819050919050565b6200d7a7816200d792565b82525050565b60006020820190506200d7c460008301846200d79c565b92915050565b6200d7d5816200d792565b81146200d7e157600080fd5b50565b6000813590506200d7f5816200d7ca565b92915050565b600080604083850312156200d815576200d8146200d6f1565b5b60006200d825858286016200d7e4565b92505060206200d838858286016200d7e4565b9150509250929050565b600061ffff82169050919050565b6200d85b816200d842565b81146200d86757600080fd5b50565b6000813590506200d87b816200d850565b92915050565b600063ffffffff82169050919050565b6200d89c816200d881565b81146200d8a857600080fd5b50565b6000813590506200d8bc816200d891565b92915050565b6000819050919050565b6200d8d7816200d8c2565b81146200d8e357600080fd5b50565b6000813590506200d8f7816200d8cc565b92915050565b600080fd5b6000601f19601f8301169050919050565b7f4e487b7100000000000000000000000000000000000000000000000000000000600052604160045260246000fd5b6200d94d826200d902565b810181811067ffffffffffffffff821117156200d96f576200d96e6200d913565b5b80604052505050565b60006200d9846200d6e7565b90506200d99282826200d942565b919050565b600080fd5b600062ffffff82169050919050565b6200d9b6816200d99c565b81146200d9c257600080fd5b50565b6000813590506200d9d6816200d9ab565b92915050565b600061012082840312156200d9f6576200d9f56200d8fd565b5b6200da036101206200d978565b905060006200da15848285016200d8ab565b60008301525060206200da2b848285016200d8ab565b60208301525060406200da41848285016200d8ab565b60408301525060606200da57848285016200d8ab565b60608301525060806200da6d848285016200d8ab565b60808301525060a06200da83848285016200d9c5565b60a08301525060c06200da99848285016200d9c5565b60c08301525060e06200daaf848285016200d9c5565b60e0830152506101006200dac6848285016200d9c5565b6101008301525092915050565b6000806000806000806000806000806102408b8d0312156200dafa576200daf96200d6f1565b5b60006200db0a8d828e016200d86a565b9a505060206200db1d8d828e016200d8ab565b99505060406200db308d828e016200d8ab565b98505060606200db438d828e016200d8ab565b97505060806200db568d828e016200d8ab565b96505060a06200db698d828e016200d8e6565b95505060c06200db7c8d828e016200d7e4565b94505060e06200db8f8d828e016200d7e4565b9350506101006200dba38d828e016200d7e4565b9250506101206200dbb78d828e016200d9dc565b9150509295989b9194979a5092959850565b6200dbd4816200d842565b82525050565b60006020820190506200dbf160008301846200dbc9565b92915050565b6200dc02816200d71b565b82525050565b600081519050919050565b600082825260208201905092915050565b60005b838110156200dc445780820151818401526020810190506200dc27565b838111156200dc54576000848401525b50505050565b60006200dc67826200dc08565b6200dc7381856200dc13565b93506200dc858185602086016200dc24565b6200dc90816200d902565b840191505092915050565b60008115159050919050565b6200dcb2816200dc9b565b82525050565b600060a0820190506200dccf60008301886200dbf7565b81810360208301526200dce381876200dc5a565b90506200dcf460408301866200dca7565b6200dd0360608301856200d79c565b6200dd1260808301846200d79c565b9695505050505050565b600081519050919050565b600082825260208201905092915050565b6000819050602082019050919050565b6200dd53816200d792565b82525050565b60006200dd6783836200dd48565b60208301905092915050565b6000602082019050919050565b60006200dd8d826200dd1c565b6200dd9981856200dd27565b93506200dda6836200dd38565b8060005b838110156200dddd5781516200ddc188826200dd59565b97506200ddce836200dd73565b9250506001810190506200ddaa565b5085935050505092915050565b600060208201905081810360008301526200de0681846200dd80565b905092915050565b6200de19816200dc9b565b81146200de2557600080fd5b50565b6000813590506200de39816200de0e565b92915050565b6000806000606084860312156200de5b576200de5a6200d6f1565b5b60006200de6b868287016200d749565b93505060206200de7e868287016200d7e4565b92505060406200de91868287016200de28565b9150509250925092565b60006020820190506200deb260008301846200dca7565b92915050565b6000602082840312156200ded1576200ded06200d6f1565b5b60006200dee1848285016200d7e4565b91505092915050565b600080604083850312156200df04576200df036200d6f1565b5b60006200df14858286016200d7e4565b92505060206200df27858286016200d749565b9150509250929050565b60006020820190506200df4860008301846200dbf7565b92915050565b6000819050919050565b6200df63816200df4e565b81146200df6f57600080fd5b50565b6000813590506200df83816200df58565b92915050565b6000602082840312156200dfa2576200dfa16200d6f1565b5b60006200dfb2848285016200df72565b91505092915050565b7f4e487b7100000000000000000000000000000000000000000000000000000000600052602160045260246000fd5b600381106200dffe576200dffd6200dfbb565b5b50565b60008190506200e011826200dfea565b919050565b60006200e023826200e001565b9050919050565b6200e035816200e016565b82525050565b600067ffffffffffffffff82169050919050565b6200e05a816200e03b565b82525050565b6000610140820190506200e078600083018d6200dbf7565b6200e087602083018c6200e02a565b81810360408301526200e09b818b6200dc5a565b90506200e0ac606083018a6200e04f565b6200e0bb60808301896200d79c565b6200e0ca60a08301886200d79c565b6200e0d960c08301876200d79c565b6200e0e860e08301866200dbc9565b6200e0f86101008301856200d79c565b6200e1086101208301846200d79c565b9b9a5050505050505050505050565b6200e122816200d71b565b82525050565b600060049050919050565b600081905092915050565b6000819050919050565b6000602082019050919050565b6200e160816200e128565b6200e16c81846200e133565b92506200e179826200e13e565b8060005b838110156200e1b05781516200e19487826200dd59565b96506200e1a1836200e148565b9250506001810190506200e17d565b505050505050565b60a0820160008201516200e1d060008501826200e117565b5060208201516200e1e560208501826200e155565b50505050565b600060a0820190506200e20260008301846200e1b8565b92915050565b6000819050919050565b60006200e2336200e22d6200e227846200d6fb565b6200e208565b6200d6fb565b9050919050565b60006200e247826200e212565b9050919050565b60006200e25b826200e23a565b9050919050565b6200e26d816200e24e565b82525050565b60006020820190506200e28a60008301846200e262565b92915050565b600080600080600080600080610100898b0312156200e2b4576200e2b36200d6f1565b5b60006200e2c48b828c016200d7e4565b98505060206200e2d78b828c016200d7e4565b97505060406200e2ea8b828c016200d7e4565b96505060606200e2fd8b828c016200d7e4565b95505060806200e3108b828c016200d7e4565b94505060a06200e3238b828c016200d7e4565b93505060c06200e3368b828c016200d7e4565b92505060e06200e3498b828c016200d7e4565b9150509295985092959890939650565b600080600080608085870312156200e376576200e3756200d6f1565b5b60006200e386878288016200d749565b94505060206200e399878288016200d7e4565b93505060406200e3ac878288016200d7e4565b92505060606200e3bf878288016200de28565b91505092959194509250565b60006040820190506200e3e260008301856200d79c565b6200e3f160208301846200dca7565b9392505050565b6200e403816200e03b565b81146200e40f57600080fd5b50565b6000813590506200e423816200e3f8565b92915050565b600080604083850312156200e443576200e4426200d6f1565b5b60006200e453858286016200e412565b92505060206200e466858286016200d749565b9150509250929050565b60006020820190506200e48760008301846200e04f565b92915050565b600080fd5b600080fd5b600080fd5b60008083601f8401126200e4b5576200e4b46200e48d565b5b8235905067ffffffffffffffff8111156200e4d5576200e4d46200e492565b5b6020830191508360018202830111156200e4f4576200e4f36200e497565b5b9250929050565b600080602083850312156200e515576200e5146200d6f1565b5b600083013567ffffffffffffffff8111156200e536576200e5356200d6f6565b5b6200e544858286016200e49c565b92509250509250929050565b600067ffffffffffffffff8211156200e56e576200e56d6200d913565b5b602082029050602081019050919050565b6000604082840312156200e598576200e5976200d8fd565b5b6200e5a460406200d978565b905060006200e5b6848285016200d7e4565b60008301525060206200e5cc848285016200d7e4565b60208301525092915050565b60006200e5ef6200e5e9846200e550565b6200d978565b905080838252602082019050604084028301858111156200e615576200e6146200e497565b5b835b818110156200e64257806200e62d88826200e57f565b8452602084019350506040810190506200e617565b5050509392505050565b600082601f8301126200e664576200e6636200e48d565b5b81356200e6768482602086016200e5d8565b91505092915050565b600080600080608085870312156200e69c576200e69b6200d6f1565b5b60006200e6ac878288016200d7e4565b94505060206200e6bf878288016200df72565b93505060406200e6d2878288016200d7e4565b925050606085013567ffffffffffffffff8111156200e6f6576200e6f56200d6f6565b5b6200e704878288016200e64c565b91505092959194509250565b600067ffffffffffffffff8211156200e72e576200e72d6200d913565b5b602082029050602081019050919050565b60006200e7566200e750846200e710565b6200d978565b905080838252602082019050602084028301858111156200e77c576200e77b6200e497565b5b835b818110156200e7a957806200e79488826200d7e4565b8452602084019350506020810190506200e77e565b5050509392505050565b600082601f8301126200e7cb576200e7ca6200e48d565b5b81356200e7dd8482602086016200e73f565b91505092915050565b6000806000606084860312156200e802576200e8016200d6f1565b5b60006200e812868287016200d7e4565b935050602084013567ffffffffffffffff8111156200e836576200e8356200d6f6565b5b6200e844868287016200e7b3565b92505060406200e857868287016200d7e4565b9150509250925092565b6200e86c816200e016565b82525050565b600082825260208201905092915050565b60006200e890826200dc08565b6200e89c81856200e872565b93506200e8ae8185602086016200dc24565b6200e8b9816200d902565b840191505092915050565b6200e8cf816200e03b565b82525050565b6200e8e0816200d842565b82525050565b6000610140830160008301516200e90160008601826200e117565b5060208301516200e91660208601826200e861565b50604083015184820360408601526200e93082826200e883565b91505060608301516200e94760608601826200e8c4565b5060808301516200e95c60808601826200dd48565b5060a08301516200e97160a08601826200dd48565b5060c08301516200e98660c08601826200dd48565b5060e08301516200e99b60e08601826200e8d5565b506101008301516200e9b26101008601826200dd48565b506101208301516200e9c96101208601826200dd48565b508091505092915050565b600060208201905081810360008301526200e9f081846200e8e6565b905092915050565b600060a0820190506200ea0f60008301886200d79c565b6200ea1e60208301876200d79c565b6200ea2d60408301866200d79c565b6200ea3c60608301856200d79c565b6200ea4b60808301846200dca7565b9695505050505050565b6200ea60816200dc9b565b82525050565b600060a0830160008301516200ea8060008601826200e117565b50602083015184820360208601526200ea9a82826200e883565b91505060408301516200eab160408601826200ea55565b5060608301516200eac660608601826200dd48565b5060808301516200eadb60808601826200dd48565b508091505092915050565b600060208201905081810360008301526200eb0281846200ea66565b905092915050565b600080600080608085870312156200eb27576200eb266200d6f1565b5b60006200eb37878288016200d7e4565b94505060206200eb4a878288016200d7e4565b93505060406200eb5d878288016200d8ab565b92505060606200eb70878288016200d7e4565b91505092959194509250565b60006bffffffffffffffffffffffff82169050919050565b6200eb9f816200eb7c565b82525050565b60006020820190506200ebbc60008301846200eb94565b92915050565b6000602082840312156200ebdb576200ebda6200d6f1565b5b60006200ebeb848285016200e412565b91505092915050565b600081519050919050565b600082825260208201905092915050565b6000819050602082019050919050565b60006200ec2e83836200e117565b60208301905092915050565b6000602082019050919050565b60006200ec54826200ebf4565b6200ec6081856200ebff565b93506200ec6d836200ec10565b8060005b838110156200eca45781516200ec8888826200ec20565b97506200ec95836200ec3a565b9250506001810190506200ec71565b5085935050505092915050565b600060a0820190506200ecc860008301886200eb94565b6200ecd760208301876200eb94565b6200ece660408301866200e04f565b6200ecf560608301856200dbf7565b81810360808301526200ed0981846200ec47565b90509695505050505050565b600081519050919050565b600082825260208201905092915050565b6000819050602082019050919050565b60a0820160008201516200ed5960008501826200e117565b5060208201516200ed6e60208501826200e155565b50505050565b60006200ed8283836200ed41565b60a08301905092915050565b6000602082019050919050565b60006200eda8826200ed15565b6200edb481856200ed20565b93506200edc1836200ed31565b8060005b838110156200edf85781516200eddc88826200ed74565b97506200ede9836200ed8e565b9250506001810190506200edc5565b5085935050505092915050565b600082825260208201905092915050565b60006200ee23826200ebf4565b6200ee2f81856200ee05565b93506200ee3c836200ec10565b8060005b838110156200ee735781516200ee5788826200ec20565b97506200ee64836200ec3a565b9250506001810190506200ee40565b5085935050505092915050565b600081519050919050565b600082825260208201905092915050565b6000819050602082019050919050565b600060c0830160008301516200eec660008601826200dd48565b5060208301516200eedb60208601826200e155565b50604083015184820360a08601526200eef582826200ee16565b9150508091505092915050565b600060408301600083015184820360008601526200ef2182826200ee16565b915050602083015184820360208601526200ef3d82826200eeac565b9150508091505092915050565b60006200ef5883836200ef02565b905092915050565b6000602082019050919050565b60006200ef7a826200ee80565b6200ef8681856200ee8b565b9350836020820285016200ef9a856200ee9c565b8060005b858110156200efdc57848403895281516200efba85826200ef4a565b94506200efc7836200ef60565b925060208a019950506001810190506200ef9e565b50829750879550505050505092915050565b6000610180830160008301516200f00960008601826200dd48565b5060208301516200f01e60208601826200dd48565b5060408301516200f03360408601826200dd48565b5060608301516200f04860608601826200dd48565b50608083015184820360808601526200f06282826200ed9b565b91505060a083015184820360a08601526200f07e82826200ee16565b91505060c083015184820360c08601526200f09a82826200ef6d565b91505060e08301516200f0b160e08601826200ea55565b506101008301516200f0c86101008601826200e155565b508091505092915050565b600060208201905081810360008301526200f0ef81846200efee565b905092915050565b60006200f104826200e23a565b9050919050565b6200f116816200f0f7565b82525050565b60006020820190506200f13360008301846200f10b565b92915050565b6200f144816200d881565b82525050565b60006020820190506200f16160008301846200f139565b92915050565b600080604083850312156200f181576200f1806200d6f1565b5b60006200f191858286016200e412565b92505060206200f1a4858286016200d7e4565b9150509250929050565b600080fd5b600067ffffffffffffffff8211156200f1d1576200f1d06200d913565b5b6200f1dc826200d902565b9050602081019050919050565b82818337600083830152505050565b60006200f20f6200f209846200f1b3565b6200d978565b9050828152602081018484840111156200f22e576200f22d6200f1ae565b5b6200f23b8482856200f1e9565b509392505050565b600082601f8301126200f25b576200f25a6200e48d565b5b81356200f26d8482602086016200f1f8565b91505092915050565b600067ffffffffffffffff8211156200f294576200f2936200d913565b5b602082029050602081019050919050565b60006200f2bc6200f2b6846200f276565b6200d978565b905080838252602082019050602084028301858111156200f2e2576200f2e16200e497565b5b835b818110156200f30f57806200f2fa88826200d749565b8452602084019350506020810190506200f2e4565b5050509392505050565b600082601f8301126200f331576200f3306200e48d565b5b81356200f3438482602086016200f2a5565b91505092915050565b600060a082840312156200f365576200f3646200d8fd565b5b6200f37160a06200d978565b905060006200f383848285016200d7e4565b60008301525060206200f399848285016200d7e4565b602083015250604082013567ffffffffffffffff8111156200f3c0576200f3bf6200d997565b5b6200f3ce848285016200f243565b604083015250606082013567ffffffffffffffff8111156200f3f5576200f3f46200d997565b5b6200f403848285016200f243565b606083015250608082013567ffffffffffffffff8111156200f42a576200f4296200d997565b5b6200f438848285016200f319565b60808301525092915050565b6000602082840312156200f45d576200f45c6200d6f1565b5b600082013567ffffffffffffffff8111156200f47e576200f47d6200d6f6565b5b6200f48c848285016200f34c565b91505092915050565b6200f4a0816200d8c2565b82525050565b60006020820190506200f4bd60008301846200f495565b92915050565b600381106200f4d157600080fd5b50565b6000813590506200f4e5816200f4c3565b92915050565b600060e082840312156200f504576200f5036200d8fd565b5b6200f51060e06200d978565b905060006200f522848285016200f4d4565b600083015250602082013567ffffffffffffffff8111156200f549576200f5486200d997565b5b6200f557848285016200f243565b60208301525060406200f56d848285016200e412565b60408301525060606200f583848285016200d7e4565b60608301525060806200f599848285016200d86a565b60808301525060a06200f5af848285016200d7e4565b60a08301525060c06200f5c5848285016200d7e4565b60c08301525092915050565b6000602082840312156200f5ea576200f5e96200d6f1565b5b600082013567ffffffffffffffff8111156200f60b576200f60a6200d6f6565b5b6200f619848285016200f4eb565b91505092915050565b6200f62d816200df4e565b82525050565b60006020820190506200f64a60008301846200f622565b92915050565b600080604083850312156200f66a576200f6696200d6f1565b5b600083013567ffffffffffffffff8111156200f68b576200f68a6200d6f6565b5b6200f699858286016200f319565b925050602083013567ffffffffffffffff8111156200f6bd576200f6bc6200d6f6565b5b6200f6cb858286016200f319565b9150509250929050565b600060208201905081810360008301526200f6f181846200ec47565b905092915050565b600082825260208201905092915050565b7f47726f757020646f6573206e6f74206578697374000000000000000000000000600082015250565b60006200f7426014836200f6f9565b91506200f74f826200f70a565b602082019050919050565b600060208201905081810360008301526200f775816200f733565b9050919050565b7f4e6f6465206973206e6f742061206d656d626572206f66207468652067726f7560008201527f7000000000000000000000000000000000000000000000000000000000000000602082015250565b60006200f7da6021836200f6f9565b91506200f7e7826200f77c565b604082019050919050565b600060208201905081810360008301526200f80d816200f7cb565b9050919050565b7f43616c6c65722047726f75702065706f636820646f6573206e6f74206d61746360008201527f6820436f6e74726f6c6c65722047726f75702065706f63680000000000000000602082015250565b60006200f8726038836200f6f9565b91506200f87f826200f814565b604082019050919050565b600060208201905081810360008301526200f8a5816200f863565b9050919050565b7f436f6f7264696e61746f72206e6f7420666f756e6420666f722067726f75704960008201527f6e64657800000000000000000000000000000000000000000000000000000000602082015250565b60006200f90a6024836200f6f9565b91506200f917826200f8ac565b604082019050919050565b600060208201905081810360008301526200f93d816200f8fb565b9050919050565b60008160000b9050919050565b6200f95c816200f944565b81146200f96857600080fd5b50565b6000815190506200f97c816200f951565b92915050565b6000602082840312156200f99b576200f99a6200d6f1565b5b60006200f9ab848285016200f96b565b91505092915050565b7f444b47207374696c6c20696e2070726f67726573730000000000000000000000600082015250565b60006200f9ec6015836200f6f9565b91506200f9f9826200f9b4565b602082019050919050565b600060208201905081810360008301526200fa1f816200f9dd565b9050919050565b7f4e487b7100000000000000000000000000000000000000000000000000000000600052603260045260246000fd5b7f4e487b7100000000000000000000000000000000000000000000000000000000600052601160045260246000fd5b60006200fa91826200d792565b91507fffffffffffffffffffffffffffffffffffffffffffffffffffffffffffffffff82036200fac6576200fac56200fa55565b5b600182019050919050565b60006200fade826200d792565b91506200faeb836200d792565b9250828210156200fb01576200fb006200fa55565b5b828203905092915050565b7f4e487b7100000000000000000000000000000000000000000000000000000000600052603160045260246000fd5b60006200fb48826200d792565b91506200fb55836200d792565b9250827fffffffffffffffffffffffffffffffffffffffffffffffffffffffffffffffff038211156200fb8d576200fb8c6200fa55565b5b828201905092915050565b60006060820190506200fbaf60008301866200dbc9565b6200fbbe60208301856200dbc9565b6200fbcd60408301846200dbc9565b949350505050565b60008160001c9050919050565b600063ffffffff82169050919050565b60006200fc096200fc03836200fbd5565b6200fbe2565b9050919050565b6200fc1b816200d881565b82525050565b60008160201c9050919050565b60006200fc456200fc3f836200fc21565b6200fbe2565b9050919050565b60008160401c9050919050565b60006200fc706200fc6a836200fc4c565b6200fbe2565b9050919050565b60008160601c9050919050565b60006200fc9b6200fc95836200fc77565b6200fbe2565b9050919050565b60008160801c9050919050565b60006200fcc66200fcc0836200fca2565b6200fbe2565b9050919050565b60008160a01c9050919050565b600062ffffff82169050919050565b60006200fd006200fcfa836200fccd565b6200fcda565b9050919050565b6200fd12816200d99c565b82525050565b60008160b81c9050919050565b60006200fd3c6200fd36836200fd18565b6200fcda565b9050919050565b60008160d01c9050919050565b60006200fd676200fd61836200fd43565b6200fcda565b9050919050565b60008160e81c9050919050565b60006200fd926200fd8c836200fd6e565b6200fcda565b9050919050565b610120820160008083015490506200fdb1816200fbf2565b6200fdc060008601826200fc10565b506200fdcc816200fc2e565b6200fddb60208601826200fc10565b506200fde7816200fc59565b6200fdf660408601826200fc10565b506200fe02816200fc84565b6200fe1160608601826200fc10565b506200fe1d816200fcaf565b6200fe2c60808601826200fc10565b506200fe38816200fce9565b6200fe4760a08601826200fd07565b506200fe53816200fd25565b6200fe6260c08601826200fd07565b506200fe6e816200fd50565b6200fe7d60e08601826200fd07565b506200fe89816200fd7b565b6200fe996101008601826200fd07565b5050505050565b6000610240820190506200feb8600083018d6200dbc9565b6200fec7602083018c6200f139565b6200fed6604083018b6200f139565b6200fee5606083018a6200f139565b6200fef460808301896200f139565b6200ff0360a08301886200f495565b6200ff1260c08301876200d79c565b6200ff2160e08301866200d79c565b6200ff316101008301856200d79c565b6200ff416101208301846200fd99565b9b9a5050505050505050505050565b7f4e487b7100000000000000000000000000000000000000000000000000000000600052602260045260246000fd5b600060028204905060018216806200ff9857607f821691505b6020821081036200ffae576200ffad6200ff50565b5b50919050565b60006200ffc1826200d792565b9150600082036200ffd7576200ffd66200fa55565b5b600182039050919050565b7f4e6f6465206e6f7420726567697374657265642e000000000000000000000000600082015250565b60006201001a6014836200f6f9565b915062010027826200ffe2565b602082019050919050565b600060208201905081810360008301526201004d816201000b565b9050919050565b6000610100820190506201006c600083018b6200d79c565b6201007b602083018a6200d79c565b6201008a60408301896200d79c565b6201009960608301886200d79c565b620100a860808301876200d79c565b620100b760a08301866200d79c565b620100c660c08301856200d79c565b620100d560e08301846200d79c565b9998505050505050505050565b7f4e6f646520697320616c72656164792072656769737465726564000000000000600082015250565b60006201011a601a836200f6f9565b91506201012782620100e2565b602082019050919050565b600060208201905081810360008301526201014d816201010b565b9050919050565b600082905092915050565b60008190508160005260206000209050919050565b60006020601f8301049050919050565b600082821b905092915050565b600060088302620101c37fffffffffffffffffffffffffffffffffffffffffffffffffffffffffffffffff8262010184565b620101cf868362010184565b95508019841693508086168417925050509392505050565b60006201020862010202620101fc846200d792565b6200e208565b6200d792565b9050919050565b6000819050919050565b6201022483620101e7565b6201023c62010233826201020f565b84845462010191565b825550505050565b600090565b6201025362010244565b6201026081848462010219565b505050565b5b8181101562010288576201027c60008262010249565b60018101905062010266565b5050565b601f821115620102d757620102a1816201015f565b620102ac8462010174565b81016020851015620102bc578190505b620102d4620102cb8562010174565b83018262010265565b50505b505050565b600082821c905092915050565b6000620102fc60001984600802620102dc565b1980831691505092915050565b6000620103178383620102e9565b9150826002028217905092915050565b62010333838362010154565b67ffffffffffffffff8111156201034f576201034e6200d913565b5b6201035b82546200ff7f565b620103688282856201028c565b6000601f8311600181146201039c576000841562010387578287013590505b62010393858262010309565b86555062010403565b601f198416620103ac866201015f565b60005b82811015620103d657848901358255600182019150602085019450602081019050620103af565b86831015620103f65784890135620103f2601f891682620102e9565b8355505b6001600288020188555050505b50505050505050565b7f546f6f206561726c7920746f2066756c66696c6c000000000000000000000000600082015250565b6000620104446014836200f6f9565b915062010451826201040c565b602082019050919050565b60006020820190508181036000830152620104778162010435565b9050919050565b6000819050919050565b6201049d62010497826200d792565b6201047e565b82525050565b6000620104b1828562010488565b602082019150620104c3828462010488565b6020820191508190509392505050565b7f4e487b7100000000000000000000000000000000000000000000000000000000600052601260045260246000fd5b60006201050f826200d792565b91506201051c836200d792565b9250826201052f576201052e620104d3565b5b828206905092915050565b600062010547826200d792565b915062010554836200d792565b9250817fffffffffffffffffffffffffffffffffffffffffffffffffffffffffffffffff048311821515161562010590576201058f6200fa55565b5b828202905092915050565b6000620105a8826200d792565b9150620105b5836200d792565b925082620105c857620105c7620104d3565b5b828204905092915050565b6000620105e0826200e03b565b915067ffffffffffffffff8203620105fd57620105fc6200fa55565b5b600182019050919050565b7f4e6f646520737461746520697320747275652c2063616e6e6f7420756e73746160008201527f6b652062656c6f77207374616b696e67207468726573686f6c64000000000000602082015250565b600062010666603a836200f6f9565b9150620106738262010608565b604082019050919050565b60006020820190508181036000830152620106998162010657565b9050919050565b6000620106ad826200eb7c565b9150620106ba836200eb7c565b9250826bffffffffffffffffffffffff03821115620106de57620106dd6200fa55565b5b828201905092915050565b60006040820190506201070060008301856200d79c565b6201070f60208301846200d79c565b9392505050565b600081519050919050565b600082825260208201905092915050565b6000819050602082019050919050565b60006201075083836200e883565b905092915050565b6000602082019050919050565b6000620107728262010716565b6201077e818562010721565b935083602082028501620107928562010732565b8060005b85811015620107d45784840389528151620107b2858262010742565b9450620107bf8362010758565b925060208a0199505060018101905062010796565b50829750879550505050505092915050565b600060408201905081810360008301526201080281856200ec47565b9050818103602083015262010818818462010765565b90509392505050565b600060e08201905062010838600083018a6200d79c565b6201084760208301896200d79c565b6201085660408301886200d79c565b6201086560608301876200d79c565b81810360808301526201087981866200ec47565b90506201088a60a08301856200d79c565b6201089960c08301846200dbf7565b98975050505050505050565b7f444b472068617320656e64656400000000000000000000000000000000000000600082015250565b6000620108dd600d836200f6f9565b9150620108ea82620108a5565b602082019050919050565b600060208201905081810360008301526201091081620108ce565b9050919050565b7f43616c6c65722047726f75702065706f636820646f6573206e6f74206d61746360008201527f6820636f6e74726f6c6c65722047726f75702065706f63680000000000000000602082015250565b6000620109756038836200f6f9565b9150620109828262010917565b604082019050919050565b60006020820190508181036000830152620109a88162010966565b9050919050565b7f436f6d6d6974436163686520616c726561647920636f6e7461696e732050617260008201527f7469616c4b657920666f722074686973206e6f64650000000000000000000000602082015250565b600062010a0d6035836200f6f9565b915062010a1a82620109af565b604082019050919050565b6000602082019050818103600083015262010a4081620109fe565b9050919050565b7f4f776e61626c653a206e6577206f776e657220697320746865207a65726f206160008201527f6464726573730000000000000000000000000000000000000000000000000000602082015250565b600062010aa56026836200f6f9565b915062010ab28262010a47565b604082019050919050565b6000602082019050818103600083015262010ad88162010a96565b9050919050565b7f506c65617365207265717565737420627920657874656e64696e672047656e6560008201527f72616c52616e6463617374436f6e73756d65724261736520736f20746861742060208201527f77652063616e2063616c6c6261636b20776974682072616e646f6d6e6573732e604082015250565b600062010b636060836200f6f9565b915062010b708262010adf565b606082019050919050565b6000602082019050818103600083015262010b968162010b54565b9050919050565b600060408201905062010bb460008301856200e04f565b62010bc360208301846200dbf7565b9392505050565b600062010bd7826200e03b565b915062010be4836200e03b565b92508267ffffffffffffffff0382111562010c045762010c036200fa55565b5b828201905092915050565b600062010c1c826200eb7c565b915062010c29836200eb7c565b92508282101562010c3f5762010c3e6200fa55565b5b828203905092915050565b7f4e487b7100000000000000000000000000000000000000000000000000000000600052600160045260246000fd5b62010c84826200dc08565b67ffffffffffffffff81111562010ca05762010c9f6200d913565b5b62010cac82546200ff7f565b62010cb98282856201028c565b600060209050601f83116001811462010cf1576000841562010cdc578287015190505b62010ce8858262010309565b86555062010d58565b601f19841662010d01866201015f565b60005b8281101562010d2b5784890151825560018201915060208501945060208101905062010d04565b8683101562010d4b578489015162010d47601f891682620102e9565b8355505b6001600288020188555050505b505050505050565b600060e08201905062010d77600083018a6200f622565b62010d8660208301896200dbf7565b62010d9560408301886200e04f565b62010da460608301876200d79c565b62010db360808301866200dbc9565b62010dc260a08301856200d79c565b62010dd160c08301846200d79c565b98975050505050505050565b7f4f776e61626c653a2063616c6c6572206973206e6f7420746865206f776e6572600082015250565b600062010e156020836200f6f9565b915062010e228262010ddd565b602082019050919050565b6000602082019050818103600083015262010e488162010e06565b9050919050565b6000819050919050565b62010e6e62010e68826200df4e565b62010e4f565b82525050565b600062010e82828462010e59565b60208201915081905092915050565b50565b600062010ea36000836200f6f9565b915062010eb08262010e91565b600082019050919050565b6000602082019050818103600083015262010ed68162010e94565b9050919050565b600060408201905062010ef460008301856200f622565b62010f0360208301846200d79c565b9392505050565b60008151905062010f1b816200d891565b92915050565b60006020828403121562010f3a5762010f396200d6f1565b5b600062010f4a8482850162010f0a565b91505092915050565b600060408201905062010f6a60008301856200f622565b818103602083015262010f7e81846200dd80565b90509392505050565b600062010fa862010fa262010f9c846200eb7c565b6200e208565b6200d792565b9050919050565b62010fba8162010f87565b82525050565b600060808201905062010fd760008301876200f622565b62010fe660208301866200d79c565b62010ff5604083018562010faf565b6201100460608301846200dca7565b95945050505050565b600069ffffffffffffffffffff82169050919050565b6201102e816201100d565b81146201103a57600080fd5b50565b6000815190506201104e8162011023565b92915050565b60008151905062011065816200d8cc565b92915050565b6000815190506201107c816200d7ca565b92915050565b600080600080600060a08688031215620110a157620110a06200d6f1565b5b6000620110b1888289016201103d565b9550506020620110c48882890162011054565b9450506040620110d7888289016201106b565b9350506060620110ea888289016201106b565b9250506080620110fd888289016201103d565b9150509295509295909350565b60006060820190506201112160008301866200dbf7565b6201113060208301856200dbf7565b6201113f60408301846200d79c565b949350505050565b600060c0830160008301516201116160008601826200dd48565b5060208301516201117660208601826200e155565b50604083015184820360a08601526201119082826200ee16565b9150508091505092915050565b60006020820190508181036000830152620111b9818462011147565b905092915050565b6000819050919050565b6000620111e2620111dc836200fbd5565b620111c1565b9050919050565b600060049050919050565b6000819050919050565b60006201120c8254620111cb565b9050919050565b6000600182019050919050565b6201122b81620111e9565b6201123781846200e133565b92506201124482620111f4565b8060005b8381101562011284576201125c82620111fe565b6201126887826200dd59565b9650620112758362011213565b92505060018101905062011248565b505050505050565b600081549050919050565b60008190508160005260206000209050919050565b600073ffffffffffffffffffffffffffffffffffffffff82169050919050565b6000620112e3620112dd836200fbd5565b620112ac565b9050919050565b6000620112f88254620112cc565b9050919050565b6000600182019050919050565b600062011319826201128c565b6201132581856200ee05565b9350620113328362011297565b8060005b8381101562011372576201134a82620112ea565b6201135688826200ec20565b97506201136383620112ff565b92505060018101905062011336565b5085935050505092915050565b600060c0830160008084015490506201139881620111cb565b620113a760008701826200dd48565b5060018401620113bb602087018262011220565b506005840185830360a0870152620113d483826201130c565b925050819250505092915050565b60006020820190508181036000830152620113fe81846201137f565b905092915050565b60006060820190506201141d60008301866200d79c565b6201142c60208301856200dbf7565b6201143b60408301846200d79c565b949350505050565b600062011451828462010488565b60208201915081905092915050565b60008151905062011471816200de0e565b92915050565b60006020828403121562011490576201148f6200d6f1565b5b6000620114a08482850162011460565b91505092915050565b7f5361666545524332303a204552433230206f7065726174696f6e20646964206e60008201527f6f74207375636365656400000000000000000000000000000000000000000000602082015250565b600062011507602a836200f6f9565b91506201151482620114a9565b604082019050919050565b600060208201905081810360008301526201153a81620114f8565b9050919050565b7f424c533a2073717274206d6f646578702063616c6c206661696c656400000000600082015250565b600062011579601c836200f6f9565b9150620115868262011541565b602082019050919050565b60006020820190508181036000830152620115ac816201156a565b9050919050565b7f416464726573733a20696e73756666696369656e742062616c616e636520666f60008201527f722063616c6c0000000000000000000000000000000000000000000000000000602082015250565b6000620116116026836200f6f9565b91506201161e82620115b3565b604082019050919050565b60006020820190508181036000830152620116448162011602565b9050919050565b600081905092915050565b600062011663826200dc08565b6201166f81856201164b565b9350620116818185602086016200dc24565b80840191505092915050565b60006201169b828462011656565b915081905092915050565b7f416464726573733a2063616c6c20746f206e6f6e2d636f6e7472616374000000600082015250565b6000620116de601d836200f6f9565b9150620116eb82620116a6565b602082019050919050565b600060208201905081810360008301526201171181620116cf565b9050919050565b600081519050919050565b6000620117308262011718565b6201173c81856200f6f9565b93506201174e8185602086016200dc24565b62011759816200d902565b840191505092915050565b6000602082019050818103600083015262011780818462011723565b90509291505056fe60c060405260006006553480156200001657600080fd5b50604051620028ae380380620028ae83398181016040528101906200003c919062000180565b6200005c620000506200007460201b60201c565b6200007c60201b60201c565b8160a0818152505080608081815250505050620001c7565b600033905090565b60008060009054906101000a900473ffffffffffffffffffffffffffffffffffffffff169050816000806101000a81548173ffffffffffffffffffffffffffffffffffffffff021916908373ffffffffffffffffffffffffffffffffffffffff1602179055508173ffffffffffffffffffffffffffffffffffffffff168173ffffffffffffffffffffffffffffffffffffffff167f8be0079c531659141344cd1fd0a4f28419497f9722a3daafe3b4186f6b6457e060405160405180910390a35050565b600080fd5b6000819050919050565b6200015a8162000145565b81146200016657600080fd5b50565b6000815190506200017a816200014f565b92915050565b600080604083850312156200019a576200019962000140565b5b6000620001aa8582860162000169565b9250506020620001bd8582860162000169565b9150509250929050565b60805160a05161268962000225600039600081816109390152610aa601526000818161047e015281816104af015281816104ec015281816105290152818161077201528181610b6a01528181610c730152610d8801526126896000f3fe608060405234801561001057600080fd5b506004361061012c5760003560e01c8063785ffb37116100ad578063cc5ef00911610071578063cc5ef009146102fe578063cd5e38371461031c578063ce7c2ac21461034c578063d73fe0aa1461037c578063f2fde38b1461039a5761012c565b8063785ffb371461027e5780637fd283461461029c5780638da5cb5b146102b85780639cb8a26a146102d6578063b0ef8179146102e05761012c565b80634ae2b849116100f45780634ae2b849146101e95780634e3874a0146102075780635aa68ac014610226578063670d14b214610244578063715018a6146102745761012c565b80630ea6564814610131578063221f95111461016157806335c1d3491461017f57806337f8d5ff146101af57806348cd4cb1146101cb575b600080fd5b61014b6004803603810190610146919061179b565b6103b6565b6040516101589190611861565b60405180910390f35b610169610456565b604051610176919061189f565b60405180910390f35b610199600480360381019061019491906118f0565b61058c565b6040516101a6919061192c565b60405180910390f35b6101c960048036038101906101c49190611a02565b6105cb565b005b6101d361076a565b6040516101e09190611a92565b60405180910390f35b6101f1610770565b6040516101fe9190611a92565b60405180910390f35b61020f610794565b60405161021d929190611bb9565b60405180910390f35b61022e610962565b60405161023b9190611ca7565b60405180910390f35b61025e6004803603810190610259919061179b565b6109f0565b60405161026b9190611861565b60405180910390f35b61027c610a90565b005b610286610aa4565b6040516102939190611a92565b60405180910390f35b6102b660048036038101906102b19190611d1f565b610ac8565b005b6102c0610edd565b6040516102cd919061192c565b60405180910390f35b6102de610f06565b005b6102e8610f2e565b6040516102f59190611d6c565b60405180910390f35b6103066110d6565b6040516103139190611d6c565b60405180910390f35b6103366004803603810190610331919061179b565b61127e565b6040516103439190611861565b60405180910390f35b6103666004803603810190610361919061179b565b61131e565b6040516103739190611861565b60405180910390f35b6103846113be565b6040516103919190611d6c565b60405180910390f35b6103b460048036038101906103af919061179b565b611566565b005b600360205280600052604060002060009150905080546103d590611dbd565b80601f016020809104026020016040519081016040528092919081815260200182805461040190611dbd565b801561044e5780601f106104235761010080835404028352916020019161044e565b820191906000526020600020905b81548152906001019060200180831161043157829003601f168201915b505050505081565b6000806006540361046a5760009050610589565b60006006544361047a9190611e1d565b90507f000000000000000000000000000000000000000000000000000000000000000081116104ad576001915050610589565b7f000000000000000000000000000000000000000000000000000000000000000060026104da9190611e51565b81116104ea576002915050610589565b7f000000000000000000000000000000000000000000000000000000000000000060036105179190611e51565b8111610527576003915050610589565b7f000000000000000000000000000000000000000000000000000000000000000060046105549190611e51565b8111610564576004915050610589565b7fffffffffffffffffffffffffffffffffffffffffffffffffffffffffffffffff9150505b90565b6005818154811061059c57600080fd5b906000526020600020016000915054906101000a900473ffffffffffffffffffffffffffffffffffffffff1681565b600060065414610610576040517f08c379a000000000000000000000000000000000000000000000000000000000815260040161060790611f08565b60405180910390fd5b6106186115e9565b60005b8484905081101561075c57600585858381811061063b5761063a611f28565b5b9050602002016020810190610650919061179b565b9080600181540180825580915050600190039060005260206000200160009091909190916101000a81548173ffffffffffffffffffffffffffffffffffffffff021916908373ffffffffffffffffffffffffffffffffffffffff1602179055508282828181106106c3576106c2611f28565b5b90506020028101906106d59190611f66565b600160008888868181106106ec576106eb611f28565b5b9050602002016020810190610701919061179b565b73ffffffffffffffffffffffffffffffffffffffff1673ffffffffffffffffffffffffffffffffffffffff16815260200190815260200160002091826107489291906121af565b5080806107549061227f565b91505061061b565b504360068190555050505050565b60065481565b7f000000000000000000000000000000000000000000000000000000000000000081565b60006060600060058054905067ffffffffffffffff8111156107b9576107b8611fd4565b5b6040519080825280602002602001820160405280156107ec57816020015b60608152602001906001900390816107d75790505b50905060005b60058054905081101561093657600160006005838154811061081757610816611f28565b5b9060005260206000200160009054906101000a900473ffffffffffffffffffffffffffffffffffffffff1673ffffffffffffffffffffffffffffffffffffffff1673ffffffffffffffffffffffffffffffffffffffff168152602001908152602001600020805461088790611dbd565b80601f01602080910402602001604051908101604052809291908181526020018280546108b390611dbd565b80156109005780601f106108d557610100808354040283529160200191610900565b820191906000526020600020905b8154815290600101906020018083116108e357829003601f168201915b505050505082828151811061091857610917611f28565b5b6020026020010181905250808061092e9061227f565b9150506107f2565b507f00000000000000000000000000000000000000000000000000000000000000008192509250509091565b606060058054806020026020016040519081016040528092919081815260200182805480156109e657602002820191906000526020600020905b8160009054906101000a900473ffffffffffffffffffffffffffffffffffffffff1673ffffffffffffffffffffffffffffffffffffffff168152602001906001019080831161099c575b5050505050905090565b60016020528060005260406000206000915090508054610a0f90611dbd565b80601f0160208091040260200160405190810160405280929190818152602001828054610a3b90611dbd565b8015610a885780601f10610a5d57610100808354040283529160200191610a88565b820191906000526020600020905b815481529060010190602001808311610a6b57829003601f168201915b505050505081565b610a986115e9565b610aa26000611667565b565b7f000000000000000000000000000000000000000000000000000000000000000081565b6000600160003373ffffffffffffffffffffffffffffffffffffffff1673ffffffffffffffffffffffffffffffffffffffff1681526020019081526020016000208054610b1490611dbd565b905011610b56576040517f08c379a0000000000000000000000000000000000000000000000000000000008152600401610b4d90612313565b60405180910390fd5b600060065443610b669190611e1d565b90507f00000000000000000000000000000000000000000000000000000000000000008111610c71576000600260003373ffffffffffffffffffffffffffffffffffffffff1673ffffffffffffffffffffffffffffffffffffffff1681526020019081526020016000208054610bdb90611dbd565b905014610c1d576040517f08c379a0000000000000000000000000000000000000000000000000000000008152600401610c14906123a5565b60405180910390fd5b8282600260003373ffffffffffffffffffffffffffffffffffffffff1673ffffffffffffffffffffffffffffffffffffffff1681526020019081526020016000209182610c6b9291906121af565b50610ed8565b7f00000000000000000000000000000000000000000000000000000000000000006002610c9e9190611e51565b8111610d86576000600360003373ffffffffffffffffffffffffffffffffffffffff1673ffffffffffffffffffffffffffffffffffffffff1681526020019081526020016000208054610cf090611dbd565b905014610d32576040517f08c379a0000000000000000000000000000000000000000000000000000000008152600401610d2990612437565b60405180910390fd5b8282600360003373ffffffffffffffffffffffffffffffffffffffff1673ffffffffffffffffffffffffffffffffffffffff1681526020019081526020016000209182610d809291906121af565b50610ed7565b7f00000000000000000000000000000000000000000000000000000000000000006003610db39190611e51565b8111610e9b576000600460003373ffffffffffffffffffffffffffffffffffffffff1673ffffffffffffffffffffffffffffffffffffffff1681526020019081526020016000208054610e0590611dbd565b905014610e47576040517f08c379a0000000000000000000000000000000000000000000000000000000008152600401610e3e906124c9565b60405180910390fd5b8282600460003373ffffffffffffffffffffffffffffffffffffffff1673ffffffffffffffffffffffffffffffffffffffff1681526020019081526020016000209182610e959291906121af565b50610ed6565b6040517f08c379a0000000000000000000000000000000000000000000000000000000008152600401610ecd90612535565b60405180910390fd5b5b5b505050565b60008060009054906101000a900473ffffffffffffffffffffffffffffffffffffffff16905090565b610f0e6115e9565b610f16610edd565b73ffffffffffffffffffffffffffffffffffffffff16ff5b6060600060058054905067ffffffffffffffff811115610f5157610f50611fd4565b5b604051908082528060200260200182016040528015610f8457816020015b6060815260200190600190039081610f6f5790505b50905060005b6005805490508110156110ce576004600060058381548110610faf57610fae611f28565b5b9060005260206000200160009054906101000a900473ffffffffffffffffffffffffffffffffffffffff1673ffffffffffffffffffffffffffffffffffffffff1673ffffffffffffffffffffffffffffffffffffffff168152602001908152602001600020805461101f90611dbd565b80601f016020809104026020016040519081016040528092919081815260200182805461104b90611dbd565b80156110985780601f1061106d57610100808354040283529160200191611098565b820191906000526020600020905b81548152906001019060200180831161107b57829003601f168201915b50505050508282815181106110b0576110af611f28565b5b602002602001018190525080806110c69061227f565b915050610f8a565b508091505090565b6060600060058054905067ffffffffffffffff8111156110f9576110f8611fd4565b5b60405190808252806020026020018201604052801561112c57816020015b60608152602001906001900390816111175790505b50905060005b60058054905081101561127657600360006005838154811061115757611156611f28565b5b9060005260206000200160009054906101000a900473ffffffffffffffffffffffffffffffffffffffff1673ffffffffffffffffffffffffffffffffffffffff1673ffffffffffffffffffffffffffffffffffffffff16815260200190815260200160002080546111c790611dbd565b80601f01602080910402602001604051908101604052809291908181526020018280546111f390611dbd565b80156112405780601f1061121557610100808354040283529160200191611240565b820191906000526020600020905b81548152906001019060200180831161122357829003601f168201915b505050505082828151811061125857611257611f28565b5b6020026020010181905250808061126e9061227f565b915050611132565b508091505090565b6004602052806000526040600020600091509050805461129d90611dbd565b80601f01602080910402602001604051908101604052809291908181526020018280546112c990611dbd565b80156113165780601f106112eb57610100808354040283529160200191611316565b820191906000526020600020905b8154815290600101906020018083116112f957829003601f168201915b505050505081565b6002602052806000526040600020600091509050805461133d90611dbd565b80601f016020809104026020016040519081016040528092919081815260200182805461136990611dbd565b80156113b65780601f1061138b576101008083540402835291602001916113b6565b820191906000526020600020905b81548152906001019060200180831161139957829003601f168201915b505050505081565b6060600060058054905067ffffffffffffffff8111156113e1576113e0611fd4565b5b60405190808252806020026020018201604052801561141457816020015b60608152602001906001900390816113ff5790505b50905060005b60058054905081101561155e57600260006005838154811061143f5761143e611f28565b5b9060005260206000200160009054906101000a900473ffffffffffffffffffffffffffffffffffffffff1673ffffffffffffffffffffffffffffffffffffffff1673ffffffffffffffffffffffffffffffffffffffff16815260200190815260200160002080546114af90611dbd565b80601f01602080910402602001604051908101604052809291908181526020018280546114db90611dbd565b80156115285780601f106114fd57610100808354040283529160200191611528565b820191906000526020600020905b81548152906001019060200180831161150b57829003601f168201915b50505050508282815181106115405761153f611f28565b5b602002602001018190525080806115569061227f565b91505061141a565b508091505090565b61156e6115e9565b600073ffffffffffffffffffffffffffffffffffffffff168173ffffffffffffffffffffffffffffffffffffffff16036115dd576040517f08c379a00000000000000000000000000000000000000000000000000000000081526004016115d4906125c7565b60405180910390fd5b6115e681611667565b50565b6115f161172b565b73ffffffffffffffffffffffffffffffffffffffff1661160f610edd565b73ffffffffffffffffffffffffffffffffffffffff1614611665576040517f08c379a000000000000000000000000000000000000000000000000000000000815260040161165c90612633565b60405180910390fd5b565b60008060009054906101000a900473ffffffffffffffffffffffffffffffffffffffff169050816000806101000a81548173ffffffffffffffffffffffffffffffffffffffff021916908373ffffffffffffffffffffffffffffffffffffffff1602179055508173ffffffffffffffffffffffffffffffffffffffff168173ffffffffffffffffffffffffffffffffffffffff167f8be0079c531659141344cd1fd0a4f28419497f9722a3daafe3b4186f6b6457e060405160405180910390a35050565b600033905090565b600080fd5b600080fd5b600073ffffffffffffffffffffffffffffffffffffffff82169050919050565b60006117688261173d565b9050919050565b6117788161175d565b811461178357600080fd5b50565b6000813590506117958161176f565b92915050565b6000602082840312156117b1576117b0611733565b5b60006117bf84828501611786565b91505092915050565b600081519050919050565b600082825260208201905092915050565b60005b838110156118025780820151818401526020810190506117e7565b83811115611811576000848401525b50505050565b6000601f19601f8301169050919050565b6000611833826117c8565b61183d81856117d3565b935061184d8185602086016117e4565b61185681611817565b840191505092915050565b6000602082019050818103600083015261187b8184611828565b905092915050565b60008160000b9050919050565b61189981611883565b82525050565b60006020820190506118b46000830184611890565b92915050565b6000819050919050565b6118cd816118ba565b81146118d857600080fd5b50565b6000813590506118ea816118c4565b92915050565b60006020828403121561190657611905611733565b5b6000611914848285016118db565b91505092915050565b6119268161175d565b82525050565b6000602082019050611941600083018461191d565b92915050565b600080fd5b600080fd5b600080fd5b60008083601f84011261196c5761196b611947565b5b8235905067ffffffffffffffff8111156119895761198861194c565b5b6020830191508360208202830111156119a5576119a4611951565b5b9250929050565b60008083601f8401126119c2576119c1611947565b5b8235905067ffffffffffffffff8111156119df576119de61194c565b5b6020830191508360208202830111156119fb576119fa611951565b5b9250929050565b60008060008060408587031215611a1c57611a1b611733565b5b600085013567ffffffffffffffff811115611a3a57611a39611738565b5b611a4687828801611956565b9450945050602085013567ffffffffffffffff811115611a6957611a68611738565b5b611a75878288016119ac565b925092505092959194509250565b611a8c816118ba565b82525050565b6000602082019050611aa76000830184611a83565b92915050565b600081519050919050565b600082825260208201905092915050565b6000819050602082019050919050565b600082825260208201905092915050565b6000611af5826117c8565b611aff8185611ad9565b9350611b0f8185602086016117e4565b611b1881611817565b840191505092915050565b6000611b2f8383611aea565b905092915050565b6000602082019050919050565b6000611b4f82611aad565b611b598185611ab8565b935083602082028501611b6b85611ac9565b8060005b85811015611ba75784840389528151611b888582611b23565b9450611b9383611b37565b925060208a01995050600181019050611b6f565b50829750879550505050505092915050565b6000604082019050611bce6000830185611a83565b8181036020830152611be08184611b44565b90509392505050565b600081519050919050565b600082825260208201905092915050565b6000819050602082019050919050565b611c1e8161175d565b82525050565b6000611c308383611c15565b60208301905092915050565b6000602082019050919050565b6000611c5482611be9565b611c5e8185611bf4565b9350611c6983611c05565b8060005b83811015611c9a578151611c818882611c24565b9750611c8c83611c3c565b925050600181019050611c6d565b5085935050505092915050565b60006020820190508181036000830152611cc18184611c49565b905092915050565b60008083601f840112611cdf57611cde611947565b5b8235905067ffffffffffffffff811115611cfc57611cfb61194c565b5b602083019150836001820283011115611d1857611d17611951565b5b9250929050565b60008060208385031215611d3657611d35611733565b5b600083013567ffffffffffffffff811115611d5457611d53611738565b5b611d6085828601611cc9565b92509250509250929050565b60006020820190508181036000830152611d868184611b44565b905092915050565b7f4e487b7100000000000000000000000000000000000000000000000000000000600052602260045260246000fd5b60006002820490506001821680611dd557607f821691505b602082108103611de857611de7611d8e565b5b50919050565b7f4e487b7100000000000000000000000000000000000000000000000000000000600052601160045260246000fd5b6000611e28826118ba565b9150611e33836118ba565b925082821015611e4657611e45611dee565b5b828203905092915050565b6000611e5c826118ba565b9150611e67836118ba565b9250817fffffffffffffffffffffffffffffffffffffffffffffffffffffffffffffffff0483118215151615611ea057611e9f611dee565b5b828202905092915050565b600082825260208201905092915050565b7f444b472068617320616c72656164792073746172746564000000000000000000600082015250565b6000611ef2601783611eab565b9150611efd82611ebc565b602082019050919050565b60006020820190508181036000830152611f2181611ee5565b9050919050565b7f4e487b7100000000000000000000000000000000000000000000000000000000600052603260045260246000fd5b600080fd5b600080fd5b600080fd5b60008083356001602003843603038112611f8357611f82611f57565b5b80840192508235915067ffffffffffffffff821115611fa557611fa4611f5c565b5b602083019250600182023603831315611fc157611fc0611f61565b5b509250929050565b600082905092915050565b7f4e487b7100000000000000000000000000000000000000000000000000000000600052604160045260246000fd5b60008190508160005260206000209050919050565b60006020601f8301049050919050565b600082821b905092915050565b6000600883026120657fffffffffffffffffffffffffffffffffffffffffffffffffffffffffffffffff82612028565b61206f8683612028565b95508019841693508086168417925050509392505050565b6000819050919050565b60006120ac6120a76120a2846118ba565b612087565b6118ba565b9050919050565b6000819050919050565b6120c683612091565b6120da6120d2826120b3565b848454612035565b825550505050565b600090565b6120ef6120e2565b6120fa8184846120bd565b505050565b5b8181101561211e576121136000826120e7565b600181019050612100565b5050565b601f8211156121635761213481612003565b61213d84612018565b8101602085101561214c578190505b61216061215885612018565b8301826120ff565b50505b505050565b600082821c905092915050565b600061218660001984600802612168565b1980831691505092915050565b600061219f8383612175565b9150826002028217905092915050565b6121b98383611fc9565b67ffffffffffffffff8111156121d2576121d1611fd4565b5b6121dc8254611dbd565b6121e7828285612122565b6000601f8311600181146122165760008415612204578287013590505b61220e8582612193565b865550612276565b601f19841661222486612003565b60005b8281101561224c57848901358255600182019150602085019450602081019050612227565b868310156122695784890135612265601f891682612175565b8355505b6001600288020188555050505b50505050505050565b600061228a826118ba565b91507fffffffffffffffffffffffffffffffffffffffffffffffffffffffffffffffff82036122bc576122bb611dee565b5b600182019050919050565b7f796f7520617265206e6f7420612067726f7570206d656d626572210000000000600082015250565b60006122fd601b83611eab565b9150612308826122c7565b602082019050919050565b6000602082019050818103600083015261232c816122f0565b9050919050565b7f796f75206861766520616c7265616479207075626c697368656420796f75722060008201527f7368617265730000000000000000000000000000000000000000000000000000602082015250565b600061238f602683611eab565b915061239a82612333565b604082019050919050565b600060208201905081810360008301526123be81612382565b9050919050565b7f796f75206861766520616c7265616479207075626c697368656420796f75722060008201527f726573706f6e7365730000000000000000000000000000000000000000000000602082015250565b6000612421602983611eab565b915061242c826123c5565b604082019050919050565b6000602082019050818103600083015261245081612414565b9050919050565b7f796f75206861766520616c7265616479207075626c697368656420796f75722060008201527f6a757374696669636174696f6e73000000000000000000000000000000000000602082015250565b60006124b3602e83611eab565b91506124be82612457565b604082019050919050565b600060208201905081810360008301526124e2816124a6565b9050919050565b7f444b47205075626c6973682068617320656e6465640000000000000000000000600082015250565b600061251f601583611eab565b915061252a826124e9565b602082019050919050565b6000602082019050818103600083015261254e81612512565b9050919050565b7f4f776e61626c653a206e6577206f776e657220697320746865207a65726f206160008201527f6464726573730000000000000000000000000000000000000000000000000000602082015250565b60006125b1602683611eab565b91506125bc82612555565b604082019050919050565b600060208201905081810360008301526125e0816125a4565b9050919050565b7f4f776e61626c653a2063616c6c6572206973206e6f7420746865206f776e6572600082015250565b600061261d602083611eab565b9150612628826125e7565b602082019050919050565b6000602082019050818103600083015261264c81612610565b905091905056fea2646970667358221220f53eca1a27012a5cacc431350ac6c4b63cd843846bcd726d1f2085dcfce541b064736f6c634300080f0033a26469706673582212202c36b966c347613d1b15f4389dee3e9f9aa90c06bbf1a2634b2bb2e8b0a935d364736f6c634300080f0033",
    "linkReferences": {}
  },
  "methodIdentifiers": {
    "ARPA()": "62d14450",
    "ARPA_ETH_FEED()": "d164e28d",
    "DEFAULT_MINIMUM_THRESHOLD()": "aa81d59a",
    "MAX_CONSUMERS()": "64d51a2a",
    "MAX_REQUEST_CONFIRMATIONS()": "15c48b84",
    "addConsumer(uint64,address)": "7341c10c",
    "arrangeMembersInGroup(uint256)": "3048a1e6",
    "calculatePaymentAmount(uint256,uint256,uint32,uint256)": "9ea3b84e",
    "commitDkg((uint256,uint256,bytes,bytes,address[]))": "e37eb96c",
    "coordinators(uint256)": "5f1cc005",
    "createSubscription()": "a21a23e4",
    "emitGroupEvent(uint256)": "df5332cb",
    "estimatePaymentAmount(uint256,uint256,uint32,uint256)": "cc36c1e8",
    "findOrCreateTargetGroup()": "7328fceb",
    "freezeNode(address,uint256,bool)": "d87660cd",
    "fulfillRandomness(uint256,bytes32,uint256,(uint256,uint256)[])": "86dd2e9e",
    "fundSubscription(uint64,uint256)": "dd281928",
    "getCoordinator(uint256)": "42424d6f",
    "getFeeTier(uint64)": "d2f9f9a7",
    "getGroup(uint256)": "ceb60654",
    "getLastSubscription(address)": "76a911bc",
    "getMember(uint256,uint256)": "4d79a893",
    "getMemberAddressByIndex(uint256,uint256)": "edfcb57f",
    "getMemberIndexByAddress(uint256,address)": "f7bbf26a",
    "getNode(address)": "9d209048",
    "getNonDisqualifiedMajorityMembers(address[],address[])": "fdc93499",
    "getPendingRequest(bytes32)": "88b12d55",
    "getRewards(address)": "79ee54f7",
    "getStakedAmount(address)": "4da6a556",
    "getSubscription(uint64)": "a47c7696",
    "groupCount()": "8f23b326",
    "groups(uint256)": "96324bd4",
    "lastAssignedGroupIndex()": "0b919eef",
    "lastOutput()": "97228a7e",
    "minimumThreshold(uint256)": "e9914eed",
    "nodeQuit()": "7a2af56e",
    "nodeRegister(bytes)": "80110e4e",
    "nodeStake(uint256)": "507dd038",
    "nodeUnstake(uint256)": "adbf2f9b",
    "nodes(address)": "189a5a17",
    "owner()": "8da5cb5b",
    "partialKeyRegistered(uint256,address)": "3141d144",
    "pickRandomIndex(uint256,uint256[],uint256)": "881bd9ab",
    "postProcessDkg(uint256,uint256)": "0bf9c5c6",
    "rebalanceGroup(uint256,uint256)": "fda66933",
    "removeFromGroup(address,uint256,bool)": "2936ff65",
    "renounceOwnership()": "715018a6",
    "requestRandomness((uint8,bytes,uint64,uint256,uint16,uint256,uint256))": "fb0882fc",
    "rewards(address)": "0700037d",
    "s_callbacks(bytes32)": "4d615424",
    "setAdapterConfig(uint16,uint32,uint32,uint32,uint32,int256,uint256,uint256,uint256,(uint32,uint32,uint32,uint32,uint32,uint24,uint24,uint24,uint24))": "0f8d2279",
    "setControllerConfig(uint256,uint256,uint256,uint256,uint256,uint256,uint256,uint256)": "6449bcfc",
    "slashNode(address,uint256,uint256,bool)": "6f2afe16",
    "transferOwnership(address)": "f2fde38b",
    "validGroupIndices()": "253870ff"
  },
  "id": 32
}