{
  "abi": [
    {
      "inputs": [
        {
          "internalType": "uint256",
          "name": "groupIndex",
          "type": "uint256"
        }
      ],
      "name": "CoordinatorNotFound",
      "type": "error"
    },
    {
      "inputs": [
        {
          "internalType": "uint256",
          "name": "groupIndex",
          "type": "uint256"
        }
      ],
      "name": "DkgNotInProgress",
      "type": "error"
    },
    {
      "inputs": [
        {
          "internalType": "uint256",
          "name": "groupIndex",
          "type": "uint256"
        },
        {
          "internalType": "int8",
          "name": "phase",
          "type": "int8"
        }
      ],
      "name": "DkgStillInProgress",
      "type": "error"
    },
    {
      "inputs": [
        {
          "internalType": "uint256",
          "name": "groupIndex",
          "type": "uint256"
        },
        {
          "internalType": "uint256",
          "name": "inputGroupEpoch",
          "type": "uint256"
        },
        {
          "internalType": "uint256",
          "name": "currentGroupEpoch",
          "type": "uint256"
        }
      ],
      "name": "EpochMismatch",
      "type": "error"
    },
    {
      "inputs": [
        {
          "internalType": "uint256",
          "name": "groupIndex",
          "type": "uint256"
        }
      ],
      "name": "GroupNotExist",
      "type": "error"
    },
    {
      "inputs": [],
      "name": "InsufficientBalance",
      "type": "error"
    },
    {
      "inputs": [],
      "name": "InvalidPartialPublicKey",
      "type": "error"
    },
    {
      "inputs": [],
      "name": "InvalidPublicKey",
      "type": "error"
    },
    {
      "inputs": [],
      "name": "NodeAlreadyActive",
      "type": "error"
    },
    {
      "inputs": [],
      "name": "NodeAlreadyRegistered",
      "type": "error"
    },
    {
      "inputs": [
        {
          "internalType": "uint256",
          "name": "groupIndex",
          "type": "uint256"
        },
        {
          "internalType": "address",
          "name": "nodeIdAddress",
          "type": "address"
        }
      ],
      "name": "NodeNotInGroup",
      "type": "error"
    },
    {
      "inputs": [],
      "name": "NodeNotRegistered",
      "type": "error"
    },
    {
      "inputs": [
        {
          "internalType": "uint256",
          "name": "pendingUntilBlock",
          "type": "uint256"
        }
      ],
      "name": "NodeStillPending",
      "type": "error"
    },
    {
      "inputs": [
        {
          "internalType": "uint256",
          "name": "groupIndex",
          "type": "uint256"
        },
        {
          "internalType": "address",
          "name": "nodeIdAddress",
          "type": "address"
        }
      ],
      "name": "PartialKeyAlreadyRegistered",
      "type": "error"
    },
    {
      "inputs": [],
      "name": "SenderNotAdapter",
      "type": "error"
    },
    {
      "anonymous": false,
      "inputs": [
        {
          "indexed": false,
          "internalType": "address",
          "name": "stakingContractAddress",
          "type": "address"
        },
        {
          "indexed": false,
          "internalType": "address",
          "name": "adapterContractAddress",
          "type": "address"
        },
        {
          "indexed": false,
          "internalType": "uint256",
          "name": "nodeStakingAmount",
          "type": "uint256"
        },
        {
          "indexed": false,
          "internalType": "uint256",
          "name": "disqualifiedNodePenaltyAmount",
          "type": "uint256"
        },
        {
          "indexed": false,
          "internalType": "uint256",
          "name": "defaultNumberOfCommitters",
          "type": "uint256"
        },
        {
          "indexed": false,
          "internalType": "uint256",
          "name": "defaultDkgPhaseDuration",
          "type": "uint256"
        },
        {
          "indexed": false,
          "internalType": "uint256",
          "name": "groupMaxCapacity",
          "type": "uint256"
        },
        {
          "indexed": false,
          "internalType": "uint256",
          "name": "idealNumberOfGroups",
          "type": "uint256"
        },
        {
          "indexed": false,
          "internalType": "uint256",
          "name": "pendingBlockAfterQuit",
          "type": "uint256"
        },
        {
          "indexed": false,
          "internalType": "uint256",
          "name": "dkgPostProcessReward",
          "type": "uint256"
        }
      ],
      "name": "ControllerConfigSet",
      "type": "event"
    },
    {
      "anonymous": false,
      "inputs": [
        {
          "indexed": true,
          "internalType": "address",
          "name": "nodeAddress",
          "type": "address"
        },
        {
          "indexed": false,
          "internalType": "bytes",
          "name": "dkgPublicKey",
          "type": "bytes"
        }
      ],
      "name": "DkgPublicKeyChanged",
      "type": "event"
    },
    {
      "anonymous": false,
      "inputs": [
        {
          "indexed": true,
          "internalType": "uint256",
          "name": "globalEpoch",
          "type": "uint256"
        },
        {
          "indexed": true,
          "internalType": "uint256",
          "name": "groupIndex",
          "type": "uint256"
        },
        {
          "indexed": true,
          "internalType": "uint256",
          "name": "groupEpoch",
          "type": "uint256"
        },
        {
          "indexed": false,
          "internalType": "uint256",
          "name": "size",
          "type": "uint256"
        },
        {
          "indexed": false,
          "internalType": "uint256",
          "name": "threshold",
          "type": "uint256"
        },
        {
          "indexed": false,
          "internalType": "address[]",
          "name": "members",
          "type": "address[]"
        },
        {
          "indexed": false,
          "internalType": "uint256",
          "name": "assignmentBlockHeight",
          "type": "uint256"
        },
        {
          "indexed": false,
          "internalType": "address",
          "name": "coordinatorAddress",
          "type": "address"
        }
      ],
      "name": "DkgTask",
      "type": "event"
    },
    {
      "anonymous": false,
      "inputs": [
        {
          "indexed": false,
          "internalType": "uint8",
          "name": "version",
          "type": "uint8"
        }
      ],
      "name": "Initialized",
      "type": "event"
    },
    {
      "anonymous": false,
      "inputs": [
        {
          "indexed": true,
          "internalType": "address",
          "name": "nodeAddress",
          "type": "address"
        },
        {
          "indexed": false,
          "internalType": "uint256",
          "name": "groupIndex",
          "type": "uint256"
        }
      ],
      "name": "NodeActivated",
      "type": "event"
    },
    {
      "anonymous": false,
      "inputs": [
        {
          "indexed": true,
          "internalType": "address",
          "name": "nodeAddress",
          "type": "address"
        }
      ],
      "name": "NodeQuit",
      "type": "event"
    },
    {
      "anonymous": false,
      "inputs": [
        {
          "indexed": true,
          "internalType": "address",
          "name": "nodeAddress",
          "type": "address"
        },
        {
          "indexed": false,
          "internalType": "bytes",
          "name": "dkgPublicKey",
          "type": "bytes"
        },
        {
          "indexed": false,
          "internalType": "uint256",
          "name": "groupIndex",
          "type": "uint256"
        }
      ],
      "name": "NodeRegistered",
      "type": "event"
    },
    {
      "anonymous": false,
      "inputs": [
        {
          "indexed": true,
          "internalType": "address",
          "name": "nodeAddress",
          "type": "address"
        },
        {
          "indexed": false,
          "internalType": "uint256",
          "name": "amount",
          "type": "uint256"
        }
      ],
      "name": "NodeRewarded",
      "type": "event"
    },
    {
      "anonymous": false,
      "inputs": [
        {
          "indexed": true,
          "internalType": "address",
          "name": "nodeIdAddress",
          "type": "address"
        },
        {
          "indexed": false,
          "internalType": "uint256",
          "name": "stakingRewardPenalty",
          "type": "uint256"
        },
        {
          "indexed": false,
          "internalType": "uint256",
          "name": "pendingBlock",
          "type": "uint256"
        }
      ],
      "name": "NodeSlashed",
      "type": "event"
    },
    {
      "anonymous": false,
      "inputs": [
        {
          "indexed": true,
          "internalType": "address",
          "name": "previousOwner",
          "type": "address"
        },
        {
          "indexed": true,
          "internalType": "address",
          "name": "newOwner",
          "type": "address"
        }
      ],
      "name": "OwnershipTransferred",
      "type": "event"
    },
    {
      "inputs": [
        {
          "internalType": "address[]",
          "name": "nodes",
          "type": "address[]"
        },
        {
          "internalType": "uint256",
          "name": "amount",
          "type": "uint256"
        }
      ],
      "name": "addReward",
      "outputs": [],
      "stateMutability": "nonpayable",
      "type": "function"
    },
    {
      "inputs": [
        {
          "internalType": "bytes",
          "name": "dkgPublicKey",
          "type": "bytes"
        }
      ],
      "name": "changeDkgPublicKey",
      "outputs": [],
      "stateMutability": "nonpayable",
      "type": "function"
    },
    {
      "inputs": [
        {
          "internalType": "address",
          "name": "recipient",
          "type": "address"
        },
        {
          "internalType": "uint256",
          "name": "amount",
          "type": "uint256"
        }
      ],
      "name": "claimReward",
      "outputs": [],
      "stateMutability": "nonpayable",
      "type": "function"
    },
    {
      "inputs": [
        {
          "components": [
            {
              "internalType": "uint256",
              "name": "groupIndex",
              "type": "uint256"
            },
            {
              "internalType": "uint256",
              "name": "groupEpoch",
              "type": "uint256"
            },
            {
              "internalType": "bytes",
              "name": "publicKey",
              "type": "bytes"
            },
            {
              "internalType": "bytes",
              "name": "partialPublicKey",
              "type": "bytes"
            },
            {
              "internalType": "address[]",
              "name": "disqualifiedNodes",
              "type": "address[]"
            }
          ],
          "internalType": "struct IController.CommitDkgParams",
          "name": "params",
          "type": "tuple"
        }
      ],
      "name": "commitDkg",
      "outputs": [],
      "stateMutability": "nonpayable",
      "type": "function"
    },
    {
      "inputs": [
        {
          "internalType": "address",
          "name": "nodeAddress",
          "type": "address"
        }
      ],
      "name": "getBelongingGroup",
      "outputs": [
        {
          "internalType": "int256",
          "name": "",
          "type": "int256"
        },
        {
          "internalType": "int256",
          "name": "",
          "type": "int256"
        }
      ],
      "stateMutability": "view",
      "type": "function"
    },
    {
      "inputs": [
        {
          "internalType": "uint256",
          "name": "groupIndex",
          "type": "uint256"
        }
      ],
      "name": "getCoordinator",
      "outputs": [
        {
          "internalType": "address",
          "name": "",
          "type": "address"
        }
      ],
      "stateMutability": "view",
      "type": "function"
    },
    {
      "inputs": [
        {
          "internalType": "uint256",
          "name": "groupIndex",
          "type": "uint256"
        }
      ],
      "name": "getGroup",
      "outputs": [
        {
          "components": [
            {
              "internalType": "uint256",
              "name": "index",
              "type": "uint256"
            },
            {
              "internalType": "uint256",
              "name": "epoch",
              "type": "uint256"
            },
            {
              "internalType": "uint256",
              "name": "size",
              "type": "uint256"
            },
            {
              "internalType": "uint256",
              "name": "threshold",
              "type": "uint256"
            },
            {
              "components": [
                {
                  "internalType": "address",
                  "name": "nodeIdAddress",
                  "type": "address"
                },
                {
                  "internalType": "uint256[4]",
                  "name": "partialPublicKey",
                  "type": "uint256[4]"
                }
              ],
              "internalType": "struct IController.Member[]",
              "name": "members",
              "type": "tuple[]"
            },
            {
              "internalType": "address[]",
              "name": "committers",
              "type": "address[]"
            },
            {
              "components": [
                {
                  "internalType": "address[]",
                  "name": "nodeIdAddress",
                  "type": "address[]"
                },
                {
                  "components": [
                    {
                      "internalType": "uint256",
                      "name": "groupEpoch",
                      "type": "uint256"
                    },
                    {
                      "internalType": "uint256[4]",
                      "name": "publicKey",
                      "type": "uint256[4]"
                    },
                    {
                      "internalType": "address[]",
                      "name": "disqualifiedNodes",
                      "type": "address[]"
                    }
                  ],
                  "internalType": "struct IController.CommitResult",
                  "name": "commitResult",
                  "type": "tuple"
                }
              ],
              "internalType": "struct IController.CommitCache[]",
              "name": "commitCacheList",
              "type": "tuple[]"
            },
            {
              "internalType": "bool",
              "name": "isStrictlyMajorityConsensusReached",
              "type": "bool"
            },
            {
              "internalType": "uint256[4]",
              "name": "publicKey",
              "type": "uint256[4]"
            }
          ],
          "internalType": "struct IController.Group",
          "name": "",
          "type": "tuple"
        }
      ],
      "stateMutability": "view",
      "type": "function"
    },
    {
      "inputs": [],
      "name": "getGroupCount",
      "outputs": [
        {
          "internalType": "uint256",
          "name": "",
          "type": "uint256"
        }
      ],
      "stateMutability": "view",
      "type": "function"
    },
    {
      "inputs": [],
      "name": "getLastOutput",
      "outputs": [
        {
          "internalType": "uint256",
          "name": "",
          "type": "uint256"
        }
      ],
      "stateMutability": "view",
      "type": "function"
    },
    {
      "inputs": [
        {
          "internalType": "uint256",
          "name": "groupIndex",
          "type": "uint256"
        },
        {
          "internalType": "uint256",
          "name": "memberIndex",
          "type": "uint256"
        }
      ],
      "name": "getMember",
      "outputs": [
        {
          "components": [
            {
              "internalType": "address",
              "name": "nodeIdAddress",
              "type": "address"
            },
            {
              "internalType": "uint256[4]",
              "name": "partialPublicKey",
              "type": "uint256[4]"
            }
          ],
          "internalType": "struct IController.Member",
          "name": "",
          "type": "tuple"
        }
      ],
      "stateMutability": "view",
      "type": "function"
    },
    {
      "inputs": [
        {
          "internalType": "address",
          "name": "nodeAddress",
          "type": "address"
        }
      ],
      "name": "getNode",
      "outputs": [
        {
          "components": [
            {
              "internalType": "address",
              "name": "idAddress",
              "type": "address"
            },
            {
              "internalType": "bytes",
              "name": "dkgPublicKey",
              "type": "bytes"
            },
            {
              "internalType": "bool",
              "name": "state",
              "type": "bool"
            },
            {
              "internalType": "uint256",
              "name": "pendingUntilBlock",
              "type": "uint256"
            }
          ],
          "internalType": "struct IController.Node",
          "name": "",
          "type": "tuple"
        }
      ],
      "stateMutability": "view",
      "type": "function"
    },
    {
      "inputs": [
        {
          "internalType": "address",
          "name": "nodeAddress",
          "type": "address"
        }
      ],
      "name": "getNodeReward",
      "outputs": [
        {
          "internalType": "uint256",
          "name": "",
          "type": "uint256"
        }
      ],
      "stateMutability": "view",
      "type": "function"
    },
    {
      "inputs": [],
      "name": "getValidGroupIndices",
      "outputs": [
        {
          "internalType": "uint256[]",
          "name": "",
          "type": "uint256[]"
        }
      ],
      "stateMutability": "view",
      "type": "function"
    },
    {
      "inputs": [
        {
          "internalType": "address",
          "name": "arpa",
          "type": "address"
        },
        {
          "internalType": "uint256",
          "name": "lastOutput",
          "type": "uint256"
        }
      ],
      "name": "initialize",
      "outputs": [],
      "stateMutability": "nonpayable",
      "type": "function"
    },
    {
      "inputs": [
        {
          "internalType": "uint256",
          "name": "groupIndex",
          "type": "uint256"
        },
        {
          "internalType": "address",
          "name": "nodeIdAddress",
          "type": "address"
        }
      ],
      "name": "isPartialKeyRegistered",
      "outputs": [
        {
          "internalType": "bool",
          "name": "",
          "type": "bool"
        }
      ],
      "stateMutability": "view",
      "type": "function"
    },
    {
      "inputs": [],
      "name": "nodeActivate",
      "outputs": [],
      "stateMutability": "nonpayable",
      "type": "function"
    },
    {
      "inputs": [],
      "name": "nodeQuit",
      "outputs": [],
      "stateMutability": "nonpayable",
      "type": "function"
    },
    {
      "inputs": [
        {
          "internalType": "bytes",
          "name": "dkgPublicKey",
          "type": "bytes"
        }
      ],
      "name": "nodeRegister",
      "outputs": [],
      "stateMutability": "nonpayable",
      "type": "function"
    },
    {
      "inputs": [],
      "name": "owner",
      "outputs": [
        {
          "internalType": "address",
          "name": "",
          "type": "address"
        }
      ],
      "stateMutability": "view",
      "type": "function"
    },
    {
      "inputs": [
        {
          "internalType": "uint256",
          "name": "groupIndex",
          "type": "uint256"
        },
        {
          "internalType": "uint256",
          "name": "groupEpoch",
          "type": "uint256"
        }
      ],
      "name": "postProcessDkg",
      "outputs": [],
      "stateMutability": "nonpayable",
      "type": "function"
    },
    {
      "inputs": [],
      "name": "renounceOwnership",
      "outputs": [],
      "stateMutability": "nonpayable",
      "type": "function"
    },
    {
      "inputs": [
        {
          "internalType": "address",
          "name": "stakingContractAddress",
          "type": "address"
        },
        {
          "internalType": "address",
          "name": "adapterContractAddress",
          "type": "address"
        },
        {
          "internalType": "uint256",
          "name": "nodeStakingAmount",
          "type": "uint256"
        },
        {
          "internalType": "uint256",
          "name": "disqualifiedNodePenaltyAmount",
          "type": "uint256"
        },
        {
          "internalType": "uint256",
          "name": "defaultNumberOfCommitters",
          "type": "uint256"
        },
        {
          "internalType": "uint256",
          "name": "defaultDkgPhaseDuration",
          "type": "uint256"
        },
        {
          "internalType": "uint256",
          "name": "groupMaxCapacity",
          "type": "uint256"
        },
        {
          "internalType": "uint256",
          "name": "idealNumberOfGroups",
          "type": "uint256"
        },
        {
          "internalType": "uint256",
          "name": "pendingBlockAfterQuit",
          "type": "uint256"
        },
        {
          "internalType": "uint256",
          "name": "dkgPostProcessReward",
          "type": "uint256"
        }
      ],
      "name": "setControllerConfig",
      "outputs": [],
      "stateMutability": "nonpayable",
      "type": "function"
    },
    {
      "inputs": [
        {
          "internalType": "uint256",
          "name": "lastOutput",
          "type": "uint256"
        }
      ],
      "name": "setLastOutput",
      "outputs": [],
      "stateMutability": "nonpayable",
      "type": "function"
    },
    {
      "inputs": [
        {
          "internalType": "address",
          "name": "newOwner",
          "type": "address"
        }
      ],
      "name": "transferOwnership",
      "outputs": [],
      "stateMutability": "nonpayable",
      "type": "function"
    }
  ],
  "bytecode": {
    "object": "0x608060405234801561001057600080fd5b50615cc5806100206000396000f3fe60806040523480156200001157600080fd5b5060043610620001755760003560e01c80639a075bc311620000d3578063cd6dc6871162000086578063cd6dc687146200036a578063ceb606541462000381578063e275cde614620003a7578063e37eb96c14620003be578063f2fde38b14620003d5578063f3df080214620003ec57600080fd5b80639a075bc314620002b65780639d20904814620002c0578063b330a0fd14620002e6578063b83dd5f014620002ff578063c2db900b146200032b578063c5a5dc40146200035357600080fd5b80634d79a893116200012c5780634d79a893146200024a57806351a2b9a01462000270578063715018a614620002795780637a2af56e146200028357806380110e4e146200028d5780638da5cb5b14620002a457600080fd5b806306545a93146200017a5780630bf9c5c61462000191578063174e31c414620001aa5780632ff9e52014620001c15780633b6c00b014620001d857806342424d6f1462000205575b600080fd5b6071545b6040519081526020015b60405180910390f35b620001a8620001a236600462003719565b62000403565b005b620001a8620001bb36600462003752565b6200088e565b620001a8620001d236600462003781565b6200090b565b620001ef620001e936600462003804565b62000a98565b6040805192835260208301919091520162000188565b62000231620002163660046200382b565b6000908152606f60205260409020546001600160a01b031690565b6040516001600160a01b03909116815260200162000188565b620002616200025b36600462003719565b62000b2b565b6040516200018891906200388c565b6076546200017e565b620001a862000bc8565b620001a862000be0565b620001a86200029e3660046200389c565b62000d93565b6033546001600160a01b031662000231565b620001a8620010b6565b620002d7620002d136600462003804565b62001360565b60405162000188919062003966565b620002f062001484565b604051620001889190620039b8565b6200017e6200031036600462003804565b6001600160a01b03166000908152606e602052604090205490565b620003426200033c366004620039fe565b62001507565b604051901515815260200162000188565b620001a86200036436600462003b49565b620018d3565b620001a86200037b36600462003752565b620019e0565b62000398620003923660046200382b565b62001b1b565b60405162000188919062003cbe565b620001a8620003b83660046200389c565b62001e39565b620001a8620003cf36600462003df2565b6200200b565b620001a8620003e636600462003804565b620027e7565b620001a8620003fd3660046200382b565b62002866565b60715482106200042e57604051637f6efcb560e11b8152600481018390526024015b60405180910390fd5b6040516358914d0360e01b8152607060048201526024810183905233604482015273__$99f6e31d9157e72684c1fb13c20fb01510$__906358914d0390606401602060405180830381865af41580156200048c573d6000803e3d6000fd5b505050506040513d601f19601f82011682018060405250810190620004b2919062003ec8565b19620004db5760405163eb51f5f960e01b81526004810183905233602482015260440162000425565b6000828152607260205260409020600181015482146200052657600181015460405163048b63c360e11b81526004810185905260248101849052604481019190915260640162000425565b6000838152606f60205260409020546001600160a01b03166200056057604051635291bbcf60e01b81526004810184905260240162000425565b6000838152606f602090815260409182902054825163221f951160e01b815292516001600160a01b0390911692839263221f9511926004808401938290030181865afa158015620005b5573d6000803e3d6000fd5b505050506040513d601f19601f82011682018060405250810190620005db919062003ee2565b60000b60001914620006735783816001600160a01b031663221f95116040518163ffffffff1660e01b8152600401602060405180830381865afa15801562000627573d6000803e3d6000fd5b505050506040513d601f19601f820116820180604052508101906200064d919062003ee2565b60405163f7c06f9160e01b8152600481019290925260000b602482015260440162000425565b806001600160a01b0316639cb8a26a6040518163ffffffff1660e01b8152600401600060405180830381600087803b158015620006af57600080fd5b505af1158015620006c4573d6000803e3d6000fd5b5050506000858152606f6020526040902080546001600160a01b031916905550600782015460ff166200082657607654604051630295316d60e51b815260706004820152602481018690526044810191909152600090819073__$99f6e31d9157e72684c1fb13c20fb01510$__906352a62da090606401600060405180830381865af415801562000759573d6000803e3d6000fd5b505050506040513d6000823e601f3d908101601f1916820160405262000783919081019062003fd6565b9150915060005b8251811015620007d857620007c3838281518110620007ad57620007ad62004040565b6020026020010151606560030154600062002897565b80620007cf816200406c565b9150506200078a565b5060005b815181101562000822576200080d828281518110620007ff57620007ff62004040565b602002602001015162002954565b8062000819816200406c565b915050620007dc565b5050505b606b54336000908152606e6020526040812080549091906200084a90849062004088565b9091555050606b5460405190815233907f4ea3e03797614006774acce32832fbaa20d9d69de554df367f4bb8a98b92e742906020015b60405180910390a250505050565b336000908152606e6020526040902054811115620008bf57604051631e9acf1760e31b815260040160405180910390fd5b6001600160a01b0382166000908152606e602052604081208054839290620008e99084906200409e565b9091555050606c5462000907906001600160a01b0316838362002fc5565b5050565b6200091562003019565b6040805160e0810182526001600160a01b038c8116808352908c16602083018190528284018c9052606083018b90526080830189905260a0830186905260c0909201849052606580546001600160a01b03199081169092179055606680549091169091179055606789905560688890556069869055606a839055606b829055516301a79f6360e71b81526070600482015260248101849052604481018590526064810187905273__$99f6e31d9157e72684c1fb13c20fb01510$__9063d3cfb1809060840160006040518083038186803b158015620009f357600080fd5b505af415801562000a08573d6000803e3d6000fd5b5050604080516001600160a01b03808f1682528d1660208201529081018b9052606081018a90526080810189905260a0810188905260c0810187905260e08101869052610100810185905261012081018490527f3202ca2a288846b65f27bc3e13c1e38aaf2e4356b80b963d67aea8a822645e1f925061014001905060405180910390a150505050505050505050565b60405163787c576760e01b8152607060048201526001600160a01b0382166024820152600090819073__$99f6e31d9157e72684c1fb13c20fb01510$__9063787c5767906044016040805180830381865af415801562000afc573d6000803e3d6000fd5b505050506040513d601f19601f8201168201806040525081019062000b229190620040b4565b91509150915091565b62000b3562003525565b600083815260726020526040902060040180548390811062000b5b5762000b5b62004040565b6000918252602091829020604080518082018252600590930290910180546001600160a01b0316835281516080810190925291928301906001830160048282826020028201915b81548152602001906001019080831162000ba25750505050508152505090505b92915050565b62000bd262003019565b62000bde600062003075565b565b336000818152606d60205260409020805490916001600160a01b039091161462000c1c576040516229eaad60e31b815260040160405180910390fd5b60765460405163a6ae8a8160e01b815260706004820152336024820152604481019190915260009073__$99f6e31d9157e72684c1fb13c20fb01510$__9063a6ae8a8190606401600060405180830381865af415801562000c81573d6000803e3d6000fd5b505050506040513d6000823e601f3d908101601f1916820160405262000cab9190810190620040d9565b905060005b815181101562000ce85762000cd3828281518110620007ff57620007ff62004040565b8062000cdf816200406c565b91505062000cb0565b5062000cfa33606560050154620030c7565b606554606754604051637eee288d60e01b815233600482015260248101919091526001600160a01b0390911690637eee288d90604401600060405180830381600087803b15801562000d4b57600080fd5b505af115801562000d60573d6000803e3d6000fd5b50506040513392507f68577adbb6b0647e21353ff032be5797d9fa0879ce7e05fe617e40368441f97d9150600090a25050565b336000908152606d60205260409020546001600160a01b03161562000dcb57604051630eb0d31360e11b815260040160405180910390fd5b6040516316f6db8160e01b815260009073__$34d23ddaee48904c6c566425acbfa0fc0e$__906316f6db819062000e0990869086906004016200413a565b608060405180830381865af415801562000e27573d6000803e3d6000fd5b505050506040513d601f19601f8201168201806040525081019062000e4d919062004150565b604051636fda2c7960e01b815290915073__$34d23ddaee48904c6c566425acbfa0fc0e$__90636fda2c799062000e89908490600401620041d5565b602060405180830381865af415801562000ea7573d6000803e3d6000fd5b505050506040513d601f19601f8201168201806040525081019062000ecd9190620041fb565b62000eeb5760405163145a1fdd60e31b815260040160405180910390fd5b60655460675460405163282d3fdf60e01b815233600482015260248101919091526001600160a01b039091169063282d3fdf90604401600060405180830381600087803b15801562000f3c57600080fd5b505af115801562000f51573d6000803e3d6000fd5b5050336000818152606d6020526040902080546001600160a01b03191690911781559150506001810162000f878486836200429f565b5060028101805460ff19166001179055607654604051629bf68360e11b8152607060048201523360248201526044810191909152600090819073__$99f6e31d9157e72684c1fb13c20fb01510$__90630137ed0690606401600060405180830381865af415801562000ffd573d6000803e3d6000fd5b505050506040513d6000823e601f3d908101601f191682016040526200102791908101906200436c565b9150915060005b8151811015620010665762001051828281518110620007ff57620007ff62004040565b806200105d816200406c565b9150506200102e565b50336001600160a01b03167fd4ec586f4f9f417f99e20fe821fbaa10a10a4b95f8712a0c57c6d8ed970e98bd878785604051620010a693929190620043ac565b60405180910390a2505050505050565b336000818152606d60205260409020805490916001600160a01b0390911614620010f2576040516229eaad60e31b815260040160405180910390fd5b600281015460ff161562001119576040516324a228bb60e21b815260040160405180910390fd5b4381600301541115620011485780600301546040516363525acb60e11b81526004016200042591815260200190565b60655460405163929ec53760e01b81523360048201526000916001600160a01b03169063929ec53790602401602060405180830381865afa15801562001192573d6000803e3d6000fd5b505050506040513d601f19601f82011682018060405250810190620011b8919062003ec8565b6067549091508110156200124e576065546067546001600160a01b039091169063282d3fdf903390620011ed9085906200409e565b6040516001600160e01b031960e085901b1681526001600160a01b0390921660048301526024820152604401600060405180830381600087803b1580156200123457600080fd5b505af115801562001249573d6000803e3d6000fd5b505050505b60028201805460ff19166001179055607654604051629bf68360e11b8152607060048201523360248201526044810191909152600090819073__$99f6e31d9157e72684c1fb13c20fb01510$__90630137ed0690606401600060405180830381865af4158015620012c3573d6000803e3d6000fd5b505050506040513d6000823e601f3d908101601f19168201604052620012ed91908101906200436c565b9150915060005b81518110156200132c5762001317828281518110620007ff57620007ff62004040565b8062001323816200406c565b915050620012f4565b5060405182815233907ffc97cd9154b40031874ef09a9436a4b60052e4dcf40f21b1258be265fac4a3979060200162000880565b62001397604051806080016040528060006001600160a01b0316815260200160608152602001600015158152602001600081525090565b6001600160a01b038083166000908152606d60209081526040918290208251608081019093528054909316825260018301805492939291840191620013dc9062004219565b80601f01602080910402602001604051908101604052809291908181526020018280546200140a9062004219565b80156200145b5780601f106200142f576101008083540402835291602001916200145b565b820191906000526020600020905b8154815290600101906020018083116200143d57829003601f168201915b5050509183525050600282015460ff161515602082015260039091015460409091015292915050565b604051631c2da66560e31b81526070600482015260609073__$99f6e31d9157e72684c1fb13c20fb01510$__9063e16d332890602401600060405180830381865af4158015620014d8573d6000803e3d6000fd5b505050506040513d6000823e601f3d908101601f19168201604052620015029190810190620040d9565b905090565b6000828152607260209081526040808320815161012081018352815481526001820154818501526002820154818401526003820154606082015260048201805484518187028101870190955280855286959294608086019390929190879084015b82821015620015e45760008481526020908190206040805180820182526005860290920180546001600160a01b0316835281516080810190925291928301906001830160048282826020028201915b815481526020019060010190808311620015b7575050505050815250508152602001906001019062001568565b505050508152602001600582018054806020026020016040519081016040528092919081815260200182805480156200164757602002820191906000526020600020905b81546001600160a01b0316815260019091019060200180831162001628575b5050505050815260200160068201805480602002602001604051908101604052809291908181526020016000905b82821015620017c5578382906000526020600020906007020160405180604001604052908160008201805480602002602001604051908101604052809291908181526020018280548015620016f457602002820191906000526020600020905b81546001600160a01b03168152600190910190602001808311620016d5575b50505091835250506040805160608101825260018401805482528251608081019384905260209485019492939192840191600287019060049082845b81548152602001906001019080831162001730575050505050815260200160058201805480602002602001604051908101604052809291908181526020018280548015620017a857602002820191906000526020600020905b81546001600160a01b0316815260019091019060200180831162001789575b505050505081525050815250508152602001906001019062001675565b50505090825250600782015460ff1615156020820152604080516080810182529101906008830160048282826020028201915b815481526020019060010190808311620017f857505050505081525050905060005b816080015151811015620018c857836001600160a01b0316826080015182815181106200184b576200184b62004040565b6020026020010151600001516001600160a01b031603620018b357816080015181815181106200187f576200187f62004040565b602002602001015160200151600060048110620018a057620018a062004040565b6020020151600014159250505062000bc2565b80620018bf816200406c565b9150506200181a565b506000949350505050565b6066546001600160a01b03163314620018ff5760405163469666c560e01b815260040160405180910390fd5b60005b8251811015620019db5781606e600085848151811062001926576200192662004040565b60200260200101516001600160a01b03166001600160a01b0316815260200190815260200160002060008282546200195f919062004088565b925050819055508281815181106200197b576200197b62004040565b60200260200101516001600160a01b03167f4ea3e03797614006774acce32832fbaa20d9d69de554df367f4bb8a98b92e74283604051620019be91815260200190565b60405180910390a280620019d2816200406c565b91505062001902565b505050565b600054610100900460ff161580801562001a015750600054600160ff909116105b8062001a1d5750303b15801562001a1d575060005460ff166001145b62001a825760405162461bcd60e51b815260206004820152602e60248201527f496e697469616c697a61626c653a20636f6e747261637420697320616c72656160448201526d191e481a5b9a5d1a585b1a5e995960921b606482015260840162000425565b6000805460ff19166001179055801562001aa6576000805461ff0019166101001790555b606c80546001600160a01b0319166001600160a01b038516179055607682905562001ad06200315f565b8015620019db576000805461ff0019169055604051600181527f7f26b83ff96e1f2b6a682f133852f6798a09c465da95921460cefb38474024989060200160405180910390a1505050565b62001b256200354f565b60008281526072602090815260408083208151610120810183528154815260018201548185015260028201548184015260038201546060820152600482018054845181870281018701909552808552919592946080870194939192919084015b8282101562001c015760008481526020908190206040805180820182526005860290920180546001600160a01b0316835281516080810190925291928301906001830160048282826020028201915b81548152602001906001019080831162001bd4575050505050815250508152602001906001019062001b85565b5050505081526020016005820180548060200260200160405190810160405280929190818152602001828054801562001c6457602002820191906000526020600020905b81546001600160a01b0316815260019091019060200180831162001c45575b5050505050815260200160068201805480602002602001604051908101604052809291908181526020016000905b8282101562001de257838290600052602060002090600702016040518060400160405290816000820180548060200260200160405190810160405280929190818152602001828054801562001d1157602002820191906000526020600020905b81546001600160a01b0316815260019091019060200180831162001cf2575b50505091835250506040805160608101825260018401805482528251608081019384905260209485019492939192840191600287019060049082845b81548152602001906001019080831162001d4d57505050505081526020016005820180548060200260200160405190810160405280929190818152602001828054801562001dc557602002820191906000526020600020905b81546001600160a01b0316815260019091019060200180831162001da6575b505050505081525050815250508152602001906001019062001c92565b50505090825250600782015460ff1615156020820152604080516080810182529101906008830160048282826020028201915b81548152602001906001019080831162001e15575050505050815250509050919050565b336000818152606d60205260409020805490916001600160a01b039091161462001e75576040516229eaad60e31b815260040160405180910390fd5b600281015460ff161562001e9c576040516324a228bb60e21b815260040160405180910390fd5b6040516316f6db8160e01b815260009073__$34d23ddaee48904c6c566425acbfa0fc0e$__906316f6db819062001eda90879087906004016200413a565b608060405180830381865af415801562001ef8573d6000803e3d6000fd5b505050506040513d601f19601f8201168201806040525081019062001f1e919062004150565b604051636fda2c7960e01b815290915073__$34d23ddaee48904c6c566425acbfa0fc0e$__90636fda2c799062001f5a908490600401620041d5565b602060405180830381865af415801562001f78573d6000803e3d6000fd5b505050506040513d601f19601f8201168201806040525081019062001f9e9190620041fb565b62001fbc5760405163145a1fdd60e31b815260040160405180910390fd5b6001820162001fcd8486836200429f565b50336001600160a01b03167f4a327ac4843af7a9586b5a2a2c312bd17289ae1d70da32855ed539fe39f86a508585604051620008809291906200413a565b60715481511062002036578051604051637f6efcb560e11b8152600481019190915260240162000425565b80516000908152606f60205260409020546001600160a01b031662002075578051604051635291bbcf60e01b8152600481019190915260240162000425565b80516000908152606f602090815260409182902054825163221f951160e01b815292516001600160a01b0390911692839263221f9511926004808401938290030181865afa158015620020cc573d6000803e3d6000fd5b505050506040513d601f19601f82011682018060405250810190620020f2919062003ee2565b60000b196200211b5781516040516343609fe160e01b8152600481019190915260240162000425565b81516000908152607260209081526040909120600181015491840151909114620021765782516020840151600183015460405163048b63c360e11b815260048101939093526024830191909152604482015260640162000425565b82516040516358914d0360e01b815260706004820152602481019190915233604482015273__$99f6e31d9157e72684c1fb13c20fb01510$__906358914d0390606401602060405180830381865af4158015620021d7573d6000803e3d6000fd5b505050506040513d601f19601f82011682018060405250810190620021fd919062003ec8565b196200222957825160405163eb51f5f960e01b8152600481019190915233602482015260440162000425565b825162002237903362001507565b156200226357825160405163173ca10960e31b8152600481019190915233602482015260440162000425565b60608301516040516316f6db8160e01b815260009173__$34d23ddaee48904c6c566425acbfa0fc0e$__916316f6db8191620022a291600401620043d2565b608060405180830381865af4158015620022c0573d6000803e3d6000fd5b505050506040513d601f19601f82011682018060405250810190620022e6919062004150565b604051636fda2c7960e01b815290915073__$34d23ddaee48904c6c566425acbfa0fc0e$__90636fda2c799062002322908490600401620041d5565b602060405180830381865af415801562002340573d6000803e3d6000fd5b505050506040513d601f19601f82011682018060405250810190620023669190620041fb565b6200238457604051631886185760e01b815260040160405180910390fd5b60408085015190516316f6db8160e01b815260009173__$34d23ddaee48904c6c566425acbfa0fc0e$__916316f6db8191620023c391600401620043d2565b608060405180830381865af4158015620023e1573d6000803e3d6000fd5b505050506040513d601f19601f8201168201806040525081019062002407919062004150565b604051636fda2c7960e01b815290915073__$34d23ddaee48904c6c566425acbfa0fc0e$__90636fda2c799062002443908490600401620041d5565b602060405180830381865af415801562002461573d6000803e3d6000fd5b505050506040513d601f19601f82011682018060405250810190620024879190620041fb565b620024a55760405163145a1fdd60e31b815260040160405180910390fd5b604080516060810182526020808801518252810183905260808701518183015286519151636aba6eeb60e11b8152909173__$99f6e31d9157e72684c1fb13c20fb01510$__9163d574ddd6916200250591607091908690600401620043e7565b602060405180830381865af415801562002523573d6000803e3d6000fd5b505050506040513d601f19601f82011682018060405250810190620025499190620041fb565b620026305760408051600181830181815260808301909352600092829160608301602080368337505050815260200183905280518051919250339160009062002596576200259662004040565b6001600160a01b03909216602092830291909101820152600686018054600181018255600091825290829020835180518594600790940290920192620025e2928492909101906200359f565b50602082810151805160018401908155918101519091906200260b906002850190600462003609565b5060408201518051620026299160058401916020909101906200359f565b5050505050505b85516040516358914d0360e01b815260706004808301919091526024820192909252336044820152849186019073__$99f6e31d9157e72684c1fb13c20fb01510$__906358914d0390606401602060405180830381865af41580156200269a573d6000803e3d6000fd5b505050506040513d601f19601f82011682018060405250810190620026c0919062003ec8565b81548110620026d357620026d362004040565b9060005260206000209060050201600101906004620026f492919062003609565b50600784015460ff16620027df57855160765460405163449cf2fd60e11b81526070600482015260248101929092526044820152600090819073__$99f6e31d9157e72684c1fb13c20fb01510$__90638939e5fa90606401600060405180830381865af41580156200276a573d6000803e3d6000fd5b505050506040513d6000823e601f3d908101601f1916820160405262002794919081019062004472565b915091508115620027dc5760005b8151811015620027da57620027c5828281518110620007ad57620007ad62004040565b80620027d1816200406c565b915050620027a2565b505b50505b505050505050565b620027f162003019565b6001600160a01b038116620028585760405162461bcd60e51b815260206004820152602660248201527f4f776e61626c653a206e6577206f776e657220697320746865207a65726f206160448201526564647265737360d01b606482015260840162000425565b620028638162003075565b50565b6066546001600160a01b03163314620028925760405163469666c560e01b815260040160405180910390fd5b607655565b606554604051638899fdeb60e01b81526001600160a01b0385811660048301526024820185905290911690638899fdeb90604401600060405180830381600087803b158015620028e657600080fd5b505af1158015620028fb573d6000803e3d6000fd5b505050506200290b8382620030c7565b60408051838152602081018390526001600160a01b038516917fa8d720d0a0a2e7c96bf9eb87433901ebb6331356c8f3283b2568de34478703cc910160405180910390a2505050565b6200296160708262003193565b60008181526072602090815260408083208151610120810183528154815260018201548185015260028201548184015260038201546060820152600482018054845181870281018701909552808552919492936080860193909290879084015b8282101562002a3d5760008481526020908190206040805180820182526005860290920180546001600160a01b0316835281516080810190925291928301906001830160048282826020028201915b81548152602001906001019080831162002a105750505050508152505081526020019060010190620029c1565b5050505081526020016005820180548060200260200160405190810160405280929190818152602001828054801562002aa057602002820191906000526020600020905b81546001600160a01b0316815260019091019060200180831162002a81575b5050505050815260200160068201805480602002602001604051908101604052809291908181526020016000905b8282101562002c1e57838290600052602060002090600702016040518060400160405290816000820180548060200260200160405190810160405280929190818152602001828054801562002b4d57602002820191906000526020600020905b81546001600160a01b0316815260019091019060200180831162002b2e575b50505091835250506040805160608101825260018401805482528251608081019384905260209485019492939192840191600287019060049082845b81548152602001906001019080831162002b8957505050505081526020016005820180548060200260200160405190810160405280929190818152602001828054801562002c0157602002820191906000526020600020905b81546001600160a01b0316815260019091019060200180831162002be2575b505050505081525050815250508152602001906001019062002ace565b50505090825250600782015460ff1615156020820152604080516080810182529101906008830160048282826020028201915b81548152602001906001019080831162002c515750505050508152505090506000816060015160656004015460405162002c8b906200363a565b9182526020820152604001604051809103906000f08015801562002cb3573d6000803e3d6000fd5b506000848152606f602052604080822080546001600160a01b0319166001600160a01b038516179055840151919250906001600160401b0381111562002cfd5762002cfd62003a31565b60405190808252806020026020018201604052801562002d27578160200160208202803683370190505b509050600083604001516001600160401b0381111562002d4b5762002d4b62003a31565b60405190808252806020026020018201604052801562002d8057816020015b606081526020019060019003908162002d6a5790505b50905060005b846040015181101562002f00578460800151818151811062002dac5762002dac62004040565b60200260200101516000015183828151811062002dcd5762002dcd62004040565b60200260200101906001600160a01b031690816001600160a01b031681525050606d60008660800151838151811062002e0a5762002e0a62004040565b6020026020010151600001516001600160a01b03166001600160a01b03168152602001908152602001600020600101805462002e469062004219565b80601f016020809104026020016040519081016040528092919081815260200182805462002e749062004219565b801562002ec55780601f1062002e995761010080835404028352916020019162002ec5565b820191906000526020600020905b81548152906001019060200180831162002ea757829003601f168201915b505050505082828151811062002edf5762002edf62004040565b6020026020010181905250808062002ef7906200406c565b91505062002d86565b506040516337f8d5ff60e01b81526001600160a01b038416906337f8d5ff9062002f319085908590600401620044bb565b600060405180830381600087803b15801562002f4c57600080fd5b505af115801562002f61573d6000803e3d6000fd5b50505050836020015184600001516070600001547fbbd25d64683f157b2e3544d3d6430e14102db1e49592cf4dcaf827e2ded517ee8760400151886060015187438a60405162002fb695949392919062004533565b60405180910390a45050505050565b604080516001600160a01b038416602482015260448082018490528251808303909101815260649091019091526020810180516001600160e01b031663a9059cbb60e01b179052620019db90849062003274565b6033546001600160a01b0316331462000bde5760405162461bcd60e51b815260206004820181905260248201527f4f776e61626c653a2063616c6c6572206973206e6f7420746865206f776e6572604482015260640162000425565b603380546001600160a01b038381166001600160a01b0319831681179093556040519116919082907f8be0079c531659141344cd1fd0a4f28419497f9722a3daafe3b4186f6b6457e090600090a35050565b6001600160a01b0382166000908152606d6020526040902060028101805460ff1916905560030154439081101562003132576001600160a01b0383166000908152606d6020526040812060030180548492906200312690849062004088565b90915550620019db9050565b6200313e828262004088565b6001600160a01b0384166000908152606d6020526040902060030155505050565b600054610100900460ff16620031895760405162461bcd60e51b8152600401620004259062004576565b62000bde6200334d565b8154826000620031a3836200406c565b9091555050600081815260028301602052604081206001810180549192620031cb836200406c565b909155505060078101805460ff19169055620031ec60058201600062003648565b620031fc60068201600062003668565b60005b60048201548110156200326e5781600401818154811062003224576200322462004040565b906000526020600020906005020160010160006200325991905060008155600101600081556001016000815560010160009055565b8062003265816200406c565b915050620031ff565b50505050565b6000620032cb826040518060400160405280602081526020017f5361666545524332303a206c6f772d6c6576656c2063616c6c206661696c6564815250856001600160a01b0316620033829092919063ffffffff16565b805190915015620019db5780806020019051810190620032ec9190620041fb565b620019db5760405162461bcd60e51b815260206004820152602a60248201527f5361666545524332303a204552433230206f7065726174696f6e20646964206e6044820152691bdd081cdd58d8d9595960b21b606482015260840162000425565b600054610100900460ff16620033775760405162461bcd60e51b8152600401620004259062004576565b62000bde3362003075565b60606200339384846000856200339b565b949350505050565b606082471015620033fe5760405162461bcd60e51b815260206004820152602660248201527f416464726573733a20696e73756666696369656e742062616c616e636520666f6044820152651c8818d85b1b60d21b606482015260840162000425565b600080866001600160a01b031685876040516200341c9190620045c1565b60006040518083038185875af1925050503d80600081146200345b576040519150601f19603f3d011682016040523d82523d6000602084013e62003460565b606091505b509150915062003473878383876200347e565b979650505050505050565b60608315620034f2578251600003620034ea576001600160a01b0385163b620034ea5760405162461bcd60e51b815260206004820152601d60248201527f416464726573733a2063616c6c20746f206e6f6e2d636f6e7472616374000000604482015260640162000425565b508162003393565b620033938383815115620035095781518083602001fd5b8060405162461bcd60e51b8152600401620004259190620043d2565b604051806040016040528060006001600160a01b031681526020016200354a6200368b565b905290565b604051806101200160405280600081526020016000815260200160008152602001600081526020016060815260200160608152602001606081526020016000151581526020016200354a6200368b565b828054828255906000526020600020908101928215620035f7579160200282015b82811115620035f757825182546001600160a01b0319166001600160a01b03909116178255602090920191600190910190620035c0565b5062003605929150620036a9565b5090565b8260048101928215620035f7579160200282015b82811115620035f75782518255916020019190600101906200361d565b6116b080620045e083390190565b5080546000825590600052602060002090810190620028639190620036a9565b5080546000825560070290600052602060002090810190620028639190620036c0565b60405180608001604052806004906020820280368337509192915050565b5b80821115620036055760008155600101620036aa565b8082111562003605576000620036d7828262003648565b60006001830181815560028401829055600384018290556004840182905560058401829055906200370d60058301600062003648565b505050600701620036c0565b600080604083850312156200372d57600080fd5b50508035926020909101359150565b6001600160a01b03811681146200286357600080fd5b600080604083850312156200376657600080fd5b823562003773816200373c565b946020939093013593505050565b6000806000806000806000806000806101408b8d031215620037a257600080fd5b8a35620037af816200373c565b995060208b0135620037c1816200373c565b999c999b505050506040880135976060810135976080820135975060a0820135965060c0820135955060e082013594506101008201359350610120909101359150565b6000602082840312156200381757600080fd5b813562003824816200373c565b9392505050565b6000602082840312156200383e57600080fd5b5035919050565b8060005b60048110156200326e57815184526020938401939091019060010162003849565b80516001600160a01b0316825260208082015190620019db9084018262003845565b60a0810162000bc282846200386a565b60008060208385031215620038b057600080fd5b82356001600160401b0380821115620038c857600080fd5b818501915085601f830112620038dd57600080fd5b813581811115620038ed57600080fd5b8660208285010111156200390057600080fd5b60209290920196919550909350505050565b60005b838110156200392f57818101518382015260200162003915565b50506000910152565b600081518084526200395281602086016020860162003912565b601f01601f19169290920160200192915050565b602080825282516001600160a01b031682820152820151608060408301526000906200399660a084018262003938565b9050604084015115156060840152606084015160808401528091505092915050565b6020808252825182820181905260009190848201906040850190845b81811015620039f257835183529284019291840191600101620039d4565b50909695505050505050565b6000806040838503121562003a1257600080fd5b82359150602083013562003a26816200373c565b809150509250929050565b634e487b7160e01b600052604160045260246000fd5b60405160a081016001600160401b038111828210171562003a6c5762003a6c62003a31565b60405290565b604051601f8201601f191681016001600160401b038111828210171562003a9d5762003a9d62003a31565b604052919050565b60006001600160401b0382111562003ac15762003ac162003a31565b5060051b60200190565b600082601f83011262003add57600080fd5b8135602062003af662003af08362003aa5565b62003a72565b82815260059290921b8401810191818101908684111562003b1657600080fd5b8286015b8481101562003b3e57803562003b30816200373c565b835291830191830162003b1a565b509695505050505050565b6000806040838503121562003b5d57600080fd5b82356001600160401b0381111562003b7457600080fd5b62003b828582860162003acb565b95602094909401359450505050565b600081518084526020808501945080840160005b8381101562003bcf5762003bbb8783516200386a565b60a096909601959082019060010162003ba5565b509495945050505050565b600081518084526020808501945080840160005b8381101562003bcf5781516001600160a01b03168752958201959082019060010162003bee565b600081518084526020808501808196508360051b8101915082860160005b8581101562003cb157828403895281516040815181875262003c588288018262003bda565b90508783015192508681038888015260c0835182528884015162003c7f8a84018262003845565b508284015193508060a083015262003c9a8183018562003bda565b9c89019c9750505092860192505060010162003c33565b5091979650505050505050565b60208152815160208201526020820151604082015260408201516060820152606082015160808201526000608083015161018060a084015262003d066101a084018262003b91565b905060a0840151601f19808584030160c086015262003d26838362003bda565b925060c08601519150808584030160e08601525062003d46828262003c15565b91505060e084015161010062003d5f8186018315159052565b850151905062003d7461012085018262003845565b509392505050565b600082601f83011262003d8e57600080fd5b81356001600160401b0381111562003daa5762003daa62003a31565b62003dbf601f8201601f191660200162003a72565b81815284602083860101111562003dd557600080fd5b816020850160208301376000918101602001919091529392505050565b60006020828403121562003e0557600080fd5b81356001600160401b038082111562003e1d57600080fd5b9083019060a0828603121562003e3257600080fd5b62003e3c62003a47565b823581526020830135602082015260408301358281111562003e5d57600080fd5b62003e6b8782860162003d7c565b60408301525060608301358281111562003e8457600080fd5b62003e928782860162003d7c565b60608301525060808301358281111562003eab57600080fd5b62003eb98782860162003acb565b60808301525095945050505050565b60006020828403121562003edb57600080fd5b5051919050565b60006020828403121562003ef557600080fd5b81518060000b81146200382457600080fd5b600082601f83011262003f1957600080fd5b8151602062003f2c62003af08362003aa5565b82815260059290921b8401810191818101908684111562003f4c57600080fd5b8286015b8481101562003b3e57805162003f66816200373c565b835291830191830162003f50565b600082601f83011262003f8657600080fd5b8151602062003f9962003af08362003aa5565b82815260059290921b8401810191818101908684111562003fb957600080fd5b8286015b8481101562003b3e578051835291830191830162003fbd565b6000806040838503121562003fea57600080fd5b82516001600160401b03808211156200400257600080fd5b620040108683870162003f07565b935060208501519150808211156200402757600080fd5b50620040368582860162003f74565b9150509250929050565b634e487b7160e01b600052603260045260246000fd5b634e487b7160e01b600052601160045260246000fd5b60006001820162004081576200408162004056565b5060010190565b8082018082111562000bc25762000bc262004056565b8181038181111562000bc25762000bc262004056565b60008060408385031215620040c857600080fd5b505080516020909101519092909150565b600060208284031215620040ec57600080fd5b81516001600160401b038111156200410357600080fd5b620033938482850162003f74565b81835281816020850137506000828201602090810191909152601f909101601f19169091010190565b6020815260006200339360208301848662004111565b6000608082840312156200416357600080fd5b82601f8301126200417357600080fd5b604051608081018181106001600160401b038211171562004198576200419862003a31565b604052806080840185811115620041ae57600080fd5b845b81811015620041ca578051835260209283019201620041b0565b509195945050505050565b6080810162000bc2828462003845565b80518015158114620041f657600080fd5b919050565b6000602082840312156200420e57600080fd5b6200382482620041e5565b600181811c908216806200422e57607f821691505b6020821081036200424f57634e487b7160e01b600052602260045260246000fd5b50919050565b601f821115620019db57600081815260208120601f850160051c810160208610156200427e5750805b601f850160051c820191505b81811015620027df578281556001016200428a565b6001600160401b03831115620042b957620042b962003a31565b620042d183620042ca835462004219565b8362004255565b6000601f841160018114620043085760008515620042ef5750838201355b600019600387901b1c1916600186901b17835562004365565b600083815260209020601f19861690835b828110156200433b578685013582556020948501946001909201910162004319565b5086821015620043595760001960f88860031b161c19848701351681555b505060018560011b0183555b5050505050565b600080604083850312156200438057600080fd5b8251915060208301516001600160401b038111156200439e57600080fd5b620040368582860162003f74565b604081526000620043c260408301858762004111565b9050826020830152949350505050565b60208152600062003824602083018462003938565b838152600060208481840152606060408401526101208301845160608501528185015162004419608086018262003845565b50604085015160c06101008601528051918290528201906000906101408601905b80831015620044655783516001600160a01b031682529284019260019290920191908401906200443a565b5098975050505050505050565b600080604083850312156200448657600080fd5b6200449183620041e5565b915060208301516001600160401b03811115620044ad57600080fd5b620040368582860162003f07565b604081526000620044d0604083018562003bda565b6020838203818501528185518084528284019150828160051b85010183880160005b838110156200452457601f198784030185526200451183835162003938565b94860194925090850190600101620044f2565b50909998505050505050505050565b85815284602082015260a0604082015260006200455460a083018662003bda565b6060830194909452506001600160a01b03919091166080909101529392505050565b6020808252602b908201527f496e697469616c697a61626c653a20636f6e7472616374206973206e6f74206960408201526a6e697469616c697a696e6760a81b606082015260800190565b60008251620045d581846020870162003912565b919091019291505056fe60c0604052600060065534801561001557600080fd5b506040516116b03803806116b08339810160408190526100349161009b565b61003d3361004b565b60a0919091526080526100bf565b600080546001600160a01b038381166001600160a01b0319831681178455604051919092169283917f8be0079c531659141344cd1fd0a4f28419497f9722a3daafe3b4186f6b6457e09190a35050565b600080604083850312156100ae57600080fd5b505080516020909101519092909150565b60805160a05161159461011c6000396000818161023e01526107680152600081816101d1015281816103aa015281816103dc015281816104150152818161044e0152818161089b0152818161095d0152610a2301526115946000f3fe608060405234801561001057600080fd5b506004361061012c5760003560e01c8063785ffb37116100ad578063cc5ef00911610071578063cc5ef009146102a1578063cd5e3837146102a9578063ce7c2ac2146102bc578063d73fe0aa146102cf578063f2fde38b146102d757600080fd5b8063785ffb37146102395780637fd28346146102605780638da5cb5b146102735780639cb8a26a14610284578063b0ef81791461028c57600080fd5b80634ae2b849116100f45780634ae2b849146101cc5780634e3874a0146101f35780635aa68ac014610209578063670d14b21461021e578063715018a61461023157600080fd5b80630ea6564814610131578063221f95111461015a57806335c1d3491461017557806337f8d5ff146101a057806348cd4cb1146101b5575b600080fd5b61014461013f3660046110a7565b6102ea565b604051610151919061111d565b60405180910390f35b610162610384565b60405160009190910b8152602001610151565b610188610183366004611130565b61048b565b6040516001600160a01b039091168152602001610151565b6101b36101ae366004611195565b6104b5565b005b6101be60065481565b604051908152602001610151565b6101be7f000000000000000000000000000000000000000000000000000000000000000081565b6101fb61060a565b604051610151929190611256565b61021161078f565b6040516101519190611277565b61014461022c3660046110a7565b6107f1565b6101b361080a565b6101be7f000000000000000000000000000000000000000000000000000000000000000081565b6101b361026e3660046112c4565b61081e565b6000546001600160a01b0316610188565b6101b3610b2e565b610294610b44565b6040516101519190611336565b610294610ca2565b6101446102b73660046110a7565b610dfa565b6101446102ca3660046110a7565b610e13565b610294610e2c565b6101b36102e53660046110a7565b610f84565b6003602052600090815260409020805461030390611349565b80601f016020809104026020016040519081016040528092919081815260200182805461032f90611349565b801561037c5780601f106103515761010080835404028352916020019161037c565b820191906000526020600020905b81548152906001019060200180831161035f57829003601f168201915b505050505081565b60006006546000036103965750600090565b6000600654436103a69190611393565b90507f000000000000000000000000000000000000000000000000000000000000000081116103d757600191505090565b6104027f000000000000000000000000000000000000000000000000000000000000000060026113ac565b811161041057600291505090565b61043b7f000000000000000000000000000000000000000000000000000000000000000060036113ac565b811161044957600391505090565b6104747f000000000000000000000000000000000000000000000000000000000000000060046113ac565b811161048257600491505090565b60001991505090565b6005818154811061049b57600080fd5b6000918252602090912001546001600160a01b0316905081565b6006541561050a5760405162461bcd60e51b815260206004820152601760248201527f444b472068617320616c7265616479207374617274656400000000000000000060448201526064015b60405180910390fd5b610512610ffd565b60005b838110156105ff576005858583818110610531576105316113c3565b905060200201602081019061054691906110a7565b81546001810183556000928352602090922090910180546001600160a01b0319166001600160a01b0390921691909117905582828281811061058a5761058a6113c3565b905060200281019061059c91906113d9565b600160008888868181106105b2576105b26113c3565b90506020020160208101906105c791906110a7565b6001600160a01b031681526020810191909152604001600020916105ec919083611484565b50806105f781611545565b915050610515565b505043600655505050565b60006060600060058054905067ffffffffffffffff81111561062e5761062e611420565b60405190808252806020026020018201604052801561066157816020015b606081526020019060019003908161064c5790505b50905060005b600554811015610765576001600060058381548110610688576106886113c3565b60009182526020808320909101546001600160a01b03168352820192909252604001902080546106b790611349565b80601f01602080910402602001604051908101604052809291908181526020018280546106e390611349565b80156107305780601f1061070557610100808354040283529160200191610730565b820191906000526020600020905b81548152906001019060200180831161071357829003601f168201915b5050505050828281518110610747576107476113c3565b6020026020010181905250808061075d90611545565b915050610667565b507f0000000000000000000000000000000000000000000000000000000000000000939092509050565b606060058054806020026020016040519081016040528092919081815260200182805480156107e757602002820191906000526020600020905b81546001600160a01b031681526001909101906020018083116107c9575b5050505050905090565b6001602052600090815260409020805461030390611349565b610812610ffd565b61081c6000611057565b565b336000908152600160205260408120805461083890611349565b9050116108875760405162461bcd60e51b815260206004820152601b60248201527f796f7520617265206e6f7420612067726f7570206d656d6265722100000000006044820152606401610501565b6000600654436108979190611393565b90507f000000000000000000000000000000000000000000000000000000000000000081116109585733600090815260026020526040902080546108da90611349565b1590506109385760405162461bcd60e51b815260206004820152602660248201527f796f75206861766520616c7265616479207075626c697368656420796f75722060448201526573686172657360d01b6064820152608401610501565b336000908152600260205260409020610952838583611484565b50505050565b6109837f000000000000000000000000000000000000000000000000000000000000000060026113ac565b8111610a1e5733600090815260036020526040902080546109a390611349565b159050610a045760405162461bcd60e51b815260206004820152602960248201527f796f75206861766520616c7265616479207075626c697368656420796f757220604482015268726573706f6e73657360b81b6064820152608401610501565b336000908152600360205260409020610952838583611484565b610a497f000000000000000000000000000000000000000000000000000000000000000060036113ac565b8111610ae9573360009081526004602052604090208054610a6990611349565b159050610acf5760405162461bcd60e51b815260206004820152602e60248201527f796f75206861766520616c7265616479207075626c697368656420796f75722060448201526d6a757374696669636174696f6e7360901b6064820152608401610501565b336000908152600460205260409020610952838583611484565b60405162461bcd60e51b81526020600482015260156024820152741112d1c8141d589b1a5cda081a185cc8195b991959605a1b6044820152606401610501565b505050565b610b36610ffd565b6000546001600160a01b0316ff5b60055460609060009067ffffffffffffffff811115610b6557610b65611420565b604051908082528060200260200182016040528015610b9857816020015b6060815260200190600190039081610b835790505b50905060005b600554811015610c9c576004600060058381548110610bbf57610bbf6113c3565b60009182526020808320909101546001600160a01b0316835282019290925260400190208054610bee90611349565b80601f0160208091040260200160405190810160405280929190818152602001828054610c1a90611349565b8015610c675780601f10610c3c57610100808354040283529160200191610c67565b820191906000526020600020905b815481529060010190602001808311610c4a57829003601f168201915b5050505050828281518110610c7e57610c7e6113c3565b60200260200101819052508080610c9490611545565b915050610b9e565b50919050565b60055460609060009067ffffffffffffffff811115610cc357610cc3611420565b604051908082528060200260200182016040528015610cf657816020015b6060815260200190600190039081610ce15790505b50905060005b600554811015610c9c576003600060058381548110610d1d57610d1d6113c3565b60009182526020808320909101546001600160a01b0316835282019290925260400190208054610d4c90611349565b80601f0160208091040260200160405190810160405280929190818152602001828054610d7890611349565b8015610dc55780601f10610d9a57610100808354040283529160200191610dc5565b820191906000526020600020905b815481529060010190602001808311610da857829003601f168201915b5050505050828281518110610ddc57610ddc6113c3565b60200260200101819052508080610df290611545565b915050610cfc565b6004602052600090815260409020805461030390611349565b6002602052600090815260409020805461030390611349565b60055460609060009067ffffffffffffffff811115610e4d57610e4d611420565b604051908082528060200260200182016040528015610e8057816020015b6060815260200190600190039081610e6b5790505b50905060005b600554811015610c9c576002600060058381548110610ea757610ea76113c3565b60009182526020808320909101546001600160a01b0316835282019290925260400190208054610ed690611349565b80601f0160208091040260200160405190810160405280929190818152602001828054610f0290611349565b8015610f4f5780601f10610f2457610100808354040283529160200191610f4f565b820191906000526020600020905b815481529060010190602001808311610f3257829003601f168201915b5050505050828281518110610f6657610f666113c3565b60200260200101819052508080610f7c90611545565b915050610e86565b610f8c610ffd565b6001600160a01b038116610ff15760405162461bcd60e51b815260206004820152602660248201527f4f776e61626c653a206e6577206f776e657220697320746865207a65726f206160448201526564647265737360d01b6064820152608401610501565b610ffa81611057565b50565b6000546001600160a01b0316331461081c5760405162461bcd60e51b815260206004820181905260248201527f4f776e61626c653a2063616c6c6572206973206e6f7420746865206f776e65726044820152606401610501565b600080546001600160a01b038381166001600160a01b0319831681178455604051919092169283917f8be0079c531659141344cd1fd0a4f28419497f9722a3daafe3b4186f6b6457e09190a35050565b6000602082840312156110b957600080fd5b81356001600160a01b03811681146110d057600080fd5b9392505050565b6000815180845260005b818110156110fd576020818501810151868301820152016110e1565b506000602082860101526020601f19601f83011685010191505092915050565b6020815260006110d060208301846110d7565b60006020828403121561114257600080fd5b5035919050565b60008083601f84011261115b57600080fd5b50813567ffffffffffffffff81111561117357600080fd5b6020830191508360208260051b850101111561118e57600080fd5b9250929050565b600080600080604085870312156111ab57600080fd5b843567ffffffffffffffff808211156111c357600080fd5b6111cf88838901611149565b909650945060208701359150808211156111e857600080fd5b506111f587828801611149565b95989497509550505050565b600081518084526020808501808196508360051b8101915082860160005b858110156112495782840389526112378483516110d7565b9885019893509084019060010161121f565b5091979650505050505050565b82815260406020820152600061126f6040830184611201565b949350505050565b6020808252825182820181905260009190848201906040850190845b818110156112b85783516001600160a01b031683529284019291840191600101611293565b50909695505050505050565b600080602083850312156112d757600080fd5b823567ffffffffffffffff808211156112ef57600080fd5b818501915085601f83011261130357600080fd5b81358181111561131257600080fd5b86602082850101111561132457600080fd5b60209290920196919550909350505050565b6020815260006110d06020830184611201565b600181811c9082168061135d57607f821691505b602082108103610c9c57634e487b7160e01b600052602260045260246000fd5b634e487b7160e01b600052601160045260246000fd5b818103818111156113a6576113a661137d565b92915050565b80820281158282048414176113a6576113a661137d565b634e487b7160e01b600052603260045260246000fd5b6000808335601e198436030181126113f057600080fd5b83018035915067ffffffffffffffff82111561140b57600080fd5b60200191503681900382131561118e57600080fd5b634e487b7160e01b600052604160045260246000fd5b601f821115610b2957600081815260208120601f850160051c8101602086101561145d5750805b601f850160051c820191505b8181101561147c57828155600101611469565b505050505050565b67ffffffffffffffff83111561149c5761149c611420565b6114b0836114aa8354611349565b83611436565b6000601f8411600181146114e457600085156114cc5750838201355b600019600387901b1c1916600186901b17835561153e565b600083815260209020601f19861690835b8281101561151557868501358255602094850194600190920191016114f5565b50868210156115325760001960f88860031b161c19848701351681555b505060018560011b0183555b5050505050565b6000600182016115575761155761137d565b506001019056fea2646970667358221220b7ae05eb8886aab2b2efb038117316730801038ca6fa9f83f112c49cc16a907264736f6c63430008130033a264697066735822122015cb1346e0815b95d9db533cfbd247672be5b5dc9a9e60af73ea8e71354fc02d64736f6c63430008130033",
    "linkReferences": {
      "src/libraries/BLS.sol": {
        "BLS": [
          {
            "start": 3581,
            "length": 20
          },
          {
            "start": 3711,
            "length": 20
          },
          {
            "start": 7886,
            "length": 20
          },
          {
            "start": 8016,
            "length": 20
          },
          {
            "start": 8858,
            "length": 20
          },
          {
            "start": 8984,
            "length": 20
          },
          {
            "start": 9147,
            "length": 20
          },
          {
            "start": 9273,
            "length": 20
          }
        ]
      },
      "src/libraries/GroupLib.sol": {
        "GroupLib": [
          {
            "start": 1137,
            "length": 20
          },
          {
            "start": 1854,
            "length": 20
          },
          {
            "start": 2525,
            "length": 20
          },
          {
            "start": 2786,
            "length": 20
          },
          {
            "start": 3174,
            "length": 20
          },
          {
            "start": 4066,
            "length": 20
          },
          {
            "start": 4776,
            "length": 20
          },
          {
            "start": 5309,
            "length": 20
          },
          {
            "start": 8636,
            "length": 20
          },
          {
            "start": 9463,
            "length": 20
          },
          {
            "start": 9855,
            "length": 20
          },
          {
            "start": 10063,
            "length": 20
          }
        ]
      }
    }
  },
  "methodIdentifiers": {
    "addReward(address[],uint256)": "c5a5dc40",
    "changeDkgPublicKey(bytes)": "e275cde6",
    "claimReward(address,uint256)": "174e31c4",
    "commitDkg((uint256,uint256,bytes,bytes,address[]))": "e37eb96c",
    "getBelongingGroup(address)": "3b6c00b0",
    "getCoordinator(uint256)": "42424d6f",
    "getGroup(uint256)": "ceb60654",
    "getGroupCount()": "06545a93",
    "getLastOutput()": "51a2b9a0",
    "getMember(uint256,uint256)": "4d79a893",
    "getNode(address)": "9d209048",
    "getNodeReward(address)": "b83dd5f0",
    "getValidGroupIndices()": "b330a0fd",
    "initialize(address,uint256)": "cd6dc687",
    "isPartialKeyRegistered(uint256,address)": "c2db900b",
    "nodeActivate()": "9a075bc3",
    "nodeQuit()": "7a2af56e",
    "nodeRegister(bytes)": "80110e4e",
    "owner()": "8da5cb5b",
    "postProcessDkg(uint256,uint256)": "0bf9c5c6",
    "renounceOwnership()": "715018a6",
    "setControllerConfig(address,address,uint256,uint256,uint256,uint256,uint256,uint256,uint256,uint256)": "2ff9e520",
    "setLastOutput(uint256)": "f3df0802",
    "transferOwnership(address)": "f2fde38b"
  },
  "id": 64
}