{
  "abi": [
    {
      "inputs": [
        {
          "internalType": "address",
          "name": "arpa",
          "type": "address"
        },
        {
          "internalType": "address",
          "name": "arpaEthFeed",
          "type": "address"
        }
      ],
      "stateMutability": "nonpayable",
      "type": "constructor"
    },
    {
      "inputs": [],
      "name": "InsufficientBalanceWhenFulfill",
      "type": "error"
    },
    {
      "inputs": [],
      "name": "InsufficientBalanceWhenRequest",
      "type": "error"
    },
    {
      "inputs": [
        {
          "internalType": "int256",
          "name": "arpaWei",
          "type": "int256"
        }
      ],
      "name": "InvalidArpaWeiPrice",
      "type": "error"
    },
    {
      "inputs": [
        {
          "internalType": "uint64",
          "name": "subId",
          "type": "uint64"
        },
        {
          "internalType": "address",
          "name": "consumer",
          "type": "address"
        }
      ],
      "name": "InvalidConsumer",
      "type": "error"
    },
    {
      "inputs": [
        {
          "internalType": "string",
          "name": "message",
          "type": "string"
        }
      ],
      "name": "InvalidRequestByEOA",
      "type": "error"
    },
    {
      "inputs": [
        {
          "internalType": "uint16",
          "name": "have",
          "type": "uint16"
        },
        {
          "internalType": "uint16",
          "name": "min",
          "type": "uint16"
        },
        {
          "internalType": "uint16",
          "name": "max",
          "type": "uint16"
        }
      ],
      "name": "InvalidRequestConfirmations",
      "type": "error"
    },
    {
      "inputs": [],
      "name": "InvalidSignature",
      "type": "error"
    },
    {
      "inputs": [],
      "name": "InvalidSignatureFormat",
      "type": "error"
    },
    {
      "inputs": [],
      "name": "InvalidSubscription",
      "type": "error"
    },
    {
      "inputs": [
        {
          "internalType": "address",
          "name": "owner",
          "type": "address"
        }
      ],
      "name": "MustBeSubOwner",
      "type": "error"
    },
    {
      "inputs": [],
      "name": "MustNotBeInfinity",
      "type": "error"
    },
    {
      "inputs": [],
      "name": "NoAvailableGroups",
      "type": "error"
    },
    {
      "inputs": [],
      "name": "NoCorrespondingRequest",
      "type": "error"
    },
    {
      "inputs": [],
      "name": "NotFromCommitter",
      "type": "error"
    },
    {
      "inputs": [],
      "name": "PaymentTooLarge",
      "type": "error"
    },
    {
      "inputs": [],
      "name": "Reentrant",
      "type": "error"
    },
    {
      "inputs": [],
      "name": "TaskStillExclusive",
      "type": "error"
    },
    {
      "inputs": [],
      "name": "TooManyConsumers",
      "type": "error"
    },
    {
      "anonymous": false,
      "inputs": [
        {
          "indexed": false,
          "internalType": "uint16",
          "name": "minimumRequestConfirmations",
          "type": "uint16"
        },
        {
          "indexed": false,
          "internalType": "uint32",
          "name": "maxGasLimit",
          "type": "uint32"
        },
        {
          "indexed": false,
          "internalType": "uint32",
          "name": "stalenessSeconds",
          "type": "uint32"
        },
        {
          "indexed": false,
          "internalType": "uint32",
          "name": "gasAfterPaymentCalculation",
          "type": "uint32"
        },
        {
          "indexed": false,
          "internalType": "uint32",
          "name": "gasExceptCallback",
          "type": "uint32"
        },
        {
          "indexed": false,
          "internalType": "int256",
          "name": "fallbackWeiPerUnitArpa",
          "type": "int256"
        },
        {
          "components": [
            {
              "internalType": "uint32",
              "name": "fulfillmentFlatFeeArpaPPMTier1",
              "type": "uint32"
            },
            {
              "internalType": "uint32",
              "name": "fulfillmentFlatFeeArpaPPMTier2",
              "type": "uint32"
            },
            {
              "internalType": "uint32",
              "name": "fulfillmentFlatFeeArpaPPMTier3",
              "type": "uint32"
            },
            {
              "internalType": "uint32",
              "name": "fulfillmentFlatFeeArpaPPMTier4",
              "type": "uint32"
            },
            {
              "internalType": "uint32",
              "name": "fulfillmentFlatFeeArpaPPMTier5",
              "type": "uint32"
            },
            {
              "internalType": "uint24",
              "name": "reqsForTier2",
              "type": "uint24"
            },
            {
              "internalType": "uint24",
              "name": "reqsForTier3",
              "type": "uint24"
            },
            {
              "internalType": "uint24",
              "name": "reqsForTier4",
              "type": "uint24"
            },
            {
              "internalType": "uint24",
              "name": "reqsForTier5",
              "type": "uint24"
            }
          ],
          "indexed": false,
          "internalType": "struct Adapter.FeeConfig",
          "name": "feeConfig",
          "type": "tuple"
        }
      ],
      "name": "ConfigSet",
      "type": "event"
    },
    {
      "anonymous": false,
      "inputs": [
        {
          "indexed": false,
          "internalType": "uint256",
          "name": "_groupIndex",
          "type": "uint256"
        },
        {
          "indexed": false,
          "internalType": "uint256",
          "name": "_epoch",
          "type": "uint256"
        },
        {
          "indexed": false,
          "internalType": "uint256",
          "name": "_size",
          "type": "uint256"
        },
        {
          "indexed": false,
          "internalType": "uint256",
          "name": "_threshold",
          "type": "uint256"
        },
        {
          "indexed": false,
          "internalType": "address[]",
          "name": "_members",
          "type": "address[]"
        },
        {
          "indexed": false,
          "internalType": "uint256",
          "name": "_assignmentBlockHeight",
          "type": "uint256"
        },
        {
          "indexed": false,
          "internalType": "address",
          "name": "_coordinatorAddress",
          "type": "address"
        }
      ],
      "name": "DkgTask",
      "type": "event"
    },
    {
      "anonymous": false,
      "inputs": [
        {
          "indexed": true,
          "internalType": "address",
          "name": "previousOwner",
          "type": "address"
        },
        {
          "indexed": true,
          "internalType": "address",
          "name": "newOwner",
          "type": "address"
        }
      ],
      "name": "OwnershipTransferred",
      "type": "event"
    },
    {
      "anonymous": false,
      "inputs": [
        {
          "indexed": true,
          "internalType": "uint256",
          "name": "groupIndex",
          "type": "uint256"
        },
        {
          "indexed": false,
          "internalType": "bytes32",
          "name": "requestId",
          "type": "bytes32"
        },
        {
          "indexed": false,
          "internalType": "address",
          "name": "sender",
          "type": "address"
        },
        {
          "indexed": false,
          "internalType": "uint64",
          "name": "subId",
          "type": "uint64"
        },
        {
          "indexed": false,
          "internalType": "uint256",
          "name": "seed",
          "type": "uint256"
        },
        {
          "indexed": false,
          "internalType": "uint16",
          "name": "requestConfirmations",
          "type": "uint16"
        },
        {
          "indexed": false,
          "internalType": "uint256",
          "name": "callbackGasLimit",
          "type": "uint256"
        },
        {
          "indexed": false,
          "internalType": "uint256",
          "name": "callbackMaxGasPrice",
          "type": "uint256"
        }
      ],
      "name": "RandomnessRequest",
      "type": "event"
    },
    {
      "anonymous": false,
      "inputs": [
        {
          "indexed": false,
          "internalType": "bytes32",
          "name": "requestId",
          "type": "bytes32"
        },
        {
          "indexed": false,
          "internalType": "uint256",
          "name": "output",
          "type": "uint256"
        },
        {
          "indexed": false,
          "internalType": "uint256",
          "name": "payment",
          "type": "uint256"
        },
        {
          "indexed": false,
          "internalType": "bool",
          "name": "success",
          "type": "bool"
        }
      ],
      "name": "RandomnessRequestFulfilled",
      "type": "event"
    },
    {
      "anonymous": false,
      "inputs": [
        {
          "indexed": true,
          "internalType": "uint64",
          "name": "subId",
          "type": "uint64"
        },
        {
          "indexed": false,
          "internalType": "address",
          "name": "consumer",
          "type": "address"
        }
      ],
      "name": "SubscriptionConsumerAdded",
      "type": "event"
    },
    {
      "anonymous": false,
      "inputs": [
        {
          "indexed": true,
          "internalType": "uint64",
          "name": "subId",
          "type": "uint64"
        },
        {
          "indexed": false,
          "internalType": "address",
          "name": "owner",
          "type": "address"
        }
      ],
      "name": "SubscriptionCreated",
      "type": "event"
    },
    {
      "anonymous": false,
      "inputs": [
        {
          "indexed": true,
          "internalType": "uint64",
          "name": "subId",
          "type": "uint64"
        },
        {
          "indexed": false,
          "internalType": "uint256",
          "name": "oldBalance",
          "type": "uint256"
        },
        {
          "indexed": false,
          "internalType": "uint256",
          "name": "newBalance",
          "type": "uint256"
        }
      ],
      "name": "SubscriptionFunded",
      "type": "event"
    },
    {
      "inputs": [],
      "name": "ARPA",
      "outputs": [
        {
          "internalType": "contract IERC20",
          "name": "",
          "type": "address"
        }
      ],
      "stateMutability": "view",
      "type": "function"
    },
    {
      "inputs": [],
      "name": "ARPA_ETH_FEED",
      "outputs": [
        {
          "internalType": "contract AggregatorV3Interface",
          "name": "",
          "type": "address"
        }
      ],
      "stateMutability": "view",
      "type": "function"
    },
    {
      "inputs": [],
      "name": "COMMITTER_REWARD_PER_SIGNATURE",
      "outputs": [
        {
          "internalType": "uint256",
          "name": "",
          "type": "uint256"
        }
      ],
      "stateMutability": "view",
      "type": "function"
    },
    {
      "inputs": [],
      "name": "COORDINATOR_STATE_TRIGGER_REWARD",
      "outputs": [
        {
          "internalType": "uint256",
          "name": "",
          "type": "uint256"
        }
      ],
      "stateMutability": "view",
      "type": "function"
    },
    {
      "inputs": [],
      "name": "DEFAULT_DKG_PHASE_DURATION",
      "outputs": [
        {
          "internalType": "uint256",
          "name": "",
          "type": "uint256"
        }
      ],
      "stateMutability": "view",
      "type": "function"
    },
    {
      "inputs": [],
      "name": "DEFAULT_MINIMUM_THRESHOLD",
      "outputs": [
        {
          "internalType": "uint256",
          "name": "",
          "type": "uint256"
        }
      ],
      "stateMutability": "view",
      "type": "function"
    },
    {
      "inputs": [],
      "name": "DEFAULT_NUMBER_OF_COMMITTERS",
      "outputs": [
        {
          "internalType": "uint256",
          "name": "",
          "type": "uint256"
        }
      ],
      "stateMutability": "view",
      "type": "function"
    },
    {
      "inputs": [],
      "name": "DISQUALIFIED_NODE_PENALTY_AMOUNT",
      "outputs": [
        {
          "internalType": "uint256",
          "name": "",
          "type": "uint256"
        }
      ],
      "stateMutability": "view",
      "type": "function"
    },
    {
      "inputs": [],
      "name": "GROUP_MAX_CAPACITY",
      "outputs": [
        {
          "internalType": "uint256",
          "name": "",
          "type": "uint256"
        }
      ],
      "stateMutability": "view",
      "type": "function"
    },
    {
      "inputs": [],
      "name": "IDEAL_NUMBER_OF_GROUPS",
      "outputs": [
        {
          "internalType": "uint256",
          "name": "",
          "type": "uint256"
        }
      ],
      "stateMutability": "view",
      "type": "function"
    },
    {
      "inputs": [],
      "name": "MAX_CONSUMERS",
      "outputs": [
        {
          "internalType": "uint16",
          "name": "",
          "type": "uint16"
        }
      ],
      "stateMutability": "view",
      "type": "function"
    },
    {
      "inputs": [],
      "name": "MAX_REQUEST_CONFIRMATIONS",
      "outputs": [
        {
          "internalType": "uint16",
          "name": "",
          "type": "uint16"
        }
      ],
      "stateMutability": "view",
      "type": "function"
    },
    {
      "inputs": [],
      "name": "NODE_STAKING_AMOUNT",
      "outputs": [
        {
          "internalType": "uint256",
          "name": "",
          "type": "uint256"
        }
      ],
      "stateMutability": "view",
      "type": "function"
    },
    {
      "inputs": [],
      "name": "PENDING_BLOCK_AFTER_QUIT",
      "outputs": [
        {
          "internalType": "uint256",
          "name": "",
          "type": "uint256"
        }
      ],
      "stateMutability": "view",
      "type": "function"
    },
    {
      "inputs": [],
      "name": "REWARD_PER_SIGNATURE",
      "outputs": [
        {
          "internalType": "uint256",
          "name": "",
          "type": "uint256"
        }
      ],
      "stateMutability": "view",
      "type": "function"
    },
    {
      "inputs": [],
      "name": "SIGNATURE_TASK_EXCLUSIVE_WINDOW",
      "outputs": [
        {
          "internalType": "uint256",
          "name": "",
          "type": "uint256"
        }
      ],
      "stateMutability": "view",
      "type": "function"
    },
    {
      "inputs": [
        {
          "internalType": "uint64",
          "name": "subId",
          "type": "uint64"
        },
        {
          "internalType": "address",
          "name": "consumer",
          "type": "address"
        }
      ],
      "name": "addConsumer",
      "outputs": [],
      "stateMutability": "nonpayable",
      "type": "function"
    },
    {
      "inputs": [
        {
          "internalType": "uint256",
          "name": "startGas",
          "type": "uint256"
        },
        {
          "internalType": "uint256",
          "name": "gasAfterPaymentCalculation",
          "type": "uint256"
        },
        {
          "internalType": "uint32",
          "name": "fulfillmentFlatFeeArpaPPM",
          "type": "uint32"
        },
        {
          "internalType": "uint256",
          "name": "weiPerUnitGas",
          "type": "uint256"
        }
      ],
      "name": "calculatePaymentAmount",
      "outputs": [
        {
          "internalType": "uint96",
          "name": "",
          "type": "uint96"
        }
      ],
      "stateMutability": "view",
      "type": "function"
    },
    {
      "inputs": [
        {
          "internalType": "uint256",
          "name": "seed",
          "type": "uint256"
        },
        {
          "internalType": "uint256[]",
          "name": "indices",
          "type": "uint256[]"
        },
        {
          "internalType": "uint256",
          "name": "count",
          "type": "uint256"
        }
      ],
      "name": "chooseRandomlyFromIndices",
      "outputs": [
        {
          "internalType": "uint256[]",
          "name": "",
          "type": "uint256[]"
        }
      ],
      "stateMutability": "pure",
      "type": "function"
    },
    {
      "inputs": [
        {
          "components": [
            {
              "internalType": "uint256",
              "name": "groupIndex",
              "type": "uint256"
            },
            {
              "internalType": "uint256",
              "name": "groupEpoch",
              "type": "uint256"
            },
            {
              "internalType": "bytes",
              "name": "publicKey",
              "type": "bytes"
            },
            {
              "internalType": "bytes",
              "name": "partialPublicKey",
              "type": "bytes"
            },
            {
              "internalType": "address[]",
              "name": "disqualifiedNodes",
              "type": "address[]"
            }
          ],
          "internalType": "struct Controller.CommitDkgParams",
          "name": "params",
          "type": "tuple"
        }
      ],
      "name": "commitDkg",
      "outputs": [],
      "stateMutability": "nonpayable",
      "type": "function"
    },
    {
      "inputs": [
        {
          "internalType": "uint256",
          "name": "",
          "type": "uint256"
        }
      ],
      "name": "coordinators",
      "outputs": [
        {
          "internalType": "address",
          "name": "",
          "type": "address"
        }
      ],
      "stateMutability": "view",
      "type": "function"
    },
    {
      "inputs": [],
      "name": "createSubscription",
      "outputs": [
        {
          "internalType": "uint64",
          "name": "",
          "type": "uint64"
        }
      ],
      "stateMutability": "nonpayable",
      "type": "function"
    },
    {
      "inputs": [
        {
          "internalType": "uint256",
          "name": "callbackGasLimit",
          "type": "uint256"
        },
        {
          "internalType": "uint256",
          "name": "gasExceptCallback",
          "type": "uint256"
        },
        {
          "internalType": "uint32",
          "name": "fulfillmentFlatFeeArpaPPM",
          "type": "uint32"
        },
        {
          "internalType": "uint256",
          "name": "weiPerUnitGas",
          "type": "uint256"
        }
      ],
      "name": "estimatePaymentAmount",
      "outputs": [
        {
          "internalType": "uint96",
          "name": "",
          "type": "uint96"
        }
      ],
      "stateMutability": "view",
      "type": "function"
    },
    {
      "inputs": [],
      "name": "findOrCreateTargetGroup",
      "outputs": [
        {
          "internalType": "uint256",
          "name": "",
          "type": "uint256"
        },
        {
          "internalType": "bool",
          "name": "",
          "type": "bool"
        }
      ],
      "stateMutability": "nonpayable",
      "type": "function"
    },
    {
      "inputs": [
        {
          "internalType": "uint256",
          "name": "groupIndex",
          "type": "uint256"
        },
        {
          "internalType": "bytes32",
          "name": "requestId",
          "type": "bytes32"
        },
        {
          "internalType": "uint256",
          "name": "signature",
          "type": "uint256"
        },
        {
          "components": [
            {
              "internalType": "address",
              "name": "nodeAddress",
              "type": "address"
            },
            {
              "internalType": "uint256",
              "name": "partialSignature",
              "type": "uint256"
            }
          ],
          "internalType": "struct IAdapter.PartialSignature[]",
          "name": "partialSignatures",
          "type": "tuple[]"
        }
      ],
      "name": "fulfillRandomness",
      "outputs": [],
      "stateMutability": "nonpayable",
      "type": "function"
    },
    {
      "inputs": [
        {
          "internalType": "uint64",
          "name": "subId",
          "type": "uint64"
        },
        {
          "internalType": "uint256",
          "name": "amount",
          "type": "uint256"
        }
      ],
      "name": "fundSubscription",
      "outputs": [],
      "stateMutability": "nonpayable",
      "type": "function"
    },
    {
      "inputs": [
        {
          "internalType": "uint256",
          "name": "groupIndex",
          "type": "uint256"
        }
      ],
      "name": "getCoordinator",
      "outputs": [
        {
          "internalType": "address",
          "name": "",
          "type": "address"
        }
      ],
      "stateMutability": "view",
      "type": "function"
    },
    {
      "inputs": [
        {
          "internalType": "uint64",
          "name": "reqCount",
          "type": "uint64"
        }
      ],
      "name": "getFeeTier",
      "outputs": [
        {
          "internalType": "uint32",
          "name": "",
          "type": "uint32"
        }
      ],
      "stateMutability": "view",
      "type": "function"
    },
    {
      "inputs": [
        {
          "internalType": "uint256",
          "name": "groupIndex",
          "type": "uint256"
        }
      ],
      "name": "getGroup",
      "outputs": [
        {
          "components": [
            {
              "internalType": "uint256",
              "name": "index",
              "type": "uint256"
            },
            {
              "internalType": "uint256",
              "name": "epoch",
              "type": "uint256"
            },
            {
              "internalType": "uint256",
              "name": "size",
              "type": "uint256"
            },
            {
              "internalType": "uint256",
              "name": "threshold",
              "type": "uint256"
            },
            {
              "components": [
                {
                  "internalType": "address",
                  "name": "nodeIdAddress",
                  "type": "address"
                },
                {
                  "internalType": "bytes",
                  "name": "partialPublicKey",
                  "type": "bytes"
                }
              ],
              "internalType": "struct Adapter.Member[]",
              "name": "members",
              "type": "tuple[]"
            },
            {
              "internalType": "address[]",
              "name": "committers",
              "type": "address[]"
            },
            {
              "components": [
                {
                  "internalType": "address[]",
                  "name": "nodeIdAddress",
                  "type": "address[]"
                },
                {
                  "components": [
                    {
                      "internalType": "uint256",
                      "name": "groupEpoch",
                      "type": "uint256"
                    },
                    {
                      "internalType": "bytes",
                      "name": "publicKey",
                      "type": "bytes"
                    },
                    {
                      "internalType": "address[]",
                      "name": "disqualifiedNodes",
                      "type": "address[]"
                    }
                  ],
                  "internalType": "struct Adapter.CommitResult",
                  "name": "commitResult",
                  "type": "tuple"
                }
              ],
              "internalType": "struct Adapter.CommitCache[]",
              "name": "commitCacheList",
              "type": "tuple[]"
            },
            {
              "internalType": "bool",
              "name": "isStrictlyMajorityConsensusReached",
              "type": "bool"
            },
            {
              "internalType": "bytes",
              "name": "publicKey",
              "type": "bytes"
            }
          ],
          "internalType": "struct Adapter.Group",
          "name": "",
          "type": "tuple"
        }
      ],
      "stateMutability": "view",
      "type": "function"
    },
    {
      "inputs": [
        {
          "internalType": "address",
          "name": "consumer",
          "type": "address"
        }
      ],
      "name": "getLastSubscription",
      "outputs": [
        {
          "internalType": "uint64",
          "name": "",
          "type": "uint64"
        }
      ],
      "stateMutability": "view",
      "type": "function"
    },
    {
      "inputs": [
        {
          "internalType": "uint256",
          "name": "groupIndex",
          "type": "uint256"
        },
        {
          "internalType": "uint256",
          "name": "memberIndex",
          "type": "uint256"
        }
      ],
      "name": "getMember",
      "outputs": [
        {
          "components": [
            {
              "internalType": "address",
              "name": "nodeIdAddress",
              "type": "address"
            },
            {
              "internalType": "bytes",
              "name": "partialPublicKey",
              "type": "bytes"
            }
          ],
          "internalType": "struct Adapter.Member",
          "name": "",
          "type": "tuple"
        }
      ],
      "stateMutability": "view",
      "type": "function"
    },
    {
      "inputs": [
        {
          "internalType": "uint256",
          "name": "groupIndex",
          "type": "uint256"
        },
        {
          "internalType": "uint256",
          "name": "memberIndex",
          "type": "uint256"
        }
      ],
      "name": "getMemberAddressByIndex",
      "outputs": [
        {
          "internalType": "address",
          "name": "nodeIdAddress",
          "type": "address"
        }
      ],
      "stateMutability": "view",
      "type": "function"
    },
    {
      "inputs": [
        {
          "internalType": "uint256",
          "name": "groupIndex",
          "type": "uint256"
        },
        {
          "internalType": "address",
          "name": "nodeIdAddress",
          "type": "address"
        }
      ],
      "name": "getMemberIndexByAddress",
      "outputs": [
        {
          "internalType": "int256",
          "name": "memberIndex",
          "type": "int256"
        }
      ],
      "stateMutability": "view",
      "type": "function"
    },
    {
      "inputs": [
        {
          "internalType": "address",
          "name": "nodeAddress",
          "type": "address"
        }
      ],
      "name": "getNode",
      "outputs": [
        {
          "components": [
            {
              "internalType": "address",
              "name": "idAddress",
              "type": "address"
            },
            {
              "internalType": "bytes",
              "name": "dkgPublicKey",
              "type": "bytes"
            },
            {
              "internalType": "bool",
              "name": "state",
              "type": "bool"
            },
            {
              "internalType": "uint256",
              "name": "pendingUntilBlock",
              "type": "uint256"
            },
            {
              "internalType": "uint256",
              "name": "staking",
              "type": "uint256"
            }
          ],
          "internalType": "struct Controller.Node",
          "name": "",
          "type": "tuple"
        }
      ],
      "stateMutability": "view",
      "type": "function"
    },
    {
      "inputs": [
        {
          "internalType": "address[]",
          "name": "nodeAddresses",
          "type": "address[]"
        },
        {
          "internalType": "address[]",
          "name": "disqualifiedNodes",
          "type": "address[]"
        }
      ],
      "name": "getNonDisqualifiedMajorityMembers",
      "outputs": [
        {
          "internalType": "address[]",
          "name": "",
          "type": "address[]"
        }
      ],
      "stateMutability": "pure",
      "type": "function"
    },
    {
      "inputs": [
        {
          "internalType": "bytes32",
          "name": "requestId",
          "type": "bytes32"
        }
      ],
      "name": "getPendingRequest",
      "outputs": [
        {
          "components": [
            {
              "internalType": "address",
              "name": "callbackContract",
              "type": "address"
            },
            {
              "internalType": "enum IRequestTypeBase.RequestType",
              "name": "requestType",
              "type": "uint8"
            },
            {
              "internalType": "bytes",
              "name": "params",
              "type": "bytes"
            },
            {
              "internalType": "uint64",
              "name": "subId",
              "type": "uint64"
            },
            {
              "internalType": "uint256",
              "name": "seed",
              "type": "uint256"
            },
            {
              "internalType": "uint256",
              "name": "blockNum",
              "type": "uint256"
            },
            {
              "internalType": "uint16",
              "name": "requestConfirmations",
              "type": "uint16"
            },
            {
              "internalType": "uint256",
              "name": "callbackGasLimit",
              "type": "uint256"
            },
            {
              "internalType": "uint256",
              "name": "callbackMaxGasPrice",
              "type": "uint256"
            }
          ],
          "internalType": "struct Adapter.Callback",
          "name": "",
          "type": "tuple"
        }
      ],
      "stateMutability": "view",
      "type": "function"
    },
    {
      "inputs": [
        {
          "internalType": "uint64",
          "name": "subId",
          "type": "uint64"
        }
      ],
      "name": "getSubscription",
      "outputs": [
        {
          "internalType": "uint96",
          "name": "balance",
          "type": "uint96"
        },
        {
          "internalType": "uint96",
          "name": "inflightCost",
          "type": "uint96"
        },
        {
          "internalType": "uint64",
          "name": "reqCount",
          "type": "uint64"
        },
        {
          "internalType": "address",
          "name": "owner",
          "type": "address"
        },
        {
          "internalType": "address[]",
          "name": "consumers",
          "type": "address[]"
        }
      ],
      "stateMutability": "view",
      "type": "function"
    },
    {
      "inputs": [],
      "name": "groupCount",
      "outputs": [
        {
          "internalType": "uint256",
          "name": "",
          "type": "uint256"
        }
      ],
      "stateMutability": "view",
      "type": "function"
    },
    {
      "inputs": [
        {
          "internalType": "uint256",
          "name": "",
          "type": "uint256"
        }
      ],
      "name": "groups",
      "outputs": [
        {
          "internalType": "uint256",
          "name": "index",
          "type": "uint256"
        },
        {
          "internalType": "uint256",
          "name": "epoch",
          "type": "uint256"
        },
        {
          "internalType": "uint256",
          "name": "size",
          "type": "uint256"
        },
        {
          "internalType": "uint256",
          "name": "threshold",
          "type": "uint256"
        },
        {
          "internalType": "bool",
          "name": "isStrictlyMajorityConsensusReached",
          "type": "bool"
        },
        {
          "internalType": "bytes",
          "name": "publicKey",
          "type": "bytes"
        }
      ],
      "stateMutability": "view",
      "type": "function"
    },
    {
      "inputs": [],
      "name": "lastAssignedGroupIndex",
      "outputs": [
        {
          "internalType": "uint256",
          "name": "",
          "type": "uint256"
        }
      ],
      "stateMutability": "view",
      "type": "function"
    },
    {
      "inputs": [],
      "name": "lastOutput",
      "outputs": [
        {
          "internalType": "uint256",
          "name": "",
          "type": "uint256"
        }
      ],
      "stateMutability": "view",
      "type": "function"
    },
    {
      "inputs": [
        {
          "internalType": "bytes",
          "name": "dkgPublicKey",
          "type": "bytes"
        }
      ],
      "name": "nodeRegister",
      "outputs": [],
      "stateMutability": "nonpayable",
      "type": "function"
    },
    {
      "inputs": [
        {
          "internalType": "address",
          "name": "",
          "type": "address"
        }
      ],
      "name": "nodes",
      "outputs": [
        {
          "internalType": "address",
          "name": "idAddress",
          "type": "address"
        },
        {
          "internalType": "bytes",
          "name": "dkgPublicKey",
          "type": "bytes"
        },
        {
          "internalType": "bool",
          "name": "state",
          "type": "bool"
        },
        {
          "internalType": "uint256",
          "name": "pendingUntilBlock",
          "type": "uint256"
        },
        {
          "internalType": "uint256",
          "name": "staking",
          "type": "uint256"
        }
      ],
      "stateMutability": "view",
      "type": "function"
    },
    {
      "inputs": [],
      "name": "owner",
      "outputs": [
        {
          "internalType": "address",
          "name": "",
          "type": "address"
        }
      ],
      "stateMutability": "view",
      "type": "function"
    },
    {
      "inputs": [
        {
          "internalType": "uint256",
          "name": "groupIndex",
          "type": "uint256"
        },
        {
          "internalType": "address",
          "name": "nodeIdAddress",
          "type": "address"
        }
      ],
      "name": "partialKeyRegistered",
      "outputs": [
        {
          "internalType": "bool",
          "name": "",
          "type": "bool"
        }
      ],
      "stateMutability": "view",
      "type": "function"
    },
    {
      "inputs": [
        {
          "internalType": "uint256",
          "name": "groupIndex",
          "type": "uint256"
        },
        {
          "internalType": "uint256",
          "name": "groupEpoch",
          "type": "uint256"
        }
      ],
      "name": "postProcessDkg",
      "outputs": [],
      "stateMutability": "nonpayable",
      "type": "function"
    },
    {
      "inputs": [
        {
          "internalType": "uint256",
          "name": "groupAIndex",
          "type": "uint256"
        },
        {
          "internalType": "uint256",
          "name": "groupBIndex",
          "type": "uint256"
        }
      ],
      "name": "rebalanceGroup",
      "outputs": [
        {
          "internalType": "bool",
          "name": "",
          "type": "bool"
        }
      ],
      "stateMutability": "nonpayable",
      "type": "function"
    },
    {
      "inputs": [
        {
          "internalType": "address",
          "name": "nodeIdAddress",
          "type": "address"
        },
        {
          "internalType": "uint256",
          "name": "groupIndex",
          "type": "uint256"
        },
        {
          "internalType": "bool",
          "name": "emitEventInstantly",
          "type": "bool"
        }
      ],
      "name": "removeFromGroup",
      "outputs": [
        {
          "internalType": "bool",
          "name": "",
          "type": "bool"
        }
      ],
      "stateMutability": "nonpayable",
      "type": "function"
    },
    {
      "inputs": [],
      "name": "renounceOwnership",
      "outputs": [],
      "stateMutability": "nonpayable",
      "type": "function"
    },
    {
      "inputs": [
        {
          "components": [
            {
              "internalType": "enum IRequestTypeBase.RequestType",
              "name": "requestType",
              "type": "uint8"
            },
            {
              "internalType": "bytes",
              "name": "params",
              "type": "bytes"
            },
            {
              "internalType": "uint64",
              "name": "subId",
              "type": "uint64"
            },
            {
              "internalType": "uint256",
              "name": "seed",
              "type": "uint256"
            },
            {
              "internalType": "uint16",
              "name": "requestConfirmations",
              "type": "uint16"
            },
            {
              "internalType": "uint256",
              "name": "callbackGasLimit",
              "type": "uint256"
            },
            {
              "internalType": "uint256",
              "name": "callbackMaxGasPrice",
              "type": "uint256"
            }
          ],
          "internalType": "struct IAdapter.RequestRandomnessParams",
          "name": "p",
          "type": "tuple"
        }
      ],
      "name": "requestRandomness",
      "outputs": [
        {
          "internalType": "bytes32",
          "name": "",
          "type": "bytes32"
        }
      ],
      "stateMutability": "nonpayable",
      "type": "function"
    },
    {
      "inputs": [
        {
          "internalType": "address",
          "name": "",
          "type": "address"
        }
      ],
      "name": "rewards",
      "outputs": [
        {
          "internalType": "uint256",
          "name": "",
          "type": "uint256"
        }
      ],
      "stateMutability": "view",
      "type": "function"
    },
    {
      "inputs": [
        {
          "internalType": "bytes32",
          "name": "",
          "type": "bytes32"
        }
      ],
      "name": "s_callbacks",
      "outputs": [
        {
          "internalType": "address",
          "name": "callbackContract",
          "type": "address"
        },
        {
          "internalType": "enum IRequestTypeBase.RequestType",
          "name": "requestType",
          "type": "uint8"
        },
        {
          "internalType": "bytes",
          "name": "params",
          "type": "bytes"
        },
        {
          "internalType": "uint64",
          "name": "subId",
          "type": "uint64"
        },
        {
          "internalType": "uint256",
          "name": "seed",
          "type": "uint256"
        },
        {
          "internalType": "uint256",
          "name": "blockNum",
          "type": "uint256"
        },
        {
          "internalType": "uint16",
          "name": "requestConfirmations",
          "type": "uint16"
        },
        {
          "internalType": "uint256",
          "name": "callbackGasLimit",
          "type": "uint256"
        },
        {
          "internalType": "uint256",
          "name": "callbackMaxGasPrice",
          "type": "uint256"
        }
      ],
      "stateMutability": "view",
      "type": "function"
    },
    {
      "inputs": [
        {
          "internalType": "uint16",
          "name": "minimumRequestConfirmations",
          "type": "uint16"
        },
        {
          "internalType": "uint32",
          "name": "maxGasLimit",
          "type": "uint32"
        },
        {
          "internalType": "uint32",
          "name": "stalenessSeconds",
          "type": "uint32"
        },
        {
          "internalType": "uint32",
          "name": "gasAfterPaymentCalculation",
          "type": "uint32"
        },
        {
          "internalType": "uint32",
          "name": "gasExceptCallback",
          "type": "uint32"
        },
        {
          "internalType": "int256",
          "name": "fallbackWeiPerUnitArpa",
          "type": "int256"
        },
        {
          "components": [
            {
              "internalType": "uint32",
              "name": "fulfillmentFlatFeeArpaPPMTier1",
              "type": "uint32"
            },
            {
              "internalType": "uint32",
              "name": "fulfillmentFlatFeeArpaPPMTier2",
              "type": "uint32"
            },
            {
              "internalType": "uint32",
              "name": "fulfillmentFlatFeeArpaPPMTier3",
              "type": "uint32"
            },
            {
              "internalType": "uint32",
              "name": "fulfillmentFlatFeeArpaPPMTier4",
              "type": "uint32"
            },
            {
              "internalType": "uint32",
              "name": "fulfillmentFlatFeeArpaPPMTier5",
              "type": "uint32"
            },
            {
              "internalType": "uint24",
              "name": "reqsForTier2",
              "type": "uint24"
            },
            {
              "internalType": "uint24",
              "name": "reqsForTier3",
              "type": "uint24"
            },
            {
              "internalType": "uint24",
              "name": "reqsForTier4",
              "type": "uint24"
            },
            {
              "internalType": "uint24",
              "name": "reqsForTier5",
              "type": "uint24"
            }
          ],
          "internalType": "struct Adapter.FeeConfig",
          "name": "feeConfig",
          "type": "tuple"
        }
      ],
      "name": "setConfig",
      "outputs": [],
      "stateMutability": "nonpayable",
      "type": "function"
    },
    {
      "inputs": [
        {
          "internalType": "uint256",
          "name": "groupSize",
          "type": "uint256"
        }
      ],
      "name": "tMinimumThreshold",
      "outputs": [
        {
          "internalType": "uint256",
          "name": "",
          "type": "uint256"
        }
      ],
      "stateMutability": "pure",
      "type": "function"
    },
    {
      "inputs": [
        {
          "internalType": "uint256",
          "name": "groupIndex",
          "type": "uint256"
        }
      ],
      "name": "tNonexistantGroup",
      "outputs": [],
      "stateMutability": "nonpayable",
      "type": "function"
    },
    {
      "inputs": [
        {
          "internalType": "address",
          "name": "newOwner",
          "type": "address"
        }
      ],
      "name": "transferOwnership",
      "outputs": [],
      "stateMutability": "nonpayable",
      "type": "function"
    },
    {
      "inputs": [],
      "name": "validGroupIndices",
      "outputs": [
        {
          "internalType": "uint256[]",
          "name": "",
          "type": "uint256[]"
        }
      ],
      "stateMutability": "view",
      "type": "function"
    }
  ],
  "bytecode": {
    "object": "0x60c06040526722222222222222226005556000600e553480156200002257600080fd5b5060405162010b9038038062010b90833981810160405281019062000048919062000212565b81816200006a6200005e620000dc60201b60201c565b620000e460201b60201c565b8173ffffffffffffffffffffffffffffffffffffffff1660808173ffffffffffffffffffffffffffffffffffffffff16815250508073ffffffffffffffffffffffffffffffffffffffff1660a08173ffffffffffffffffffffffffffffffffffffffff16815250505050505062000259565b600033905090565b60008060009054906101000a900473ffffffffffffffffffffffffffffffffffffffff169050816000806101000a81548173ffffffffffffffffffffffffffffffffffffffff021916908373ffffffffffffffffffffffffffffffffffffffff1602179055508173ffffffffffffffffffffffffffffffffffffffff168173ffffffffffffffffffffffffffffffffffffffff167f8be0079c531659141344cd1fd0a4f28419497f9722a3daafe3b4186f6b6457e060405160405180910390a35050565b600080fd5b600073ffffffffffffffffffffffffffffffffffffffff82169050919050565b6000620001da82620001ad565b9050919050565b620001ec81620001cd565b8114620001f857600080fd5b50565b6000815190506200020c81620001e1565b92915050565b600080604083850312156200022c576200022b620001a8565b5b60006200023c85828601620001fb565b92505060206200024f85828601620001fb565b9150509250929050565b60805160a051620109016200028f6000396000818161480801526179550152600081816125120152614bbc0152620109016000f3fe60806040523480156200001157600080fd5b5060043610620003dc5760003560e01c80638f23b326116200020d578063cc36c1e81162000129578063e37eb96c11620000bd578063f7bbf26a1162000087578063f7bbf26a1462000c69578063fb0882fc1462000c9f578063fda669331462000cd5578063fdc934991462000d0b57620003dc565b8063e37eb96c1462000bd1578063edfcb57f1462000bf1578063f2fde38b1462000c27578063f5d35d551462000c4757620003dc565b8063d164e28d11620000ff578063d164e28d1462000b37578063d2f9f9a71462000b59578063dd2819281462000b8f578063e0b72cfd1462000baf57620003dc565b8063cc36c1e81462000aa9578063ceb606541462000adf578063cfc635d41462000b1557620003dc565b8063a47c769611620001a1578063bcee30e51162000177578063bcee30e51462000a23578063c24f03da1462000a45578063c61eb7b41462000a67578063cc2dcb401462000a8757620003dc565b8063a47c769614620009a5578063aa81d59a14620009df578063bb65bb761462000a0157620003dc565b80639d20904811620001e35780639d20904814620008f55780639ea3b84e146200092b578063a03da9841462000961578063a21a23e4146200098357620003dc565b80638f23b326146200087657806396324bd4146200089857806397228a7e14620008d357620003dc565b80634ab7352311620002fd578063715018a6116200029157806376a911bc116200026757806376a911bc14620007c857806380110e4e14620007fe57806388b12d55146200081e5780638da5cb5b146200085457620003dc565b8063715018a614620007795780637328fceb14620007855780637341c10c14620007a857620003dc565b80635f1cc00511620002d35780635f1cc00514620006df57806362d14450146200071557806364d51a2a14620007375780636fa6dc34146200075957620003dc565b80634ab7352314620006495780634d615424146200066b5780634d79a89314620006a957620003dc565b8063253870ff11620003755780632d0354ec116200034b5780632d0354ec14620005875780633141d14414620005a757806342424d6f14620005dd578063447002a3146200061357620003dc565b8063253870ff14620004f95780632936ff65146200051b5780632b8a7334146200055157620003dc565b80630bf9c5c611620003b75780630bf9c5c6146200045b57806315c48b84146200047b578063189a5a17146200049d5780631bfcb06114620004d757620003dc565b80630351545414620003e15780630700037d14620004035780630b919eef1462000439575b600080fd5b620003eb62000d41565b604051620003fa91906200a1b5565b60405180910390f35b6200042160048036038101906200041b91906200a24b565b62000d46565b6040516200043091906200a1b5565b60405180910390f35b6200044362000d5e565b6040516200045291906200a1b5565b60405180910390f35b6200047960048036038101906200047391906200a2ae565b62000d64565b005b6200048562001103565b6040516200049491906200a314565b60405180910390f35b620004bb6004803603810190620004b591906200a24b565b62001108565b604051620004ce9594939291906200a403565b60405180910390f35b620004e1620011fb565b604051620004f091906200a1b5565b60405180910390f35b6200050362001200565b6040516200051291906200a535565b60405180910390f35b6200053960048036038101906200053391906200a58a565b62001892565b6040516200054891906200a5e6565b60405180910390f35b6200056f60048036038101906200056991906200a767565b62001b4c565b6040516200057e91906200a535565b60405180910390f35b620005a560048036038101906200059f91906200a9d0565b62001d69565b005b620005c56004803603810190620005bf91906200aa84565b620020f5565b604051620005d491906200a5e6565b60405180910390f35b620005fb6004803603810190620005f591906200aacb565b62002214565b6040516200060a91906200aafd565b60405180910390f35b6200063160048036038101906200062b91906200aacb565b62002251565b6040516200064091906200a1b5565b60405180910390f35b6200065362002265565b6040516200066291906200a1b5565b60405180910390f35b6200068960048036038101906200068391906200ab55565b6200226a565b604051620006a0999897969594939291906200ac2c565b60405180910390f35b620006c76004803603810190620006c191906200a2ae565b62002397565b604051620006d691906200ad76565b60405180910390f35b620006fd6004803603810190620006f791906200aacb565b620024dd565b6040516200070c91906200aafd565b60405180910390f35b6200071f62002510565b6040516200072e91906200ae05565b60405180910390f35b6200074162002534565b6040516200075091906200a314565b60405180910390f35b6200077760048036038101906200077191906200aacb565b62002539565b005b6200078362002547565b005b6200078f6200255f565b6040516200079f9291906200ae22565b60405180910390f35b620007c66004803603810190620007c091906200ae80565b62002b49565b005b620007e66004803603810190620007e091906200a24b565b62002f86565b604051620007f591906200aec7565b60405180910390f35b6200081c60048036038101906200081691906200af48565b62002fe6565b005b6200083c60048036038101906200083691906200ab55565b62003198565b6040516200084b91906200b0a7565b60405180910390f35b6200085e62003373565b6040516200086d91906200aafd565b60405180910390f35b620008806200339c565b6040516200088f91906200a1b5565b60405180910390f35b620008b66004803603810190620008b091906200aacb565b620033a2565b604051620008ca969594939291906200b0cb565b60405180910390f35b620008dd6200347b565b604051620008ec91906200a1b5565b60405180910390f35b6200091360048036038101906200090d91906200a24b565b62003481565b6040516200092291906200b1d0565b60405180910390f35b6200094960048036038101906200094391906200b1f4565b620035fb565b6040516200095891906200b28f565b60405180910390f35b6200096b6200372c565b6040516200097a91906200a1b5565b60405180910390f35b6200098d62003731565b6040516200099c91906200aec7565b60405180910390f35b620009c36004803603810190620009bd91906200b2ac565b620038c2565b604051620009d69594939291906200b39b565b60405180910390f35b620009e962003b52565b604051620009f891906200a1b5565b60405180910390f35b62000a0b62003b57565b60405162000a1a91906200a1b5565b60405180910390f35b62000a2d62003b5d565b60405162000a3c91906200a1b5565b60405180910390f35b62000a4f62003b62565b60405162000a5e91906200a1b5565b60405180910390f35b62000a85600480360381019062000a7f91906200b52e565b62003b67565b005b62000a9162004204565b60405162000aa091906200a1b5565b60405180910390f35b62000ac7600480360381019062000ac191906200b1f4565b62004209565b60405162000ad691906200b28f565b60405180910390f35b62000afd600480360381019062000af791906200aacb565b620042d9565b60405162000b0c91906200b9ac565b60405180910390f35b62000b1f62004800565b60405162000b2e91906200a1b5565b60405180910390f35b62000b4162004806565b60405162000b5091906200b9f5565b60405180910390f35b62000b77600480360381019062000b7191906200b2ac565b6200482a565b60405162000b8691906200ba23565b60405180910390f35b62000bad600480360381019062000ba791906200ba40565b62004ab7565b005b62000bb962004d30565b60405162000bc891906200a1b5565b60405180910390f35b62000bef600480360381019062000be991906200bd1d565b62004d35565b005b62000c0f600480360381019062000c0991906200a2ae565b62005881565b60405162000c1e91906200aafd565b60405180910390f35b62000c45600480360381019062000c3f91906200a24b565b620058ed565b005b62000c5162005977565b60405162000c6091906200a1b5565b60405180910390f35b62000c87600480360381019062000c8191906200aa84565b6200597c565b60405162000c9691906200bd7f565b60405180910390f35b62000cbd600480360381019062000cb791906200beaa565b62005a72565b60405162000ccc91906200bf0c565b60405180910390f35b62000cf3600480360381019062000ced91906200a2ae565b62006290565b60405162000d0291906200a5e6565b60405180910390f35b62000d29600480360381019062000d2391906200bf29565b62006ea7565b60405162000d3891906200bfae565b60405180910390f35b600a81565b60036020528060005260406000206000915090505481565b60045481565b600154821062000dab576040517f08c379a000000000000000000000000000000000000000000000000000000000815260040162000da2906200c033565b60405180910390fd5b7fffffffffffffffffffffffffffffffffffffffffffffffffffffffffffffffff62000dd883336200597c565b0362000e1b576040517f08c379a000000000000000000000000000000000000000000000000000000000815260040162000e12906200c0cb565b60405180910390fd5b60006002600084815260200190815260200160002090508060010154821462000e7b576040517f08c379a000000000000000000000000000000000000000000000000000000000815260040162000e72906200c163565b60405180910390fd5b600073ffffffffffffffffffffffffffffffffffffffff166010600085815260200190815260200160002060009054906101000a900473ffffffffffffffffffffffffffffffffffffffff1673ffffffffffffffffffffffffffffffffffffffff160362000f20576040517f08c379a000000000000000000000000000000000000000000000000000000000815260040162000f17906200c1fb565b60405180910390fd5b60006010600085815260200190815260200160002060009054906101000a900473ffffffffffffffffffffffffffffffffffffffff1690507fffffffffffffffffffffffffffffffffffffffffffffffffffffffffffffffff8173ffffffffffffffffffffffffffffffffffffffff1663221f95116040518163ffffffff1660e01b8152600401602060405180830381865afa15801562000fc5573d6000803e3d6000fd5b505050506040513d601f19601f8201168201806040525081019062000feb91906200c25b565b60000b1462001031576040517f08c379a000000000000000000000000000000000000000000000000000000000815260040162001028906200c2dd565b60405180910390fd5b8073ffffffffffffffffffffffffffffffffffffffff16639cb8a26a6040518163ffffffff1660e01b8152600401600060405180830381600087803b1580156200107a57600080fd5b505af11580156200108f573d6000803e3d6000fd5b5050505060006010600086815260200190815260200160002060006101000a81548173ffffffffffffffffffffffffffffffffffffffff021916908373ffffffffffffffffffffffffffffffffffffffff16021790555060008260070160009054906101000a900460ff1690505050505050565b60c881565b600f6020528060005260406000206000915090508060000160009054906101000a900473ffffffffffffffffffffffffffffffffffffffff169080600101805462001153906200c32e565b80601f016020809104026020016040519081016040528092919081815260200182805462001181906200c32e565b8015620011d25780601f10620011a657610100808354040283529160200191620011d2565b820191906000526020600020905b815481529060010190602001808311620011b457829003601f168201915b5050505050908060020160009054906101000a900460ff16908060030154908060040154905085565b606481565b6060600060015467ffffffffffffffff8111156200122357620012226200a608565b5b604051908082528060200260200182016040528015620012525781602001602082028036833780820191505090505b5090506000805b600154811015620017d457600060026000838152602001908152602001600020604051806101200160405290816000820154815260200160018201548152602001600282015481526020016003820154815260200160048201805480602002602001604051908101604052809291908181526020016000905b82821015620013f657838290600052602060002090600202016040518060400160405290816000820160009054906101000a900473ffffffffffffffffffffffffffffffffffffffff1673ffffffffffffffffffffffffffffffffffffffff1673ffffffffffffffffffffffffffffffffffffffff1681526020016001820180546200135e906200c32e565b80601f01602080910402602001604051908101604052809291908181526020018280546200138c906200c32e565b8015620013dd5780601f10620013b157610100808354040283529160200191620013dd565b820191906000526020600020905b815481529060010190602001808311620013bf57829003601f168201915b50505050508152505081526020019060010190620012d2565b505050508152602001600582018054806020026020016040519081016040528092919081815260200182805480156200148557602002820191906000526020600020905b8160009054906101000a900473ffffffffffffffffffffffffffffffffffffffff1673ffffffffffffffffffffffffffffffffffffffff16815260200190600101908083116200143a575b5050505050815260200160068201805480602002602001604051908101604052809291908181526020016000905b82821015620016bf5783829060005260206000209060040201604051806040016040529081600082018054806020026020016040519081016040528092919081815260200182805480156200155e57602002820191906000526020600020905b8160009054906101000a900473ffffffffffffffffffffffffffffffffffffffff1673ffffffffffffffffffffffffffffffffffffffff168152602001906001019080831162001513575b50505050508152602001600182016040518060600160405290816000820154815260200160018201805462001593906200c32e565b80601f0160208091040260200160405190810160405280929190818152602001828054620015c1906200c32e565b8015620016125780601f10620015e65761010080835404028352916020019162001612565b820191906000526020600020905b815481529060010190602001808311620015f457829003601f168201915b5050505050815260200160028201805480602002602001604051908101604052809291908181526020018280548015620016a257602002820191906000526020600020905b8160009054906101000a900473ffffffffffffffffffffffffffffffffffffffff1673ffffffffffffffffffffffffffffffffffffffff168152602001906001019080831162001657575b5050505050815250508152505081526020019060010190620014b3565b5050505081526020016007820160009054906101000a900460ff16151515158152602001600882018054620016f4906200c32e565b80601f016020809104026020016040519081016040528092919081815260200182805462001722906200c32e565b8015620017735780601f10620017475761010080835404028352916020019162001773565b820191906000526020600020905b8154815290600101906020018083116200175557829003601f168201915b50505050508152505090508060e0015115620017bd5781848481518110620017a0576200179f6200c363565b5b6020026020010181815250508280620017b9906200c3c1565b9350505b508080620017cb906200c3c1565b91505062001259565b5060008167ffffffffffffffff811115620017f457620017f36200a608565b5b604051908082528060200260200182016040528015620018235781602001602082028036833780820191505090505b50905060005b8281101562001888578381815181106200184857620018476200c363565b5b60200260200101518282815181106200186657620018656200c363565b5b60200260200101818152505080806200187f906200c3c1565b91505062001829565b5080935050505090565b600080600260008581526020019081526020016000209050806002016000815480929190620018c1906200c40e565b91905055506000816002015403620018de57600091505062001b45565b600080600090505b826004018054905081101562001993578673ffffffffffffffffffffffffffffffffffffffff168360040182815481106200192657620019256200c363565b5b906000526020600020906002020160000160009054906101000a900473ffffffffffffffffffffffffffffffffffffffff1673ffffffffffffffffffffffffffffffffffffffff16036200197d5780915062001993565b80806200198a906200c3c1565b915050620018e6565b508160040160018360040180549050620019ae91906200c43c565b81548110620019c257620019c16200c363565b5b9060005260206000209060020201826004018281548110620019e957620019e86200c363565b5b90600052602060002090600202016000820160009054906101000a900473ffffffffffffffffffffffffffffffffffffffff168160000160006101000a81548173ffffffffffffffffffffffffffffffffffffffff021916908373ffffffffffffffffffffffffffffffffffffffff1602179055506001820181600101908162001a7491906200c657565b509050508160040180548062001a8f5762001a8e6200c758565b5b6001900381819060005260206000209060020201600080820160006101000a81549073ffffffffffffffffffffffffffffffffffffffff021916905560018201600062001add919062009dfe565b50509055600062001af2836002015462007131565b90506003811162001b0557600362001b07565b805b836003018190555060038360020154101562001b2a576001935050505062001b45565b841562001b3d5762001b3c8662007157565b5b600093505050505b9392505050565b606060008267ffffffffffffffff81111562001b6d5762001b6c6200a608565b5b60405190808252806020026020018201604052801562001b9c5781602001602082028036833780820191505090505b5090506000845167ffffffffffffffff81111562001bbf5762001bbe6200a608565b5b60405190808252806020026020018201604052801562001bee5781602001602082028036833780820191505090505b50905060005b855181101562001c545785818151811062001c145762001c136200c363565b5b602002602001015182828151811062001c325762001c316200c363565b5b602002602001018181525050808062001c4b906200c3c1565b91505062001bf4565b5060008151905060005b8581101562001d5b57600082898360405160200162001c7f9291906200c7ac565b6040516020818303038152906040528051906020012060001c62001ca491906200c80b565b905083818151811062001cbc5762001cbb6200c363565b5b602002602001015185838151811062001cda5762001cd96200c363565b5b6020026020010181815250508360018462001cf691906200c43c565b8151811062001d0a5762001d096200c363565b5b602002602001015184828151811062001d285762001d276200c363565b5b602002602001018181525050828062001d41906200c40e565b93505050808062001d52906200c3c1565b91505062001c5e565b508293505050509392505050565b62001d736200763f565b60c861ffff168761ffff16111562001dc957868760c86040517fa738697600000000000000000000000000000000000000000000000000000000815260040162001dc0939291906200c843565b60405180910390fd5b6000821362001e1157816040517f09d2037f00000000000000000000000000000000000000000000000000000000815260040162001e0891906200bd7f565b60405180910390fd5b6040518060c001604052808861ffff1681526020018763ffffffff1681526020016000151581526020018663ffffffff1681526020018563ffffffff1681526020018463ffffffff16815250600760008201518160000160006101000a81548161ffff021916908361ffff16021790555060208201518160000160026101000a81548163ffffffff021916908363ffffffff16021790555060408201518160000160066101000a81548160ff02191690831515021790555060608201518160000160076101000a81548163ffffffff021916908363ffffffff160217905550608082015181600001600b6101000a81548163ffffffff021916908363ffffffff16021790555060a082015181600001600f6101000a81548163ffffffff021916908363ffffffff16021790555090505080600860008201518160000160006101000a81548163ffffffff021916908363ffffffff16021790555060208201518160000160046101000a81548163ffffffff021916908363ffffffff16021790555060408201518160000160086101000a81548163ffffffff021916908363ffffffff160217905550606082015181600001600c6101000a81548163ffffffff021916908363ffffffff16021790555060808201518160000160106101000a81548163ffffffff021916908363ffffffff16021790555060a08201518160000160146101000a81548162ffffff021916908362ffffff16021790555060c08201518160000160176101000a81548162ffffff021916908362ffffff16021790555060e082015181600001601a6101000a81548162ffffff021916908362ffffff16021790555061010082015181600001601d6101000a81548162ffffff021916908362ffffff160217905550905050816006819055507fa07515c322bd28ab957a698d96560ad628e53a3fb4d16a3d5756c6cf411942a28787878787876008604051620020e497969594939291906200cb4b565b60405180910390a150505050505050565b60008060026000858152602001908152602001600020905060005b816004018054905081101562002207578373ffffffffffffffffffffffffffffffffffffffff1682600401828154811062002150576200214f6200c363565b5b906000526020600020906002020160000160009054906101000a900473ffffffffffffffffffffffffffffffffffffffff1673ffffffffffffffffffffffffffffffffffffffff16148015620021df57506000826004018281548110620021bc57620021bb6200c363565b5b90600052602060002090600202016001018054620021da906200c32e565b905014155b15620021f1576001925050506200220e565b8080620021fe906200c3c1565b91505062002110565b5060009150505b92915050565b60006010600083815260200190815260200160002060009054906101000a900473ffffffffffffffffffffffffffffffffffffffff169050919050565b60006200225e8262007131565b9050919050565b600a81565b60096020528060005260406000206000915090508060000160009054906101000a900473ffffffffffffffffffffffffffffffffffffffff16908060000160149054906101000a900460ff1690806001018054620022c8906200c32e565b80601f0160208091040260200160405190810160405280929190818152602001828054620022f6906200c32e565b8015620023475780601f106200231b5761010080835404028352916020019162002347565b820191906000526020600020905b8154815290600101906020018083116200232957829003601f168201915b5050505050908060020160009054906101000a900467ffffffffffffffff16908060030154908060040154908060050160009054906101000a900461ffff16908060060154908060070154905089565b620023a162009e44565b600260008481526020019081526020016000206004018281548110620023cc57620023cb6200c363565b5b90600052602060002090600202016040518060400160405290816000820160009054906101000a900473ffffffffffffffffffffffffffffffffffffffff1673ffffffffffffffffffffffffffffffffffffffff1673ffffffffffffffffffffffffffffffffffffffff1681526020016001820180546200244d906200c32e565b80601f01602080910402602001604051908101604052809291908181526020018280546200247b906200c32e565b8015620024cc5780601f10620024a057610100808354040283529160200191620024cc565b820191906000526020600020905b815481529060010190602001808311620024ae57829003601f168201915b505050505081525050905092915050565b60106020528060005260406000206000915054906101000a900473ffffffffffffffffffffffffffffffffffffffff1681565b7f000000000000000000000000000000000000000000000000000000000000000081565b606481565b620025448162007157565b50565b620025516200763f565b6200255d6000620076c4565b565b600080600060015403620025895760006200257962007788565b9050806000925092505062002b45565b600080600a905060005b60015481101562002ae757600060026000838152602001908152602001600020604051806101200160405290816000820154815260200160018201548152602001600282015481526020016003820154815260200160048201805480602002602001604051908101604052809291908181526020016000905b828210156200273057838290600052602060002090600202016040518060400160405290816000820160009054906101000a900473ffffffffffffffffffffffffffffffffffffffff1673ffffffffffffffffffffffffffffffffffffffff1673ffffffffffffffffffffffffffffffffffffffff16815260200160018201805462002698906200c32e565b80601f0160208091040260200160405190810160405280929190818152602001828054620026c6906200c32e565b8015620027175780601f10620026eb5761010080835404028352916020019162002717565b820191906000526020600020905b815481529060010190602001808311620026f957829003601f168201915b505050505081525050815260200190600101906200260c565b50505050815260200160058201805480602002602001604051908101604052809291908181526020018280548015620027bf57602002820191906000526020600020905b8160009054906101000a900473ffffffffffffffffffffffffffffffffffffffff1673ffffffffffffffffffffffffffffffffffffffff168152602001906001019080831162002774575b5050505050815260200160068201805480602002602001604051908101604052809291908181526020016000905b82821015620029f95783829060005260206000209060040201604051806040016040529081600082018054806020026020016040519081016040528092919081815260200182805480156200289857602002820191906000526020600020905b8160009054906101000a900473ffffffffffffffffffffffffffffffffffffffff1673ffffffffffffffffffffffffffffffffffffffff16815260200190600101908083116200284d575b505050505081526020016001820160405180606001604052908160008201548152602001600182018054620028cd906200c32e565b80601f0160208091040260200160405190810160405280929190818152602001828054620028fb906200c32e565b80156200294c5780601f1062002920576101008083540402835291602001916200294c565b820191906000526020600020905b8154815290600101906020018083116200292e57829003601f168201915b5050505050815260200160028201805480602002602001604051908101604052809291908181526020018280548015620029dc57602002820191906000526020600020905b8160009054906101000a900473ffffffffffffffffffffffffffffffffffffffff1673ffffffffffffffffffffffffffffffffffffffff168152602001906001019080831162002991575b5050505050815250508152505081526020019060010190620027ed565b5050505081526020016007820160009054906101000a900460ff1615151515815260200160088201805462002a2e906200c32e565b80601f016020809104026020016040519081016040528092919081815260200182805462002a5c906200c32e565b801562002aad5780601f1062002a815761010080835404028352916020019162002aad565b820191906000526020600020905b81548152906001019060200180831162002a8f57829003601f168201915b5050505050815250509050828160400151101562002ad057806040015192508193505b50808062002ade906200c3c1565b91505062002593565b50600062002af462001200565b51905060058110801562002b09575060015481145b8062002b155750600a82145b1562002b3a57600062002b2762007788565b9050806001955095505050505062002b45565b826000945094505050505b9091565b816000600b60008367ffffffffffffffff1667ffffffffffffffff16815260200190815260200160002060000160009054906101000a900473ffffffffffffffffffffffffffffffffffffffff169050600073ffffffffffffffffffffffffffffffffffffffff168173ffffffffffffffffffffffffffffffffffffffff160362002c00576040517f1f6a65b600000000000000000000000000000000000000000000000000000000815260040160405180910390fd5b8073ffffffffffffffffffffffffffffffffffffffff163373ffffffffffffffffffffffffffffffffffffffff161462002c7357806040517fd8a3fb5200000000000000000000000000000000000000000000000000000000815260040162002c6a91906200aafd565b60405180910390fd5b600760000160069054906101000a900460ff161562002cbe576040517fed3ba6a600000000000000000000000000000000000000000000000000000000815260040160405180910390fd5b606461ffff16600b60008667ffffffffffffffff1667ffffffffffffffff168152602001908152602001600020600201805490500362002d2a576040517f05a48e0f00000000000000000000000000000000000000000000000000000000815260040160405180910390fd5b6000600a60008573ffffffffffffffffffffffffffffffffffffffff1673ffffffffffffffffffffffffffffffffffffffff16815260200190815260200160002060000160008667ffffffffffffffff1667ffffffffffffffff16815260200190815260200160002060009054906101000a900467ffffffffffffffff1667ffffffffffffffff160362002f80576001600a60008573ffffffffffffffffffffffffffffffffffffffff1673ffffffffffffffffffffffffffffffffffffffff16815260200190815260200160002060000160008667ffffffffffffffff1667ffffffffffffffff16815260200190815260200160002060006101000a81548167ffffffffffffffff021916908367ffffffffffffffff16021790555083600a60008573ffffffffffffffffffffffffffffffffffffffff1673ffffffffffffffffffffffffffffffffffffffff16815260200190815260200160002060010160006101000a81548167ffffffffffffffff021916908367ffffffffffffffff160217905550600b60008567ffffffffffffffff1667ffffffffffffffff168152602001908152602001600020600201839080600181540180825580915050600190039060005260206000200160009091909190916101000a81548173ffffffffffffffffffffffffffffffffffffffff021916908373ffffffffffffffffffffffffffffffffffffffff1602179055508367ffffffffffffffff167f43dc749a04ac8fb825cbd514f7c0e13f13bc6f2ee66043b76629d51776cff8e08460405162002f7791906200aafd565b60405180910390a25b50505050565b6000600a60008373ffffffffffffffffffffffffffffffffffffffff1673ffffffffffffffffffffffffffffffffffffffff16815260200190815260200160002060010160009054906101000a900467ffffffffffffffff169050919050565b600073ffffffffffffffffffffffffffffffffffffffff16600f60003373ffffffffffffffffffffffffffffffffffffffff1673ffffffffffffffffffffffffffffffffffffffff16815260200190815260200160002060000160009054906101000a900473ffffffffffffffffffffffffffffffffffffffff1673ffffffffffffffffffffffffffffffffffffffff1614620030ba576040517f08c379a0000000000000000000000000000000000000000000000000000000008152600401620030b1906200cc19565b60405180910390fd5b6000600f60003373ffffffffffffffffffffffffffffffffffffffff1673ffffffffffffffffffffffffffffffffffffffff1681526020019081526020016000209050338160000160006101000a81548173ffffffffffffffffffffffffffffffffffffffff021916908373ffffffffffffffffffffffffffffffffffffffff1602179055508282826001019182620031559291906200cc46565b5060018160020160006101000a81548160ff0219169083151502179055506000816003018190555061c35081600401819055506200319333620077e6565b505050565b620031a262009e74565b60096000838152602001908152602001600020604051806101200160405290816000820160009054906101000a900473ffffffffffffffffffffffffffffffffffffffff1673ffffffffffffffffffffffffffffffffffffffff1673ffffffffffffffffffffffffffffffffffffffff1681526020016000820160149054906101000a900460ff1660028111156200323f576200323e6200ab87565b5b60028111156200325457620032536200ab87565b5b81526020016001820180546200326a906200c32e565b80601f016020809104026020016040519081016040528092919081815260200182805462003298906200c32e565b8015620032e95780601f10620032bd57610100808354040283529160200191620032e9565b820191906000526020600020905b815481529060010190602001808311620032cb57829003601f168201915b505050505081526020016002820160009054906101000a900467ffffffffffffffff1667ffffffffffffffff1667ffffffffffffffff16815260200160038201548152602001600482015481526020016005820160009054906101000a900461ffff1661ffff1661ffff168152602001600682015481526020016007820154815250509050919050565b60008060009054906101000a900473ffffffffffffffffffffffffffffffffffffffff16905090565b60015481565b60026020528060005260406000206000915090508060000154908060010154908060020154908060030154908060070160009054906101000a900460ff1690806008018054620033f2906200c32e565b80601f016020809104026020016040519081016040528092919081815260200182805462003420906200c32e565b8015620034715780601f10620034455761010080835404028352916020019162003471565b820191906000526020600020905b8154815290600101906020018083116200345357829003601f168201915b5050505050905086565b60055481565b6200348b62009ef9565b600f60008373ffffffffffffffffffffffffffffffffffffffff1673ffffffffffffffffffffffffffffffffffffffff1681526020019081526020016000206040518060a00160405290816000820160009054906101000a900473ffffffffffffffffffffffffffffffffffffffff1673ffffffffffffffffffffffffffffffffffffffff1673ffffffffffffffffffffffffffffffffffffffff1681526020016001820180546200353d906200c32e565b80601f01602080910402602001604051908101604052809291908181526020018280546200356b906200c32e565b8015620035bc5780601f106200359057610100808354040283529160200191620035bc565b820191906000526020600020905b8154815290600101906020018083116200359e57829003601f168201915b505050505081526020016002820160009054906101000a900460ff16151515158152602001600382015481526020016004820154815250509050919050565b6000806200360862007928565b9050600081136200365257806040517f09d2037f0000000000000000000000000000000000000000000000000000000081526004016200364991906200bd7f565b60405180910390fd5b6000815a88886200366491906200cd2b565b6200367091906200c43c565b85670de0b6b3a76400006200368691906200cd88565b6200369291906200cd88565b6200369e91906200cde9565b905060008563ffffffff1664e8d4a51000620036bb91906200cd88565b9050806b033b2e3c9fd0803ce8000000620036d791906200c43c565b82111562003711576040517fe80fa38100000000000000000000000000000000000000000000000000000000815260040160405180910390fd5b80826200371f91906200cd2b565b9350505050949350505050565b600581565b6000600760000160069054906101000a900460ff16156200377e576040517fed3ba6a600000000000000000000000000000000000000000000000000000000815260040160405180910390fd5b600c600081819054906101000a900467ffffffffffffffff1680929190620037a6906200ce21565b91906101000a81548167ffffffffffffffff021916908367ffffffffffffffff1602179055505033600b6000600c60009054906101000a900467ffffffffffffffff1667ffffffffffffffff1667ffffffffffffffff16815260200190815260200160002060000160006101000a81548173ffffffffffffffffffffffffffffffffffffffff021916908373ffffffffffffffffffffffffffffffffffffffff160217905550600c60009054906101000a900467ffffffffffffffff1667ffffffffffffffff167f464722b4166576d3dcbba877b999bc35cf911f4eaf434b7eba68fa113951d0bf336040516200389e91906200aafd565b60405180910390a2600c60009054906101000a900467ffffffffffffffff16905090565b6000806000806060600073ffffffffffffffffffffffffffffffffffffffff16600b60008867ffffffffffffffff1667ffffffffffffffff16815260200190815260200160002060000160009054906101000a900473ffffffffffffffffffffffffffffffffffffffff1673ffffffffffffffffffffffffffffffffffffffff16036200397b576040517f1f6a65b600000000000000000000000000000000000000000000000000000000815260040160405180910390fd5b600b60008767ffffffffffffffff1667ffffffffffffffff16815260200190815260200160002060030160009054906101000a90046bffffffffffffffffffffffff16600b60008867ffffffffffffffff1667ffffffffffffffff168152602001908152602001600020600301600c9054906101000a90046bffffffffffffffffffffffff16600b60008967ffffffffffffffff1667ffffffffffffffff16815260200190815260200160002060050160009054906101000a900467ffffffffffffffff16600b60008a67ffffffffffffffff1667ffffffffffffffff16815260200190815260200160002060000160009054906101000a900473ffffffffffffffffffffffffffffffffffffffff16600b60008b67ffffffffffffffff1667ffffffffffffffff1681526020019081526020016000206002018080548060200260200160405190810160405280929190818152602001828054801562003b3857602002820191906000526020600020905b8160009054906101000a900473ffffffffffffffffffffffffffffffffffffffff1673ffffffffffffffffffffffffffffffffffffffff168152602001906001019080831162003aed575b505050505090509450945094509450945091939590929450565b600381565b6103e881565b603281565b606481565b60005a9050600060096000868152602001908152602001600020604051806101200160405290816000820160009054906101000a900473ffffffffffffffffffffffffffffffffffffffff1673ffffffffffffffffffffffffffffffffffffffff1673ffffffffffffffffffffffffffffffffffffffff1681526020016000820160149054906101000a900460ff16600281111562003c0b5762003c0a6200ab87565b5b600281111562003c205762003c1f6200ab87565b5b815260200160018201805462003c36906200c32e565b80601f016020809104026020016040519081016040528092919081815260200182805462003c64906200c32e565b801562003cb55780601f1062003c895761010080835404028352916020019162003cb5565b820191906000526020600020905b81548152906001019060200180831162003c9757829003601f168201915b505050505081526020016002820160009054906101000a900467ffffffffffffffff1667ffffffffffffffff1667ffffffffffffffff16815260200160038201548152602001600482015481526020016005820160009054906101000a900461ffff1661ffff1661ffff168152602001600682015481526020016007820154815250509050600081608001510362003d79576040517f3688124a00000000000000000000000000000000000000000000000000000000815260040160405180910390fd5b8060c0015161ffff168160a0015162003d9391906200cd2b565b43101562003dd8576040517f08c379a000000000000000000000000000000000000000000000000000000000815260040162003dcf906200cea6565b60405180910390fd5b600a8160a0015162003deb91906200cd2b565b431162003e24576040517ff06e777a00000000000000000000000000000000000000000000000000000000815260040160405180910390fd5b600154861062003e6b576040517f08c379a000000000000000000000000000000000000000000000000000000000815260040162003e62906200c033565b60405180910390fd5b62003e768462007a2c565b62003ead576040517f8529df1f00000000000000000000000000000000000000000000000000000000815260040160405180910390fd5b600060026000888152602001908152602001600020905062003f5a8160050180548060200260200160405190810160405280929190818152602001828054801562003f4e57602002820191906000526020600020905b8160009054906101000a900473ffffffffffffffffffffffffffffffffffffffff1673ffffffffffffffffffffffffffffffffffffffff168152602001906001019080831162003f03575b50505050503362007aaf565b62003f91576040517fd9ce719d00000000000000000000000000000000000000000000000000000000815260040160405180910390fd5b600082608001518360a0015160405160200162003fb09291906200c7ac565b6040516020818303038152906040529050600062003fce8262007b3f565b90506200408562003fdf8862007bb0565b6200407e85600801805462003ff4906200c32e565b80601f016020809104026020016040519081016040528092919081815260200182805462004022906200c32e565b8015620040735780601f10620040475761010080835404028352916020019162004073565b820191906000526020600020905b8154815290600101906020018083116200405557829003601f168201915b505050505062007cdb565b8362007d7a565b620040bc576040517f8baa579f00000000000000000000000000000000000000000000000000000000815260040160405180910390fd5b6000865167ffffffffffffffff811115620040dc57620040db6200a608565b5b6040519080825280602002602001820160405280156200410b5781602001602082028036833780820191505090505b50905060005b8751811015620041a3578781815181106200413157620041306200c363565b5b6020026020010151600001518282815181106200415357620041526200c363565b5b602002602001019073ffffffffffffffffffffffffffffffffffffffff16908173ffffffffffffffffffffffffffffffffffffffff168152505080806200419a906200c3c1565b91505062004111565b50600088604051602001620041b991906200a1b5565b6040516020818303038152906040528051906020012060001c905080600581905550620041ea8a828d8a8a62007fc2565b5050620041f78262008820565b5050505050505050505050565b600381565b6000806200421662007928565b9050600081136200426057806040517f09d2037f0000000000000000000000000000000000000000000000000000000081526004016200425791906200bd7f565b60405180910390fd5b60008187876200427191906200cd2b565b85670de0b6b3a76400006200428791906200cd88565b6200429391906200cd88565b6200429f91906200cde9565b905060008563ffffffff1664e8d4a51000620042bc91906200cd88565b90508082620042cc91906200cd2b565b9350505050949350505050565b620042e362009f40565b60026000838152602001908152602001600020604051806101200160405290816000820154815260200160018201548152602001600282015481526020016003820154815260200160048201805480602002602001604051908101604052809291908181526020016000905b828210156200447357838290600052602060002090600202016040518060400160405290816000820160009054906101000a900473ffffffffffffffffffffffffffffffffffffffff1673ffffffffffffffffffffffffffffffffffffffff1673ffffffffffffffffffffffffffffffffffffffff168152602001600182018054620043db906200c32e565b80601f016020809104026020016040519081016040528092919081815260200182805462004409906200c32e565b80156200445a5780601f106200442e576101008083540402835291602001916200445a565b820191906000526020600020905b8154815290600101906020018083116200443c57829003601f168201915b505050505081525050815260200190600101906200434f565b505050508152602001600582018054806020026020016040519081016040528092919081815260200182805480156200450257602002820191906000526020600020905b8160009054906101000a900473ffffffffffffffffffffffffffffffffffffffff1673ffffffffffffffffffffffffffffffffffffffff1681526020019060010190808311620044b7575b5050505050815260200160068201805480602002602001604051908101604052809291908181526020016000905b828210156200473c578382906000526020600020906004020160405180604001604052908160008201805480602002602001604051908101604052809291908181526020018280548015620045db57602002820191906000526020600020905b8160009054906101000a900473ffffffffffffffffffffffffffffffffffffffff1673ffffffffffffffffffffffffffffffffffffffff168152602001906001019080831162004590575b50505050508152602001600182016040518060600160405290816000820154815260200160018201805462004610906200c32e565b80601f01602080910402602001604051908101604052809291908181526020018280546200463e906200c32e565b80156200468f5780601f1062004663576101008083540402835291602001916200468f565b820191906000526020600020905b8154815290600101906020018083116200467157829003601f168201915b50505050508152602001600282018054806020026020016040519081016040528092919081815260200182805480156200471f57602002820191906000526020600020905b8160009054906101000a900473ffffffffffffffffffffffffffffffffffffffff1673ffffffffffffffffffffffffffffffffffffffff1681526020019060010190808311620046d4575b505050505081525050815250508152602001906001019062004530565b5050505081526020016007820160009054906101000a900460ff1615151515815260200160088201805462004771906200c32e565b80601f01602080910402602001604051908101604052809291908181526020018280546200479f906200c32e565b8015620047f05780601f10620047c457610100808354040283529160200191620047f0565b820191906000526020600020905b815481529060010190602001808311620047d257829003601f168201915b5050505050815250509050919050565b61c35081565b7f000000000000000000000000000000000000000000000000000000000000000081565b6000806008604051806101200160405290816000820160009054906101000a900463ffffffff1663ffffffff1663ffffffff1681526020016000820160049054906101000a900463ffffffff1663ffffffff1663ffffffff1681526020016000820160089054906101000a900463ffffffff1663ffffffff1663ffffffff16815260200160008201600c9054906101000a900463ffffffff1663ffffffff1663ffffffff1681526020016000820160109054906101000a900463ffffffff1663ffffffff1663ffffffff1681526020016000820160149054906101000a900462ffffff1662ffffff1662ffffff1681526020016000820160179054906101000a900462ffffff1662ffffff1662ffffff16815260200160008201601a9054906101000a900462ffffff1662ffffff1662ffffff16815260200160008201601d9054906101000a900462ffffff1662ffffff1662ffffff168152505090508267ffffffffffffffff16600011158015620049b657508060a0015162ffffff168367ffffffffffffffff1611155b15620049ca57806000015191505062004ab2565b8267ffffffffffffffff168160a0015162ffffff1610801562004a0057508060c0015162ffffff168367ffffffffffffffff1611155b1562004a1457806020015191505062004ab2565b8267ffffffffffffffff168160c0015162ffffff1610801562004a4a57508060e0015162ffffff168367ffffffffffffffff1611155b1562004a5e57806040015191505062004ab2565b8267ffffffffffffffff168160e0015162ffffff1610801562004a95575080610100015162ffffff168367ffffffffffffffff1611155b1562004aa957806060015191505062004ab2565b80608001519150505b919050565b600760000160069054906101000a900460ff161562004b02576040517fed3ba6a600000000000000000000000000000000000000000000000000000000815260040160405180910390fd5b600073ffffffffffffffffffffffffffffffffffffffff16600b60008467ffffffffffffffff1667ffffffffffffffff16815260200190815260200160002060000160009054906101000a900473ffffffffffffffffffffffffffffffffffffffff1673ffffffffffffffffffffffffffffffffffffffff160362004bb3576040517f1f6a65b600000000000000000000000000000000000000000000000000000000815260040160405180910390fd5b62004c023330837f000000000000000000000000000000000000000000000000000000000000000073ffffffffffffffffffffffffffffffffffffffff1662008916909392919063ffffffff16565b6000600b60008467ffffffffffffffff1667ffffffffffffffff16815260200190815260200160002060030160009054906101000a90046bffffffffffffffffffffffff166bffffffffffffffffffffffff16905081600b60008567ffffffffffffffff1667ffffffffffffffff16815260200190815260200160002060030160008282829054906101000a90046bffffffffffffffffffffffff1662004caa91906200cec8565b92506101000a8154816bffffffffffffffffffffffff02191690836bffffffffffffffffffffffff1602179055508267ffffffffffffffff167fd39ec07f4e209f627a4c427971473820dc129761ba28de8906bd56f57101d4f882848462004d1391906200cd2b565b60405162004d239291906200cf11565b60405180910390a2505050565b600a81565b60015481600001511062004d80576040517f08c379a000000000000000000000000000000000000000000000000000000000815260040162004d77906200c033565b60405180910390fd5b600073ffffffffffffffffffffffffffffffffffffffff16601060008360000151815260200190815260200160002060009054906101000a900473ffffffffffffffffffffffffffffffffffffffff1673ffffffffffffffffffffffffffffffffffffffff160362004e29576040517f08c379a000000000000000000000000000000000000000000000000000000000815260040162004e20906200c1fb565b60405180910390fd5b6000601060008360000151815260200190815260200160002060009054906101000a900473ffffffffffffffffffffffffffffffffffffffff1690507fffffffffffffffffffffffffffffffffffffffffffffffffffffffffffffffff8173ffffffffffffffffffffffffffffffffffffffff1663221f95116040518163ffffffff1660e01b8152600401602060405180830381865afa15801562004ed2573d6000803e3d6000fd5b505050506040513d601f19601f8201168201806040525081019062004ef891906200c25b565b60000b0362004f3e576040517f08c379a000000000000000000000000000000000000000000000000000000000815260040162004f35906200cf8e565b60405180910390fd5b600060026000846000015181526020019081526020016000209050806001015483602001511462004fa6576040517f08c379a000000000000000000000000000000000000000000000000000000000815260040162004f9d906200d026565b60405180910390fd5b7fffffffffffffffffffffffffffffffffffffffffffffffffffffffffffffffff62004fd78460000151336200597c565b036200501a576040517f08c379a000000000000000000000000000000000000000000000000000000000815260040162005011906200c0cb565b60405180910390fd5b6200502a836000015133620020f5565b156200506d576040517f08c379a000000000000000000000000000000000000000000000000000000000815260040162005064906200d0be565b60405180910390fd5b60006040518060600160405280856020015181526020018560400151815260200185608001518152509050620050a8846000015182620089a3565b620052065760006040518060400160405280600167ffffffffffffffff811115620050d857620050d76200a608565b5b604051908082528060200260200182016040528015620051075781602001602082028036833780820191505090505b5081526020018381525090503381600001516000815181106200512f576200512e6200c363565b5b602002602001019073ffffffffffffffffffffffffffffffffffffffff16908173ffffffffffffffffffffffffffffffffffffffff1681525050826006018190806001815401808255809150506001900390600052602060002090600402016000909190919091506000820151816000019080519060200190620051b592919062009f8e565b50602082015181600101600082015181600001556020820151816001019081620051e091906200d0e0565b506040820151816002019080519060200190620051ff92919062009f8e565b5050505050505b8360600151826004016200521f8660000151336200597c565b815481106200523357620052326200c363565b5b906000526020600020906002020160010190816200525291906200d0e0565b508160070160009054906101000a900460ff166200587b5760006200527b856000015162008b05565b90506000816000015151146200587957600081602001516040015190506000620052aa83600001518362006ea7565b90508460030154815110620058765760005b8251811015620054f45760005b8660040180549050811015620054dd57838281518110620052ef57620052ee6200c363565b5b602002602001015173ffffffffffffffffffffffffffffffffffffffff168760040182815481106200532657620053256200c363565b5b906000526020600020906002020160000160009054906101000a900473ffffffffffffffffffffffffffffffffffffffff1673ffffffffffffffffffffffffffffffffffffffff1603620054c75786600401600188600401805490506200538e91906200c43c565b81548110620053a257620053a16200c363565b5b9060005260206000209060020201876004018281548110620053c957620053c86200c363565b5b90600052602060002090600202016000820160009054906101000a900473ffffffffffffffffffffffffffffffffffffffff168160000160006101000a81548173ffffffffffffffffffffffffffffffffffffffff021916908373ffffffffffffffffffffffffffffffffffffffff160217905550600182018160010190816200545491906200c657565b50905050866004018054806200546f576200546e6200c758565b5b6001900381819060005260206000209060020201600080820160006101000a81549073ffffffffffffffffffffffffffffffffffffffff0219169055600182016000620054bd919062009dfe565b50509055620054dd565b8080620054d4906200c3c1565b915050620052c9565b508080620054eb906200c3c1565b915050620052bc565b5060018560070160006101000a81548160ff021916908315150217905550826020015160400151518560020160008282546200553191906200c43c565b925050819055508260200151602001518560080190816200555391906200d0e0565b506000815167ffffffffffffffff8111156200557457620055736200a608565b5b604051908082528060200260200182016040528015620055a35781602001602082028036833780820191505090505b50905060005b8251811015620056b75760005b8760040180549050811015620056a057838281518110620055dc57620055db6200c363565b5b602002602001015173ffffffffffffffffffffffffffffffffffffffff168860040182815481106200561357620056126200c363565b5b906000526020600020906002020160000160009054906101000a900473ffffffffffffffffffffffffffffffffffffffff1673ffffffffffffffffffffffffffffffffffffffff16036200568a57808383815181106200567857620056776200c363565b5b602002602001018181525050620056a0565b808062005697906200c3c1565b915050620055b6565b508080620056ae906200c3c1565b915050620055a9565b506000620056ca60055483600362001b4c565b9050805167ffffffffffffffff811115620056ea57620056e96200a608565b5b604051908082528060200260200182016040528015620057195781602001602082028036833780820191505090505b508760050190805190602001906200573392919062009f8e565b5060005b81518110156200582057876004018282815181106200575b576200575a6200c363565b5b6020026020010151815481106200577757620057766200c363565b5b906000526020600020906002020160000160009054906101000a900473ffffffffffffffffffffffffffffffffffffffff16886005018281548110620057c257620057c16200c363565b5b9060005260206000200160006101000a81548173ffffffffffffffffffffffffffffffffffffffff021916908373ffffffffffffffffffffffffffffffffffffffff160217905550808062005817906200c3c1565b91505062005737565b5060005b845181101562005872576200585c8582815181106200584857620058476200c363565b5b60200260200101516103e860008062009232565b808062005869906200c3c1565b91505062005824565b5050505b50505b505b50505050565b600080600260008581526020019081526020016000209050806004018381548110620058b257620058b16200c363565b5b906000526020600020906002020160000160009054906101000a900473ffffffffffffffffffffffffffffffffffffffff1691505092915050565b620058f76200763f565b600073ffffffffffffffffffffffffffffffffffffffff168173ffffffffffffffffffffffffffffffffffffffff160362005969576040517f08c379a000000000000000000000000000000000000000000000000000000000815260040162005960906200d23d565b60405180910390fd5b6200597481620076c4565b50565b606481565b60008060026000858152602001908152602001600020905060005b816004018054905081101562005a46578373ffffffffffffffffffffffffffffffffffffffff16826004018281548110620059d757620059d66200c363565b5b906000526020600020906002020160000160009054906101000a900473ffffffffffffffffffffffffffffffffffffffff1673ffffffffffffffffffffffffffffffffffffffff160362005a3057809250505062005a6c565b808062005a3d906200c3c1565b91505062005997565b507fffffffffffffffffffffffffffffffffffffffffffffffffffffffffffffffff9150505b92915050565b60003273ffffffffffffffffffffffffffffffffffffffff163373ffffffffffffffffffffffffffffffffffffffff160362005ae5576040517fc26368fd00000000000000000000000000000000000000000000000000000000815260040162005adc906200d2fb565b60405180910390fd5b600073ffffffffffffffffffffffffffffffffffffffff16600b6000846040015167ffffffffffffffff1667ffffffffffffffff16815260200190815260200160002060000160009054906101000a900473ffffffffffffffffffffffffffffffffffffffff1673ffffffffffffffffffffffffffffffffffffffff160362005b9a576040517f1f6a65b600000000000000000000000000000000000000000000000000000000815260040160405180910390fd5b6000600a60003373ffffffffffffffffffffffffffffffffffffffff1673ffffffffffffffffffffffffffffffffffffffff1681526020019081526020016000206000016000846040015167ffffffffffffffff1667ffffffffffffffff16815260200190815260200160002060009054906101000a900467ffffffffffffffff16905060008167ffffffffffffffff160362005c76578260400151336040517ff0019fe600000000000000000000000000000000000000000000000000000000815260040162005c6d9291906200d31d565b60405180910390fd5b600062005c82620092c2565b9050806004819055506000600a60003373ffffffffffffffffffffffffffffffffffffffff1673ffffffffffffffffffffffffffffffffffffffff1681526020019081526020016000206000016000866040015167ffffffffffffffff1667ffffffffffffffff16815260200190815260200160002060009054906101000a900467ffffffffffffffff169050600062005d2c8660600151338467ffffffffffffffff1662009371565b90506001600a60003373ffffffffffffffffffffffffffffffffffffffff1673ffffffffffffffffffffffffffffffffffffffff1681526020019081526020016000206000016000886040015167ffffffffffffffff1667ffffffffffffffff16815260200190815260200160002060008282829054906101000a900467ffffffffffffffff1662005dbf91906200d34a565b92506101000a81548167ffffffffffffffff021916908367ffffffffffffffff160217905550600062005df282620093ac565b90506000600b6000896040015167ffffffffffffffff1667ffffffffffffffff16815260200190815260200160002060050160009054906101000a900467ffffffffffffffff169050600062005e868960a001516007600001600f9054906101000a900463ffffffff1663ffffffff1662005e7b60018662005e7591906200d34a565b6200482a565b8c60c0015162004209565b9050806bffffffffffffffffffffffff16600b60008b6040015167ffffffffffffffff1667ffffffffffffffff168152602001908152602001600020600301600c9054906101000a90046bffffffffffffffffffffffff16600b60008c6040015167ffffffffffffffff1667ffffffffffffffff16815260200190815260200160002060030160009054906101000a90046bffffffffffffffffffffffff1662005f3191906200d38f565b6bffffffffffffffffffffffff16101562005f78576040517f8894bd5e00000000000000000000000000000000000000000000000000000000815260040160405180910390fd5b80600b60008b6040015167ffffffffffffffff1667ffffffffffffffff168152602001908152602001600020600301600c8282829054906101000a90046bffffffffffffffffffffffff1662005fcf91906200cec8565b92506101000a8154816bffffffffffffffffffffffff02191690836bffffffffffffffffffffffff16021790555080600b60008b6040015167ffffffffffffffff1667ffffffffffffffff168152602001908152602001600020600401600085815260200190815260200160002060006101000a8154816bffffffffffffffffffffffff02191690836bffffffffffffffffffffffff160217905550600073ffffffffffffffffffffffffffffffffffffffff166009600085815260200190815260200160002060000160009054906101000a900473ffffffffffffffffffffffffffffffffffffffff1673ffffffffffffffffffffffffffffffffffffffff1614620060e157620060e06200d3ca565b5b6000600960008581526020019081526020016000209050338160000160006101000a81548173ffffffffffffffffffffffffffffffffffffffff021916908373ffffffffffffffffffffffffffffffffffffffff16021790555089600001518160000160146101000a81548160ff021916908360028111156200616957620061686200ab87565b5b021790555089602001518160010190816200618591906200d0e0565b5089604001518160020160006101000a81548167ffffffffffffffff021916908367ffffffffffffffff16021790555084816003018190555043816004018190555089608001518160050160006101000a81548161ffff021916908361ffff1602179055508960a0015181600601819055508960c001518160070181905550867fa214dda13f90e3098f56c612a31d381b2fac7b48853bf49937773c47174dfe4785338460020160009054906101000a900467ffffffffffffffff1685600301548660050160009054906101000a900461ffff16876006015488600701546040516200627897969594939291906200d3f9565b60405180910390a28398505050505050505050919050565b60008060026000858152602001908152602001600020604051806101200160405290816000820154815260200160018201548152602001600282015481526020016003820154815260200160048201805480602002602001604051908101604052809291908181526020016000905b828210156200642357838290600052602060002090600202016040518060400160405290816000820160009054906101000a900473ffffffffffffffffffffffffffffffffffffffff1673ffffffffffffffffffffffffffffffffffffffff1673ffffffffffffffffffffffffffffffffffffffff1681526020016001820180546200638b906200c32e565b80601f0160208091040260200160405190810160405280929190818152602001828054620063b9906200c32e565b80156200640a5780601f10620063de576101008083540402835291602001916200640a565b820191906000526020600020905b815481529060010190602001808311620063ec57829003601f168201915b50505050508152505081526020019060010190620062ff565b50505050815260200160058201805480602002602001604051908101604052809291908181526020018280548015620064b257602002820191906000526020600020905b8160009054906101000a900473ffffffffffffffffffffffffffffffffffffffff1673ffffffffffffffffffffffffffffffffffffffff168152602001906001019080831162006467575b5050505050815260200160068201805480602002602001604051908101604052809291908181526020016000905b82821015620066ec5783829060005260206000209060040201604051806040016040529081600082018054806020026020016040519081016040528092919081815260200182805480156200658b57602002820191906000526020600020905b8160009054906101000a900473ffffffffffffffffffffffffffffffffffffffff1673ffffffffffffffffffffffffffffffffffffffff168152602001906001019080831162006540575b505050505081526020016001820160405180606001604052908160008201548152602001600182018054620065c0906200c32e565b80601f0160208091040260200160405190810160405280929190818152602001828054620065ee906200c32e565b80156200663f5780601f1062006613576101008083540402835291602001916200663f565b820191906000526020600020905b8154815290600101906020018083116200662157829003601f168201915b5050505050815260200160028201805480602002602001604051908101604052809291908181526020018280548015620066cf57602002820191906000526020600020905b8160009054906101000a900473ffffffffffffffffffffffffffffffffffffffff1673ffffffffffffffffffffffffffffffffffffffff168152602001906001019080831162006684575b5050505050815250508152505081526020019060010190620064e0565b5050505081526020016007820160009054906101000a900460ff1615151515815260200160088201805462006721906200c32e565b80601f01602080910402602001604051908101604052809291908181526020018280546200674f906200c32e565b8015620067a05780601f106200677457610100808354040283529160200191620067a0565b820191906000526020600020905b8154815290600101906020018083116200678257829003601f168201915b5050505050815250509050600060026000858152602001908152602001600020604051806101200160405290816000820154815260200160018201548152602001600282015481526020016003820154815260200160048201805480602002602001604051908101604052809291908181526020016000905b828210156200693d57838290600052602060002090600202016040518060400160405290816000820160009054906101000a900473ffffffffffffffffffffffffffffffffffffffff1673ffffffffffffffffffffffffffffffffffffffff1673ffffffffffffffffffffffffffffffffffffffff168152602001600182018054620068a5906200c32e565b80601f0160208091040260200160405190810160405280929190818152602001828054620068d3906200c32e565b8015620069245780601f10620068f85761010080835404028352916020019162006924565b820191906000526020600020905b8154815290600101906020018083116200690657829003601f168201915b5050505050815250508152602001906001019062006819565b50505050815260200160058201805480602002602001604051908101604052809291908181526020018280548015620069cc57602002820191906000526020600020905b8160009054906101000a900473ffffffffffffffffffffffffffffffffffffffff1673ffffffffffffffffffffffffffffffffffffffff168152602001906001019080831162006981575b5050505050815260200160068201805480602002602001604051908101604052809291908181526020016000905b8282101562006c0657838290600052602060002090600402016040518060400160405290816000820180548060200260200160405190810160405280929190818152602001828054801562006aa557602002820191906000526020600020905b8160009054906101000a900473ffffffffffffffffffffffffffffffffffffffff1673ffffffffffffffffffffffffffffffffffffffff168152602001906001019080831162006a5a575b50505050508152602001600182016040518060600160405290816000820154815260200160018201805462006ada906200c32e565b80601f016020809104026020016040519081016040528092919081815260200182805462006b08906200c32e565b801562006b595780601f1062006b2d5761010080835404028352916020019162006b59565b820191906000526020600020905b81548152906001019060200180831162006b3b57829003601f168201915b505050505081526020016002820180548060200260200160405190810160405280929190818152602001828054801562006be957602002820191906000526020600020905b8160009054906101000a900473ffffffffffffffffffffffffffffffffffffffff1673ffffffffffffffffffffffffffffffffffffffff168152602001906001019080831162006b9e575b5050505050815250508152505081526020019060010190620069fa565b5050505081526020016007820160009054906101000a900460ff1615151515815260200160088201805462006c3b906200c32e565b80601f016020809104026020016040519081016040528092919081815260200182805462006c69906200c32e565b801562006cba5780601f1062006c8e5761010080835404028352916020019162006cba565b820191906000526020600020905b81548152906001019060200180831162006c9c57829003601f168201915b505050505081525050905081604001518160400151111562006ceb5780828092508193505050838580955081965050505b600060028260400151846040015162006d0591906200cd2b565b62006d1191906200cde9565b836040015162006d2291906200c43c565b9050600081148062006d455750600381846040015162006d4391906200c43c565b105b1562006d58576000935050505062006ea1565b600083608001515167ffffffffffffffff81111562006d7c5762006d7b6200a608565b5b60405190808252806020026020018201604052801562006dab5781602001602082028036833780820191505090505b50905060005b84608001515181101562006df8578082828151811062006dd65762006dd56200c363565b5b602002602001018181525050808062006def906200c3c1565b91505062006db1565b50600062006e0a600554838562001b4c565b905060005b815181101562006e8057600082828151811062006e315762006e306200c363565b5b60200260200101519050600062006e498b8362005881565b905062006e59818c600062001892565b5062006e68818b6000620093de565b5050808062006e77906200c3c1565b91505062006e0f565b5062006e8c8862007157565b62006e978762007157565b6001955050505050505b92915050565b60606000835167ffffffffffffffff81111562006ec95762006ec86200a608565b5b60405190808252806020026020018201604052801562006ef85781602001602082028036833780820191505090505b5090506000805b855181101562007042576000805b865181101562006fa55786818151811062006f2d5762006f2c6200c363565b5b602002602001015173ffffffffffffffffffffffffffffffffffffffff1688848151811062006f615762006f606200c363565b5b602002602001015173ffffffffffffffffffffffffffffffffffffffff160362006f8f576001915062006fa5565b808062006f9c906200c3c1565b91505062006f0d565b50806200702b5786828151811062006fc25762006fc16200c363565b5b602002602001015184848151811062006fe05762006fdf6200c363565b5b602002602001019073ffffffffffffffffffffffffffffffffffffffff16908173ffffffffffffffffffffffffffffffffffffffff1681525050828062007027906200c3c1565b9350505b50808062007039906200c3c1565b91505062006eff565b5060008167ffffffffffffffff8111156200706257620070616200a608565b5b604051908082528060200260200182016040528015620070915781602001602082028036833780820191505090505b50905060005b828110156200712457838181518110620070b657620070b56200c363565b5b6020026020010151828281518110620070d457620070d36200c363565b5b602002602001019073ffffffffffffffffffffffffffffffffffffffff16908173ffffffffffffffffffffffffffffffffffffffff168152505080806200711b906200c3c1565b91505062007097565b5080935050505092915050565b600060016002836200714491906200cde9565b6200715091906200cd2b565b9050919050565b60015481106200719e576040517f08c379a000000000000000000000000000000000000000000000000000000000815260040162007195906200c033565b60405180910390fd5b600e6000815480929190620071b3906200c3c1565b91905055506000600260008381526020019081526020016000209050806001016000815480929190620071e6906200c3c1565b919050555060008160070160006101000a81548160ff0219169083151502179055508060050160006200721a91906200a01d565b8060060160006200722c91906200a040565b60008160030154600a60405162007243906200a066565b620072509291906200cf11565b604051809103906000f0801580156200726d573d6000803e3d6000fd5b509050806010600085815260200190815260200160002060006101000a81548173ffffffffffffffffffffffffffffffffffffffff021916908373ffffffffffffffffffffffffffffffffffffffff1602179055506000826002015467ffffffffffffffff811115620072e557620072e46200a608565b5b604051908082528060200260200182016040528015620073145781602001602082028036833780820191505090505b5090506000836002015467ffffffffffffffff8111156200733a57620073396200a608565b5b6040519080825280602002602001820160405280156200736f57816020015b6060815260200190600190039081620073595790505b50905060005b846002015481101562007571578460040181815481106200739b576200739a6200c363565b5b906000526020600020906002020160000160009054906101000a900473ffffffffffffffffffffffffffffffffffffffff16838281518110620073e357620073e26200c363565b5b602002602001019073ffffffffffffffffffffffffffffffffffffffff16908173ffffffffffffffffffffffffffffffffffffffff1681525050600f60008660040183815481106200743a57620074396200c363565b5b906000526020600020906002020160000160009054906101000a900473ffffffffffffffffffffffffffffffffffffffff1673ffffffffffffffffffffffffffffffffffffffff1673ffffffffffffffffffffffffffffffffffffffff1681526020019081526020016000206001018054620074b6906200c32e565b80601f0160208091040260200160405190810160405280929190818152602001828054620074e4906200c32e565b8015620075355780601f10620075095761010080835404028352916020019162007535565b820191906000526020600020905b8154815290600101906020018083116200751757829003601f168201915b505050505082828151811062007550576200754f6200c363565b5b6020026020010181905250808062007568906200c3c1565b91505062007375565b508273ffffffffffffffffffffffffffffffffffffffff166337f8d5ff83836040518363ffffffff1660e01b8152600401620075af9291906200d546565b600060405180830381600087803b158015620075ca57600080fd5b505af1158015620075df573d6000803e3d6000fd5b505050507fddab7a8af4433487de9ecd992d10f1dbaffb04d57e74e8574b2ec1d0356d188c84600001548560010154866002015487600301548643896040516200763097969594939291906200d581565b60405180910390a15050505050565b620076496200953d565b73ffffffffffffffffffffffffffffffffffffffff166200766962003373565b73ffffffffffffffffffffffffffffffffffffffff1614620076c2576040517f08c379a0000000000000000000000000000000000000000000000000000000008152600401620076b9906200d655565b60405180910390fd5b565b60008060009054906101000a900473ffffffffffffffffffffffffffffffffffffffff169050816000806101000a81548173ffffffffffffffffffffffffffffffffffffffff021916908373ffffffffffffffffffffffffffffffffffffffff1602179055508173ffffffffffffffffffffffffffffffffffffffff168173ffffffffffffffffffffffffffffffffffffffff167f8be0079c531659141344cd1fd0a4f28419497f9722a3daafe3b4186f6b6457e060405160405180910390a35050565b600080600154905060016000815480929190620077a5906200c3c1565b919050555060006002600083815260200190815260200160002090508181600001819055506000816002018190555060038160030181905550819250505090565b600080620077f36200255f565b915091506200780583836001620093de565b801562007923576000600180546200781e91906200c43c565b67ffffffffffffffff8111156200783a57620078396200a608565b5b604051908082528060200260200182016040528015620078695781602001602082028036833780820191505090505b5090506000805b600154811015620078cd57808514620078b757808383815181106200789a57620078996200c363565b5b6020026020010181815250508180620078b3906200c3c1565b9250505b8080620078c4906200c3c1565b91505062007870565b5060005b82518110156200791f5762007904838281518110620078f557620078f46200c363565b5b60200260200101518662006290565b6200791f57808062007916906200c3c1565b915050620078d1565b5050505b505050565b600080600760000160079054906101000a900463ffffffff1690506000808263ffffffff161190506000807f000000000000000000000000000000000000000000000000000000000000000073ffffffffffffffffffffffffffffffffffffffff1663feaf968c6040518163ffffffff1660e01b815260040160a060405180830381865afa158015620079bf573d6000803e3d6000fd5b505050506040513d601f19601f82011682018060405250810190620079e591906200d6ec565b909192935090915050809350819250505082801562007a165750814262007a0d91906200c43c565b8463ffffffff16105b1562007a225760065490505b8094505050505090565b6000807f3fffffffffffffffffffffffffffffffffffffffffffffffffffffffffffffff831690507f30644e72e131a029b85045b68181585d97816a916871ca8d3c208c16d87cfd47811062007a8757600091505062007aaa565b6000810362007a9b57600091505062007aaa565b62007aa68162009545565b9150505b919050565b600080600090505b835181101562007b33578273ffffffffffffffffffffffffffffffffffffffff1684828151811062007aee5762007aed6200c363565b5b602002602001015173ffffffffffffffffffffffffffffffffffffffff160362007b1d57600191505062007b39565b808062007b2a906200c3c1565b91505062007ab7565b50600090505b92915050565b62007b496200a074565b600080838051906020012090505b60011562007ba95762007b6a8162009640565b80935081945050508162007ba9578060405160200162007b8b91906200d799565b60405160208183030381529060405280519060200120905062007b57565b5050919050565b62007bba6200a074565b60007f3fffffffffffffffffffffffffffffffffffffffffffffffffffffffffffffff83169050600060fe84901c905060018082160362007c27576040517f53f4c77c00000000000000000000000000000000000000000000000000000000815260040160405180910390fd5b600062007c348362009751565b5080915050600160027f30644e72e131a029b85045b68181585d97816a916871ca8d3c208c16d87cfd4762007c6a91906200cde9565b821162007c7957600062007c7c565b60015b60ff16600184901c180362007cbc57807f30644e72e131a029b85045b68181585d97816a916871ca8d3c208c16d87cfd4762007cb991906200c43c565b90505b6040518060400160405280848152602001828152509350505050919050565b62007ce56200a096565b608082511462007d2c576040517f08c379a000000000000000000000000000000000000000000000000000000000815260040162007d23906200d806565b60405180910390fd5b60008060008060208601519350604086015192506060860151915060808601519050604051806080016040528085815260200184815260200183815260200182815250945050505050919050565b6000806040518061018001604052808660006002811062007da05762007d9f6200c363565b5b602002015181526020018660016002811062007dc15762007dc06200c363565b5b602002015181526020017f198e9393920d483a7260bfb731fb5d25f1aa493335a9e71297e485b7aef312c281526020017f1800deef121f1e76426a00665e5c4479674322d4f75edadd46debd5cd992f6ed81526020017f275dc4a288d1afb3cbb1ac09187524c7db36395df7be3b99e673b13a075a65ec81526020017f1d9befcd05a5323e6da4d435f3b617cdb3af83285c2df711ef39c01571827f9d81526020018460006002811062007e7a5762007e796200c363565b5b602002015181526020018460016002811062007e9b5762007e9a6200c363565b5b602002015181526020018560016004811062007ebc5762007ebb6200c363565b5b602002015181526020018560006004811062007edd5762007edc6200c363565b5b602002015181526020018560036004811062007efe5762007efd6200c363565b5b602002015181526020018560026004811062007f1f5762007f1e6200c363565b5b6020020151815250905062007f336200a0b8565b60006020826101808560086107d05a03fa9050806000810362007f5257fe5b508062007f96576040517f08c379a000000000000000000000000000000000000000000000000000000000815260040162007f8d906200d852565b60405180910390fd5b60008260006001811062007faf5762007fae6200c363565b5b6020020151141593505050509392505050565b600080600060606000600281111562007fe05762007fdf6200ab87565b5b8560200151600281111562007ffa5762007ff96200ab87565b5b0362008082576394985ddd60e01b89896040516024016200801d9291906200d874565b604051602081830303815290604052907bffffffffffffffffffffffffffffffffffffffffffffffffffffffff19166020820180517bffffffffffffffffffffffffffffffffffffffffffffffffffffffff8381831617835250505050905062008316565b600160028111156200809957620080986200ab87565b5b85602001516002811115620080b357620080b26200ab87565b5b036200822b5760008560400151806020019051810190620080d591906200d8b8565b905060008163ffffffff1667ffffffffffffffff811115620080fc57620080fb6200a608565b5b6040519080825280602002602001820160405280156200812b5781602001602082028036833780820191505090505b50905060005b8263ffffffff16811015620081a6578a81604051602001620081559291906200cf11565b6040516020818303038152906040528051906020012060001c8282815181106200818457620081836200c363565b5b60200260200101818152505080806200819d906200c3c1565b91505062008131565b506375bf929b60e01b8b82604051602401620081c49291906200d8ea565b604051602081830303815290604052907bffffffffffffffffffffffffffffffffffffffffffffffffffffffff19166020820180517bffffffffffffffffffffffffffffffffffffffffffffffffffffffff83818316178352505050509250505062008315565b6002808111156200824157620082406200ab87565b5b856020015160028111156200825b576200825a6200ab87565b5b036200831457600085604001518060200190518101906200827d91906200d8b8565b90506000620082938263ffffffff168b62009811565b9050639e5836f660e01b8b82604051602401620082b29291906200d8ea565b604051602081830303815290604052907bffffffffffffffffffffffffffffffffffffffffffffffffffffffff19166020820180517bffffffffffffffffffffffffffffffffffffffffffffffffffffffff8381831617835250505050925050505b5b5b600960008a8152602001908152602001600020600080820160006101000a81549073ffffffffffffffffffffffffffffffffffffffff02191690556000820160146101000a81549060ff021916905560018201600062008377919062009dfe565b6002820160006101000a81549067ffffffffffffffff0219169055600382016000905560048201600090556005820160006101000a81549061ffff02191690556006820160009055600782016000905550506001600760000160066101000a81548160ff021916908315150217905550620083fc8560e00151866000015183620099a0565b92506000600760000160066101000a81548160ff0219169083151502179055506000600b6000876060015167ffffffffffffffff1667ffffffffffffffff16815260200190815260200160002060050160009054906101000a900467ffffffffffffffff1690506001600b6000886060015167ffffffffffffffff1667ffffffffffffffff16815260200190815260200160002060050160008282829054906101000a900467ffffffffffffffff16620084b791906200d34a565b92506101000a81548167ffffffffffffffff021916908367ffffffffffffffff16021790555062008510876007600001600b9054906101000a900463ffffffff1663ffffffff1662008509846200482a565b3a620035fb565b9450846bffffffffffffffffffffffff16600b6000886060015167ffffffffffffffff1667ffffffffffffffff16815260200190815260200160002060030160009054906101000a90046bffffffffffffffffffffffff166bffffffffffffffffffffffff161015620085af576040517f964d765f00000000000000000000000000000000000000000000000000000000815260040160405180910390fd5b600b6000876060015167ffffffffffffffff1667ffffffffffffffff16815260200190815260200160002060040160008b815260200190815260200160002060009054906101000a90046bffffffffffffffffffffffff16600b6000886060015167ffffffffffffffff1667ffffffffffffffff168152602001908152602001600020600301600c8282829054906101000a90046bffffffffffffffffffffffff166200865d91906200d38f565b92506101000a8154816bffffffffffffffffffffffff02191690836bffffffffffffffffffffffff160217905550600b6000876060015167ffffffffffffffff1667ffffffffffffffff16815260200190815260200160002060040160008b815260200190815260200160002060006101000a8154906bffffffffffffffffffffffff021916905584600b6000886060015167ffffffffffffffff1667ffffffffffffffff16815260200190815260200160002060030160008282829054906101000a90046bffffffffffffffffffffffff166200873c91906200d38f565b92506101000a8154816bffffffffffffffffffffffff02191690836bffffffffffffffffffffffff16021790555084600d60008a815260200190815260200160002060008282829054906101000a90046bffffffffffffffffffffffff16620087a691906200cec8565b92506101000a8154816bffffffffffffffffffffffff02191690836bffffffffffffffffffffffff1602179055507fd88a4a5eabb4a3393105ffff9b66be266f127818a80fae1b049c0acfdbf95e6f8a8a87876040516200880b94939291906200d957565b60405180910390a15050509550959350505050565b6064600360003373ffffffffffffffffffffffffffffffffffffffff1673ffffffffffffffffffffffffffffffffffffffff16815260200190815260200160002060008282546200887291906200cd2b565b9250508190555060005b81518110156200891257603260036000848481518110620088a257620088a16200c363565b5b602002602001015173ffffffffffffffffffffffffffffffffffffffff1673ffffffffffffffffffffffffffffffffffffffff1681526020019081526020016000206000828254620088f591906200cd2b565b92505081905550808062008909906200c3c1565b9150506200887c565b5050565b6200899d846323b872dd60e01b8585856040516024016200893a939291906200d9a4565b604051602081830303815290604052907bffffffffffffffffffffffffffffffffffffffffffffffffffffffff19166020820180517bffffffffffffffffffffffffffffffffffffffffffffffffffffffff8381831617835250505050620099f0565b50505050565b60008060026000858152602001908152602001600020905060005b816006018054905081101562008afc5783604051602001620089e191906200da3e565b6040516020818303038152906040528051906020012082600601828154811062008a105762008a0f6200c363565b5b906000526020600020906004020160010160405160200162008a3391906200dc77565b604051602081830303815290604052805190602001200362008ae65781600601818154811062008a685762008a676200c363565b5b9060005260206000209060040201600001339080600181540180825580915050600190039060005260206000200160009091909190916101000a81548173ffffffffffffffffffffffffffffffffffffffff021916908373ffffffffffffffffffffffffffffffffffffffff16021790555060019250505062008aff565b808062008af3906200c3c1565b915050620089be565b50505b92915050565b62008b0f6200a0da565b60006040518060400160405280600067ffffffffffffffff81111562008b3a5762008b396200a608565b5b60405190808252806020026020018201604052801562008b695781602001602082028036833780820191505090505b508152602001604051806060016040528060008152602001604051806020016040528060008152508152602001600067ffffffffffffffff81111562008bb45762008bb36200a608565b5b60405190808252806020026020018201604052801562008be35781602001602082028036833780820191505090505b508152508152509050600060026000858152602001908152602001600020604051806101200160405290816000820154815260200160018201548152602001600282015481526020016003820154815260200160048201805480602002602001604051908101604052809291908181526020016000905b8282101562008d7e57838290600052602060002090600202016040518060400160405290816000820160009054906101000a900473ffffffffffffffffffffffffffffffffffffffff1673ffffffffffffffffffffffffffffffffffffffff1673ffffffffffffffffffffffffffffffffffffffff16815260200160018201805462008ce6906200c32e565b80601f016020809104026020016040519081016040528092919081815260200182805462008d14906200c32e565b801562008d655780601f1062008d395761010080835404028352916020019162008d65565b820191906000526020600020905b81548152906001019060200180831162008d4757829003601f168201915b5050505050815250508152602001906001019062008c5a565b5050505081526020016005820180548060200260200160405190810160405280929190818152602001828054801562008e0d57602002820191906000526020600020905b8160009054906101000a900473ffffffffffffffffffffffffffffffffffffffff1673ffffffffffffffffffffffffffffffffffffffff168152602001906001019080831162008dc2575b5050505050815260200160068201805480602002602001604051908101604052809291908181526020016000905b828210156200904757838290600052602060002090600402016040518060400160405290816000820180548060200260200160405190810160405280929190818152602001828054801562008ee657602002820191906000526020600020905b8160009054906101000a900473ffffffffffffffffffffffffffffffffffffffff1673ffffffffffffffffffffffffffffffffffffffff168152602001906001019080831162008e9b575b50505050508152602001600182016040518060600160405290816000820154815260200160018201805462008f1b906200c32e565b80601f016020809104026020016040519081016040528092919081815260200182805462008f49906200c32e565b801562008f9a5780601f1062008f6e5761010080835404028352916020019162008f9a565b820191906000526020600020905b81548152906001019060200180831162008f7c57829003601f168201915b50505050508152602001600282018054806020026020016040519081016040528092919081815260200182805480156200902a57602002820191906000526020600020905b8160009054906101000a900473ffffffffffffffffffffffffffffffffffffffff1673ffffffffffffffffffffffffffffffffffffffff168152602001906001019080831162008fdf575b505050505081525050815250508152602001906001019062008e3b565b5050505081526020016007820160009054906101000a900460ff161515151581526020016008820180546200907c906200c32e565b80601f0160208091040260200160405190810160405280929190818152602001828054620090aa906200c32e565b8015620090fb5780601f10620090cf57610100808354040283529160200191620090fb565b820191906000526020600020905b815481529060010190602001808311620090dd57829003601f168201915b505050505081525050905060008160c0015151036200911f5781925050506200922d565b60018160c0015151036200915a578060c001516000815181106200914857620091476200c363565b5b6020026020010151925050506200922d565b60006001905060008260c001516000815181106200917d576200917c6200c363565b5b602002602001015190506000600190505b8360c0015151811015620092115760008460c001518281518110620091b857620091b76200c363565b5b602002602001015190508260000151518160000151511115620091e25760019350809250620091fa565b82600001515181600001515103620091f957600093505b5b50808062009208906200c3c1565b9150506200918e565b50816200922557839450505050506200922d565b809450505050505b919050565b6000600f60008673ffffffffffffffffffffffffffffffffffffffff1673ffffffffffffffffffffffffffffffffffffffff1681526020019081526020016000209050838160040160008282546200928b91906200c43c565b9250508190555061c35081600401541080620092a75750600083115b15620092bb57620092ba85848462009abf565b5b5050505050565b600080620092cf62001200565b905060008151036200930d576040517f6905ab6700000000000000000000000000000000000000000000000000000000815260040160405180910390fd5b600060015460016004546200932391906200cd2b565b6200932f91906200c80b565b90505b6200933e828262009ac4565b62009369576001546001826200935591906200cd2b565b6200936191906200c80b565b905062009332565b809250505090565b60008383836040516020016200938a939291906200dc9b565b6040516020818303038152906040528051906020012060001c90509392505050565b600081604051602001620093c191906200dcd8565b604051602081830303815290604052805190602001209050919050565b6000600260008481526020019081526020016000209050620093ff62009e44565b84816000019073ffffffffffffffffffffffffffffffffffffffff16908173ffffffffffffffffffffffffffffffffffffffff16815250508160040181908060018154018082558091505060019003906000526020600020906002020160009091909190915060008201518160000160006101000a81548173ffffffffffffffffffffffffffffffffffffffff021916908373ffffffffffffffffffffffffffffffffffffffff1602179055506020820151816001019081620094c391906200d0e0565b505050816002016000815480929190620094dd906200c3c1565b91905055506000620094f3836002015462007131565b9050600381116200950657600362009508565b805b83600301819055506003836002015410158015620095235750835b156200953557620095348562007157565b5b505050505050565b600033905090565b600080827f30644e72e131a029b85045b68181585d97816a916871ca8d3c208c16d87cfd478182097f30644e72e131a029b85045b68181585d97816a916871ca8d3c208c16d87cfd4782820990507f30644e72e131a029b85045b68181585d97816a916871ca8d3c208c16d87cfd4760038208905060405160208152602080820152602060408201528160608201527f183227397098d014dc2822db40c0ac2ecbc0b548b438e5469e10460b6c3e7ea360808201527f30644e72e131a029b85045b68181585d97816a916871ca8d3c208c16d87cfd4760a082015260208160c08360056107d05a03fa93508051600114945050505050919050565b6200964a6200a074565b60008060007f30644e72e131a029b85045b68181585d97816a916871ca8d3c208c16d87cfd478560001c6200968091906200c80b565b90506200968d8162009751565b809450819350505082156200974a578084600060028110620096b457620096b36200c363565b5b60200201818152505060027f30644e72e131a029b85045b68181585d97816a916871ca8d3c208c16d87cfd47620096ec91906200cde9565b8211620096fa578162009729565b817f30644e72e131a029b85045b68181585d97816a916871ca8d3c208c16d87cfd476200972891906200c43c565b5b8460016002811062009740576200973f6200c363565b5b6020020181815250505b5050915091565b60008060007f30644e72e131a029b85045b68181585d97816a916871ca8d3c208c16d87cfd47806200978857620097876200c7dc565b5b84850990507f30644e72e131a029b85045b68181585d97816a916871ca8d3c208c16d87cfd4780620097bf57620097be6200c7dc565b5b84820990507f30644e72e131a029b85045b68181585d97816a916871ca8d3c208c16d87cfd4780620097f657620097f56200c7dc565b5b600382089050620098078162009b28565b9250925050915091565b606060008367ffffffffffffffff8111156200983257620098316200a608565b5b604051908082528060200260200182016040528015620098615781602001602082028036833780820191505090505b50905060005b84811015620098a957808282815181106200988757620098866200c363565b5b6020026020010181815250508080620098a0906200c3c1565b91505062009867565b506000815190506000805b600083620098c2906200c40e565b935083111562009993578286620098da91906200c80b565b915085604051602001620098ef91906200a1b5565b6040516020818303038152906040528051906020012060001c955083838151811062009920576200991f6200c363565b5b6020026020010151905083828151811062009940576200993f6200c363565b5b60200260200101518484815181106200995e576200995d6200c363565b5b602002602001018181525050808483815181106200998157620099806200c363565b5b602002602001018181525050620098b4565b8394505050505092915050565b60005a611388811015620099b357600080fd5b611388810390508460408204820311620099cc57600080fd5b833b620099d857600080fd5b6000808451602086016000888af19150509392505050565b600062009a54826040518060400160405280602081526020017f5361666545524332303a206c6f772d6c6576656c2063616c6c206661696c65648152508573ffffffffffffffffffffffffffffffffffffffff1662009c199092919063ffffffff16565b905060008151111562009aba578080602001905181019062009a7791906200dd0c565b62009ab9576040517f08c379a000000000000000000000000000000000000000000000000000000000815260040162009ab0906200ddb4565b60405180910390fd5b5b505050565b505050565b600080600090505b835181101562009b1c578284828151811062009aed5762009aec6200c363565b5b60200260200101510362009b0657600191505062009b22565b808062009b13906200c3c1565b91505062009acc565b50600090505b92915050565b600080600060405160208152602080820152602060408201528460608201527f0c19139cb84c680a6e14116da060561765e05aa45a1c72a34f082305b61f3f5260808201527f30644e72e131a029b85045b68181585d97816a916871ca8d3c208c16d87cfd4760a082015260208160c08360056107d05a03fa9150805193507f30644e72e131a029b85045b68181585d97816a916871ca8d3c208c16d87cfd4784850985149250508062009c13576040517f08c379a000000000000000000000000000000000000000000000000000000000815260040162009c0a906200de26565b60405180910390fd5b50915091565b606062009c2a848460008562009c33565b90509392505050565b60608247101562009c7b576040517f08c379a000000000000000000000000000000000000000000000000000000000815260040162009c72906200debe565b60405180910390fd5b6000808673ffffffffffffffffffffffffffffffffffffffff16858760405162009ca691906200df22565b60006040518083038185875af1925050503d806000811462009ce5576040519150601f19603f3d011682016040523d82523d6000602084013e62009cea565b606091505b509150915062009cfd8783838762009d09565b92505050949350505050565b6060831562009d7357600083510362009d6a5762009d278562009d88565b62009d69576040517f08c379a000000000000000000000000000000000000000000000000000000000815260040162009d60906200df8b565b60405180910390fd5b5b82905062009d80565b62009d7f838362009dab565b5b949350505050565b6000808273ffffffffffffffffffffffffffffffffffffffff163b119050919050565b60008251111562009dbf5781518083602001fd5b806040517f08c379a000000000000000000000000000000000000000000000000000000000815260040162009df591906200dff9565b60405180910390fd5b50805462009e0c906200c32e565b6000825580601f1062009e20575062009e41565b601f01602090049060005260206000209081019062009e4091906200a0fc565b5b50565b6040518060400160405280600073ffffffffffffffffffffffffffffffffffffffff168152602001606081525090565b604051806101200160405280600073ffffffffffffffffffffffffffffffffffffffff1681526020016000600281111562009eb45762009eb36200ab87565b5b815260200160608152602001600067ffffffffffffffff1681526020016000815260200160008152602001600061ffff16815260200160008152602001600081525090565b6040518060a00160405280600073ffffffffffffffffffffffffffffffffffffffff1681526020016060815260200160001515815260200160008152602001600081525090565b60405180610120016040528060008152602001600081526020016000815260200160008152602001606081526020016060815260200160608152602001600015158152602001606081525090565b8280548282559060005260206000209081019282156200a00a579160200282015b828111156200a0095782518260006101000a81548173ffffffffffffffffffffffffffffffffffffffff021916908373ffffffffffffffffffffffffffffffffffffffff1602179055509160200191906001019062009faf565b5b5090506200a01991906200a0fc565b5090565b50805460008255906000526020600020908101906200a03d91906200a0fc565b50565b50805460008255600402906000526020600020908101906200a06391906200a11b565b50565b6128ae806200e01e83390190565b6040518060400160405280600290602082028036833780820191505090505090565b6040518060800160405280600490602082028036833780820191505090505090565b6040518060200160405280600190602082028036833780820191505090505090565b6040518060400160405280606081526020016200a0f66200a179565b81525090565b5b808211156200a1175760008160009055506001016200a0fd565b5090565b5b808211156200a17557600080820160006200a13891906200a01d565b600182016000808201600090556001820160006200a157919062009dfe565b6002820160006200a16991906200a01d565b5050506004016200a11c565b5090565b60405180606001604052806000815260200160608152602001606081525090565b6000819050919050565b6200a1af816200a19a565b82525050565b60006020820190506200a1cc60008301846200a1a4565b92915050565b6000604051905090565b600080fd5b600080fd5b600073ffffffffffffffffffffffffffffffffffffffff82169050919050565b60006200a213826200a1e6565b9050919050565b6200a225816200a206565b81146200a23157600080fd5b50565b6000813590506200a245816200a21a565b92915050565b6000602082840312156200a264576200a2636200a1dc565b5b60006200a274848285016200a234565b91505092915050565b6200a288816200a19a565b81146200a29457600080fd5b50565b6000813590506200a2a8816200a27d565b92915050565b600080604083850312156200a2c8576200a2c76200a1dc565b5b60006200a2d8858286016200a297565b92505060206200a2eb858286016200a297565b9150509250929050565b600061ffff82169050919050565b6200a30e816200a2f5565b82525050565b60006020820190506200a32b60008301846200a303565b92915050565b6200a33c816200a206565b82525050565b600081519050919050565b600082825260208201905092915050565b60005b838110156200a37e5780820151818401526020810190506200a361565b838111156200a38e576000848401525b50505050565b6000601f19601f8301169050919050565b60006200a3b2826200a342565b6200a3be81856200a34d565b93506200a3d08185602086016200a35e565b6200a3db816200a394565b840191505092915050565b60008115159050919050565b6200a3fd816200a3e6565b82525050565b600060a0820190506200a41a60008301886200a331565b81810360208301526200a42e81876200a3a5565b90506200a43f60408301866200a3f2565b6200a44e60608301856200a1a4565b6200a45d60808301846200a1a4565b9695505050505050565b600081519050919050565b600082825260208201905092915050565b6000819050602082019050919050565b6200a49e816200a19a565b82525050565b60006200a4b283836200a493565b60208301905092915050565b6000602082019050919050565b60006200a4d8826200a467565b6200a4e481856200a472565b93506200a4f1836200a483565b8060005b838110156200a5285781516200a50c88826200a4a4565b97506200a519836200a4be565b9250506001810190506200a4f5565b5085935050505092915050565b600060208201905081810360008301526200a55181846200a4cb565b905092915050565b6200a564816200a3e6565b81146200a57057600080fd5b50565b6000813590506200a584816200a559565b92915050565b6000806000606084860312156200a5a6576200a5a56200a1dc565b5b60006200a5b6868287016200a234565b93505060206200a5c9868287016200a297565b92505060406200a5dc868287016200a573565b9150509250925092565b60006020820190506200a5fd60008301846200a3f2565b92915050565b600080fd5b7f4e487b7100000000000000000000000000000000000000000000000000000000600052604160045260246000fd5b6200a642826200a394565b810181811067ffffffffffffffff821117156200a664576200a6636200a608565b5b80604052505050565b60006200a6796200a1d2565b90506200a68782826200a637565b919050565b600067ffffffffffffffff8211156200a6aa576200a6a96200a608565b5b602082029050602081019050919050565b600080fd5b60006200a6d76200a6d1846200a68c565b6200a66d565b905080838252602082019050602084028301858111156200a6fd576200a6fc6200a6bb565b5b835b818110156200a72a57806200a71588826200a297565b8452602084019350506020810190506200a6ff565b5050509392505050565b600082601f8301126200a74c576200a74b6200a603565b5b81356200a75e8482602086016200a6c0565b91505092915050565b6000806000606084860312156200a783576200a7826200a1dc565b5b60006200a793868287016200a297565b935050602084013567ffffffffffffffff8111156200a7b7576200a7b66200a1e1565b5b6200a7c5868287016200a734565b92505060406200a7d8868287016200a297565b9150509250925092565b6200a7ed816200a2f5565b81146200a7f957600080fd5b50565b6000813590506200a80d816200a7e2565b92915050565b600063ffffffff82169050919050565b6200a82e816200a813565b81146200a83a57600080fd5b50565b6000813590506200a84e816200a823565b92915050565b6000819050919050565b6200a869816200a854565b81146200a87557600080fd5b50565b6000813590506200a889816200a85e565b92915050565b600080fd5b600080fd5b600062ffffff82169050919050565b6200a8b3816200a899565b81146200a8bf57600080fd5b50565b6000813590506200a8d3816200a8a8565b92915050565b600061012082840312156200a8f3576200a8f26200a88f565b5b6200a9006101206200a66d565b905060006200a912848285016200a83d565b60008301525060206200a928848285016200a83d565b60208301525060406200a93e848285016200a83d565b60408301525060606200a954848285016200a83d565b60608301525060806200a96a848285016200a83d565b60808301525060a06200a980848285016200a8c2565b60a08301525060c06200a996848285016200a8c2565b60c08301525060e06200a9ac848285016200a8c2565b60e0830152506101006200a9c3848285016200a8c2565b6101008301525092915050565b60008060008060008060006101e0888a0312156200a9f3576200a9f26200a1dc565b5b60006200aa038a828b016200a7fc565b97505060206200aa168a828b016200a83d565b96505060406200aa298a828b016200a83d565b95505060606200aa3c8a828b016200a83d565b94505060806200aa4f8a828b016200a83d565b93505060a06200aa628a828b016200a878565b92505060c06200aa758a828b016200a8d9565b91505092959891949750929550565b600080604083850312156200aa9e576200aa9d6200a1dc565b5b60006200aaae858286016200a297565b92505060206200aac1858286016200a234565b9150509250929050565b6000602082840312156200aae4576200aae36200a1dc565b5b60006200aaf4848285016200a297565b91505092915050565b60006020820190506200ab1460008301846200a331565b92915050565b6000819050919050565b6200ab2f816200ab1a565b81146200ab3b57600080fd5b50565b6000813590506200ab4f816200ab24565b92915050565b6000602082840312156200ab6e576200ab6d6200a1dc565b5b60006200ab7e848285016200ab3e565b91505092915050565b7f4e487b7100000000000000000000000000000000000000000000000000000000600052602160045260246000fd5b600381106200abca576200abc96200ab87565b5b50565b60008190506200abdd826200abb6565b919050565b60006200abef826200abcd565b9050919050565b6200ac01816200abe2565b82525050565b600067ffffffffffffffff82169050919050565b6200ac26816200ac07565b82525050565b6000610120820190506200ac44600083018c6200a331565b6200ac53602083018b6200abf6565b81810360408301526200ac67818a6200a3a5565b90506200ac7860608301896200ac1b565b6200ac8760808301886200a1a4565b6200ac9660a08301876200a1a4565b6200aca560c08301866200a303565b6200acb460e08301856200a1a4565b6200acc46101008301846200a1a4565b9a9950505050505050505050565b6200acdd816200a206565b82525050565b600082825260208201905092915050565b60006200ad01826200a342565b6200ad0d81856200ace3565b93506200ad1f8185602086016200a35e565b6200ad2a816200a394565b840191505092915050565b60006040830160008301516200ad4f60008601826200acd2565b50602083015184820360208601526200ad6982826200acf4565b9150508091505092915050565b600060208201905081810360008301526200ad9281846200ad35565b905092915050565b6000819050919050565b60006200adc56200adbf6200adb9846200a1e6565b6200ad9a565b6200a1e6565b9050919050565b60006200add9826200ada4565b9050919050565b60006200aded826200adcc565b9050919050565b6200adff816200ade0565b82525050565b60006020820190506200ae1c60008301846200adf4565b92915050565b60006040820190506200ae3960008301856200a1a4565b6200ae4860208301846200a3f2565b9392505050565b6200ae5a816200ac07565b81146200ae6657600080fd5b50565b6000813590506200ae7a816200ae4f565b92915050565b600080604083850312156200ae9a576200ae996200a1dc565b5b60006200aeaa858286016200ae69565b92505060206200aebd858286016200a234565b9150509250929050565b60006020820190506200aede60008301846200ac1b565b92915050565b600080fd5b60008083601f8401126200af02576200af016200a603565b5b8235905067ffffffffffffffff8111156200af22576200af216200aee4565b5b6020830191508360018202830111156200af41576200af406200a6bb565b5b9250929050565b600080602083850312156200af62576200af616200a1dc565b5b600083013567ffffffffffffffff8111156200af83576200af826200a1e1565b5b6200af91858286016200aee9565b92509250509250929050565b6200afa8816200abe2565b82525050565b6200afb9816200ac07565b82525050565b6200afca816200a2f5565b82525050565b6000610120830160008301516200afeb60008601826200acd2565b5060208301516200b00060208601826200af9d565b50604083015184820360408601526200b01a82826200acf4565b91505060608301516200b03160608601826200afae565b5060808301516200b04660808601826200a493565b5060a08301516200b05b60a08601826200a493565b5060c08301516200b07060c08601826200afbf565b5060e08301516200b08560e08601826200a493565b506101008301516200b09c6101008601826200a493565b508091505092915050565b600060208201905081810360008301526200b0c381846200afd0565b905092915050565b600060c0820190506200b0e260008301896200a1a4565b6200b0f160208301886200a1a4565b6200b10060408301876200a1a4565b6200b10f60608301866200a1a4565b6200b11e60808301856200a3f2565b81810360a08301526200b13281846200a3a5565b9050979650505050505050565b6200b14a816200a3e6565b82525050565b600060a0830160008301516200b16a60008601826200acd2565b50602083015184820360208601526200b18482826200acf4565b91505060408301516200b19b60408601826200b13f565b5060608301516200b1b060608601826200a493565b5060808301516200b1c560808601826200a493565b508091505092915050565b600060208201905081810360008301526200b1ec81846200b150565b905092915050565b600080600080608085870312156200b211576200b2106200a1dc565b5b60006200b221878288016200a297565b94505060206200b234878288016200a297565b93505060406200b247878288016200a83d565b92505060606200b25a878288016200a297565b91505092959194509250565b60006bffffffffffffffffffffffff82169050919050565b6200b289816200b266565b82525050565b60006020820190506200b2a660008301846200b27e565b92915050565b6000602082840312156200b2c5576200b2c46200a1dc565b5b60006200b2d5848285016200ae69565b91505092915050565b600081519050919050565b600082825260208201905092915050565b6000819050602082019050919050565b60006200b31883836200acd2565b60208301905092915050565b6000602082019050919050565b60006200b33e826200b2de565b6200b34a81856200b2e9565b93506200b357836200b2fa565b8060005b838110156200b38e5781516200b37288826200b30a565b97506200b37f836200b324565b9250506001810190506200b35b565b5085935050505092915050565b600060a0820190506200b3b260008301886200b27e565b6200b3c160208301876200b27e565b6200b3d060408301866200ac1b565b6200b3df60608301856200a331565b81810360808301526200b3f381846200b331565b90509695505050505050565b600067ffffffffffffffff8211156200b41d576200b41c6200a608565b5b602082029050602081019050919050565b6000604082840312156200b447576200b4466200a88f565b5b6200b45360406200a66d565b905060006200b465848285016200a234565b60008301525060206200b47b848285016200a297565b60208301525092915050565b60006200b49e6200b498846200b3ff565b6200a66d565b905080838252602082019050604084028301858111156200b4c4576200b4c36200a6bb565b5b835b818110156200b4f157806200b4dc88826200b42e565b8452602084019350506040810190506200b4c6565b5050509392505050565b600082601f8301126200b513576200b5126200a603565b5b81356200b5258482602086016200b487565b91505092915050565b600080600080608085870312156200b54b576200b54a6200a1dc565b5b60006200b55b878288016200a297565b94505060206200b56e878288016200ab3e565b93505060406200b581878288016200a297565b925050606085013567ffffffffffffffff8111156200b5a5576200b5a46200a1e1565b5b6200b5b3878288016200b4fb565b91505092959194509250565b600081519050919050565b600082825260208201905092915050565b6000819050602082019050919050565b60006040830160008301516200b60560008601826200acd2565b50602083015184820360208601526200b61f82826200acf4565b9150508091505092915050565b60006200b63a83836200b5eb565b905092915050565b6000602082019050919050565b60006200b65c826200b5bf565b6200b66881856200b5ca565b9350836020820285016200b67c856200b5db565b8060005b858110156200b6be57848403895281516200b69c85826200b62c565b94506200b6a9836200b642565b925060208a019950506001810190506200b680565b50829750879550505050505092915050565b600082825260208201905092915050565b60006200b6ee826200b2de565b6200b6fa81856200b6d0565b93506200b707836200b2fa565b8060005b838110156200b73e5781516200b72288826200b30a565b97506200b72f836200b324565b9250506001810190506200b70b565b5085935050505092915050565b600081519050919050565b600082825260208201905092915050565b6000819050602082019050919050565b60006060830160008301516200b79160008601826200a493565b50602083015184820360208601526200b7ab82826200acf4565b915050604083015184820360408601526200b7c782826200b6e1565b9150508091505092915050565b600060408301600083015184820360008601526200b7f382826200b6e1565b915050602083015184820360208601526200b80f82826200b777565b9150508091505092915050565b60006200b82a83836200b7d4565b905092915050565b6000602082019050919050565b60006200b84c826200b74b565b6200b85881856200b756565b9350836020820285016200b86c856200b767565b8060005b858110156200b8ae57848403895281516200b88c85826200b81c565b94506200b899836200b832565b925060208a019950506001810190506200b870565b50829750879550505050505092915050565b6000610120830160008301516200b8db60008601826200a493565b5060208301516200b8f060208601826200a493565b5060408301516200b90560408601826200a493565b5060608301516200b91a60608601826200a493565b50608083015184820360808601526200b93482826200b64f565b91505060a083015184820360a08601526200b95082826200b6e1565b91505060c083015184820360c08601526200b96c82826200b83f565b91505060e08301516200b98360e08601826200b13f565b506101008301518482036101008601526200b99f82826200acf4565b9150508091505092915050565b600060208201905081810360008301526200b9c881846200b8c0565b905092915050565b60006200b9dd826200adcc565b9050919050565b6200b9ef816200b9d0565b82525050565b60006020820190506200ba0c60008301846200b9e4565b92915050565b6200ba1d816200a813565b82525050565b60006020820190506200ba3a60008301846200ba12565b92915050565b600080604083850312156200ba5a576200ba596200a1dc565b5b60006200ba6a858286016200ae69565b92505060206200ba7d858286016200a297565b9150509250929050565b600080fd5b600067ffffffffffffffff8211156200baaa576200baa96200a608565b5b6200bab5826200a394565b9050602081019050919050565b82818337600083830152505050565b60006200bae86200bae2846200ba8c565b6200a66d565b9050828152602081018484840111156200bb07576200bb066200ba87565b5b6200bb148482856200bac2565b509392505050565b600082601f8301126200bb34576200bb336200a603565b5b81356200bb468482602086016200bad1565b91505092915050565b600067ffffffffffffffff8211156200bb6d576200bb6c6200a608565b5b602082029050602081019050919050565b60006200bb956200bb8f846200bb4f565b6200a66d565b905080838252602082019050602084028301858111156200bbbb576200bbba6200a6bb565b5b835b818110156200bbe857806200bbd388826200a234565b8452602084019350506020810190506200bbbd565b5050509392505050565b600082601f8301126200bc0a576200bc096200a603565b5b81356200bc1c8482602086016200bb7e565b91505092915050565b600060a082840312156200bc3e576200bc3d6200a88f565b5b6200bc4a60a06200a66d565b905060006200bc5c848285016200a297565b60008301525060206200bc72848285016200a297565b602083015250604082013567ffffffffffffffff8111156200bc99576200bc986200a894565b5b6200bca7848285016200bb1c565b604083015250606082013567ffffffffffffffff8111156200bcce576200bccd6200a894565b5b6200bcdc848285016200bb1c565b606083015250608082013567ffffffffffffffff8111156200bd03576200bd026200a894565b5b6200bd11848285016200bbf2565b60808301525092915050565b6000602082840312156200bd36576200bd356200a1dc565b5b600082013567ffffffffffffffff8111156200bd57576200bd566200a1e1565b5b6200bd65848285016200bc25565b91505092915050565b6200bd79816200a854565b82525050565b60006020820190506200bd9660008301846200bd6e565b92915050565b600381106200bdaa57600080fd5b50565b6000813590506200bdbe816200bd9c565b92915050565b600060e082840312156200bddd576200bddc6200a88f565b5b6200bde960e06200a66d565b905060006200bdfb848285016200bdad565b600083015250602082013567ffffffffffffffff8111156200be22576200be216200a894565b5b6200be30848285016200bb1c565b60208301525060406200be46848285016200ae69565b60408301525060606200be5c848285016200a297565b60608301525060806200be72848285016200a7fc565b60808301525060a06200be88848285016200a297565b60a08301525060c06200be9e848285016200a297565b60c08301525092915050565b6000602082840312156200bec3576200bec26200a1dc565b5b600082013567ffffffffffffffff8111156200bee4576200bee36200a1e1565b5b6200bef2848285016200bdc4565b91505092915050565b6200bf06816200ab1a565b82525050565b60006020820190506200bf2360008301846200befb565b92915050565b600080604083850312156200bf43576200bf426200a1dc565b5b600083013567ffffffffffffffff8111156200bf64576200bf636200a1e1565b5b6200bf72858286016200bbf2565b925050602083013567ffffffffffffffff8111156200bf96576200bf956200a1e1565b5b6200bfa4858286016200bbf2565b9150509250929050565b600060208201905081810360008301526200bfca81846200b331565b905092915050565b600082825260208201905092915050565b7f47726f757020646f6573206e6f74206578697374000000000000000000000000600082015250565b60006200c01b6014836200bfd2565b91506200c028826200bfe3565b602082019050919050565b600060208201905081810360008301526200c04e816200c00c565b9050919050565b7f4e6f6465206973206e6f742061206d656d626572206f66207468652067726f7560008201527f7000000000000000000000000000000000000000000000000000000000000000602082015250565b60006200c0b36021836200bfd2565b91506200c0c0826200c055565b604082019050919050565b600060208201905081810360008301526200c0e6816200c0a4565b9050919050565b7f43616c6c65722047726f75702065706f636820646f6573206e6f74206d61746360008201527f6820436f6e74726f6c6c65722047726f75702065706f63680000000000000000602082015250565b60006200c14b6038836200bfd2565b91506200c158826200c0ed565b604082019050919050565b600060208201905081810360008301526200c17e816200c13c565b9050919050565b7f436f6f7264696e61746f72206e6f7420666f756e6420666f722067726f75704960008201527f6e64657800000000000000000000000000000000000000000000000000000000602082015250565b60006200c1e36024836200bfd2565b91506200c1f0826200c185565b604082019050919050565b600060208201905081810360008301526200c216816200c1d4565b9050919050565b60008160000b9050919050565b6200c235816200c21d565b81146200c24157600080fd5b50565b6000815190506200c255816200c22a565b92915050565b6000602082840312156200c274576200c2736200a1dc565b5b60006200c284848285016200c244565b91505092915050565b7f444b47207374696c6c20696e2070726f67726573730000000000000000000000600082015250565b60006200c2c56015836200bfd2565b91506200c2d2826200c28d565b602082019050919050565b600060208201905081810360008301526200c2f8816200c2b6565b9050919050565b7f4e487b7100000000000000000000000000000000000000000000000000000000600052602260045260246000fd5b600060028204905060018216806200c34757607f821691505b6020821081036200c35d576200c35c6200c2ff565b5b50919050565b7f4e487b7100000000000000000000000000000000000000000000000000000000600052603260045260246000fd5b7f4e487b7100000000000000000000000000000000000000000000000000000000600052601160045260246000fd5b60006200c3ce826200a19a565b91507fffffffffffffffffffffffffffffffffffffffffffffffffffffffffffffffff82036200c403576200c4026200c392565b5b600182019050919050565b60006200c41b826200a19a565b9150600082036200c431576200c4306200c392565b5b600182039050919050565b60006200c449826200a19a565b91506200c456836200a19a565b9250828210156200c46c576200c46b6200c392565b5b828203905092915050565b6000815490506200c488816200c32e565b9050919050565b60008190508160005260206000209050919050565b60006020601f8301049050919050565b600082821b905092915050565b6000600883026200c4f37fffffffffffffffffffffffffffffffffffffffffffffffffffffffffffffffff826200c4b4565b6200c4ff86836200c4b4565b95508019841693508086168417925050509392505050565b60006200c5386200c5326200c52c846200a19a565b6200ad9a565b6200a19a565b9050919050565b6000819050919050565b6200c554836200c517565b6200c56c6200c563826200c53f565b8484546200c4c1565b825550505050565b600090565b6200c5836200c574565b6200c5908184846200c549565b505050565b5b818110156200c5b8576200c5ac6000826200c579565b6001810190506200c596565b5050565b601f8211156200c607576200c5d1816200c48f565b6200c5dc846200c4a4565b810160208510156200c5ec578190505b6200c6046200c5fb856200c4a4565b8301826200c595565b50505b505050565b600082821c905092915050565b60006200c62c600019846008026200c60c565b1980831691505092915050565b60006200c64783836200c619565b9150826002028217905092915050565b8181036200c6675750506200c756565b6200c672826200c477565b67ffffffffffffffff8111156200c68e576200c68d6200a608565b5b6200c69a82546200c32e565b6200c6a78282856200c5bc565b6000601f8311600181146200c6db57600084156200c6c6578287015490505b6200c6d285826200c639565b8655506200c74f565b601f1984166200c6eb876200c48f565b96506200c6f8866200c48f565b60005b828110156200c722578489015482556001820191506001850194506020810190506200c6fb565b868310156200c74257848901546200c73e601f8916826200c619565b8355505b6001600288020188555050505b5050505050505b565b7f4e487b7100000000000000000000000000000000000000000000000000000000600052603160045260246000fd5b6000819050919050565b6200c7a66200c7a0826200a19a565b6200c787565b82525050565b60006200c7ba82856200c791565b6020820191506200c7cc82846200c791565b6020820191508190509392505050565b7f4e487b7100000000000000000000000000000000000000000000000000000000600052601260045260246000fd5b60006200c818826200a19a565b91506200c825836200a19a565b9250826200c838576200c8376200c7dc565b5b828206905092915050565b60006060820190506200c85a60008301866200a303565b6200c86960208301856200a303565b6200c87860408301846200a303565b949350505050565b60008160001c9050919050565b600063ffffffff82169050919050565b60006200c8b46200c8ae836200c880565b6200c88d565b9050919050565b6200c8c6816200a813565b82525050565b60008160201c9050919050565b60006200c8f06200c8ea836200c8cc565b6200c88d565b9050919050565b60008160401c9050919050565b60006200c91b6200c915836200c8f7565b6200c88d565b9050919050565b60008160601c9050919050565b60006200c9466200c940836200c922565b6200c88d565b9050919050565b60008160801c9050919050565b60006200c9716200c96b836200c94d565b6200c88d565b9050919050565b60008160a01c9050919050565b600062ffffff82169050919050565b60006200c9ab6200c9a5836200c978565b6200c985565b9050919050565b6200c9bd816200a899565b82525050565b60008160b81c9050919050565b60006200c9e76200c9e1836200c9c3565b6200c985565b9050919050565b60008160d01c9050919050565b60006200ca126200ca0c836200c9ee565b6200c985565b9050919050565b60008160e81c9050919050565b60006200ca3d6200ca37836200ca19565b6200c985565b9050919050565b610120820160008083015490506200ca5c816200c89d565b6200ca6b60008601826200c8bb565b506200ca77816200c8d9565b6200ca8660208601826200c8bb565b506200ca92816200c904565b6200caa160408601826200c8bb565b506200caad816200c92f565b6200cabc60608601826200c8bb565b506200cac8816200c95a565b6200cad760808601826200c8bb565b506200cae3816200c994565b6200caf260a08601826200c9b2565b506200cafe816200c9d0565b6200cb0d60c08601826200c9b2565b506200cb19816200c9fb565b6200cb2860e08601826200c9b2565b506200cb34816200ca26565b6200cb446101008601826200c9b2565b5050505050565b60006101e0820190506200cb63600083018a6200a303565b6200cb7260208301896200ba12565b6200cb8160408301886200ba12565b6200cb9060608301876200ba12565b6200cb9f60808301866200ba12565b6200cbae60a08301856200bd6e565b6200cbbd60c08301846200ca44565b98975050505050505050565b7f4e6f646520697320616c72656164792072656769737465726564000000000000600082015250565b60006200cc01601a836200bfd2565b91506200cc0e826200cbc9565b602082019050919050565b600060208201905081810360008301526200cc34816200cbf2565b9050919050565b600082905092915050565b6200cc5283836200cc3b565b67ffffffffffffffff8111156200cc6e576200cc6d6200a608565b5b6200cc7a82546200c32e565b6200cc878282856200c5bc565b6000601f8311600181146200ccbb57600084156200cca6578287013590505b6200ccb285826200c639565b8655506200cd22565b601f1984166200cccb866200c48f565b60005b828110156200ccf5578489013582556001820191506020850194506020810190506200ccce565b868310156200cd1557848901356200cd11601f8916826200c619565b8355505b6001600288020188555050505b50505050505050565b60006200cd38826200a19a565b91506200cd45836200a19a565b9250827fffffffffffffffffffffffffffffffffffffffffffffffffffffffffffffffff038211156200cd7d576200cd7c6200c392565b5b828201905092915050565b60006200cd95826200a19a565b91506200cda2836200a19a565b9250817fffffffffffffffffffffffffffffffffffffffffffffffffffffffffffffffff04831182151516156200cdde576200cddd6200c392565b5b828202905092915050565b60006200cdf6826200a19a565b91506200ce03836200a19a565b9250826200ce16576200ce156200c7dc565b5b828204905092915050565b60006200ce2e826200ac07565b915067ffffffffffffffff82036200ce4b576200ce4a6200c392565b5b600182019050919050565b7f546f6f206561726c7920746f2066756c66696c6c000000000000000000000000600082015250565b60006200ce8e6014836200bfd2565b91506200ce9b826200ce56565b602082019050919050565b600060208201905081810360008301526200cec1816200ce7f565b9050919050565b60006200ced5826200b266565b91506200cee2836200b266565b9250826bffffffffffffffffffffffff038211156200cf06576200cf056200c392565b5b828201905092915050565b60006040820190506200cf2860008301856200a1a4565b6200cf3760208301846200a1a4565b9392505050565b7f444b472068617320656e64656400000000000000000000000000000000000000600082015250565b60006200cf76600d836200bfd2565b91506200cf83826200cf3e565b602082019050919050565b600060208201905081810360008301526200cfa9816200cf67565b9050919050565b7f43616c6c65722047726f75702065706f636820646f6573206e6f74206d61746360008201527f6820636f6e74726f6c6c65722047726f75702065706f63680000000000000000602082015250565b60006200d00e6038836200bfd2565b91506200d01b826200cfb0565b604082019050919050565b600060208201905081810360008301526200d041816200cfff565b9050919050565b7f436f6d6d6974436163686520616c726561647920636f6e7461696e732050617260008201527f7469616c4b657920666f722074686973206e6f64650000000000000000000000602082015250565b60006200d0a66035836200bfd2565b91506200d0b3826200d048565b604082019050919050565b600060208201905081810360008301526200d0d9816200d097565b9050919050565b6200d0eb826200a342565b67ffffffffffffffff8111156200d107576200d1066200a608565b5b6200d11382546200c32e565b6200d1208282856200c5bc565b600060209050601f8311600181146200d15857600084156200d143578287015190505b6200d14f85826200c639565b8655506200d1bf565b601f1984166200d168866200c48f565b60005b828110156200d192578489015182556001820191506020850194506020810190506200d16b565b868310156200d1b257848901516200d1ae601f8916826200c619565b8355505b6001600288020188555050505b505050505050565b7f4f776e61626c653a206e6577206f776e657220697320746865207a65726f206160008201527f6464726573730000000000000000000000000000000000000000000000000000602082015250565b60006200d2256026836200bfd2565b91506200d232826200d1c7565b604082019050919050565b600060208201905081810360008301526200d258816200d216565b9050919050565b7f506c65617365207265717565737420627920657874656e64696e672047656e6560008201527f72616c52616e6463617374436f6e73756d65724261736520736f20746861742060208201527f77652063616e2063616c6c6261636b20776974682072616e646f6d6e6573732e604082015250565b60006200d2e36060836200bfd2565b91506200d2f0826200d25f565b606082019050919050565b600060208201905081810360008301526200d316816200d2d4565b9050919050565b60006040820190506200d33460008301856200ac1b565b6200d34360208301846200a331565b9392505050565b60006200d357826200ac07565b91506200d364836200ac07565b92508267ffffffffffffffff038211156200d384576200d3836200c392565b5b828201905092915050565b60006200d39c826200b266565b91506200d3a9836200b266565b9250828210156200d3bf576200d3be6200c392565b5b828203905092915050565b7f4e487b7100000000000000000000000000000000000000000000000000000000600052600160045260246000fd5b600060e0820190506200d410600083018a6200befb565b6200d41f60208301896200a331565b6200d42e60408301886200ac1b565b6200d43d60608301876200a1a4565b6200d44c60808301866200a303565b6200d45b60a08301856200a1a4565b6200d46a60c08301846200a1a4565b98975050505050505050565b600081519050919050565b600082825260208201905092915050565b6000819050602082019050919050565b60006200d4b083836200acf4565b905092915050565b6000602082019050919050565b60006200d4d2826200d476565b6200d4de81856200d481565b9350836020820285016200d4f2856200d492565b8060005b858110156200d53457848403895281516200d51285826200d4a2565b94506200d51f836200d4b8565b925060208a019950506001810190506200d4f6565b50829750879550505050505092915050565b600060408201905081810360008301526200d56281856200b331565b905081810360208301526200d57881846200d4c5565b90509392505050565b600060e0820190506200d598600083018a6200a1a4565b6200d5a760208301896200a1a4565b6200d5b660408301886200a1a4565b6200d5c560608301876200a1a4565b81810360808301526200d5d981866200b331565b90506200d5ea60a08301856200a1a4565b6200d5f960c08301846200a331565b98975050505050505050565b7f4f776e61626c653a2063616c6c6572206973206e6f7420746865206f776e6572600082015250565b60006200d63d6020836200bfd2565b91506200d64a826200d605565b602082019050919050565b600060208201905081810360008301526200d670816200d62e565b9050919050565b600069ffffffffffffffffffff82169050919050565b6200d698816200d677565b81146200d6a457600080fd5b50565b6000815190506200d6b8816200d68d565b92915050565b6000815190506200d6cf816200a85e565b92915050565b6000815190506200d6e6816200a27d565b92915050565b600080600080600060a086880312156200d70b576200d70a6200a1dc565b5b60006200d71b888289016200d6a7565b95505060206200d72e888289016200d6be565b94505060406200d741888289016200d6d5565b93505060606200d754888289016200d6d5565b92505060806200d767888289016200d6a7565b9150509295509295909350565b6000819050919050565b6200d7936200d78d826200ab1a565b6200d774565b82525050565b60006200d7a782846200d77e565b60208201915081905092915050565b7f696e76616c696420656e636f64696e6700000000000000000000000000000000600082015250565b60006200d7ee6010836200bfd2565b91506200d7fb826200d7b6565b602082019050919050565b600060208201905081810360008301526200d821816200d7df565b9050919050565b50565b60006200d83a6000836200bfd2565b91506200d847826200d828565b600082019050919050565b600060208201905081810360008301526200d86d816200d82b565b9050919050565b60006040820190506200d88b60008301856200befb565b6200d89a60208301846200a1a4565b9392505050565b6000815190506200d8b2816200a823565b92915050565b6000602082840312156200d8d1576200d8d06200a1dc565b5b60006200d8e1848285016200d8a1565b91505092915050565b60006040820190506200d90160008301856200befb565b81810360208301526200d91581846200a4cb565b90509392505050565b60006200d93f6200d9396200d933846200b266565b6200ad9a565b6200a19a565b9050919050565b6200d951816200d91e565b82525050565b60006080820190506200d96e60008301876200befb565b6200d97d60208301866200a1a4565b6200d98c60408301856200d946565b6200d99b60608301846200a3f2565b95945050505050565b60006060820190506200d9bb60008301866200a331565b6200d9ca60208301856200a331565b6200d9d960408301846200a1a4565b949350505050565b60006060830160008301516200d9fb60008601826200a493565b50602083015184820360208601526200da1582826200acf4565b915050604083015184820360408601526200da3182826200b6e1565b9150508091505092915050565b600060208201905081810360008301526200da5a81846200d9e1565b905092915050565b6000819050919050565b60006200da836200da7d836200c880565b6200da62565b9050919050565b600081546200da99816200c32e565b6200daa581866200ace3565b945060018216600081146200dac357600181146200dada576200db11565b60ff1983168652811515602002860193506200db11565b6200dae5856200c48f565b60005b838110156200db09578154818901526001820191506020810190506200dae8565b808801955050505b50505092915050565b600081549050919050565b60008190508160005260206000209050919050565b600073ffffffffffffffffffffffffffffffffffffffff82169050919050565b60006200db716200db6b836200c880565b6200db3a565b9050919050565b60006200db8682546200db5a565b9050919050565b6000600182019050919050565b60006200dba7826200db1a565b6200dbb381856200b6d0565b93506200dbc0836200db25565b8060005b838110156200dc00576200dbd8826200db78565b6200dbe488826200b30a565b97506200dbf1836200db8d565b9250506001810190506200dbc4565b5085935050505092915050565b60006060830160008084015490506200dc26816200da6c565b6200dc3560008701826200a493565b506001840185830360208701526200dc4e83826200da8a565b9250506002840185830360408701526200dc6983826200db9a565b925050819250505092915050565b600060208201905081810360008301526200dc9381846200dc0d565b905092915050565b60006060820190506200dcb260008301866200a1a4565b6200dcc160208301856200a331565b6200dcd060408301846200a1a4565b949350505050565b60006200dce682846200c791565b60208201915081905092915050565b6000815190506200dd06816200a559565b92915050565b6000602082840312156200dd25576200dd246200a1dc565b5b60006200dd35848285016200dcf5565b91505092915050565b7f5361666545524332303a204552433230206f7065726174696f6e20646964206e60008201527f6f74207375636365656400000000000000000000000000000000000000000000602082015250565b60006200dd9c602a836200bfd2565b91506200dda9826200dd3e565b604082019050919050565b600060208201905081810360008301526200ddcf816200dd8d565b9050919050565b7f424c533a2073717274206d6f646578702063616c6c206661696c656400000000600082015250565b60006200de0e601c836200bfd2565b91506200de1b826200ddd6565b602082019050919050565b600060208201905081810360008301526200de41816200ddff565b9050919050565b7f416464726573733a20696e73756666696369656e742062616c616e636520666f60008201527f722063616c6c0000000000000000000000000000000000000000000000000000602082015250565b60006200dea66026836200bfd2565b91506200deb3826200de48565b604082019050919050565b600060208201905081810360008301526200ded9816200de97565b9050919050565b600081905092915050565b60006200def8826200a342565b6200df0481856200dee0565b93506200df168185602086016200a35e565b80840191505092915050565b60006200df3082846200deeb565b915081905092915050565b7f416464726573733a2063616c6c20746f206e6f6e2d636f6e7472616374000000600082015250565b60006200df73601d836200bfd2565b91506200df80826200df3b565b602082019050919050565b600060208201905081810360008301526200dfa6816200df64565b9050919050565b600081519050919050565b60006200dfc5826200dfad565b6200dfd181856200bfd2565b93506200dfe38185602086016200a35e565b6200dfee816200a394565b840191505092915050565b600060208201905081810360008301526200e01581846200dfb8565b90509291505056fe60c060405260006006553480156200001657600080fd5b50604051620028ae380380620028ae83398181016040528101906200003c919062000180565b6200005c620000506200007460201b60201c565b6200007c60201b60201c565b8160a0818152505080608081815250505050620001c7565b600033905090565b60008060009054906101000a900473ffffffffffffffffffffffffffffffffffffffff169050816000806101000a81548173ffffffffffffffffffffffffffffffffffffffff021916908373ffffffffffffffffffffffffffffffffffffffff1602179055508173ffffffffffffffffffffffffffffffffffffffff168173ffffffffffffffffffffffffffffffffffffffff167f8be0079c531659141344cd1fd0a4f28419497f9722a3daafe3b4186f6b6457e060405160405180910390a35050565b600080fd5b6000819050919050565b6200015a8162000145565b81146200016657600080fd5b50565b6000815190506200017a816200014f565b92915050565b600080604083850312156200019a576200019962000140565b5b6000620001aa8582860162000169565b9250506020620001bd8582860162000169565b9150509250929050565b60805160a05161268962000225600039600081816109390152610aa601526000818161047e015281816104af015281816104ec015281816105290152818161077201528181610b6a01528181610c730152610d8801526126896000f3fe608060405234801561001057600080fd5b506004361061012c5760003560e01c8063785ffb37116100ad578063cc5ef00911610071578063cc5ef009146102fe578063cd5e38371461031c578063ce7c2ac21461034c578063d73fe0aa1461037c578063f2fde38b1461039a5761012c565b8063785ffb371461027e5780637fd283461461029c5780638da5cb5b146102b85780639cb8a26a146102d6578063b0ef8179146102e05761012c565b80634ae2b849116100f45780634ae2b849146101e95780634e3874a0146102075780635aa68ac014610226578063670d14b214610244578063715018a6146102745761012c565b80630ea6564814610131578063221f95111461016157806335c1d3491461017f57806337f8d5ff146101af57806348cd4cb1146101cb575b600080fd5b61014b6004803603810190610146919061179b565b6103b6565b6040516101589190611861565b60405180910390f35b610169610456565b604051610176919061189f565b60405180910390f35b610199600480360381019061019491906118f0565b61058c565b6040516101a6919061192c565b60405180910390f35b6101c960048036038101906101c49190611a02565b6105cb565b005b6101d361076a565b6040516101e09190611a92565b60405180910390f35b6101f1610770565b6040516101fe9190611a92565b60405180910390f35b61020f610794565b60405161021d929190611bb9565b60405180910390f35b61022e610962565b60405161023b9190611ca7565b60405180910390f35b61025e6004803603810190610259919061179b565b6109f0565b60405161026b9190611861565b60405180910390f35b61027c610a90565b005b610286610aa4565b6040516102939190611a92565b60405180910390f35b6102b660048036038101906102b19190611d1f565b610ac8565b005b6102c0610edd565b6040516102cd919061192c565b60405180910390f35b6102de610f06565b005b6102e8610f2e565b6040516102f59190611d6c565b60405180910390f35b6103066110d6565b6040516103139190611d6c565b60405180910390f35b6103366004803603810190610331919061179b565b61127e565b6040516103439190611861565b60405180910390f35b6103666004803603810190610361919061179b565b61131e565b6040516103739190611861565b60405180910390f35b6103846113be565b6040516103919190611d6c565b60405180910390f35b6103b460048036038101906103af919061179b565b611566565b005b600360205280600052604060002060009150905080546103d590611dbd565b80601f016020809104026020016040519081016040528092919081815260200182805461040190611dbd565b801561044e5780601f106104235761010080835404028352916020019161044e565b820191906000526020600020905b81548152906001019060200180831161043157829003601f168201915b505050505081565b6000806006540361046a5760009050610589565b60006006544361047a9190611e1d565b90507f000000000000000000000000000000000000000000000000000000000000000081116104ad576001915050610589565b7f000000000000000000000000000000000000000000000000000000000000000060026104da9190611e51565b81116104ea576002915050610589565b7f000000000000000000000000000000000000000000000000000000000000000060036105179190611e51565b8111610527576003915050610589565b7f000000000000000000000000000000000000000000000000000000000000000060046105549190611e51565b8111610564576004915050610589565b7fffffffffffffffffffffffffffffffffffffffffffffffffffffffffffffffff9150505b90565b6005818154811061059c57600080fd5b906000526020600020016000915054906101000a900473ffffffffffffffffffffffffffffffffffffffff1681565b600060065414610610576040517f08c379a000000000000000000000000000000000000000000000000000000000815260040161060790611f08565b60405180910390fd5b6106186115e9565b60005b8484905081101561075c57600585858381811061063b5761063a611f28565b5b9050602002016020810190610650919061179b565b9080600181540180825580915050600190039060005260206000200160009091909190916101000a81548173ffffffffffffffffffffffffffffffffffffffff021916908373ffffffffffffffffffffffffffffffffffffffff1602179055508282828181106106c3576106c2611f28565b5b90506020028101906106d59190611f66565b600160008888868181106106ec576106eb611f28565b5b9050602002016020810190610701919061179b565b73ffffffffffffffffffffffffffffffffffffffff1673ffffffffffffffffffffffffffffffffffffffff16815260200190815260200160002091826107489291906121af565b5080806107549061227f565b91505061061b565b504360068190555050505050565b60065481565b7f000000000000000000000000000000000000000000000000000000000000000081565b60006060600060058054905067ffffffffffffffff8111156107b9576107b8611fd4565b5b6040519080825280602002602001820160405280156107ec57816020015b60608152602001906001900390816107d75790505b50905060005b60058054905081101561093657600160006005838154811061081757610816611f28565b5b9060005260206000200160009054906101000a900473ffffffffffffffffffffffffffffffffffffffff1673ffffffffffffffffffffffffffffffffffffffff1673ffffffffffffffffffffffffffffffffffffffff168152602001908152602001600020805461088790611dbd565b80601f01602080910402602001604051908101604052809291908181526020018280546108b390611dbd565b80156109005780601f106108d557610100808354040283529160200191610900565b820191906000526020600020905b8154815290600101906020018083116108e357829003601f168201915b505050505082828151811061091857610917611f28565b5b6020026020010181905250808061092e9061227f565b9150506107f2565b507f00000000000000000000000000000000000000000000000000000000000000008192509250509091565b606060058054806020026020016040519081016040528092919081815260200182805480156109e657602002820191906000526020600020905b8160009054906101000a900473ffffffffffffffffffffffffffffffffffffffff1673ffffffffffffffffffffffffffffffffffffffff168152602001906001019080831161099c575b5050505050905090565b60016020528060005260406000206000915090508054610a0f90611dbd565b80601f0160208091040260200160405190810160405280929190818152602001828054610a3b90611dbd565b8015610a885780601f10610a5d57610100808354040283529160200191610a88565b820191906000526020600020905b815481529060010190602001808311610a6b57829003601f168201915b505050505081565b610a986115e9565b610aa26000611667565b565b7f000000000000000000000000000000000000000000000000000000000000000081565b6000600160003373ffffffffffffffffffffffffffffffffffffffff1673ffffffffffffffffffffffffffffffffffffffff1681526020019081526020016000208054610b1490611dbd565b905011610b56576040517f08c379a0000000000000000000000000000000000000000000000000000000008152600401610b4d90612313565b60405180910390fd5b600060065443610b669190611e1d565b90507f00000000000000000000000000000000000000000000000000000000000000008111610c71576000600260003373ffffffffffffffffffffffffffffffffffffffff1673ffffffffffffffffffffffffffffffffffffffff1681526020019081526020016000208054610bdb90611dbd565b905014610c1d576040517f08c379a0000000000000000000000000000000000000000000000000000000008152600401610c14906123a5565b60405180910390fd5b8282600260003373ffffffffffffffffffffffffffffffffffffffff1673ffffffffffffffffffffffffffffffffffffffff1681526020019081526020016000209182610c6b9291906121af565b50610ed8565b7f00000000000000000000000000000000000000000000000000000000000000006002610c9e9190611e51565b8111610d86576000600360003373ffffffffffffffffffffffffffffffffffffffff1673ffffffffffffffffffffffffffffffffffffffff1681526020019081526020016000208054610cf090611dbd565b905014610d32576040517f08c379a0000000000000000000000000000000000000000000000000000000008152600401610d2990612437565b60405180910390fd5b8282600360003373ffffffffffffffffffffffffffffffffffffffff1673ffffffffffffffffffffffffffffffffffffffff1681526020019081526020016000209182610d809291906121af565b50610ed7565b7f00000000000000000000000000000000000000000000000000000000000000006003610db39190611e51565b8111610e9b576000600460003373ffffffffffffffffffffffffffffffffffffffff1673ffffffffffffffffffffffffffffffffffffffff1681526020019081526020016000208054610e0590611dbd565b905014610e47576040517f08c379a0000000000000000000000000000000000000000000000000000000008152600401610e3e906124c9565b60405180910390fd5b8282600460003373ffffffffffffffffffffffffffffffffffffffff1673ffffffffffffffffffffffffffffffffffffffff1681526020019081526020016000209182610e959291906121af565b50610ed6565b6040517f08c379a0000000000000000000000000000000000000000000000000000000008152600401610ecd90612535565b60405180910390fd5b5b5b505050565b60008060009054906101000a900473ffffffffffffffffffffffffffffffffffffffff16905090565b610f0e6115e9565b610f16610edd565b73ffffffffffffffffffffffffffffffffffffffff16ff5b6060600060058054905067ffffffffffffffff811115610f5157610f50611fd4565b5b604051908082528060200260200182016040528015610f8457816020015b6060815260200190600190039081610f6f5790505b50905060005b6005805490508110156110ce576004600060058381548110610faf57610fae611f28565b5b9060005260206000200160009054906101000a900473ffffffffffffffffffffffffffffffffffffffff1673ffffffffffffffffffffffffffffffffffffffff1673ffffffffffffffffffffffffffffffffffffffff168152602001908152602001600020805461101f90611dbd565b80601f016020809104026020016040519081016040528092919081815260200182805461104b90611dbd565b80156110985780601f1061106d57610100808354040283529160200191611098565b820191906000526020600020905b81548152906001019060200180831161107b57829003601f168201915b50505050508282815181106110b0576110af611f28565b5b602002602001018190525080806110c69061227f565b915050610f8a565b508091505090565b6060600060058054905067ffffffffffffffff8111156110f9576110f8611fd4565b5b60405190808252806020026020018201604052801561112c57816020015b60608152602001906001900390816111175790505b50905060005b60058054905081101561127657600360006005838154811061115757611156611f28565b5b9060005260206000200160009054906101000a900473ffffffffffffffffffffffffffffffffffffffff1673ffffffffffffffffffffffffffffffffffffffff1673ffffffffffffffffffffffffffffffffffffffff16815260200190815260200160002080546111c790611dbd565b80601f01602080910402602001604051908101604052809291908181526020018280546111f390611dbd565b80156112405780601f1061121557610100808354040283529160200191611240565b820191906000526020600020905b81548152906001019060200180831161122357829003601f168201915b505050505082828151811061125857611257611f28565b5b6020026020010181905250808061126e9061227f565b915050611132565b508091505090565b6004602052806000526040600020600091509050805461129d90611dbd565b80601f01602080910402602001604051908101604052809291908181526020018280546112c990611dbd565b80156113165780601f106112eb57610100808354040283529160200191611316565b820191906000526020600020905b8154815290600101906020018083116112f957829003601f168201915b505050505081565b6002602052806000526040600020600091509050805461133d90611dbd565b80601f016020809104026020016040519081016040528092919081815260200182805461136990611dbd565b80156113b65780601f1061138b576101008083540402835291602001916113b6565b820191906000526020600020905b81548152906001019060200180831161139957829003601f168201915b505050505081565b6060600060058054905067ffffffffffffffff8111156113e1576113e0611fd4565b5b60405190808252806020026020018201604052801561141457816020015b60608152602001906001900390816113ff5790505b50905060005b60058054905081101561155e57600260006005838154811061143f5761143e611f28565b5b9060005260206000200160009054906101000a900473ffffffffffffffffffffffffffffffffffffffff1673ffffffffffffffffffffffffffffffffffffffff1673ffffffffffffffffffffffffffffffffffffffff16815260200190815260200160002080546114af90611dbd565b80601f01602080910402602001604051908101604052809291908181526020018280546114db90611dbd565b80156115285780601f106114fd57610100808354040283529160200191611528565b820191906000526020600020905b81548152906001019060200180831161150b57829003601f168201915b50505050508282815181106115405761153f611f28565b5b602002602001018190525080806115569061227f565b91505061141a565b508091505090565b61156e6115e9565b600073ffffffffffffffffffffffffffffffffffffffff168173ffffffffffffffffffffffffffffffffffffffff16036115dd576040517f08c379a00000000000000000000000000000000000000000000000000000000081526004016115d4906125c7565b60405180910390fd5b6115e681611667565b50565b6115f161172b565b73ffffffffffffffffffffffffffffffffffffffff1661160f610edd565b73ffffffffffffffffffffffffffffffffffffffff1614611665576040517f08c379a000000000000000000000000000000000000000000000000000000000815260040161165c90612633565b60405180910390fd5b565b60008060009054906101000a900473ffffffffffffffffffffffffffffffffffffffff169050816000806101000a81548173ffffffffffffffffffffffffffffffffffffffff021916908373ffffffffffffffffffffffffffffffffffffffff1602179055508173ffffffffffffffffffffffffffffffffffffffff168173ffffffffffffffffffffffffffffffffffffffff167f8be0079c531659141344cd1fd0a4f28419497f9722a3daafe3b4186f6b6457e060405160405180910390a35050565b600033905090565b600080fd5b600080fd5b600073ffffffffffffffffffffffffffffffffffffffff82169050919050565b60006117688261173d565b9050919050565b6117788161175d565b811461178357600080fd5b50565b6000813590506117958161176f565b92915050565b6000602082840312156117b1576117b0611733565b5b60006117bf84828501611786565b91505092915050565b600081519050919050565b600082825260208201905092915050565b60005b838110156118025780820151818401526020810190506117e7565b83811115611811576000848401525b50505050565b6000601f19601f8301169050919050565b6000611833826117c8565b61183d81856117d3565b935061184d8185602086016117e4565b61185681611817565b840191505092915050565b6000602082019050818103600083015261187b8184611828565b905092915050565b60008160000b9050919050565b61189981611883565b82525050565b60006020820190506118b46000830184611890565b92915050565b6000819050919050565b6118cd816118ba565b81146118d857600080fd5b50565b6000813590506118ea816118c4565b92915050565b60006020828403121561190657611905611733565b5b6000611914848285016118db565b91505092915050565b6119268161175d565b82525050565b6000602082019050611941600083018461191d565b92915050565b600080fd5b600080fd5b600080fd5b60008083601f84011261196c5761196b611947565b5b8235905067ffffffffffffffff8111156119895761198861194c565b5b6020830191508360208202830111156119a5576119a4611951565b5b9250929050565b60008083601f8401126119c2576119c1611947565b5b8235905067ffffffffffffffff8111156119df576119de61194c565b5b6020830191508360208202830111156119fb576119fa611951565b5b9250929050565b60008060008060408587031215611a1c57611a1b611733565b5b600085013567ffffffffffffffff811115611a3a57611a39611738565b5b611a4687828801611956565b9450945050602085013567ffffffffffffffff811115611a6957611a68611738565b5b611a75878288016119ac565b925092505092959194509250565b611a8c816118ba565b82525050565b6000602082019050611aa76000830184611a83565b92915050565b600081519050919050565b600082825260208201905092915050565b6000819050602082019050919050565b600082825260208201905092915050565b6000611af5826117c8565b611aff8185611ad9565b9350611b0f8185602086016117e4565b611b1881611817565b840191505092915050565b6000611b2f8383611aea565b905092915050565b6000602082019050919050565b6000611b4f82611aad565b611b598185611ab8565b935083602082028501611b6b85611ac9565b8060005b85811015611ba75784840389528151611b888582611b23565b9450611b9383611b37565b925060208a01995050600181019050611b6f565b50829750879550505050505092915050565b6000604082019050611bce6000830185611a83565b8181036020830152611be08184611b44565b90509392505050565b600081519050919050565b600082825260208201905092915050565b6000819050602082019050919050565b611c1e8161175d565b82525050565b6000611c308383611c15565b60208301905092915050565b6000602082019050919050565b6000611c5482611be9565b611c5e8185611bf4565b9350611c6983611c05565b8060005b83811015611c9a578151611c818882611c24565b9750611c8c83611c3c565b925050600181019050611c6d565b5085935050505092915050565b60006020820190508181036000830152611cc18184611c49565b905092915050565b60008083601f840112611cdf57611cde611947565b5b8235905067ffffffffffffffff811115611cfc57611cfb61194c565b5b602083019150836001820283011115611d1857611d17611951565b5b9250929050565b60008060208385031215611d3657611d35611733565b5b600083013567ffffffffffffffff811115611d5457611d53611738565b5b611d6085828601611cc9565b92509250509250929050565b60006020820190508181036000830152611d868184611b44565b905092915050565b7f4e487b7100000000000000000000000000000000000000000000000000000000600052602260045260246000fd5b60006002820490506001821680611dd557607f821691505b602082108103611de857611de7611d8e565b5b50919050565b7f4e487b7100000000000000000000000000000000000000000000000000000000600052601160045260246000fd5b6000611e28826118ba565b9150611e33836118ba565b925082821015611e4657611e45611dee565b5b828203905092915050565b6000611e5c826118ba565b9150611e67836118ba565b9250817fffffffffffffffffffffffffffffffffffffffffffffffffffffffffffffffff0483118215151615611ea057611e9f611dee565b5b828202905092915050565b600082825260208201905092915050565b7f444b472068617320616c72656164792073746172746564000000000000000000600082015250565b6000611ef2601783611eab565b9150611efd82611ebc565b602082019050919050565b60006020820190508181036000830152611f2181611ee5565b9050919050565b7f4e487b7100000000000000000000000000000000000000000000000000000000600052603260045260246000fd5b600080fd5b600080fd5b600080fd5b60008083356001602003843603038112611f8357611f82611f57565b5b80840192508235915067ffffffffffffffff821115611fa557611fa4611f5c565b5b602083019250600182023603831315611fc157611fc0611f61565b5b509250929050565b600082905092915050565b7f4e487b7100000000000000000000000000000000000000000000000000000000600052604160045260246000fd5b60008190508160005260206000209050919050565b60006020601f8301049050919050565b600082821b905092915050565b6000600883026120657fffffffffffffffffffffffffffffffffffffffffffffffffffffffffffffffff82612028565b61206f8683612028565b95508019841693508086168417925050509392505050565b6000819050919050565b60006120ac6120a76120a2846118ba565b612087565b6118ba565b9050919050565b6000819050919050565b6120c683612091565b6120da6120d2826120b3565b848454612035565b825550505050565b600090565b6120ef6120e2565b6120fa8184846120bd565b505050565b5b8181101561211e576121136000826120e7565b600181019050612100565b5050565b601f8211156121635761213481612003565b61213d84612018565b8101602085101561214c578190505b61216061215885612018565b8301826120ff565b50505b505050565b600082821c905092915050565b600061218660001984600802612168565b1980831691505092915050565b600061219f8383612175565b9150826002028217905092915050565b6121b98383611fc9565b67ffffffffffffffff8111156121d2576121d1611fd4565b5b6121dc8254611dbd565b6121e7828285612122565b6000601f8311600181146122165760008415612204578287013590505b61220e8582612193565b865550612276565b601f19841661222486612003565b60005b8281101561224c57848901358255600182019150602085019450602081019050612227565b868310156122695784890135612265601f891682612175565b8355505b6001600288020188555050505b50505050505050565b600061228a826118ba565b91507fffffffffffffffffffffffffffffffffffffffffffffffffffffffffffffffff82036122bc576122bb611dee565b5b600182019050919050565b7f796f7520617265206e6f7420612067726f7570206d656d626572210000000000600082015250565b60006122fd601b83611eab565b9150612308826122c7565b602082019050919050565b6000602082019050818103600083015261232c816122f0565b9050919050565b7f796f75206861766520616c7265616479207075626c697368656420796f75722060008201527f7368617265730000000000000000000000000000000000000000000000000000602082015250565b600061238f602683611eab565b915061239a82612333565b604082019050919050565b600060208201905081810360008301526123be81612382565b9050919050565b7f796f75206861766520616c7265616479207075626c697368656420796f75722060008201527f726573706f6e7365730000000000000000000000000000000000000000000000602082015250565b6000612421602983611eab565b915061242c826123c5565b604082019050919050565b6000602082019050818103600083015261245081612414565b9050919050565b7f796f75206861766520616c7265616479207075626c697368656420796f75722060008201527f6a757374696669636174696f6e73000000000000000000000000000000000000602082015250565b60006124b3602e83611eab565b91506124be82612457565b604082019050919050565b600060208201905081810360008301526124e2816124a6565b9050919050565b7f444b47205075626c6973682068617320656e6465640000000000000000000000600082015250565b600061251f601583611eab565b915061252a826124e9565b602082019050919050565b6000602082019050818103600083015261254e81612512565b9050919050565b7f4f776e61626c653a206e6577206f776e657220697320746865207a65726f206160008201527f6464726573730000000000000000000000000000000000000000000000000000602082015250565b60006125b1602683611eab565b91506125bc82612555565b604082019050919050565b600060208201905081810360008301526125e0816125a4565b9050919050565b7f4f776e61626c653a2063616c6c6572206973206e6f7420746865206f776e6572600082015250565b600061261d602083611eab565b9150612628826125e7565b602082019050919050565b6000602082019050818103600083015261264c81612610565b905091905056fea26469706673582212201319ec1f86289761f5b9e855b05a87a6fe7f0e558d868eadced8e8f2579acbb764736f6c634300080f0033a26469706673582212207c37b4f97e423eaebc7e4f4659958e63f0f5fd5b8ab7085bf564cc03718825e764736f6c634300080f0033",
    "linkReferences": {}
  },
  "methodIdentifiers": {
    "ARPA()": "62d14450",
    "ARPA_ETH_FEED()": "d164e28d",
    "COMMITTER_REWARD_PER_SIGNATURE()": "c24f03da",
    "COORDINATOR_STATE_TRIGGER_REWARD()": "1bfcb061",
    "DEFAULT_DKG_PHASE_DURATION()": "03515454",
    "DEFAULT_MINIMUM_THRESHOLD()": "aa81d59a",
    "DEFAULT_NUMBER_OF_COMMITTERS()": "cc2dcb40",
    "DISQUALIFIED_NODE_PENALTY_AMOUNT()": "bb65bb76",
    "GROUP_MAX_CAPACITY()": "4ab73523",
    "IDEAL_NUMBER_OF_GROUPS()": "a03da984",
    "MAX_CONSUMERS()": "64d51a2a",
    "MAX_REQUEST_CONFIRMATIONS()": "15c48b84",
    "NODE_STAKING_AMOUNT()": "cfc635d4",
    "PENDING_BLOCK_AFTER_QUIT()": "f5d35d55",
    "REWARD_PER_SIGNATURE()": "bcee30e5",
    "SIGNATURE_TASK_EXCLUSIVE_WINDOW()": "e0b72cfd",
    "addConsumer(uint64,address)": "7341c10c",
    "calculatePaymentAmount(uint256,uint256,uint32,uint256)": "9ea3b84e",
    "chooseRandomlyFromIndices(uint256,uint256[],uint256)": "2b8a7334",
    "commitDkg((uint256,uint256,bytes,bytes,address[]))": "e37eb96c",
    "coordinators(uint256)": "5f1cc005",
    "createSubscription()": "a21a23e4",
    "estimatePaymentAmount(uint256,uint256,uint32,uint256)": "cc36c1e8",
    "findOrCreateTargetGroup()": "7328fceb",
    "fulfillRandomness(uint256,bytes32,uint256,(address,uint256)[])": "c61eb7b4",
    "fundSubscription(uint64,uint256)": "dd281928",
    "getCoordinator(uint256)": "42424d6f",
    "getFeeTier(uint64)": "d2f9f9a7",
    "getGroup(uint256)": "ceb60654",
    "getLastSubscription(address)": "76a911bc",
    "getMember(uint256,uint256)": "4d79a893",
    "getMemberAddressByIndex(uint256,uint256)": "edfcb57f",
    "getMemberIndexByAddress(uint256,address)": "f7bbf26a",
    "getNode(address)": "9d209048",
    "getNonDisqualifiedMajorityMembers(address[],address[])": "fdc93499",
    "getPendingRequest(bytes32)": "88b12d55",
    "getSubscription(uint64)": "a47c7696",
    "groupCount()": "8f23b326",
    "groups(uint256)": "96324bd4",
    "lastAssignedGroupIndex()": "0b919eef",
    "lastOutput()": "97228a7e",
    "nodeRegister(bytes)": "80110e4e",
    "nodes(address)": "189a5a17",
    "owner()": "8da5cb5b",
    "partialKeyRegistered(uint256,address)": "3141d144",
    "postProcessDkg(uint256,uint256)": "0bf9c5c6",
    "rebalanceGroup(uint256,uint256)": "fda66933",
    "removeFromGroup(address,uint256,bool)": "2936ff65",
    "renounceOwnership()": "715018a6",
    "requestRandomness((uint8,bytes,uint64,uint256,uint16,uint256,uint256))": "fb0882fc",
    "rewards(address)": "0700037d",
    "s_callbacks(bytes32)": "4d615424",
    "setConfig(uint16,uint32,uint32,uint32,uint32,int256,(uint32,uint32,uint32,uint32,uint32,uint24,uint24,uint24,uint24))": "2d0354ec",
    "tMinimumThreshold(uint256)": "447002a3",
    "tNonexistantGroup(uint256)": "6fa6dc34",
    "transferOwnership(address)": "f2fde38b",
    "validGroupIndices()": "253870ff"
  },
  "id": 17
}