{
  "abi": [
    {
      "inputs": [
        {
          "internalType": "uint256",
          "name": "threshold",
          "type": "uint256"
        },
        {
          "internalType": "uint256",
          "name": "duration",
          "type": "uint256"
        }
      ],
      "stateMutability": "nonpayable",
      "type": "constructor"
    },
    {
      "anonymous": false,
      "inputs": [
        {
          "indexed": true,
          "internalType": "address",
          "name": "previousOwner",
          "type": "address"
        },
        {
          "indexed": true,
          "internalType": "address",
          "name": "newOwner",
          "type": "address"
        }
      ],
      "name": "OwnershipTransferred",
      "type": "event"
    },
    {
      "inputs": [],
      "name": "PHASE_DURATION",
      "outputs": [
        {
          "internalType": "uint256",
          "name": "",
          "type": "uint256"
        }
      ],
      "stateMutability": "view",
      "type": "function"
    },
    {
      "inputs": [],
      "name": "THRESHOLD",
      "outputs": [
        {
          "internalType": "uint256",
          "name": "",
          "type": "uint256"
        }
      ],
      "stateMutability": "view",
      "type": "function"
    },
    {
      "inputs": [],
      "name": "getBlsKeys",
      "outputs": [
        {
          "internalType": "uint256",
          "name": "",
          "type": "uint256"
        },
        {
          "internalType": "bytes[]",
          "name": "",
          "type": "bytes[]"
        }
      ],
      "stateMutability": "view",
      "type": "function"
    },
    {
      "inputs": [],
      "name": "getJustifications",
      "outputs": [
        {
          "internalType": "bytes[]",
          "name": "",
          "type": "bytes[]"
        }
      ],
      "stateMutability": "view",
      "type": "function"
    },
    {
      "inputs": [],
      "name": "getParticipants",
      "outputs": [
        {
          "internalType": "address[]",
          "name": "",
          "type": "address[]"
        }
      ],
      "stateMutability": "view",
      "type": "function"
    },
    {
      "inputs": [],
      "name": "getResponses",
      "outputs": [
        {
          "internalType": "bytes[]",
          "name": "",
          "type": "bytes[]"
        }
      ],
      "stateMutability": "view",
      "type": "function"
    },
    {
      "inputs": [],
      "name": "getShares",
      "outputs": [
        {
          "internalType": "bytes[]",
          "name": "",
          "type": "bytes[]"
        }
      ],
      "stateMutability": "view",
      "type": "function"
    },
    {
      "inputs": [],
      "name": "inPhase",
      "outputs": [
        {
          "internalType": "uint256",
          "name": "",
          "type": "uint256"
        }
      ],
      "stateMutability": "view",
      "type": "function"
    },
    {
      "inputs": [
        {
          "internalType": "address[]",
          "name": "nodes",
          "type": "address[]"
        },
        {
          "internalType": "bytes[]",
          "name": "publicKeys",
          "type": "bytes[]"
        }
      ],
      "name": "initialize",
      "outputs": [],
      "stateMutability": "nonpayable",
      "type": "function"
    },
    {
      "inputs": [
        {
          "internalType": "address",
          "name": "",
          "type": "address"
        }
      ],
      "name": "justifications",
      "outputs": [
        {
          "internalType": "bytes",
          "name": "",
          "type": "bytes"
        }
      ],
      "stateMutability": "view",
      "type": "function"
    },
    {
      "inputs": [
        {
          "internalType": "address",
          "name": "",
          "type": "address"
        }
      ],
      "name": "keys",
      "outputs": [
        {
          "internalType": "bytes",
          "name": "",
          "type": "bytes"
        }
      ],
      "stateMutability": "view",
      "type": "function"
    },
    {
      "inputs": [],
      "name": "owner",
      "outputs": [
        {
          "internalType": "address",
          "name": "",
          "type": "address"
        }
      ],
      "stateMutability": "view",
      "type": "function"
    },
    {
      "inputs": [
        {
          "internalType": "address",
          "name": "",
          "type": "address"
        }
      ],
      "name": "participant_map",
      "outputs": [
        {
          "internalType": "bool",
          "name": "",
          "type": "bool"
        }
      ],
      "stateMutability": "view",
      "type": "function"
    },
    {
      "inputs": [
        {
          "internalType": "uint256",
          "name": "",
          "type": "uint256"
        }
      ],
      "name": "participants",
      "outputs": [
        {
          "internalType": "address",
          "name": "",
          "type": "address"
        }
      ],
      "stateMutability": "view",
      "type": "function"
    },
    {
      "inputs": [
        {
          "internalType": "bytes",
          "name": "value",
          "type": "bytes"
        }
      ],
      "name": "publish",
      "outputs": [],
      "stateMutability": "nonpayable",
      "type": "function"
    },
    {
      "inputs": [],
      "name": "renounceOwnership",
      "outputs": [],
      "stateMutability": "nonpayable",
      "type": "function"
    },
    {
      "inputs": [
        {
          "internalType": "address",
          "name": "",
          "type": "address"
        }
      ],
      "name": "responses",
      "outputs": [
        {
          "internalType": "bytes",
          "name": "",
          "type": "bytes"
        }
      ],
      "stateMutability": "view",
      "type": "function"
    },
    {
      "inputs": [
        {
          "internalType": "address",
          "name": "",
          "type": "address"
        }
      ],
      "name": "shares",
      "outputs": [
        {
          "internalType": "bytes",
          "name": "",
          "type": "bytes"
        }
      ],
      "stateMutability": "view",
      "type": "function"
    },
    {
      "inputs": [],
      "name": "startBlock",
      "outputs": [
        {
          "internalType": "uint256",
          "name": "",
          "type": "uint256"
        }
      ],
      "stateMutability": "view",
      "type": "function"
    },
    {
      "inputs": [
        {
          "internalType": "address",
          "name": "newOwner",
          "type": "address"
        }
      ],
      "name": "transferOwnership",
      "outputs": [],
      "stateMutability": "nonpayable",
      "type": "function"
    }
  ],
  "bytecode": {
    "object": "0x60c0604052600060075534801561001557600080fd5b506040516116ea3803806116ea83398101604081905261003491610098565b61003d33610048565b60805260a0526100bc565b600080546001600160a01b038381166001600160a01b0319831681178455604051919092169283917f8be0079c531659141344cd1fd0a4f28419497f9722a3daafe3b4186f6b6457e09190a35050565b600080604083850312156100ab57600080fd5b505080516020909101519092909150565b60805160a0516115d8610112600039600081816102150152610b540152600081816101be015281816103c2015281816103f40152818161042d0152818161076b0152818161082d01526108f301526115d86000f3fe608060405234801561001057600080fd5b506004361061012c5760003560e01c80637fd28346116100ad578063cc5ef00911610071578063cc5ef009146102b9578063cd5e3837146102c1578063ce7c2ac2146102d4578063d73fe0aa146102e7578063f2fde38b146102ef57600080fd5b80637fd283461461023757806385edbc1c1461024a5780638da5cb5b1461027d578063a81945961461028e578063b0ef8179146102a457600080fd5b80634ae2b849116100f45780634ae2b849146101b95780635aa68ac0146101e0578063670d14b2146101f5578063715018a614610208578063785ffb371461021057600080fd5b80630ea6564814610131578063221f95111461015a57806335c1d3491461017057806337f8d5ff1461019b57806348cd4cb1146101b0575b600080fd5b61014461013f3660046110de565b610302565b604051610151919061115b565b60405180910390f35b61016261039c565b604051908152602001610151565b61018361017e36600461116e565b61049a565b6040516001600160a01b039091168152602001610151565b6101ae6101a93660046111d3565b6104c4565b005b61016260075481565b6101627f000000000000000000000000000000000000000000000000000000000000000081565b6101e8610669565b604051610151919061123f565b6101446102033660046110de565b6106cb565b6101ae6106e4565b6101627f000000000000000000000000000000000000000000000000000000000000000081565b6101ae61024536600461128c565b6106f8565b61026d6102583660046110de565b60066020526000908152604090205460ff1681565b6040519015158152602001610151565b6000546001600160a01b0316610183565b6102966109f6565b604051610151929190611353565b6102ac610b7b565b6040516101519190611374565b6102ac610cd9565b6101446102cf3660046110de565b610e31565b6101446102e23660046110de565b610e4a565b6102ac610e63565b6101ae6102fd3660046110de565b610fbb565b6003602052600090815260409020805461031b90611387565b80601f016020809104026020016040519081016040528092919081815260200182805461034790611387565b80156103945780601f1061036957610100808354040283529160200191610394565b820191906000526020600020905b81548152906001019060200180831161037757829003601f168201915b505050505081565b60006007546000036103ae5750600090565b6000600754436103be91906113d1565b90507f000000000000000000000000000000000000000000000000000000000000000081116103ef57600191505090565b61041a7f000000000000000000000000000000000000000000000000000000000000000060026113e8565b811161042857600291505090565b6104537f000000000000000000000000000000000000000000000000000000000000000060036113e8565b811161046157600391505090565b60405162461bcd60e51b81526020600482015260096024820152681112d1c8115b99195960ba1b60448201526064015b60405180910390fd5b600581815481106104aa57600080fd5b6000918252602090912001546001600160a01b0316905081565b600754156105145760405162461bcd60e51b815260206004820152601760248201527f444b472068617320616c726561647920737461727465640000000000000000006044820152606401610491565b61051c611034565b60005b8381101561065e5760016006600087878581811061053f5761053f611407565b905060200201602081019061055491906110de565b6001600160a01b031681526020810191909152604001600020805460ff1916911515919091179055600585858381811061059057610590611407565b90506020020160208101906105a591906110de565b81546001810183556000928352602090922090910180546001600160a01b0319166001600160a01b039092169190911790558282828181106105e9576105e9611407565b90506020028101906105fb919061141d565b6001600088888681811061061157610611611407565b905060200201602081019061062691906110de565b6001600160a01b0316815260208101919091526040016000209161064b9190836114c8565b508061065681611589565b91505061051f565b505043600755505050565b606060058054806020026020016040519081016040528092919081815260200182805480156106c157602002820191906000526020600020905b81546001600160a01b031681526001909101906020018083116106a3575b5050505050905090565b6001602052600090815260409020805461031b90611387565b6106ec611034565b6106f6600061108e565b565b3360009081526006602052604090205460ff166107575760405162461bcd60e51b815260206004820152601760248201527f796f7520617265206e6f742072656769737465726564210000000000000000006044820152606401610491565b60006007544361076791906113d1565b90507f000000000000000000000000000000000000000000000000000000000000000081116108285733600090815260026020526040902080546107aa90611387565b1590506108085760405162461bcd60e51b815260206004820152602660248201527f796f75206861766520616c7265616479207075626c697368656420796f75722060448201526573686172657360d01b6064820152608401610491565b3360009081526002602052604090206108228385836114c8565b50505050565b6108537f000000000000000000000000000000000000000000000000000000000000000060026113e8565b81116108ee57336000908152600360205260409020805461087390611387565b1590506108d45760405162461bcd60e51b815260206004820152602960248201527f796f75206861766520616c7265616479207075626c697368656420796f757220604482015268726573706f6e73657360b81b6064820152608401610491565b3360009081526003602052604090206108228385836114c8565b6109197f000000000000000000000000000000000000000000000000000000000000000060036113e8565b81116109b957336000908152600460205260409020805461093990611387565b15905061099f5760405162461bcd60e51b815260206004820152602e60248201527f796f75206861766520616c7265616479207075626c697368656420796f75722060448201526d6a757374696669636174696f6e7360901b6064820152608401610491565b3360009081526004602052604090206108228385836114c8565b60405162461bcd60e51b815260206004820152600d60248201526c1112d1c81a185cc8195b991959609a1b6044820152606401610491565b505050565b60006060600060058054905067ffffffffffffffff811115610a1a57610a1a611464565b604051908082528060200260200182016040528015610a4d57816020015b6060815260200190600190039081610a385790505b50905060005b600554811015610b51576001600060058381548110610a7457610a74611407565b60009182526020808320909101546001600160a01b0316835282019290925260400190208054610aa390611387565b80601f0160208091040260200160405190810160405280929190818152602001828054610acf90611387565b8015610b1c5780601f10610af157610100808354040283529160200191610b1c565b820191906000526020600020905b815481529060010190602001808311610aff57829003601f168201915b5050505050828281518110610b3357610b33611407565b60200260200101819052508080610b4990611589565b915050610a53565b507f0000000000000000000000000000000000000000000000000000000000000000939092509050565b60055460609060009067ffffffffffffffff811115610b9c57610b9c611464565b604051908082528060200260200182016040528015610bcf57816020015b6060815260200190600190039081610bba5790505b50905060005b600554811015610cd3576004600060058381548110610bf657610bf6611407565b60009182526020808320909101546001600160a01b0316835282019290925260400190208054610c2590611387565b80601f0160208091040260200160405190810160405280929190818152602001828054610c5190611387565b8015610c9e5780601f10610c7357610100808354040283529160200191610c9e565b820191906000526020600020905b815481529060010190602001808311610c8157829003601f168201915b5050505050828281518110610cb557610cb5611407565b60200260200101819052508080610ccb90611589565b915050610bd5565b50919050565b60055460609060009067ffffffffffffffff811115610cfa57610cfa611464565b604051908082528060200260200182016040528015610d2d57816020015b6060815260200190600190039081610d185790505b50905060005b600554811015610cd3576003600060058381548110610d5457610d54611407565b60009182526020808320909101546001600160a01b0316835282019290925260400190208054610d8390611387565b80601f0160208091040260200160405190810160405280929190818152602001828054610daf90611387565b8015610dfc5780601f10610dd157610100808354040283529160200191610dfc565b820191906000526020600020905b815481529060010190602001808311610ddf57829003601f168201915b5050505050828281518110610e1357610e13611407565b60200260200101819052508080610e2990611589565b915050610d33565b6004602052600090815260409020805461031b90611387565b6002602052600090815260409020805461031b90611387565b60055460609060009067ffffffffffffffff811115610e8457610e84611464565b604051908082528060200260200182016040528015610eb757816020015b6060815260200190600190039081610ea25790505b50905060005b600554811015610cd3576002600060058381548110610ede57610ede611407565b60009182526020808320909101546001600160a01b0316835282019290925260400190208054610f0d90611387565b80601f0160208091040260200160405190810160405280929190818152602001828054610f3990611387565b8015610f865780601f10610f5b57610100808354040283529160200191610f86565b820191906000526020600020905b815481529060010190602001808311610f6957829003601f168201915b5050505050828281518110610f9d57610f9d611407565b60200260200101819052508080610fb390611589565b915050610ebd565b610fc3611034565b6001600160a01b0381166110285760405162461bcd60e51b815260206004820152602660248201527f4f776e61626c653a206e6577206f776e657220697320746865207a65726f206160448201526564647265737360d01b6064820152608401610491565b6110318161108e565b50565b6000546001600160a01b031633146106f65760405162461bcd60e51b815260206004820181905260248201527f4f776e61626c653a2063616c6c6572206973206e6f7420746865206f776e65726044820152606401610491565b600080546001600160a01b038381166001600160a01b0319831681178455604051919092169283917f8be0079c531659141344cd1fd0a4f28419497f9722a3daafe3b4186f6b6457e09190a35050565b6000602082840312156110f057600080fd5b81356001600160a01b038116811461110757600080fd5b9392505050565b6000815180845260005b8181101561113457602081850181015186830182015201611118565b81811115611146576000602083870101525b50601f01601f19169290920160200192915050565b602081526000611107602083018461110e565b60006020828403121561118057600080fd5b5035919050565b60008083601f84011261119957600080fd5b50813567ffffffffffffffff8111156111b157600080fd5b6020830191508360208260051b85010111156111cc57600080fd5b9250929050565b600080600080604085870312156111e957600080fd5b843567ffffffffffffffff8082111561120157600080fd5b61120d88838901611187565b9096509450602087013591508082111561122657600080fd5b5061123387828801611187565b95989497509550505050565b6020808252825182820181905260009190848201906040850190845b818110156112805783516001600160a01b03168352928401929184019160010161125b565b50909695505050505050565b6000806020838503121561129f57600080fd5b823567ffffffffffffffff808211156112b757600080fd5b818501915085601f8301126112cb57600080fd5b8135818111156112da57600080fd5b8660208285010111156112ec57600080fd5b60209290920196919550909350505050565b600081518084526020808501808196508360051b8101915082860160005b8581101561134657828403895261133484835161110e565b9885019893509084019060010161131c565b5091979650505050505050565b82815260406020820152600061136c60408301846112fe565b949350505050565b60208152600061110760208301846112fe565b600181811c9082168061139b57607f821691505b602082108103610cd357634e487b7160e01b600052602260045260246000fd5b634e487b7160e01b600052601160045260246000fd5b6000828210156113e3576113e36113bb565b500390565b6000816000190483118215151615611402576114026113bb565b500290565b634e487b7160e01b600052603260045260246000fd5b6000808335601e1984360301811261143457600080fd5b83018035915067ffffffffffffffff82111561144f57600080fd5b6020019150368190038213156111cc57600080fd5b634e487b7160e01b600052604160045260246000fd5b601f8211156109f157600081815260208120601f850160051c810160208610156114a15750805b601f850160051c820191505b818110156114c0578281556001016114ad565b505050505050565b67ffffffffffffffff8311156114e0576114e0611464565b6114f4836114ee8354611387565b8361147a565b6000601f84116001811461152857600085156115105750838201355b600019600387901b1c1916600186901b178355611582565b600083815260209020601f19861690835b828110156115595786850135825560209485019460019092019101611539565b50868210156115765760001960f88860031b161c19848701351681555b505060018560011b0183555b5050505050565b60006001820161159b5761159b6113bb565b506001019056fea2646970667358221220372aee54ce2f79f1feddc4890490d69f34e5e5473b212389af21f9f25d3e28a664736f6c634300080f0033",
    "linkReferences": {}
  },
  "methodIdentifiers": {
    "PHASE_DURATION()": "4ae2b849",
    "THRESHOLD()": "785ffb37",
    "getBlsKeys()": "a8194596",
    "getJustifications()": "b0ef8179",
    "getParticipants()": "5aa68ac0",
    "getResponses()": "cc5ef009",
    "getShares()": "d73fe0aa",
    "inPhase()": "221f9511",
    "initialize(address[],bytes[])": "37f8d5ff",
    "justifications(address)": "cd5e3837",
    "keys(address)": "670d14b2",
    "owner()": "8da5cb5b",
    "participant_map(address)": "85edbc1c",
    "participants(uint256)": "35c1d349",
    "publish(bytes)": "7fd28346",
    "renounceOwnership()": "715018a6",
    "responses(address)": "0ea65648",
    "shares(address)": "ce7c2ac2",
    "startBlock()": "48cd4cb1",
    "transferOwnership(address)": "f2fde38b"
  },
  "id": 10
}