{
  "abi": [
    {
      "inputs": [
        {
          "internalType": "uint256",
          "name": "threshold",
          "type": "uint256"
        },
        {
          "internalType": "uint256",
          "name": "duration",
          "type": "uint256"
        }
      ],
      "stateMutability": "nonpayable",
      "type": "constructor"
    },
    {
      "anonymous": false,
      "inputs": [
        {
          "indexed": true,
          "internalType": "address",
          "name": "previousOwner",
          "type": "address"
        },
        {
          "indexed": true,
          "internalType": "address",
          "name": "newOwner",
          "type": "address"
        }
      ],
      "name": "OwnershipTransferred",
      "type": "event"
    },
    {
      "inputs": [],
      "name": "PHASE_DURATION",
      "outputs": [
        {
          "internalType": "uint256",
          "name": "",
          "type": "uint256"
        }
      ],
      "stateMutability": "view",
      "type": "function"
    },
    {
      "inputs": [],
      "name": "THRESHOLD",
      "outputs": [
        {
          "internalType": "uint256",
          "name": "",
          "type": "uint256"
        }
      ],
      "stateMutability": "view",
      "type": "function"
    },
    {
      "inputs": [],
      "name": "getDkgKeys",
      "outputs": [
        {
          "internalType": "uint256",
          "name": "",
          "type": "uint256"
        },
        {
          "internalType": "bytes[]",
          "name": "",
          "type": "bytes[]"
        }
      ],
      "stateMutability": "view",
      "type": "function"
    },
    {
      "inputs": [],
      "name": "getJustifications",
      "outputs": [
        {
          "internalType": "bytes[]",
          "name": "",
          "type": "bytes[]"
        }
      ],
      "stateMutability": "view",
      "type": "function"
    },
    {
      "inputs": [],
      "name": "getParticipants",
      "outputs": [
        {
          "internalType": "address[]",
          "name": "",
          "type": "address[]"
        }
      ],
      "stateMutability": "view",
      "type": "function"
    },
    {
      "inputs": [],
      "name": "getResponses",
      "outputs": [
        {
          "internalType": "bytes[]",
          "name": "",
          "type": "bytes[]"
        }
      ],
      "stateMutability": "view",
      "type": "function"
    },
    {
      "inputs": [],
      "name": "getShares",
      "outputs": [
        {
          "internalType": "bytes[]",
          "name": "",
          "type": "bytes[]"
        }
      ],
      "stateMutability": "view",
      "type": "function"
    },
    {
      "inputs": [],
      "name": "inPhase",
      "outputs": [
        {
          "internalType": "int8",
          "name": "",
          "type": "int8"
        }
      ],
      "stateMutability": "view",
      "type": "function"
    },
    {
      "inputs": [
        {
          "internalType": "address[]",
          "name": "nodes",
          "type": "address[]"
        },
        {
          "internalType": "bytes[]",
          "name": "publicKeys",
          "type": "bytes[]"
        }
      ],
      "name": "initialize",
      "outputs": [],
      "stateMutability": "nonpayable",
      "type": "function"
    },
    {
      "inputs": [
        {
          "internalType": "address",
          "name": "",
          "type": "address"
        }
      ],
      "name": "justifications",
      "outputs": [
        {
          "internalType": "bytes",
          "name": "",
          "type": "bytes"
        }
      ],
      "stateMutability": "view",
      "type": "function"
    },
    {
      "inputs": [
        {
          "internalType": "address",
          "name": "",
          "type": "address"
        }
      ],
      "name": "keys",
      "outputs": [
        {
          "internalType": "bytes",
          "name": "",
          "type": "bytes"
        }
      ],
      "stateMutability": "view",
      "type": "function"
    },
    {
      "inputs": [],
      "name": "owner",
      "outputs": [
        {
          "internalType": "address",
          "name": "",
          "type": "address"
        }
      ],
      "stateMutability": "view",
      "type": "function"
    },
    {
      "inputs": [
        {
          "internalType": "uint256",
          "name": "",
          "type": "uint256"
        }
      ],
      "name": "participants",
      "outputs": [
        {
          "internalType": "address",
          "name": "",
          "type": "address"
        }
      ],
      "stateMutability": "view",
      "type": "function"
    },
    {
      "inputs": [
        {
          "internalType": "bytes",
          "name": "value",
          "type": "bytes"
        }
      ],
      "name": "publish",
      "outputs": [],
      "stateMutability": "nonpayable",
      "type": "function"
    },
    {
      "inputs": [],
      "name": "renounceOwnership",
      "outputs": [],
      "stateMutability": "nonpayable",
      "type": "function"
    },
    {
      "inputs": [
        {
          "internalType": "address",
          "name": "",
          "type": "address"
        }
      ],
      "name": "responses",
      "outputs": [
        {
          "internalType": "bytes",
          "name": "",
          "type": "bytes"
        }
      ],
      "stateMutability": "view",
      "type": "function"
    },
    {
      "inputs": [],
      "name": "selfDestruct",
      "outputs": [],
      "stateMutability": "nonpayable",
      "type": "function"
    },
    {
      "inputs": [
        {
          "internalType": "address",
          "name": "",
          "type": "address"
        }
      ],
      "name": "shares",
      "outputs": [
        {
          "internalType": "bytes",
          "name": "",
          "type": "bytes"
        }
      ],
      "stateMutability": "view",
      "type": "function"
    },
    {
      "inputs": [],
      "name": "startBlock",
      "outputs": [
        {
          "internalType": "uint256",
          "name": "",
          "type": "uint256"
        }
      ],
      "stateMutability": "view",
      "type": "function"
    },
    {
      "inputs": [
        {
          "internalType": "address",
          "name": "newOwner",
          "type": "address"
        }
      ],
      "name": "transferOwnership",
      "outputs": [],
      "stateMutability": "nonpayable",
      "type": "function"
    }
  ],
  "bytecode": {
    "object": "0x60c060405260006006553480156200001657600080fd5b50604051620028ae380380620028ae83398181016040528101906200003c919062000180565b6200005c620000506200007460201b60201c565b6200007c60201b60201c565b8160a0818152505080608081815250505050620001c7565b600033905090565b60008060009054906101000a900473ffffffffffffffffffffffffffffffffffffffff169050816000806101000a81548173ffffffffffffffffffffffffffffffffffffffff021916908373ffffffffffffffffffffffffffffffffffffffff1602179055508173ffffffffffffffffffffffffffffffffffffffff168173ffffffffffffffffffffffffffffffffffffffff167f8be0079c531659141344cd1fd0a4f28419497f9722a3daafe3b4186f6b6457e060405160405180910390a35050565b600080fd5b6000819050919050565b6200015a8162000145565b81146200016657600080fd5b50565b6000815190506200017a816200014f565b92915050565b600080604083850312156200019a576200019962000140565b5b6000620001aa8582860162000169565b9250506020620001bd8582860162000169565b9150509250929050565b60805160a05161268962000225600039600081816109390152610aa601526000818161047e015281816104af015281816104ec015281816105290152818161077201528181610b6a01528181610c730152610d8801526126896000f3fe608060405234801561001057600080fd5b506004361061012c5760003560e01c8063785ffb37116100ad578063cc5ef00911610071578063cc5ef009146102fe578063cd5e38371461031c578063ce7c2ac21461034c578063d73fe0aa1461037c578063f2fde38b1461039a5761012c565b8063785ffb371461027e5780637fd283461461029c5780638da5cb5b146102b85780639cb8a26a146102d6578063b0ef8179146102e05761012c565b80634ae2b849116100f45780634ae2b849146101e95780634e3874a0146102075780635aa68ac014610226578063670d14b214610244578063715018a6146102745761012c565b80630ea6564814610131578063221f95111461016157806335c1d3491461017f57806337f8d5ff146101af57806348cd4cb1146101cb575b600080fd5b61014b6004803603810190610146919061179b565b6103b6565b6040516101589190611861565b60405180910390f35b610169610456565b604051610176919061189f565b60405180910390f35b610199600480360381019061019491906118f0565b61058c565b6040516101a6919061192c565b60405180910390f35b6101c960048036038101906101c49190611a02565b6105cb565b005b6101d361076a565b6040516101e09190611a92565b60405180910390f35b6101f1610770565b6040516101fe9190611a92565b60405180910390f35b61020f610794565b60405161021d929190611bb9565b60405180910390f35b61022e610962565b60405161023b9190611ca7565b60405180910390f35b61025e6004803603810190610259919061179b565b6109f0565b60405161026b9190611861565b60405180910390f35b61027c610a90565b005b610286610aa4565b6040516102939190611a92565b60405180910390f35b6102b660048036038101906102b19190611d1f565b610ac8565b005b6102c0610edd565b6040516102cd919061192c565b60405180910390f35b6102de610f06565b005b6102e8610f2e565b6040516102f59190611d6c565b60405180910390f35b6103066110d6565b6040516103139190611d6c565b60405180910390f35b6103366004803603810190610331919061179b565b61127e565b6040516103439190611861565b60405180910390f35b6103666004803603810190610361919061179b565b61131e565b6040516103739190611861565b60405180910390f35b6103846113be565b6040516103919190611d6c565b60405180910390f35b6103b460048036038101906103af919061179b565b611566565b005b600360205280600052604060002060009150905080546103d590611dbd565b80601f016020809104026020016040519081016040528092919081815260200182805461040190611dbd565b801561044e5780601f106104235761010080835404028352916020019161044e565b820191906000526020600020905b81548152906001019060200180831161043157829003601f168201915b505050505081565b6000806006540361046a5760009050610589565b60006006544361047a9190611e1d565b90507f000000000000000000000000000000000000000000000000000000000000000081116104ad576001915050610589565b7f000000000000000000000000000000000000000000000000000000000000000060026104da9190611e51565b81116104ea576002915050610589565b7f000000000000000000000000000000000000000000000000000000000000000060036105179190611e51565b8111610527576003915050610589565b7f000000000000000000000000000000000000000000000000000000000000000060046105549190611e51565b8111610564576004915050610589565b7fffffffffffffffffffffffffffffffffffffffffffffffffffffffffffffffff9150505b90565b6005818154811061059c57600080fd5b906000526020600020016000915054906101000a900473ffffffffffffffffffffffffffffffffffffffff1681565b600060065414610610576040517f08c379a000000000000000000000000000000000000000000000000000000000815260040161060790611f08565b60405180910390fd5b6106186115e9565b60005b8484905081101561075c57600585858381811061063b5761063a611f28565b5b9050602002016020810190610650919061179b565b9080600181540180825580915050600190039060005260206000200160009091909190916101000a81548173ffffffffffffffffffffffffffffffffffffffff021916908373ffffffffffffffffffffffffffffffffffffffff1602179055508282828181106106c3576106c2611f28565b5b90506020028101906106d59190611f66565b600160008888868181106106ec576106eb611f28565b5b9050602002016020810190610701919061179b565b73ffffffffffffffffffffffffffffffffffffffff1673ffffffffffffffffffffffffffffffffffffffff16815260200190815260200160002091826107489291906121af565b5080806107549061227f565b91505061061b565b504360068190555050505050565b60065481565b7f000000000000000000000000000000000000000000000000000000000000000081565b60006060600060058054905067ffffffffffffffff8111156107b9576107b8611fd4565b5b6040519080825280602002602001820160405280156107ec57816020015b60608152602001906001900390816107d75790505b50905060005b60058054905081101561093657600160006005838154811061081757610816611f28565b5b9060005260206000200160009054906101000a900473ffffffffffffffffffffffffffffffffffffffff1673ffffffffffffffffffffffffffffffffffffffff1673ffffffffffffffffffffffffffffffffffffffff168152602001908152602001600020805461088790611dbd565b80601f01602080910402602001604051908101604052809291908181526020018280546108b390611dbd565b80156109005780601f106108d557610100808354040283529160200191610900565b820191906000526020600020905b8154815290600101906020018083116108e357829003601f168201915b505050505082828151811061091857610917611f28565b5b6020026020010181905250808061092e9061227f565b9150506107f2565b507f00000000000000000000000000000000000000000000000000000000000000008192509250509091565b606060058054806020026020016040519081016040528092919081815260200182805480156109e657602002820191906000526020600020905b8160009054906101000a900473ffffffffffffffffffffffffffffffffffffffff1673ffffffffffffffffffffffffffffffffffffffff168152602001906001019080831161099c575b5050505050905090565b60016020528060005260406000206000915090508054610a0f90611dbd565b80601f0160208091040260200160405190810160405280929190818152602001828054610a3b90611dbd565b8015610a885780601f10610a5d57610100808354040283529160200191610a88565b820191906000526020600020905b815481529060010190602001808311610a6b57829003601f168201915b505050505081565b610a986115e9565b610aa26000611667565b565b7f000000000000000000000000000000000000000000000000000000000000000081565b6000600160003373ffffffffffffffffffffffffffffffffffffffff1673ffffffffffffffffffffffffffffffffffffffff1681526020019081526020016000208054610b1490611dbd565b905011610b56576040517f08c379a0000000000000000000000000000000000000000000000000000000008152600401610b4d90612313565b60405180910390fd5b600060065443610b669190611e1d565b90507f00000000000000000000000000000000000000000000000000000000000000008111610c71576000600260003373ffffffffffffffffffffffffffffffffffffffff1673ffffffffffffffffffffffffffffffffffffffff1681526020019081526020016000208054610bdb90611dbd565b905014610c1d576040517f08c379a0000000000000000000000000000000000000000000000000000000008152600401610c14906123a5565b60405180910390fd5b8282600260003373ffffffffffffffffffffffffffffffffffffffff1673ffffffffffffffffffffffffffffffffffffffff1681526020019081526020016000209182610c6b9291906121af565b50610ed8565b7f00000000000000000000000000000000000000000000000000000000000000006002610c9e9190611e51565b8111610d86576000600360003373ffffffffffffffffffffffffffffffffffffffff1673ffffffffffffffffffffffffffffffffffffffff1681526020019081526020016000208054610cf090611dbd565b905014610d32576040517f08c379a0000000000000000000000000000000000000000000000000000000008152600401610d2990612437565b60405180910390fd5b8282600360003373ffffffffffffffffffffffffffffffffffffffff1673ffffffffffffffffffffffffffffffffffffffff1681526020019081526020016000209182610d809291906121af565b50610ed7565b7f00000000000000000000000000000000000000000000000000000000000000006003610db39190611e51565b8111610e9b576000600460003373ffffffffffffffffffffffffffffffffffffffff1673ffffffffffffffffffffffffffffffffffffffff1681526020019081526020016000208054610e0590611dbd565b905014610e47576040517f08c379a0000000000000000000000000000000000000000000000000000000008152600401610e3e906124c9565b60405180910390fd5b8282600460003373ffffffffffffffffffffffffffffffffffffffff1673ffffffffffffffffffffffffffffffffffffffff1681526020019081526020016000209182610e959291906121af565b50610ed6565b6040517f08c379a0000000000000000000000000000000000000000000000000000000008152600401610ecd90612535565b60405180910390fd5b5b5b505050565b60008060009054906101000a900473ffffffffffffffffffffffffffffffffffffffff16905090565b610f0e6115e9565b610f16610edd565b73ffffffffffffffffffffffffffffffffffffffff16ff5b6060600060058054905067ffffffffffffffff811115610f5157610f50611fd4565b5b604051908082528060200260200182016040528015610f8457816020015b6060815260200190600190039081610f6f5790505b50905060005b6005805490508110156110ce576004600060058381548110610faf57610fae611f28565b5b9060005260206000200160009054906101000a900473ffffffffffffffffffffffffffffffffffffffff1673ffffffffffffffffffffffffffffffffffffffff1673ffffffffffffffffffffffffffffffffffffffff168152602001908152602001600020805461101f90611dbd565b80601f016020809104026020016040519081016040528092919081815260200182805461104b90611dbd565b80156110985780601f1061106d57610100808354040283529160200191611098565b820191906000526020600020905b81548152906001019060200180831161107b57829003601f168201915b50505050508282815181106110b0576110af611f28565b5b602002602001018190525080806110c69061227f565b915050610f8a565b508091505090565b6060600060058054905067ffffffffffffffff8111156110f9576110f8611fd4565b5b60405190808252806020026020018201604052801561112c57816020015b60608152602001906001900390816111175790505b50905060005b60058054905081101561127657600360006005838154811061115757611156611f28565b5b9060005260206000200160009054906101000a900473ffffffffffffffffffffffffffffffffffffffff1673ffffffffffffffffffffffffffffffffffffffff1673ffffffffffffffffffffffffffffffffffffffff16815260200190815260200160002080546111c790611dbd565b80601f01602080910402602001604051908101604052809291908181526020018280546111f390611dbd565b80156112405780601f1061121557610100808354040283529160200191611240565b820191906000526020600020905b81548152906001019060200180831161122357829003601f168201915b505050505082828151811061125857611257611f28565b5b6020026020010181905250808061126e9061227f565b915050611132565b508091505090565b6004602052806000526040600020600091509050805461129d90611dbd565b80601f01602080910402602001604051908101604052809291908181526020018280546112c990611dbd565b80156113165780601f106112eb57610100808354040283529160200191611316565b820191906000526020600020905b8154815290600101906020018083116112f957829003601f168201915b505050505081565b6002602052806000526040600020600091509050805461133d90611dbd565b80601f016020809104026020016040519081016040528092919081815260200182805461136990611dbd565b80156113b65780601f1061138b576101008083540402835291602001916113b6565b820191906000526020600020905b81548152906001019060200180831161139957829003601f168201915b505050505081565b6060600060058054905067ffffffffffffffff8111156113e1576113e0611fd4565b5b60405190808252806020026020018201604052801561141457816020015b60608152602001906001900390816113ff5790505b50905060005b60058054905081101561155e57600260006005838154811061143f5761143e611f28565b5b9060005260206000200160009054906101000a900473ffffffffffffffffffffffffffffffffffffffff1673ffffffffffffffffffffffffffffffffffffffff1673ffffffffffffffffffffffffffffffffffffffff16815260200190815260200160002080546114af90611dbd565b80601f01602080910402602001604051908101604052809291908181526020018280546114db90611dbd565b80156115285780601f106114fd57610100808354040283529160200191611528565b820191906000526020600020905b81548152906001019060200180831161150b57829003601f168201915b50505050508282815181106115405761153f611f28565b5b602002602001018190525080806115569061227f565b91505061141a565b508091505090565b61156e6115e9565b600073ffffffffffffffffffffffffffffffffffffffff168173ffffffffffffffffffffffffffffffffffffffff16036115dd576040517f08c379a00000000000000000000000000000000000000000000000000000000081526004016115d4906125c7565b60405180910390fd5b6115e681611667565b50565b6115f161172b565b73ffffffffffffffffffffffffffffffffffffffff1661160f610edd565b73ffffffffffffffffffffffffffffffffffffffff1614611665576040517f08c379a000000000000000000000000000000000000000000000000000000000815260040161165c90612633565b60405180910390fd5b565b60008060009054906101000a900473ffffffffffffffffffffffffffffffffffffffff169050816000806101000a81548173ffffffffffffffffffffffffffffffffffffffff021916908373ffffffffffffffffffffffffffffffffffffffff1602179055508173ffffffffffffffffffffffffffffffffffffffff168173ffffffffffffffffffffffffffffffffffffffff167f8be0079c531659141344cd1fd0a4f28419497f9722a3daafe3b4186f6b6457e060405160405180910390a35050565b600033905090565b600080fd5b600080fd5b600073ffffffffffffffffffffffffffffffffffffffff82169050919050565b60006117688261173d565b9050919050565b6117788161175d565b811461178357600080fd5b50565b6000813590506117958161176f565b92915050565b6000602082840312156117b1576117b0611733565b5b60006117bf84828501611786565b91505092915050565b600081519050919050565b600082825260208201905092915050565b60005b838110156118025780820151818401526020810190506117e7565b83811115611811576000848401525b50505050565b6000601f19601f8301169050919050565b6000611833826117c8565b61183d81856117d3565b935061184d8185602086016117e4565b61185681611817565b840191505092915050565b6000602082019050818103600083015261187b8184611828565b905092915050565b60008160000b9050919050565b61189981611883565b82525050565b60006020820190506118b46000830184611890565b92915050565b6000819050919050565b6118cd816118ba565b81146118d857600080fd5b50565b6000813590506118ea816118c4565b92915050565b60006020828403121561190657611905611733565b5b6000611914848285016118db565b91505092915050565b6119268161175d565b82525050565b6000602082019050611941600083018461191d565b92915050565b600080fd5b600080fd5b600080fd5b60008083601f84011261196c5761196b611947565b5b8235905067ffffffffffffffff8111156119895761198861194c565b5b6020830191508360208202830111156119a5576119a4611951565b5b9250929050565b60008083601f8401126119c2576119c1611947565b5b8235905067ffffffffffffffff8111156119df576119de61194c565b5b6020830191508360208202830111156119fb576119fa611951565b5b9250929050565b60008060008060408587031215611a1c57611a1b611733565b5b600085013567ffffffffffffffff811115611a3a57611a39611738565b5b611a4687828801611956565b9450945050602085013567ffffffffffffffff811115611a6957611a68611738565b5b611a75878288016119ac565b925092505092959194509250565b611a8c816118ba565b82525050565b6000602082019050611aa76000830184611a83565b92915050565b600081519050919050565b600082825260208201905092915050565b6000819050602082019050919050565b600082825260208201905092915050565b6000611af5826117c8565b611aff8185611ad9565b9350611b0f8185602086016117e4565b611b1881611817565b840191505092915050565b6000611b2f8383611aea565b905092915050565b6000602082019050919050565b6000611b4f82611aad565b611b598185611ab8565b935083602082028501611b6b85611ac9565b8060005b85811015611ba75784840389528151611b888582611b23565b9450611b9383611b37565b925060208a01995050600181019050611b6f565b50829750879550505050505092915050565b6000604082019050611bce6000830185611a83565b8181036020830152611be08184611b44565b90509392505050565b600081519050919050565b600082825260208201905092915050565b6000819050602082019050919050565b611c1e8161175d565b82525050565b6000611c308383611c15565b60208301905092915050565b6000602082019050919050565b6000611c5482611be9565b611c5e8185611bf4565b9350611c6983611c05565b8060005b83811015611c9a578151611c818882611c24565b9750611c8c83611c3c565b925050600181019050611c6d565b5085935050505092915050565b60006020820190508181036000830152611cc18184611c49565b905092915050565b60008083601f840112611cdf57611cde611947565b5b8235905067ffffffffffffffff811115611cfc57611cfb61194c565b5b602083019150836001820283011115611d1857611d17611951565b5b9250929050565b60008060208385031215611d3657611d35611733565b5b600083013567ffffffffffffffff811115611d5457611d53611738565b5b611d6085828601611cc9565b92509250509250929050565b60006020820190508181036000830152611d868184611b44565b905092915050565b7f4e487b7100000000000000000000000000000000000000000000000000000000600052602260045260246000fd5b60006002820490506001821680611dd557607f821691505b602082108103611de857611de7611d8e565b5b50919050565b7f4e487b7100000000000000000000000000000000000000000000000000000000600052601160045260246000fd5b6000611e28826118ba565b9150611e33836118ba565b925082821015611e4657611e45611dee565b5b828203905092915050565b6000611e5c826118ba565b9150611e67836118ba565b9250817fffffffffffffffffffffffffffffffffffffffffffffffffffffffffffffffff0483118215151615611ea057611e9f611dee565b5b828202905092915050565b600082825260208201905092915050565b7f444b472068617320616c72656164792073746172746564000000000000000000600082015250565b6000611ef2601783611eab565b9150611efd82611ebc565b602082019050919050565b60006020820190508181036000830152611f2181611ee5565b9050919050565b7f4e487b7100000000000000000000000000000000000000000000000000000000600052603260045260246000fd5b600080fd5b600080fd5b600080fd5b60008083356001602003843603038112611f8357611f82611f57565b5b80840192508235915067ffffffffffffffff821115611fa557611fa4611f5c565b5b602083019250600182023603831315611fc157611fc0611f61565b5b509250929050565b600082905092915050565b7f4e487b7100000000000000000000000000000000000000000000000000000000600052604160045260246000fd5b60008190508160005260206000209050919050565b60006020601f8301049050919050565b600082821b905092915050565b6000600883026120657fffffffffffffffffffffffffffffffffffffffffffffffffffffffffffffffff82612028565b61206f8683612028565b95508019841693508086168417925050509392505050565b6000819050919050565b60006120ac6120a76120a2846118ba565b612087565b6118ba565b9050919050565b6000819050919050565b6120c683612091565b6120da6120d2826120b3565b848454612035565b825550505050565b600090565b6120ef6120e2565b6120fa8184846120bd565b505050565b5b8181101561211e576121136000826120e7565b600181019050612100565b5050565b601f8211156121635761213481612003565b61213d84612018565b8101602085101561214c578190505b61216061215885612018565b8301826120ff565b50505b505050565b600082821c905092915050565b600061218660001984600802612168565b1980831691505092915050565b600061219f8383612175565b9150826002028217905092915050565b6121b98383611fc9565b67ffffffffffffffff8111156121d2576121d1611fd4565b5b6121dc8254611dbd565b6121e7828285612122565b6000601f8311600181146122165760008415612204578287013590505b61220e8582612193565b865550612276565b601f19841661222486612003565b60005b8281101561224c57848901358255600182019150602085019450602081019050612227565b868310156122695784890135612265601f891682612175565b8355505b6001600288020188555050505b50505050505050565b600061228a826118ba565b91507fffffffffffffffffffffffffffffffffffffffffffffffffffffffffffffffff82036122bc576122bb611dee565b5b600182019050919050565b7f796f7520617265206e6f7420612067726f7570206d656d626572210000000000600082015250565b60006122fd601b83611eab565b9150612308826122c7565b602082019050919050565b6000602082019050818103600083015261232c816122f0565b9050919050565b7f796f75206861766520616c7265616479207075626c697368656420796f75722060008201527f7368617265730000000000000000000000000000000000000000000000000000602082015250565b600061238f602683611eab565b915061239a82612333565b604082019050919050565b600060208201905081810360008301526123be81612382565b9050919050565b7f796f75206861766520616c7265616479207075626c697368656420796f75722060008201527f726573706f6e7365730000000000000000000000000000000000000000000000602082015250565b6000612421602983611eab565b915061242c826123c5565b604082019050919050565b6000602082019050818103600083015261245081612414565b9050919050565b7f796f75206861766520616c7265616479207075626c697368656420796f75722060008201527f6a757374696669636174696f6e73000000000000000000000000000000000000602082015250565b60006124b3602e83611eab565b91506124be82612457565b604082019050919050565b600060208201905081810360008301526124e2816124a6565b9050919050565b7f444b47205075626c6973682068617320656e6465640000000000000000000000600082015250565b600061251f601583611eab565b915061252a826124e9565b602082019050919050565b6000602082019050818103600083015261254e81612512565b9050919050565b7f4f776e61626c653a206e6577206f776e657220697320746865207a65726f206160008201527f6464726573730000000000000000000000000000000000000000000000000000602082015250565b60006125b1602683611eab565b91506125bc82612555565b604082019050919050565b600060208201905081810360008301526125e0816125a4565b9050919050565b7f4f776e61626c653a2063616c6c6572206973206e6f7420746865206f776e6572600082015250565b600061261d602083611eab565b9150612628826125e7565b602082019050919050565b6000602082019050818103600083015261264c81612610565b905091905056fea26469706673582212201319ec1f86289761f5b9e855b05a87a6fe7f0e558d868eadced8e8f2579acbb764736f6c634300080f0033",
    "linkReferences": {}
  },
  "methodIdentifiers": {
    "PHASE_DURATION()": "4ae2b849",
    "THRESHOLD()": "785ffb37",
    "getDkgKeys()": "4e3874a0",
    "getJustifications()": "b0ef8179",
    "getParticipants()": "5aa68ac0",
    "getResponses()": "cc5ef009",
    "getShares()": "d73fe0aa",
    "inPhase()": "221f9511",
    "initialize(address[],bytes[])": "37f8d5ff",
    "justifications(address)": "cd5e3837",
    "keys(address)": "670d14b2",
    "owner()": "8da5cb5b",
    "participants(uint256)": "35c1d349",
    "publish(bytes)": "7fd28346",
    "renounceOwnership()": "715018a6",
    "responses(address)": "0ea65648",
    "selfDestruct()": "9cb8a26a",
    "shares(address)": "ce7c2ac2",
    "startBlock()": "48cd4cb1",
    "transferOwnership(address)": "f2fde38b"
  },
  "id": 19
}