{
  "abi": [
    {
      "inputs": [
        {
          "internalType": "uint256",
          "name": "threshold",
          "type": "uint256"
        },
        {
          "internalType": "uint256",
          "name": "duration",
          "type": "uint256"
        }
      ],
      "stateMutability": "nonpayable",
      "type": "constructor"
    },
    {
      "anonymous": false,
      "inputs": [
        {
          "indexed": true,
          "internalType": "address",
          "name": "previousOwner",
          "type": "address"
        },
        {
          "indexed": true,
          "internalType": "address",
          "name": "newOwner",
          "type": "address"
        }
      ],
      "name": "OwnershipTransferred",
      "type": "event"
    },
    {
      "inputs": [],
      "name": "dkgThreshold",
      "outputs": [
        {
          "internalType": "uint256",
          "name": "",
          "type": "uint256"
        }
      ],
      "stateMutability": "view",
      "type": "function"
    },
    {
      "inputs": [],
      "name": "getDkgKeys",
      "outputs": [
        {
          "internalType": "uint256",
          "name": "",
          "type": "uint256"
        },
        {
          "internalType": "bytes[]",
          "name": "",
          "type": "bytes[]"
        }
      ],
      "stateMutability": "view",
      "type": "function"
    },
    {
      "inputs": [],
      "name": "getJustifications",
      "outputs": [
        {
          "internalType": "bytes[]",
          "name": "",
          "type": "bytes[]"
        }
      ],
      "stateMutability": "view",
      "type": "function"
    },
    {
      "inputs": [],
      "name": "getParticipants",
      "outputs": [
        {
          "internalType": "address[]",
          "name": "",
          "type": "address[]"
        }
      ],
      "stateMutability": "view",
      "type": "function"
    },
    {
      "inputs": [],
      "name": "getResponses",
      "outputs": [
        {
          "internalType": "bytes[]",
          "name": "",
          "type": "bytes[]"
        }
      ],
      "stateMutability": "view",
      "type": "function"
    },
    {
      "inputs": [],
      "name": "getShares",
      "outputs": [
        {
          "internalType": "bytes[]",
          "name": "",
          "type": "bytes[]"
        }
      ],
      "stateMutability": "view",
      "type": "function"
    },
    {
      "inputs": [],
      "name": "inPhase",
      "outputs": [
        {
          "internalType": "int8",
          "name": "",
          "type": "int8"
        }
      ],
      "stateMutability": "view",
      "type": "function"
    },
    {
      "inputs": [
        {
          "internalType": "address[]",
          "name": "nodes",
          "type": "address[]"
        },
        {
          "internalType": "bytes[]",
          "name": "publicKeys",
          "type": "bytes[]"
        }
      ],
      "name": "initialize",
      "outputs": [],
      "stateMutability": "nonpayable",
      "type": "function"
    },
    {
      "inputs": [
        {
          "internalType": "address",
          "name": "",
          "type": "address"
        }
      ],
      "name": "justifications",
      "outputs": [
        {
          "internalType": "bytes",
          "name": "",
          "type": "bytes"
        }
      ],
      "stateMutability": "view",
      "type": "function"
    },
    {
      "inputs": [
        {
          "internalType": "address",
          "name": "",
          "type": "address"
        }
      ],
      "name": "keys",
      "outputs": [
        {
          "internalType": "bytes",
          "name": "",
          "type": "bytes"
        }
      ],
      "stateMutability": "view",
      "type": "function"
    },
    {
      "inputs": [],
      "name": "owner",
      "outputs": [
        {
          "internalType": "address",
          "name": "",
          "type": "address"
        }
      ],
      "stateMutability": "view",
      "type": "function"
    },
    {
      "inputs": [
        {
          "internalType": "uint256",
          "name": "",
          "type": "uint256"
        }
      ],
      "name": "participants",
      "outputs": [
        {
          "internalType": "address",
          "name": "",
          "type": "address"
        }
      ],
      "stateMutability": "view",
      "type": "function"
    },
    {
      "inputs": [],
      "name": "phaseDuration",
      "outputs": [
        {
          "internalType": "uint256",
          "name": "",
          "type": "uint256"
        }
      ],
      "stateMutability": "view",
      "type": "function"
    },
    {
      "inputs": [
        {
          "internalType": "bytes",
          "name": "value",
          "type": "bytes"
        }
      ],
      "name": "publish",
      "outputs": [],
      "stateMutability": "nonpayable",
      "type": "function"
    },
    {
      "inputs": [],
      "name": "renounceOwnership",
      "outputs": [],
      "stateMutability": "nonpayable",
      "type": "function"
    },
    {
      "inputs": [
        {
          "internalType": "address",
          "name": "",
          "type": "address"
        }
      ],
      "name": "responses",
      "outputs": [
        {
          "internalType": "bytes",
          "name": "",
          "type": "bytes"
        }
      ],
      "stateMutability": "view",
      "type": "function"
    },
    {
      "inputs": [],
      "name": "selfDestruct",
      "outputs": [],
      "stateMutability": "nonpayable",
      "type": "function"
    },
    {
      "inputs": [
        {
          "internalType": "address",
          "name": "",
          "type": "address"
        }
      ],
      "name": "shares",
      "outputs": [
        {
          "internalType": "bytes",
          "name": "",
          "type": "bytes"
        }
      ],
      "stateMutability": "view",
      "type": "function"
    },
    {
      "inputs": [],
      "name": "startBlock",
      "outputs": [
        {
          "internalType": "uint256",
          "name": "",
          "type": "uint256"
        }
      ],
      "stateMutability": "view",
      "type": "function"
    },
    {
      "inputs": [
        {
          "internalType": "address",
          "name": "newOwner",
          "type": "address"
        }
      ],
      "name": "transferOwnership",
      "outputs": [],
      "stateMutability": "nonpayable",
      "type": "function"
    }
  ],
  "bytecode": {
    "object": "0x60c0604052600060065534801561001557600080fd5b506040516116563803806116568339810160408190526100349161009b565b61003d3361004b565b60a0919091526080526100bf565b600080546001600160a01b038381166001600160a01b0319831681178455604051919092169283917f8be0079c531659141344cd1fd0a4f28419497f9722a3daafe3b4186f6b6457e09190a35050565b600080604083850312156100ae57600080fd5b505080516020909101519092909150565b60805160a05161153a61011c6000396000818161027f0152610768015260008181610243015281816103aa015281816103dc015281816104150152818161044e0152818161089b0152818161093e01526109e5015261153a6000f3fe608060405234801561001057600080fd5b506004361061012c5760003560e01c80638da5cb5b116100ad578063cc5ef00911610071578063cc5ef009146102a1578063cd5e3837146102a9578063ce7c2ac2146102bc578063d73fe0aa146102cf578063f2fde38b146102d757600080fd5b80638da5cb5b146102255780639cb8a26a14610236578063ac5553ce1461023e578063b0ef817914610265578063c27040241461027a57600080fd5b80634e3874a0116100f45780634e3874a0146101cc5780635aa68ac0146101e2578063670d14b2146101f7578063715018a61461020a5780637fd283461461021257600080fd5b80630ea6564814610131578063221f95111461015a57806335c1d3491461017557806337f8d5ff146101a057806348cd4cb1146101b5575b600080fd5b61014461013f36600461104a565b6102ea565b60405161015191906110c0565b60405180910390f35b610162610384565b60405160009190910b8152602001610151565b6101886101833660046110d3565b61048b565b6040516001600160a01b039091168152602001610151565b6101b36101ae366004611138565b6104b5565b005b6101be60065481565b604051908152602001610151565b6101d461060a565b6040516101519291906111fc565b6101ea61078f565b604051610151919061121d565b61014461020536600461104a565b6107f1565b6101b361080a565b6101b361022036600461126a565b61081e565b6000546001600160a01b0316610188565b6101b3610ad1565b6101be7f000000000000000000000000000000000000000000000000000000000000000081565b61026d610ae7565b60405161015191906112dc565b6101be7f000000000000000000000000000000000000000000000000000000000000000081565b61026d610c45565b6101446102b736600461104a565b610d9d565b6101446102ca36600461104a565b610db6565b61026d610dcf565b6101b36102e536600461104a565b610f27565b60036020526000908152604090208054610303906112ef565b80601f016020809104026020016040519081016040528092919081815260200182805461032f906112ef565b801561037c5780601f106103515761010080835404028352916020019161037c565b820191906000526020600020905b81548152906001019060200180831161035f57829003601f168201915b505050505081565b60006006546000036103965750600090565b6000600654436103a69190611339565b90507f000000000000000000000000000000000000000000000000000000000000000081116103d757600191505090565b6104027f00000000000000000000000000000000000000000000000000000000000000006002611352565b811161041057600291505090565b61043b7f00000000000000000000000000000000000000000000000000000000000000006003611352565b811161044957600391505090565b6104747f00000000000000000000000000000000000000000000000000000000000000006004611352565b811161048257600491505090565b60001991505090565b6005818154811061049b57600080fd5b6000918252602090912001546001600160a01b0316905081565b6006541561050a5760405162461bcd60e51b815260206004820152601760248201527f444b472068617320616c7265616479207374617274656400000000000000000060448201526064015b60405180910390fd5b610512610fa0565b60005b838110156105ff57600585858381811061053157610531611369565b9050602002016020810190610546919061104a565b81546001810183556000928352602090922090910180546001600160a01b0319166001600160a01b0390921691909117905582828281811061058a5761058a611369565b905060200281019061059c919061137f565b600160008888868181106105b2576105b2611369565b90506020020160208101906105c7919061104a565b6001600160a01b031681526020810191909152604001600020916105ec91908361142a565b50806105f7816114eb565b915050610515565b505043600655505050565b60006060600060058054905067ffffffffffffffff81111561062e5761062e6113c6565b60405190808252806020026020018201604052801561066157816020015b606081526020019060019003908161064c5790505b50905060005b60055481101561076557600160006005838154811061068857610688611369565b60009182526020808320909101546001600160a01b03168352820192909252604001902080546106b7906112ef565b80601f01602080910402602001604051908101604052809291908181526020018280546106e3906112ef565b80156107305780601f1061070557610100808354040283529160200191610730565b820191906000526020600020905b81548152906001019060200180831161071357829003601f168201915b505050505082828151811061074757610747611369565b6020026020010181905250808061075d906114eb565b915050610667565b507f0000000000000000000000000000000000000000000000000000000000000000939092509050565b606060058054806020026020016040519081016040528092919081815260200182805480156107e757602002820191906000526020600020905b81546001600160a01b031681526001909101906020018083116107c9575b5050505050905090565b60016020526000908152604090208054610303906112ef565b610812610fa0565b61081c6000610ffa565b565b3360009081526001602052604081208054610838906112ef565b9050116108875760405162461bcd60e51b815260206004820152601b60248201527f796f7520617265206e6f7420612067726f7570206d656d6265722100000000006044820152606401610501565b6000600654436108979190611339565b90507f000000000000000000000000000000000000000000000000000000000000000081116109395733600090815260026020526040902080546108da906112ef565b1590506109195760405162461bcd60e51b815260206004820152600d60248201526c1cda185c9948195e1a5cdd1959609a1b6044820152606401610501565b33600090815260026020526040902061093383858361142a565b50505050565b6109647f00000000000000000000000000000000000000000000000000000000000000006002611352565b81116109e0573360009081526003602052604090208054610984906112ef565b1590506109c65760405162461bcd60e51b815260206004820152601060248201526f1c995cdc1bdb9cd948195e1a5cdd195960821b6044820152606401610501565b33600090815260036020526040902061093383858361142a565b610a0b7f00000000000000000000000000000000000000000000000000000000000000006003611352565b8111610a8c573360009081526004602052604090208054610a2b906112ef565b159050610a725760405162461bcd60e51b81526020600482015260156024820152741a9d5cdd1a599a58d85d1a5bdb88195e1a5cdd1959605a1b6044820152606401610501565b33600090815260046020526040902061093383858361142a565b60405162461bcd60e51b81526020600482015260156024820152741112d1c8141d589b1a5cda081a185cc8195b991959605a1b6044820152606401610501565b505050565b610ad9610fa0565b6000546001600160a01b0316ff5b60055460609060009067ffffffffffffffff811115610b0857610b086113c6565b604051908082528060200260200182016040528015610b3b57816020015b6060815260200190600190039081610b265790505b50905060005b600554811015610c3f576004600060058381548110610b6257610b62611369565b60009182526020808320909101546001600160a01b0316835282019290925260400190208054610b91906112ef565b80601f0160208091040260200160405190810160405280929190818152602001828054610bbd906112ef565b8015610c0a5780601f10610bdf57610100808354040283529160200191610c0a565b820191906000526020600020905b815481529060010190602001808311610bed57829003601f168201915b5050505050828281518110610c2157610c21611369565b60200260200101819052508080610c37906114eb565b915050610b41565b50919050565b60055460609060009067ffffffffffffffff811115610c6657610c666113c6565b604051908082528060200260200182016040528015610c9957816020015b6060815260200190600190039081610c845790505b50905060005b600554811015610c3f576003600060058381548110610cc057610cc0611369565b60009182526020808320909101546001600160a01b0316835282019290925260400190208054610cef906112ef565b80601f0160208091040260200160405190810160405280929190818152602001828054610d1b906112ef565b8015610d685780601f10610d3d57610100808354040283529160200191610d68565b820191906000526020600020905b815481529060010190602001808311610d4b57829003601f168201915b5050505050828281518110610d7f57610d7f611369565b60200260200101819052508080610d95906114eb565b915050610c9f565b60046020526000908152604090208054610303906112ef565b60026020526000908152604090208054610303906112ef565b60055460609060009067ffffffffffffffff811115610df057610df06113c6565b604051908082528060200260200182016040528015610e2357816020015b6060815260200190600190039081610e0e5790505b50905060005b600554811015610c3f576002600060058381548110610e4a57610e4a611369565b60009182526020808320909101546001600160a01b0316835282019290925260400190208054610e79906112ef565b80601f0160208091040260200160405190810160405280929190818152602001828054610ea5906112ef565b8015610ef25780601f10610ec757610100808354040283529160200191610ef2565b820191906000526020600020905b815481529060010190602001808311610ed557829003601f168201915b5050505050828281518110610f0957610f09611369565b60200260200101819052508080610f1f906114eb565b915050610e29565b610f2f610fa0565b6001600160a01b038116610f945760405162461bcd60e51b815260206004820152602660248201527f4f776e61626c653a206e6577206f776e657220697320746865207a65726f206160448201526564647265737360d01b6064820152608401610501565b610f9d81610ffa565b50565b6000546001600160a01b0316331461081c5760405162461bcd60e51b815260206004820181905260248201527f4f776e61626c653a2063616c6c6572206973206e6f7420746865206f776e65726044820152606401610501565b600080546001600160a01b038381166001600160a01b0319831681178455604051919092169283917f8be0079c531659141344cd1fd0a4f28419497f9722a3daafe3b4186f6b6457e09190a35050565b60006020828403121561105c57600080fd5b81356001600160a01b038116811461107357600080fd5b9392505050565b6000815180845260005b818110156110a057602081850181015186830182015201611084565b506000602082860101526020601f19601f83011685010191505092915050565b602081526000611073602083018461107a565b6000602082840312156110e557600080fd5b5035919050565b60008083601f8401126110fe57600080fd5b50813567ffffffffffffffff81111561111657600080fd5b6020830191508360208260051b850101111561113157600080fd5b9250929050565b6000806000806040858703121561114e57600080fd5b843567ffffffffffffffff8082111561116657600080fd5b611172888389016110ec565b9096509450602087013591508082111561118b57600080fd5b50611198878288016110ec565b95989497509550505050565b600082825180855260208086019550808260051b84010181860160005b848110156111ef57601f198684030189526111dd83835161107a565b988401989250908301906001016111c1565b5090979650505050505050565b82815260406020820152600061121560408301846111a4565b949350505050565b6020808252825182820181905260009190848201906040850190845b8181101561125e5783516001600160a01b031683529284019291840191600101611239565b50909695505050505050565b6000806020838503121561127d57600080fd5b823567ffffffffffffffff8082111561129557600080fd5b818501915085601f8301126112a957600080fd5b8135818111156112b857600080fd5b8660208285010111156112ca57600080fd5b60209290920196919550909350505050565b60208152600061107360208301846111a4565b600181811c9082168061130357607f821691505b602082108103610c3f57634e487b7160e01b600052602260045260246000fd5b634e487b7160e01b600052601160045260246000fd5b8181038181111561134c5761134c611323565b92915050565b808202811582820484141761134c5761134c611323565b634e487b7160e01b600052603260045260246000fd5b6000808335601e1984360301811261139657600080fd5b83018035915067ffffffffffffffff8211156113b157600080fd5b60200191503681900382131561113157600080fd5b634e487b7160e01b600052604160045260246000fd5b601f821115610acc57600081815260208120601f850160051c810160208610156114035750805b601f850160051c820191505b818110156114225782815560010161140f565b505050505050565b67ffffffffffffffff831115611442576114426113c6565b6114568361145083546112ef565b836113dc565b6000601f84116001811461148a57600085156114725750838201355b600019600387901b1c1916600186901b1783556114e4565b600083815260209020601f19861690835b828110156114bb578685013582556020948501946001909201910161149b565b50868210156114d85760001960f88860031b161c19848701351681555b505060018560011b0183555b5050505050565b6000600182016114fd576114fd611323565b506001019056fea264697066735822122005622e96b0ccf79925544c117890ba3a3c158402bafdfedff42d941ff8a7bb5a64736f6c63430008130033",
    "linkReferences": {}
  },
  "methodIdentifiers": {
    "dkgThreshold()": "c2704024",
    "getDkgKeys()": "4e3874a0",
    "getJustifications()": "b0ef8179",
    "getParticipants()": "5aa68ac0",
    "getResponses()": "cc5ef009",
    "getShares()": "d73fe0aa",
    "inPhase()": "221f9511",
    "initialize(address[],bytes[])": "37f8d5ff",
    "justifications(address)": "cd5e3837",
    "keys(address)": "670d14b2",
    "owner()": "8da5cb5b",
    "participants(uint256)": "35c1d349",
    "phaseDuration()": "ac5553ce",
    "publish(bytes)": "7fd28346",
    "renounceOwnership()": "715018a6",
    "responses(address)": "0ea65648",
    "selfDestruct()": "9cb8a26a",
    "shares(address)": "ce7c2ac2",
    "startBlock()": "48cd4cb1",
    "transferOwnership(address)": "f2fde38b"
  },
  "id": 64
}