{
  "abi": [
    {
      "inputs": [
        {
          "internalType": "uint256",
          "name": "threshold",
          "type": "uint256"
        },
        {
          "internalType": "uint256",
          "name": "duration",
          "type": "uint256"
        }
      ],
      "stateMutability": "nonpayable",
      "type": "constructor"
    },
    {
      "anonymous": false,
      "inputs": [
        {
          "indexed": true,
          "internalType": "address",
          "name": "previousOwner",
          "type": "address"
        },
        {
          "indexed": true,
          "internalType": "address",
          "name": "newOwner",
          "type": "address"
        }
      ],
      "name": "OwnershipTransferred",
      "type": "event"
    },
    {
      "inputs": [],
      "name": "PHASE_DURATION",
      "outputs": [
        {
          "internalType": "uint256",
          "name": "",
          "type": "uint256"
        }
      ],
      "stateMutability": "view",
      "type": "function"
    },
    {
      "inputs": [],
      "name": "THRESHOLD",
      "outputs": [
        {
          "internalType": "uint256",
          "name": "",
          "type": "uint256"
        }
      ],
      "stateMutability": "view",
      "type": "function"
    },
    {
      "inputs": [],
      "name": "getDkgKeys",
      "outputs": [
        {
          "internalType": "uint256",
          "name": "",
          "type": "uint256"
        },
        {
          "internalType": "bytes[]",
          "name": "",
          "type": "bytes[]"
        }
      ],
      "stateMutability": "view",
      "type": "function"
    },
    {
      "inputs": [],
      "name": "getJustifications",
      "outputs": [
        {
          "internalType": "bytes[]",
          "name": "",
          "type": "bytes[]"
        }
      ],
      "stateMutability": "view",
      "type": "function"
    },
    {
      "inputs": [],
      "name": "getParticipants",
      "outputs": [
        {
          "internalType": "address[]",
          "name": "",
          "type": "address[]"
        }
      ],
      "stateMutability": "view",
      "type": "function"
    },
    {
      "inputs": [],
      "name": "getResponses",
      "outputs": [
        {
          "internalType": "bytes[]",
          "name": "",
          "type": "bytes[]"
        }
      ],
      "stateMutability": "view",
      "type": "function"
    },
    {
      "inputs": [],
      "name": "getShares",
      "outputs": [
        {
          "internalType": "bytes[]",
          "name": "",
          "type": "bytes[]"
        }
      ],
      "stateMutability": "view",
      "type": "function"
    },
    {
      "inputs": [],
      "name": "inPhase",
      "outputs": [
        {
          "internalType": "int8",
          "name": "",
          "type": "int8"
        }
      ],
      "stateMutability": "view",
      "type": "function"
    },
    {
      "inputs": [
        {
          "internalType": "address[]",
          "name": "nodes",
          "type": "address[]"
        },
        {
          "internalType": "bytes[]",
          "name": "publicKeys",
          "type": "bytes[]"
        }
      ],
      "name": "initialize",
      "outputs": [],
      "stateMutability": "nonpayable",
      "type": "function"
    },
    {
      "inputs": [
        {
          "internalType": "address",
          "name": "",
          "type": "address"
        }
      ],
      "name": "justifications",
      "outputs": [
        {
          "internalType": "bytes",
          "name": "",
          "type": "bytes"
        }
      ],
      "stateMutability": "view",
      "type": "function"
    },
    {
      "inputs": [
        {
          "internalType": "address",
          "name": "",
          "type": "address"
        }
      ],
      "name": "keys",
      "outputs": [
        {
          "internalType": "bytes",
          "name": "",
          "type": "bytes"
        }
      ],
      "stateMutability": "view",
      "type": "function"
    },
    {
      "inputs": [],
      "name": "owner",
      "outputs": [
        {
          "internalType": "address",
          "name": "",
          "type": "address"
        }
      ],
      "stateMutability": "view",
      "type": "function"
    },
    {
      "inputs": [
        {
          "internalType": "uint256",
          "name": "",
          "type": "uint256"
        }
      ],
      "name": "participants",
      "outputs": [
        {
          "internalType": "address",
          "name": "",
          "type": "address"
        }
      ],
      "stateMutability": "view",
      "type": "function"
    },
    {
      "inputs": [
        {
          "internalType": "bytes",
          "name": "value",
          "type": "bytes"
        }
      ],
      "name": "publish",
      "outputs": [],
      "stateMutability": "nonpayable",
      "type": "function"
    },
    {
      "inputs": [],
      "name": "renounceOwnership",
      "outputs": [],
      "stateMutability": "nonpayable",
      "type": "function"
    },
    {
      "inputs": [
        {
          "internalType": "address",
          "name": "",
          "type": "address"
        }
      ],
      "name": "responses",
      "outputs": [
        {
          "internalType": "bytes",
          "name": "",
          "type": "bytes"
        }
      ],
      "stateMutability": "view",
      "type": "function"
    },
    {
      "inputs": [],
      "name": "selfDestruct",
      "outputs": [],
      "stateMutability": "nonpayable",
      "type": "function"
    },
    {
      "inputs": [
        {
          "internalType": "address",
          "name": "",
          "type": "address"
        }
      ],
      "name": "shares",
      "outputs": [
        {
          "internalType": "bytes",
          "name": "",
          "type": "bytes"
        }
      ],
      "stateMutability": "view",
      "type": "function"
    },
    {
      "inputs": [],
      "name": "startBlock",
      "outputs": [
        {
          "internalType": "uint256",
          "name": "",
          "type": "uint256"
        }
      ],
      "stateMutability": "view",
      "type": "function"
    },
    {
      "inputs": [
        {
          "internalType": "address",
          "name": "newOwner",
          "type": "address"
        }
      ],
      "name": "transferOwnership",
      "outputs": [],
      "stateMutability": "nonpayable",
      "type": "function"
    }
  ],
  "bytecode": {
    "object": "0x60c0604052600060065534801561001557600080fd5b506040516116b03803806116b08339810160408190526100349161009b565b61003d3361004b565b60a0919091526080526100bf565b600080546001600160a01b038381166001600160a01b0319831681178455604051919092169283917f8be0079c531659141344cd1fd0a4f28419497f9722a3daafe3b4186f6b6457e09190a35050565b600080604083850312156100ae57600080fd5b505080516020909101519092909150565b60805160a05161159461011c6000396000818161023e01526107680152600081816101d1015281816103aa015281816103dc015281816104150152818161044e0152818161089b0152818161095d0152610a2301526115946000f3fe608060405234801561001057600080fd5b506004361061012c5760003560e01c8063785ffb37116100ad578063cc5ef00911610071578063cc5ef009146102a1578063cd5e3837146102a9578063ce7c2ac2146102bc578063d73fe0aa146102cf578063f2fde38b146102d757600080fd5b8063785ffb37146102395780637fd28346146102605780638da5cb5b146102735780639cb8a26a14610284578063b0ef81791461028c57600080fd5b80634ae2b849116100f45780634ae2b849146101cc5780634e3874a0146101f35780635aa68ac014610209578063670d14b21461021e578063715018a61461023157600080fd5b80630ea6564814610131578063221f95111461015a57806335c1d3491461017557806337f8d5ff146101a057806348cd4cb1146101b5575b600080fd5b61014461013f3660046110a7565b6102ea565b604051610151919061111d565b60405180910390f35b610162610384565b60405160009190910b8152602001610151565b610188610183366004611130565b61048b565b6040516001600160a01b039091168152602001610151565b6101b36101ae366004611195565b6104b5565b005b6101be60065481565b604051908152602001610151565b6101be7f000000000000000000000000000000000000000000000000000000000000000081565b6101fb61060a565b604051610151929190611256565b61021161078f565b6040516101519190611277565b61014461022c3660046110a7565b6107f1565b6101b361080a565b6101be7f000000000000000000000000000000000000000000000000000000000000000081565b6101b361026e3660046112c4565b61081e565b6000546001600160a01b0316610188565b6101b3610b2e565b610294610b44565b6040516101519190611336565b610294610ca2565b6101446102b73660046110a7565b610dfa565b6101446102ca3660046110a7565b610e13565b610294610e2c565b6101b36102e53660046110a7565b610f84565b6003602052600090815260409020805461030390611349565b80601f016020809104026020016040519081016040528092919081815260200182805461032f90611349565b801561037c5780601f106103515761010080835404028352916020019161037c565b820191906000526020600020905b81548152906001019060200180831161035f57829003601f168201915b505050505081565b60006006546000036103965750600090565b6000600654436103a69190611393565b90507f000000000000000000000000000000000000000000000000000000000000000081116103d757600191505090565b6104027f000000000000000000000000000000000000000000000000000000000000000060026113ac565b811161041057600291505090565b61043b7f000000000000000000000000000000000000000000000000000000000000000060036113ac565b811161044957600391505090565b6104747f000000000000000000000000000000000000000000000000000000000000000060046113ac565b811161048257600491505090565b60001991505090565b6005818154811061049b57600080fd5b6000918252602090912001546001600160a01b0316905081565b6006541561050a5760405162461bcd60e51b815260206004820152601760248201527f444b472068617320616c7265616479207374617274656400000000000000000060448201526064015b60405180910390fd5b610512610ffd565b60005b838110156105ff576005858583818110610531576105316113c3565b905060200201602081019061054691906110a7565b81546001810183556000928352602090922090910180546001600160a01b0319166001600160a01b0390921691909117905582828281811061058a5761058a6113c3565b905060200281019061059c91906113d9565b600160008888868181106105b2576105b26113c3565b90506020020160208101906105c791906110a7565b6001600160a01b031681526020810191909152604001600020916105ec919083611484565b50806105f781611545565b915050610515565b505043600655505050565b60006060600060058054905067ffffffffffffffff81111561062e5761062e611420565b60405190808252806020026020018201604052801561066157816020015b606081526020019060019003908161064c5790505b50905060005b600554811015610765576001600060058381548110610688576106886113c3565b60009182526020808320909101546001600160a01b03168352820192909252604001902080546106b790611349565b80601f01602080910402602001604051908101604052809291908181526020018280546106e390611349565b80156107305780601f1061070557610100808354040283529160200191610730565b820191906000526020600020905b81548152906001019060200180831161071357829003601f168201915b5050505050828281518110610747576107476113c3565b6020026020010181905250808061075d90611545565b915050610667565b507f0000000000000000000000000000000000000000000000000000000000000000939092509050565b606060058054806020026020016040519081016040528092919081815260200182805480156107e757602002820191906000526020600020905b81546001600160a01b031681526001909101906020018083116107c9575b5050505050905090565b6001602052600090815260409020805461030390611349565b610812610ffd565b61081c6000611057565b565b336000908152600160205260408120805461083890611349565b9050116108875760405162461bcd60e51b815260206004820152601b60248201527f796f7520617265206e6f7420612067726f7570206d656d6265722100000000006044820152606401610501565b6000600654436108979190611393565b90507f000000000000000000000000000000000000000000000000000000000000000081116109585733600090815260026020526040902080546108da90611349565b1590506109385760405162461bcd60e51b815260206004820152602660248201527f796f75206861766520616c7265616479207075626c697368656420796f75722060448201526573686172657360d01b6064820152608401610501565b336000908152600260205260409020610952838583611484565b50505050565b6109837f000000000000000000000000000000000000000000000000000000000000000060026113ac565b8111610a1e5733600090815260036020526040902080546109a390611349565b159050610a045760405162461bcd60e51b815260206004820152602960248201527f796f75206861766520616c7265616479207075626c697368656420796f757220604482015268726573706f6e73657360b81b6064820152608401610501565b336000908152600360205260409020610952838583611484565b610a497f000000000000000000000000000000000000000000000000000000000000000060036113ac565b8111610ae9573360009081526004602052604090208054610a6990611349565b159050610acf5760405162461bcd60e51b815260206004820152602e60248201527f796f75206861766520616c7265616479207075626c697368656420796f75722060448201526d6a757374696669636174696f6e7360901b6064820152608401610501565b336000908152600460205260409020610952838583611484565b60405162461bcd60e51b81526020600482015260156024820152741112d1c8141d589b1a5cda081a185cc8195b991959605a1b6044820152606401610501565b505050565b610b36610ffd565b6000546001600160a01b0316ff5b60055460609060009067ffffffffffffffff811115610b6557610b65611420565b604051908082528060200260200182016040528015610b9857816020015b6060815260200190600190039081610b835790505b50905060005b600554811015610c9c576004600060058381548110610bbf57610bbf6113c3565b60009182526020808320909101546001600160a01b0316835282019290925260400190208054610bee90611349565b80601f0160208091040260200160405190810160405280929190818152602001828054610c1a90611349565b8015610c675780601f10610c3c57610100808354040283529160200191610c67565b820191906000526020600020905b815481529060010190602001808311610c4a57829003601f168201915b5050505050828281518110610c7e57610c7e6113c3565b60200260200101819052508080610c9490611545565b915050610b9e565b50919050565b60055460609060009067ffffffffffffffff811115610cc357610cc3611420565b604051908082528060200260200182016040528015610cf657816020015b6060815260200190600190039081610ce15790505b50905060005b600554811015610c9c576003600060058381548110610d1d57610d1d6113c3565b60009182526020808320909101546001600160a01b0316835282019290925260400190208054610d4c90611349565b80601f0160208091040260200160405190810160405280929190818152602001828054610d7890611349565b8015610dc55780601f10610d9a57610100808354040283529160200191610dc5565b820191906000526020600020905b815481529060010190602001808311610da857829003601f168201915b5050505050828281518110610ddc57610ddc6113c3565b60200260200101819052508080610df290611545565b915050610cfc565b6004602052600090815260409020805461030390611349565b6002602052600090815260409020805461030390611349565b60055460609060009067ffffffffffffffff811115610e4d57610e4d611420565b604051908082528060200260200182016040528015610e8057816020015b6060815260200190600190039081610e6b5790505b50905060005b600554811015610c9c576002600060058381548110610ea757610ea76113c3565b60009182526020808320909101546001600160a01b0316835282019290925260400190208054610ed690611349565b80601f0160208091040260200160405190810160405280929190818152602001828054610f0290611349565b8015610f4f5780601f10610f2457610100808354040283529160200191610f4f565b820191906000526020600020905b815481529060010190602001808311610f3257829003601f168201915b5050505050828281518110610f6657610f666113c3565b60200260200101819052508080610f7c90611545565b915050610e86565b610f8c610ffd565b6001600160a01b038116610ff15760405162461bcd60e51b815260206004820152602660248201527f4f776e61626c653a206e6577206f776e657220697320746865207a65726f206160448201526564647265737360d01b6064820152608401610501565b610ffa81611057565b50565b6000546001600160a01b0316331461081c5760405162461bcd60e51b815260206004820181905260248201527f4f776e61626c653a2063616c6c6572206973206e6f7420746865206f776e65726044820152606401610501565b600080546001600160a01b038381166001600160a01b0319831681178455604051919092169283917f8be0079c531659141344cd1fd0a4f28419497f9722a3daafe3b4186f6b6457e09190a35050565b6000602082840312156110b957600080fd5b81356001600160a01b03811681146110d057600080fd5b9392505050565b6000815180845260005b818110156110fd576020818501810151868301820152016110e1565b506000602082860101526020601f19601f83011685010191505092915050565b6020815260006110d060208301846110d7565b60006020828403121561114257600080fd5b5035919050565b60008083601f84011261115b57600080fd5b50813567ffffffffffffffff81111561117357600080fd5b6020830191508360208260051b850101111561118e57600080fd5b9250929050565b600080600080604085870312156111ab57600080fd5b843567ffffffffffffffff808211156111c357600080fd5b6111cf88838901611149565b909650945060208701359150808211156111e857600080fd5b506111f587828801611149565b95989497509550505050565b600081518084526020808501808196508360051b8101915082860160005b858110156112495782840389526112378483516110d7565b9885019893509084019060010161121f565b5091979650505050505050565b82815260406020820152600061126f6040830184611201565b949350505050565b6020808252825182820181905260009190848201906040850190845b818110156112b85783516001600160a01b031683529284019291840191600101611293565b50909695505050505050565b600080602083850312156112d757600080fd5b823567ffffffffffffffff808211156112ef57600080fd5b818501915085601f83011261130357600080fd5b81358181111561131257600080fd5b86602082850101111561132457600080fd5b60209290920196919550909350505050565b6020815260006110d06020830184611201565b600181811c9082168061135d57607f821691505b602082108103610c9c57634e487b7160e01b600052602260045260246000fd5b634e487b7160e01b600052601160045260246000fd5b818103818111156113a6576113a661137d565b92915050565b80820281158282048414176113a6576113a661137d565b634e487b7160e01b600052603260045260246000fd5b6000808335601e198436030181126113f057600080fd5b83018035915067ffffffffffffffff82111561140b57600080fd5b60200191503681900382131561118e57600080fd5b634e487b7160e01b600052604160045260246000fd5b601f821115610b2957600081815260208120601f850160051c8101602086101561145d5750805b601f850160051c820191505b8181101561147c57828155600101611469565b505050505050565b67ffffffffffffffff83111561149c5761149c611420565b6114b0836114aa8354611349565b83611436565b6000601f8411600181146114e457600085156114cc5750838201355b600019600387901b1c1916600186901b17835561153e565b600083815260209020601f19861690835b8281101561151557868501358255602094850194600190920191016114f5565b50868210156115325760001960f88860031b161c19848701351681555b505060018560011b0183555b5050505050565b6000600182016115575761155761137d565b506001019056fea26469706673582212208fce2b614424bd1061455b02824969011a78c2f518fd530581efe186d7871ab564736f6c63430008130033",
    "linkReferences": {}
  },
  "methodIdentifiers": {
    "PHASE_DURATION()": "4ae2b849",
    "THRESHOLD()": "785ffb37",
    "getDkgKeys()": "4e3874a0",
    "getJustifications()": "b0ef8179",
    "getParticipants()": "5aa68ac0",
    "getResponses()": "cc5ef009",
    "getShares()": "d73fe0aa",
    "inPhase()": "221f9511",
    "initialize(address[],bytes[])": "37f8d5ff",
    "justifications(address)": "cd5e3837",
    "keys(address)": "670d14b2",
    "owner()": "8da5cb5b",
    "participants(uint256)": "35c1d349",
    "publish(bytes)": "7fd28346",
    "renounceOwnership()": "715018a6",
    "responses(address)": "0ea65648",
    "selfDestruct()": "9cb8a26a",
    "shares(address)": "ce7c2ac2",
    "startBlock()": "48cd4cb1",
    "transferOwnership(address)": "f2fde38b"
  },
  "id": 49
}