{
  "abi": [
    {
      "inputs": [],
      "stateMutability": "nonpayable",
      "type": "constructor"
    },
    {
      "inputs": [],
      "name": "AtLeastOneRequestIsRequired",
      "type": "error"
    },
    {
      "inputs": [],
      "name": "EmptyPartialSignatures",
      "type": "error"
    },
    {
      "inputs": [
        {
          "internalType": "uint32",
          "name": "have",
          "type": "uint32"
        },
        {
          "internalType": "uint32",
          "name": "want",
          "type": "uint32"
        }
      ],
      "name": "GasLimitTooBig",
      "type": "error"
    },
    {
      "inputs": [
        {
          "internalType": "uint256",
          "name": "groupIndex",
          "type": "uint256"
        }
      ],
      "name": "GroupNotExist",
      "type": "error"
    },
    {
      "inputs": [],
      "name": "IdenticalSubscription",
      "type": "error"
    },
    {
      "inputs": [],
      "name": "IncorrectCommitment",
      "type": "error"
    },
    {
      "inputs": [],
      "name": "InsufficientBalanceWhenFulfill",
      "type": "error"
    },
    {
      "inputs": [],
      "name": "InsufficientBalanceWhenRequest",
      "type": "error"
    },
    {
      "inputs": [
        {
          "internalType": "uint64",
          "name": "subId",
          "type": "uint64"
        },
        {
          "internalType": "address",
          "name": "consumer",
          "type": "address"
        }
      ],
      "name": "InvalidConsumer",
      "type": "error"
    },
    {
      "inputs": [],
      "name": "InvalidPartialSignatureFormat",
      "type": "error"
    },
    {
      "inputs": [],
      "name": "InvalidPartialSignatures",
      "type": "error"
    },
    {
      "inputs": [],
      "name": "InvalidRequestByEOA",
      "type": "error"
    },
    {
      "inputs": [
        {
          "internalType": "uint16",
          "name": "have",
          "type": "uint16"
        },
        {
          "internalType": "uint16",
          "name": "min",
          "type": "uint16"
        },
        {
          "internalType": "uint16",
          "name": "max",
          "type": "uint16"
        }
      ],
      "name": "InvalidRequestConfirmations",
      "type": "error"
    },
    {
      "inputs": [],
      "name": "InvalidSignature",
      "type": "error"
    },
    {
      "inputs": [],
      "name": "InvalidSignatureFormat",
      "type": "error"
    },
    {
      "inputs": [],
      "name": "InvalidSubscription",
      "type": "error"
    },
    {
      "inputs": [],
      "name": "InvalidZeroAddress",
      "type": "error"
    },
    {
      "inputs": [
        {
          "internalType": "address",
          "name": "owner",
          "type": "address"
        }
      ],
      "name": "MustBeSubOwner",
      "type": "error"
    },
    {
      "inputs": [],
      "name": "NoAvailableGroups",
      "type": "error"
    },
    {
      "inputs": [],
      "name": "NoCorrespondingRequest",
      "type": "error"
    },
    {
      "inputs": [],
      "name": "NotFromCommitter",
      "type": "error"
    },
    {
      "inputs": [],
      "name": "PendingRequestExists",
      "type": "error"
    },
    {
      "inputs": [],
      "name": "Reentrant",
      "type": "error"
    },
    {
      "inputs": [],
      "name": "ReferralPromotionDisabled",
      "type": "error"
    },
    {
      "inputs": [],
      "name": "RequestNotExpired",
      "type": "error"
    },
    {
      "inputs": [],
      "name": "SenderNotController",
      "type": "error"
    },
    {
      "inputs": [],
      "name": "SubscriptionAlreadyHasReferral",
      "type": "error"
    },
    {
      "inputs": [],
      "name": "TaskStillExclusive",
      "type": "error"
    },
    {
      "inputs": [],
      "name": "TaskStillWithinRequestConfirmations",
      "type": "error"
    },
    {
      "inputs": [],
      "name": "TooManyConsumers",
      "type": "error"
    },
    {
      "anonymous": false,
      "inputs": [
        {
          "indexed": false,
          "internalType": "uint16",
          "name": "minimumRequestConfirmations",
          "type": "uint16"
        },
        {
          "indexed": false,
          "internalType": "uint32",
          "name": "maxGasLimit",
          "type": "uint32"
        },
        {
          "indexed": false,
          "internalType": "uint32",
          "name": "gasAfterPaymentCalculation",
          "type": "uint32"
        },
        {
          "indexed": false,
          "internalType": "uint32",
          "name": "gasExceptCallback",
          "type": "uint32"
        },
        {
          "indexed": false,
          "internalType": "uint256",
          "name": "signatureTaskExclusiveWindow",
          "type": "uint256"
        },
        {
          "indexed": false,
          "internalType": "uint256",
          "name": "rewardPerSignature",
          "type": "uint256"
        },
        {
          "indexed": false,
          "internalType": "uint256",
          "name": "committerRewardPerSignature",
          "type": "uint256"
        }
      ],
      "name": "AdapterConfigSet",
      "type": "event"
    },
    {
      "anonymous": false,
      "inputs": [
        {
          "indexed": false,
          "internalType": "address",
          "name": "previousAdmin",
          "type": "address"
        },
        {
          "indexed": false,
          "internalType": "address",
          "name": "newAdmin",
          "type": "address"
        }
      ],
      "name": "AdminChanged",
      "type": "event"
    },
    {
      "anonymous": false,
      "inputs": [
        {
          "indexed": true,
          "internalType": "address",
          "name": "beacon",
          "type": "address"
        }
      ],
      "name": "BeaconUpgraded",
      "type": "event"
    },
    {
      "anonymous": false,
      "inputs": [
        {
          "components": [
            {
              "internalType": "uint32",
              "name": "fulfillmentFlatFeeEthPPMTier1",
              "type": "uint32"
            },
            {
              "internalType": "uint32",
              "name": "fulfillmentFlatFeeEthPPMTier2",
              "type": "uint32"
            },
            {
              "internalType": "uint32",
              "name": "fulfillmentFlatFeeEthPPMTier3",
              "type": "uint32"
            },
            {
              "internalType": "uint32",
              "name": "fulfillmentFlatFeeEthPPMTier4",
              "type": "uint32"
            },
            {
              "internalType": "uint32",
              "name": "fulfillmentFlatFeeEthPPMTier5",
              "type": "uint32"
            },
            {
              "internalType": "uint24",
              "name": "reqsForTier2",
              "type": "uint24"
            },
            {
              "internalType": "uint24",
              "name": "reqsForTier3",
              "type": "uint24"
            },
            {
              "internalType": "uint24",
              "name": "reqsForTier4",
              "type": "uint24"
            },
            {
              "internalType": "uint24",
              "name": "reqsForTier5",
              "type": "uint24"
            }
          ],
          "indexed": false,
          "internalType": "struct IAdapterOwner.FeeConfig",
          "name": "flatFeeConfig",
          "type": "tuple"
        },
        {
          "indexed": false,
          "internalType": "uint16",
          "name": "flatFeePromotionGlobalPercentage",
          "type": "uint16"
        },
        {
          "indexed": false,
          "internalType": "bool",
          "name": "isFlatFeePromotionEnabledPermanently",
          "type": "bool"
        },
        {
          "indexed": false,
          "internalType": "uint256",
          "name": "flatFeePromotionStartTimestamp",
          "type": "uint256"
        },
        {
          "indexed": false,
          "internalType": "uint256",
          "name": "flatFeePromotionEndTimestamp",
          "type": "uint256"
        }
      ],
      "name": "FlatFeeConfigSet",
      "type": "event"
    },
    {
      "anonymous": false,
      "inputs": [
        {
          "indexed": false,
          "internalType": "uint8",
          "name": "version",
          "type": "uint8"
        }
      ],
      "name": "Initialized",
      "type": "event"
    },
    {
      "anonymous": false,
      "inputs": [
        {
          "indexed": true,
          "internalType": "bytes32",
          "name": "requestId",
          "type": "bytes32"
        },
        {
          "indexed": true,
          "internalType": "uint64",
          "name": "subId",
          "type": "uint64"
        }
      ],
      "name": "OvertimeRequestCanceled",
      "type": "event"
    },
    {
      "anonymous": false,
      "inputs": [
        {
          "indexed": true,
          "internalType": "address",
          "name": "previousOwner",
          "type": "address"
        },
        {
          "indexed": true,
          "internalType": "address",
          "name": "newOwner",
          "type": "address"
        }
      ],
      "name": "OwnershipTransferred",
      "type": "event"
    },
    {
      "anonymous": false,
      "inputs": [
        {
          "indexed": true,
          "internalType": "bytes32",
          "name": "requestId",
          "type": "bytes32"
        },
        {
          "indexed": true,
          "internalType": "uint64",
          "name": "subId",
          "type": "uint64"
        },
        {
          "indexed": true,
          "internalType": "uint32",
          "name": "groupIndex",
          "type": "uint32"
        },
        {
          "indexed": false,
          "internalType": "enum IRequestTypeBase.RequestType",
          "name": "requestType",
          "type": "uint8"
        },
        {
          "indexed": false,
          "internalType": "bytes",
          "name": "params",
          "type": "bytes"
        },
        {
          "indexed": false,
          "internalType": "address",
          "name": "sender",
          "type": "address"
        },
        {
          "indexed": false,
          "internalType": "uint256",
          "name": "seed",
          "type": "uint256"
        },
        {
          "indexed": false,
          "internalType": "uint16",
          "name": "requestConfirmations",
          "type": "uint16"
        },
        {
          "indexed": false,
          "internalType": "uint32",
          "name": "callbackGasLimit",
          "type": "uint32"
        },
        {
          "indexed": false,
          "internalType": "uint256",
          "name": "callbackMaxGasPrice",
          "type": "uint256"
        },
        {
          "indexed": false,
          "internalType": "uint256",
          "name": "estimatedPayment",
          "type": "uint256"
        }
      ],
      "name": "RandomnessRequest",
      "type": "event"
    },
    {
      "anonymous": false,
      "inputs": [
        {
          "indexed": true,
          "internalType": "bytes32",
          "name": "requestId",
          "type": "bytes32"
        },
        {
          "indexed": true,
          "internalType": "uint32",
          "name": "groupIndex",
          "type": "uint32"
        },
        {
          "indexed": true,
          "internalType": "address",
          "name": "committer",
          "type": "address"
        },
        {
          "indexed": false,
          "internalType": "address[]",
          "name": "participantMembers",
          "type": "address[]"
        },
        {
          "indexed": false,
          "internalType": "uint256",
          "name": "randommness",
          "type": "uint256"
        },
        {
          "indexed": false,
          "internalType": "uint256",
          "name": "payment",
          "type": "uint256"
        },
        {
          "indexed": false,
          "internalType": "uint256",
          "name": "flatFee",
          "type": "uint256"
        },
        {
          "indexed": false,
          "internalType": "bool",
          "name": "success",
          "type": "bool"
        }
      ],
      "name": "RandomnessRequestResult",
      "type": "event"
    },
    {
      "anonymous": false,
      "inputs": [
        {
          "indexed": false,
          "internalType": "bool",
          "name": "isReferralEnabled",
          "type": "bool"
        },
        {
          "indexed": false,
          "internalType": "uint16",
          "name": "freeRequestCountForReferrer",
          "type": "uint16"
        },
        {
          "indexed": false,
          "internalType": "uint16",
          "name": "freeRequestCountForReferee",
          "type": "uint16"
        }
      ],
      "name": "ReferralConfigSet",
      "type": "event"
    },
    {
      "anonymous": false,
      "inputs": [
        {
          "indexed": true,
          "internalType": "uint64",
          "name": "subId",
          "type": "uint64"
        },
        {
          "indexed": false,
          "internalType": "address",
          "name": "to",
          "type": "address"
        },
        {
          "indexed": false,
          "internalType": "uint256",
          "name": "amount",
          "type": "uint256"
        }
      ],
      "name": "SubscriptionCanceled",
      "type": "event"
    },
    {
      "anonymous": false,
      "inputs": [
        {
          "indexed": true,
          "internalType": "uint64",
          "name": "subId",
          "type": "uint64"
        },
        {
          "indexed": false,
          "internalType": "address",
          "name": "consumer",
          "type": "address"
        }
      ],
      "name": "SubscriptionConsumerAdded",
      "type": "event"
    },
    {
      "anonymous": false,
      "inputs": [
        {
          "indexed": true,
          "internalType": "uint64",
          "name": "subId",
          "type": "uint64"
        },
        {
          "indexed": false,
          "internalType": "address",
          "name": "consumer",
          "type": "address"
        }
      ],
      "name": "SubscriptionConsumerRemoved",
      "type": "event"
    },
    {
      "anonymous": false,
      "inputs": [
        {
          "indexed": true,
          "internalType": "uint64",
          "name": "subId",
          "type": "uint64"
        },
        {
          "indexed": true,
          "internalType": "address",
          "name": "owner",
          "type": "address"
        }
      ],
      "name": "SubscriptionCreated",
      "type": "event"
    },
    {
      "anonymous": false,
      "inputs": [
        {
          "indexed": true,
          "internalType": "uint64",
          "name": "subId",
          "type": "uint64"
        },
        {
          "indexed": false,
          "internalType": "uint256",
          "name": "oldBalance",
          "type": "uint256"
        },
        {
          "indexed": false,
          "internalType": "uint256",
          "name": "newBalance",
          "type": "uint256"
        }
      ],
      "name": "SubscriptionFunded",
      "type": "event"
    },
    {
      "anonymous": false,
      "inputs": [
        {
          "indexed": true,
          "internalType": "uint64",
          "name": "subId",
          "type": "uint64"
        },
        {
          "indexed": true,
          "internalType": "uint64",
          "name": "referralSubId",
          "type": "uint64"
        }
      ],
      "name": "SubscriptionReferralSet",
      "type": "event"
    },
    {
      "anonymous": false,
      "inputs": [
        {
          "indexed": true,
          "internalType": "address",
          "name": "implementation",
          "type": "address"
        }
      ],
      "name": "Upgraded",
      "type": "event"
    },
    {
      "inputs": [],
      "name": "DEFAULT_MINIMUM_THRESHOLD",
      "outputs": [
        {
          "internalType": "uint32",
          "name": "",
          "type": "uint32"
        }
      ],
      "stateMutability": "view",
      "type": "function"
    },
    {
      "inputs": [],
      "name": "MAX_CONSUMERS",
      "outputs": [
        {
          "internalType": "uint16",
          "name": "",
          "type": "uint16"
        }
      ],
      "stateMutability": "view",
      "type": "function"
    },
    {
      "inputs": [],
      "name": "MAX_REQUEST_CONFIRMATIONS",
      "outputs": [
        {
          "internalType": "uint16",
          "name": "",
          "type": "uint16"
        }
      ],
      "stateMutability": "view",
      "type": "function"
    },
    {
      "inputs": [],
      "name": "RANDOMNESS_REWARD_GAS",
      "outputs": [
        {
          "internalType": "uint32",
          "name": "",
          "type": "uint32"
        }
      ],
      "stateMutability": "view",
      "type": "function"
    },
    {
      "inputs": [],
      "name": "VERIFICATION_GAS_OVER_MINIMUM_THRESHOLD",
      "outputs": [
        {
          "internalType": "uint32",
          "name": "",
          "type": "uint32"
        }
      ],
      "stateMutability": "view",
      "type": "function"
    },
    {
      "inputs": [
        {
          "internalType": "uint64",
          "name": "subId",
          "type": "uint64"
        },
        {
          "internalType": "address",
          "name": "consumer",
          "type": "address"
        }
      ],
      "name": "addConsumer",
      "outputs": [],
      "stateMutability": "nonpayable",
      "type": "function"
    },
    {
      "inputs": [
        {
          "internalType": "bytes32",
          "name": "requestId",
          "type": "bytes32"
        },
        {
          "components": [
            {
              "internalType": "uint64",
              "name": "subId",
              "type": "uint64"
            },
            {
              "internalType": "uint32",
              "name": "groupIndex",
              "type": "uint32"
            },
            {
              "internalType": "enum IRequestTypeBase.RequestType",
              "name": "requestType",
              "type": "uint8"
            },
            {
              "internalType": "bytes",
              "name": "params",
              "type": "bytes"
            },
            {
              "internalType": "address",
              "name": "callbackContract",
              "type": "address"
            },
            {
              "internalType": "uint256",
              "name": "seed",
              "type": "uint256"
            },
            {
              "internalType": "uint16",
              "name": "requestConfirmations",
              "type": "uint16"
            },
            {
              "internalType": "uint32",
              "name": "callbackGasLimit",
              "type": "uint32"
            },
            {
              "internalType": "uint256",
              "name": "callbackMaxGasPrice",
              "type": "uint256"
            },
            {
              "internalType": "uint256",
              "name": "blockNum",
              "type": "uint256"
            }
          ],
          "internalType": "struct IAdapter.RequestDetail",
          "name": "requestDetail",
          "type": "tuple"
        }
      ],
      "name": "cancelOvertimeRequest",
      "outputs": [],
      "stateMutability": "nonpayable",
      "type": "function"
    },
    {
      "inputs": [
        {
          "internalType": "uint64",
          "name": "subId",
          "type": "uint64"
        },
        {
          "internalType": "address",
          "name": "to",
          "type": "address"
        }
      ],
      "name": "cancelSubscription",
      "outputs": [],
      "stateMutability": "nonpayable",
      "type": "function"
    },
    {
      "inputs": [],
      "name": "createSubscription",
      "outputs": [
        {
          "internalType": "uint64",
          "name": "",
          "type": "uint64"
        }
      ],
      "stateMutability": "nonpayable",
      "type": "function"
    },
    {
      "inputs": [
        {
          "internalType": "uint32",
          "name": "callbackGasLimit",
          "type": "uint32"
        },
        {
          "internalType": "uint32",
          "name": "gasExceptCallback",
          "type": "uint32"
        },
        {
          "internalType": "uint32",
          "name": "fulfillmentFlatFeeEthPPM",
          "type": "uint32"
        },
        {
          "internalType": "uint256",
          "name": "weiPerUnitGas",
          "type": "uint256"
        },
        {
          "internalType": "uint32",
          "name": "groupSize",
          "type": "uint32"
        }
      ],
      "name": "estimatePaymentAmountInETH",
      "outputs": [
        {
          "internalType": "uint256",
          "name": "",
          "type": "uint256"
        }
      ],
      "stateMutability": "view",
      "type": "function"
    },
    {
      "inputs": [
        {
          "internalType": "uint32",
          "name": "groupIndex",
          "type": "uint32"
        },
        {
          "internalType": "bytes32",
          "name": "requestId",
          "type": "bytes32"
        },
        {
          "internalType": "uint256",
          "name": "signature",
          "type": "uint256"
        },
        {
          "components": [
            {
              "internalType": "uint64",
              "name": "subId",
              "type": "uint64"
            },
            {
              "internalType": "uint32",
              "name": "groupIndex",
              "type": "uint32"
            },
            {
              "internalType": "enum IRequestTypeBase.RequestType",
              "name": "requestType",
              "type": "uint8"
            },
            {
              "internalType": "bytes",
              "name": "params",
              "type": "bytes"
            },
            {
              "internalType": "address",
              "name": "callbackContract",
              "type": "address"
            },
            {
              "internalType": "uint256",
              "name": "seed",
              "type": "uint256"
            },
            {
              "internalType": "uint16",
              "name": "requestConfirmations",
              "type": "uint16"
            },
            {
              "internalType": "uint32",
              "name": "callbackGasLimit",
              "type": "uint32"
            },
            {
              "internalType": "uint256",
              "name": "callbackMaxGasPrice",
              "type": "uint256"
            },
            {
              "internalType": "uint256",
              "name": "blockNum",
              "type": "uint256"
            }
          ],
          "internalType": "struct IAdapter.RequestDetail",
          "name": "requestDetail",
          "type": "tuple"
        },
        {
          "components": [
            {
              "internalType": "uint256",
              "name": "index",
              "type": "uint256"
            },
            {
              "internalType": "uint256",
              "name": "partialSignature",
              "type": "uint256"
            }
          ],
          "internalType": "struct IAdapter.PartialSignature[]",
          "name": "partialSignatures",
          "type": "tuple[]"
        }
      ],
      "name": "fulfillRandomness",
      "outputs": [],
      "stateMutability": "nonpayable",
      "type": "function"
    },
    {
      "inputs": [
        {
          "internalType": "uint64",
          "name": "subId",
          "type": "uint64"
        }
      ],
      "name": "fundSubscription",
      "outputs": [],
      "stateMutability": "payable",
      "type": "function"
    },
    {
      "inputs": [],
      "name": "getAdapterConfig",
      "outputs": [
        {
          "internalType": "uint16",
          "name": "minimumRequestConfirmations",
          "type": "uint16"
        },
        {
          "internalType": "uint32",
          "name": "maxGasLimit",
          "type": "uint32"
        },
        {
          "internalType": "uint32",
          "name": "gasAfterPaymentCalculation",
          "type": "uint32"
        },
        {
          "internalType": "uint32",
          "name": "gasExceptCallback",
          "type": "uint32"
        },
        {
          "internalType": "uint256",
          "name": "signatureTaskExclusiveWindow",
          "type": "uint256"
        },
        {
          "internalType": "uint256",
          "name": "rewardPerSignature",
          "type": "uint256"
        },
        {
          "internalType": "uint256",
          "name": "committerRewardPerSignature",
          "type": "uint256"
        }
      ],
      "stateMutability": "view",
      "type": "function"
    },
    {
      "inputs": [],
      "name": "getController",
      "outputs": [
        {
          "internalType": "address",
          "name": "",
          "type": "address"
        }
      ],
      "stateMutability": "view",
      "type": "function"
    },
    {
      "inputs": [],
      "name": "getCumulativeData",
      "outputs": [
        {
          "internalType": "uint256",
          "name": "",
          "type": "uint256"
        },
        {
          "internalType": "uint256",
          "name": "",
          "type": "uint256"
        },
        {
          "internalType": "uint256",
          "name": "",
          "type": "uint256"
        }
      ],
      "stateMutability": "view",
      "type": "function"
    },
    {
      "inputs": [],
      "name": "getCurrentSubId",
      "outputs": [
        {
          "internalType": "uint64",
          "name": "",
          "type": "uint64"
        }
      ],
      "stateMutability": "view",
      "type": "function"
    },
    {
      "inputs": [
        {
          "internalType": "uint64",
          "name": "reqCount",
          "type": "uint64"
        }
      ],
      "name": "getFeeTier",
      "outputs": [
        {
          "internalType": "uint32",
          "name": "",
          "type": "uint32"
        }
      ],
      "stateMutability": "view",
      "type": "function"
    },
    {
      "inputs": [],
      "name": "getFlatFeeConfig",
      "outputs": [
        {
          "internalType": "uint32",
          "name": "fulfillmentFlatFeeLinkPPMTier1",
          "type": "uint32"
        },
        {
          "internalType": "uint32",
          "name": "fulfillmentFlatFeeLinkPPMTier2",
          "type": "uint32"
        },
        {
          "internalType": "uint32",
          "name": "fulfillmentFlatFeeLinkPPMTier3",
          "type": "uint32"
        },
        {
          "internalType": "uint32",
          "name": "fulfillmentFlatFeeLinkPPMTier4",
          "type": "uint32"
        },
        {
          "internalType": "uint32",
          "name": "fulfillmentFlatFeeLinkPPMTier5",
          "type": "uint32"
        },
        {
          "internalType": "uint24",
          "name": "reqsForTier2",
          "type": "uint24"
        },
        {
          "internalType": "uint24",
          "name": "reqsForTier3",
          "type": "uint24"
        },
        {
          "internalType": "uint24",
          "name": "reqsForTier4",
          "type": "uint24"
        },
        {
          "internalType": "uint24",
          "name": "reqsForTier5",
          "type": "uint24"
        },
        {
          "internalType": "uint16",
          "name": "flatFeePromotionGlobalPercentage",
          "type": "uint16"
        },
        {
          "internalType": "bool",
          "name": "isFlatFeePromotionEnabledPermanently",
          "type": "bool"
        },
        {
          "internalType": "uint256",
          "name": "flatFeePromotionStartTimestamp",
          "type": "uint256"
        },
        {
          "internalType": "uint256",
          "name": "flatFeePromotionEndTimestamp",
          "type": "uint256"
        }
      ],
      "stateMutability": "view",
      "type": "function"
    },
    {
      "inputs": [],
      "name": "getLastAssignedGroupIndex",
      "outputs": [
        {
          "internalType": "uint256",
          "name": "",
          "type": "uint256"
        }
      ],
      "stateMutability": "view",
      "type": "function"
    },
    {
      "inputs": [],
      "name": "getLastRandomness",
      "outputs": [
        {
          "internalType": "uint256",
          "name": "",
          "type": "uint256"
        }
      ],
      "stateMutability": "view",
      "type": "function"
    },
    {
      "inputs": [
        {
          "internalType": "address",
          "name": "consumer",
          "type": "address"
        }
      ],
      "name": "getLastSubscription",
      "outputs": [
        {
          "internalType": "uint64",
          "name": "",
          "type": "uint64"
        }
      ],
      "stateMutability": "view",
      "type": "function"
    },
    {
      "inputs": [
        {
          "internalType": "bytes32",
          "name": "requestId",
          "type": "bytes32"
        }
      ],
      "name": "getPendingRequestCommitment",
      "outputs": [
        {
          "internalType": "bytes32",
          "name": "",
          "type": "bytes32"
        }
      ],
      "stateMutability": "view",
      "type": "function"
    },
    {
      "inputs": [],
      "name": "getRandomnessCount",
      "outputs": [
        {
          "internalType": "uint256",
          "name": "",
          "type": "uint256"
        }
      ],
      "stateMutability": "view",
      "type": "function"
    },
    {
      "inputs": [],
      "name": "getReferralConfig",
      "outputs": [
        {
          "internalType": "bool",
          "name": "isReferralEnabled",
          "type": "bool"
        },
        {
          "internalType": "uint16",
          "name": "freeRequestCountForReferrer",
          "type": "uint16"
        },
        {
          "internalType": "uint16",
          "name": "freeRequestCountForReferee",
          "type": "uint16"
        }
      ],
      "stateMutability": "view",
      "type": "function"
    },
    {
      "inputs": [
        {
          "internalType": "uint64",
          "name": "subId",
          "type": "uint64"
        }
      ],
      "name": "getSubscription",
      "outputs": [
        {
          "internalType": "address",
          "name": "owner",
          "type": "address"
        },
        {
          "internalType": "address[]",
          "name": "consumers",
          "type": "address[]"
        },
        {
          "internalType": "uint256",
          "name": "balance",
          "type": "uint256"
        },
        {
          "internalType": "uint256",
          "name": "inflightCost",
          "type": "uint256"
        },
        {
          "internalType": "uint64",
          "name": "reqCount",
          "type": "uint64"
        },
        {
          "internalType": "uint64",
          "name": "freeRequestCount",
          "type": "uint64"
        },
        {
          "internalType": "uint64",
          "name": "referralSubId",
          "type": "uint64"
        },
        {
          "internalType": "uint64",
          "name": "reqCountInCurrentPeriod",
          "type": "uint64"
        },
        {
          "internalType": "uint256",
          "name": "lastRequestTimestamp",
          "type": "uint256"
        }
      ],
      "stateMutability": "view",
      "type": "function"
    },
    {
      "inputs": [
        {
          "internalType": "address",
          "name": "controller",
          "type": "address"
        }
      ],
      "name": "initialize",
      "outputs": [],
      "stateMutability": "nonpayable",
      "type": "function"
    },
    {
      "inputs": [
        {
          "internalType": "address",
          "name": "recipient",
          "type": "address"
        },
        {
          "internalType": "uint256",
          "name": "ethAmount",
          "type": "uint256"
        }
      ],
      "name": "nodeWithdrawETH",
      "outputs": [],
      "stateMutability": "nonpayable",
      "type": "function"
    },
    {
      "inputs": [],
      "name": "owner",
      "outputs": [
        {
          "internalType": "address",
          "name": "",
          "type": "address"
        }
      ],
      "stateMutability": "view",
      "type": "function"
    },
    {
      "inputs": [
        {
          "internalType": "uint64",
          "name": "subId",
          "type": "uint64"
        }
      ],
      "name": "ownerCancelSubscription",
      "outputs": [],
      "stateMutability": "nonpayable",
      "type": "function"
    },
    {
      "inputs": [],
      "name": "proxiableUUID",
      "outputs": [
        {
          "internalType": "bytes32",
          "name": "",
          "type": "bytes32"
        }
      ],
      "stateMutability": "view",
      "type": "function"
    },
    {
      "inputs": [
        {
          "internalType": "uint64",
          "name": "subId",
          "type": "uint64"
        },
        {
          "internalType": "address",
          "name": "consumer",
          "type": "address"
        }
      ],
      "name": "removeConsumer",
      "outputs": [],
      "stateMutability": "nonpayable",
      "type": "function"
    },
    {
      "inputs": [],
      "name": "renounceOwnership",
      "outputs": [],
      "stateMutability": "nonpayable",
      "type": "function"
    },
    {
      "inputs": [
        {
          "components": [
            {
              "internalType": "enum IRequestTypeBase.RequestType",
              "name": "requestType",
              "type": "uint8"
            },
            {
              "internalType": "bytes",
              "name": "params",
              "type": "bytes"
            },
            {
              "internalType": "uint64",
              "name": "subId",
              "type": "uint64"
            },
            {
              "internalType": "uint256",
              "name": "seed",
              "type": "uint256"
            },
            {
              "internalType": "uint16",
              "name": "requestConfirmations",
              "type": "uint16"
            },
            {
              "internalType": "uint32",
              "name": "callbackGasLimit",
              "type": "uint32"
            },
            {
              "internalType": "uint256",
              "name": "callbackMaxGasPrice",
              "type": "uint256"
            }
          ],
          "internalType": "struct IAdapter.RandomnessRequestParams",
          "name": "params",
          "type": "tuple"
        }
      ],
      "name": "requestRandomness",
      "outputs": [
        {
          "internalType": "bytes32",
          "name": "",
          "type": "bytes32"
        }
      ],
      "stateMutability": "nonpayable",
      "type": "function"
    },
    {
      "inputs": [
        {
          "internalType": "uint16",
          "name": "minimumRequestConfirmations",
          "type": "uint16"
        },
        {
          "internalType": "uint32",
          "name": "maxGasLimit",
          "type": "uint32"
        },
        {
          "internalType": "uint32",
          "name": "gasAfterPaymentCalculation",
          "type": "uint32"
        },
        {
          "internalType": "uint32",
          "name": "gasExceptCallback",
          "type": "uint32"
        },
        {
          "internalType": "uint256",
          "name": "signatureTaskExclusiveWindow",
          "type": "uint256"
        },
        {
          "internalType": "uint256",
          "name": "rewardPerSignature",
          "type": "uint256"
        },
        {
          "internalType": "uint256",
          "name": "committerRewardPerSignature",
          "type": "uint256"
        }
      ],
      "name": "setAdapterConfig",
      "outputs": [],
      "stateMutability": "nonpayable",
      "type": "function"
    },
    {
      "inputs": [
        {
          "components": [
            {
              "internalType": "uint32",
              "name": "fulfillmentFlatFeeEthPPMTier1",
              "type": "uint32"
            },
            {
              "internalType": "uint32",
              "name": "fulfillmentFlatFeeEthPPMTier2",
              "type": "uint32"
            },
            {
              "internalType": "uint32",
              "name": "fulfillmentFlatFeeEthPPMTier3",
              "type": "uint32"
            },
            {
              "internalType": "uint32",
              "name": "fulfillmentFlatFeeEthPPMTier4",
              "type": "uint32"
            },
            {
              "internalType": "uint32",
              "name": "fulfillmentFlatFeeEthPPMTier5",
              "type": "uint32"
            },
            {
              "internalType": "uint24",
              "name": "reqsForTier2",
              "type": "uint24"
            },
            {
              "internalType": "uint24",
              "name": "reqsForTier3",
              "type": "uint24"
            },
            {
              "internalType": "uint24",
              "name": "reqsForTier4",
              "type": "uint24"
            },
            {
              "internalType": "uint24",
              "name": "reqsForTier5",
              "type": "uint24"
            }
          ],
          "internalType": "struct IAdapterOwner.FeeConfig",
          "name": "flatFeeConfig",
          "type": "tuple"
        },
        {
          "internalType": "uint16",
          "name": "flatFeePromotionGlobalPercentage",
          "type": "uint16"
        },
        {
          "internalType": "bool",
          "name": "isFlatFeePromotionEnabledPermanently",
          "type": "bool"
        },
        {
          "internalType": "uint256",
          "name": "flatFeePromotionStartTimestamp",
          "type": "uint256"
        },
        {
          "internalType": "uint256",
          "name": "flatFeePromotionEndTimestamp",
          "type": "uint256"
        }
      ],
      "name": "setFlatFeeConfig",
      "outputs": [],
      "stateMutability": "nonpayable",
      "type": "function"
    },
    {
      "inputs": [
        {
          "internalType": "uint64[]",
          "name": "subIds",
          "type": "uint64[]"
        },
        {
          "internalType": "uint64[]",
          "name": "freeRequestCounts",
          "type": "uint64[]"
        }
      ],
      "name": "setFreeRequestCount",
      "outputs": [],
      "stateMutability": "nonpayable",
      "type": "function"
    },
    {
      "inputs": [
        {
          "internalType": "uint64",
          "name": "subId",
          "type": "uint64"
        },
        {
          "internalType": "uint64",
          "name": "referralSubId",
          "type": "uint64"
        }
      ],
      "name": "setReferral",
      "outputs": [],
      "stateMutability": "nonpayable",
      "type": "function"
    },
    {
      "inputs": [
        {
          "internalType": "bool",
          "name": "isReferralEnabled",
          "type": "bool"
        },
        {
          "internalType": "uint16",
          "name": "freeRequestCountForReferrer",
          "type": "uint16"
        },
        {
          "internalType": "uint16",
          "name": "freeRequestCountForReferee",
          "type": "uint16"
        }
      ],
      "name": "setReferralConfig",
      "outputs": [],
      "stateMutability": "nonpayable",
      "type": "function"
    },
    {
      "inputs": [
        {
          "internalType": "address",
          "name": "newOwner",
          "type": "address"
        }
      ],
      "name": "transferOwnership",
      "outputs": [],
      "stateMutability": "nonpayable",
      "type": "function"
    },
    {
      "inputs": [
        {
          "internalType": "address",
          "name": "newImplementation",
          "type": "address"
        }
      ],
      "name": "upgradeTo",
      "outputs": [],
      "stateMutability": "nonpayable",
      "type": "function"
    },
    {
      "inputs": [
        {
          "internalType": "address",
          "name": "newImplementation",
          "type": "address"
        },
        {
          "internalType": "bytes",
          "name": "data",
          "type": "bytes"
        }
      ],
      "name": "upgradeToAndCall",
      "outputs": [],
      "stateMutability": "payable",
      "type": "function"
    }
  ],
  "bytecode": {
    "object": "0x60a0604052306080523480156200001557600080fd5b506200002062000026565b620000e8565b600054610100900460ff1615620000935760405162461bcd60e51b815260206004820152602760248201527f496e697469616c697a61626c653a20636f6e747261637420697320696e697469604482015266616c697a696e6760c81b606482015260840160405180910390fd5b60005460ff9081161015620000e6576000805460ff191660ff9081179091556040519081527f7f26b83ff96e1f2b6a682f133852f6798a09c465da95921460cefb38474024989060200160405180910390a15b565b608051615ff86200012060003960008181610afb01528181610b8501528181610c7801528181610cfd0152610de70152615ff86000f3fe6080604052600436106102565760003560e01c806391a6fe7711610149578063c725a833116100c6578063dcdb7b881161008a578063f2fde38b11610064578063f2fde38b1461090e578063f362ca611461092e578063f4cc97fc1461094e57600080fd5b8063dcdb7b8814610721578063dfaba79414610889578063ef6f42731461089c57600080fd5b8063c725a83314610670578063caba5284146106a1578063d2f9f9a7146106c1578063d7ae1d30146106e1578063d89f241f1461070157600080fd5b8063a39402d71161010d578063a39402d7146105d1578063a47c7696146105f1578063a4c343f214610626578063aa81d59a1461063b578063c4d66de81461065057600080fd5b806391a6fe7714610541578063931d92041461055c5780639f87fad71461057c578063a141bbd81461059c578063a21a23e4146105bc57600080fd5b806352d1902d116101d75780637341c10c1161019b5780637341c10c1461048057806376a911bc146104a05780638166d459146104e2578063877d38bb1461050d5780638da5cb5b1461052357600080fd5b806352d1902d1461040c578063636021741461042157806364d51a2a14610436578063715018a61461044b57806371b7ca051461046057600080fd5b806315c48b841161021e57806315c48b841461032f5780631e58a872146103575780633018205f146103a75780633659cfe6146103d95780634f1ef286146103f957600080fd5b806302bcc5b61461025b578063056e5ede1461027d57806306bfa6371461029d5780630ad98f6a146102d45780631565034c146102f4575b600080fd5b34801561026757600080fd5b5061027b61027636600461498d565b61096e565b005b34801561028957600080fd5b5061027b610298366004614b35565b6109e5565b3480156102a957600080fd5b5060d7546001600160401b03165b6040516001600160401b0390911681526020015b60405180910390f35b3480156102e057600080fd5b5061027b6102ef366004614bb8565b610a90565b34801561030057600080fd5b5061032161030f366004614be4565b600090815260d4602052604090205490565b6040519081526020016102cb565b34801561033b57600080fd5b5061034460c881565b60405161ffff90911681526020016102cb565b34801561036357600080fd5b5061038560d85460ff81169161ffff6101008304811692630100000090041690565b60408051931515845261ffff92831660208501529116908201526060016102cb565b3480156103b357600080fd5b5060c9546001600160a01b03165b6040516001600160a01b0390911681526020016102cb565b3480156103e557600080fd5b5061027b6103f4366004614bfd565b610af1565b61027b610407366004614c89565b610c6e565b34801561041857600080fd5b50610321610dda565b34801561042d57600080fd5b5060cf54610321565b34801561044257600080fd5b50610344606481565b34801561045757600080fd5b5061027b610e9f565b34801561046c57600080fd5b5061027b61047b366004614cfd565b610eb3565b34801561048c57600080fd5b5061027b61049b366004614d72565b61100b565b3480156104ac57600080fd5b506102b76104bb366004614bfd565b6001600160a01b0316600090815260d560205260409020600101546001600160401b031690565b3480156104ee57600080fd5b506104f861232881565b60405163ffffffff90911681526020016102cb565b34801561051957600080fd5b506104f861c35081565b34801561052f57600080fd5b506097546001600160a01b03166103c1565b34801561054d57600080fd5b5060cd5463ffffffff16610321565b34801561056857600080fd5b5061027b610577366004614da9565b6111ce565b34801561058857600080fd5b5061027b610597366004614d72565b6114bf565b3480156105a857600080fd5b506103216105b7366004614ddc565b6117f5565b3480156105c857600080fd5b506102b7611948565b3480156105dd57600080fd5b506103216105ec366004614e44565b611a41565b3480156105fd57600080fd5b5061061161060c36600461498d565b611e57565b6040516102cb99989796959493929190614ec2565b34801561063257600080fd5b5060ce54610321565b34801561064757600080fd5b506104f8600381565b34801561065c57600080fd5b5061027b61066b366004614bfd565b611f77565b34801561067c57600080fd5b5060ca5460cb5460cc54604080519384526020840192909252908201526060016102cb565b3480156106ad57600080fd5b5061027b6106bc366004614f45565b6120b2565b3480156106cd57600080fd5b506104f86106dc36600461498d565b612500565b3480156106ed57600080fd5b5061027b6106fc366004614d72565b61267d565b34801561070d57600080fd5b5061027b61071c366004615003565b612789565b34801561072d57600080fd5b50604080516101208101825260d95463ffffffff8082168084526401000000008304821660208501819052600160401b84048316958501869052600160601b8404831660608601819052600160801b85049093166080860181905262ffffff600160a01b8604811660a08801819052600160b81b8704821660c08901819052600160d01b8804831660e08a01819052600160e81b90980490921661010090980188905260da5460db5460dc54969a95999598949692959394939261ffff83169260ff620100009091041691906040516102cb9d9c9b9a9998979695949392919063ffffffff9d8e1681529b8d1660208d0152998c1660408c0152978b1660608b015295909916608089015262ffffff93841660a089015291831660c0880152821660e08701521661010085015261ffff949094166101208401529215156101408301526101608201929092526101808101919091526101a00190565b61027b61089736600461498d565b612ada565b3480156108a857600080fd5b5060d05460d15460d25460d3546040805161ffff8616815263ffffffff620100008704811660208301526701000000000000008704811692820192909252600160581b909504166060850152608084019290925260a083015260c082015260e0016102cb565b34801561091a57600080fd5b5061027b610929366004614bfd565b612bc6565b34801561093a57600080fd5b5061027b610949366004615058565b612c3c565b34801561095a57600080fd5b5061027b6109693660046150b0565b612cd6565b610976612f10565b6001600160401b038116600090815260d660205260409020546001600160a01b03166109b557604051630fb532db60e11b815260040160405180910390fd5b6001600160401b038116600090815260d660205260409020546109e29082906001600160a01b0316612f6a565b50565b6109ed612f10565b60005b8251811015610a8b57818181518110610a0b57610a0b6151b2565b602002602001015160d66000858481518110610a2957610a296151b2565b60200260200101516001600160401b03166001600160401b0316815260200190815260200160002060060160086101000a8154816001600160401b0302191690836001600160401b031602179055508080610a83906151de565b9150506109f0565b505050565b60c9546001600160a01b03163314610abb57604051630f5caa3360e41b815260040160405180910390fd5b6040516001600160a01b0383169082156108fc029083906000818181858888f19350505050158015610a8b573d6000803e3d6000fd5b6001600160a01b037f0000000000000000000000000000000000000000000000000000000000000000163003610b835760405162461bcd60e51b815260206004820152602c60248201527f46756e6374696f6e206d7573742062652063616c6c6564207468726f7567682060448201526b19195b1959d85d1958d85b1b60a21b60648201526084015b60405180910390fd5b7f00000000000000000000000000000000000000000000000000000000000000006001600160a01b0316610bde7f360894a13ba1a3210667c828492db98dca3e2076cc3735a920a3ca505d382bbc546001600160a01b031690565b6001600160a01b031614610c495760405162461bcd60e51b815260206004820152602c60248201527f46756e6374696f6e206d7573742062652063616c6c6564207468726f7567682060448201526b6163746976652070726f787960a01b6064820152608401610b7a565b610c528161303c565b604080516000808252602082019092526109e291839190613044565b6001600160a01b037f0000000000000000000000000000000000000000000000000000000000000000163003610cfb5760405162461bcd60e51b815260206004820152602c60248201527f46756e6374696f6e206d7573742062652063616c6c6564207468726f7567682060448201526b19195b1959d85d1958d85b1b60a21b6064820152608401610b7a565b7f00000000000000000000000000000000000000000000000000000000000000006001600160a01b0316610d567f360894a13ba1a3210667c828492db98dca3e2076cc3735a920a3ca505d382bbc546001600160a01b031690565b6001600160a01b031614610dc15760405162461bcd60e51b815260206004820152602c60248201527f46756e6374696f6e206d7573742062652063616c6c6564207468726f7567682060448201526b6163746976652070726f787960a01b6064820152608401610b7a565b610dca8261303c565b610dd682826001613044565b5050565b6000306001600160a01b037f00000000000000000000000000000000000000000000000000000000000000001614610e7a5760405162461bcd60e51b815260206004820152603860248201527f555550535570677261646561626c653a206d757374206e6f742062652063616c60448201527f6c6564207468726f7567682064656c656761746563616c6c00000000000000006064820152608401610b7a565b507f360894a13ba1a3210667c828492db98dca3e2076cc3735a920a3ca505d382bbc90565b610ea7612f10565b610eb160006131d0565b565b610ebb612f10565b60c861ffff88161115610ef55760405163539c34bb60e11b815261ffff881660048201819052602482015260c86044820152606401610b7a565b604080516101008101825261ffff891680825263ffffffff89811660208085018290526000858701528a83166060808701829052938b16608080880182905260a08089018d905260c0808a018d905260e0998a018c905260d0805465ffffffffffff19168a17620100008902176effffffffffffffffff000000000000191667010000000000000087026effffffff0000000000000000000000191617600160581b860217905560d18e905560d28d905560d38c90558a519889529488019590955297860191909152928401929092529382018790529281018590529182018390527fefeb3292465cf72a302efdd83695ad560a2828353a1e018844e9abd19a642037910160405180910390a150505050505050565b6001600160401b038216600090815260d6602052604090205482906001600160a01b03168061104d57604051630fb532db60e11b815260040160405180910390fd5b336001600160a01b0382161461108157604051636c51fda960e11b81526001600160a01b0382166004820152602401610b7a565b60d054600160301b900460ff16156110ac5760405163769dd35360e11b815260040160405180910390fd5b6001600160401b038416600090815260d66020526040902060020154606319016110e9576040516305a48e0f60e01b815260040160405180910390fd5b6001600160a01b038316600090815260d5602090815260408083206001600160401b03808916855292528220541690036111c8576001600160a01b038316600081815260d5602090815260408083206001600160401b0389168085528184528285208054600167ffffffffffffffff1991821681179092559281018054909316821790925560d68452828520600201805492830181558552938390200180546001600160a01b031916851790555192835290917f43dc749a04ac8fb825cbd514f7c0e13f13bc6f2ee66043b76629d51776cff8e0910160405180910390a25b50505050565b6001600160401b038216600090815260d6602052604090205482906001600160a01b03168061121057604051630fb532db60e11b815260040160405180910390fd5b336001600160a01b0382161461124457604051636c51fda960e11b81526001600160a01b0382166004820152602401610b7a565b60d054600160301b900460ff161561126f5760405163769dd35360e11b815260040160405180910390fd5b60d85460ff1661129257604051636dac270160e01b815260040160405180910390fd5b6001600160401b03808416600090815260d660205260408082205492871682529020546001600160a01b039182169116036112e05760405163027f035560e51b815260040160405180910390fd5b6001600160401b03808516600090815260d66020526040902060060154600160801b900416156113235760405163cae26ee160e01b815260040160405180910390fd5b6001600160401b03808516600090815260d6602052604090206006015416158061136857506001600160401b03808416600090815260d6602052604090206006015416155b156113865760405163a760a23760e01b815260040160405180910390fd5b60d8546001600160401b03848116600090815260d660205260409020600601805461010090930461ffff169290916008916113ca918591600160401b9004166151f7565b82546101009290920a6001600160401b0381810219909316918316021790915560d854868216600090815260d6602052604090206006018054630100000090920461ffff16935091600891611428918591600160401b9004166151f7565b82546101009290920a6001600160401b03818102199093169183160217909155858116600081815260d6602052604080822060060180547fffffffffffffffff0000000000000000ffffffffffffffffffffffffffffffff16600160801b958a169586021790555192935090917fb661d46b53034f62a6c7d50df2a5e055fab98889aaf62f8c618e457edd96c6889190a350505050565b6001600160401b038216600090815260d6602052604090205482906001600160a01b03168061150157604051630fb532db60e11b815260040160405180910390fd5b336001600160a01b0382161461153557604051636c51fda960e11b81526001600160a01b0382166004820152602401610b7a565b60d054600160301b900460ff16156115605760405163769dd35360e11b815260040160405180910390fd5b6001600160401b038416600090815260d660205260409020600401541561159a57604051631685ecdd60e31b815260040160405180910390fd5b6001600160401b038416600090815260d6602090815260408083206002018054825181850281018501909352808352919290919083018282801561160757602002820191906000526020600020905b81546001600160a01b031681526001909101906020018083116115e9575b50505050509050805160000361164a57604051637800cff360e11b81526001600160401b03861660048201526001600160a01b0385166024820152604401610b7a565b60005b81518110156117c157846001600160a01b0316828281518110611672576116726151b2565b60200260200101516001600160a01b0316036117af578160018351611697919061521e565b815181106116a7576116a76151b2565b602002602001015160d66000886001600160401b03166001600160401b0316815260200190815260200160002060020182815481106116e8576116e86151b2565b600091825260208083209190910180546001600160a01b0319166001600160a01b0394909416939093179092556001600160401b038816815260d69091526040902060020180548061173c5761173c615231565b6000828152602090819020600019908301810180546001600160a01b03191690559091019091556040516001600160a01b03871681526001600160401b038816917f182bff9831466789164ca77075fffd84916d35a8180ba73c27e45634549b445b910160405180910390a250506111c8565b806117b9816151de565b91505061164d565b50604051637800cff360e11b81526001600160401b03861660048201526001600160a01b0385166024820152604401610b7a565b60405163745e0dcf60e01b815263ffffffff82166004820152600090819060029073__$12cfec358bb780f6fb6addaaa16de5538e$__90638e3976f690829063745e0dcf90602401602060405180830381865af415801561185a573d6000803e3d6000fd5b505050506040513d601f19601f8201168201806040525081019061187e9190615247565b6040518263ffffffff1660e01b815260040161189c91815260200190565b602060405180830381865af41580156118b9573d6000803e3d6000fd5b505050506040513d601f19601f820116820180604052508101906118dd9190615247565b6118e8906003615260565b6118f2919061528d565b905060008161190189896152a1565b6119119063ffffffff1687615260565b61191b91906152be565b905061193263ffffffff871664e8d4a51000615260565b61193c90826152be565b98975050505050505050565b60d054600090600160301b900460ff16156119765760405163769dd35360e11b815260040160405180910390fd5b60d780546001600160401b031690600061198f836152d1565b82546001600160401b039182166101009390930a92830292820219169190911790915560d780548216600090815260d6602052604080822080546001600160a01b0319163390811790915583548516835281832060060180546fffffffffffffffff00000000000000001916600160401b17905592549051929450909216917f464722b4166576d3dcbba877b999bc35cf911f4eaf434b7eba68fa113951d0bf91a35060d7546001600160401b031690565b60d054600090600160301b900460ff1615611a6f5760405163769dd35360e11b815260040160405180910390fd5b6000611a7a83615306565b9050323303611a9c57604051638a3150e760e01b815260040160405180910390fd5b6040808201516001600160401b0316600090815260d66020522080546001600160a01b0316611ade57604051630fb532db60e11b815260040160405180910390fd5b33600090815260d560209081526040808320858201516001600160401b0390811685529252822054169003611b3d576040808301519051637800cff360e11b81526001600160401b039091166004820152336024820152604401610b7a565b60d054608083015161ffff91821691161080611b65575060c861ffff16826080015161ffff16115b15611ba057608082015160d05460405163539c34bb60e11b815261ffff92831660048201529116602482015260c86044820152606401610b7a565b60d05460a083015163ffffffff62010000909204821691161115611bf75760a082015160d054604051637aebf00f60e11b815263ffffffff9283166004820152620100009091049091166024820152604401610b7a565b611bff613222565b60cd805463ffffffff191663ffffffff9290921691909117905560608281015133600081815260d560208181526040808420818a0180516001600160401b03908116875282855283872054845146818801528086019a909a529989018890529889166080808a01919091528351808a03909101815260a0909801835287519784019790972095855292825294518616835252918220805491936001939192611ca9918591166151f7565b92506101000a8154816001600160401b0302191690836001600160401b031602179055506000611cd882613393565b60c95460cd5460405163f49e0ba960e01b815263ffffffff90911660048201529192506000916001600160a01b039091169063f49e0ba9906024016040805180830381865afa158015611d2f573d6000803e3d6000fd5b505050506040513d601f19601f82011682018060405250810190611d5391906153a4565b9150506000611d6d8584848960a001518a60c001516133c5565b60408088015160cd5489516020808c015160808d015160a08e015160c08f01519751989950611db3988c9863ffffffff90971696939433948f9493929091439101615450565b60408051601f198184030181528282528051602091820120600087815260d483528390205560cd54918901518951918a015160808b015160a08c015160c08d015163ffffffff909616966001600160401b03909416958a957fd26299589dd9197a8dc30a0fa17b0fe7dd432bc3441aa5f5631ea1e14c1af74495611e41959194919333938f93928d906154db565b60405180910390a450909450505050505b919050565b6001600160401b038116600090815260d660205260408120805460609183918291829182918291829182916001600160a01b0316611ea857604051630fb532db60e11b815260040160405180910390fd5b80546003820154600483015460068401546007850154600286018054604080516020808402820181019092528281526001600160a01b0390981697929695946001600160401b0380821695600160401b8304821695600160801b8404831695600160c01b9094049092169390928a91830182828015611f5057602002820191906000526020600020905b81546001600160a01b03168152600190910190602001808311611f32575b50505050509750995099509950995099509950995099509950509193959799909294969850565b600054610100900460ff1615808015611f975750600054600160ff909116105b80611fb15750303b158015611fb1575060005460ff166001145b6120235760405162461bcd60e51b815260206004820152602e60248201527f496e697469616c697a61626c653a20636f6e747261637420697320616c72656160448201527f647920696e697469616c697a65640000000000000000000000000000000000006064820152608401610b7a565b6000805460ff191660011790558015612046576000805461ff0019166101001790555b60c980546001600160a01b0319166001600160a01b03841617905561206961354b565b8015610dd6576000805461ff0019169055604051600181527f7f26b83ff96e1f2b6a682f133852f6798a09c465da95921460cefb38474024989060200160405180910390a15050565b60d054600160301b900460ff16156120dd5760405163769dd35360e11b815260040160405180910390fd5b60005a600087815260d4602052604081205491925081900361211257604051631b44092560e11b815260040160405180910390fd5b86612120602087018761498d565b6121306040880160208901615542565b6121406060890160408a0161555f565b61214d60608a018a61557a565b61215d60a08c0160808d01614bfd565b60a08c013561217260e08e0160c08f016155c7565b8d60e00160208101906121859190615542565b8e61010001358f61012001356040516020016121ac9c9b9a999897969594939291906155e2565b6040516020818303038152906040528051906020012081146121e15760405163354a450b60e21b815260040160405180910390fd5b6121f160e0860160c087016155c7565b6122049061ffff166101208701356152be565b4310156122245760405163619a4abd60e01b815260040160405180910390fd5b6122346040860160208701615542565b63ffffffff168863ffffffff1614158015612260575060d15461225c906101208701356152be565b4311155b1561227e576040516378373bbd60e11b815260040160405180910390fd5b60c960009054906101000a90046001600160a01b03166001600160a01b03166306545a936040518163ffffffff1660e01b8152600401602060405180830381865afa1580156122d1573d6000803e3d6000fd5b505050506040513d601f19601f820116820180604052508101906122f59190615247565b8863ffffffff161061232257604051637f6efcb560e11b815263ffffffff89166004820152602401610b7a565b60006123928963ffffffff168760a001358861012001358a8989808060200260200160405190810160405280939291908181526020016000905b82821015612388576123796040830286013681900381019061568a565b8152602001906001019061235c565b50505050506135be565b600089815260d46020908152604080832083905580518083018c9052815180820384018152908201909152805191012060cf80549394509092600192906123da9084906152be565b909155505060ce81905560c9546040516379ef840160e11b8152600481018390526001600160a01b039091169063f3df080290602401600060405180830381600087803b15801561242a57600080fd5b505af115801561243e573d6000803e3d6000fd5b5050505060006124588a838a612453906156bc565b613ca9565b905060008061249160d68261247060208e018e61498d565b6001600160401b0316815260208101919091526040016000208d8a8a613f44565b915091506124a0858383614201565b336001600160a01b03168d63ffffffff168d7f6fc1bcb4bd7d5fdf4017f746304b61ae4472496256e906c6bb44682aa2c9a6d8888887878a6040516124e9959493929190615789565b60405180910390a450505050505050505050505050565b604080516101208101825260d95463ffffffff8082168352640100000000820481166020840152600160401b8204811693830193909352600160601b810483166060830152600160801b8104909216608082015262ffffff600160a01b8304811660a08301819052600160b81b8404821660c0840152600160d01b8404821660e0840152600160e81b909304166101008201526000916001600160401b038416116125ac575192915050565b826001600160401b03168160a0015162ffffff161080156125df57508060c0015162ffffff16836001600160401b031611155b156125ee576020015192915050565b826001600160401b03168160c0015162ffffff1610801561262157508060e0015162ffffff16836001600160401b031611155b15612630576040015192915050565b826001600160401b03168160e0015162ffffff16108015612664575080610100015162ffffff16836001600160401b031611155b15612673576060015192915050565b6080015192915050565b6001600160401b038216600090815260d6602052604090205482906001600160a01b0316806126bf57604051630fb532db60e11b815260040160405180910390fd5b336001600160a01b038216146126f357604051636c51fda960e11b81526001600160a01b0382166004820152602401610b7a565b60d054600160301b900460ff161561271e5760405163769dd35360e11b815260040160405180910390fd5b6001600160a01b0383166127455760405163f6b2911f60e01b815260040160405180910390fd5b6001600160401b038416600090815260d660205260409020600401541561277f57604051631685ecdd60e31b815260040160405180910390fd5b6111c88484612f6a565b612796602082018261498d565b6001600160401b038116600090815260d660205260409020546001600160a01b0316806127d657604051630fb532db60e11b815260040160405180910390fd5b336001600160a01b0382161461280a57604051636c51fda960e11b81526001600160a01b0382166004820152602401610b7a565b600084815260d46020526040812054900361283857604051631b44092560e11b815260040160405180910390fd5b83612846602085018561498d565b6128566040860160208701615542565b612866606087016040880161555f565b612873606088018861557a565b61288360a08a0160808b01614bfd565b60a08a013561289860e08c0160c08d016155c7565b6128a96101008d0160e08e01615542565b8c61010001358d61012001356040516020016128d09c9b9a999897969594939291906155e2565b60408051601f198184030181529181528151602092830120600087815260d4909352912054146129135760405163354a450b60e21b815260040160405180910390fd5b600073__$12cfec358bb780f6fb6addaaa16de5538e$__6387ceff096040518163ffffffff1660e01b8152600401602060405180830381865af415801561295e573d6000803e3d6000fd5b505050506040513d601f19601f820116820180604052508101906129829190615247565b61298f906201518061528d565b90506129a0816101208601356152be565b4310156129c057604051636c804b5d60e01b815260040160405180910390fd5b600085815260d460209081526040822082905560d691906129e39087018761498d565b6001600160401b03168152602080820192909252604090810160009081208882526005018352908120549160d69190612a1e9088018861498d565b6001600160401b03166001600160401b031681526020019081526020016000206004016000828254612a50919061521e565b9091555060d690506000612a67602087018761498d565b6001600160401b0316815260208082019290925260409081016000908120888252600501835290812055612a9d9085018561498d565b6001600160401b0316857fc1cf1d318384ee8dee53eed48bbf121b2b14fa61e9da5fd2f597dfbee4e5c2e660405160405180910390a35050505050565b60d054600160301b900460ff1615612b055760405163769dd35360e11b815260040160405180910390fd5b6001600160401b038116600090815260d660205260409020546001600160a01b0316612b4457604051630fb532db60e11b815260040160405180910390fd5b6001600160401b038116600090815260d660205260408120600301805491349190612b6f83856152be565b90915550506001600160401b0382167fd39ec07f4e209f627a4c427971473820dc129761ba28de8906bd56f57101d4f882612baa34826152be565b6040805192835260208301919091520160405180910390a25050565b612bce612f10565b6001600160a01b038116612c335760405162461bcd60e51b815260206004820152602660248201527f4f776e61626c653a206e6577206f776e657220697320746865207a65726f206160448201526564647265737360d01b6064820152608401610b7a565b6109e2816131d0565b612c44612f10565b604080516060808201835285151580835261ffff868116602080860182905291871694860185905260d8805462ffffff191662ffff001985161761010083021764ffff000000191663010000008702179055855192835290820152928301919091527faf8d657c268b3f943977d5288bfb2306420bcb17b7ef17397cffa5d2f4891643910160405180910390a1505050565b612cde612f10565b6040518060a001604052808681526020018561ffff16815260200184151581526020018381526020018281525060d960008201518160000160008201518160000160006101000a81548163ffffffff021916908363ffffffff16021790555060208201518160000160046101000a81548163ffffffff021916908363ffffffff16021790555060408201518160000160086101000a81548163ffffffff021916908363ffffffff160217905550606082015181600001600c6101000a81548163ffffffff021916908363ffffffff16021790555060808201518160000160106101000a81548163ffffffff021916908363ffffffff16021790555060a08201518160000160146101000a81548162ffffff021916908362ffffff16021790555060c08201518160000160176101000a81548162ffffff021916908362ffffff16021790555060e082015181600001601a6101000a81548162ffffff021916908362ffffff16021790555061010082015181600001601d6101000a81548162ffffff021916908362ffffff160217905550505060208201518160010160006101000a81548161ffff021916908361ffff16021790555060408201518160010160026101000a81548160ff02191690831515021790555060608201518160020155608082015181600301559050507f1851d8853c0ab5ed26d95d456344506f759953621e7c115677f2244696b8ba978585858585604051612f019594939291906157c2565b60405180910390a15050505050565b6097546001600160a01b03163314610eb15760405162461bcd60e51b815260206004820181905260248201527f4f776e61626c653a2063616c6c6572206973206e6f7420746865206f776e65726044820152606401610b7a565b60d054600160301b900460ff1615612f955760405163769dd35360e11b815260040160405180910390fd5b6001600160401b038216600081815260d66020908152604091829020600381015481546001600160a01b03191690915582516001600160a01b038616815291820181905292917fe8ed5b475a5b5987aa9165e8731bb78043f39eee32ec5a1169a89e27fcd49815910160405180910390a26040516001600160a01b0383169082156108fc029083906000818181858888f193505050501580156111c8573d6000803e3d6000fd5b6109e2612f10565b7f4910fdfa16fed3260ed0e7147f7cc6da11a60208b5b9406d12a635614ffd91435460ff161561307757610a8b83614379565b826001600160a01b03166352d1902d6040518163ffffffff1660e01b8152600401602060405180830381865afa9250505080156130d1575060408051601f3d908101601f191682019092526130ce91810190615247565b60015b6131435760405162461bcd60e51b815260206004820152602e60248201527f45524331393637557067726164653a206e657720696d706c656d656e7461746960448201527f6f6e206973206e6f7420555550530000000000000000000000000000000000006064820152608401610b7a565b7f360894a13ba1a3210667c828492db98dca3e2076cc3735a920a3ca505d382bbc81146131c45760405162461bcd60e51b815260206004820152602960248201527f45524331393637557067726164653a20756e737570706f727465642070726f786044820152681a58589b195555525160ba1b6064820152608401610b7a565b50610a8b838383614427565b609780546001600160a01b038381166001600160a01b0319831681179093556040519116919082907f8be0079c531659141344cd1fd0a4f28419497f9722a3daafe3b4186f6b6457e090600090a35050565b60008060c960009054906101000a90046001600160a01b03166001600160a01b031663b330a0fd6040518163ffffffff1660e01b8152600401600060405180830381865afa158015613278573d6000803e3d6000fd5b505050506040513d6000823e601f3d908101601f191682016040526132a09190810190615884565b905080516000036132c457604051636905ab6760e01b815260040160405180910390fd5b60c954604080516306545a9360e01b815290516000926001600160a01b0316916306545a939160048083019260209291908290030181865afa15801561330e573d6000803e3d6000fd5b505050506040513d601f19601f820116820180604052508101906133329190615247565b60cd54909150600090829061334e9063ffffffff1660016152a1565b63ffffffff1661335e9190615914565b90505b61336b838261444c565b61338c578161337b8260016152be565b6133859190615914565b9050613361565b9392505050565b6000816040516020016133a891815260200190565b604051602081830303815290604052805190602001209050919050565b60da54600090819062010000900460ff16156133ef575060068601546001600160401b0316613441565b60db544210801590613403575060dc544211155b156134415760db546007880154101561341e57506001613441565b600687015461343e90600160c01b90046001600160401b031660016151f7565b90505b60006134dd85613452600389615928565b61345e9061c350615945565b61346a89612328615945565b60d0546134849190600160581b900463ffffffff166152a1565b61348e91906152a1565b60068b0154600160401b90046001600160401b03166134d35760da5460649061ffff166134ba87612500565b6134c49190615945565b6134ce919061596d565b6134d6565b60005b878a6117f5565b905080886004015489600301546134f4919061521e565b10156135135760405163444a5eaf60e11b815260040160405180910390fd5b8088600401600082825461352791906152be565b90915550506000878152600589016020526040902081905591505095945050505050565b600054610100900460ff166135b65760405162461bcd60e51b815260206004820152602b60248201527f496e697469616c697a61626c653a20636f6e7472616374206973206e6f74206960448201526a6e697469616c697a696e6760a81b6064820152608401610b7a565b610eb16144a1565b60405162f577a560e81b81526004810183905260609073__$34d23ddaee48904c6c566425acbfa0fc0e$__9063f577a50090602401602060405180830381865af4158015613610573d6000803e3d6000fd5b505050506040513d601f19601f82011682018060405250810190613634919061599b565b61365157604051638529df1f60e01b815260040160405180910390fd5b815160000361367357604051638bdcc37560e01b815260040160405180910390fd5b60c9546040516333ad819560e21b8152600481018890526000916001600160a01b03169063ceb6065490602401600060405180830381865afa1580156136bd573d6000803e3d6000fd5b505050506040513d6000823e601f3d908101601f191682016040526136e59190810190615c48565b90506136f58160a0015133614515565b6137125760405163d9ce719d60e01b815260040160405180910390fd5b60408051602081018890528082018790528151808203830181526060820192839052633033cc5160e01b90925260009073__$34d23ddaee48904c6c566425acbfa0fc0e$__90633033cc519061376c908590606401615d4d565b6040805180830381865af4158015613788573d6000803e3d6000fd5b505050506040513d601f19601f820116820180604052508101906137ac9190615d60565b905073__$34d23ddaee48904c6c566425acbfa0fc0e$__63ebbdac9173__$34d23ddaee48904c6c566425acbfa0fc0e$__6313bc64ee896040518263ffffffff1660e01b815260040161380191815260200190565b6040805180830381865af415801561381d573d6000803e3d6000fd5b505050506040513d601f19601f820116820180604052508101906138419190615d60565b856101000151846040518463ffffffff1660e01b815260040161386693929190615e06565b602060405180830381865af4158015613883573d6000803e3d6000fd5b505050506040513d601f19601f820116820180604052508101906138a7919061599b565b6138c457604051638baa579f60e01b815260040160405180910390fd5b600085516001600160401b038111156138df576138df6149a8565b60405190808252806020026020018201604052801561391857816020015b61390561493a565b8152602001906001900390816138fd5790505b509050600086516001600160401b03811115613936576139366149a8565b60405190808252806020026020018201604052801561396f57816020015b61395c614958565b8152602001906001900390816139545790505b50905086516001600160401b0381111561398b5761398b6149a8565b6040519080825280602002602001820160405280156139b4578160200160208202803683370190505b50955060005b8751811015613c015773__$34d23ddaee48904c6c566425acbfa0fc0e$__63f577a5008983815181106139ef576139ef6151b2565b6020026020010151602001516040518263ffffffff1660e01b8152600401613a1991815260200190565b602060405180830381865af4158015613a36573d6000803e3d6000fd5b505050506040513d601f19601f82011682018060405250810190613a5a919061599b565b613a7757604051636b849b7d60e11b815260040160405180910390fd5b73__$34d23ddaee48904c6c566425acbfa0fc0e$__6313bc64ee898381518110613aa357613aa36151b2565b6020026020010151602001516040518263ffffffff1660e01b8152600401613acd91815260200190565b6040805180830381865af4158015613ae9573d6000803e3d6000fd5b505050506040513d601f19601f82011682018060405250810190613b0d9190615d60565b838281518110613b1f57613b1f6151b2565b60200260200101819052508560800151888281518110613b4157613b416151b2565b60200260200101516000015181518110613b5d57613b5d6151b2565b602002602001015160200151828281518110613b7b57613b7b6151b2565b60200260200101819052508560800151888281518110613b9d57613b9d6151b2565b60200260200101516000015181518110613bb957613bb96151b2565b602002602001015160000151878281518110613bd757613bd76151b2565b6001600160a01b039092166020928302919091019091015280613bf9816151de565b9150506139ba565b50604051630d6870d760e21b815273__$34d23ddaee48904c6c566425acbfa0fc0e$__906335a1c35c90613c3d90859085908890600401615e2f565b602060405180830381865af4158015613c5a573d6000803e3d6000fd5b505050506040513d601f19601f82011682018060405250810190613c7e919061599b565b613c9b57604051639c2d1c6d60e01b815260040160405180910390fd5b505050505095945050505050565b60008060608184604001516002811115613cc557613cc56153c8565b03613d0f5750604080516024810187905260448082018790528251808303909101815260649091019091526020810180516001600160e01b03166394985ddd60e01b179052613ef9565b600184604001516002811115613d2757613d276153c8565b03613e5a5760008460600151806020019051810190613d469190615ec5565b905060008163ffffffff166001600160401b03811115613d6857613d686149a8565b604051908082528060200260200182016040528015613d91578160200160208202803683370190505b50905060005b8263ffffffff16811015613e015760408051602081018a90529081018290526060016040516020818303038152906040528051906020012060001c828281518110613de457613de46151b2565b602090810291909101015280613df9816151de565b915050613d97565b506040516375bf929b60e01b90613e1e908a908490602401615ee2565b60408051601f198184030181529190526020810180516001600160e01b03166001600160e01b0319909316929092179091529250613ef9915050565b600284604001516002811115613e7257613e726153c8565b03613ef95760008460600151806020019051810190613e919190615ec5565b90506000613ea58263ffffffff1688614570565b9050639e5836f660e01b8882604051602401613ec2929190615ee2565b60408051601f198184030181529190526020810180516001600160e01b03166001600160e01b031990931692909217909152925050505b60d0805466ff0000000000001916600160301b17905560e08401516080850151613f2a9163ffffffff1690836146cb565b60d0805466ff000000000000191690559695505050505050565b6006840180546000918291600191908390613f699084906001600160401b03166151f7565b92506101000a8154816001600160401b0302191690836001600160401b03160217905550600060d960010160029054906101000a900460ff1615613fbb575060068601546001600160401b0316614072565b60db544210801590613fcf575060dc544211155b156140725760db546007880154101561400f5760068701805477ffffffffffffffffffffffffffffffffffffffffffffffff16600160c01b17905561405b565b60018760060160188282829054906101000a90046001600160401b031661403691906151f7565b92506101000a8154816001600160401b0302191690836001600160401b031602179055505b506006860154600160c01b90046001600160401b03165b4260078801556006870154600090600160401b90046001600160401b0316156140e55760018860060160088282829054906101000a90046001600160401b03166140bc9190615f23565b92506101000a8154816001600160401b0302191690836001600160401b03160217905550614124565b60da5460649061ffff166140f884612500565b61410d9063ffffffff1664e8d4a51000615260565b6141179190615260565b614121919061528d565b90505b600061415b8661413689612328615260565b60d0546141549190670100000000000000900463ffffffff166152be565b843a614717565b905080896003015410156141825760405163964d765f60e01b815260040160405180910390fd5b600088815260058a01602052604081205460048b018054919290916141a890849061521e565b9091555050600088815260058a016020526040812081905560038a0180548392906141d490849061521e565b925050819055508160ca60008282546141ed91906152be565b909155509099919850909650505050505050565b60d35460cb80546000906142169084906152be565b9091555050825160d25461422a9190615260565b60cc600082825461423b91906152be565b9091555050604080516001808252818301909252600091602080830190803683370190505090503381600081518110614276576142766151b2565b6001600160a01b03928316602091820292909201015260c9541663914eb34d826142a0858761521e565b60d3546040516001600160e01b031960e086901b1681526142c693929190600401615f43565b600060405180830381600087803b1580156142e057600080fd5b505af11580156142f4573d6000803e3d6000fd5b505060c95486516001600160a01b03909116925063914eb34d9150869061431b908661528d565b60d2546040516001600160e01b031960e086901b16815261434193929190600401615f43565b600060405180830381600087803b15801561435b57600080fd5b505af115801561436f573d6000803e3d6000fd5b5050505050505050565b6001600160a01b0381163b6143e65760405162461bcd60e51b815260206004820152602d60248201527f455243313936373a206e657720696d706c656d656e746174696f6e206973206e60448201526c1bdd08184818dbdb9d1c9858dd609a1b6064820152608401610b7a565b7f360894a13ba1a3210667c828492db98dca3e2076cc3735a920a3ca505d382bbc80546001600160a01b0319166001600160a01b0392909216919091179055565b614430836147c8565b60008251118061443d5750805b15610a8b576111c88383614808565b6000805b8351811015614495578284828151811061446c5761446c6151b2565b60200260200101510361448357600191505061449b565b8061448d816151de565b915050614450565b50600090505b92915050565b600054610100900460ff1661450c5760405162461bcd60e51b815260206004820152602b60248201527f496e697469616c697a61626c653a20636f6e7472616374206973206e6f74206960448201526a6e697469616c697a696e6760a81b6064820152608401610b7a565b610eb1336131d0565b6000805b835181101561449557826001600160a01b031684828151811061453e5761453e6151b2565b60200260200101516001600160a01b03160361455e57600191505061449b565b80614568816151de565b915050614519565b60606000836001600160401b0381111561458c5761458c6149a8565b6040519080825280602002602001820160405280156145b5578160200160208202803683370190505b50905060005b848110156145f357808282815181106145d6576145d66151b2565b6020908102919091010152806145eb816151de565b9150506145bb565b5080516000805b600061460584615f68565b93508311156146c0576146188387615914565b91508560405160200161462d91815260200190565b6040516020818303038152906040528051906020012060001c955083838151811061465a5761465a6151b2565b60200260200101519050838281518110614676576146766151b2565b6020026020010151848481518110614690576146906151b2565b602002602001018181525050808483815181106146af576146af6151b2565b6020026020010181815250506145fa565b509195945050505050565b60005a6113888110156146dd57600080fd5b6113888103905084604082048203116146f557600080fd5b50823b61470157600080fd5b60008083516020850160008789f1949350505050565b60008073__$12cfec358bb780f6fb6addaaa16de5538e$__63c6f7de0e6040518163ffffffff1660e01b8152600401602060405180830381865af4158015614763573d6000803e3d6000fd5b505050506040513d601f19601f820116820180604052508101906147879190615247565b5a61479288886152be565b61479c919061521e565b6147a69085615260565b6147b091906152be565b90506147bc84826152be565b9150505b949350505050565b6147d181614379565b6040516001600160a01b038216907fbc7cd75a20ee27fd9adebab32041f755214dbc6bffa90cc0225b39da2e5c2d3b90600090a250565b60606001600160a01b0383163b6148705760405162461bcd60e51b815260206004820152602660248201527f416464726573733a2064656c65676174652063616c6c20746f206e6f6e2d636f6044820152651b9d1c9858dd60d21b6064820152608401610b7a565b600080846001600160a01b03168460405161488b9190615f7f565b600060405180830381855af49150503d80600081146148c6576040519150601f19603f3d011682016040523d82523d6000602084013e6148cb565b606091505b50915091506148f38282604051806060016040528060278152602001615f9c602791396148fc565b95945050505050565b6060831561490b57508161338c565b61338c83838151156149205781518083602001fd5b8060405162461bcd60e51b8152600401610b7a9190615d4d565b60405180604001604052806002906020820280368337509192915050565b60405180608001604052806004906020820280368337509192915050565b80356001600160401b0381168114611e5257600080fd5b60006020828403121561499f57600080fd5b61338c82614976565b634e487b7160e01b600052604160045260246000fd5b60405161012081016001600160401b03811182821017156149e1576149e16149a8565b60405290565b60405160e081016001600160401b03811182821017156149e1576149e16149a8565b604080519081016001600160401b03811182821017156149e1576149e16149a8565b60405161014081016001600160401b03811182821017156149e1576149e16149a8565b604051606081016001600160401b03811182821017156149e1576149e16149a8565b604051601f8201601f191681016001600160401b0381118282101715614a9857614a986149a8565b604052919050565b60006001600160401b03821115614ab957614ab96149a8565b5060051b60200190565b600082601f830112614ad457600080fd5b81356020614ae9614ae483614aa0565b614a70565b82815260059290921b84018101918181019086841115614b0857600080fd5b8286015b84811015614b2a57614b1d81614976565b8352918301918301614b0c565b509695505050505050565b60008060408385031215614b4857600080fd5b82356001600160401b0380821115614b5f57600080fd5b614b6b86838701614ac3565b93506020850135915080821115614b8157600080fd5b50614b8e85828601614ac3565b9150509250929050565b6001600160a01b03811681146109e257600080fd5b8035611e5281614b98565b60008060408385031215614bcb57600080fd5b8235614bd681614b98565b946020939093013593505050565b600060208284031215614bf657600080fd5b5035919050565b600060208284031215614c0f57600080fd5b813561338c81614b98565b600082601f830112614c2b57600080fd5b81356001600160401b03811115614c4457614c446149a8565b614c57601f8201601f1916602001614a70565b818152846020838601011115614c6c57600080fd5b816020850160208301376000918101602001919091529392505050565b60008060408385031215614c9c57600080fd5b8235614ca781614b98565b915060208301356001600160401b03811115614cc257600080fd5b614b8e85828601614c1a565b803561ffff81168114611e5257600080fd5b63ffffffff811681146109e257600080fd5b8035611e5281614ce0565b600080600080600080600060e0888a031215614d1857600080fd5b614d2188614cce565b96506020880135614d3181614ce0565b95506040880135614d4181614ce0565b94506060880135614d5181614ce0565b9699959850939660808101359560a0820135955060c0909101359350915050565b60008060408385031215614d8557600080fd5b614d8e83614976565b91506020830135614d9e81614b98565b809150509250929050565b60008060408385031215614dbc57600080fd5b614dc583614976565b9150614dd360208401614976565b90509250929050565b600080600080600060a08688031215614df457600080fd5b8535614dff81614ce0565b94506020860135614e0f81614ce0565b93506040860135614e1f81614ce0565b9250606086013591506080860135614e3681614ce0565b809150509295509295909350565b600060208284031215614e5657600080fd5b81356001600160401b03811115614e6c57600080fd5b820160e0818503121561338c57600080fd5b600081518084526020808501945080840160005b83811015614eb75781516001600160a01b031687529582019590820190600101614e92565b509495945050505050565b60006101206001600160a01b038c168352806020840152614ee58184018c614e7e565b604084019a909a52505060608101969096526001600160401b03948516608087015292841660a086015290831660c085015290911660e08301526101009091015292915050565b60006101408284031215614f3f57600080fd5b50919050565b60008060008060008060a08789031215614f5e57600080fd5b8635614f6981614ce0565b9550602087013594506040870135935060608701356001600160401b0380821115614f9357600080fd5b614f9f8a838b01614f2c565b94506080890135915080821115614fb557600080fd5b818901915089601f830112614fc957600080fd5b813581811115614fd857600080fd5b8a60208260061b8501011115614fed57600080fd5b6020830194508093505050509295509295509295565b6000806040838503121561501657600080fd5b8235915060208301356001600160401b0381111561503357600080fd5b614b8e85828601614f2c565b80151581146109e257600080fd5b8035611e528161503f565b60008060006060848603121561506d57600080fd5b83356150788161503f565b925061508660208501614cce565b915061509460408501614cce565b90509250925092565b803562ffffff81168114611e5257600080fd5b60008060008060008587036101a08112156150ca57600080fd5b610120808212156150da57600080fd5b6150e26149be565b91506150ed88614cf2565b82526150fb60208901614cf2565b602083015261510c60408901614cf2565b604083015261511d60608901614cf2565b606083015261512e60808901614cf2565b608083015261513f60a0890161509d565b60a083015261515060c0890161509d565b60c083015261516160e0890161509d565b60e0830152610100615174818a0161509d565b8184015250819650615187818901614cce565b95505050615198610140870161504d565b949793965093946101608101359450610180013592915050565b634e487b7160e01b600052603260045260246000fd5b634e487b7160e01b600052601160045260246000fd5b6000600182016151f0576151f06151c8565b5060010190565b6001600160401b03818116838216019080821115615217576152176151c8565b5092915050565b8181038181111561449b5761449b6151c8565b634e487b7160e01b600052603160045260246000fd5b60006020828403121561525957600080fd5b5051919050565b808202811582820484141761449b5761449b6151c8565b634e487b7160e01b600052601260045260246000fd5b60008261529c5761529c615277565b500490565b63ffffffff818116838216019080821115615217576152176151c8565b8082018082111561449b5761449b6151c8565b60006001600160401b038083168181036152ed576152ed6151c8565b6001019392505050565b803560038110611e5257600080fd5b600060e0823603121561531857600080fd5b6153206149e7565b615329836152f7565b815260208301356001600160401b0381111561534457600080fd5b61535036828601614c1a565b60208301525061536260408401614976565b60408201526060830135606082015261537d60808401614cce565b608082015261538e60a08401614cf2565b60a082015260c092830135928101929092525090565b600080604083850312156153b757600080fd5b505080516020909101519092909150565b634e487b7160e01b600052602160045260246000fd5b600381106153fc57634e487b7160e01b600052602160045260246000fd5b9052565b60005b8381101561541b578181015183820152602001615403565b50506000910152565b6000815180845261543c816020860160208601615400565b601f01601f19169290920160200192915050565b60006101608d83526001600160401b038d16602084015263ffffffff808d166040850152615481606085018d6153de565b8160808501526154938285018c615424565b6001600160a01b039a909a1660a085015260c0840198909852505061ffff9490941660e085015291909316610100830152610120820192909252610140015295945050505050565b60006101006154ea838c6153de565b8060208401526154fc8184018b615424565b6001600160a01b039990991660408401525050606081019590955261ffff93909316608085015263ffffffff9190911660a084015260c083015260e09091015292915050565b60006020828403121561555457600080fd5b813561338c81614ce0565b60006020828403121561557157600080fd5b61338c826152f7565b6000808335601e1984360301811261559157600080fd5b8301803591506001600160401b038211156155ab57600080fd5b6020019150368190038213156155c057600080fd5b9250929050565b6000602082840312156155d957600080fd5b61338c82614cce565b60006101608e83526001600160401b038e16602084015263ffffffff8d166040840152615612606084018d6153de565b806080840152898184015250610180898b8285013760008a84018201526001600160a01b03891660a0840152601f19601f8b011683010190508660c083015261566160e083018761ffff169052565b63ffffffff851661010083015261012082019390935261014001529a9950505050505050505050565b60006040828403121561569c57600080fd5b6156a4614a09565b82358152602083013560208201528091505092915050565b600061014082360312156156cf57600080fd5b6156d7614a2b565b6156e083614976565b81526156ee60208401614cf2565b60208201526156ff604084016152f7565b604082015260608301356001600160401b0381111561571d57600080fd5b61572936828601614c1a565b60608301525061573b60808401614bad565b608082015260a083013560a082015261575660c08401614cce565b60c082015261576760e08401614cf2565b60e0820152610100838101359082015261012092830135928101929092525090565b60a08152600061579c60a0830188614e7e565b905085602083015284604083015283606083015282151560808301529695505050505050565b855163ffffffff9081168252602080880151821690830152604080880151821690830152606080880151821690830152608080880151918216908301526101a08201905060a087015161581c60a084018262ffffff169052565b5060c087015161583360c084018262ffffff169052565b5060e087015161584a60e084018262ffffff169052565b506101009687015162ffffff169682019690965261ffff949094166101208501529115156101408401526101608301526101809091015290565b6000602080838503121561589757600080fd5b82516001600160401b038111156158ad57600080fd5b8301601f810185136158be57600080fd5b80516158cc614ae482614aa0565b81815260059190911b820183019083810190878311156158eb57600080fd5b928401925b82841015615909578351825292840192908401906158f0565b979650505050505050565b60008261592357615923615277565b500690565b63ffffffff828116828216039080821115615217576152176151c8565b63ffffffff818116838216028082169190828114615965576159656151c8565b505092915050565b600063ffffffff8084168061598457615984615277565b92169190910492915050565b8051611e528161503f565b6000602082840312156159ad57600080fd5b815161338c8161503f565b600082601f8301126159c957600080fd5b604051608081018181106001600160401b03821117156159eb576159eb6149a8565b604052806080840185811115615a0057600080fd5b845b818110156146c0578051835260209283019201615a02565b600082601f830112615a2b57600080fd5b81516020615a3b614ae483614aa0565b82815260a09283028501820192828201919087851115615a5a57600080fd5b8387015b85811015615aa85781818a031215615a765760008081fd5b615a7e614a09565b8151615a8981614b98565b8152615a978a8388016159b8565b818701528452928401928101615a5e565b5090979650505050505050565b600082601f830112615ac657600080fd5b81516020615ad6614ae483614aa0565b82815260059290921b84018101918181019086841115615af557600080fd5b8286015b84811015614b2a578051615b0c81614b98565b8352918301918301615af9565b600082601f830112615b2a57600080fd5b81516020615b3a614ae483614aa0565b82815260059290921b84018101918181019086841115615b5957600080fd5b8286015b84811015614b2a5780516001600160401b0380821115615b7c57600080fd5b908801906040601f19838c038101821315615b9657600080fd5b615b9e614a09565b8885015184811115615baf57600080fd5b615bbd8e8b83890101615ab5565b8252508285015184811115615bd157600080fd5b949094019360c0858e0383011215615be95760008081fd5b615bf1614a4e565b9150888501518252615c058d8487016159b8565b8983015260c085015184811115615c1c5760008081fd5b615c2a8e8b83890101615ab5565b93830193909352808901919091528652505050918301918301615b5d565b600060208284031215615c5a57600080fd5b81516001600160401b0380821115615c7157600080fd5b908301906101808286031215615c8657600080fd5b615c8e6149be565b82518152602083015160208201526040830151604082015260608301516060820152608083015182811115615cc257600080fd5b615cce87828601615a1a565b60808301525060a083015182811115615ce657600080fd5b615cf287828601615ab5565b60a08301525060c083015182811115615d0a57600080fd5b615d1687828601615b19565b60c083015250615d2860e08401615990565b60e08201526101009150615d3e868385016159b8565b91810191909152949350505050565b60208152600061338c6020830184615424565b600060408284031215615d7257600080fd5b82601f830112615d8157600080fd5b615d89614a09565b806040840185811115615d9b57600080fd5b845b81811015615db5578051845260209384019301615d9d565b509095945050505050565b8060005b60028110156111c8578151845260209384019390910190600101615dc4565b8060005b60048110156111c8578151845260209384019390910190600101615de7565b6101008101615e158286615dc0565b615e226040830185615de3565b6147c060c0830184615dc0565b608080825284518282018190526000919060209060a0850190828901855b82811015615e7357615e60848351615dc0565b6040939093019290840190600101615e4d565b5050508481038286015286518082528783019183019060005b81811015615eaf57615e9f838551615de3565b9284019291850191600101615e8c565b5050809450505050506147c06040830184615dc0565b600060208284031215615ed757600080fd5b815161338c81614ce0565b6000604082018483526020604081850152818551808452606086019150828701935060005b81811015615aa857845183529383019391830191600101615f07565b6001600160401b03828116828216039080821115615217576152176151c8565b606081526000615f566060830186614e7e565b60208301949094525060400152919050565b600081615f7757615f776151c8565b506000190190565b60008251615f91818460208701615400565b919091019291505056fe416464726573733a206c6f772d6c6576656c2064656c65676174652063616c6c206661696c6564a26469706673582212208c03c69113c0b4b8f77948df03cc966e30df08fb5b991da50d0903fbbb7f565b64736f6c63430008120033",
    "linkReferences": {
      "src/libraries/BLS.sol": {
        "BLS": [
          {
            "start": 14070,
            "length": 20
          },
          {
            "start": 14436,
            "length": 20
          },
          {
            "start": 14544,
            "length": 20
          },
          {
            "start": 14570,
            "length": 20
          },
          {
            "start": 15077,
            "length": 20
          },
          {
            "start": 15257,
            "length": 20
          },
          {
            "start": 15665,
            "length": 20
          }
        ]
      },
      "src/libraries/ChainHelper.sol": {
        "ChainHelper": [
          {
            "start": 6456,
            "length": 20
          },
          {
            "start": 10807,
            "length": 20
          },
          {
            "start": 18492,
            "length": 20
          }
        ]
      }
    }
  },
  "methodIdentifiers": {
    "DEFAULT_MINIMUM_THRESHOLD()": "aa81d59a",
    "MAX_CONSUMERS()": "64d51a2a",
    "MAX_REQUEST_CONFIRMATIONS()": "15c48b84",
    "RANDOMNESS_REWARD_GAS()": "8166d459",
    "VERIFICATION_GAS_OVER_MINIMUM_THRESHOLD()": "877d38bb",
    "addConsumer(uint64,address)": "7341c10c",
    "cancelOvertimeRequest(bytes32,(uint64,uint32,uint8,bytes,address,uint256,uint16,uint32,uint256,uint256))": "d89f241f",
    "cancelSubscription(uint64,address)": "d7ae1d30",
    "createSubscription()": "a21a23e4",
    "estimatePaymentAmountInETH(uint32,uint32,uint32,uint256,uint32)": "a141bbd8",
    "fulfillRandomness(uint32,bytes32,uint256,(uint64,uint32,uint8,bytes,address,uint256,uint16,uint32,uint256,uint256),(uint256,uint256)[])": "caba5284",
    "fundSubscription(uint64)": "dfaba794",
    "getAdapterConfig()": "ef6f4273",
    "getController()": "3018205f",
    "getCumulativeData()": "c725a833",
    "getCurrentSubId()": "06bfa637",
    "getFeeTier(uint64)": "d2f9f9a7",
    "getFlatFeeConfig()": "dcdb7b88",
    "getLastAssignedGroupIndex()": "91a6fe77",
    "getLastRandomness()": "a4c343f2",
    "getLastSubscription(address)": "76a911bc",
    "getPendingRequestCommitment(bytes32)": "1565034c",
    "getRandomnessCount()": "63602174",
    "getReferralConfig()": "1e58a872",
    "getSubscription(uint64)": "a47c7696",
    "initialize(address)": "c4d66de8",
    "nodeWithdrawETH(address,uint256)": "0ad98f6a",
    "owner()": "8da5cb5b",
    "ownerCancelSubscription(uint64)": "02bcc5b6",
    "proxiableUUID()": "52d1902d",
    "removeConsumer(uint64,address)": "9f87fad7",
    "renounceOwnership()": "715018a6",
    "requestRandomness((uint8,bytes,uint64,uint256,uint16,uint32,uint256))": "a39402d7",
    "setAdapterConfig(uint16,uint32,uint32,uint32,uint256,uint256,uint256)": "71b7ca05",
    "setFlatFeeConfig((uint32,uint32,uint32,uint32,uint32,uint24,uint24,uint24,uint24),uint16,bool,uint256,uint256)": "f4cc97fc",
    "setFreeRequestCount(uint64[],uint64[])": "056e5ede",
    "setReferral(uint64,uint64)": "931d9204",
    "setReferralConfig(bool,uint16,uint16)": "f362ca61",
    "transferOwnership(address)": "f2fde38b",
    "upgradeTo(address)": "3659cfe6",
    "upgradeToAndCall(address,bytes)": "4f1ef286"
  },
  "id": 64
}