{
  "abi": [
    {
      "inputs": [],
      "stateMutability": "nonpayable",
      "type": "constructor"
    },
    {
      "inputs": [],
      "name": "AtLeastOneRequestIsRequired",
      "type": "error"
    },
    {
      "inputs": [],
      "name": "EmptyPartialSignatures",
      "type": "error"
    },
    {
      "inputs": [
        {
          "internalType": "uint32",
          "name": "have",
          "type": "uint32"
        },
        {
          "internalType": "uint32",
          "name": "want",
          "type": "uint32"
        }
      ],
      "name": "GasLimitTooBig",
      "type": "error"
    },
    {
      "inputs": [
        {
          "internalType": "uint256",
          "name": "groupIndex",
          "type": "uint256"
        }
      ],
      "name": "GroupNotExist",
      "type": "error"
    },
    {
      "inputs": [],
      "name": "IdenticalSubscription",
      "type": "error"
    },
    {
      "inputs": [],
      "name": "IncorrectCommitment",
      "type": "error"
    },
    {
      "inputs": [],
      "name": "InsufficientBalanceWhenFulfill",
      "type": "error"
    },
    {
      "inputs": [],
      "name": "InsufficientBalanceWhenRequest",
      "type": "error"
    },
    {
      "inputs": [
        {
          "internalType": "uint64",
          "name": "subId",
          "type": "uint64"
        },
        {
          "internalType": "address",
          "name": "consumer",
          "type": "address"
        }
      ],
      "name": "InvalidConsumer",
      "type": "error"
    },
    {
      "inputs": [],
      "name": "InvalidPartialSignatureFormat",
      "type": "error"
    },
    {
      "inputs": [],
      "name": "InvalidPartialSignatures",
      "type": "error"
    },
    {
      "inputs": [],
      "name": "InvalidRequestByEOA",
      "type": "error"
    },
    {
      "inputs": [
        {
          "internalType": "uint16",
          "name": "have",
          "type": "uint16"
        },
        {
          "internalType": "uint16",
          "name": "min",
          "type": "uint16"
        },
        {
          "internalType": "uint16",
          "name": "max",
          "type": "uint16"
        }
      ],
      "name": "InvalidRequestConfirmations",
      "type": "error"
    },
    {
      "inputs": [],
      "name": "InvalidSignature",
      "type": "error"
    },
    {
      "inputs": [],
      "name": "InvalidSignatureFormat",
      "type": "error"
    },
    {
      "inputs": [],
      "name": "InvalidSubscription",
      "type": "error"
    },
    {
      "inputs": [],
      "name": "InvalidZeroAddress",
      "type": "error"
    },
    {
      "inputs": [
        {
          "internalType": "address",
          "name": "owner",
          "type": "address"
        }
      ],
      "name": "MustBeSubOwner",
      "type": "error"
    },
    {
      "inputs": [],
      "name": "NoAvailableGroups",
      "type": "error"
    },
    {
      "inputs": [],
      "name": "NoCorrespondingRequest",
      "type": "error"
    },
    {
      "inputs": [],
      "name": "NotFromCommitter",
      "type": "error"
    },
    {
      "inputs": [],
      "name": "PendingRequestExists",
      "type": "error"
    },
    {
      "inputs": [],
      "name": "Reentrant",
      "type": "error"
    },
    {
      "inputs": [],
      "name": "ReferralPromotionDisabled",
      "type": "error"
    },
    {
      "inputs": [],
      "name": "RequestNotExpired",
      "type": "error"
    },
    {
      "inputs": [],
      "name": "SenderNotController",
      "type": "error"
    },
    {
      "inputs": [],
      "name": "SubscriptionAlreadyHasReferral",
      "type": "error"
    },
    {
      "inputs": [],
      "name": "TaskStillExclusive",
      "type": "error"
    },
    {
      "inputs": [],
      "name": "TaskStillWithinRequestConfirmations",
      "type": "error"
    },
    {
      "inputs": [],
      "name": "TooManyConsumers",
      "type": "error"
    },
    {
      "anonymous": false,
      "inputs": [
        {
          "indexed": false,
          "internalType": "uint16",
          "name": "minimumRequestConfirmations",
          "type": "uint16"
        },
        {
          "indexed": false,
          "internalType": "uint32",
          "name": "maxGasLimit",
          "type": "uint32"
        },
        {
          "indexed": false,
          "internalType": "uint32",
          "name": "gasAfterPaymentCalculation",
          "type": "uint32"
        },
        {
          "indexed": false,
          "internalType": "uint32",
          "name": "gasExceptCallback",
          "type": "uint32"
        },
        {
          "indexed": false,
          "internalType": "uint256",
          "name": "signatureTaskExclusiveWindow",
          "type": "uint256"
        },
        {
          "indexed": false,
          "internalType": "uint256",
          "name": "rewardPerSignature",
          "type": "uint256"
        },
        {
          "indexed": false,
          "internalType": "uint256",
          "name": "committerRewardPerSignature",
          "type": "uint256"
        }
      ],
      "name": "AdapterConfigSet",
      "type": "event"
    },
    {
      "anonymous": false,
      "inputs": [
        {
          "indexed": false,
          "internalType": "address",
          "name": "previousAdmin",
          "type": "address"
        },
        {
          "indexed": false,
          "internalType": "address",
          "name": "newAdmin",
          "type": "address"
        }
      ],
      "name": "AdminChanged",
      "type": "event"
    },
    {
      "anonymous": false,
      "inputs": [
        {
          "indexed": true,
          "internalType": "address",
          "name": "beacon",
          "type": "address"
        }
      ],
      "name": "BeaconUpgraded",
      "type": "event"
    },
    {
      "anonymous": false,
      "inputs": [
        {
          "components": [
            {
              "internalType": "uint32",
              "name": "fulfillmentFlatFeeEthPPMTier1",
              "type": "uint32"
            },
            {
              "internalType": "uint32",
              "name": "fulfillmentFlatFeeEthPPMTier2",
              "type": "uint32"
            },
            {
              "internalType": "uint32",
              "name": "fulfillmentFlatFeeEthPPMTier3",
              "type": "uint32"
            },
            {
              "internalType": "uint32",
              "name": "fulfillmentFlatFeeEthPPMTier4",
              "type": "uint32"
            },
            {
              "internalType": "uint32",
              "name": "fulfillmentFlatFeeEthPPMTier5",
              "type": "uint32"
            },
            {
              "internalType": "uint24",
              "name": "reqsForTier2",
              "type": "uint24"
            },
            {
              "internalType": "uint24",
              "name": "reqsForTier3",
              "type": "uint24"
            },
            {
              "internalType": "uint24",
              "name": "reqsForTier4",
              "type": "uint24"
            },
            {
              "internalType": "uint24",
              "name": "reqsForTier5",
              "type": "uint24"
            }
          ],
          "indexed": false,
          "internalType": "struct IAdapterOwner.FeeConfig",
          "name": "flatFeeConfig",
          "type": "tuple"
        },
        {
          "indexed": false,
          "internalType": "uint16",
          "name": "flatFeePromotionGlobalPercentage",
          "type": "uint16"
        },
        {
          "indexed": false,
          "internalType": "bool",
          "name": "isFlatFeePromotionEnabledPermanently",
          "type": "bool"
        },
        {
          "indexed": false,
          "internalType": "uint256",
          "name": "flatFeePromotionStartTimestamp",
          "type": "uint256"
        },
        {
          "indexed": false,
          "internalType": "uint256",
          "name": "flatFeePromotionEndTimestamp",
          "type": "uint256"
        }
      ],
      "name": "FlatFeeConfigSet",
      "type": "event"
    },
    {
      "anonymous": false,
      "inputs": [
        {
          "indexed": false,
          "internalType": "uint8",
          "name": "version",
          "type": "uint8"
        }
      ],
      "name": "Initialized",
      "type": "event"
    },
    {
      "anonymous": false,
      "inputs": [
        {
          "indexed": true,
          "internalType": "bytes32",
          "name": "requestId",
          "type": "bytes32"
        },
        {
          "indexed": true,
          "internalType": "uint64",
          "name": "subId",
          "type": "uint64"
        }
      ],
      "name": "OvertimeRequestCanceled",
      "type": "event"
    },
    {
      "anonymous": false,
      "inputs": [
        {
          "indexed": true,
          "internalType": "address",
          "name": "previousOwner",
          "type": "address"
        },
        {
          "indexed": true,
          "internalType": "address",
          "name": "newOwner",
          "type": "address"
        }
      ],
      "name": "OwnershipTransferred",
      "type": "event"
    },
    {
      "anonymous": false,
      "inputs": [
        {
          "indexed": true,
          "internalType": "bytes32",
          "name": "requestId",
          "type": "bytes32"
        },
        {
          "indexed": true,
          "internalType": "uint64",
          "name": "subId",
          "type": "uint64"
        },
        {
          "indexed": true,
          "internalType": "uint32",
          "name": "groupIndex",
          "type": "uint32"
        },
        {
          "indexed": false,
          "internalType": "enum IRequestTypeBase.RequestType",
          "name": "requestType",
          "type": "uint8"
        },
        {
          "indexed": false,
          "internalType": "bytes",
          "name": "params",
          "type": "bytes"
        },
        {
          "indexed": false,
          "internalType": "address",
          "name": "sender",
          "type": "address"
        },
        {
          "indexed": false,
          "internalType": "uint256",
          "name": "seed",
          "type": "uint256"
        },
        {
          "indexed": false,
          "internalType": "uint16",
          "name": "requestConfirmations",
          "type": "uint16"
        },
        {
          "indexed": false,
          "internalType": "uint32",
          "name": "callbackGasLimit",
          "type": "uint32"
        },
        {
          "indexed": false,
          "internalType": "uint256",
          "name": "callbackMaxGasPrice",
          "type": "uint256"
        },
        {
          "indexed": false,
          "internalType": "uint256",
          "name": "estimatedPayment",
          "type": "uint256"
        }
      ],
      "name": "RandomnessRequest",
      "type": "event"
    },
    {
      "anonymous": false,
      "inputs": [
        {
          "indexed": true,
          "internalType": "bytes32",
          "name": "requestId",
          "type": "bytes32"
        },
        {
          "indexed": true,
          "internalType": "uint32",
          "name": "groupIndex",
          "type": "uint32"
        },
        {
          "indexed": true,
          "internalType": "address",
          "name": "committer",
          "type": "address"
        },
        {
          "indexed": false,
          "internalType": "address[]",
          "name": "participantMembers",
          "type": "address[]"
        },
        {
          "indexed": false,
          "internalType": "uint256",
          "name": "randommness",
          "type": "uint256"
        },
        {
          "indexed": false,
          "internalType": "uint256",
          "name": "payment",
          "type": "uint256"
        },
        {
          "indexed": false,
          "internalType": "uint256",
          "name": "flatFee",
          "type": "uint256"
        },
        {
          "indexed": false,
          "internalType": "bool",
          "name": "success",
          "type": "bool"
        }
      ],
      "name": "RandomnessRequestResult",
      "type": "event"
    },
    {
      "anonymous": false,
      "inputs": [
        {
          "indexed": false,
          "internalType": "bool",
          "name": "isReferralEnabled",
          "type": "bool"
        },
        {
          "indexed": false,
          "internalType": "uint16",
          "name": "freeRequestCountForReferrer",
          "type": "uint16"
        },
        {
          "indexed": false,
          "internalType": "uint16",
          "name": "freeRequestCountForReferee",
          "type": "uint16"
        }
      ],
      "name": "ReferralConfigSet",
      "type": "event"
    },
    {
      "anonymous": false,
      "inputs": [
        {
          "indexed": true,
          "internalType": "uint64",
          "name": "subId",
          "type": "uint64"
        },
        {
          "indexed": false,
          "internalType": "address",
          "name": "to",
          "type": "address"
        },
        {
          "indexed": false,
          "internalType": "uint256",
          "name": "amount",
          "type": "uint256"
        }
      ],
      "name": "SubscriptionCanceled",
      "type": "event"
    },
    {
      "anonymous": false,
      "inputs": [
        {
          "indexed": true,
          "internalType": "uint64",
          "name": "subId",
          "type": "uint64"
        },
        {
          "indexed": false,
          "internalType": "address",
          "name": "consumer",
          "type": "address"
        }
      ],
      "name": "SubscriptionConsumerAdded",
      "type": "event"
    },
    {
      "anonymous": false,
      "inputs": [
        {
          "indexed": true,
          "internalType": "uint64",
          "name": "subId",
          "type": "uint64"
        },
        {
          "indexed": false,
          "internalType": "address",
          "name": "consumer",
          "type": "address"
        }
      ],
      "name": "SubscriptionConsumerRemoved",
      "type": "event"
    },
    {
      "anonymous": false,
      "inputs": [
        {
          "indexed": true,
          "internalType": "uint64",
          "name": "subId",
          "type": "uint64"
        },
        {
          "indexed": true,
          "internalType": "address",
          "name": "owner",
          "type": "address"
        }
      ],
      "name": "SubscriptionCreated",
      "type": "event"
    },
    {
      "anonymous": false,
      "inputs": [
        {
          "indexed": true,
          "internalType": "uint64",
          "name": "subId",
          "type": "uint64"
        },
        {
          "indexed": false,
          "internalType": "uint256",
          "name": "oldBalance",
          "type": "uint256"
        },
        {
          "indexed": false,
          "internalType": "uint256",
          "name": "newBalance",
          "type": "uint256"
        }
      ],
      "name": "SubscriptionFunded",
      "type": "event"
    },
    {
      "anonymous": false,
      "inputs": [
        {
          "indexed": true,
          "internalType": "uint64",
          "name": "subId",
          "type": "uint64"
        },
        {
          "indexed": true,
          "internalType": "uint64",
          "name": "referralSubId",
          "type": "uint64"
        }
      ],
      "name": "SubscriptionReferralSet",
      "type": "event"
    },
    {
      "anonymous": false,
      "inputs": [
        {
          "indexed": true,
          "internalType": "address",
          "name": "implementation",
          "type": "address"
        }
      ],
      "name": "Upgraded",
      "type": "event"
    },
    {
      "inputs": [],
      "name": "DEFAULT_MINIMUM_THRESHOLD",
      "outputs": [
        {
          "internalType": "uint32",
          "name": "",
          "type": "uint32"
        }
      ],
      "stateMutability": "view",
      "type": "function"
    },
    {
      "inputs": [],
      "name": "MAX_CONSUMERS",
      "outputs": [
        {
          "internalType": "uint16",
          "name": "",
          "type": "uint16"
        }
      ],
      "stateMutability": "view",
      "type": "function"
    },
    {
      "inputs": [],
      "name": "MAX_REQUEST_CONFIRMATIONS",
      "outputs": [
        {
          "internalType": "uint16",
          "name": "",
          "type": "uint16"
        }
      ],
      "stateMutability": "view",
      "type": "function"
    },
    {
      "inputs": [],
      "name": "RANDOMNESS_REWARD_GAS",
      "outputs": [
        {
          "internalType": "uint32",
          "name": "",
          "type": "uint32"
        }
      ],
      "stateMutability": "view",
      "type": "function"
    },
    {
      "inputs": [],
      "name": "VERIFICATION_GAS_OVER_MINIMUM_THRESHOLD",
      "outputs": [
        {
          "internalType": "uint32",
          "name": "",
          "type": "uint32"
        }
      ],
      "stateMutability": "view",
      "type": "function"
    },
    {
      "inputs": [
        {
          "internalType": "uint64",
          "name": "subId",
          "type": "uint64"
        },
        {
          "internalType": "address",
          "name": "consumer",
          "type": "address"
        }
      ],
      "name": "addConsumer",
      "outputs": [],
      "stateMutability": "nonpayable",
      "type": "function"
    },
    {
      "inputs": [
        {
          "internalType": "bytes32",
          "name": "requestId",
          "type": "bytes32"
        },
        {
          "components": [
            {
              "internalType": "uint64",
              "name": "subId",
              "type": "uint64"
            },
            {
              "internalType": "uint32",
              "name": "groupIndex",
              "type": "uint32"
            },
            {
              "internalType": "enum IRequestTypeBase.RequestType",
              "name": "requestType",
              "type": "uint8"
            },
            {
              "internalType": "bytes",
              "name": "params",
              "type": "bytes"
            },
            {
              "internalType": "address",
              "name": "callbackContract",
              "type": "address"
            },
            {
              "internalType": "uint256",
              "name": "seed",
              "type": "uint256"
            },
            {
              "internalType": "uint16",
              "name": "requestConfirmations",
              "type": "uint16"
            },
            {
              "internalType": "uint32",
              "name": "callbackGasLimit",
              "type": "uint32"
            },
            {
              "internalType": "uint256",
              "name": "callbackMaxGasPrice",
              "type": "uint256"
            },
            {
              "internalType": "uint256",
              "name": "blockNum",
              "type": "uint256"
            }
          ],
          "internalType": "struct IAdapter.RequestDetail",
          "name": "requestDetail",
          "type": "tuple"
        }
      ],
      "name": "cancelOvertimeRequest",
      "outputs": [],
      "stateMutability": "nonpayable",
      "type": "function"
    },
    {
      "inputs": [
        {
          "internalType": "uint64",
          "name": "subId",
          "type": "uint64"
        },
        {
          "internalType": "address",
          "name": "to",
          "type": "address"
        }
      ],
      "name": "cancelSubscription",
      "outputs": [],
      "stateMutability": "nonpayable",
      "type": "function"
    },
    {
      "inputs": [],
      "name": "createSubscription",
      "outputs": [
        {
          "internalType": "uint64",
          "name": "",
          "type": "uint64"
        }
      ],
      "stateMutability": "nonpayable",
      "type": "function"
    },
    {
      "inputs": [
        {
          "internalType": "uint32",
          "name": "callbackGasLimit",
          "type": "uint32"
        },
        {
          "internalType": "uint32",
          "name": "gasExceptCallback",
          "type": "uint32"
        },
        {
          "internalType": "uint32",
          "name": "fulfillmentFlatFeeEthPPM",
          "type": "uint32"
        },
        {
          "internalType": "uint256",
          "name": "weiPerUnitGas",
          "type": "uint256"
        },
        {
          "internalType": "uint32",
          "name": "groupSize",
          "type": "uint32"
        }
      ],
      "name": "estimatePaymentAmountInETH",
      "outputs": [
        {
          "internalType": "uint256",
          "name": "",
          "type": "uint256"
        }
      ],
      "stateMutability": "view",
      "type": "function"
    },
    {
      "inputs": [
        {
          "internalType": "uint32",
          "name": "groupIndex",
          "type": "uint32"
        },
        {
          "internalType": "bytes32",
          "name": "requestId",
          "type": "bytes32"
        },
        {
          "internalType": "uint256",
          "name": "signature",
          "type": "uint256"
        },
        {
          "components": [
            {
              "internalType": "uint64",
              "name": "subId",
              "type": "uint64"
            },
            {
              "internalType": "uint32",
              "name": "groupIndex",
              "type": "uint32"
            },
            {
              "internalType": "enum IRequestTypeBase.RequestType",
              "name": "requestType",
              "type": "uint8"
            },
            {
              "internalType": "bytes",
              "name": "params",
              "type": "bytes"
            },
            {
              "internalType": "address",
              "name": "callbackContract",
              "type": "address"
            },
            {
              "internalType": "uint256",
              "name": "seed",
              "type": "uint256"
            },
            {
              "internalType": "uint16",
              "name": "requestConfirmations",
              "type": "uint16"
            },
            {
              "internalType": "uint32",
              "name": "callbackGasLimit",
              "type": "uint32"
            },
            {
              "internalType": "uint256",
              "name": "callbackMaxGasPrice",
              "type": "uint256"
            },
            {
              "internalType": "uint256",
              "name": "blockNum",
              "type": "uint256"
            }
          ],
          "internalType": "struct IAdapter.RequestDetail",
          "name": "requestDetail",
          "type": "tuple"
        },
        {
          "components": [
            {
              "internalType": "uint256",
              "name": "index",
              "type": "uint256"
            },
            {
              "internalType": "uint256",
              "name": "partialSignature",
              "type": "uint256"
            }
          ],
          "internalType": "struct IAdapter.PartialSignature[]",
          "name": "partialSignatures",
          "type": "tuple[]"
        }
      ],
      "name": "fulfillRandomness",
      "outputs": [],
      "stateMutability": "nonpayable",
      "type": "function"
    },
    {
      "inputs": [
        {
          "internalType": "uint64",
          "name": "subId",
          "type": "uint64"
        }
      ],
      "name": "fundSubscription",
      "outputs": [],
      "stateMutability": "payable",
      "type": "function"
    },
    {
      "inputs": [],
      "name": "getAdapterConfig",
      "outputs": [
        {
          "internalType": "uint16",
          "name": "minimumRequestConfirmations",
          "type": "uint16"
        },
        {
          "internalType": "uint32",
          "name": "maxGasLimit",
          "type": "uint32"
        },
        {
          "internalType": "uint32",
          "name": "gasAfterPaymentCalculation",
          "type": "uint32"
        },
        {
          "internalType": "uint32",
          "name": "gasExceptCallback",
          "type": "uint32"
        },
        {
          "internalType": "uint256",
          "name": "signatureTaskExclusiveWindow",
          "type": "uint256"
        },
        {
          "internalType": "uint256",
          "name": "rewardPerSignature",
          "type": "uint256"
        },
        {
          "internalType": "uint256",
          "name": "committerRewardPerSignature",
          "type": "uint256"
        }
      ],
      "stateMutability": "view",
      "type": "function"
    },
    {
      "inputs": [],
      "name": "getController",
      "outputs": [
        {
          "internalType": "address",
          "name": "",
          "type": "address"
        }
      ],
      "stateMutability": "view",
      "type": "function"
    },
    {
      "inputs": [],
      "name": "getCumulativeData",
      "outputs": [
        {
          "internalType": "uint256",
          "name": "",
          "type": "uint256"
        },
        {
          "internalType": "uint256",
          "name": "",
          "type": "uint256"
        },
        {
          "internalType": "uint256",
          "name": "",
          "type": "uint256"
        }
      ],
      "stateMutability": "view",
      "type": "function"
    },
    {
      "inputs": [],
      "name": "getCurrentSubId",
      "outputs": [
        {
          "internalType": "uint64",
          "name": "",
          "type": "uint64"
        }
      ],
      "stateMutability": "view",
      "type": "function"
    },
    {
      "inputs": [
        {
          "internalType": "uint64",
          "name": "reqCount",
          "type": "uint64"
        }
      ],
      "name": "getFeeTier",
      "outputs": [
        {
          "internalType": "uint32",
          "name": "",
          "type": "uint32"
        }
      ],
      "stateMutability": "view",
      "type": "function"
    },
    {
      "inputs": [],
      "name": "getFlatFeeConfig",
      "outputs": [
        {
          "internalType": "uint32",
          "name": "fulfillmentFlatFeeLinkPPMTier1",
          "type": "uint32"
        },
        {
          "internalType": "uint32",
          "name": "fulfillmentFlatFeeLinkPPMTier2",
          "type": "uint32"
        },
        {
          "internalType": "uint32",
          "name": "fulfillmentFlatFeeLinkPPMTier3",
          "type": "uint32"
        },
        {
          "internalType": "uint32",
          "name": "fulfillmentFlatFeeLinkPPMTier4",
          "type": "uint32"
        },
        {
          "internalType": "uint32",
          "name": "fulfillmentFlatFeeLinkPPMTier5",
          "type": "uint32"
        },
        {
          "internalType": "uint24",
          "name": "reqsForTier2",
          "type": "uint24"
        },
        {
          "internalType": "uint24",
          "name": "reqsForTier3",
          "type": "uint24"
        },
        {
          "internalType": "uint24",
          "name": "reqsForTier4",
          "type": "uint24"
        },
        {
          "internalType": "uint24",
          "name": "reqsForTier5",
          "type": "uint24"
        },
        {
          "internalType": "uint16",
          "name": "flatFeePromotionGlobalPercentage",
          "type": "uint16"
        },
        {
          "internalType": "bool",
          "name": "isFlatFeePromotionEnabledPermanently",
          "type": "bool"
        },
        {
          "internalType": "uint256",
          "name": "flatFeePromotionStartTimestamp",
          "type": "uint256"
        },
        {
          "internalType": "uint256",
          "name": "flatFeePromotionEndTimestamp",
          "type": "uint256"
        }
      ],
      "stateMutability": "view",
      "type": "function"
    },
    {
      "inputs": [],
      "name": "getLastAssignedGroupIndex",
      "outputs": [
        {
          "internalType": "uint256",
          "name": "",
          "type": "uint256"
        }
      ],
      "stateMutability": "view",
      "type": "function"
    },
    {
      "inputs": [],
      "name": "getLastRandomness",
      "outputs": [
        {
          "internalType": "uint256",
          "name": "",
          "type": "uint256"
        }
      ],
      "stateMutability": "view",
      "type": "function"
    },
    {
      "inputs": [
        {
          "internalType": "address",
          "name": "consumer",
          "type": "address"
        }
      ],
      "name": "getLastSubscription",
      "outputs": [
        {
          "internalType": "uint64",
          "name": "",
          "type": "uint64"
        }
      ],
      "stateMutability": "view",
      "type": "function"
    },
    {
      "inputs": [
        {
          "internalType": "bytes32",
          "name": "requestId",
          "type": "bytes32"
        }
      ],
      "name": "getPendingRequestCommitment",
      "outputs": [
        {
          "internalType": "bytes32",
          "name": "",
          "type": "bytes32"
        }
      ],
      "stateMutability": "view",
      "type": "function"
    },
    {
      "inputs": [],
      "name": "getRandomnessCount",
      "outputs": [
        {
          "internalType": "uint256",
          "name": "",
          "type": "uint256"
        }
      ],
      "stateMutability": "view",
      "type": "function"
    },
    {
      "inputs": [],
      "name": "getReferralConfig",
      "outputs": [
        {
          "internalType": "bool",
          "name": "isReferralEnabled",
          "type": "bool"
        },
        {
          "internalType": "uint16",
          "name": "freeRequestCountForReferrer",
          "type": "uint16"
        },
        {
          "internalType": "uint16",
          "name": "freeRequestCountForReferee",
          "type": "uint16"
        }
      ],
      "stateMutability": "view",
      "type": "function"
    },
    {
      "inputs": [
        {
          "internalType": "uint64",
          "name": "subId",
          "type": "uint64"
        }
      ],
      "name": "getSubscription",
      "outputs": [
        {
          "internalType": "address",
          "name": "owner",
          "type": "address"
        },
        {
          "internalType": "address[]",
          "name": "consumers",
          "type": "address[]"
        },
        {
          "internalType": "uint256",
          "name": "balance",
          "type": "uint256"
        },
        {
          "internalType": "uint256",
          "name": "inflightCost",
          "type": "uint256"
        },
        {
          "internalType": "uint64",
          "name": "reqCount",
          "type": "uint64"
        },
        {
          "internalType": "uint64",
          "name": "freeRequestCount",
          "type": "uint64"
        },
        {
          "internalType": "uint64",
          "name": "referralSubId",
          "type": "uint64"
        },
        {
          "internalType": "uint64",
          "name": "reqCountInCurrentPeriod",
          "type": "uint64"
        },
        {
          "internalType": "uint256",
          "name": "lastRequestTimestamp",
          "type": "uint256"
        }
      ],
      "stateMutability": "view",
      "type": "function"
    },
    {
      "inputs": [
        {
          "internalType": "address",
          "name": "controller",
          "type": "address"
        }
      ],
      "name": "initialize",
      "outputs": [],
      "stateMutability": "nonpayable",
      "type": "function"
    },
    {
      "inputs": [
        {
          "internalType": "address",
          "name": "recipient",
          "type": "address"
        },
        {
          "internalType": "uint256",
          "name": "ethAmount",
          "type": "uint256"
        }
      ],
      "name": "nodeWithdrawETH",
      "outputs": [],
      "stateMutability": "nonpayable",
      "type": "function"
    },
    {
      "inputs": [],
      "name": "owner",
      "outputs": [
        {
          "internalType": "address",
          "name": "",
          "type": "address"
        }
      ],
      "stateMutability": "view",
      "type": "function"
    },
    {
      "inputs": [
        {
          "internalType": "uint64",
          "name": "subId",
          "type": "uint64"
        }
      ],
      "name": "ownerCancelSubscription",
      "outputs": [],
      "stateMutability": "nonpayable",
      "type": "function"
    },
    {
      "inputs": [],
      "name": "proxiableUUID",
      "outputs": [
        {
          "internalType": "bytes32",
          "name": "",
          "type": "bytes32"
        }
      ],
      "stateMutability": "view",
      "type": "function"
    },
    {
      "inputs": [
        {
          "internalType": "uint64",
          "name": "subId",
          "type": "uint64"
        },
        {
          "internalType": "address",
          "name": "consumer",
          "type": "address"
        }
      ],
      "name": "removeConsumer",
      "outputs": [],
      "stateMutability": "nonpayable",
      "type": "function"
    },
    {
      "inputs": [],
      "name": "renounceOwnership",
      "outputs": [],
      "stateMutability": "nonpayable",
      "type": "function"
    },
    {
      "inputs": [
        {
          "components": [
            {
              "internalType": "enum IRequestTypeBase.RequestType",
              "name": "requestType",
              "type": "uint8"
            },
            {
              "internalType": "bytes",
              "name": "params",
              "type": "bytes"
            },
            {
              "internalType": "uint64",
              "name": "subId",
              "type": "uint64"
            },
            {
              "internalType": "uint256",
              "name": "seed",
              "type": "uint256"
            },
            {
              "internalType": "uint16",
              "name": "requestConfirmations",
              "type": "uint16"
            },
            {
              "internalType": "uint32",
              "name": "callbackGasLimit",
              "type": "uint32"
            },
            {
              "internalType": "uint256",
              "name": "callbackMaxGasPrice",
              "type": "uint256"
            }
          ],
          "internalType": "struct IAdapter.RandomnessRequestParams",
          "name": "params",
          "type": "tuple"
        }
      ],
      "name": "requestRandomness",
      "outputs": [
        {
          "internalType": "bytes32",
          "name": "",
          "type": "bytes32"
        }
      ],
      "stateMutability": "nonpayable",
      "type": "function"
    },
    {
      "inputs": [
        {
          "internalType": "uint16",
          "name": "minimumRequestConfirmations",
          "type": "uint16"
        },
        {
          "internalType": "uint32",
          "name": "maxGasLimit",
          "type": "uint32"
        },
        {
          "internalType": "uint32",
          "name": "gasAfterPaymentCalculation",
          "type": "uint32"
        },
        {
          "internalType": "uint32",
          "name": "gasExceptCallback",
          "type": "uint32"
        },
        {
          "internalType": "uint256",
          "name": "signatureTaskExclusiveWindow",
          "type": "uint256"
        },
        {
          "internalType": "uint256",
          "name": "rewardPerSignature",
          "type": "uint256"
        },
        {
          "internalType": "uint256",
          "name": "committerRewardPerSignature",
          "type": "uint256"
        }
      ],
      "name": "setAdapterConfig",
      "outputs": [],
      "stateMutability": "nonpayable",
      "type": "function"
    },
    {
      "inputs": [
        {
          "components": [
            {
              "internalType": "uint32",
              "name": "fulfillmentFlatFeeEthPPMTier1",
              "type": "uint32"
            },
            {
              "internalType": "uint32",
              "name": "fulfillmentFlatFeeEthPPMTier2",
              "type": "uint32"
            },
            {
              "internalType": "uint32",
              "name": "fulfillmentFlatFeeEthPPMTier3",
              "type": "uint32"
            },
            {
              "internalType": "uint32",
              "name": "fulfillmentFlatFeeEthPPMTier4",
              "type": "uint32"
            },
            {
              "internalType": "uint32",
              "name": "fulfillmentFlatFeeEthPPMTier5",
              "type": "uint32"
            },
            {
              "internalType": "uint24",
              "name": "reqsForTier2",
              "type": "uint24"
            },
            {
              "internalType": "uint24",
              "name": "reqsForTier3",
              "type": "uint24"
            },
            {
              "internalType": "uint24",
              "name": "reqsForTier4",
              "type": "uint24"
            },
            {
              "internalType": "uint24",
              "name": "reqsForTier5",
              "type": "uint24"
            }
          ],
          "internalType": "struct IAdapterOwner.FeeConfig",
          "name": "flatFeeConfig",
          "type": "tuple"
        },
        {
          "internalType": "uint16",
          "name": "flatFeePromotionGlobalPercentage",
          "type": "uint16"
        },
        {
          "internalType": "bool",
          "name": "isFlatFeePromotionEnabledPermanently",
          "type": "bool"
        },
        {
          "internalType": "uint256",
          "name": "flatFeePromotionStartTimestamp",
          "type": "uint256"
        },
        {
          "internalType": "uint256",
          "name": "flatFeePromotionEndTimestamp",
          "type": "uint256"
        }
      ],
      "name": "setFlatFeeConfig",
      "outputs": [],
      "stateMutability": "nonpayable",
      "type": "function"
    },
    {
      "inputs": [
        {
          "internalType": "uint64[]",
          "name": "subIds",
          "type": "uint64[]"
        },
        {
          "internalType": "uint64[]",
          "name": "freeRequestCounts",
          "type": "uint64[]"
        }
      ],
      "name": "setFreeRequestCount",
      "outputs": [],
      "stateMutability": "nonpayable",
      "type": "function"
    },
    {
      "inputs": [
        {
          "internalType": "uint64",
          "name": "subId",
          "type": "uint64"
        },
        {
          "internalType": "uint64",
          "name": "referralSubId",
          "type": "uint64"
        }
      ],
      "name": "setReferral",
      "outputs": [],
      "stateMutability": "nonpayable",
      "type": "function"
    },
    {
      "inputs": [
        {
          "internalType": "bool",
          "name": "isReferralEnabled",
          "type": "bool"
        },
        {
          "internalType": "uint16",
          "name": "freeRequestCountForReferrer",
          "type": "uint16"
        },
        {
          "internalType": "uint16",
          "name": "freeRequestCountForReferee",
          "type": "uint16"
        }
      ],
      "name": "setReferralConfig",
      "outputs": [],
      "stateMutability": "nonpayable",
      "type": "function"
    },
    {
      "inputs": [
        {
          "internalType": "address",
          "name": "newOwner",
          "type": "address"
        }
      ],
      "name": "transferOwnership",
      "outputs": [],
      "stateMutability": "nonpayable",
      "type": "function"
    },
    {
      "inputs": [
        {
          "internalType": "address",
          "name": "newImplementation",
          "type": "address"
        }
      ],
      "name": "upgradeTo",
      "outputs": [],
      "stateMutability": "nonpayable",
      "type": "function"
    },
    {
      "inputs": [
        {
          "internalType": "address",
          "name": "newImplementation",
          "type": "address"
        },
        {
          "internalType": "bytes",
          "name": "data",
          "type": "bytes"
        }
      ],
      "name": "upgradeToAndCall",
      "outputs": [],
      "stateMutability": "payable",
      "type": "function"
    }
  ],
  "bytecode": {
    "object": "0x60a0604052306080523480156200001557600080fd5b506200002062000026565b620000e8565b600054610100900460ff1615620000935760405162461bcd60e51b815260206004820152602760248201527f496e697469616c697a61626c653a20636f6e747261637420697320696e697469604482015266616c697a696e6760c81b606482015260840160405180910390fd5b60005460ff9081161015620000e6576000805460ff191660ff9081179091556040519081527f7f26b83ff96e1f2b6a682f133852f6798a09c465da95921460cefb38474024989060200160405180910390a15b565b608051615f306200012060003960008181610af701528181610b4001528181610bdc01528181610c1c0152610caf0152615f306000f3fe6080604052600436106102565760003560e01c806391a6fe7711610149578063c725a833116100c6578063dcdb7b881161008a578063f2fde38b11610064578063f2fde38b1461090a578063f362ca611461092a578063f4cc97fc1461094a57600080fd5b8063dcdb7b8814610721578063dfaba79414610889578063ef6f42731461089c57600080fd5b8063c725a83314610670578063caba5284146106a1578063d2f9f9a7146106c1578063d7ae1d30146106e1578063d89f241f1461070157600080fd5b8063a39402d71161010d578063a39402d7146105d1578063a47c7696146105f1578063a4c343f214610626578063aa81d59a1461063b578063c4d66de81461065057600080fd5b806391a6fe7714610541578063931d92041461055c5780639f87fad71461057c578063a141bbd81461059c578063a21a23e4146105bc57600080fd5b806352d1902d116101d75780637341c10c1161019b5780637341c10c1461048057806376a911bc146104a05780638166d459146104e2578063877d38bb1461050d5780638da5cb5b1461052357600080fd5b806352d1902d1461040c578063636021741461042157806364d51a2a14610436578063715018a61461044b57806371b7ca051461046057600080fd5b806315c48b841161021e57806315c48b841461032f5780631e58a872146103575780633018205f146103a75780633659cfe6146103d95780634f1ef286146103f957600080fd5b806302bcc5b61461025b578063056e5ede1461027d57806306bfa6371461029d5780630ad98f6a146102d45780631565034c146102f4575b600080fd5b34801561026757600080fd5b5061027b6102763660046147c2565b61096a565b005b34801561028957600080fd5b5061027b61029836600461496a565b6109e1565b3480156102a957600080fd5b5060d7546001600160401b03165b6040516001600160401b0390911681526020015b60405180910390f35b3480156102e057600080fd5b5061027b6102ef3660046149ed565b610a8c565b34801561030057600080fd5b5061032161030f366004614a19565b600090815260d4602052604090205490565b6040519081526020016102cb565b34801561033b57600080fd5b5061034460c881565b60405161ffff90911681526020016102cb565b34801561036357600080fd5b5061038560d85460ff81169161ffff6101008304811692630100000090041690565b60408051931515845261ffff92831660208501529116908201526060016102cb565b3480156103b357600080fd5b5060c9546001600160a01b03165b6040516001600160a01b0390911681526020016102cb565b3480156103e557600080fd5b5061027b6103f4366004614a32565b610aed565b61027b610407366004614abe565b610bd2565b34801561041857600080fd5b50610321610ca2565b34801561042d57600080fd5b5060cf54610321565b34801561044257600080fd5b50610344606481565b34801561045757600080fd5b5061027b610d55565b34801561046c57600080fd5b5061027b61047b366004614b32565b610d69565b34801561048c57600080fd5b5061027b61049b366004614ba7565b610ebd565b3480156104ac57600080fd5b506102b76104bb366004614a32565b6001600160a01b0316600090815260d560205260409020600101546001600160401b031690565b3480156104ee57600080fd5b506104f861232881565b60405163ffffffff90911681526020016102cb565b34801561051957600080fd5b506104f861c35081565b34801561052f57600080fd5b506097546001600160a01b03166103c1565b34801561054d57600080fd5b5060cd5463ffffffff16610321565b34801561056857600080fd5b5061027b610577366004614bde565b611080565b34801561058857600080fd5b5061027b610597366004614ba7565b61135d565b3480156105a857600080fd5b506103216105b7366004614c11565b611693565b3480156105c857600080fd5b506102b76117e6565b3480156105dd57600080fd5b506103216105ec366004614c79565b6118df565b3480156105fd57600080fd5b5061061161060c3660046147c2565b611cfd565b6040516102cb99989796959493929190614cf7565b34801561063257600080fd5b5060ce54610321565b34801561064757600080fd5b506104f8600381565b34801561065c57600080fd5b5061027b61066b366004614a32565b611e1d565b34801561067c57600080fd5b5060ca5460cb5460cc54604080519384526020840192909252908201526060016102cb565b3480156106ad57600080fd5b5061027b6106bc366004614d7a565b611f49565b3480156106cd57600080fd5b506104f86106dc3660046147c2565b612397565b3480156106ed57600080fd5b5061027b6106fc366004614ba7565b612514565b34801561070d57600080fd5b5061027b61071c366004614e38565b612620565b34801561072d57600080fd5b50604080516101208101825260d95463ffffffff8082168084526401000000008304821660208501819052600160401b84048316958501869052600160601b8404831660608601819052600160801b85049093166080860181905262ffffff600160a01b8604811660a08801819052600160b81b8704821660c08901819052600160d01b8804831660e08a01819052600160e81b90980490921661010090980188905260da5460db5460dc54969a95999598949692959394939261ffff83169260ff620100009091041691906040516102cb9d9c9b9a9998979695949392919063ffffffff9d8e1681529b8d1660208d0152998c1660408c0152978b1660608b015295909916608089015262ffffff93841660a089015291831660c0880152821660e08701521661010085015261ffff949094166101208401529215156101408301526101608201929092526101808101919091526101a00190565b61027b6108973660046147c2565b612971565b3480156108a857600080fd5b5060d05460d15460d25460d3546040805161ffff8616815263ffffffff62010000870481166020830152600160381b8704811692820192909252600160581b909504166060850152608084019290925260a083015260c082015260e0016102cb565b34801561091657600080fd5b5061027b610925366004614a32565b612a5d565b34801561093657600080fd5b5061027b610945366004614e8d565b612ad3565b34801561095657600080fd5b5061027b610965366004614ee5565b612b6d565b610972612da7565b6001600160401b038116600090815260d660205260409020546001600160a01b03166109b157604051630fb532db60e11b815260040160405180910390fd5b6001600160401b038116600090815260d660205260409020546109de9082906001600160a01b0316612e01565b50565b6109e9612da7565b60005b8251811015610a8757818181518110610a0757610a07614fe7565b602002602001015160d66000858481518110610a2557610a25614fe7565b60200260200101516001600160401b03166001600160401b0316815260200190815260200160002060060160086101000a8154816001600160401b0302191690836001600160401b031602179055508080610a7f90615013565b9150506109ec565b505050565b60c9546001600160a01b03163314610ab757604051630f5caa3360e41b815260040160405180910390fd5b6040516001600160a01b0383169082156108fc029083906000818181858888f19350505050158015610a87573d6000803e3d6000fd5b6001600160a01b037f0000000000000000000000000000000000000000000000000000000000000000163003610b3e5760405162461bcd60e51b8152600401610b359061502c565b60405180910390fd5b7f00000000000000000000000000000000000000000000000000000000000000006001600160a01b0316610b87600080516020615eb4833981519152546001600160a01b031690565b6001600160a01b031614610bad5760405162461bcd60e51b8152600401610b3590615078565b610bb681612ed3565b604080516000808252602082019092526109de91839190612edb565b6001600160a01b037f0000000000000000000000000000000000000000000000000000000000000000163003610c1a5760405162461bcd60e51b8152600401610b359061502c565b7f00000000000000000000000000000000000000000000000000000000000000006001600160a01b0316610c63600080516020615eb4833981519152546001600160a01b031690565b6001600160a01b031614610c895760405162461bcd60e51b8152600401610b3590615078565b610c9282612ed3565b610c9e82826001612edb565b5050565b6000306001600160a01b037f00000000000000000000000000000000000000000000000000000000000000001614610d425760405162461bcd60e51b815260206004820152603860248201527f555550535570677261646561626c653a206d757374206e6f742062652063616c60448201527f6c6564207468726f7567682064656c656761746563616c6c00000000000000006064820152608401610b35565b50600080516020615eb483398151915290565b610d5d612da7565b610d676000613046565b565b610d71612da7565b60c861ffff88161115610dab5760405163539c34bb60e11b815261ffff881660048201819052602482015260c86044820152606401610b35565b604080516101008101825261ffff891680825263ffffffff89811660208085018290526000858701528a83166060808701829052938b16608080880182905260a08089018d905260c0808a018d905260e0998a018c905260d0805465ffffffffffff19168a17620100008902176effffffffffffffffff0000000000001916600160381b87026effffffff0000000000000000000000191617600160581b860217905560d18e905560d28d905560d38c90558a519889529488019590955297860191909152928401929092529382018790529281018590529182018390527fefeb3292465cf72a302efdd83695ad560a2828353a1e018844e9abd19a642037910160405180910390a150505050505050565b6001600160401b038216600090815260d6602052604090205482906001600160a01b031680610eff57604051630fb532db60e11b815260040160405180910390fd5b336001600160a01b03821614610f3357604051636c51fda960e11b81526001600160a01b0382166004820152602401610b35565b60d054600160301b900460ff1615610f5e5760405163769dd35360e11b815260040160405180910390fd5b6001600160401b038416600090815260d6602052604090206002015460631901610f9b576040516305a48e0f60e01b815260040160405180910390fd5b6001600160a01b038316600090815260d5602090815260408083206001600160401b038089168552925282205416900361107a576001600160a01b038316600081815260d5602090815260408083206001600160401b0389168085528184528285208054600167ffffffffffffffff1991821681179092559281018054909316821790925560d68452828520600201805492830181558552938390200180546001600160a01b031916851790555192835290917f43dc749a04ac8fb825cbd514f7c0e13f13bc6f2ee66043b76629d51776cff8e0910160405180910390a25b50505050565b6001600160401b038216600090815260d6602052604090205482906001600160a01b0316806110c257604051630fb532db60e11b815260040160405180910390fd5b336001600160a01b038216146110f657604051636c51fda960e11b81526001600160a01b0382166004820152602401610b35565b60d054600160301b900460ff16156111215760405163769dd35360e11b815260040160405180910390fd5b60d85460ff1661114457604051636dac270160e01b815260040160405180910390fd5b6001600160401b03808416600090815260d660205260408082205492871682529020546001600160a01b039182169116036111925760405163027f035560e51b815260040160405180910390fd5b6001600160401b03808516600090815260d66020526040902060060154600160801b900416156111d55760405163cae26ee160e01b815260040160405180910390fd5b6001600160401b03808516600090815260d6602052604090206006015416158061121a57506001600160401b03808416600090815260d6602052604090206006015416155b156112385760405163a760a23760e01b815260040160405180910390fd5b60d8546001600160401b03848116600090815260d660205260409020600601805461010090930461ffff1692909160089161127c918591600160401b9004166150c4565b82546101009290920a6001600160401b0381810219909316918316021790915560d854868216600090815260d6602052604090206006018054630100000090920461ffff169350916008916112da918591600160401b9004166150c4565b82546101009290920a6001600160401b03818102199093169183160217909155858116600081815260d66020526040808220600601805467ffffffffffffffff60801b1916600160801b958a169586021790555192935090917fb661d46b53034f62a6c7d50df2a5e055fab98889aaf62f8c618e457edd96c6889190a350505050565b6001600160401b038216600090815260d6602052604090205482906001600160a01b03168061139f57604051630fb532db60e11b815260040160405180910390fd5b336001600160a01b038216146113d357604051636c51fda960e11b81526001600160a01b0382166004820152602401610b35565b60d054600160301b900460ff16156113fe5760405163769dd35360e11b815260040160405180910390fd5b6001600160401b038416600090815260d660205260409020600401541561143857604051631685ecdd60e31b815260040160405180910390fd5b6001600160401b038416600090815260d660209081526040808320600201805482518185028101850190935280835291929091908301828280156114a557602002820191906000526020600020905b81546001600160a01b03168152600190910190602001808311611487575b5050505050905080516000036114e857604051637800cff360e11b81526001600160401b03861660048201526001600160a01b0385166024820152604401610b35565b60005b815181101561165f57846001600160a01b031682828151811061151057611510614fe7565b60200260200101516001600160a01b03160361164d57816001835161153591906150eb565b8151811061154557611545614fe7565b602002602001015160d66000886001600160401b03166001600160401b03168152602001908152602001600020600201828154811061158657611586614fe7565b600091825260208083209190910180546001600160a01b0319166001600160a01b0394909416939093179092556001600160401b038816815260d6909152604090206002018054806115da576115da6150fe565b6000828152602090819020600019908301810180546001600160a01b03191690559091019091556040516001600160a01b03871681526001600160401b038816917f182bff9831466789164ca77075fffd84916d35a8180ba73c27e45634549b445b910160405180910390a2505061107a565b8061165781615013565b9150506114eb565b50604051637800cff360e11b81526001600160401b03861660048201526001600160a01b0385166024820152604401610b35565b60405163745e0dcf60e01b815263ffffffff82166004820152600090819060029073__$12cfec358bb780f6fb6addaaa16de5538e$__90638e3976f690829063745e0dcf90602401602060405180830381865af41580156116f8573d6000803e3d6000fd5b505050506040513d601f19601f8201168201806040525081019061171c9190615114565b6040518263ffffffff1660e01b815260040161173a91815260200190565b602060405180830381865af4158015611757573d6000803e3d6000fd5b505050506040513d601f19601f8201168201806040525081019061177b9190615114565b61178690600361512d565b611790919061515a565b905060008161179f898961516e565b6117af9063ffffffff168761512d565b6117b9919061518b565b90506117d063ffffffff871664e8d4a5100061512d565b6117da908261518b565b98975050505050505050565b60d054600090600160301b900460ff16156118145760405163769dd35360e11b815260040160405180910390fd5b60d780546001600160401b031690600061182d8361519e565b82546001600160401b039182166101009390930a92830292820219169190911790915560d780548216600090815260d6602052604080822080546001600160a01b0319163390811790915583548516835281832060060180546fffffffffffffffff00000000000000001916600160401b17905592549051929450909216917f464722b4166576d3dcbba877b999bc35cf911f4eaf434b7eba68fa113951d0bf91a35060d7546001600160401b031690565b60d054600090600160301b900460ff161561190d5760405163769dd35360e11b815260040160405180910390fd5b6000611918836151d3565b905032330361193a57604051638a3150e760e01b815260040160405180910390fd5b6040808201516001600160401b0316600090815260d66020522080546001600160a01b031661197c57604051630fb532db60e11b815260040160405180910390fd5b33600090815260d560209081526040808320858201516001600160401b03908116855292528220541690036119db576040808301519051637800cff360e11b81526001600160401b039091166004820152336024820152604401610b35565b60d054608083015161ffff91821691161080611a03575060c861ffff16826080015161ffff16115b15611a3e57608082015160d05460405163539c34bb60e11b815261ffff92831660048201529116602482015260c86044820152606401610b35565b60d05460a083015163ffffffff62010000909204821691161115611a955760a082015160d054604051637aebf00f60e11b815263ffffffff9283166004820152620100009091049091166024820152604401610b35565b611a9d613098565b60cd805463ffffffff191663ffffffff9290921691909117905560608201516040808401805133600081815260d5602090815285822094516001600160401b039081168352949052938420549394611af794909316613209565b6040848101805133600090815260d560209081528482206001808201805467ffffffffffffffff19166001600160401b03968716179055945184168352905292832080549495509193919291611b4f918591166150c4565b92506101000a8154816001600160401b0302191690836001600160401b031602179055506000611b7e82613268565b60c95460cd5460405163f49e0ba960e01b815263ffffffff90911660048201529192506000916001600160a01b039091169063f49e0ba9906024016040805180830381865afa158015611bd5573d6000803e3d6000fd5b505050506040513d601f19601f82011682018060405250810190611bf99190615271565b9150506000611c138584848960a001518a60c0015161329a565b60408088015160cd5489516020808c015160808d015160a08e015160c08f01519751989950611c59988c9863ffffffff90971696939433948f949392909143910161531d565b60408051601f198184030181528282528051602091820120600087815260d483528390205560cd54918901518951918a015160808b015160a08c015160c08d015163ffffffff909616966001600160401b03909416958a957fd26299589dd9197a8dc30a0fa17b0fe7dd432bc3441aa5f5631ea1e14c1af74495611ce7959194919333938f93928d906153a8565b60405180910390a450909450505050505b919050565b6001600160401b038116600090815260d660205260408120805460609183918291829182918291829182916001600160a01b0316611d4e57604051630fb532db60e11b815260040160405180910390fd5b80546003820154600483015460068401546007850154600286018054604080516020808402820181019092528281526001600160a01b0390981697929695946001600160401b0380821695600160401b8304821695600160801b8404831695600160c01b9094049092169390928a91830182828015611df657602002820191906000526020600020905b81546001600160a01b03168152600190910190602001808311611dd8575b50505050509750995099509950995099509950995099509950509193959799909294969850565b600054610100900460ff1615808015611e3d5750600054600160ff909116105b80611e575750303b158015611e57575060005460ff166001145b611eba5760405162461bcd60e51b815260206004820152602e60248201527f496e697469616c697a61626c653a20636f6e747261637420697320616c72656160448201526d191e481a5b9a5d1a585b1a5e995960921b6064820152608401610b35565b6000805460ff191660011790558015611edd576000805461ff0019166101001790555b60c980546001600160a01b0319166001600160a01b038416179055611f00613420565b8015610c9e576000805461ff0019169055604051600181527f7f26b83ff96e1f2b6a682f133852f6798a09c465da95921460cefb38474024989060200160405180910390a15050565b60d054600160301b900460ff1615611f745760405163769dd35360e11b815260040160405180910390fd5b60005a600087815260d46020526040812054919250819003611fa957604051631b44092560e11b815260040160405180910390fd5b86611fb760208701876147c2565b611fc7604088016020890161540f565b611fd76060890160408a0161542c565b611fe460608a018a615447565b611ff460a08c0160808d01614a32565b60a08c013561200960e08e0160c08f01615494565b8d60e001602081019061201c919061540f565b8e61010001358f61012001356040516020016120439c9b9a999897969594939291906154af565b6040516020818303038152906040528051906020012081146120785760405163354a450b60e21b815260040160405180910390fd5b61208860e0860160c08701615494565b61209b9061ffff1661012087013561518b565b4310156120bb5760405163619a4abd60e01b815260040160405180910390fd5b6120cb604086016020870161540f565b63ffffffff168863ffffffff16141580156120f7575060d1546120f39061012087013561518b565b4311155b15612115576040516378373bbd60e11b815260040160405180910390fd5b60c960009054906101000a90046001600160a01b03166001600160a01b03166306545a936040518163ffffffff1660e01b8152600401602060405180830381865afa158015612168573d6000803e3d6000fd5b505050506040513d601f19601f8201168201806040525081019061218c9190615114565b8863ffffffff16106121b957604051637f6efcb560e11b815263ffffffff89166004820152602401610b35565b60006122298963ffffffff168760a001358861012001358a8989808060200260200160405190810160405280939291908181526020016000905b8282101561221f5761221060408302860136819003810190615557565b815260200190600101906121f3565b505050505061344f565b600089815260d46020908152604080832083905580518083018c9052815180820384018152908201909152805191012060cf805493945090926001929061227190849061518b565b909155505060ce81905560c9546040516379ef840160e11b8152600481018390526001600160a01b039091169063f3df080290602401600060405180830381600087803b1580156122c157600080fd5b505af11580156122d5573d6000803e3d6000fd5b5050505060006122ef8a838a6122ea90615589565b613b3a565b905060008061232860d68261230760208e018e6147c2565b6001600160401b0316815260208101919091526040016000208d8a8a613dd5565b9150915061233785838361408e565b336001600160a01b03168d63ffffffff168d7f6fc1bcb4bd7d5fdf4017f746304b61ae4472496256e906c6bb44682aa2c9a6d8888887878a604051612380959493929190615656565b60405180910390a450505050505050505050505050565b604080516101208101825260d95463ffffffff8082168352640100000000820481166020840152600160401b8204811693830193909352600160601b810483166060830152600160801b8104909216608082015262ffffff600160a01b8304811660a08301819052600160b81b8404821660c0840152600160d01b8404821660e0840152600160e81b909304166101008201526000916001600160401b03841611612443575192915050565b826001600160401b03168160a0015162ffffff1610801561247657508060c0015162ffffff16836001600160401b031611155b15612485576020015192915050565b826001600160401b03168160c0015162ffffff161080156124b857508060e0015162ffffff16836001600160401b031611155b156124c7576040015192915050565b826001600160401b03168160e0015162ffffff161080156124fb575080610100015162ffffff16836001600160401b031611155b1561250a576060015192915050565b6080015192915050565b6001600160401b038216600090815260d6602052604090205482906001600160a01b03168061255657604051630fb532db60e11b815260040160405180910390fd5b336001600160a01b0382161461258a57604051636c51fda960e11b81526001600160a01b0382166004820152602401610b35565b60d054600160301b900460ff16156125b55760405163769dd35360e11b815260040160405180910390fd5b6001600160a01b0383166125dc5760405163f6b2911f60e01b815260040160405180910390fd5b6001600160401b038416600090815260d660205260409020600401541561261657604051631685ecdd60e31b815260040160405180910390fd5b61107a8484612e01565b61262d60208201826147c2565b6001600160401b038116600090815260d660205260409020546001600160a01b03168061266d57604051630fb532db60e11b815260040160405180910390fd5b336001600160a01b038216146126a157604051636c51fda960e11b81526001600160a01b0382166004820152602401610b35565b600084815260d4602052604081205490036126cf57604051631b44092560e11b815260040160405180910390fd5b836126dd60208501856147c2565b6126ed604086016020870161540f565b6126fd606087016040880161542c565b61270a6060880188615447565b61271a60a08a0160808b01614a32565b60a08a013561272f60e08c0160c08d01615494565b6127406101008d0160e08e0161540f565b8c61010001358d61012001356040516020016127679c9b9a999897969594939291906154af565b60408051601f198184030181529181528151602092830120600087815260d4909352912054146127aa5760405163354a450b60e21b815260040160405180910390fd5b600073__$12cfec358bb780f6fb6addaaa16de5538e$__6387ceff096040518163ffffffff1660e01b8152600401602060405180830381865af41580156127f5573d6000803e3d6000fd5b505050506040513d601f19601f820116820180604052508101906128199190615114565b612826906201518061515a565b90506128378161012086013561518b565b43101561285757604051636c804b5d60e01b815260040160405180910390fd5b600085815260d460209081526040822082905560d6919061287a908701876147c2565b6001600160401b03168152602080820192909252604090810160009081208882526005018352908120549160d691906128b5908801886147c2565b6001600160401b03166001600160401b0316815260200190815260200160002060040160008282546128e791906150eb565b9091555060d6905060006128fe60208701876147c2565b6001600160401b0316815260208082019290925260409081016000908120888252600501835290812055612934908501856147c2565b6001600160401b0316857fc1cf1d318384ee8dee53eed48bbf121b2b14fa61e9da5fd2f597dfbee4e5c2e660405160405180910390a35050505050565b60d054600160301b900460ff161561299c5760405163769dd35360e11b815260040160405180910390fd5b6001600160401b038116600090815260d660205260409020546001600160a01b03166129db57604051630fb532db60e11b815260040160405180910390fd5b6001600160401b038116600090815260d660205260408120600301805491349190612a06838561518b565b90915550506001600160401b0382167fd39ec07f4e209f627a4c427971473820dc129761ba28de8906bd56f57101d4f882612a41348261518b565b6040805192835260208301919091520160405180910390a25050565b612a65612da7565b6001600160a01b038116612aca5760405162461bcd60e51b815260206004820152602660248201527f4f776e61626c653a206e6577206f776e657220697320746865207a65726f206160448201526564647265737360d01b6064820152608401610b35565b6109de81613046565b612adb612da7565b604080516060808201835285151580835261ffff868116602080860182905291871694860185905260d8805462ffffff191662ffff001985161761010083021764ffff000000191663010000008702179055855192835290820152928301919091527faf8d657c268b3f943977d5288bfb2306420bcb17b7ef17397cffa5d2f4891643910160405180910390a1505050565b612b75612da7565b6040518060a001604052808681526020018561ffff16815260200184151581526020018381526020018281525060d960008201518160000160008201518160000160006101000a81548163ffffffff021916908363ffffffff16021790555060208201518160000160046101000a81548163ffffffff021916908363ffffffff16021790555060408201518160000160086101000a81548163ffffffff021916908363ffffffff160217905550606082015181600001600c6101000a81548163ffffffff021916908363ffffffff16021790555060808201518160000160106101000a81548163ffffffff021916908363ffffffff16021790555060a08201518160000160146101000a81548162ffffff021916908362ffffff16021790555060c08201518160000160176101000a81548162ffffff021916908362ffffff16021790555060e082015181600001601a6101000a81548162ffffff021916908362ffffff16021790555061010082015181600001601d6101000a81548162ffffff021916908362ffffff160217905550505060208201518160010160006101000a81548161ffff021916908361ffff16021790555060408201518160010160026101000a81548160ff02191690831515021790555060608201518160020155608082015181600301559050507f1851d8853c0ab5ed26d95d456344506f759953621e7c115677f2244696b8ba978585858585604051612d9895949392919061568f565b60405180910390a15050505050565b6097546001600160a01b03163314610d675760405162461bcd60e51b815260206004820181905260248201527f4f776e61626c653a2063616c6c6572206973206e6f7420746865206f776e65726044820152606401610b35565b60d054600160301b900460ff1615612e2c5760405163769dd35360e11b815260040160405180910390fd5b6001600160401b038216600081815260d66020908152604091829020600381015481546001600160a01b03191690915582516001600160a01b038616815291820181905292917fe8ed5b475a5b5987aa9165e8731bb78043f39eee32ec5a1169a89e27fcd49815910160405180910390a26040516001600160a01b0383169082156108fc029083906000818181858888f1935050505015801561107a573d6000803e3d6000fd5b6109de612da7565b7f4910fdfa16fed3260ed0e7147f7cc6da11a60208b5b9406d12a635614ffd91435460ff1615612f0e57610a8783614206565b826001600160a01b03166352d1902d6040518163ffffffff1660e01b8152600401602060405180830381865afa925050508015612f68575060408051601f3d908101601f19168201909252612f6591810190615114565b60015b612fcb5760405162461bcd60e51b815260206004820152602e60248201527f45524331393637557067726164653a206e657720696d706c656d656e7461746960448201526d6f6e206973206e6f74205555505360901b6064820152608401610b35565b600080516020615eb4833981519152811461303a5760405162461bcd60e51b815260206004820152602960248201527f45524331393637557067726164653a20756e737570706f727465642070726f786044820152681a58589b195555525160ba1b6064820152608401610b35565b50610a878383836142a2565b609780546001600160a01b038381166001600160a01b0319831681179093556040519116919082907f8be0079c531659141344cd1fd0a4f28419497f9722a3daafe3b4186f6b6457e090600090a35050565b60008060c960009054906101000a90046001600160a01b03166001600160a01b031663b330a0fd6040518163ffffffff1660e01b8152600401600060405180830381865afa1580156130ee573d6000803e3d6000fd5b505050506040513d6000823e601f3d908101601f191682016040526131169190810190615751565b9050805160000361313a57604051636905ab6760e01b815260040160405180910390fd5b60c954604080516306545a9360e01b815290516000926001600160a01b0316916306545a939160048083019260209291908290030181865afa158015613184573d6000803e3d6000fd5b505050506040513d601f19601f820116820180604052508101906131a89190615114565b60cd5490915060009082906131c49063ffffffff16600161516e565b63ffffffff166131d491906157e1565b90505b6131e183826142c7565b61320257816131f182600161518b565b6131fb91906157e1565b90506131d7565b9392505050565b604080514660208201529081018590526001600160401b03841660608201526001600160a01b038316608082015260a0810182905260009060c0016040516020818303038152906040528051906020012060001c90505b949350505050565b60008160405160200161327d91815260200190565b604051602081830303815290604052805190602001209050919050565b60da54600090819062010000900460ff16156132c4575060068601546001600160401b0316613316565b60db5442108015906132d8575060dc544211155b156133165760db54600788015410156132f357506001613316565b600687015461331390600160c01b90046001600160401b031660016150c4565b90505b60006133b2856133276003896157f5565b6133339061c350615812565b61333f89612328615812565b60d0546133599190600160581b900463ffffffff1661516e565b613363919061516e565b60068b0154600160401b90046001600160401b03166133a85760da5460649061ffff1661338f87612397565b6133999190615812565b6133a3919061583a565b6133ab565b60005b878a611693565b905080886004015489600301546133c991906150eb565b10156133e85760405163444a5eaf60e11b815260040160405180910390fd5b808860040160008282546133fc919061518b565b90915550506000878152600589016020526040902081905591505095945050505050565b600054610100900460ff166134475760405162461bcd60e51b8152600401610b359061585d565b610d6761431c565b60405162f577a560e81b81526004810183905260609073__$34d23ddaee48904c6c566425acbfa0fc0e$__9063f577a50090602401602060405180830381865af41580156134a1573d6000803e3d6000fd5b505050506040513d601f19601f820116820180604052508101906134c591906158b3565b6134e257604051638529df1f60e01b815260040160405180910390fd5b815160000361350457604051638bdcc37560e01b815260040160405180910390fd5b60c9546040516333ad819560e21b8152600481018890526000916001600160a01b03169063ceb6065490602401600060405180830381865afa15801561354e573d6000803e3d6000fd5b505050506040513d6000823e601f3d908101601f191682016040526135769190810190615b60565b90506135868160a001513361434c565b6135a35760405163d9ce719d60e01b815260040160405180910390fd5b60408051602081018890528082018790528151808203830181526060820192839052633033cc5160e01b90925260009073__$34d23ddaee48904c6c566425acbfa0fc0e$__90633033cc51906135fd908590606401615c65565b6040805180830381865af4158015613619573d6000803e3d6000fd5b505050506040513d601f19601f8201168201806040525081019061363d9190615c78565b905073__$34d23ddaee48904c6c566425acbfa0fc0e$__63ebbdac9173__$34d23ddaee48904c6c566425acbfa0fc0e$__6313bc64ee896040518263ffffffff1660e01b815260040161369291815260200190565b6040805180830381865af41580156136ae573d6000803e3d6000fd5b505050506040513d601f19601f820116820180604052508101906136d29190615c78565b856101000151846040518463ffffffff1660e01b81526004016136f793929190615d1e565b602060405180830381865af4158015613714573d6000803e3d6000fd5b505050506040513d601f19601f8201168201806040525081019061373891906158b3565b61375557604051638baa579f60e01b815260040160405180910390fd5b600085516001600160401b03811115613770576137706147dd565b6040519080825280602002602001820160405280156137a957816020015b61379661476f565b81526020019060019003908161378e5790505b509050600086516001600160401b038111156137c7576137c76147dd565b60405190808252806020026020018201604052801561380057816020015b6137ed61478d565b8152602001906001900390816137e55790505b50905086516001600160401b0381111561381c5761381c6147dd565b604051908082528060200260200182016040528015613845578160200160208202803683370190505b50955060005b8751811015613a925773__$34d23ddaee48904c6c566425acbfa0fc0e$__63f577a50089838151811061388057613880614fe7565b6020026020010151602001516040518263ffffffff1660e01b81526004016138aa91815260200190565b602060405180830381865af41580156138c7573d6000803e3d6000fd5b505050506040513d601f19601f820116820180604052508101906138eb91906158b3565b61390857604051636b849b7d60e11b815260040160405180910390fd5b73__$34d23ddaee48904c6c566425acbfa0fc0e$__6313bc64ee89838151811061393457613934614fe7565b6020026020010151602001516040518263ffffffff1660e01b815260040161395e91815260200190565b6040805180830381865af415801561397a573d6000803e3d6000fd5b505050506040513d601f19601f8201168201806040525081019061399e9190615c78565b8382815181106139b0576139b0614fe7565b602002602001018190525085608001518882815181106139d2576139d2614fe7565b602002602001015160000151815181106139ee576139ee614fe7565b602002602001015160200151828281518110613a0c57613a0c614fe7565b60200260200101819052508560800151888281518110613a2e57613a2e614fe7565b60200260200101516000015181518110613a4a57613a4a614fe7565b602002602001015160000151878281518110613a6857613a68614fe7565b6001600160a01b039092166020928302919091019091015280613a8a81615013565b91505061384b565b50604051630d6870d760e21b815273__$34d23ddaee48904c6c566425acbfa0fc0e$__906335a1c35c90613ace90859085908890600401615d47565b602060405180830381865af4158015613aeb573d6000803e3d6000fd5b505050506040513d601f19601f82011682018060405250810190613b0f91906158b3565b613b2c57604051639c2d1c6d60e01b815260040160405180910390fd5b505050505095945050505050565b60008060608184604001516002811115613b5657613b56615295565b03613ba05750604080516024810187905260448082018790528251808303909101815260649091019091526020810180516001600160e01b03166394985ddd60e01b179052613d8a565b600184604001516002811115613bb857613bb8615295565b03613ceb5760008460600151806020019051810190613bd79190615ddd565b905060008163ffffffff166001600160401b03811115613bf957613bf96147dd565b604051908082528060200260200182016040528015613c22578160200160208202803683370190505b50905060005b8263ffffffff16811015613c925760408051602081018a90529081018290526060016040516020818303038152906040528051906020012060001c828281518110613c7557613c75614fe7565b602090810291909101015280613c8a81615013565b915050613c28565b506040516375bf929b60e01b90613caf908a908490602401615dfa565b60408051601f198184030181529190526020810180516001600160e01b03166001600160e01b0319909316929092179091529250613d8a915050565b600284604001516002811115613d0357613d03615295565b03613d8a5760008460600151806020019051810190613d229190615ddd565b90506000613d368263ffffffff16886143a7565b9050639e5836f660e01b8882604051602401613d53929190615dfa565b60408051601f198184030181529190526020810180516001600160e01b03166001600160e01b031990931692909217909152925050505b60d0805466ff0000000000001916600160301b17905560e08401516080850151613dbb9163ffffffff169083614502565b60d0805466ff000000000000191690559695505050505050565b6006840180546000918291600191908390613dfa9084906001600160401b03166150c4565b92506101000a8154816001600160401b0302191690836001600160401b03160217905550600060d960010160029054906101000a900460ff1615613e4c575060068601546001600160401b0316613f03565b60db544210801590613e60575060dc544211155b15613f035760db5460078801541015613ea05760068701805477ffffffffffffffffffffffffffffffffffffffffffffffff16600160c01b179055613eec565b60018760060160188282829054906101000a90046001600160401b0316613ec791906150c4565b92506101000a8154816001600160401b0302191690836001600160401b031602179055505b506006860154600160c01b90046001600160401b03165b4260078801556006870154600090600160401b90046001600160401b031615613f765760018860060160088282829054906101000a90046001600160401b0316613f4d9190615e3b565b92506101000a8154816001600160401b0302191690836001600160401b03160217905550613fb5565b60da5460649061ffff16613f8984612397565b613f9e9063ffffffff1664e8d4a5100061512d565b613fa8919061512d565b613fb2919061515a565b90505b6000613fe886613fc78961232861512d565b60d054613fe19190600160381b900463ffffffff1661518b565b843a61454e565b9050808960030154101561400f5760405163964d765f60e01b815260040160405180910390fd5b600088815260058a01602052604081205460048b018054919290916140359084906150eb565b9091555050600088815260058a016020526040812081905560038a0180548392906140619084906150eb565b925050819055508160ca600082825461407a919061518b565b909155509099919850909650505050505050565b60d35460cb80546000906140a390849061518b565b9091555050825160d2546140b7919061512d565b60cc60008282546140c8919061518b565b909155505060408051600180825281830190925260009160208083019080368337019050509050338160008151811061410357614103614fe7565b6001600160a01b03928316602091820292909201015260c9541663914eb34d8261412d85876150eb565b60d3546040516001600160e01b031960e086901b16815261415393929190600401615e5b565b600060405180830381600087803b15801561416d57600080fd5b505af1158015614181573d6000803e3d6000fd5b505060c95486516001600160a01b03909116925063914eb34d915086906141a8908661515a565b60d2546040516001600160e01b031960e086901b1681526141ce93929190600401615e5b565b600060405180830381600087803b1580156141e857600080fd5b505af11580156141fc573d6000803e3d6000fd5b5050505050505050565b6001600160a01b0381163b6142735760405162461bcd60e51b815260206004820152602d60248201527f455243313936373a206e657720696d706c656d656e746174696f6e206973206e60448201526c1bdd08184818dbdb9d1c9858dd609a1b6064820152608401610b35565b600080516020615eb483398151915280546001600160a01b0319166001600160a01b0392909216919091179055565b6142ab836145fd565b6000825111806142b85750805b15610a875761107a838361463d565b6000805b835181101561431057828482815181106142e7576142e7614fe7565b6020026020010151036142fe576001915050614316565b8061430881615013565b9150506142cb565b50600090505b92915050565b600054610100900460ff166143435760405162461bcd60e51b8152600401610b359061585d565b610d6733613046565b6000805b835181101561431057826001600160a01b031684828151811061437557614375614fe7565b60200260200101516001600160a01b031603614395576001915050614316565b8061439f81615013565b915050614350565b60606000836001600160401b038111156143c3576143c36147dd565b6040519080825280602002602001820160405280156143ec578160200160208202803683370190505b50905060005b8481101561442a578082828151811061440d5761440d614fe7565b60209081029190910101528061442281615013565b9150506143f2565b5080516000805b600061443c84615e80565b93508311156144f75761444f83876157e1565b91508560405160200161446491815260200190565b6040516020818303038152906040528051906020012060001c955083838151811061449157614491614fe7565b602002602001015190508382815181106144ad576144ad614fe7565b60200260200101518484815181106144c7576144c7614fe7565b602002602001018181525050808483815181106144e6576144e6614fe7565b602002602001018181525050614431565b509195945050505050565b60005a61138881101561451457600080fd5b61138881039050846040820482031161452c57600080fd5b50823b61453857600080fd5b60008083516020850160008789f1949350505050565b60008073__$12cfec358bb780f6fb6addaaa16de5538e$__63c6f7de0e6040518163ffffffff1660e01b8152600401602060405180830381865af415801561459a573d6000803e3d6000fd5b505050506040513d601f19601f820116820180604052508101906145be9190615114565b5a6145c9888861518b565b6145d391906150eb565b6145dd908561512d565b6145e7919061518b565b90506145f3848261518b565b9695505050505050565b61460681614206565b6040516001600160a01b038216907fbc7cd75a20ee27fd9adebab32041f755214dbc6bffa90cc0225b39da2e5c2d3b90600090a250565b60606001600160a01b0383163b6146a55760405162461bcd60e51b815260206004820152602660248201527f416464726573733a2064656c65676174652063616c6c20746f206e6f6e2d636f6044820152651b9d1c9858dd60d21b6064820152608401610b35565b600080846001600160a01b0316846040516146c09190615e97565b600060405180830381855af49150503d80600081146146fb576040519150601f19603f3d011682016040523d82523d6000602084013e614700565b606091505b50915091506147288282604051806060016040528060278152602001615ed460279139614731565b95945050505050565b60608315614740575081613202565b61320283838151156147555781518083602001fd5b8060405162461bcd60e51b8152600401610b359190615c65565b60405180604001604052806002906020820280368337509192915050565b60405180608001604052806004906020820280368337509192915050565b80356001600160401b0381168114611cf857600080fd5b6000602082840312156147d457600080fd5b613202826147ab565b634e487b7160e01b600052604160045260246000fd5b60405161012081016001600160401b0381118282101715614816576148166147dd565b60405290565b60405160e081016001600160401b0381118282101715614816576148166147dd565b604080519081016001600160401b0381118282101715614816576148166147dd565b60405161014081016001600160401b0381118282101715614816576148166147dd565b604051606081016001600160401b0381118282101715614816576148166147dd565b604051601f8201601f191681016001600160401b03811182821017156148cd576148cd6147dd565b604052919050565b60006001600160401b038211156148ee576148ee6147dd565b5060051b60200190565b600082601f83011261490957600080fd5b8135602061491e614919836148d5565b6148a5565b82815260059290921b8401810191818101908684111561493d57600080fd5b8286015b8481101561495f57614952816147ab565b8352918301918301614941565b509695505050505050565b6000806040838503121561497d57600080fd5b82356001600160401b038082111561499457600080fd5b6149a0868387016148f8565b935060208501359150808211156149b657600080fd5b506149c3858286016148f8565b9150509250929050565b6001600160a01b03811681146109de57600080fd5b8035611cf8816149cd565b60008060408385031215614a0057600080fd5b8235614a0b816149cd565b946020939093013593505050565b600060208284031215614a2b57600080fd5b5035919050565b600060208284031215614a4457600080fd5b8135613202816149cd565b600082601f830112614a6057600080fd5b81356001600160401b03811115614a7957614a796147dd565b614a8c601f8201601f19166020016148a5565b818152846020838601011115614aa157600080fd5b816020850160208301376000918101602001919091529392505050565b60008060408385031215614ad157600080fd5b8235614adc816149cd565b915060208301356001600160401b03811115614af757600080fd5b6149c385828601614a4f565b803561ffff81168114611cf857600080fd5b63ffffffff811681146109de57600080fd5b8035611cf881614b15565b600080600080600080600060e0888a031215614b4d57600080fd5b614b5688614b03565b96506020880135614b6681614b15565b95506040880135614b7681614b15565b94506060880135614b8681614b15565b9699959850939660808101359560a0820135955060c0909101359350915050565b60008060408385031215614bba57600080fd5b614bc3836147ab565b91506020830135614bd3816149cd565b809150509250929050565b60008060408385031215614bf157600080fd5b614bfa836147ab565b9150614c08602084016147ab565b90509250929050565b600080600080600060a08688031215614c2957600080fd5b8535614c3481614b15565b94506020860135614c4481614b15565b93506040860135614c5481614b15565b9250606086013591506080860135614c6b81614b15565b809150509295509295909350565b600060208284031215614c8b57600080fd5b81356001600160401b03811115614ca157600080fd5b820160e0818503121561320257600080fd5b600081518084526020808501945080840160005b83811015614cec5781516001600160a01b031687529582019590820190600101614cc7565b509495945050505050565b60006101206001600160a01b038c168352806020840152614d1a8184018c614cb3565b604084019a909a52505060608101969096526001600160401b03948516608087015292841660a086015290831660c085015290911660e08301526101009091015292915050565b60006101408284031215614d7457600080fd5b50919050565b60008060008060008060a08789031215614d9357600080fd5b8635614d9e81614b15565b9550602087013594506040870135935060608701356001600160401b0380821115614dc857600080fd5b614dd48a838b01614d61565b94506080890135915080821115614dea57600080fd5b818901915089601f830112614dfe57600080fd5b813581811115614e0d57600080fd5b8a60208260061b8501011115614e2257600080fd5b6020830194508093505050509295509295509295565b60008060408385031215614e4b57600080fd5b8235915060208301356001600160401b03811115614e6857600080fd5b6149c385828601614d61565b80151581146109de57600080fd5b8035611cf881614e74565b600080600060608486031215614ea257600080fd5b8335614ead81614e74565b9250614ebb60208501614b03565b9150614ec960408501614b03565b90509250925092565b803562ffffff81168114611cf857600080fd5b60008060008060008587036101a0811215614eff57600080fd5b61012080821215614f0f57600080fd5b614f176147f3565b9150614f2288614b27565b8252614f3060208901614b27565b6020830152614f4160408901614b27565b6040830152614f5260608901614b27565b6060830152614f6360808901614b27565b6080830152614f7460a08901614ed2565b60a0830152614f8560c08901614ed2565b60c0830152614f9660e08901614ed2565b60e0830152610100614fa9818a01614ed2565b8184015250819650614fbc818901614b03565b95505050614fcd6101408701614e82565b949793965093946101608101359450610180013592915050565b634e487b7160e01b600052603260045260246000fd5b634e487b7160e01b600052601160045260246000fd5b60006001820161502557615025614ffd565b5060010190565b6020808252602c908201527f46756e6374696f6e206d7573742062652063616c6c6564207468726f7567682060408201526b19195b1959d85d1958d85b1b60a21b606082015260800190565b6020808252602c908201527f46756e6374696f6e206d7573742062652063616c6c6564207468726f7567682060408201526b6163746976652070726f787960a01b606082015260800190565b6001600160401b038181168382160190808211156150e4576150e4614ffd565b5092915050565b8181038181111561431657614316614ffd565b634e487b7160e01b600052603160045260246000fd5b60006020828403121561512657600080fd5b5051919050565b808202811582820484141761431657614316614ffd565b634e487b7160e01b600052601260045260246000fd5b60008261516957615169615144565b500490565b63ffffffff8181168382160190808211156150e4576150e4614ffd565b8082018082111561431657614316614ffd565b60006001600160401b038083168181036151ba576151ba614ffd565b6001019392505050565b803560038110611cf857600080fd5b600060e082360312156151e557600080fd5b6151ed61481c565b6151f6836151c4565b815260208301356001600160401b0381111561521157600080fd5b61521d36828601614a4f565b60208301525061522f604084016147ab565b60408201526060830135606082015261524a60808401614b03565b608082015261525b60a08401614b27565b60a082015260c092830135928101929092525090565b6000806040838503121561528457600080fd5b505080516020909101519092909150565b634e487b7160e01b600052602160045260246000fd5b600381106152c957634e487b7160e01b600052602160045260246000fd5b9052565b60005b838110156152e85781810151838201526020016152d0565b50506000910152565b600081518084526153098160208601602086016152cd565b601f01601f19169290920160200192915050565b60006101608d83526001600160401b038d16602084015263ffffffff808d16604085015261534e606085018d6152ab565b8160808501526153608285018c6152f1565b6001600160a01b039a909a1660a085015260c0840198909852505061ffff9490941660e085015291909316610100830152610120820192909252610140015295945050505050565b60006101006153b7838c6152ab565b8060208401526153c98184018b6152f1565b6001600160a01b039990991660408401525050606081019590955261ffff93909316608085015263ffffffff9190911660a084015260c083015260e09091015292915050565b60006020828403121561542157600080fd5b813561320281614b15565b60006020828403121561543e57600080fd5b613202826151c4565b6000808335601e1984360301811261545e57600080fd5b8301803591506001600160401b0382111561547857600080fd5b60200191503681900382131561548d57600080fd5b9250929050565b6000602082840312156154a657600080fd5b61320282614b03565b60006101608e83526001600160401b038e16602084015263ffffffff8d1660408401526154df606084018d6152ab565b806080840152898184015250610180898b8285013760008a84018201526001600160a01b03891660a0840152601f19601f8b011683010190508660c083015261552e60e083018761ffff169052565b63ffffffff851661010083015261012082019390935261014001529a9950505050505050505050565b60006040828403121561556957600080fd5b61557161483e565b82358152602083013560208201528091505092915050565b6000610140823603121561559c57600080fd5b6155a4614860565b6155ad836147ab565b81526155bb60208401614b27565b60208201526155cc604084016151c4565b604082015260608301356001600160401b038111156155ea57600080fd5b6155f636828601614a4f565b606083015250615608608084016149e2565b608082015260a083013560a082015261562360c08401614b03565b60c082015261563460e08401614b27565b60e0820152610100838101359082015261012092830135928101929092525090565b60a08152600061566960a0830188614cb3565b905085602083015284604083015283606083015282151560808301529695505050505050565b855163ffffffff9081168252602080880151821690830152604080880151821690830152606080880151821690830152608080880151918216908301526101a08201905060a08701516156e960a084018262ffffff169052565b5060c087015161570060c084018262ffffff169052565b5060e087015161571760e084018262ffffff169052565b506101009687015162ffffff169682019690965261ffff949094166101208501529115156101408401526101608301526101809091015290565b6000602080838503121561576457600080fd5b82516001600160401b0381111561577a57600080fd5b8301601f8101851361578b57600080fd5b8051615799614919826148d5565b81815260059190911b820183019083810190878311156157b857600080fd5b928401925b828410156157d6578351825292840192908401906157bd565b979650505050505050565b6000826157f0576157f0615144565b500690565b63ffffffff8281168282160390808211156150e4576150e4614ffd565b63ffffffff81811683821602808216919082811461583257615832614ffd565b505092915050565b600063ffffffff8084168061585157615851615144565b92169190910492915050565b6020808252602b908201527f496e697469616c697a61626c653a20636f6e7472616374206973206e6f74206960408201526a6e697469616c697a696e6760a81b606082015260800190565b8051611cf881614e74565b6000602082840312156158c557600080fd5b815161320281614e74565b600082601f8301126158e157600080fd5b604051608081018181106001600160401b0382111715615903576159036147dd565b60405280608084018581111561591857600080fd5b845b818110156144f757805183526020928301920161591a565b600082601f83011261594357600080fd5b81516020615953614919836148d5565b82815260a0928302850182019282820191908785111561597257600080fd5b8387015b858110156159c05781818a03121561598e5760008081fd5b61599661483e565b81516159a1816149cd565b81526159af8a8388016158d0565b818701528452928401928101615976565b5090979650505050505050565b600082601f8301126159de57600080fd5b815160206159ee614919836148d5565b82815260059290921b84018101918181019086841115615a0d57600080fd5b8286015b8481101561495f578051615a24816149cd565b8352918301918301615a11565b600082601f830112615a4257600080fd5b81516020615a52614919836148d5565b82815260059290921b84018101918181019086841115615a7157600080fd5b8286015b8481101561495f5780516001600160401b0380821115615a9457600080fd5b908801906040601f19838c038101821315615aae57600080fd5b615ab661483e565b8885015184811115615ac757600080fd5b615ad58e8b838901016159cd565b8252508285015184811115615ae957600080fd5b949094019360c0858e0383011215615b015760008081fd5b615b09614883565b9150888501518252615b1d8d8487016158d0565b8983015260c085015184811115615b345760008081fd5b615b428e8b838901016159cd565b93830193909352808901919091528652505050918301918301615a75565b600060208284031215615b7257600080fd5b81516001600160401b0380821115615b8957600080fd5b908301906101808286031215615b9e57600080fd5b615ba66147f3565b82518152602083015160208201526040830151604082015260608301516060820152608083015182811115615bda57600080fd5b615be687828601615932565b60808301525060a083015182811115615bfe57600080fd5b615c0a878286016159cd565b60a08301525060c083015182811115615c2257600080fd5b615c2e87828601615a31565b60c083015250615c4060e084016158a8565b60e08201526101009150615c56868385016158d0565b91810191909152949350505050565b60208152600061320260208301846152f1565b600060408284031215615c8a57600080fd5b82601f830112615c9957600080fd5b615ca161483e565b806040840185811115615cb357600080fd5b845b81811015615ccd578051845260209384019301615cb5565b509095945050505050565b8060005b600281101561107a578151845260209384019390910190600101615cdc565b8060005b600481101561107a578151845260209384019390910190600101615cff565b6101008101615d2d8286615cd8565b615d3a6040830185615cfb565b61326060c0830184615cd8565b608080825284518282018190526000919060209060a0850190828901855b82811015615d8b57615d78848351615cd8565b6040939093019290840190600101615d65565b5050508481038286015286518082528783019183019060005b81811015615dc757615db7838551615cfb565b9284019291850191600101615da4565b5050809450505050506132606040830184615cd8565b600060208284031215615def57600080fd5b815161320281614b15565b6000604082018483526020604081850152818551808452606086019150828701935060005b818110156159c057845183529383019391830191600101615e1f565b6001600160401b038281168282160390808211156150e4576150e4614ffd565b606081526000615e6e6060830186614cb3565b60208301949094525060400152919050565b600081615e8f57615e8f614ffd565b506000190190565b60008251615ea98184602087016152cd565b919091019291505056fe360894a13ba1a3210667c828492db98dca3e2076cc3735a920a3ca505d382bbc416464726573733a206c6f772d6c6576656c2064656c65676174652063616c6c206661696c6564a264697066735822122017e2debd03af54b263f22261c522d35c5df4cc75eaa046d59bf4589096082a9364736f6c63430008120033",
    "linkReferences": {
      "src/libraries/BLS.sol": {
        "BLS": [
          {
            "start": 13703,
            "length": 20
          },
          {
            "start": 14069,
            "length": 20
          },
          {
            "start": 14177,
            "length": 20
          },
          {
            "start": 14203,
            "length": 20
          },
          {
            "start": 14710,
            "length": 20
          },
          {
            "start": 14890,
            "length": 20
          },
          {
            "start": 15298,
            "length": 20
          }
        ]
      },
      "src/libraries/ChainHelper.sol": {
        "ChainHelper": [
          {
            "start": 6102,
            "length": 20
          },
          {
            "start": 10446,
            "length": 20
          },
          {
            "start": 18035,
            "length": 20
          }
        ]
      }
    }
  },
  "methodIdentifiers": {
    "DEFAULT_MINIMUM_THRESHOLD()": "aa81d59a",
    "MAX_CONSUMERS()": "64d51a2a",
    "MAX_REQUEST_CONFIRMATIONS()": "15c48b84",
    "RANDOMNESS_REWARD_GAS()": "8166d459",
    "VERIFICATION_GAS_OVER_MINIMUM_THRESHOLD()": "877d38bb",
    "addConsumer(uint64,address)": "7341c10c",
    "cancelOvertimeRequest(bytes32,(uint64,uint32,uint8,bytes,address,uint256,uint16,uint32,uint256,uint256))": "d89f241f",
    "cancelSubscription(uint64,address)": "d7ae1d30",
    "createSubscription()": "a21a23e4",
    "estimatePaymentAmountInETH(uint32,uint32,uint32,uint256,uint32)": "a141bbd8",
    "fulfillRandomness(uint32,bytes32,uint256,(uint64,uint32,uint8,bytes,address,uint256,uint16,uint32,uint256,uint256),(uint256,uint256)[])": "caba5284",
    "fundSubscription(uint64)": "dfaba794",
    "getAdapterConfig()": "ef6f4273",
    "getController()": "3018205f",
    "getCumulativeData()": "c725a833",
    "getCurrentSubId()": "06bfa637",
    "getFeeTier(uint64)": "d2f9f9a7",
    "getFlatFeeConfig()": "dcdb7b88",
    "getLastAssignedGroupIndex()": "91a6fe77",
    "getLastRandomness()": "a4c343f2",
    "getLastSubscription(address)": "76a911bc",
    "getPendingRequestCommitment(bytes32)": "1565034c",
    "getRandomnessCount()": "63602174",
    "getReferralConfig()": "1e58a872",
    "getSubscription(uint64)": "a47c7696",
    "initialize(address)": "c4d66de8",
    "nodeWithdrawETH(address,uint256)": "0ad98f6a",
    "owner()": "8da5cb5b",
    "ownerCancelSubscription(uint64)": "02bcc5b6",
    "proxiableUUID()": "52d1902d",
    "removeConsumer(uint64,address)": "9f87fad7",
    "renounceOwnership()": "715018a6",
    "requestRandomness((uint8,bytes,uint64,uint256,uint16,uint32,uint256))": "a39402d7",
    "setAdapterConfig(uint16,uint32,uint32,uint32,uint256,uint256,uint256)": "71b7ca05",
    "setFlatFeeConfig((uint32,uint32,uint32,uint32,uint32,uint24,uint24,uint24,uint24),uint16,bool,uint256,uint256)": "f4cc97fc",
    "setFreeRequestCount(uint64[],uint64[])": "056e5ede",
    "setReferral(uint64,uint64)": "931d9204",
    "setReferralConfig(bool,uint16,uint16)": "f362ca61",
    "transferOwnership(address)": "f2fde38b",
    "upgradeTo(address)": "3659cfe6",
    "upgradeToAndCall(address,bytes)": "4f1ef286"
  },
  "id": 71
}