{
  "abi": [
    {
      "inputs": [],
      "stateMutability": "nonpayable",
      "type": "constructor"
    },
    {
      "inputs": [],
      "name": "AtLeastOneRequestIsRequired",
      "type": "error"
    },
    {
      "inputs": [],
      "name": "EmptyPartialSignatures",
      "type": "error"
    },
    {
      "inputs": [
        {
          "internalType": "uint32",
          "name": "have",
          "type": "uint32"
        },
        {
          "internalType": "uint32",
          "name": "want",
          "type": "uint32"
        }
      ],
      "name": "GasLimitTooBig",
      "type": "error"
    },
    {
      "inputs": [
        {
          "internalType": "uint256",
          "name": "groupIndex",
          "type": "uint256"
        }
      ],
      "name": "GroupNotExist",
      "type": "error"
    },
    {
      "inputs": [],
      "name": "IdenticalSubscription",
      "type": "error"
    },
    {
      "inputs": [],
      "name": "IncorrectCommitment",
      "type": "error"
    },
    {
      "inputs": [],
      "name": "InsufficientBalanceWhenFulfill",
      "type": "error"
    },
    {
      "inputs": [],
      "name": "InsufficientBalanceWhenRequest",
      "type": "error"
    },
    {
      "inputs": [
        {
          "internalType": "uint64",
          "name": "subId",
          "type": "uint64"
        },
        {
          "internalType": "address",
          "name": "consumer",
          "type": "address"
        }
      ],
      "name": "InvalidConsumer",
      "type": "error"
    },
    {
      "inputs": [],
      "name": "InvalidPartialSignatureFormat",
      "type": "error"
    },
    {
      "inputs": [],
      "name": "InvalidPartialSignatures",
      "type": "error"
    },
    {
      "inputs": [],
      "name": "InvalidRequestByEOA",
      "type": "error"
    },
    {
      "inputs": [
        {
          "internalType": "uint16",
          "name": "have",
          "type": "uint16"
        },
        {
          "internalType": "uint16",
          "name": "min",
          "type": "uint16"
        },
        {
          "internalType": "uint16",
          "name": "max",
          "type": "uint16"
        }
      ],
      "name": "InvalidRequestConfirmations",
      "type": "error"
    },
    {
      "inputs": [],
      "name": "InvalidSignature",
      "type": "error"
    },
    {
      "inputs": [],
      "name": "InvalidSignatureFormat",
      "type": "error"
    },
    {
      "inputs": [],
      "name": "InvalidSubscription",
      "type": "error"
    },
    {
      "inputs": [],
      "name": "InvalidZeroAddress",
      "type": "error"
    },
    {
      "inputs": [
        {
          "internalType": "address",
          "name": "owner",
          "type": "address"
        }
      ],
      "name": "MustBeSubOwner",
      "type": "error"
    },
    {
      "inputs": [],
      "name": "NoAvailableGroups",
      "type": "error"
    },
    {
      "inputs": [],
      "name": "NoCorrespondingRequest",
      "type": "error"
    },
    {
      "inputs": [],
      "name": "NotFromCommitter",
      "type": "error"
    },
    {
      "inputs": [],
      "name": "PaymentTooLarge",
      "type": "error"
    },
    {
      "inputs": [],
      "name": "PendingRequestExists",
      "type": "error"
    },
    {
      "inputs": [],
      "name": "Reentrant",
      "type": "error"
    },
    {
      "inputs": [],
      "name": "ReferralPromotionDisabled",
      "type": "error"
    },
    {
      "inputs": [],
      "name": "SenderNotController",
      "type": "error"
    },
    {
      "inputs": [],
      "name": "SubscriptionAlreadyHasReferral",
      "type": "error"
    },
    {
      "inputs": [],
      "name": "TaskStillExclusive",
      "type": "error"
    },
    {
      "inputs": [],
      "name": "TaskStillWithinRequestConfirmations",
      "type": "error"
    },
    {
      "inputs": [],
      "name": "TooManyConsumers",
      "type": "error"
    },
    {
      "anonymous": false,
      "inputs": [
        {
          "indexed": false,
          "internalType": "uint16",
          "name": "minimumRequestConfirmations",
          "type": "uint16"
        },
        {
          "indexed": false,
          "internalType": "uint32",
          "name": "maxGasLimit",
          "type": "uint32"
        },
        {
          "indexed": false,
          "internalType": "uint32",
          "name": "gasAfterPaymentCalculation",
          "type": "uint32"
        },
        {
          "indexed": false,
          "internalType": "uint32",
          "name": "gasExceptCallback",
          "type": "uint32"
        },
        {
          "indexed": false,
          "internalType": "uint256",
          "name": "signatureTaskExclusiveWindow",
          "type": "uint256"
        },
        {
          "indexed": false,
          "internalType": "uint256",
          "name": "rewardPerSignature",
          "type": "uint256"
        },
        {
          "indexed": false,
          "internalType": "uint256",
          "name": "committerRewardPerSignature",
          "type": "uint256"
        }
      ],
      "name": "AdapterConfigSet",
      "type": "event"
    },
    {
      "anonymous": false,
      "inputs": [
        {
          "indexed": false,
          "internalType": "address",
          "name": "previousAdmin",
          "type": "address"
        },
        {
          "indexed": false,
          "internalType": "address",
          "name": "newAdmin",
          "type": "address"
        }
      ],
      "name": "AdminChanged",
      "type": "event"
    },
    {
      "anonymous": false,
      "inputs": [
        {
          "indexed": true,
          "internalType": "address",
          "name": "beacon",
          "type": "address"
        }
      ],
      "name": "BeaconUpgraded",
      "type": "event"
    },
    {
      "anonymous": false,
      "inputs": [
        {
          "components": [
            {
              "internalType": "uint32",
              "name": "fulfillmentFlatFeeEthPPMTier1",
              "type": "uint32"
            },
            {
              "internalType": "uint32",
              "name": "fulfillmentFlatFeeEthPPMTier2",
              "type": "uint32"
            },
            {
              "internalType": "uint32",
              "name": "fulfillmentFlatFeeEthPPMTier3",
              "type": "uint32"
            },
            {
              "internalType": "uint32",
              "name": "fulfillmentFlatFeeEthPPMTier4",
              "type": "uint32"
            },
            {
              "internalType": "uint32",
              "name": "fulfillmentFlatFeeEthPPMTier5",
              "type": "uint32"
            },
            {
              "internalType": "uint24",
              "name": "reqsForTier2",
              "type": "uint24"
            },
            {
              "internalType": "uint24",
              "name": "reqsForTier3",
              "type": "uint24"
            },
            {
              "internalType": "uint24",
              "name": "reqsForTier4",
              "type": "uint24"
            },
            {
              "internalType": "uint24",
              "name": "reqsForTier5",
              "type": "uint24"
            }
          ],
          "indexed": false,
          "internalType": "struct IAdapterOwner.FeeConfig",
          "name": "flatFeeConfig",
          "type": "tuple"
        },
        {
          "indexed": false,
          "internalType": "uint16",
          "name": "flatFeePromotionGlobalPercentage",
          "type": "uint16"
        },
        {
          "indexed": false,
          "internalType": "bool",
          "name": "isFlatFeePromotionEnabledPermanently",
          "type": "bool"
        },
        {
          "indexed": false,
          "internalType": "uint256",
          "name": "flatFeePromotionStartTimestamp",
          "type": "uint256"
        },
        {
          "indexed": false,
          "internalType": "uint256",
          "name": "flatFeePromotionEndTimestamp",
          "type": "uint256"
        }
      ],
      "name": "FlatFeeConfigSet",
      "type": "event"
    },
    {
      "anonymous": false,
      "inputs": [
        {
          "indexed": false,
          "internalType": "uint8",
          "name": "version",
          "type": "uint8"
        }
      ],
      "name": "Initialized",
      "type": "event"
    },
    {
      "anonymous": false,
      "inputs": [
        {
          "indexed": true,
          "internalType": "address",
          "name": "previousOwner",
          "type": "address"
        },
        {
          "indexed": true,
          "internalType": "address",
          "name": "newOwner",
          "type": "address"
        }
      ],
      "name": "OwnershipTransferred",
      "type": "event"
    },
    {
      "anonymous": false,
      "inputs": [
        {
          "indexed": true,
          "internalType": "bytes32",
          "name": "requestId",
          "type": "bytes32"
        },
        {
          "indexed": true,
          "internalType": "uint64",
          "name": "subId",
          "type": "uint64"
        },
        {
          "indexed": true,
          "internalType": "uint32",
          "name": "groupIndex",
          "type": "uint32"
        },
        {
          "indexed": false,
          "internalType": "enum IRequestTypeBase.RequestType",
          "name": "requestType",
          "type": "uint8"
        },
        {
          "indexed": false,
          "internalType": "bytes",
          "name": "params",
          "type": "bytes"
        },
        {
          "indexed": false,
          "internalType": "address",
          "name": "sender",
          "type": "address"
        },
        {
          "indexed": false,
          "internalType": "uint256",
          "name": "seed",
          "type": "uint256"
        },
        {
          "indexed": false,
          "internalType": "uint16",
          "name": "requestConfirmations",
          "type": "uint16"
        },
        {
          "indexed": false,
          "internalType": "uint32",
          "name": "callbackGasLimit",
          "type": "uint32"
        },
        {
          "indexed": false,
          "internalType": "uint256",
          "name": "callbackMaxGasPrice",
          "type": "uint256"
        },
        {
          "indexed": false,
          "internalType": "uint256",
          "name": "estimatedPayment",
          "type": "uint256"
        }
      ],
      "name": "RandomnessRequest",
      "type": "event"
    },
    {
      "anonymous": false,
      "inputs": [
        {
          "indexed": true,
          "internalType": "bytes32",
          "name": "requestId",
          "type": "bytes32"
        },
        {
          "indexed": true,
          "internalType": "uint32",
          "name": "groupIndex",
          "type": "uint32"
        },
        {
          "indexed": true,
          "internalType": "address",
          "name": "committer",
          "type": "address"
        },
        {
          "indexed": false,
          "internalType": "address[]",
          "name": "participantMembers",
          "type": "address[]"
        },
        {
          "indexed": false,
          "internalType": "uint256",
          "name": "randommness",
          "type": "uint256"
        },
        {
          "indexed": false,
          "internalType": "uint256",
          "name": "payment",
          "type": "uint256"
        },
        {
          "indexed": false,
          "internalType": "uint256",
          "name": "flatFee",
          "type": "uint256"
        },
        {
          "indexed": false,
          "internalType": "bool",
          "name": "success",
          "type": "bool"
        }
      ],
      "name": "RandomnessRequestResult",
      "type": "event"
    },
    {
      "anonymous": false,
      "inputs": [
        {
          "indexed": false,
          "internalType": "bool",
          "name": "isReferralEnabled",
          "type": "bool"
        },
        {
          "indexed": false,
          "internalType": "uint16",
          "name": "freeRequestCountForReferrer",
          "type": "uint16"
        },
        {
          "indexed": false,
          "internalType": "uint16",
          "name": "freeRequestCountForReferee",
          "type": "uint16"
        }
      ],
      "name": "ReferralConfigSet",
      "type": "event"
    },
    {
      "anonymous": false,
      "inputs": [
        {
          "indexed": true,
          "internalType": "uint64",
          "name": "subId",
          "type": "uint64"
        },
        {
          "indexed": false,
          "internalType": "address",
          "name": "to",
          "type": "address"
        },
        {
          "indexed": false,
          "internalType": "uint256",
          "name": "amount",
          "type": "uint256"
        }
      ],
      "name": "SubscriptionCanceled",
      "type": "event"
    },
    {
      "anonymous": false,
      "inputs": [
        {
          "indexed": true,
          "internalType": "uint64",
          "name": "subId",
          "type": "uint64"
        },
        {
          "indexed": false,
          "internalType": "address",
          "name": "consumer",
          "type": "address"
        }
      ],
      "name": "SubscriptionConsumerAdded",
      "type": "event"
    },
    {
      "anonymous": false,
      "inputs": [
        {
          "indexed": true,
          "internalType": "uint64",
          "name": "subId",
          "type": "uint64"
        },
        {
          "indexed": false,
          "internalType": "address",
          "name": "consumer",
          "type": "address"
        }
      ],
      "name": "SubscriptionConsumerRemoved",
      "type": "event"
    },
    {
      "anonymous": false,
      "inputs": [
        {
          "indexed": true,
          "internalType": "uint64",
          "name": "subId",
          "type": "uint64"
        },
        {
          "indexed": true,
          "internalType": "address",
          "name": "owner",
          "type": "address"
        }
      ],
      "name": "SubscriptionCreated",
      "type": "event"
    },
    {
      "anonymous": false,
      "inputs": [
        {
          "indexed": true,
          "internalType": "uint64",
          "name": "subId",
          "type": "uint64"
        },
        {
          "indexed": false,
          "internalType": "uint256",
          "name": "oldBalance",
          "type": "uint256"
        },
        {
          "indexed": false,
          "internalType": "uint256",
          "name": "newBalance",
          "type": "uint256"
        }
      ],
      "name": "SubscriptionFunded",
      "type": "event"
    },
    {
      "anonymous": false,
      "inputs": [
        {
          "indexed": true,
          "internalType": "uint64",
          "name": "subId",
          "type": "uint64"
        },
        {
          "indexed": true,
          "internalType": "uint64",
          "name": "referralSubId",
          "type": "uint64"
        }
      ],
      "name": "SubscriptionReferralSet",
      "type": "event"
    },
    {
      "anonymous": false,
      "inputs": [
        {
          "indexed": true,
          "internalType": "address",
          "name": "implementation",
          "type": "address"
        }
      ],
      "name": "Upgraded",
      "type": "event"
    },
    {
      "inputs": [],
      "name": "DEFAULT_MINIMUM_THRESHOLD",
      "outputs": [
        {
          "internalType": "uint32",
          "name": "",
          "type": "uint32"
        }
      ],
      "stateMutability": "view",
      "type": "function"
    },
    {
      "inputs": [],
      "name": "MAX_CONSUMERS",
      "outputs": [
        {
          "internalType": "uint16",
          "name": "",
          "type": "uint16"
        }
      ],
      "stateMutability": "view",
      "type": "function"
    },
    {
      "inputs": [],
      "name": "MAX_REQUEST_CONFIRMATIONS",
      "outputs": [
        {
          "internalType": "uint16",
          "name": "",
          "type": "uint16"
        }
      ],
      "stateMutability": "view",
      "type": "function"
    },
    {
      "inputs": [],
      "name": "RANDOMNESS_REWARD_GAS",
      "outputs": [
        {
          "internalType": "uint32",
          "name": "",
          "type": "uint32"
        }
      ],
      "stateMutability": "view",
      "type": "function"
    },
    {
      "inputs": [],
      "name": "VERIFICATION_GAS_OVER_MINIMUM_THRESHOLD",
      "outputs": [
        {
          "internalType": "uint32",
          "name": "",
          "type": "uint32"
        }
      ],
      "stateMutability": "view",
      "type": "function"
    },
    {
      "inputs": [
        {
          "internalType": "uint64",
          "name": "subId",
          "type": "uint64"
        },
        {
          "internalType": "address",
          "name": "consumer",
          "type": "address"
        }
      ],
      "name": "addConsumer",
      "outputs": [],
      "stateMutability": "nonpayable",
      "type": "function"
    },
    {
      "inputs": [
        {
          "internalType": "uint64",
          "name": "subId",
          "type": "uint64"
        },
        {
          "internalType": "address",
          "name": "to",
          "type": "address"
        }
      ],
      "name": "cancelSubscription",
      "outputs": [],
      "stateMutability": "nonpayable",
      "type": "function"
    },
    {
      "inputs": [],
      "name": "createSubscription",
      "outputs": [
        {
          "internalType": "uint64",
          "name": "",
          "type": "uint64"
        }
      ],
      "stateMutability": "nonpayable",
      "type": "function"
    },
    {
      "inputs": [
        {
          "internalType": "uint32",
          "name": "callbackGasLimit",
          "type": "uint32"
        },
        {
          "internalType": "uint32",
          "name": "gasExceptCallback",
          "type": "uint32"
        },
        {
          "internalType": "uint32",
          "name": "fulfillmentFlatFeeEthPPM",
          "type": "uint32"
        },
        {
          "internalType": "uint256",
          "name": "weiPerUnitGas",
          "type": "uint256"
        }
      ],
      "name": "estimatePaymentAmountInETH",
      "outputs": [
        {
          "internalType": "uint256",
          "name": "",
          "type": "uint256"
        }
      ],
      "stateMutability": "pure",
      "type": "function"
    },
    {
      "inputs": [
        {
          "internalType": "uint32",
          "name": "groupIndex",
          "type": "uint32"
        },
        {
          "internalType": "bytes32",
          "name": "requestId",
          "type": "bytes32"
        },
        {
          "internalType": "uint256",
          "name": "signature",
          "type": "uint256"
        },
        {
          "components": [
            {
              "internalType": "uint64",
              "name": "subId",
              "type": "uint64"
            },
            {
              "internalType": "uint32",
              "name": "groupIndex",
              "type": "uint32"
            },
            {
              "internalType": "enum IRequestTypeBase.RequestType",
              "name": "requestType",
              "type": "uint8"
            },
            {
              "internalType": "bytes",
              "name": "params",
              "type": "bytes"
            },
            {
              "internalType": "address",
              "name": "callbackContract",
              "type": "address"
            },
            {
              "internalType": "uint256",
              "name": "seed",
              "type": "uint256"
            },
            {
              "internalType": "uint16",
              "name": "requestConfirmations",
              "type": "uint16"
            },
            {
              "internalType": "uint32",
              "name": "callbackGasLimit",
              "type": "uint32"
            },
            {
              "internalType": "uint256",
              "name": "callbackMaxGasPrice",
              "type": "uint256"
            },
            {
              "internalType": "uint256",
              "name": "blockNum",
              "type": "uint256"
            }
          ],
          "internalType": "struct IAdapter.RequestDetail",
          "name": "requestDetail",
          "type": "tuple"
        },
        {
          "components": [
            {
              "internalType": "uint256",
              "name": "index",
              "type": "uint256"
            },
            {
              "internalType": "uint256",
              "name": "partialSignature",
              "type": "uint256"
            }
          ],
          "internalType": "struct IAdapter.PartialSignature[]",
          "name": "partialSignatures",
          "type": "tuple[]"
        }
      ],
      "name": "fulfillRandomness",
      "outputs": [],
      "stateMutability": "nonpayable",
      "type": "function"
    },
    {
      "inputs": [
        {
          "internalType": "uint64",
          "name": "subId",
          "type": "uint64"
        }
      ],
      "name": "fundSubscription",
      "outputs": [],
      "stateMutability": "payable",
      "type": "function"
    },
    {
      "inputs": [],
      "name": "getAdapterConfig",
      "outputs": [
        {
          "internalType": "uint16",
          "name": "minimumRequestConfirmations",
          "type": "uint16"
        },
        {
          "internalType": "uint32",
          "name": "maxGasLimit",
          "type": "uint32"
        },
        {
          "internalType": "uint32",
          "name": "gasAfterPaymentCalculation",
          "type": "uint32"
        },
        {
          "internalType": "uint32",
          "name": "gasExceptCallback",
          "type": "uint32"
        },
        {
          "internalType": "uint256",
          "name": "signatureTaskExclusiveWindow",
          "type": "uint256"
        },
        {
          "internalType": "uint256",
          "name": "rewardPerSignature",
          "type": "uint256"
        },
        {
          "internalType": "uint256",
          "name": "committerRewardPerSignature",
          "type": "uint256"
        }
      ],
      "stateMutability": "view",
      "type": "function"
    },
    {
      "inputs": [],
      "name": "getController",
      "outputs": [
        {
          "internalType": "address",
          "name": "",
          "type": "address"
        }
      ],
      "stateMutability": "view",
      "type": "function"
    },
    {
      "inputs": [],
      "name": "getCumulativeData",
      "outputs": [
        {
          "internalType": "uint256",
          "name": "",
          "type": "uint256"
        },
        {
          "internalType": "uint256",
          "name": "",
          "type": "uint256"
        },
        {
          "internalType": "uint256",
          "name": "",
          "type": "uint256"
        }
      ],
      "stateMutability": "view",
      "type": "function"
    },
    {
      "inputs": [],
      "name": "getCurrentSubId",
      "outputs": [
        {
          "internalType": "uint64",
          "name": "",
          "type": "uint64"
        }
      ],
      "stateMutability": "view",
      "type": "function"
    },
    {
      "inputs": [
        {
          "internalType": "uint64",
          "name": "reqCount",
          "type": "uint64"
        }
      ],
      "name": "getFeeTier",
      "outputs": [
        {
          "internalType": "uint32",
          "name": "",
          "type": "uint32"
        }
      ],
      "stateMutability": "view",
      "type": "function"
    },
    {
      "inputs": [],
      "name": "getFlatFeeConfig",
      "outputs": [
        {
          "internalType": "uint32",
          "name": "fulfillmentFlatFeeLinkPPMTier1",
          "type": "uint32"
        },
        {
          "internalType": "uint32",
          "name": "fulfillmentFlatFeeLinkPPMTier2",
          "type": "uint32"
        },
        {
          "internalType": "uint32",
          "name": "fulfillmentFlatFeeLinkPPMTier3",
          "type": "uint32"
        },
        {
          "internalType": "uint32",
          "name": "fulfillmentFlatFeeLinkPPMTier4",
          "type": "uint32"
        },
        {
          "internalType": "uint32",
          "name": "fulfillmentFlatFeeLinkPPMTier5",
          "type": "uint32"
        },
        {
          "internalType": "uint24",
          "name": "reqsForTier2",
          "type": "uint24"
        },
        {
          "internalType": "uint24",
          "name": "reqsForTier3",
          "type": "uint24"
        },
        {
          "internalType": "uint24",
          "name": "reqsForTier4",
          "type": "uint24"
        },
        {
          "internalType": "uint24",
          "name": "reqsForTier5",
          "type": "uint24"
        },
        {
          "internalType": "uint16",
          "name": "flatFeePromotionGlobalPercentage",
          "type": "uint16"
        },
        {
          "internalType": "bool",
          "name": "isFlatFeePromotionEnabledPermanently",
          "type": "bool"
        },
        {
          "internalType": "uint256",
          "name": "flatFeePromotionStartTimestamp",
          "type": "uint256"
        },
        {
          "internalType": "uint256",
          "name": "flatFeePromotionEndTimestamp",
          "type": "uint256"
        }
      ],
      "stateMutability": "view",
      "type": "function"
    },
    {
      "inputs": [],
      "name": "getLastAssignedGroupIndex",
      "outputs": [
        {
          "internalType": "uint256",
          "name": "",
          "type": "uint256"
        }
      ],
      "stateMutability": "view",
      "type": "function"
    },
    {
      "inputs": [],
      "name": "getLastRandomness",
      "outputs": [
        {
          "internalType": "uint256",
          "name": "",
          "type": "uint256"
        }
      ],
      "stateMutability": "view",
      "type": "function"
    },
    {
      "inputs": [
        {
          "internalType": "address",
          "name": "consumer",
          "type": "address"
        }
      ],
      "name": "getLastSubscription",
      "outputs": [
        {
          "internalType": "uint64",
          "name": "",
          "type": "uint64"
        }
      ],
      "stateMutability": "view",
      "type": "function"
    },
    {
      "inputs": [
        {
          "internalType": "bytes32",
          "name": "requestId",
          "type": "bytes32"
        }
      ],
      "name": "getPendingRequestCommitment",
      "outputs": [
        {
          "internalType": "bytes32",
          "name": "",
          "type": "bytes32"
        }
      ],
      "stateMutability": "view",
      "type": "function"
    },
    {
      "inputs": [],
      "name": "getRandomnessCount",
      "outputs": [
        {
          "internalType": "uint256",
          "name": "",
          "type": "uint256"
        }
      ],
      "stateMutability": "view",
      "type": "function"
    },
    {
      "inputs": [],
      "name": "getReferralConfig",
      "outputs": [
        {
          "internalType": "bool",
          "name": "isReferralEnabled",
          "type": "bool"
        },
        {
          "internalType": "uint16",
          "name": "freeRequestCountForReferrer",
          "type": "uint16"
        },
        {
          "internalType": "uint16",
          "name": "freeRequestCountForReferee",
          "type": "uint16"
        }
      ],
      "stateMutability": "view",
      "type": "function"
    },
    {
      "inputs": [
        {
          "internalType": "uint64",
          "name": "subId",
          "type": "uint64"
        }
      ],
      "name": "getSubscription",
      "outputs": [
        {
          "internalType": "address",
          "name": "owner",
          "type": "address"
        },
        {
          "internalType": "address[]",
          "name": "consumers",
          "type": "address[]"
        },
        {
          "internalType": "uint256",
          "name": "balance",
          "type": "uint256"
        },
        {
          "internalType": "uint256",
          "name": "inflightCost",
          "type": "uint256"
        },
        {
          "internalType": "uint64",
          "name": "reqCount",
          "type": "uint64"
        },
        {
          "internalType": "uint64",
          "name": "freeRequestCount",
          "type": "uint64"
        },
        {
          "internalType": "uint64",
          "name": "referralSubId",
          "type": "uint64"
        },
        {
          "internalType": "uint64",
          "name": "reqCountInCurrentPeriod",
          "type": "uint64"
        },
        {
          "internalType": "uint256",
          "name": "lastRequestTimestamp",
          "type": "uint256"
        }
      ],
      "stateMutability": "view",
      "type": "function"
    },
    {
      "inputs": [
        {
          "internalType": "address",
          "name": "controller",
          "type": "address"
        }
      ],
      "name": "initialize",
      "outputs": [],
      "stateMutability": "nonpayable",
      "type": "function"
    },
    {
      "inputs": [
        {
          "internalType": "address",
          "name": "recipient",
          "type": "address"
        },
        {
          "internalType": "uint256",
          "name": "ethAmount",
          "type": "uint256"
        }
      ],
      "name": "nodeWithdrawETH",
      "outputs": [],
      "stateMutability": "nonpayable",
      "type": "function"
    },
    {
      "inputs": [],
      "name": "owner",
      "outputs": [
        {
          "internalType": "address",
          "name": "",
          "type": "address"
        }
      ],
      "stateMutability": "view",
      "type": "function"
    },
    {
      "inputs": [
        {
          "internalType": "uint64",
          "name": "subId",
          "type": "uint64"
        }
      ],
      "name": "ownerCancelSubscription",
      "outputs": [],
      "stateMutability": "nonpayable",
      "type": "function"
    },
    {
      "inputs": [],
      "name": "proxiableUUID",
      "outputs": [
        {
          "internalType": "bytes32",
          "name": "",
          "type": "bytes32"
        }
      ],
      "stateMutability": "view",
      "type": "function"
    },
    {
      "inputs": [
        {
          "internalType": "uint64",
          "name": "subId",
          "type": "uint64"
        },
        {
          "internalType": "address",
          "name": "consumer",
          "type": "address"
        }
      ],
      "name": "removeConsumer",
      "outputs": [],
      "stateMutability": "nonpayable",
      "type": "function"
    },
    {
      "inputs": [],
      "name": "renounceOwnership",
      "outputs": [],
      "stateMutability": "nonpayable",
      "type": "function"
    },
    {
      "inputs": [
        {
          "components": [
            {
              "internalType": "enum IRequestTypeBase.RequestType",
              "name": "requestType",
              "type": "uint8"
            },
            {
              "internalType": "bytes",
              "name": "params",
              "type": "bytes"
            },
            {
              "internalType": "uint64",
              "name": "subId",
              "type": "uint64"
            },
            {
              "internalType": "uint256",
              "name": "seed",
              "type": "uint256"
            },
            {
              "internalType": "uint16",
              "name": "requestConfirmations",
              "type": "uint16"
            },
            {
              "internalType": "uint32",
              "name": "callbackGasLimit",
              "type": "uint32"
            },
            {
              "internalType": "uint256",
              "name": "callbackMaxGasPrice",
              "type": "uint256"
            }
          ],
          "internalType": "struct IAdapter.RandomnessRequestParams",
          "name": "params",
          "type": "tuple"
        }
      ],
      "name": "requestRandomness",
      "outputs": [
        {
          "internalType": "bytes32",
          "name": "",
          "type": "bytes32"
        }
      ],
      "stateMutability": "nonpayable",
      "type": "function"
    },
    {
      "inputs": [
        {
          "internalType": "uint16",
          "name": "minimumRequestConfirmations",
          "type": "uint16"
        },
        {
          "internalType": "uint32",
          "name": "maxGasLimit",
          "type": "uint32"
        },
        {
          "internalType": "uint32",
          "name": "gasAfterPaymentCalculation",
          "type": "uint32"
        },
        {
          "internalType": "uint32",
          "name": "gasExceptCallback",
          "type": "uint32"
        },
        {
          "internalType": "uint256",
          "name": "signatureTaskExclusiveWindow",
          "type": "uint256"
        },
        {
          "internalType": "uint256",
          "name": "rewardPerSignature",
          "type": "uint256"
        },
        {
          "internalType": "uint256",
          "name": "committerRewardPerSignature",
          "type": "uint256"
        }
      ],
      "name": "setAdapterConfig",
      "outputs": [],
      "stateMutability": "nonpayable",
      "type": "function"
    },
    {
      "inputs": [
        {
          "components": [
            {
              "internalType": "uint32",
              "name": "fulfillmentFlatFeeEthPPMTier1",
              "type": "uint32"
            },
            {
              "internalType": "uint32",
              "name": "fulfillmentFlatFeeEthPPMTier2",
              "type": "uint32"
            },
            {
              "internalType": "uint32",
              "name": "fulfillmentFlatFeeEthPPMTier3",
              "type": "uint32"
            },
            {
              "internalType": "uint32",
              "name": "fulfillmentFlatFeeEthPPMTier4",
              "type": "uint32"
            },
            {
              "internalType": "uint32",
              "name": "fulfillmentFlatFeeEthPPMTier5",
              "type": "uint32"
            },
            {
              "internalType": "uint24",
              "name": "reqsForTier2",
              "type": "uint24"
            },
            {
              "internalType": "uint24",
              "name": "reqsForTier3",
              "type": "uint24"
            },
            {
              "internalType": "uint24",
              "name": "reqsForTier4",
              "type": "uint24"
            },
            {
              "internalType": "uint24",
              "name": "reqsForTier5",
              "type": "uint24"
            }
          ],
          "internalType": "struct IAdapterOwner.FeeConfig",
          "name": "flatFeeConfig",
          "type": "tuple"
        },
        {
          "internalType": "uint16",
          "name": "flatFeePromotionGlobalPercentage",
          "type": "uint16"
        },
        {
          "internalType": "bool",
          "name": "isFlatFeePromotionEnabledPermanently",
          "type": "bool"
        },
        {
          "internalType": "uint256",
          "name": "flatFeePromotionStartTimestamp",
          "type": "uint256"
        },
        {
          "internalType": "uint256",
          "name": "flatFeePromotionEndTimestamp",
          "type": "uint256"
        }
      ],
      "name": "setFlatFeeConfig",
      "outputs": [],
      "stateMutability": "nonpayable",
      "type": "function"
    },
    {
      "inputs": [
        {
          "internalType": "uint64[]",
          "name": "subIds",
          "type": "uint64[]"
        },
        {
          "internalType": "uint64[]",
          "name": "freeRequestCounts",
          "type": "uint64[]"
        }
      ],
      "name": "setFreeRequestCount",
      "outputs": [],
      "stateMutability": "nonpayable",
      "type": "function"
    },
    {
      "inputs": [
        {
          "internalType": "uint64",
          "name": "subId",
          "type": "uint64"
        },
        {
          "internalType": "uint64",
          "name": "referralSubId",
          "type": "uint64"
        }
      ],
      "name": "setReferral",
      "outputs": [],
      "stateMutability": "nonpayable",
      "type": "function"
    },
    {
      "inputs": [
        {
          "internalType": "bool",
          "name": "isReferralEnabled",
          "type": "bool"
        },
        {
          "internalType": "uint16",
          "name": "freeRequestCountForReferrer",
          "type": "uint16"
        },
        {
          "internalType": "uint16",
          "name": "freeRequestCountForReferee",
          "type": "uint16"
        }
      ],
      "name": "setReferralConfig",
      "outputs": [],
      "stateMutability": "nonpayable",
      "type": "function"
    },
    {
      "inputs": [
        {
          "internalType": "address",
          "name": "newOwner",
          "type": "address"
        }
      ],
      "name": "transferOwnership",
      "outputs": [],
      "stateMutability": "nonpayable",
      "type": "function"
    },
    {
      "inputs": [
        {
          "internalType": "address",
          "name": "newImplementation",
          "type": "address"
        }
      ],
      "name": "upgradeTo",
      "outputs": [],
      "stateMutability": "nonpayable",
      "type": "function"
    },
    {
      "inputs": [
        {
          "internalType": "address",
          "name": "newImplementation",
          "type": "address"
        },
        {
          "internalType": "bytes",
          "name": "data",
          "type": "bytes"
        }
      ],
      "name": "upgradeToAndCall",
      "outputs": [],
      "stateMutability": "payable",
      "type": "function"
    }
  ],
  "bytecode": {
    "object": "0x60a0604052306080523480156200001557600080fd5b506200002062000026565b620000e8565b600054610100900460ff1615620000935760405162461bcd60e51b815260206004820152602760248201527f496e697469616c697a61626c653a20636f6e747261637420697320696e697469604482015266616c697a696e6760c81b606482015260840160405180910390fd5b60005460ff9081161015620000e6576000805460ff191660ff9081179091556040519081527f7f26b83ff96e1f2b6a682f133852f6798a09c465da95921460cefb38474024989060200160405180910390a15b565b608051615aa86200012060003960008181610ac001528181610b4a01528181610c3d01528181610cc20152610dac0152615aa86000f3fe60806040526004361061023b5760003560e01c806391a6fe771161012e578063c725a833116100ab578063dfaba7941161006f578063dfaba7941461084e578063ef6f427314610861578063f2fde38b146108d3578063f362ca61146108f3578063f4cc97fc1461091357600080fd5b8063c725a83314610655578063caba528414610686578063d2f9f9a7146106a6578063d7ae1d30146106c6578063dcdb7b88146106e657600080fd5b8063a39402d7116100f2578063a39402d7146105b6578063a47c7696146105d6578063a4c343f21461060b578063aa81d59a14610620578063c4d66de81461063557600080fd5b806391a6fe7714610526578063931d9204146105415780639bd8140a146105615780639f87fad714610581578063a21a23e4146105a157600080fd5b806352d1902d116101bc5780637341c10c116101805780637341c10c1461046557806376a911bc146104855780638166d459146104c7578063877d38bb146104f25780638da5cb5b1461050857600080fd5b806352d1902d146103f1578063636021741461040657806364d51a2a1461041b578063715018a61461043057806371b7ca051461044557600080fd5b806315c48b841161020357806315c48b84146103145780631e58a8721461033c5780633018205f1461038c5780633659cfe6146103be5780634f1ef286146103de57600080fd5b806302bcc5b614610240578063056e5ede1461026257806306bfa637146102825780630ad98f6a146102b95780631565034c146102d9575b600080fd5b34801561024c57600080fd5b5061026061025b3660046144a0565b610933565b005b34801561026e57600080fd5b5061026061027d366004614648565b6109aa565b34801561028e57600080fd5b5060d7546001600160401b03165b6040516001600160401b0390911681526020015b60405180910390f35b3480156102c557600080fd5b506102606102d43660046146cb565b610a55565b3480156102e557600080fd5b506103066102f43660046146f7565b600090815260d4602052604090205490565b6040519081526020016102b0565b34801561032057600080fd5b5061032960c881565b60405161ffff90911681526020016102b0565b34801561034857600080fd5b5061036a60d85460ff81169161ffff6101008304811692630100000090041690565b60408051931515845261ffff92831660208501529116908201526060016102b0565b34801561039857600080fd5b5060c9546001600160a01b03165b6040516001600160a01b0390911681526020016102b0565b3480156103ca57600080fd5b506102606103d9366004614710565b610ab6565b6102606103ec36600461479c565b610c33565b3480156103fd57600080fd5b50610306610d9f565b34801561041257600080fd5b5060cf54610306565b34801561042757600080fd5b50610329606481565b34801561043c57600080fd5b50610260610e64565b34801561045157600080fd5b50610260610460366004614810565b610e78565b34801561047157600080fd5b50610260610480366004614885565b610fd0565b34801561049157600080fd5b5061029c6104a0366004614710565b6001600160a01b0316600090815260d560205260409020600101546001600160401b031690565b3480156104d357600080fd5b506104dd61232881565b60405163ffffffff90911681526020016102b0565b3480156104fe57600080fd5b506104dd61c35081565b34801561051457600080fd5b506097546001600160a01b03166103a6565b34801561053257600080fd5b5060cd5463ffffffff16610306565b34801561054d57600080fd5b5061026061055c3660046148bc565b611193565b34801561056d57600080fd5b5061030661057c3660046148ef565b611484565b34801561058d57600080fd5b5061026061059c366004614885565b6114ce565b3480156105ad57600080fd5b5061029c611804565b3480156105c257600080fd5b506103066105d1366004614940565b6118fd565b3480156105e257600080fd5b506105f66105f13660046144a0565b611d0a565b6040516102b0999897969594939291906149be565b34801561061757600080fd5b5060ce54610306565b34801561062c57600080fd5b506104dd600381565b34801561064157600080fd5b50610260610650366004614710565b611e2a565b34801561066157600080fd5b5060ca5460cb5460cc54604080519384526020840192909252908201526060016102b0565b34801561069257600080fd5b506102606106a1366004614a28565b611f65565b3480156106b257600080fd5b506104dd6106c13660046144a0565b6123b3565b3480156106d257600080fd5b506102606106e1366004614885565b612530565b3480156106f257600080fd5b50604080516101208101825260d95463ffffffff8082168084526401000000008304821660208501819052600160401b84048316958501869052600160601b8404831660608601819052600160801b85049093166080860181905262ffffff600160a01b8604811660a08801819052600160b81b8704821660c08901819052600160d01b8804831660e08a01819052600160e81b90980490921661010090980188905260da5460db5460dc54969a95999598949692959394939261ffff83169260ff620100009091041691906040516102b09d9c9b9a9998979695949392919063ffffffff9d8e1681529b8d1660208d0152998c1660408c0152978b1660608b015295909916608089015262ffffff93841660a089015291831660c0880152821660e08701521661010085015261ffff949094166101208401529215156101408301526101608201929092526101808101919091526101a00190565b61026061085c3660046144a0565b61263c565b34801561086d57600080fd5b5060d05460d15460d25460d3546040805161ffff8616815263ffffffff620100008704811660208301526701000000000000008704811692820192909252600160581b909504166060850152608084019290925260a083015260c082015260e0016102b0565b3480156108df57600080fd5b506102606108ee366004614710565b612728565b3480156108ff57600080fd5b5061026061090e366004614b08565b61279e565b34801561091f57600080fd5b5061026061092e366004614b60565b612838565b61093b612a72565b6001600160401b038116600090815260d660205260409020546001600160a01b031661097a57604051630fb532db60e11b815260040160405180910390fd5b6001600160401b038116600090815260d660205260409020546109a79082906001600160a01b0316612acc565b50565b6109b2612a72565b60005b8251811015610a50578181815181106109d0576109d0614c62565b602002602001015160d660008584815181106109ee576109ee614c62565b60200260200101516001600160401b03166001600160401b0316815260200190815260200160002060060160086101000a8154816001600160401b0302191690836001600160401b031602179055508080610a4890614c8e565b9150506109b5565b505050565b60c9546001600160a01b03163314610a8057604051630f5caa3360e41b815260040160405180910390fd5b6040516001600160a01b0383169082156108fc029083906000818181858888f19350505050158015610a50573d6000803e3d6000fd5b6001600160a01b037f0000000000000000000000000000000000000000000000000000000000000000163003610b485760405162461bcd60e51b815260206004820152602c60248201527f46756e6374696f6e206d7573742062652063616c6c6564207468726f7567682060448201526b19195b1959d85d1958d85b1b60a21b60648201526084015b60405180910390fd5b7f00000000000000000000000000000000000000000000000000000000000000006001600160a01b0316610ba37f360894a13ba1a3210667c828492db98dca3e2076cc3735a920a3ca505d382bbc546001600160a01b031690565b6001600160a01b031614610c0e5760405162461bcd60e51b815260206004820152602c60248201527f46756e6374696f6e206d7573742062652063616c6c6564207468726f7567682060448201526b6163746976652070726f787960a01b6064820152608401610b3f565b610c1781612b9e565b604080516000808252602082019092526109a791839190612ba6565b6001600160a01b037f0000000000000000000000000000000000000000000000000000000000000000163003610cc05760405162461bcd60e51b815260206004820152602c60248201527f46756e6374696f6e206d7573742062652063616c6c6564207468726f7567682060448201526b19195b1959d85d1958d85b1b60a21b6064820152608401610b3f565b7f00000000000000000000000000000000000000000000000000000000000000006001600160a01b0316610d1b7f360894a13ba1a3210667c828492db98dca3e2076cc3735a920a3ca505d382bbc546001600160a01b031690565b6001600160a01b031614610d865760405162461bcd60e51b815260206004820152602c60248201527f46756e6374696f6e206d7573742062652063616c6c6564207468726f7567682060448201526b6163746976652070726f787960a01b6064820152608401610b3f565b610d8f82612b9e565b610d9b82826001612ba6565b5050565b6000306001600160a01b037f00000000000000000000000000000000000000000000000000000000000000001614610e3f5760405162461bcd60e51b815260206004820152603860248201527f555550535570677261646561626c653a206d757374206e6f742062652063616c60448201527f6c6564207468726f7567682064656c656761746563616c6c00000000000000006064820152608401610b3f565b507f360894a13ba1a3210667c828492db98dca3e2076cc3735a920a3ca505d382bbc90565b610e6c612a72565b610e766000612d32565b565b610e80612a72565b60c861ffff88161115610eba5760405163539c34bb60e11b815261ffff881660048201819052602482015260c86044820152606401610b3f565b604080516101008101825261ffff891680825263ffffffff89811660208085018290526000858701528a83166060808701829052938b16608080880182905260a08089018d905260c0808a018d905260e0998a018c905260d0805465ffffffffffff19168a17620100008902176effffffffffffffffff000000000000191667010000000000000087026effffffff0000000000000000000000191617600160581b860217905560d18e905560d28d905560d38c90558a519889529488019590955297860191909152928401929092529382018790529281018590529182018390527fefeb3292465cf72a302efdd83695ad560a2828353a1e018844e9abd19a642037910160405180910390a150505050505050565b6001600160401b038216600090815260d6602052604090205482906001600160a01b03168061101257604051630fb532db60e11b815260040160405180910390fd5b336001600160a01b0382161461104657604051636c51fda960e11b81526001600160a01b0382166004820152602401610b3f565b60d054600160301b900460ff16156110715760405163769dd35360e11b815260040160405180910390fd5b6001600160401b038416600090815260d66020526040902060020154606319016110ae576040516305a48e0f60e01b815260040160405180910390fd5b6001600160a01b038316600090815260d5602090815260408083206001600160401b038089168552925282205416900361118d576001600160a01b038316600081815260d5602090815260408083206001600160401b0389168085528184528285208054600167ffffffffffffffff1991821681179092559281018054909316821790925560d68452828520600201805492830181558552938390200180546001600160a01b031916851790555192835290917f43dc749a04ac8fb825cbd514f7c0e13f13bc6f2ee66043b76629d51776cff8e0910160405180910390a25b50505050565b6001600160401b038216600090815260d6602052604090205482906001600160a01b0316806111d557604051630fb532db60e11b815260040160405180910390fd5b336001600160a01b0382161461120957604051636c51fda960e11b81526001600160a01b0382166004820152602401610b3f565b60d054600160301b900460ff16156112345760405163769dd35360e11b815260040160405180910390fd5b60d85460ff1661125757604051636dac270160e01b815260040160405180910390fd5b6001600160401b03808416600090815260d660205260408082205492871682529020546001600160a01b039182169116036112a55760405163027f035560e51b815260040160405180910390fd5b6001600160401b03808516600090815260d66020526040902060060154600160801b900416156112e85760405163cae26ee160e01b815260040160405180910390fd5b6001600160401b03808516600090815260d6602052604090206006015416158061132d57506001600160401b03808416600090815260d6602052604090206006015416155b1561134b5760405163a760a23760e01b815260040160405180910390fd5b60d8546001600160401b03848116600090815260d660205260409020600601805461010090930461ffff1692909160089161138f918591600160401b900416614ca7565b82546101009290920a6001600160401b0381810219909316918316021790915560d854868216600090815260d6602052604090206006018054630100000090920461ffff169350916008916113ed918591600160401b900416614ca7565b82546101009290920a6001600160401b03818102199093169183160217909155858116600081815260d6602052604080822060060180547fffffffffffffffff0000000000000000ffffffffffffffffffffffffffffffff16600160801b958a169586021790555192935090917fb661d46b53034f62a6c7d50df2a5e055fab98889aaf62f8c618e457edd96c6889190a350505050565b6000806114918686614cce565b6114a19063ffffffff1684614ceb565b90506114b863ffffffff851664e8d4a51000614ceb565b6114c29082614d02565b9150505b949350505050565b6001600160401b038216600090815260d6602052604090205482906001600160a01b03168061151057604051630fb532db60e11b815260040160405180910390fd5b336001600160a01b0382161461154457604051636c51fda960e11b81526001600160a01b0382166004820152602401610b3f565b60d054600160301b900460ff161561156f5760405163769dd35360e11b815260040160405180910390fd5b6001600160401b038416600090815260d66020526040902060040154156115a957604051631685ecdd60e31b815260040160405180910390fd5b6001600160401b038416600090815260d6602090815260408083206002018054825181850281018501909352808352919290919083018282801561161657602002820191906000526020600020905b81546001600160a01b031681526001909101906020018083116115f8575b50505050509050805160000361165957604051637800cff360e11b81526001600160401b03861660048201526001600160a01b0385166024820152604401610b3f565b60005b81518110156117d057846001600160a01b031682828151811061168157611681614c62565b60200260200101516001600160a01b0316036117be5781600183516116a69190614d15565b815181106116b6576116b6614c62565b602002602001015160d66000886001600160401b03166001600160401b0316815260200190815260200160002060020182815481106116f7576116f7614c62565b600091825260208083209190910180546001600160a01b0319166001600160a01b0394909416939093179092556001600160401b038816815260d69091526040902060020180548061174b5761174b614d28565b6000828152602090819020600019908301810180546001600160a01b03191690559091019091556040516001600160a01b03871681526001600160401b038816917f182bff9831466789164ca77075fffd84916d35a8180ba73c27e45634549b445b910160405180910390a2505061118d565b806117c881614c8e565b91505061165c565b50604051637800cff360e11b81526001600160401b03861660048201526001600160a01b0385166024820152604401610b3f565b60d054600090600160301b900460ff16156118325760405163769dd35360e11b815260040160405180910390fd5b60d780546001600160401b031690600061184b83614d3e565b82546001600160401b039182166101009390930a92830292820219169190911790915560d780548216600090815260d6602052604080822080546001600160a01b0319163390811790915583548516835281832060060180546fffffffffffffffff00000000000000001916600160401b17905592549051929450909216917f464722b4166576d3dcbba877b999bc35cf911f4eaf434b7eba68fa113951d0bf91a35060d7546001600160401b031690565b60d054600090600160301b900460ff161561192b5760405163769dd35360e11b815260040160405180910390fd5b600061193683614d73565b905032330361195857604051638a3150e760e01b815260040160405180910390fd5b6040808201516001600160401b0316600090815260d66020522080546001600160a01b031661199a57604051630fb532db60e11b815260040160405180910390fd5b33600090815260d560209081526040808320858201516001600160401b03908116855292528220541690036119f9576040808301519051637800cff360e11b81526001600160401b039091166004820152336024820152604401610b3f565b60d054608083015161ffff91821691161080611a21575060c861ffff16826080015161ffff16115b15611a5c57608082015160d05460405163539c34bb60e11b815261ffff92831660048201529116602482015260c86044820152606401610b3f565b60d05460a083015163ffffffff62010000909204821691161115611ab35760a082015160d054604051637aebf00f60e11b815263ffffffff9283166004820152620100009091049091166024820152604401610b3f565b611abb612d84565b60cd805463ffffffff191663ffffffff9290921691909117905560608281015133600081815260d560208181526040808420818a0180516001600160401b0390811687528285528387205484518087019a909a528985018990528116898b01528351808a03909a018a5260809098018352885198840198909820958552928252955185168352529283208054919360019391929091611b5c91859116614ca7565b92506101000a8154816001600160401b0302191690836001600160401b031602179055506000611b8b82612ef5565b60c95460cd5460405163f49e0ba960e01b815263ffffffff90911660048201529192506000916001600160a01b039091169063f49e0ba9906024016040805180830381865afa158015611be2573d6000803e3d6000fd5b505050506040513d601f19601f82011682018060405250810190611c069190614e11565b9150506000611c208584848960a001518a60c00151612f27565b60408088015160cd5489516020808c015160808d015160a08e015160c08f01519751989950611c66988c9863ffffffff90971696939433948f9493929091439101614ebd565b60408051601f198184030181528282528051602091820120600087815260d483528390205560cd54918901518951918a015160808b015160a08c015160c08d015163ffffffff909616966001600160401b03909416958a957fd26299589dd9197a8dc30a0fa17b0fe7dd432bc3441aa5f5631ea1e14c1af74495611cf4959194919333938f93928d90614f48565b60405180910390a450909450505050505b919050565b6001600160401b038116600090815260d660205260408120805460609183918291829182918291829182916001600160a01b0316611d5b57604051630fb532db60e11b815260040160405180910390fd5b80546003820154600483015460068401546007850154600286018054604080516020808402820181019092528281526001600160a01b0390981697929695946001600160401b0380821695600160401b8304821695600160801b8404831695600160c01b9094049092169390928a91830182828015611e0357602002820191906000526020600020905b81546001600160a01b03168152600190910190602001808311611de5575b50505050509750995099509950995099509950995099509950509193959799909294969850565b600054610100900460ff1615808015611e4a5750600054600160ff909116105b80611e645750303b158015611e64575060005460ff166001145b611ed65760405162461bcd60e51b815260206004820152602e60248201527f496e697469616c697a61626c653a20636f6e747261637420697320616c72656160448201527f647920696e697469616c697a65640000000000000000000000000000000000006064820152608401610b3f565b6000805460ff191660011790558015611ef9576000805461ff0019166101001790555b60c980546001600160a01b0319166001600160a01b038416179055611f1c6130ac565b8015610d9b576000805461ff0019169055604051600181527f7f26b83ff96e1f2b6a682f133852f6798a09c465da95921460cefb38474024989060200160405180910390a15050565b60d054600160301b900460ff1615611f905760405163769dd35360e11b815260040160405180910390fd5b60005a600087815260d46020526040812054919250819003611fc557604051631b44092560e11b815260040160405180910390fd5b86611fd360208701876144a0565b611fe36040880160208901614faf565b611ff36060890160408a01614fcc565b61200060608a018a614fe7565b61201060a08c0160808d01614710565b60a08c013561202560e08e0160c08f01615034565b8d60e00160208101906120389190614faf565b8e61010001358f610120013560405160200161205f9c9b9a9998979695949392919061504f565b6040516020818303038152906040528051906020012081146120945760405163354a450b60e21b815260040160405180910390fd5b6120a460e0860160c08701615034565b6120b79061ffff16610120870135614d02565b4310156120d75760405163619a4abd60e01b815260040160405180910390fd5b6120e76040860160208701614faf565b63ffffffff168863ffffffff1614158015612113575060d15461210f90610120870135614d02565b4311155b15612131576040516378373bbd60e11b815260040160405180910390fd5b60c960009054906101000a90046001600160a01b03166001600160a01b03166306545a936040518163ffffffff1660e01b8152600401602060405180830381865afa158015612184573d6000803e3d6000fd5b505050506040513d601f19601f820116820180604052508101906121a891906150f7565b8863ffffffff16106121d557604051637f6efcb560e11b815263ffffffff89166004820152602401610b3f565b60006122458963ffffffff168760a001358861012001358a8989808060200260200160405190810160405280939291908181526020016000905b8282101561223b5761222c60408302860136819003810190615110565b8152602001906001019061220f565b505050505061311f565b600089815260d46020908152604080832083905580518083018c9052815180820384018152908201909152805191012060cf805493945090926001929061228d908490614d02565b909155505060ce81905560c9546040516379ef840160e11b8152600481018390526001600160a01b039091169063f3df080290602401600060405180830381600087803b1580156122dd57600080fd5b505af11580156122f1573d6000803e3d6000fd5b50505050600061230b8a838a61230690615142565b61380a565b905060008061234460d68261232360208e018e6144a0565b6001600160401b0316815260208101919091526040016000208d8a8a613aa5565b91509150612353858383613d62565b336001600160a01b03168d63ffffffff168d7f6fc1bcb4bd7d5fdf4017f746304b61ae4472496256e906c6bb44682aa2c9a6d8888887878a60405161239c95949392919061520f565b60405180910390a450505050505050505050505050565b604080516101208101825260d95463ffffffff8082168352640100000000820481166020840152600160401b8204811693830193909352600160601b810483166060830152600160801b8104909216608082015262ffffff600160a01b8304811660a08301819052600160b81b8404821660c0840152600160d01b8404821660e0840152600160e81b909304166101008201526000916001600160401b0384161161245f575192915050565b826001600160401b03168160a0015162ffffff1610801561249257508060c0015162ffffff16836001600160401b031611155b156124a1576020015192915050565b826001600160401b03168160c0015162ffffff161080156124d457508060e0015162ffffff16836001600160401b031611155b156124e3576040015192915050565b826001600160401b03168160e0015162ffffff16108015612517575080610100015162ffffff16836001600160401b031611155b15612526576060015192915050565b6080015192915050565b6001600160401b038216600090815260d6602052604090205482906001600160a01b03168061257257604051630fb532db60e11b815260040160405180910390fd5b336001600160a01b038216146125a657604051636c51fda960e11b81526001600160a01b0382166004820152602401610b3f565b60d054600160301b900460ff16156125d15760405163769dd35360e11b815260040160405180910390fd5b6001600160a01b0383166125f85760405163f6b2911f60e01b815260040160405180910390fd5b6001600160401b038416600090815260d660205260409020600401541561263257604051631685ecdd60e31b815260040160405180910390fd5b61118d8484612acc565b60d054600160301b900460ff16156126675760405163769dd35360e11b815260040160405180910390fd5b6001600160401b038116600090815260d660205260409020546001600160a01b03166126a657604051630fb532db60e11b815260040160405180910390fd5b6001600160401b038116600090815260d6602052604081206003018054913491906126d18385614d02565b90915550506001600160401b0382167fd39ec07f4e209f627a4c427971473820dc129761ba28de8906bd56f57101d4f88261270c3482614d02565b6040805192835260208301919091520160405180910390a25050565b612730612a72565b6001600160a01b0381166127955760405162461bcd60e51b815260206004820152602660248201527f4f776e61626c653a206e6577206f776e657220697320746865207a65726f206160448201526564647265737360d01b6064820152608401610b3f565b6109a781612d32565b6127a6612a72565b604080516060808201835285151580835261ffff868116602080860182905291871694860185905260d8805462ffffff191662ffff001985161761010083021764ffff000000191663010000008702179055855192835290820152928301919091527faf8d657c268b3f943977d5288bfb2306420bcb17b7ef17397cffa5d2f4891643910160405180910390a1505050565b612840612a72565b6040518060a001604052808681526020018561ffff16815260200184151581526020018381526020018281525060d960008201518160000160008201518160000160006101000a81548163ffffffff021916908363ffffffff16021790555060208201518160000160046101000a81548163ffffffff021916908363ffffffff16021790555060408201518160000160086101000a81548163ffffffff021916908363ffffffff160217905550606082015181600001600c6101000a81548163ffffffff021916908363ffffffff16021790555060808201518160000160106101000a81548163ffffffff021916908363ffffffff16021790555060a08201518160000160146101000a81548162ffffff021916908362ffffff16021790555060c08201518160000160176101000a81548162ffffff021916908362ffffff16021790555060e082015181600001601a6101000a81548162ffffff021916908362ffffff16021790555061010082015181600001601d6101000a81548162ffffff021916908362ffffff160217905550505060208201518160010160006101000a81548161ffff021916908361ffff16021790555060408201518160010160026101000a81548160ff02191690831515021790555060608201518160020155608082015181600301559050507f1851d8853c0ab5ed26d95d456344506f759953621e7c115677f2244696b8ba978585858585604051612a63959493929190615248565b60405180910390a15050505050565b6097546001600160a01b03163314610e765760405162461bcd60e51b815260206004820181905260248201527f4f776e61626c653a2063616c6c6572206973206e6f7420746865206f776e65726044820152606401610b3f565b60d054600160301b900460ff1615612af75760405163769dd35360e11b815260040160405180910390fd5b6001600160401b038216600081815260d66020908152604091829020600381015481546001600160a01b03191690915582516001600160a01b038616815291820181905292917fe8ed5b475a5b5987aa9165e8731bb78043f39eee32ec5a1169a89e27fcd49815910160405180910390a26040516001600160a01b0383169082156108fc029083906000818181858888f1935050505015801561118d573d6000803e3d6000fd5b6109a7612a72565b7f4910fdfa16fed3260ed0e7147f7cc6da11a60208b5b9406d12a635614ffd91435460ff1615612bd957610a5083613eda565b826001600160a01b03166352d1902d6040518163ffffffff1660e01b8152600401602060405180830381865afa925050508015612c33575060408051601f3d908101601f19168201909252612c30918101906150f7565b60015b612ca55760405162461bcd60e51b815260206004820152602e60248201527f45524331393637557067726164653a206e657720696d706c656d656e7461746960448201527f6f6e206973206e6f7420555550530000000000000000000000000000000000006064820152608401610b3f565b7f360894a13ba1a3210667c828492db98dca3e2076cc3735a920a3ca505d382bbc8114612d265760405162461bcd60e51b815260206004820152602960248201527f45524331393637557067726164653a20756e737570706f727465642070726f786044820152681a58589b195555525160ba1b6064820152608401610b3f565b50610a50838383613f88565b609780546001600160a01b038381166001600160a01b0319831681179093556040519116919082907f8be0079c531659141344cd1fd0a4f28419497f9722a3daafe3b4186f6b6457e090600090a35050565b60008060c960009054906101000a90046001600160a01b03166001600160a01b031663b330a0fd6040518163ffffffff1660e01b8152600401600060405180830381865afa158015612dda573d6000803e3d6000fd5b505050506040513d6000823e601f3d908101601f19168201604052612e02919081019061530a565b90508051600003612e2657604051636905ab6760e01b815260040160405180910390fd5b60c954604080516306545a9360e01b815290516000926001600160a01b0316916306545a939160048083019260209291908290030181865afa158015612e70573d6000803e3d6000fd5b505050506040513d601f19601f82011682018060405250810190612e9491906150f7565b60cd549091506000908290612eb09063ffffffff166001614cce565b63ffffffff16612ec091906153b0565b90505b612ecd8382613fad565b612eee5781612edd826001614d02565b612ee791906153b0565b9050612ec3565b9392505050565b600081604051602001612f0a91815260200190565b604051602081830303815290604052805190602001209050919050565b60da54600090819062010000900460ff1615612f51575060068601546001600160401b0316612fa3565b60db544210801590612f65575060dc544211155b15612fa35760db5460078801541015612f8057506001612fa3565b6006870154612fa090600160c01b90046001600160401b03166001614ca7565b90505b600061303e85612fb46003896153c4565b612fc09061c3506153e1565b612fcc896123286153e1565b60d054612fe69190600160581b900463ffffffff16614cce565b612ff09190614cce565b60068b0154600160401b90046001600160401b03166130355760da5460649061ffff1661301c876123b3565b61302691906153e1565b6130309190615409565b613038565b60005b87611484565b905080886004015489600301546130559190614d15565b10156130745760405163444a5eaf60e11b815260040160405180910390fd5b808860040160008282546130889190614d02565b90915550506000878152600589016020526040902081905591505095945050505050565b600054610100900460ff166131175760405162461bcd60e51b815260206004820152602b60248201527f496e697469616c697a61626c653a20636f6e7472616374206973206e6f74206960448201526a6e697469616c697a696e6760a81b6064820152608401610b3f565b610e76614002565b60405162f577a560e81b81526004810183905260609073__$34d23ddaee48904c6c566425acbfa0fc0e$__9063f577a50090602401602060405180830381865af4158015613171573d6000803e3d6000fd5b505050506040513d601f19601f820116820180604052508101906131959190615437565b6131b257604051638529df1f60e01b815260040160405180910390fd5b81516000036131d457604051638bdcc37560e01b815260040160405180910390fd5b60c9546040516333ad819560e21b8152600481018890526000916001600160a01b03169063ceb6065490602401600060405180830381865afa15801561321e573d6000803e3d6000fd5b505050506040513d6000823e601f3d908101601f1916820160405261324691908101906156e4565b90506132568160a0015133614076565b6132735760405163d9ce719d60e01b815260040160405180910390fd5b60408051602081018890528082018790528151808203830181526060820192839052633033cc5160e01b90925260009073__$34d23ddaee48904c6c566425acbfa0fc0e$__90633033cc51906132cd9085906064016157e9565b6040805180830381865af41580156132e9573d6000803e3d6000fd5b505050506040513d601f19601f8201168201806040525081019061330d91906157fc565b905073__$34d23ddaee48904c6c566425acbfa0fc0e$__63ebbdac9173__$34d23ddaee48904c6c566425acbfa0fc0e$__6313bc64ee896040518263ffffffff1660e01b815260040161336291815260200190565b6040805180830381865af415801561337e573d6000803e3d6000fd5b505050506040513d601f19601f820116820180604052508101906133a291906157fc565b856101000151846040518463ffffffff1660e01b81526004016133c7939291906158a2565b602060405180830381865af41580156133e4573d6000803e3d6000fd5b505050506040513d601f19601f820116820180604052508101906134089190615437565b61342557604051638baa579f60e01b815260040160405180910390fd5b600085516001600160401b03811115613440576134406144bb565b60405190808252806020026020018201604052801561347957816020015b61346661444d565b81526020019060019003908161345e5790505b509050600086516001600160401b03811115613497576134976144bb565b6040519080825280602002602001820160405280156134d057816020015b6134bd61446b565b8152602001906001900390816134b55790505b50905086516001600160401b038111156134ec576134ec6144bb565b604051908082528060200260200182016040528015613515578160200160208202803683370190505b50955060005b87518110156137625773__$34d23ddaee48904c6c566425acbfa0fc0e$__63f577a50089838151811061355057613550614c62565b6020026020010151602001516040518263ffffffff1660e01b815260040161357a91815260200190565b602060405180830381865af4158015613597573d6000803e3d6000fd5b505050506040513d601f19601f820116820180604052508101906135bb9190615437565b6135d857604051636b849b7d60e11b815260040160405180910390fd5b73__$34d23ddaee48904c6c566425acbfa0fc0e$__6313bc64ee89838151811061360457613604614c62565b6020026020010151602001516040518263ffffffff1660e01b815260040161362e91815260200190565b6040805180830381865af415801561364a573d6000803e3d6000fd5b505050506040513d601f19601f8201168201806040525081019061366e91906157fc565b83828151811061368057613680614c62565b602002602001018190525085608001518882815181106136a2576136a2614c62565b602002602001015160000151815181106136be576136be614c62565b6020026020010151602001518282815181106136dc576136dc614c62565b602002602001018190525085608001518882815181106136fe576136fe614c62565b6020026020010151600001518151811061371a5761371a614c62565b60200260200101516000015187828151811061373857613738614c62565b6001600160a01b03909216602092830291909101909101528061375a81614c8e565b91505061351b565b50604051630d6870d760e21b815273__$34d23ddaee48904c6c566425acbfa0fc0e$__906335a1c35c9061379e908590859088906004016158cb565b602060405180830381865af41580156137bb573d6000803e3d6000fd5b505050506040513d601f19601f820116820180604052508101906137df9190615437565b6137fc57604051639c2d1c6d60e01b815260040160405180910390fd5b505050505095945050505050565b6000806060818460400151600281111561382657613826614e35565b036138705750604080516024810187905260448082018790528251808303909101815260649091019091526020810180516001600160e01b03166394985ddd60e01b179052613a5a565b60018460400151600281111561388857613888614e35565b036139bb57600084606001518060200190518101906138a79190615961565b905060008163ffffffff166001600160401b038111156138c9576138c96144bb565b6040519080825280602002602001820160405280156138f2578160200160208202803683370190505b50905060005b8263ffffffff168110156139625760408051602081018a90529081018290526060016040516020818303038152906040528051906020012060001c82828151811061394557613945614c62565b60209081029190910101528061395a81614c8e565b9150506138f8565b506040516375bf929b60e01b9061397f908a90849060240161597e565b60408051601f198184030181529190526020810180516001600160e01b03166001600160e01b0319909316929092179091529250613a5a915050565b6002846040015160028111156139d3576139d3614e35565b03613a5a57600084606001518060200190518101906139f29190615961565b90506000613a068263ffffffff16886140d1565b9050639e5836f660e01b8882604051602401613a2392919061597e565b60408051601f198184030181529190526020810180516001600160e01b03166001600160e01b031990931692909217909152925050505b60d0805466ff0000000000001916600160301b17905560e08401516080850151613a8b9163ffffffff16908361422c565b60d0805466ff000000000000191690559695505050505050565b6006840180546000918291600191908390613aca9084906001600160401b0316614ca7565b92506101000a8154816001600160401b0302191690836001600160401b03160217905550600060d960010160029054906101000a900460ff1615613b1c575060068601546001600160401b0316613bd3565b60db544210801590613b30575060dc544211155b15613bd35760db5460078801541015613b705760068701805477ffffffffffffffffffffffffffffffffffffffffffffffff16600160c01b179055613bbc565b60018760060160188282829054906101000a90046001600160401b0316613b979190614ca7565b92506101000a8154816001600160401b0302191690836001600160401b031602179055505b506006860154600160c01b90046001600160401b03165b4260078801556006870154600090600160401b90046001600160401b031615613c465760018860060160088282829054906101000a90046001600160401b0316613c1d91906159bf565b92506101000a8154816001600160401b0302191690836001600160401b03160217905550613c85565b60da5460649061ffff16613c59846123b3565b613c6e9063ffffffff1664e8d4a51000614ceb565b613c789190614ceb565b613c8291906159df565b90505b6000613cbc86613c9789612328614ceb565b60d054613cb59190670100000000000000900463ffffffff16614d02565b843a614278565b90508089600301541015613ce35760405163964d765f60e01b815260040160405180910390fd5b600088815260058a01602052604081205460048b01805491929091613d09908490614d15565b9091555050600088815260058a016020526040812081905560038a018054839290613d35908490614d15565b925050819055508160ca6000828254613d4e9190614d02565b909155509099919850909650505050505050565b60d35460cb8054600090613d77908490614d02565b9091555050825160d254613d8b9190614ceb565b60cc6000828254613d9c9190614d02565b9091555050604080516001808252818301909252600091602080830190803683370190505090503381600081518110613dd757613dd7614c62565b6001600160a01b03928316602091820292909201015260c9541663914eb34d82613e018587614d15565b60d3546040516001600160e01b031960e086901b168152613e27939291906004016159f3565b600060405180830381600087803b158015613e4157600080fd5b505af1158015613e55573d6000803e3d6000fd5b505060c95486516001600160a01b03909116925063914eb34d91508690613e7c90866159df565b60d2546040516001600160e01b031960e086901b168152613ea2939291906004016159f3565b600060405180830381600087803b158015613ebc57600080fd5b505af1158015613ed0573d6000803e3d6000fd5b5050505050505050565b6001600160a01b0381163b613f475760405162461bcd60e51b815260206004820152602d60248201527f455243313936373a206e657720696d706c656d656e746174696f6e206973206e60448201526c1bdd08184818dbdb9d1c9858dd609a1b6064820152608401610b3f565b7f360894a13ba1a3210667c828492db98dca3e2076cc3735a920a3ca505d382bbc80546001600160a01b0319166001600160a01b0392909216919091179055565b613f91836142db565b600082511180613f9e5750805b15610a505761118d838361431b565b6000805b8351811015613ff65782848281518110613fcd57613fcd614c62565b602002602001015103613fe4576001915050613ffc565b80613fee81614c8e565b915050613fb1565b50600090505b92915050565b600054610100900460ff1661406d5760405162461bcd60e51b815260206004820152602b60248201527f496e697469616c697a61626c653a20636f6e7472616374206973206e6f74206960448201526a6e697469616c697a696e6760a81b6064820152608401610b3f565b610e7633612d32565b6000805b8351811015613ff657826001600160a01b031684828151811061409f5761409f614c62565b60200260200101516001600160a01b0316036140bf576001915050613ffc565b806140c981614c8e565b91505061407a565b60606000836001600160401b038111156140ed576140ed6144bb565b604051908082528060200260200182016040528015614116578160200160208202803683370190505b50905060005b84811015614154578082828151811061413757614137614c62565b60209081029190910101528061414c81614c8e565b91505061411c565b5080516000805b600061416684615a18565b93508311156142215761417983876153b0565b91508560405160200161418e91815260200190565b6040516020818303038152906040528051906020012060001c95508383815181106141bb576141bb614c62565b602002602001015190508382815181106141d7576141d7614c62565b60200260200101518484815181106141f1576141f1614c62565b6020026020010181815250508084838151811061421057614210614c62565b60200260200101818152505061415b565b509195945050505050565b60005a61138881101561423e57600080fd5b61138881039050846040820482031161425657600080fd5b50823b61426257600080fd5b60008083516020850160008789f1949350505050565b6000805a6142868787614d02565b6142909190614d15565b61429a9084614ceb565b90506142b1846a6342fd08f00f6378000000614d15565b8111156142d15760405163e80fa38160e01b815260040160405180910390fd5b6114c28482614d02565b6142e481613eda565b6040516001600160a01b038216907fbc7cd75a20ee27fd9adebab32041f755214dbc6bffa90cc0225b39da2e5c2d3b90600090a250565b60606001600160a01b0383163b6143835760405162461bcd60e51b815260206004820152602660248201527f416464726573733a2064656c65676174652063616c6c20746f206e6f6e2d636f6044820152651b9d1c9858dd60d21b6064820152608401610b3f565b600080846001600160a01b03168460405161439e9190615a2f565b600060405180830381855af49150503d80600081146143d9576040519150601f19603f3d011682016040523d82523d6000602084013e6143de565b606091505b50915091506144068282604051806060016040528060278152602001615a4c6027913961440f565b95945050505050565b6060831561441e575081612eee565b612eee83838151156144335781518083602001fd5b8060405162461bcd60e51b8152600401610b3f91906157e9565b60405180604001604052806002906020820280368337509192915050565b60405180608001604052806004906020820280368337509192915050565b80356001600160401b0381168114611d0557600080fd5b6000602082840312156144b257600080fd5b612eee82614489565b634e487b7160e01b600052604160045260246000fd5b60405161012081016001600160401b03811182821017156144f4576144f46144bb565b60405290565b60405160e081016001600160401b03811182821017156144f4576144f46144bb565b604080519081016001600160401b03811182821017156144f4576144f46144bb565b60405161014081016001600160401b03811182821017156144f4576144f46144bb565b604051606081016001600160401b03811182821017156144f4576144f46144bb565b604051601f8201601f191681016001600160401b03811182821017156145ab576145ab6144bb565b604052919050565b60006001600160401b038211156145cc576145cc6144bb565b5060051b60200190565b600082601f8301126145e757600080fd5b813560206145fc6145f7836145b3565b614583565b82815260059290921b8401810191818101908684111561461b57600080fd5b8286015b8481101561463d5761463081614489565b835291830191830161461f565b509695505050505050565b6000806040838503121561465b57600080fd5b82356001600160401b038082111561467257600080fd5b61467e868387016145d6565b9350602085013591508082111561469457600080fd5b506146a1858286016145d6565b9150509250929050565b6001600160a01b03811681146109a757600080fd5b8035611d05816146ab565b600080604083850312156146de57600080fd5b82356146e9816146ab565b946020939093013593505050565b60006020828403121561470957600080fd5b5035919050565b60006020828403121561472257600080fd5b8135612eee816146ab565b600082601f83011261473e57600080fd5b81356001600160401b03811115614757576147576144bb565b61476a601f8201601f1916602001614583565b81815284602083860101111561477f57600080fd5b816020850160208301376000918101602001919091529392505050565b600080604083850312156147af57600080fd5b82356147ba816146ab565b915060208301356001600160401b038111156147d557600080fd5b6146a18582860161472d565b803561ffff81168114611d0557600080fd5b63ffffffff811681146109a757600080fd5b8035611d05816147f3565b600080600080600080600060e0888a03121561482b57600080fd5b614834886147e1565b96506020880135614844816147f3565b95506040880135614854816147f3565b94506060880135614864816147f3565b9699959850939660808101359560a0820135955060c0909101359350915050565b6000806040838503121561489857600080fd5b6148a183614489565b915060208301356148b1816146ab565b809150509250929050565b600080604083850312156148cf57600080fd5b6148d883614489565b91506148e660208401614489565b90509250929050565b6000806000806080858703121561490557600080fd5b8435614910816147f3565b93506020850135614920816147f3565b92506040850135614930816147f3565b9396929550929360600135925050565b60006020828403121561495257600080fd5b81356001600160401b0381111561496857600080fd5b820160e08185031215612eee57600080fd5b600081518084526020808501945080840160005b838110156149b35781516001600160a01b03168752958201959082019060010161498e565b509495945050505050565b60006101206001600160a01b038c1683528060208401526149e18184018c61497a565b604084019a909a52505060608101969096526001600160401b03948516608087015292841660a086015290831660c085015290911660e08301526101009091015292915050565b60008060008060008060a08789031215614a4157600080fd5b8635614a4c816147f3565b9550602087013594506040870135935060608701356001600160401b0380821115614a7657600080fd5b90880190610140828b031215614a8b57600080fd5b90935060808801359080821115614aa157600080fd5b818901915089601f830112614ab557600080fd5b813581811115614ac457600080fd5b8a60208260061b8501011115614ad957600080fd5b6020830194508093505050509295509295509295565b80151581146109a757600080fd5b8035611d0581614aef565b600080600060608486031215614b1d57600080fd5b8335614b2881614aef565b9250614b36602085016147e1565b9150614b44604085016147e1565b90509250925092565b803562ffffff81168114611d0557600080fd5b60008060008060008587036101a0811215614b7a57600080fd5b61012080821215614b8a57600080fd5b614b926144d1565b9150614b9d88614805565b8252614bab60208901614805565b6020830152614bbc60408901614805565b6040830152614bcd60608901614805565b6060830152614bde60808901614805565b6080830152614bef60a08901614b4d565b60a0830152614c0060c08901614b4d565b60c0830152614c1160e08901614b4d565b60e0830152610100614c24818a01614b4d565b8184015250819650614c378189016147e1565b95505050614c486101408701614afd565b949793965093946101608101359450610180013592915050565b634e487b7160e01b600052603260045260246000fd5b634e487b7160e01b600052601160045260246000fd5b600060018201614ca057614ca0614c78565b5060010190565b6001600160401b03818116838216019080821115614cc757614cc7614c78565b5092915050565b63ffffffff818116838216019080821115614cc757614cc7614c78565b8082028115828204841417613ffc57613ffc614c78565b80820180821115613ffc57613ffc614c78565b81810381811115613ffc57613ffc614c78565b634e487b7160e01b600052603160045260246000fd5b60006001600160401b03808316818103614d5a57614d5a614c78565b6001019392505050565b803560038110611d0557600080fd5b600060e08236031215614d8557600080fd5b614d8d6144fa565b614d9683614d64565b815260208301356001600160401b03811115614db157600080fd5b614dbd3682860161472d565b602083015250614dcf60408401614489565b604082015260608301356060820152614dea608084016147e1565b6080820152614dfb60a08401614805565b60a082015260c092830135928101929092525090565b60008060408385031215614e2457600080fd5b505080516020909101519092909150565b634e487b7160e01b600052602160045260246000fd5b60038110614e6957634e487b7160e01b600052602160045260246000fd5b9052565b60005b83811015614e88578181015183820152602001614e70565b50506000910152565b60008151808452614ea9816020860160208601614e6d565b601f01601f19169290920160200192915050565b60006101608d83526001600160401b038d16602084015263ffffffff808d166040850152614eee606085018d614e4b565b816080850152614f008285018c614e91565b6001600160a01b039a909a1660a085015260c0840198909852505061ffff9490941660e085015291909316610100830152610120820192909252610140015295945050505050565b6000610100614f57838c614e4b565b806020840152614f698184018b614e91565b6001600160a01b039990991660408401525050606081019590955261ffff93909316608085015263ffffffff9190911660a084015260c083015260e09091015292915050565b600060208284031215614fc157600080fd5b8135612eee816147f3565b600060208284031215614fde57600080fd5b612eee82614d64565b6000808335601e19843603018112614ffe57600080fd5b8301803591506001600160401b0382111561501857600080fd5b60200191503681900382131561502d57600080fd5b9250929050565b60006020828403121561504657600080fd5b612eee826147e1565b60006101608e83526001600160401b038e16602084015263ffffffff8d16604084015261507f606084018d614e4b565b806080840152898184015250610180898b8285013760008a84018201526001600160a01b03891660a0840152601f19601f8b011683010190508660c08301526150ce60e083018761ffff169052565b63ffffffff851661010083015261012082019390935261014001529a9950505050505050505050565b60006020828403121561510957600080fd5b5051919050565b60006040828403121561512257600080fd5b61512a61451c565b82358152602083013560208201528091505092915050565b6000610140823603121561515557600080fd5b61515d61453e565b61516683614489565b815261517460208401614805565b602082015261518560408401614d64565b604082015260608301356001600160401b038111156151a357600080fd5b6151af3682860161472d565b6060830152506151c1608084016146c0565b608082015260a083013560a08201526151dc60c084016147e1565b60c08201526151ed60e08401614805565b60e0820152610100838101359082015261012092830135928101929092525090565b60a08152600061522260a083018861497a565b905085602083015284604083015283606083015282151560808301529695505050505050565b855163ffffffff9081168252602080880151821690830152604080880151821690830152606080880151821690830152608080880151918216908301526101a08201905060a08701516152a260a084018262ffffff169052565b5060c08701516152b960c084018262ffffff169052565b5060e08701516152d060e084018262ffffff169052565b506101009687015162ffffff169682019690965261ffff949094166101208501529115156101408401526101608301526101809091015290565b6000602080838503121561531d57600080fd5b82516001600160401b0381111561533357600080fd5b8301601f8101851361534457600080fd5b80516153526145f7826145b3565b81815260059190911b8201830190838101908783111561537157600080fd5b928401925b8284101561538f57835182529284019290840190615376565b979650505050505050565b634e487b7160e01b600052601260045260246000fd5b6000826153bf576153bf61539a565b500690565b63ffffffff828116828216039080821115614cc757614cc7614c78565b63ffffffff81811683821602808216919082811461540157615401614c78565b505092915050565b600063ffffffff808416806154205761542061539a565b92169190910492915050565b8051611d0581614aef565b60006020828403121561544957600080fd5b8151612eee81614aef565b600082601f83011261546557600080fd5b604051608081018181106001600160401b0382111715615487576154876144bb565b60405280608084018581111561549c57600080fd5b845b8181101561422157805183526020928301920161549e565b600082601f8301126154c757600080fd5b815160206154d76145f7836145b3565b82815260a092830285018201928282019190878511156154f657600080fd5b8387015b858110156155445781818a0312156155125760008081fd5b61551a61451c565b8151615525816146ab565b81526155338a838801615454565b8187015284529284019281016154fa565b5090979650505050505050565b600082601f83011261556257600080fd5b815160206155726145f7836145b3565b82815260059290921b8401810191818101908684111561559157600080fd5b8286015b8481101561463d5780516155a8816146ab565b8352918301918301615595565b600082601f8301126155c657600080fd5b815160206155d66145f7836145b3565b82815260059290921b840181019181810190868411156155f557600080fd5b8286015b8481101561463d5780516001600160401b038082111561561857600080fd5b908801906040601f19838c03810182131561563257600080fd5b61563a61451c565b888501518481111561564b57600080fd5b6156598e8b83890101615551565b825250828501518481111561566d57600080fd5b949094019360c0858e03830112156156855760008081fd5b61568d614561565b91508885015182526156a18d848701615454565b8983015260c0850151848111156156b85760008081fd5b6156c68e8b83890101615551565b938301939093528089019190915286525050509183019183016155f9565b6000602082840312156156f657600080fd5b81516001600160401b038082111561570d57600080fd5b90830190610180828603121561572257600080fd5b61572a6144d1565b8251815260208301516020820152604083015160408201526060830151606082015260808301518281111561575e57600080fd5b61576a878286016154b6565b60808301525060a08301518281111561578257600080fd5b61578e87828601615551565b60a08301525060c0830151828111156157a657600080fd5b6157b2878286016155b5565b60c0830152506157c460e0840161542c565b60e082015261010091506157da86838501615454565b91810191909152949350505050565b602081526000612eee6020830184614e91565b60006040828403121561580e57600080fd5b82601f83011261581d57600080fd5b61582561451c565b80604084018581111561583757600080fd5b845b81811015615851578051845260209384019301615839565b509095945050505050565b8060005b600281101561118d578151845260209384019390910190600101615860565b8060005b600481101561118d578151845260209384019390910190600101615883565b61010081016158b1828661585c565b6158be604083018561587f565b6114c660c083018461585c565b608080825284518282018190526000919060209060a0850190828901855b8281101561590f576158fc84835161585c565b60409390930192908401906001016158e9565b5050508481038286015286518082528783019183019060005b8181101561594b5761593b83855161587f565b9284019291850191600101615928565b5050809450505050506114c6604083018461585c565b60006020828403121561597357600080fd5b8151612eee816147f3565b6000604082018483526020604081850152818551808452606086019150828701935060005b81811015615544578451835293830193918301916001016159a3565b6001600160401b03828116828216039080821115614cc757614cc7614c78565b6000826159ee576159ee61539a565b500490565b606081526000615a06606083018661497a565b60208301949094525060400152919050565b600081615a2757615a27614c78565b506000190190565b60008251615a41818460208701614e6d565b919091019291505056fe416464726573733a206c6f772d6c6576656c2064656c65676174652063616c6c206661696c6564a26469706673582212206692123a345a27d9a8df4d2d04be9a63e2328628976ad67b6a2a8bbe47ccfc6064736f6c63430008120033",
    "linkReferences": {
      "src/libraries/BLS.sol": {
        "BLS": [
          {
            "start": 12887,
            "length": 20
          },
          {
            "start": 13253,
            "length": 20
          },
          {
            "start": 13361,
            "length": 20
          },
          {
            "start": 13387,
            "length": 20
          },
          {
            "start": 13894,
            "length": 20
          },
          {
            "start": 14074,
            "length": 20
          },
          {
            "start": 14482,
            "length": 20
          }
        ]
      }
    }
  },
  "methodIdentifiers": {
    "DEFAULT_MINIMUM_THRESHOLD()": "aa81d59a",
    "MAX_CONSUMERS()": "64d51a2a",
    "MAX_REQUEST_CONFIRMATIONS()": "15c48b84",
    "RANDOMNESS_REWARD_GAS()": "8166d459",
    "VERIFICATION_GAS_OVER_MINIMUM_THRESHOLD()": "877d38bb",
    "addConsumer(uint64,address)": "7341c10c",
    "cancelSubscription(uint64,address)": "d7ae1d30",
    "createSubscription()": "a21a23e4",
    "estimatePaymentAmountInETH(uint32,uint32,uint32,uint256)": "9bd8140a",
    "fulfillRandomness(uint32,bytes32,uint256,(uint64,uint32,uint8,bytes,address,uint256,uint16,uint32,uint256,uint256),(uint256,uint256)[])": "caba5284",
    "fundSubscription(uint64)": "dfaba794",
    "getAdapterConfig()": "ef6f4273",
    "getController()": "3018205f",
    "getCumulativeData()": "c725a833",
    "getCurrentSubId()": "06bfa637",
    "getFeeTier(uint64)": "d2f9f9a7",
    "getFlatFeeConfig()": "dcdb7b88",
    "getLastAssignedGroupIndex()": "91a6fe77",
    "getLastRandomness()": "a4c343f2",
    "getLastSubscription(address)": "76a911bc",
    "getPendingRequestCommitment(bytes32)": "1565034c",
    "getRandomnessCount()": "63602174",
    "getReferralConfig()": "1e58a872",
    "getSubscription(uint64)": "a47c7696",
    "initialize(address)": "c4d66de8",
    "nodeWithdrawETH(address,uint256)": "0ad98f6a",
    "owner()": "8da5cb5b",
    "ownerCancelSubscription(uint64)": "02bcc5b6",
    "proxiableUUID()": "52d1902d",
    "removeConsumer(uint64,address)": "9f87fad7",
    "renounceOwnership()": "715018a6",
    "requestRandomness((uint8,bytes,uint64,uint256,uint16,uint32,uint256))": "a39402d7",
    "setAdapterConfig(uint16,uint32,uint32,uint32,uint256,uint256,uint256)": "71b7ca05",
    "setFlatFeeConfig((uint32,uint32,uint32,uint32,uint32,uint24,uint24,uint24,uint24),uint16,bool,uint256,uint256)": "f4cc97fc",
    "setFreeRequestCount(uint64[],uint64[])": "056e5ede",
    "setReferral(uint64,uint64)": "931d9204",
    "setReferralConfig(bool,uint16,uint16)": "f362ca61",
    "transferOwnership(address)": "f2fde38b",
    "upgradeTo(address)": "3659cfe6",
    "upgradeToAndCall(address,bytes)": "4f1ef286"
  },
  "id": 62
}