{"abi":[{"type":"constructor","inputs":[],"stateMutability":"nonpayable"},{"type":"function","name":"addReward","inputs":[{"name":"nodes","type":"address[]","internalType":"address[]"},{"name":"ethAmount","type":"uint256","internalType":"uint256"},{"name":"arpaAmount","type":"uint256","internalType":"uint256"}],"outputs":[],"stateMutability":"nonpayable"},{"type":"function","name":"getBelongingGroup","inputs":[{"name":"nodeAddress","type":"address","internalType":"address"}],"outputs":[{"name":"","type":"int256","internalType":"int256"},{"name":"","type":"int256","internalType":"int256"}],"stateMutability":"view"},{"type":"function","name":"getGroup","inputs":[{"name":"groupIndex","type":"uint256","internalType":"uint256"}],"outputs":[{"name":"","type":"tuple","internalType":"struct IControllerOracle.Group","components":[{"name":"index","type":"uint256","internalType":"uint256"},{"name":"epoch","type":"uint256","internalType":"uint256"},{"name":"size","type":"uint256","internalType":"uint256"},{"name":"threshold","type":"uint256","internalType":"uint256"},{"name":"members","type":"tuple[]","internalType":"struct IControllerOracle.Member[]","components":[{"name":"nodeIdAddress","type":"address","internalType":"address"},{"name":"partialPublicKey","type":"uint256[4]","internalType":"uint256[4]"}]},{"name":"committers","type":"address[]","internalType":"address[]"},{"name":"commitCacheList","type":"tuple[]","internalType":"struct IControllerOracle.CommitCache[]","components":[{"name":"nodeIdAddress","type":"address[]","internalType":"address[]"},{"name":"commitResult","type":"tuple","internalType":"struct IControllerOracle.CommitResult","components":[{"name":"groupEpoch","type":"uint256","internalType":"uint256"},{"name":"publicKey","type":"uint256[4]","internalType":"uint256[4]"},{"name":"disqualifiedNodes","type":"address[]","internalType":"address[]"}]}]},{"name":"isStrictlyMajorityConsensusReached","type":"bool","internalType":"bool"},{"name":"publicKey","type":"uint256[4]","internalType":"uint256[4]"}]}],"stateMutability":"view"},{"type":"function","name":"getGroupCount","inputs":[],"outputs":[{"name":"","type":"uint256","internalType":"uint256"}],"stateMutability":"view"},{"type":"function","name":"getGroupEpoch","inputs":[],"outputs":[{"name":"","type":"uint256","internalType":"uint256"}],"stateMutability":"view"},{"type":"function","name":"getGroupThreshold","inputs":[{"name":"groupIndex","type":"uint256","internalType":"uint256"}],"outputs":[{"name":"","type":"uint256","internalType":"uint256"},{"name":"","type":"uint256","internalType":"uint256"}],"stateMutability":"view"},{"type":"function","name":"getLastOutput","inputs":[],"outputs":[{"name":"","type":"uint256","internalType":"uint256"}],"stateMutability":"view"},{"type":"function","name":"getMember","inputs":[{"name":"groupIndex","type":"uint256","internalType":"uint256"},{"name":"memberIndex","type":"uint256","internalType":"uint256"}],"outputs":[{"name":"","type":"tuple","internalType":"struct IControllerOracle.Member","components":[{"name":"nodeIdAddress","type":"address","internalType":"address"},{"name":"partialPublicKey","type":"uint256[4]","internalType":"uint256[4]"}]}],"stateMutability":"view"},{"type":"function","name":"getNodeWithdrawableTokens","inputs":[{"name":"nodeAddress","type":"address","internalType":"address"}],"outputs":[{"name":"","type":"uint256","internalType":"uint256"},{"name":"","type":"uint256","internalType":"uint256"}],"stateMutability":"view"},{"type":"function","name":"getValidGroupIndices","inputs":[],"outputs":[{"name":"","type":"uint256[]","internalType":"uint256[]"}],"stateMutability":"view"},{"type":"function","name":"initialize","inputs":[{"name":"arpa","type":"address","internalType":"address"},{"name":"l2CrossDomainMessenger","type":"address","internalType":"address"},{"name":"lastOutput","type":"uint256","internalType":"uint256"}],"outputs":[],"stateMutability":"nonpayable"},{"type":"function","name":"nodeWithdraw","inputs":[{"name":"recipient","type":"address","internalType":"address"}],"outputs":[],"stateMutability":"nonpayable"},{"type":"function","name":"owner","inputs":[],"outputs":[{"name":"","type":"address","internalType":"address"}],"stateMutability":"view"},{"type":"function","name":"proxiableUUID","inputs":[],"outputs":[{"name":"","type":"bytes32","internalType":"bytes32"}],"stateMutability":"view"},{"type":"function","name":"renounceOwnership","inputs":[],"outputs":[],"stateMutability":"nonpayable"},{"type":"function","name":"setAdapterContractAddress","inputs":[{"name":"adapterContractAddress","type":"address","internalType":"address"}],"outputs":[],"stateMutability":"nonpayable"},{"type":"function","name":"setChainMessenger","inputs":[{"name":"chainMessenger","type":"address","internalType":"address"}],"outputs":[],"stateMutability":"nonpayable"},{"type":"function","name":"setL2CrossDomainMessenger","inputs":[{"name":"l2CrossDomainMessenger","type":"address","internalType":"address"}],"outputs":[],"stateMutability":"nonpayable"},{"type":"function","name":"setLastOutput","inputs":[{"name":"lastOutput","type":"uint256","internalType":"uint256"}],"outputs":[],"stateMutability":"nonpayable"},{"type":"function","name":"transferOwnership","inputs":[{"name":"newOwner","type":"address","internalType":"address"}],"outputs":[],"stateMutability":"nonpayable"},{"type":"function","name":"updateGroup","inputs":[{"name":"committer","type":"address","internalType":"address"},{"name":"group","type":"tuple","internalType":"struct IControllerOracle.Group","components":[{"name":"index","type":"uint256","internalType":"uint256"},{"name":"epoch","type":"uint256","internalType":"uint256"},{"name":"size","type":"uint256","internalType":"uint256"},{"name":"threshold","type":"uint256","internalType":"uint256"},{"name":"members","type":"tuple[]","internalType":"struct IControllerOracle.Member[]","components":[{"name":"nodeIdAddress","type":"address","internalType":"address"},{"name":"partialPublicKey","type":"uint256[4]","internalType":"uint256[4]"}]},{"name":"committers","type":"address[]","internalType":"address[]"},{"name":"commitCacheList","type":"tuple[]","internalType":"struct IControllerOracle.CommitCache[]","components":[{"name":"nodeIdAddress","type":"address[]","internalType":"address[]"},{"name":"commitResult","type":"tuple","internalType":"struct IControllerOracle.CommitResult","components":[{"name":"groupEpoch","type":"uint256","internalType":"uint256"},{"name":"publicKey","type":"uint256[4]","internalType":"uint256[4]"},{"name":"disqualifiedNodes","type":"address[]","internalType":"address[]"}]}]},{"name":"isStrictlyMajorityConsensusReached","type":"bool","internalType":"bool"},{"name":"publicKey","type":"uint256[4]","internalType":"uint256[4]"}]}],"outputs":[],"stateMutability":"nonpayable"},{"type":"function","name":"upgradeTo","inputs":[{"name":"newImplementation","type":"address","internalType":"address"}],"outputs":[],"stateMutability":"nonpayable"},{"type":"function","name":"upgradeToAndCall","inputs":[{"name":"newImplementation","type":"address","internalType":"address"},{"name":"data","type":"bytes","internalType":"bytes"}],"outputs":[],"stateMutability":"payable"},{"type":"event","name":"AdminChanged","inputs":[{"name":"previousAdmin","type":"address","indexed":false,"internalType":"address"},{"name":"newAdmin","type":"address","indexed":false,"internalType":"address"}],"anonymous":false},{"type":"event","name":"BeaconUpgraded","inputs":[{"name":"beacon","type":"address","indexed":true,"internalType":"address"}],"anonymous":false},{"type":"event","name":"GroupUpdated","inputs":[{"name":"epoch","type":"uint256","indexed":false,"internalType":"uint256"},{"name":"groupIndex","type":"uint256","indexed":true,"internalType":"uint256"},{"name":"groupEpoch","type":"uint256","indexed":true,"internalType":"uint256"},{"name":"committer","type":"address","indexed":true,"internalType":"address"}],"anonymous":false},{"type":"event","name":"Initialized","inputs":[{"name":"version","type":"uint8","indexed":false,"internalType":"uint8"}],"anonymous":false},{"type":"event","name":"NodeRewarded","inputs":[{"name":"nodeAddress","type":"address","indexed":true,"internalType":"address"},{"name":"ethAmount","type":"uint256","indexed":false,"internalType":"uint256"},{"name":"arpaAmount","type":"uint256","indexed":false,"internalType":"uint256"}],"anonymous":false},{"type":"event","name":"OwnershipTransferred","inputs":[{"name":"previousOwner","type":"address","indexed":true,"internalType":"address"},{"name":"newOwner","type":"address","indexed":true,"internalType":"address"}],"anonymous":false},{"type":"event","name":"Upgraded","inputs":[{"name":"implementation","type":"address","indexed":true,"internalType":"address"}],"anonymous":false},{"type":"error","name":"GroupObsolete","inputs":[{"name":"groupIndex","type":"uint256","internalType":"uint256"},{"name":"relayedGroupEpoch","type":"uint256","internalType":"uint256"},{"name":"currentGroupEpoch","type":"uint256","internalType":"uint256"}]},{"type":"error","name":"InvalidZeroAddress","inputs":[]},{"type":"error","name":"SenderNotAdapter","inputs":[]},{"type":"error","name":"SenderNotChainMessenger","inputs":[]}],"bytecode":{"object":"0x60a0604052306080523480156200001557600080fd5b506200002062000026565b620000e7565b600054610100900460ff1615620000935760405162461bcd60e51b815260206004820152602760248201527f496e697469616c697a61626c653a20636f6e747261637420697320696e697469604482015266616c697a696e6760c81b606482015260840160405180910390fd5b60005460ff90811614620000e5576000805460ff191660ff9081179091556040519081527f7f26b83ff96e1f2b6a682f133852f6798a09c465da95921460cefb38474024989060200160405180910390a15b565b608051612fef6200011f6000396000818161066c015281816106ac01528181610bc801528181610c080152610c9b0152612fef6000f3fe6080604052600436106101705760003560e01c806351a2b9a0116100d6578063914eb34d1161007f578063f2fde38b11610059578063f2fde38b146103fb578063f3df08021461041b578063f49e0ba91461043b57600080fd5b8063914eb34d1461038c578063b330a0fd146103ac578063ceb60654146103ce57600080fd5b8063715018a6116100b0578063715018a61461033a5780637ee49cfd1461034f5780638da5cb5b1461036457600080fd5b806351a2b9a0146102f057806352d1902d1461030557806353d615f81461031a57600080fd5b80634897a730116101385780634d79a893116101125780634d79a893146102905780634ecea80d146102bd5780634f1ef286146102dd57600080fd5b80634897a7301461023057806349b08896146102505780634bc4447b1461027057600080fd5b806306545a93146101755780631794bb3c14610199578063227d0f46146101bb5780633659cfe6146101f05780633b6c00b014610210575b600080fd5b34801561018157600080fd5b5060d0545b6040519081526020015b60405180910390f35b3480156101a557600080fd5b506101b96101b43660046124c0565b610473565b005b3480156101c757600080fd5b506101db6101d6366004612501565b6105c1565b60408051928352602083019190915201610190565b3480156101fc57600080fd5b506101b961020b366004612501565b610662565b34801561021c57600080fd5b506101db61022b366004612501565b610741565b34801561023c57600080fd5b506101b961024b366004612501565b610792565b34801561025c57600080fd5b506101b961026b3660046128c4565b6107e3565b34801561027c57600080fd5b506101b961028b366004612501565b6109b1565b34801561029c57600080fd5b506102b06102ab3660046129dd565b610a02565b6040516101909190612a41565b3480156102c957600080fd5b506101b96102d8366004612501565b610a99565b6101b96102eb366004612a4f565b610bbe565b3480156102fc57600080fd5b5060d554610186565b34801561031157600080fd5b50610186610c8e565b34801561032657600080fd5b506101b9610335366004612501565b610d41565b34801561034657600080fd5b506101b9610d92565b34801561035b57600080fd5b5060cf54610186565b34801561037057600080fd5b506097546040516001600160a01b039091168152602001610190565b34801561039857600080fd5b506101b96103a7366004612af7565b610da6565b3480156103b857600080fd5b506103c1610efe565b6040516101909190612b45565b3480156103da57600080fd5b506103ee6103e9366004612b89565b6112b7565b6040516101909190612cb1565b34801561040757600080fd5b506101b9610416366004612501565b6115c6565b34801561042757600080fd5b506101b9610436366004612b89565b61163c565b34801561044757600080fd5b506101db610456366004612b89565b600090815260d16020526040902060038101546002909101549091565b600054610100900460ff16158080156104935750600054600160ff909116105b806104ad5750303b1580156104ad575060005460ff166001145b6105155760405162461bcd60e51b815260206004820152602e60248201527f496e697469616c697a61626c653a20636f6e747261637420697320616c72656160448201526d191e481a5b9a5d1a585b1a5e995960921b60648201526084015b60405180910390fd5b6000805460ff191660011790558015610538576000805461ff0019166101001790555b60c980546001600160a01b038087166001600160a01b03199283161790925560cb80549286169290911691909117905560d582905561057561166c565b80156105bb576000805461ff0019169055604051600181527f7f26b83ff96e1f2b6a682f133852f6798a09c465da95921460cefb38474024989060200160405180910390a15b50505050565b6001600160a01b038116600090815260cd602052604081205481901561060b576001600160a01b038316600090815260cd602052604090205461060690600190612d74565b61060e565b60005b6001600160a01b038416600090815260ce602052604090205415610656576001600160a01b038416600090815260ce602052604090205461065190600190612d74565b610659565b60005b91509150915091565b6001600160a01b037f00000000000000000000000000000000000000000000000000000000000000001630036106aa5760405162461bcd60e51b815260040161050c90612d87565b7f00000000000000000000000000000000000000000000000000000000000000006001600160a01b03166106f3600080516020612f73833981519152546001600160a01b031690565b6001600160a01b0316146107195760405162461bcd60e51b815260040161050c90612dd3565b6107228161169b565b6040805160008082526020820190925261073e918391906116a3565b50565b60008060005b60d05481101561078557600061075d828661180e565b90508060001914610772579094909350915050565b508061077d81612e1f565b915050610747565b5060001993849350915050565b61079a611b82565b6001600160a01b0381166107c15760405163f6b2911f60e01b815260040160405180910390fd5b60cc80546001600160a01b0319166001600160a01b0392909216919091179055565b6097546001600160a01b0316331480159061088f575060cb546001600160a01b03163314158061088f575060ca5460cb5460408051636e296e4560e01b815290516001600160a01b039384169390921691636e296e45916004808201926020929091908290030181865afa15801561085f573d6000803e3d6000fd5b505050506040513d601f19601f820116820180604052508101906108839190612e38565b6001600160a01b031614155b156108ad57604051630ba6b4d160e31b815260040160405180910390fd5b8051600081815260d16020908152604090912060010154908301511161091257602082810151600083815260d190925260409182902060010154915163699745e360e01b8152600481018490526024810191909152604481019190915260640161050c565b60cf805490600061092283612e1f565b9091555050600081815260d1602052604081206001015490036109555760d0805490600061094f83612e1f565b91905055505b61095e82611bdc565b826001600160a01b03168260200151827f086df69ece965de938d49c9d0eca0f14e39b9d5b178e0358d27ef0fdde2672f860cf600001546040516109a491815260200190565b60405180910390a4505050565b6109b9611b82565b6001600160a01b0381166109e05760405163f6b2911f60e01b815260040160405180910390fd5b60cb80546001600160a01b0319166001600160a01b0392909216919091179055565b610a0a612314565b600083815260d160205260409020600401805483908110610a2d57610a2d612e55565b6000918252602091829020604080518082018252600590930290910180546001600160a01b0316835281516080810190925291928301906001830160048282826020028201915b815481526020019060010190808311610a745750505050508152505090505b92915050565b6001600160a01b038116610ac05760405163f6b2911f60e01b815260040160405180910390fd5b33600090815260cd602090815260408083205460ce909252909120546001811115610b1d5733600090815260ce60205260409020600190819055610b1d908490610b0a9084612d74565b60c9546001600160a01b03169190611d91565b6001821115610bb95733600090815260cd6020526040902060019081905560cc546001600160a01b031690630ad98f6a908590610b5a9086612d74565b6040516001600160e01b031960e085901b1681526001600160a01b0390921660048301526024820152604401600060405180830381600087803b158015610ba057600080fd5b505af1158015610bb4573d6000803e3d6000fd5b505050505b505050565b6001600160a01b037f0000000000000000000000000000000000000000000000000000000000000000163003610c065760405162461bcd60e51b815260040161050c90612d87565b7f00000000000000000000000000000000000000000000000000000000000000006001600160a01b0316610c4f600080516020612f73833981519152546001600160a01b031690565b6001600160a01b031614610c755760405162461bcd60e51b815260040161050c90612dd3565b610c7e8261169b565b610c8a828260016116a3565b5050565b6000306001600160a01b037f00000000000000000000000000000000000000000000000000000000000000001614610d2e5760405162461bcd60e51b815260206004820152603860248201527f555550535570677261646561626c653a206d757374206e6f742062652063616c60448201527f6c6564207468726f7567682064656c656761746563616c6c0000000000000000606482015260840161050c565b50600080516020612f7383398151915290565b610d49611b82565b6001600160a01b038116610d705760405163f6b2911f60e01b815260040160405180910390fd5b60ca80546001600160a01b0319166001600160a01b0392909216919091179055565b610d9a611b82565b610da46000611de3565b565b60cc546001600160a01b03163314610dd15760405163469666c560e01b815260040160405180910390fd5b60005b83518110156105bb578260cd6000868481518110610df457610df4612e55565b60200260200101516001600160a01b03166001600160a01b031681526020019081526020016000206000828254610e2b9190612e6b565b925050819055508160ce6000868481518110610e4957610e49612e55565b60200260200101516001600160a01b03166001600160a01b031681526020019081526020016000206000828254610e809190612e6b565b92505081905550838181518110610e9957610e99612e55565b60200260200101516001600160a01b03167f8353a804115421789f3ab2eeb3f5215943906ce12100c91d40fc865caf742b6f8484604051610ee4929190918252602082015260400190565b60405180910390a280610ef681612e1f565b915050610dd4565b6060600060cf6001015467ffffffffffffffff811115610f2057610f2061251e565b604051908082528060200260200182016040528015610f49578160200160208202803683370190505b5090506000805b60d0548110156112a557600081815260d1602090815260408083208151610120810183528154815260018201548185015260028201548184015260038201546060820152600482018054845181870281018701909552808552919492936080860193909290879084015b828210156110335760008481526020908190206040805180820182526005860290920180546001600160a01b0316835281516080810190925291928301906001830160048282826020028201915b8154815260200190600101908083116110085750505050508152505081526020019060010190610fba565b5050505081526020016005820180548060200260200160405190810160405280929190818152602001828054801561109457602002820191906000526020600020905b81546001600160a01b03168152600190910190602001808311611076575b5050505050815260200160068201805480602002602001604051908101604052809291908181526020016000905b8282101561120b57838290600052602060002090600702016040518060400160405290816000820180548060200260200160405190810160405280929190818152602001828054801561113e57602002820191906000526020600020905b81546001600160a01b03168152600190910190602001808311611120575b50505091835250506040805160608101825260018401805482528251608081019384905260209485019492939192840191600287019060049082845b81548152602001906001019080831161117a5750505050508152602001600582018054806020026020016040519081016040528092919081815260200182805480156111ef57602002820191906000526020600020905b81546001600160a01b031681526001909101906020018083116111d1575b50505050508152505081525050815260200190600101906110c2565b50505090825250600782015460ff1615156020820152604080516080810182529101906008830160048282826020028201915b81548152602001906001019080831161123e5750505050508152505090508060e0015115611292578184848151811061127957611279612e55565b60209081029190910101528261128e81612e1f565b9350505b508061129d81612e1f565b915050610f50565b506112b08282611e35565b9250505090565b6112bf61233c565b600082815260d1602090815260408083208151610120810183528154815260018201548185015260028201548184015260038201546060820152600482018054845181870281018701909552808552919592946080870194939192919084015b828210156113985760008481526020908190206040805180820182526005860290920180546001600160a01b0316835281516080810190925291928301906001830160048282826020028201915b81548152602001906001019080831161136d575050505050815250508152602001906001019061131f565b505050508152602001600582018054806020026020016040519081016040528092919081815260200182805480156113f957602002820191906000526020600020905b81546001600160a01b031681526001909101906020018083116113db575b5050505050815260200160068201805480602002602001604051908101604052809291908181526020016000905b828210156115705783829060005260206000209060070201604051806040016040529081600082018054806020026020016040519081016040528092919081815260200182805480156114a357602002820191906000526020600020905b81546001600160a01b03168152600190910190602001808311611485575b50505091835250506040805160608101825260018401805482528251608081019384905260209485019492939192840191600287019060049082845b8154815260200190600101908083116114df57505050505081526020016005820180548060200260200160405190810160405280929190818152602001828054801561155457602002820191906000526020600020905b81546001600160a01b03168152600190910190602001808311611536575b5050505050815250508152505081526020019060010190611427565b50505090825250600782015460ff1615156020820152604080516080810182529101906008830160048282826020028201915b8154815260200190600101908083116115a3575050505050815250509050919050565b6115ce611b82565b6001600160a01b0381166116335760405162461bcd60e51b815260206004820152602660248201527f4f776e61626c653a206e6577206f776e657220697320746865207a65726f206160448201526564647265737360d01b606482015260840161050c565b61073e81611de3565b60cc546001600160a01b031633146116675760405163469666c560e01b815260040160405180910390fd5b60d555565b600054610100900460ff166116935760405162461bcd60e51b815260040161050c90612e7e565b610da4611eda565b61073e611b82565b7f4910fdfa16fed3260ed0e7147f7cc6da11a60208b5b9406d12a635614ffd91435460ff16156116d657610bb983611f0a565b826001600160a01b03166352d1902d6040518163ffffffff1660e01b8152600401602060405180830381865afa925050508015611730575060408051601f3d908101601f1916820190925261172d91810190612ec9565b60015b6117935760405162461bcd60e51b815260206004820152602e60248201527f45524331393637557067726164653a206e657720696d706c656d656e7461746960448201526d6f6e206973206e6f74205555505360901b606482015260840161050c565b600080516020612f7383398151915281146118025760405162461bcd60e51b815260206004820152602960248201527f45524331393637557067726164653a20756e737570706f727465642070726f786044820152681a58589b195555525160ba1b606482015260840161050c565b50610bb9838383611fa6565b600082815260d160209081526040808320815161012081018352815481526001820154818501526002820154818401526003820154606082015260048201805484518187028101870190955280855286959294608086019390929190879084015b828210156118e85760008481526020908190206040805180820182526005860290920180546001600160a01b0316835281516080810190925291928301906001830160048282826020028201915b8154815260200190600101908083116118bd575050505050815250508152602001906001019061186f565b5050505081526020016005820180548060200260200160405190810160405280929190818152602001828054801561194957602002820191906000526020600020905b81546001600160a01b0316815260019091019060200180831161192b575b5050505050815260200160068201805480602002602001604051908101604052809291908181526020016000905b82821015611ac05783829060005260206000209060070201604051806040016040529081600082018054806020026020016040519081016040528092919081815260200182805480156119f357602002820191906000526020600020905b81546001600160a01b031681526001909101906020018083116119d5575b50505091835250506040805160608101825260018401805482528251608081019384905260209485019492939192840191600287019060049082845b815481526020019060010190808311611a2f575050505050815260200160058201805480602002602001604051908101604052809291908181526020018280548015611aa457602002820191906000526020600020905b81546001600160a01b03168152600190910190602001808311611a86575b5050505050815250508152505081526020019060010190611977565b50505090825250600782015460ff1615156020820152604080516080810182529101906008830160048282826020028201915b815481526020019060010190808311611af357505050505081525050905060005b816080015151811015611b7657836001600160a01b031682608001518281518110611b4157611b41612e55565b6020026020010151600001516001600160a01b031603611b64579150610a939050565b80611b6e81612e1f565b915050611b14565b50600019949350505050565b6097546001600160a01b03163314610da45760405162461bcd60e51b815260206004820181905260248201527f4f776e61626c653a2063616c6c6572206973206e6f7420746865206f776e6572604482015260640161050c565b8051600090815260d1602090815260408083208451815591840151600183015560608401516003830155830151600282015560e083015160078201805460ff191691151591909117905590611c3590600483019061238a565b60005b8260400151811015611d5e57600083608001518281518110611c5c57611c5c612e55565b60200260200101516000015190508260040184608001518381518110611c8457611c84612e55565b602090810291909101810151825460018082018555600094855293839020825160059092020180546001600160a01b0319166001600160a01b03909216919091178155918101519092611cdc919083019060046123ab565b5050506001600160a01b038116600090815260cd6020526040902054158015611d1b57506001600160a01b038116600090815260ce6020526040902054155b15611d4b576001600160a01b038116600090815260cd6020908152604080832060019081905560ce909252909120555b5080611d5681612e1f565b915050611c38565b5060a08201518051611d7a9160058401916020909101906123e9565b50610100820151610bb990600883019060046123ab565b604080516001600160a01b038416602482015260448082018490528251808303909101815260649091019091526020810180516001600160e01b031663a9059cbb60e01b179052610bb9908490611fcb565b609780546001600160a01b038381166001600160a01b0319831681179093556040519116919082907f8be0079c531659141344cd1fd0a4f28419497f9722a3daafe3b4186f6b6457e090600090a35050565b606060008267ffffffffffffffff811115611e5257611e5261251e565b604051908082528060200260200182016040528015611e7b578160200160208202803683370190505b50905060005b83811015611ed257848181518110611e9b57611e9b612e55565b6020026020010151828281518110611eb557611eb5612e55565b602090810291909101015280611eca81612e1f565b915050611e81565b509392505050565b600054610100900460ff16611f015760405162461bcd60e51b815260040161050c90612e7e565b610da433611de3565b6001600160a01b0381163b611f775760405162461bcd60e51b815260206004820152602d60248201527f455243313936373a206e657720696d706c656d656e746174696f6e206973206e60448201526c1bdd08184818dbdb9d1c9858dd609a1b606482015260840161050c565b600080516020612f7383398151915280546001600160a01b0319166001600160a01b0392909216919091179055565b611faf836120a0565b600082511180611fbc5750805b15610bb9576105bb83836120e0565b6000612020826040518060400160405280602081526020017f5361666545524332303a206c6f772d6c6576656c2063616c6c206661696c6564815250856001600160a01b031661210c9092919063ffffffff16565b90508051600014806120415750808060200190518101906120419190612ee2565b610bb95760405162461bcd60e51b815260206004820152602a60248201527f5361666545524332303a204552433230206f7065726174696f6e20646964206e6044820152691bdd081cdd58d8d9595960b21b606482015260840161050c565b6120a981611f0a565b6040516001600160a01b038216907fbc7cd75a20ee27fd9adebab32041f755214dbc6bffa90cc0225b39da2e5c2d3b90600090a250565b60606121058383604051806060016040528060278152602001612f9360279139612123565b9392505050565b606061211b848460008561219b565b949350505050565b6060600080856001600160a01b0316856040516121409190612f23565b600060405180830381855af49150503d806000811461217b576040519150601f19603f3d011682016040523d82523d6000602084013e612180565b606091505b509150915061219186838387612276565b9695505050505050565b6060824710156121fc5760405162461bcd60e51b815260206004820152602660248201527f416464726573733a20696e73756666696369656e742062616c616e636520666f6044820152651c8818d85b1b60d21b606482015260840161050c565b600080866001600160a01b031685876040516122189190612f23565b60006040518083038185875af1925050503d8060008114612255576040519150601f19603f3d011682016040523d82523d6000602084013e61225a565b606091505b509150915061226b87838387612276565b979650505050505050565b606083156122e55782516000036122de576001600160a01b0385163b6122de5760405162461bcd60e51b815260206004820152601d60248201527f416464726573733a2063616c6c20746f206e6f6e2d636f6e7472616374000000604482015260640161050c565b508161211b565b61211b83838151156122fa5781518083602001fd5b8060405162461bcd60e51b815260040161050c9190612f3f565b604051806040016040528060006001600160a01b0316815260200161233761243e565b905290565b6040518061012001604052806000815260200160008152602001600081526020016000815260200160608152602001606081526020016060815260200160001515815260200161233761243e565b508054600082556005029060005260206000209081019061073e919061245c565b82600481019282156123d9579160200282015b828111156123d95782518255916020019190600101906123be565b506123e5929150612496565b5090565b8280548282559060005260206000209081019282156123d9579160200282015b828111156123d957825182546001600160a01b0319166001600160a01b03909116178255602090920191600190910190612409565b60405180608001604052806004906020820280368337509192915050565b808211156123e55780546001600160a01b03191681556000600182018190556002820181905560038201819055600482015560050161245c565b5b808211156123e55760008155600101612497565b6001600160a01b038116811461073e57600080fd5b6000806000606084860312156124d557600080fd5b83356124e0816124ab565b925060208401356124f0816124ab565b929592945050506040919091013590565b60006020828403121561251357600080fd5b8135612105816124ab565b634e487b7160e01b600052604160045260246000fd5b6040805190810167ffffffffffffffff811182821017156125575761255761251e565b60405290565b6040516060810167ffffffffffffffff811182821017156125575761255761251e565b604051610120810167ffffffffffffffff811182821017156125575761255761251e565b604051601f8201601f1916810167ffffffffffffffff811182821017156125cd576125cd61251e565b604052919050565b600067ffffffffffffffff8211156125ef576125ef61251e565b5060051b60200190565b600082601f83011261260a57600080fd5b6040516080810181811067ffffffffffffffff8211171561262d5761262d61251e565b60405280608084018581111561264257600080fd5b845b8181101561265c578035835260209283019201612644565b509195945050505050565b600082601f83011261267857600080fd5b8135602061268d612688836125d5565b6125a4565b82815260a092830285018201928282019190878511156126ac57600080fd5b8387015b858110156126fa5781818a0312156126c85760008081fd5b6126d0612534565b81356126db816124ab565b81526126e98a8388016125f9565b8187015284529284019281016126b0565b5090979650505050505050565b600082601f83011261271857600080fd5b81356020612728612688836125d5565b82815260059290921b8401810191818101908684111561274757600080fd5b8286015b8481101561276b57803561275e816124ab565b835291830191830161274b565b509695505050505050565b600082601f83011261278757600080fd5b81356020612797612688836125d5565b82815260059290921b840181019181810190868411156127b657600080fd5b8286015b8481101561276b57803567ffffffffffffffff808211156127da57600080fd5b908801906040601f19838c0381018213156127f457600080fd5b6127fc612534565b888501358481111561280d57600080fd5b61281b8e8b83890101612707565b825250828501358481111561282f57600080fd5b949094019360c0858e03830112156128475760008081fd5b61284f61255d565b91508885013582526128638d8487016125f9565b8983015260c08501358481111561287a5760008081fd5b6128888e8b83890101612707565b938301939093528089019190915286525050509183019183016127ba565b801515811461073e57600080fd5b80356128bf816128a6565b919050565b600080604083850312156128d757600080fd5b82356128e2816124ab565b9150602083013567ffffffffffffffff808211156128ff57600080fd5b90840190610180828703121561291457600080fd5b61291c612580565b8235815260208301356020820152604083013560408201526060830135606082015260808301358281111561295057600080fd5b61295c88828601612667565b60808301525060a08301358281111561297457600080fd5b61298088828601612707565b60a08301525060c08301358281111561299857600080fd5b6129a488828601612776565b60c0830152506129b660e084016128b4565b60e082015261010091506129cc878385016125f9565b828201528093505050509250929050565b600080604083850312156129f057600080fd5b50508035926020909101359150565b8060005b60048110156105bb578151845260209384019390910190600101612a03565b6001600160a01b0381511682526020810151610bb960208401826129ff565b60a08101610a938284612a22565b60008060408385031215612a6257600080fd5b8235612a6d816124ab565b915060208381013567ffffffffffffffff80821115612a8b57600080fd5b818601915086601f830112612a9f57600080fd5b813581811115612ab157612ab161251e565b612ac3601f8201601f191685016125a4565b91508082528784828501011115612ad957600080fd5b80848401858401376000848284010152508093505050509250929050565b600080600060608486031215612b0c57600080fd5b833567ffffffffffffffff811115612b2357600080fd5b612b2f86828701612707565b9660208601359650604090950135949350505050565b6020808252825182820181905260009190848201906040850190845b81811015612b7d57835183529284019291840191600101612b61565b50909695505050505050565b600060208284031215612b9b57600080fd5b5035919050565b600081518084526020808501945080840160005b83811015612bdc57612bc9878351612a22565b60a0969096019590820190600101612bb6565b509495945050505050565b600081518084526020808501945080840160005b83811015612bdc5781516001600160a01b031687529582019590820190600101612bfb565b6000815180845260208085019450848260051b860182860160005b858110156126fa578383038952815160408151818652612c5d82870182612be7565b90508783015192508581038887015260c08351825288840151612c828a8401826129ff565b508284015193508060a0830152612c9b81830185612be7565b9c89019c96505050928601925050600101612c3b565b60208152815160208201526020820151604082015260408201516060820152606082015160808201526000608083015161018060a0840152612cf76101a0840182612ba2565b905060a0840151601f19808584030160c0860152612d158383612be7565b925060c08601519150808584030160e086015250612d338282612c20565b91505060e0840151610100612d4b8186018315159052565b8501519050611ed26101208501826129ff565b634e487b7160e01b600052601160045260246000fd5b81810381811115610a9357610a93612d5e565b6020808252602c908201527f46756e6374696f6e206d7573742062652063616c6c6564207468726f7567682060408201526b19195b1959d85d1958d85b1b60a21b606082015260800190565b6020808252602c908201527f46756e6374696f6e206d7573742062652063616c6c6564207468726f7567682060408201526b6163746976652070726f787960a01b606082015260800190565b600060018201612e3157612e31612d5e565b5060010190565b600060208284031215612e4a57600080fd5b8151612105816124ab565b634e487b7160e01b600052603260045260246000fd5b80820180821115610a9357610a93612d5e565b6020808252602b908201527f496e697469616c697a61626c653a20636f6e7472616374206973206e6f74206960408201526a6e697469616c697a696e6760a81b606082015260800190565b600060208284031215612edb57600080fd5b5051919050565b600060208284031215612ef457600080fd5b8151612105816128a6565b60005b83811015612f1a578181015183820152602001612f02565b50506000910152565b60008251612f35818460208701612eff565b9190910192915050565b6020815260008251806020840152612f5e816040850160208701612eff565b601f01601f1916919091016040019291505056fe360894a13ba1a3210667c828492db98dca3e2076cc3735a920a3ca505d382bbc416464726573733a206c6f772d6c6576656c2064656c65676174652063616c6c206661696c6564a264697066735822122099d284ae423d811c2b95a9b2d2f6841fe3d9dd4af16fe665311a4c830a99a1f164736f6c63430008120033","linkReferences":{}},"methodIdentifiers":{"addReward(address[],uint256,uint256)":"914eb34d","getBelongingGroup(address)":"3b6c00b0","getGroup(uint256)":"ceb60654","getGroupCount()":"06545a93","getGroupEpoch()":"7ee49cfd","getGroupThreshold(uint256)":"f49e0ba9","getLastOutput()":"51a2b9a0","getMember(uint256,uint256)":"4d79a893","getNodeWithdrawableTokens(address)":"227d0f46","getValidGroupIndices()":"b330a0fd","initialize(address,address,uint256)":"1794bb3c","nodeWithdraw(address)":"4ecea80d","owner()":"8da5cb5b","proxiableUUID()":"52d1902d","renounceOwnership()":"715018a6","setAdapterContractAddress(address)":"4897a730","setChainMessenger(address)":"53d615f8","setL2CrossDomainMessenger(address)":"4bc4447b","setLastOutput(uint256)":"f3df0802","transferOwnership(address)":"f2fde38b","updateGroup(address,(uint256,uint256,uint256,uint256,(address,uint256[4])[],address[],(address[],(uint256,uint256[4],address[]))[],bool,uint256[4]))":"49b08896","upgradeTo(address)":"3659cfe6","upgradeToAndCall(address,bytes)":"4f1ef286"},"id":70}