{
  "abi": [
    {
      "inputs": [
        {
          "internalType": "uint256",
          "name": "groupIndex",
          "type": "uint256"
        },
        {
          "internalType": "uint256",
          "name": "relayedGroupEpoch",
          "type": "uint256"
        },
        {
          "internalType": "uint256",
          "name": "currentGroupEpoch",
          "type": "uint256"
        }
      ],
      "name": "GroupObsolete",
      "type": "error"
    },
    {
      "inputs": [],
      "name": "InvalidZeroAddress",
      "type": "error"
    },
    {
      "inputs": [],
      "name": "SenderNotAdapter",
      "type": "error"
    },
    {
      "inputs": [],
      "name": "SenderNotChainMessenger",
      "type": "error"
    },
    {
      "anonymous": false,
      "inputs": [
        {
          "indexed": false,
          "internalType": "uint256",
          "name": "epoch",
          "type": "uint256"
        },
        {
          "indexed": true,
          "internalType": "uint256",
          "name": "groupIndex",
          "type": "uint256"
        },
        {
          "indexed": true,
          "internalType": "uint256",
          "name": "groupEpoch",
          "type": "uint256"
        },
        {
          "indexed": true,
          "internalType": "address",
          "name": "committer",
          "type": "address"
        }
      ],
      "name": "GroupUpdated",
      "type": "event"
    },
    {
      "anonymous": false,
      "inputs": [
        {
          "indexed": false,
          "internalType": "uint8",
          "name": "version",
          "type": "uint8"
        }
      ],
      "name": "Initialized",
      "type": "event"
    },
    {
      "anonymous": false,
      "inputs": [
        {
          "indexed": true,
          "internalType": "address",
          "name": "nodeAddress",
          "type": "address"
        },
        {
          "indexed": false,
          "internalType": "uint256",
          "name": "ethAmount",
          "type": "uint256"
        },
        {
          "indexed": false,
          "internalType": "uint256",
          "name": "arpaAmount",
          "type": "uint256"
        }
      ],
      "name": "NodeRewarded",
      "type": "event"
    },
    {
      "anonymous": false,
      "inputs": [
        {
          "indexed": true,
          "internalType": "address",
          "name": "previousOwner",
          "type": "address"
        },
        {
          "indexed": true,
          "internalType": "address",
          "name": "newOwner",
          "type": "address"
        }
      ],
      "name": "OwnershipTransferred",
      "type": "event"
    },
    {
      "inputs": [
        {
          "internalType": "address[]",
          "name": "nodes",
          "type": "address[]"
        },
        {
          "internalType": "uint256",
          "name": "ethAmount",
          "type": "uint256"
        },
        {
          "internalType": "uint256",
          "name": "arpaAmount",
          "type": "uint256"
        }
      ],
      "name": "addReward",
      "outputs": [],
      "stateMutability": "nonpayable",
      "type": "function"
    },
    {
      "inputs": [
        {
          "internalType": "address",
          "name": "nodeAddress",
          "type": "address"
        }
      ],
      "name": "getBelongingGroup",
      "outputs": [
        {
          "internalType": "int256",
          "name": "",
          "type": "int256"
        },
        {
          "internalType": "int256",
          "name": "",
          "type": "int256"
        }
      ],
      "stateMutability": "view",
      "type": "function"
    },
    {
      "inputs": [
        {
          "internalType": "uint256",
          "name": "groupIndex",
          "type": "uint256"
        }
      ],
      "name": "getGroup",
      "outputs": [
        {
          "components": [
            {
              "internalType": "uint256",
              "name": "index",
              "type": "uint256"
            },
            {
              "internalType": "uint256",
              "name": "epoch",
              "type": "uint256"
            },
            {
              "internalType": "uint256",
              "name": "size",
              "type": "uint256"
            },
            {
              "internalType": "uint256",
              "name": "threshold",
              "type": "uint256"
            },
            {
              "components": [
                {
                  "internalType": "address",
                  "name": "nodeIdAddress",
                  "type": "address"
                },
                {
                  "internalType": "uint256[4]",
                  "name": "partialPublicKey",
                  "type": "uint256[4]"
                }
              ],
              "internalType": "struct IControllerOracle.Member[]",
              "name": "members",
              "type": "tuple[]"
            },
            {
              "internalType": "address[]",
              "name": "committers",
              "type": "address[]"
            },
            {
              "components": [
                {
                  "internalType": "address[]",
                  "name": "nodeIdAddress",
                  "type": "address[]"
                },
                {
                  "components": [
                    {
                      "internalType": "uint256",
                      "name": "groupEpoch",
                      "type": "uint256"
                    },
                    {
                      "internalType": "uint256[4]",
                      "name": "publicKey",
                      "type": "uint256[4]"
                    },
                    {
                      "internalType": "address[]",
                      "name": "disqualifiedNodes",
                      "type": "address[]"
                    }
                  ],
                  "internalType": "struct IControllerOracle.CommitResult",
                  "name": "commitResult",
                  "type": "tuple"
                }
              ],
              "internalType": "struct IControllerOracle.CommitCache[]",
              "name": "commitCacheList",
              "type": "tuple[]"
            },
            {
              "internalType": "bool",
              "name": "isStrictlyMajorityConsensusReached",
              "type": "bool"
            },
            {
              "internalType": "uint256[4]",
              "name": "publicKey",
              "type": "uint256[4]"
            }
          ],
          "internalType": "struct IControllerOracle.Group",
          "name": "",
          "type": "tuple"
        }
      ],
      "stateMutability": "view",
      "type": "function"
    },
    {
      "inputs": [],
      "name": "getGroupCount",
      "outputs": [
        {
          "internalType": "uint256",
          "name": "",
          "type": "uint256"
        }
      ],
      "stateMutability": "view",
      "type": "function"
    },
    {
      "inputs": [],
      "name": "getGroupEpoch",
      "outputs": [
        {
          "internalType": "uint256",
          "name": "",
          "type": "uint256"
        }
      ],
      "stateMutability": "view",
      "type": "function"
    },
    {
      "inputs": [
        {
          "internalType": "uint256",
          "name": "groupIndex",
          "type": "uint256"
        }
      ],
      "name": "getGroupThreshold",
      "outputs": [
        {
          "internalType": "uint256",
          "name": "",
          "type": "uint256"
        },
        {
          "internalType": "uint256",
          "name": "",
          "type": "uint256"
        }
      ],
      "stateMutability": "view",
      "type": "function"
    },
    {
      "inputs": [],
      "name": "getLastOutput",
      "outputs": [
        {
          "internalType": "uint256",
          "name": "",
          "type": "uint256"
        }
      ],
      "stateMutability": "view",
      "type": "function"
    },
    {
      "inputs": [
        {
          "internalType": "uint256",
          "name": "groupIndex",
          "type": "uint256"
        },
        {
          "internalType": "uint256",
          "name": "memberIndex",
          "type": "uint256"
        }
      ],
      "name": "getMember",
      "outputs": [
        {
          "components": [
            {
              "internalType": "address",
              "name": "nodeIdAddress",
              "type": "address"
            },
            {
              "internalType": "uint256[4]",
              "name": "partialPublicKey",
              "type": "uint256[4]"
            }
          ],
          "internalType": "struct IControllerOracle.Member",
          "name": "",
          "type": "tuple"
        }
      ],
      "stateMutability": "view",
      "type": "function"
    },
    {
      "inputs": [
        {
          "internalType": "address",
          "name": "nodeAddress",
          "type": "address"
        }
      ],
      "name": "getNodeWithdrawableTokens",
      "outputs": [
        {
          "internalType": "uint256",
          "name": "",
          "type": "uint256"
        },
        {
          "internalType": "uint256",
          "name": "",
          "type": "uint256"
        }
      ],
      "stateMutability": "view",
      "type": "function"
    },
    {
      "inputs": [],
      "name": "getValidGroupIndices",
      "outputs": [
        {
          "internalType": "uint256[]",
          "name": "",
          "type": "uint256[]"
        }
      ],
      "stateMutability": "view",
      "type": "function"
    },
    {
      "inputs": [
        {
          "internalType": "address",
          "name": "arpa",
          "type": "address"
        },
        {
          "internalType": "address",
          "name": "chainMessenger",
          "type": "address"
        },
        {
          "internalType": "address",
          "name": "l2CrossDomainMessenger",
          "type": "address"
        },
        {
          "internalType": "address",
          "name": "adapterContractAddress",
          "type": "address"
        },
        {
          "internalType": "uint256",
          "name": "lastOutput",
          "type": "uint256"
        }
      ],
      "name": "initialize",
      "outputs": [],
      "stateMutability": "nonpayable",
      "type": "function"
    },
    {
      "inputs": [
        {
          "internalType": "address",
          "name": "recipient",
          "type": "address"
        }
      ],
      "name": "nodeWithdraw",
      "outputs": [],
      "stateMutability": "nonpayable",
      "type": "function"
    },
    {
      "inputs": [],
      "name": "owner",
      "outputs": [
        {
          "internalType": "address",
          "name": "",
          "type": "address"
        }
      ],
      "stateMutability": "view",
      "type": "function"
    },
    {
      "inputs": [],
      "name": "renounceOwnership",
      "outputs": [],
      "stateMutability": "nonpayable",
      "type": "function"
    },
    {
      "inputs": [
        {
          "internalType": "address",
          "name": "adapterContractAddress",
          "type": "address"
        }
      ],
      "name": "setAdapterContractAddress",
      "outputs": [],
      "stateMutability": "nonpayable",
      "type": "function"
    },
    {
      "inputs": [
        {
          "internalType": "address",
          "name": "chainMessenger",
          "type": "address"
        }
      ],
      "name": "setChainMessenger",
      "outputs": [],
      "stateMutability": "nonpayable",
      "type": "function"
    },
    {
      "inputs": [
        {
          "internalType": "address",
          "name": "l2CrossDomainMessenger",
          "type": "address"
        }
      ],
      "name": "setL2CrossDomainMessenger",
      "outputs": [],
      "stateMutability": "nonpayable",
      "type": "function"
    },
    {
      "inputs": [
        {
          "internalType": "uint256",
          "name": "lastOutput",
          "type": "uint256"
        }
      ],
      "name": "setLastOutput",
      "outputs": [],
      "stateMutability": "nonpayable",
      "type": "function"
    },
    {
      "inputs": [
        {
          "internalType": "address",
          "name": "newOwner",
          "type": "address"
        }
      ],
      "name": "transferOwnership",
      "outputs": [],
      "stateMutability": "nonpayable",
      "type": "function"
    },
    {
      "inputs": [
        {
          "internalType": "address",
          "name": "committer",
          "type": "address"
        },
        {
          "components": [
            {
              "internalType": "uint256",
              "name": "index",
              "type": "uint256"
            },
            {
              "internalType": "uint256",
              "name": "epoch",
              "type": "uint256"
            },
            {
              "internalType": "uint256",
              "name": "size",
              "type": "uint256"
            },
            {
              "internalType": "uint256",
              "name": "threshold",
              "type": "uint256"
            },
            {
              "components": [
                {
                  "internalType": "address",
                  "name": "nodeIdAddress",
                  "type": "address"
                },
                {
                  "internalType": "uint256[4]",
                  "name": "partialPublicKey",
                  "type": "uint256[4]"
                }
              ],
              "internalType": "struct IControllerOracle.Member[]",
              "name": "members",
              "type": "tuple[]"
            },
            {
              "internalType": "address[]",
              "name": "committers",
              "type": "address[]"
            },
            {
              "components": [
                {
                  "internalType": "address[]",
                  "name": "nodeIdAddress",
                  "type": "address[]"
                },
                {
                  "components": [
                    {
                      "internalType": "uint256",
                      "name": "groupEpoch",
                      "type": "uint256"
                    },
                    {
                      "internalType": "uint256[4]",
                      "name": "publicKey",
                      "type": "uint256[4]"
                    },
                    {
                      "internalType": "address[]",
                      "name": "disqualifiedNodes",
                      "type": "address[]"
                    }
                  ],
                  "internalType": "struct IControllerOracle.CommitResult",
                  "name": "commitResult",
                  "type": "tuple"
                }
              ],
              "internalType": "struct IControllerOracle.CommitCache[]",
              "name": "commitCacheList",
              "type": "tuple[]"
            },
            {
              "internalType": "bool",
              "name": "isStrictlyMajorityConsensusReached",
              "type": "bool"
            },
            {
              "internalType": "uint256[4]",
              "name": "publicKey",
              "type": "uint256[4]"
            }
          ],
          "internalType": "struct IControllerOracle.Group",
          "name": "group",
          "type": "tuple"
        }
      ],
      "name": "updateGroup",
      "outputs": [],
      "stateMutability": "nonpayable",
      "type": "function"
    }
  ],
  "bytecode": {
    "object": "0x608060405234801561001057600080fd5b50612781806100206000396000f3fe608060405234801561001057600080fd5b506004361061012c5760003560e01c8063715018a6116100ad578063ceb6065411610071578063ceb606541461025f578063f2fde38b1461027f578063f3df080214610292578063f49e0ba9146102a5578063f7013ef6146102d057600080fd5b8063715018a61461020c5780637ee49cfd146102145780638da5cb5b1461021c578063914eb34d14610237578063b330a0fd1461024a57600080fd5b80634bc4447b116100f45780634bc4447b146101ab5780634d79a893146101be5780634ecea80d146101de57806351a2b9a0146101f157806353d615f8146101f957600080fd5b806306545a9314610131578063227d0f46146101485780633b6c00b0146101705780634897a7301461018357806349b0889614610198575b600080fd5b606c545b6040519081526020015b60405180910390f35b61015b610156366004611dc2565b6102e3565b6040805192835260208301919091520161013f565b61015b61017e366004611dc2565b610384565b610196610191366004611dc2565b6103d5565b005b6101966101a636600461218c565b610426565b6101966101b9366004611dc2565b6105e3565b6101d16101cc3660046122a5565b610634565b60405161013f9190612309565b6101966101ec366004611dc2565b6106cb565b607154610135565b610196610207366004611dc2565b6107f0565b610196610841565b606b54610135565b6033546040516001600160a01b03909116815260200161013f565b610196610245366004612317565b610855565b6102526109b3565b60405161013f9190612365565b61027261026d3660046123a9565b610d6c565b60405161013f91906124d7565b61019661028d366004611dc2565b61107b565b6101966102a03660046123a9565b6110f4565b61015b6102b33660046123a9565b6000908152606d6020526040902060038101546002909101549091565b6101966102de366004612584565b611124565b6001600160a01b03811660009081526069602052604081205481901561032d576001600160a01b038316600090815260696020526040902054610328906001906125fe565b610330565b60005b6001600160a01b0384166000908152606a602052604090205415610378576001600160a01b0384166000908152606a6020526040902054610373906001906125fe565b61037b565b60005b91509150915091565b60008060005b606c548110156103c85760006103a08286611289565b905080600019146103b5579094909350915050565b50806103c081612611565b91505061038a565b5060001993849350915050565b6103dd6115fd565b6001600160a01b0381166104045760405163f6b2911f60e01b815260040160405180910390fd5b606880546001600160a01b0319166001600160a01b0392909216919091179055565b6067546001600160a01b0316331415806104bc575060665460675460408051636e296e4560e01b815290516001600160a01b039384169390921691636e296e45916004808201926020929091908290030181865afa15801561048c573d6000803e3d6000fd5b505050506040513d601f19601f820116820180604052508101906104b0919061262a565b6001600160a01b031614155b156104da57604051630ba6b4d160e31b815260040160405180910390fd5b80516000818152606d60209081526040909120600101549083015111610544576020828101516000838152606d90925260409182902060010154915163699745e360e01b815260048101849052602481019190915260448101919091526064015b60405180910390fd5b606b805490600061055483612611565b90915550506000818152606d6020526040812060010154900361058757606c805490600061058183612611565b91905055505b61059082611657565b826001600160a01b03168260200151827f086df69ece965de938d49c9d0eca0f14e39b9d5b178e0358d27ef0fdde2672f8606b600001546040516105d691815260200190565b60405180910390a4505050565b6105eb6115fd565b6001600160a01b0381166106125760405163f6b2911f60e01b815260040160405180910390fd5b606780546001600160a01b0319166001600160a01b0392909216919091179055565b61063c611c16565b6000838152606d6020526040902060040180548390811061065f5761065f612647565b6000918252602091829020604080518082018252600590930290910180546001600160a01b0316835281516080810190925291928301906001830160048282826020028201915b8154815260200190600101908083116106a65750505050508152505090505b92915050565b6001600160a01b0381166106f25760405163f6b2911f60e01b815260040160405180910390fd5b33600090815260696020908152604080832054606a90925290912054600181111561074f57336000908152606a6020526040902060019081905561074f90849061073c90846125fe565b6065546001600160a01b0316919061180c565b60018211156107eb573360009081526069602052604090206001908190556068546001600160a01b031690630ad98f6a90859061078c90866125fe565b6040516001600160e01b031960e085901b1681526001600160a01b0390921660048301526024820152604401600060405180830381600087803b1580156107d257600080fd5b505af11580156107e6573d6000803e3d6000fd5b505050505b505050565b6107f86115fd565b6001600160a01b03811661081f5760405163f6b2911f60e01b815260040160405180910390fd5b606680546001600160a01b0319166001600160a01b0392909216919091179055565b6108496115fd565b610853600061185e565b565b6068546001600160a01b031633146108805760405163469666c560e01b815260040160405180910390fd5b60005b83518110156109ad5782606960008684815181106108a3576108a3612647565b60200260200101516001600160a01b03166001600160a01b0316815260200190815260200160002060008282546108da919061265d565b9250508190555081606a60008684815181106108f8576108f8612647565b60200260200101516001600160a01b03166001600160a01b03168152602001908152602001600020600082825461092f919061265d565b9250508190555083818151811061094857610948612647565b60200260200101516001600160a01b03167f8353a804115421789f3ab2eeb3f5215943906ce12100c91d40fc865caf742b6f8484604051610993929190918252602082015260400190565b60405180910390a2806109a581612611565b915050610883565b50505050565b60606000606b6001015467ffffffffffffffff8111156109d5576109d5611de6565b6040519080825280602002602001820160405280156109fe578160200160208202803683370190505b5090506000805b606c54811015610d5a576000818152606d602090815260408083208151610120810183528154815260018201548185015260028201548184015260038201546060820152600482018054845181870281018701909552808552919492936080860193909290879084015b82821015610ae85760008481526020908190206040805180820182526005860290920180546001600160a01b0316835281516080810190925291928301906001830160048282826020028201915b815481526020019060010190808311610abd5750505050508152505081526020019060010190610a6f565b50505050815260200160058201805480602002602001604051908101604052809291908181526020018280548015610b4957602002820191906000526020600020905b81546001600160a01b03168152600190910190602001808311610b2b575b5050505050815260200160068201805480602002602001604051908101604052809291908181526020016000905b82821015610cc0578382906000526020600020906007020160405180604001604052908160008201805480602002602001604051908101604052809291908181526020018280548015610bf357602002820191906000526020600020905b81546001600160a01b03168152600190910190602001808311610bd5575b50505091835250506040805160608101825260018401805482528251608081019384905260209485019492939192840191600287019060049082845b815481526020019060010190808311610c2f575050505050815260200160058201805480602002602001604051908101604052809291908181526020018280548015610ca457602002820191906000526020600020905b81546001600160a01b03168152600190910190602001808311610c86575b5050505050815250508152505081526020019060010190610b77565b50505090825250600782015460ff1615156020820152604080516080810182529101906008830160048282826020028201915b815481526020019060010190808311610cf35750505050508152505090508060e0015115610d475781848481518110610d2e57610d2e612647565b602090810291909101015282610d4381612611565b9350505b5080610d5281612611565b915050610a05565b50610d6582826118b0565b9250505090565b610d74611c3e565b6000828152606d602090815260408083208151610120810183528154815260018201548185015260028201548184015260038201546060820152600482018054845181870281018701909552808552919592946080870194939192919084015b82821015610e4d5760008481526020908190206040805180820182526005860290920180546001600160a01b0316835281516080810190925291928301906001830160048282826020028201915b815481526020019060010190808311610e225750505050508152505081526020019060010190610dd4565b50505050815260200160058201805480602002602001604051908101604052809291908181526020018280548015610eae57602002820191906000526020600020905b81546001600160a01b03168152600190910190602001808311610e90575b5050505050815260200160068201805480602002602001604051908101604052809291908181526020016000905b82821015611025578382906000526020600020906007020160405180604001604052908160008201805480602002602001604051908101604052809291908181526020018280548015610f5857602002820191906000526020600020905b81546001600160a01b03168152600190910190602001808311610f3a575b50505091835250506040805160608101825260018401805482528251608081019384905260209485019492939192840191600287019060049082845b815481526020019060010190808311610f9457505050505081526020016005820180548060200260200160405190810160405280929190818152602001828054801561100957602002820191906000526020600020905b81546001600160a01b03168152600190910190602001808311610feb575b5050505050815250508152505081526020019060010190610edc565b50505090825250600782015460ff1615156020820152604080516080810182529101906008830160048282826020028201915b815481526020019060010190808311611058575050505050815250509050919050565b6110836115fd565b6001600160a01b0381166110e85760405162461bcd60e51b815260206004820152602660248201527f4f776e61626c653a206e6577206f776e657220697320746865207a65726f206160448201526564647265737360d01b606482015260840161053b565b6110f18161185e565b50565b6068546001600160a01b0316331461111f5760405163469666c560e01b815260040160405180910390fd5b607155565b600054610100900460ff16158080156111445750600054600160ff909116105b8061115e5750303b15801561115e575060005460ff166001145b6111c15760405162461bcd60e51b815260206004820152602e60248201527f496e697469616c697a61626c653a20636f6e747261637420697320616c72656160448201526d191e481a5b9a5d1a585b1a5e995960921b606482015260840161053b565b6000805460ff1916600117905580156111e4576000805461ff0019166101001790555b606580546001600160a01b038089166001600160a01b03199283161790925560668054888416908316179055606780548784169083161790556068805492861692909116919091179055607182905561123b611955565b8015611281576000805461ff0019169055604051600181527f7f26b83ff96e1f2b6a682f133852f6798a09c465da95921460cefb38474024989060200160405180910390a15b505050505050565b6000828152606d60209081526040808320815161012081018352815481526001820154818501526002820154818401526003820154606082015260048201805484518187028101870190955280855286959294608086019390929190879084015b828210156113635760008481526020908190206040805180820182526005860290920180546001600160a01b0316835281516080810190925291928301906001830160048282826020028201915b81548152602001906001019080831161133857505050505081525050815260200190600101906112ea565b505050508152602001600582018054806020026020016040519081016040528092919081815260200182805480156113c457602002820191906000526020600020905b81546001600160a01b031681526001909101906020018083116113a6575b5050505050815260200160068201805480602002602001604051908101604052809291908181526020016000905b8282101561153b57838290600052602060002090600702016040518060400160405290816000820180548060200260200160405190810160405280929190818152602001828054801561146e57602002820191906000526020600020905b81546001600160a01b03168152600190910190602001808311611450575b50505091835250506040805160608101825260018401805482528251608081019384905260209485019492939192840191600287019060049082845b8154815260200190600101908083116114aa57505050505081526020016005820180548060200260200160405190810160405280929190818152602001828054801561151f57602002820191906000526020600020905b81546001600160a01b03168152600190910190602001808311611501575b50505050508152505081525050815260200190600101906113f2565b50505090825250600782015460ff1615156020820152604080516080810182529101906008830160048282826020028201915b81548152602001906001019080831161156e57505050505081525050905060005b8160800151518110156115f157836001600160a01b0316826080015182815181106115bc576115bc612647565b6020026020010151600001516001600160a01b0316036115df5791506106c59050565b806115e981612611565b91505061158f565b50600019949350505050565b6033546001600160a01b031633146108535760405162461bcd60e51b815260206004820181905260248201527f4f776e61626c653a2063616c6c6572206973206e6f7420746865206f776e6572604482015260640161053b565b80516000908152606d602090815260408083208451815591840151600183015560608401516003830155830151600282015560e083015160078201805460ff1916911515919091179055906116b0906004830190611c8c565b60005b82604001518110156117d9576000836080015182815181106116d7576116d7612647565b602002602001015160000151905082600401846080015183815181106116ff576116ff612647565b602090810291909101810151825460018082018555600094855293839020825160059092020180546001600160a01b0319166001600160a01b0390921691909117815591810151909261175791908301906004611cad565b5050506001600160a01b03811660009081526069602052604090205415801561179657506001600160a01b0381166000908152606a6020526040902054155b156117c6576001600160a01b0381166000908152606960209081526040808320600190819055606a909252909120555b50806117d181612611565b9150506116b3565b5060a082015180516117f5916005840191602090910190611ceb565b506101008201516107eb9060088301906004611cad565b604080516001600160a01b038416602482015260448082018490528251808303909101815260649091019091526020810180516001600160e01b031663a9059cbb60e01b1790526107eb908490611984565b603380546001600160a01b038381166001600160a01b0319831681179093556040519116919082907f8be0079c531659141344cd1fd0a4f28419497f9722a3daafe3b4186f6b6457e090600090a35050565b606060008267ffffffffffffffff8111156118cd576118cd611de6565b6040519080825280602002602001820160405280156118f6578160200160208202803683370190505b50905060005b8381101561194d5784818151811061191657611916612647565b602002602001015182828151811061193057611930612647565b60209081029190910101528061194581612611565b9150506118fc565b509392505050565b600054610100900460ff1661197c5760405162461bcd60e51b815260040161053b90612670565b610853611a56565b60006119d9826040518060400160405280602081526020017f5361666545524332303a206c6f772d6c6576656c2063616c6c206661696c6564815250856001600160a01b0316611a869092919063ffffffff16565b8051909150156107eb57808060200190518101906119f791906126bb565b6107eb5760405162461bcd60e51b815260206004820152602a60248201527f5361666545524332303a204552433230206f7065726174696f6e20646964206e6044820152691bdd081cdd58d8d9595960b21b606482015260840161053b565b600054610100900460ff16611a7d5760405162461bcd60e51b815260040161053b90612670565b6108533361185e565b6060611a958484600085611a9d565b949350505050565b606082471015611afe5760405162461bcd60e51b815260206004820152602660248201527f416464726573733a20696e73756666696369656e742062616c616e636520666f6044820152651c8818d85b1b60d21b606482015260840161053b565b600080866001600160a01b03168587604051611b1a91906126fc565b60006040518083038185875af1925050503d8060008114611b57576040519150601f19603f3d011682016040523d82523d6000602084013e611b5c565b606091505b5091509150611b6d87838387611b78565b979650505050505050565b60608315611be7578251600003611be0576001600160a01b0385163b611be05760405162461bcd60e51b815260206004820152601d60248201527f416464726573733a2063616c6c20746f206e6f6e2d636f6e7472616374000000604482015260640161053b565b5081611a95565b611a958383815115611bfc5781518083602001fd5b8060405162461bcd60e51b815260040161053b9190612718565b604051806040016040528060006001600160a01b03168152602001611c39611d40565b905290565b60405180610120016040528060008152602001600081526020016000815260200160008152602001606081526020016060815260200160608152602001600015158152602001611c39611d40565b50805460008255600502906000526020600020908101906110f19190611d5e565b8260048101928215611cdb579160200282015b82811115611cdb578251825591602001919060010190611cc0565b50611ce7929150611d98565b5090565b828054828255906000526020600020908101928215611cdb579160200282015b82811115611cdb57825182546001600160a01b0319166001600160a01b03909116178255602090920191600190910190611d0b565b60405180608001604052806004906020820280368337509192915050565b80821115611ce75780546001600160a01b031916815560006001820181905560028201819055600382018190556004820155600501611d5e565b5b80821115611ce75760008155600101611d99565b6001600160a01b03811681146110f157600080fd5b600060208284031215611dd457600080fd5b8135611ddf81611dad565b9392505050565b634e487b7160e01b600052604160045260246000fd5b6040805190810167ffffffffffffffff81118282101715611e1f57611e1f611de6565b60405290565b6040516060810167ffffffffffffffff81118282101715611e1f57611e1f611de6565b604051610120810167ffffffffffffffff81118282101715611e1f57611e1f611de6565b604051601f8201601f1916810167ffffffffffffffff81118282101715611e9557611e95611de6565b604052919050565b600067ffffffffffffffff821115611eb757611eb7611de6565b5060051b60200190565b600082601f830112611ed257600080fd5b6040516080810181811067ffffffffffffffff82111715611ef557611ef5611de6565b604052806080840185811115611f0a57600080fd5b845b81811015611f24578035835260209283019201611f0c565b509195945050505050565b600082601f830112611f4057600080fd5b81356020611f55611f5083611e9d565b611e6c565b82815260a09283028501820192828201919087851115611f7457600080fd5b8387015b85811015611fc25781818a031215611f905760008081fd5b611f98611dfc565b8135611fa381611dad565b8152611fb18a838801611ec1565b818701528452928401928101611f78565b5090979650505050505050565b600082601f830112611fe057600080fd5b81356020611ff0611f5083611e9d565b82815260059290921b8401810191818101908684111561200f57600080fd5b8286015b8481101561203357803561202681611dad565b8352918301918301612013565b509695505050505050565b600082601f83011261204f57600080fd5b8135602061205f611f5083611e9d565b82815260059290921b8401810191818101908684111561207e57600080fd5b8286015b8481101561203357803567ffffffffffffffff808211156120a257600080fd5b908801906040601f19838c0381018213156120bc57600080fd5b6120c4611dfc565b88850135848111156120d557600080fd5b6120e38e8b83890101611fcf565b82525082850135848111156120f757600080fd5b949094019360c0858e038301121561210f5760008081fd5b612117611e25565b915088850135825261212b8d848701611ec1565b8983015260c0850135848111156121425760008081fd5b6121508e8b83890101611fcf565b93830193909352808901919091528652505050918301918301612082565b80151581146110f157600080fd5b80356121878161216e565b919050565b6000806040838503121561219f57600080fd5b82356121aa81611dad565b9150602083013567ffffffffffffffff808211156121c757600080fd5b9084019061018082870312156121dc57600080fd5b6121e4611e48565b8235815260208301356020820152604083013560408201526060830135606082015260808301358281111561221857600080fd5b61222488828601611f2f565b60808301525060a08301358281111561223c57600080fd5b61224888828601611fcf565b60a08301525060c08301358281111561226057600080fd5b61226c8882860161203e565b60c08301525061227e60e0840161217c565b60e0820152610100915061229487838501611ec1565b828201528093505050509250929050565b600080604083850312156122b857600080fd5b50508035926020909101359150565b8060005b60048110156109ad5781518452602093840193909101906001016122cb565b6001600160a01b03815116825260208101516107eb60208401826122c7565b60a081016106c582846122ea565b60008060006060848603121561232c57600080fd5b833567ffffffffffffffff81111561234357600080fd5b61234f86828701611fcf565b9660208601359650604090950135949350505050565b6020808252825182820181905260009190848201906040850190845b8181101561239d57835183529284019291840191600101612381565b50909695505050505050565b6000602082840312156123bb57600080fd5b5035919050565b600081518084526020808501945080840160005b838110156123fc576123e98783516122ea565b60a09690960195908201906001016123d6565b509495945050505050565b600081518084526020808501945080840160005b838110156123fc5781516001600160a01b03168752958201959082019060010161241b565b600082825180855260208086019550808260051b84010181860160005b84811015611fc257601f1986840301895281516040815181865261248382870182612407565b90508683015192508581038787015260c083518252878401516124a8898401826122c7565b508284015193508060a08301526124c181830185612407565b9c88019c9650505092850192505060010161245d565b60208152815160208201526020820151604082015260408201516060820152606082015160808201526000608083015161018060a084015261251d6101a08401826123c2565b905060a0840151601f19808584030160c086015261253b8383612407565b925060c08601519150808584030160e0860152506125598282612440565b91505060e08401516101006125718186018315159052565b850151905061194d6101208501826122c7565b600080600080600060a0868803121561259c57600080fd5b85356125a781611dad565b945060208601356125b781611dad565b935060408601356125c781611dad565b925060608601356125d781611dad565b949793965091946080013592915050565b634e487b7160e01b600052601160045260246000fd5b818103818111156106c5576106c56125e8565b600060018201612623576126236125e8565b5060010190565b60006020828403121561263c57600080fd5b8151611ddf81611dad565b634e487b7160e01b600052603260045260246000fd5b808201808211156106c5576106c56125e8565b6020808252602b908201527f496e697469616c697a61626c653a20636f6e7472616374206973206e6f74206960408201526a6e697469616c697a696e6760a81b606082015260800190565b6000602082840312156126cd57600080fd5b8151611ddf8161216e565b60005b838110156126f35781810151838201526020016126db565b50506000910152565b6000825161270e8184602087016126d8565b9190910192915050565b60208152600082518060208401526127378160408501602087016126d8565b601f01601f1916919091016040019291505056fea264697066735822122090175a463f1cd263725a36ab9741ba73924ea1c24977192eb592ea97220bdcfd64736f6c63430008120033",
    "linkReferences": {}
  },
  "methodIdentifiers": {
    "addReward(address[],uint256,uint256)": "914eb34d",
    "getBelongingGroup(address)": "3b6c00b0",
    "getGroup(uint256)": "ceb60654",
    "getGroupCount()": "06545a93",
    "getGroupEpoch()": "7ee49cfd",
    "getGroupThreshold(uint256)": "f49e0ba9",
    "getLastOutput()": "51a2b9a0",
    "getMember(uint256,uint256)": "4d79a893",
    "getNodeWithdrawableTokens(address)": "227d0f46",
    "getValidGroupIndices()": "b330a0fd",
    "initialize(address,address,address,address,uint256)": "f7013ef6",
    "nodeWithdraw(address)": "4ecea80d",
    "owner()": "8da5cb5b",
    "renounceOwnership()": "715018a6",
    "setAdapterContractAddress(address)": "4897a730",
    "setChainMessenger(address)": "53d615f8",
    "setL2CrossDomainMessenger(address)": "4bc4447b",
    "setLastOutput(uint256)": "f3df0802",
    "transferOwnership(address)": "f2fde38b",
    "updateGroup(address,(uint256,uint256,uint256,uint256,(address,uint256[4])[],address[],(address[],(uint256,uint256[4],address[]))[],bool,uint256[4]))": "49b08896"
  },
  "id": 73
}