{"abi":[{"type":"constructor","inputs":[],"stateMutability":"nonpayable"},{"type":"function","name":"addReward","inputs":[{"name":"nodes","type":"address[]","internalType":"address[]"},{"name":"ethAmount","type":"uint256","internalType":"uint256"},{"name":"arpaAmount","type":"uint256","internalType":"uint256"}],"outputs":[],"stateMutability":"nonpayable"},{"type":"function","name":"commitDkg","inputs":[{"name":"params","type":"tuple","internalType":"struct IController.CommitDkgParams","components":[{"name":"groupIndex","type":"uint256","internalType":"uint256"},{"name":"groupEpoch","type":"uint256","internalType":"uint256"},{"name":"publicKey","type":"bytes","internalType":"bytes"},{"name":"partialPublicKey","type":"bytes","internalType":"bytes"},{"name":"disqualifiedNodes","type":"address[]","internalType":"address[]"}]}],"outputs":[],"stateMutability":"nonpayable"},{"type":"function","name":"getBelongingGroup","inputs":[{"name":"nodeAddress","type":"address","internalType":"address"}],"outputs":[{"name":"","type":"int256","internalType":"int256"},{"name":"","type":"int256","internalType":"int256"}],"stateMutability":"view"},{"type":"function","name":"getControllerConfig","inputs":[],"outputs":[{"name":"nodeRegistryContractAddress","type":"address","internalType":"address"},{"name":"adapterContractAddress","type":"address","internalType":"address"},{"name":"disqualifiedNodePenaltyAmount","type":"uint256","internalType":"uint256"},{"name":"defaultNumberOfCommitters","type":"uint256","internalType":"uint256"},{"name":"defaultDkgPhaseDuration","type":"uint256","internalType":"uint256"},{"name":"groupMaxCapacity","type":"uint256","internalType":"uint256"},{"name":"idealNumberOfGroups","type":"uint256","internalType":"uint256"},{"name":"dkgPostProcessReward","type":"uint256","internalType":"uint256"}],"stateMutability":"view"},{"type":"function","name":"getCoordinator","inputs":[{"name":"groupIndex","type":"uint256","internalType":"uint256"}],"outputs":[{"name":"","type":"address","internalType":"address"}],"stateMutability":"view"},{"type":"function","name":"getGroup","inputs":[{"name":"groupIndex","type":"uint256","internalType":"uint256"}],"outputs":[{"name":"","type":"tuple","internalType":"struct IController.Group","components":[{"name":"index","type":"uint256","internalType":"uint256"},{"name":"epoch","type":"uint256","internalType":"uint256"},{"name":"size","type":"uint256","internalType":"uint256"},{"name":"threshold","type":"uint256","internalType":"uint256"},{"name":"members","type":"tuple[]","internalType":"struct IController.Member[]","components":[{"name":"nodeIdAddress","type":"address","internalType":"address"},{"name":"partialPublicKey","type":"uint256[4]","internalType":"uint256[4]"}]},{"name":"committers","type":"address[]","internalType":"address[]"},{"name":"commitCacheList","type":"tuple[]","internalType":"struct IController.CommitCache[]","components":[{"name":"nodeIdAddress","type":"address[]","internalType":"address[]"},{"name":"commitResult","type":"tuple","internalType":"struct IController.CommitResult","components":[{"name":"groupEpoch","type":"uint256","internalType":"uint256"},{"name":"publicKey","type":"uint256[4]","internalType":"uint256[4]"},{"name":"disqualifiedNodes","type":"address[]","internalType":"address[]"}]}]},{"name":"isStrictlyMajorityConsensusReached","type":"bool","internalType":"bool"},{"name":"publicKey","type":"uint256[4]","internalType":"uint256[4]"}]}],"stateMutability":"view"},{"type":"function","name":"getGroupCount","inputs":[],"outputs":[{"name":"","type":"uint256","internalType":"uint256"}],"stateMutability":"view"},{"type":"function","name":"getGroupEpoch","inputs":[],"outputs":[{"name":"","type":"uint256","internalType":"uint256"}],"stateMutability":"view"},{"type":"function","name":"getGroupThreshold","inputs":[{"name":"groupIndex","type":"uint256","internalType":"uint256"}],"outputs":[{"name":"","type":"uint256","internalType":"uint256"},{"name":"","type":"uint256","internalType":"uint256"}],"stateMutability":"view"},{"type":"function","name":"getLastOutput","inputs":[],"outputs":[{"name":"","type":"uint256","internalType":"uint256"}],"stateMutability":"view"},{"type":"function","name":"getMember","inputs":[{"name":"groupIndex","type":"uint256","internalType":"uint256"},{"name":"memberIndex","type":"uint256","internalType":"uint256"}],"outputs":[{"name":"","type":"tuple","internalType":"struct IController.Member","components":[{"name":"nodeIdAddress","type":"address","internalType":"address"},{"name":"partialPublicKey","type":"uint256[4]","internalType":"uint256[4]"}]}],"stateMutability":"view"},{"type":"function","name":"getValidGroupIndices","inputs":[],"outputs":[{"name":"","type":"uint256[]","internalType":"uint256[]"}],"stateMutability":"view"},{"type":"function","name":"initialize","inputs":[{"name":"lastOutput","type":"uint256","internalType":"uint256"}],"outputs":[],"stateMutability":"nonpayable"},{"type":"function","name":"isPartialKeyRegistered","inputs":[{"name":"groupIndex","type":"uint256","internalType":"uint256"},{"name":"nodeIdAddress","type":"address","internalType":"address"}],"outputs":[{"name":"","type":"bool","internalType":"bool"}],"stateMutability":"view"},{"type":"function","name":"nodeJoin","inputs":[{"name":"nodeIdAddress","type":"address","internalType":"address"}],"outputs":[{"name":"","type":"uint256","internalType":"uint256"}],"stateMutability":"nonpayable"},{"type":"function","name":"nodeLeave","inputs":[{"name":"nodeIdAddress","type":"address","internalType":"address"}],"outputs":[],"stateMutability":"nonpayable"},{"type":"function","name":"nodeWithdrawETH","inputs":[{"name":"recipient","type":"address","internalType":"address"},{"name":"ethAmount","type":"uint256","internalType":"uint256"}],"outputs":[],"stateMutability":"nonpayable"},{"type":"function","name":"owner","inputs":[],"outputs":[{"name":"","type":"address","internalType":"address"}],"stateMutability":"view"},{"type":"function","name":"postProcessDkg","inputs":[{"name":"groupIndex","type":"uint256","internalType":"uint256"},{"name":"groupEpoch","type":"uint256","internalType":"uint256"}],"outputs":[],"stateMutability":"nonpayable"},{"type":"function","name":"proxiableUUID","inputs":[],"outputs":[{"name":"","type":"bytes32","internalType":"bytes32"}],"stateMutability":"view"},{"type":"function","name":"renounceOwnership","inputs":[],"outputs":[],"stateMutability":"nonpayable"},{"type":"function","name":"setControllerConfig","inputs":[{"name":"nodeRegistryContractAddress","type":"address","internalType":"address"},{"name":"adapterContractAddress","type":"address","internalType":"address"},{"name":"disqualifiedNodePenaltyAmount","type":"uint256","internalType":"uint256"},{"name":"defaultNumberOfCommitters","type":"uint256","internalType":"uint256"},{"name":"defaultDkgPhaseDuration","type":"uint256","internalType":"uint256"},{"name":"groupMaxCapacity","type":"uint256","internalType":"uint256"},{"name":"idealNumberOfGroups","type":"uint256","internalType":"uint256"},{"name":"dkgPostProcessReward","type":"uint256","internalType":"uint256"}],"outputs":[],"stateMutability":"nonpayable"},{"type":"function","name":"setLastOutput","inputs":[{"name":"lastOutput","type":"uint256","internalType":"uint256"}],"outputs":[],"stateMutability":"nonpayable"},{"type":"function","name":"transferOwnership","inputs":[{"name":"newOwner","type":"address","internalType":"address"}],"outputs":[],"stateMutability":"nonpayable"},{"type":"function","name":"upgradeTo","inputs":[{"name":"newImplementation","type":"address","internalType":"address"}],"outputs":[],"stateMutability":"nonpayable"},{"type":"function","name":"upgradeToAndCall","inputs":[{"name":"newImplementation","type":"address","internalType":"address"},{"name":"data","type":"bytes","internalType":"bytes"}],"outputs":[],"stateMutability":"payable"},{"type":"event","name":"AdminChanged","inputs":[{"name":"previousAdmin","type":"address","indexed":false,"internalType":"address"},{"name":"newAdmin","type":"address","indexed":false,"internalType":"address"}],"anonymous":false},{"type":"event","name":"BeaconUpgraded","inputs":[{"name":"beacon","type":"address","indexed":true,"internalType":"address"}],"anonymous":false},{"type":"event","name":"ControllerConfigSet","inputs":[{"name":"nodeRegistryContractAddress","type":"address","indexed":false,"internalType":"address"},{"name":"adapterContractAddress","type":"address","indexed":false,"internalType":"address"},{"name":"disqualifiedNodePenaltyAmount","type":"uint256","indexed":false,"internalType":"uint256"},{"name":"defaultNumberOfCommitters","type":"uint256","indexed":false,"internalType":"uint256"},{"name":"defaultDkgPhaseDuration","type":"uint256","indexed":false,"internalType":"uint256"},{"name":"groupMaxCapacity","type":"uint256","indexed":false,"internalType":"uint256"},{"name":"idealNumberOfGroups","type":"uint256","indexed":false,"internalType":"uint256"},{"name":"dkgPostProcessReward","type":"uint256","indexed":false,"internalType":"uint256"}],"anonymous":false},{"type":"event","name":"DkgTask","inputs":[{"name":"globalEpoch","type":"uint256","indexed":true,"internalType":"uint256"},{"name":"groupIndex","type":"uint256","indexed":true,"internalType":"uint256"},{"name":"groupEpoch","type":"uint256","indexed":true,"internalType":"uint256"},{"name":"size","type":"uint256","indexed":false,"internalType":"uint256"},{"name":"threshold","type":"uint256","indexed":false,"internalType":"uint256"},{"name":"members","type":"address[]","indexed":false,"internalType":"address[]"},{"name":"assignmentBlockHeight","type":"uint256","indexed":false,"internalType":"uint256"},{"name":"coordinatorAddress","type":"address","indexed":false,"internalType":"address"}],"anonymous":false},{"type":"event","name":"Initialized","inputs":[{"name":"version","type":"uint8","indexed":false,"internalType":"uint8"}],"anonymous":false},{"type":"event","name":"OwnershipTransferred","inputs":[{"name":"previousOwner","type":"address","indexed":true,"internalType":"address"},{"name":"newOwner","type":"address","indexed":true,"internalType":"address"}],"anonymous":false},{"type":"event","name":"Upgraded","inputs":[{"name":"implementation","type":"address","indexed":true,"internalType":"address"}],"anonymous":false},{"type":"error","name":"CannotLeaveGroupDuringDkg","inputs":[]},{"type":"error","name":"CoordinatorNotFound","inputs":[{"name":"groupIndex","type":"uint256","internalType":"uint256"}]},{"type":"error","name":"DkgNotInProgress","inputs":[{"name":"groupIndex","type":"uint256","internalType":"uint256"}]},{"type":"error","name":"DkgStillInProgress","inputs":[{"name":"groupIndex","type":"uint256","internalType":"uint256"},{"name":"phase","type":"int8","internalType":"int8"}]},{"type":"error","name":"DuplicatedDisqualifiedNode","inputs":[]},{"type":"error","name":"EpochMismatch","inputs":[{"name":"groupIndex","type":"uint256","internalType":"uint256"},{"name":"inputGroupEpoch","type":"uint256","internalType":"uint256"},{"name":"currentGroupEpoch","type":"uint256","internalType":"uint256"}]},{"type":"error","name":"GroupNotExist","inputs":[{"name":"groupIndex","type":"uint256","internalType":"uint256"}]},{"type":"error","name":"InvalidPartialPublicKey","inputs":[]},{"type":"error","name":"InvalidPublicKey","inputs":[]},{"type":"error","name":"NodeNotInGroup","inputs":[{"name":"groupIndex","type":"uint256","internalType":"uint256"},{"name":"nodeIdAddress","type":"address","internalType":"address"}]},{"type":"error","name":"PartialKeyAlreadyRegistered","inputs":[{"name":"groupIndex","type":"uint256","internalType":"uint256"},{"name":"nodeIdAddress","type":"address","internalType":"address"}]},{"type":"error","name":"SenderNotAdapter","inputs":[]},{"type":"error","name":"SenderNotNodeRegistry","inputs":[]}],"bytecode":{"object":"0x60a0604052306080523480156200001557600080fd5b506200002062000026565b620000e7565b600054610100900460ff1615620000935760405162461bcd60e51b815260206004820152602760248201527f496e697469616c697a61626c653a20636f6e747261637420697320696e697469604482015266616c697a696e6760c81b606482015260840160405180910390fd5b60005460ff90811614620000e5576000805460ff191660ff9081179091556040519081527f7f26b83ff96e1f2b6a682f133852f6798a09c465da95921460cefb38474024989060200160405180910390a15b565b608051615ae26200011f60003960008181610de201528181610e2501528181610ffd0152818161104001526110dc0152615ae26000f3fe608060405260043610620001c35760003560e01c80638da5cb5b11620000f3578063e37eb96c1162000095578063f2fde38b116200006c578063f2fde38b146200056c578063f3df08021462000591578063f49e0ba914620005b6578063fe4b84df14620005f257600080fd5b8063e37eb96c14620004fd578063ed157c3f1462000522578063f1d49f6b146200054757600080fd5b8063c2db900b11620000ca578063c2db900b1462000426578063ceb60654146200045c578063d11b8e68146200049057600080fd5b80638da5cb5b14620003ba578063914eb34d14620003da578063b330a0fd14620003ff57600080fd5b806342424d6f116200016957806351a2b9a0116200014057806351a2b9a0146200035c57806352d1902d1462000373578063715018a6146200038b5780637ee49cfd14620003a357600080fd5b806342424d6f14620002be5780634d79a89314620003115780634f1ef286146200034557600080fd5b806335fe4a3f116200019e57806335fe4a3f14620002395780633659cfe6146200025e5780633b6c00b0146200028357600080fd5b806306545a9314620001c85780630ad98f6a14620001ed5780630bf9c5c61462000214575b600080fd5b348015620001d557600080fd5b5060d0545b6040519081526020015b60405180910390f35b348015620001fa57600080fd5b50620002126200020c36600462003658565b62000617565b005b3480156200022157600080fd5b50620002126200023336600462003687565b620006af565b3480156200024657600080fd5b506200021262000258366004620036aa565b62000c01565b3480156200026b57600080fd5b50620002126200027d366004620036aa565b62000dd8565b3480156200029057600080fd5b50620002a8620002a2366004620036aa565b62000ec3565b60408051928352602083019190915201620001e4565b348015620002cb57600080fd5b50620002f8620002dd366004620036ca565b600090815260ce60205260409020546001600160a01b031690565b6040516001600160a01b039091168152602001620001e4565b3480156200031e57600080fd5b50620003366200033036600462003687565b62000f56565b604051620001e491906200372a565b620002126200035636600462003837565b62000ff3565b3480156200036957600080fd5b5060d554620001da565b3480156200038057600080fd5b50620001da620010cf565b3480156200039857600080fd5b506200021262001185565b348015620003b057600080fd5b5060cf54620001da565b348015620003c757600080fd5b506097546001600160a01b0316620002f8565b348015620003e757600080fd5b5062000212620003f93660046200392c565b6200119d565b3480156200040c57600080fd5b506200041762001238565b604051620001e491906200397e565b3480156200043357600080fd5b506200044b62000445366004620039c4565b620012bb565b6040519015158152602001620001e4565b3480156200046957600080fd5b50620004816200047b366004620036ca565b62001687565b604051620001e4919062003b24565b3480156200049d57600080fd5b5060c95460ca5460cb5460d45460cc5460d35460d25460cd54604080516001600160a01b03998a168152989097166020890152958701949094526060860192909252608085015260a084015260c083015260e082015261010001620001e4565b3480156200050a57600080fd5b50620002126200051c36600462003be2565b620019a5565b3480156200052f57600080fd5b50620001da62000541366004620036aa565b620023f0565b3480156200055457600080fd5b50620002126200056636600462003cb9565b62002500565b3480156200057957600080fd5b50620002126200058b366004620036aa565b62002663565b3480156200059e57600080fd5b5062000212620005b0366004620036ca565b620026df565b348015620005c357600080fd5b50620002a8620005d5366004620036ca565b600090815260d16020526040902060038101546002909101549091565b348015620005ff57600080fd5b506200021262000611366004620036ca565b62002710565b60c9546001600160a01b031633146200064357604051630e2c730d60e41b815260040160405180910390fd5b60ca5460405163056cc7b560e11b81526001600160a01b0384811660048301526024820184905290911690630ad98f6a90604401600060405180830381600087803b1580156200069257600080fd5b505af1158015620006a7573d6000803e3d6000fd5b505050505050565b60d0548210620006da57604051637f6efcb560e11b8152600481018390526024015b60405180910390fd5b6040516358914d0360e01b815260cf60048201526024810183905233604482015273__$99f6e31d9157e72684c1fb13c20fb01510$__906358914d0390606401602060405180830381865af415801562000738573d6000803e3d6000fd5b505050506040513d601f19601f820116820180604052508101906200075e919062003d29565b19620007875760405163eb51f5f960e01b815260048101839052336024820152604401620006d1565b600082815260d16020526040902060018101548214620007d257600181015460405163048b63c360e11b815260048101859052602481018490526044810191909152606401620006d1565b600083815260ce60205260409020546001600160a01b03166200080c57604051635291bbcf60e01b815260048101849052602401620006d1565b600083815260ce602090815260409182902054825163221f951160e01b815292516001600160a01b0390911692839263221f9511926004808401938290030181865afa15801562000861573d6000803e3d6000fd5b505050506040513d601f19601f8201168201806040525081019062000887919062003d43565b60000b600019146200091f5783816001600160a01b031663221f95116040518163ffffffff1660e01b8152600401602060405180830381865afa158015620008d3573d6000803e3d6000fd5b505050506040513d601f19601f82011682018060405250810190620008f9919062003d43565b60405163f7c06f9160e01b8152600481019290925260000b6024820152604401620006d1565b806001600160a01b0316639cb8a26a6040518163ffffffff1660e01b8152600401600060405180830381600087803b1580156200095b57600080fd5b505af115801562000970573d6000803e3d6000fd5b505050600085815260ce6020526040902080546001600160a01b031916905550600782015460ff1662000b455760d554604051630295316d60e51b815260cf6004820152602481018690526044810191909152600090819073__$99f6e31d9157e72684c1fb13c20fb01510$__906352a62da090606401600060405180830381865af415801562000a05573d6000803e3d6000fd5b505050506040513d6000823e601f3d908101601f1916820160405262000a2f919081019062003e37565b9150915060005b825181101562000af75760c95483516001600160a01b0390911690638ed470089085908490811062000a6c5762000a6c62003e98565b602090810291909101015160cb546040516001600160e01b031960e085901b1681526001600160a01b039092166004830152602482015260006044820152606401600060405180830381600087803b15801562000ac857600080fd5b505af115801562000add573d6000803e3d6000fd5b50505050808062000aee9062003ec4565b91505062000a36565b5060005b815181101562000b415762000b2c82828151811062000b1e5762000b1e62003e98565b60200260200101516200282f565b8062000b388162003ec4565b91505062000afb565b5050505b60408051600180825281830190925260009160208083019080368337019050509050338160008151811062000b7e5762000b7e62003e98565b6001600160a01b03928316602091820292909201015260c95460cd5460405163914eb34d60e01b8152919092169163914eb34d9162000bc69185916000919060040162003ee0565b600060405180830381600087803b15801562000be157600080fd5b505af115801562000bf6573d6000803e3d6000fd5b505050505050505050565b60c9546001600160a01b0316331462000c2d57604051630e2c730d60e41b815260040160405180910390fd5b60405163787c576760e01b815260cf60048201526001600160a01b0382166024820152600090819073__$99f6e31d9157e72684c1fb13c20fb01510$__9063787c5767906044016040805180830381865af415801562000c91573d6000803e3d6000fd5b505050506040513d601f19601f8201168201806040525081019062000cb7919062003f07565b91509150816000191462000dd357600082815260ce60205260409020546001600160a01b03161562000cfc5760405163cccf9bf160e01b815260040160405180910390fd5b60d55460405163cd21da9960e01b815260cf60048201526024810184905260448101839052606481019190915260009073__$99f6e31d9157e72684c1fb13c20fb01510$__9063cd21da9990608401600060405180830381865af415801562000d69573d6000803e3d6000fd5b505050506040513d6000823e601f3d908101601f1916820160405262000d93919081019062003f2c565b905060005b815181101562000dd05762000dbb82828151811062000b1e5762000b1e62003e98565b8062000dc78162003ec4565b91505062000d98565b50505b505050565b6001600160a01b037f000000000000000000000000000000000000000000000000000000000000000016300362000e235760405162461bcd60e51b8152600401620006d19062003f65565b7f00000000000000000000000000000000000000000000000000000000000000006001600160a01b031662000e6e60008051602062005a66833981519152546001600160a01b031690565b6001600160a01b03161462000e975760405162461bcd60e51b8152600401620006d19062003fb1565b62000ea28162002e66565b6040805160008082526020820190925262000ec09183919062002e70565b50565b60405163787c576760e01b815260cf60048201526001600160a01b0382166024820152600090819073__$99f6e31d9157e72684c1fb13c20fb01510$__9063787c5767906044016040805180830381865af415801562000f27573d6000803e3d6000fd5b505050506040513d601f19601f8201168201806040525081019062000f4d919062003f07565b91509150915091565b62000f606200344e565b600083815260d16020526040902060040180548390811062000f865762000f8662003e98565b6000918252602091829020604080518082018252600590930290910180546001600160a01b0316835281516080810190925291928301906001830160048282826020028201915b81548152602001906001019080831162000fcd5750505050508152505090505b92915050565b6001600160a01b037f00000000000000000000000000000000000000000000000000000000000000001630036200103e5760405162461bcd60e51b8152600401620006d19062003f65565b7f00000000000000000000000000000000000000000000000000000000000000006001600160a01b03166200108960008051602062005a66833981519152546001600160a01b031690565b6001600160a01b031614620010b25760405162461bcd60e51b8152600401620006d19062003fb1565b620010bd8262002e66565b620010cb8282600162002e70565b5050565b6000306001600160a01b037f00000000000000000000000000000000000000000000000000000000000000001614620011715760405162461bcd60e51b815260206004820152603860248201527f555550535570677261646561626c653a206d757374206e6f742062652063616c60448201527f6c6564207468726f7567682064656c656761746563616c6c00000000000000006064820152608401620006d1565b5060008051602062005a6683398151915290565b6200118f62002fe8565b6200119b600062003044565b565b60ca546001600160a01b03163314620011c95760405163469666c560e01b815260040160405180910390fd5b60c95460405163914eb34d60e01b81526001600160a01b039091169063914eb34d90620011ff9086908690869060040162003ee0565b600060405180830381600087803b1580156200121a57600080fd5b505af11580156200122f573d6000803e3d6000fd5b50505050505050565b604051631c2da66560e31b815260cf600482015260609073__$99f6e31d9157e72684c1fb13c20fb01510$__9063e16d332890602401600060405180830381865af41580156200128c573d6000803e3d6000fd5b505050506040513d6000823e601f3d908101601f19168201604052620012b6919081019062003f2c565b905090565b600082815260d160209081526040808320815161012081018352815481526001820154818501526002820154818401526003820154606082015260048201805484518187028101870190955280855286959294608086019390929190879084015b82821015620013985760008481526020908190206040805180820182526005860290920180546001600160a01b0316835281516080810190925291928301906001830160048282826020028201915b8154815260200190600101908083116200136b57505050505081525050815260200190600101906200131c565b50505050815260200160058201805480602002602001604051908101604052809291908181526020018280548015620013fb57602002820191906000526020600020905b81546001600160a01b03168152600190910190602001808311620013dc575b5050505050815260200160068201805480602002602001604051908101604052809291908181526020016000905b8282101562001579578382906000526020600020906007020160405180604001604052908160008201805480602002602001604051908101604052809291908181526020018280548015620014a857602002820191906000526020600020905b81546001600160a01b0316815260019091019060200180831162001489575b50505091835250506040805160608101825260018401805482528251608081019384905260209485019492939192840191600287019060049082845b815481526020019060010190808311620014e45750505050508152602001600582018054806020026020016040519081016040528092919081815260200182805480156200155c57602002820191906000526020600020905b81546001600160a01b031681526001909101906020018083116200153d575b505050505081525050815250508152602001906001019062001429565b50505090825250600782015460ff1615156020820152604080516080810182529101906008830160048282826020028201915b815481526020019060010190808311620015ac57505050505081525050905060005b8160800151518110156200167c57836001600160a01b031682608001518281518110620015ff57620015ff62003e98565b6020026020010151600001516001600160a01b03160362001667578160800151818151811062001633576200163362003e98565b60200260200101516020015160006004811062001654576200165462003e98565b6020020151600014159250505062000fed565b80620016738162003ec4565b915050620015ce565b506000949350505050565b6200169162003478565b600082815260d1602090815260408083208151610120810183528154815260018201548185015260028201548184015260038201546060820152600482018054845181870281018701909552808552919592946080870194939192919084015b828210156200176d5760008481526020908190206040805180820182526005860290920180546001600160a01b0316835281516080810190925291928301906001830160048282826020028201915b815481526020019060010190808311620017405750505050508152505081526020019060010190620016f1565b50505050815260200160058201805480602002602001604051908101604052809291908181526020018280548015620017d057602002820191906000526020600020905b81546001600160a01b03168152600190910190602001808311620017b1575b5050505050815260200160068201805480602002602001604051908101604052809291908181526020016000905b828210156200194e5783829060005260206000209060070201604051806040016040529081600082018054806020026020016040519081016040528092919081815260200182805480156200187d57602002820191906000526020600020905b81546001600160a01b031681526001909101906020018083116200185e575b50505091835250506040805160608101825260018401805482528251608081019384905260209485019492939192840191600287019060049082845b815481526020019060010190808311620018b95750505050508152602001600582018054806020026020016040519081016040528092919081815260200182805480156200193157602002820191906000526020600020905b81546001600160a01b0316815260019091019060200180831162001912575b5050505050815250508152505081526020019060010190620017fe565b50505090825250600782015460ff1615156020820152604080516080810182529101906008830160048282826020028201915b81548152602001906001019080831162001981575050505050815250509050919050565b60d054815110620019d0578051604051637f6efcb560e11b81526004810191909152602401620006d1565b8051600090815260ce60205260409020546001600160a01b031662001a0f578051604051635291bbcf60e01b81526004810191909152602401620006d1565b8051600090815260ce602090815260409182902054825163221f951160e01b815292516001600160a01b0390911692839263221f9511926004808401938290030181865afa15801562001a66573d6000803e3d6000fd5b505050506040513d601f19601f8201168201806040525081019062001a8c919062003d43565b60000b1962001ab55781516040516343609fe160e01b81526004810191909152602401620006d1565b8151600090815260d16020908152604090912060018101549184015190911462001b105782516020840151600183015460405163048b63c360e11b8152600481019390935260248301919091526044820152606401620006d1565b82516040516358914d0360e01b815260cf6004820152602481019190915233604482015273__$99f6e31d9157e72684c1fb13c20fb01510$__906358914d0390606401602060405180830381865af415801562001b71573d6000803e3d6000fd5b505050506040513d601f19601f8201168201806040525081019062001b97919062003d29565b1962001bc357825160405163eb51f5f960e01b81526004810191909152336024820152604401620006d1565b825162001bd19033620012bb565b1562001bfd57825160405163173ca10960e31b81526004810191909152336024820152604401620006d1565b60608301516040516316f6db8160e01b815260009173__$34d23ddaee48904c6c566425acbfa0fc0e$__916316f6db819162001c3c9160040162004051565b608060405180830381865af415801562001c5a573d6000803e3d6000fd5b505050506040513d601f19601f8201168201806040525081019062001c80919062004066565b604051636fda2c7960e01b815290915073__$34d23ddaee48904c6c566425acbfa0fc0e$__90636fda2c799062001cbc908490600401620040ec565b602060405180830381865af415801562001cda573d6000803e3d6000fd5b505050506040513d601f19601f8201168201806040525081019062001d00919062004112565b62001d1e57604051631886185760e01b815260040160405180910390fd5b60408085015190516316f6db8160e01b815260009173__$34d23ddaee48904c6c566425acbfa0fc0e$__916316f6db819162001d5d9160040162004051565b608060405180830381865af415801562001d7b573d6000803e3d6000fd5b505050506040513d601f19601f8201168201806040525081019062001da1919062004066565b604051636fda2c7960e01b815290915073__$34d23ddaee48904c6c566425acbfa0fc0e$__90636fda2c799062001ddd908490600401620040ec565b602060405180830381865af415801562001dfb573d6000803e3d6000fd5b505050506040513d601f19601f8201168201806040525081019062001e21919062004112565b62001e3f5760405163145a1fdd60e31b815260040160405180910390fd5b84516040516358914d0360e01b815260cf6004808301919091526024820192909252336044820152839185019073__$99f6e31d9157e72684c1fb13c20fb01510$__906358914d0390606401602060405180830381865af415801562001ea9573d6000803e3d6000fd5b505050506040513d601f19601f8201168201806040525081019062001ecf919062003d29565b8154811062001ee25762001ee262003e98565b906000526020600020906005020160010190600462001f03929190620034c8565b50600783015460ff1662000dd05760005b856080015151811015620020f95760cf73__$99f6e31d9157e72684c1fb13c20fb01510$__6358914d03909188600001518960800151858151811062001f5e5762001f5e62003e98565b60200260200101516040518463ffffffff1660e01b815260040162001f9f9392919092835260208301919091526001600160a01b0316604082015260600190565b602060405180830381865af415801562001fbd573d6000803e3d6000fd5b505050506040513d601f19601f8201168201806040525081019062001fe3919062003d29565b196200203b578551608087015180518390811062002005576200200562003e98565b602002602001015160405163eb51f5f960e01b8152600401620006d19291909182526001600160a01b0316602082015260400190565b60006200204a82600162004130565b90505b866080015151811015620020e3578660800151818151811062002074576200207462003e98565b60200260200101516001600160a01b0316876080015183815181106200209e576200209e62003e98565b60200260200101516001600160a01b031603620020ce576040516342381c9560e01b815260040160405180910390fd5b80620020da8162003ec4565b9150506200204d565b5080620020f08162003ec4565b91505062001f14565b50604080516060810182526020808801518252810183905260808701518183015286519151636aba6eeb60e11b8152909173__$99f6e31d9157e72684c1fb13c20fb01510$__9163d574ddd6916200215a9160cf9190869060040162004146565b602060405180830381865af415801562002178573d6000803e3d6000fd5b505050506040513d601f19601f820116820180604052508101906200219e919062004112565b6200228557604080516001818301818152608083019093526000928291606083016020803683375050508152602001839052805180519192503391600090620021eb57620021eb62003e98565b6001600160a01b0390921660209283029190910182015260068601805460018101825560009182529082902083518051859460079094029092019262002237928492909101906200350b565b5060208281015180516001840190815591810151909190620022609060028501906004620034c8565b50604082015180516200227e9160058401916020909101906200350b565b5050505050505b855160d55460405163449cf2fd60e11b815260cf600482015260248101929092526044820152600090819073__$99f6e31d9157e72684c1fb13c20fb01510$__90638939e5fa90606401600060405180830381865af4158015620022ed573d6000803e3d6000fd5b505050506040513d6000823e601f3d908101601f19168201604052620023179190810190620041d1565b915091508115620023e65760005b815181101562000bf65760c95482516001600160a01b0390911690638ed47008908490849081106200235b576200235b62003e98565b602090810291909101015160cb546040516001600160e01b031960e085901b1681526001600160a01b039092166004830152602482015260006044820152606401600060405180830381600087803b158015620023b757600080fd5b505af1158015620023cc573d6000803e3d6000fd5b505050508080620023dd9062003ec4565b91505062002325565b5050505050505050565b60c9546000906001600160a01b031633146200241f57604051630e2c730d60e41b815260040160405180910390fd5b60d554604051629bf68360e11b815260cf60048201526001600160a01b03841660248201526044810191909152600090819073__$99f6e31d9157e72684c1fb13c20fb01510$__90630137ed0690606401600060405180830381865af41580156200248e573d6000803e3d6000fd5b505050506040513d6000823e601f3d908101601f19168201604052620024b891908101906200421b565b9150915060005b8151811015620024f757620024e282828151811062000b1e5762000b1e62003e98565b80620024ee8162003ec4565b915050620024bf565b50909392505050565b6200250a62002fe8565b6040805160a0810182526001600160a01b038a8116808352908a16602083018190528284018a905260608301889052608090920184905260c980546001600160a01b0319908116909217905560ca8054909116909117905560cb87905560cc85905560cd829055516301a79f6360e71b815260cf600482015260248101839052604481018490526064810186905273__$99f6e31d9157e72684c1fb13c20fb01510$__9063d3cfb1809060840160006040518083038186803b158015620025d057600080fd5b505af4158015620025e5573d6000803e3d6000fd5b5050604080516001600160a01b03808d1682528b166020820152908101899052606081018890526080810187905260a0810186905260c0810185905260e081018490527ff95156a904d33c289d45bd80fdb27f108976d7a2de754073eb7506cf618779ad925061010001905060405180910390a15050505050505050565b6200266d62002fe8565b6001600160a01b038116620026d45760405162461bcd60e51b815260206004820152602660248201527f4f776e61626c653a206e6577206f776e657220697320746865207a65726f206160448201526564647265737360d01b6064820152608401620006d1565b62000ec08162003044565b60ca546001600160a01b031633146200270b5760405163469666c560e01b815260040160405180910390fd5b60d555565b600054610100900460ff1615808015620027315750600054600160ff909116105b806200274d5750303b1580156200274d575060005460ff166001145b620027b25760405162461bcd60e51b815260206004820152602e60248201527f496e697469616c697a61626c653a20636f6e747261637420697320616c72656160448201526d191e481a5b9a5d1a585b1a5e995960921b6064820152608401620006d1565b6000805460ff191660011790558015620027d6576000805461ff0019166101001790555b60d5829055620027e562003096565b8015620010cb576000805461ff0019169055604051600181527f7f26b83ff96e1f2b6a682f133852f6798a09c465da95921460cefb38474024989060200160405180910390a15050565b6200283c60cf82620030ca565b600081815260d1602090815260408083208151610120810183528154815260018201548185015260028201548184015260038201546060820152600482018054845181870281018701909552808552919492936080860193909290879084015b82821015620029185760008481526020908190206040805180820182526005860290920180546001600160a01b0316835281516080810190925291928301906001830160048282826020028201915b815481526020019060010190808311620028eb57505050505081525050815260200190600101906200289c565b505050508152602001600582018054806020026020016040519081016040528092919081815260200182805480156200297b57602002820191906000526020600020905b81546001600160a01b031681526001909101906020018083116200295c575b5050505050815260200160068201805480602002602001604051908101604052809291908181526020016000905b8282101562002af957838290600052602060002090600702016040518060400160405290816000820180548060200260200160405190810160405280929190818152602001828054801562002a2857602002820191906000526020600020905b81546001600160a01b0316815260019091019060200180831162002a09575b50505091835250506040805160608101825260018401805482528251608081019384905260209485019492939192840191600287019060049082845b81548152602001906001019080831162002a6457505050505081526020016005820180548060200260200160405190810160405280929190818152602001828054801562002adc57602002820191906000526020600020905b81546001600160a01b0316815260019091019060200180831162002abd575b5050505050815250508152505081526020019060010190620029a9565b50505090825250600782015460ff1615156020820152604080516080810182529101906008830160048282826020028201915b81548152602001906001019080831162002b2c5750505050508152505090506000816060015160c96003015460405162002b669062003563565b9182526020820152604001604051809103906000f08015801562002b8e573d6000803e3d6000fd5b50600084815260ce602052604080822080546001600160a01b0319166001600160a01b0385161790558401519192509067ffffffffffffffff81111562002bd95762002bd96200373a565b60405190808252806020026020018201604052801562002c03578160200160208202803683370190505b5090506000836040015167ffffffffffffffff81111562002c285762002c286200373a565b60405190808252806020026020018201604052801562002c5d57816020015b606081526020019060019003908162002c475790505b50905060005b846040015181101562002da1578460800151818151811062002c895762002c8962003e98565b60200260200101516000015183828151811062002caa5762002caa62003e98565b6001600160a01b03928316602091820292909201015260c9546080870151805160009392909216916315dac9b291908590811062002cec5762002cec62003e98565b6020908102919091010151516040516001600160e01b031960e084901b1681526001600160a01b039091166004820152602401600060405180830381865afa15801562002d3d573d6000803e3d6000fd5b505050506040513d6000823e601f3d908101601f1916820160405262002d6791908101906200425c565b90508083838151811062002d7f5762002d7f62003e98565b602002602001018190525050808062002d989062003ec4565b91505062002c63565b506040516337f8d5ff60e01b81526001600160a01b038416906337f8d5ff9062002dd29085908590600401620042dc565b600060405180830381600087803b15801562002ded57600080fd5b505af115801562002e02573d6000803e3d6000fd5b505050508360200151846000015160cf600001547fbbd25d64683f157b2e3544d3d6430e14102db1e49592cf4dcaf827e2ded517ee8760400151886060015187438a60405162002e5795949392919062004354565b60405180910390a45050505050565b62000ec062002fe8565b7f4910fdfa16fed3260ed0e7147f7cc6da11a60208b5b9406d12a635614ffd91435460ff161562002ea65762000dd383620031ab565b826001600160a01b03166352d1902d6040518163ffffffff1660e01b8152600401602060405180830381865afa92505050801562002f03575060408051601f3d908101601f1916820190925262002f009181019062003d29565b60015b62002f685760405162461bcd60e51b815260206004820152602e60248201527f45524331393637557067726164653a206e657720696d706c656d656e7461746960448201526d6f6e206973206e6f74205555505360901b6064820152608401620006d1565b60008051602062005a66833981519152811462002fda5760405162461bcd60e51b815260206004820152602960248201527f45524331393637557067726164653a20756e737570706f727465642070726f786044820152681a58589b195555525160ba1b6064820152608401620006d1565b5062000dd38383836200324a565b6097546001600160a01b031633146200119b5760405162461bcd60e51b815260206004820181905260248201527f4f776e61626c653a2063616c6c6572206973206e6f7420746865206f776e65726044820152606401620006d1565b609780546001600160a01b038381166001600160a01b0319831681179093556040519116919082907f8be0079c531659141344cd1fd0a4f28419497f9722a3daafe3b4186f6b6457e090600090a35050565b600054610100900460ff16620030c05760405162461bcd60e51b8152600401620006d19062004396565b6200119b62003275565b8154826000620030da8362003ec4565b9091555050600081815260028301602052604081206001810180549192620031028362003ec4565b909155505060078101805460ff191690556200312360058201600062003571565b6200313360068201600062003591565b60005b6004820154811015620031a5578160040181815481106200315b576200315b62003e98565b906000526020600020906005020160010160006200319091905060008155600101600081556001016000815560010160009055565b806200319c8162003ec4565b91505062003136565b50505050565b6001600160a01b0381163b6200321a5760405162461bcd60e51b815260206004820152602d60248201527f455243313936373a206e657720696d706c656d656e746174696f6e206973206e60448201526c1bdd08184818dbdb9d1c9858dd609a1b6064820152608401620006d1565b60008051602062005a6683398151915280546001600160a01b0319166001600160a01b0392909216919091179055565b6200325583620032aa565b600082511180620032635750805b1562000dd357620031a58383620032ec565b600054610100900460ff166200329f5760405162461bcd60e51b8152600401620006d19062004396565b6200119b3362003044565b620032b581620031ab565b6040516001600160a01b038216907fbc7cd75a20ee27fd9adebab32041f755214dbc6bffa90cc0225b39da2e5c2d3b90600090a250565b606062003314838360405180606001604052806027815260200162005a86602791396200331b565b9392505050565b6060600080856001600160a01b0316856040516200333a9190620043e1565b600060405180830381855af49150503d806000811462003377576040519150601f19603f3d011682016040523d82523d6000602084013e6200337c565b606091505b50915091506200338f8683838762003399565b9695505050505050565b606083156200340d57825160000362003405576001600160a01b0385163b620034055760405162461bcd60e51b815260206004820152601d60248201527f416464726573733a2063616c6c20746f206e6f6e2d636f6e74726163740000006044820152606401620006d1565b508162003419565b62003419838362003421565b949350505050565b815115620034325781518083602001fd5b8060405162461bcd60e51b8152600401620006d1919062004051565b604051806040016040528060006001600160a01b0316815260200162003473620035b4565b905290565b6040518061012001604052806000815260200160008152602001600081526020016000815260200160608152602001606081526020016060815260200160001515815260200162003473620035b4565b8260048101928215620034f9579160200282015b82811115620034f9578251825591602001919060010190620034dc565b5062003507929150620035d2565b5090565b828054828255906000526020600020908101928215620034f9579160200282015b82811115620034f957825182546001600160a01b0319166001600160a01b039091161782556020909201916001909101906200352c565b611666806200440083390190565b508054600082559060005260206000209081019062000ec09190620035d2565b508054600082556007029060005260206000209081019062000ec09190620035e9565b60405180608001604052806004906020820280368337509192915050565b5b80821115620035075760008155600101620035d3565b808211156200350757600062003600828262003571565b60006001830181815560028401829055600384018290556004840182905560058401829055906200363660058301600062003571565b505050600701620035e9565b6001600160a01b038116811462000ec057600080fd5b600080604083850312156200366c57600080fd5b8235620036798162003642565b946020939093013593505050565b600080604083850312156200369b57600080fd5b50508035926020909101359150565b600060208284031215620036bd57600080fd5b8135620033148162003642565b600060208284031215620036dd57600080fd5b5035919050565b8060005b6004811015620031a5578151845260209384019390910190600101620036e8565b6001600160a01b038151168252602081015162000dd36020840182620036e4565b60a0810162000fed828462003709565b634e487b7160e01b600052604160045260246000fd5b60405160a0810167ffffffffffffffff811182821017156200377657620037766200373a565b60405290565b604051601f8201601f1916810167ffffffffffffffff81118282101715620037a857620037a86200373a565b604052919050565b600067ffffffffffffffff821115620037cd57620037cd6200373a565b50601f01601f191660200190565b600082601f830112620037ed57600080fd5b813562003804620037fe82620037b0565b6200377c565b8181528460208386010111156200381a57600080fd5b816020850160208301376000918101602001919091529392505050565b600080604083850312156200384b57600080fd5b8235620038588162003642565b9150602083013567ffffffffffffffff8111156200387557600080fd5b6200388385828601620037db565b9150509250929050565b600067ffffffffffffffff821115620038aa57620038aa6200373a565b5060051b60200190565b600082601f830112620038c657600080fd5b81356020620038d9620037fe836200388d565b82815260059290921b84018101918181019086841115620038f957600080fd5b8286015b8481101562003921578035620039138162003642565b8352918301918301620038fd565b509695505050505050565b6000806000606084860312156200394257600080fd5b833567ffffffffffffffff8111156200395a57600080fd5b6200396886828701620038b4565b9660208601359650604090950135949350505050565b6020808252825182820181905260009190848201906040850190845b81811015620039b8578351835292840192918401916001016200399a565b50909695505050505050565b60008060408385031215620039d857600080fd5b823591506020830135620039ec8162003642565b809150509250929050565b600081518084526020808501945080840160005b8381101562003a355762003a2187835162003709565b60a096909601959082019060010162003a0b565b509495945050505050565b600081518084526020808501945080840160005b8381101562003a355781516001600160a01b03168752958201959082019060010162003a54565b600081518084526020808501808196508360051b8101915082860160005b8581101562003b1757828403895281516040815181875262003abe8288018262003a40565b90508783015192508681038888015260c0835182528884015162003ae58a840182620036e4565b508284015193508060a083015262003b008183018562003a40565b9c89019c9750505092860192505060010162003a99565b5091979650505050505050565b60208152815160208201526020820151604082015260408201516060820152606082015160808201526000608083015161018060a084015262003b6c6101a0840182620039f7565b905060a0840151601f19808584030160c086015262003b8c838362003a40565b925060c08601519150808584030160e08601525062003bac828262003a7b565b91505060e084015161010062003bc58186018315159052565b850151905062003bda610120850182620036e4565b509392505050565b60006020828403121562003bf557600080fd5b813567ffffffffffffffff8082111562003c0e57600080fd5b9083019060a0828603121562003c2357600080fd5b62003c2d62003750565b823581526020830135602082015260408301358281111562003c4e57600080fd5b62003c5c87828601620037db565b60408301525060608301358281111562003c7557600080fd5b62003c8387828601620037db565b60608301525060808301358281111562003c9c57600080fd5b62003caa87828601620038b4565b60808301525095945050505050565b600080600080600080600080610100898b03121562003cd757600080fd5b883562003ce48162003642565b9750602089013562003cf68162003642565b979a9799505050506040860135956060810135956080820135955060a0820135945060c0820135935060e0909101359150565b60006020828403121562003d3c57600080fd5b5051919050565b60006020828403121562003d5657600080fd5b81518060000b81146200331457600080fd5b600082601f83011262003d7a57600080fd5b8151602062003d8d620037fe836200388d565b82815260059290921b8401810191818101908684111562003dad57600080fd5b8286015b848110156200392157805162003dc78162003642565b835291830191830162003db1565b600082601f83011262003de757600080fd5b8151602062003dfa620037fe836200388d565b82815260059290921b8401810191818101908684111562003e1a57600080fd5b8286015b8481101562003921578051835291830191830162003e1e565b6000806040838503121562003e4b57600080fd5b825167ffffffffffffffff8082111562003e6457600080fd5b62003e728683870162003d68565b9350602085015191508082111562003e8957600080fd5b50620038838582860162003dd5565b634e487b7160e01b600052603260045260246000fd5b634e487b7160e01b600052601160045260246000fd5b60006001820162003ed95762003ed962003eae565b5060010190565b60608152600062003ef5606083018662003a40565b60208301949094525060400152919050565b6000806040838503121562003f1b57600080fd5b505080516020909101519092909150565b60006020828403121562003f3f57600080fd5b815167ffffffffffffffff81111562003f5757600080fd5b620034198482850162003dd5565b6020808252602c908201527f46756e6374696f6e206d7573742062652063616c6c6564207468726f7567682060408201526b19195b1959d85d1958d85b1b60a21b606082015260800190565b6020808252602c908201527f46756e6374696f6e206d7573742062652063616c6c6564207468726f7567682060408201526b6163746976652070726f787960a01b606082015260800190565b60005b838110156200401a57818101518382015260200162004000565b50506000910152565b600081518084526200403d81602086016020860162003ffd565b601f01601f19169290920160200192915050565b60208152600062003314602083018462004023565b6000608082840312156200407957600080fd5b82601f8301126200408957600080fd5b6040516080810181811067ffffffffffffffff82111715620040af57620040af6200373a565b604052806080840185811115620040c557600080fd5b845b81811015620040e1578051835260209283019201620040c7565b509195945050505050565b6080810162000fed8284620036e4565b805180151581146200410d57600080fd5b919050565b6000602082840312156200412557600080fd5b6200331482620040fc565b8082018082111562000fed5762000fed62003eae565b8381526000602084818401526060604084015261012083018451606085015281850151620041786080860182620036e4565b50604085015160c06101008601528051918290528201906000906101408601905b80831015620041c45783516001600160a01b0316825292840192600192909201919084019062004199565b5098975050505050505050565b60008060408385031215620041e557600080fd5b620041f083620040fc565b9150602083015167ffffffffffffffff8111156200420d57600080fd5b620038838582860162003d68565b600080604083850312156200422f57600080fd5b82519150602083015167ffffffffffffffff8111156200424e57600080fd5b620038838582860162003dd5565b6000602082840312156200426f57600080fd5b815167ffffffffffffffff8111156200428757600080fd5b8201601f810184136200429957600080fd5b8051620042aa620037fe82620037b0565b818152856020838501011115620042c057600080fd5b620042d382602083016020860162003ffd565b95945050505050565b604081526000620042f1604083018562003a40565b6020838203818501528185518084528284019150828160051b85010183880160005b838110156200434557601f198784030185526200433283835162004023565b9486019492509085019060010162004313565b50909998505050505050505050565b85815284602082015260a0604082015260006200437560a083018662003a40565b90508360608301526001600160a01b03831660808301529695505050505050565b6020808252602b908201527f496e697469616c697a61626c653a20636f6e7472616374206973206e6f74206960408201526a6e697469616c697a696e6760a81b606082015260800190565b60008251620043f581846020870162003ffd565b919091019291505056fe60c0604052600060065534801561001557600080fd5b506040516116663803806116668339810160408190526100349161009b565b61003d3361004b565b60a0919091526080526100bf565b600080546001600160a01b038381166001600160a01b0319831681178455604051919092169283917f8be0079c531659141344cd1fd0a4f28419497f9722a3daafe3b4186f6b6457e09190a35050565b600080604083850312156100ae57600080fd5b505080516020909101519092909150565b60805160a05161154a61011c6000396000818161027f0152610768015260008181610243015281816103aa015281816103dc015281816104150152818161044e0152818161089b0152818161093e01526109e5015261154a6000f3fe608060405234801561001057600080fd5b506004361061012c5760003560e01c80638da5cb5b116100ad578063cc5ef00911610071578063cc5ef009146102a1578063cd5e3837146102a9578063ce7c2ac2146102bc578063d73fe0aa146102cf578063f2fde38b146102d757600080fd5b80638da5cb5b146102255780639cb8a26a14610236578063ac5553ce1461023e578063b0ef817914610265578063c27040241461027a57600080fd5b80634e3874a0116100f45780634e3874a0146101cc5780635aa68ac0146101e2578063670d14b2146101f7578063715018a61461020a5780637fd283461461021257600080fd5b80630ea6564814610131578063221f95111461015a57806335c1d3491461017557806337f8d5ff146101a057806348cd4cb1146101b5575b600080fd5b61014461013f36600461105a565b6102ea565b60405161015191906110d0565b60405180910390f35b610162610384565b60405160009190910b8152602001610151565b6101886101833660046110e3565b61048b565b6040516001600160a01b039091168152602001610151565b6101b36101ae366004611148565b6104b5565b005b6101be60065481565b604051908152602001610151565b6101d461060a565b60405161015192919061120c565b6101ea61078f565b604051610151919061122d565b61014461020536600461105a565b6107f1565b6101b361080a565b6101b361022036600461127a565b61081e565b6000546001600160a01b0316610188565b6101b3610ae1565b6101be7f000000000000000000000000000000000000000000000000000000000000000081565b61026d610af7565b60405161015191906112ec565b6101be7f000000000000000000000000000000000000000000000000000000000000000081565b61026d610c55565b6101446102b736600461105a565b610dad565b6101446102ca36600461105a565b610dc6565b61026d610ddf565b6101b36102e536600461105a565b610f37565b60036020526000908152604090208054610303906112ff565b80601f016020809104026020016040519081016040528092919081815260200182805461032f906112ff565b801561037c5780601f106103515761010080835404028352916020019161037c565b820191906000526020600020905b81548152906001019060200180831161035f57829003601f168201915b505050505081565b60006006546000036103965750600090565b6000600654436103a69190611349565b90507f000000000000000000000000000000000000000000000000000000000000000081116103d757600191505090565b6104027f00000000000000000000000000000000000000000000000000000000000000006002611362565b811161041057600291505090565b61043b7f00000000000000000000000000000000000000000000000000000000000000006003611362565b811161044957600391505090565b6104747f00000000000000000000000000000000000000000000000000000000000000006004611362565b811161048257600491505090565b60001991505090565b6005818154811061049b57600080fd5b6000918252602090912001546001600160a01b0316905081565b6006541561050a5760405162461bcd60e51b815260206004820152601760248201527f444b472068617320616c7265616479207374617274656400000000000000000060448201526064015b60405180910390fd5b610512610fb0565b60005b838110156105ff57600585858381811061053157610531611379565b9050602002016020810190610546919061105a565b81546001810183556000928352602090922090910180546001600160a01b0319166001600160a01b0390921691909117905582828281811061058a5761058a611379565b905060200281019061059c919061138f565b600160008888868181106105b2576105b2611379565b90506020020160208101906105c7919061105a565b6001600160a01b031681526020810191909152604001600020916105ec91908361143a565b50806105f7816114fb565b915050610515565b505043600655505050565b60006060600060058054905067ffffffffffffffff81111561062e5761062e6113d6565b60405190808252806020026020018201604052801561066157816020015b606081526020019060019003908161064c5790505b50905060005b60055481101561076557600160006005838154811061068857610688611379565b60009182526020808320909101546001600160a01b03168352820192909252604001902080546106b7906112ff565b80601f01602080910402602001604051908101604052809291908181526020018280546106e3906112ff565b80156107305780601f1061070557610100808354040283529160200191610730565b820191906000526020600020905b81548152906001019060200180831161071357829003601f168201915b505050505082828151811061074757610747611379565b6020026020010181905250808061075d906114fb565b915050610667565b507f0000000000000000000000000000000000000000000000000000000000000000939092509050565b606060058054806020026020016040519081016040528092919081815260200182805480156107e757602002820191906000526020600020905b81546001600160a01b031681526001909101906020018083116107c9575b5050505050905090565b60016020526000908152604090208054610303906112ff565b610812610fb0565b61081c600061100a565b565b3360009081526001602052604081208054610838906112ff565b9050116108875760405162461bcd60e51b815260206004820152601b60248201527f796f7520617265206e6f7420612067726f7570206d656d6265722100000000006044820152606401610501565b6000600654436108979190611349565b90507f000000000000000000000000000000000000000000000000000000000000000081116109395733600090815260026020526040902080546108da906112ff565b1590506109195760405162461bcd60e51b815260206004820152600d60248201526c1cda185c9948195e1a5cdd1959609a1b6044820152606401610501565b33600090815260026020526040902061093383858361143a565b50505050565b6109647f00000000000000000000000000000000000000000000000000000000000000006002611362565b81116109e0573360009081526003602052604090208054610984906112ff565b1590506109c65760405162461bcd60e51b815260206004820152601060248201526f1c995cdc1bdb9cd948195e1a5cdd195960821b6044820152606401610501565b33600090815260036020526040902061093383858361143a565b610a0b7f00000000000000000000000000000000000000000000000000000000000000006003611362565b8111610a94573360009081526004602052604090208054610a2b906112ff565b159050610a7a5760405162461bcd60e51b815260206004820152601560248201527f6a757374696669636174696f6e206578697374656400000000000000000000006044820152606401610501565b33600090815260046020526040902061093383858361143a565b60405162461bcd60e51b815260206004820152601560248201527f444b47205075626c6973682068617320656e64656400000000000000000000006044820152606401610501565b505050565b610ae9610fb0565b6000546001600160a01b0316ff5b60055460609060009067ffffffffffffffff811115610b1857610b186113d6565b604051908082528060200260200182016040528015610b4b57816020015b6060815260200190600190039081610b365790505b50905060005b600554811015610c4f576004600060058381548110610b7257610b72611379565b60009182526020808320909101546001600160a01b0316835282019290925260400190208054610ba1906112ff565b80601f0160208091040260200160405190810160405280929190818152602001828054610bcd906112ff565b8015610c1a5780601f10610bef57610100808354040283529160200191610c1a565b820191906000526020600020905b815481529060010190602001808311610bfd57829003601f168201915b5050505050828281518110610c3157610c31611379565b60200260200101819052508080610c47906114fb565b915050610b51565b50919050565b60055460609060009067ffffffffffffffff811115610c7657610c766113d6565b604051908082528060200260200182016040528015610ca957816020015b6060815260200190600190039081610c945790505b50905060005b600554811015610c4f576003600060058381548110610cd057610cd0611379565b60009182526020808320909101546001600160a01b0316835282019290925260400190208054610cff906112ff565b80601f0160208091040260200160405190810160405280929190818152602001828054610d2b906112ff565b8015610d785780601f10610d4d57610100808354040283529160200191610d78565b820191906000526020600020905b815481529060010190602001808311610d5b57829003601f168201915b5050505050828281518110610d8f57610d8f611379565b60200260200101819052508080610da5906114fb565b915050610caf565b60046020526000908152604090208054610303906112ff565b60026020526000908152604090208054610303906112ff565b60055460609060009067ffffffffffffffff811115610e0057610e006113d6565b604051908082528060200260200182016040528015610e3357816020015b6060815260200190600190039081610e1e5790505b50905060005b600554811015610c4f576002600060058381548110610e5a57610e5a611379565b60009182526020808320909101546001600160a01b0316835282019290925260400190208054610e89906112ff565b80601f0160208091040260200160405190810160405280929190818152602001828054610eb5906112ff565b8015610f025780601f10610ed757610100808354040283529160200191610f02565b820191906000526020600020905b815481529060010190602001808311610ee557829003601f168201915b5050505050828281518110610f1957610f19611379565b60200260200101819052508080610f2f906114fb565b915050610e39565b610f3f610fb0565b6001600160a01b038116610fa45760405162461bcd60e51b815260206004820152602660248201527f4f776e61626c653a206e6577206f776e657220697320746865207a65726f206160448201526564647265737360d01b6064820152608401610501565b610fad8161100a565b50565b6000546001600160a01b0316331461081c5760405162461bcd60e51b815260206004820181905260248201527f4f776e61626c653a2063616c6c6572206973206e6f7420746865206f776e65726044820152606401610501565b600080546001600160a01b038381166001600160a01b0319831681178455604051919092169283917f8be0079c531659141344cd1fd0a4f28419497f9722a3daafe3b4186f6b6457e09190a35050565b60006020828403121561106c57600080fd5b81356001600160a01b038116811461108357600080fd5b9392505050565b6000815180845260005b818110156110b057602081850181015186830182015201611094565b506000602082860101526020601f19601f83011685010191505092915050565b602081526000611083602083018461108a565b6000602082840312156110f557600080fd5b5035919050565b60008083601f84011261110e57600080fd5b50813567ffffffffffffffff81111561112657600080fd5b6020830191508360208260051b850101111561114157600080fd5b9250929050565b6000806000806040858703121561115e57600080fd5b843567ffffffffffffffff8082111561117657600080fd5b611182888389016110fc565b9096509450602087013591508082111561119b57600080fd5b506111a8878288016110fc565b95989497509550505050565b600082825180855260208086019550808260051b84010181860160005b848110156111ff57601f198684030189526111ed83835161108a565b988401989250908301906001016111d1565b5090979650505050505050565b82815260406020820152600061122560408301846111b4565b949350505050565b6020808252825182820181905260009190848201906040850190845b8181101561126e5783516001600160a01b031683529284019291840191600101611249565b50909695505050505050565b6000806020838503121561128d57600080fd5b823567ffffffffffffffff808211156112a557600080fd5b818501915085601f8301126112b957600080fd5b8135818111156112c857600080fd5b8660208285010111156112da57600080fd5b60209290920196919550909350505050565b60208152600061108360208301846111b4565b600181811c9082168061131357607f821691505b602082108103610c4f57634e487b7160e01b600052602260045260246000fd5b634e487b7160e01b600052601160045260246000fd5b8181038181111561135c5761135c611333565b92915050565b808202811582820484141761135c5761135c611333565b634e487b7160e01b600052603260045260246000fd5b6000808335601e198436030181126113a657600080fd5b83018035915067ffffffffffffffff8211156113c157600080fd5b60200191503681900382131561114157600080fd5b634e487b7160e01b600052604160045260246000fd5b601f821115610adc57600081815260208120601f850160051c810160208610156114135750805b601f850160051c820191505b818110156114325782815560010161141f565b505050505050565b67ffffffffffffffff831115611452576114526113d6565b6114668361146083546112ff565b836113ec565b6000601f84116001811461149a57600085156114825750838201355b600019600387901b1c1916600186901b1783556114f4565b600083815260209020601f19861690835b828110156114cb57868501358255602094850194600190920191016114ab565b50868210156114e85760001960f88860031b161c19848701351681555b505060018560011b0183555b5050505050565b60006001820161150d5761150d611333565b506001019056fea2646970667358221220fa05377607ecc6548d8101a54019d147738c74cac6c9434b650cbf8f1260a61f64736f6c63430008120033360894a13ba1a3210667c828492db98dca3e2076cc3735a920a3ca505d382bbc416464726573733a206c6f772d6c6576656c2064656c65676174652063616c6c206661696c6564a264697066735822122044a029635051ab03c46b7869f8fa93d82f221e16634fc6955c11862d454338d164736f6c63430008120033","linkReferences":{"src/libraries/BLS.sol":{"BLS":[{"start":7475,"length":20},{"start":7601,"length":20},{"start":7764,"length":20},{"start":7890,"length":20}]},"src/libraries/GroupLib.sol":{"GroupLib":[{"start":2076,"length":20},{"start":2793,"length":20},{"start":3446,"length":20},{"start":3661,"length":20},{"start":4108,"length":20},{"start":4976,"length":20},{"start":7253,"length":20},{"start":8077,"length":20},{"start":8261,"length":20},{"start":8779,"length":20},{"start":9169,"length":20},{"start":9586,"length":20},{"start":9913,"length":20}]}}},"methodIdentifiers":{"addReward(address[],uint256,uint256)":"914eb34d","commitDkg((uint256,uint256,bytes,bytes,address[]))":"e37eb96c","getBelongingGroup(address)":"3b6c00b0","getControllerConfig()":"d11b8e68","getCoordinator(uint256)":"42424d6f","getGroup(uint256)":"ceb60654","getGroupCount()":"06545a93","getGroupEpoch()":"7ee49cfd","getGroupThreshold(uint256)":"f49e0ba9","getLastOutput()":"51a2b9a0","getMember(uint256,uint256)":"4d79a893","getValidGroupIndices()":"b330a0fd","initialize(uint256)":"fe4b84df","isPartialKeyRegistered(uint256,address)":"c2db900b","nodeJoin(address)":"ed157c3f","nodeLeave(address)":"35fe4a3f","nodeWithdrawETH(address,uint256)":"0ad98f6a","owner()":"8da5cb5b","postProcessDkg(uint256,uint256)":"0bf9c5c6","proxiableUUID()":"52d1902d","renounceOwnership()":"715018a6","setControllerConfig(address,address,uint256,uint256,uint256,uint256,uint256,uint256)":"f1d49f6b","setLastOutput(uint256)":"f3df0802","transferOwnership(address)":"f2fde38b","upgradeTo(address)":"3659cfe6","upgradeToAndCall(address,bytes)":"4f1ef286"},"id":100}