{
  "abi": [
    {
      "inputs": [
        {
          "internalType": "uint256",
          "name": "groupIndex",
          "type": "uint256"
        }
      ],
      "name": "CoordinatorNotFound",
      "type": "error"
    },
    {
      "inputs": [
        {
          "internalType": "uint256",
          "name": "groupIndex",
          "type": "uint256"
        }
      ],
      "name": "DkgNotInProgress",
      "type": "error"
    },
    {
      "inputs": [
        {
          "internalType": "uint256",
          "name": "groupIndex",
          "type": "uint256"
        },
        {
          "internalType": "int8",
          "name": "phase",
          "type": "int8"
        }
      ],
      "name": "DkgStillInProgress",
      "type": "error"
    },
    {
      "inputs": [
        {
          "internalType": "uint256",
          "name": "groupIndex",
          "type": "uint256"
        },
        {
          "internalType": "uint256",
          "name": "inputGroupEpoch",
          "type": "uint256"
        },
        {
          "internalType": "uint256",
          "name": "currentGroupEpoch",
          "type": "uint256"
        }
      ],
      "name": "EpochMismatch",
      "type": "error"
    },
    {
      "inputs": [
        {
          "internalType": "uint256",
          "name": "groupIndex",
          "type": "uint256"
        }
      ],
      "name": "GroupNotExist",
      "type": "error"
    },
    {
      "inputs": [],
      "name": "InvalidPartialPublicKey",
      "type": "error"
    },
    {
      "inputs": [],
      "name": "InvalidPublicKey",
      "type": "error"
    },
    {
      "inputs": [],
      "name": "InvalidZeroAddress",
      "type": "error"
    },
    {
      "inputs": [],
      "name": "NodeAlreadyActive",
      "type": "error"
    },
    {
      "inputs": [],
      "name": "NodeAlreadyRegistered",
      "type": "error"
    },
    {
      "inputs": [
        {
          "internalType": "uint256",
          "name": "groupIndex",
          "type": "uint256"
        },
        {
          "internalType": "address",
          "name": "nodeIdAddress",
          "type": "address"
        }
      ],
      "name": "NodeNotInGroup",
      "type": "error"
    },
    {
      "inputs": [],
      "name": "NodeNotRegistered",
      "type": "error"
    },
    {
      "inputs": [
        {
          "internalType": "uint256",
          "name": "pendingUntilBlock",
          "type": "uint256"
        }
      ],
      "name": "NodeStillPending",
      "type": "error"
    },
    {
      "inputs": [
        {
          "internalType": "uint256",
          "name": "groupIndex",
          "type": "uint256"
        },
        {
          "internalType": "address",
          "name": "nodeIdAddress",
          "type": "address"
        }
      ],
      "name": "PartialKeyAlreadyRegistered",
      "type": "error"
    },
    {
      "inputs": [],
      "name": "SenderNotAdapter",
      "type": "error"
    },
    {
      "anonymous": false,
      "inputs": [
        {
          "indexed": false,
          "internalType": "address",
          "name": "stakingContractAddress",
          "type": "address"
        },
        {
          "indexed": false,
          "internalType": "address",
          "name": "adapterContractAddress",
          "type": "address"
        },
        {
          "indexed": false,
          "internalType": "uint256",
          "name": "nodeStakingAmount",
          "type": "uint256"
        },
        {
          "indexed": false,
          "internalType": "uint256",
          "name": "disqualifiedNodePenaltyAmount",
          "type": "uint256"
        },
        {
          "indexed": false,
          "internalType": "uint256",
          "name": "defaultNumberOfCommitters",
          "type": "uint256"
        },
        {
          "indexed": false,
          "internalType": "uint256",
          "name": "defaultDkgPhaseDuration",
          "type": "uint256"
        },
        {
          "indexed": false,
          "internalType": "uint256",
          "name": "groupMaxCapacity",
          "type": "uint256"
        },
        {
          "indexed": false,
          "internalType": "uint256",
          "name": "idealNumberOfGroups",
          "type": "uint256"
        },
        {
          "indexed": false,
          "internalType": "uint256",
          "name": "pendingBlockAfterQuit",
          "type": "uint256"
        },
        {
          "indexed": false,
          "internalType": "uint256",
          "name": "dkgPostProcessReward",
          "type": "uint256"
        }
      ],
      "name": "ControllerConfigSet",
      "type": "event"
    },
    {
      "anonymous": false,
      "inputs": [
        {
          "indexed": true,
          "internalType": "address",
          "name": "nodeAddress",
          "type": "address"
        },
        {
          "indexed": false,
          "internalType": "bytes",
          "name": "dkgPublicKey",
          "type": "bytes"
        }
      ],
      "name": "DkgPublicKeyChanged",
      "type": "event"
    },
    {
      "anonymous": false,
      "inputs": [
        {
          "indexed": true,
          "internalType": "uint256",
          "name": "globalEpoch",
          "type": "uint256"
        },
        {
          "indexed": true,
          "internalType": "uint256",
          "name": "groupIndex",
          "type": "uint256"
        },
        {
          "indexed": true,
          "internalType": "uint256",
          "name": "groupEpoch",
          "type": "uint256"
        },
        {
          "indexed": false,
          "internalType": "uint256",
          "name": "size",
          "type": "uint256"
        },
        {
          "indexed": false,
          "internalType": "uint256",
          "name": "threshold",
          "type": "uint256"
        },
        {
          "indexed": false,
          "internalType": "address[]",
          "name": "members",
          "type": "address[]"
        },
        {
          "indexed": false,
          "internalType": "uint256",
          "name": "assignmentBlockHeight",
          "type": "uint256"
        },
        {
          "indexed": false,
          "internalType": "address",
          "name": "coordinatorAddress",
          "type": "address"
        }
      ],
      "name": "DkgTask",
      "type": "event"
    },
    {
      "anonymous": false,
      "inputs": [
        {
          "indexed": false,
          "internalType": "uint8",
          "name": "version",
          "type": "uint8"
        }
      ],
      "name": "Initialized",
      "type": "event"
    },
    {
      "anonymous": false,
      "inputs": [
        {
          "indexed": true,
          "internalType": "address",
          "name": "nodeAddress",
          "type": "address"
        },
        {
          "indexed": false,
          "internalType": "uint256",
          "name": "groupIndex",
          "type": "uint256"
        }
      ],
      "name": "NodeActivated",
      "type": "event"
    },
    {
      "anonymous": false,
      "inputs": [
        {
          "indexed": true,
          "internalType": "address",
          "name": "nodeAddress",
          "type": "address"
        }
      ],
      "name": "NodeQuit",
      "type": "event"
    },
    {
      "anonymous": false,
      "inputs": [
        {
          "indexed": true,
          "internalType": "address",
          "name": "nodeAddress",
          "type": "address"
        },
        {
          "indexed": false,
          "internalType": "bytes",
          "name": "dkgPublicKey",
          "type": "bytes"
        },
        {
          "indexed": false,
          "internalType": "uint256",
          "name": "groupIndex",
          "type": "uint256"
        }
      ],
      "name": "NodeRegistered",
      "type": "event"
    },
    {
      "anonymous": false,
      "inputs": [
        {
          "indexed": true,
          "internalType": "address",
          "name": "nodeAddress",
          "type": "address"
        },
        {
          "indexed": false,
          "internalType": "uint256",
          "name": "ethAmount",
          "type": "uint256"
        },
        {
          "indexed": false,
          "internalType": "uint256",
          "name": "arpaAmount",
          "type": "uint256"
        }
      ],
      "name": "NodeRewarded",
      "type": "event"
    },
    {
      "anonymous": false,
      "inputs": [
        {
          "indexed": true,
          "internalType": "address",
          "name": "nodeIdAddress",
          "type": "address"
        },
        {
          "indexed": false,
          "internalType": "uint256",
          "name": "stakingRewardPenalty",
          "type": "uint256"
        },
        {
          "indexed": false,
          "internalType": "uint256",
          "name": "pendingBlock",
          "type": "uint256"
        }
      ],
      "name": "NodeSlashed",
      "type": "event"
    },
    {
      "anonymous": false,
      "inputs": [
        {
          "indexed": true,
          "internalType": "address",
          "name": "previousOwner",
          "type": "address"
        },
        {
          "indexed": true,
          "internalType": "address",
          "name": "newOwner",
          "type": "address"
        }
      ],
      "name": "OwnershipTransferred",
      "type": "event"
    },
    {
      "inputs": [
        {
          "internalType": "address[]",
          "name": "nodes",
          "type": "address[]"
        },
        {
          "internalType": "uint256",
          "name": "ethAmount",
          "type": "uint256"
        },
        {
          "internalType": "uint256",
          "name": "arpaAmount",
          "type": "uint256"
        }
      ],
      "name": "addReward",
      "outputs": [],
      "stateMutability": "nonpayable",
      "type": "function"
    },
    {
      "inputs": [
        {
          "internalType": "bytes",
          "name": "dkgPublicKey",
          "type": "bytes"
        }
      ],
      "name": "changeDkgPublicKey",
      "outputs": [],
      "stateMutability": "nonpayable",
      "type": "function"
    },
    {
      "inputs": [
        {
          "components": [
            {
              "internalType": "uint256",
              "name": "groupIndex",
              "type": "uint256"
            },
            {
              "internalType": "uint256",
              "name": "groupEpoch",
              "type": "uint256"
            },
            {
              "internalType": "bytes",
              "name": "publicKey",
              "type": "bytes"
            },
            {
              "internalType": "bytes",
              "name": "partialPublicKey",
              "type": "bytes"
            },
            {
              "internalType": "address[]",
              "name": "disqualifiedNodes",
              "type": "address[]"
            }
          ],
          "internalType": "struct IController.CommitDkgParams",
          "name": "params",
          "type": "tuple"
        }
      ],
      "name": "commitDkg",
      "outputs": [],
      "stateMutability": "nonpayable",
      "type": "function"
    },
    {
      "inputs": [
        {
          "internalType": "address",
          "name": "nodeAddress",
          "type": "address"
        }
      ],
      "name": "getBelongingGroup",
      "outputs": [
        {
          "internalType": "int256",
          "name": "",
          "type": "int256"
        },
        {
          "internalType": "int256",
          "name": "",
          "type": "int256"
        }
      ],
      "stateMutability": "view",
      "type": "function"
    },
    {
      "inputs": [],
      "name": "getControllerConfig",
      "outputs": [
        {
          "internalType": "address",
          "name": "stakingContractAddress",
          "type": "address"
        },
        {
          "internalType": "address",
          "name": "adapterContractAddress",
          "type": "address"
        },
        {
          "internalType": "uint256",
          "name": "nodeStakingAmount",
          "type": "uint256"
        },
        {
          "internalType": "uint256",
          "name": "disqualifiedNodePenaltyAmount",
          "type": "uint256"
        },
        {
          "internalType": "uint256",
          "name": "defaultNumberOfCommitters",
          "type": "uint256"
        },
        {
          "internalType": "uint256",
          "name": "defaultDkgPhaseDuration",
          "type": "uint256"
        },
        {
          "internalType": "uint256",
          "name": "groupMaxCapacity",
          "type": "uint256"
        },
        {
          "internalType": "uint256",
          "name": "idealNumberOfGroups",
          "type": "uint256"
        },
        {
          "internalType": "uint256",
          "name": "pendingBlockAfterQuit",
          "type": "uint256"
        },
        {
          "internalType": "uint256",
          "name": "dkgPostProcessReward",
          "type": "uint256"
        }
      ],
      "stateMutability": "view",
      "type": "function"
    },
    {
      "inputs": [
        {
          "internalType": "uint256",
          "name": "groupIndex",
          "type": "uint256"
        }
      ],
      "name": "getCoordinator",
      "outputs": [
        {
          "internalType": "address",
          "name": "",
          "type": "address"
        }
      ],
      "stateMutability": "view",
      "type": "function"
    },
    {
      "inputs": [
        {
          "internalType": "uint256",
          "name": "groupIndex",
          "type": "uint256"
        }
      ],
      "name": "getGroup",
      "outputs": [
        {
          "components": [
            {
              "internalType": "uint256",
              "name": "index",
              "type": "uint256"
            },
            {
              "internalType": "uint256",
              "name": "epoch",
              "type": "uint256"
            },
            {
              "internalType": "uint256",
              "name": "size",
              "type": "uint256"
            },
            {
              "internalType": "uint256",
              "name": "threshold",
              "type": "uint256"
            },
            {
              "components": [
                {
                  "internalType": "address",
                  "name": "nodeIdAddress",
                  "type": "address"
                },
                {
                  "internalType": "uint256[4]",
                  "name": "partialPublicKey",
                  "type": "uint256[4]"
                }
              ],
              "internalType": "struct IController.Member[]",
              "name": "members",
              "type": "tuple[]"
            },
            {
              "internalType": "address[]",
              "name": "committers",
              "type": "address[]"
            },
            {
              "components": [
                {
                  "internalType": "address[]",
                  "name": "nodeIdAddress",
                  "type": "address[]"
                },
                {
                  "components": [
                    {
                      "internalType": "uint256",
                      "name": "groupEpoch",
                      "type": "uint256"
                    },
                    {
                      "internalType": "uint256[4]",
                      "name": "publicKey",
                      "type": "uint256[4]"
                    },
                    {
                      "internalType": "address[]",
                      "name": "disqualifiedNodes",
                      "type": "address[]"
                    }
                  ],
                  "internalType": "struct IController.CommitResult",
                  "name": "commitResult",
                  "type": "tuple"
                }
              ],
              "internalType": "struct IController.CommitCache[]",
              "name": "commitCacheList",
              "type": "tuple[]"
            },
            {
              "internalType": "bool",
              "name": "isStrictlyMajorityConsensusReached",
              "type": "bool"
            },
            {
              "internalType": "uint256[4]",
              "name": "publicKey",
              "type": "uint256[4]"
            }
          ],
          "internalType": "struct IController.Group",
          "name": "",
          "type": "tuple"
        }
      ],
      "stateMutability": "view",
      "type": "function"
    },
    {
      "inputs": [],
      "name": "getGroupCount",
      "outputs": [
        {
          "internalType": "uint256",
          "name": "",
          "type": "uint256"
        }
      ],
      "stateMutability": "view",
      "type": "function"
    },
    {
      "inputs": [],
      "name": "getGroupEpoch",
      "outputs": [
        {
          "internalType": "uint256",
          "name": "",
          "type": "uint256"
        }
      ],
      "stateMutability": "view",
      "type": "function"
    },
    {
      "inputs": [
        {
          "internalType": "uint256",
          "name": "groupIndex",
          "type": "uint256"
        }
      ],
      "name": "getGroupThreshold",
      "outputs": [
        {
          "internalType": "uint256",
          "name": "",
          "type": "uint256"
        },
        {
          "internalType": "uint256",
          "name": "",
          "type": "uint256"
        }
      ],
      "stateMutability": "view",
      "type": "function"
    },
    {
      "inputs": [],
      "name": "getLastOutput",
      "outputs": [
        {
          "internalType": "uint256",
          "name": "",
          "type": "uint256"
        }
      ],
      "stateMutability": "view",
      "type": "function"
    },
    {
      "inputs": [
        {
          "internalType": "uint256",
          "name": "groupIndex",
          "type": "uint256"
        },
        {
          "internalType": "uint256",
          "name": "memberIndex",
          "type": "uint256"
        }
      ],
      "name": "getMember",
      "outputs": [
        {
          "components": [
            {
              "internalType": "address",
              "name": "nodeIdAddress",
              "type": "address"
            },
            {
              "internalType": "uint256[4]",
              "name": "partialPublicKey",
              "type": "uint256[4]"
            }
          ],
          "internalType": "struct IController.Member",
          "name": "",
          "type": "tuple"
        }
      ],
      "stateMutability": "view",
      "type": "function"
    },
    {
      "inputs": [
        {
          "internalType": "address",
          "name": "nodeAddress",
          "type": "address"
        }
      ],
      "name": "getNode",
      "outputs": [
        {
          "components": [
            {
              "internalType": "address",
              "name": "idAddress",
              "type": "address"
            },
            {
              "internalType": "bytes",
              "name": "dkgPublicKey",
              "type": "bytes"
            },
            {
              "internalType": "bool",
              "name": "state",
              "type": "bool"
            },
            {
              "internalType": "uint256",
              "name": "pendingUntilBlock",
              "type": "uint256"
            }
          ],
          "internalType": "struct IController.Node",
          "name": "",
          "type": "tuple"
        }
      ],
      "stateMutability": "view",
      "type": "function"
    },
    {
      "inputs": [
        {
          "internalType": "address",
          "name": "nodeAddress",
          "type": "address"
        }
      ],
      "name": "getNodeWithdrawableTokens",
      "outputs": [
        {
          "internalType": "uint256",
          "name": "",
          "type": "uint256"
        },
        {
          "internalType": "uint256",
          "name": "",
          "type": "uint256"
        }
      ],
      "stateMutability": "view",
      "type": "function"
    },
    {
      "inputs": [],
      "name": "getValidGroupIndices",
      "outputs": [
        {
          "internalType": "uint256[]",
          "name": "",
          "type": "uint256[]"
        }
      ],
      "stateMutability": "view",
      "type": "function"
    },
    {
      "inputs": [
        {
          "internalType": "address",
          "name": "arpa",
          "type": "address"
        },
        {
          "internalType": "uint256",
          "name": "lastOutput",
          "type": "uint256"
        }
      ],
      "name": "initialize",
      "outputs": [],
      "stateMutability": "nonpayable",
      "type": "function"
    },
    {
      "inputs": [
        {
          "internalType": "uint256",
          "name": "groupIndex",
          "type": "uint256"
        },
        {
          "internalType": "address",
          "name": "nodeIdAddress",
          "type": "address"
        }
      ],
      "name": "isPartialKeyRegistered",
      "outputs": [
        {
          "internalType": "bool",
          "name": "",
          "type": "bool"
        }
      ],
      "stateMutability": "view",
      "type": "function"
    },
    {
      "inputs": [],
      "name": "nodeActivate",
      "outputs": [],
      "stateMutability": "nonpayable",
      "type": "function"
    },
    {
      "inputs": [],
      "name": "nodeQuit",
      "outputs": [],
      "stateMutability": "nonpayable",
      "type": "function"
    },
    {
      "inputs": [
        {
          "internalType": "bytes",
          "name": "dkgPublicKey",
          "type": "bytes"
        }
      ],
      "name": "nodeRegister",
      "outputs": [],
      "stateMutability": "nonpayable",
      "type": "function"
    },
    {
      "inputs": [
        {
          "internalType": "address",
          "name": "recipient",
          "type": "address"
        }
      ],
      "name": "nodeWithdraw",
      "outputs": [],
      "stateMutability": "nonpayable",
      "type": "function"
    },
    {
      "inputs": [],
      "name": "owner",
      "outputs": [
        {
          "internalType": "address",
          "name": "",
          "type": "address"
        }
      ],
      "stateMutability": "view",
      "type": "function"
    },
    {
      "inputs": [
        {
          "internalType": "uint256",
          "name": "groupIndex",
          "type": "uint256"
        },
        {
          "internalType": "uint256",
          "name": "groupEpoch",
          "type": "uint256"
        }
      ],
      "name": "postProcessDkg",
      "outputs": [],
      "stateMutability": "nonpayable",
      "type": "function"
    },
    {
      "inputs": [],
      "name": "renounceOwnership",
      "outputs": [],
      "stateMutability": "nonpayable",
      "type": "function"
    },
    {
      "inputs": [
        {
          "internalType": "address",
          "name": "stakingContractAddress",
          "type": "address"
        },
        {
          "internalType": "address",
          "name": "adapterContractAddress",
          "type": "address"
        },
        {
          "internalType": "uint256",
          "name": "nodeStakingAmount",
          "type": "uint256"
        },
        {
          "internalType": "uint256",
          "name": "disqualifiedNodePenaltyAmount",
          "type": "uint256"
        },
        {
          "internalType": "uint256",
          "name": "defaultNumberOfCommitters",
          "type": "uint256"
        },
        {
          "internalType": "uint256",
          "name": "defaultDkgPhaseDuration",
          "type": "uint256"
        },
        {
          "internalType": "uint256",
          "name": "groupMaxCapacity",
          "type": "uint256"
        },
        {
          "internalType": "uint256",
          "name": "idealNumberOfGroups",
          "type": "uint256"
        },
        {
          "internalType": "uint256",
          "name": "pendingBlockAfterQuit",
          "type": "uint256"
        },
        {
          "internalType": "uint256",
          "name": "dkgPostProcessReward",
          "type": "uint256"
        }
      ],
      "name": "setControllerConfig",
      "outputs": [],
      "stateMutability": "nonpayable",
      "type": "function"
    },
    {
      "inputs": [
        {
          "internalType": "uint256",
          "name": "lastOutput",
          "type": "uint256"
        }
      ],
      "name": "setLastOutput",
      "outputs": [],
      "stateMutability": "nonpayable",
      "type": "function"
    },
    {
      "inputs": [
        {
          "internalType": "address",
          "name": "newOwner",
          "type": "address"
        }
      ],
      "name": "transferOwnership",
      "outputs": [],
      "stateMutability": "nonpayable",
      "type": "function"
    }
  ],
  "bytecode": {
    "object": "0x608060405234801561001057600080fd5b50615f5c806100206000396000f3fe60806040523480156200001157600080fd5b5060043610620001dd5760003560e01c80638da5cb5b116200010d578063ceb6065411620000a3578063e37eb96c116200007a578063e37eb96c146200045c578063f2fde38b1462000473578063f3df0802146200048a578063f49e0ba914620004a157600080fd5b8063ceb6065414620003dd578063d11b8e681462000403578063e275cde6146200044557600080fd5b80639d20904811620000e45780639d209048146200035f578063b330a0fd1462000385578063c2db900b146200039e578063cd6dc68714620003c657600080fd5b80638da5cb5b146200032c578063914eb34d146200033e5780639a075bc3146200035557600080fd5b80634d79a8931162000183578063715018a6116200015a578063715018a614620002f85780637a2af56e14620003025780637ee49cfd146200030c57806380110e4e146200031557600080fd5b80634d79a89314620002b25780634ecea80d14620002d857806351a2b9a014620002ef57600080fd5b80632ff9e52011620001b85780632ff9e520146200023f5780633b6c00b0146200025657806342424d6f146200026d57600080fd5b806306545a9314620001e25780630bf9c5c614620001f9578063227d0f461462000212575b600080fd5b6072545b6040519081526020015b60405180910390f35b620002106200020a36600462003992565b620004cf565b005b6200022962000223366004620039cb565b62000967565b60408051928352602083019190915201620001f0565b6200021062000250366004620039f2565b62000a10565b6200022962000267366004620039cb565b62000b68565b620002996200027e36600462003a75565b6000908152607060205260409020546001600160a01b031690565b6040516001600160a01b039091168152602001620001f0565b620002c9620002c336600462003992565b62000bf2565b604051620001f0919062003ad5565b62000210620002e9366004620039cb565b62000c8f565b607754620001e6565b6200021062000dbf565b6200021062000dd7565b607154620001e6565b620002106200032636600462003ae5565b62000f8a565b6033546001600160a01b031662000299565b620002106200034f36600462003c77565b620012cf565b6200021062001440565b6200037662000370366004620039cb565b620016ea565b604051620001f0919062003d1d565b6200038f6200180e565b604051620001f0919062003d70565b620003b5620003af36600462003db6565b62001891565b6040519015158152602001620001f0565b62000210620003d736600462003de9565b62001c5d565b620003f4620003ee36600462003a75565b62001d98565b604051620001f0919062003f45565b606554606654606754606854607654606954607554607454606a54606b54604051620001f09a6001600160a01b039081169a1698979695949392919062004003565b620002106200045636600462003ae5565b620020b6565b620002106200046d366004620040cd565b62002288565b6200021062000484366004620039cb565b62002a64565b620002106200049b36600462003a75565b62002ae3565b62000229620004b236600462003a75565b600090815260736020526040902060038101546002909101549091565b6072548210620004fa57604051637f6efcb560e11b8152600481018390526024015b60405180910390fd5b6040516358914d0360e01b8152607160048201526024810183905233604482015273__$99f6e31d9157e72684c1fb13c20fb01510$__906358914d0390606401602060405180830381865af415801562000558573d6000803e3d6000fd5b505050506040513d601f19601f820116820180604052508101906200057e9190620041a4565b19620005a75760405163eb51f5f960e01b815260048101839052336024820152604401620004f1565b600082815260736020526040902060018101548214620005f257600181015460405163048b63c360e11b815260048101859052602481018490526044810191909152606401620004f1565b6000838152607060205260409020546001600160a01b03166200062c57604051635291bbcf60e01b815260048101849052602401620004f1565b60008381526070602090815260409182902054825163221f951160e01b815292516001600160a01b0390911692839263221f9511926004808401938290030181865afa15801562000681573d6000803e3d6000fd5b505050506040513d601f19601f82011682018060405250810190620006a79190620041be565b60000b600019146200073f5783816001600160a01b031663221f95116040518163ffffffff1660e01b8152600401602060405180830381865afa158015620006f3573d6000803e3d6000fd5b505050506040513d601f19601f82011682018060405250810190620007199190620041be565b60405163f7c06f9160e01b8152600481019290925260000b6024820152604401620004f1565b806001600160a01b0316639cb8a26a6040518163ffffffff1660e01b8152600401600060405180830381600087803b1580156200077b57600080fd5b505af115801562000790573d6000803e3d6000fd5b505050600085815260706020526040902080546001600160a01b031916905550600782015460ff16620008f257607754604051630295316d60e51b815260716004820152602481018690526044810191909152600090819073__$99f6e31d9157e72684c1fb13c20fb01510$__906352a62da090606401600060405180830381865af415801562000825573d6000803e3d6000fd5b505050506040513d6000823e601f3d908101601f191682016040526200084f9190810190620042b2565b9150915060005b8251811015620008a4576200088f8382815181106200087957620008796200431d565b6020026020010151606560030154600062002b14565b806200089b8162004349565b91505062000856565b5060005b8151811015620008ee57620008d9828281518110620008cb57620008cb6200431d565b602002602001015162002bd1565b80620008e58162004349565b915050620008a8565b5050505b606b54336000908152606f6020526040812080549091906200091690849062004365565b9091555050606b5460405133917f8353a804115421789f3ab2eeb3f5215943906ce12100c91d40fc865caf742b6f91620009599160008252602082015260400190565b60405180910390a250505050565b6001600160a01b0381166000908152606e6020526040812054819015620009b5576001600160a01b0383166000908152606e6020526040902054620009af906001906200437b565b620009b8565b60005b6001600160a01b0384166000908152606f60205260409020541562000a04576001600160a01b0384166000908152606f6020526040902054620009fe906001906200437b565b62000a07565b60005b91509150915091565b62000a1a62003244565b6040805160e0810182526001600160a01b038c8116808352908c16602083018190528284018c9052606083018b90526080830189905260a0830186905260c0909201849052606580546001600160a01b03199081169092179055606680549091169091179055606789905560688890556069869055606a839055606b829055516301a79f6360e71b81526071600482015260248101849052604481018590526064810187905273__$99f6e31d9157e72684c1fb13c20fb01510$__9063d3cfb1809060840160006040518083038186803b15801562000af857600080fd5b505af415801562000b0d573d6000803e3d6000fd5b505050507f3202ca2a288846b65f27bc3e13c1e38aaf2e4356b80b963d67aea8a822645e1f8a8a8a8a8a8a8a8a8a8a60405162000b549a9998979695949392919062004003565b60405180910390a150505050505050505050565b60405163787c576760e01b8152607160048201526001600160a01b0382166024820152600090819073__$99f6e31d9157e72684c1fb13c20fb01510$__9063787c5767906044016040805180830381865af415801562000bcc573d6000803e3d6000fd5b505050506040513d601f19601f8201168201806040525081019062000a07919062004391565b62000bfc6200379e565b600083815260736020526040902060040180548390811062000c225762000c226200431d565b6000918252602091829020604080518082018252600590930290910180546001600160a01b0316835281516080810190925291928301906001830160048282826020028201915b81548152602001906001019080831162000c695750505050508152505090505b92915050565b6001600160a01b03811662000cb75760405163f6b2911f60e01b815260040160405180910390fd5b336000908152606e6020908152604080832054606f90925290912054600181111562000d1957336000908152606f6020526040902060019081905562000d1990849062000d0590846200437b565b606c546001600160a01b03169190620032a0565b600182111562000dba57336000908152606e602052604090206001908190556066546001600160a01b031690630ad98f6a90859062000d5990866200437b565b6040516001600160e01b031960e085901b1681526001600160a01b0390921660048301526024820152604401600060405180830381600087803b15801562000da057600080fd5b505af115801562000db5573d6000803e3d6000fd5b505050505b505050565b62000dc962003244565b62000dd56000620032f4565b565b336000818152606d60205260409020805490916001600160a01b039091161462000e13576040516229eaad60e31b815260040160405180910390fd5b60775460405163a6ae8a8160e01b815260716004820152336024820152604481019190915260009073__$99f6e31d9157e72684c1fb13c20fb01510$__9063a6ae8a8190606401600060405180830381865af415801562000e78573d6000803e3d6000fd5b505050506040513d6000823e601f3d908101601f1916820160405262000ea29190810190620043b6565b905060005b815181101562000edf5762000eca828281518110620008cb57620008cb6200431d565b8062000ed68162004349565b91505062000ea7565b5062000ef13360656005015462003346565b606554606754604051637eee288d60e01b815233600482015260248101919091526001600160a01b0390911690637eee288d90604401600060405180830381600087803b15801562000f4257600080fd5b505af115801562000f57573d6000803e3d6000fd5b50506040513392507f68577adbb6b0647e21353ff032be5797d9fa0879ce7e05fe617e40368441f97d9150600090a25050565b336000908152606d60205260409020546001600160a01b03161562000fc257604051630eb0d31360e11b815260040160405180910390fd5b6040516316f6db8160e01b815260009073__$34d23ddaee48904c6c566425acbfa0fc0e$__906316f6db819062001000908690869060040162004418565b608060405180830381865af41580156200101e573d6000803e3d6000fd5b505050506040513d601f19601f820116820180604052508101906200104491906200442e565b604051636fda2c7960e01b815290915073__$34d23ddaee48904c6c566425acbfa0fc0e$__90636fda2c799062001080908490600401620044b4565b602060405180830381865af41580156200109e573d6000803e3d6000fd5b505050506040513d601f19601f82011682018060405250810190620010c49190620044da565b620010e25760405163145a1fdd60e31b815260040160405180910390fd5b60655460675460405163282d3fdf60e01b815233600482015260248101919091526001600160a01b039091169063282d3fdf90604401600060405180830381600087803b1580156200113357600080fd5b505af115801562001148573d6000803e3d6000fd5b5050336000818152606d6020526040902080546001600160a01b0319169091178155915050600181016200117e8486836200457e565b5060028101805460ff19166001908117909155336000818152606e60209081526040808320859055606f909152808220939093556077549251629bf68360e11b81526071600482015260248101929092526044820192909252819073__$99f6e31d9157e72684c1fb13c20fb01510$__90630137ed0690606401600060405180830381865af415801562001216573d6000803e3d6000fd5b505050506040513d6000823e601f3d908101601f191682016040526200124091908101906200464c565b9150915060005b81518110156200127f576200126a828281518110620008cb57620008cb6200431d565b80620012768162004349565b91505062001247565b50336001600160a01b03167fd4ec586f4f9f417f99e20fe821fbaa10a10a4b95f8712a0c57c6d8ed970e98bd878785604051620012bf939291906200468d565b60405180910390a2505050505050565b6066546001600160a01b03163314620012fb5760405163469666c560e01b815260040160405180910390fd5b60005b83518110156200143a5782606e60008684815181106200132257620013226200431d565b60200260200101516001600160a01b03166001600160a01b0316815260200190815260200160002060008282546200135b919062004365565b9250508190555081606f60008684815181106200137c576200137c6200431d565b60200260200101516001600160a01b03166001600160a01b031681526020019081526020016000206000828254620013b5919062004365565b92505081905550838181518110620013d157620013d16200431d565b60200260200101516001600160a01b03167f8353a804115421789f3ab2eeb3f5215943906ce12100c91d40fc865caf742b6f84846040516200141d929190918252602082015260400190565b60405180910390a280620014318162004349565b915050620012fe565b50505050565b336000818152606d60205260409020805490916001600160a01b03909116146200147c576040516229eaad60e31b815260040160405180910390fd5b600281015460ff1615620014a3576040516324a228bb60e21b815260040160405180910390fd5b4381600301541115620014d25780600301546040516363525acb60e11b8152600401620004f191815260200190565b60655460405163929ec53760e01b81523360048201526000916001600160a01b03169063929ec53790602401602060405180830381865afa1580156200151c573d6000803e3d6000fd5b505050506040513d601f19601f82011682018060405250810190620015429190620041a4565b606754909150811015620015d8576065546067546001600160a01b039091169063282d3fdf903390620015779085906200437b565b6040516001600160e01b031960e085901b1681526001600160a01b0390921660048301526024820152604401600060405180830381600087803b158015620015be57600080fd5b505af1158015620015d3573d6000803e3d6000fd5b505050505b60028201805460ff19166001179055607754604051629bf68360e11b8152607160048201523360248201526044810191909152600090819073__$99f6e31d9157e72684c1fb13c20fb01510$__90630137ed0690606401600060405180830381865af41580156200164d573d6000803e3d6000fd5b505050506040513d6000823e601f3d908101601f191682016040526200167791908101906200464c565b9150915060005b8151811015620016b657620016a1828281518110620008cb57620008cb6200431d565b80620016ad8162004349565b9150506200167e565b5060405182815233907ffc97cd9154b40031874ef09a9436a4b60052e4dcf40f21b1258be265fac4a3979060200162000959565b62001721604051806080016040528060006001600160a01b0316815260200160608152602001600015158152602001600081525090565b6001600160a01b038083166000908152606d602090815260409182902082516080810190935280549093168252600183018054929392918401916200176690620044f8565b80601f01602080910402602001604051908101604052809291908181526020018280546200179490620044f8565b8015620017e55780601f10620017b957610100808354040283529160200191620017e5565b820191906000526020600020905b815481529060010190602001808311620017c757829003601f168201915b5050509183525050600282015460ff161515602082015260039091015460409091015292915050565b604051631c2da66560e31b81526071600482015260609073__$99f6e31d9157e72684c1fb13c20fb01510$__9063e16d332890602401600060405180830381865af415801562001862573d6000803e3d6000fd5b505050506040513d6000823e601f3d908101601f191682016040526200188c9190810190620043b6565b905090565b6000828152607360209081526040808320815161012081018352815481526001820154818501526002820154818401526003820154606082015260048201805484518187028101870190955280855286959294608086019390929190879084015b828210156200196e5760008481526020908190206040805180820182526005860290920180546001600160a01b0316835281516080810190925291928301906001830160048282826020028201915b815481526020019060010190808311620019415750505050508152505081526020019060010190620018f2565b50505050815260200160058201805480602002602001604051908101604052809291908181526020018280548015620019d157602002820191906000526020600020905b81546001600160a01b03168152600190910190602001808311620019b2575b5050505050815260200160068201805480602002602001604051908101604052809291908181526020016000905b8282101562001b4f57838290600052602060002090600702016040518060400160405290816000820180548060200260200160405190810160405280929190818152602001828054801562001a7e57602002820191906000526020600020905b81546001600160a01b0316815260019091019060200180831162001a5f575b50505091835250506040805160608101825260018401805482528251608081019384905260209485019492939192840191600287019060049082845b81548152602001906001019080831162001aba57505050505081526020016005820180548060200260200160405190810160405280929190818152602001828054801562001b3257602002820191906000526020600020905b81546001600160a01b0316815260019091019060200180831162001b13575b5050505050815250508152505081526020019060010190620019ff565b50505090825250600782015460ff1615156020820152604080516080810182529101906008830160048282826020028201915b81548152602001906001019080831162001b8257505050505081525050905060005b81608001515181101562001c5257836001600160a01b03168260800151828151811062001bd55762001bd56200431d565b6020026020010151600001516001600160a01b03160362001c3d578160800151818151811062001c095762001c096200431d565b60200260200101516020015160006004811062001c2a5762001c2a6200431d565b6020020151600014159250505062000c89565b8062001c498162004349565b91505062001ba4565b506000949350505050565b600054610100900460ff161580801562001c7e5750600054600160ff909116105b8062001c9a5750303b15801562001c9a575060005460ff166001145b62001cff5760405162461bcd60e51b815260206004820152602e60248201527f496e697469616c697a61626c653a20636f6e747261637420697320616c72656160448201526d191e481a5b9a5d1a585b1a5e995960921b6064820152608401620004f1565b6000805460ff19166001179055801562001d23576000805461ff0019166101001790555b606c80546001600160a01b0319166001600160a01b038516179055607782905562001d4d620033de565b801562000dba576000805461ff0019169055604051600181527f7f26b83ff96e1f2b6a682f133852f6798a09c465da95921460cefb38474024989060200160405180910390a1505050565b62001da2620037c8565b60008281526073602090815260408083208151610120810183528154815260018201548185015260028201548184015260038201546060820152600482018054845181870281018701909552808552919592946080870194939192919084015b8282101562001e7e5760008481526020908190206040805180820182526005860290920180546001600160a01b0316835281516080810190925291928301906001830160048282826020028201915b81548152602001906001019080831162001e51575050505050815250508152602001906001019062001e02565b5050505081526020016005820180548060200260200160405190810160405280929190818152602001828054801562001ee157602002820191906000526020600020905b81546001600160a01b0316815260019091019060200180831162001ec2575b5050505050815260200160068201805480602002602001604051908101604052809291908181526020016000905b828210156200205f57838290600052602060002090600702016040518060400160405290816000820180548060200260200160405190810160405280929190818152602001828054801562001f8e57602002820191906000526020600020905b81546001600160a01b0316815260019091019060200180831162001f6f575b50505091835250506040805160608101825260018401805482528251608081019384905260209485019492939192840191600287019060049082845b81548152602001906001019080831162001fca5750505050508152602001600582018054806020026020016040519081016040528092919081815260200182805480156200204257602002820191906000526020600020905b81546001600160a01b0316815260019091019060200180831162002023575b505050505081525050815250508152602001906001019062001f0f565b50505090825250600782015460ff1615156020820152604080516080810182529101906008830160048282826020028201915b81548152602001906001019080831162002092575050505050815250509050919050565b336000818152606d60205260409020805490916001600160a01b0390911614620020f2576040516229eaad60e31b815260040160405180910390fd5b600281015460ff161562002119576040516324a228bb60e21b815260040160405180910390fd5b6040516316f6db8160e01b815260009073__$34d23ddaee48904c6c566425acbfa0fc0e$__906316f6db819062002157908790879060040162004418565b608060405180830381865af415801562002175573d6000803e3d6000fd5b505050506040513d601f19601f820116820180604052508101906200219b91906200442e565b604051636fda2c7960e01b815290915073__$34d23ddaee48904c6c566425acbfa0fc0e$__90636fda2c7990620021d7908490600401620044b4565b602060405180830381865af4158015620021f5573d6000803e3d6000fd5b505050506040513d601f19601f820116820180604052508101906200221b9190620044da565b620022395760405163145a1fdd60e31b815260040160405180910390fd5b600182016200224a8486836200457e565b50336001600160a01b03167f4a327ac4843af7a9586b5a2a2c312bd17289ae1d70da32855ed539fe39f86a5085856040516200095992919062004418565b607254815110620022b3578051604051637f6efcb560e11b81526004810191909152602401620004f1565b80516000908152607060205260409020546001600160a01b0316620022f2578051604051635291bbcf60e01b81526004810191909152602401620004f1565b805160009081526070602090815260409182902054825163221f951160e01b815292516001600160a01b0390911692839263221f9511926004808401938290030181865afa15801562002349573d6000803e3d6000fd5b505050506040513d601f19601f820116820180604052508101906200236f9190620041be565b60000b19620023985781516040516343609fe160e01b81526004810191909152602401620004f1565b81516000908152607360209081526040909120600181015491840151909114620023f35782516020840151600183015460405163048b63c360e11b8152600481019390935260248301919091526044820152606401620004f1565b82516040516358914d0360e01b815260716004820152602481019190915233604482015273__$99f6e31d9157e72684c1fb13c20fb01510$__906358914d0390606401602060405180830381865af415801562002454573d6000803e3d6000fd5b505050506040513d601f19601f820116820180604052508101906200247a9190620041a4565b19620024a657825160405163eb51f5f960e01b81526004810191909152336024820152604401620004f1565b8251620024b4903362001891565b15620024e057825160405163173ca10960e31b81526004810191909152336024820152604401620004f1565b60608301516040516316f6db8160e01b815260009173__$34d23ddaee48904c6c566425acbfa0fc0e$__916316f6db81916200251f91600401620046b3565b608060405180830381865af41580156200253d573d6000803e3d6000fd5b505050506040513d601f19601f820116820180604052508101906200256391906200442e565b604051636fda2c7960e01b815290915073__$34d23ddaee48904c6c566425acbfa0fc0e$__90636fda2c79906200259f908490600401620044b4565b602060405180830381865af4158015620025bd573d6000803e3d6000fd5b505050506040513d601f19601f82011682018060405250810190620025e39190620044da565b6200260157604051631886185760e01b815260040160405180910390fd5b60408085015190516316f6db8160e01b815260009173__$34d23ddaee48904c6c566425acbfa0fc0e$__916316f6db81916200264091600401620046b3565b608060405180830381865af41580156200265e573d6000803e3d6000fd5b505050506040513d601f19601f820116820180604052508101906200268491906200442e565b604051636fda2c7960e01b815290915073__$34d23ddaee48904c6c566425acbfa0fc0e$__90636fda2c7990620026c0908490600401620044b4565b602060405180830381865af4158015620026de573d6000803e3d6000fd5b505050506040513d601f19601f82011682018060405250810190620027049190620044da565b620027225760405163145a1fdd60e31b815260040160405180910390fd5b604080516060810182526020808801518252810183905260808701518183015286519151636aba6eeb60e11b8152909173__$99f6e31d9157e72684c1fb13c20fb01510$__9163d574ddd6916200278291607191908690600401620046c8565b602060405180830381865af4158015620027a0573d6000803e3d6000fd5b505050506040513d601f19601f82011682018060405250810190620027c69190620044da565b620028ad576040805160018183018181526080830190935260009282916060830160208036833750505081526020018390528051805191925033916000906200281357620028136200431d565b6001600160a01b039092166020928302919091018201526006860180546001810182556000918252908290208351805185946007909402909201926200285f9284929091019062003818565b506020828101518051600184019081559181015190919062002888906002850190600462003882565b5060408201518051620028a691600584019160209091019062003818565b5050505050505b85516040516358914d0360e01b815260716004808301919091526024820192909252336044820152849186019073__$99f6e31d9157e72684c1fb13c20fb01510$__906358914d0390606401602060405180830381865af415801562002917573d6000803e3d6000fd5b505050506040513d601f19601f820116820180604052508101906200293d9190620041a4565b815481106200295057620029506200431d565b90600052602060002090600502016001019060046200297192919062003882565b50600784015460ff1662002a5c57855160775460405163449cf2fd60e11b81526071600482015260248101929092526044820152600090819073__$99f6e31d9157e72684c1fb13c20fb01510$__90638939e5fa90606401600060405180830381865af4158015620029e7573d6000803e3d6000fd5b505050506040513d6000823e601f3d908101601f1916820160405262002a11919081019062004753565b91509150811562002a595760005b815181101562002a575762002a428282815181106200087957620008796200431d565b8062002a4e8162004349565b91505062002a1f565b505b50505b505050505050565b62002a6e62003244565b6001600160a01b03811662002ad55760405162461bcd60e51b815260206004820152602660248201527f4f776e61626c653a206e6577206f776e657220697320746865207a65726f206160448201526564647265737360d01b6064820152608401620004f1565b62002ae081620032f4565b50565b6066546001600160a01b0316331462002b0f5760405163469666c560e01b815260040160405180910390fd5b607755565b606554604051638899fdeb60e01b81526001600160a01b0385811660048301526024820185905290911690638899fdeb90604401600060405180830381600087803b15801562002b6357600080fd5b505af115801562002b78573d6000803e3d6000fd5b5050505062002b88838262003346565b60408051838152602081018390526001600160a01b038516917fa8d720d0a0a2e7c96bf9eb87433901ebb6331356c8f3283b2568de34478703cc910160405180910390a2505050565b62002bde60718262003412565b60008181526073602090815260408083208151610120810183528154815260018201548185015260028201548184015260038201546060820152600482018054845181870281018701909552808552919492936080860193909290879084015b8282101562002cba5760008481526020908190206040805180820182526005860290920180546001600160a01b0316835281516080810190925291928301906001830160048282826020028201915b81548152602001906001019080831162002c8d575050505050815250508152602001906001019062002c3e565b5050505081526020016005820180548060200260200160405190810160405280929190818152602001828054801562002d1d57602002820191906000526020600020905b81546001600160a01b0316815260019091019060200180831162002cfe575b5050505050815260200160068201805480602002602001604051908101604052809291908181526020016000905b8282101562002e9b57838290600052602060002090600702016040518060400160405290816000820180548060200260200160405190810160405280929190818152602001828054801562002dca57602002820191906000526020600020905b81546001600160a01b0316815260019091019060200180831162002dab575b50505091835250506040805160608101825260018401805482528251608081019384905260209485019492939192840191600287019060049082845b81548152602001906001019080831162002e0657505050505081526020016005820180548060200260200160405190810160405280929190818152602001828054801562002e7e57602002820191906000526020600020905b81546001600160a01b0316815260019091019060200180831162002e5f575b505050505081525050815250508152602001906001019062002d4b565b50505090825250600782015460ff1615156020820152604080516080810182529101906008830160048282826020028201915b81548152602001906001019080831162002ece5750505050508152505090506000816060015160656004015460405162002f0890620038b3565b9182526020820152604001604051809103906000f08015801562002f30573d6000803e3d6000fd5b5060008481526070602052604080822080546001600160a01b0319166001600160a01b0385161790558401519192509067ffffffffffffffff81111562002f7b5762002f7b62003b5c565b60405190808252806020026020018201604052801562002fa5578160200160208202803683370190505b5090506000836040015167ffffffffffffffff81111562002fca5762002fca62003b5c565b60405190808252806020026020018201604052801562002fff57816020015b606081526020019060019003908162002fe95790505b50905060005b84604001518110156200317f57846080015181815181106200302b576200302b6200431d565b6020026020010151600001518382815181106200304c576200304c6200431d565b60200260200101906001600160a01b031690816001600160a01b031681525050606d6000866080015183815181106200308957620030896200431d565b6020026020010151600001516001600160a01b03166001600160a01b031681526020019081526020016000206001018054620030c590620044f8565b80601f0160208091040260200160405190810160405280929190818152602001828054620030f390620044f8565b8015620031445780601f10620031185761010080835404028352916020019162003144565b820191906000526020600020905b8154815290600101906020018083116200312657829003601f168201915b50505050508282815181106200315e576200315e6200431d565b60200260200101819052508080620031769062004349565b91505062003005565b506040516337f8d5ff60e01b81526001600160a01b038416906337f8d5ff90620031b090859085906004016200479d565b600060405180830381600087803b158015620031cb57600080fd5b505af1158015620031e0573d6000803e3d6000fd5b50505050836020015184600001516071600001547fbbd25d64683f157b2e3544d3d6430e14102db1e49592cf4dcaf827e2ded517ee8760400151886060015187438a6040516200323595949392919062004815565b60405180910390a45050505050565b6033546001600160a01b0316331462000dd55760405162461bcd60e51b815260206004820181905260248201527f4f776e61626c653a2063616c6c6572206973206e6f7420746865206f776e65726044820152606401620004f1565b604080516001600160a01b038416602482015260448082018490528251808303909101815260649091019091526020810180516001600160e01b031663a9059cbb60e01b17905262000dba908490620034ed565b603380546001600160a01b038381166001600160a01b0319831681179093556040519116919082907f8be0079c531659141344cd1fd0a4f28419497f9722a3daafe3b4186f6b6457e090600090a35050565b6001600160a01b0382166000908152606d6020526040902060028101805460ff19169055600301544390811015620033b1576001600160a01b0383166000908152606d602052604081206003018054849290620033a590849062004365565b9091555062000dba9050565b620033bd828262004365565b6001600160a01b0384166000908152606d6020526040902060030155505050565b600054610100900460ff16620034085760405162461bcd60e51b8152600401620004f19062004857565b62000dd5620035c6565b8154826000620034228362004349565b90915550506000818152600283016020526040812060018101805491926200344a8362004349565b909155505060078101805460ff191690556200346b600582016000620038c1565b6200347b600682016000620038e1565b60005b60048201548110156200143a57816004018181548110620034a357620034a36200431d565b90600052602060002090600502016001016000620034d891905060008155600101600081556001016000815560010160009055565b80620034e48162004349565b9150506200347e565b600062003544826040518060400160405280602081526020017f5361666545524332303a206c6f772d6c6576656c2063616c6c206661696c6564815250856001600160a01b0316620035fb9092919063ffffffff16565b80519091501562000dba5780806020019051810190620035659190620044da565b62000dba5760405162461bcd60e51b815260206004820152602a60248201527f5361666545524332303a204552433230206f7065726174696f6e20646964206e6044820152691bdd081cdd58d8d9595960b21b6064820152608401620004f1565b600054610100900460ff16620035f05760405162461bcd60e51b8152600401620004f19062004857565b62000dd533620032f4565b60606200360c848460008562003614565b949350505050565b606082471015620036775760405162461bcd60e51b815260206004820152602660248201527f416464726573733a20696e73756666696369656e742062616c616e636520666f6044820152651c8818d85b1b60d21b6064820152608401620004f1565b600080866001600160a01b03168587604051620036959190620048a2565b60006040518083038185875af1925050503d8060008114620036d4576040519150601f19603f3d011682016040523d82523d6000602084013e620036d9565b606091505b5091509150620036ec87838387620036f7565b979650505050505050565b606083156200376b57825160000362003763576001600160a01b0385163b620037635760405162461bcd60e51b815260206004820152601d60248201527f416464726573733a2063616c6c20746f206e6f6e2d636f6e74726163740000006044820152606401620004f1565b50816200360c565b6200360c8383815115620037825781518083602001fd5b8060405162461bcd60e51b8152600401620004f19190620046b3565b604051806040016040528060006001600160a01b03168152602001620037c362003904565b905290565b60405180610120016040528060008152602001600081526020016000815260200160008152602001606081526020016060815260200160608152602001600015158152602001620037c362003904565b82805482825590600052602060002090810192821562003870579160200282015b828111156200387057825182546001600160a01b0319166001600160a01b0390911617825560209092019160019091019062003839565b506200387e92915062003922565b5090565b826004810192821562003870579160200282015b828111156200387057825182559160200191906001019062003896565b61166680620048c183390190565b508054600082559060005260206000209081019062002ae0919062003922565b508054600082556007029060005260206000209081019062002ae0919062003939565b60405180608001604052806004906020820280368337509192915050565b5b808211156200387e576000815560010162003923565b808211156200387e576000620039508282620038c1565b600060018301818155600284018290556003840182905560048401829055600584018290559062003986600583016000620038c1565b50505060070162003939565b60008060408385031215620039a657600080fd5b50508035926020909101359150565b6001600160a01b038116811462002ae057600080fd5b600060208284031215620039de57600080fd5b8135620039eb81620039b5565b9392505050565b6000806000806000806000806000806101408b8d03121562003a1357600080fd5b8a3562003a2081620039b5565b995060208b013562003a3281620039b5565b999c999b505050506040880135976060810135976080820135975060a0820135965060c0820135955060e082013594506101008201359350610120909101359150565b60006020828403121562003a8857600080fd5b5035919050565b8060005b60048110156200143a57815184526020938401939091019060010162003a93565b6001600160a01b038151168252602081015162000dba602084018262003a8f565b60a0810162000c89828462003ab4565b6000806020838503121562003af957600080fd5b823567ffffffffffffffff8082111562003b1257600080fd5b818501915085601f83011262003b2757600080fd5b81358181111562003b3757600080fd5b86602082850101111562003b4a57600080fd5b60209290920196919550909350505050565b634e487b7160e01b600052604160045260246000fd5b60405160a0810167ffffffffffffffff8111828210171562003b985762003b9862003b5c565b60405290565b604051601f8201601f1916810167ffffffffffffffff8111828210171562003bca5762003bca62003b5c565b604052919050565b600067ffffffffffffffff82111562003bef5762003bef62003b5c565b5060051b60200190565b600082601f83011262003c0b57600080fd5b8135602062003c2462003c1e8362003bd2565b62003b9e565b82815260059290921b8401810191818101908684111562003c4457600080fd5b8286015b8481101562003c6c57803562003c5e81620039b5565b835291830191830162003c48565b509695505050505050565b60008060006060848603121562003c8d57600080fd5b833567ffffffffffffffff81111562003ca557600080fd5b62003cb38682870162003bf9565b9660208601359650604090950135949350505050565b60005b8381101562003ce657818101518382015260200162003ccc565b50506000910152565b6000815180845262003d0981602086016020860162003cc9565b601f01601f19169290920160200192915050565b602081526001600160a01b038251166020820152600060208301516080604084015262003d4e60a084018262003cef565b9050604084015115156060840152606084015160808401528091505092915050565b6020808252825182820181905260009190848201906040850190845b8181101562003daa5783518352928401929184019160010162003d8c565b50909695505050505050565b6000806040838503121562003dca57600080fd5b82359150602083013562003dde81620039b5565b809150509250929050565b6000806040838503121562003dfd57600080fd5b823562003e0a81620039b5565b946020939093013593505050565b600081518084526020808501945080840160005b8381101562003e565762003e4287835162003ab4565b60a096909601959082019060010162003e2c565b509495945050505050565b600081518084526020808501945080840160005b8381101562003e565781516001600160a01b03168752958201959082019060010162003e75565b600081518084526020808501808196508360051b8101915082860160005b8581101562003f3857828403895281516040815181875262003edf8288018262003e61565b90508783015192508681038888015260c0835182528884015162003f068a84018262003a8f565b508284015193508060a083015262003f218183018562003e61565b9c89019c9750505092860192505060010162003eba565b5091979650505050505050565b60208152815160208201526020820151604082015260408201516060820152606082015160808201526000608083015161018060a084015262003f8d6101a084018262003e18565b905060a0840151601f19808584030160c086015262003fad838362003e61565b925060c08601519150808584030160e08601525062003fcd828262003e9c565b91505060e084015161010062003fe68186018315159052565b850151905062003ffb61012085018262003a8f565b509392505050565b6001600160a01b039a8b16815298909916602089015260408801969096526060870194909452608086019290925260a085015260c084015260e08301526101008201526101208101919091526101400190565b600082601f8301126200406857600080fd5b813567ffffffffffffffff81111562004085576200408562003b5c565b6200409a601f8201601f191660200162003b9e565b818152846020838601011115620040b057600080fd5b816020850160208301376000918101602001919091529392505050565b600060208284031215620040e057600080fd5b813567ffffffffffffffff80821115620040f957600080fd5b9083019060a082860312156200410e57600080fd5b6200411862003b72565b82358152602083013560208201526040830135828111156200413957600080fd5b620041478782860162004056565b6040830152506060830135828111156200416057600080fd5b6200416e8782860162004056565b6060830152506080830135828111156200418757600080fd5b620041958782860162003bf9565b60808301525095945050505050565b600060208284031215620041b757600080fd5b5051919050565b600060208284031215620041d157600080fd5b81518060000b8114620039eb57600080fd5b600082601f830112620041f557600080fd5b815160206200420862003c1e8362003bd2565b82815260059290921b840181019181810190868411156200422857600080fd5b8286015b8481101562003c6c5780516200424281620039b5565b83529183019183016200422c565b600082601f8301126200426257600080fd5b815160206200427562003c1e8362003bd2565b82815260059290921b840181019181810190868411156200429557600080fd5b8286015b8481101562003c6c578051835291830191830162004299565b60008060408385031215620042c657600080fd5b825167ffffffffffffffff80821115620042df57600080fd5b620042ed86838701620041e3565b935060208501519150808211156200430457600080fd5b50620043138582860162004250565b9150509250929050565b634e487b7160e01b600052603260045260246000fd5b634e487b7160e01b600052601160045260246000fd5b6000600182016200435e576200435e62004333565b5060010190565b8082018082111562000c895762000c8962004333565b8181038181111562000c895762000c8962004333565b60008060408385031215620043a557600080fd5b505080516020909101519092909150565b600060208284031215620043c957600080fd5b815167ffffffffffffffff811115620043e157600080fd5b6200360c8482850162004250565b81835281816020850137506000828201602090810191909152601f909101601f19169091010190565b6020815260006200360c602083018486620043ef565b6000608082840312156200444157600080fd5b82601f8301126200445157600080fd5b6040516080810181811067ffffffffffffffff8211171562004477576200447762003b5c565b6040528060808401858111156200448d57600080fd5b845b81811015620044a95780518352602092830192016200448f565b509195945050505050565b6080810162000c89828462003a8f565b80518015158114620044d557600080fd5b919050565b600060208284031215620044ed57600080fd5b620039eb82620044c4565b600181811c908216806200450d57607f821691505b6020821081036200452e57634e487b7160e01b600052602260045260246000fd5b50919050565b601f82111562000dba57600081815260208120601f850160051c810160208610156200455d5750805b601f850160051c820191505b8181101562002a5c5782815560010162004569565b67ffffffffffffffff83111562004599576200459962003b5c565b620045b183620045aa8354620044f8565b8362004534565b6000601f841160018114620045e85760008515620045cf5750838201355b600019600387901b1c1916600186901b17835562004645565b600083815260209020601f19861690835b828110156200461b5786850135825560209485019460019092019101620045f9565b5086821015620046395760001960f88860031b161c19848701351681555b505060018560011b0183555b5050505050565b600080604083850312156200466057600080fd5b82519150602083015167ffffffffffffffff8111156200467f57600080fd5b620043138582860162004250565b604081526000620046a3604083018587620043ef565b9050826020830152949350505050565b602081526000620039eb602083018462003cef565b8381526000602084818401526060604084015261012083018451606085015281850151620046fa608086018262003a8f565b50604085015160c06101008601528051918290528201906000906101408601905b80831015620047465783516001600160a01b031682529284019260019290920191908401906200471b565b5098975050505050505050565b600080604083850312156200476757600080fd5b6200477283620044c4565b9150602083015167ffffffffffffffff8111156200478f57600080fd5b6200431385828601620041e3565b604081526000620047b2604083018562003e61565b6020838203818501528185518084528284019150828160051b85010183880160005b838110156200480657601f19878403018552620047f383835162003cef565b94860194925090850190600101620047d4565b50909998505050505050505050565b85815284602082015260a0604082015260006200483660a083018662003e61565b90508360608301526001600160a01b03831660808301529695505050505050565b6020808252602b908201527f496e697469616c697a61626c653a20636f6e7472616374206973206e6f74206960408201526a6e697469616c697a696e6760a81b606082015260800190565b60008251620048b681846020870162003cc9565b919091019291505056fe60c0604052600060065534801561001557600080fd5b506040516116663803806116668339810160408190526100349161009b565b61003d3361004b565b60a0919091526080526100bf565b600080546001600160a01b038381166001600160a01b0319831681178455604051919092169283917f8be0079c531659141344cd1fd0a4f28419497f9722a3daafe3b4186f6b6457e09190a35050565b600080604083850312156100ae57600080fd5b505080516020909101519092909150565b60805160a05161154a61011c6000396000818161027f0152610768015260008181610243015281816103aa015281816103dc015281816104150152818161044e0152818161089b0152818161093e01526109e5015261154a6000f3fe608060405234801561001057600080fd5b506004361061012c5760003560e01c80638da5cb5b116100ad578063cc5ef00911610071578063cc5ef009146102a1578063cd5e3837146102a9578063ce7c2ac2146102bc578063d73fe0aa146102cf578063f2fde38b146102d757600080fd5b80638da5cb5b146102255780639cb8a26a14610236578063ac5553ce1461023e578063b0ef817914610265578063c27040241461027a57600080fd5b80634e3874a0116100f45780634e3874a0146101cc5780635aa68ac0146101e2578063670d14b2146101f7578063715018a61461020a5780637fd283461461021257600080fd5b80630ea6564814610131578063221f95111461015a57806335c1d3491461017557806337f8d5ff146101a057806348cd4cb1146101b5575b600080fd5b61014461013f36600461105a565b6102ea565b60405161015191906110d0565b60405180910390f35b610162610384565b60405160009190910b8152602001610151565b6101886101833660046110e3565b61048b565b6040516001600160a01b039091168152602001610151565b6101b36101ae366004611148565b6104b5565b005b6101be60065481565b604051908152602001610151565b6101d461060a565b60405161015192919061120c565b6101ea61078f565b604051610151919061122d565b61014461020536600461105a565b6107f1565b6101b361080a565b6101b361022036600461127a565b61081e565b6000546001600160a01b0316610188565b6101b3610ae1565b6101be7f000000000000000000000000000000000000000000000000000000000000000081565b61026d610af7565b60405161015191906112ec565b6101be7f000000000000000000000000000000000000000000000000000000000000000081565b61026d610c55565b6101446102b736600461105a565b610dad565b6101446102ca36600461105a565b610dc6565b61026d610ddf565b6101b36102e536600461105a565b610f37565b60036020526000908152604090208054610303906112ff565b80601f016020809104026020016040519081016040528092919081815260200182805461032f906112ff565b801561037c5780601f106103515761010080835404028352916020019161037c565b820191906000526020600020905b81548152906001019060200180831161035f57829003601f168201915b505050505081565b60006006546000036103965750600090565b6000600654436103a69190611349565b90507f000000000000000000000000000000000000000000000000000000000000000081116103d757600191505090565b6104027f00000000000000000000000000000000000000000000000000000000000000006002611362565b811161041057600291505090565b61043b7f00000000000000000000000000000000000000000000000000000000000000006003611362565b811161044957600391505090565b6104747f00000000000000000000000000000000000000000000000000000000000000006004611362565b811161048257600491505090565b60001991505090565b6005818154811061049b57600080fd5b6000918252602090912001546001600160a01b0316905081565b6006541561050a5760405162461bcd60e51b815260206004820152601760248201527f444b472068617320616c7265616479207374617274656400000000000000000060448201526064015b60405180910390fd5b610512610fb0565b60005b838110156105ff57600585858381811061053157610531611379565b9050602002016020810190610546919061105a565b81546001810183556000928352602090922090910180546001600160a01b0319166001600160a01b0390921691909117905582828281811061058a5761058a611379565b905060200281019061059c919061138f565b600160008888868181106105b2576105b2611379565b90506020020160208101906105c7919061105a565b6001600160a01b031681526020810191909152604001600020916105ec91908361143a565b50806105f7816114fb565b915050610515565b505043600655505050565b60006060600060058054905067ffffffffffffffff81111561062e5761062e6113d6565b60405190808252806020026020018201604052801561066157816020015b606081526020019060019003908161064c5790505b50905060005b60055481101561076557600160006005838154811061068857610688611379565b60009182526020808320909101546001600160a01b03168352820192909252604001902080546106b7906112ff565b80601f01602080910402602001604051908101604052809291908181526020018280546106e3906112ff565b80156107305780601f1061070557610100808354040283529160200191610730565b820191906000526020600020905b81548152906001019060200180831161071357829003601f168201915b505050505082828151811061074757610747611379565b6020026020010181905250808061075d906114fb565b915050610667565b507f0000000000000000000000000000000000000000000000000000000000000000939092509050565b606060058054806020026020016040519081016040528092919081815260200182805480156107e757602002820191906000526020600020905b81546001600160a01b031681526001909101906020018083116107c9575b5050505050905090565b60016020526000908152604090208054610303906112ff565b610812610fb0565b61081c600061100a565b565b3360009081526001602052604081208054610838906112ff565b9050116108875760405162461bcd60e51b815260206004820152601b60248201527f796f7520617265206e6f7420612067726f7570206d656d6265722100000000006044820152606401610501565b6000600654436108979190611349565b90507f000000000000000000000000000000000000000000000000000000000000000081116109395733600090815260026020526040902080546108da906112ff565b1590506109195760405162461bcd60e51b815260206004820152600d60248201526c1cda185c9948195e1a5cdd1959609a1b6044820152606401610501565b33600090815260026020526040902061093383858361143a565b50505050565b6109647f00000000000000000000000000000000000000000000000000000000000000006002611362565b81116109e0573360009081526003602052604090208054610984906112ff565b1590506109c65760405162461bcd60e51b815260206004820152601060248201526f1c995cdc1bdb9cd948195e1a5cdd195960821b6044820152606401610501565b33600090815260036020526040902061093383858361143a565b610a0b7f00000000000000000000000000000000000000000000000000000000000000006003611362565b8111610a94573360009081526004602052604090208054610a2b906112ff565b159050610a7a5760405162461bcd60e51b815260206004820152601560248201527f6a757374696669636174696f6e206578697374656400000000000000000000006044820152606401610501565b33600090815260046020526040902061093383858361143a565b60405162461bcd60e51b815260206004820152601560248201527f444b47205075626c6973682068617320656e64656400000000000000000000006044820152606401610501565b505050565b610ae9610fb0565b6000546001600160a01b0316ff5b60055460609060009067ffffffffffffffff811115610b1857610b186113d6565b604051908082528060200260200182016040528015610b4b57816020015b6060815260200190600190039081610b365790505b50905060005b600554811015610c4f576004600060058381548110610b7257610b72611379565b60009182526020808320909101546001600160a01b0316835282019290925260400190208054610ba1906112ff565b80601f0160208091040260200160405190810160405280929190818152602001828054610bcd906112ff565b8015610c1a5780601f10610bef57610100808354040283529160200191610c1a565b820191906000526020600020905b815481529060010190602001808311610bfd57829003601f168201915b5050505050828281518110610c3157610c31611379565b60200260200101819052508080610c47906114fb565b915050610b51565b50919050565b60055460609060009067ffffffffffffffff811115610c7657610c766113d6565b604051908082528060200260200182016040528015610ca957816020015b6060815260200190600190039081610c945790505b50905060005b600554811015610c4f576003600060058381548110610cd057610cd0611379565b60009182526020808320909101546001600160a01b0316835282019290925260400190208054610cff906112ff565b80601f0160208091040260200160405190810160405280929190818152602001828054610d2b906112ff565b8015610d785780601f10610d4d57610100808354040283529160200191610d78565b820191906000526020600020905b815481529060010190602001808311610d5b57829003601f168201915b5050505050828281518110610d8f57610d8f611379565b60200260200101819052508080610da5906114fb565b915050610caf565b60046020526000908152604090208054610303906112ff565b60026020526000908152604090208054610303906112ff565b60055460609060009067ffffffffffffffff811115610e0057610e006113d6565b604051908082528060200260200182016040528015610e3357816020015b6060815260200190600190039081610e1e5790505b50905060005b600554811015610c4f576002600060058381548110610e5a57610e5a611379565b60009182526020808320909101546001600160a01b0316835282019290925260400190208054610e89906112ff565b80601f0160208091040260200160405190810160405280929190818152602001828054610eb5906112ff565b8015610f025780601f10610ed757610100808354040283529160200191610f02565b820191906000526020600020905b815481529060010190602001808311610ee557829003601f168201915b5050505050828281518110610f1957610f19611379565b60200260200101819052508080610f2f906114fb565b915050610e39565b610f3f610fb0565b6001600160a01b038116610fa45760405162461bcd60e51b815260206004820152602660248201527f4f776e61626c653a206e6577206f776e657220697320746865207a65726f206160448201526564647265737360d01b6064820152608401610501565b610fad8161100a565b50565b6000546001600160a01b0316331461081c5760405162461bcd60e51b815260206004820181905260248201527f4f776e61626c653a2063616c6c6572206973206e6f7420746865206f776e65726044820152606401610501565b600080546001600160a01b038381166001600160a01b0319831681178455604051919092169283917f8be0079c531659141344cd1fd0a4f28419497f9722a3daafe3b4186f6b6457e09190a35050565b60006020828403121561106c57600080fd5b81356001600160a01b038116811461108357600080fd5b9392505050565b6000815180845260005b818110156110b057602081850181015186830182015201611094565b506000602082860101526020601f19601f83011685010191505092915050565b602081526000611083602083018461108a565b6000602082840312156110f557600080fd5b5035919050565b60008083601f84011261110e57600080fd5b50813567ffffffffffffffff81111561112657600080fd5b6020830191508360208260051b850101111561114157600080fd5b9250929050565b6000806000806040858703121561115e57600080fd5b843567ffffffffffffffff8082111561117657600080fd5b611182888389016110fc565b9096509450602087013591508082111561119b57600080fd5b506111a8878288016110fc565b95989497509550505050565b600082825180855260208086019550808260051b84010181860160005b848110156111ff57601f198684030189526111ed83835161108a565b988401989250908301906001016111d1565b5090979650505050505050565b82815260406020820152600061122560408301846111b4565b949350505050565b6020808252825182820181905260009190848201906040850190845b8181101561126e5783516001600160a01b031683529284019291840191600101611249565b50909695505050505050565b6000806020838503121561128d57600080fd5b823567ffffffffffffffff808211156112a557600080fd5b818501915085601f8301126112b957600080fd5b8135818111156112c857600080fd5b8660208285010111156112da57600080fd5b60209290920196919550909350505050565b60208152600061108360208301846111b4565b600181811c9082168061131357607f821691505b602082108103610c4f57634e487b7160e01b600052602260045260246000fd5b634e487b7160e01b600052601160045260246000fd5b8181038181111561135c5761135c611333565b92915050565b808202811582820484141761135c5761135c611333565b634e487b7160e01b600052603260045260246000fd5b6000808335601e198436030181126113a657600080fd5b83018035915067ffffffffffffffff8211156113c157600080fd5b60200191503681900382131561114157600080fd5b634e487b7160e01b600052604160045260246000fd5b601f821115610adc57600081815260208120601f850160051c810160208610156114135750805b601f850160051c820191505b818110156114325782815560010161141f565b505050505050565b67ffffffffffffffff831115611452576114526113d6565b6114668361146083546112ff565b836113ec565b6000601f84116001811461149a57600085156114825750838201355b600019600387901b1c1916600186901b1783556114f4565b600083815260209020601f19861690835b828110156114cb57868501358255602094850194600190920191016114ab565b50868210156114e85760001960f88860031b161c19848701351681555b505060018560011b0183555b5050505050565b60006001820161150d5761150d611333565b506001019056fea2646970667358221220c2a9f120eb2103820ad3e4aa8186766351660b5d60085b20e490025c0ac4bb2f64736f6c63430008120033a2646970667358221220002d9f65ad627ae9aea38fc43f1b55edcddbb25c09a3e33dea5604a7948589c264736f6c63430008120033",
    "linkReferences": {
      "src/libraries/BLS.sol": {
        "BLS": [
          {
            "start": 4084,
            "length": 20
          },
          {
            "start": 4214,
            "length": 20
          },
          {
            "start": 8523,
            "length": 20
          },
          {
            "start": 8653,
            "length": 20
          },
          {
            "start": 9495,
            "length": 20
          },
          {
            "start": 9621,
            "length": 20
          },
          {
            "start": 9784,
            "length": 20
          },
          {
            "start": 9910,
            "length": 20
          }
        ]
      },
      "src/libraries/GroupLib.sol": {
        "GroupLib": [
          {
            "start": 1341,
            "length": 20
          },
          {
            "start": 2058,
            "length": 20
          },
          {
            "start": 2786,
            "length": 20
          },
          {
            "start": 2994,
            "length": 20
          },
          {
            "start": 3677,
            "length": 20
          },
          {
            "start": 4603,
            "length": 20
          },
          {
            "start": 5682,
            "length": 20
          },
          {
            "start": 6215,
            "length": 20
          },
          {
            "start": 9273,
            "length": 20
          },
          {
            "start": 10100,
            "length": 20
          },
          {
            "start": 10492,
            "length": 20
          },
          {
            "start": 10700,
            "length": 20
          }
        ]
      }
    }
  },
  "methodIdentifiers": {
    "addReward(address[],uint256,uint256)": "914eb34d",
    "changeDkgPublicKey(bytes)": "e275cde6",
    "commitDkg((uint256,uint256,bytes,bytes,address[]))": "e37eb96c",
    "getBelongingGroup(address)": "3b6c00b0",
    "getControllerConfig()": "d11b8e68",
    "getCoordinator(uint256)": "42424d6f",
    "getGroup(uint256)": "ceb60654",
    "getGroupCount()": "06545a93",
    "getGroupEpoch()": "7ee49cfd",
    "getGroupThreshold(uint256)": "f49e0ba9",
    "getLastOutput()": "51a2b9a0",
    "getMember(uint256,uint256)": "4d79a893",
    "getNode(address)": "9d209048",
    "getNodeWithdrawableTokens(address)": "227d0f46",
    "getValidGroupIndices()": "b330a0fd",
    "initialize(address,uint256)": "cd6dc687",
    "isPartialKeyRegistered(uint256,address)": "c2db900b",
    "nodeActivate()": "9a075bc3",
    "nodeQuit()": "7a2af56e",
    "nodeRegister(bytes)": "80110e4e",
    "nodeWithdraw(address)": "4ecea80d",
    "owner()": "8da5cb5b",
    "postProcessDkg(uint256,uint256)": "0bf9c5c6",
    "renounceOwnership()": "715018a6",
    "setControllerConfig(address,address,uint256,uint256,uint256,uint256,uint256,uint256,uint256,uint256)": "2ff9e520",
    "setLastOutput(uint256)": "f3df0802",
    "transferOwnership(address)": "f2fde38b"
  },
  "id": 72
}