{"abi":[{"type":"function","name":"addReward","inputs":[{"name":"nodes","type":"address[]","internalType":"address[]"},{"name":"ethAmount","type":"uint256","internalType":"uint256"},{"name":"arpaAmount","type":"uint256","internalType":"uint256"}],"outputs":[],"stateMutability":"nonpayable"},{"type":"function","name":"commitDkg","inputs":[{"name":"params","type":"tuple","internalType":"struct IController.CommitDkgParams","components":[{"name":"groupIndex","type":"uint256","internalType":"uint256"},{"name":"groupEpoch","type":"uint256","internalType":"uint256"},{"name":"publicKey","type":"bytes","internalType":"bytes"},{"name":"partialPublicKey","type":"bytes","internalType":"bytes"},{"name":"disqualifiedNodes","type":"address[]","internalType":"address[]"}]}],"outputs":[],"stateMutability":"nonpayable"},{"type":"function","name":"getBelongingGroup","inputs":[{"name":"nodeAddress","type":"address","internalType":"address"}],"outputs":[{"name":"","type":"int256","internalType":"int256"},{"name":"","type":"int256","internalType":"int256"}],"stateMutability":"view"},{"type":"function","name":"getControllerConfig","inputs":[],"outputs":[{"name":"nodeRegistryContractAddress","type":"address","internalType":"address"},{"name":"adapterContractAddress","type":"address","internalType":"address"},{"name":"disqualifiedNodePenaltyAmount","type":"uint256","internalType":"uint256"},{"name":"defaultNumberOfCommitters","type":"uint256","internalType":"uint256"},{"name":"defaultDkgPhaseDuration","type":"uint256","internalType":"uint256"},{"name":"groupMaxCapacity","type":"uint256","internalType":"uint256"},{"name":"idealNumberOfGroups","type":"uint256","internalType":"uint256"},{"name":"dkgPostProcessReward","type":"uint256","internalType":"uint256"}],"stateMutability":"view"},{"type":"function","name":"getCoordinator","inputs":[{"name":"groupIndex","type":"uint256","internalType":"uint256"}],"outputs":[{"name":"","type":"address","internalType":"address"}],"stateMutability":"view"},{"type":"function","name":"getGroup","inputs":[{"name":"groupIndex","type":"uint256","internalType":"uint256"}],"outputs":[{"name":"","type":"tuple","internalType":"struct IController.Group","components":[{"name":"index","type":"uint256","internalType":"uint256"},{"name":"epoch","type":"uint256","internalType":"uint256"},{"name":"size","type":"uint256","internalType":"uint256"},{"name":"threshold","type":"uint256","internalType":"uint256"},{"name":"members","type":"tuple[]","internalType":"struct IController.Member[]","components":[{"name":"nodeIdAddress","type":"address","internalType":"address"},{"name":"partialPublicKey","type":"uint256[4]","internalType":"uint256[4]"}]},{"name":"committers","type":"address[]","internalType":"address[]"},{"name":"commitCacheList","type":"tuple[]","internalType":"struct IController.CommitCache[]","components":[{"name":"nodeIdAddress","type":"address[]","internalType":"address[]"},{"name":"commitResult","type":"tuple","internalType":"struct IController.CommitResult","components":[{"name":"groupEpoch","type":"uint256","internalType":"uint256"},{"name":"publicKey","type":"uint256[4]","internalType":"uint256[4]"},{"name":"disqualifiedNodes","type":"address[]","internalType":"address[]"}]}]},{"name":"isStrictlyMajorityConsensusReached","type":"bool","internalType":"bool"},{"name":"publicKey","type":"uint256[4]","internalType":"uint256[4]"}]}],"stateMutability":"view"},{"type":"function","name":"getGroupCount","inputs":[],"outputs":[{"name":"","type":"uint256","internalType":"uint256"}],"stateMutability":"view"},{"type":"function","name":"getGroupEpoch","inputs":[],"outputs":[{"name":"","type":"uint256","internalType":"uint256"}],"stateMutability":"view"},{"type":"function","name":"getGroupThreshold","inputs":[{"name":"groupIndex","type":"uint256","internalType":"uint256"}],"outputs":[{"name":"","type":"uint256","internalType":"uint256"},{"name":"","type":"uint256","internalType":"uint256"}],"stateMutability":"view"},{"type":"function","name":"getLastOutput","inputs":[],"outputs":[{"name":"","type":"uint256","internalType":"uint256"}],"stateMutability":"view"},{"type":"function","name":"getMember","inputs":[{"name":"groupIndex","type":"uint256","internalType":"uint256"},{"name":"memberIndex","type":"uint256","internalType":"uint256"}],"outputs":[{"name":"","type":"tuple","internalType":"struct IController.Member","components":[{"name":"nodeIdAddress","type":"address","internalType":"address"},{"name":"partialPublicKey","type":"uint256[4]","internalType":"uint256[4]"}]}],"stateMutability":"view"},{"type":"function","name":"getValidGroupIndices","inputs":[],"outputs":[{"name":"","type":"uint256[]","internalType":"uint256[]"}],"stateMutability":"view"},{"type":"function","name":"initialize","inputs":[{"name":"lastOutput","type":"uint256","internalType":"uint256"}],"outputs":[],"stateMutability":"nonpayable"},{"type":"function","name":"isPartialKeyRegistered","inputs":[{"name":"groupIndex","type":"uint256","internalType":"uint256"},{"name":"nodeIdAddress","type":"address","internalType":"address"}],"outputs":[{"name":"","type":"bool","internalType":"bool"}],"stateMutability":"view"},{"type":"function","name":"nodeJoin","inputs":[{"name":"nodeIdAddress","type":"address","internalType":"address"}],"outputs":[{"name":"","type":"uint256","internalType":"uint256"}],"stateMutability":"nonpayable"},{"type":"function","name":"nodeLeave","inputs":[{"name":"nodeIdAddress","type":"address","internalType":"address"}],"outputs":[],"stateMutability":"nonpayable"},{"type":"function","name":"nodeWithdrawETH","inputs":[{"name":"recipient","type":"address","internalType":"address"},{"name":"ethAmount","type":"uint256","internalType":"uint256"}],"outputs":[],"stateMutability":"nonpayable"},{"type":"function","name":"owner","inputs":[],"outputs":[{"name":"","type":"address","internalType":"address"}],"stateMutability":"view"},{"type":"function","name":"postProcessDkg","inputs":[{"name":"groupIndex","type":"uint256","internalType":"uint256"},{"name":"groupEpoch","type":"uint256","internalType":"uint256"}],"outputs":[],"stateMutability":"nonpayable"},{"type":"function","name":"renounceOwnership","inputs":[],"outputs":[],"stateMutability":"nonpayable"},{"type":"function","name":"setControllerConfig","inputs":[{"name":"nodeRegistryContractAddress","type":"address","internalType":"address"},{"name":"adapterContractAddress","type":"address","internalType":"address"},{"name":"disqualifiedNodePenaltyAmount","type":"uint256","internalType":"uint256"},{"name":"defaultNumberOfCommitters","type":"uint256","internalType":"uint256"},{"name":"defaultDkgPhaseDuration","type":"uint256","internalType":"uint256"},{"name":"groupMaxCapacity","type":"uint256","internalType":"uint256"},{"name":"idealNumberOfGroups","type":"uint256","internalType":"uint256"},{"name":"dkgPostProcessReward","type":"uint256","internalType":"uint256"}],"outputs":[],"stateMutability":"nonpayable"},{"type":"function","name":"setLastOutput","inputs":[{"name":"lastOutput","type":"uint256","internalType":"uint256"}],"outputs":[],"stateMutability":"nonpayable"},{"type":"function","name":"transferOwnership","inputs":[{"name":"newOwner","type":"address","internalType":"address"}],"outputs":[],"stateMutability":"nonpayable"},{"type":"event","name":"ControllerConfigSet","inputs":[{"name":"nodeRegistryContractAddress","type":"address","indexed":false,"internalType":"address"},{"name":"adapterContractAddress","type":"address","indexed":false,"internalType":"address"},{"name":"disqualifiedNodePenaltyAmount","type":"uint256","indexed":false,"internalType":"uint256"},{"name":"defaultNumberOfCommitters","type":"uint256","indexed":false,"internalType":"uint256"},{"name":"defaultDkgPhaseDuration","type":"uint256","indexed":false,"internalType":"uint256"},{"name":"groupMaxCapacity","type":"uint256","indexed":false,"internalType":"uint256"},{"name":"idealNumberOfGroups","type":"uint256","indexed":false,"internalType":"uint256"},{"name":"dkgPostProcessReward","type":"uint256","indexed":false,"internalType":"uint256"}],"anonymous":false},{"type":"event","name":"DkgTask","inputs":[{"name":"globalEpoch","type":"uint256","indexed":true,"internalType":"uint256"},{"name":"groupIndex","type":"uint256","indexed":true,"internalType":"uint256"},{"name":"groupEpoch","type":"uint256","indexed":true,"internalType":"uint256"},{"name":"size","type":"uint256","indexed":false,"internalType":"uint256"},{"name":"threshold","type":"uint256","indexed":false,"internalType":"uint256"},{"name":"members","type":"address[]","indexed":false,"internalType":"address[]"},{"name":"assignmentBlockHeight","type":"uint256","indexed":false,"internalType":"uint256"},{"name":"coordinatorAddress","type":"address","indexed":false,"internalType":"address"}],"anonymous":false},{"type":"event","name":"Initialized","inputs":[{"name":"version","type":"uint8","indexed":false,"internalType":"uint8"}],"anonymous":false},{"type":"event","name":"OwnershipTransferred","inputs":[{"name":"previousOwner","type":"address","indexed":true,"internalType":"address"},{"name":"newOwner","type":"address","indexed":true,"internalType":"address"}],"anonymous":false},{"type":"error","name":"CannotLeaveGroupDuringDkg","inputs":[]},{"type":"error","name":"CoordinatorNotFound","inputs":[{"name":"groupIndex","type":"uint256","internalType":"uint256"}]},{"type":"error","name":"DkgNotInProgress","inputs":[{"name":"groupIndex","type":"uint256","internalType":"uint256"}]},{"type":"error","name":"DkgStillInProgress","inputs":[{"name":"groupIndex","type":"uint256","internalType":"uint256"},{"name":"phase","type":"int8","internalType":"int8"}]},{"type":"error","name":"DuplicatedDisqualifiedNode","inputs":[]},{"type":"error","name":"EpochMismatch","inputs":[{"name":"groupIndex","type":"uint256","internalType":"uint256"},{"name":"inputGroupEpoch","type":"uint256","internalType":"uint256"},{"name":"currentGroupEpoch","type":"uint256","internalType":"uint256"}]},{"type":"error","name":"GroupNotExist","inputs":[{"name":"groupIndex","type":"uint256","internalType":"uint256"}]},{"type":"error","name":"InvalidPartialPublicKey","inputs":[]},{"type":"error","name":"InvalidPublicKey","inputs":[]},{"type":"error","name":"NodeNotInGroup","inputs":[{"name":"groupIndex","type":"uint256","internalType":"uint256"},{"name":"nodeIdAddress","type":"address","internalType":"address"}]},{"type":"error","name":"PartialKeyAlreadyRegistered","inputs":[{"name":"groupIndex","type":"uint256","internalType":"uint256"},{"name":"nodeIdAddress","type":"address","internalType":"address"}]},{"type":"error","name":"SenderNotAdapter","inputs":[]},{"type":"error","name":"SenderNotNodeRegistry","inputs":[]}],"bytecode":{"object":"0x608060405234801561001057600080fd5b50615182806100206000396000f3fe60806040523480156200001157600080fd5b50600436106200019c5760003560e01c8063914eb34d11620000f5578063ed157c3f1162000097578063f3df0802116200006e578063f3df080214620003fe578063f49e0ba91462000415578063fe4b84df146200044357600080fd5b8063ed157c3f14620003b9578063f1d49f6b14620003d0578063f2fde38b14620003e757600080fd5b8063ceb6065411620000cc578063ceb60654146200031d578063d11b8e681462000343578063e37eb96c14620003a257600080fd5b8063914eb34d14620002c5578063b330a0fd14620002dc578063c2db900b14620002f557600080fd5b806342424d6f116200015f578063715018a61162000136578063715018a614620002a05780637ee49cfd14620002aa5780638da5cb5b14620002b357600080fd5b806342424d6f146200022c5780634d79a893146200027157806351a2b9a0146200029757600080fd5b806306545a9314620001a15780630ad98f6a14620001b85780630bf9c5c614620001d157806335fe4a3f14620001e85780633b6c00b014620001ff575b600080fd5b606c545b6040519081526020015b60405180910390f35b620001cf620001c936600462002e32565b6200045a565b005b620001cf620001e236600462002e61565b620004f2565b620001cf620001f936600462002e84565b62000a44565b620002166200021036600462002e84565b62000c1b565b60408051928352602083019190915201620001af565b620002586200023d36600462002eab565b6000908152606a60205260409020546001600160a01b031690565b6040516001600160a01b039091168152602001620001af565b620002886200028236600462002e61565b62000cae565b604051620001af919062002f0b565b607154620001a5565b620001cf62000d4b565b606b54620001a5565b6033546001600160a01b031662000258565b620001cf620002d636600462003036565b62000d63565b620002e662000dfe565b604051620001af919062003088565b6200030c62000306366004620030ce565b62000e81565b6040519015158152602001620001af565b620003346200032e36600462002eab565b6200124d565b604051620001af91906200322e565b606554606654606754607054606854606f54606e54606954604080516001600160a01b03998a168152989097166020890152958701949094526060860192909252608085015260a084015260c083015260e082015261010001620001af565b620001cf620003b33660046200336d565b6200156b565b620001a5620003ca36600462002e84565b62001fb6565b620001cf620003e136600462003444565b620020c6565b620001cf620003f836600462002e84565b62002229565b620001cf6200040f36600462002eab565b620022a8565b620002166200042636600462002eab565b6000908152606d6020526040902060038101546002909101549091565b620001cf6200045436600462002eab565b620022d9565b6065546001600160a01b031633146200048657604051630e2c730d60e41b815260040160405180910390fd5b60665460405163056cc7b560e11b81526001600160a01b0384811660048301526024820184905290911690630ad98f6a90604401600060405180830381600087803b158015620004d557600080fd5b505af1158015620004ea573d6000803e3d6000fd5b505050505050565b606c5482106200051d57604051637f6efcb560e11b8152600481018390526024015b60405180910390fd5b6040516358914d0360e01b8152606b60048201526024810183905233604482015273__$99f6e31d9157e72684c1fb13c20fb01510$__906358914d0390606401602060405180830381865af41580156200057b573d6000803e3d6000fd5b505050506040513d601f19601f82011682018060405250810190620005a19190620034b4565b19620005ca5760405163eb51f5f960e01b81526004810183905233602482015260440162000514565b6000828152606d60205260409020600181015482146200061557600181015460405163048b63c360e11b81526004810185905260248101849052604481019190915260640162000514565b6000838152606a60205260409020546001600160a01b03166200064f57604051635291bbcf60e01b81526004810184905260240162000514565b6000838152606a602090815260409182902054825163221f951160e01b815292516001600160a01b0390911692839263221f9511926004808401938290030181865afa158015620006a4573d6000803e3d6000fd5b505050506040513d601f19601f82011682018060405250810190620006ca9190620034ce565b60000b60001914620007625783816001600160a01b031663221f95116040518163ffffffff1660e01b8152600401602060405180830381865afa15801562000716573d6000803e3d6000fd5b505050506040513d601f19601f820116820180604052508101906200073c9190620034ce565b60405163f7c06f9160e01b8152600481019290925260000b602482015260440162000514565b806001600160a01b0316639cb8a26a6040518163ffffffff1660e01b8152600401600060405180830381600087803b1580156200079e57600080fd5b505af1158015620007b3573d6000803e3d6000fd5b5050506000858152606a6020526040902080546001600160a01b031916905550600782015460ff166200098857607154604051630295316d60e51b8152606b6004820152602481018690526044810191909152600090819073__$99f6e31d9157e72684c1fb13c20fb01510$__906352a62da090606401600060405180830381865af415801562000848573d6000803e3d6000fd5b505050506040513d6000823e601f3d908101601f19168201604052620008729190810190620035c2565b9150915060005b82518110156200093a5760655483516001600160a01b0390911690638ed4700890859084908110620008af57620008af6200362d565b60209081029190910101516067546040516001600160e01b031960e085901b1681526001600160a01b039092166004830152602482015260006044820152606401600060405180830381600087803b1580156200090b57600080fd5b505af115801562000920573d6000803e3d6000fd5b505050508080620009319062003659565b91505062000879565b5060005b815181101562000984576200096f8282815181106200096157620009616200362d565b6020026020010151620023f9565b806200097b8162003659565b9150506200093e565b5050505b604080516001808252818301909252600091602080830190803683370190505090503381600081518110620009c157620009c16200362d565b6001600160a01b03928316602091820292909201015260655460695460405163914eb34d60e01b8152919092169163914eb34d9162000a099185916000919060040162003675565b600060405180830381600087803b15801562000a2457600080fd5b505af115801562000a39573d6000803e3d6000fd5b505050505050505050565b6065546001600160a01b0316331462000a7057604051630e2c730d60e41b815260040160405180910390fd5b60405163787c576760e01b8152606b60048201526001600160a01b0382166024820152600090819073__$99f6e31d9157e72684c1fb13c20fb01510$__9063787c5767906044016040805180830381865af415801562000ad4573d6000803e3d6000fd5b505050506040513d601f19601f8201168201806040525081019062000afa91906200369c565b91509150816000191462000c16576000828152606a60205260409020546001600160a01b03161562000b3f5760405163cccf9bf160e01b815260040160405180910390fd5b60715460405163cd21da9960e01b8152606b60048201526024810184905260448101839052606481019190915260009073__$99f6e31d9157e72684c1fb13c20fb01510$__9063cd21da9990608401600060405180830381865af415801562000bac573d6000803e3d6000fd5b505050506040513d6000823e601f3d908101601f1916820160405262000bd69190810190620036c1565b905060005b815181101562000c135762000bfe8282815181106200096157620009616200362d565b8062000c0a8162003659565b91505062000bdb565b50505b505050565b60405163787c576760e01b8152606b60048201526001600160a01b0382166024820152600090819073__$99f6e31d9157e72684c1fb13c20fb01510$__9063787c5767906044016040805180830381865af415801562000c7f573d6000803e3d6000fd5b505050506040513d601f19601f8201168201806040525081019062000ca591906200369c565b91509150915091565b62000cb862002c28565b6000838152606d6020526040902060040180548390811062000cde5762000cde6200362d565b6000918252602091829020604080518082018252600590930290910180546001600160a01b0316835281516080810190925291928301906001830160048282826020028201915b81548152602001906001019080831162000d255750505050508152505090505b92915050565b62000d5562002a30565b62000d61600062002a8c565b565b6066546001600160a01b0316331462000d8f5760405163469666c560e01b815260040160405180910390fd5b60655460405163914eb34d60e01b81526001600160a01b039091169063914eb34d9062000dc59086908690869060040162003675565b600060405180830381600087803b15801562000de057600080fd5b505af115801562000df5573d6000803e3d6000fd5b50505050505050565b604051631c2da66560e31b8152606b600482015260609073__$99f6e31d9157e72684c1fb13c20fb01510$__9063e16d332890602401600060405180830381865af415801562000e52573d6000803e3d6000fd5b505050506040513d6000823e601f3d908101601f1916820160405262000e7c9190810190620036c1565b905090565b6000828152606d60209081526040808320815161012081018352815481526001820154818501526002820154818401526003820154606082015260048201805484518187028101870190955280855286959294608086019390929190879084015b8282101562000f5e5760008481526020908190206040805180820182526005860290920180546001600160a01b0316835281516080810190925291928301906001830160048282826020028201915b81548152602001906001019080831162000f31575050505050815250508152602001906001019062000ee2565b5050505081526020016005820180548060200260200160405190810160405280929190818152602001828054801562000fc157602002820191906000526020600020905b81546001600160a01b0316815260019091019060200180831162000fa2575b5050505050815260200160068201805480602002602001604051908101604052809291908181526020016000905b828210156200113f5783829060005260206000209060070201604051806040016040529081600082018054806020026020016040519081016040528092919081815260200182805480156200106e57602002820191906000526020600020905b81546001600160a01b031681526001909101906020018083116200104f575b50505091835250506040805160608101825260018401805482528251608081019384905260209485019492939192840191600287019060049082845b815481526020019060010190808311620010aa5750505050508152602001600582018054806020026020016040519081016040528092919081815260200182805480156200112257602002820191906000526020600020905b81546001600160a01b0316815260019091019060200180831162001103575b505050505081525050815250508152602001906001019062000fef565b50505090825250600782015460ff1615156020820152604080516080810182529101906008830160048282826020028201915b8154815260200190600101908083116200117257505050505081525050905060005b8160800151518110156200124257836001600160a01b031682608001518281518110620011c557620011c56200362d565b6020026020010151600001516001600160a01b0316036200122d5781608001518181518110620011f957620011f96200362d565b6020026020010151602001516000600481106200121a576200121a6200362d565b6020020151600014159250505062000d45565b80620012398162003659565b91505062001194565b506000949350505050565b6200125762002c52565b6000828152606d602090815260408083208151610120810183528154815260018201548185015260028201548184015260038201546060820152600482018054845181870281018701909552808552919592946080870194939192919084015b82821015620013335760008481526020908190206040805180820182526005860290920180546001600160a01b0316835281516080810190925291928301906001830160048282826020028201915b815481526020019060010190808311620013065750505050508152505081526020019060010190620012b7565b505050508152602001600582018054806020026020016040519081016040528092919081815260200182805480156200139657602002820191906000526020600020905b81546001600160a01b0316815260019091019060200180831162001377575b5050505050815260200160068201805480602002602001604051908101604052809291908181526020016000905b82821015620015145783829060005260206000209060070201604051806040016040529081600082018054806020026020016040519081016040528092919081815260200182805480156200144357602002820191906000526020600020905b81546001600160a01b0316815260019091019060200180831162001424575b50505091835250506040805160608101825260018401805482528251608081019384905260209485019492939192840191600287019060049082845b8154815260200190600101908083116200147f575050505050815260200160058201805480602002602001604051908101604052809291908181526020018280548015620014f757602002820191906000526020600020905b81546001600160a01b03168152600190910190602001808311620014d8575b5050505050815250508152505081526020019060010190620013c4565b50505090825250600782015460ff1615156020820152604080516080810182529101906008830160048282826020028201915b81548152602001906001019080831162001547575050505050815250509050919050565b606c5481511062001596578051604051637f6efcb560e11b8152600481019190915260240162000514565b80516000908152606a60205260409020546001600160a01b0316620015d5578051604051635291bbcf60e01b8152600481019190915260240162000514565b80516000908152606a602090815260409182902054825163221f951160e01b815292516001600160a01b0390911692839263221f9511926004808401938290030181865afa1580156200162c573d6000803e3d6000fd5b505050506040513d601f19601f82011682018060405250810190620016529190620034ce565b60000b196200167b5781516040516343609fe160e01b8152600481019190915260240162000514565b81516000908152606d60209081526040909120600181015491840151909114620016d65782516020840151600183015460405163048b63c360e11b815260048101939093526024830191909152604482015260640162000514565b82516040516358914d0360e01b8152606b6004820152602481019190915233604482015273__$99f6e31d9157e72684c1fb13c20fb01510$__906358914d0390606401602060405180830381865af415801562001737573d6000803e3d6000fd5b505050506040513d601f19601f820116820180604052508101906200175d9190620034b4565b196200178957825160405163eb51f5f960e01b8152600481019190915233602482015260440162000514565b825162001797903362000e81565b15620017c357825160405163173ca10960e31b8152600481019190915233602482015260440162000514565b60608301516040516316f6db8160e01b815260009173__$34d23ddaee48904c6c566425acbfa0fc0e$__916316f6db8191620018029160040162003756565b608060405180830381865af415801562001820573d6000803e3d6000fd5b505050506040513d601f19601f820116820180604052508101906200184691906200376b565b604051636fda2c7960e01b815290915073__$34d23ddaee48904c6c566425acbfa0fc0e$__90636fda2c799062001882908490600401620037f1565b602060405180830381865af4158015620018a0573d6000803e3d6000fd5b505050506040513d601f19601f82011682018060405250810190620018c6919062003817565b620018e457604051631886185760e01b815260040160405180910390fd5b60408085015190516316f6db8160e01b815260009173__$34d23ddaee48904c6c566425acbfa0fc0e$__916316f6db8191620019239160040162003756565b608060405180830381865af415801562001941573d6000803e3d6000fd5b505050506040513d601f19601f820116820180604052508101906200196791906200376b565b604051636fda2c7960e01b815290915073__$34d23ddaee48904c6c566425acbfa0fc0e$__90636fda2c7990620019a3908490600401620037f1565b602060405180830381865af4158015620019c1573d6000803e3d6000fd5b505050506040513d601f19601f82011682018060405250810190620019e7919062003817565b62001a055760405163145a1fdd60e31b815260040160405180910390fd5b84516040516358914d0360e01b8152606b6004808301919091526024820192909252336044820152839185019073__$99f6e31d9157e72684c1fb13c20fb01510$__906358914d0390606401602060405180830381865af415801562001a6f573d6000803e3d6000fd5b505050506040513d601f19601f8201168201806040525081019062001a959190620034b4565b8154811062001aa85762001aa86200362d565b906000526020600020906005020160010190600462001ac992919062002ca2565b50600783015460ff1662000c135760005b85608001515181101562001cbf57606b73__$99f6e31d9157e72684c1fb13c20fb01510$__6358914d03909188600001518960800151858151811062001b245762001b246200362d565b60200260200101516040518463ffffffff1660e01b815260040162001b659392919092835260208301919091526001600160a01b0316604082015260600190565b602060405180830381865af415801562001b83573d6000803e3d6000fd5b505050506040513d601f19601f8201168201806040525081019062001ba99190620034b4565b1962001c01578551608087015180518390811062001bcb5762001bcb6200362d565b602002602001015160405163eb51f5f960e01b8152600401620005149291909182526001600160a01b0316602082015260400190565b600062001c1082600162003835565b90505b86608001515181101562001ca9578660800151818151811062001c3a5762001c3a6200362d565b60200260200101516001600160a01b03168760800151838151811062001c645762001c646200362d565b60200260200101516001600160a01b03160362001c94576040516342381c9560e01b815260040160405180910390fd5b8062001ca08162003659565b91505062001c13565b508062001cb68162003659565b91505062001ada565b50604080516060810182526020808801518252810183905260808701518183015286519151636aba6eeb60e11b8152909173__$99f6e31d9157e72684c1fb13c20fb01510$__9163d574ddd69162001d2091606b919086906004016200384b565b602060405180830381865af415801562001d3e573d6000803e3d6000fd5b505050506040513d601f19601f8201168201806040525081019062001d64919062003817565b62001e4b5760408051600181830181815260808301909352600092829160608301602080368337505050815260200183905280518051919250339160009062001db15762001db16200362d565b6001600160a01b0390921660209283029190910182015260068601805460018101825560009182529082902083518051859460079094029092019262001dfd9284929091019062002ce5565b506020828101518051600184019081559181015190919062001e26906002850190600462002ca2565b506040820151805162001e4491600584019160209091019062002ce5565b5050505050505b855160715460405163449cf2fd60e11b8152606b600482015260248101929092526044820152600090819073__$99f6e31d9157e72684c1fb13c20fb01510$__90638939e5fa90606401600060405180830381865af415801562001eb3573d6000803e3d6000fd5b505050506040513d6000823e601f3d908101601f1916820160405262001edd9190810190620038d6565b91509150811562001fac5760005b815181101562000a395760655482516001600160a01b0390911690638ed470089084908490811062001f215762001f216200362d565b60209081029190910101516067546040516001600160e01b031960e085901b1681526001600160a01b039092166004830152602482015260006044820152606401600060405180830381600087803b15801562001f7d57600080fd5b505af115801562001f92573d6000803e3d6000fd5b50505050808062001fa39062003659565b91505062001eeb565b5050505050505050565b6065546000906001600160a01b0316331462001fe557604051630e2c730d60e41b815260040160405180910390fd5b607154604051629bf68360e11b8152606b60048201526001600160a01b03841660248201526044810191909152600090819073__$99f6e31d9157e72684c1fb13c20fb01510$__90630137ed0690606401600060405180830381865af415801562002054573d6000803e3d6000fd5b505050506040513d6000823e601f3d908101601f191682016040526200207e919081019062003920565b9150915060005b8151811015620020bd57620020a88282815181106200096157620009616200362d565b80620020b48162003659565b91505062002085565b50909392505050565b620020d062002a30565b6040805160a0810182526001600160a01b038a8116808352908a16602083018190528284018a9052606083018890526080909201849052606580546001600160a01b03199081169092179055606680549091169091179055606787905560688590556069829055516301a79f6360e71b8152606b600482015260248101839052604481018490526064810186905273__$99f6e31d9157e72684c1fb13c20fb01510$__9063d3cfb1809060840160006040518083038186803b1580156200219657600080fd5b505af4158015620021ab573d6000803e3d6000fd5b5050604080516001600160a01b03808d1682528b166020820152908101899052606081018890526080810187905260a0810186905260c0810185905260e081018490527ff95156a904d33c289d45bd80fdb27f108976d7a2de754073eb7506cf618779ad925061010001905060405180910390a15050505050505050565b6200223362002a30565b6001600160a01b0381166200229a5760405162461bcd60e51b815260206004820152602660248201527f4f776e61626c653a206e6577206f776e657220697320746865207a65726f206160448201526564647265737360d01b606482015260840162000514565b620022a58162002a8c565b50565b6066546001600160a01b03163314620022d45760405163469666c560e01b815260040160405180910390fd5b607155565b600054610100900460ff1615808015620022fa5750600054600160ff909116105b80620023165750303b15801562002316575060005460ff166001145b6200237b5760405162461bcd60e51b815260206004820152602e60248201527f496e697469616c697a61626c653a20636f6e747261637420697320616c72656160448201526d191e481a5b9a5d1a585b1a5e995960921b606482015260840162000514565b6000805460ff1916600117905580156200239f576000805461ff0019166101001790555b6071829055620023ae62002ade565b8015620023f5576000805461ff0019169055604051600181527f7f26b83ff96e1f2b6a682f133852f6798a09c465da95921460cefb38474024989060200160405180910390a15b5050565b62002406606b8262002b12565b6000818152606d602090815260408083208151610120810183528154815260018201548185015260028201548184015260038201546060820152600482018054845181870281018701909552808552919492936080860193909290879084015b82821015620024e25760008481526020908190206040805180820182526005860290920180546001600160a01b0316835281516080810190925291928301906001830160048282826020028201915b815481526020019060010190808311620024b5575050505050815250508152602001906001019062002466565b505050508152602001600582018054806020026020016040519081016040528092919081815260200182805480156200254557602002820191906000526020600020905b81546001600160a01b0316815260019091019060200180831162002526575b5050505050815260200160068201805480602002602001604051908101604052809291908181526020016000905b82821015620026c3578382906000526020600020906007020160405180604001604052908160008201805480602002602001604051908101604052809291908181526020018280548015620025f257602002820191906000526020600020905b81546001600160a01b03168152600190910190602001808311620025d3575b50505091835250506040805160608101825260018401805482528251608081019384905260209485019492939192840191600287019060049082845b8154815260200190600101908083116200262e575050505050815260200160058201805480602002602001604051908101604052809291908181526020018280548015620026a657602002820191906000526020600020905b81546001600160a01b0316815260019091019060200180831162002687575b505050505081525050815250508152602001906001019062002573565b50505090825250600782015460ff1615156020820152604080516080810182529101906008830160048282826020028201915b815481526020019060010190808311620026f657505050505081525050905060008160600151606560030154604051620027309062002d3d565b9182526020820152604001604051809103906000f08015801562002758573d6000803e3d6000fd5b506000848152606a602052604080822080546001600160a01b0319166001600160a01b0385161790558401519192509067ffffffffffffffff811115620027a357620027a362002f1b565b604051908082528060200260200182016040528015620027cd578160200160208202803683370190505b5090506000836040015167ffffffffffffffff811115620027f257620027f262002f1b565b6040519080825280602002602001820160405280156200282757816020015b6060815260200190600190039081620028115790505b50905060005b84604001518110156200296b57846080015181815181106200285357620028536200362d565b6020026020010151600001518382815181106200287457620028746200362d565b6001600160a01b0392831660209182029290920101526065546080870151805160009392909216916315dac9b2919085908110620028b657620028b66200362d565b6020908102919091010151516040516001600160e01b031960e084901b1681526001600160a01b039091166004820152602401600060405180830381865afa15801562002907573d6000803e3d6000fd5b505050506040513d6000823e601f3d908101601f1916820160405262002931919081019062003961565b9050808383815181106200294957620029496200362d565b6020026020010181905250508080620029629062003659565b9150506200282d565b506040516337f8d5ff60e01b81526001600160a01b038416906337f8d5ff906200299c9085908590600401620039e1565b600060405180830381600087803b158015620029b757600080fd5b505af1158015620029cc573d6000803e3d6000fd5b5050505083602001518460000151606b600001547fbbd25d64683f157b2e3544d3d6430e14102db1e49592cf4dcaf827e2ded517ee8760400151886060015187438a60405162002a2195949392919062003a59565b60405180910390a45050505050565b6033546001600160a01b0316331462000d615760405162461bcd60e51b815260206004820181905260248201527f4f776e61626c653a2063616c6c6572206973206e6f7420746865206f776e6572604482015260640162000514565b603380546001600160a01b038381166001600160a01b0319831681179093556040519116919082907f8be0079c531659141344cd1fd0a4f28419497f9722a3daafe3b4186f6b6457e090600090a35050565b600054610100900460ff1662002b085760405162461bcd60e51b8152600401620005149062003a9b565b62000d6162002bf3565b815482600062002b228362003659565b909155505060008181526002830160205260408120600181018054919262002b4a8362003659565b909155505060078101805460ff1916905562002b6b60058201600062002d4b565b62002b7b60068201600062002d6b565b60005b600482015481101562002bed5781600401818154811062002ba35762002ba36200362d565b9060005260206000209060050201600101600062002bd891905060008155600101600081556001016000815560010160009055565b8062002be48162003659565b91505062002b7e565b50505050565b600054610100900460ff1662002c1d5760405162461bcd60e51b8152600401620005149062003a9b565b62000d613362002a8c565b604051806040016040528060006001600160a01b0316815260200162002c4d62002d8e565b905290565b6040518061012001604052806000815260200160008152602001600081526020016000815260200160608152602001606081526020016060815260200160001515815260200162002c4d62002d8e565b826004810192821562002cd3579160200282015b8281111562002cd357825182559160200191906001019062002cb6565b5062002ce192915062002dac565b5090565b82805482825590600052602060002090810192821562002cd3579160200282015b8281111562002cd357825182546001600160a01b0319166001600160a01b0390911617825560209092019160019091019062002d06565b6116668062003ae783390190565b5080546000825590600052602060002090810190620022a5919062002dac565b5080546000825560070290600052602060002090810190620022a5919062002dc3565b60405180608001604052806004906020820280368337509192915050565b5b8082111562002ce1576000815560010162002dad565b8082111562002ce157600062002dda828262002d4b565b600060018301818155600284018290556003840182905560048401829055600584018290559062002e1060058301600062002d4b565b50505060070162002dc3565b6001600160a01b0381168114620022a557600080fd5b6000806040838503121562002e4657600080fd5b823562002e538162002e1c565b946020939093013593505050565b6000806040838503121562002e7557600080fd5b50508035926020909101359150565b60006020828403121562002e9757600080fd5b813562002ea48162002e1c565b9392505050565b60006020828403121562002ebe57600080fd5b5035919050565b8060005b600481101562002bed57815184526020938401939091019060010162002ec9565b6001600160a01b038151168252602081015162000c16602084018262002ec5565b60a0810162000d45828462002eea565b634e487b7160e01b600052604160045260246000fd5b60405160a0810167ffffffffffffffff8111828210171562002f575762002f5762002f1b565b60405290565b604051601f8201601f1916810167ffffffffffffffff8111828210171562002f895762002f8962002f1b565b604052919050565b600067ffffffffffffffff82111562002fae5762002fae62002f1b565b5060051b60200190565b600082601f83011262002fca57600080fd5b8135602062002fe362002fdd8362002f91565b62002f5d565b82815260059290921b840181019181810190868411156200300357600080fd5b8286015b848110156200302b5780356200301d8162002e1c565b835291830191830162003007565b509695505050505050565b6000806000606084860312156200304c57600080fd5b833567ffffffffffffffff8111156200306457600080fd5b620030728682870162002fb8565b9660208601359650604090950135949350505050565b6020808252825182820181905260009190848201906040850190845b81811015620030c257835183529284019291840191600101620030a4565b50909695505050505050565b60008060408385031215620030e257600080fd5b823591506020830135620030f68162002e1c565b809150509250929050565b600081518084526020808501945080840160005b838110156200313f576200312b87835162002eea565b60a096909601959082019060010162003115565b509495945050505050565b600081518084526020808501945080840160005b838110156200313f5781516001600160a01b0316875295820195908201906001016200315e565b600081518084526020808501808196508360051b8101915082860160005b8581101562003221578284038952815160408151818752620031c8828801826200314a565b90508783015192508681038888015260c08351825288840151620031ef8a84018262002ec5565b508284015193508060a08301526200320a818301856200314a565b9c89019c97505050928601925050600101620031a3565b5091979650505050505050565b60208152815160208201526020820151604082015260408201516060820152606082015160808201526000608083015161018060a0840152620032766101a084018262003101565b905060a0840151601f19808584030160c08601526200329683836200314a565b925060c08601519150808584030160e086015250620032b6828262003185565b91505060e0840151610100620032cf8186018315159052565b8501519050620032e461012085018262002ec5565b509392505050565b600067ffffffffffffffff82111562003309576200330962002f1b565b50601f01601f191660200190565b600082601f8301126200332957600080fd5b81356200333a62002fdd82620032ec565b8181528460208386010111156200335057600080fd5b816020850160208301376000918101602001919091529392505050565b6000602082840312156200338057600080fd5b813567ffffffffffffffff808211156200339957600080fd5b9083019060a08286031215620033ae57600080fd5b620033b862002f31565b8235815260208301356020820152604083013582811115620033d957600080fd5b620033e78782860162003317565b6040830152506060830135828111156200340057600080fd5b6200340e8782860162003317565b6060830152506080830135828111156200342757600080fd5b620034358782860162002fb8565b60808301525095945050505050565b600080600080600080600080610100898b0312156200346257600080fd5b88356200346f8162002e1c565b97506020890135620034818162002e1c565b979a9799505050506040860135956060810135956080820135955060a0820135945060c0820135935060e0909101359150565b600060208284031215620034c757600080fd5b5051919050565b600060208284031215620034e157600080fd5b81518060000b811462002ea457600080fd5b600082601f8301126200350557600080fd5b815160206200351862002fdd8362002f91565b82815260059290921b840181019181810190868411156200353857600080fd5b8286015b848110156200302b578051620035528162002e1c565b83529183019183016200353c565b600082601f8301126200357257600080fd5b815160206200358562002fdd8362002f91565b82815260059290921b84018101918181019086841115620035a557600080fd5b8286015b848110156200302b5780518352918301918301620035a9565b60008060408385031215620035d657600080fd5b825167ffffffffffffffff80821115620035ef57600080fd5b620035fd86838701620034f3565b935060208501519150808211156200361457600080fd5b50620036238582860162003560565b9150509250929050565b634e487b7160e01b600052603260045260246000fd5b634e487b7160e01b600052601160045260246000fd5b6000600182016200366e576200366e62003643565b5060010190565b6060815260006200368a60608301866200314a565b60208301949094525060400152919050565b60008060408385031215620036b057600080fd5b505080516020909101519092909150565b600060208284031215620036d457600080fd5b815167ffffffffffffffff811115620036ec57600080fd5b620036fa8482850162003560565b949350505050565b60005b838110156200371f57818101518382015260200162003705565b50506000910152565b600081518084526200374281602086016020860162003702565b601f01601f19169290920160200192915050565b60208152600062002ea4602083018462003728565b6000608082840312156200377e57600080fd5b82601f8301126200378e57600080fd5b6040516080810181811067ffffffffffffffff82111715620037b457620037b462002f1b565b604052806080840185811115620037ca57600080fd5b845b81811015620037e6578051835260209283019201620037cc565b509195945050505050565b6080810162000d45828462002ec5565b805180151581146200381257600080fd5b919050565b6000602082840312156200382a57600080fd5b62002ea48262003801565b8082018082111562000d455762000d4562003643565b83815260006020848184015260606040840152610120830184516060850152818501516200387d608086018262002ec5565b50604085015160c06101008601528051918290528201906000906101408601905b80831015620038c95783516001600160a01b031682529284019260019290920191908401906200389e565b5098975050505050505050565b60008060408385031215620038ea57600080fd5b620038f58362003801565b9150602083015167ffffffffffffffff8111156200391257600080fd5b6200362385828601620034f3565b600080604083850312156200393457600080fd5b82519150602083015167ffffffffffffffff8111156200395357600080fd5b620036238582860162003560565b6000602082840312156200397457600080fd5b815167ffffffffffffffff8111156200398c57600080fd5b8201601f810184136200399e57600080fd5b8051620039af62002fdd82620032ec565b818152856020838501011115620039c557600080fd5b620039d882602083016020860162003702565b95945050505050565b604081526000620039f660408301856200314a565b6020838203818501528185518084528284019150828160051b85010183880160005b8381101562003a4a57601f1987840301855262003a3783835162003728565b9486019492509085019060010162003a18565b50909998505050505050505050565b85815284602082015260a06040820152600062003a7a60a08301866200314a565b90508360608301526001600160a01b03831660808301529695505050505050565b6020808252602b908201527f496e697469616c697a61626c653a20636f6e7472616374206973206e6f74206960408201526a6e697469616c697a696e6760a81b60608201526080019056fe60c0604052600060065534801561001557600080fd5b506040516116663803806116668339810160408190526100349161009b565b61003d3361004b565b60a0919091526080526100bf565b600080546001600160a01b038381166001600160a01b0319831681178455604051919092169283917f8be0079c531659141344cd1fd0a4f28419497f9722a3daafe3b4186f6b6457e09190a35050565b600080604083850312156100ae57600080fd5b505080516020909101519092909150565b60805160a05161154a61011c6000396000818161027f0152610768015260008181610243015281816103aa015281816103dc015281816104150152818161044e0152818161089b0152818161093e01526109e5015261154a6000f3fe608060405234801561001057600080fd5b506004361061012c5760003560e01c80638da5cb5b116100ad578063cc5ef00911610071578063cc5ef009146102a1578063cd5e3837146102a9578063ce7c2ac2146102bc578063d73fe0aa146102cf578063f2fde38b146102d757600080fd5b80638da5cb5b146102255780639cb8a26a14610236578063ac5553ce1461023e578063b0ef817914610265578063c27040241461027a57600080fd5b80634e3874a0116100f45780634e3874a0146101cc5780635aa68ac0146101e2578063670d14b2146101f7578063715018a61461020a5780637fd283461461021257600080fd5b80630ea6564814610131578063221f95111461015a57806335c1d3491461017557806337f8d5ff146101a057806348cd4cb1146101b5575b600080fd5b61014461013f36600461105a565b6102ea565b60405161015191906110d0565b60405180910390f35b610162610384565b60405160009190910b8152602001610151565b6101886101833660046110e3565b61048b565b6040516001600160a01b039091168152602001610151565b6101b36101ae366004611148565b6104b5565b005b6101be60065481565b604051908152602001610151565b6101d461060a565b60405161015192919061120c565b6101ea61078f565b604051610151919061122d565b61014461020536600461105a565b6107f1565b6101b361080a565b6101b361022036600461127a565b61081e565b6000546001600160a01b0316610188565b6101b3610ae1565b6101be7f000000000000000000000000000000000000000000000000000000000000000081565b61026d610af7565b60405161015191906112ec565b6101be7f000000000000000000000000000000000000000000000000000000000000000081565b61026d610c55565b6101446102b736600461105a565b610dad565b6101446102ca36600461105a565b610dc6565b61026d610ddf565b6101b36102e536600461105a565b610f37565b60036020526000908152604090208054610303906112ff565b80601f016020809104026020016040519081016040528092919081815260200182805461032f906112ff565b801561037c5780601f106103515761010080835404028352916020019161037c565b820191906000526020600020905b81548152906001019060200180831161035f57829003601f168201915b505050505081565b60006006546000036103965750600090565b6000600654436103a69190611349565b90507f000000000000000000000000000000000000000000000000000000000000000081116103d757600191505090565b6104027f00000000000000000000000000000000000000000000000000000000000000006002611362565b811161041057600291505090565b61043b7f00000000000000000000000000000000000000000000000000000000000000006003611362565b811161044957600391505090565b6104747f00000000000000000000000000000000000000000000000000000000000000006004611362565b811161048257600491505090565b60001991505090565b6005818154811061049b57600080fd5b6000918252602090912001546001600160a01b0316905081565b6006541561050a5760405162461bcd60e51b815260206004820152601760248201527f444b472068617320616c7265616479207374617274656400000000000000000060448201526064015b60405180910390fd5b610512610fb0565b60005b838110156105ff57600585858381811061053157610531611379565b9050602002016020810190610546919061105a565b81546001810183556000928352602090922090910180546001600160a01b0319166001600160a01b0390921691909117905582828281811061058a5761058a611379565b905060200281019061059c919061138f565b600160008888868181106105b2576105b2611379565b90506020020160208101906105c7919061105a565b6001600160a01b031681526020810191909152604001600020916105ec91908361143a565b50806105f7816114fb565b915050610515565b505043600655505050565b60006060600060058054905067ffffffffffffffff81111561062e5761062e6113d6565b60405190808252806020026020018201604052801561066157816020015b606081526020019060019003908161064c5790505b50905060005b60055481101561076557600160006005838154811061068857610688611379565b60009182526020808320909101546001600160a01b03168352820192909252604001902080546106b7906112ff565b80601f01602080910402602001604051908101604052809291908181526020018280546106e3906112ff565b80156107305780601f1061070557610100808354040283529160200191610730565b820191906000526020600020905b81548152906001019060200180831161071357829003601f168201915b505050505082828151811061074757610747611379565b6020026020010181905250808061075d906114fb565b915050610667565b507f0000000000000000000000000000000000000000000000000000000000000000939092509050565b606060058054806020026020016040519081016040528092919081815260200182805480156107e757602002820191906000526020600020905b81546001600160a01b031681526001909101906020018083116107c9575b5050505050905090565b60016020526000908152604090208054610303906112ff565b610812610fb0565b61081c600061100a565b565b3360009081526001602052604081208054610838906112ff565b9050116108875760405162461bcd60e51b815260206004820152601b60248201527f796f7520617265206e6f7420612067726f7570206d656d6265722100000000006044820152606401610501565b6000600654436108979190611349565b90507f000000000000000000000000000000000000000000000000000000000000000081116109395733600090815260026020526040902080546108da906112ff565b1590506109195760405162461bcd60e51b815260206004820152600d60248201526c1cda185c9948195e1a5cdd1959609a1b6044820152606401610501565b33600090815260026020526040902061093383858361143a565b50505050565b6109647f00000000000000000000000000000000000000000000000000000000000000006002611362565b81116109e0573360009081526003602052604090208054610984906112ff565b1590506109c65760405162461bcd60e51b815260206004820152601060248201526f1c995cdc1bdb9cd948195e1a5cdd195960821b6044820152606401610501565b33600090815260036020526040902061093383858361143a565b610a0b7f00000000000000000000000000000000000000000000000000000000000000006003611362565b8111610a94573360009081526004602052604090208054610a2b906112ff565b159050610a7a5760405162461bcd60e51b815260206004820152601560248201527f6a757374696669636174696f6e206578697374656400000000000000000000006044820152606401610501565b33600090815260046020526040902061093383858361143a565b60405162461bcd60e51b815260206004820152601560248201527f444b47205075626c6973682068617320656e64656400000000000000000000006044820152606401610501565b505050565b610ae9610fb0565b6000546001600160a01b0316ff5b60055460609060009067ffffffffffffffff811115610b1857610b186113d6565b604051908082528060200260200182016040528015610b4b57816020015b6060815260200190600190039081610b365790505b50905060005b600554811015610c4f576004600060058381548110610b7257610b72611379565b60009182526020808320909101546001600160a01b0316835282019290925260400190208054610ba1906112ff565b80601f0160208091040260200160405190810160405280929190818152602001828054610bcd906112ff565b8015610c1a5780601f10610bef57610100808354040283529160200191610c1a565b820191906000526020600020905b815481529060010190602001808311610bfd57829003601f168201915b5050505050828281518110610c3157610c31611379565b60200260200101819052508080610c47906114fb565b915050610b51565b50919050565b60055460609060009067ffffffffffffffff811115610c7657610c766113d6565b604051908082528060200260200182016040528015610ca957816020015b6060815260200190600190039081610c945790505b50905060005b600554811015610c4f576003600060058381548110610cd057610cd0611379565b60009182526020808320909101546001600160a01b0316835282019290925260400190208054610cff906112ff565b80601f0160208091040260200160405190810160405280929190818152602001828054610d2b906112ff565b8015610d785780601f10610d4d57610100808354040283529160200191610d78565b820191906000526020600020905b815481529060010190602001808311610d5b57829003601f168201915b5050505050828281518110610d8f57610d8f611379565b60200260200101819052508080610da5906114fb565b915050610caf565b60046020526000908152604090208054610303906112ff565b60026020526000908152604090208054610303906112ff565b60055460609060009067ffffffffffffffff811115610e0057610e006113d6565b604051908082528060200260200182016040528015610e3357816020015b6060815260200190600190039081610e1e5790505b50905060005b600554811015610c4f576002600060058381548110610e5a57610e5a611379565b60009182526020808320909101546001600160a01b0316835282019290925260400190208054610e89906112ff565b80601f0160208091040260200160405190810160405280929190818152602001828054610eb5906112ff565b8015610f025780601f10610ed757610100808354040283529160200191610f02565b820191906000526020600020905b815481529060010190602001808311610ee557829003601f168201915b5050505050828281518110610f1957610f19611379565b60200260200101819052508080610f2f906114fb565b915050610e39565b610f3f610fb0565b6001600160a01b038116610fa45760405162461bcd60e51b815260206004820152602660248201527f4f776e61626c653a206e6577206f776e657220697320746865207a65726f206160448201526564647265737360d01b6064820152608401610501565b610fad8161100a565b50565b6000546001600160a01b0316331461081c5760405162461bcd60e51b815260206004820181905260248201527f4f776e61626c653a2063616c6c6572206973206e6f7420746865206f776e65726044820152606401610501565b600080546001600160a01b038381166001600160a01b0319831681178455604051919092169283917f8be0079c531659141344cd1fd0a4f28419497f9722a3daafe3b4186f6b6457e09190a35050565b60006020828403121561106c57600080fd5b81356001600160a01b038116811461108357600080fd5b9392505050565b6000815180845260005b818110156110b057602081850181015186830182015201611094565b506000602082860101526020601f19601f83011685010191505092915050565b602081526000611083602083018461108a565b6000602082840312156110f557600080fd5b5035919050565b60008083601f84011261110e57600080fd5b50813567ffffffffffffffff81111561112657600080fd5b6020830191508360208260051b850101111561114157600080fd5b9250929050565b6000806000806040858703121561115e57600080fd5b843567ffffffffffffffff8082111561117657600080fd5b611182888389016110fc565b9096509450602087013591508082111561119b57600080fd5b506111a8878288016110fc565b95989497509550505050565b600082825180855260208086019550808260051b84010181860160005b848110156111ff57601f198684030189526111ed83835161108a565b988401989250908301906001016111d1565b5090979650505050505050565b82815260406020820152600061122560408301846111b4565b949350505050565b6020808252825182820181905260009190848201906040850190845b8181101561126e5783516001600160a01b031683529284019291840191600101611249565b50909695505050505050565b6000806020838503121561128d57600080fd5b823567ffffffffffffffff808211156112a557600080fd5b818501915085601f8301126112b957600080fd5b8135818111156112c857600080fd5b8660208285010111156112da57600080fd5b60209290920196919550909350505050565b60208152600061108360208301846111b4565b600181811c9082168061131357607f821691505b602082108103610c4f57634e487b7160e01b600052602260045260246000fd5b634e487b7160e01b600052601160045260246000fd5b8181038181111561135c5761135c611333565b92915050565b808202811582820484141761135c5761135c611333565b634e487b7160e01b600052603260045260246000fd5b6000808335601e198436030181126113a657600080fd5b83018035915067ffffffffffffffff8211156113c157600080fd5b60200191503681900382131561114157600080fd5b634e487b7160e01b600052604160045260246000fd5b601f821115610adc57600081815260208120601f850160051c810160208610156114135750805b601f850160051c820191505b818110156114325782815560010161141f565b505050505050565b67ffffffffffffffff831115611452576114526113d6565b6114668361146083546112ff565b836113ec565b6000601f84116001811461149a57600085156114825750838201355b600019600387901b1c1916600186901b1783556114f4565b600083815260209020601f19861690835b828110156114cb57868501358255602094850194600190920191016114ab565b50868210156114e85760001960f88860031b161c19848701351681555b505060018560011b0183555b5050505050565b60006001820161150d5761150d611333565b506001019056fea2646970667358221220fa05377607ecc6548d8101a54019d147738c74cac6c9434b650cbf8f1260a61f64736f6c63430008120033a26469706673582212203520df0ddb80dbd17744119eeb4c0febe544be5913f8db176d68d6b4b2faa00564736f6c63430008120033","linkReferences":{"src/libraries/BLS.sol":{"BLS":[{"start":6138,"length":20},{"start":6264,"length":20},{"start":6427,"length":20},{"start":6553,"length":20}]},"src/libraries/GroupLib.sol":{"GroupLib":[{"start":1376,"length":20},{"start":2093,"length":20},{"start":2746,"length":20},{"start":2961,"length":20},{"start":3173,"length":20},{"start":3639,"length":20},{"start":5916,"length":20},{"start":6740,"length":20},{"start":6924,"length":20},{"start":7442,"length":20},{"start":7832,"length":20},{"start":8249,"length":20},{"start":8576,"length":20}]}}},"methodIdentifiers":{"addReward(address[],uint256,uint256)":"914eb34d","commitDkg((uint256,uint256,bytes,bytes,address[]))":"e37eb96c","getBelongingGroup(address)":"3b6c00b0","getControllerConfig()":"d11b8e68","getCoordinator(uint256)":"42424d6f","getGroup(uint256)":"ceb60654","getGroupCount()":"06545a93","getGroupEpoch()":"7ee49cfd","getGroupThreshold(uint256)":"f49e0ba9","getLastOutput()":"51a2b9a0","getMember(uint256,uint256)":"4d79a893","getValidGroupIndices()":"b330a0fd","initialize(uint256)":"fe4b84df","isPartialKeyRegistered(uint256,address)":"c2db900b","nodeJoin(address)":"ed157c3f","nodeLeave(address)":"35fe4a3f","nodeWithdrawETH(address,uint256)":"0ad98f6a","owner()":"8da5cb5b","postProcessDkg(uint256,uint256)":"0bf9c5c6","renounceOwnership()":"715018a6","setControllerConfig(address,address,uint256,uint256,uint256,uint256,uint256,uint256)":"f1d49f6b","setLastOutput(uint256)":"f3df0802","transferOwnership(address)":"f2fde38b"},"id":94}