{"abi":[{"type":"constructor","inputs":[],"stateMutability":"nonpayable"},{"type":"function","name":"initialize","inputs":[{"name":"controller","type":"address","internalType":"address"}],"outputs":[],"stateMutability":"nonpayable"},{"type":"function","name":"owner","inputs":[],"outputs":[{"name":"","type":"address","internalType":"address"}],"stateMutability":"view"},{"type":"function","name":"proxiableUUID","inputs":[],"outputs":[{"name":"","type":"bytes32","internalType":"bytes32"}],"stateMutability":"view"},{"type":"function","name":"relayGroup","inputs":[{"name":"chainId","type":"uint256","internalType":"uint256"},{"name":"groupIndex","type":"uint256","internalType":"uint256"}],"outputs":[],"stateMutability":"nonpayable"},{"type":"function","name":"renounceOwnership","inputs":[],"outputs":[],"stateMutability":"nonpayable"},{"type":"function","name":"resetChainRelayRecord","inputs":[{"name":"chainId","type":"uint256","internalType":"uint256"},{"name":"groupIndex","type":"uint256","internalType":"uint256"},{"name":"groupEpoch","type":"uint256","internalType":"uint256"}],"outputs":[],"stateMutability":"nonpayable"},{"type":"function","name":"setChainMessenger","inputs":[{"name":"chainId","type":"uint256","internalType":"uint256"},{"name":"chainMessenger","type":"address","internalType":"address"}],"outputs":[],"stateMutability":"nonpayable"},{"type":"function","name":"setController","inputs":[{"name":"controller","type":"address","internalType":"address"}],"outputs":[],"stateMutability":"nonpayable"},{"type":"function","name":"transferOwnership","inputs":[{"name":"newOwner","type":"address","internalType":"address"}],"outputs":[],"stateMutability":"nonpayable"},{"type":"function","name":"upgradeTo","inputs":[{"name":"newImplementation","type":"address","internalType":"address"}],"outputs":[],"stateMutability":"nonpayable"},{"type":"function","name":"upgradeToAndCall","inputs":[{"name":"newImplementation","type":"address","internalType":"address"},{"name":"data","type":"bytes","internalType":"bytes"}],"outputs":[],"stateMutability":"payable"},{"type":"event","name":"AdminChanged","inputs":[{"name":"previousAdmin","type":"address","indexed":false,"internalType":"address"},{"name":"newAdmin","type":"address","indexed":false,"internalType":"address"}],"anonymous":false},{"type":"event","name":"BeaconUpgraded","inputs":[{"name":"beacon","type":"address","indexed":true,"internalType":"address"}],"anonymous":false},{"type":"event","name":"ChainMessengerSet","inputs":[{"name":"chainId","type":"uint256","indexed":true,"internalType":"uint256"},{"name":"chainMessenger","type":"address","indexed":true,"internalType":"address"}],"anonymous":false},{"type":"event","name":"ChainRelayRecordReset","inputs":[{"name":"chainId","type":"uint256","indexed":true,"internalType":"uint256"},{"name":"groupIndex","type":"uint256","indexed":true,"internalType":"uint256"},{"name":"groupEpoch","type":"uint256","indexed":false,"internalType":"uint256"}],"anonymous":false},{"type":"event","name":"GroupRelayed","inputs":[{"name":"epoch","type":"uint256","indexed":false,"internalType":"uint256"},{"name":"groupIndex","type":"uint256","indexed":true,"internalType":"uint256"},{"name":"groupEpoch","type":"uint256","indexed":true,"internalType":"uint256"},{"name":"committer","type":"address","indexed":true,"internalType":"address"}],"anonymous":false},{"type":"event","name":"Initialized","inputs":[{"name":"version","type":"uint8","indexed":false,"internalType":"uint8"}],"anonymous":false},{"type":"event","name":"OwnershipTransferred","inputs":[{"name":"previousOwner","type":"address","indexed":true,"internalType":"address"},{"name":"newOwner","type":"address","indexed":true,"internalType":"address"}],"anonymous":false},{"type":"event","name":"Upgraded","inputs":[{"name":"implementation","type":"address","indexed":true,"internalType":"address"}],"anonymous":false},{"type":"error","name":"AbsentChainMessenger","inputs":[{"name":"chainId","type":"uint256","internalType":"uint256"}]},{"type":"error","name":"GroupEpochTooHigh","inputs":[{"name":"chainId","type":"uint256","internalType":"uint256"},{"name":"groupIndex","type":"uint256","internalType":"uint256"},{"name":"groupEpoch","type":"uint256","internalType":"uint256"}]},{"type":"error","name":"GroupNotFinalized","inputs":[{"name":"groupIndex","type":"uint256","internalType":"uint256"},{"name":"groupEpoch","type":"uint256","internalType":"uint256"}]},{"type":"error","name":"GroupObsolete","inputs":[{"name":"groupIndex","type":"uint256","internalType":"uint256"},{"name":"relayedGroupEpoch","type":"uint256","internalType":"uint256"},{"name":"currentGroupEpoch","type":"uint256","internalType":"uint256"}]}],"bytecode":{"object":"0x60a06040523060805234801561001457600080fd5b5061001d610022565b6100e1565b600054610100900460ff161561008e5760405162461bcd60e51b815260206004820152602760248201527f496e697469616c697a61626c653a20636f6e747261637420697320696e697469604482015266616c697a696e6760c81b606482015260840160405180910390fd5b60005460ff908116146100df576000805460ff191660ff9081179091556040519081527f7f26b83ff96e1f2b6a682f133852f6798a09c465da95921460cefb38474024989060200160405180910390a15b565b608051611954610118600039600081816102150152818161025e015281816102fd0152818161033d01526103d001526119546000f3fe6080604052600436106100ac5760003560e01c80638da5cb5b11610074578063c4d66de81161004e578063c4d66de8146101ab578063ddc393dd146101cb578063f2fde38b146101eb57600080fd5b80638da5cb5b1461014357806392eefe9b1461016b578063bd3544891461018b57600080fd5b80633659cfe6146100b15780634f1ef286146100d357806352d1902d146100e65780635e76b0461461010e578063715018a61461012e575b600080fd5b3480156100bd57600080fd5b506100d16100cc366004610f47565b61020b565b005b6100d16100e136600461101b565b6102f3565b3480156100f257600080fd5b506100fb6103c3565b6040519081526020015b60405180910390f35b34801561011a57600080fd5b506100d16101293660046110c3565b610476565b34801561013a57600080fd5b506100d16104d7565b34801561014f57600080fd5b506097546040516001600160a01b039091168152602001610105565b34801561017757600080fd5b506100d1610186366004610f47565b6104eb565b34801561019757600080fd5b506100d16101a63660046110f3565b610515565b3480156101b757600080fd5b506100d16101c6366004610f47565b6105be565b3480156101d757600080fd5b506100d16101e636600461111f565b6106ea565b3480156101f757600080fd5b506100d1610206366004610f47565b6109e3565b6001600160a01b037f000000000000000000000000000000000000000000000000000000000000000016300361025c5760405162461bcd60e51b815260040161025390611141565b60405180910390fd5b7f00000000000000000000000000000000000000000000000000000000000000006001600160a01b03166102a56000805160206118d8833981519152546001600160a01b031690565b6001600160a01b0316146102cb5760405162461bcd60e51b81526004016102539061118d565b6102d481610a59565b604080516000808252602082019092526102f091839190610a61565b50565b6001600160a01b037f000000000000000000000000000000000000000000000000000000000000000016300361033b5760405162461bcd60e51b815260040161025390611141565b7f00000000000000000000000000000000000000000000000000000000000000006001600160a01b03166103846000805160206118d8833981519152546001600160a01b031690565b6001600160a01b0316146103aa5760405162461bcd60e51b81526004016102539061118d565b6103b382610a59565b6103bf82826001610a61565b5050565b6000306001600160a01b037f000000000000000000000000000000000000000000000000000000000000000016146104635760405162461bcd60e51b815260206004820152603860248201527f555550535570677261646561626c653a206d757374206e6f742062652063616c60448201527f6c6564207468726f7567682064656c656761746563616c6c00000000000000006064820152608401610253565b506000805160206118d883398151915290565b61047e610bd1565b600082815260ca602052604080822080546001600160a01b0319166001600160a01b0385169081179091559051909184917f8864bb0f2c5cb51202fada3d8711f48d7681610dd84b7ce53a89a067c60a578a9190a35050565b6104df610bd1565b6104e96000610c2b565b565b6104f3610bd1565b60cb80546001600160a01b0319166001600160a01b0392909216919091179055565b61051d610bd1565b600083815260c960209081526040808320858452909152902054811115610568576040516339517e6360e01b8152600481018490526024810183905260448101829052606401610253565b600083815260c9602090815260408083208584528252918290208390559051828152839185917f3cf58c1d20efeee8923149f221a0c401f9ef30f0caddd35be06d6fc0365f276f910160405180910390a3505050565b600054610100900460ff16158080156105de5750600054600160ff909116105b806105f85750303b1580156105f8575060005460ff166001145b61065b5760405162461bcd60e51b815260206004820152602e60248201527f496e697469616c697a61626c653a20636f6e747261637420697320616c72656160448201526d191e481a5b9a5d1a585b1a5e995960921b6064820152608401610253565b6000805460ff19166001179055801561067e576000805461ff0019166101001790555b60cb80546001600160a01b0319166001600160a01b0384161790556106a1610c7d565b80156103bf576000805461ff0019169055604051600181527f7f26b83ff96e1f2b6a682f133852f6798a09c465da95921460cefb38474024989060200160405180910390a15050565b600082815260ca60205260409020546001600160a01b03166107215760405162b47f2f60e51b815260048101839052602401610253565b60cb546040516333ad819560e21b8152600481018390526000916001600160a01b03169063ceb6065490602401600060405180830381865afa15801561076b573d6000803e3d6000fd5b505050506040513d6000823e601f3d908101601f1916820160405261079391908101906114bf565b60cb546040516342424d6f60e01b8152600481018590529192506000916001600160a01b03909116906342424d6f90602401602060405180830381865afa1580156107e2573d6000803e3d6000fd5b505050506040513d601f19601f8201168201806040525081019061080691906115c5565b6001600160a01b03161461083d5760208101516040516341ac277b60e01b8152610253918491600401918252602082015260400190565b602080820151600085815260c9835260408082208683529093529190912054106108aa57602081810151600085815260c98352604080822086835290935282902054915163699745e360e01b81526004810185905260248101919091526044810191909152606401610253565b602080820151600085815260c98352604080822086835284528082209290925585815260ca909252908190205490516336404eaf60e11b81526001600160a01b0390911690636c809d5e906109059033908590600401611738565b600060405180830381600087803b15801561091f57600080fd5b505af1158015610933573d6000803e3d6000fd5b50505060208083015160cb5460408051637ee49cfd60e01b81529051339550929387937ff8767d2ca0028e8ef4268cfb13b6e4f8c257b781b0dc13704a0204b2ad33acf1936001600160a01b031692637ee49cfd9260048083019391928290030181865afa1580156109a9573d6000803e3d6000fd5b505050506040513d601f19601f820116820180604052508101906109cd9190611800565b60405190815260200160405180910390a4505050565b6109eb610bd1565b6001600160a01b038116610a505760405162461bcd60e51b815260206004820152602660248201527f4f776e61626c653a206e6577206f776e657220697320746865207a65726f206160448201526564647265737360d01b6064820152608401610253565b6102f081610c2b565b6102f0610bd1565b7f4910fdfa16fed3260ed0e7147f7cc6da11a60208b5b9406d12a635614ffd91435460ff1615610a9957610a9483610cac565b505050565b826001600160a01b03166352d1902d6040518163ffffffff1660e01b8152600401602060405180830381865afa925050508015610af3575060408051601f3d908101601f19168201909252610af091810190611800565b60015b610b565760405162461bcd60e51b815260206004820152602e60248201527f45524331393637557067726164653a206e657720696d706c656d656e7461746960448201526d6f6e206973206e6f74205555505360901b6064820152608401610253565b6000805160206118d88339815191528114610bc55760405162461bcd60e51b815260206004820152602960248201527f45524331393637557067726164653a20756e737570706f727465642070726f786044820152681a58589b195555525160ba1b6064820152608401610253565b50610a94838383610d48565b6097546001600160a01b031633146104e95760405162461bcd60e51b815260206004820181905260248201527f4f776e61626c653a2063616c6c6572206973206e6f7420746865206f776e65726044820152606401610253565b609780546001600160a01b038381166001600160a01b0319831681179093556040519116919082907f8be0079c531659141344cd1fd0a4f28419497f9722a3daafe3b4186f6b6457e090600090a35050565b600054610100900460ff16610ca45760405162461bcd60e51b815260040161025390611819565b6104e9610d73565b6001600160a01b0381163b610d195760405162461bcd60e51b815260206004820152602d60248201527f455243313936373a206e657720696d706c656d656e746174696f6e206973206e60448201526c1bdd08184818dbdb9d1c9858dd609a1b6064820152608401610253565b6000805160206118d883398151915280546001600160a01b0319166001600160a01b0392909216919091179055565b610d5183610da3565b600082511180610d5e5750805b15610a9457610d6d8383610de3565b50505050565b600054610100900460ff16610d9a5760405162461bcd60e51b815260040161025390611819565b6104e933610c2b565b610dac81610cac565b6040516001600160a01b038216907fbc7cd75a20ee27fd9adebab32041f755214dbc6bffa90cc0225b39da2e5c2d3b90600090a250565b6060610e0883836040518060600160405280602781526020016118f860279139610e0f565b9392505050565b6060600080856001600160a01b031685604051610e2c9190611888565b600060405180830381855af49150503d8060008114610e67576040519150601f19603f3d011682016040523d82523d6000602084013e610e6c565b606091505b5091509150610e7d86838387610e87565b9695505050505050565b60608315610ef6578251600003610eef576001600160a01b0385163b610eef5760405162461bcd60e51b815260206004820152601d60248201527f416464726573733a2063616c6c20746f206e6f6e2d636f6e74726163740000006044820152606401610253565b5081610f00565b610f008383610f08565b949350505050565b815115610f185781518083602001fd5b8060405162461bcd60e51b815260040161025391906118a4565b6001600160a01b03811681146102f057600080fd5b600060208284031215610f5957600080fd5b8135610e0881610f32565b634e487b7160e01b600052604160045260246000fd5b6040805190810167ffffffffffffffff81118282101715610f9d57610f9d610f64565b60405290565b6040516060810167ffffffffffffffff81118282101715610f9d57610f9d610f64565b604051610120810167ffffffffffffffff81118282101715610f9d57610f9d610f64565b604051601f8201601f1916810167ffffffffffffffff8111828210171561101357611013610f64565b604052919050565b6000806040838503121561102e57600080fd5b823561103981610f32565b915060208381013567ffffffffffffffff8082111561105757600080fd5b818601915086601f83011261106b57600080fd5b81358181111561107d5761107d610f64565b61108f601f8201601f19168501610fea565b915080825287848285010111156110a557600080fd5b80848401858401376000848284010152508093505050509250929050565b600080604083850312156110d657600080fd5b8235915060208301356110e881610f32565b809150509250929050565b60008060006060848603121561110857600080fd5b505081359360208301359350604090920135919050565b6000806040838503121561113257600080fd5b50508035926020909101359150565b6020808252602c908201527f46756e6374696f6e206d7573742062652063616c6c6564207468726f7567682060408201526b19195b1959d85d1958d85b1b60a21b606082015260800190565b6020808252602c908201527f46756e6374696f6e206d7573742062652063616c6c6564207468726f7567682060408201526b6163746976652070726f787960a01b606082015260800190565b600067ffffffffffffffff8211156111f3576111f3610f64565b5060051b60200190565b600082601f83011261120e57600080fd5b6040516080810181811067ffffffffffffffff8211171561123157611231610f64565b60405280608084018581111561124657600080fd5b845b81811015611260578051835260209283019201611248565b509195945050505050565b600082601f83011261127c57600080fd5b8151602061129161128c836111d9565b610fea565b82815260a092830285018201928282019190878511156112b057600080fd5b8387015b858110156112fe5781818a0312156112cc5760008081fd5b6112d4610f7a565b81516112df81610f32565b81526112ed8a8388016111fd565b8187015284529284019281016112b4565b5090979650505050505050565b600082601f83011261131c57600080fd5b8151602061132c61128c836111d9565b82815260059290921b8401810191818101908684111561134b57600080fd5b8286015b8481101561136f57805161136281610f32565b835291830191830161134f565b509695505050505050565b600082601f83011261138b57600080fd5b8151602061139b61128c836111d9565b82815260059290921b840181019181810190868411156113ba57600080fd5b8286015b8481101561136f57805167ffffffffffffffff808211156113de57600080fd5b908801906040601f19838c0381018213156113f857600080fd5b611400610f7a565b888501518481111561141157600080fd5b61141f8e8b8389010161130b565b825250828501518481111561143357600080fd5b949094019360c0858e038301121561144b5760008081fd5b611453610fa3565b91508885015182526114678d8487016111fd565b8983015260c08501518481111561147e5760008081fd5b61148c8e8b8389010161130b565b938301939093528089019190915286525050509183019183016113be565b805180151581146114ba57600080fd5b919050565b6000602082840312156114d157600080fd5b815167ffffffffffffffff808211156114e957600080fd5b9083019061018082860312156114fe57600080fd5b611506610fc6565b8251815260208301516020820152604083015160408201526060830151606082015260808301518281111561153a57600080fd5b6115468782860161126b565b60808301525060a08301518281111561155e57600080fd5b61156a8782860161130b565b60a08301525060c08301518281111561158257600080fd5b61158e8782860161137a565b60c0830152506115a060e084016114aa565b60e082015261010091506115b6868385016111fd565b91810191909152949350505050565b6000602082840312156115d757600080fd5b8151610e0881610f32565b8060005b6004811015610d6d5781518452602093840193909101906001016115e6565b600081518084526020808501945080840160005b8381101561165357815180516001600160a01b0316885283015161163f848901826115e2565b5060a0969096019590820190600101611619565b509495945050505050565b600081518084526020808501945080840160005b838110156116535781516001600160a01b031687529582019590820190600101611672565b600081518084526020808501808196508360051b8101915082860160005b8581101561172b5782840389528151604081518187526116d78288018261165e565b90508783015192508681038888015260c083518252888401516116fc8a8401826115e2565b508284015193508060a08301526117158183018561165e565b9c89019c975050509286019250506001016116b5565b5091979650505050505050565b6001600160a01b038316815260406020820152815160408201526020820151606082015260408201516080820152606082015160a08201526000608083015161018060c084015261178d6101c0840182611605565b905060a0840151603f19808584030160e08601526117ab838361165e565b925060c086015191506101008186850301818701526117ca8484611697565b935060e087015192506117e261012087018415159052565b86015191506117f790506101408501826115e2565b50949350505050565b60006020828403121561181257600080fd5b5051919050565b6020808252602b908201527f496e697469616c697a61626c653a20636f6e7472616374206973206e6f74206960408201526a6e697469616c697a696e6760a81b606082015260800190565b60005b8381101561187f578181015183820152602001611867565b50506000910152565b6000825161189a818460208701611864565b9190910192915050565b60208152600082518060208401526118c3816040850160208701611864565b601f01601f1916919091016040019291505056fe360894a13ba1a3210667c828492db98dca3e2076cc3735a920a3ca505d382bbc416464726573733a206c6f772d6c6576656c2064656c65676174652063616c6c206661696c6564a2646970667358221220bcdf149d298b9f629d6ac18703cde131ffa12ddbb3c2bd888e350350f232967664736f6c63430008120033","linkReferences":{}},"methodIdentifiers":{"initialize(address)":"c4d66de8","owner()":"8da5cb5b","proxiableUUID()":"52d1902d","relayGroup(uint256,uint256)":"ddc393dd","renounceOwnership()":"715018a6","resetChainRelayRecord(uint256,uint256,uint256)":"bd354489","setChainMessenger(uint256,address)":"5e76b046","setController(address)":"92eefe9b","transferOwnership(address)":"f2fde38b","upgradeTo(address)":"3659cfe6","upgradeToAndCall(address,bytes)":"4f1ef286"},"id":67}