{
  "abi": [
    {
      "inputs": [
        {
          "internalType": "address",
          "name": "controller",
          "type": "address"
        }
      ],
      "stateMutability": "nonpayable",
      "type": "constructor"
    },
    {
      "inputs": [
        {
          "internalType": "uint256",
          "name": "chainId",
          "type": "uint256"
        }
      ],
      "name": "AbsentChainMessenger",
      "type": "error"
    },
    {
      "inputs": [
        {
          "internalType": "uint256",
          "name": "groupIndex",
          "type": "uint256"
        },
        {
          "internalType": "uint256",
          "name": "groupEpoch",
          "type": "uint256"
        }
      ],
      "name": "GroupNotFinalized",
      "type": "error"
    },
    {
      "inputs": [
        {
          "internalType": "uint256",
          "name": "groupIndex",
          "type": "uint256"
        },
        {
          "internalType": "uint256",
          "name": "relayedGroupEpoch",
          "type": "uint256"
        },
        {
          "internalType": "uint256",
          "name": "currentGroupEpoch",
          "type": "uint256"
        }
      ],
      "name": "GroupObsolete",
      "type": "error"
    },
    {
      "anonymous": false,
      "inputs": [
        {
          "indexed": false,
          "internalType": "uint256",
          "name": "epoch",
          "type": "uint256"
        },
        {
          "indexed": false,
          "internalType": "uint256",
          "name": "groupIndex",
          "type": "uint256"
        },
        {
          "indexed": false,
          "internalType": "uint256",
          "name": "groupEpoch",
          "type": "uint256"
        },
        {
          "indexed": false,
          "internalType": "address",
          "name": "committer",
          "type": "address"
        }
      ],
      "name": "GroupRelayed",
      "type": "event"
    },
    {
      "anonymous": false,
      "inputs": [
        {
          "indexed": true,
          "internalType": "address",
          "name": "previousOwner",
          "type": "address"
        },
        {
          "indexed": true,
          "internalType": "address",
          "name": "newOwner",
          "type": "address"
        }
      ],
      "name": "OwnershipTransferred",
      "type": "event"
    },
    {
      "inputs": [],
      "name": "owner",
      "outputs": [
        {
          "internalType": "address",
          "name": "",
          "type": "address"
        }
      ],
      "stateMutability": "view",
      "type": "function"
    },
    {
      "inputs": [
        {
          "internalType": "uint256",
          "name": "chainId",
          "type": "uint256"
        },
        {
          "internalType": "uint256",
          "name": "groupIndex",
          "type": "uint256"
        }
      ],
      "name": "relayGroup",
      "outputs": [],
      "stateMutability": "nonpayable",
      "type": "function"
    },
    {
      "inputs": [],
      "name": "renounceOwnership",
      "outputs": [],
      "stateMutability": "nonpayable",
      "type": "function"
    },
    {
      "inputs": [
        {
          "internalType": "uint256",
          "name": "chainId",
          "type": "uint256"
        },
        {
          "internalType": "address",
          "name": "chainMessenger",
          "type": "address"
        }
      ],
      "name": "setChainMessenger",
      "outputs": [],
      "stateMutability": "nonpayable",
      "type": "function"
    },
    {
      "inputs": [
        {
          "internalType": "address",
          "name": "controller",
          "type": "address"
        }
      ],
      "name": "setController",
      "outputs": [],
      "stateMutability": "nonpayable",
      "type": "function"
    },
    {
      "inputs": [
        {
          "internalType": "address",
          "name": "newOwner",
          "type": "address"
        }
      ],
      "name": "transferOwnership",
      "outputs": [],
      "stateMutability": "nonpayable",
      "type": "function"
    }
  ],
  "bytecode": {
    "object": "0x608060405234801561001057600080fd5b50604051610e44380380610e4483398101604081905261002f916100ad565b6100383361005d565b600380546001600160a01b0319166001600160a01b03929092169190911790556100dd565b600080546001600160a01b038381166001600160a01b0319831681178455604051919092169283917f8be0079c531659141344cd1fd0a4f28419497f9722a3daafe3b4186f6b6457e09190a35050565b6000602082840312156100bf57600080fd5b81516001600160a01b03811681146100d657600080fd5b9392505050565b610d58806100ec6000396000f3fe608060405234801561001057600080fd5b50600436106100725760003560e01c806392eefe9b1161005057806392eefe9b146100b3578063ddc393dd146100c6578063f2fde38b146100d957600080fd5b80635e76b04614610077578063715018a61461008c5780638da5cb5b14610094575b600080fd5b61008a6100853660046105af565b6100ec565b005b61008a610122565b600054604080516001600160a01b039092168252519081900360200190f35b61008a6100c13660046105df565b610136565b61008a6100d4366004610603565b610160565b61008a6100e73660046105df565b610477565b6100f46104f0565b60009182526002602052604090912080546001600160a01b0319166001600160a01b03909216919091179055565b61012a6104f0565b610134600061054a565b565b61013e6104f0565b600380546001600160a01b0319166001600160a01b0392909216919091179055565b6000828152600260205260409020546001600160a01b031661019c5760405162b47f2f60e51b8152600481018390526024015b60405180910390fd5b6003546040516333ad819560e21b8152600481018390526000916001600160a01b03169063ceb6065490602401600060405180830381865afa1580156101e6573d6000803e3d6000fd5b505050506040513d6000823e601f3d908101601f1916820160405261020e91908101906109c2565b6003546040516342424d6f60e01b8152600481018590529192506000916001600160a01b03909116906342424d6f90602401602060405180830381865afa15801561025d573d6000803e3d6000fd5b505050506040513d601f19601f820116820180604052508101906102819190610ac8565b6001600160a01b0316146102b85760208101516040516341ac277b60e01b8152610193918491600401918252602082015260400190565b602080820151600085815260018352604080822086835290935291909120541061032557602081810151600085815260018352604080822086835290935282902054915163699745e360e01b81526004810185905260248101919091526044810191909152606401610193565b60208082015160008581526001835260408082208683528452808220929092558581526002909252908190205490516336404eaf60e11b81526001600160a01b0390911690636c809d5e906103809033908590600401610c41565b600060405180830381600087803b15801561039a57600080fd5b505af11580156103ae573d6000803e3d6000fd5b505050507ff8767d2ca0028e8ef4268cfb13b6e4f8c257b781b0dc13704a0204b2ad33acf1600360009054906101000a90046001600160a01b03166001600160a01b0316637ee49cfd6040518163ffffffff1660e01b8152600401602060405180830381865afa158015610426573d6000803e3d6000fd5b505050506040513d601f19601f8201168201806040525081019061044a9190610d09565b602083810151604080519384529183018690529082015233606082015260800160405180910390a1505050565b61047f6104f0565b6001600160a01b0381166104e45760405162461bcd60e51b815260206004820152602660248201527f4f776e61626c653a206e6577206f776e657220697320746865207a65726f206160448201526564647265737360d01b6064820152608401610193565b6104ed8161054a565b50565b6000546001600160a01b031633146101345760405162461bcd60e51b815260206004820181905260248201527f4f776e61626c653a2063616c6c6572206973206e6f7420746865206f776e65726044820152606401610193565b600080546001600160a01b038381166001600160a01b0319831681178455604051919092169283917f8be0079c531659141344cd1fd0a4f28419497f9722a3daafe3b4186f6b6457e09190a35050565b6001600160a01b03811681146104ed57600080fd5b600080604083850312156105c257600080fd5b8235915060208301356105d48161059a565b809150509250929050565b6000602082840312156105f157600080fd5b81356105fc8161059a565b9392505050565b6000806040838503121561061657600080fd5b50508035926020909101359150565b634e487b7160e01b600052604160045260246000fd5b6040805190810167ffffffffffffffff8111828210171561065e5761065e610625565b60405290565b6040516060810167ffffffffffffffff8111828210171561065e5761065e610625565b604051610120810167ffffffffffffffff8111828210171561065e5761065e610625565b604051601f8201601f1916810167ffffffffffffffff811182821017156106d4576106d4610625565b604052919050565b600067ffffffffffffffff8211156106f6576106f6610625565b5060051b60200190565b600082601f83011261071157600080fd5b6040516080810181811067ffffffffffffffff8211171561073457610734610625565b60405280608084018581111561074957600080fd5b845b8181101561076357805183526020928301920161074b565b509195945050505050565b600082601f83011261077f57600080fd5b8151602061079461078f836106dc565b6106ab565b82815260a092830285018201928282019190878511156107b357600080fd5b8387015b858110156108015781818a0312156107cf5760008081fd5b6107d761063b565b81516107e28161059a565b81526107f08a838801610700565b8187015284529284019281016107b7565b5090979650505050505050565b600082601f83011261081f57600080fd5b8151602061082f61078f836106dc565b82815260059290921b8401810191818101908684111561084e57600080fd5b8286015b848110156108725780516108658161059a565b8352918301918301610852565b509695505050505050565b600082601f83011261088e57600080fd5b8151602061089e61078f836106dc565b82815260059290921b840181019181810190868411156108bd57600080fd5b8286015b8481101561087257805167ffffffffffffffff808211156108e157600080fd5b908801906040601f19838c0381018213156108fb57600080fd5b61090361063b565b888501518481111561091457600080fd5b6109228e8b8389010161080e565b825250828501518481111561093657600080fd5b949094019360c0858e038301121561094e5760008081fd5b610956610664565b915088850151825261096a8d848701610700565b8983015260c0850151848111156109815760008081fd5b61098f8e8b8389010161080e565b938301939093528089019190915286525050509183019183016108c1565b805180151581146109bd57600080fd5b919050565b6000602082840312156109d457600080fd5b815167ffffffffffffffff808211156109ec57600080fd5b908301906101808286031215610a0157600080fd5b610a09610687565b82518152602083015160208201526040830151604082015260608301516060820152608083015182811115610a3d57600080fd5b610a498782860161076e565b60808301525060a083015182811115610a6157600080fd5b610a6d8782860161080e565b60a08301525060c083015182811115610a8557600080fd5b610a918782860161087d565b60c083015250610aa360e084016109ad565b60e08201526101009150610ab986838501610700565b91810191909152949350505050565b600060208284031215610ada57600080fd5b81516105fc8161059a565b8060005b6004811015610b08578151845260209384019390910190600101610ae9565b50505050565b600081518084526020808501945080840160005b83811015610b5c57815180516001600160a01b03168852830151610b4884890182610ae5565b5060a0969096019590820190600101610b22565b509495945050505050565b600081518084526020808501945080840160005b83811015610b5c5781516001600160a01b031687529582019590820190600101610b7b565b600081518084526020808501808196508360051b8101915082860160005b85811015610c34578284038952815160408151818752610be082880182610b67565b90508783015192508681038888015260c08351825288840151610c058a840182610ae5565b508284015193508060a0830152610c1e81830185610b67565b9c89019c97505050928601925050600101610bbe565b5091979650505050505050565b6001600160a01b038316815260406020820152815160408201526020820151606082015260408201516080820152606082015160a08201526000608083015161018060c0840152610c966101c0840182610b0e565b905060a0840151603f19808584030160e0860152610cb48383610b67565b925060c08601519150610100818685030181870152610cd38484610ba0565b935060e08701519250610ceb61012087018415159052565b8601519150610d009050610140850182610ae5565b50949350505050565b600060208284031215610d1b57600080fd5b505191905056fea2646970667358221220727e4b49f2c9ffc9a9894f39feb3a594b6087a7b8cee909cefca902588ffb9f264736f6c63430008120033",
    "linkReferences": {}
  },
  "methodIdentifiers": {
    "owner()": "8da5cb5b",
    "relayGroup(uint256,uint256)": "ddc393dd",
    "renounceOwnership()": "715018a6",
    "setChainMessenger(uint256,address)": "5e76b046",
    "setController(address)": "92eefe9b",
    "transferOwnership(address)": "f2fde38b"
  },
  "id": 2
}