{
  "abi": [
    {
      "inputs": [
        {
          "internalType": "address",
          "name": "controller",
          "type": "address"
        }
      ],
      "stateMutability": "nonpayable",
      "type": "constructor"
    },
    {
      "inputs": [
        {
          "internalType": "uint256",
          "name": "chainId",
          "type": "uint256"
        }
      ],
      "name": "AbsentChainMessenger",
      "type": "error"
    },
    {
      "inputs": [
        {
          "internalType": "uint256",
          "name": "groupIndex",
          "type": "uint256"
        },
        {
          "internalType": "uint256",
          "name": "groupEpoch",
          "type": "uint256"
        }
      ],
      "name": "GroupNotFinalized",
      "type": "error"
    },
    {
      "inputs": [
        {
          "internalType": "uint256",
          "name": "groupIndex",
          "type": "uint256"
        },
        {
          "internalType": "uint256",
          "name": "relayedGroupEpoch",
          "type": "uint256"
        },
        {
          "internalType": "uint256",
          "name": "currentGroupEpoch",
          "type": "uint256"
        }
      ],
      "name": "GroupObsolete",
      "type": "error"
    },
    {
      "anonymous": false,
      "inputs": [
        {
          "indexed": false,
          "internalType": "uint256",
          "name": "epoch",
          "type": "uint256"
        },
        {
          "indexed": true,
          "internalType": "uint256",
          "name": "groupIndex",
          "type": "uint256"
        },
        {
          "indexed": true,
          "internalType": "uint256",
          "name": "groupEpoch",
          "type": "uint256"
        },
        {
          "indexed": true,
          "internalType": "address",
          "name": "committer",
          "type": "address"
        }
      ],
      "name": "GroupRelayed",
      "type": "event"
    },
    {
      "anonymous": false,
      "inputs": [
        {
          "indexed": true,
          "internalType": "address",
          "name": "previousOwner",
          "type": "address"
        },
        {
          "indexed": true,
          "internalType": "address",
          "name": "newOwner",
          "type": "address"
        }
      ],
      "name": "OwnershipTransferred",
      "type": "event"
    },
    {
      "inputs": [],
      "name": "owner",
      "outputs": [
        {
          "internalType": "address",
          "name": "",
          "type": "address"
        }
      ],
      "stateMutability": "view",
      "type": "function"
    },
    {
      "inputs": [
        {
          "internalType": "uint256",
          "name": "chainId",
          "type": "uint256"
        },
        {
          "internalType": "uint256",
          "name": "groupIndex",
          "type": "uint256"
        }
      ],
      "name": "relayGroup",
      "outputs": [],
      "stateMutability": "nonpayable",
      "type": "function"
    },
    {
      "inputs": [],
      "name": "renounceOwnership",
      "outputs": [],
      "stateMutability": "nonpayable",
      "type": "function"
    },
    {
      "inputs": [
        {
          "internalType": "uint256",
          "name": "chainId",
          "type": "uint256"
        },
        {
          "internalType": "address",
          "name": "chainMessenger",
          "type": "address"
        }
      ],
      "name": "setChainMessenger",
      "outputs": [],
      "stateMutability": "nonpayable",
      "type": "function"
    },
    {
      "inputs": [
        {
          "internalType": "address",
          "name": "controller",
          "type": "address"
        }
      ],
      "name": "setController",
      "outputs": [],
      "stateMutability": "nonpayable",
      "type": "function"
    },
    {
      "inputs": [
        {
          "internalType": "address",
          "name": "newOwner",
          "type": "address"
        }
      ],
      "name": "transferOwnership",
      "outputs": [],
      "stateMutability": "nonpayable",
      "type": "function"
    }
  ],
  "bytecode": {
    "object": "0x608060405234801561001057600080fd5b50604051610e2b380380610e2b83398101604081905261002f916100ad565b6100383361005d565b600380546001600160a01b0319166001600160a01b03929092169190911790556100dd565b600080546001600160a01b038381166001600160a01b0319831681178455604051919092169283917f8be0079c531659141344cd1fd0a4f28419497f9722a3daafe3b4186f6b6457e09190a35050565b6000602082840312156100bf57600080fd5b81516001600160a01b03811681146100d657600080fd5b9392505050565b610d3f806100ec6000396000f3fe608060405234801561001057600080fd5b50600436106100725760003560e01c806392eefe9b1161005057806392eefe9b146100b3578063ddc393dd146100c6578063f2fde38b146100d957600080fd5b80635e76b04614610077578063715018a61461008c5780638da5cb5b14610094575b600080fd5b61008a610085366004610596565b6100ec565b005b61008a610122565b600054604080516001600160a01b039092168252519081900360200190f35b61008a6100c13660046105c6565b610136565b61008a6100d43660046105ea565b610160565b61008a6100e73660046105c6565b61045e565b6100f46104d7565b60009182526002602052604090912080546001600160a01b0319166001600160a01b03909216919091179055565b61012a6104d7565b6101346000610531565b565b61013e6104d7565b600380546001600160a01b0319166001600160a01b0392909216919091179055565b6000828152600260205260409020546001600160a01b031661019c5760405162b47f2f60e51b8152600481018390526024015b60405180910390fd5b6003546040516333ad819560e21b8152600481018390526000916001600160a01b03169063ceb6065490602401600060405180830381865afa1580156101e6573d6000803e3d6000fd5b505050506040513d6000823e601f3d908101601f1916820160405261020e91908101906109a9565b6003546040516342424d6f60e01b8152600481018590529192506000916001600160a01b03909116906342424d6f90602401602060405180830381865afa15801561025d573d6000803e3d6000fd5b505050506040513d601f19601f820116820180604052508101906102819190610aaf565b6001600160a01b0316146102b85760208101516040516341ac277b60e01b8152610193918491600401918252602082015260400190565b602080820151600085815260018352604080822086835290935291909120541061032557602081810151600085815260018352604080822086835290935282902054915163699745e360e01b81526004810185905260248101919091526044810191909152606401610193565b60208082015160008581526001835260408082208683528452808220929092558581526002909252908190205490516336404eaf60e11b81526001600160a01b0390911690636c809d5e906103809033908590600401610c28565b600060405180830381600087803b15801561039a57600080fd5b505af11580156103ae573d6000803e3d6000fd5b50505060208083015160035460408051637ee49cfd60e01b81529051339550929387937ff8767d2ca0028e8ef4268cfb13b6e4f8c257b781b0dc13704a0204b2ad33acf1936001600160a01b031692637ee49cfd9260048083019391928290030181865afa158015610424573d6000803e3d6000fd5b505050506040513d601f19601f820116820180604052508101906104489190610cf0565b60405190815260200160405180910390a4505050565b6104666104d7565b6001600160a01b0381166104cb5760405162461bcd60e51b815260206004820152602660248201527f4f776e61626c653a206e6577206f776e657220697320746865207a65726f206160448201526564647265737360d01b6064820152608401610193565b6104d481610531565b50565b6000546001600160a01b031633146101345760405162461bcd60e51b815260206004820181905260248201527f4f776e61626c653a2063616c6c6572206973206e6f7420746865206f776e65726044820152606401610193565b600080546001600160a01b038381166001600160a01b0319831681178455604051919092169283917f8be0079c531659141344cd1fd0a4f28419497f9722a3daafe3b4186f6b6457e09190a35050565b6001600160a01b03811681146104d457600080fd5b600080604083850312156105a957600080fd5b8235915060208301356105bb81610581565b809150509250929050565b6000602082840312156105d857600080fd5b81356105e381610581565b9392505050565b600080604083850312156105fd57600080fd5b50508035926020909101359150565b634e487b7160e01b600052604160045260246000fd5b6040805190810167ffffffffffffffff811182821017156106455761064561060c565b60405290565b6040516060810167ffffffffffffffff811182821017156106455761064561060c565b604051610120810167ffffffffffffffff811182821017156106455761064561060c565b604051601f8201601f1916810167ffffffffffffffff811182821017156106bb576106bb61060c565b604052919050565b600067ffffffffffffffff8211156106dd576106dd61060c565b5060051b60200190565b600082601f8301126106f857600080fd5b6040516080810181811067ffffffffffffffff8211171561071b5761071b61060c565b60405280608084018581111561073057600080fd5b845b8181101561074a578051835260209283019201610732565b509195945050505050565b600082601f83011261076657600080fd5b8151602061077b610776836106c3565b610692565b82815260a0928302850182019282820191908785111561079a57600080fd5b8387015b858110156107e85781818a0312156107b65760008081fd5b6107be610622565b81516107c981610581565b81526107d78a8388016106e7565b81870152845292840192810161079e565b5090979650505050505050565b600082601f83011261080657600080fd5b81516020610816610776836106c3565b82815260059290921b8401810191818101908684111561083557600080fd5b8286015b8481101561085957805161084c81610581565b8352918301918301610839565b509695505050505050565b600082601f83011261087557600080fd5b81516020610885610776836106c3565b82815260059290921b840181019181810190868411156108a457600080fd5b8286015b8481101561085957805167ffffffffffffffff808211156108c857600080fd5b908801906040601f19838c0381018213156108e257600080fd5b6108ea610622565b88850151848111156108fb57600080fd5b6109098e8b838901016107f5565b825250828501518481111561091d57600080fd5b949094019360c0858e03830112156109355760008081fd5b61093d61064b565b91508885015182526109518d8487016106e7565b8983015260c0850151848111156109685760008081fd5b6109768e8b838901016107f5565b938301939093528089019190915286525050509183019183016108a8565b805180151581146109a457600080fd5b919050565b6000602082840312156109bb57600080fd5b815167ffffffffffffffff808211156109d357600080fd5b9083019061018082860312156109e857600080fd5b6109f061066e565b82518152602083015160208201526040830151604082015260608301516060820152608083015182811115610a2457600080fd5b610a3087828601610755565b60808301525060a083015182811115610a4857600080fd5b610a54878286016107f5565b60a08301525060c083015182811115610a6c57600080fd5b610a7887828601610864565b60c083015250610a8a60e08401610994565b60e08201526101009150610aa0868385016106e7565b91810191909152949350505050565b600060208284031215610ac157600080fd5b81516105e381610581565b8060005b6004811015610aef578151845260209384019390910190600101610ad0565b50505050565b600081518084526020808501945080840160005b83811015610b4357815180516001600160a01b03168852830151610b2f84890182610acc565b5060a0969096019590820190600101610b09565b509495945050505050565b600081518084526020808501945080840160005b83811015610b435781516001600160a01b031687529582019590820190600101610b62565b600081518084526020808501808196508360051b8101915082860160005b85811015610c1b578284038952815160408151818752610bc782880182610b4e565b90508783015192508681038888015260c08351825288840151610bec8a840182610acc565b508284015193508060a0830152610c0581830185610b4e565b9c89019c97505050928601925050600101610ba5565b5091979650505050505050565b6001600160a01b038316815260406020820152815160408201526020820151606082015260408201516080820152606082015160a08201526000608083015161018060c0840152610c7d6101c0840182610af5565b905060a0840151603f19808584030160e0860152610c9b8383610b4e565b925060c08601519150610100818685030181870152610cba8484610b87565b935060e08701519250610cd261012087018415159052565b8601519150610ce79050610140850182610acc565b50949350505050565b600060208284031215610d0257600080fd5b505191905056fea26469706673582212200f4bd13d256e2929c0fce3228fb3155de891dfcbb99a02ffbe257cafc65d4c5064736f6c63430008120033",
    "linkReferences": {}
  },
  "methodIdentifiers": {
    "owner()": "8da5cb5b",
    "relayGroup(uint256,uint256)": "ddc393dd",
    "renounceOwnership()": "715018a6",
    "setChainMessenger(uint256,address)": "5e76b046",
    "setController(address)": "92eefe9b",
    "transferOwnership(address)": "f2fde38b"
  },
  "id": 75
}