{
  "abi": [
    {
      "inputs": [
        {
          "internalType": "uint256",
          "name": "threshold",
          "type": "uint256"
        },
        {
          "internalType": "uint256",
          "name": "duration",
          "type": "uint256"
        }
      ],
      "stateMutability": "nonpayable",
      "type": "constructor"
    },
    {
      "anonymous": false,
      "inputs": [
        {
          "indexed": true,
          "internalType": "address",
          "name": "previousOwner",
          "type": "address"
        },
        {
          "indexed": true,
          "internalType": "address",
          "name": "newOwner",
          "type": "address"
        }
      ],
      "name": "OwnershipTransferred",
      "type": "event"
    },
    {
      "inputs": [],
      "name": "dkgThreshold",
      "outputs": [
        {
          "internalType": "uint256",
          "name": "",
          "type": "uint256"
        }
      ],
      "stateMutability": "view",
      "type": "function"
    },
    {
      "inputs": [],
      "name": "getDkgKeys",
      "outputs": [
        {
          "internalType": "uint256",
          "name": "",
          "type": "uint256"
        },
        {
          "internalType": "bytes[]",
          "name": "",
          "type": "bytes[]"
        }
      ],
      "stateMutability": "view",
      "type": "function"
    },
    {
      "inputs": [],
      "name": "getJustifications",
      "outputs": [
        {
          "internalType": "bytes[]",
          "name": "",
          "type": "bytes[]"
        }
      ],
      "stateMutability": "view",
      "type": "function"
    },
    {
      "inputs": [],
      "name": "getParticipants",
      "outputs": [
        {
          "internalType": "address[]",
          "name": "",
          "type": "address[]"
        }
      ],
      "stateMutability": "view",
      "type": "function"
    },
    {
      "inputs": [],
      "name": "getResponses",
      "outputs": [
        {
          "internalType": "bytes[]",
          "name": "",
          "type": "bytes[]"
        }
      ],
      "stateMutability": "view",
      "type": "function"
    },
    {
      "inputs": [],
      "name": "getShares",
      "outputs": [
        {
          "internalType": "bytes[]",
          "name": "",
          "type": "bytes[]"
        }
      ],
      "stateMutability": "view",
      "type": "function"
    },
    {
      "inputs": [],
      "name": "inPhase",
      "outputs": [
        {
          "internalType": "int8",
          "name": "",
          "type": "int8"
        }
      ],
      "stateMutability": "view",
      "type": "function"
    },
    {
      "inputs": [
        {
          "internalType": "address[]",
          "name": "nodes",
          "type": "address[]"
        },
        {
          "internalType": "bytes[]",
          "name": "publicKeys",
          "type": "bytes[]"
        }
      ],
      "name": "initialize",
      "outputs": [],
      "stateMutability": "nonpayable",
      "type": "function"
    },
    {
      "inputs": [
        {
          "internalType": "address",
          "name": "",
          "type": "address"
        }
      ],
      "name": "justifications",
      "outputs": [
        {
          "internalType": "bytes",
          "name": "",
          "type": "bytes"
        }
      ],
      "stateMutability": "view",
      "type": "function"
    },
    {
      "inputs": [
        {
          "internalType": "address",
          "name": "",
          "type": "address"
        }
      ],
      "name": "keys",
      "outputs": [
        {
          "internalType": "bytes",
          "name": "",
          "type": "bytes"
        }
      ],
      "stateMutability": "view",
      "type": "function"
    },
    {
      "inputs": [],
      "name": "owner",
      "outputs": [
        {
          "internalType": "address",
          "name": "",
          "type": "address"
        }
      ],
      "stateMutability": "view",
      "type": "function"
    },
    {
      "inputs": [
        {
          "internalType": "uint256",
          "name": "",
          "type": "uint256"
        }
      ],
      "name": "participants",
      "outputs": [
        {
          "internalType": "address",
          "name": "",
          "type": "address"
        }
      ],
      "stateMutability": "view",
      "type": "function"
    },
    {
      "inputs": [],
      "name": "phaseDuration",
      "outputs": [
        {
          "internalType": "uint256",
          "name": "",
          "type": "uint256"
        }
      ],
      "stateMutability": "view",
      "type": "function"
    },
    {
      "inputs": [
        {
          "internalType": "bytes",
          "name": "value",
          "type": "bytes"
        }
      ],
      "name": "publish",
      "outputs": [],
      "stateMutability": "nonpayable",
      "type": "function"
    },
    {
      "inputs": [],
      "name": "renounceOwnership",
      "outputs": [],
      "stateMutability": "nonpayable",
      "type": "function"
    },
    {
      "inputs": [
        {
          "internalType": "address",
          "name": "",
          "type": "address"
        }
      ],
      "name": "responses",
      "outputs": [
        {
          "internalType": "bytes",
          "name": "",
          "type": "bytes"
        }
      ],
      "stateMutability": "view",
      "type": "function"
    },
    {
      "inputs": [],
      "name": "selfDestruct",
      "outputs": [],
      "stateMutability": "nonpayable",
      "type": "function"
    },
    {
      "inputs": [
        {
          "internalType": "address",
          "name": "",
          "type": "address"
        }
      ],
      "name": "shares",
      "outputs": [
        {
          "internalType": "bytes",
          "name": "",
          "type": "bytes"
        }
      ],
      "stateMutability": "view",
      "type": "function"
    },
    {
      "inputs": [],
      "name": "startBlock",
      "outputs": [
        {
          "internalType": "uint256",
          "name": "",
          "type": "uint256"
        }
      ],
      "stateMutability": "view",
      "type": "function"
    },
    {
      "inputs": [
        {
          "internalType": "address",
          "name": "newOwner",
          "type": "address"
        }
      ],
      "name": "transferOwnership",
      "outputs": [],
      "stateMutability": "nonpayable",
      "type": "function"
    }
  ],
  "bytecode": {
    "object": "0x60c0604052600060065534801561001557600080fd5b506040516116663803806116668339810160408190526100349161009b565b61003d3361004b565b60a0919091526080526100bf565b600080546001600160a01b038381166001600160a01b0319831681178455604051919092169283917f8be0079c531659141344cd1fd0a4f28419497f9722a3daafe3b4186f6b6457e09190a35050565b600080604083850312156100ae57600080fd5b505080516020909101519092909150565b60805160a05161154a61011c6000396000818161027f0152610768015260008181610243015281816103aa015281816103dc015281816104150152818161044e0152818161089b0152818161093e01526109e5015261154a6000f3fe608060405234801561001057600080fd5b506004361061012c5760003560e01c80638da5cb5b116100ad578063cc5ef00911610071578063cc5ef009146102a1578063cd5e3837146102a9578063ce7c2ac2146102bc578063d73fe0aa146102cf578063f2fde38b146102d757600080fd5b80638da5cb5b146102255780639cb8a26a14610236578063ac5553ce1461023e578063b0ef817914610265578063c27040241461027a57600080fd5b80634e3874a0116100f45780634e3874a0146101cc5780635aa68ac0146101e2578063670d14b2146101f7578063715018a61461020a5780637fd283461461021257600080fd5b80630ea6564814610131578063221f95111461015a57806335c1d3491461017557806337f8d5ff146101a057806348cd4cb1146101b5575b600080fd5b61014461013f36600461105a565b6102ea565b60405161015191906110d0565b60405180910390f35b610162610384565b60405160009190910b8152602001610151565b6101886101833660046110e3565b61048b565b6040516001600160a01b039091168152602001610151565b6101b36101ae366004611148565b6104b5565b005b6101be60065481565b604051908152602001610151565b6101d461060a565b60405161015192919061120c565b6101ea61078f565b604051610151919061122d565b61014461020536600461105a565b6107f1565b6101b361080a565b6101b361022036600461127a565b61081e565b6000546001600160a01b0316610188565b6101b3610ae1565b6101be7f000000000000000000000000000000000000000000000000000000000000000081565b61026d610af7565b60405161015191906112ec565b6101be7f000000000000000000000000000000000000000000000000000000000000000081565b61026d610c55565b6101446102b736600461105a565b610dad565b6101446102ca36600461105a565b610dc6565b61026d610ddf565b6101b36102e536600461105a565b610f37565b60036020526000908152604090208054610303906112ff565b80601f016020809104026020016040519081016040528092919081815260200182805461032f906112ff565b801561037c5780601f106103515761010080835404028352916020019161037c565b820191906000526020600020905b81548152906001019060200180831161035f57829003601f168201915b505050505081565b60006006546000036103965750600090565b6000600654436103a69190611349565b90507f000000000000000000000000000000000000000000000000000000000000000081116103d757600191505090565b6104027f00000000000000000000000000000000000000000000000000000000000000006002611362565b811161041057600291505090565b61043b7f00000000000000000000000000000000000000000000000000000000000000006003611362565b811161044957600391505090565b6104747f00000000000000000000000000000000000000000000000000000000000000006004611362565b811161048257600491505090565b60001991505090565b6005818154811061049b57600080fd5b6000918252602090912001546001600160a01b0316905081565b6006541561050a5760405162461bcd60e51b815260206004820152601760248201527f444b472068617320616c7265616479207374617274656400000000000000000060448201526064015b60405180910390fd5b610512610fb0565b60005b838110156105ff57600585858381811061053157610531611379565b9050602002016020810190610546919061105a565b81546001810183556000928352602090922090910180546001600160a01b0319166001600160a01b0390921691909117905582828281811061058a5761058a611379565b905060200281019061059c919061138f565b600160008888868181106105b2576105b2611379565b90506020020160208101906105c7919061105a565b6001600160a01b031681526020810191909152604001600020916105ec91908361143a565b50806105f7816114fb565b915050610515565b505043600655505050565b60006060600060058054905067ffffffffffffffff81111561062e5761062e6113d6565b60405190808252806020026020018201604052801561066157816020015b606081526020019060019003908161064c5790505b50905060005b60055481101561076557600160006005838154811061068857610688611379565b60009182526020808320909101546001600160a01b03168352820192909252604001902080546106b7906112ff565b80601f01602080910402602001604051908101604052809291908181526020018280546106e3906112ff565b80156107305780601f1061070557610100808354040283529160200191610730565b820191906000526020600020905b81548152906001019060200180831161071357829003601f168201915b505050505082828151811061074757610747611379565b6020026020010181905250808061075d906114fb565b915050610667565b507f0000000000000000000000000000000000000000000000000000000000000000939092509050565b606060058054806020026020016040519081016040528092919081815260200182805480156107e757602002820191906000526020600020905b81546001600160a01b031681526001909101906020018083116107c9575b5050505050905090565b60016020526000908152604090208054610303906112ff565b610812610fb0565b61081c600061100a565b565b3360009081526001602052604081208054610838906112ff565b9050116108875760405162461bcd60e51b815260206004820152601b60248201527f796f7520617265206e6f7420612067726f7570206d656d6265722100000000006044820152606401610501565b6000600654436108979190611349565b90507f000000000000000000000000000000000000000000000000000000000000000081116109395733600090815260026020526040902080546108da906112ff565b1590506109195760405162461bcd60e51b815260206004820152600d60248201526c1cda185c9948195e1a5cdd1959609a1b6044820152606401610501565b33600090815260026020526040902061093383858361143a565b50505050565b6109647f00000000000000000000000000000000000000000000000000000000000000006002611362565b81116109e0573360009081526003602052604090208054610984906112ff565b1590506109c65760405162461bcd60e51b815260206004820152601060248201526f1c995cdc1bdb9cd948195e1a5cdd195960821b6044820152606401610501565b33600090815260036020526040902061093383858361143a565b610a0b7f00000000000000000000000000000000000000000000000000000000000000006003611362565b8111610a94573360009081526004602052604090208054610a2b906112ff565b159050610a7a5760405162461bcd60e51b815260206004820152601560248201527f6a757374696669636174696f6e206578697374656400000000000000000000006044820152606401610501565b33600090815260046020526040902061093383858361143a565b60405162461bcd60e51b815260206004820152601560248201527f444b47205075626c6973682068617320656e64656400000000000000000000006044820152606401610501565b505050565b610ae9610fb0565b6000546001600160a01b0316ff5b60055460609060009067ffffffffffffffff811115610b1857610b186113d6565b604051908082528060200260200182016040528015610b4b57816020015b6060815260200190600190039081610b365790505b50905060005b600554811015610c4f576004600060058381548110610b7257610b72611379565b60009182526020808320909101546001600160a01b0316835282019290925260400190208054610ba1906112ff565b80601f0160208091040260200160405190810160405280929190818152602001828054610bcd906112ff565b8015610c1a5780601f10610bef57610100808354040283529160200191610c1a565b820191906000526020600020905b815481529060010190602001808311610bfd57829003601f168201915b5050505050828281518110610c3157610c31611379565b60200260200101819052508080610c47906114fb565b915050610b51565b50919050565b60055460609060009067ffffffffffffffff811115610c7657610c766113d6565b604051908082528060200260200182016040528015610ca957816020015b6060815260200190600190039081610c945790505b50905060005b600554811015610c4f576003600060058381548110610cd057610cd0611379565b60009182526020808320909101546001600160a01b0316835282019290925260400190208054610cff906112ff565b80601f0160208091040260200160405190810160405280929190818152602001828054610d2b906112ff565b8015610d785780601f10610d4d57610100808354040283529160200191610d78565b820191906000526020600020905b815481529060010190602001808311610d5b57829003601f168201915b5050505050828281518110610d8f57610d8f611379565b60200260200101819052508080610da5906114fb565b915050610caf565b60046020526000908152604090208054610303906112ff565b60026020526000908152604090208054610303906112ff565b60055460609060009067ffffffffffffffff811115610e0057610e006113d6565b604051908082528060200260200182016040528015610e3357816020015b6060815260200190600190039081610e1e5790505b50905060005b600554811015610c4f576002600060058381548110610e5a57610e5a611379565b60009182526020808320909101546001600160a01b0316835282019290925260400190208054610e89906112ff565b80601f0160208091040260200160405190810160405280929190818152602001828054610eb5906112ff565b8015610f025780601f10610ed757610100808354040283529160200191610f02565b820191906000526020600020905b815481529060010190602001808311610ee557829003601f168201915b5050505050828281518110610f1957610f19611379565b60200260200101819052508080610f2f906114fb565b915050610e39565b610f3f610fb0565b6001600160a01b038116610fa45760405162461bcd60e51b815260206004820152602660248201527f4f776e61626c653a206e6577206f776e657220697320746865207a65726f206160448201526564647265737360d01b6064820152608401610501565b610fad8161100a565b50565b6000546001600160a01b0316331461081c5760405162461bcd60e51b815260206004820181905260248201527f4f776e61626c653a2063616c6c6572206973206e6f7420746865206f776e65726044820152606401610501565b600080546001600160a01b038381166001600160a01b0319831681178455604051919092169283917f8be0079c531659141344cd1fd0a4f28419497f9722a3daafe3b4186f6b6457e09190a35050565b60006020828403121561106c57600080fd5b81356001600160a01b038116811461108357600080fd5b9392505050565b6000815180845260005b818110156110b057602081850181015186830182015201611094565b506000602082860101526020601f19601f83011685010191505092915050565b602081526000611083602083018461108a565b6000602082840312156110f557600080fd5b5035919050565b60008083601f84011261110e57600080fd5b50813567ffffffffffffffff81111561112657600080fd5b6020830191508360208260051b850101111561114157600080fd5b9250929050565b6000806000806040858703121561115e57600080fd5b843567ffffffffffffffff8082111561117657600080fd5b611182888389016110fc565b9096509450602087013591508082111561119b57600080fd5b506111a8878288016110fc565b95989497509550505050565b600082825180855260208086019550808260051b84010181860160005b848110156111ff57601f198684030189526111ed83835161108a565b988401989250908301906001016111d1565b5090979650505050505050565b82815260406020820152600061122560408301846111b4565b949350505050565b6020808252825182820181905260009190848201906040850190845b8181101561126e5783516001600160a01b031683529284019291840191600101611249565b50909695505050505050565b6000806020838503121561128d57600080fd5b823567ffffffffffffffff808211156112a557600080fd5b818501915085601f8301126112b957600080fd5b8135818111156112c857600080fd5b8660208285010111156112da57600080fd5b60209290920196919550909350505050565b60208152600061108360208301846111b4565b600181811c9082168061131357607f821691505b602082108103610c4f57634e487b7160e01b600052602260045260246000fd5b634e487b7160e01b600052601160045260246000fd5b8181038181111561135c5761135c611333565b92915050565b808202811582820484141761135c5761135c611333565b634e487b7160e01b600052603260045260246000fd5b6000808335601e198436030181126113a657600080fd5b83018035915067ffffffffffffffff8211156113c157600080fd5b60200191503681900382131561114157600080fd5b634e487b7160e01b600052604160045260246000fd5b601f821115610adc57600081815260208120601f850160051c810160208610156114135750805b601f850160051c820191505b818110156114325782815560010161141f565b505050505050565b67ffffffffffffffff831115611452576114526113d6565b6114668361146083546112ff565b836113ec565b6000601f84116001811461149a57600085156114825750838201355b600019600387901b1c1916600186901b1783556114f4565b600083815260209020601f19861690835b828110156114cb57868501358255602094850194600190920191016114ab565b50868210156114e85760001960f88860031b161c19848701351681555b505060018560011b0183555b5050505050565b60006001820161150d5761150d611333565b506001019056fea2646970667358221220c2a9f120eb2103820ad3e4aa8186766351660b5d60085b20e490025c0ac4bb2f64736f6c63430008120033",
    "linkReferences": {}
  },
  "methodIdentifiers": {
    "dkgThreshold()": "c2704024",
    "getDkgKeys()": "4e3874a0",
    "getJustifications()": "b0ef8179",
    "getParticipants()": "5aa68ac0",
    "getResponses()": "cc5ef009",
    "getShares()": "d73fe0aa",
    "inPhase()": "221f9511",
    "initialize(address[],bytes[])": "37f8d5ff",
    "justifications(address)": "cd5e3837",
    "keys(address)": "670d14b2",
    "owner()": "8da5cb5b",
    "participants(uint256)": "35c1d349",
    "phaseDuration()": "ac5553ce",
    "publish(bytes)": "7fd28346",
    "renounceOwnership()": "715018a6",
    "responses(address)": "0ea65648",
    "selfDestruct()": "9cb8a26a",
    "shares(address)": "ce7c2ac2",
    "startBlock()": "48cd4cb1",
    "transferOwnership(address)": "f2fde38b"
  },
  "id": 76
}