{"abi":[{"type":"constructor","inputs":[],"stateMutability":"nonpayable"},{"type":"function","name":"DOMAIN_TYPEHASH","inputs":[],"outputs":[{"name":"","type":"bytes32","internalType":"bytes32"}],"stateMutability":"view"},{"type":"function","name":"NATIVE_NODE_REGISTRATION_TYPEHASH","inputs":[],"outputs":[{"name":"","type":"bytes32","internalType":"bytes32"}],"stateMutability":"view"},{"type":"function","name":"addReward","inputs":[{"name":"nodes","type":"address[]","internalType":"address[]"},{"name":"ethAmount","type":"uint256","internalType":"uint256"},{"name":"arpaAmount","type":"uint256","internalType":"uint256"}],"outputs":[],"stateMutability":"nonpayable"},{"type":"function","name":"assetAccountSaltIsSpent","inputs":[{"name":"assetAccountAddress","type":"address","internalType":"address"},{"name":"salt","type":"bytes32","internalType":"bytes32"}],"outputs":[{"name":"","type":"bool","internalType":"bool"}],"stateMutability":"view"},{"type":"function","name":"calculateNativeNodeRegistrationDigestHash","inputs":[{"name":"assetAccountAddress","type":"address","internalType":"address"},{"name":"salt","type":"bytes32","internalType":"bytes32"},{"name":"expiry","type":"uint256","internalType":"uint256"}],"outputs":[{"name":"","type":"bytes32","internalType":"bytes32"}],"stateMutability":"view"},{"type":"function","name":"changeDkgPublicKey","inputs":[{"name":"dkgPublicKey","type":"bytes","internalType":"bytes"}],"outputs":[],"stateMutability":"nonpayable"},{"type":"function","name":"dismissNode","inputs":[{"name":"nodeIdAddress","type":"address","internalType":"address"},{"name":"pendingBlock","type":"uint256","internalType":"uint256"}],"outputs":[],"stateMutability":"nonpayable"},{"type":"function","name":"domainSeparator","inputs":[],"outputs":[{"name":"","type":"bytes32","internalType":"bytes32"}],"stateMutability":"view"},{"type":"function","name":"getAssetAccountAddressByNodeAddress","inputs":[{"name":"nodeAddress","type":"address","internalType":"address"}],"outputs":[{"name":"","type":"address","internalType":"address"}],"stateMutability":"view"},{"type":"function","name":"getDKGPublicKey","inputs":[{"name":"nodeAddress","type":"address","internalType":"address"}],"outputs":[{"name":"","type":"bytes","internalType":"bytes"}],"stateMutability":"view"},{"type":"function","name":"getNode","inputs":[{"name":"nodeAddress","type":"address","internalType":"address"}],"outputs":[{"name":"","type":"tuple","internalType":"struct INodeRegistry.Node","components":[{"name":"idAddress","type":"address","internalType":"address"},{"name":"dkgPublicKey","type":"bytes","internalType":"bytes"},{"name":"isEigenlayerNode","type":"bool","internalType":"bool"},{"name":"state","type":"bool","internalType":"bool"},{"name":"pendingUntilBlock","type":"uint256","internalType":"uint256"}]}],"stateMutability":"view"},{"type":"function","name":"getNodeAddressByAssetAccountAddress","inputs":[{"name":"assetAccountAddress","type":"address","internalType":"address"}],"outputs":[{"name":"","type":"address","internalType":"address"}],"stateMutability":"view"},{"type":"function","name":"getNodeRegistryConfig","inputs":[],"outputs":[{"name":"controllerContractAddress","type":"address","internalType":"address"},{"name":"stakingContractAddress","type":"address","internalType":"address"},{"name":"serviceManagerContractAddress","type":"address","internalType":"address"},{"name":"nativeNodeStakingAmount","type":"uint256","internalType":"uint256"},{"name":"eigenlayerNodeStakingAmount","type":"uint256","internalType":"uint256"},{"name":"pendingBlockAfterQuit","type":"uint256","internalType":"uint256"}],"stateMutability":"view"},{"type":"function","name":"getNodeWithdrawableTokens","inputs":[{"name":"nodeAddress","type":"address","internalType":"address"}],"outputs":[{"name":"","type":"uint256","internalType":"uint256"},{"name":"","type":"uint256","internalType":"uint256"}],"stateMutability":"view"},{"type":"function","name":"initialize","inputs":[{"name":"arpa","type":"address","internalType":"address"}],"outputs":[],"stateMutability":"nonpayable"},{"type":"function","name":"nodeActivate","inputs":[{"name":"assetAccountSignature","type":"tuple","internalType":"struct ISignatureUtils.SignatureWithSaltAndExpiry","components":[{"name":"signature","type":"bytes","internalType":"bytes"},{"name":"salt","type":"bytes32","internalType":"bytes32"},{"name":"expiry","type":"uint256","internalType":"uint256"}]}],"outputs":[],"stateMutability":"nonpayable"},{"type":"function","name":"nodeQuit","inputs":[],"outputs":[],"stateMutability":"nonpayable"},{"type":"function","name":"nodeRegister","inputs":[{"name":"dkgPublicKey","type":"bytes","internalType":"bytes"},{"name":"isEigenlayerNode","type":"bool","internalType":"bool"},{"name":"assetAccountAddress","type":"address","internalType":"address"},{"name":"assetAccountSignature","type":"tuple","internalType":"struct ISignatureUtils.SignatureWithSaltAndExpiry","components":[{"name":"signature","type":"bytes","internalType":"bytes"},{"name":"salt","type":"bytes32","internalType":"bytes32"},{"name":"expiry","type":"uint256","internalType":"uint256"}]}],"outputs":[],"stateMutability":"nonpayable"},{"type":"function","name":"nodeWithdraw","inputs":[{"name":"recipient","type":"address","internalType":"address"}],"outputs":[],"stateMutability":"nonpayable"},{"type":"function","name":"owner","inputs":[],"outputs":[{"name":"","type":"address","internalType":"address"}],"stateMutability":"view"},{"type":"function","name":"proxiableUUID","inputs":[],"outputs":[{"name":"","type":"bytes32","internalType":"bytes32"}],"stateMutability":"view"},{"type":"function","name":"renounceOwnership","inputs":[],"outputs":[],"stateMutability":"nonpayable"},{"type":"function","name":"setAssetAccount","inputs":[{"name":"assetAccountAddresses","type":"address[]","internalType":"address[]"},{"name":"nodeAddresses","type":"address[]","internalType":"address[]"}],"outputs":[],"stateMutability":"nonpayable"},{"type":"function","name":"setNodeRegistryConfig","inputs":[{"name":"controllerContractAddress","type":"address","internalType":"address"},{"name":"stakingContractAddress","type":"address","internalType":"address"},{"name":"serviceManagerContractAddress","type":"address","internalType":"address"},{"name":"nativeNodeStakingAmount","type":"uint256","internalType":"uint256"},{"name":"eigenlayerNodeStakingAmount","type":"uint256","internalType":"uint256"},{"name":"pendingBlockAfterQuit","type":"uint256","internalType":"uint256"}],"outputs":[],"stateMutability":"nonpayable"},{"type":"function","name":"slashNode","inputs":[{"name":"nodeIdAddress","type":"address","internalType":"address"},{"name":"stakingRewardPenalty","type":"uint256","internalType":"uint256"},{"name":"pendingBlock","type":"uint256","internalType":"uint256"}],"outputs":[],"stateMutability":"nonpayable"},{"type":"function","name":"transferOwnership","inputs":[{"name":"newOwner","type":"address","internalType":"address"}],"outputs":[],"stateMutability":"nonpayable"},{"type":"function","name":"upgradeTo","inputs":[{"name":"newImplementation","type":"address","internalType":"address"}],"outputs":[],"stateMutability":"nonpayable"},{"type":"function","name":"upgradeToAndCall","inputs":[{"name":"newImplementation","type":"address","internalType":"address"},{"name":"data","type":"bytes","internalType":"bytes"}],"outputs":[],"stateMutability":"payable"},{"type":"event","name":"AdminChanged","inputs":[{"name":"previousAdmin","type":"address","indexed":false,"internalType":"address"},{"name":"newAdmin","type":"address","indexed":false,"internalType":"address"}],"anonymous":false},{"type":"event","name":"AssetAccountSet","inputs":[{"name":"assetAccountAddress","type":"address","indexed":true,"internalType":"address"},{"name":"nodeAddress","type":"address","indexed":true,"internalType":"address"}],"anonymous":false},{"type":"event","name":"BeaconUpgraded","inputs":[{"name":"beacon","type":"address","indexed":true,"internalType":"address"}],"anonymous":false},{"type":"event","name":"DkgPublicKeyChanged","inputs":[{"name":"nodeAddress","type":"address","indexed":true,"internalType":"address"},{"name":"dkgPublicKey","type":"bytes","indexed":false,"internalType":"bytes"}],"anonymous":false},{"type":"event","name":"Initialized","inputs":[{"name":"version","type":"uint8","indexed":false,"internalType":"uint8"}],"anonymous":false},{"type":"event","name":"NodeActivated","inputs":[{"name":"nodeAddress","type":"address","indexed":true,"internalType":"address"},{"name":"groupIndex","type":"uint256","indexed":false,"internalType":"uint256"}],"anonymous":false},{"type":"event","name":"NodeQuit","inputs":[{"name":"nodeAddress","type":"address","indexed":true,"internalType":"address"}],"anonymous":false},{"type":"event","name":"NodeRegistered","inputs":[{"name":"nodeAddress","type":"address","indexed":true,"internalType":"address"},{"name":"dkgPublicKey","type":"bytes","indexed":false,"internalType":"bytes"},{"name":"groupIndex","type":"uint256","indexed":false,"internalType":"uint256"}],"anonymous":false},{"type":"event","name":"NodeRewarded","inputs":[{"name":"nodeAddress","type":"address","indexed":true,"internalType":"address"},{"name":"ethAmount","type":"uint256","indexed":false,"internalType":"uint256"},{"name":"arpaAmount","type":"uint256","indexed":false,"internalType":"uint256"}],"anonymous":false},{"type":"event","name":"NodeSlashed","inputs":[{"name":"nodeIdAddress","type":"address","indexed":true,"internalType":"address"},{"name":"stakingRewardPenalty","type":"uint256","indexed":false,"internalType":"uint256"},{"name":"pendingBlock","type":"uint256","indexed":false,"internalType":"uint256"}],"anonymous":false},{"type":"event","name":"OwnershipTransferred","inputs":[{"name":"previousOwner","type":"address","indexed":true,"internalType":"address"},{"name":"newOwner","type":"address","indexed":true,"internalType":"address"}],"anonymous":false},{"type":"event","name":"Upgraded","inputs":[{"name":"implementation","type":"address","indexed":true,"internalType":"address"}],"anonymous":false},{"type":"error","name":"EIP1271SignatureExpired","inputs":[]},{"type":"error","name":"EIP1271SignatureNotFromSigner","inputs":[]},{"type":"error","name":"EIP1271SignatureSaltAlreadySpent","inputs":[]},{"type":"error","name":"EIP1271SignatureVerificationFailed","inputs":[]},{"type":"error","name":"InvalidArrayLength","inputs":[]},{"type":"error","name":"InvalidPublicKey","inputs":[]},{"type":"error","name":"InvalidZeroAddress","inputs":[]},{"type":"error","name":"NodeAlreadyActive","inputs":[]},{"type":"error","name":"NodeAlreadyRegistered","inputs":[]},{"type":"error","name":"NodeNotRegistered","inputs":[]},{"type":"error","name":"NodeStillPending","inputs":[{"name":"pendingUntilBlock","type":"uint256","internalType":"uint256"}]},{"type":"error","name":"OperatorUnderStaking","inputs":[]},{"type":"error","name":"SenderNotController","inputs":[]}],"bytecode":{"object":"0x60a0604052306080523480156200001557600080fd5b506200002062000026565b620000e7565b600054610100900460ff1615620000935760405162461bcd60e51b815260206004820152602760248201527f496e697469616c697a61626c653a20636f6e747261637420697320696e697469604482015266616c697a696e6760c81b606482015260840160405180910390fd5b60005460ff90811614620000e5576000805460ff191660ff9081179091556040519081527f7f26b83ff96e1f2b6a682f133852f6798a09c465da95921460cefb38474024989060200160405180910390a15b565b60805161379f6200011f60003960008181610c1a01528181610c6301528181610e2701528181610e670152610efa015261379f6000f3fe6080604052600436106101b75760003560e01c80638da5cb5b116100ec578063c4d66de81161008a578063e275cde611610064578063e275cde614610556578063e40e744b14610576578063f2fde38b146105d6578063f698da25146105f657600080fd5b8063c4d66de8146104cd578063c71e3c78146104ed578063d20cc1521461051d57600080fd5b80639d209048116100c65780639d2090481461042c578063a2cd23e614610459578063add60b4c14610479578063b447f4511461049957600080fd5b80638da5cb5b146103ce5780638ed47008146103ec578063914eb34d1461040c57600080fd5b80634ecea80d116101595780636cc7fb5d116101335780636cc7fb5d14610333578063715018a6146103845780637a2af56e146103995780638d2f3e6b146103ae57600080fd5b80634ecea80d146102eb5780634f1ef2861461030b57806352d1902d1461031e57600080fd5b8063227d0f4611610195578063227d0f461461025657806330d640b21461028b57806333f010a1146102ab5780633659cfe6146102cb57600080fd5b8063081342ba146101bc57806315dac9b2146101de57806320606b7014610214575b600080fd5b3480156101c857600080fd5b506101dc6101d7366004612cd4565b61060b565b005b3480156101ea57600080fd5b506101fe6101f9366004612d5c565b6107e9565b60405161020b9190612dc7565b60405180910390f35b34801561022057600080fd5b506102487f8cad95687ba82c2ce50e74f7b754645e5117c3a5bec8151c0726d5857980a86681565b60405190815260200161020b565b34801561026257600080fd5b50610276610271366004612d5c565b610898565b6040805192835260208301919091520161020b565b34801561029757600080fd5b506101dc6102a6366004612f5a565b610939565b3480156102b757600080fd5b506101dc6102c6366004612fea565b610b87565b3480156102d757600080fd5b506101dc6102e6366004612d5c565b610c10565b3480156102f757600080fd5b506101dc610306366004612d5c565b610cf8565b6101dc610319366004613049565b610e1d565b34801561032a57600080fd5b50610248610eed565b34801561033f57600080fd5b5061036c61034e366004612d5c565b6001600160a01b03908116600090815260d460205260409020541690565b6040516001600160a01b03909116815260200161020b565b34801561039057600080fd5b506101dc610fa0565b3480156103a557600080fd5b506101dc610fb4565b3480156103ba57600080fd5b506101dc6103c9366004613097565b610fc3565b3480156103da57600080fd5b506097546001600160a01b031661036c565b3480156103f857600080fd5b506101dc6104073660046130cc565b611357565b34801561041857600080fd5b506101dc6104273660046130ff565b61153e565b34801561043857600080fd5b5061044c610447366004612d5c565b611696565b60405161020b91906131bc565b34801561046557600080fd5b506102486104743660046130cc565b6117b0565b34801561048557600080fd5b506101dc610494366004613219565b611865565b3480156104a557600080fd5b506102487fcc09e0f5a503fec4c1d9af748841a9210c73d71fc183762f71c57b2c6977f13681565b3480156104d957600080fd5b506101dc6104e8366004612d5c565b611877565b3480156104f957600080fd5b5061050d610508366004613219565b6119a3565b604051901515815260200161020b565b34801561052957600080fd5b5061036c610538366004612d5c565b6001600160a01b03908116600090815260d360205260409020541690565b34801561056257600080fd5b506101dc610571366004613243565b6119d1565b34801561058257600080fd5b5060c95460ca5460cb5460cc5460cd5460ce54604080516001600160a01b039788168152958716602087015295909316948401949094526060830152608082019290925260a081019190915260c00161020b565b3480156105e257600080fd5b506101dc6105f1366004612d5c565b611ba5565b34801561060257600080fd5b50610248611c1b565b610613611cb3565b82811461063357604051634ec4810560e11b815260040160405180910390fd5b60005b838110156107e25782828281811061065057610650613285565b90506020020160208101906106659190612d5c565b60d3600087878581811061067b5761067b613285565b90506020020160208101906106909190612d5c565b6001600160a01b039081168252602082019290925260400160002080546001600160a01b031916929091169190911790558484828181106106d3576106d3613285565b90506020020160208101906106e89190612d5c565b60d460008585858181106106fe576106fe613285565b90506020020160208101906107139190612d5c565b6001600160a01b039081168252602082019290925260400160002080546001600160a01b0319169290911691909117905582828281811061075657610756613285565b905060200201602081019061076b9190612d5c565b6001600160a01b031685858381811061078657610786613285565b905060200201602081019061079b9190612d5c565b6001600160a01b03167f89ca1a6d1ba2dd7a1222041d072dd6d2e7790f80973456811e834bb9cabedbea60405160405180910390a3806107da816132b1565b915050610636565b5050505050565b6001600160a01b038116600090815260d060205260409020600101805460609190610813906132ca565b80601f016020809104026020016040519081016040528092919081815260200182805461083f906132ca565b801561088c5780601f106108615761010080835404028352916020019161088c565b820191906000526020600020905b81548152906001019060200180831161086f57829003601f168201915b50505050509050919050565b6001600160a01b038116600090815260d160205260408120548190156108e2576001600160a01b038316600090815260d160205260409020546108dd90600190613304565b6108e5565b60005b6001600160a01b038416600090815260d260205260409020541561092d576001600160a01b038416600090815260d2602052604090205461092890600190613304565b610930565b60005b91509150915091565b6001600160a01b03828116600090815260d36020526040902054161561097257604051630eb0d31360e11b815260040160405180910390fd5b61097d858585611d0d565b6001600160a01b038216600081815260d3602090815260408083208054336001600160a01b0319918216811790925590845260d4909252909120805490911690911790558215610ac65760cb54604051637b4ffbbd60e01b81526001600160a01b0384811660048301526000921690637b4ffbbd90602401602060405180830381865afa158015610a12573d6000803e3d6000fd5b505050506040513d601f19601f82011682018060405250810190610a369190613317565b60cd54909150811015610a5c5760405163696aeee160e11b815260040160405180910390fd5b60cb5460405163aa2bcdbd60e01b81526001600160a01b039091169063aa2bcdbd90610a8e9086908690600401613330565b600060405180830381600087803b158015610aa857600080fd5b505af1158015610abc573d6000803e3d6000fd5b5050505050610b4a565b336001600160a01b03831614610ae057610ae08282611f84565b60ca5460cc5460405163282d3fdf60e01b81526001600160a01b038581166004830152602482019290925291169063282d3fdf90604401600060405180830381600087803b158015610b3157600080fd5b505af1158015610b45573d6000803e3d6000fd5b505050505b60405133906001600160a01b038416907f89ca1a6d1ba2dd7a1222041d072dd6d2e7790f80973456811e834bb9cabedbea90600090a35050505050565b610b8f611cb3565b6040805160c0810182526001600160a01b039788168082529688166020820181905295909716908701819052606087018490526080870183905260a090960181905260c980546001600160a01b0319908116909617905560ca8054861690941790935560cb805490941690941790925560cc9190915560cd9190915560ce55565b6001600160a01b037f0000000000000000000000000000000000000000000000000000000000000000163003610c615760405162461bcd60e51b8152600401610c589061337c565b60405180910390fd5b7f00000000000000000000000000000000000000000000000000000000000000006001600160a01b0316610caa600080516020613723833981519152546001600160a01b031690565b6001600160a01b031614610cd05760405162461bcd60e51b8152600401610c58906133c8565b610cd98161204b565b60408051600080825260208201909252610cf591839190612053565b50565b6001600160a01b038116610d1f5760405163f6b2911f60e01b815260040160405180910390fd5b33600090815260d1602090815260408083205460d2909252909120546001811115610d7c5733600090815260d260205260409020600190819055610d7c908490610d699084613304565b60cf546001600160a01b031691906121be565b6001821115610e185733600090815260d16020526040902060019081905560c9546001600160a01b031690630ad98f6a908590610db99086613304565b6040516001600160e01b031960e085901b1681526001600160a01b0390921660048301526024820152604401600060405180830381600087803b158015610dff57600080fd5b505af1158015610e13573d6000803e3d6000fd5b505050505b505050565b6001600160a01b037f0000000000000000000000000000000000000000000000000000000000000000163003610e655760405162461bcd60e51b8152600401610c589061337c565b7f00000000000000000000000000000000000000000000000000000000000000006001600160a01b0316610eae600080516020613723833981519152546001600160a01b031690565b6001600160a01b031614610ed45760405162461bcd60e51b8152600401610c58906133c8565b610edd8261204b565b610ee982826001612053565b5050565b6000306001600160a01b037f00000000000000000000000000000000000000000000000000000000000000001614610f8d5760405162461bcd60e51b815260206004820152603860248201527f555550535570677261646561626c653a206d757374206e6f742062652063616c60448201527f6c6564207468726f7567682064656c656761746563616c6c00000000000000006064820152608401610c58565b5060008051602061372383398151915290565b610fa8611cb3565b610fb26000612210565b565b610fb23360c960050154612262565b33600081815260d060205260409020805490916001600160a01b0390911614610ffe576040516229eaad60e31b815260040160405180910390fd5b6002810154610100900460ff1615611029576040516324a228bb60e21b815260040160405180910390fd5b43816003015411156110565780600301546040516363525acb60e11b8152600401610c5891815260200190565b60028101805461ff00191661010017905560c95460405163ed157c3f60e01b81523360048201526000916001600160a01b03169063ed157c3f906024016020604051808303816000875af11580156110b2573d6000803e3d6000fd5b505050506040513d601f19601f820116820180604052508101906110d69190613317565b60405181815290915033907ffc97cd9154b40031874ef09a9436a4b60052e4dcf40f21b1258be265fac4a3979060200160405180910390a233600090815260d4602052604090205460028301546001600160a01b039091169060ff16156112365760cb54604051637b4ffbbd60e01b81526001600160a01b0383811660048301526000921690637b4ffbbd90602401602060405180830381865afa158015611182573d6000803e3d6000fd5b505050506040513d601f19601f820116820180604052508101906111a69190613317565b60cd549091508110156111cc5760405163696aeee160e11b815260040160405180910390fd5b60cb5460405163aa2bcdbd60e01b81526001600160a01b039091169063aa2bcdbd906111fe9085908990600401613330565b600060405180830381600087803b15801561121857600080fd5b505af115801561122c573d6000803e3d6000fd5b5050505050611351565b336001600160a01b03821614611250576112508185611f84565b60ca5460405163929ec53760e01b81526001600160a01b038381166004830152600092169063929ec53790602401602060405180830381865afa15801561129b573d6000803e3d6000fd5b505050506040513d601f19601f820116820180604052508101906112bf9190613317565b60cc549091508110156107e25760ca5460cc546001600160a01b039091169063282d3fdf9084906112f1908590613304565b6040516001600160e01b031960e085901b1681526001600160a01b0390921660048301526024820152604401600060405180830381600087803b15801561133757600080fd5b505af115801561134b573d6000803e3d6000fd5b50505050505b50505050565b60c9546001600160a01b0316331461138257604051630f5caa3360e41b815260040160405180910390fd5b6001600160a01b03808416600090815260d06020908152604080832060d49092529091205460028201549192169060ff16156114825760cb54604051632955713760e01b81526001600160a01b0383811660048301526024820187905290911690632955713790604401600060405180830381600087803b15801561140657600080fd5b505af115801561141a573d6000803e3d6000fd5b505060cb54604051636c67cc6560e11b81526001600160a01b038581166004830152909116925063d8cf98ca9150602401600060405180830381600087803b15801561146557600080fd5b505af1158015611479573d6000803e3d6000fd5b505050506114e9565b60ca54604051638899fdeb60e01b81526001600160a01b0383811660048301526024820187905290911690638899fdeb90604401600060405180830381600087803b1580156114d057600080fd5b505af11580156114e4573d6000803e3d6000fd5b505050505b6114f38584612438565b60408051858152602081018590526001600160a01b038716917fa8d720d0a0a2e7c96bf9eb87433901ebb6331356c8f3283b2568de34478703cc910160405180910390a25050505050565b60c9546001600160a01b0316331461156957604051630f5caa3360e41b815260040160405180910390fd5b60005b8351811015611351578260d1600086848151811061158c5761158c613285565b60200260200101516001600160a01b03166001600160a01b0316815260200190815260200160002060008282546115c39190613414565b925050819055508160d260008684815181106115e1576115e1613285565b60200260200101516001600160a01b03166001600160a01b0316815260200190815260200160002060008282546116189190613414565b9250508190555083818151811061163157611631613285565b60200260200101516001600160a01b03167f8353a804115421789f3ab2eeb3f5215943906ce12100c91d40fc865caf742b6f848460405161167c929190918252602082015260400190565b60405180910390a28061168e816132b1565b91505061156c565b6040805160a08082018352600080835260606020808501829052848601839052908401829052608084018290526001600160a01b03868116835260d082529185902085519384019095528454909116825260018401805493949293918401916116fe906132ca565b80601f016020809104026020016040519081016040528092919081815260200182805461172a906132ca565b80156117775780601f1061174c57610100808354040283529160200191611777565b820191906000526020600020905b81548152906001019060200180831161175a57829003601f168201915b5050509183525050600282015460ff80821615156020840152610100909104161515604082015260039091015460609091015292915050565b604080517fcc09e0f5a503fec4c1d9af748841a9210c73d71fc183762f71c57b2c6977f13660208201526001600160a01b038516918101919091526060810183905260808101829052600090819060a0016040516020818303038152906040528051906020012090506000611823611c1b565b60405161190160f01b602082015260228101919091526042810183905260620160408051808303601f1901815291905280516020909101209695505050505050565b61186d611cb3565b610ee98282612262565b600054610100900460ff16158080156118975750600054600160ff909116105b806118b15750303b1580156118b1575060005460ff166001145b6119145760405162461bcd60e51b815260206004820152602e60248201527f496e697469616c697a61626c653a20636f6e747261637420697320616c72656160448201526d191e481a5b9a5d1a585b1a5e995960921b6064820152608401610c58565b6000805460ff191660011790558015611937576000805461ff0019166101001790555b60cf80546001600160a01b0319166001600160a01b03841617905561195a6124cb565b8015610ee9576000805461ff0019169055604051600181527f7f26b83ff96e1f2b6a682f133852f6798a09c465da95921460cefb38474024989060200160405180910390a15050565b6001600160a01b038216600090815260d56020908152604080832084845290915290205460ff165b92915050565b33600081815260d060205260409020805490916001600160a01b0390911614611a0c576040516229eaad60e31b815260040160405180910390fd5b6002810154610100900460ff1615611a37576040516324a228bb60e21b815260040160405180910390fd5b6040516316f6db8160e01b815260009073__$34d23ddaee48904c6c566425acbfa0fc0e$__906316f6db8190611a739087908790600401613450565b608060405180830381865af4158015611a90573d6000803e3d6000fd5b505050506040513d601f19601f82011682018060405250810190611ab49190613464565b604051636fda2c7960e01b815290915073__$34d23ddaee48904c6c566425acbfa0fc0e$__90636fda2c7990611aee9084906004016134e2565b602060405180830381865af4158015611b0b573d6000803e3d6000fd5b505050506040513d601f19601f82011682018060405250810190611b2f9190613513565b611b4c5760405163145a1fdd60e31b815260040160405180910390fd5b60018201611b5b84868361357e565b50336001600160a01b03167f4a327ac4843af7a9586b5a2a2c312bd17289ae1d70da32855ed539fe39f86a508585604051611b97929190613450565b60405180910390a250505050565b611bad611cb3565b6001600160a01b038116611c125760405162461bcd60e51b815260206004820152602660248201527f4f776e61626c653a206e6577206f776e657220697320746865207a65726f206160448201526564647265737360d01b6064820152608401610c58565b610cf581612210565b604080518082018252600b81526a415250414e6574776f726b60a81b60209182015281517f8cad95687ba82c2ce50e74f7b754645e5117c3a5bec8151c0726d5857980a866818301527fc43fa7e3599574b946896342cc7dd655e49b85dcfc1234920ef144a6e4f1f2e581840152466060820152306080808301919091528351808303909101815260a0909101909252815191012090565b6097546001600160a01b03163314610fb25760405162461bcd60e51b815260206004820181905260248201527f4f776e61626c653a2063616c6c6572206973206e6f7420746865206f776e65726044820152606401610c58565b33600090815260d060205260409020546001600160a01b031615611d4457604051630eb0d31360e11b815260040160405180910390fd5b6040516316f6db8160e01b815260009073__$34d23ddaee48904c6c566425acbfa0fc0e$__906316f6db8190611d809087908790600401613450565b608060405180830381865af4158015611d9d573d6000803e3d6000fd5b505050506040513d601f19601f82011682018060405250810190611dc19190613464565b604051636fda2c7960e01b815290915073__$34d23ddaee48904c6c566425acbfa0fc0e$__90636fda2c7990611dfb9084906004016134e2565b602060405180830381865af4158015611e18573d6000803e3d6000fd5b505050506040513d601f19601f82011682018060405250810190611e3c9190613513565b611e595760405163145a1fdd60e31b815260040160405180910390fd5b33600081815260d06020526040902080546001600160a01b031916909117815560018101611e8885878361357e565b5060028101805461010061ffff199091168515151717905533600081815260d16020908152604080832060019081905560d29092528083209190915560c954905163ed157c3f60e01b8152600481019390935290916001600160a01b039091169063ed157c3f906024016020604051808303816000875af1158015611f11573d6000803e3d6000fd5b505050506040513d601f19601f82011682018060405250810190611f359190613317565b9050336001600160a01b03167fd4ec586f4f9f417f99e20fe821fbaa10a10a4b95f8712a0c57c6d8ed970e98bd878784604051611f749392919061363e565b60405180910390a2505050505050565b4281604001511015611fa95760405163e3c3dba760e01b815260040160405180910390fd5b6001600160a01b038216600090815260d56020908152604080832084830151845290915290205460ff1615611ff15760405163a6dd314f60e01b815260040160405180910390fd5b600061200683836020015184604001516117b0565b9050612017838284600001516124fa565b506001600160a01b03909116600090815260d56020908152604080832093820151835292905220805460ff19166001179055565b610cf5611cb3565b7f4910fdfa16fed3260ed0e7147f7cc6da11a60208b5b9406d12a635614ffd91435460ff161561208657610e18836125de565b826001600160a01b03166352d1902d6040518163ffffffff1660e01b8152600401602060405180830381865afa9250505080156120e0575060408051601f3d908101601f191682019092526120dd91810190613317565b60015b6121435760405162461bcd60e51b815260206004820152602e60248201527f45524331393637557067726164653a206e657720696d706c656d656e7461746960448201526d6f6e206973206e6f74205555505360901b6064820152608401610c58565b60008051602061372383398151915281146121b25760405162461bcd60e51b815260206004820152602960248201527f45524331393637557067726164653a20756e737570706f727465642070726f786044820152681a58589b195555525160ba1b6064820152608401610c58565b50610e1883838361267a565b604080516001600160a01b038416602482015260448082018490528251808303909101815260649091019091526020810180516001600160e01b031663a9059cbb60e01b179052610e1890849061269f565b609780546001600160a01b038381166001600160a01b0319831681179093556040519116919082907f8be0079c531659141344cd1fd0a4f28419497f9722a3daafe3b4186f6b6457e090600090a35050565b6001600160a01b03808316600081815260d06020526040902080549092161461229d576040516229eaad60e31b815260040160405180910390fd5b60c9546040516335fe4a3f60e01b81526001600160a01b038581166004830152909116906335fe4a3f90602401600060405180830381600087803b1580156122e457600080fd5b505af11580156122f8573d6000803e3d6000fd5b505050506123068383612438565b6001600160a01b03808416600090815260d46020526040902054600283015491169060ff16156123945760cb54604051636c67cc6560e11b81526001600160a01b0383811660048301529091169063d8cf98ca90602401600060405180830381600087803b15801561237757600080fd5b505af115801561238b573d6000803e3d6000fd5b505050506123fe565b60ca5460cc54604051637eee288d60e01b81526001600160a01b0384811660048301526024820192909252911690637eee288d90604401600060405180830381600087803b1580156123e557600080fd5b505af11580156123f9573d6000803e3d6000fd5b505050505b6040516001600160a01b038516907f68577adbb6b0647e21353ff032be5797d9fa0879ce7e05fe617e40368441f97d90600090a250505050565b6001600160a01b038216600090815260d06020526040902060028101805461ff00191690556003015443908110156124a0576001600160a01b038316600090815260d0602052604081206003018054849290612495908490613414565b90915550610e189050565b6124aa8282613414565b6001600160a01b038416600090815260d06020526040902060030155505050565b600054610100900460ff166124f25760405162461bcd60e51b8152600401610c5890613662565b610fb2612774565b6001600160a01b0383163b156125a357604051630b135d3f60e11b808252906001600160a01b03851690631626ba7e9061253a90869086906004016136ad565b602060405180830381865afa158015612557573d6000803e3d6000fd5b505050506040513d601f19601f8201168201806040525081019061257b91906136c6565b6001600160e01b03191614610e1857604051632c3534d160e11b815260040160405180910390fd5b826001600160a01b03166125b783836127a4565b6001600160a01b031614610e1857604051630825306160e31b815260040160405180910390fd5b6001600160a01b0381163b61264b5760405162461bcd60e51b815260206004820152602d60248201527f455243313936373a206e657720696d706c656d656e746174696f6e206973206e60448201526c1bdd08184818dbdb9d1c9858dd609a1b6064820152608401610c58565b60008051602061372383398151915280546001600160a01b0319166001600160a01b0392909216919091179055565b612683836127c8565b6000825111806126905750805b15610e18576113518383612808565b60006126f4826040518060400160405280602081526020017f5361666545524332303a206c6f772d6c6576656c2063616c6c206661696c6564815250856001600160a01b03166128349092919063ffffffff16565b90508051600014806127155750808060200190518101906127159190613513565b610e185760405162461bcd60e51b815260206004820152602a60248201527f5361666545524332303a204552433230206f7065726174696f6e20646964206e6044820152691bdd081cdd58d8d9595960b21b6064820152608401610c58565b600054610100900460ff1661279b5760405162461bcd60e51b8152600401610c5890613662565b610fb233612210565b60008060006127b3858561284b565b915091506127c081612890565b509392505050565b6127d1816125de565b6040516001600160a01b038216907fbc7cd75a20ee27fd9adebab32041f755214dbc6bffa90cc0225b39da2e5c2d3b90600090a250565b606061282d8383604051806060016040528060278152602001613743602791396129da565b9392505050565b60606128438484600085612a52565b949350505050565b60008082516041036128815760208301516040840151606085015160001a61287587828585612b2d565b94509450505050612889565b506000905060025b9250929050565b60008160048111156128a4576128a46136f0565b036128ac5750565b60018160048111156128c0576128c06136f0565b0361290d5760405162461bcd60e51b815260206004820152601860248201527f45434453413a20696e76616c6964207369676e617475726500000000000000006044820152606401610c58565b6002816004811115612921576129216136f0565b0361296e5760405162461bcd60e51b815260206004820152601f60248201527f45434453413a20696e76616c6964207369676e6174757265206c656e677468006044820152606401610c58565b6003816004811115612982576129826136f0565b03610cf55760405162461bcd60e51b815260206004820152602260248201527f45434453413a20696e76616c6964207369676e6174757265202773272076616c604482015261756560f01b6064820152608401610c58565b6060600080856001600160a01b0316856040516129f79190613706565b600060405180830381855af49150503d8060008114612a32576040519150601f19603f3d011682016040523d82523d6000602084013e612a37565b606091505b5091509150612a4886838387612bf1565b9695505050505050565b606082471015612ab35760405162461bcd60e51b815260206004820152602660248201527f416464726573733a20696e73756666696369656e742062616c616e636520666f6044820152651c8818d85b1b60d21b6064820152608401610c58565b600080866001600160a01b03168587604051612acf9190613706565b60006040518083038185875af1925050503d8060008114612b0c576040519150601f19603f3d011682016040523d82523d6000602084013e612b11565b606091505b5091509150612b2287838387612bf1565b979650505050505050565b6000807f7fffffffffffffffffffffffffffffff5d576e7357a4501ddfe92f46681b20a0831115612b645750600090506003612be8565b6040805160008082526020820180845289905260ff881692820192909252606081018690526080810185905260019060a0016020604051602081039080840390855afa158015612bb8573d6000803e3d6000fd5b5050604051601f1901519150506001600160a01b038116612be157600060019250925050612be8565b9150600090505b94509492505050565b60608315612c60578251600003612c59576001600160a01b0385163b612c595760405162461bcd60e51b815260206004820152601d60248201527f416464726573733a2063616c6c20746f206e6f6e2d636f6e74726163740000006044820152606401610c58565b5081612843565b6128438383815115612c755781518083602001fd5b8060405162461bcd60e51b8152600401610c589190612dc7565b60008083601f840112612ca157600080fd5b50813567ffffffffffffffff811115612cb957600080fd5b6020830191508360208260051b850101111561288957600080fd5b60008060008060408587031215612cea57600080fd5b843567ffffffffffffffff80821115612d0257600080fd5b612d0e88838901612c8f565b90965094506020870135915080821115612d2757600080fd5b50612d3487828801612c8f565b95989497509550505050565b80356001600160a01b0381168114612d5757600080fd5b919050565b600060208284031215612d6e57600080fd5b61282d82612d40565b60005b83811015612d92578181015183820152602001612d7a565b50506000910152565b60008151808452612db3816020860160208601612d77565b601f01601f19169290920160200192915050565b60208152600061282d6020830184612d9b565b60008083601f840112612dec57600080fd5b50813567ffffffffffffffff811115612e0457600080fd5b60208301915083602082850101111561288957600080fd5b8015158114610cf557600080fd5b634e487b7160e01b600052604160045260246000fd5b604051601f8201601f1916810167ffffffffffffffff81118282101715612e6957612e69612e2a565b604052919050565b600082601f830112612e8257600080fd5b813567ffffffffffffffff811115612e9c57612e9c612e2a565b612eaf601f8201601f1916602001612e40565b818152846020838601011115612ec457600080fd5b816020850160208301376000918101602001919091529392505050565b600060608284031215612ef357600080fd5b6040516060810167ffffffffffffffff8282108183111715612f1757612f17612e2a565b816040528293508435915080821115612f2f57600080fd5b50612f3c85828601612e71565b82525060208301356020820152604083013560408201525092915050565b600080600080600060808688031215612f7257600080fd5b853567ffffffffffffffff80821115612f8a57600080fd5b612f9689838a01612dda565b909750955060208801359150612fab82612e1c565b819450612fba60408901612d40565b93506060880135915080821115612fd057600080fd5b50612fdd88828901612ee1565b9150509295509295909350565b60008060008060008060c0878903121561300357600080fd5b61300c87612d40565b955061301a60208801612d40565b945061302860408801612d40565b9350606087013592506080870135915060a087013590509295509295509295565b6000806040838503121561305c57600080fd5b61306583612d40565b9150602083013567ffffffffffffffff81111561308157600080fd5b61308d85828601612e71565b9150509250929050565b6000602082840312156130a957600080fd5b813567ffffffffffffffff8111156130c057600080fd5b61284384828501612ee1565b6000806000606084860312156130e157600080fd5b6130ea84612d40565b95602085013595506040909401359392505050565b60008060006060848603121561311457600080fd5b833567ffffffffffffffff8082111561312c57600080fd5b818601915086601f83011261314057600080fd5b813560208282111561315457613154612e2a565b8160051b9250613165818401612e40565b828152928401810192818101908a85111561317f57600080fd5b948201945b848610156131a45761319586612d40565b82529482019490820190613184565b9a918901359950506040909701359695505050505050565b602081526001600160a01b0382511660208201526000602083015160a060408401526131eb60c0840182612d9b565b9050604084015115156060840152606084015115156080840152608084015160a08401528091505092915050565b6000806040838503121561322c57600080fd5b61323583612d40565b946020939093013593505050565b6000806020838503121561325657600080fd5b823567ffffffffffffffff81111561326d57600080fd5b61327985828601612dda565b90969095509350505050565b634e487b7160e01b600052603260045260246000fd5b634e487b7160e01b600052601160045260246000fd5b6000600182016132c3576132c361329b565b5060010190565b600181811c908216806132de57607f821691505b6020821081036132fe57634e487b7160e01b600052602260045260246000fd5b50919050565b818103818111156119cb576119cb61329b565b60006020828403121561332957600080fd5b5051919050565b6001600160a01b038316815260406020820152600082516060604084015261335b60a0840182612d9b565b90506020840151606084015260408401516080840152809150509392505050565b6020808252602c908201527f46756e6374696f6e206d7573742062652063616c6c6564207468726f7567682060408201526b19195b1959d85d1958d85b1b60a21b606082015260800190565b6020808252602c908201527f46756e6374696f6e206d7573742062652063616c6c6564207468726f7567682060408201526b6163746976652070726f787960a01b606082015260800190565b808201808211156119cb576119cb61329b565b81835281816020850137506000828201602090810191909152601f909101601f19169091010190565b602081526000612843602083018486613427565b60006080828403121561347657600080fd5b82601f83011261348557600080fd5b6040516080810181811067ffffffffffffffff821117156134a8576134a8612e2a565b6040528060808401858111156134bd57600080fd5b845b818110156134d75780518352602092830192016134bf565b509195945050505050565b60808101818360005b600481101561350a5781518352602092830192909101906001016134eb565b50505092915050565b60006020828403121561352557600080fd5b815161282d81612e1c565b601f821115610e1857600081815260208120601f850160051c810160208610156135575750805b601f850160051c820191505b8181101561357657828155600101613563565b505050505050565b67ffffffffffffffff83111561359657613596612e2a565b6135aa836135a483546132ca565b83613530565b6000601f8411600181146135de57600085156135c65750838201355b600019600387901b1c1916600186901b1783556107e2565b600083815260209020601f19861690835b8281101561360f57868501358255602094850194600190920191016135ef565b508682101561362c5760001960f88860031b161c19848701351681555b505060018560011b0183555050505050565b604081526000613652604083018587613427565b9050826020830152949350505050565b6020808252602b908201527f496e697469616c697a61626c653a20636f6e7472616374206973206e6f74206960408201526a6e697469616c697a696e6760a81b606082015260800190565b8281526040602082015260006128436040830184612d9b565b6000602082840312156136d857600080fd5b81516001600160e01b03198116811461282d57600080fd5b634e487b7160e01b600052602160045260246000fd5b60008251613718818460208701612d77565b919091019291505056fe360894a13ba1a3210667c828492db98dca3e2076cc3735a920a3ca505d382bbc416464726573733a206c6f772d6c6576656c2064656c65676174652063616c6c206661696c6564a2646970667358221220a5ab721db78d60764ef2af5585f74fc3a95f9be571ee801affe840be1f5ea9bd64736f6c63430008120033","linkReferences":{"src/libraries/BLS.sol":{"BLS":[{"start":7016,"length":20},{"start":7141,"length":20},{"start":7797,"length":20},{"start":7922,"length":20}]}}},"methodIdentifiers":{"DOMAIN_TYPEHASH()":"20606b70","NATIVE_NODE_REGISTRATION_TYPEHASH()":"b447f451","addReward(address[],uint256,uint256)":"914eb34d","assetAccountSaltIsSpent(address,bytes32)":"c71e3c78","calculateNativeNodeRegistrationDigestHash(address,bytes32,uint256)":"a2cd23e6","changeDkgPublicKey(bytes)":"e275cde6","dismissNode(address,uint256)":"add60b4c","domainSeparator()":"f698da25","getAssetAccountAddressByNodeAddress(address)":"6cc7fb5d","getDKGPublicKey(address)":"15dac9b2","getNode(address)":"9d209048","getNodeAddressByAssetAccountAddress(address)":"d20cc152","getNodeRegistryConfig()":"e40e744b","getNodeWithdrawableTokens(address)":"227d0f46","initialize(address)":"c4d66de8","nodeActivate((bytes,bytes32,uint256))":"8d2f3e6b","nodeQuit()":"7a2af56e","nodeRegister(bytes,bool,address,(bytes,bytes32,uint256))":"30d640b2","nodeWithdraw(address)":"4ecea80d","owner()":"8da5cb5b","proxiableUUID()":"52d1902d","renounceOwnership()":"715018a6","setAssetAccount(address[],address[])":"081342ba","setNodeRegistryConfig(address,address,address,uint256,uint256,uint256)":"33f010a1","slashNode(address,uint256,uint256)":"8ed47008","transferOwnership(address)":"f2fde38b","upgradeTo(address)":"3659cfe6","upgradeToAndCall(address,bytes)":"4f1ef286"},"id":97}