{"abi":[{"type":"function","name":"addReward","inputs":[{"name":"nodes","type":"address[]","internalType":"address[]"},{"name":"ethAmount","type":"uint256","internalType":"uint256"},{"name":"arpaAmount","type":"uint256","internalType":"uint256"}],"outputs":[],"stateMutability":"nonpayable"},{"type":"function","name":"changeDkgPublicKey","inputs":[{"name":"dkgPublicKey","type":"bytes","internalType":"bytes"}],"outputs":[],"stateMutability":"nonpayable"},{"type":"function","name":"getDKGPublicKey","inputs":[{"name":"nodeAddress","type":"address","internalType":"address"}],"outputs":[{"name":"","type":"bytes","internalType":"bytes"}],"stateMutability":"view"},{"type":"function","name":"getNode","inputs":[{"name":"nodeAddress","type":"address","internalType":"address"}],"outputs":[{"name":"","type":"tuple","internalType":"struct INodeRegistry.Node","components":[{"name":"idAddress","type":"address","internalType":"address"},{"name":"dkgPublicKey","type":"bytes","internalType":"bytes"},{"name":"state","type":"bool","internalType":"bool"},{"name":"pendingUntilBlock","type":"uint256","internalType":"uint256"}]}],"stateMutability":"view"},{"type":"function","name":"getNodeRegistryConfig","inputs":[],"outputs":[{"name":"controllerContractAddress","type":"address","internalType":"address"},{"name":"stakingContractAddress","type":"address","internalType":"address"},{"name":"nodeStakingAmount","type":"uint256","internalType":"uint256"},{"name":"pendingBlockAfterQuit","type":"uint256","internalType":"uint256"}],"stateMutability":"view"},{"type":"function","name":"getNodeWithdrawableTokens","inputs":[{"name":"nodeAddress","type":"address","internalType":"address"}],"outputs":[{"name":"","type":"uint256","internalType":"uint256"},{"name":"","type":"uint256","internalType":"uint256"}],"stateMutability":"view"},{"type":"function","name":"initialize","inputs":[{"name":"arpa","type":"address","internalType":"address"},{"name":"isEigenlayer","type":"bool","internalType":"bool"}],"outputs":[],"stateMutability":"nonpayable"},{"type":"function","name":"isDeployedOnEigenlayer","inputs":[],"outputs":[{"name":"","type":"bool","internalType":"bool"}],"stateMutability":"view"},{"type":"function","name":"nodeActivate","inputs":[],"outputs":[],"stateMutability":"nonpayable"},{"type":"function","name":"nodeQuit","inputs":[],"outputs":[],"stateMutability":"nonpayable"},{"type":"function","name":"nodeRegister","inputs":[{"name":"dkgPublicKey","type":"bytes","internalType":"bytes"},{"name":"operatorSignature","type":"tuple","internalType":"struct ISignatureUtils.SignatureWithSaltAndExpiry","components":[{"name":"signature","type":"bytes","internalType":"bytes"},{"name":"salt","type":"bytes32","internalType":"bytes32"},{"name":"expiry","type":"uint256","internalType":"uint256"}]}],"outputs":[],"stateMutability":"nonpayable"},{"type":"function","name":"nodeWithdraw","inputs":[{"name":"recipient","type":"address","internalType":"address"}],"outputs":[],"stateMutability":"nonpayable"},{"type":"function","name":"owner","inputs":[],"outputs":[{"name":"","type":"address","internalType":"address"}],"stateMutability":"view"},{"type":"function","name":"renounceOwnership","inputs":[],"outputs":[],"stateMutability":"nonpayable"},{"type":"function","name":"setNodeRegistryConfig","inputs":[{"name":"controllerContractAddress","type":"address","internalType":"address"},{"name":"stakingContractAddress","type":"address","internalType":"address"},{"name":"nodeStakingAmount","type":"uint256","internalType":"uint256"},{"name":"pendingBlockAfterQuit","type":"uint256","internalType":"uint256"}],"outputs":[],"stateMutability":"nonpayable"},{"type":"function","name":"slashNode","inputs":[{"name":"nodeIdAddress","type":"address","internalType":"address"},{"name":"stakingRewardPenalty","type":"uint256","internalType":"uint256"},{"name":"pendingBlock","type":"uint256","internalType":"uint256"}],"outputs":[],"stateMutability":"nonpayable"},{"type":"function","name":"transferOwnership","inputs":[{"name":"newOwner","type":"address","internalType":"address"}],"outputs":[],"stateMutability":"nonpayable"},{"type":"event","name":"DkgPublicKeyChanged","inputs":[{"name":"nodeAddress","type":"address","indexed":true,"internalType":"address"},{"name":"dkgPublicKey","type":"bytes","indexed":false,"internalType":"bytes"}],"anonymous":false},{"type":"event","name":"Initialized","inputs":[{"name":"version","type":"uint8","indexed":false,"internalType":"uint8"}],"anonymous":false},{"type":"event","name":"NodeActivated","inputs":[{"name":"nodeAddress","type":"address","indexed":true,"internalType":"address"},{"name":"groupIndex","type":"uint256","indexed":false,"internalType":"uint256"}],"anonymous":false},{"type":"event","name":"NodeQuit","inputs":[{"name":"nodeAddress","type":"address","indexed":true,"internalType":"address"}],"anonymous":false},{"type":"event","name":"NodeRegistered","inputs":[{"name":"nodeAddress","type":"address","indexed":true,"internalType":"address"},{"name":"dkgPublicKey","type":"bytes","indexed":false,"internalType":"bytes"},{"name":"groupIndex","type":"uint256","indexed":false,"internalType":"uint256"}],"anonymous":false},{"type":"event","name":"NodeRewarded","inputs":[{"name":"nodeAddress","type":"address","indexed":true,"internalType":"address"},{"name":"ethAmount","type":"uint256","indexed":false,"internalType":"uint256"},{"name":"arpaAmount","type":"uint256","indexed":false,"internalType":"uint256"}],"anonymous":false},{"type":"event","name":"NodeSlashed","inputs":[{"name":"nodeIdAddress","type":"address","indexed":true,"internalType":"address"},{"name":"stakingRewardPenalty","type":"uint256","indexed":false,"internalType":"uint256"},{"name":"pendingBlock","type":"uint256","indexed":false,"internalType":"uint256"}],"anonymous":false},{"type":"event","name":"OwnershipTransferred","inputs":[{"name":"previousOwner","type":"address","indexed":true,"internalType":"address"},{"name":"newOwner","type":"address","indexed":true,"internalType":"address"}],"anonymous":false},{"type":"error","name":"InvalidPublicKey","inputs":[]},{"type":"error","name":"InvalidZeroAddress","inputs":[]},{"type":"error","name":"NodeAlreadyActive","inputs":[]},{"type":"error","name":"NodeAlreadyRegistered","inputs":[]},{"type":"error","name":"NodeNotRegistered","inputs":[]},{"type":"error","name":"NodeStillPending","inputs":[{"name":"pendingUntilBlock","type":"uint256","internalType":"uint256"}]},{"type":"error","name":"OperatorUnderStaking","inputs":[]},{"type":"error","name":"SenderNotController","inputs":[]}],"bytecode":{"object":"0x608060405234801561001057600080fd5b50612223806100206000396000f3fe608060405234801561001057600080fd5b506004361061010b5760003560e01c80638da5cb5b116100a25780639d209048116100715780639d20904814610212578063e275cde614610232578063e40e744b14610245578063f2fde38b1461027c578063f341b5721461028f57600080fd5b80638da5cb5b146101c95780638ed47008146101e4578063914eb34d146101f75780639a075bc31461020a57600080fd5b80634ecea80d116100de5780634ecea80d146101895780636a5107181461019c578063715018a6146101b95780637a2af56e146101c157600080fd5b806315dac9b214610110578063227d0f461461013957806326dd238b14610161578063400ada7514610176575b600080fd5b61012361011e3660046119f6565b6102a2565b6040516101309190611a68565b60405180910390f35b61014c6101473660046119f6565b610351565b60408051928352602083019190915201610130565b61017461016f366004611b34565b6103f2565b005b610174610184366004611c3e565b6107d6565b6101746101973660046119f6565b610923565b606954600160a01b900460ff166040519015158152602001610130565b610174610a47565b610174610a5b565b6033546040516001600160a01b039091168152602001610130565b6101746101f2366004611c75565b610c0d565b610174610205366004611ca8565b610d6f565b610174610ecd565b6102256102203660046119f6565b6111c0565b6040516101309190611d65565b610174610240366004611db6565b6112db565b606554606654606754606854604080516001600160a01b039586168152949093166020850152918301526060820152608001610130565b61017461028a3660046119f6565b6114aa565b61017461029d366004611df8565b611523565b6001600160a01b0381166000908152606a602052604090206001018054606091906102cc90611e3a565b80601f01602080910402602001604051908101604052809291908181526020018280546102f890611e3a565b80156103455780601f1061031a57610100808354040283529160200191610345565b820191906000526020600020905b81548152906001019060200180831161032857829003601f168201915b50505050509050919050565b6001600160a01b0381166000908152606b602052604081205481901561039b576001600160a01b0383166000908152606b602052604090205461039690600190611e8a565b61039e565b60005b6001600160a01b0384166000908152606c6020526040902054156103e6576001600160a01b0384166000908152606c60205260409020546103e190600190611e8a565b6103e9565b60005b91509150915091565b336000908152606a60205260409020546001600160a01b03161561042957604051630eb0d31360e11b815260040160405180910390fd5b6040516316f6db8160e01b815260009073__$34d23ddaee48904c6c566425acbfa0fc0e$__906316f6db81906104659087908790600401611ecc565b608060405180830381865af4158015610482573d6000803e3d6000fd5b505050506040513d601f19601f820116820180604052508101906104a69190611ee0565b604051636fda2c7960e01b815290915073__$34d23ddaee48904c6c566425acbfa0fc0e$__90636fda2c79906104e0908490600401611f5e565b602060405180830381865af41580156104fd573d6000803e3d6000fd5b505050506040513d601f19601f820116820180604052508101906105219190611f8f565b61053e5760405163145a1fdd60e31b815260040160405180910390fd5b606954600160a01b900460ff161561064d57606654604051637b4ffbbd60e01b81523360048201526000916001600160a01b031690637b4ffbbd90602401602060405180830381865afa158015610599573d6000803e3d6000fd5b505050506040513d601f19601f820116820180604052508101906105bd9190611fac565b6067549091508110156105e35760405163696aeee160e11b815260040160405180910390fd5b60665460405163aa2bcdbd60e01b81526001600160a01b039091169063aa2bcdbd906106159033908790600401611fc5565b600060405180830381600087803b15801561062f57600080fd5b505af1158015610643573d6000803e3d6000fd5b50505050506106b6565b60665460675460405163282d3fdf60e01b815233600482015260248101919091526001600160a01b039091169063282d3fdf90604401600060405180830381600087803b15801561069d57600080fd5b505af11580156106b1573d6000803e3d6000fd5b505050505b336000818152606a6020526040902080546001600160a01b0319169091178155600181016106e585878361205f565b5060028101805460ff19166001908117909155336000818152606b60209081526040808320859055606c90915280822093909355606554925163ed157c3f60e01b81526004810192909252916001600160a01b03169063ed157c3f906024016020604051808303816000875af1158015610763573d6000803e3d6000fd5b505050506040513d601f19601f820116820180604052508101906107879190611fac565b9050336001600160a01b03167fd4ec586f4f9f417f99e20fe821fbaa10a10a4b95f8712a0c57c6d8ed970e98bd8787846040516107c693929190612120565b60405180910390a2505050505050565b600054610100900460ff16158080156107f65750600054600160ff909116105b806108105750303b158015610810575060005460ff166001145b6108785760405162461bcd60e51b815260206004820152602e60248201527f496e697469616c697a61626c653a20636f6e747261637420697320616c72656160448201526d191e481a5b9a5d1a585b1a5e995960921b60648201526084015b60405180910390fd5b6000805460ff19166001179055801561089b576000805461ff0019166101001790555b60698054831515600160a01b0274ffffffffffffffffffffffffffffffffffffffffff199091166001600160a01b038616171790556108d8611586565b801561091e576000805461ff0019169055604051600181527f7f26b83ff96e1f2b6a682f133852f6798a09c465da95921460cefb38474024989060200160405180910390a15b505050565b6001600160a01b03811661094a5760405163f6b2911f60e01b815260040160405180910390fd5b336000908152606b6020908152604080832054606c9092529091205460018111156109a757336000908152606c602052604090206001908190556109a79084906109949084611e8a565b6069546001600160a01b031691906115b5565b600182111561091e57336000908152606b602052604090206001908190556065546001600160a01b031690630ad98f6a9085906109e49086611e8a565b6040516001600160e01b031960e085901b1681526001600160a01b0390921660048301526024820152604401600060405180830381600087803b158015610a2a57600080fd5b505af1158015610a3e573d6000803e3d6000fd5b50505050505050565b610a4f611607565b610a596000611661565b565b336000818152606a60205260409020805490916001600160a01b0390911614610a96576040516229eaad60e31b815260040160405180910390fd5b6065546040516335fe4a3f60e01b81523360048201526001600160a01b03909116906335fe4a3f90602401600060405180830381600087803b158015610adb57600080fd5b505af1158015610aef573d6000803e3d6000fd5b50505050610b02336065600301546116b3565b606954600160a01b900460ff1615610b7657606654604051636c67cc6560e11b81523360048201526001600160a01b039091169063d8cf98ca90602401600060405180830381600087803b158015610b5957600080fd5b505af1158015610b6d573d6000803e3d6000fd5b50505050610bdf565b606654606754604051637eee288d60e01b815233600482015260248101919091526001600160a01b0390911690637eee288d90604401600060405180830381600087803b158015610bc657600080fd5b505af1158015610bda573d6000803e3d6000fd5b505050505b60405133907f68577adbb6b0647e21353ff032be5797d9fa0879ce7e05fe617e40368441f97d90600090a250565b6065546001600160a01b03163314610c3857604051630f5caa3360e41b815260040160405180910390fd5b606954600160a01b900460ff1615610cb557606654604051632955713760e01b81526001600160a01b0385811660048301526024820185905290911690632955713790604401600060405180830381600087803b158015610c9857600080fd5b505af1158015610cac573d6000803e3d6000fd5b50505050610d1c565b606654604051638899fdeb60e01b81526001600160a01b0385811660048301526024820185905290911690638899fdeb90604401600060405180830381600087803b158015610d0357600080fd5b505af1158015610d17573d6000803e3d6000fd5b505050505b610d2683826116b3565b60408051838152602081018390526001600160a01b038516917fa8d720d0a0a2e7c96bf9eb87433901ebb6331356c8f3283b2568de34478703cc910160405180910390a2505050565b6065546001600160a01b03163314610d9a57604051630f5caa3360e41b815260040160405180910390fd5b60005b8351811015610ec75782606b6000868481518110610dbd57610dbd612144565b60200260200101516001600160a01b03166001600160a01b031681526020019081526020016000206000828254610df4919061215a565b9250508190555081606c6000868481518110610e1257610e12612144565b60200260200101516001600160a01b03166001600160a01b031681526020019081526020016000206000828254610e49919061215a565b92505081905550838181518110610e6257610e62612144565b60200260200101516001600160a01b03167f8353a804115421789f3ab2eeb3f5215943906ce12100c91d40fc865caf742b6f8484604051610ead929190918252602082015260400190565b60405180910390a280610ebf8161216d565b915050610d9d565b50505050565b336000818152606a60205260409020805490916001600160a01b0390911614610f08576040516229eaad60e31b815260040160405180910390fd5b600281015460ff1615610f2e576040516324a228bb60e21b815260040160405180910390fd5b4381600301541115610f5b5780600301546040516363525acb60e11b815260040161086f91815260200190565b606954600160a01b900460ff161561100657606654604051637b4ffbbd60e01b81523360048201526000916001600160a01b031690637b4ffbbd90602401602060405180830381865afa158015610fb6573d6000803e3d6000fd5b505050506040513d601f19601f82011682018060405250810190610fda9190611fac565b6067549091508110156110005760405163696aeee160e11b815260040160405180910390fd5b50611106565b60665460405163929ec53760e01b81523360048201526000916001600160a01b03169063929ec53790602401602060405180830381865afa15801561104f573d6000803e3d6000fd5b505050506040513d601f19601f820116820180604052508101906110739190611fac565b606754909150811015611104576066546067546001600160a01b039091169063282d3fdf9033906110a5908590611e8a565b6040516001600160e01b031960e085901b1681526001600160a01b0390921660048301526024820152604401600060405180830381600087803b1580156110eb57600080fd5b505af11580156110ff573d6000803e3d6000fd5b505050505b505b60028101805460ff1916600117905560655460405163ed157c3f60e01b81523360048201526000916001600160a01b03169063ed157c3f906024016020604051808303816000875af1158015611160573d6000803e3d6000fd5b505050506040513d601f19601f820116820180604052508101906111849190611fac565b60405181815290915033907ffc97cd9154b40031874ef09a9436a4b60052e4dcf40f21b1258be265fac4a3979060200160405180910390a25050565b6111f6604051806080016040528060006001600160a01b0316815260200160608152602001600015158152602001600081525090565b6001600160a01b038083166000908152606a6020908152604091829020825160808101909352805490931682526001830180549293929184019161123990611e3a565b80601f016020809104026020016040519081016040528092919081815260200182805461126590611e3a565b80156112b25780601f10611287576101008083540402835291602001916112b2565b820191906000526020600020905b81548152906001019060200180831161129557829003601f168201915b5050509183525050600282015460ff161515602082015260039091015460409091015292915050565b336000818152606a60205260409020805490916001600160a01b0390911614611316576040516229eaad60e31b815260040160405180910390fd5b600281015460ff161561133c576040516324a228bb60e21b815260040160405180910390fd5b6040516316f6db8160e01b815260009073__$34d23ddaee48904c6c566425acbfa0fc0e$__906316f6db81906113789087908790600401611ecc565b608060405180830381865af4158015611395573d6000803e3d6000fd5b505050506040513d601f19601f820116820180604052508101906113b99190611ee0565b604051636fda2c7960e01b815290915073__$34d23ddaee48904c6c566425acbfa0fc0e$__90636fda2c79906113f3908490600401611f5e565b602060405180830381865af4158015611410573d6000803e3d6000fd5b505050506040513d601f19601f820116820180604052508101906114349190611f8f565b6114515760405163145a1fdd60e31b815260040160405180910390fd5b6001820161146084868361205f565b50336001600160a01b03167f4a327ac4843af7a9586b5a2a2c312bd17289ae1d70da32855ed539fe39f86a50858560405161149c929190611ecc565b60405180910390a250505050565b6114b2611607565b6001600160a01b0381166115175760405162461bcd60e51b815260206004820152602660248201527f4f776e61626c653a206e6577206f776e657220697320746865207a65726f206160448201526564647265737360d01b606482015260840161086f565b61152081611661565b50565b61152b611607565b604080516080810182526001600160a01b0395861680825294909516602086018190529085018390526060909401819052606580546001600160a01b0319908116909417905560668054909316909317909155606755606855565b600054610100900460ff166115ad5760405162461bcd60e51b815260040161086f90612186565b610a59611745565b604080516001600160a01b038416602482015260448082018490528251808303909101815260649091019091526020810180516001600160e01b031663a9059cbb60e01b17905261091e908490611775565b6033546001600160a01b03163314610a595760405162461bcd60e51b815260206004820181905260248201527f4f776e61626c653a2063616c6c6572206973206e6f7420746865206f776e6572604482015260640161086f565b603380546001600160a01b038381166001600160a01b0319831681179093556040519116919082907f8be0079c531659141344cd1fd0a4f28419497f9722a3daafe3b4186f6b6457e090600090a35050565b6001600160a01b0382166000908152606a6020526040902060028101805460ff1916905560030154439081101561171a576001600160a01b0383166000908152606a60205260408120600301805484929061170f90849061215a565b9091555061091e9050565b611724828261215a565b6001600160a01b0384166000908152606a6020526040902060030155505050565b600054610100900460ff1661176c5760405162461bcd60e51b815260040161086f90612186565b610a5933611661565b60006117ca826040518060400160405280602081526020017f5361666545524332303a206c6f772d6c6576656c2063616c6c206661696c6564815250856001600160a01b031661184a9092919063ffffffff16565b90508051600014806117eb5750808060200190518101906117eb9190611f8f565b61091e5760405162461bcd60e51b815260206004820152602a60248201527f5361666545524332303a204552433230206f7065726174696f6e20646964206e6044820152691bdd081cdd58d8d9595960b21b606482015260840161086f565b60606118598484600085611861565b949350505050565b6060824710156118c25760405162461bcd60e51b815260206004820152602660248201527f416464726573733a20696e73756666696369656e742062616c616e636520666f6044820152651c8818d85b1b60d21b606482015260840161086f565b600080866001600160a01b031685876040516118de91906121d1565b60006040518083038185875af1925050503d806000811461191b576040519150601f19603f3d011682016040523d82523d6000602084013e611920565b606091505b50915091506119318783838761193c565b979650505050505050565b606083156119ab5782516000036119a4576001600160a01b0385163b6119a45760405162461bcd60e51b815260206004820152601d60248201527f416464726573733a2063616c6c20746f206e6f6e2d636f6e7472616374000000604482015260640161086f565b5081611859565b61185983838151156119c05781518083602001fd5b8060405162461bcd60e51b815260040161086f9190611a68565b80356001600160a01b03811681146119f157600080fd5b919050565b600060208284031215611a0857600080fd5b611a11826119da565b9392505050565b60005b83811015611a33578181015183820152602001611a1b565b50506000910152565b60008151808452611a54816020860160208601611a18565b601f01601f19169290920160200192915050565b602081526000611a116020830184611a3c565b60008083601f840112611a8d57600080fd5b50813567ffffffffffffffff811115611aa557600080fd5b602083019150836020828501011115611abd57600080fd5b9250929050565b634e487b7160e01b600052604160045260246000fd5b6040516060810167ffffffffffffffff81118282101715611afd57611afd611ac4565b60405290565b604051601f8201601f1916810167ffffffffffffffff81118282101715611b2c57611b2c611ac4565b604052919050565b600080600060408486031215611b4957600080fd5b833567ffffffffffffffff80821115611b6157600080fd5b611b6d87838801611a7b565b9095509350602091508582013581811115611b8757600080fd5b860160608189031215611b9957600080fd5b611ba1611ada565b813583811115611bb057600080fd5b8201601f81018a13611bc157600080fd5b803584811115611bd357611bd3611ac4565b611be5601f8201601f19168701611b03565b94508085528a86828401011115611bfb57600080fd5b808683018787013760008682870101525050828152838201358482015260408201356040820152809450505050509250925092565b801515811461152057600080fd5b60008060408385031215611c5157600080fd5b611c5a836119da565b91506020830135611c6a81611c30565b809150509250929050565b600080600060608486031215611c8a57600080fd5b611c93846119da565b95602085013595506040909401359392505050565b600080600060608486031215611cbd57600080fd5b833567ffffffffffffffff80821115611cd557600080fd5b818601915086601f830112611ce957600080fd5b8135602082821115611cfd57611cfd611ac4565b8160051b9250611d0e818401611b03565b828152928401810192818101908a851115611d2857600080fd5b948201945b84861015611d4d57611d3e866119da565b82529482019490820190611d2d565b9a918901359950506040909701359695505050505050565b602081526001600160a01b0382511660208201526000602083015160806040840152611d9460a0840182611a3c565b9050604084015115156060840152606084015160808401528091505092915050565b60008060208385031215611dc957600080fd5b823567ffffffffffffffff811115611de057600080fd5b611dec85828601611a7b565b90969095509350505050565b60008060008060808587031215611e0e57600080fd5b611e17856119da565b9350611e25602086016119da565b93969395505050506040820135916060013590565b600181811c90821680611e4e57607f821691505b602082108103611e6e57634e487b7160e01b600052602260045260246000fd5b50919050565b634e487b7160e01b600052601160045260246000fd5b81810381811115611e9d57611e9d611e74565b92915050565b81835281816020850137506000828201602090810191909152601f909101601f19169091010190565b602081526000611859602083018486611ea3565b600060808284031215611ef257600080fd5b82601f830112611f0157600080fd5b6040516080810181811067ffffffffffffffff82111715611f2457611f24611ac4565b604052806080840185811115611f3957600080fd5b845b81811015611f53578051835260209283019201611f3b565b509195945050505050565b60808101818360005b6004811015611f86578151835260209283019290910190600101611f67565b50505092915050565b600060208284031215611fa157600080fd5b8151611a1181611c30565b600060208284031215611fbe57600080fd5b5051919050565b6001600160a01b0383168152604060208201526000825160606040840152611ff060a0840182611a3c565b90506020840151606084015260408401516080840152809150509392505050565b601f82111561091e57600081815260208120601f850160051c810160208610156120385750805b601f850160051c820191505b8181101561205757828155600101612044565b505050505050565b67ffffffffffffffff83111561207757612077611ac4565b61208b836120858354611e3a565b83612011565b6000601f8411600181146120bf57600085156120a75750838201355b600019600387901b1c1916600186901b178355612119565b600083815260209020601f19861690835b828110156120f057868501358255602094850194600190920191016120d0565b508682101561210d5760001960f88860031b161c19848701351681555b505060018560011b0183555b5050505050565b604081526000612134604083018587611ea3565b9050826020830152949350505050565b634e487b7160e01b600052603260045260246000fd5b80820180821115611e9d57611e9d611e74565b60006001820161217f5761217f611e74565b5060010190565b6020808252602b908201527f496e697469616c697a61626c653a20636f6e7472616374206973206e6f74206960408201526a6e697469616c697a696e6760a81b606082015260800190565b600082516121e3818460208701611a18565b919091019291505056fea26469706673582212208017bc37c1c4e34bf0a343399377b853066136e1c3425d7d29bd11df3998dc3c64736f6c63430008120033","linkReferences":{"src/libraries/BLS.sol":{"BLS":[{"start":1115,"length":20},{"start":1240,"length":20},{"start":4974,"length":20},{"start":5099,"length":20}]}}},"methodIdentifiers":{"addReward(address[],uint256,uint256)":"914eb34d","changeDkgPublicKey(bytes)":"e275cde6","getDKGPublicKey(address)":"15dac9b2","getNode(address)":"9d209048","getNodeRegistryConfig()":"e40e744b","getNodeWithdrawableTokens(address)":"227d0f46","initialize(address,bool)":"400ada75","isDeployedOnEigenlayer()":"6a510718","nodeActivate()":"9a075bc3","nodeQuit()":"7a2af56e","nodeRegister(bytes,(bytes,bytes32,uint256))":"26dd238b","nodeWithdraw(address)":"4ecea80d","owner()":"8da5cb5b","renounceOwnership()":"715018a6","setNodeRegistryConfig(address,address,uint256,uint256)":"f341b572","slashNode(address,uint256,uint256)":"8ed47008","transferOwnership(address)":"f2fde38b"},"id":101}