{"abi":[{"type":"constructor","inputs":[],"stateMutability":"nonpayable"},{"type":"function","name":"addReward","inputs":[{"name":"nodes","type":"address[]","internalType":"address[]"},{"name":"ethAmount","type":"uint256","internalType":"uint256"},{"name":"arpaAmount","type":"uint256","internalType":"uint256"}],"outputs":[],"stateMutability":"nonpayable"},{"type":"function","name":"changeDkgPublicKey","inputs":[{"name":"dkgPublicKey","type":"bytes","internalType":"bytes"}],"outputs":[],"stateMutability":"nonpayable"},{"type":"function","name":"dismissNode","inputs":[{"name":"nodeIdAddress","type":"address","internalType":"address"},{"name":"pendingBlock","type":"uint256","internalType":"uint256"}],"outputs":[],"stateMutability":"nonpayable"},{"type":"function","name":"getDKGPublicKey","inputs":[{"name":"nodeAddress","type":"address","internalType":"address"}],"outputs":[{"name":"","type":"bytes","internalType":"bytes"}],"stateMutability":"view"},{"type":"function","name":"getNode","inputs":[{"name":"nodeAddress","type":"address","internalType":"address"}],"outputs":[{"name":"","type":"tuple","internalType":"struct INodeRegistry.Node","components":[{"name":"idAddress","type":"address","internalType":"address"},{"name":"dkgPublicKey","type":"bytes","internalType":"bytes"},{"name":"isEigenlayerNode","type":"bool","internalType":"bool"},{"name":"state","type":"bool","internalType":"bool"},{"name":"pendingUntilBlock","type":"uint256","internalType":"uint256"}]}],"stateMutability":"view"},{"type":"function","name":"getNodeRegistryConfig","inputs":[],"outputs":[{"name":"controllerContractAddress","type":"address","internalType":"address"},{"name":"stakingContractAddress","type":"address","internalType":"address"},{"name":"serviceManagerContractAddress","type":"address","internalType":"address"},{"name":"nativeNodeStakingAmount","type":"uint256","internalType":"uint256"},{"name":"eigenlayerNodeStakingAmount","type":"uint256","internalType":"uint256"},{"name":"pendingBlockAfterQuit","type":"uint256","internalType":"uint256"}],"stateMutability":"view"},{"type":"function","name":"getNodeWithdrawableTokens","inputs":[{"name":"nodeAddress","type":"address","internalType":"address"}],"outputs":[{"name":"","type":"uint256","internalType":"uint256"},{"name":"","type":"uint256","internalType":"uint256"}],"stateMutability":"view"},{"type":"function","name":"initialize","inputs":[{"name":"arpa","type":"address","internalType":"address"}],"outputs":[],"stateMutability":"nonpayable"},{"type":"function","name":"nodeActivate","inputs":[{"name":"operatorSignature","type":"tuple","internalType":"struct ISignatureUtils.SignatureWithSaltAndExpiry","components":[{"name":"signature","type":"bytes","internalType":"bytes"},{"name":"salt","type":"bytes32","internalType":"bytes32"},{"name":"expiry","type":"uint256","internalType":"uint256"}]}],"outputs":[],"stateMutability":"nonpayable"},{"type":"function","name":"nodeQuit","inputs":[],"outputs":[],"stateMutability":"nonpayable"},{"type":"function","name":"nodeRegister","inputs":[{"name":"dkgPublicKey","type":"bytes","internalType":"bytes"},{"name":"isEigenlayerNode","type":"bool","internalType":"bool"},{"name":"operatorSignature","type":"tuple","internalType":"struct ISignatureUtils.SignatureWithSaltAndExpiry","components":[{"name":"signature","type":"bytes","internalType":"bytes"},{"name":"salt","type":"bytes32","internalType":"bytes32"},{"name":"expiry","type":"uint256","internalType":"uint256"}]}],"outputs":[],"stateMutability":"nonpayable"},{"type":"function","name":"nodeWithdraw","inputs":[{"name":"recipient","type":"address","internalType":"address"}],"outputs":[],"stateMutability":"nonpayable"},{"type":"function","name":"owner","inputs":[],"outputs":[{"name":"","type":"address","internalType":"address"}],"stateMutability":"view"},{"type":"function","name":"proxiableUUID","inputs":[],"outputs":[{"name":"","type":"bytes32","internalType":"bytes32"}],"stateMutability":"view"},{"type":"function","name":"renounceOwnership","inputs":[],"outputs":[],"stateMutability":"nonpayable"},{"type":"function","name":"setNodeRegistryConfig","inputs":[{"name":"controllerContractAddress","type":"address","internalType":"address"},{"name":"stakingContractAddress","type":"address","internalType":"address"},{"name":"serviceManagerContractAddress","type":"address","internalType":"address"},{"name":"nativeNodeStakingAmount","type":"uint256","internalType":"uint256"},{"name":"eigenlayerNodeStakingAmount","type":"uint256","internalType":"uint256"},{"name":"pendingBlockAfterQuit","type":"uint256","internalType":"uint256"}],"outputs":[],"stateMutability":"nonpayable"},{"type":"function","name":"slashNode","inputs":[{"name":"nodeIdAddress","type":"address","internalType":"address"},{"name":"stakingRewardPenalty","type":"uint256","internalType":"uint256"},{"name":"pendingBlock","type":"uint256","internalType":"uint256"}],"outputs":[],"stateMutability":"nonpayable"},{"type":"function","name":"transferOwnership","inputs":[{"name":"newOwner","type":"address","internalType":"address"}],"outputs":[],"stateMutability":"nonpayable"},{"type":"function","name":"upgradeTo","inputs":[{"name":"newImplementation","type":"address","internalType":"address"}],"outputs":[],"stateMutability":"nonpayable"},{"type":"function","name":"upgradeToAndCall","inputs":[{"name":"newImplementation","type":"address","internalType":"address"},{"name":"data","type":"bytes","internalType":"bytes"}],"outputs":[],"stateMutability":"payable"},{"type":"event","name":"AdminChanged","inputs":[{"name":"previousAdmin","type":"address","indexed":false,"internalType":"address"},{"name":"newAdmin","type":"address","indexed":false,"internalType":"address"}],"anonymous":false},{"type":"event","name":"BeaconUpgraded","inputs":[{"name":"beacon","type":"address","indexed":true,"internalType":"address"}],"anonymous":false},{"type":"event","name":"DkgPublicKeyChanged","inputs":[{"name":"nodeAddress","type":"address","indexed":true,"internalType":"address"},{"name":"dkgPublicKey","type":"bytes","indexed":false,"internalType":"bytes"}],"anonymous":false},{"type":"event","name":"Initialized","inputs":[{"name":"version","type":"uint8","indexed":false,"internalType":"uint8"}],"anonymous":false},{"type":"event","name":"NodeActivated","inputs":[{"name":"nodeAddress","type":"address","indexed":true,"internalType":"address"},{"name":"groupIndex","type":"uint256","indexed":false,"internalType":"uint256"}],"anonymous":false},{"type":"event","name":"NodeQuit","inputs":[{"name":"nodeAddress","type":"address","indexed":true,"internalType":"address"}],"anonymous":false},{"type":"event","name":"NodeRegistered","inputs":[{"name":"nodeAddress","type":"address","indexed":true,"internalType":"address"},{"name":"dkgPublicKey","type":"bytes","indexed":false,"internalType":"bytes"},{"name":"groupIndex","type":"uint256","indexed":false,"internalType":"uint256"}],"anonymous":false},{"type":"event","name":"NodeRewarded","inputs":[{"name":"nodeAddress","type":"address","indexed":true,"internalType":"address"},{"name":"ethAmount","type":"uint256","indexed":false,"internalType":"uint256"},{"name":"arpaAmount","type":"uint256","indexed":false,"internalType":"uint256"}],"anonymous":false},{"type":"event","name":"NodeSlashed","inputs":[{"name":"nodeIdAddress","type":"address","indexed":true,"internalType":"address"},{"name":"stakingRewardPenalty","type":"uint256","indexed":false,"internalType":"uint256"},{"name":"pendingBlock","type":"uint256","indexed":false,"internalType":"uint256"}],"anonymous":false},{"type":"event","name":"OwnershipTransferred","inputs":[{"name":"previousOwner","type":"address","indexed":true,"internalType":"address"},{"name":"newOwner","type":"address","indexed":true,"internalType":"address"}],"anonymous":false},{"type":"event","name":"Upgraded","inputs":[{"name":"implementation","type":"address","indexed":true,"internalType":"address"}],"anonymous":false},{"type":"error","name":"InvalidPublicKey","inputs":[]},{"type":"error","name":"InvalidZeroAddress","inputs":[]},{"type":"error","name":"NodeAlreadyActive","inputs":[]},{"type":"error","name":"NodeAlreadyRegistered","inputs":[]},{"type":"error","name":"NodeNotRegistered","inputs":[]},{"type":"error","name":"NodeStillPending","inputs":[{"name":"pendingUntilBlock","type":"uint256","internalType":"uint256"}]},{"type":"error","name":"OperatorUnderStaking","inputs":[]},{"type":"error","name":"SenderNotController","inputs":[]}],"bytecode":{"object":"0x60a0604052306080523480156200001557600080fd5b506200002062000026565b620000e7565b600054610100900460ff1615620000935760405162461bcd60e51b815260206004820152602760248201527f496e697469616c697a61626c653a20636f6e747261637420697320696e697469604482015266616c697a696e6760c81b606482015260840160405180910390fd5b60005460ff90811614620000e5576000805460ff191660ff9081179091556040519081527f7f26b83ff96e1f2b6a682f133852f6798a09c465da95921460cefb38474024989060200160405180910390a15b565b608051612b636200011f600039600081816105e901528181610632015281816107f60152818161083601526108c90152612b636000f3fe60806040526004361061011f5760003560e01c80638da5cb5b116100a0578063add60b4c11610064578063add60b4c14610326578063c4d66de814610346578063e275cde614610366578063e40e744b14610386578063f2fde38b146103e657600080fd5b80638da5cb5b146102715780638ed4700814610299578063914eb34d146102b957806397fdcc28146102d95780639d209048146102f957600080fd5b80634f1ef286116100e75780634f1ef286146101f157806352d1902d14610204578063715018a6146102275780637a2af56e1461023c5780638d2f3e6b1461025157600080fd5b806315dac9b214610124578063227d0f461461015a57806333f010a11461018f5780633659cfe6146101b15780634ecea80d146101d1575b600080fd5b34801561013057600080fd5b5061014461013f36600461217c565b610406565b60405161015191906121e7565b60405180910390f35b34801561016657600080fd5b5061017a61017536600461217c565b6104b5565b60408051928352602083019190915201610151565b34801561019b57600080fd5b506101af6101aa3660046121fa565b610556565b005b3480156101bd57600080fd5b506101af6101cc36600461217c565b6105df565b3480156101dd57600080fd5b506101af6101ec36600461217c565b6106c7565b6101af6101ff366004612310565b6107ec565b34801561021057600080fd5b506102196108bc565b604051908152602001610151565b34801561023357600080fd5b506101af61096f565b34801561024857600080fd5b506101af610983565b34801561025d57600080fd5b506101af61026c3660046123d7565b610992565b34801561027d57600080fd5b506097546040516001600160a01b039091168152602001610151565b3480156102a557600080fd5b506101af6102b436600461240c565b610cec565b3480156102c557600080fd5b506101af6102d436600461243f565b610e63565b3480156102e557600080fd5b506101af6102f4366004612553565b610fc1565b34801561030557600080fd5b5061031961031436600461217c565b6113a5565b60405161015191906125d1565b34801561033257600080fd5b506101af61034136600461262e565b6114bf565b34801561035257600080fd5b506101af61036136600461217c565b6114d1565b34801561037257600080fd5b506101af610381366004612658565b6115fd565b34801561039257600080fd5b5060c95460ca5460cb5460cc5460cd5460ce54604080516001600160a01b039788168152958716602087015295909316948401949094526060830152608082019290925260a081019190915260c001610151565b3480156103f257600080fd5b506101af61040136600461217c565b6117c3565b6001600160a01b038116600090815260d0602052604090206001018054606091906104309061269a565b80601f016020809104026020016040519081016040528092919081815260200182805461045c9061269a565b80156104a95780601f1061047e576101008083540402835291602001916104a9565b820191906000526020600020905b81548152906001019060200180831161048c57829003601f168201915b50505050509050919050565b6001600160a01b038116600090815260d160205260408120548190156104ff576001600160a01b038316600090815260d160205260409020546104fa906001906126ea565b610502565b60005b6001600160a01b038416600090815260d260205260409020541561054a576001600160a01b038416600090815260d26020526040902054610545906001906126ea565b61054d565b60005b91509150915091565b61055e611839565b6040805160c0810182526001600160a01b039788168082529688166020820181905295909716908701819052606087018490526080870183905260a090960181905260c980546001600160a01b0319908116909617905560ca8054861690941790935560cb805490941690941790925560cc9190915560cd9190915560ce55565b6001600160a01b037f00000000000000000000000000000000000000000000000000000000000000001630036106305760405162461bcd60e51b8152600401610627906126fd565b60405180910390fd5b7f00000000000000000000000000000000000000000000000000000000000000006001600160a01b0316610679600080516020612ae7833981519152546001600160a01b031690565b6001600160a01b03161461069f5760405162461bcd60e51b815260040161062790612749565b6106a881611893565b604080516000808252602082019092526106c49183919061189b565b50565b6001600160a01b0381166106ee5760405163f6b2911f60e01b815260040160405180910390fd5b33600090815260d1602090815260408083205460d290925290912054600181111561074b5733600090815260d26020526040902060019081905561074b90849061073890846126ea565b60cf546001600160a01b03169190611a06565b60018211156107e75733600090815260d16020526040902060019081905560c9546001600160a01b031690630ad98f6a90859061078890866126ea565b6040516001600160e01b031960e085901b1681526001600160a01b0390921660048301526024820152604401600060405180830381600087803b1580156107ce57600080fd5b505af11580156107e2573d6000803e3d6000fd5b505050505b505050565b6001600160a01b037f00000000000000000000000000000000000000000000000000000000000000001630036108345760405162461bcd60e51b8152600401610627906126fd565b7f00000000000000000000000000000000000000000000000000000000000000006001600160a01b031661087d600080516020612ae7833981519152546001600160a01b031690565b6001600160a01b0316146108a35760405162461bcd60e51b815260040161062790612749565b6108ac82611893565b6108b88282600161189b565b5050565b6000306001600160a01b037f0000000000000000000000000000000000000000000000000000000000000000161461095c5760405162461bcd60e51b815260206004820152603860248201527f555550535570677261646561626c653a206d757374206e6f742062652063616c60448201527f6c6564207468726f7567682064656c656761746563616c6c00000000000000006064820152608401610627565b50600080516020612ae783398151915290565b610977611839565b6109816000611a58565b565b6109813360c960050154611aaa565b33600081815260d060205260409020805490916001600160a01b03909116146109cd576040516229eaad60e31b815260040160405180910390fd5b6002810154610100900460ff16156109f8576040516324a228bb60e21b815260040160405180910390fd5b4381600301541115610a255780600301546040516363525acb60e11b815260040161062791815260200190565b600281015460ff1615610b2f5760cb54604051637b4ffbbd60e01b81523360048201526000916001600160a01b031690637b4ffbbd90602401602060405180830381865afa158015610a7b573d6000803e3d6000fd5b505050506040513d601f19601f82011682018060405250810190610a9f9190612795565b60cd54909150811015610ac55760405163696aeee160e11b815260040160405180910390fd5b60cb5460405163aa2bcdbd60e01b81526001600160a01b039091169063aa2bcdbd90610af790339087906004016127ae565b600060405180830381600087803b158015610b1157600080fd5b505af1158015610b25573d6000803e3d6000fd5b5050505050610c2f565b60ca5460405163929ec53760e01b81523360048201526000916001600160a01b03169063929ec53790602401602060405180830381865afa158015610b78573d6000803e3d6000fd5b505050506040513d601f19601f82011682018060405250810190610b9c9190612795565b60cc54909150811015610c2d5760ca5460cc546001600160a01b039091169063282d3fdf903390610bce9085906126ea565b6040516001600160e01b031960e085901b1681526001600160a01b0390921660048301526024820152604401600060405180830381600087803b158015610c1457600080fd5b505af1158015610c28573d6000803e3d6000fd5b505050505b505b60028101805461ff00191661010017905560c95460405163ed157c3f60e01b81523360048201526000916001600160a01b03169063ed157c3f906024016020604051808303816000875af1158015610c8b573d6000803e3d6000fd5b505050506040513d601f19601f82011682018060405250810190610caf9190612795565b60405181815290915033907ffc97cd9154b40031874ef09a9436a4b60052e4dcf40f21b1258be265fac4a3979060200160405180910390a2505050565b60c9546001600160a01b03163314610d1757604051630f5caa3360e41b815260040160405180910390fd5b6001600160a01b038316600090815260d060205260409020600281015460ff1615610da75760cb54604051632955713760e01b81526001600160a01b0386811660048301526024820186905290911690632955713790604401600060405180830381600087803b158015610d8a57600080fd5b505af1158015610d9e573d6000803e3d6000fd5b50505050610e0e565b60ca54604051638899fdeb60e01b81526001600160a01b0386811660048301526024820186905290911690638899fdeb90604401600060405180830381600087803b158015610df557600080fd5b505af1158015610e09573d6000803e3d6000fd5b505050505b610e188483611c62565b60408051848152602081018490526001600160a01b038616917fa8d720d0a0a2e7c96bf9eb87433901ebb6331356c8f3283b2568de34478703cc91015b60405180910390a250505050565b60c9546001600160a01b03163314610e8e57604051630f5caa3360e41b815260040160405180910390fd5b60005b8351811015610fbb578260d16000868481518110610eb157610eb16127fa565b60200260200101516001600160a01b03166001600160a01b031681526020019081526020016000206000828254610ee89190612810565b925050819055508160d26000868481518110610f0657610f066127fa565b60200260200101516001600160a01b03166001600160a01b031681526020019081526020016000206000828254610f3d9190612810565b92505081905550838181518110610f5657610f566127fa565b60200260200101516001600160a01b03167f8353a804115421789f3ab2eeb3f5215943906ce12100c91d40fc865caf742b6f8484604051610fa1929190918252602082015260400190565b60405180910390a280610fb381612823565b915050610e91565b50505050565b33600090815260d060205260409020546001600160a01b031615610ff857604051630eb0d31360e11b815260040160405180910390fd5b6040516316f6db8160e01b815260009073__$34d23ddaee48904c6c566425acbfa0fc0e$__906316f6db81906110349088908890600401612865565b608060405180830381865af4158015611051573d6000803e3d6000fd5b505050506040513d601f19601f820116820180604052508101906110759190612879565b604051636fda2c7960e01b815290915073__$34d23ddaee48904c6c566425acbfa0fc0e$__90636fda2c79906110af9084906004016128f7565b602060405180830381865af41580156110cc573d6000803e3d6000fd5b505050506040513d601f19601f820116820180604052508101906110f09190612928565b61110d5760405163145a1fdd60e31b815260040160405180910390fd5b82156112105760cb54604051637b4ffbbd60e01b81523360048201526000916001600160a01b031690637b4ffbbd90602401602060405180830381865afa15801561115c573d6000803e3d6000fd5b505050506040513d601f19601f820116820180604052508101906111809190612795565b60cd549091508110156111a65760405163696aeee160e11b815260040160405180910390fd5b60cb5460405163aa2bcdbd60e01b81526001600160a01b039091169063aa2bcdbd906111d890339087906004016127ae565b600060405180830381600087803b1580156111f257600080fd5b505af1158015611206573d6000803e3d6000fd5b5050505050611279565b60ca5460cc5460405163282d3fdf60e01b815233600482015260248101919091526001600160a01b039091169063282d3fdf90604401600060405180830381600087803b15801561126057600080fd5b505af1158015611274573d6000803e3d6000fd5b505050505b33600081815260d06020526040902080546001600160a01b0319169091178155600181016112a886888361299a565b5060028101805461010061ffff199091168615151717905533600081815260d16020908152604080832060019081905560d29092528083209190915560c954905163ed157c3f60e01b8152600481019390935290916001600160a01b039091169063ed157c3f906024016020604051808303816000875af1158015611331573d6000803e3d6000fd5b505050506040513d601f19601f820116820180604052508101906113559190612795565b9050336001600160a01b03167fd4ec586f4f9f417f99e20fe821fbaa10a10a4b95f8712a0c57c6d8ed970e98bd88888460405161139493929190612a5b565b60405180910390a250505050505050565b6040805160a08082018352600080835260606020808501829052848601839052908401829052608084018290526001600160a01b03868116835260d0825291859020855193840190955284549091168252600184018054939492939184019161140d9061269a565b80601f01602080910402602001604051908101604052809291908181526020018280546114399061269a565b80156114865780601f1061145b57610100808354040283529160200191611486565b820191906000526020600020905b81548152906001019060200180831161146957829003601f168201915b5050509183525050600282015460ff80821615156020840152610100909104161515604082015260039091015460609091015292915050565b6114c7611839565b6108b88282611aaa565b600054610100900460ff16158080156114f15750600054600160ff909116105b8061150b5750303b15801561150b575060005460ff166001145b61156e5760405162461bcd60e51b815260206004820152602e60248201527f496e697469616c697a61626c653a20636f6e747261637420697320616c72656160448201526d191e481a5b9a5d1a585b1a5e995960921b6064820152608401610627565b6000805460ff191660011790558015611591576000805461ff0019166101001790555b60cf80546001600160a01b0319166001600160a01b0384161790556115b4611cf5565b80156108b8576000805461ff0019169055604051600181527f7f26b83ff96e1f2b6a682f133852f6798a09c465da95921460cefb38474024989060200160405180910390a15050565b33600081815260d060205260409020805490916001600160a01b0390911614611638576040516229eaad60e31b815260040160405180910390fd5b6002810154610100900460ff1615611663576040516324a228bb60e21b815260040160405180910390fd5b6040516316f6db8160e01b815260009073__$34d23ddaee48904c6c566425acbfa0fc0e$__906316f6db819061169f9087908790600401612865565b608060405180830381865af41580156116bc573d6000803e3d6000fd5b505050506040513d601f19601f820116820180604052508101906116e09190612879565b604051636fda2c7960e01b815290915073__$34d23ddaee48904c6c566425acbfa0fc0e$__90636fda2c799061171a9084906004016128f7565b602060405180830381865af4158015611737573d6000803e3d6000fd5b505050506040513d601f19601f8201168201806040525081019061175b9190612928565b6117785760405163145a1fdd60e31b815260040160405180910390fd5b6001820161178784868361299a565b50336001600160a01b03167f4a327ac4843af7a9586b5a2a2c312bd17289ae1d70da32855ed539fe39f86a508585604051610e55929190612865565b6117cb611839565b6001600160a01b0381166118305760405162461bcd60e51b815260206004820152602660248201527f4f776e61626c653a206e6577206f776e657220697320746865207a65726f206160448201526564647265737360d01b6064820152608401610627565b6106c481611a58565b6097546001600160a01b031633146109815760405162461bcd60e51b815260206004820181905260248201527f4f776e61626c653a2063616c6c6572206973206e6f7420746865206f776e65726044820152606401610627565b6106c4611839565b7f4910fdfa16fed3260ed0e7147f7cc6da11a60208b5b9406d12a635614ffd91435460ff16156118ce576107e783611d24565b826001600160a01b03166352d1902d6040518163ffffffff1660e01b8152600401602060405180830381865afa925050508015611928575060408051601f3d908101601f1916820190925261192591810190612795565b60015b61198b5760405162461bcd60e51b815260206004820152602e60248201527f45524331393637557067726164653a206e657720696d706c656d656e7461746960448201526d6f6e206973206e6f74205555505360901b6064820152608401610627565b600080516020612ae783398151915281146119fa5760405162461bcd60e51b815260206004820152602960248201527f45524331393637557067726164653a20756e737570706f727465642070726f786044820152681a58589b195555525160ba1b6064820152608401610627565b506107e7838383611dc0565b604080516001600160a01b038416602482015260448082018490528251808303909101815260649091019091526020810180516001600160e01b031663a9059cbb60e01b1790526107e7908490611de5565b609780546001600160a01b038381166001600160a01b0319831681179093556040519116919082907f8be0079c531659141344cd1fd0a4f28419497f9722a3daafe3b4186f6b6457e090600090a35050565b6001600160a01b03808316600081815260d060205260409020805490921614611ae5576040516229eaad60e31b815260040160405180910390fd5b60c9546040516335fe4a3f60e01b81526001600160a01b038581166004830152909116906335fe4a3f90602401600060405180830381600087803b158015611b2c57600080fd5b505af1158015611b40573d6000803e3d6000fd5b50505050611b4e8383611c62565b600281015460ff1615611bbf5760cb54604051636c67cc6560e11b81526001600160a01b0385811660048301529091169063d8cf98ca90602401600060405180830381600087803b158015611ba257600080fd5b505af1158015611bb6573d6000803e3d6000fd5b50505050611c29565b60ca5460cc54604051637eee288d60e01b81526001600160a01b0386811660048301526024820192909252911690637eee288d90604401600060405180830381600087803b158015611c1057600080fd5b505af1158015611c24573d6000803e3d6000fd5b505050505b6040516001600160a01b038416907f68577adbb6b0647e21353ff032be5797d9fa0879ce7e05fe617e40368441f97d90600090a2505050565b6001600160a01b038216600090815260d06020526040902060028101805461ff0019169055600301544390811015611cca576001600160a01b038316600090815260d0602052604081206003018054849290611cbf908490612810565b909155506107e79050565b611cd48282612810565b6001600160a01b038416600090815260d06020526040902060030155505050565b600054610100900460ff16611d1c5760405162461bcd60e51b815260040161062790612a7f565b610981611eba565b6001600160a01b0381163b611d915760405162461bcd60e51b815260206004820152602d60248201527f455243313936373a206e657720696d706c656d656e746174696f6e206973206e60448201526c1bdd08184818dbdb9d1c9858dd609a1b6064820152608401610627565b600080516020612ae783398151915280546001600160a01b0319166001600160a01b0392909216919091179055565b611dc983611eea565b600082511180611dd65750805b156107e757610fbb8383611f2a565b6000611e3a826040518060400160405280602081526020017f5361666545524332303a206c6f772d6c6576656c2063616c6c206661696c6564815250856001600160a01b0316611f589092919063ffffffff16565b9050805160001480611e5b575080806020019051810190611e5b9190612928565b6107e75760405162461bcd60e51b815260206004820152602a60248201527f5361666545524332303a204552433230206f7065726174696f6e20646964206e6044820152691bdd081cdd58d8d9595960b21b6064820152608401610627565b600054610100900460ff16611ee15760405162461bcd60e51b815260040161062790612a7f565b61098133611a58565b611ef381611d24565b6040516001600160a01b038216907fbc7cd75a20ee27fd9adebab32041f755214dbc6bffa90cc0225b39da2e5c2d3b90600090a250565b6060611f4f8383604051806060016040528060278152602001612b0760279139611f6f565b90505b92915050565b6060611f678484600085611fe7565b949350505050565b6060600080856001600160a01b031685604051611f8c9190612aca565b600060405180830381855af49150503d8060008114611fc7576040519150601f19603f3d011682016040523d82523d6000602084013e611fcc565b606091505b5091509150611fdd868383876120c2565b9695505050505050565b6060824710156120485760405162461bcd60e51b815260206004820152602660248201527f416464726573733a20696e73756666696369656e742062616c616e636520666f6044820152651c8818d85b1b60d21b6064820152608401610627565b600080866001600160a01b031685876040516120649190612aca565b60006040518083038185875af1925050503d80600081146120a1576040519150601f19603f3d011682016040523d82523d6000602084013e6120a6565b606091505b50915091506120b7878383876120c2565b979650505050505050565b6060831561213157825160000361212a576001600160a01b0385163b61212a5760405162461bcd60e51b815260206004820152601d60248201527f416464726573733a2063616c6c20746f206e6f6e2d636f6e74726163740000006044820152606401610627565b5081611f67565b611f6783838151156121465781518083602001fd5b8060405162461bcd60e51b815260040161062791906121e7565b80356001600160a01b038116811461217757600080fd5b919050565b60006020828403121561218e57600080fd5b611f4f82612160565b60005b838110156121b257818101518382015260200161219a565b50506000910152565b600081518084526121d3816020860160208601612197565b601f01601f19169290920160200192915050565b602081526000611f4f60208301846121bb565b60008060008060008060c0878903121561221357600080fd5b61221c87612160565b955061222a60208801612160565b945061223860408801612160565b9350606087013592506080870135915060a087013590509295509295509295565b634e487b7160e01b600052604160045260246000fd5b604051601f8201601f1916810167ffffffffffffffff8111828210171561229857612298612259565b604052919050565b600082601f8301126122b157600080fd5b813567ffffffffffffffff8111156122cb576122cb612259565b6122de601f8201601f191660200161226f565b8181528460208386010111156122f357600080fd5b816020850160208301376000918101602001919091529392505050565b6000806040838503121561232357600080fd5b61232c83612160565b9150602083013567ffffffffffffffff81111561234857600080fd5b612354858286016122a0565b9150509250929050565b60006060828403121561237057600080fd5b6040516060810167ffffffffffffffff828210818311171561239457612394612259565b8160405282935084359150808211156123ac57600080fd5b506123b9858286016122a0565b82525060208301356020820152604083013560408201525092915050565b6000602082840312156123e957600080fd5b813567ffffffffffffffff81111561240057600080fd5b611f678482850161235e565b60008060006060848603121561242157600080fd5b61242a84612160565b95602085013595506040909401359392505050565b60008060006060848603121561245457600080fd5b833567ffffffffffffffff8082111561246c57600080fd5b818601915086601f83011261248057600080fd5b813560208282111561249457612494612259565b8160051b92506124a581840161226f565b828152928401810192818101908a8511156124bf57600080fd5b948201945b848610156124e4576124d586612160565b825294820194908201906124c4565b9a918901359950506040909701359695505050505050565b60008083601f84011261250e57600080fd5b50813567ffffffffffffffff81111561252657600080fd5b60208301915083602082850101111561253e57600080fd5b9250929050565b80151581146106c457600080fd5b6000806000806060858703121561256957600080fd5b843567ffffffffffffffff8082111561258157600080fd5b61258d888389016124fc565b9096509450602087013591506125a282612545565b909250604086013590808211156125b857600080fd5b506125c58782880161235e565b91505092959194509250565b602081526001600160a01b0382511660208201526000602083015160a0604084015261260060c08401826121bb565b9050604084015115156060840152606084015115156080840152608084015160a08401528091505092915050565b6000806040838503121561264157600080fd5b61264a83612160565b946020939093013593505050565b6000806020838503121561266b57600080fd5b823567ffffffffffffffff81111561268257600080fd5b61268e858286016124fc565b90969095509350505050565b600181811c908216806126ae57607f821691505b6020821081036126ce57634e487b7160e01b600052602260045260246000fd5b50919050565b634e487b7160e01b600052601160045260246000fd5b81810381811115611f5257611f526126d4565b6020808252602c908201527f46756e6374696f6e206d7573742062652063616c6c6564207468726f7567682060408201526b19195b1959d85d1958d85b1b60a21b606082015260800190565b6020808252602c908201527f46756e6374696f6e206d7573742062652063616c6c6564207468726f7567682060408201526b6163746976652070726f787960a01b606082015260800190565b6000602082840312156127a757600080fd5b5051919050565b6001600160a01b03831681526040602082015260008251606060408401526127d960a08401826121bb565b90506020840151606084015260408401516080840152809150509392505050565b634e487b7160e01b600052603260045260246000fd5b80820180821115611f5257611f526126d4565b600060018201612835576128356126d4565b5060010190565b81835281816020850137506000828201602090810191909152601f909101601f19169091010190565b602081526000611f6760208301848661283c565b60006080828403121561288b57600080fd5b82601f83011261289a57600080fd5b6040516080810181811067ffffffffffffffff821117156128bd576128bd612259565b6040528060808401858111156128d257600080fd5b845b818110156128ec5780518352602092830192016128d4565b509195945050505050565b60808101818360005b600481101561291f578151835260209283019290910190600101612900565b50505092915050565b60006020828403121561293a57600080fd5b815161294581612545565b9392505050565b601f8211156107e757600081815260208120601f850160051c810160208610156129735750805b601f850160051c820191505b818110156129925782815560010161297f565b505050505050565b67ffffffffffffffff8311156129b2576129b2612259565b6129c6836129c0835461269a565b8361294c565b6000601f8411600181146129fa57600085156129e25750838201355b600019600387901b1c1916600186901b178355612a54565b600083815260209020601f19861690835b82811015612a2b5786850135825560209485019460019092019101612a0b565b5086821015612a485760001960f88860031b161c19848701351681555b505060018560011b0183555b5050505050565b604081526000612a6f60408301858761283c565b9050826020830152949350505050565b6020808252602b908201527f496e697469616c697a61626c653a20636f6e7472616374206973206e6f74206960408201526a6e697469616c697a696e6760a81b606082015260800190565b60008251612adc818460208701612197565b919091019291505056fe360894a13ba1a3210667c828492db98dca3e2076cc3735a920a3ca505d382bbc416464726573733a206c6f772d6c6576656c2064656c65676174652063616c6c206661696c6564a2646970667358221220cd209c4fee28069f0146c8fcb3da163ec097c194c3121cbc6f4d6d213c6874bf64736f6c63430008120033","linkReferences":{"src/libraries/BLS.sol":{"BLS":[{"start":4393,"length":20},{"start":4518,"length":20},{"start":6036,"length":20},{"start":6161,"length":20}]}}},"methodIdentifiers":{"addReward(address[],uint256,uint256)":"914eb34d","changeDkgPublicKey(bytes)":"e275cde6","dismissNode(address,uint256)":"add60b4c","getDKGPublicKey(address)":"15dac9b2","getNode(address)":"9d209048","getNodeRegistryConfig()":"e40e744b","getNodeWithdrawableTokens(address)":"227d0f46","initialize(address)":"c4d66de8","nodeActivate((bytes,bytes32,uint256))":"8d2f3e6b","nodeQuit()":"7a2af56e","nodeRegister(bytes,bool,(bytes,bytes32,uint256))":"97fdcc28","nodeWithdraw(address)":"4ecea80d","owner()":"8da5cb5b","proxiableUUID()":"52d1902d","renounceOwnership()":"715018a6","setNodeRegistryConfig(address,address,address,uint256,uint256,uint256)":"33f010a1","slashNode(address,uint256,uint256)":"8ed47008","transferOwnership(address)":"f2fde38b","upgradeTo(address)":"3659cfe6","upgradeToAndCall(address,bytes)":"4f1ef286"},"id":102}