{"abi":[{"type":"constructor","inputs":[],"stateMutability":"nonpayable"},{"type":"function","name":"addReward","inputs":[{"name":"nodes","type":"address[]","internalType":"address[]"},{"name":"ethAmount","type":"uint256","internalType":"uint256"},{"name":"arpaAmount","type":"uint256","internalType":"uint256"}],"outputs":[],"stateMutability":"nonpayable"},{"type":"function","name":"changeDkgPublicKey","inputs":[{"name":"dkgPublicKey","type":"bytes","internalType":"bytes"}],"outputs":[],"stateMutability":"nonpayable"},{"type":"function","name":"getDKGPublicKey","inputs":[{"name":"nodeAddress","type":"address","internalType":"address"}],"outputs":[{"name":"","type":"bytes","internalType":"bytes"}],"stateMutability":"view"},{"type":"function","name":"getNode","inputs":[{"name":"nodeAddress","type":"address","internalType":"address"}],"outputs":[{"name":"","type":"tuple","internalType":"struct INodeRegistry.Node","components":[{"name":"idAddress","type":"address","internalType":"address"},{"name":"dkgPublicKey","type":"bytes","internalType":"bytes"},{"name":"isEigenlayerNode","type":"bool","internalType":"bool"},{"name":"state","type":"bool","internalType":"bool"},{"name":"pendingUntilBlock","type":"uint256","internalType":"uint256"}]}],"stateMutability":"view"},{"type":"function","name":"getNodeRegistryConfig","inputs":[],"outputs":[{"name":"controllerContractAddress","type":"address","internalType":"address"},{"name":"stakingContractAddress","type":"address","internalType":"address"},{"name":"serviceManagerContractAddress","type":"address","internalType":"address"},{"name":"nativeNodeStakingAmount","type":"uint256","internalType":"uint256"},{"name":"eigenlayerNodeStakingAmount","type":"uint256","internalType":"uint256"},{"name":"pendingBlockAfterQuit","type":"uint256","internalType":"uint256"}],"stateMutability":"view"},{"type":"function","name":"getNodeWithdrawableTokens","inputs":[{"name":"nodeAddress","type":"address","internalType":"address"}],"outputs":[{"name":"","type":"uint256","internalType":"uint256"},{"name":"","type":"uint256","internalType":"uint256"}],"stateMutability":"view"},{"type":"function","name":"initialize","inputs":[{"name":"arpa","type":"address","internalType":"address"}],"outputs":[],"stateMutability":"nonpayable"},{"type":"function","name":"nodeActivate","inputs":[],"outputs":[],"stateMutability":"nonpayable"},{"type":"function","name":"nodeQuit","inputs":[],"outputs":[],"stateMutability":"nonpayable"},{"type":"function","name":"nodeRegister","inputs":[{"name":"dkgPublicKey","type":"bytes","internalType":"bytes"},{"name":"isEigenlayerNode","type":"bool","internalType":"bool"},{"name":"operatorSignature","type":"tuple","internalType":"struct ISignatureUtils.SignatureWithSaltAndExpiry","components":[{"name":"signature","type":"bytes","internalType":"bytes"},{"name":"salt","type":"bytes32","internalType":"bytes32"},{"name":"expiry","type":"uint256","internalType":"uint256"}]}],"outputs":[],"stateMutability":"nonpayable"},{"type":"function","name":"nodeWithdraw","inputs":[{"name":"recipient","type":"address","internalType":"address"}],"outputs":[],"stateMutability":"nonpayable"},{"type":"function","name":"owner","inputs":[],"outputs":[{"name":"","type":"address","internalType":"address"}],"stateMutability":"view"},{"type":"function","name":"proxiableUUID","inputs":[],"outputs":[{"name":"","type":"bytes32","internalType":"bytes32"}],"stateMutability":"view"},{"type":"function","name":"renounceOwnership","inputs":[],"outputs":[],"stateMutability":"nonpayable"},{"type":"function","name":"setNodeRegistryConfig","inputs":[{"name":"controllerContractAddress","type":"address","internalType":"address"},{"name":"stakingContractAddress","type":"address","internalType":"address"},{"name":"serviceManagerContractAddress","type":"address","internalType":"address"},{"name":"nativeNodeStakingAmount","type":"uint256","internalType":"uint256"},{"name":"eigenlayerNodeStakingAmount","type":"uint256","internalType":"uint256"},{"name":"pendingBlockAfterQuit","type":"uint256","internalType":"uint256"}],"outputs":[],"stateMutability":"nonpayable"},{"type":"function","name":"slashNode","inputs":[{"name":"nodeIdAddress","type":"address","internalType":"address"},{"name":"stakingRewardPenalty","type":"uint256","internalType":"uint256"},{"name":"pendingBlock","type":"uint256","internalType":"uint256"}],"outputs":[],"stateMutability":"nonpayable"},{"type":"function","name":"transferOwnership","inputs":[{"name":"newOwner","type":"address","internalType":"address"}],"outputs":[],"stateMutability":"nonpayable"},{"type":"function","name":"upgradeTo","inputs":[{"name":"newImplementation","type":"address","internalType":"address"}],"outputs":[],"stateMutability":"nonpayable"},{"type":"function","name":"upgradeToAndCall","inputs":[{"name":"newImplementation","type":"address","internalType":"address"},{"name":"data","type":"bytes","internalType":"bytes"}],"outputs":[],"stateMutability":"payable"},{"type":"event","name":"AdminChanged","inputs":[{"name":"previousAdmin","type":"address","indexed":false,"internalType":"address"},{"name":"newAdmin","type":"address","indexed":false,"internalType":"address"}],"anonymous":false},{"type":"event","name":"BeaconUpgraded","inputs":[{"name":"beacon","type":"address","indexed":true,"internalType":"address"}],"anonymous":false},{"type":"event","name":"DkgPublicKeyChanged","inputs":[{"name":"nodeAddress","type":"address","indexed":true,"internalType":"address"},{"name":"dkgPublicKey","type":"bytes","indexed":false,"internalType":"bytes"}],"anonymous":false},{"type":"event","name":"Initialized","inputs":[{"name":"version","type":"uint8","indexed":false,"internalType":"uint8"}],"anonymous":false},{"type":"event","name":"NodeActivated","inputs":[{"name":"nodeAddress","type":"address","indexed":true,"internalType":"address"},{"name":"groupIndex","type":"uint256","indexed":false,"internalType":"uint256"}],"anonymous":false},{"type":"event","name":"NodeQuit","inputs":[{"name":"nodeAddress","type":"address","indexed":true,"internalType":"address"}],"anonymous":false},{"type":"event","name":"NodeRegistered","inputs":[{"name":"nodeAddress","type":"address","indexed":true,"internalType":"address"},{"name":"dkgPublicKey","type":"bytes","indexed":false,"internalType":"bytes"},{"name":"groupIndex","type":"uint256","indexed":false,"internalType":"uint256"}],"anonymous":false},{"type":"event","name":"NodeRewarded","inputs":[{"name":"nodeAddress","type":"address","indexed":true,"internalType":"address"},{"name":"ethAmount","type":"uint256","indexed":false,"internalType":"uint256"},{"name":"arpaAmount","type":"uint256","indexed":false,"internalType":"uint256"}],"anonymous":false},{"type":"event","name":"NodeSlashed","inputs":[{"name":"nodeIdAddress","type":"address","indexed":true,"internalType":"address"},{"name":"stakingRewardPenalty","type":"uint256","indexed":false,"internalType":"uint256"},{"name":"pendingBlock","type":"uint256","indexed":false,"internalType":"uint256"}],"anonymous":false},{"type":"event","name":"OwnershipTransferred","inputs":[{"name":"previousOwner","type":"address","indexed":true,"internalType":"address"},{"name":"newOwner","type":"address","indexed":true,"internalType":"address"}],"anonymous":false},{"type":"event","name":"Upgraded","inputs":[{"name":"implementation","type":"address","indexed":true,"internalType":"address"}],"anonymous":false},{"type":"error","name":"InvalidPublicKey","inputs":[]},{"type":"error","name":"InvalidZeroAddress","inputs":[]},{"type":"error","name":"NodeAlreadyActive","inputs":[]},{"type":"error","name":"NodeAlreadyRegistered","inputs":[]},{"type":"error","name":"NodeNotRegistered","inputs":[]},{"type":"error","name":"NodeStillPending","inputs":[{"name":"pendingUntilBlock","type":"uint256","internalType":"uint256"}]},{"type":"error","name":"OperatorUnderStaking","inputs":[]},{"type":"error","name":"SenderNotController","inputs":[]}],"bytecode":{"object":"0x60a0604052306080523480156200001557600080fd5b506200002062000026565b620000e7565b600054610100900460ff1615620000935760405162461bcd60e51b815260206004820152602760248201527f496e697469616c697a61626c653a20636f6e747261637420697320696e697469604482015266616c697a696e6760c81b606482015260840160405180910390fd5b60005460ff90811614620000e5576000805460ff191660ff9081179091556040519081527f7f26b83ff96e1f2b6a682f133852f6798a09c465da95921460cefb38474024989060200160405180910390a15b565b608051612a316200011f600039600081816105b3015281816105fc015281816107c00152818161080001526108930152612a316000f3fe6080604052600436106101145760003560e01c80638da5cb5b116100a05780639d209048116100645780639d209048146102e3578063c4d66de814610310578063e275cde614610330578063e40e744b14610350578063f2fde38b146103b057600080fd5b80638da5cb5b146102465780638ed470081461026e578063914eb34d1461028e57806397fdcc28146102ae5780639a075bc3146102ce57600080fd5b80634ecea80d116100e75780634ecea80d146101c65780634f1ef286146101e657806352d1902d146101f9578063715018a61461021c5780637a2af56e1461023157600080fd5b806315dac9b214610119578063227d0f461461014f57806333f010a1146101845780633659cfe6146101a6575b600080fd5b34801561012557600080fd5b506101396101343660046120b5565b6103d0565b6040516101469190612120565b60405180910390f35b34801561015b57600080fd5b5061016f61016a3660046120b5565b61047f565b60408051928352602083019190915201610146565b34801561019057600080fd5b506101a461019f366004612133565b610520565b005b3480156101b257600080fd5b506101a46101c13660046120b5565b6105a9565b3480156101d257600080fd5b506101a46101e13660046120b5565b610691565b6101a46101f4366004612272565b6107b6565b34801561020557600080fd5b5061020e610886565b604051908152602001610146565b34801561022857600080fd5b506101a4610939565b34801561023d57600080fd5b506101a461094d565b34801561025257600080fd5b506097546040516001600160a01b039091168152602001610146565b34801561027a57600080fd5b506101a46102893660046122c0565b610afa565b34801561029a57600080fd5b506101a46102a93660046122f3565b610c71565b3480156102ba57600080fd5b506101a46102c9366004612407565b610dcf565b3480156102da57600080fd5b506101a46111b3565b3480156102ef57600080fd5b506103036102fe3660046120b5565b6114a8565b60405161014691906124c9565b34801561031c57600080fd5b506101a461032b3660046120b5565b6115c2565b34801561033c57600080fd5b506101a461034b366004612526565b6116ee565b34801561035c57600080fd5b5060c95460ca5460cb5460cc5460cd5460ce54604080516001600160a01b039788168152958716602087015295909316948401949094526060830152608082019290925260a081019190915260c001610146565b3480156103bc57600080fd5b506101a46103cb3660046120b5565b6118b4565b6001600160a01b038116600090815260d0602052604090206001018054606091906103fa90612568565b80601f016020809104026020016040519081016040528092919081815260200182805461042690612568565b80156104735780601f1061044857610100808354040283529160200191610473565b820191906000526020600020905b81548152906001019060200180831161045657829003601f168201915b50505050509050919050565b6001600160a01b038116600090815260d160205260408120548190156104c9576001600160a01b038316600090815260d160205260409020546104c4906001906125b8565b6104cc565b60005b6001600160a01b038416600090815260d2602052604090205415610514576001600160a01b038416600090815260d2602052604090205461050f906001906125b8565b610517565b60005b91509150915091565b61052861192a565b6040805160c0810182526001600160a01b039788168082529688166020820181905295909716908701819052606087018490526080870183905260a090960181905260c980546001600160a01b0319908116909617905560ca8054861690941790935560cb805490941690941790925560cc9190915560cd9190915560ce55565b6001600160a01b037f00000000000000000000000000000000000000000000000000000000000000001630036105fa5760405162461bcd60e51b81526004016105f1906125cb565b60405180910390fd5b7f00000000000000000000000000000000000000000000000000000000000000006001600160a01b03166106436000805160206129b5833981519152546001600160a01b031690565b6001600160a01b0316146106695760405162461bcd60e51b81526004016105f190612617565b61067281611984565b6040805160008082526020820190925261068e9183919061198c565b50565b6001600160a01b0381166106b85760405163f6b2911f60e01b815260040160405180910390fd5b33600090815260d1602090815260408083205460d29092529091205460018111156107155733600090815260d26020526040902060019081905561071590849061070290846125b8565b60cf546001600160a01b03169190611af7565b60018211156107b15733600090815260d16020526040902060019081905560c9546001600160a01b031690630ad98f6a90859061075290866125b8565b6040516001600160e01b031960e085901b1681526001600160a01b0390921660048301526024820152604401600060405180830381600087803b15801561079857600080fd5b505af11580156107ac573d6000803e3d6000fd5b505050505b505050565b6001600160a01b037f00000000000000000000000000000000000000000000000000000000000000001630036107fe5760405162461bcd60e51b81526004016105f1906125cb565b7f00000000000000000000000000000000000000000000000000000000000000006001600160a01b03166108476000805160206129b5833981519152546001600160a01b031690565b6001600160a01b03161461086d5760405162461bcd60e51b81526004016105f190612617565b61087682611984565b6108828282600161198c565b5050565b6000306001600160a01b037f000000000000000000000000000000000000000000000000000000000000000016146109265760405162461bcd60e51b815260206004820152603860248201527f555550535570677261646561626c653a206d757374206e6f742062652063616c60448201527f6c6564207468726f7567682064656c656761746563616c6c000000000000000060648201526084016105f1565b506000805160206129b583398151915290565b61094161192a565b61094b6000611b49565b565b33600081815260d060205260409020805490916001600160a01b0390911614610988576040516229eaad60e31b815260040160405180910390fd5b60c9546040516335fe4a3f60e01b81523360048201526001600160a01b03909116906335fe4a3f90602401600060405180830381600087803b1580156109cd57600080fd5b505af11580156109e1573d6000803e3d6000fd5b505050506109f43360c960050154611b9b565b600281015460ff1615610a635760ca54604051636c67cc6560e11b81523360048201526001600160a01b039091169063d8cf98ca90602401600060405180830381600087803b158015610a4657600080fd5b505af1158015610a5a573d6000803e3d6000fd5b50505050610acc565b60ca5460cc54604051637eee288d60e01b815233600482015260248101919091526001600160a01b0390911690637eee288d90604401600060405180830381600087803b158015610ab357600080fd5b505af1158015610ac7573d6000803e3d6000fd5b505050505b60405133907f68577adbb6b0647e21353ff032be5797d9fa0879ce7e05fe617e40368441f97d90600090a250565b60c9546001600160a01b03163314610b2557604051630f5caa3360e41b815260040160405180910390fd5b6001600160a01b038316600090815260d060205260409020600281015460ff1615610bb55760ca54604051632955713760e01b81526001600160a01b0386811660048301526024820186905290911690632955713790604401600060405180830381600087803b158015610b9857600080fd5b505af1158015610bac573d6000803e3d6000fd5b50505050610c1c565b60ca54604051638899fdeb60e01b81526001600160a01b0386811660048301526024820186905290911690638899fdeb90604401600060405180830381600087803b158015610c0357600080fd5b505af1158015610c17573d6000803e3d6000fd5b505050505b610c268483611b9b565b60408051848152602081018490526001600160a01b038616917fa8d720d0a0a2e7c96bf9eb87433901ebb6331356c8f3283b2568de34478703cc91015b60405180910390a250505050565b60c9546001600160a01b03163314610c9c57604051630f5caa3360e41b815260040160405180910390fd5b60005b8351811015610dc9578260d16000868481518110610cbf57610cbf612663565b60200260200101516001600160a01b03166001600160a01b031681526020019081526020016000206000828254610cf69190612679565b925050819055508160d26000868481518110610d1457610d14612663565b60200260200101516001600160a01b03166001600160a01b031681526020019081526020016000206000828254610d4b9190612679565b92505081905550838181518110610d6457610d64612663565b60200260200101516001600160a01b03167f8353a804115421789f3ab2eeb3f5215943906ce12100c91d40fc865caf742b6f8484604051610daf929190918252602082015260400190565b60405180910390a280610dc18161268c565b915050610c9f565b50505050565b33600090815260d060205260409020546001600160a01b031615610e0657604051630eb0d31360e11b815260040160405180910390fd5b6040516316f6db8160e01b815260009073__$34d23ddaee48904c6c566425acbfa0fc0e$__906316f6db8190610e4290889088906004016126ce565b608060405180830381865af4158015610e5f573d6000803e3d6000fd5b505050506040513d601f19601f82011682018060405250810190610e8391906126e2565b604051636fda2c7960e01b815290915073__$34d23ddaee48904c6c566425acbfa0fc0e$__90636fda2c7990610ebd908490600401612760565b602060405180830381865af4158015610eda573d6000803e3d6000fd5b505050506040513d601f19601f82011682018060405250810190610efe9190612791565b610f1b5760405163145a1fdd60e31b815260040160405180910390fd5b821561101e5760ca54604051637b4ffbbd60e01b81523360048201526000916001600160a01b031690637b4ffbbd90602401602060405180830381865afa158015610f6a573d6000803e3d6000fd5b505050506040513d601f19601f82011682018060405250810190610f8e91906127b5565b60cc54909150811015610fb45760405163696aeee160e11b815260040160405180910390fd5b60ca5460405163aa2bcdbd60e01b81526001600160a01b039091169063aa2bcdbd90610fe690339087906004016127ce565b600060405180830381600087803b15801561100057600080fd5b505af1158015611014573d6000803e3d6000fd5b5050505050611087565b60ca5460cc5460405163282d3fdf60e01b815233600482015260248101919091526001600160a01b039091169063282d3fdf90604401600060405180830381600087803b15801561106e57600080fd5b505af1158015611082573d6000803e3d6000fd5b505050505b33600081815260d06020526040902080546001600160a01b0319169091178155600181016110b6868883612868565b5060028101805461010061ffff199091168615151717905533600081815260d16020908152604080832060019081905560d29092528083209190915560c954905163ed157c3f60e01b8152600481019390935290916001600160a01b039091169063ed157c3f906024016020604051808303816000875af115801561113f573d6000803e3d6000fd5b505050506040513d601f19601f8201168201806040525081019061116391906127b5565b9050336001600160a01b03167fd4ec586f4f9f417f99e20fe821fbaa10a10a4b95f8712a0c57c6d8ed970e98bd8888846040516111a293929190612929565b60405180910390a250505050505050565b33600081815260d060205260409020805490916001600160a01b03909116146111ee576040516229eaad60e31b815260040160405180910390fd5b6002810154610100900460ff1615611219576040516324a228bb60e21b815260040160405180910390fd5b43816003015411156112465780600301546040516363525acb60e11b81526004016105f191815260200190565b600281015460ff16156112ec5760ca54604051637b4ffbbd60e01b81523360048201526000916001600160a01b031690637b4ffbbd90602401602060405180830381865afa15801561129c573d6000803e3d6000fd5b505050506040513d601f19601f820116820180604052508101906112c091906127b5565b60cc549091508110156112e65760405163696aeee160e11b815260040160405180910390fd5b506113ec565b60ca5460405163929ec53760e01b81523360048201526000916001600160a01b03169063929ec53790602401602060405180830381865afa158015611335573d6000803e3d6000fd5b505050506040513d601f19601f8201168201806040525081019061135991906127b5565b60cc549091508110156113ea5760ca5460cc546001600160a01b039091169063282d3fdf90339061138b9085906125b8565b6040516001600160e01b031960e085901b1681526001600160a01b0390921660048301526024820152604401600060405180830381600087803b1580156113d157600080fd5b505af11580156113e5573d6000803e3d6000fd5b505050505b505b60028101805461ff00191661010017905560c95460405163ed157c3f60e01b81523360048201526000916001600160a01b03169063ed157c3f906024016020604051808303816000875af1158015611448573d6000803e3d6000fd5b505050506040513d601f19601f8201168201806040525081019061146c91906127b5565b60405181815290915033907ffc97cd9154b40031874ef09a9436a4b60052e4dcf40f21b1258be265fac4a3979060200160405180910390a25050565b6040805160a08082018352600080835260606020808501829052848601839052908401829052608084018290526001600160a01b03868116835260d0825291859020855193840190955284549091168252600184018054939492939184019161151090612568565b80601f016020809104026020016040519081016040528092919081815260200182805461153c90612568565b80156115895780601f1061155e57610100808354040283529160200191611589565b820191906000526020600020905b81548152906001019060200180831161156c57829003601f168201915b5050509183525050600282015460ff80821615156020840152610100909104161515604082015260039091015460609091015292915050565b600054610100900460ff16158080156115e25750600054600160ff909116105b806115fc5750303b1580156115fc575060005460ff166001145b61165f5760405162461bcd60e51b815260206004820152602e60248201527f496e697469616c697a61626c653a20636f6e747261637420697320616c72656160448201526d191e481a5b9a5d1a585b1a5e995960921b60648201526084016105f1565b6000805460ff191660011790558015611682576000805461ff0019166101001790555b60cf80546001600160a01b0319166001600160a01b0384161790556116a5611c2e565b8015610882576000805461ff0019169055604051600181527f7f26b83ff96e1f2b6a682f133852f6798a09c465da95921460cefb38474024989060200160405180910390a15050565b33600081815260d060205260409020805490916001600160a01b0390911614611729576040516229eaad60e31b815260040160405180910390fd5b6002810154610100900460ff1615611754576040516324a228bb60e21b815260040160405180910390fd5b6040516316f6db8160e01b815260009073__$34d23ddaee48904c6c566425acbfa0fc0e$__906316f6db819061179090879087906004016126ce565b608060405180830381865af41580156117ad573d6000803e3d6000fd5b505050506040513d601f19601f820116820180604052508101906117d191906126e2565b604051636fda2c7960e01b815290915073__$34d23ddaee48904c6c566425acbfa0fc0e$__90636fda2c799061180b908490600401612760565b602060405180830381865af4158015611828573d6000803e3d6000fd5b505050506040513d601f19601f8201168201806040525081019061184c9190612791565b6118695760405163145a1fdd60e31b815260040160405180910390fd5b60018201611878848683612868565b50336001600160a01b03167f4a327ac4843af7a9586b5a2a2c312bd17289ae1d70da32855ed539fe39f86a508585604051610c639291906126ce565b6118bc61192a565b6001600160a01b0381166119215760405162461bcd60e51b815260206004820152602660248201527f4f776e61626c653a206e6577206f776e657220697320746865207a65726f206160448201526564647265737360d01b60648201526084016105f1565b61068e81611b49565b6097546001600160a01b0316331461094b5760405162461bcd60e51b815260206004820181905260248201527f4f776e61626c653a2063616c6c6572206973206e6f7420746865206f776e657260448201526064016105f1565b61068e61192a565b7f4910fdfa16fed3260ed0e7147f7cc6da11a60208b5b9406d12a635614ffd91435460ff16156119bf576107b183611c5d565b826001600160a01b03166352d1902d6040518163ffffffff1660e01b8152600401602060405180830381865afa925050508015611a19575060408051601f3d908101601f19168201909252611a16918101906127b5565b60015b611a7c5760405162461bcd60e51b815260206004820152602e60248201527f45524331393637557067726164653a206e657720696d706c656d656e7461746960448201526d6f6e206973206e6f74205555505360901b60648201526084016105f1565b6000805160206129b58339815191528114611aeb5760405162461bcd60e51b815260206004820152602960248201527f45524331393637557067726164653a20756e737570706f727465642070726f786044820152681a58589b195555525160ba1b60648201526084016105f1565b506107b1838383611cf9565b604080516001600160a01b038416602482015260448082018490528251808303909101815260649091019091526020810180516001600160e01b031663a9059cbb60e01b1790526107b1908490611d1e565b609780546001600160a01b038381166001600160a01b0319831681179093556040519116919082907f8be0079c531659141344cd1fd0a4f28419497f9722a3daafe3b4186f6b6457e090600090a35050565b6001600160a01b038216600090815260d06020526040902060028101805461ff0019169055600301544390811015611c03576001600160a01b038316600090815260d0602052604081206003018054849290611bf8908490612679565b909155506107b19050565b611c0d8282612679565b6001600160a01b038416600090815260d06020526040902060030155505050565b600054610100900460ff16611c555760405162461bcd60e51b81526004016105f19061294d565b61094b611df3565b6001600160a01b0381163b611cca5760405162461bcd60e51b815260206004820152602d60248201527f455243313936373a206e657720696d706c656d656e746174696f6e206973206e60448201526c1bdd08184818dbdb9d1c9858dd609a1b60648201526084016105f1565b6000805160206129b583398151915280546001600160a01b0319166001600160a01b0392909216919091179055565b611d0283611e23565b600082511180611d0f5750805b156107b157610dc98383611e63565b6000611d73826040518060400160405280602081526020017f5361666545524332303a206c6f772d6c6576656c2063616c6c206661696c6564815250856001600160a01b0316611e919092919063ffffffff16565b9050805160001480611d94575080806020019051810190611d949190612791565b6107b15760405162461bcd60e51b815260206004820152602a60248201527f5361666545524332303a204552433230206f7065726174696f6e20646964206e6044820152691bdd081cdd58d8d9595960b21b60648201526084016105f1565b600054610100900460ff16611e1a5760405162461bcd60e51b81526004016105f19061294d565b61094b33611b49565b611e2c81611c5d565b6040516001600160a01b038216907fbc7cd75a20ee27fd9adebab32041f755214dbc6bffa90cc0225b39da2e5c2d3b90600090a250565b6060611e8883836040518060600160405280602781526020016129d560279139611ea8565b90505b92915050565b6060611ea08484600085611f20565b949350505050565b6060600080856001600160a01b031685604051611ec59190612998565b600060405180830381855af49150503d8060008114611f00576040519150601f19603f3d011682016040523d82523d6000602084013e611f05565b606091505b5091509150611f1686838387611ffb565b9695505050505050565b606082471015611f815760405162461bcd60e51b815260206004820152602660248201527f416464726573733a20696e73756666696369656e742062616c616e636520666f6044820152651c8818d85b1b60d21b60648201526084016105f1565b600080866001600160a01b03168587604051611f9d9190612998565b60006040518083038185875af1925050503d8060008114611fda576040519150601f19603f3d011682016040523d82523d6000602084013e611fdf565b606091505b5091509150611ff087838387611ffb565b979650505050505050565b6060831561206a578251600003612063576001600160a01b0385163b6120635760405162461bcd60e51b815260206004820152601d60248201527f416464726573733a2063616c6c20746f206e6f6e2d636f6e747261637400000060448201526064016105f1565b5081611ea0565b611ea0838381511561207f5781518083602001fd5b8060405162461bcd60e51b81526004016105f19190612120565b80356001600160a01b03811681146120b057600080fd5b919050565b6000602082840312156120c757600080fd5b611e8882612099565b60005b838110156120eb5781810151838201526020016120d3565b50506000910152565b6000815180845261210c8160208601602086016120d0565b601f01601f19169290920160200192915050565b602081526000611e8860208301846120f4565b60008060008060008060c0878903121561214c57600080fd5b61215587612099565b955061216360208801612099565b945061217160408801612099565b9350606087013592506080870135915060a087013590509295509295509295565b634e487b7160e01b600052604160045260246000fd5b6040516060810167ffffffffffffffff811182821017156121cb576121cb612192565b60405290565b604051601f8201601f1916810167ffffffffffffffff811182821017156121fa576121fa612192565b604052919050565b600082601f83011261221357600080fd5b813567ffffffffffffffff81111561222d5761222d612192565b612240601f8201601f19166020016121d1565b81815284602083860101111561225557600080fd5b816020850160208301376000918101602001919091529392505050565b6000806040838503121561228557600080fd5b61228e83612099565b9150602083013567ffffffffffffffff8111156122aa57600080fd5b6122b685828601612202565b9150509250929050565b6000806000606084860312156122d557600080fd5b6122de84612099565b95602085013595506040909401359392505050565b60008060006060848603121561230857600080fd5b833567ffffffffffffffff8082111561232057600080fd5b818601915086601f83011261233457600080fd5b813560208282111561234857612348612192565b8160051b92506123598184016121d1565b828152928401810192818101908a85111561237357600080fd5b948201945b848610156123985761238986612099565b82529482019490820190612378565b9a918901359950506040909701359695505050505050565b60008083601f8401126123c257600080fd5b50813567ffffffffffffffff8111156123da57600080fd5b6020830191508360208285010111156123f257600080fd5b9250929050565b801515811461068e57600080fd5b6000806000806060858703121561241d57600080fd5b843567ffffffffffffffff8082111561243557600080fd5b612441888389016123b0565b909650945060208701359150612456826123f9565b9092506040860135908082111561246c57600080fd5b908601906060828903121561248057600080fd5b6124886121a8565b82358281111561249757600080fd5b6124a38a828601612202565b825250602083013560208201526040830135604082015280935050505092959194509250565b602081526001600160a01b0382511660208201526000602083015160a060408401526124f860c08401826120f4565b9050604084015115156060840152606084015115156080840152608084015160a08401528091505092915050565b6000806020838503121561253957600080fd5b823567ffffffffffffffff81111561255057600080fd5b61255c858286016123b0565b90969095509350505050565b600181811c9082168061257c57607f821691505b60208210810361259c57634e487b7160e01b600052602260045260246000fd5b50919050565b634e487b7160e01b600052601160045260246000fd5b81810381811115611e8b57611e8b6125a2565b6020808252602c908201527f46756e6374696f6e206d7573742062652063616c6c6564207468726f7567682060408201526b19195b1959d85d1958d85b1b60a21b606082015260800190565b6020808252602c908201527f46756e6374696f6e206d7573742062652063616c6c6564207468726f7567682060408201526b6163746976652070726f787960a01b606082015260800190565b634e487b7160e01b600052603260045260246000fd5b80820180821115611e8b57611e8b6125a2565b60006001820161269e5761269e6125a2565b5060010190565b81835281816020850137506000828201602090810191909152601f909101601f19169091010190565b602081526000611ea06020830184866126a5565b6000608082840312156126f457600080fd5b82601f83011261270357600080fd5b6040516080810181811067ffffffffffffffff8211171561272657612726612192565b60405280608084018581111561273b57600080fd5b845b8181101561275557805183526020928301920161273d565b509195945050505050565b60808101818360005b6004811015612788578151835260209283019290910190600101612769565b50505092915050565b6000602082840312156127a357600080fd5b81516127ae816123f9565b9392505050565b6000602082840312156127c757600080fd5b5051919050565b6001600160a01b03831681526040602082015260008251606060408401526127f960a08401826120f4565b90506020840151606084015260408401516080840152809150509392505050565b601f8211156107b157600081815260208120601f850160051c810160208610156128415750805b601f850160051c820191505b818110156128605782815560010161284d565b505050505050565b67ffffffffffffffff83111561288057612880612192565b6128948361288e8354612568565b8361281a565b6000601f8411600181146128c857600085156128b05750838201355b600019600387901b1c1916600186901b178355612922565b600083815260209020601f19861690835b828110156128f957868501358255602094850194600190920191016128d9565b50868210156129165760001960f88860031b161c19848701351681555b505060018560011b0183555b5050505050565b60408152600061293d6040830185876126a5565b9050826020830152949350505050565b6020808252602b908201527f496e697469616c697a61626c653a20636f6e7472616374206973206e6f74206960408201526a6e697469616c697a696e6760a81b606082015260800190565b600082516129aa8184602087016120d0565b919091019291505056fe360894a13ba1a3210667c828492db98dca3e2076cc3735a920a3ca505d382bbc416464726573733a206c6f772d6c6576656c2064656c65676174652063616c6c206661696c6564a2646970667358221220af988ae1778aa55bd9d3eb8532277b92ac638328e86f2b09e99a0e681c9a590e64736f6c63430008120033","linkReferences":{"src/libraries/BLS.sol":{"BLS":[{"start":3895,"length":20},{"start":4020,"length":20},{"start":6277,"length":20},{"start":6402,"length":20}]}}},"methodIdentifiers":{"addReward(address[],uint256,uint256)":"914eb34d","changeDkgPublicKey(bytes)":"e275cde6","getDKGPublicKey(address)":"15dac9b2","getNode(address)":"9d209048","getNodeRegistryConfig()":"e40e744b","getNodeWithdrawableTokens(address)":"227d0f46","initialize(address)":"c4d66de8","nodeActivate()":"9a075bc3","nodeQuit()":"7a2af56e","nodeRegister(bytes,bool,(bytes,bytes32,uint256))":"97fdcc28","nodeWithdraw(address)":"4ecea80d","owner()":"8da5cb5b","proxiableUUID()":"52d1902d","renounceOwnership()":"715018a6","setNodeRegistryConfig(address,address,address,uint256,uint256,uint256)":"33f010a1","slashNode(address,uint256,uint256)":"8ed47008","transferOwnership(address)":"f2fde38b","upgradeTo(address)":"3659cfe6","upgradeToAndCall(address,bytes)":"4f1ef286"},"id":102}