{
  "abi": [
    {
      "type": "constructor",
      "inputs": [],
      "stateMutability": "nonpayable"
    },
    {
      "type": "function",
      "name": "avsDirectory",
      "inputs": [],
      "outputs": [
        {
          "name": "",
          "type": "address",
          "internalType": "contract IAVSDirectory"
        }
      ],
      "stateMutability": "view"
    },
    {
      "type": "function",
      "name": "delegationManager",
      "inputs": [],
      "outputs": [
        {
          "name": "",
          "type": "address",
          "internalType": "contract IDelegationManager"
        }
      ],
      "stateMutability": "view"
    },
    {
      "type": "function",
      "name": "deregisterOperator",
      "inputs": [
        {
          "name": "operator",
          "type": "address",
          "internalType": "address"
        }
      ],
      "outputs": [],
      "stateMutability": "nonpayable"
    },
    {
      "type": "function",
      "name": "getOperatorRestakedStrategies",
      "inputs": [
        {
          "name": "operator",
          "type": "address",
          "internalType": "address"
        }
      ],
      "outputs": [
        {
          "name": "",
          "type": "address[]",
          "internalType": "address[]"
        }
      ],
      "stateMutability": "view"
    },
    {
      "type": "function",
      "name": "getOperatorShare",
      "inputs": [
        {
          "name": "operator",
          "type": "address",
          "internalType": "address"
        }
      ],
      "outputs": [
        {
          "name": "",
          "type": "uint256",
          "internalType": "uint256"
        }
      ],
      "stateMutability": "view"
    },
    {
      "type": "function",
      "name": "getRestakeableStrategies",
      "inputs": [],
      "outputs": [
        {
          "name": "",
          "type": "address[]",
          "internalType": "address[]"
        }
      ],
      "stateMutability": "view"
    },
    {
      "type": "function",
      "name": "initialize",
      "inputs": [
        {
          "name": "_nodeRegistryAddress",
          "type": "address",
          "internalType": "address"
        },
        {
          "name": "_strategyAddress",
          "type": "address",
          "internalType": "address"
        },
        {
          "name": "_avsDirectory",
          "type": "address",
          "internalType": "address"
        },
        {
          "name": "_delegationManager",
          "type": "address",
          "internalType": "address"
        }
      ],
      "outputs": [],
      "stateMutability": "nonpayable"
    },
    {
      "type": "function",
      "name": "nodeRegistryAddress",
      "inputs": [],
      "outputs": [
        {
          "name": "",
          "type": "address",
          "internalType": "address"
        }
      ],
      "stateMutability": "view"
    },
    {
      "type": "function",
      "name": "owner",
      "inputs": [],
      "outputs": [
        {
          "name": "",
          "type": "address",
          "internalType": "address"
        }
      ],
      "stateMutability": "view"
    },
    {
      "type": "function",
      "name": "proxiableUUID",
      "inputs": [],
      "outputs": [
        {
          "name": "",
          "type": "bytes32",
          "internalType": "bytes32"
        }
      ],
      "stateMutability": "view"
    },
    {
      "type": "function",
      "name": "registerOperator",
      "inputs": [
        {
          "name": "operator",
          "type": "address",
          "internalType": "address"
        },
        {
          "name": "operatorSignature",
          "type": "tuple",
          "internalType": "struct ISignatureUtils.SignatureWithSaltAndExpiry",
          "components": [
            {
              "name": "signature",
              "type": "bytes",
              "internalType": "bytes"
            },
            {
              "name": "salt",
              "type": "bytes32",
              "internalType": "bytes32"
            },
            {
              "name": "expiry",
              "type": "uint256",
              "internalType": "uint256"
            }
          ]
        }
      ],
      "outputs": [],
      "stateMutability": "nonpayable"
    },
    {
      "type": "function",
      "name": "renounceOwnership",
      "inputs": [],
      "outputs": [],
      "stateMutability": "nonpayable"
    },
    {
      "type": "function",
      "name": "slashDelegationStaking",
      "inputs": [
        {
          "name": "operator",
          "type": "address",
          "internalType": "address"
        },
        {
          "name": "amount",
          "type": "uint256",
          "internalType": "uint256"
        }
      ],
      "outputs": [],
      "stateMutability": "nonpayable"
    },
    {
      "type": "function",
      "name": "strategy",
      "inputs": [
        {
          "name": "",
          "type": "uint256",
          "internalType": "uint256"
        }
      ],
      "outputs": [
        {
          "name": "",
          "type": "address",
          "internalType": "address"
        }
      ],
      "stateMutability": "view"
    },
    {
      "type": "function",
      "name": "transferOwnership",
      "inputs": [
        {
          "name": "newOwner",
          "type": "address",
          "internalType": "address"
        }
      ],
      "outputs": [],
      "stateMutability": "nonpayable"
    },
    {
      "type": "function",
      "name": "updateAVSMetadataURI",
      "inputs": [
        {
          "name": "_metadataURI",
          "type": "string",
          "internalType": "string"
        }
      ],
      "outputs": [],
      "stateMutability": "nonpayable"
    },
    {
      "type": "function",
      "name": "upgradeTo",
      "inputs": [
        {
          "name": "newImplementation",
          "type": "address",
          "internalType": "address"
        }
      ],
      "outputs": [],
      "stateMutability": "nonpayable"
    },
    {
      "type": "function",
      "name": "upgradeToAndCall",
      "inputs": [
        {
          "name": "newImplementation",
          "type": "address",
          "internalType": "address"
        },
        {
          "name": "data",
          "type": "bytes",
          "internalType": "bytes"
        }
      ],
      "outputs": [],
      "stateMutability": "payable"
    },
    {
      "type": "event",
      "name": "AdminChanged",
      "inputs": [
        {
          "name": "previousAdmin",
          "type": "address",
          "indexed": false,
          "internalType": "address"
        },
        {
          "name": "newAdmin",
          "type": "address",
          "indexed": false,
          "internalType": "address"
        }
      ],
      "anonymous": false
    },
    {
      "type": "event",
      "name": "BeaconUpgraded",
      "inputs": [
        {
          "name": "beacon",
          "type": "address",
          "indexed": true,
          "internalType": "address"
        }
      ],
      "anonymous": false
    },
    {
      "type": "event",
      "name": "Initialized",
      "inputs": [
        {
          "name": "version",
          "type": "uint8",
          "indexed": false,
          "internalType": "uint8"
        }
      ],
      "anonymous": false
    },
    {
      "type": "event",
      "name": "OperatorSlashed",
      "inputs": [
        {
          "name": "operator",
          "type": "address",
          "indexed": true,
          "internalType": "address"
        },
        {
          "name": "stakingPenalty",
          "type": "uint256",
          "indexed": false,
          "internalType": "uint256"
        }
      ],
      "anonymous": false
    },
    {
      "type": "event",
      "name": "OwnershipTransferred",
      "inputs": [
        {
          "name": "previousOwner",
          "type": "address",
          "indexed": true,
          "internalType": "address"
        },
        {
          "name": "newOwner",
          "type": "address",
          "indexed": true,
          "internalType": "address"
        }
      ],
      "anonymous": false
    },
    {
      "type": "event",
      "name": "Upgraded",
      "inputs": [
        {
          "name": "implementation",
          "type": "address",
          "indexed": true,
          "internalType": "address"
        }
      ],
      "anonymous": false
    },
    {
      "type": "error",
      "name": "SenderNotNodeRegistry",
      "inputs": []
    }
  ],
  "bytecode": {
    "object": "0x60a06040523060805234801561001457600080fd5b5061001d610022565b6100e1565b600054610100900460ff161561008e5760405162461bcd60e51b815260206004820152602760248201527f496e697469616c697a61626c653a20636f6e747261637420697320696e697469604482015266616c697a696e6760c81b606482015260840160405180910390fd5b60005460ff908116146100df576000805460ff191660ff9081179091556040519081527f7f26b83ff96e1f2b6a682f133852f6798a09c465da95921460cefb38474024989060200160405180910390a15b565b6080516116d561011860003960008181610565015281816105ae0152818161064d0152818161068d015261072001526116d56000f3fe6080604052600436106101095760003560e01c8063a98fb35511610095578063e481af9d11610064578063e481af9d146102c7578063ea4d3c9b146102dc578063f2fde38b146102fc578063f8c8765e1461031c578063fec10aa91461033c57600080fd5b8063a98fb35514610247578063aa2bcdbd14610267578063bc88d7e414610287578063d8cf98ca146102a757600080fd5b806352d1902d116100dc57806352d1902d146101995780636b3aa72e146101bc578063715018a6146101f45780637b4ffbbd146102095780638da5cb5b1461022957600080fd5b8063295571371461010e57806333cfb7b7146101305780633659cfe6146101665780634f1ef28614610186575b600080fd5b34801561011a57600080fd5b5061012e610129366004611168565b61035c565b005b34801561013c57600080fd5b5061015061014b366004611192565b6103ce565b60405161015d91906111ad565b60405180910390f35b34801561017257600080fd5b5061012e610181366004611192565b61055b565b61012e6101943660046112a6565b610643565b3480156101a557600080fd5b506101ae610713565b60405190815260200161015d565b3480156101c857600080fd5b5060ca546101dc906001600160a01b031681565b6040516001600160a01b03909116815260200161015d565b34801561020057600080fd5b5061012e6107c6565b34801561021557600080fd5b506101ae610224366004611192565b6107da565b34801561023557600080fd5b506097546001600160a01b03166101dc565b34801561025357600080fd5b5061012e6102623660046112f4565b610886565b34801561027357600080fd5b5061012e61028236600461133d565b6108f3565b34801561029357600080fd5b506101dc6102a23660046113e7565b610986565b3480156102b357600080fd5b5061012e6102c2366004611192565b6109b0565b3480156102d357600080fd5b50610150610a0d565b3480156102e857600080fd5b5060cb546101dc906001600160a01b031681565b34801561030857600080fd5b5061012e610317366004611192565b610a6f565b34801561032857600080fd5b5061012e610337366004611400565b610ae5565b34801561034857600080fd5b5060c9546101dc906001600160a01b031681565b60c9546001600160a01b0316331461038757604051630e2c730d60e41b815260040160405180910390fd5b816001600160a01b03167fa005d3b8f5c8149659f2afc06ed99732d5891377a370a723669418ca1ca29ced826040516103c291815260200190565b60405180910390a25050565b60cc5460609060009067ffffffffffffffff8111156103ef576103ef6111fa565b604051908082528060200260200182016040528015610418578160200160208202803683370190505b5090506000805b60cc548110156105525760cb5460cc80546000926001600160a01b03169163778e55f3918991908690811061045657610456611454565b60009182526020909120015460405160e084901b6001600160e01b03191681526001600160a01b03928316600482015291166024820152604401602060405180830381865afa1580156104ad573d6000803e3d6000fd5b505050506040513d601f19601f820116820180604052508101906104d1919061146a565b11156105405760cc81815481106104ea576104ea611454565b9060005260206000200160009054906101000a90046001600160a01b031683838151811061051a5761051a611454565b6001600160a01b03909216602092830291909101909101528161053c81611483565b9250505b8061054a81611483565b91505061041f565b50909392505050565b6001600160a01b037f00000000000000000000000000000000000000000000000000000000000000001630036105ac5760405162461bcd60e51b81526004016105a3906114aa565b60405180910390fd5b7f00000000000000000000000000000000000000000000000000000000000000006001600160a01b03166105f5600080516020611659833981519152546001600160a01b031690565b6001600160a01b03161461061b5760405162461bcd60e51b81526004016105a3906114f6565b61062481610c73565b6040805160008082526020820190925261064091839190610c7b565b50565b6001600160a01b037f000000000000000000000000000000000000000000000000000000000000000016300361068b5760405162461bcd60e51b81526004016105a3906114aa565b7f00000000000000000000000000000000000000000000000000000000000000006001600160a01b03166106d4600080516020611659833981519152546001600160a01b031690565b6001600160a01b0316146106fa5760405162461bcd60e51b81526004016105a3906114f6565b61070382610c73565b61070f82826001610c7b565b5050565b6000306001600160a01b037f000000000000000000000000000000000000000000000000000000000000000016146107b35760405162461bcd60e51b815260206004820152603860248201527f555550535570677261646561626c653a206d757374206e6f742062652063616c60448201527f6c6564207468726f7567682064656c656761746563616c6c000000000000000060648201526084016105a3565b5060008051602061165983398151915290565b6107ce610deb565b6107d86000610e45565b565b60cb5460cc80546000926001600160a01b03169163778e55f391859190859061080557610805611454565b60009182526020909120015460405160e084901b6001600160e01b03191681526001600160a01b03928316600482015291166024820152604401602060405180830381865afa15801561085c573d6000803e3d6000fd5b505050506040513d601f19601f82011682018060405250810190610880919061146a565b92915050565b61088e610deb565b60ca5460405163a98fb35560e01b81526001600160a01b039091169063a98fb355906108be908490600401611592565b600060405180830381600087803b1580156108d857600080fd5b505af11580156108ec573d6000803e3d6000fd5b5050505050565b60c9546001600160a01b0316331461091e57604051630e2c730d60e41b815260040160405180910390fd5b60ca54604051639926ee7d60e01b81526001600160a01b0390911690639926ee7d9061095090859085906004016115a5565b600060405180830381600087803b15801561096a57600080fd5b505af115801561097e573d6000803e3d6000fd5b505050505050565b60cc818154811061099657600080fd5b6000918252602090912001546001600160a01b0316905081565b60c9546001600160a01b031633146109db57604051630e2c730d60e41b815260040160405180910390fd5b60ca546040516351b27a6d60e11b81526001600160a01b0383811660048301529091169063a364f4da906024016108be565b606060cc805480602002602001604051908101604052809291908181526020018280548015610a6557602002820191906000526020600020905b81546001600160a01b03168152600190910190602001808311610a47575b5050505050905090565b610a77610deb565b6001600160a01b038116610adc5760405162461bcd60e51b815260206004820152602660248201527f4f776e61626c653a206e6577206f776e657220697320746865207a65726f206160448201526564647265737360d01b60648201526084016105a3565b61064081610e45565b600054610100900460ff1615808015610b055750600054600160ff909116105b80610b1f5750303b158015610b1f575060005460ff166001145b610b825760405162461bcd60e51b815260206004820152602e60248201527f496e697469616c697a61626c653a20636f6e747261637420697320616c72656160448201526d191e481a5b9a5d1a585b1a5e995960921b60648201526084016105a3565b6000805460ff191660011790558015610ba5576000805461ff0019166101001790555b60c980546001600160a01b038088166001600160a01b03199283161790925560ca805486841690831617905560cb805485841690831617905560cc80546001810182556000919091527f47197230e1e4b29fc0bd84d7d78966c0925452aff72a2a121538b102457e9ebe01805492871692909116919091179055610c27610e97565b80156108ec576000805461ff0019169055604051600181527f7f26b83ff96e1f2b6a682f133852f6798a09c465da95921460cefb38474024989060200160405180910390a15050505050565b610640610deb565b7f4910fdfa16fed3260ed0e7147f7cc6da11a60208b5b9406d12a635614ffd91435460ff1615610cb357610cae83610ec6565b505050565b826001600160a01b03166352d1902d6040518163ffffffff1660e01b8152600401602060405180830381865afa925050508015610d0d575060408051601f3d908101601f19168201909252610d0a9181019061146a565b60015b610d705760405162461bcd60e51b815260206004820152602e60248201527f45524331393637557067726164653a206e657720696d706c656d656e7461746960448201526d6f6e206973206e6f74205555505360901b60648201526084016105a3565b6000805160206116598339815191528114610ddf5760405162461bcd60e51b815260206004820152602960248201527f45524331393637557067726164653a20756e737570706f727465642070726f786044820152681a58589b195555525160ba1b60648201526084016105a3565b50610cae838383610f62565b6097546001600160a01b031633146107d85760405162461bcd60e51b815260206004820181905260248201527f4f776e61626c653a2063616c6c6572206973206e6f7420746865206f776e657260448201526064016105a3565b609780546001600160a01b038381166001600160a01b0319831681179093556040519116919082907f8be0079c531659141344cd1fd0a4f28419497f9722a3daafe3b4186f6b6457e090600090a35050565b600054610100900460ff16610ebe5760405162461bcd60e51b81526004016105a3906115f1565b6107d8610f8d565b6001600160a01b0381163b610f335760405162461bcd60e51b815260206004820152602d60248201527f455243313936373a206e657720696d706c656d656e746174696f6e206973206e60448201526c1bdd08184818dbdb9d1c9858dd609a1b60648201526084016105a3565b60008051602061165983398151915280546001600160a01b0319166001600160a01b0392909216919091179055565b610f6b83610fbd565b600082511180610f785750805b15610cae57610f878383610ffd565b50505050565b600054610100900460ff16610fb45760405162461bcd60e51b81526004016105a3906115f1565b6107d833610e45565b610fc681610ec6565b6040516001600160a01b038216907fbc7cd75a20ee27fd9adebab32041f755214dbc6bffa90cc0225b39da2e5c2d3b90600090a250565b6060611022838360405180606001604052806027815260200161167960279139611029565b9392505050565b6060600080856001600160a01b031685604051611046919061163c565b600060405180830381855af49150503d8060008114611081576040519150601f19603f3d011682016040523d82523d6000602084013e611086565b606091505b5091509150611097868383876110a1565b9695505050505050565b60608315611110578251600003611109576001600160a01b0385163b6111095760405162461bcd60e51b815260206004820152601d60248201527f416464726573733a2063616c6c20746f206e6f6e2d636f6e747261637400000060448201526064016105a3565b508161111a565b61111a8383611122565b949350505050565b8151156111325781518083602001fd5b8060405162461bcd60e51b81526004016105a39190611592565b80356001600160a01b038116811461116357600080fd5b919050565b6000806040838503121561117b57600080fd5b6111848361114c565b946020939093013593505050565b6000602082840312156111a457600080fd5b6110228261114c565b6020808252825182820181905260009190848201906040850190845b818110156111ee5783516001600160a01b0316835292840192918401916001016111c9565b50909695505050505050565b634e487b7160e01b600052604160045260246000fd5b600067ffffffffffffffff8084111561122b5761122b6111fa565b604051601f8501601f19908116603f01168101908282118183101715611253576112536111fa565b8160405280935085815286868601111561126c57600080fd5b858560208301376000602087830101525050509392505050565b600082601f83011261129757600080fd5b61102283833560208501611210565b600080604083850312156112b957600080fd5b6112c28361114c565b9150602083013567ffffffffffffffff8111156112de57600080fd5b6112ea85828601611286565b9150509250929050565b60006020828403121561130657600080fd5b813567ffffffffffffffff81111561131d57600080fd5b8201601f8101841361132e57600080fd5b61111a84823560208401611210565b6000806040838503121561135057600080fd5b6113598361114c565b9150602083013567ffffffffffffffff8082111561137657600080fd5b908401906060828703121561138a57600080fd5b6040516060810181811083821117156113a5576113a56111fa565b6040528235828111156113b757600080fd5b6113c388828601611286565b82525060208301356020820152604083013560408201528093505050509250929050565b6000602082840312156113f957600080fd5b5035919050565b6000806000806080858703121561141657600080fd5b61141f8561114c565b935061142d6020860161114c565b925061143b6040860161114c565b91506114496060860161114c565b905092959194509250565b634e487b7160e01b600052603260045260246000fd5b60006020828403121561147c57600080fd5b5051919050565b6000600182016114a357634e487b7160e01b600052601160045260246000fd5b5060010190565b6020808252602c908201527f46756e6374696f6e206d7573742062652063616c6c6564207468726f7567682060408201526b19195b1959d85d1958d85b1b60a21b606082015260800190565b6020808252602c908201527f46756e6374696f6e206d7573742062652063616c6c6564207468726f7567682060408201526b6163746976652070726f787960a01b606082015260800190565b60005b8381101561155d578181015183820152602001611545565b50506000910152565b6000815180845261157e816020860160208601611542565b601f01601f19169290920160200192915050565b6020815260006110226020830184611566565b6001600160a01b03831681526040602082015260008251606060408401526115d060a0840182611566565b90506020840151606084015260408401516080840152809150509392505050565b6020808252602b908201527f496e697469616c697a61626c653a20636f6e7472616374206973206e6f74206960408201526a6e697469616c697a696e6760a81b606082015260800190565b6000825161164e818460208701611542565b919091019291505056fe360894a13ba1a3210667c828492db98dca3e2076cc3735a920a3ca505d382bbc416464726573733a206c6f772d6c6576656c2064656c65676174652063616c6c206661696c6564a26469706673582212208de3979ac38f018d750d33b267bb716046c4f0803f8b3bdcb86b0e51ba338cc864736f6c63430008120033",
    "linkReferences": {}
  },
  "methodIdentifiers": {
    "avsDirectory()": "6b3aa72e",
    "delegationManager()": "ea4d3c9b",
    "deregisterOperator(address)": "d8cf98ca",
    "getOperatorRestakedStrategies(address)": "33cfb7b7",
    "getOperatorShare(address)": "7b4ffbbd",
    "getRestakeableStrategies()": "e481af9d",
    "initialize(address,address,address)": "f8c8765e",
    "nodeRegistryAddress()": "fec10aa9",
    "owner()": "8da5cb5b",
    "proxiableUUID()": "52d1902d",
    "registerOperator(address,(bytes,bytes32,uint256))": "aa2bcdbd",
    "renounceOwnership()": "715018a6",
    "slashDelegationStaking(address,uint256)": "29557137",
    "strategy(uint256)": "bc88d7e4",
    "transferOwnership(address)": "f2fde38b",
    "updateAVSMetadataURI(string)": "a98fb355",
    "upgradeTo(address)": "3659cfe6",
    "upgradeToAndCall(address,bytes)": "4f1ef286"
  },
  "id": 95
}