{
  "abi": [
    {
      "inputs": [
        {
          "components": [
            {
              "internalType": "contract IERC20",
              "name": "arpa",
              "type": "address"
            },
            {
              "internalType": "uint256",
              "name": "initialMaxPoolSize",
              "type": "uint256"
            },
            {
              "internalType": "uint256",
              "name": "initialMaxCommunityStakeAmount",
              "type": "uint256"
            },
            {
              "internalType": "uint256",
              "name": "minCommunityStakeAmount",
              "type": "uint256"
            },
            {
              "internalType": "uint256",
              "name": "operatorStakeAmount",
              "type": "uint256"
            },
            {
              "internalType": "uint256",
              "name": "minInitialOperatorCount",
              "type": "uint256"
            },
            {
              "internalType": "uint256",
              "name": "minRewardDuration",
              "type": "uint256"
            },
            {
              "internalType": "uint256",
              "name": "delegationRateDenominator",
              "type": "uint256"
            },
            {
              "internalType": "uint256",
              "name": "unstakeFreezingDuration",
              "type": "uint256"
            }
          ],
          "internalType": "struct Staking.PoolConstructorParams",
          "name": "params",
          "type": "tuple"
        }
      ],
      "stateMutability": "nonpayable",
      "type": "constructor"
    },
    {
      "inputs": [],
      "name": "AccessForbidden",
      "type": "error"
    },
    {
      "inputs": [],
      "name": "AlreadyInitialized",
      "type": "error"
    },
    {
      "inputs": [],
      "name": "CastError",
      "type": "error"
    },
    {
      "inputs": [
        {
          "internalType": "uint256",
          "name": "remainingAmount",
          "type": "uint256"
        }
      ],
      "name": "ExcessiveStakeAmount",
      "type": "error"
    },
    {
      "inputs": [
        {
          "internalType": "address",
          "name": "operator",
          "type": "address"
        }
      ],
      "name": "ExistingLockedStakeFound",
      "type": "error"
    },
    {
      "inputs": [
        {
          "internalType": "address",
          "name": "staker",
          "type": "address"
        }
      ],
      "name": "ExistingStakeFound",
      "type": "error"
    },
    {
      "inputs": [
        {
          "internalType": "address",
          "name": "staker",
          "type": "address"
        }
      ],
      "name": "FrozenPrincipalDoesNotExist",
      "type": "error"
    },
    {
      "inputs": [
        {
          "internalType": "uint256",
          "name": "currentOperatorsCount",
          "type": "uint256"
        },
        {
          "internalType": "uint256",
          "name": "minInitialOperatorsCount",
          "type": "uint256"
        }
      ],
      "name": "InadequateInitialOperatorsCount",
      "type": "error"
    },
    {
      "inputs": [
        {
          "internalType": "uint256",
          "name": "currentLockedStakingAmount",
          "type": "uint256"
        }
      ],
      "name": "InadequateOperatorLockedStakingAmount",
      "type": "error"
    },
    {
      "inputs": [
        {
          "internalType": "uint256",
          "name": "currentStakingAmount",
          "type": "uint256"
        }
      ],
      "name": "InadequateStakingAmount",
      "type": "error"
    },
    {
      "inputs": [
        {
          "internalType": "uint256",
          "name": "requiredAmount",
          "type": "uint256"
        }
      ],
      "name": "InsufficientStakeAmount",
      "type": "error"
    },
    {
      "inputs": [],
      "name": "InvalidDelegationRate",
      "type": "error"
    },
    {
      "inputs": [
        {
          "internalType": "uint256",
          "name": "maxStakeAmount",
          "type": "uint256"
        }
      ],
      "name": "InvalidMaxStakeAmount",
      "type": "error"
    },
    {
      "inputs": [],
      "name": "InvalidMigrationTarget",
      "type": "error"
    },
    {
      "inputs": [],
      "name": "InvalidMinCommunityStakeAmount",
      "type": "error"
    },
    {
      "inputs": [],
      "name": "InvalidOperatorStakeAmount",
      "type": "error"
    },
    {
      "inputs": [
        {
          "internalType": "uint256",
          "name": "maxPoolSize",
          "type": "uint256"
        }
      ],
      "name": "InvalidPoolSize",
      "type": "error"
    },
    {
      "inputs": [
        {
          "internalType": "bool",
          "name": "currentStatus",
          "type": "bool"
        },
        {
          "internalType": "bool",
          "name": "requiredStatus",
          "type": "bool"
        }
      ],
      "name": "InvalidPoolStatus",
      "type": "error"
    },
    {
      "inputs": [],
      "name": "InvalidZeroAddress",
      "type": "error"
    },
    {
      "inputs": [],
      "name": "NoBaseRewardForOperator",
      "type": "error"
    },
    {
      "inputs": [
        {
          "internalType": "address",
          "name": "operator",
          "type": "address"
        }
      ],
      "name": "OperatorAlreadyExists",
      "type": "error"
    },
    {
      "inputs": [
        {
          "internalType": "address",
          "name": "operator",
          "type": "address"
        }
      ],
      "name": "OperatorDoesNotExist",
      "type": "error"
    },
    {
      "inputs": [],
      "name": "RewardDurationTooShort",
      "type": "error"
    },
    {
      "inputs": [],
      "name": "SenderNotController",
      "type": "error"
    },
    {
      "inputs": [
        {
          "internalType": "address",
          "name": "staker",
          "type": "address"
        }
      ],
      "name": "StakeNotFound",
      "type": "error"
    },
    {
      "inputs": [
        {
          "internalType": "address",
          "name": "operator",
          "type": "address"
        }
      ],
      "name": "UnstakeOperatorWithPartialAmount",
      "type": "error"
    },
    {
      "inputs": [
        {
          "internalType": "address",
          "name": "staker",
          "type": "address"
        }
      ],
      "name": "UnstakeWithZeroAmount",
      "type": "error"
    },
    {
      "anonymous": false,
      "inputs": [
        {
          "indexed": false,
          "internalType": "address",
          "name": "controller",
          "type": "address"
        }
      ],
      "name": "ControllerSet",
      "type": "event"
    },
    {
      "anonymous": false,
      "inputs": [
        {
          "indexed": false,
          "internalType": "address",
          "name": "staker",
          "type": "address"
        },
        {
          "indexed": false,
          "internalType": "uint256",
          "name": "amount",
          "type": "uint256"
        }
      ],
      "name": "DelegationRewardSlashed",
      "type": "event"
    },
    {
      "anonymous": false,
      "inputs": [
        {
          "indexed": false,
          "internalType": "address",
          "name": "staker",
          "type": "address"
        },
        {
          "indexed": false,
          "internalType": "uint256",
          "name": "principal",
          "type": "uint256"
        }
      ],
      "name": "FrozenPrincipalClaimed",
      "type": "event"
    },
    {
      "anonymous": false,
      "inputs": [
        {
          "indexed": false,
          "internalType": "address",
          "name": "staker",
          "type": "address"
        },
        {
          "indexed": false,
          "internalType": "uint256",
          "name": "newLock",
          "type": "uint256"
        }
      ],
      "name": "Locked",
      "type": "event"
    },
    {
      "anonymous": false,
      "inputs": [
        {
          "indexed": false,
          "internalType": "address",
          "name": "staker",
          "type": "address"
        },
        {
          "indexed": false,
          "internalType": "uint256",
          "name": "principal",
          "type": "uint256"
        },
        {
          "indexed": false,
          "internalType": "uint256",
          "name": "baseReward",
          "type": "uint256"
        },
        {
          "indexed": false,
          "internalType": "uint256",
          "name": "delegationReward",
          "type": "uint256"
        },
        {
          "indexed": false,
          "internalType": "bytes",
          "name": "data",
          "type": "bytes"
        }
      ],
      "name": "Migrated",
      "type": "event"
    },
    {
      "anonymous": false,
      "inputs": [
        {
          "indexed": false,
          "internalType": "address",
          "name": "migrationTarget",
          "type": "address"
        }
      ],
      "name": "MigrationTargetAccepted",
      "type": "event"
    },
    {
      "anonymous": false,
      "inputs": [
        {
          "indexed": false,
          "internalType": "address",
          "name": "migrationTarget",
          "type": "address"
        }
      ],
      "name": "MigrationTargetProposed",
      "type": "event"
    },
    {
      "anonymous": false,
      "inputs": [
        {
          "indexed": true,
          "internalType": "address",
          "name": "previousOwner",
          "type": "address"
        },
        {
          "indexed": true,
          "internalType": "address",
          "name": "newOwner",
          "type": "address"
        }
      ],
      "name": "OwnershipTransferred",
      "type": "event"
    },
    {
      "anonymous": false,
      "inputs": [
        {
          "indexed": false,
          "internalType": "address",
          "name": "account",
          "type": "address"
        }
      ],
      "name": "Paused",
      "type": "event"
    },
    {
      "anonymous": false,
      "inputs": [
        {
          "indexed": false,
          "internalType": "address",
          "name": "staker",
          "type": "address"
        },
        {
          "indexed": false,
          "internalType": "uint256",
          "name": "baseReward",
          "type": "uint256"
        }
      ],
      "name": "RewardClaimed",
      "type": "event"
    },
    {
      "anonymous": false,
      "inputs": [
        {
          "indexed": false,
          "internalType": "address",
          "name": "staker",
          "type": "address"
        },
        {
          "indexed": false,
          "internalType": "uint256",
          "name": "newStake",
          "type": "uint256"
        },
        {
          "indexed": false,
          "internalType": "uint256",
          "name": "totalStake",
          "type": "uint256"
        }
      ],
      "name": "Staked",
      "type": "event"
    },
    {
      "anonymous": false,
      "inputs": [
        {
          "indexed": false,
          "internalType": "address",
          "name": "arpaAddress",
          "type": "address"
        },
        {
          "indexed": false,
          "internalType": "uint256",
          "name": "initialMaxPoolSize",
          "type": "uint256"
        },
        {
          "indexed": false,
          "internalType": "uint256",
          "name": "initialMaxCommunityStakeAmount",
          "type": "uint256"
        },
        {
          "indexed": false,
          "internalType": "uint256",
          "name": "minCommunityStakeAmount",
          "type": "uint256"
        },
        {
          "indexed": false,
          "internalType": "uint256",
          "name": "operatorStakeAmount",
          "type": "uint256"
        },
        {
          "indexed": false,
          "internalType": "uint256",
          "name": "minInitialOperatorCount",
          "type": "uint256"
        },
        {
          "indexed": false,
          "internalType": "uint256",
          "name": "minRewardDuration",
          "type": "uint256"
        },
        {
          "indexed": false,
          "internalType": "uint256",
          "name": "delegationRateDenominator",
          "type": "uint256"
        },
        {
          "indexed": false,
          "internalType": "uint256",
          "name": "unstakeFreezingDuration",
          "type": "uint256"
        }
      ],
      "name": "StakingConfigSet",
      "type": "event"
    },
    {
      "anonymous": false,
      "inputs": [
        {
          "indexed": false,
          "internalType": "address",
          "name": "staker",
          "type": "address"
        },
        {
          "indexed": false,
          "internalType": "uint256",
          "name": "newUnlock",
          "type": "uint256"
        }
      ],
      "name": "Unlocked",
      "type": "event"
    },
    {
      "anonymous": false,
      "inputs": [
        {
          "indexed": false,
          "internalType": "address",
          "name": "account",
          "type": "address"
        }
      ],
      "name": "Unpaused",
      "type": "event"
    },
    {
      "anonymous": false,
      "inputs": [
        {
          "indexed": false,
          "internalType": "address",
          "name": "staker",
          "type": "address"
        },
        {
          "indexed": false,
          "internalType": "uint256",
          "name": "principal",
          "type": "uint256"
        },
        {
          "indexed": false,
          "internalType": "uint256",
          "name": "baseReward",
          "type": "uint256"
        },
        {
          "indexed": false,
          "internalType": "uint256",
          "name": "delegationReward",
          "type": "uint256"
        }
      ],
      "name": "Unstaked",
      "type": "event"
    },
    {
      "inputs": [],
      "name": "acceptMigrationTarget",
      "outputs": [],
      "stateMutability": "nonpayable",
      "type": "function"
    },
    {
      "inputs": [
        {
          "internalType": "address[]",
          "name": "operators",
          "type": "address[]"
        }
      ],
      "name": "addOperators",
      "outputs": [],
      "stateMutability": "nonpayable",
      "type": "function"
    },
    {
      "inputs": [
        {
          "internalType": "uint256",
          "name": "amount",
          "type": "uint256"
        },
        {
          "internalType": "uint256",
          "name": "rewardDuration",
          "type": "uint256"
        }
      ],
      "name": "addReward",
      "outputs": [],
      "stateMutability": "nonpayable",
      "type": "function"
    },
    {
      "inputs": [],
      "name": "claim",
      "outputs": [],
      "stateMutability": "nonpayable",
      "type": "function"
    },
    {
      "inputs": [],
      "name": "claimFrozenPrincipal",
      "outputs": [],
      "stateMutability": "nonpayable",
      "type": "function"
    },
    {
      "inputs": [],
      "name": "claimReward",
      "outputs": [],
      "stateMutability": "nonpayable",
      "type": "function"
    },
    {
      "inputs": [],
      "name": "emergencyPause",
      "outputs": [],
      "stateMutability": "nonpayable",
      "type": "function"
    },
    {
      "inputs": [],
      "name": "emergencyUnpause",
      "outputs": [],
      "stateMutability": "nonpayable",
      "type": "function"
    },
    {
      "inputs": [],
      "name": "getArpaToken",
      "outputs": [
        {
          "internalType": "address",
          "name": "",
          "type": "address"
        }
      ],
      "stateMutability": "view",
      "type": "function"
    },
    {
      "inputs": [],
      "name": "getAvailableReward",
      "outputs": [
        {
          "internalType": "uint256",
          "name": "",
          "type": "uint256"
        }
      ],
      "stateMutability": "view",
      "type": "function"
    },
    {
      "inputs": [
        {
          "internalType": "address",
          "name": "staker",
          "type": "address"
        }
      ],
      "name": "getBaseReward",
      "outputs": [
        {
          "internalType": "uint256",
          "name": "",
          "type": "uint256"
        }
      ],
      "stateMutability": "view",
      "type": "function"
    },
    {
      "inputs": [
        {
          "internalType": "address",
          "name": "",
          "type": "address"
        }
      ],
      "name": "getClaimablePrincipalAmount",
      "outputs": [
        {
          "internalType": "uint256",
          "name": "claimingPrincipal",
          "type": "uint256"
        }
      ],
      "stateMutability": "view",
      "type": "function"
    },
    {
      "inputs": [],
      "name": "getCommunityStakerLimits",
      "outputs": [
        {
          "internalType": "uint256",
          "name": "",
          "type": "uint256"
        },
        {
          "internalType": "uint256",
          "name": "",
          "type": "uint256"
        }
      ],
      "stateMutability": "view",
      "type": "function"
    },
    {
      "inputs": [],
      "name": "getCommunityStakersCount",
      "outputs": [
        {
          "internalType": "uint256",
          "name": "",
          "type": "uint256"
        }
      ],
      "stateMutability": "view",
      "type": "function"
    },
    {
      "inputs": [],
      "name": "getController",
      "outputs": [
        {
          "internalType": "address",
          "name": "",
          "type": "address"
        }
      ],
      "stateMutability": "view",
      "type": "function"
    },
    {
      "inputs": [],
      "name": "getDelegatesCount",
      "outputs": [
        {
          "internalType": "uint256",
          "name": "",
          "type": "uint256"
        }
      ],
      "stateMutability": "view",
      "type": "function"
    },
    {
      "inputs": [],
      "name": "getDelegationRateDenominator",
      "outputs": [
        {
          "internalType": "uint256",
          "name": "",
          "type": "uint256"
        }
      ],
      "stateMutability": "view",
      "type": "function"
    },
    {
      "inputs": [
        {
          "internalType": "address",
          "name": "staker",
          "type": "address"
        }
      ],
      "name": "getDelegationReward",
      "outputs": [
        {
          "internalType": "uint256",
          "name": "",
          "type": "uint256"
        }
      ],
      "stateMutability": "view",
      "type": "function"
    },
    {
      "inputs": [
        {
          "internalType": "address",
          "name": "staker",
          "type": "address"
        }
      ],
      "name": "getFrozenPrincipal",
      "outputs": [
        {
          "internalType": "uint96[]",
          "name": "amounts",
          "type": "uint96[]"
        },
        {
          "internalType": "uint256[]",
          "name": "unlockTimestamps",
          "type": "uint256[]"
        }
      ],
      "stateMutability": "view",
      "type": "function"
    },
    {
      "inputs": [
        {
          "internalType": "address",
          "name": "staker",
          "type": "address"
        }
      ],
      "name": "getLockedAmount",
      "outputs": [
        {
          "internalType": "uint256",
          "name": "",
          "type": "uint256"
        }
      ],
      "stateMutability": "view",
      "type": "function"
    },
    {
      "inputs": [],
      "name": "getMaxPoolSize",
      "outputs": [
        {
          "internalType": "uint256",
          "name": "",
          "type": "uint256"
        }
      ],
      "stateMutability": "view",
      "type": "function"
    },
    {
      "inputs": [],
      "name": "getMigrationTarget",
      "outputs": [
        {
          "internalType": "address",
          "name": "",
          "type": "address"
        }
      ],
      "stateMutability": "view",
      "type": "function"
    },
    {
      "inputs": [],
      "name": "getOperatorLimit",
      "outputs": [
        {
          "internalType": "uint256",
          "name": "",
          "type": "uint256"
        }
      ],
      "stateMutability": "view",
      "type": "function"
    },
    {
      "inputs": [],
      "name": "getRewardRate",
      "outputs": [
        {
          "internalType": "uint256",
          "name": "",
          "type": "uint256"
        }
      ],
      "stateMutability": "view",
      "type": "function"
    },
    {
      "inputs": [],
      "name": "getRewardTimestamps",
      "outputs": [
        {
          "internalType": "uint256",
          "name": "",
          "type": "uint256"
        },
        {
          "internalType": "uint256",
          "name": "",
          "type": "uint256"
        }
      ],
      "stateMutability": "view",
      "type": "function"
    },
    {
      "inputs": [
        {
          "internalType": "address",
          "name": "staker",
          "type": "address"
        }
      ],
      "name": "getStake",
      "outputs": [
        {
          "internalType": "uint256",
          "name": "",
          "type": "uint256"
        }
      ],
      "stateMutability": "view",
      "type": "function"
    },
    {
      "inputs": [],
      "name": "getTotalCommunityStakedAmount",
      "outputs": [
        {
          "internalType": "uint256",
          "name": "",
          "type": "uint256"
        }
      ],
      "stateMutability": "view",
      "type": "function"
    },
    {
      "inputs": [],
      "name": "getTotalDelegatedAmount",
      "outputs": [
        {
          "internalType": "uint256",
          "name": "",
          "type": "uint256"
        }
      ],
      "stateMutability": "view",
      "type": "function"
    },
    {
      "inputs": [],
      "name": "getTotalFrozenAmount",
      "outputs": [
        {
          "internalType": "uint256",
          "name": "",
          "type": "uint256"
        }
      ],
      "stateMutability": "view",
      "type": "function"
    },
    {
      "inputs": [],
      "name": "getTotalStakedAmount",
      "outputs": [
        {
          "internalType": "uint256",
          "name": "",
          "type": "uint256"
        }
      ],
      "stateMutability": "view",
      "type": "function"
    },
    {
      "inputs": [],
      "name": "isActive",
      "outputs": [
        {
          "internalType": "bool",
          "name": "",
          "type": "bool"
        }
      ],
      "stateMutability": "view",
      "type": "function"
    },
    {
      "inputs": [
        {
          "internalType": "address",
          "name": "staker",
          "type": "address"
        }
      ],
      "name": "isOperator",
      "outputs": [
        {
          "internalType": "bool",
          "name": "",
          "type": "bool"
        }
      ],
      "stateMutability": "view",
      "type": "function"
    },
    {
      "inputs": [
        {
          "internalType": "address",
          "name": "staker",
          "type": "address"
        },
        {
          "internalType": "uint256",
          "name": "amount",
          "type": "uint256"
        }
      ],
      "name": "lock",
      "outputs": [],
      "stateMutability": "nonpayable",
      "type": "function"
    },
    {
      "inputs": [
        {
          "internalType": "bytes",
          "name": "data",
          "type": "bytes"
        }
      ],
      "name": "migrate",
      "outputs": [],
      "stateMutability": "nonpayable",
      "type": "function"
    },
    {
      "inputs": [
        {
          "internalType": "uint256",
          "name": "amount",
          "type": "uint256"
        },
        {
          "internalType": "uint256",
          "name": "rewardDuration",
          "type": "uint256"
        }
      ],
      "name": "newReward",
      "outputs": [],
      "stateMutability": "nonpayable",
      "type": "function"
    },
    {
      "inputs": [],
      "name": "owner",
      "outputs": [
        {
          "internalType": "address",
          "name": "",
          "type": "address"
        }
      ],
      "stateMutability": "view",
      "type": "function"
    },
    {
      "inputs": [],
      "name": "paused",
      "outputs": [
        {
          "internalType": "bool",
          "name": "",
          "type": "bool"
        }
      ],
      "stateMutability": "view",
      "type": "function"
    },
    {
      "inputs": [
        {
          "internalType": "address",
          "name": "migrationTarget",
          "type": "address"
        }
      ],
      "name": "proposeMigrationTarget",
      "outputs": [],
      "stateMutability": "nonpayable",
      "type": "function"
    },
    {
      "inputs": [],
      "name": "renounceOwnership",
      "outputs": [],
      "stateMutability": "nonpayable",
      "type": "function"
    },
    {
      "inputs": [
        {
          "internalType": "address",
          "name": "controller",
          "type": "address"
        }
      ],
      "name": "setController",
      "outputs": [],
      "stateMutability": "nonpayable",
      "type": "function"
    },
    {
      "inputs": [
        {
          "internalType": "uint256",
          "name": "maxPoolSize",
          "type": "uint256"
        },
        {
          "internalType": "uint256",
          "name": "maxCommunityStakeAmount",
          "type": "uint256"
        }
      ],
      "name": "setPoolConfig",
      "outputs": [],
      "stateMutability": "nonpayable",
      "type": "function"
    },
    {
      "inputs": [
        {
          "internalType": "address",
          "name": "staker",
          "type": "address"
        },
        {
          "internalType": "uint256",
          "name": "amount",
          "type": "uint256"
        }
      ],
      "name": "slashDelegationReward",
      "outputs": [],
      "stateMutability": "nonpayable",
      "type": "function"
    },
    {
      "inputs": [
        {
          "internalType": "uint256",
          "name": "amount",
          "type": "uint256"
        }
      ],
      "name": "stake",
      "outputs": [],
      "stateMutability": "nonpayable",
      "type": "function"
    },
    {
      "inputs": [
        {
          "internalType": "uint256",
          "name": "amount",
          "type": "uint256"
        },
        {
          "internalType": "uint256",
          "name": "rewardDuration",
          "type": "uint256"
        }
      ],
      "name": "start",
      "outputs": [],
      "stateMutability": "nonpayable",
      "type": "function"
    },
    {
      "inputs": [
        {
          "internalType": "address",
          "name": "newOwner",
          "type": "address"
        }
      ],
      "name": "transferOwnership",
      "outputs": [],
      "stateMutability": "nonpayable",
      "type": "function"
    },
    {
      "inputs": [],
      "name": "typeAndVersion",
      "outputs": [
        {
          "internalType": "string",
          "name": "",
          "type": "string"
        }
      ],
      "stateMutability": "pure",
      "type": "function"
    },
    {
      "inputs": [
        {
          "internalType": "address",
          "name": "staker",
          "type": "address"
        },
        {
          "internalType": "uint256",
          "name": "amount",
          "type": "uint256"
        }
      ],
      "name": "unlock",
      "outputs": [],
      "stateMutability": "nonpayable",
      "type": "function"
    },
    {
      "inputs": [
        {
          "internalType": "uint256",
          "name": "amount",
          "type": "uint256"
        }
      ],
      "name": "unstake",
      "outputs": [],
      "stateMutability": "nonpayable",
      "type": "function"
    }
  ],
  "bytecode": {
    "object": "0x6101606040523480156200001257600080fd5b50604051620048d0380380620048d08339810160408190526200003591620004b8565b62000040336200023f565b6000805460ff60a01b1916905580516001600160a01b0316620000765760405163f6b2911f60e01b815260040160405180910390fd5b8060e001516000036200009c5760405163027953ef60e61b815260040160405180910390fd5b60008160e0015164e8d4a51000620000b591906200053f565b1115620000d55760405163027953ef60e61b815260040160405180910390fd5b8060800151600003620000fa5760405162c4149d60e51b815260040160405180910390fd5b806040015181606001511115620001245760405163941b857f60e01b815260040160405180910390fd5b620001498160200151826040015160016200028f60201b62001f1c179092919060201c565b80516001600160a01b031660809081528101805160a090815260608301805160c0908152918401805160e09081529285018051610100908152938601805161012052938601805161014052865160208801516040808a015196519851955194519751935190517f4f5fcb1be0e233ce19a3f1a9544465fca14a2e18bb8d6e4821ed92d0c6272b3a996200023099949893979396909593949093909290916001600160a01b03999099168952602089019790975260408801959095526060870193909352608086019190915260a085015260c084015260e08301526101008201526101200190565b60405180910390a15062000562565b600080546001600160a01b038381166001600160a01b0319831681178455604051919092169283917f8be0079c531659141344cd1fd0a4f28419497f9722a3daafe3b4186f6b6457e09190a35050565b60028301546001600160601b0316821015620002c657604051630f9e1c3b60e11b8152600481018390526024015b60405180910390fd5b60028301546c0100000000000000000000000090046001600160601b0316811015620003095760405163bc91aa3360e01b815260048101829052602401620002bd565b60028301546001600160601b031682146200038a5762000334826200043460201b620020831760201c565b6002840180546001600160601b0319166001600160601b03929092169190911790556040518281527f7f4f497e086b2eb55f8a9885ba00d33399bbe0ebcb92ea092834386435a1b9c09060200160405180910390a15b60028301546c0100000000000000000000000090046001600160601b031681146200042f57620003c5816200043460201b620020831760201c565b6002840180546001600160601b03929092166c0100000000000000000000000002600160601b600160c01b03199092169190911790556040518181527fb5f554e5ef00806bace1edbb84186512ebcefa2af7706085143f501f29314df79060200160405180910390a15b505050565b60006001600160601b038211156200045f5760405163408ba96f60e11b815260040160405180910390fd5b5090565b60405161012081016001600160401b03811182821017156200049557634e487b7160e01b600052604160045260246000fd5b60405290565b80516001600160a01b0381168114620004b357600080fd5b919050565b60006101208284031215620004cc57600080fd5b620004d662000463565b620004e1836200049b565b81526020830151602082015260408301516040820152606083015160608201526080830151608082015260a083015160a082015260c083015160c082015260e083015160e08201526101008084015181830152508091505092915050565b6000826200055d57634e487b7160e01b600052601260045260246000fd5b500690565b60805160a05160c05160e0516101005161012051610140516142726200065e6000396000818161241b01526126f80152600081816104f6015281816114fd01528181611682015281816117a2015281816125420152818161279601526135f5015260008181610cce01526113ce0152600061136e015260008181610350015281816134cc0152613501015260008181610415015281816122630152818161324c01528181613281015281816132af01526132da0152600081816106bc0152818161090b01528181610c9d0152818161115b0152818161139f0152818161163f01528181611834015281816119120152611bac01526142726000f3fe608060405234801561001057600080fd5b50600436106103205760003560e01c80637a766460116101a7578063a694fc3a116100ee578063e8376b8a11610097578063ed63e80711610071578063ed63e80714610700578063f2fde38b1461070e578063fa4934e71461072157600080fd5b8063e8376b8a146106e8578063e937fdaa146106f0578063e9f37cdf146106f857600080fd5b8063cfcd8fd8116100c8578063cfcd8fd8146106a7578063d174e658146106ba578063e0974ea5146106e057600080fd5b8063a694fc3a14610684578063a7a2f5aa14610697578063b88a802f1461069f57600080fd5b80638da5cb5b1161015057806392eefe9b1161012a57806392eefe9b1461064b5780639a109bc21461065e578063a07aea1c1461067157600080fd5b80638da5cb5b146105f25780638fb4b57314610603578063929ec5371461061657600080fd5b806387e900b11161018157806387e900b1146105b95780638899fdeb146105cc5780638932a90d146105df57600080fd5b80637a7664601461055b5780637e1a3786146105925780637eee288d146105a657600080fd5b80633ff089851161026b5780635c975abb116102145780636d70f7ae116101ee5780636d70f7ae1461052d578063715018a61461054057806375c93bb91461054857600080fd5b80635c975abb146104e25780635e8b40d7146104f457806363b2c85a1461051a57600080fd5b80634e71d92d116102455780634e71d92d146104b357806351858e27146104bb57806359f01879146104c357600080fd5b80633ff08985146104855780634a4e3bd5146104985780634aba2ca9146104a057600080fd5b80632624c83c116102cd5780633018205f116102a75780633018205f1461046157806332e288501461047257806338adb6f01461047d57600080fd5b80632624c83c14610413578063282d3fdf146104395780632e17de781461044e57600080fd5b8063181f5a77116102fe578063181f5a77146103a75780631ddb5552146103d657806322f3e2d4146103fb57600080fd5b8063049b2ca0146103255780630641bdd81461034b5780630fbc8f5b14610396575b600080fd5b6002546201000090046001600160601b03165b6040519081526020015b60405180910390f35b6003547f000000000000000000000000000000000000000000000000000000000000000090600160601b90046001600160601b03165b60408051928352602083019190915201610342565b6003546001600160601b0316610338565b604080518082018252600d81526c05374616b696e6720302e312e3609c1b602082015290516103429190613d98565b600c546001600160a01b03165b6040516001600160a01b039091168152602001610342565b610403610742565b6040519015158152602001610342565b7f0000000000000000000000000000000000000000000000000000000000000000610338565b61044c610447366004613dc7565b61076d565b005b61044c61045c366004613df1565b6108b1565b6009546001600160a01b03166103e3565b60065460ff16610338565b610338610980565b610338610493366004613e0a565b61098c565b61044c610a45565b61044c6104ae366004613e25565b610a57565b61044c610a77565b61044c610aa8565b60085463ffffffff600160701b8204811691600160501b900416610381565b600054600160a01b900460ff16610403565b7f0000000000000000000000000000000000000000000000000000000000000000610338565b61044c610528366004613e0a565b610ab8565b61040361053b366004613e0a565b610c06565b61044c610c29565b61044c610556366004613e25565b610c3b565b610338610569366004613e0a565b6001600160a01b031660009081526001602052604090205461010090046001600160601b031690565b60085469ffffffffffffffffffff16610338565b61044c6105b4366004613dc7565b610d3a565b6103386105c7366004613e0a565b610e78565b61044c6105da366004613dc7565b610f9f565b61044c6105ed366004613e47565b6111cc565b6000546001600160a01b03166103e3565b61044c610611366004613e25565b611332565b610338610624366004613e0a565b6001600160a01b03166000908152600160205260409020600201546001600160601b031690565b61044c610659366004613e0a565b6113f4565b61033861066c366004613e0a565b611471565b61044c61067f366004613eb9565b611547565b61044c610692366004613df1565b6115a6565b610338611667565b61044c6116a6565b61044c6106b5366004613e25565b611891565b7f00000000000000000000000000000000000000000000000000000000000000006103e3565b6103386118ef565b61044c611999565b61044c611c09565b600454610338565b60075463ffffffff16610338565b61044c61071c366004613e0a565b611cc9565b61073461072f366004613e0a565b611d42565b604051610342929190613f1c565b60025460009060ff168015610768575060085442600160501b90910463ffffffff161115155b905090565b6009546001600160a01b0316331461079857604051630f5caa3360e41b815260040160405180910390fd5b6001600160a01b0382166000908152600160205260409020805460ff166107e25760405163eac13dcd60e01b81526001600160a01b03841660048201526024015b60405180910390fd5b805461010090046001600160601b031682111561081557604051631d820b1760e01b8152600481018390526024016107d9565b61081e82612083565b60028201805460009061083b9084906001600160601b0316613fb6565b92506101000a8154816001600160601b0302191690836001600160601b031602179055507f9f1ec8c880f76798e7b793325d625e9b60e4082a553c98f42b6cda368dd6000883836040516108a49291906001600160a01b03929092168252602082015260400190565b60405180910390a1505050565b6108b96120b1565b60006108ca64e8d4a5100083613ff3565b905080156108df576108dc8183614007565b91505b6000806108ee338560006120fe565b909250905061093233610901838561401a565b6001600160a01b037f000000000000000000000000000000000000000000000000000000000000000016919061280a565b6040805133815260208101869052908101839052606081018290527f204fccf0d92ed8d48f204adb39b2e81e92bad0dedb93f5716ca9478cfb57de009060800160405180910390a150505050565b6000610768600161286d565b336000908152600160208190526040822001805482036109af5750600092915050565b60005b8154811015610a3e5760008282815481106109cf576109cf61402d565b90600052602060002090600202019050428383815481106109f2576109f261402d565b90600052602060002090600202016001015411610a25578054610a1e906001600160601b03168561401a565b9350610a2b565b50610a3e565b5080610a3681614043565b9150506109b2565b5050919050565b610a4d6128c3565b610a5561291d565b565b610a5f6128c3565b610a6761296d565b610a7360018383611f1c565b5050565b610a7f6120b1565b610a876116a6565b336000908152600160208190526040909120015415610a5557610a55611999565b610ab06128c3565b610a5561299c565b610ac06128c3565b6001600160a01b0381163b1580610adf57506001600160a01b03811630145b80610af75750600a546001600160a01b038281169116145b80610b0f5750600c546001600160a01b038281169116145b80610b8657506040516301ffc9a760e01b81526331f5be1560e01b60048201526001600160a01b038216906301ffc9a790602401602060405180830381865afa158015610b60573d6000803e3d6000fd5b505050506040513d601f19601f82011682018060405250810190610b84919061405c565b155b15610ba4576040516306cf420760e31b815260040160405180910390fd5b600c80546001600160a01b0319908116909155600a80546001600160a01b03841692168217905542600b556040519081527f5c74c441be501340b2713817a6c6975e6f3d4a4ae39fa1ac0bf75d3c54a0cad3906020015b60405180910390a150565b6001600160a01b03811660009081526001602052604081205460ff165b92915050565b610c316128c3565b610a5560006129df565b610c436128c3565b610c4b61296d565b600254610c6a906201000090046001600160601b03165b600590612a2f565b610c90610c75611667565b6002546201000090046001600160601b031660059190612aad565b610cc56001600160a01b037f000000000000000000000000000000000000000000000000000000000000000016333085612b1d565b610cf2600583837f0000000000000000000000000000000000000000000000000000000000000000612b5b565b7f6c07ee05dcf262f13abf9d87b846ee789d2f90fe991d495acd7d7fc109ee1f5582610d1e834261401a565b6040805192835260208301919091520160405180910390a15050565b6009546001600160a01b03163314610d6557604051630f5caa3360e41b815260040160405180910390fd5b6001600160a01b0382166000908152600160205260409020805460ff16610daa5760405163eac13dcd60e01b81526001600160a01b03841660048201526024016107d9565b60028101546001600160601b0316821115610de957600281015460405163c9dcab8760e01b81526001600160601b0390911660048201526024016107d9565b610df282612083565b600282018054600090610e0f9084906001600160601b031661407e565b92506101000a8154816001600160601b0302191690836001600160601b031602179055507f0f0bc5b519ddefdd8e5f9e6423433aa2b869738de2ae34d58ebc796fc749fa0d83836040516108a49291906001600160a01b03929092168252602082015260400190565b6001600160a01b03811660009081526001602081815260408084208151608081018352815460ff81161515825261010090046001600160601b03168185015293810180548351818602810186018552818152879695939486019390929190879084015b82821015610f23576000848152602090819020604080518082019091526002850290910180546001600160601b03168252600190810154828401529083529092019101610edb565b50505090825250600291909101546001600160601b03166020909101528051909150610f525750600092915050565b80602001516001600160601b0316600003610f705750600092915050565b610f9883610f7c611667565b6002546201000090046001600160601b03166005929190612c63565b9392505050565b6009546001600160a01b03163314610fca57604051630f5caa3360e41b815260040160405180910390fd5b6001600160a01b03821660009081526001602081815260408084208151608081018352815460ff81161515825261010090046001600160601b03168185015293810180548351818602810186018552818152929493860193879084015b8282101561106f576000848152602090819020604080518082019091526002850290910180546001600160601b03168252600190810154828401529083529092019101611027565b50505090825250600291909101546001600160601b031660209091015280519091506110b95760405163eac13dcd60e01b81526001600160a01b03841660048201526024016107d9565b60006110c784610f7c611667565b905060006110d58483612cac565b90506110e081612083565b6001600160a01b03861660009081526005602052604090208054600c90611118908490600160601b90046001600160601b0316613fb6565b92506101000a8154816001600160601b0302191690836001600160601b031602179055506111826111516000546001600160a01b031690565b6001600160a01b037f000000000000000000000000000000000000000000000000000000000000000016908361280a565b604080516001600160a01b0387168152602081018390527ff3136d14e8fd8ddb090effdbecb5d9547b6e17d9006ef9c25ca5b1e00dbfe51791015b60405180910390a15050505050565b6111d4610742565b156111fc57604051635185386160e11b815260016004820152600060248201526044016107d9565b600c546001600160a01b0316611225576040516306cf420760e31b815260040160405180910390fd5b600080600061123333612cc2565b600c549295509093509150611260906001600160a01b031682611256858761401a565b610901919061401a565b600c546001600160a01b03166331f5be158261127c858761401a565b611286919061401a565b33888860405160200161129b939291906140c7565b6040516020818303038152906040526040518363ffffffff1660e01b81526004016112c79291906140ea565b600060405180830381600087803b1580156112e157600080fd5b505af11580156112f5573d6000803e3d6000fd5b505050507f667838b33bdc898470de09e0e746990f2adc11b965b7fe6828e502ebc39e04343384848489896040516111bd96959493929190614103565b61133a6128c3565b600854600160701b900463ffffffff16156113675760405162dc149f60e41b815260040160405180910390fd5b61139260017f0000000000000000000000000000000000000000000000000000000000000000612e33565b6113c76001600160a01b037f000000000000000000000000000000000000000000000000000000000000000016333085612b1d565b610a7360057f00000000000000000000000000000000000000000000000000000000000000008484612eb3565b6113fc6128c3565b6001600160a01b0381166114235760405163f6b2911f60e01b815260040160405180910390fd5b600980546001600160a01b0319166001600160a01b0383169081179091556040519081527f79f74fd5964b6943d8a1865abfb7f668c92fa3f32c0a2e3195da7d0946703ad790602001610bfb565b6001600160a01b03811660009081526001602052604081205461010090046001600160601b03168082036114a85750600092915050565b6001600160a01b03831660009081526001602052604090205460ff16156114d25750600092915050565b6001600160a01b0383166000908152600560205260409020546001600160601b031661153d611521837f0000000000000000000000000000000000000000000000000000000000000000612f82565b6002546201000090046001600160601b03165b60059190612f98565b610f989190614007565b61154f6128c3565b600854600160701b900463ffffffff16158015906115725750611570610742565b155b1561159a57604051635185386160e11b815260006004820152600160248201526044016107d9565b610a7360018383612fbe565b6115ae6120b1565b64e8d4a510008110156115db57604051631d820b1760e01b815264e8d4a5100060048201526024016107d9565b60006115ec64e8d4a5100083613ff3565b90508015611601576115fe8183614007565b91505b3360009081526001602052604090205460ff1615611628576116233383613212565b611632565b611632338361348e565b610a736001600160a01b037f000000000000000000000000000000000000000000000000000000000000000016333085612b1d565b600254600090610768906201000090046001600160601b03167f000000000000000000000000000000000000000000000000000000000000000061376f565b6116ae6120b1565b3360009081526001602081815260408084208151608081018352815460ff81161515825261010090046001600160601b03168185015293810180548351818602810186018552818152929493860193879084015b8282101561174a576000848152602090819020604080518082019091526002850290910180546001600160601b03168252600190810154828401529083529092019101611702565b50505090825250600291909101546001600160601b031660209091015280519091501561178a5760405163b7195bcb60e01b815260040160405180910390fd5b60006117c661152183602001516001600160601b03167f0000000000000000000000000000000000000000000000000000000000000000612f82565b33600090815260056020526040812054919250906117ed906001600160601b031683614007565b90506117f882612083565b33600081815260056020526040902080546001600160601b0319166001600160601b03939093169290921790915561185b906001600160a01b037f000000000000000000000000000000000000000000000000000000000000000016908361280a565b60408051338152602081018390527f106f923f993c2149d49b4255ff723acafa1f2d94393f561d3eda32ae348f724191016108a4565b6118996128c3565b6118a1610742565b156118c957604051635185386160e11b815260016004820152600060248201526044016107d9565b6002546118e4906201000090046001600160601b0316610c62565b611392610c75611667565b6004546000906118fd610980565b6040516370a0823160e01b81523060048201527f00000000000000000000000000000000000000000000000000000000000000006001600160a01b0316906370a0823190602401602060405180830381865afa158015611961573d6000803e3d6000fd5b505050506040513d601f19601f820116820180604052508101906119859190614144565b61198f9190614007565b6107689190614007565b6119a16120b1565b33600090815260016020819052604082200180549091036119d757604051630f1ed8ad60e21b81523360048201526024016107d9565b60008060005b8354811015611a9d5760008482815481106119fa576119fa61402d565b9060005260206000209060020201905042858381548110611a1d57611a1d61402d565b90600052602060002090600202016001015411611a84578054611a49906001600160601b03168561401a565b8154600480549296506001600160601b0390911691600090611a6c908490614007565b90915550839050611a7c81614043565b935050611a8a565b50611a9d565b5080611a9581614043565b9150506119dd565b508015611b995760005b8354611ab4908390614007565b811015611b405783611ac6838361401a565b81548110611ad657611ad661402d565b9060005260206000209060020201848281548110611af657611af661402d565b60009182526020909120825460029092020180546001600160601b0319166001600160601b0390921691909117815560019182015491015580611b3881614043565b915050611aa7565b5060005b81811015611b975783805480611b5c57611b5c61415d565b60008281526020812060026000199093019283020180546001600160601b031916815560010155905580611b8f81614043565b915050611b44565b505b8115611bd357611bd36001600160a01b037f000000000000000000000000000000000000000000000000000000000000000016338461280a565b60408051338152602081018490527fbb6ad7a7bb63a1746b89ec2f2339de4e0f983ef7e7b101c8c4f716c08c2a711491016108a4565b611c116128c3565b600a546001600160a01b0316611c3a576040516306cf420760e31b815260040160405180910390fd5b600b54611c4a9062093a8061401a565b421015611c6a57604051631decfebb60e31b815260040160405180910390fd5b600a8054600c80546001600160a01b0383166001600160a01b031991821681179092559091169091556040519081527ffa33c052bbee754f3c0482a89962daffe749191fa33c696a61e947fbfd68bd84906020015b60405180910390a1565b611cd16128c3565b6001600160a01b038116611d365760405162461bcd60e51b815260206004820152602660248201527f4f776e61626c653a206e6577206f776e657220697320746865207a65726f206160448201526564647265737360d01b60648201526084016107d9565b611d3f816129df565b50565b606080600060016000016000856001600160a01b03166001600160a01b03168152602001908152602001600020600101805480602002602001604051908101604052809291908181526020016000905b82821015611dda576000848152602090819020604080518082019091526002850290910180546001600160601b03168252600190810154828401529083529092019101611d92565b505050509050805167ffffffffffffffff811115611dfa57611dfa614173565b604051908082528060200260200182016040528015611e23578160200160208202803683370190505b509250805167ffffffffffffffff811115611e4057611e40614173565b604051908082528060200260200182016040528015611e69578160200160208202803683370190505b50915060005b8151811015611f1557818181518110611e8a57611e8a61402d565b602002602001015160000151848281518110611ea857611ea861402d565b60200260200101906001600160601b031690816001600160601b031681525050818181518110611eda57611eda61402d565b602002602001015160200151838281518110611ef857611ef861402d565b602090810291909101015280611f0d81614043565b915050611e6f565b5050915091565b60028301546001600160601b0316821015611f4d57604051630f9e1c3b60e11b8152600481018390526024016107d9565b6002830154600160601b90046001600160601b0316811015611f855760405163bc91aa3360e01b8152600481018290526024016107d9565b60028301546001600160601b03168214611ff857611fa282612083565b6002840180546001600160601b0319166001600160601b03929092169190911790556040518281527f7f4f497e086b2eb55f8a9885ba00d33399bbe0ebcb92ea092834386435a1b9c09060200160405180910390a15b6002830154600160601b90046001600160601b0316811461207e5761201c81612083565b6002840180546001600160601b0392909216600160601b026bffffffffffffffffffffffff60601b199092169190911790556040518181527fb5f554e5ef00806bace1edbb84186512ebcefa2af7706085143f501f29314df7906020016108a4565b505050565b60006001600160601b038211156120ad5760405163408ba96f60e11b815260040160405180910390fd5b5090565b600054600160a01b900460ff1615610a555760405162461bcd60e51b815260206004820152601060248201526f14185d5cd8589b194e881c185d5cd95960821b60448201526064016107d9565b6001600160a01b03831660009081526001602081815260408084208151608081018352815460ff81161515825261010090046001600160601b03168185015293810180548351818602810186018552818152879687969095860193919290879084015b828210156121a9576000848152602090819020604080518082019091526002850290910180546001600160601b03168252600190810154828401529083529092019101612161565b50505090825250600291909101546001600160601b0316602090910152905060008590036121f557604051637ece672b60e11b81526001600160a01b03871660048201526024016107d9565b8481602001516001600160601b0316101561223457602081015160405163477d28dd60e01b81526001600160601b0390911660048201526024016107d9565b60025461224f906201000090046001600160601b0316610c62565b61225a610c75611667565b80511561250c577f000000000000000000000000000000000000000000000000000000000000000085146122ac57604051633ac3109f60e01b81526001600160a01b03871660048201526024016107d9565b60608101516001600160601b0316156122e357604051634ed4c4c760e11b81526001600160a01b03871660048201526024016107d9565b60006122f187610f7c611667565b90506122fc86612083565b60028054600e9061231e908490600160701b90046001600160601b031661407e565b92506101000a8154816001600160601b0302191690836001600160601b0316021790555061234b86612083565b6001600160a01b0388166000908152600160208190526040909120805490919061238490849061010090046001600160601b031661407e565b92506101000a8154816001600160601b0302191690836001600160601b0316021790555084612484576123b686612083565b6001600160601b0316600160030160008282546123d3919061401a565b90915550506001600160a01b038716600090815260016020819052604091829020825180840190935201908061240889612083565b6001600160601b031681526020016124407f00000000000000000000000000000000000000000000000000000000000000004261401a565b90528154600180820184556000938452602093849020835160029093020180546001600160601b0319166001600160601b0390931692909217825591909201519101555b600680546001919060009061249d90849060ff16614189565b825461010092830a60ff818102199092169290911602179091556006546001600160a01b038a16600090815260056020526040812080546bffffffffffffffffffffffff60601b1916939092046001600160601b0316600160601b029290921790559450909250612802915050565b6001600160a01b0386166000908152600560209081526040822054908301516001600160601b03918216916125669161152191167f0000000000000000000000000000000000000000000000000000000000000000612f82565b6125709190614007565b905061257b86612083565b60028054819061259b9084906201000090046001600160601b031661407e565b92506101000a8154816001600160601b0302191690836001600160601b031602179055506125c886612083565b6001600160a01b0388166000908152600160208190526040909120805490919061260190849061010090046001600160601b031661407e565b82546001600160601b0391821661010093840a90810290830219909116179092556001600160a01b038a16600090815260016020526040812054919091049091169003905061268557600780546001919060009061266690849063ffffffff166141a2565b92506101000a81548163ffffffff021916908363ffffffff1602179055505b846127615761269386612083565b6001600160601b0316600160030160008282546126b0919061401a565b90915550506001600160a01b03871660009081526001602081905260409182902082518084019093520190806126e589612083565b6001600160601b0316815260200161271d7f00000000000000000000000000000000000000000000000000000000000000004261401a565b90528154600180820184556000938452602093849020835160029093020180546001600160601b0319166001600160601b0390931692909217825591909201519101555b6001600160a01b0387166000908152600160205260409020546127bf906127ba906115219061010090046001600160601b03167f0000000000000000000000000000000000000000000000000000000000000000612f82565b612083565b6001600160a01b038816600090815260056020526040812080546001600160601b0319166001600160601b03939093169290921790915590935091506128029050565b935093915050565b6040516001600160a01b03831660248201526044810182905261207e90849063a9059cbb60e01b906064015b60408051601f198184030181529190526020810180516001600160e01b03166001600160e01b03199093169290921790915261377b565b60408051608081018252600183015460ff8082161515835261010082041660208301526001600160601b036201000082048116938301849052600160701b9091041660608201819052600092610f98919061401a565b6000546001600160a01b03163314610a555760405162461bcd60e51b815260206004820181905260248201527f4f776e61626c653a2063616c6c6572206973206e6f7420746865206f776e657260448201526064016107d9565b61292561384d565b6000805460ff60a01b191690557f5db9ee0a495bf2e6ff9c91a7834c1ba4fdd244a5e8aa4e537bd38aeae4b073aa335b6040516001600160a01b039091168152602001611cbf565b612975610742565b610a5557604051635185386160e11b815260006004820152600160248201526044016107d9565b6129a46120b1565b6000805460ff60a01b1916600160a01b1790557f62e78cea01bee320cd4e420270b5ea74000d11b0c9f74754ebdbfc544b05a2586129553390565b600080546001600160a01b038381166001600160a01b0319831681178455604051919092169283917f8be0079c531659141344cd1fd0a4f28419497f9722a3daafe3b4186f6b6457e09190a35050565b612a3c6127ba83836138a6565b6002830180546001600160601b0392909216640100000000026fffffffffffffffffffffffff0000000019909216919091179055612a81612a7c836139a6565b6139c5565b6002909201805463ffffffff93909316600160801b0263ffffffff60801b199093169290921790915550565b612abb6127ba8484846139ec565b6001840180546001600160601b039290921661010002610100600160681b0319909216919091179055612af0612a7c846139a6565b6001909301805463ffffffff94909416600160681b0263ffffffff60681b19909416939093179092555050565b6040516001600160a01b0380851660248301528316604482015260648101829052612b559085906323b872dd60e01b90608401612836565b50505050565b6003840154600090849042600160501b90910463ffffffff161115612bb7576003860154612b97904290600160501b900463ffffffff16614007565b6003870154612bb2919069ffffffffffffffffffff166141bf565b612bba565b60005b612bc4919061401a565b905081831015612be65760405162da056d60e81b815260040160405180910390fd5b612bf3612a7c844261401a565b60038601805463ffffffff92909216600160501b026dffffffff0000000000000000000019909216919091179055612c33612c2e84836141d6565b613af7565b600395909501805469ffffffffffffffffffff191669ffffffffffffffffffff9096169590951790945550505050565b6001600160a01b038316600090815260208590526040812054600160601b90046001600160601b0316612c97868585613b24565b612ca19190614007565b90505b949350505050565b6000818310612cbb5781610f98565b5090919050565b6001600160a01b03811660009081526001602081815260408084208151608081018352815460ff81161515825261010090046001600160601b031681850152938101805483518186028101860185528181528796879687969195949186019390879084015b82821015612d6f576000848152602090819020604080518082019091526002850290910180546001600160601b03168252600190810154828401529083529092019101612d27565b50505090825250600291909101546001600160601b039081166020928301529082015191925016600003612dc157604051637256ef3960e11b81526001600160a01b03861660048201526024016107d9565b60608101516001600160601b031615612df857604051634ed4c4c760e11b81526001600160a01b03861660048201526024016107d9565b600080612e148784602001516001600160601b031660016120fe565b6020909401516001600160601b03169650945091925050509193909250565b6001820154610100900460ff16811115612e7657600182015460405163e709379960e01b815261010090910460ff166004820152602481018290526044016107d9565b6001828101805460ff191690911790556040517fded6ebf04e261e1eb2f3e3b268a2e6aee5b478c15b341eba5cf18b9bc80c2e6390600090a15050565b6000612ebe426139c5565b60038601805463ffffffff60701b1916600160701b63ffffffff84169081029190911790915560018701805463ffffffff60681b1916600160681b830217905560028701805463ffffffff60801b1916600160801b9092029190911790559050612f2a85848487612b5b565b60038501546040805185815263ffffffff600160701b840481166020830152600160501b909304909216908201527f4398f7e311b2f8164ce7d424166e6e84fd9a74adda069e902beead8e4eb737b8906060016111bd565b6000612f8e838361376f565b610f989084614007565b600064e8d4a51000612faa85846138a6565b612fb490856141bf565b612ca491906141d6565b60005b818110156131ce57836000848484818110612fde57612fde61402d565b9050602002016020810190612ff39190613e0a565b6001600160a01b0316815260208101919091526040016000205460ff1615613060578282828181106130275761302761402d565b905060200201602081019061303c9190613e0a565b604051625290b360e11b81526001600160a01b0390911660048201526024016107d9565b600084818585858181106130765761307661402d565b905060200201602081019061308b9190613e0a565b6001600160a01b0316815260208101919091526040016000205461010090046001600160601b03161115613105578282828181106130cb576130cb61402d565b90506020020160208101906130e09190613e0a565b60405163602d4d1160e01b81526001600160a01b0390911660048201526024016107d9565b600184600085858581811061311c5761311c61402d565b90506020020160208101906131319190613e0a565b6001600160a01b031681526020810191909152604001600020805460ff19169115159190911790557fac6fa858e9350a46cec16539926e0fde25b7629f84b5a72bffaae4df888ae86d83838381811061318c5761318c61402d565b90506020020160208101906131a19190613e0a565b6040516001600160a01b03909116815260200160405180910390a1806131c681614043565b915050612fc1565b506131d881613b31565b60018401546131ef9190610100900460ff166141ea565b6001909301805460ff949094166101000261ff0019909416939093179092555050565b6001600160a01b0382166000908152600160205260408120805490916101009091046001600160601b031690613248848361401a565b90507f00000000000000000000000000000000000000000000000000000000000000008110156132ad57604051631d820b1760e01b81527f000000000000000000000000000000000000000000000000000000000000000060048201526024016107d9565b7f000000000000000000000000000000000000000000000000000000000000000081111561331b576132ff7f000000000000000000000000000000000000000000000000000000000000000082614007565b604051631728673b60e31b81526004016107d991815260200190565b816000036133b95761332e610c75611667565b60065460ff16600081900361334f5760068054610100600160681b03191690555b61335a8160016141ea565b6006805460ff191660ff9290921691909117908190556001600160a01b038716600090815260056020526040902080546bffffffffffffffffffffffff60601b19166101009092046001600160601b0316600160601b02919091179055505b6133c284612083565b60028054600e906133e4908490600160701b90046001600160601b0316613fb6565b92506101000a8154816001600160601b0302191690836001600160601b0316021790555061341181612083565b6001600160a01b03861660008181526001602090815260409182902080546001600160601b039590951661010002610100600160681b03199095169490941790935580519182529181018690529081018290527f1449c6dd7851abc30abf37f57715f492010519147cc2652fbc38202c18a6ee90906060016111bd565b61349661296d565b6001600160a01b03821660009081526001602052604081205461010090046001600160601b0316906134c8838361401a565b90507f000000000000000000000000000000000000000000000000000000000000000081101561352d57604051631d820b1760e01b81527f000000000000000000000000000000000000000000000000000000000000000060048201526024016107d9565b600354600160601b90046001600160601b031680821115613552576132ff8382614007565b600061355e6001613b55565b90508085111561358457604051631728673b60e31b8152600481018290526024016107d9565b60025461359f906201000090046001600160601b0316610c62565b6135aa610c75611667565b836000036135ed5760078054600191906000906135ce90849063ffffffff16614203565b92506101000a81548163ffffffff021916908363ffffffff1602179055505b6000613619867f0000000000000000000000000000000000000000000000000000000000000000612f82565b905061363b6127ba826115346002546001600160601b03620100009091041690565b6001600160a01b0388166000908152600560205260408120805490919061366c9084906001600160601b0316613fb6565b92506101000a8154816001600160601b0302191690836001600160601b0316021790555061369986612083565b6002805481906136b99084906201000090046001600160601b0316613fb6565b92506101000a8154816001600160601b0302191690836001600160601b031602179055506136e684612083565b6001600160a01b03881660008181526001602090815260409182902080546001600160601b039590951661010002610100600160681b03199095169490941790935580519182529181018890529081018590527f1449c6dd7851abc30abf37f57715f492010519147cc2652fbc38202c18a6ee909060600160405180910390a150505050505050565b6000610f9882846141d6565b60006137d0826040518060400160405280602081526020017f5361666545524332303a206c6f772d6c6576656c2063616c6c206661696c6564815250856001600160a01b0316613bb19092919063ffffffff16565b80519091501561207e57808060200190518101906137ee919061405c565b61207e5760405162461bcd60e51b815260206004820152602a60248201527f5361666545524332303a204552433230206f7065726174696f6e20646964206e6044820152691bdd081cdd58d8d9595960b21b60648201526084016107d9565b600054600160a01b900460ff16610a555760405162461bcd60e51b815260206004820152601460248201527f5061757361626c653a206e6f742070617573656400000000000000000000000060448201526064016107d9565b6000816000036138cc5750600282015464010000000090046001600160601b0316610c23565b600383015460009042600160501b90910463ffffffff16111561390a57600284015461390590600160801b900463ffffffff1642614007565b613935565b600284015460038501546139359163ffffffff600160801b909104811691600160501b900416614007565b600385015490915061397590849064e8d4a510009061396190859069ffffffffffffffffffff166141bf565b61396b91906141bf565b6127ba91906141d6565b6002850154613995919064010000000090046001600160601b0316613fb6565b6001600160601b0316949350505050565b6003810154600090610c2390600160501b900463ffffffff1642612cac565b600063ffffffff8211156120ad5760405163408ba96f60e11b815260040160405180910390fd5b600081600003613a0f5750600183015461010090046001600160601b0316610f98565b600384015460009042600160501b90910463ffffffff161115613a4d576001850154613a4890600160681b900463ffffffff1642614007565b613a78565b60018501546003860154613a789163ffffffff600160681b909104811691600160501b900416614007565b600180870154919250613ac891613a949160ff90911690613bc0565b600387015485908790613ab490869069ffffffffffffffffffff166141bf565b613abe91906141bf565b61396b91906141d6565b6001860154613ae5919061010090046001600160601b0316613fb6565b6001600160601b031695945050505050565b600069ffffffffffffffffffff8211156120ad5760405163408ba96f60e11b815260040160405180910390fd5b6000612ca48484846139ec565b600060ff8211156120ad5760405163408ba96f60e11b815260040160405180910390fd5b60408051608081018252600183015460ff8082161515835261010082041660208301526001600160601b036201000082048116938301849052600160701b909104811660608301526002840154600093610f9892909116614007565b6060612ca48484600085613bcf565b6000818311612cbb5781610f98565b606082471015613c305760405162461bcd60e51b815260206004820152602660248201527f416464726573733a20696e73756666696369656e742062616c616e636520666f6044820152651c8818d85b1b60d21b60648201526084016107d9565b600080866001600160a01b03168587604051613c4c9190614220565b60006040518083038185875af1925050503d8060008114613c89576040519150601f19603f3d011682016040523d82523d6000602084013e613c8e565b606091505b5091509150613c9f87838387613caa565b979650505050505050565b60608315613d19578251600003613d12576001600160a01b0385163b613d125760405162461bcd60e51b815260206004820152601d60248201527f416464726573733a2063616c6c20746f206e6f6e2d636f6e747261637400000060448201526064016107d9565b5081612ca4565b612ca48383815115613d2e5781518083602001fd5b8060405162461bcd60e51b81526004016107d99190613d98565b60005b83811015613d63578181015183820152602001613d4b565b50506000910152565b60008151808452613d84816020860160208601613d48565b601f01601f19169290920160200192915050565b602081526000610f986020830184613d6c565b80356001600160a01b0381168114613dc257600080fd5b919050565b60008060408385031215613dda57600080fd5b613de383613dab565b946020939093013593505050565b600060208284031215613e0357600080fd5b5035919050565b600060208284031215613e1c57600080fd5b610f9882613dab565b60008060408385031215613e3857600080fd5b50508035926020909101359150565b60008060208385031215613e5a57600080fd5b823567ffffffffffffffff80821115613e7257600080fd5b818501915085601f830112613e8657600080fd5b813581811115613e9557600080fd5b866020828501011115613ea757600080fd5b60209290920196919550909350505050565b60008060208385031215613ecc57600080fd5b823567ffffffffffffffff80821115613ee457600080fd5b818501915085601f830112613ef857600080fd5b813581811115613f0757600080fd5b8660208260051b8501011115613ea757600080fd5b604080825283519082018190526000906020906060840190828701845b82811015613f5e5781516001600160601b031684529284019290840190600101613f39565b5050508381038285015284518082528583019183019060005b81811015613f9357835183529284019291840191600101613f77565b5090979650505050505050565b634e487b7160e01b600052601160045260246000fd5b6001600160601b03818116838216019080821115613fd657613fd6613fa0565b5092915050565b634e487b7160e01b600052601260045260246000fd5b60008261400257614002613fdd565b500690565b81810381811115610c2357610c23613fa0565b80820180821115610c2357610c23613fa0565b634e487b7160e01b600052603260045260246000fd5b60006001820161405557614055613fa0565b5060010190565b60006020828403121561406e57600080fd5b81518015158114610f9857600080fd5b6001600160601b03828116828216039080821115613fd657613fd6613fa0565b81835281816020850137506000828201602090810191909152601f909101601f19169091010190565b6001600160a01b0384168152604060208201526000612ca160408301848661409e565b828152604060208201526000612ca46040830184613d6c565b6001600160a01b038716815285602082015284604082015283606082015260a06080820152600061413860a08301848661409e565b98975050505050505050565b60006020828403121561415657600080fd5b5051919050565b634e487b7160e01b600052603160045260246000fd5b634e487b7160e01b600052604160045260246000fd5b60ff8281168282160390811115610c2357610c23613fa0565b63ffffffff828116828216039080821115613fd657613fd6613fa0565b8082028115828204841417610c2357610c23613fa0565b6000826141e5576141e5613fdd565b500490565b60ff8181168382160190811115610c2357610c23613fa0565b63ffffffff818116838216019080821115613fd657613fd6613fa0565b60008251614232818460208701613d48565b919091019291505056fea264697066735822122067f9409ccc761037565889b633bcf8dbe7ca81bfcb449cac6efdacfef668965b64736f6c63430008120033",
    "linkReferences": {}
  },
  "methodIdentifiers": {
    "acceptMigrationTarget()": "e937fdaa",
    "addOperators(address[])": "a07aea1c",
    "addReward(uint256,uint256)": "75c93bb9",
    "claim()": "4e71d92d",
    "claimFrozenPrincipal()": "e8376b8a",
    "claimReward()": "b88a802f",
    "emergencyPause()": "51858e27",
    "emergencyUnpause()": "4a4e3bd5",
    "getArpaToken()": "d174e658",
    "getAvailableReward()": "e0974ea5",
    "getBaseReward(address)": "9a109bc2",
    "getClaimablePrincipalAmount(address)": "3ff08985",
    "getCommunityStakerLimits()": "0641bdd8",
    "getCommunityStakersCount()": "ed63e807",
    "getController()": "3018205f",
    "getDelegatesCount()": "32e28850",
    "getDelegationRateDenominator()": "5e8b40d7",
    "getDelegationReward(address)": "87e900b1",
    "getFrozenPrincipal(address)": "fa4934e7",
    "getLockedAmount(address)": "929ec537",
    "getMaxPoolSize()": "0fbc8f5b",
    "getMigrationTarget()": "1ddb5552",
    "getOperatorLimit()": "2624c83c",
    "getRewardRate()": "7e1a3786",
    "getRewardTimestamps()": "59f01879",
    "getStake(address)": "7a766460",
    "getTotalCommunityStakedAmount()": "049b2ca0",
    "getTotalDelegatedAmount()": "a7a2f5aa",
    "getTotalFrozenAmount()": "e9f37cdf",
    "getTotalStakedAmount()": "38adb6f0",
    "isActive()": "22f3e2d4",
    "isOperator(address)": "6d70f7ae",
    "lock(address,uint256)": "282d3fdf",
    "migrate(bytes)": "8932a90d",
    "newReward(uint256,uint256)": "cfcd8fd8",
    "owner()": "8da5cb5b",
    "paused()": "5c975abb",
    "proposeMigrationTarget(address)": "63b2c85a",
    "renounceOwnership()": "715018a6",
    "setController(address)": "92eefe9b",
    "setPoolConfig(uint256,uint256)": "4aba2ca9",
    "slashDelegationReward(address,uint256)": "8899fdeb",
    "stake(uint256)": "a694fc3a",
    "start(uint256,uint256)": "8fb4b573",
    "transferOwnership(address)": "f2fde38b",
    "typeAndVersion()": "181f5a77",
    "unlock(address,uint256)": "7eee288d",
    "unstake(uint256)": "2e17de78"
  },
  "id": 0
}